{
  "contractName": "AnimalRegistry",
  "abi": [
    {
      "inputs": [
        {
          "internalType": "contract FarmRegistry",
          "name": "_farmregistry",
          "type": "address"
        }
      ],
      "stateMutability": "nonpayable",
      "type": "constructor"
    },
    {
      "inputs": [
        {
          "internalType": "uint256",
          "name": "",
          "type": "uint256"
        }
      ],
      "name": "allanimals",
      "outputs": [
        {
          "internalType": "string",
          "name": "",
          "type": "string"
        }
      ],
      "stateMutability": "view",
      "type": "function"
    },
    {
      "inputs": [
        {
          "internalType": "string",
          "name": "",
          "type": "string"
        }
      ],
      "name": "animalExists",
      "outputs": [
        {
          "internalType": "bool",
          "name": "",
          "type": "bool"
        }
      ],
      "stateMutability": "view",
      "type": "function"
    },
    {
      "inputs": [
        {
          "internalType": "string",
          "name": "",
          "type": "string"
        }
      ],
      "name": "animals",
      "outputs": [
        {
          "internalType": "string",
          "name": "FarmID",
          "type": "string"
        },
        {
          "internalType": "enum AnimalRegistry.AnimalGroup",
          "name": "Group",
          "type": "uint8"
        }
      ],
      "stateMutability": "view",
      "type": "function"
    },
    {
      "inputs": [],
      "name": "farmregistry",
      "outputs": [
        {
          "internalType": "contract FarmRegistry",
          "name": "",
          "type": "address"
        }
      ],
      "stateMutability": "view",
      "type": "function"
    },
    {
      "inputs": [
        {
          "internalType": "string",
          "name": "_animalid",
          "type": "string"
        },
        {
          "internalType": "string",
          "name": "_farmid",
          "type": "string"
        },
        {
          "internalType": "uint8",
          "name": "_animalgroup",
          "type": "uint8"
        }
      ],
      "name": "registerAnimal",
      "outputs": [],
      "stateMutability": "nonpayable",
      "type": "function"
    },
    {
      "inputs": [
        {
          "internalType": "string",
          "name": "_animalid",
          "type": "string"
        },
        {
          "internalType": "string[]",
          "name": "_dates",
          "type": "string[]"
        }
      ],
      "name": "updateDates",
      "outputs": [],
      "stateMutability": "nonpayable",
      "type": "function"
    },
    {
      "inputs": [
        {
          "internalType": "string",
          "name": "_animalid",
          "type": "string"
        }
      ],
      "name": "queryAnimal",
      "outputs": [
        {
          "internalType": "string",
          "name": "",
          "type": "string"
        },
        {
          "internalType": "string",
          "name": "",
          "type": "string"
        },
        {
          "internalType": "string[]",
          "name": "",
          "type": "string[]"
        }
      ],
      "stateMutability": "view",
      "type": "function"
    },
    {
      "inputs": [],
      "name": "queryAll",
      "outputs": [
        {
          "internalType": "string[]",
          "name": "",
          "type": "string[]"
        },
        {
          "internalType": "string[]",
          "name": "",
          "type": "string[]"
        },
        {
          "internalType": "string[]",
          "name": "",
          "type": "string[]"
        },
        {
          "internalType": "string[][]",
          "name": "",
          "type": "string[][]"
        }
      ],
      "stateMutability": "view",
      "type": "function"
    }
  ],
  "bytecode": "0x60806040523480156200001157600080fd5b506040516200224f3803806200224f833981810160405281019062000037919062000095565b806000806101000a81548173ffffffffffffffffffffffffffffffffffffffff021916908373ffffffffffffffffffffffffffffffffffffffff160217905550506200012e565b6000815190506200008f8162000114565b92915050565b600060208284031215620000ae57620000ad6200010f565b5b6000620000be848285016200007e565b91505092915050565b6000620000d482620000ef565b9050919050565b6000620000e882620000c7565b9050919050565b600073ffffffffffffffffffffffffffffffffffffffff82169050919050565b600080fd5b6200011f81620000db565b81146200012b57600080fd5b50565b612111806200013e6000396000f3fe608060405234801561001057600080fd5b50600436106100885760003560e01c80637e617eca1161005b5780637e617eca14610127578063977ea31314610158578063ca854d491461018a578063e5924708146101a657610088565b8063110eed2e1461008d5780632c80a7f5146100ab5780632f4ff0e2146100db578063438b55f81461010b575b600080fd5b6100956101c7565b6040516100a29190611afb565b60405180910390f35b6100c560048036038101906100c09190611599565b6101eb565b6040516100d29190611ae0565b60405180910390f35b6100f560048036038101906100f091906116e5565b610221565b6040516101029190611b16565b60405180910390f35b610125600480360381019061012091906115e2565b6102cd565b005b610141600480360381019061013c9190611599565b610372565b60405161014f929190611b38565b60405180910390f35b610172600480360381019061016d9190611599565b610441565b60405161018193929190611b68565b60405180910390f35b6101a4600480360381019061019f919061165a565b61086c565b005b6101ae610b59565b6040516101be9493929190611a7f565b60405180910390f35b60008054906101000a900473ffffffffffffffffffffffffffffffffffffffff1681565b6002818051602081018201805184825260208301602085012081835280955050505050506000915054906101000a900460ff1681565b6003818154811061023157600080fd5b90600052602060002001600091509050805461024c90611e46565b80601f016020809104026020016040519081016040528092919081815260200182805461027890611e46565b80156102c55780601f1061029a576101008083540402835291602001916102c5565b820191906000526020600020905b8154815290600101906020018083116102a857829003601f168201915b505050505081565b6002826040516102dd9190611a51565b908152602001604051809103902060009054906101000a900460ff16610338576040517f08c379a000000000000000000000000000000000000000000000000000000000815260040161032f90611bf4565b60405180910390fd5b806001836040516103499190611a51565b9081526020016040518091039020600201908051906020019061036d92919061129a565b505050565b6001818051602081018201805184825260208301602085012081835280955050505050506000915090508060000180546103ab90611e46565b80601f01602080910402602001604051908101604052809291908181526020018280546103d790611e46565b80156104245780601f106103f957610100808354040283529160200191610424565b820191906000526020600020905b81548152906001019060200180831161040757829003601f168201915b5050505050908060010160009054906101000a900460ff16905082565b60608060606001151560028560405161045a9190611a51565b908152602001604051809103902060009054906101000a900460ff161515146104b8576040517f08c379a00000000000000000000000000000000000000000000000000000000081526004016104af90611bf4565b60405180910390fd5b6060600060028111156104ce576104cd611f21565b5b6001866040516104de9190611a51565b908152602001604051809103902060010160009054906101000a900460ff16600281111561050f5761050e611f21565b5b1415610552576040518060400160405280600a81526020017f496e204d696c6b696e670000000000000000000000000000000000000000000081525090506106bc565b6001600281111561056657610565611f21565b5b6001866040516105769190611a51565b908152602001604051809103902060010160009054906101000a900460ff1660028111156105a7576105a6611f21565b5b14156105ea576040518060400160405280600381526020017f447279000000000000000000000000000000000000000000000000000000000081525090506106bb565b6002808111156105fd576105fc611f21565b5b60018660405161060d9190611a51565b908152602001604051809103902060010160009054906101000a900460ff16600281111561063e5761063d611f21565b5b1415610681576040518060400160405280600881526020017f507265676e616e7400000000000000000000000000000000000000000000000081525090506106ba565b6040518060400160405280600781526020017f556e6b6e6f776e0000000000000000000000000000000000000000000000000081525090505b5b5b6001856040516106cc9190611a51565b9081526020016040518091039020600001816001876040516106ee9190611a51565b908152602001604051809103902060020182805461070b90611e46565b80601f016020809104026020016040519081016040528092919081815260200182805461073790611e46565b80156107845780601f1061075957610100808354040283529160200191610784565b820191906000526020600020905b81548152906001019060200180831161076757829003601f168201915b5050505050925080805480602002602001604051908101604052809291908181526020016000905b828210156108585783829060005260206000200180546107cb90611e46565b80601f01602080910402602001604051908101604052809291908181526020018280546107f790611e46565b80156108445780601f1061081957610100808354040283529160200191610844565b820191906000526020600020905b81548152906001019060200180831161082757829003601f168201915b5050505050815260200190600101906107ac565b505050509050935093509350509193909250565b600015156002846040516108809190611a51565b908152602001604051809103902060009054906101000a900460ff161515146108de576040517f08c379a00000000000000000000000000000000000000000000000000000000081526004016108d590611bd4565b60405180910390fd5b60008054906101000a900473ffffffffffffffffffffffffffffffffffffffff1673ffffffffffffffffffffffffffffffffffffffff1663f9f7aa79836040518263ffffffff1660e01b81526004016109379190611b16565b60206040518083038186803b15801561094f57600080fd5b505afa158015610963573d6000803e3d6000fd5b505050506040513d601f19601f82011682018060405250810190610987919061156c565b6109c6576040517f08c379a00000000000000000000000000000000000000000000000000000000081526004016109bd90611bb4565b60405180910390fd5b60405180606001604052808381526020018260ff1660028111156109ed576109ec611f21565b5b60028111156109ff576109fe611f21565b5b8152602001600067ffffffffffffffff811115610a1f57610a1e611fae565b5b604051908082528060200260200182016040528015610a5257816020015b6060815260200190600190039081610a3d5790505b50815250600184604051610a669190611a51565b90815260200160405180910390206000820151816000019080519060200190610a909291906112fa565b5060208201518160010160006101000a81548160ff02191690836002811115610abc57610abb611f21565b5b02179055506040820151816002019080519060200190610add92919061129a565b509050506001600284604051610af39190611a51565b908152602001604051809103902060006101000a81548160ff021916908315150217905550600383908060018154018082558091505060019003906000526020600020016000909190919091509080519060200190610b539291906112fa565b50505050565b606080606080600060038054905067ffffffffffffffff811115610b8057610b7f611fae565b5b604051908082528060200260200182016040528015610bb357816020015b6060815260200190600190039081610b9e5790505b509050600060038054905067ffffffffffffffff811115610bd757610bd6611fae565b5b604051908082528060200260200182016040528015610c0a57816020015b6060815260200190600190039081610bf55790505b509050600060038054905067ffffffffffffffff811115610c2e57610c2d611fae565b5b604051908082528060200260200182016040528015610c6157816020015b6060815260200190600190039081610c4c5790505b50905060005b6003805490508110156111b057600160038281548110610c8a57610c89611f7f565b5b90600052602060002001604051610ca19190611a68565b90815260200160405180910390206000018054610cbd90611e46565b80601f0160208091040260200160405190810160405280929190818152602001828054610ce990611e46565b8015610d365780601f10610d0b57610100808354040283529160200191610d36565b820191906000526020600020905b815481529060010190602001808311610d1957829003601f168201915b5050505050848281518110610d4e57610d4d611f7f565b5b602002602001018190525060006002811115610d6d57610d6c611f21565b5b600160038381548110610d8357610d82611f7f565b5b90600052602060002001604051610d9a9190611a68565b908152602001604051809103902060010160009054906101000a900460ff166002811115610dcb57610dca611f21565b5b1415610e2a576040518060400160405280600a81526020017f496e204d696c6b696e6700000000000000000000000000000000000000000000815250838281518110610e1a57610e19611f7f565b5b6020026020010181905250611022565b60016002811115610e3e57610e3d611f21565b5b600160038381548110610e5457610e53611f7f565b5b90600052602060002001604051610e6b9190611a68565b908152602001604051809103902060010160009054906101000a900460ff166002811115610e9c57610e9b611f21565b5b1415610efb576040518060400160405280600381526020017f4472790000000000000000000000000000000000000000000000000000000000815250838281518110610eeb57610eea611f7f565b5b6020026020010181905250611021565b600280811115610f0e57610f0d611f21565b5b600160038381548110610f2457610f23611f7f565b5b90600052602060002001604051610f3b9190611a68565b908152602001604051809103902060010160009054906101000a900460ff166002811115610f6c57610f6b611f21565b5b1415610fcb576040518060400160405280600881526020017f507265676e616e74000000000000000000000000000000000000000000000000815250838281518110610fbb57610fba611f7f565b5b6020026020010181905250611020565b6040518060400160405280600781526020017f556e6b6e6f776e0000000000000000000000000000000000000000000000000081525083828151811061101457611013611f7f565b5b60200260200101819052505b5b5b60005b60016003838154811061103b5761103a611f7f565b5b906000526020600020016040516110529190611a68565b90815260200160405180910390206002018054905081101561119c5760016003838154811061108457611083611f7f565b5b9060005260206000200160405161109b9190611a68565b908152602001604051809103902060020181815481106110be576110bd611f7f565b5b9060005260206000200180546110d390611e46565b80601f01602080910402602001604051908101604052809291908181526020018280546110ff90611e46565b801561114c5780601f106111215761010080835404028352916020019161114c565b820191906000526020600020905b81548152906001019060200180831161112f57829003601f168201915b505050505083828151811061116457611163611f7f565b5b6020026020010151838151811061117e5761117d611f7f565b5b6020026020010181905250808061119490611ea9565b915050611025565b5080806111a890611ea9565b915050610c67565b50600383838383805480602002602001604051908101604052809291908181526020016000905b828210156112835783829060005260206000200180546111f690611e46565b80601f016020809104026020016040519081016040528092919081815260200182805461122290611e46565b801561126f5780601f106112445761010080835404028352916020019161126f565b820191906000526020600020905b81548152906001019060200180831161125257829003601f168201915b5050505050815260200190600101906111d7565b505050509350965096509650965050505090919293565b8280548282559060005260206000209081019282156112e9579160200282015b828111156112e85782518290805190602001906112d89291906112fa565b50916020019190600101906112ba565b5b5090506112f69190611380565b5090565b82805461130690611e46565b90600052602060002090601f016020900481019282611328576000855561136f565b82601f1061134157805160ff191683800117855561136f565b8280016001018555821561136f579182015b8281111561136e578251825591602001919060010190611353565b5b50905061137c91906113a4565b5090565b5b808211156113a0576000818161139791906113c1565b50600101611381565b5090565b5b808211156113bd5760008160009055506001016113a5565b5090565b5080546113cd90611e46565b6000825580601f106113df57506113fe565b601f0160209004906000526020600020908101906113fd91906113a4565b5b50565b600061141461140f84611c39565b611c14565b9050808382526020820190508285602086028201111561143757611436611fe2565b5b60005b8581101561148557813567ffffffffffffffff81111561145d5761145c611fdd565b5b80860161146a8982611514565b8552602085019450602084019350505060018101905061143a565b5050509392505050565b60006114a261149d84611c65565b611c14565b9050828152602081018484840111156114be576114bd611fe7565b5b6114c9848285611e04565b509392505050565b600082601f8301126114e6576114e5611fdd565b5b81356114f6848260208601611401565b91505092915050565b60008151905061150e81612096565b92915050565b600082601f83011261152957611528611fdd565b5b813561153984826020860161148f565b91505092915050565b600081359050611551816120ad565b92915050565b600081359050611566816120c4565b92915050565b60006020828403121561158257611581611ff1565b5b6000611590848285016114ff565b91505092915050565b6000602082840312156115af576115ae611ff1565b5b600082013567ffffffffffffffff8111156115cd576115cc611fec565b5b6115d984828501611514565b91505092915050565b600080604083850312156115f9576115f8611ff1565b5b600083013567ffffffffffffffff81111561161757611616611fec565b5b61162385828601611514565b925050602083013567ffffffffffffffff81111561164457611643611fec565b5b611650858286016114d1565b9150509250929050565b60008060006060848603121561167357611672611ff1565b5b600084013567ffffffffffffffff81111561169157611690611fec565b5b61169d86828701611514565b935050602084013567ffffffffffffffff8111156116be576116bd611fec565b5b6116ca86828701611514565b92505060406116db86828701611557565b9150509250925092565b6000602082840312156116fb576116fa611ff1565b5b600061170984828501611542565b91505092915050565b600061171e83836117af565b905092915050565b600061173283836118c6565b905092915050565b600061174582611ccb565b61174f8185611d06565b93508360208202850161176185611c96565b8060005b8581101561179d578484038952815161177e8582611712565b945061178983611cec565b925060208a01995050600181019050611765565b50829750879550505050505092915050565b60006117ba82611cd6565b6117c48185611d17565b9350836020820285016117d685611ca6565b8060005b8581101561181257848403895281516117f38582611726565b94506117fe83611cf9565b925060208a019950506001810190506117da565b50829750879550505050505092915050565b600061182f82611cd6565b6118398185611d28565b93508360208202850161184b85611ca6565b8060005b8581101561188757848403895281516118688582611726565b945061187383611cf9565b925060208a0199505060018101905061184f565b50829750879550505050505092915050565b6118a281611d66565b82525050565b6118b181611dbc565b82525050565b6118c081611dce565b82525050565b60006118d182611ce1565b6118db8185611d39565b93506118eb818560208601611e13565b6118f481611ff6565b840191505092915050565b600061190a82611ce1565b6119148185611d4a565b9350611924818560208601611e13565b61192d81611ff6565b840191505092915050565b600061194382611ce1565b61194d8185611d5b565b935061195d818560208601611e13565b80840191505092915050565b6000815461197681611e46565b6119808186611d5b565b9450600182166000811461199b57600181146119ac576119df565b60ff198316865281860193506119df565b6119b585611cb6565b60005b838110156119d7578154818901526001820191506020810190506119b8565b838801955050505b50505092915050565b60006119f5601483611d4a565b9150611a0082612007565b602082019050919050565b6000611a18601683611d4a565b9150611a2382612030565b602082019050919050565b6000611a3b601683611d4a565b9150611a4682612059565b602082019050919050565b6000611a5d8284611938565b915081905092915050565b6000611a748284611969565b915081905092915050565b60006080820190508181036000830152611a998187611824565b90508181036020830152611aad8186611824565b90508181036040830152611ac18185611824565b90508181036060830152611ad5818461173a565b905095945050505050565b6000602082019050611af56000830184611899565b92915050565b6000602082019050611b1060008301846118a8565b92915050565b60006020820190508181036000830152611b3081846118ff565b905092915050565b60006040820190508181036000830152611b5281856118ff565b9050611b6160208301846118b7565b9392505050565b60006060820190508181036000830152611b8281866118ff565b90508181036020830152611b9681856118ff565b90508181036040830152611baa8184611824565b9050949350505050565b60006020820190508181036000830152611bcd816119e8565b9050919050565b60006020820190508181036000830152611bed81611a0b565b9050919050565b60006020820190508181036000830152611c0d81611a2e565b9050919050565b6000611c1e611c2f565b9050611c2a8282611e78565b919050565b6000604051905090565b600067ffffffffffffffff821115611c5457611c53611fae565b5b602082029050602081019050919050565b600067ffffffffffffffff821115611c8057611c7f611fae565b5b611c8982611ff6565b9050602081019050919050565b6000819050602082019050919050565b6000819050602082019050919050565b60008190508160005260206000209050919050565b600081519050919050565b600081519050919050565b600081519050919050565b6000602082019050919050565b6000602082019050919050565b600082825260208201905092915050565b600082825260208201905092915050565b600082825260208201905092915050565b600082825260208201905092915050565b600082825260208201905092915050565b600081905092915050565b60008115159050919050565b6000819050611d8082612082565b919050565b600073ffffffffffffffffffffffffffffffffffffffff82169050919050565b6000819050919050565b600060ff82169050919050565b6000611dc782611de0565b9050919050565b6000611dd982611d72565b9050919050565b6000611deb82611df2565b9050919050565b6000611dfd82611d85565b9050919050565b82818337600083830152505050565b60005b83811015611e31578082015181840152602081019050611e16565b83811115611e40576000848401525b50505050565b60006002820490506001821680611e5e57607f821691505b60208210811415611e7257611e71611f50565b5b50919050565b611e8182611ff6565b810181811067ffffffffffffffff82111715611ea057611e9f611fae565b5b80604052505050565b6000611eb482611da5565b91507fffffffffffffffffffffffffffffffffffffffffffffffffffffffffffffffff821415611ee757611ee6611ef2565b5b600182019050919050565b7f4e487b7100000000000000000000000000000000000000000000000000000000600052601160045260246000fd5b7f4e487b7100000000000000000000000000000000000000000000000000000000600052602160045260246000fd5b7f4e487b7100000000000000000000000000000000000000000000000000000000600052602260045260246000fd5b7f4e487b7100000000000000000000000000000000000000000000000000000000600052603260045260246000fd5b7f4e487b7100000000000000000000000000000000000000000000000000000000600052604160045260246000fd5b600080fd5b600080fd5b600080fd5b600080fd5b600080fd5b6000601f19601f8301169050919050565b7f4661726d20646f6573206e6f742065786973742e000000000000000000000000600082015250565b7f416e696d616c20616c7265616479206578697374732e00000000000000000000600082015250565b7f416e696d616c20646f6573206e6f742065786973742e00000000000000000000600082015250565b6003811061209357612092611f21565b5b50565b61209f81611d66565b81146120aa57600080fd5b50565b6120b681611da5565b81146120c157600080fd5b50565b6120cd81611daf565b81146120d857600080fd5b5056fea2646970667358221220eb02113b842d0eb0f9ae49924b13eed88584980d3730b6b6418844d21fb392dc64736f6c63430008070033",
  "immutableReferences": {},
  "source": "// SPDX-License-Identifier: MIT\npragma solidity ^0.8.0;\n\nimport \"./FarmRegistry.sol\";\n\ncontract AnimalRegistry {\n    FarmRegistry public farmregistry;\n\n    enum AnimalGroup {\n        INMILKING,\n        DRY,\n        PREGNANT\n    }\n\n    struct Animal {\n        string FarmID;\n        AnimalGroup Group;\n        string[] DatesOnFarm;\n    }\n\n    mapping(string => Animal) public animals;\n    mapping(string => bool) public animalExists;\n    string[] public allanimals; // to record all animal ids\n\n    constructor(FarmRegistry _farmregistry)\n    {\n        farmregistry = _farmregistry;\n    }\n\n    function registerAnimal(\n        string memory _animalid, \n        string memory _farmid,\n        uint8 _animalgroup) public \n        {\n            require(animalExists[_animalid] == false, \"Animal already exists.\");\n            require(farmregistry.farmExists(_farmid), \"Farm does not exist.\");\n            animals[_animalid] = Animal(_farmid,AnimalGroup(_animalgroup),new string[](0));\n            animalExists[_animalid] = true;\n            allanimals.push(_animalid);\n        }\n\n    function updateDates(string memory _animalid, string[] memory _dates) public {\n        require(animalExists[_animalid], \"Animal does not exist.\");\n        animals[_animalid].DatesOnFarm = _dates;\n    }\n\n    function queryAnimal(string memory _animalid)\n        public \n        view \n        returns(\n            string memory, \n            string memory, \n            string[] memory)\n        {\n            require(animalExists[_animalid] == true, \"Animal does not exist.\");\n\n            string memory group;\n\n            if (animals[_animalid].Group == AnimalGroup.INMILKING) {\n                group = \"In Milking\";\n            } else if (animals[_animalid].Group == AnimalGroup.DRY) {\n                group = \"Dry\";\n            } else if (animals[_animalid].Group == AnimalGroup.PREGNANT) {\n                group = \"Pregnant\";\n            } else {\n                group = \"Unknown\";\n            }\n\n            return(animals[_animalid].FarmID,\n            group,\n            animals[_animalid].DatesOnFarm);\n        }\n\n    function queryAll() public view \n    returns(\n        string[] memory,\n        string[] memory, \n        string[] memory, \n        string[][] memory\n    )\n    {\n        string[] memory farmids = new string[](allanimals.length);\n        string[] memory groups = new string[](allanimals.length);\n        string[][] memory date_arrays = new string[][](allanimals.length);\n\n        for(uint256 i=0; i<allanimals.length; i++){\n            farmids[i] = animals[allanimals[i]].FarmID;\n\n            if (animals[allanimals[i]].Group == AnimalGroup.INMILKING) {\n                groups[i] = \"In Milking\";\n            } else if (animals[allanimals[i]].Group == AnimalGroup.DRY) {\n                groups[i] = \"Dry\";\n            } else if (animals[allanimals[i]].Group == AnimalGroup.PREGNANT) {\n                groups[i] = \"Pregnant\";\n            } else {\n                groups[i] = \"Unknown\";\n            }\n\n            for(uint256 j=0; j<animals[allanimals[i]].DatesOnFarm.length; j++){\n                date_arrays[j][i] = animals[allanimals[i]].DatesOnFarm[j];\n            }\n        }\n\n        return(allanimals,farmids,groups,date_arrays);\n    }\n}",
  "sourcePath": "/home/yih/Documents/dev/beston-dapps/contracts/carbon/AnimalRegistry.sol",
  "compiler": {
    "name": "solc",
    "version": "0.8.7+commit.e28d00a7.Emscripten.clang"
  },
  "schemaVersion": "3.4.1",
  "updatedAt": "2023-07-24T06:16:01.112Z",
  "devdoc": {
    "kind": "dev",
    "methods": {},
    "version": 1
  },
  "userdoc": {
    "kind": "user",
    "methods": {},
    "version": 1
  }
}