{
  "contractName": "AnimalRegistry",
  "abi": [
    {
      "inputs": [],
      "name": "animalCount",
      "outputs": [
        {
          "internalType": "uint16",
          "name": "",
          "type": "uint16"
        }
      ],
      "stateMutability": "view",
      "type": "function",
      "constant": true
    },
    {
      "inputs": [
        {
          "internalType": "string",
          "name": "",
          "type": "string"
        }
      ],
      "name": "animalExists",
      "outputs": [
        {
          "internalType": "bool",
          "name": "",
          "type": "bool"
        }
      ],
      "stateMutability": "view",
      "type": "function",
      "constant": true
    },
    {
      "inputs": [
        {
          "internalType": "string",
          "name": "",
          "type": "string"
        }
      ],
      "name": "animals",
      "outputs": [
        {
          "internalType": "string",
          "name": "FarmID",
          "type": "string"
        },
        {
          "internalType": "enum AnimalRegistry.AnimalGroup",
          "name": "Group",
          "type": "uint8"
        }
      ],
      "stateMutability": "view",
      "type": "function",
      "constant": true
    },
    {
      "inputs": [
        {
          "internalType": "string",
          "name": "_animalid",
          "type": "string"
        },
        {
          "internalType": "string",
          "name": "_farmid",
          "type": "string"
        },
        {
          "internalType": "uint8",
          "name": "_animalgroup",
          "type": "uint8"
        }
      ],
      "name": "registerAnimal",
      "outputs": [],
      "stateMutability": "nonpayable",
      "type": "function"
    },
    {
      "inputs": [
        {
          "internalType": "string",
          "name": "_animalid",
          "type": "string"
        }
      ],
      "name": "viewAnimal",
      "outputs": [
        {
          "internalType": "string",
          "name": "",
          "type": "string"
        },
        {
          "internalType": "string",
          "name": "",
          "type": "string"
        },
        {
          "internalType": "string[]",
          "name": "",
          "type": "string[]"
        }
      ],
      "stateMutability": "view",
      "type": "function",
      "constant": true
    }
  ],
  "bytecode": "0x608060405234801561001057600080fd5b5061114f806100206000396000f3fe608060405234801561001057600080fd5b50600436106100575760003560e01c80632c80a7f51461005c57806343ccf5b21461008c5780637e617eca146100aa578063a7cb8cde146100db578063ca854d491461010d575b600080fd5b61007660048036038101906100719190610a5c565b610129565b6040516100839190610ce6565b60405180910390f35b61009461015f565b6040516100a19190610dbd565b60405180910390f35b6100c460048036038101906100bf9190610a5c565b610173565b6040516100d2929190610d01565b60405180910390f35b6100f560048036038101906100f09190610a5c565b610242565b60405161010493929190610d31565b60405180910390f35b61012760048036038101906101229190610aa5565b61066d565b005b6001818051602081018201805184825260208301602085012081835280955050505050506000915054906101000a900460ff1681565b600260009054906101000a900461ffff1681565b6000818051602081018201805184825260208301602085012081835280955050505050506000915090508060000180546101ac90610f2d565b80601f01602080910402602001604051908101604052809291908181526020018280546101d890610f2d565b80156102255780601f106101fa57610100808354040283529160200191610225565b820191906000526020600020905b81548152906001019060200180831161020857829003601f168201915b5050505050908060010160009054906101000a900460ff16905082565b60608060606001151560018560405161025b9190610ccf565b908152602001604051809103902060009054906101000a900460ff161515146102b9576040517f08c379a00000000000000000000000000000000000000000000000000000000081526004016102b090610d9d565b60405180910390fd5b6060600060028111156102cf576102ce610fea565b5b6000866040516102df9190610ccf565b908152602001604051809103902060010160009054906101000a900460ff1660028111156103105761030f610fea565b5b1415610353576040518060400160405280600a81526020017f496e204d696c6b696e670000000000000000000000000000000000000000000081525090506104bd565b6001600281111561036757610366610fea565b5b6000866040516103779190610ccf565b908152602001604051809103902060010160009054906101000a900460ff1660028111156103a8576103a7610fea565b5b14156103eb576040518060400160405280600381526020017f447279000000000000000000000000000000000000000000000000000000000081525090506104bc565b6002808111156103fe576103fd610fea565b5b60008660405161040e9190610ccf565b908152602001604051809103902060010160009054906101000a900460ff16600281111561043f5761043e610fea565b5b1415610482576040518060400160405280600881526020017f507265676e616e7400000000000000000000000000000000000000000000000081525090506104bb565b6040518060400160405280600781526020017f556e6b6e6f776e0000000000000000000000000000000000000000000000000081525090505b5b5b6000856040516104cd9190610ccf565b9081526020016040518091039020600001816000876040516104ef9190610ccf565b908152602001604051809103902060020182805461050c90610f2d565b80601f016020809104026020016040519081016040528092919081815260200182805461053890610f2d565b80156105855780601f1061055a57610100808354040283529160200191610585565b820191906000526020600020905b81548152906001019060200180831161056857829003601f168201915b5050505050925080805480602002602001604051908101604052809291908181526020016000905b828210156106595783829060005260206000200180546105cc90610f2d565b80601f01602080910402602001604051908101604052809291908181526020018280546105f890610f2d565b80156106455780601f1061061a57610100808354040283529160200191610645565b820191906000526020600020905b81548152906001019060200180831161062857829003601f168201915b5050505050815260200190600101906105ad565b505050509050935093509350509193909250565b600015156001846040516106819190610ccf565b908152602001604051809103902060009054906101000a900460ff161515146106df576040517f08c379a00000000000000000000000000000000000000000000000000000000081526004016106d690610d7d565b60405180910390fd5b6002600081819054906101000a900461ffff16809291906106ff90610f90565b91906101000a81548161ffff021916908361ffff1602179055505060405180606001604052808381526020018260ff16600281111561074157610740610fea565b5b600281111561075357610752610fea565b5b8152602001600067ffffffffffffffff81111561077357610772611048565b5b6040519080825280602002602001820160405280156107a657816020015b60608152602001906001900390816107915790505b508152506000846040516107ba9190610ccf565b908152602001604051809103902060008201518160000190805190602001906107e4929190610870565b5060208201518160010160006101000a81548160ff021916908360028111156108105761080f610fea565b5b021790555060408201518160020190805190602001906108319291906108f6565b50905050600180846040516108469190610ccf565b908152602001604051809103902060006101000a81548160ff021916908315150217905550505050565b82805461087c90610f2d565b90600052602060002090601f01602090048101928261089e57600085556108e5565b82601f106108b757805160ff19168380011785556108e5565b828001600101855582156108e5579182015b828111156108e45782518255916020019190600101906108c9565b5b5090506108f29190610956565b5090565b828054828255906000526020600020908101928215610945579160200282015b82811115610944578251829080519060200190610934929190610870565b5091602001919060010190610916565b5b5090506109529190610973565b5090565b5b8082111561096f576000816000905550600101610957565b5090565b5b80821115610993576000818161098a9190610997565b50600101610974565b5090565b5080546109a390610f2d565b6000825580601f106109b557506109d4565b601f0160209004906000526020600020908101906109d39190610956565b5b50565b60006109ea6109e584610dfd565b610dd8565b905082815260208101848484011115610a0657610a0561107c565b5b610a11848285610eeb565b509392505050565b600082601f830112610a2e57610a2d611077565b5b8135610a3e8482602086016109d7565b91505092915050565b600081359050610a5681611102565b92915050565b600060208284031215610a7257610a71611086565b5b600082013567ffffffffffffffff811115610a9057610a8f611081565b5b610a9c84828501610a19565b91505092915050565b600080600060608486031215610abe57610abd611086565b5b600084013567ffffffffffffffff811115610adc57610adb611081565b5b610ae886828701610a19565b935050602084013567ffffffffffffffff811115610b0957610b08611081565b5b610b1586828701610a19565b9250506040610b2686828701610a47565b9150509250925092565b6000610b3c8383610bd7565b905092915050565b6000610b4f82610e3e565b610b598185610e61565b935083602082028501610b6b85610e2e565b8060005b85811015610ba75784840389528151610b888582610b30565b9450610b9383610e54565b925060208a01995050600181019050610b6f565b50829750879550505050505092915050565b610bc281610e9f565b82525050565b610bd181610ed9565b82525050565b6000610be282610e49565b610bec8185610e72565b9350610bfc818560208601610efa565b610c058161108b565b840191505092915050565b6000610c1b82610e49565b610c258185610e83565b9350610c35818560208601610efa565b610c3e8161108b565b840191505092915050565b6000610c5482610e49565b610c5e8185610e94565b9350610c6e818560208601610efa565b80840191505092915050565b6000610c87601683610e83565b9150610c928261109c565b602082019050919050565b6000610caa601683610e83565b9150610cb5826110c5565b602082019050919050565b610cc981610ebe565b82525050565b6000610cdb8284610c49565b915081905092915050565b6000602082019050610cfb6000830184610bb9565b92915050565b60006040820190508181036000830152610d1b8185610c10565b9050610d2a6020830184610bc8565b9392505050565b60006060820190508181036000830152610d4b8186610c10565b90508181036020830152610d5f8185610c10565b90508181036040830152610d738184610b44565b9050949350505050565b60006020820190508181036000830152610d9681610c7a565b9050919050565b60006020820190508181036000830152610db681610c9d565b9050919050565b6000602082019050610dd26000830184610cc0565b92915050565b6000610de2610df3565b9050610dee8282610f5f565b919050565b6000604051905090565b600067ffffffffffffffff821115610e1857610e17611048565b5b610e218261108b565b9050602081019050919050565b6000819050602082019050919050565b600081519050919050565b600081519050919050565b6000602082019050919050565b600082825260208201905092915050565b600082825260208201905092915050565b600082825260208201905092915050565b600081905092915050565b60008115159050919050565b6000819050610eb9826110ee565b919050565b600061ffff82169050919050565b600060ff82169050919050565b6000610ee482610eab565b9050919050565b82818337600083830152505050565b60005b83811015610f18578082015181840152602081019050610efd565b83811115610f27576000848401525b50505050565b60006002820490506001821680610f4557607f821691505b60208210811415610f5957610f58611019565b5b50919050565b610f688261108b565b810181811067ffffffffffffffff82111715610f8757610f86611048565b5b80604052505050565b6000610f9b82610ebe565b915061ffff821415610fb057610faf610fbb565b5b600182019050919050565b7f4e487b7100000000000000000000000000000000000000000000000000000000600052601160045260246000fd5b7f4e487b7100000000000000000000000000000000000000000000000000000000600052602160045260246000fd5b7f4e487b7100000000000000000000000000000000000000000000000000000000600052602260045260246000fd5b7f4e487b7100000000000000000000000000000000000000000000000000000000600052604160045260246000fd5b600080fd5b600080fd5b600080fd5b600080fd5b6000601f19601f8301169050919050565b7f416e696d616c20616c7265616479206578697374732e00000000000000000000600082015250565b7f416e696d616c20646f6573206e6f742065786973742e00000000000000000000600082015250565b600381106110ff576110fe610fea565b5b50565b61110b81610ecc565b811461111657600080fd5b5056fea26469706673582212207a91c218315fc156914e1470b5a349b25a54d876645d93167eabb9e8deeeb8d864736f6c63430008070033",
  "immutableReferences": {},
  "source": "// SPDX-License-Identifier: MIT\npragma solidity ^0.8.0;\n\ncontract AnimalRegistry {\n    enum AnimalGroup {\n        INMILKING,\n        DRY,\n        PREGNANT\n    }\n\n    struct Animal {\n        string FarmID;\n        AnimalGroup Group;\n        string[] DatesOnFarm;\n    }\n\n    mapping(string => Animal) public animals;\n    mapping(string => bool) public animalExists;\n    uint16 public animalCount;\n\n    function registerAnimal(\n        string memory _animalid, \n        string memory _farmid,\n        uint8 _animalgroup) public \n        {\n            require(animalExists[_animalid] == false, \"Animal already exists.\");\n            animalCount++;\n            animals[_animalid] = Animal(_farmid,AnimalGroup(_animalgroup),new string[](0));\n            animalExists[_animalid] = true;\n        }\n\n    function viewAnimal(string memory _animalid)\n        public \n        view \n        returns(\n            string memory, \n            string memory, \n            string[] memory)\n        {\n            require(animalExists[_animalid] == true, \"Animal does not exist.\");\n\n            string memory group;\n\n            if (animals[_animalid].Group == AnimalGroup.INMILKING) {\n                group = \"In Milking\";\n            } else if (animals[_animalid].Group == AnimalGroup.DRY) {\n                group = \"Dry\";\n            } else if (animals[_animalid].Group == AnimalGroup.PREGNANT) {\n                group = \"Pregnant\";\n            } else {\n                group = \"Unknown\";\n            }\n\n            return(animals[_animalid].FarmID,\n            group,\n            animals[_animalid].DatesOnFarm);\n        }\n}",
  "sourcePath": "/home/yih/Documents/dev/beston-dapps/contracts/carbon/AnimalRegistry.sol",
  "compiler": {
    "name": "solc",
    "version": "0.8.7+commit.e28d00a7.Emscripten.clang"
  },
  "schemaVersion": "3.4.1",
  "updatedAt": "2023-02-10T05:37:14.667Z",
  "networkType": "ethereum",
  "devdoc": {
    "kind": "dev",
    "methods": {},
    "version": 1
  },
  "userdoc": {
    "kind": "user",
    "methods": {},
    "version": 1
  }
}