{
  "contractName": "AnimalRegistry",
  "abi": [
    {
      "inputs": [
        {
          "internalType": "contract FarmRegistry",
          "name": "_farmregistry",
          "type": "address"
        }
      ],
      "stateMutability": "nonpayable",
      "type": "constructor"
    },
    {
      "inputs": [],
      "name": "animalCount",
      "outputs": [
        {
          "internalType": "uint16",
          "name": "",
          "type": "uint16"
        }
      ],
      "stateMutability": "view",
      "type": "function",
      "constant": true
    },
    {
      "inputs": [
        {
          "internalType": "string",
          "name": "",
          "type": "string"
        }
      ],
      "name": "animalExists",
      "outputs": [
        {
          "internalType": "bool",
          "name": "",
          "type": "bool"
        }
      ],
      "stateMutability": "view",
      "type": "function",
      "constant": true
    },
    {
      "inputs": [
        {
          "internalType": "string",
          "name": "",
          "type": "string"
        }
      ],
      "name": "animals",
      "outputs": [
        {
          "internalType": "string",
          "name": "FarmID",
          "type": "string"
        },
        {
          "internalType": "enum AnimalRegistry.AnimalGroup",
          "name": "Group",
          "type": "uint8"
        }
      ],
      "stateMutability": "view",
      "type": "function",
      "constant": true
    },
    {
      "inputs": [],
      "name": "farmregistry",
      "outputs": [
        {
          "internalType": "contract FarmRegistry",
          "name": "",
          "type": "address"
        }
      ],
      "stateMutability": "view",
      "type": "function",
      "constant": true
    },
    {
      "inputs": [
        {
          "internalType": "string",
          "name": "_animalid",
          "type": "string"
        },
        {
          "internalType": "string",
          "name": "_farmid",
          "type": "string"
        },
        {
          "internalType": "uint8",
          "name": "_animalgroup",
          "type": "uint8"
        }
      ],
      "name": "registerAnimal",
      "outputs": [],
      "stateMutability": "nonpayable",
      "type": "function"
    },
    {
      "inputs": [
        {
          "internalType": "string",
          "name": "_animalid",
          "type": "string"
        }
      ],
      "name": "viewAnimal",
      "outputs": [
        {
          "internalType": "string",
          "name": "",
          "type": "string"
        },
        {
          "internalType": "string",
          "name": "",
          "type": "string"
        },
        {
          "internalType": "string[]",
          "name": "",
          "type": "string[]"
        }
      ],
      "stateMutability": "view",
      "type": "function",
      "constant": true
    }
  ],
  "bytecode": "0x60806040523480156200001157600080fd5b506040516200152a3803806200152a833981810160405281019062000037919062000095565b806000806101000a81548173ffffffffffffffffffffffffffffffffffffffff021916908373ffffffffffffffffffffffffffffffffffffffff160217905550506200012e565b6000815190506200008f8162000114565b92915050565b600060208284031215620000ae57620000ad6200010f565b5b6000620000be848285016200007e565b91505092915050565b6000620000d482620000ef565b9050919050565b6000620000e882620000c7565b9050919050565b600073ffffffffffffffffffffffffffffffffffffffff82169050919050565b600080fd5b6200011f81620000db565b81146200012b57600080fd5b50565b6113ec806200013e6000396000f3fe608060405234801561001057600080fd5b50600436106100625760003560e01c8063110eed2e146100675780632c80a7f51461008557806343ccf5b2146100b55780637e617eca146100d3578063a7cb8cde14610104578063ca854d4914610136575b600080fd5b61006f610152565b60405161007c9190610eab565b60405180910390f35b61009f600480360381019061009a9190610bd4565b610176565b6040516100ac9190610e90565b60405180910390f35b6100bd6101ac565b6040516100ca9190610fc4565b60405180910390f35b6100ed60048036038101906100e89190610bd4565b6101c0565b6040516100fb929190610ee8565b60405180910390f35b61011e60048036038101906101199190610bd4565b61028f565b60405161012d93929190610f18565b60405180910390f35b610150600480360381019061014b9190610c1d565b6106ba565b005b60008054906101000a900473ffffffffffffffffffffffffffffffffffffffff1681565b6002818051602081018201805184825260208301602085012081835280955050505050506000915054906101000a900460ff1681565b600360009054906101000a900461ffff1681565b6001818051602081018201805184825260208301602085012081835280955050505050506000915090508060000180546101f99061118a565b80601f01602080910402602001604051908101604052809291908181526020018280546102259061118a565b80156102725780601f1061024757610100808354040283529160200191610272565b820191906000526020600020905b81548152906001019060200180831161025557829003601f168201915b5050505050908060010160009054906101000a900460ff16905082565b6060806060600115156002856040516102a89190610e79565b908152602001604051809103902060009054906101000a900460ff16151514610306576040517f08c379a00000000000000000000000000000000000000000000000000000000081526004016102fd90610fa4565b60405180910390fd5b60606000600281111561031c5761031b611247565b5b60018660405161032c9190610e79565b908152602001604051809103902060010160009054906101000a900460ff16600281111561035d5761035c611247565b5b14156103a0576040518060400160405280600a81526020017f496e204d696c6b696e6700000000000000000000000000000000000000000000815250905061050a565b600160028111156103b4576103b3611247565b5b6001866040516103c49190610e79565b908152602001604051809103902060010160009054906101000a900460ff1660028111156103f5576103f4611247565b5b1415610438576040518060400160405280600381526020017f44727900000000000000000000000000000000000000000000000000000000008152509050610509565b60028081111561044b5761044a611247565b5b60018660405161045b9190610e79565b908152602001604051809103902060010160009054906101000a900460ff16600281111561048c5761048b611247565b5b14156104cf576040518060400160405280600881526020017f507265676e616e740000000000000000000000000000000000000000000000008152509050610508565b6040518060400160405280600781526020017f556e6b6e6f776e0000000000000000000000000000000000000000000000000081525090505b5b5b60018560405161051a9190610e79565b90815260200160405180910390206000018160018760405161053c9190610e79565b90815260200160405180910390206002018280546105599061118a565b80601f01602080910402602001604051908101604052809291908181526020018280546105859061118a565b80156105d25780601f106105a7576101008083540402835291602001916105d2565b820191906000526020600020905b8154815290600101906020018083116105b557829003601f168201915b5050505050925080805480602002602001604051908101604052809291908181526020016000905b828210156106a65783829060005260206000200180546106199061118a565b80601f01602080910402602001604051908101604052809291908181526020018280546106459061118a565b80156106925780601f1061066757610100808354040283529160200191610692565b820191906000526020600020905b81548152906001019060200180831161067557829003601f168201915b5050505050815260200190600101906105fa565b505050509050935093509350509193909250565b600015156002846040516106ce9190610e79565b908152602001604051809103902060009054906101000a900460ff1615151461072c576040517f08c379a000000000000000000000000000000000000000000000000000000000815260040161072390610f84565b60405180910390fd5b60008054906101000a900473ffffffffffffffffffffffffffffffffffffffff1673ffffffffffffffffffffffffffffffffffffffff1663f9f7aa79836040518263ffffffff1660e01b81526004016107859190610ec6565b60206040518083038186803b15801561079d57600080fd5b505afa1580156107b1573d6000803e3d6000fd5b505050506040513d601f19601f820116820180604052508101906107d59190610ba7565b610814576040517f08c379a000000000000000000000000000000000000000000000000000000000815260040161080b90610f64565b60405180910390fd5b6003600081819054906101000a900461ffff1680929190610834906111ed565b91906101000a81548161ffff021916908361ffff1602179055505060405180606001604052808381526020018260ff16600281111561087657610875611247565b5b600281111561088857610887611247565b5b8152602001600067ffffffffffffffff8111156108a8576108a76112a5565b5b6040519080825280602002602001820160405280156108db57816020015b60608152602001906001900390816108c65790505b508152506001846040516108ef9190610e79565b908152602001604051809103902060008201518160000190805190602001906109199291906109a6565b5060208201518160010160006101000a81548160ff0219169083600281111561094557610944611247565b5b02179055506040820151816002019080519060200190610966929190610a2c565b50905050600160028460405161097c9190610e79565b908152602001604051809103902060006101000a81548160ff021916908315150217905550505050565b8280546109b29061118a565b90600052602060002090601f0160209004810192826109d45760008555610a1b565b82601f106109ed57805160ff1916838001178555610a1b565b82800160010185558215610a1b579182015b82811115610a1a5782518255916020019190600101906109ff565b5b509050610a289190610a8c565b5090565b828054828255906000526020600020908101928215610a7b579160200282015b82811115610a7a578251829080519060200190610a6a9291906109a6565b5091602001919060010190610a4c565b5b509050610a889190610aa9565b5090565b5b80821115610aa5576000816000905550600101610a8d565b5090565b5b80821115610ac95760008181610ac09190610acd565b50600101610aaa565b5090565b508054610ad99061118a565b6000825580601f10610aeb5750610b0a565b601f016020900490600052602060002090810190610b099190610a8c565b5b50565b6000610b20610b1b84611004565b610fdf565b905082815260208101848484011115610b3c57610b3b6112d9565b5b610b47848285611148565b509392505050565b600081519050610b5e81611388565b92915050565b600082601f830112610b7957610b786112d4565b5b8135610b89848260208601610b0d565b91505092915050565b600081359050610ba18161139f565b92915050565b600060208284031215610bbd57610bbc6112e3565b5b6000610bcb84828501610b4f565b91505092915050565b600060208284031215610bea57610be96112e3565b5b600082013567ffffffffffffffff811115610c0857610c076112de565b5b610c1484828501610b64565b91505092915050565b600080600060608486031215610c3657610c356112e3565b5b600084013567ffffffffffffffff811115610c5457610c536112de565b5b610c6086828701610b64565b935050602084013567ffffffffffffffff811115610c8157610c806112de565b5b610c8d86828701610b64565b9250506040610c9e86828701610b92565b9150509250925092565b6000610cb48383610d5e565b905092915050565b6000610cc782611045565b610cd18185611068565b935083602082028501610ce385611035565b8060005b85811015610d1f5784840389528151610d008582610ca8565b9450610d0b8361105b565b925060208a01995050600181019050610ce7565b50829750879550505050505092915050565b610d3a816110a6565b82525050565b610d4981611100565b82525050565b610d5881611112565b82525050565b6000610d6982611050565b610d738185611079565b9350610d83818560208601611157565b610d8c816112e8565b840191505092915050565b6000610da282611050565b610dac818561108a565b9350610dbc818560208601611157565b610dc5816112e8565b840191505092915050565b6000610ddb82611050565b610de5818561109b565b9350610df5818560208601611157565b80840191505092915050565b6000610e0e60148361108a565b9150610e19826112f9565b602082019050919050565b6000610e3160168361108a565b9150610e3c82611322565b602082019050919050565b6000610e5460168361108a565b9150610e5f8261134b565b602082019050919050565b610e73816110c5565b82525050565b6000610e858284610dd0565b915081905092915050565b6000602082019050610ea56000830184610d31565b92915050565b6000602082019050610ec06000830184610d40565b92915050565b60006020820190508181036000830152610ee08184610d97565b905092915050565b60006040820190508181036000830152610f028185610d97565b9050610f116020830184610d4f565b9392505050565b60006060820190508181036000830152610f328186610d97565b90508181036020830152610f468185610d97565b90508181036040830152610f5a8184610cbc565b9050949350505050565b60006020820190508181036000830152610f7d81610e01565b9050919050565b60006020820190508181036000830152610f9d81610e24565b9050919050565b60006020820190508181036000830152610fbd81610e47565b9050919050565b6000602082019050610fd96000830184610e6a565b92915050565b6000610fe9610ffa565b9050610ff582826111bc565b919050565b6000604051905090565b600067ffffffffffffffff82111561101f5761101e6112a5565b5b611028826112e8565b9050602081019050919050565b6000819050602082019050919050565b600081519050919050565b600081519050919050565b6000602082019050919050565b600082825260208201905092915050565b600082825260208201905092915050565b600082825260208201905092915050565b600081905092915050565b60008115159050919050565b60008190506110c082611374565b919050565b600061ffff82169050919050565b600073ffffffffffffffffffffffffffffffffffffffff82169050919050565b600060ff82169050919050565b600061110b82611124565b9050919050565b600061111d826110b2565b9050919050565b600061112f82611136565b9050919050565b6000611141826110d3565b9050919050565b82818337600083830152505050565b60005b8381101561117557808201518184015260208101905061115a565b83811115611184576000848401525b50505050565b600060028204905060018216806111a257607f821691505b602082108114156111b6576111b5611276565b5b50919050565b6111c5826112e8565b810181811067ffffffffffffffff821117156111e4576111e36112a5565b5b80604052505050565b60006111f8826110c5565b915061ffff82141561120d5761120c611218565b5b600182019050919050565b7f4e487b7100000000000000000000000000000000000000000000000000000000600052601160045260246000fd5b7f4e487b7100000000000000000000000000000000000000000000000000000000600052602160045260246000fd5b7f4e487b7100000000000000000000000000000000000000000000000000000000600052602260045260246000fd5b7f4e487b7100000000000000000000000000000000000000000000000000000000600052604160045260246000fd5b600080fd5b600080fd5b600080fd5b600080fd5b6000601f19601f8301169050919050565b7f4661726d20646f6573206e6f742065786973742e000000000000000000000000600082015250565b7f416e696d616c20616c7265616479206578697374732e00000000000000000000600082015250565b7f416e696d616c20646f6573206e6f742065786973742e00000000000000000000600082015250565b6003811061138557611384611247565b5b50565b611391816110a6565b811461139c57600080fd5b50565b6113a8816110f3565b81146113b357600080fd5b5056fea2646970667358221220dfe78eebe3476edf14e4d78932b1dc1b02587402d7e8d758a03144b18949876264736f6c63430008070033",
  "immutableReferences": {},
  "source": "// SPDX-License-Identifier: MIT\npragma solidity ^0.8.0;\n\nimport \"./FarmRegistry.sol\";\n\ncontract AnimalRegistry {\n    FarmRegistry public farmregistry;\n\n    enum AnimalGroup {\n        INMILKING,\n        DRY,\n        PREGNANT\n    }\n\n    struct Animal {\n        string FarmID;\n        AnimalGroup Group;\n        string[] DatesOnFarm;\n    }\n\n    mapping(string => Animal) public animals;\n    mapping(string => bool) public animalExists;\n    uint16 public animalCount;\n\n    constructor(FarmRegistry _farmregistry)\n    {\n        farmregistry = _farmregistry;\n    }\n\n    function registerAnimal(\n        string memory _animalid, \n        string memory _farmid,\n        uint8 _animalgroup) public \n        {\n            require(animalExists[_animalid] == false, \"Animal already exists.\");\n            require(farmregistry.farmExists(_farmid), \"Farm does not exist.\");\n            animalCount++;\n            animals[_animalid] = Animal(_farmid,AnimalGroup(_animalgroup),new string[](0));\n            animalExists[_animalid] = true;\n        }\n\n    function viewAnimal(string memory _animalid)\n        public \n        view \n        returns(\n            string memory, \n            string memory, \n            string[] memory)\n        {\n            require(animalExists[_animalid] == true, \"Animal does not exist.\");\n\n            string memory group;\n\n            if (animals[_animalid].Group == AnimalGroup.INMILKING) {\n                group = \"In Milking\";\n            } else if (animals[_animalid].Group == AnimalGroup.DRY) {\n                group = \"Dry\";\n            } else if (animals[_animalid].Group == AnimalGroup.PREGNANT) {\n                group = \"Pregnant\";\n            } else {\n                group = \"Unknown\";\n            }\n\n            return(animals[_animalid].FarmID,\n            group,\n            animals[_animalid].DatesOnFarm);\n        }\n}",
  "sourcePath": "/home/yih/Documents/dev/beston-dapps/contracts/carbon/AnimalRegistry.sol",
  "compiler": {
    "name": "solc",
    "version": "0.8.7+commit.e28d00a7.Emscripten.clang"
  },
  "schemaVersion": "3.4.1",
  "updatedAt": "2023-02-19T23:21:45.515Z",
  "networkType": "ethereum",
  "devdoc": {
    "kind": "dev",
    "methods": {},
    "version": 1
  },
  "userdoc": {
    "kind": "user",
    "methods": {},
    "version": 1
  }
}