{
  "contractName": "BToken",
  "abi": [
    {
      "inputs": [
        {
          "internalType": "uint256",
          "name": "_initialSupply",
          "type": "uint256"
        }
      ],
      "stateMutability": "nonpayable",
      "type": "constructor"
    },
    {
      "anonymous": false,
      "inputs": [
        {
          "indexed": true,
          "internalType": "address",
          "name": "_owner",
          "type": "address"
        },
        {
          "indexed": true,
          "internalType": "address",
          "name": "_spender",
          "type": "address"
        },
        {
          "indexed": false,
          "internalType": "uint256",
          "name": "_value",
          "type": "uint256"
        }
      ],
      "name": "Transfer",
      "type": "event"
    },
    {
      "inputs": [
        {
          "internalType": "address",
          "name": "",
          "type": "address"
        }
      ],
      "name": "balanceOf",
      "outputs": [
        {
          "internalType": "uint256",
          "name": "",
          "type": "uint256"
        }
      ],
      "stateMutability": "view",
      "type": "function"
    },
    {
      "inputs": [],
      "name": "name",
      "outputs": [
        {
          "internalType": "string",
          "name": "",
          "type": "string"
        }
      ],
      "stateMutability": "view",
      "type": "function"
    },
    {
      "inputs": [],
      "name": "owner",
      "outputs": [
        {
          "internalType": "address",
          "name": "",
          "type": "address"
        }
      ],
      "stateMutability": "view",
      "type": "function"
    },
    {
      "inputs": [],
      "name": "standard",
      "outputs": [
        {
          "internalType": "string",
          "name": "",
          "type": "string"
        }
      ],
      "stateMutability": "view",
      "type": "function"
    },
    {
      "inputs": [],
      "name": "symbol",
      "outputs": [
        {
          "internalType": "string",
          "name": "",
          "type": "string"
        }
      ],
      "stateMutability": "view",
      "type": "function"
    },
    {
      "inputs": [],
      "name": "totalSupply",
      "outputs": [
        {
          "internalType": "uint256",
          "name": "",
          "type": "uint256"
        }
      ],
      "stateMutability": "view",
      "type": "function"
    },
    {
      "inputs": [
        {
          "internalType": "address",
          "name": "_to",
          "type": "address"
        },
        {
          "internalType": "uint256",
          "name": "_value",
          "type": "uint256"
        }
      ],
      "name": "transfer",
      "outputs": [
        {
          "internalType": "bool",
          "name": "",
          "type": "bool"
        }
      ],
      "stateMutability": "nonpayable",
      "type": "function"
    },
    {
      "inputs": [
        {
          "internalType": "address",
          "name": "_addr",
          "type": "address"
        }
      ],
      "name": "getBalance",
      "outputs": [
        {
          "internalType": "uint256",
          "name": "",
          "type": "uint256"
        }
      ],
      "stateMutability": "view",
      "type": "function"
    },
    {
      "inputs": [],
      "name": "getTotalSupply",
      "outputs": [
        {
          "internalType": "uint256",
          "name": "",
          "type": "uint256"
        }
      ],
      "stateMutability": "view",
      "type": "function"
    }
  ],
  "bytecode": "0x60806040526040518060400160405280600c81526020017f426573746f6e20546f6b656e00000000000000000000000000000000000000008152506000908051906020019062000051929190620001d6565b506040518060400160405280600381526020017f42544b0000000000000000000000000000000000000000000000000000000000815250600190805190602001906200009f929190620001d6565b506040518060400160405280601181526020017f426573746f6e20546f6b656e2076312e3000000000000000000000000000000081525060029080519060200190620000ed929190620001d6565b50348015620000fb57600080fd5b5060405162000c8e38038062000c8e83398181016040528101906200012191906200029d565b33600360006101000a81548173ffffffffffffffffffffffffffffffffffffffff021916908373ffffffffffffffffffffffffffffffffffffffff1602179055508060056000600360009054906101000a900473ffffffffffffffffffffffffffffffffffffffff1673ffffffffffffffffffffffffffffffffffffffff1673ffffffffffffffffffffffffffffffffffffffff1681526020019081526020016000208190555080600481905550506200035d565b828054620001e490620002d9565b90600052602060002090601f01602090048101928262000208576000855562000254565b82601f106200022357805160ff191683800117855562000254565b8280016001018555821562000254579182015b828111156200025357825182559160200191906001019062000236565b5b50905062000263919062000267565b5090565b5b808211156200028257600081600090555060010162000268565b5090565b600081519050620002978162000343565b92915050565b600060208284031215620002b657620002b56200033e565b5b6000620002c68482850162000286565b91505092915050565b6000819050919050565b60006002820490506001821680620002f257607f821691505b602082108114156200030957620003086200030f565b5b50919050565b7f4e487b7100000000000000000000000000000000000000000000000000000000600052602260045260246000fd5b600080fd5b6200034e81620002cf565b81146200035a57600080fd5b50565b610921806200036d6000396000f3fe608060405234801561001057600080fd5b50600436106100935760003560e01c80638da5cb5b116100665780638da5cb5b1461012257806395d89b4114610140578063a9059cbb1461015e578063c4e41b221461018e578063f8b2cb4f146101ac57610093565b806306fdde031461009857806318160ddd146100b65780635a3b7e42146100d457806370a08231146100f2575b600080fd5b6100a06101dc565b6040516100ad91906106b9565b60405180910390f35b6100be61026a565b6040516100cb91906106db565b60405180910390f35b6100dc610270565b6040516100e991906106b9565b60405180910390f35b61010c600480360381019061010791906105b0565b6102fe565b60405161011991906106db565b60405180910390f35b61012a610316565b6040516101379190610683565b60405180910390f35b61014861033c565b60405161015591906106b9565b60405180910390f35b610178600480360381019061017391906105dd565b6103ca565b604051610185919061069e565b60405180910390f35b610196610533565b6040516101a391906106db565b60405180910390f35b6101c660048036038101906101c191906105b0565b61053d565b6040516101d391906106db565b60405180910390f35b600080546101e990610817565b80601f016020809104026020016040519081016040528092919081815260200182805461021590610817565b80156102625780601f1061023757610100808354040283529160200191610262565b820191906000526020600020905b81548152906001019060200180831161024557829003601f168201915b505050505081565b60045481565b6002805461027d90610817565b80601f01602080910402602001604051908101604052809291908181526020018280546102a990610817565b80156102f65780601f106102cb576101008083540402835291602001916102f6565b820191906000526020600020905b8154815290600101906020018083116102d957829003601f168201915b505050505081565b60056020528060005260406000206000915090505481565b600360009054906101000a900473ffffffffffffffffffffffffffffffffffffffff1681565b6001805461034990610817565b80601f016020809104026020016040519081016040528092919081815260200182805461037590610817565b80156103c25780601f10610397576101008083540402835291602001916103c2565b820191906000526020600020905b8154815290600101906020018083116103a557829003601f168201915b505050505081565b600081600560003373ffffffffffffffffffffffffffffffffffffffff1673ffffffffffffffffffffffffffffffffffffffff16815260200190815260200160002054101561041857600080fd5b81600560003373ffffffffffffffffffffffffffffffffffffffff1673ffffffffffffffffffffffffffffffffffffffff16815260200190815260200160002060008282546104679190610768565b9250508190555081600560008573ffffffffffffffffffffffffffffffffffffffff1673ffffffffffffffffffffffffffffffffffffffff16815260200190815260200160002060008282546104bd9190610712565b925050819055508273ffffffffffffffffffffffffffffffffffffffff163373ffffffffffffffffffffffffffffffffffffffff167fddf252ad1be2c89b69c2b068fc378daa952ba7f163c4a11628f55a4df523b3ef8460405161052191906106db565b60405180910390a36001905092915050565b6000600454905090565b6000600560008373ffffffffffffffffffffffffffffffffffffffff1673ffffffffffffffffffffffffffffffffffffffff168152602001908152602001600020549050919050565b600081359050610595816108bd565b92915050565b6000813590506105aa816108d4565b92915050565b6000602082840312156105c6576105c56108a7565b5b60006105d484828501610586565b91505092915050565b600080604083850312156105f4576105f36108a7565b5b600061060285828601610586565b92505060206106138582860161059b565b9150509250929050565b6106268161079c565b82525050565b610635816107ae565b82525050565b6000610646826106f6565b6106508185610701565b93506106608185602086016107e4565b610669816108ac565b840191505092915050565b61067d816107da565b82525050565b6000602082019050610698600083018461061d565b92915050565b60006020820190506106b3600083018461062c565b92915050565b600060208201905081810360008301526106d3818461063b565b905092915050565b60006020820190506106f06000830184610674565b92915050565b600081519050919050565b600082825260208201905092915050565b600061071d826107da565b9150610728836107da565b9250827fffffffffffffffffffffffffffffffffffffffffffffffffffffffffffffffff0382111561075d5761075c610849565b5b828201905092915050565b6000610773826107da565b915061077e836107da565b92508282101561079157610790610849565b5b828203905092915050565b60006107a7826107ba565b9050919050565b60008115159050919050565b600073ffffffffffffffffffffffffffffffffffffffff82169050919050565b6000819050919050565b60005b838110156108025780820151818401526020810190506107e7565b83811115610811576000848401525b50505050565b6000600282049050600182168061082f57607f821691505b6020821081141561084357610842610878565b5b50919050565b7f4e487b7100000000000000000000000000000000000000000000000000000000600052601160045260246000fd5b7f4e487b7100000000000000000000000000000000000000000000000000000000600052602260045260246000fd5b600080fd5b6000601f19601f8301169050919050565b6108c68161079c565b81146108d157600080fd5b50565b6108dd816107da565b81146108e857600080fd5b5056fea2646970667358221220f026e160d3dbc1e58cc5567f89a8e729bca0bd34cb3f4ff2f20a45e6d61c9ce964736f6c63430008070033",
  "immutableReferences": {},
  "source": "// SPDX-License-Identifier: UNLICENSED\npragma solidity ^0.8.0;\n\ncontract BToken {\n    string public name = \"Beston Token\";\n    string public symbol = \"BTK\";\n    string public standard = \"Beston Token v1.0\";\n    address public owner;\n    uint public totalSupply;\n\n    event Transfer(\n        address indexed _owner,\n        address indexed _spender,\n        uint _value\n    );\n\n    mapping(address => uint) public balanceOf;\n\n    constructor(uint _initialSupply) public {\n        owner = msg.sender;\n        balanceOf[owner] = _initialSupply;\n        totalSupply = _initialSupply;\n    }\n\n    function transfer(address _to, uint _value) public returns(bool) {\n        require(\n            balanceOf[msg.sender] >= _value\n        );\n\n        balanceOf[msg.sender] -= _value;\n        balanceOf[_to] += _value;\n\n        emit Transfer(msg.sender, _to, _value);\n\n        return true;\n    }\n\n    function getBalance(address _addr) public view returns(uint) {\n        return balanceOf[_addr];\n    }\n\n    function getTotalSupply() public view returns(uint) {\n        return totalSupply;\n    }\n}",
  "sourcePath": "/Users/yininghu/Documents/work/Beston/beston-dapps/contracts/BToken.sol",
  "compiler": {
    "name": "solc",
    "version": "0.8.7+commit.e28d00a7.Emscripten.clang"
  },
  "schemaVersion": "3.4.1",
  "updatedAt": "2022-12-08T04:57:49.966Z",
  "devdoc": {
    "kind": "dev",
    "methods": {},
    "version": 1
  },
  "userdoc": {
    "kind": "user",
    "methods": {},
    "version": 1
  }
}