{
  "contractName": "BToken",
  "abi": [
    {
      "inputs": [
        {
          "internalType": "string",
          "name": "_name",
          "type": "string"
        },
        {
          "internalType": "string",
          "name": "_symbol",
          "type": "string"
        },
        {
          "internalType": "uint256",
          "name": "_totalSupply",
          "type": "uint256"
        }
      ],
      "stateMutability": "nonpayable",
      "type": "constructor"
    },
    {
      "anonymous": false,
      "inputs": [
        {
          "indexed": true,
          "internalType": "address",
          "name": "owner",
          "type": "address"
        },
        {
          "indexed": true,
          "internalType": "address",
          "name": "spender",
          "type": "address"
        },
        {
          "indexed": false,
          "internalType": "uint256",
          "name": "value",
          "type": "uint256"
        }
      ],
      "name": "Approval",
      "type": "event"
    },
    {
      "anonymous": false,
      "inputs": [
        {
          "indexed": true,
          "internalType": "address",
          "name": "from",
          "type": "address"
        },
        {
          "indexed": true,
          "internalType": "address",
          "name": "to",
          "type": "address"
        },
        {
          "indexed": false,
          "internalType": "uint256",
          "name": "value",
          "type": "uint256"
        }
      ],
      "name": "Transfer",
      "type": "event"
    },
    {
      "inputs": [],
      "name": "admin",
      "outputs": [
        {
          "internalType": "address",
          "name": "",
          "type": "address"
        }
      ],
      "stateMutability": "view",
      "type": "function"
    },
    {
      "inputs": [
        {
          "internalType": "address",
          "name": "owner",
          "type": "address"
        },
        {
          "internalType": "address",
          "name": "spender",
          "type": "address"
        }
      ],
      "name": "allowance",
      "outputs": [
        {
          "internalType": "uint256",
          "name": "",
          "type": "uint256"
        }
      ],
      "stateMutability": "view",
      "type": "function"
    },
    {
      "inputs": [
        {
          "internalType": "address",
          "name": "spender",
          "type": "address"
        },
        {
          "internalType": "uint256",
          "name": "amount",
          "type": "uint256"
        }
      ],
      "name": "approve",
      "outputs": [
        {
          "internalType": "bool",
          "name": "",
          "type": "bool"
        }
      ],
      "stateMutability": "nonpayable",
      "type": "function"
    },
    {
      "inputs": [
        {
          "internalType": "address",
          "name": "account",
          "type": "address"
        }
      ],
      "name": "balanceOf",
      "outputs": [
        {
          "internalType": "uint256",
          "name": "",
          "type": "uint256"
        }
      ],
      "stateMutability": "view",
      "type": "function"
    },
    {
      "inputs": [],
      "name": "decimals",
      "outputs": [
        {
          "internalType": "uint8",
          "name": "",
          "type": "uint8"
        }
      ],
      "stateMutability": "view",
      "type": "function"
    },
    {
      "inputs": [
        {
          "internalType": "address",
          "name": "spender",
          "type": "address"
        },
        {
          "internalType": "uint256",
          "name": "subtractedValue",
          "type": "uint256"
        }
      ],
      "name": "decreaseAllowance",
      "outputs": [
        {
          "internalType": "bool",
          "name": "",
          "type": "bool"
        }
      ],
      "stateMutability": "nonpayable",
      "type": "function"
    },
    {
      "inputs": [
        {
          "internalType": "address",
          "name": "spender",
          "type": "address"
        },
        {
          "internalType": "uint256",
          "name": "addedValue",
          "type": "uint256"
        }
      ],
      "name": "increaseAllowance",
      "outputs": [
        {
          "internalType": "bool",
          "name": "",
          "type": "bool"
        }
      ],
      "stateMutability": "nonpayable",
      "type": "function"
    },
    {
      "inputs": [],
      "name": "name",
      "outputs": [
        {
          "internalType": "string",
          "name": "",
          "type": "string"
        }
      ],
      "stateMutability": "view",
      "type": "function"
    },
    {
      "inputs": [],
      "name": "symbol",
      "outputs": [
        {
          "internalType": "string",
          "name": "",
          "type": "string"
        }
      ],
      "stateMutability": "view",
      "type": "function"
    },
    {
      "inputs": [],
      "name": "totalSupply",
      "outputs": [
        {
          "internalType": "uint256",
          "name": "",
          "type": "uint256"
        }
      ],
      "stateMutability": "view",
      "type": "function"
    },
    {
      "inputs": [
        {
          "internalType": "address",
          "name": "to",
          "type": "address"
        },
        {
          "internalType": "uint256",
          "name": "amount",
          "type": "uint256"
        }
      ],
      "name": "transfer",
      "outputs": [
        {
          "internalType": "bool",
          "name": "",
          "type": "bool"
        }
      ],
      "stateMutability": "nonpayable",
      "type": "function"
    },
    {
      "inputs": [
        {
          "internalType": "address",
          "name": "from",
          "type": "address"
        },
        {
          "internalType": "address",
          "name": "to",
          "type": "address"
        },
        {
          "internalType": "uint256",
          "name": "amount",
          "type": "uint256"
        }
      ],
      "name": "transferFrom",
      "outputs": [
        {
          "internalType": "bool",
          "name": "",
          "type": "bool"
        }
      ],
      "stateMutability": "nonpayable",
      "type": "function"
    }
  ],
  "bytecode": "0x60806040523480156200001157600080fd5b5060405162001a2338038062001a238339818101604052810190620000379190620003b3565b82828160039080519060200190620000519291906200026e565b5080600490805190602001906200006a9291906200026e565b50505033600560006101000a81548173ffffffffffffffffffffffffffffffffffffffff021916908373ffffffffffffffffffffffffffffffffffffffff160217905550620000e2600560009054906101000a900473ffffffffffffffffffffffffffffffffffffffff1682620000eb60201b60201c565b50505062000732565b600073ffffffffffffffffffffffffffffffffffffffff168273ffffffffffffffffffffffffffffffffffffffff1614156200015e576040517f08c379a0000000000000000000000000000000000000000000000000000000008152600401620001559062000485565b60405180910390fd5b62000172600083836200026460201b60201c565b806002600082825462000186919062000534565b92505081905550806000808473ffffffffffffffffffffffffffffffffffffffff1673ffffffffffffffffffffffffffffffffffffffff1681526020019081526020016000206000828254620001dd919062000534565b925050819055508173ffffffffffffffffffffffffffffffffffffffff16600073ffffffffffffffffffffffffffffffffffffffff167fddf252ad1be2c89b69c2b068fc378daa952ba7f163c4a11628f55a4df523b3ef83604051620002449190620004a7565b60405180910390a362000260600083836200026960201b60201c565b5050565b505050565b505050565b8280546200027c90620005d1565b90600052602060002090601f016020900481019282620002a05760008555620002ec565b82601f10620002bb57805160ff1916838001178555620002ec565b82800160010185558215620002ec579182015b82811115620002eb578251825591602001919060010190620002ce565b5b509050620002fb9190620002ff565b5090565b5b808211156200031a57600081600090555060010162000300565b5090565b6000620003356200032f84620004ed565b620004c4565b905082815260208101848484011115620003545762000353620006cf565b5b620003618482856200059b565b509392505050565b600082601f830112620003815762000380620006ca565b5b8151620003938482602086016200031e565b91505092915050565b600081519050620003ad8162000718565b92915050565b600080600060608486031215620003cf57620003ce620006d9565b5b600084015167ffffffffffffffff811115620003f057620003ef620006d4565b5b620003fe8682870162000369565b935050602084015167ffffffffffffffff811115620004225762000421620006d4565b5b620004308682870162000369565b925050604062000443868287016200039c565b9150509250925092565b60006200045c601f8362000523565b91506200046982620006ef565b602082019050919050565b6200047f8162000591565b82525050565b60006020820190508181036000830152620004a0816200044d565b9050919050565b6000602082019050620004be600083018462000474565b92915050565b6000620004d0620004e3565b9050620004de828262000607565b919050565b6000604051905090565b600067ffffffffffffffff8211156200050b576200050a6200069b565b5b6200051682620006de565b9050602081019050919050565b600082825260208201905092915050565b6000620005418262000591565b91506200054e8362000591565b9250827fffffffffffffffffffffffffffffffffffffffffffffffffffffffffffffffff038211156200058657620005856200063d565b5b828201905092915050565b6000819050919050565b60005b83811015620005bb5780820151818401526020810190506200059e565b83811115620005cb576000848401525b50505050565b60006002820490506001821680620005ea57607f821691505b602082108114156200060157620006006200066c565b5b50919050565b6200061282620006de565b810181811067ffffffffffffffff821117156200063457620006336200069b565b5b80604052505050565b7f4e487b7100000000000000000000000000000000000000000000000000000000600052601160045260246000fd5b7f4e487b7100000000000000000000000000000000000000000000000000000000600052602260045260246000fd5b7f4e487b7100000000000000000000000000000000000000000000000000000000600052604160045260246000fd5b600080fd5b600080fd5b600080fd5b600080fd5b6000601f19601f8301169050919050565b7f45524332303a206d696e7420746f20746865207a65726f206164647265737300600082015250565b620007238162000591565b81146200072f57600080fd5b50565b6112e180620007426000396000f3fe608060405234801561001057600080fd5b50600436106100b45760003560e01c806370a082311161007157806370a08231146101a357806395d89b41146101d3578063a457c2d7146101f1578063a9059cbb14610221578063dd62ed3e14610251578063f851a44014610281576100b4565b806306fdde03146100b9578063095ea7b3146100d757806318160ddd1461010757806323b872dd14610125578063313ce567146101555780633950935114610173575b600080fd5b6100c161029f565b6040516100ce9190610da2565b60405180910390f35b6100f160048036038101906100ec9190610bc2565b610331565b6040516100fe9190610d87565b60405180910390f35b61010f610354565b60405161011c9190610ea4565b60405180910390f35b61013f600480360381019061013a9190610b6f565b61035e565b60405161014c9190610d87565b60405180910390f35b61015d61038d565b60405161016a9190610ebf565b60405180910390f35b61018d60048036038101906101889190610bc2565b610396565b60405161019a9190610d87565b60405180910390f35b6101bd60048036038101906101b89190610b02565b6103cd565b6040516101ca9190610ea4565b60405180910390f35b6101db610415565b6040516101e89190610da2565b60405180910390f35b61020b60048036038101906102069190610bc2565b6104a7565b6040516102189190610d87565b60405180910390f35b61023b60048036038101906102369190610bc2565b61051e565b6040516102489190610d87565b60405180910390f35b61026b60048036038101906102669190610b2f565b610541565b6040516102789190610ea4565b60405180910390f35b6102896105c8565b6040516102969190610d6c565b60405180910390f35b6060600380546102ae90610fd4565b80601f01602080910402602001604051908101604052809291908181526020018280546102da90610fd4565b80156103275780601f106102fc57610100808354040283529160200191610327565b820191906000526020600020905b81548152906001019060200180831161030a57829003601f168201915b5050505050905090565b60008061033c6105ee565b90506103498185856105f6565b600191505092915050565b6000600254905090565b6000806103696105ee565b90506103768582856107c1565b61038185858561084d565b60019150509392505050565b60006012905090565b6000806103a16105ee565b90506103c28185856103b38589610541565b6103bd9190610ef6565b6105f6565b600191505092915050565b60008060008373ffffffffffffffffffffffffffffffffffffffff1673ffffffffffffffffffffffffffffffffffffffff168152602001908152602001600020549050919050565b60606004805461042490610fd4565b80601f016020809104026020016040519081016040528092919081815260200182805461045090610fd4565b801561049d5780601f106104725761010080835404028352916020019161049d565b820191906000526020600020905b81548152906001019060200180831161048057829003601f168201915b5050505050905090565b6000806104b26105ee565b905060006104c08286610541565b905083811015610505576040517f08c379a00000000000000000000000000000000000000000000000000000000081526004016104fc90610e84565b60405180910390fd5b61051282868684036105f6565b60019250505092915050565b6000806105296105ee565b905061053681858561084d565b600191505092915050565b6000600160008473ffffffffffffffffffffffffffffffffffffffff1673ffffffffffffffffffffffffffffffffffffffff16815260200190815260200160002060008373ffffffffffffffffffffffffffffffffffffffff1673ffffffffffffffffffffffffffffffffffffffff16815260200190815260200160002054905092915050565b600560009054906101000a900473ffffffffffffffffffffffffffffffffffffffff1681565b600033905090565b600073ffffffffffffffffffffffffffffffffffffffff168373ffffffffffffffffffffffffffffffffffffffff161415610666576040517f08c379a000000000000000000000000000000000000000000000000000000000815260040161065d90610e64565b60405180910390fd5b600073ffffffffffffffffffffffffffffffffffffffff168273ffffffffffffffffffffffffffffffffffffffff1614156106d6576040517f08c379a00000000000000000000000000000000000000000000000000000000081526004016106cd90610de4565b60405180910390fd5b80600160008573ffffffffffffffffffffffffffffffffffffffff1673ffffffffffffffffffffffffffffffffffffffff16815260200190815260200160002060008473ffffffffffffffffffffffffffffffffffffffff1673ffffffffffffffffffffffffffffffffffffffff168152602001908152602001600020819055508173ffffffffffffffffffffffffffffffffffffffff168373ffffffffffffffffffffffffffffffffffffffff167f8c5be1e5ebec7d5bd14f71427d1e84f3dd0314c0f7b2291e5b200ac8c7c3b925836040516107b49190610ea4565b60405180910390a3505050565b60006107cd8484610541565b90507fffffffffffffffffffffffffffffffffffffffffffffffffffffffffffffffff81146108475781811015610839576040517f08c379a000000000000000000000000000000000000000000000000000000000815260040161083090610e04565b60405180910390fd5b61084684848484036105f6565b5b50505050565b600073ffffffffffffffffffffffffffffffffffffffff168373ffffffffffffffffffffffffffffffffffffffff1614156108bd576040517f08c379a00000000000000000000000000000000000000000000000000000000081526004016108b490610e44565b60405180910390fd5b600073ffffffffffffffffffffffffffffffffffffffff168273ffffffffffffffffffffffffffffffffffffffff16141561092d576040517f08c379a000000000000000000000000000000000000000000000000000000000815260040161092490610dc4565b60405180910390fd5b610938838383610ace565b60008060008573ffffffffffffffffffffffffffffffffffffffff1673ffffffffffffffffffffffffffffffffffffffff168152602001908152602001600020549050818110156109be576040517f08c379a00000000000000000000000000000000000000000000000000000000081526004016109b590610e24565b60405180910390fd5b8181036000808673ffffffffffffffffffffffffffffffffffffffff1673ffffffffffffffffffffffffffffffffffffffff16815260200190815260200160002081905550816000808573ffffffffffffffffffffffffffffffffffffffff1673ffffffffffffffffffffffffffffffffffffffff1681526020019081526020016000206000828254610a519190610ef6565b925050819055508273ffffffffffffffffffffffffffffffffffffffff168473ffffffffffffffffffffffffffffffffffffffff167fddf252ad1be2c89b69c2b068fc378daa952ba7f163c4a11628f55a4df523b3ef84604051610ab59190610ea4565b60405180910390a3610ac8848484610ad3565b50505050565b505050565b505050565b600081359050610ae78161127d565b92915050565b600081359050610afc81611294565b92915050565b600060208284031215610b1857610b17611064565b5b6000610b2684828501610ad8565b91505092915050565b60008060408385031215610b4657610b45611064565b5b6000610b5485828601610ad8565b9250506020610b6585828601610ad8565b9150509250929050565b600080600060608486031215610b8857610b87611064565b5b6000610b9686828701610ad8565b9350506020610ba786828701610ad8565b9250506040610bb886828701610aed565b9150509250925092565b60008060408385031215610bd957610bd8611064565b5b6000610be785828601610ad8565b9250506020610bf885828601610aed565b9150509250929050565b610c0b81610f4c565b82525050565b610c1a81610f5e565b82525050565b6000610c2b82610eda565b610c358185610ee5565b9350610c45818560208601610fa1565b610c4e81611069565b840191505092915050565b6000610c66602383610ee5565b9150610c718261107a565b604082019050919050565b6000610c89602283610ee5565b9150610c94826110c9565b604082019050919050565b6000610cac601d83610ee5565b9150610cb782611118565b602082019050919050565b6000610ccf602683610ee5565b9150610cda82611141565b604082019050919050565b6000610cf2602583610ee5565b9150610cfd82611190565b604082019050919050565b6000610d15602483610ee5565b9150610d20826111df565b604082019050919050565b6000610d38602583610ee5565b9150610d438261122e565b604082019050919050565b610d5781610f8a565b82525050565b610d6681610f94565b82525050565b6000602082019050610d816000830184610c02565b92915050565b6000602082019050610d9c6000830184610c11565b92915050565b60006020820190508181036000830152610dbc8184610c20565b905092915050565b60006020820190508181036000830152610ddd81610c59565b9050919050565b60006020820190508181036000830152610dfd81610c7c565b9050919050565b60006020820190508181036000830152610e1d81610c9f565b9050919050565b60006020820190508181036000830152610e3d81610cc2565b9050919050565b60006020820190508181036000830152610e5d81610ce5565b9050919050565b60006020820190508181036000830152610e7d81610d08565b9050919050565b60006020820190508181036000830152610e9d81610d2b565b9050919050565b6000602082019050610eb96000830184610d4e565b92915050565b6000602082019050610ed46000830184610d5d565b92915050565b600081519050919050565b600082825260208201905092915050565b6000610f0182610f8a565b9150610f0c83610f8a565b9250827fffffffffffffffffffffffffffffffffffffffffffffffffffffffffffffffff03821115610f4157610f40611006565b5b828201905092915050565b6000610f5782610f6a565b9050919050565b60008115159050919050565b600073ffffffffffffffffffffffffffffffffffffffff82169050919050565b6000819050919050565b600060ff82169050919050565b60005b83811015610fbf578082015181840152602081019050610fa4565b83811115610fce576000848401525b50505050565b60006002820490506001821680610fec57607f821691505b6020821081141561100057610fff611035565b5b50919050565b7f4e487b7100000000000000000000000000000000000000000000000000000000600052601160045260246000fd5b7f4e487b7100000000000000000000000000000000000000000000000000000000600052602260045260246000fd5b600080fd5b6000601f19601f8301169050919050565b7f45524332303a207472616e7366657220746f20746865207a65726f206164647260008201527f6573730000000000000000000000000000000000000000000000000000000000602082015250565b7f45524332303a20617070726f766520746f20746865207a65726f20616464726560008201527f7373000000000000000000000000000000000000000000000000000000000000602082015250565b7f45524332303a20696e73756666696369656e7420616c6c6f77616e6365000000600082015250565b7f45524332303a207472616e7366657220616d6f756e742065786365656473206260008201527f616c616e63650000000000000000000000000000000000000000000000000000602082015250565b7f45524332303a207472616e736665722066726f6d20746865207a65726f20616460008201527f6472657373000000000000000000000000000000000000000000000000000000602082015250565b7f45524332303a20617070726f76652066726f6d20746865207a65726f2061646460008201527f7265737300000000000000000000000000000000000000000000000000000000602082015250565b7f45524332303a2064656372656173656420616c6c6f77616e63652062656c6f7760008201527f207a65726f000000000000000000000000000000000000000000000000000000602082015250565b61128681610f4c565b811461129157600080fd5b50565b61129d81610f8a565b81146112a857600080fd5b5056fea26469706673582212202796dee11127094ba97e0b171a33a7b8ddd16e1d3d36db0ab9835197c532d48164736f6c63430008070033",
  "immutableReferences": {},
  "source": "// SPDX-License-Identifier: UNLICENSED\npragma solidity ^0.8.0;\n\nimport \"../node_modules/@openzeppelin/contracts/token/ERC20/ERC20.sol\";\n\ncontract BToken is ERC20{\n    address public admin;\n\n    constructor(string memory _name, string memory _symbol, uint256 _totalSupply)\n        ERC20(_name, _symbol)\n    {\n        admin = msg.sender;\n        _mint(admin, _totalSupply); // allocate all totalsupply of BTK to the contract admin/agent\n    }\n}",
  "sourcePath": "/home/yih/Documents/dev/beston-dapps/contracts/BToken.sol",
  "compiler": {
    "name": "solc",
    "version": "0.8.7+commit.e28d00a7.Emscripten.clang"
  },
  "schemaVersion": "3.4.1",
  "updatedAt": "2023-01-23T01:29:04.453Z",
  "networkType": "ethereum",
  "devdoc": {
    "kind": "dev",
    "methods": {
      "allowance(address,address)": {
        "details": "See {IERC20-allowance}."
      },
      "approve(address,uint256)": {
        "details": "See {IERC20-approve}. NOTE: If `amount` is the maximum `uint256`, the allowance is not updated on `transferFrom`. This is semantically equivalent to an infinite approval. Requirements: - `spender` cannot be the zero address."
      },
      "balanceOf(address)": {
        "details": "See {IERC20-balanceOf}."
      },
      "decimals()": {
        "details": "Returns the number of decimals used to get its user representation. For example, if `decimals` equals `2`, a balance of `505` tokens should be displayed to a user as `5.05` (`505 / 10 ** 2`). Tokens usually opt for a value of 18, imitating the relationship between Ether and Wei. This is the value {ERC20} uses, unless this function is overridden; NOTE: This information is only used for _display_ purposes: it in no way affects any of the arithmetic of the contract, including {IERC20-balanceOf} and {IERC20-transfer}."
      },
      "decreaseAllowance(address,uint256)": {
        "details": "Atomically decreases the allowance granted to `spender` by the caller. This is an alternative to {approve} that can be used as a mitigation for problems described in {IERC20-approve}. Emits an {Approval} event indicating the updated allowance. Requirements: - `spender` cannot be the zero address. - `spender` must have allowance for the caller of at least `subtractedValue`."
      },
      "increaseAllowance(address,uint256)": {
        "details": "Atomically increases the allowance granted to `spender` by the caller. This is an alternative to {approve} that can be used as a mitigation for problems described in {IERC20-approve}. Emits an {Approval} event indicating the updated allowance. Requirements: - `spender` cannot be the zero address."
      },
      "name()": {
        "details": "Returns the name of the token."
      },
      "symbol()": {
        "details": "Returns the symbol of the token, usually a shorter version of the name."
      },
      "totalSupply()": {
        "details": "See {IERC20-totalSupply}."
      },
      "transfer(address,uint256)": {
        "details": "See {IERC20-transfer}. Requirements: - `to` cannot be the zero address. - the caller must have a balance of at least `amount`."
      },
      "transferFrom(address,address,uint256)": {
        "details": "See {IERC20-transferFrom}. Emits an {Approval} event indicating the updated allowance. This is not required by the EIP. See the note at the beginning of {ERC20}. NOTE: Does not update the allowance if the current allowance is the maximum `uint256`. Requirements: - `from` and `to` cannot be the zero address. - `from` must have a balance of at least `amount`. - the caller must have allowance for ``from``'s tokens of at least `amount`."
      }
    },
    "version": 1
  },
  "userdoc": {
    "kind": "user",
    "methods": {},
    "version": 1
  }
}