{
  "contractName": "BToken",
  "abi": [
    {
      "inputs": [
        {
          "internalType": "string",
          "name": "_name",
          "type": "string"
        },
        {
          "internalType": "string",
          "name": "_symbol",
          "type": "string"
        },
        {
          "internalType": "uint256",
          "name": "_totalSupply",
          "type": "uint256"
        }
      ],
      "stateMutability": "nonpayable",
      "type": "constructor"
    },
    {
      "anonymous": false,
      "inputs": [
        {
          "indexed": true,
          "internalType": "address",
          "name": "owner",
          "type": "address"
        },
        {
          "indexed": true,
          "internalType": "address",
          "name": "spender",
          "type": "address"
        },
        {
          "indexed": false,
          "internalType": "uint256",
          "name": "value",
          "type": "uint256"
        }
      ],
      "name": "Approval",
      "type": "event"
    },
    {
      "anonymous": false,
      "inputs": [
        {
          "indexed": true,
          "internalType": "address",
          "name": "from",
          "type": "address"
        },
        {
          "indexed": true,
          "internalType": "address",
          "name": "to",
          "type": "address"
        },
        {
          "indexed": false,
          "internalType": "uint256",
          "name": "value",
          "type": "uint256"
        }
      ],
      "name": "Transfer",
      "type": "event"
    },
    {
      "inputs": [],
      "name": "admin",
      "outputs": [
        {
          "internalType": "address",
          "name": "",
          "type": "address"
        }
      ],
      "stateMutability": "view",
      "type": "function"
    },
    {
      "inputs": [
        {
          "internalType": "address",
          "name": "owner",
          "type": "address"
        },
        {
          "internalType": "address",
          "name": "spender",
          "type": "address"
        }
      ],
      "name": "allowance",
      "outputs": [
        {
          "internalType": "uint256",
          "name": "",
          "type": "uint256"
        }
      ],
      "stateMutability": "view",
      "type": "function"
    },
    {
      "inputs": [
        {
          "internalType": "address",
          "name": "spender",
          "type": "address"
        },
        {
          "internalType": "uint256",
          "name": "amount",
          "type": "uint256"
        }
      ],
      "name": "approve",
      "outputs": [
        {
          "internalType": "bool",
          "name": "",
          "type": "bool"
        }
      ],
      "stateMutability": "nonpayable",
      "type": "function"
    },
    {
      "inputs": [
        {
          "internalType": "address",
          "name": "account",
          "type": "address"
        }
      ],
      "name": "balanceOf",
      "outputs": [
        {
          "internalType": "uint256",
          "name": "",
          "type": "uint256"
        }
      ],
      "stateMutability": "view",
      "type": "function"
    },
    {
      "inputs": [],
      "name": "decimals",
      "outputs": [
        {
          "internalType": "uint8",
          "name": "",
          "type": "uint8"
        }
      ],
      "stateMutability": "view",
      "type": "function"
    },
    {
      "inputs": [
        {
          "internalType": "address",
          "name": "spender",
          "type": "address"
        },
        {
          "internalType": "uint256",
          "name": "subtractedValue",
          "type": "uint256"
        }
      ],
      "name": "decreaseAllowance",
      "outputs": [
        {
          "internalType": "bool",
          "name": "",
          "type": "bool"
        }
      ],
      "stateMutability": "nonpayable",
      "type": "function"
    },
    {
      "inputs": [
        {
          "internalType": "address",
          "name": "spender",
          "type": "address"
        },
        {
          "internalType": "uint256",
          "name": "addedValue",
          "type": "uint256"
        }
      ],
      "name": "increaseAllowance",
      "outputs": [
        {
          "internalType": "bool",
          "name": "",
          "type": "bool"
        }
      ],
      "stateMutability": "nonpayable",
      "type": "function"
    },
    {
      "inputs": [],
      "name": "name",
      "outputs": [
        {
          "internalType": "string",
          "name": "",
          "type": "string"
        }
      ],
      "stateMutability": "view",
      "type": "function"
    },
    {
      "inputs": [],
      "name": "symbol",
      "outputs": [
        {
          "internalType": "string",
          "name": "",
          "type": "string"
        }
      ],
      "stateMutability": "view",
      "type": "function"
    },
    {
      "inputs": [],
      "name": "totalSupply",
      "outputs": [
        {
          "internalType": "uint256",
          "name": "",
          "type": "uint256"
        }
      ],
      "stateMutability": "view",
      "type": "function"
    },
    {
      "inputs": [
        {
          "internalType": "address",
          "name": "to",
          "type": "address"
        },
        {
          "internalType": "uint256",
          "name": "amount",
          "type": "uint256"
        }
      ],
      "name": "transfer",
      "outputs": [
        {
          "internalType": "bool",
          "name": "",
          "type": "bool"
        }
      ],
      "stateMutability": "nonpayable",
      "type": "function"
    },
    {
      "inputs": [
        {
          "internalType": "address",
          "name": "from",
          "type": "address"
        },
        {
          "internalType": "address",
          "name": "to",
          "type": "address"
        },
        {
          "internalType": "uint256",
          "name": "amount",
          "type": "uint256"
        }
      ],
      "name": "transferFrom",
      "outputs": [
        {
          "internalType": "bool",
          "name": "",
          "type": "bool"
        }
      ],
      "stateMutability": "nonpayable",
      "type": "function"
    },
    {
      "inputs": [],
      "name": "userCount",
      "outputs": [
        {
          "internalType": "uint256",
          "name": "",
          "type": "uint256"
        }
      ],
      "stateMutability": "view",
      "type": "function"
    },
    {
      "inputs": [
        {
          "internalType": "string",
          "name": "",
          "type": "string"
        }
      ],
      "name": "userExists",
      "outputs": [
        {
          "internalType": "bool",
          "name": "",
          "type": "bool"
        }
      ],
      "stateMutability": "view",
      "type": "function"
    },
    {
      "inputs": [
        {
          "internalType": "uint256",
          "name": "",
          "type": "uint256"
        }
      ],
      "name": "userNames",
      "outputs": [
        {
          "internalType": "string",
          "name": "",
          "type": "string"
        }
      ],
      "stateMutability": "view",
      "type": "function"
    },
    {
      "inputs": [
        {
          "internalType": "string",
          "name": "",
          "type": "string"
        }
      ],
      "name": "users",
      "outputs": [
        {
          "internalType": "address",
          "name": "",
          "type": "address"
        }
      ],
      "stateMutability": "view",
      "type": "function"
    },
    {
      "inputs": [
        {
          "internalType": "string",
          "name": "_name",
          "type": "string"
        },
        {
          "internalType": "address",
          "name": "_addr",
          "type": "address"
        }
      ],
      "name": "registerUser",
      "outputs": [],
      "stateMutability": "nonpayable",
      "type": "function"
    },
    {
      "inputs": [],
      "name": "queryAllBalances",
      "outputs": [
        {
          "internalType": "string[]",
          "name": "",
          "type": "string[]"
        },
        {
          "internalType": "uint256[]",
          "name": "",
          "type": "uint256[]"
        }
      ],
      "stateMutability": "view",
      "type": "function"
    }
  ],
  "bytecode": "0x60806040523480156200001157600080fd5b5060405162002665380380620026658339818101604052810190620000379190620003b3565b82828160039080519060200190620000519291906200026e565b5080600490805190602001906200006a9291906200026e565b50505033600560006101000a81548173ffffffffffffffffffffffffffffffffffffffff021916908373ffffffffffffffffffffffffffffffffffffffff160217905550620000e2600560009054906101000a900473ffffffffffffffffffffffffffffffffffffffff1682620000eb60201b60201c565b50505062000732565b600073ffffffffffffffffffffffffffffffffffffffff168273ffffffffffffffffffffffffffffffffffffffff1614156200015e576040517f08c379a0000000000000000000000000000000000000000000000000000000008152600401620001559062000485565b60405180910390fd5b62000172600083836200026460201b60201c565b806002600082825462000186919062000534565b92505081905550806000808473ffffffffffffffffffffffffffffffffffffffff1673ffffffffffffffffffffffffffffffffffffffff1681526020019081526020016000206000828254620001dd919062000534565b925050819055508173ffffffffffffffffffffffffffffffffffffffff16600073ffffffffffffffffffffffffffffffffffffffff167fddf252ad1be2c89b69c2b068fc378daa952ba7f163c4a11628f55a4df523b3ef83604051620002449190620004a7565b60405180910390a362000260600083836200026960201b60201c565b5050565b505050565b505050565b8280546200027c90620005d1565b90600052602060002090601f016020900481019282620002a05760008555620002ec565b82601f10620002bb57805160ff1916838001178555620002ec565b82800160010185558215620002ec579182015b82811115620002eb578251825591602001919060010190620002ce565b5b509050620002fb9190620002ff565b5090565b5b808211156200031a57600081600090555060010162000300565b5090565b6000620003356200032f84620004ed565b620004c4565b905082815260208101848484011115620003545762000353620006cf565b5b620003618482856200059b565b509392505050565b600082601f830112620003815762000380620006ca565b5b8151620003938482602086016200031e565b91505092915050565b600081519050620003ad8162000718565b92915050565b600080600060608486031215620003cf57620003ce620006d9565b5b600084015167ffffffffffffffff811115620003f057620003ef620006d4565b5b620003fe8682870162000369565b935050602084015167ffffffffffffffff811115620004225762000421620006d4565b5b620004308682870162000369565b925050604062000443868287016200039c565b9150509250925092565b60006200045c601f8362000523565b91506200046982620006ef565b602082019050919050565b6200047f8162000591565b82525050565b60006020820190508181036000830152620004a0816200044d565b9050919050565b6000602082019050620004be600083018462000474565b92915050565b6000620004d0620004e3565b9050620004de828262000607565b919050565b6000604051905090565b600067ffffffffffffffff8211156200050b576200050a6200069b565b5b6200051682620006de565b9050602081019050919050565b600082825260208201905092915050565b6000620005418262000591565b91506200054e8362000591565b9250827fffffffffffffffffffffffffffffffffffffffffffffffffffffffffffffffff038211156200058657620005856200063d565b5b828201905092915050565b6000819050919050565b60005b83811015620005bb5780820151818401526020810190506200059e565b83811115620005cb576000848401525b50505050565b60006002820490506001821680620005ea57607f821691505b602082108114156200060157620006006200066c565b5b50919050565b6200061282620006de565b810181811067ffffffffffffffff821117156200063457620006336200069b565b5b80604052505050565b7f4e487b7100000000000000000000000000000000000000000000000000000000600052601160045260246000fd5b7f4e487b7100000000000000000000000000000000000000000000000000000000600052602260045260246000fd5b7f4e487b7100000000000000000000000000000000000000000000000000000000600052604160045260246000fd5b600080fd5b600080fd5b600080fd5b600080fd5b6000601f19601f8301169050919050565b7f45524332303a206d696e7420746f20746865207a65726f206164647265737300600082015250565b620007238162000591565b81146200072f57600080fd5b50565b611f2380620007426000396000f3fe608060405234801561001057600080fd5b50600436106101165760003560e01c80634ebd3aea116100a2578063a457c2d711610071578063a457c2d71461030c578063a9059cbb1461033c578063dd62ed3e1461036c578063f851a4401461039c578063fddc968e146103ba57610116565b80634ebd3aea1461025e578063689e1c031461028e57806370a08231146102be57806395d89b41146102ee57610116565b806316c54a0d116100e957806316c54a0d146101a357806318160ddd146101c257806323b872dd146101e0578063313ce56714610210578063395093511461022e57610116565b806306fdde031461011b57806307973ccf14610139578063095ea7b3146101575780630e54b87214610187575b600080fd5b6101236103ea565b60405161013091906117ac565b60405180910390f35b61014161047c565b60405161014e91906118ce565b60405180910390f35b610171600480360381019061016c919061127b565b610482565b60405161017e9190611791565b60405180910390f35b6101a1600480360381019061019c9190611304565b6104a5565b005b6101ab6105fa565b6040516101b992919061175a565b60405180910390f35b6101ca6107cf565b6040516101d791906118ce565b60405180910390f35b6101fa60048036038101906101f59190611228565b6107d9565b6040516102079190611791565b60405180910390f35b610218610808565b60405161022591906118e9565b60405180910390f35b6102486004803603810190610243919061127b565b610811565b6040516102559190611791565b60405180910390f35b61027860048036038101906102739190611360565b610848565b60405161028591906117ac565b60405180910390f35b6102a860048036038101906102a391906112bb565b6108f4565b6040516102b5919061173f565b60405180910390f35b6102d860048036038101906102d391906111bb565b61093d565b6040516102e591906118ce565b60405180910390f35b6102f6610985565b60405161030391906117ac565b60405180910390f35b6103266004803603810190610321919061127b565b610a17565b6040516103339190611791565b60405180910390f35b6103566004803603810190610351919061127b565b610a8e565b6040516103639190611791565b60405180910390f35b610386600480360381019061038191906111e8565b610ab1565b60405161039391906118ce565b60405180910390f35b6103a4610b38565b6040516103b1919061173f565b60405180910390f35b6103d460048036038101906103cf91906112bb565b610b5e565b6040516103e19190611791565b60405180910390f35b6060600380546103f990611b06565b80601f016020809104026020016040519081016040528092919081815260200182805461042590611b06565b80156104725780601f1061044757610100808354040283529160200191610472565b820191906000526020600020905b81548152906001019060200180831161045557829003601f168201915b5050505050905090565b60095481565b60008061048d610b94565b905061049a818585610b9c565b600191505092915050565b6007826040516104b59190611711565b908152602001604051809103902060009054906101000a900460ff1615610511576040517f08c379a00000000000000000000000000000000000000000000000000000000081526004016105089061184e565b60405180910390fd5b806006836040516105229190611711565b908152602001604051809103902060006101000a81548173ffffffffffffffffffffffffffffffffffffffff021916908373ffffffffffffffffffffffffffffffffffffffff1602179055506008829080600181540180825580915050600190039060005260206000200160009091909190915090805190602001906105a992919061107e565b5060016007836040516105bc9190611711565b908152602001604051809103902060006101000a81548160ff02191690831515021790555060016009546105f09190611a19565b6009819055505050565b606080600060095467ffffffffffffffff81111561061b5761061a611c3f565b5b6040519080825280602002602001820160405280156106495781602001602082028036833780820191505090505b50905060005b6009548110156106ef576106bd60066008838154811061067257610671611c10565b5b906000526020600020016040516106899190611728565b908152602001604051809103902060009054906101000a900473ffffffffffffffffffffffffffffffffffffffff1661093d565b8282815181106106d0576106cf611c10565b5b60200260200101818152505080806106e790611b69565b91505061064f565b5060088181805480602002602001604051908101604052809291908181526020016000905b828210156107c057838290600052602060002001805461073390611b06565b80601f016020809104026020016040519081016040528092919081815260200182805461075f90611b06565b80156107ac5780601f10610781576101008083540402835291602001916107ac565b820191906000526020600020905b81548152906001019060200180831161078f57829003601f168201915b505050505081526020019060010190610714565b50505050915092509250509091565b6000600254905090565b6000806107e4610b94565b90506107f1858285610d67565b6107fc858585610df3565b60019150509392505050565b60006012905090565b60008061081c610b94565b905061083d81858561082e8589610ab1565b6108389190611a19565b610b9c565b600191505092915050565b6008818154811061085857600080fd5b90600052602060002001600091509050805461087390611b06565b80601f016020809104026020016040519081016040528092919081815260200182805461089f90611b06565b80156108ec5780601f106108c1576101008083540402835291602001916108ec565b820191906000526020600020905b8154815290600101906020018083116108cf57829003601f168201915b505050505081565b6006818051602081018201805184825260208301602085012081835280955050505050506000915054906101000a900473ffffffffffffffffffffffffffffffffffffffff1681565b60008060008373ffffffffffffffffffffffffffffffffffffffff1673ffffffffffffffffffffffffffffffffffffffff168152602001908152602001600020549050919050565b60606004805461099490611b06565b80601f01602080910402602001604051908101604052809291908181526020018280546109c090611b06565b8015610a0d5780601f106109e257610100808354040283529160200191610a0d565b820191906000526020600020905b8154815290600101906020018083116109f057829003601f168201915b5050505050905090565b600080610a22610b94565b90506000610a308286610ab1565b905083811015610a75576040517f08c379a0000000000000000000000000000000000000000000000000000000008152600401610a6c906118ae565b60405180910390fd5b610a828286868403610b9c565b60019250505092915050565b600080610a99610b94565b9050610aa6818585610df3565b600191505092915050565b6000600160008473ffffffffffffffffffffffffffffffffffffffff1673ffffffffffffffffffffffffffffffffffffffff16815260200190815260200160002060008373ffffffffffffffffffffffffffffffffffffffff1673ffffffffffffffffffffffffffffffffffffffff16815260200190815260200160002054905092915050565b600560009054906101000a900473ffffffffffffffffffffffffffffffffffffffff1681565b6007818051602081018201805184825260208301602085012081835280955050505050506000915054906101000a900460ff1681565b600033905090565b600073ffffffffffffffffffffffffffffffffffffffff168373ffffffffffffffffffffffffffffffffffffffff161415610c0c576040517f08c379a0000000000000000000000000000000000000000000000000000000008152600401610c039061188e565b60405180910390fd5b600073ffffffffffffffffffffffffffffffffffffffff168273ffffffffffffffffffffffffffffffffffffffff161415610c7c576040517f08c379a0000000000000000000000000000000000000000000000000000000008152600401610c73906117ee565b60405180910390fd5b80600160008573ffffffffffffffffffffffffffffffffffffffff1673ffffffffffffffffffffffffffffffffffffffff16815260200190815260200160002060008473ffffffffffffffffffffffffffffffffffffffff1673ffffffffffffffffffffffffffffffffffffffff168152602001908152602001600020819055508173ffffffffffffffffffffffffffffffffffffffff168373ffffffffffffffffffffffffffffffffffffffff167f8c5be1e5ebec7d5bd14f71427d1e84f3dd0314c0f7b2291e5b200ac8c7c3b92583604051610d5a91906118ce565b60405180910390a3505050565b6000610d738484610ab1565b90507fffffffffffffffffffffffffffffffffffffffffffffffffffffffffffffffff8114610ded5781811015610ddf576040517f08c379a0000000000000000000000000000000000000000000000000000000008152600401610dd69061180e565b60405180910390fd5b610dec8484848403610b9c565b5b50505050565b600073ffffffffffffffffffffffffffffffffffffffff168373ffffffffffffffffffffffffffffffffffffffff161415610e63576040517f08c379a0000000000000000000000000000000000000000000000000000000008152600401610e5a9061186e565b60405180910390fd5b600073ffffffffffffffffffffffffffffffffffffffff168273ffffffffffffffffffffffffffffffffffffffff161415610ed3576040517f08c379a0000000000000000000000000000000000000000000000000000000008152600401610eca906117ce565b60405180910390fd5b610ede838383611074565b60008060008573ffffffffffffffffffffffffffffffffffffffff1673ffffffffffffffffffffffffffffffffffffffff16815260200190815260200160002054905081811015610f64576040517f08c379a0000000000000000000000000000000000000000000000000000000008152600401610f5b9061182e565b60405180910390fd5b8181036000808673ffffffffffffffffffffffffffffffffffffffff1673ffffffffffffffffffffffffffffffffffffffff16815260200190815260200160002081905550816000808573ffffffffffffffffffffffffffffffffffffffff1673ffffffffffffffffffffffffffffffffffffffff1681526020019081526020016000206000828254610ff79190611a19565b925050819055508273ffffffffffffffffffffffffffffffffffffffff168473ffffffffffffffffffffffffffffffffffffffff167fddf252ad1be2c89b69c2b068fc378daa952ba7f163c4a11628f55a4df523b3ef8460405161105b91906118ce565b60405180910390a361106e848484611079565b50505050565b505050565b505050565b82805461108a90611b06565b90600052602060002090601f0160209004810192826110ac57600085556110f3565b82601f106110c557805160ff19168380011785556110f3565b828001600101855582156110f3579182015b828111156110f25782518255916020019190600101906110d7565b5b5090506111009190611104565b5090565b5b8082111561111d576000816000905550600101611105565b5090565b600061113461112f84611929565b611904565b9050828152602081018484840111156111505761114f611c73565b5b61115b848285611ac4565b509392505050565b60008135905061117281611ebf565b92915050565b600082601f83011261118d5761118c611c6e565b5b813561119d848260208601611121565b91505092915050565b6000813590506111b581611ed6565b92915050565b6000602082840312156111d1576111d0611c7d565b5b60006111df84828501611163565b91505092915050565b600080604083850312156111ff576111fe611c7d565b5b600061120d85828601611163565b925050602061121e85828601611163565b9150509250929050565b60008060006060848603121561124157611240611c7d565b5b600061124f86828701611163565b935050602061126086828701611163565b9250506040611271868287016111a6565b9150509250925092565b6000806040838503121561129257611291611c7d565b5b60006112a085828601611163565b92505060206112b1858286016111a6565b9150509250929050565b6000602082840312156112d1576112d0611c7d565b5b600082013567ffffffffffffffff8111156112ef576112ee611c78565b5b6112fb84828501611178565b91505092915050565b6000806040838503121561131b5761131a611c7d565b5b600083013567ffffffffffffffff81111561133957611338611c78565b5b61134585828601611178565b925050602061135685828601611163565b9150509250929050565b60006020828403121561137657611375611c7d565b5b6000611384848285016111a6565b91505092915050565b600061139983836114aa565b905092915050565b60006113ad83836116e4565b60208301905092915050565b6113c281611a6f565b82525050565b60006113d38261198f565b6113dd81856119ca565b9350836020820285016113ef8561195a565b8060005b8581101561142b578484038952815161140c858261138d565b9450611417836119b0565b925060208a019950506001810190506113f3565b50829750879550505050505092915050565b60006114488261199a565b61145281856119db565b935061145d8361196a565b8060005b8381101561148e57815161147588826113a1565b9750611480836119bd565b925050600181019050611461565b5085935050505092915050565b6114a481611a81565b82525050565b60006114b5826119a5565b6114bf81856119ec565b93506114cf818560208601611ad3565b6114d881611c82565b840191505092915050565b60006114ee826119a5565b6114f881856119fd565b9350611508818560208601611ad3565b61151181611c82565b840191505092915050565b6000611527826119a5565b6115318185611a0e565b9350611541818560208601611ad3565b80840191505092915050565b6000815461155a81611b06565b6115648186611a0e565b9450600182166000811461157f5760018114611590576115c3565b60ff198316865281860193506115c3565b6115998561197a565b60005b838110156115bb5781548189015260018201915060208101905061159c565b838801955050505b50505092915050565b60006115d96023836119fd565b91506115e482611c93565b604082019050919050565b60006115fc6022836119fd565b915061160782611ce2565b604082019050919050565b600061161f601d836119fd565b915061162a82611d31565b602082019050919050565b60006116426026836119fd565b915061164d82611d5a565b604082019050919050565b60006116656014836119fd565b915061167082611da9565b602082019050919050565b60006116886025836119fd565b915061169382611dd2565b604082019050919050565b60006116ab6024836119fd565b91506116b682611e21565b604082019050919050565b60006116ce6025836119fd565b91506116d982611e70565b604082019050919050565b6116ed81611aad565b82525050565b6116fc81611aad565b82525050565b61170b81611ab7565b82525050565b600061171d828461151c565b915081905092915050565b6000611734828461154d565b915081905092915050565b600060208201905061175460008301846113b9565b92915050565b6000604082019050818103600083015261177481856113c8565b90508181036020830152611788818461143d565b90509392505050565b60006020820190506117a6600083018461149b565b92915050565b600060208201905081810360008301526117c681846114e3565b905092915050565b600060208201905081810360008301526117e7816115cc565b9050919050565b60006020820190508181036000830152611807816115ef565b9050919050565b6000602082019050818103600083015261182781611612565b9050919050565b6000602082019050818103600083015261184781611635565b9050919050565b6000602082019050818103600083015261186781611658565b9050919050565b600060208201905081810360008301526118878161167b565b9050919050565b600060208201905081810360008301526118a78161169e565b9050919050565b600060208201905081810360008301526118c7816116c1565b9050919050565b60006020820190506118e360008301846116f3565b92915050565b60006020820190506118fe6000830184611702565b92915050565b600061190e61191f565b905061191a8282611b38565b919050565b6000604051905090565b600067ffffffffffffffff82111561194457611943611c3f565b5b61194d82611c82565b9050602081019050919050565b6000819050602082019050919050565b6000819050602082019050919050565b60008190508160005260206000209050919050565b600081519050919050565b600081519050919050565b600081519050919050565b6000602082019050919050565b6000602082019050919050565b600082825260208201905092915050565b600082825260208201905092915050565b600082825260208201905092915050565b600082825260208201905092915050565b600081905092915050565b6000611a2482611aad565b9150611a2f83611aad565b9250827fffffffffffffffffffffffffffffffffffffffffffffffffffffffffffffffff03821115611a6457611a63611bb2565b5b828201905092915050565b6000611a7a82611a8d565b9050919050565b60008115159050919050565b600073ffffffffffffffffffffffffffffffffffffffff82169050919050565b6000819050919050565b600060ff82169050919050565b82818337600083830152505050565b60005b83811015611af1578082015181840152602081019050611ad6565b83811115611b00576000848401525b50505050565b60006002820490506001821680611b1e57607f821691505b60208210811415611b3257611b31611be1565b5b50919050565b611b4182611c82565b810181811067ffffffffffffffff82111715611b6057611b5f611c3f565b5b80604052505050565b6000611b7482611aad565b91507fffffffffffffffffffffffffffffffffffffffffffffffffffffffffffffffff821415611ba757611ba6611bb2565b5b600182019050919050565b7f4e487b7100000000000000000000000000000000000000000000000000000000600052601160045260246000fd5b7f4e487b7100000000000000000000000000000000000000000000000000000000600052602260045260246000fd5b7f4e487b7100000000000000000000000000000000000000000000000000000000600052603260045260246000fd5b7f4e487b7100000000000000000000000000000000000000000000000000000000600052604160045260246000fd5b600080fd5b600080fd5b600080fd5b600080fd5b6000601f19601f8301169050919050565b7f45524332303a207472616e7366657220746f20746865207a65726f206164647260008201527f6573730000000000000000000000000000000000000000000000000000000000602082015250565b7f45524332303a20617070726f766520746f20746865207a65726f20616464726560008201527f7373000000000000000000000000000000000000000000000000000000000000602082015250565b7f45524332303a20696e73756666696369656e7420616c6c6f77616e6365000000600082015250565b7f45524332303a207472616e7366657220616d6f756e742065786365656473206260008201527f616c616e63650000000000000000000000000000000000000000000000000000602082015250565b7f5573657220616c7265616479206578697374732e000000000000000000000000600082015250565b7f45524332303a207472616e736665722066726f6d20746865207a65726f20616460008201527f6472657373000000000000000000000000000000000000000000000000000000602082015250565b7f45524332303a20617070726f76652066726f6d20746865207a65726f2061646460008201527f7265737300000000000000000000000000000000000000000000000000000000602082015250565b7f45524332303a2064656372656173656420616c6c6f77616e63652062656c6f7760008201527f207a65726f000000000000000000000000000000000000000000000000000000602082015250565b611ec881611a6f565b8114611ed357600080fd5b50565b611edf81611aad565b8114611eea57600080fd5b5056fea2646970667358221220e423a67d5225c77d86ff0ab27ba400e7be89644605d2638e4dc05a6e342b8fe164736f6c63430008070033",
  "immutableReferences": {},
  "source": "// SPDX-License-Identifier: MIT\npragma solidity ^0.8.0;\n\nimport \"../node_modules/@openzeppelin/contracts/token/ERC20/ERC20.sol\";\n\ncontract BToken is ERC20{\n    address public admin;\n    mapping(string => address) public users;\n    mapping(string => bool) public userExists;\n    string[] public userNames;\n    uint256 public userCount;\n\n    constructor(string memory _name, string memory _symbol, uint256 _totalSupply)\n        ERC20(_name, _symbol)\n    {\n        admin = msg.sender;\n        _mint(admin, _totalSupply); // allocate all totalsupply of BTK to the contract admin/agent\n    }\n\n    function registerUser(string memory _name, address _addr) public {\n        require(!userExists[_name], \"User already exists.\");\n        users[_name] = _addr;\n        userNames.push(_name);\n        userExists[_name] = true;\n        userCount = userCount+1;\n    }\n\n    // todo: remove in the next deployment\n    // function queryUserAddress(string memory _name) public view returns (address)\n    // {\n    //     require(userExists[_name], \"User does not exists.\");\n    //     return (users[_name]);\n    // }\n\n    function queryAllBalances() public view returns\n    (\n        string[] memory,\n        uint256[] memory\n    )\n    {\n        uint256[] memory balances = new uint256[](userCount);\n\n        for(uint i=0; i<userCount; i++){\n            balances[i] = balanceOf(users[userNames[i]]);\n        }\n\n        return (userNames, balances);\n    }\n}",
  "sourcePath": "/home/yih/Documents/dev/beston-dapps/contracts/BToken.sol",
  "compiler": {
    "name": "solc",
    "version": "0.8.7+commit.e28d00a7.Emscripten.clang"
  },
  "schemaVersion": "3.4.1",
  "updatedAt": "2023-05-09T00:38:23.849Z",
  "devdoc": {
    "kind": "dev",
    "methods": {
      "allowance(address,address)": {
        "details": "See {IERC20-allowance}."
      },
      "approve(address,uint256)": {
        "details": "See {IERC20-approve}. NOTE: If `amount` is the maximum `uint256`, the allowance is not updated on `transferFrom`. This is semantically equivalent to an infinite approval. Requirements: - `spender` cannot be the zero address."
      },
      "balanceOf(address)": {
        "details": "See {IERC20-balanceOf}."
      },
      "decimals()": {
        "details": "Returns the number of decimals used to get its user representation. For example, if `decimals` equals `2`, a balance of `505` tokens should be displayed to a user as `5.05` (`505 / 10 ** 2`). Tokens usually opt for a value of 18, imitating the relationship between Ether and Wei. This is the value {ERC20} uses, unless this function is overridden; NOTE: This information is only used for _display_ purposes: it in no way affects any of the arithmetic of the contract, including {IERC20-balanceOf} and {IERC20-transfer}."
      },
      "decreaseAllowance(address,uint256)": {
        "details": "Atomically decreases the allowance granted to `spender` by the caller. This is an alternative to {approve} that can be used as a mitigation for problems described in {IERC20-approve}. Emits an {Approval} event indicating the updated allowance. Requirements: - `spender` cannot be the zero address. - `spender` must have allowance for the caller of at least `subtractedValue`."
      },
      "increaseAllowance(address,uint256)": {
        "details": "Atomically increases the allowance granted to `spender` by the caller. This is an alternative to {approve} that can be used as a mitigation for problems described in {IERC20-approve}. Emits an {Approval} event indicating the updated allowance. Requirements: - `spender` cannot be the zero address."
      },
      "name()": {
        "details": "Returns the name of the token."
      },
      "symbol()": {
        "details": "Returns the symbol of the token, usually a shorter version of the name."
      },
      "totalSupply()": {
        "details": "See {IERC20-totalSupply}."
      },
      "transfer(address,uint256)": {
        "details": "See {IERC20-transfer}. Requirements: - `to` cannot be the zero address. - the caller must have a balance of at least `amount`."
      },
      "transferFrom(address,address,uint256)": {
        "details": "See {IERC20-transferFrom}. Emits an {Approval} event indicating the updated allowance. This is not required by the EIP. See the note at the beginning of {ERC20}. NOTE: Does not update the allowance if the current allowance is the maximum `uint256`. Requirements: - `from` and `to` cannot be the zero address. - `from` must have a balance of at least `amount`. - the caller must have allowance for ``from``'s tokens of at least `amount`."
      }
    },
    "version": 1
  },
  "userdoc": {
    "kind": "user",
    "methods": {},
    "version": 1
  }
}