{
  "contractName": "CarbonToken",
  "abi": [
    {
      "inputs": [
        {
          "internalType": "string",
          "name": "_name",
          "type": "string"
        },
        {
          "internalType": "string",
          "name": "_symbol",
          "type": "string"
        },
        {
          "internalType": "contract HerdRegistry",
          "name": "_herdregistry",
          "type": "address"
        },
        {
          "internalType": "contract FeedTracking",
          "name": "_feedtracking",
          "type": "address"
        },
        {
          "internalType": "contract EmissionTracking",
          "name": "_emissiontracking",
          "type": "address"
        }
      ],
      "stateMutability": "nonpayable",
      "type": "constructor"
    },
    {
      "anonymous": false,
      "inputs": [
        {
          "indexed": true,
          "internalType": "address",
          "name": "owner",
          "type": "address"
        },
        {
          "indexed": true,
          "internalType": "address",
          "name": "spender",
          "type": "address"
        },
        {
          "indexed": false,
          "internalType": "uint256",
          "name": "value",
          "type": "uint256"
        }
      ],
      "name": "Approval",
      "type": "event"
    },
    {
      "anonymous": false,
      "inputs": [
        {
          "indexed": true,
          "internalType": "address",
          "name": "from",
          "type": "address"
        },
        {
          "indexed": true,
          "internalType": "address",
          "name": "to",
          "type": "address"
        },
        {
          "indexed": false,
          "internalType": "uint256",
          "name": "value",
          "type": "uint256"
        }
      ],
      "name": "Transfer",
      "type": "event"
    },
    {
      "inputs": [],
      "name": "admin",
      "outputs": [
        {
          "internalType": "address",
          "name": "",
          "type": "address"
        }
      ],
      "stateMutability": "view",
      "type": "function"
    },
    {
      "inputs": [
        {
          "internalType": "address",
          "name": "owner",
          "type": "address"
        },
        {
          "internalType": "address",
          "name": "spender",
          "type": "address"
        }
      ],
      "name": "allowance",
      "outputs": [
        {
          "internalType": "uint256",
          "name": "",
          "type": "uint256"
        }
      ],
      "stateMutability": "view",
      "type": "function"
    },
    {
      "inputs": [
        {
          "internalType": "address",
          "name": "spender",
          "type": "address"
        },
        {
          "internalType": "uint256",
          "name": "amount",
          "type": "uint256"
        }
      ],
      "name": "approve",
      "outputs": [
        {
          "internalType": "bool",
          "name": "",
          "type": "bool"
        }
      ],
      "stateMutability": "nonpayable",
      "type": "function"
    },
    {
      "inputs": [
        {
          "internalType": "address",
          "name": "account",
          "type": "address"
        }
      ],
      "name": "balanceOf",
      "outputs": [
        {
          "internalType": "uint256",
          "name": "",
          "type": "uint256"
        }
      ],
      "stateMutability": "view",
      "type": "function"
    },
    {
      "inputs": [],
      "name": "decimals",
      "outputs": [
        {
          "internalType": "uint8",
          "name": "",
          "type": "uint8"
        }
      ],
      "stateMutability": "view",
      "type": "function"
    },
    {
      "inputs": [
        {
          "internalType": "address",
          "name": "spender",
          "type": "address"
        },
        {
          "internalType": "uint256",
          "name": "subtractedValue",
          "type": "uint256"
        }
      ],
      "name": "decreaseAllowance",
      "outputs": [
        {
          "internalType": "bool",
          "name": "",
          "type": "bool"
        }
      ],
      "stateMutability": "nonpayable",
      "type": "function"
    },
    {
      "inputs": [],
      "name": "emissiontracking",
      "outputs": [
        {
          "internalType": "contract EmissionTracking",
          "name": "",
          "type": "address"
        }
      ],
      "stateMutability": "view",
      "type": "function"
    },
    {
      "inputs": [],
      "name": "feedtracking",
      "outputs": [
        {
          "internalType": "contract FeedTracking",
          "name": "",
          "type": "address"
        }
      ],
      "stateMutability": "view",
      "type": "function"
    },
    {
      "inputs": [],
      "name": "herdregistry",
      "outputs": [
        {
          "internalType": "contract HerdRegistry",
          "name": "",
          "type": "address"
        }
      ],
      "stateMutability": "view",
      "type": "function"
    },
    {
      "inputs": [
        {
          "internalType": "address",
          "name": "spender",
          "type": "address"
        },
        {
          "internalType": "uint256",
          "name": "addedValue",
          "type": "uint256"
        }
      ],
      "name": "increaseAllowance",
      "outputs": [
        {
          "internalType": "bool",
          "name": "",
          "type": "bool"
        }
      ],
      "stateMutability": "nonpayable",
      "type": "function"
    },
    {
      "inputs": [],
      "name": "name",
      "outputs": [
        {
          "internalType": "string",
          "name": "",
          "type": "string"
        }
      ],
      "stateMutability": "view",
      "type": "function"
    },
    {
      "inputs": [],
      "name": "symbol",
      "outputs": [
        {
          "internalType": "string",
          "name": "",
          "type": "string"
        }
      ],
      "stateMutability": "view",
      "type": "function"
    },
    {
      "inputs": [],
      "name": "totalSupply",
      "outputs": [
        {
          "internalType": "uint256",
          "name": "",
          "type": "uint256"
        }
      ],
      "stateMutability": "view",
      "type": "function"
    },
    {
      "inputs": [
        {
          "internalType": "address",
          "name": "to",
          "type": "address"
        },
        {
          "internalType": "uint256",
          "name": "amount",
          "type": "uint256"
        }
      ],
      "name": "transfer",
      "outputs": [
        {
          "internalType": "bool",
          "name": "",
          "type": "bool"
        }
      ],
      "stateMutability": "nonpayable",
      "type": "function"
    },
    {
      "inputs": [
        {
          "internalType": "address",
          "name": "from",
          "type": "address"
        },
        {
          "internalType": "address",
          "name": "to",
          "type": "address"
        },
        {
          "internalType": "uint256",
          "name": "amount",
          "type": "uint256"
        }
      ],
      "name": "transferFrom",
      "outputs": [
        {
          "internalType": "bool",
          "name": "",
          "type": "bool"
        }
      ],
      "stateMutability": "nonpayable",
      "type": "function"
    },
    {
      "inputs": [
        {
          "internalType": "address",
          "name": "_from",
          "type": "address"
        },
        {
          "internalType": "address",
          "name": "_to",
          "type": "address"
        },
        {
          "internalType": "uint256",
          "name": "_amount",
          "type": "uint256"
        }
      ],
      "name": "transferToAggregator",
      "outputs": [],
      "stateMutability": "nonpayable",
      "type": "function"
    },
    {
      "inputs": [],
      "name": "tradeBinding",
      "outputs": [],
      "stateMutability": "nonpayable",
      "type": "function"
    },
    {
      "inputs": [],
      "name": "tradeNonBinding",
      "outputs": [],
      "stateMutability": "nonpayable",
      "type": "function"
    }
  ],
  "bytecode": "0x6080604052600a6009556014600a553480156200001b57600080fd5b5060405162001bce38038062001bce8339818101604052810190620000419190620002f9565b848481600390805190602001906200005b92919062000186565b5080600490805190602001906200007492919062000186565b50505033600560006101000a81548173ffffffffffffffffffffffffffffffffffffffff021916908373ffffffffffffffffffffffffffffffffffffffff16021790555082600660006101000a81548173ffffffffffffffffffffffffffffffffffffffff021916908373ffffffffffffffffffffffffffffffffffffffff16021790555081600760006101000a81548173ffffffffffffffffffffffffffffffffffffffff021916908373ffffffffffffffffffffffffffffffffffffffff16021790555080600860006101000a81548173ffffffffffffffffffffffffffffffffffffffff021916908373ffffffffffffffffffffffffffffffffffffffff160217905550505050505062000601565b8280546200019490620004c4565b90600052602060002090601f016020900481019282620001b8576000855562000204565b82601f10620001d357805160ff191683800117855562000204565b8280016001018555821562000204579182015b8281111562000203578251825591602001919060010190620001e6565b5b50905062000213919062000217565b5090565b5b808211156200023257600081600090555060010162000218565b5090565b60006200024d6200024784620003e8565b620003bf565b9050828152602081018484840111156200026c576200026b62000593565b5b620002798482856200048e565b509392505050565b6000815190506200029281620005b3565b92915050565b600081519050620002a981620005cd565b92915050565b600081519050620002c081620005e7565b92915050565b600082601f830112620002de57620002dd6200058e565b5b8151620002f084826020860162000236565b91505092915050565b600080600080600060a086880312156200031857620003176200059d565b5b600086015167ffffffffffffffff81111562000339576200033862000598565b5b6200034788828901620002c6565b955050602086015167ffffffffffffffff8111156200036b576200036a62000598565b5b6200037988828901620002c6565b94505060406200038c88828901620002af565b93505060606200039f8882890162000298565b9250506080620003b28882890162000281565b9150509295509295909350565b6000620003cb620003de565b9050620003d98282620004fa565b919050565b6000604051905090565b600067ffffffffffffffff8211156200040657620004056200055f565b5b6200041182620005a2565b9050602081019050919050565b60006200042b826200046e565b9050919050565b60006200043f826200041e565b9050919050565b600062000453826200041e565b9050919050565b600062000467826200041e565b9050919050565b600073ffffffffffffffffffffffffffffffffffffffff82169050919050565b60005b83811015620004ae57808201518184015260208101905062000491565b83811115620004be576000848401525b50505050565b60006002820490506001821680620004dd57607f821691505b60208210811415620004f457620004f362000530565b5b50919050565b6200050582620005a2565b810181811067ffffffffffffffff821117156200052757620005266200055f565b5b80604052505050565b7f4e487b7100000000000000000000000000000000000000000000000000000000600052602260045260246000fd5b7f4e487b7100000000000000000000000000000000000000000000000000000000600052604160045260246000fd5b600080fd5b600080fd5b600080fd5b600080fd5b6000601f19601f8301169050919050565b620005be8162000432565b8114620005ca57600080fd5b50565b620005d88162000446565b8114620005e457600080fd5b50565b620005f2816200045a565b8114620005fe57600080fd5b50565b6115bd80620006116000396000f3fe608060405234801561001057600080fd5b50600436106101165760003560e01c80637fbb3de9116100a2578063a9059cbb11610071578063a9059cbb146102e5578063b3f4b36214610315578063dd62ed3e14610333578063e8af53ed14610363578063f851a4401461036d57610116565b80637fbb3de91461026f578063900616281461027957806395d89b4114610297578063a457c2d7146102b557610116565b8063313ce567116100e9578063313ce567146101b757806339509351146101d557806346c0416a146102055780634def8f8b1461022157806370a082311461023f57610116565b806306fdde031461011b578063095ea7b31461013957806318160ddd1461016957806323b872dd14610187575b600080fd5b61012361038b565b6040516101309190611024565b60405180910390f35b610153600480360381019061014e9190610dc6565b61041d565b6040516101609190610fb8565b60405180910390f35b610171610440565b60405161017e9190611126565b60405180910390f35b6101a1600480360381019061019c9190610d73565b61044a565b6040516101ae9190610fb8565b60405180910390f35b6101bf610479565b6040516101cc9190611141565b60405180910390f35b6101ef60048036038101906101ea9190610dc6565b610482565b6040516101fc9190610fb8565b60405180910390f35b61021f600480360381019061021a9190610d73565b6104b9565b005b61022961055b565b6040516102369190610fd3565b60405180910390f35b61025960048036038101906102549190610d06565b610581565b6040516102669190611126565b60405180910390f35b6102776105c9565b005b6102816105cb565b60405161028e9190610fee565b60405180910390f35b61029f6105f1565b6040516102ac9190611024565b60405180910390f35b6102cf60048036038101906102ca9190610dc6565b610683565b6040516102dc9190610fb8565b60405180910390f35b6102ff60048036038101906102fa9190610dc6565b6106fa565b60405161030c9190610fb8565b60405180910390f35b61031d61071d565b60405161032a9190611009565b60405180910390f35b61034d60048036038101906103489190610d33565b610743565b60405161035a9190611126565b60405180910390f35b61036b6107ca565b005b6103756107cc565b6040516103829190610f9d565b60405180910390f35b60606003805461039a906112b0565b80601f01602080910402602001604051908101604052809291908181526020018280546103c6906112b0565b80156104135780601f106103e857610100808354040283529160200191610413565b820191906000526020600020905b8154815290600101906020018083116103f657829003601f168201915b5050505050905090565b6000806104286107f2565b90506104358185856107fa565b600191505092915050565b6000600254905090565b6000806104556107f2565b90506104628582856109c5565b61046d858585610a51565b60019150509392505050565b60006012905090565b60008061048d6107f2565b90506104ae81858561049f8589610743565b6104a99190611178565b6107fa565b600191505092915050565b8273ffffffffffffffffffffffffffffffffffffffff163373ffffffffffffffffffffffffffffffffffffffff16146104f157600080fd5b8173ffffffffffffffffffffffffffffffffffffffff16600560009054906101000a900473ffffffffffffffffffffffffffffffffffffffff1673ffffffffffffffffffffffffffffffffffffffff161461054b57600080fd5b610556838383610a51565b505050565b600860009054906101000a900473ffffffffffffffffffffffffffffffffffffffff1681565b60008060008373ffffffffffffffffffffffffffffffffffffffff1673ffffffffffffffffffffffffffffffffffffffff168152602001908152602001600020549050919050565b565b600760009054906101000a900473ffffffffffffffffffffffffffffffffffffffff1681565b606060048054610600906112b0565b80601f016020809104026020016040519081016040528092919081815260200182805461062c906112b0565b80156106795780601f1061064e57610100808354040283529160200191610679565b820191906000526020600020905b81548152906001019060200180831161065c57829003601f168201915b5050505050905090565b60008061068e6107f2565b9050600061069c8286610743565b9050838110156106e1576040517f08c379a00000000000000000000000000000000000000000000000000000000081526004016106d890611106565b60405180910390fd5b6106ee82868684036107fa565b60019250505092915050565b6000806107056107f2565b9050610712818585610a51565b600191505092915050565b600660009054906101000a900473ffffffffffffffffffffffffffffffffffffffff1681565b6000600160008473ffffffffffffffffffffffffffffffffffffffff1673ffffffffffffffffffffffffffffffffffffffff16815260200190815260200160002060008373ffffffffffffffffffffffffffffffffffffffff1673ffffffffffffffffffffffffffffffffffffffff16815260200190815260200160002054905092915050565b565b600560009054906101000a900473ffffffffffffffffffffffffffffffffffffffff1681565b600033905090565b600073ffffffffffffffffffffffffffffffffffffffff168373ffffffffffffffffffffffffffffffffffffffff16141561086a576040517f08c379a0000000000000000000000000000000000000000000000000000000008152600401610861906110e6565b60405180910390fd5b600073ffffffffffffffffffffffffffffffffffffffff168273ffffffffffffffffffffffffffffffffffffffff1614156108da576040517f08c379a00000000000000000000000000000000000000000000000000000000081526004016108d190611066565b60405180910390fd5b80600160008573ffffffffffffffffffffffffffffffffffffffff1673ffffffffffffffffffffffffffffffffffffffff16815260200190815260200160002060008473ffffffffffffffffffffffffffffffffffffffff1673ffffffffffffffffffffffffffffffffffffffff168152602001908152602001600020819055508173ffffffffffffffffffffffffffffffffffffffff168373ffffffffffffffffffffffffffffffffffffffff167f8c5be1e5ebec7d5bd14f71427d1e84f3dd0314c0f7b2291e5b200ac8c7c3b925836040516109b89190611126565b60405180910390a3505050565b60006109d18484610743565b90507fffffffffffffffffffffffffffffffffffffffffffffffffffffffffffffffff8114610a4b5781811015610a3d576040517f08c379a0000000000000000000000000000000000000000000000000000000008152600401610a3490611086565b60405180910390fd5b610a4a84848484036107fa565b5b50505050565b600073ffffffffffffffffffffffffffffffffffffffff168373ffffffffffffffffffffffffffffffffffffffff161415610ac1576040517f08c379a0000000000000000000000000000000000000000000000000000000008152600401610ab8906110c6565b60405180910390fd5b600073ffffffffffffffffffffffffffffffffffffffff168273ffffffffffffffffffffffffffffffffffffffff161415610b31576040517f08c379a0000000000000000000000000000000000000000000000000000000008152600401610b2890611046565b60405180910390fd5b610b3c838383610cd2565b60008060008573ffffffffffffffffffffffffffffffffffffffff1673ffffffffffffffffffffffffffffffffffffffff16815260200190815260200160002054905081811015610bc2576040517f08c379a0000000000000000000000000000000000000000000000000000000008152600401610bb9906110a6565b60405180910390fd5b8181036000808673ffffffffffffffffffffffffffffffffffffffff1673ffffffffffffffffffffffffffffffffffffffff16815260200190815260200160002081905550816000808573ffffffffffffffffffffffffffffffffffffffff1673ffffffffffffffffffffffffffffffffffffffff1681526020019081526020016000206000828254610c559190611178565b925050819055508273ffffffffffffffffffffffffffffffffffffffff168473ffffffffffffffffffffffffffffffffffffffff167fddf252ad1be2c89b69c2b068fc378daa952ba7f163c4a11628f55a4df523b3ef84604051610cb99190611126565b60405180910390a3610ccc848484610cd7565b50505050565b505050565b505050565b600081359050610ceb81611559565b92915050565b600081359050610d0081611570565b92915050565b600060208284031215610d1c57610d1b611340565b5b6000610d2a84828501610cdc565b91505092915050565b60008060408385031215610d4a57610d49611340565b5b6000610d5885828601610cdc565b9250506020610d6985828601610cdc565b9150509250929050565b600080600060608486031215610d8c57610d8b611340565b5b6000610d9a86828701610cdc565b9350506020610dab86828701610cdc565b9250506040610dbc86828701610cf1565b9150509250925092565b60008060408385031215610ddd57610ddc611340565b5b6000610deb85828601610cdc565b9250506020610dfc85828601610cf1565b9150509250929050565b610e0f816111ce565b82525050565b610e1e816111e0565b82525050565b610e2d81611223565b82525050565b610e3c81611235565b82525050565b610e4b81611247565b82525050565b6000610e5c8261115c565b610e668185611167565b9350610e7681856020860161127d565b610e7f81611345565b840191505092915050565b6000610e97602383611167565b9150610ea282611356565b604082019050919050565b6000610eba602283611167565b9150610ec5826113a5565b604082019050919050565b6000610edd601d83611167565b9150610ee8826113f4565b602082019050919050565b6000610f00602683611167565b9150610f0b8261141d565b604082019050919050565b6000610f23602583611167565b9150610f2e8261146c565b604082019050919050565b6000610f46602483611167565b9150610f51826114bb565b604082019050919050565b6000610f69602583611167565b9150610f748261150a565b604082019050919050565b610f888161120c565b82525050565b610f9781611216565b82525050565b6000602082019050610fb26000830184610e06565b92915050565b6000602082019050610fcd6000830184610e15565b92915050565b6000602082019050610fe86000830184610e24565b92915050565b60006020820190506110036000830184610e33565b92915050565b600060208201905061101e6000830184610e42565b92915050565b6000602082019050818103600083015261103e8184610e51565b905092915050565b6000602082019050818103600083015261105f81610e8a565b9050919050565b6000602082019050818103600083015261107f81610ead565b9050919050565b6000602082019050818103600083015261109f81610ed0565b9050919050565b600060208201905081810360008301526110bf81610ef3565b9050919050565b600060208201905081810360008301526110df81610f16565b9050919050565b600060208201905081810360008301526110ff81610f39565b9050919050565b6000602082019050818103600083015261111f81610f5c565b9050919050565b600060208201905061113b6000830184610f7f565b92915050565b60006020820190506111566000830184610f8e565b92915050565b600081519050919050565b600082825260208201905092915050565b60006111838261120c565b915061118e8361120c565b9250827fffffffffffffffffffffffffffffffffffffffffffffffffffffffffffffffff038211156111c3576111c26112e2565b5b828201905092915050565b60006111d9826111ec565b9050919050565b60008115159050919050565b600073ffffffffffffffffffffffffffffffffffffffff82169050919050565b6000819050919050565b600060ff82169050919050565b600061122e82611259565b9050919050565b600061124082611259565b9050919050565b600061125282611259565b9050919050565b60006112648261126b565b9050919050565b6000611276826111ec565b9050919050565b60005b8381101561129b578082015181840152602081019050611280565b838111156112aa576000848401525b50505050565b600060028204905060018216806112c857607f821691505b602082108114156112dc576112db611311565b5b50919050565b7f4e487b7100000000000000000000000000000000000000000000000000000000600052601160045260246000fd5b7f4e487b7100000000000000000000000000000000000000000000000000000000600052602260045260246000fd5b600080fd5b6000601f19601f8301169050919050565b7f45524332303a207472616e7366657220746f20746865207a65726f206164647260008201527f6573730000000000000000000000000000000000000000000000000000000000602082015250565b7f45524332303a20617070726f766520746f20746865207a65726f20616464726560008201527f7373000000000000000000000000000000000000000000000000000000000000602082015250565b7f45524332303a20696e73756666696369656e7420616c6c6f77616e6365000000600082015250565b7f45524332303a207472616e7366657220616d6f756e742065786365656473206260008201527f616c616e63650000000000000000000000000000000000000000000000000000602082015250565b7f45524332303a207472616e736665722066726f6d20746865207a65726f20616460008201527f6472657373000000000000000000000000000000000000000000000000000000602082015250565b7f45524332303a20617070726f76652066726f6d20746865207a65726f2061646460008201527f7265737300000000000000000000000000000000000000000000000000000000602082015250565b7f45524332303a2064656372656173656420616c6c6f77616e63652062656c6f7760008201527f207a65726f000000000000000000000000000000000000000000000000000000602082015250565b611562816111ce565b811461156d57600080fd5b50565b6115798161120c565b811461158457600080fd5b5056fea2646970667358221220f5b500a3e32c156c24fcd722f68ae4a8a4b4cde6c0ac619f3939a2fd47b50bc764736f6c63430008070033",
  "immutableReferences": {},
  "source": "// SPDX-License-Identifier: UNLICENSED\npragma solidity ^0.8.0;\n\nimport \"./HerdRegistry.sol\";\nimport \"./EmissionTracking.sol\";\nimport \"./FeedTracking.sol\";\nimport \"../../node_modules/@openzeppelin/contracts/token/ERC20/ERC20.sol\";\n\ncontract CarbonToken is ERC20 {\n    address public admin;\n\n    HerdRegistry public herdregistry;\n    FeedTracking public feedtracking;\n    EmissionTracking public emissiontracking;\n\n    uint private feedToCC = 10;\n    uint private emissionToCC = 20;\n\n    enum Source {\n        FEED,\n        EMISSION\n    }\n\n    constructor(string memory _name, string memory _symbol, HerdRegistry _herdregistry, FeedTracking _feedtracking, EmissionTracking _emissiontracking) \n        ERC20(_name, _symbol) \n    {\n        admin = msg.sender; // assumes beston to be the aggregator and the contract admin\n\n        herdregistry = _herdregistry;\n        feedtracking = _feedtracking;\n        emissiontracking = _emissiontracking;\n    }\n\n    /** \n     * using the data from feedtracking and emission tracking\n     * Todo: for a particular day should only use either feedtracking or emissiontracking not both\n     * Todo: to understand better the conversion from the measurements to the CC as feedToCC could be too simple\n     */\n    function mintCCByFeed(uint256 _feedID) internal {\n        (uint256 herdID, string memory ingredient, uint256 quantity, bool ccminted, address farmer, uint time) = feedtracking.viewFeed(_feedID);\n\n        require(farmer == msg.sender, \"Only farm owner can mint Carbon Tokens.\");\n        require(ccminted == false, \"Carbon Token already minted for this feed record.\");\n\n        _mint(msg.sender, quantity/feedToCC);\n    }\n\n    function mintCCByEmission(uint256 _emissionID) internal {\n        (uint256 herdID, uint256 amount, bool ccminted, address farmer, uint time) = emissiontracking.viewEmission(_emissionID);\n\n        require(farmer == msg.sender, \"Only farm owner can mint Carbon Tokens.\");\n        require(ccminted == false, \"Carbon Token already minted for this emission record.\");\n\n        _mint(msg.sender, amount/emissionToCC);\n    }\n\n    function transferToAggregator(address _from, address _to, uint256 _amount) public \n    {\n        require(msg.sender == _from);\n        require(admin == _to);\n\n        _transfer(_from, _to, _amount);\n    }\n\n    /**\n     * Todo: to understand the terms of binding and non-binding trading\n     */\n    function tradeBinding() public {}\n\n    function tradeNonBinding() public {}\n}",
  "sourcePath": "/Users/yininghu/Documents/work/Beston/Blockchain-Server/contracts/carbon/CarbonToken.sol",
  "compiler": {
    "name": "solc",
    "version": "0.8.7+commit.e28d00a7.Emscripten.clang"
  },
  "schemaVersion": "3.4.1",
  "updatedAt": "2022-09-20T04:25:26.322Z",
  "devdoc": {
    "kind": "dev",
    "methods": {
      "allowance(address,address)": {
        "details": "See {IERC20-allowance}."
      },
      "approve(address,uint256)": {
        "details": "See {IERC20-approve}. NOTE: If `amount` is the maximum `uint256`, the allowance is not updated on `transferFrom`. This is semantically equivalent to an infinite approval. Requirements: - `spender` cannot be the zero address."
      },
      "balanceOf(address)": {
        "details": "See {IERC20-balanceOf}."
      },
      "decimals()": {
        "details": "Returns the number of decimals used to get its user representation. For example, if `decimals` equals `2`, a balance of `505` tokens should be displayed to a user as `5.05` (`505 / 10 ** 2`). Tokens usually opt for a value of 18, imitating the relationship between Ether and Wei. This is the value {ERC20} uses, unless this function is overridden; NOTE: This information is only used for _display_ purposes: it in no way affects any of the arithmetic of the contract, including {IERC20-balanceOf} and {IERC20-transfer}."
      },
      "decreaseAllowance(address,uint256)": {
        "details": "Atomically decreases the allowance granted to `spender` by the caller. This is an alternative to {approve} that can be used as a mitigation for problems described in {IERC20-approve}. Emits an {Approval} event indicating the updated allowance. Requirements: - `spender` cannot be the zero address. - `spender` must have allowance for the caller of at least `subtractedValue`."
      },
      "increaseAllowance(address,uint256)": {
        "details": "Atomically increases the allowance granted to `spender` by the caller. This is an alternative to {approve} that can be used as a mitigation for problems described in {IERC20-approve}. Emits an {Approval} event indicating the updated allowance. Requirements: - `spender` cannot be the zero address."
      },
      "name()": {
        "details": "Returns the name of the token."
      },
      "symbol()": {
        "details": "Returns the symbol of the token, usually a shorter version of the name."
      },
      "totalSupply()": {
        "details": "See {IERC20-totalSupply}."
      },
      "transfer(address,uint256)": {
        "details": "See {IERC20-transfer}. Requirements: - `to` cannot be the zero address. - the caller must have a balance of at least `amount`."
      },
      "transferFrom(address,address,uint256)": {
        "details": "See {IERC20-transferFrom}. Emits an {Approval} event indicating the updated allowance. This is not required by the EIP. See the note at the beginning of {ERC20}. NOTE: Does not update the allowance if the current allowance is the maximum `uint256`. Requirements: - `from` and `to` cannot be the zero address. - `from` must have a balance of at least `amount`. - the caller must have allowance for ``from``'s tokens of at least `amount`."
      }
    },
    "version": 1
  },
  "userdoc": {
    "kind": "user",
    "methods": {
      "tradeBinding()": {
        "notice": "Todo: to understand the terms of binding and non-binding trading"
      }
    },
    "version": 1
  }
}