{
  "contractName": "CarbonToken",
  "abi": [
    {
      "inputs": [
        {
          "internalType": "string",
          "name": "_uri",
          "type": "string"
        },
        {
          "internalType": "contract FarmRegistry",
          "name": "_farmregistry",
          "type": "address"
        }
      ],
      "stateMutability": "nonpayable",
      "type": "constructor"
    },
    {
      "anonymous": false,
      "inputs": [
        {
          "indexed": true,
          "internalType": "address",
          "name": "account",
          "type": "address"
        },
        {
          "indexed": true,
          "internalType": "address",
          "name": "operator",
          "type": "address"
        },
        {
          "indexed": false,
          "internalType": "bool",
          "name": "approved",
          "type": "bool"
        }
      ],
      "name": "ApprovalForAll",
      "type": "event"
    },
    {
      "anonymous": false,
      "inputs": [
        {
          "indexed": true,
          "internalType": "address",
          "name": "operator",
          "type": "address"
        },
        {
          "indexed": true,
          "internalType": "address",
          "name": "from",
          "type": "address"
        },
        {
          "indexed": true,
          "internalType": "address",
          "name": "to",
          "type": "address"
        },
        {
          "indexed": false,
          "internalType": "uint256[]",
          "name": "ids",
          "type": "uint256[]"
        },
        {
          "indexed": false,
          "internalType": "uint256[]",
          "name": "values",
          "type": "uint256[]"
        }
      ],
      "name": "TransferBatch",
      "type": "event"
    },
    {
      "anonymous": false,
      "inputs": [
        {
          "indexed": true,
          "internalType": "address",
          "name": "operator",
          "type": "address"
        },
        {
          "indexed": true,
          "internalType": "address",
          "name": "from",
          "type": "address"
        },
        {
          "indexed": true,
          "internalType": "address",
          "name": "to",
          "type": "address"
        },
        {
          "indexed": false,
          "internalType": "uint256",
          "name": "id",
          "type": "uint256"
        },
        {
          "indexed": false,
          "internalType": "uint256",
          "name": "value",
          "type": "uint256"
        }
      ],
      "name": "TransferSingle",
      "type": "event"
    },
    {
      "anonymous": false,
      "inputs": [
        {
          "indexed": false,
          "internalType": "string",
          "name": "value",
          "type": "string"
        },
        {
          "indexed": true,
          "internalType": "uint256",
          "name": "id",
          "type": "uint256"
        }
      ],
      "name": "URI",
      "type": "event"
    },
    {
      "inputs": [],
      "name": "admin",
      "outputs": [
        {
          "internalType": "address",
          "name": "",
          "type": "address"
        }
      ],
      "stateMutability": "view",
      "type": "function",
      "constant": true
    },
    {
      "inputs": [
        {
          "internalType": "address",
          "name": "account",
          "type": "address"
        },
        {
          "internalType": "uint256",
          "name": "id",
          "type": "uint256"
        }
      ],
      "name": "balanceOf",
      "outputs": [
        {
          "internalType": "uint256",
          "name": "",
          "type": "uint256"
        }
      ],
      "stateMutability": "view",
      "type": "function",
      "constant": true
    },
    {
      "inputs": [
        {
          "internalType": "address[]",
          "name": "accounts",
          "type": "address[]"
        },
        {
          "internalType": "uint256[]",
          "name": "ids",
          "type": "uint256[]"
        }
      ],
      "name": "balanceOfBatch",
      "outputs": [
        {
          "internalType": "uint256[]",
          "name": "",
          "type": "uint256[]"
        }
      ],
      "stateMutability": "view",
      "type": "function",
      "constant": true
    },
    {
      "inputs": [],
      "name": "farmregistry",
      "outputs": [
        {
          "internalType": "contract FarmRegistry",
          "name": "",
          "type": "address"
        }
      ],
      "stateMutability": "view",
      "type": "function",
      "constant": true
    },
    {
      "inputs": [
        {
          "internalType": "address",
          "name": "account",
          "type": "address"
        },
        {
          "internalType": "address",
          "name": "operator",
          "type": "address"
        }
      ],
      "name": "isApprovedForAll",
      "outputs": [
        {
          "internalType": "bool",
          "name": "",
          "type": "bool"
        }
      ],
      "stateMutability": "view",
      "type": "function",
      "constant": true
    },
    {
      "inputs": [
        {
          "internalType": "address",
          "name": "from",
          "type": "address"
        },
        {
          "internalType": "address",
          "name": "to",
          "type": "address"
        },
        {
          "internalType": "uint256[]",
          "name": "ids",
          "type": "uint256[]"
        },
        {
          "internalType": "uint256[]",
          "name": "amounts",
          "type": "uint256[]"
        },
        {
          "internalType": "bytes",
          "name": "data",
          "type": "bytes"
        }
      ],
      "name": "safeBatchTransferFrom",
      "outputs": [],
      "stateMutability": "nonpayable",
      "type": "function"
    },
    {
      "inputs": [
        {
          "internalType": "address",
          "name": "from",
          "type": "address"
        },
        {
          "internalType": "address",
          "name": "to",
          "type": "address"
        },
        {
          "internalType": "uint256",
          "name": "id",
          "type": "uint256"
        },
        {
          "internalType": "uint256",
          "name": "amount",
          "type": "uint256"
        },
        {
          "internalType": "bytes",
          "name": "data",
          "type": "bytes"
        }
      ],
      "name": "safeTransferFrom",
      "outputs": [],
      "stateMutability": "nonpayable",
      "type": "function"
    },
    {
      "inputs": [
        {
          "internalType": "address",
          "name": "operator",
          "type": "address"
        },
        {
          "internalType": "bool",
          "name": "approved",
          "type": "bool"
        }
      ],
      "name": "setApprovalForAll",
      "outputs": [],
      "stateMutability": "nonpayable",
      "type": "function"
    },
    {
      "inputs": [
        {
          "internalType": "bytes4",
          "name": "interfaceId",
          "type": "bytes4"
        }
      ],
      "name": "supportsInterface",
      "outputs": [
        {
          "internalType": "bool",
          "name": "",
          "type": "bool"
        }
      ],
      "stateMutability": "view",
      "type": "function",
      "constant": true
    },
    {
      "inputs": [
        {
          "internalType": "uint256",
          "name": "",
          "type": "uint256"
        }
      ],
      "name": "uri",
      "outputs": [
        {
          "internalType": "string",
          "name": "",
          "type": "string"
        }
      ],
      "stateMutability": "view",
      "type": "function",
      "constant": true
    },
    {
      "inputs": [
        {
          "internalType": "string",
          "name": "_cbtokenid",
          "type": "string"
        },
        {
          "internalType": "uint256",
          "name": "_amount",
          "type": "uint256"
        },
        {
          "internalType": "uint256",
          "name": "_startdate",
          "type": "uint256"
        },
        {
          "internalType": "uint256",
          "name": "_enddate",
          "type": "uint256"
        }
      ],
      "name": "issue",
      "outputs": [],
      "stateMutability": "nonpayable",
      "type": "function"
    },
    {
      "inputs": [
        {
          "internalType": "string",
          "name": "_cbtokenid",
          "type": "string"
        },
        {
          "internalType": "string",
          "name": "_distributionid",
          "type": "string"
        },
        {
          "internalType": "string",
          "name": "_farmid",
          "type": "string"
        },
        {
          "internalType": "uint256",
          "name": "_amount",
          "type": "uint256"
        }
      ],
      "name": "distribute",
      "outputs": [],
      "stateMutability": "nonpayable",
      "type": "function"
    },
    {
      "inputs": [
        {
          "internalType": "string",
          "name": "_distributionid",
          "type": "string"
        }
      ],
      "name": "update",
      "outputs": [],
      "stateMutability": "nonpayable",
      "type": "function"
    },
    {
      "inputs": [
        {
          "internalType": "string",
          "name": "_cbtokenid",
          "type": "string"
        }
      ],
      "name": "queryCarbonToken",
      "outputs": [
        {
          "internalType": "uint256",
          "name": "",
          "type": "uint256"
        },
        {
          "internalType": "uint256",
          "name": "",
          "type": "uint256"
        },
        {
          "internalType": "uint256",
          "name": "",
          "type": "uint256"
        },
        {
          "internalType": "uint256",
          "name": "",
          "type": "uint256"
        }
      ],
      "stateMutability": "view",
      "type": "function",
      "constant": true
    },
    {
      "inputs": [
        {
          "internalType": "string",
          "name": "_distributionid",
          "type": "string"
        }
      ],
      "name": "queryDistribution",
      "outputs": [
        {
          "internalType": "string",
          "name": "",
          "type": "string"
        },
        {
          "internalType": "uint256",
          "name": "",
          "type": "uint256"
        },
        {
          "internalType": "address",
          "name": "",
          "type": "address"
        },
        {
          "internalType": "bool",
          "name": "",
          "type": "bool"
        }
      ],
      "stateMutability": "view",
      "type": "function",
      "constant": true
    }
  ],
  "bytecode": "0x60806040523480156200001157600080fd5b5060405162003ded38038062003ded833981810160405281019062000037919062000235565b816200004981620000d460201b60201c565b5033600360006101000a81548173ffffffffffffffffffffffffffffffffffffffff021916908373ffffffffffffffffffffffffffffffffffffffff16021790555080600460006101000a81548173ffffffffffffffffffffffffffffffffffffffff021916908373ffffffffffffffffffffffffffffffffffffffff160217905550505062000481565b8060029080519060200190620000ec929190620000f0565b5050565b828054620000fe9062000378565b90600052602060002090601f0160209004810192826200012257600085556200016e565b82601f106200013d57805160ff19168380011785556200016e565b828001600101855582156200016e579182015b828111156200016d57825182559160200191906001019062000150565b5b5090506200017d919062000181565b5090565b5b808211156200019c57600081600090555060010162000182565b5090565b6000620001b7620001b184620002c4565b6200029b565b905082815260208101848484011115620001d657620001d562000447565b5b620001e384828562000342565b509392505050565b600081519050620001fc8162000467565b92915050565b600082601f8301126200021a576200021962000442565b5b81516200022c848260208601620001a0565b91505092915050565b600080604083850312156200024f576200024e62000451565b5b600083015167ffffffffffffffff81111562000270576200026f6200044c565b5b6200027e8582860162000202565b92505060206200029185828601620001eb565b9150509250929050565b6000620002a7620002ba565b9050620002b58282620003ae565b919050565b6000604051905090565b600067ffffffffffffffff821115620002e257620002e162000413565b5b620002ed8262000456565b9050602081019050919050565b6000620003078262000322565b9050919050565b60006200031b82620002fa565b9050919050565b600073ffffffffffffffffffffffffffffffffffffffff82169050919050565b60005b838110156200036257808201518184015260208101905062000345565b8381111562000372576000848401525b50505050565b600060028204905060018216806200039157607f821691505b60208210811415620003a857620003a7620003e4565b5b50919050565b620003b98262000456565b810181811067ffffffffffffffff82111715620003db57620003da62000413565b5b80604052505050565b7f4e487b7100000000000000000000000000000000000000000000000000000000600052602260045260246000fd5b7f4e487b7100000000000000000000000000000000000000000000000000000000600052604160045260246000fd5b600080fd5b600080fd5b600080fd5b600080fd5b6000601f19601f8301169050919050565b62000472816200030e565b81146200047e57600080fd5b50565b61395c80620004916000396000f3fe608060405234801561001057600080fd5b50600436106100f45760003560e01c80634e1273f411610097578063a22cb46511610066578063a22cb465146102ad578063e985e9c5146102c9578063f242432a146102f9578063f851a44014610315576100f4565b80634e1273f41461021257806350325724146102425780637ac593131461027557806396b5502b14610291576100f4565b80630f65d02f116100d35780630f65d02f14610189578063110eed2e146101bc5780632eb2c2d6146101da5780633d7403a3146101f6576100f4565b8062fdd58e146100f957806301ffc9a7146101295780630e89341c14610159575b600080fd5b610113600480360381019061010e91906124f0565b610333565b6040516101209190612ef8565b60405180910390f35b610143600480360381019061013e91906125a8565b6103fc565b6040516101509190612c74565b60405180910390f35b610173600480360381019061016e9190612789565b6104de565b6040516101809190612caa565b60405180910390f35b6101a3600480360381019061019e9190612602565b610572565b6040516101b39493929190612ccc565b60405180910390f35b6101c4610733565b6040516101d19190612c8f565b60405180910390f35b6101f460048036038101906101ef919061234a565b610759565b005b610210600480360381019061020b9190612602565b6107fa565b005b61022c60048036038101906102279190612530565b610932565b6040516102399190612c1b565b60405180910390f35b61025c60048036038101906102579190612602565b610a4b565b60405161026c9493929190612f3c565b60405180910390f35b61028f600480360381019061028a919061264b565b610b53565b005b6102ab60048036038101906102a69190612706565b610ef0565b005b6102c760048036038101906102c291906124b0565b611066565b005b6102e360048036038101906102de919061230a565b61107c565b6040516102f09190612c74565b60405180910390f35b610313600480360381019061030e9190612419565b611110565b005b61031d6111b1565b60405161032a9190612b3e565b60405180910390f35b60008073ffffffffffffffffffffffffffffffffffffffff168373ffffffffffffffffffffffffffffffffffffffff1614156103a4576040517f08c379a000000000000000000000000000000000000000000000000000000000815260040161039b90612d98565b60405180910390fd5b60008083815260200190815260200160002060008473ffffffffffffffffffffffffffffffffffffffff1673ffffffffffffffffffffffffffffffffffffffff16815260200190815260200160002054905092915050565b60007fd9b67a26000000000000000000000000000000000000000000000000000000007bffffffffffffffffffffffffffffffffffffffffffffffffffffffff1916827bffffffffffffffffffffffffffffffffffffffffffffffffffffffff191614806104c757507f0e89341c000000000000000000000000000000000000000000000000000000007bffffffffffffffffffffffffffffffffffffffffffffffffffffffff1916827bffffffffffffffffffffffffffffffffffffffffffffffffffffffff1916145b806104d757506104d6826111d7565b5b9050919050565b6060600280546104ed9061321e565b80601f01602080910402602001604051908101604052809291908181526020018280546105199061321e565b80156105665780601f1061053b57610100808354040283529160200191610566565b820191906000526020600020905b81548152906001019060200180831161054957829003601f168201915b50505050509050919050565b606060008060006008856040516105899190612b27565b908152602001604051809103902060009054906101000a900460ff166105e4576040517f08c379a00000000000000000000000000000000000000000000000000000000081526004016105db90612e18565b60405180910390fd5b6007856040516105f49190612b27565b90815260200160405180910390206000016007866040516106159190612b27565b9081526020016040518091039020600101546007876040516106379190612b27565b908152602001604051809103902060020160009054906101000a900473ffffffffffffffffffffffffffffffffffffffff166007886040516106799190612b27565b908152602001604051809103902060020160149054906101000a900460ff168380546106a49061321e565b80601f01602080910402602001604051908101604052809291908181526020018280546106d09061321e565b801561071d5780601f106106f25761010080835404028352916020019161071d565b820191906000526020600020905b81548152906001019060200180831161070057829003601f168201915b5050505050935093509350935093509193509193565b600460009054906101000a900473ffffffffffffffffffffffffffffffffffffffff1681565b610761611241565b73ffffffffffffffffffffffffffffffffffffffff168573ffffffffffffffffffffffffffffffffffffffff1614806107a757506107a6856107a1611241565b61107c565b5b6107e6576040517f08c379a00000000000000000000000000000000000000000000000000000000081526004016107dd90612d38565b60405180910390fd5b6107f38585858585611249565b5050505050565b600360009054906101000a900473ffffffffffffffffffffffffffffffffffffffff1673ffffffffffffffffffffffffffffffffffffffff163373ffffffffffffffffffffffffffffffffffffffff161461088a576040517f08c379a000000000000000000000000000000000000000000000000000000000815260040161088190612e38565b60405180910390fd5b60088160405161089a9190612b27565b908152602001604051809103902060009054906101000a900460ff166108f5576040517f08c379a00000000000000000000000000000000000000000000000000000000081526004016108ec90612e18565b60405180910390fd5b60016007826040516109079190612b27565b908152602001604051809103902060020160146101000a81548160ff02191690831515021790555050565b60608151835114610978576040517f08c379a000000000000000000000000000000000000000000000000000000000815260040161096f90612e78565b60405180910390fd5b6000835167ffffffffffffffff81111561099557610994613357565b5b6040519080825280602002602001820160405280156109c35781602001602082028036833780820191505090505b50905060005b8451811015610a4057610a108582815181106109e8576109e7613328565b5b6020026020010151858381518110610a0357610a02613328565b5b6020026020010151610333565b828281518110610a2357610a22613328565b5b60200260200101818152505080610a3990613281565b90506109c9565b508091505092915050565b600080600080600685604051610a619190612b27565b908152602001604051809103902060009054906101000a900460ff16610abc576040517f08c379a0000000000000000000000000000000000000000000000000000000008152600401610ab390612d78565b60405180910390fd5b600585604051610acc9190612b27565b908152602001604051809103902060000154600586604051610aee9190612b27565b908152602001604051809103902060010154600587604051610b109190612b27565b908152602001604051809103902060020154600588604051610b329190612b27565b90815260200160405180910390206003015493509350935093509193509193565b600360009054906101000a900473ffffffffffffffffffffffffffffffffffffffff1673ffffffffffffffffffffffffffffffffffffffff163373ffffffffffffffffffffffffffffffffffffffff1614610be3576040517f08c379a0000000000000000000000000000000000000000000000000000000008152600401610bda90612db8565b60405180910390fd5b600684604051610bf39190612b27565b908152602001604051809103902060009054906101000a900460ff16610c4e576040517f08c379a0000000000000000000000000000000000000000000000000000000008152600401610c4590612d78565b60405180910390fd5b610d57600360009054906101000a900473ffffffffffffffffffffffffffffffffffffffff16600460009054906101000a900473ffffffffffffffffffffffffffffffffffffffff1673ffffffffffffffffffffffffffffffffffffffff1663ac9f1276856040518263ffffffff1660e01b8152600401610ccf9190612caa565b60206040518083038186803b158015610ce757600080fd5b505afa158015610cfb573d6000803e3d6000fd5b505050506040513d601f19601f82011682018060405250810190610d1f91906122dd565b600587604051610d2f9190612b27565b9081526020016040518091039020600001548460405180602001604052806000815250611110565b6040518060800160405280858152602001828152602001600460009054906101000a900473ffffffffffffffffffffffffffffffffffffffff1673ffffffffffffffffffffffffffffffffffffffff1663ac9f1276856040518263ffffffff1660e01b8152600401610dc99190612caa565b60206040518083038186803b158015610de157600080fd5b505afa158015610df5573d6000803e3d6000fd5b505050506040513d601f19601f82011682018060405250810190610e1991906122dd565b73ffffffffffffffffffffffffffffffffffffffff16815260200160001515815250600784604051610e4b9190612b27565b90815260200160405180910390206000820151816000019080519060200190610e75929190611fa0565b506020820151816001015560408201518160020160006101000a81548173ffffffffffffffffffffffffffffffffffffffff021916908373ffffffffffffffffffffffffffffffffffffffff16021790555060608201518160020160146101000a81548160ff02191690831515021790555090505050505050565b600360009054906101000a900473ffffffffffffffffffffffffffffffffffffffff1673ffffffffffffffffffffffffffffffffffffffff163373ffffffffffffffffffffffffffffffffffffffff1614610f80576040517f08c379a0000000000000000000000000000000000000000000000000000000008152600401610f7790612eb8565b60405180910390fd5b610fbe600360009054906101000a900473ffffffffffffffffffffffffffffffffffffffff166000856040518060200160405280600081525061156b565b60405180608001604052806000815260200184815260200183815260200182815250600585604051610ff09190612b27565b908152602001604051809103902060008201518160000155602082015181600101556040820151816002015560608201518160030155905050600160068560405161103b9190612b27565b908152602001604051809103902060006101000a81548160ff02191690831515021790555050505050565b611078611071611241565b838361171c565b5050565b6000600160008473ffffffffffffffffffffffffffffffffffffffff1673ffffffffffffffffffffffffffffffffffffffff16815260200190815260200160002060008373ffffffffffffffffffffffffffffffffffffffff1673ffffffffffffffffffffffffffffffffffffffff16815260200190815260200160002060009054906101000a900460ff16905092915050565b611118611241565b73ffffffffffffffffffffffffffffffffffffffff168573ffffffffffffffffffffffffffffffffffffffff16148061115e575061115d85611158611241565b61107c565b5b61119d576040517f08c379a000000000000000000000000000000000000000000000000000000000815260040161119490612d38565b60405180910390fd5b6111aa8585858585611889565b5050505050565b600360009054906101000a900473ffffffffffffffffffffffffffffffffffffffff1681565b60007f01ffc9a7000000000000000000000000000000000000000000000000000000007bffffffffffffffffffffffffffffffffffffffffffffffffffffffff1916827bffffffffffffffffffffffffffffffffffffffffffffffffffffffff1916149050919050565b600033905090565b815183511461128d576040517f08c379a000000000000000000000000000000000000000000000000000000000815260040161128490612e98565b60405180910390fd5b600073ffffffffffffffffffffffffffffffffffffffff168473ffffffffffffffffffffffffffffffffffffffff1614156112fd576040517f08c379a00000000000000000000000000000000000000000000000000000000081526004016112f490612dd8565b60405180910390fd5b6000611307611241565b9050611317818787878787611b25565b60005b84518110156114c857600085828151811061133857611337613328565b5b60200260200101519050600085838151811061135757611356613328565b5b60200260200101519050600080600084815260200190815260200160002060008b73ffffffffffffffffffffffffffffffffffffffff1673ffffffffffffffffffffffffffffffffffffffff168152602001908152602001600020549050818110156113f8576040517f08c379a00000000000000000000000000000000000000000000000000000000081526004016113ef90612df8565b60405180910390fd5b81810360008085815260200190815260200160002060008c73ffffffffffffffffffffffffffffffffffffffff1673ffffffffffffffffffffffffffffffffffffffff168152602001908152602001600020819055508160008085815260200190815260200160002060008b73ffffffffffffffffffffffffffffffffffffffff1673ffffffffffffffffffffffffffffffffffffffff16815260200190815260200160002060008282546114ad91906130dc565b92505081905550505050806114c190613281565b905061131a565b508473ffffffffffffffffffffffffffffffffffffffff168673ffffffffffffffffffffffffffffffffffffffff168273ffffffffffffffffffffffffffffffffffffffff167f4a39dc06d4c0dbc64b70af90fd698a233a518aa5d07e595d983b8c0526c8f7fb878760405161153f929190612c3d565b60405180910390a4611555818787878787611b2d565b611563818787878787611b35565b505050505050565b600073ffffffffffffffffffffffffffffffffffffffff168473ffffffffffffffffffffffffffffffffffffffff1614156115db576040517f08c379a00000000000000000000000000000000000000000000000000000000081526004016115d290612ed8565b60405180910390fd5b60006115e5611241565b905060006115f285611d1c565b905060006115ff85611d1c565b905061161083600089858589611b25565b8460008088815260200190815260200160002060008973ffffffffffffffffffffffffffffffffffffffff1673ffffffffffffffffffffffffffffffffffffffff168152602001908152602001600020600082825461166f91906130dc565b925050819055508673ffffffffffffffffffffffffffffffffffffffff16600073ffffffffffffffffffffffffffffffffffffffff168473ffffffffffffffffffffffffffffffffffffffff167fc3d58168c5ae7397731d063d5bbf3d657854427343f4c083240f7aacaa2d0f6289896040516116ed929190612f13565b60405180910390a461170483600089858589611b2d565b61171383600089898989611d96565b50505050505050565b8173ffffffffffffffffffffffffffffffffffffffff168373ffffffffffffffffffffffffffffffffffffffff16141561178b576040517f08c379a000000000000000000000000000000000000000000000000000000000815260040161178290612e58565b60405180910390fd5b80600160008573ffffffffffffffffffffffffffffffffffffffff1673ffffffffffffffffffffffffffffffffffffffff16815260200190815260200160002060008473ffffffffffffffffffffffffffffffffffffffff1673ffffffffffffffffffffffffffffffffffffffff16815260200190815260200160002060006101000a81548160ff0219169083151502179055508173ffffffffffffffffffffffffffffffffffffffff168373ffffffffffffffffffffffffffffffffffffffff167f17307eab39ab6107e8899845ad3d59bd9653f200f220920489ca2b5937696c318360405161187c9190612c74565b60405180910390a3505050565b600073ffffffffffffffffffffffffffffffffffffffff168473ffffffffffffffffffffffffffffffffffffffff1614156118f9576040517f08c379a00000000000000000000000000000000000000000000000000000000081526004016118f090612dd8565b60405180910390fd5b6000611903611241565b9050600061191085611d1c565b9050600061191d85611d1c565b905061192d838989858589611b25565b600080600088815260200190815260200160002060008a73ffffffffffffffffffffffffffffffffffffffff1673ffffffffffffffffffffffffffffffffffffffff168152602001908152602001600020549050858110156119c4576040517f08c379a00000000000000000000000000000000000000000000000000000000081526004016119bb90612df8565b60405180910390fd5b85810360008089815260200190815260200160002060008b73ffffffffffffffffffffffffffffffffffffffff1673ffffffffffffffffffffffffffffffffffffffff168152602001908152602001600020819055508560008089815260200190815260200160002060008a73ffffffffffffffffffffffffffffffffffffffff1673ffffffffffffffffffffffffffffffffffffffff1681526020019081526020016000206000828254611a7991906130dc565b925050819055508773ffffffffffffffffffffffffffffffffffffffff168973ffffffffffffffffffffffffffffffffffffffff168573ffffffffffffffffffffffffffffffffffffffff167fc3d58168c5ae7397731d063d5bbf3d657854427343f4c083240f7aacaa2d0f628a8a604051611af6929190612f13565b60405180910390a4611b0c848a8a86868a611b2d565b611b1a848a8a8a8a8a611d96565b505050505050505050565b505050505050565b505050505050565b611b548473ffffffffffffffffffffffffffffffffffffffff16611f7d565b15611d14578373ffffffffffffffffffffffffffffffffffffffff1663bc197c8187878686866040518663ffffffff1660e01b8152600401611b9a959493929190612b59565b602060405180830381600087803b158015611bb457600080fd5b505af1925050508015611be557506040513d601f19601f82011682018060405250810190611be291906125d5565b60015b611c8b57611bf1613386565b806308c379a01415611c4e5750611c06613834565b80611c115750611c50565b806040517f08c379a0000000000000000000000000000000000000000000000000000000008152600401611c459190612caa565b60405180910390fd5b505b6040517f08c379a0000000000000000000000000000000000000000000000000000000008152600401611c8290612d18565b60405180910390fd5b63bc197c8160e01b7bffffffffffffffffffffffffffffffffffffffffffffffffffffffff1916817bffffffffffffffffffffffffffffffffffffffffffffffffffffffff191614611d12576040517f08c379a0000000000000000000000000000000000000000000000000000000008152600401611d0990612d58565b60405180910390fd5b505b505050505050565b60606000600167ffffffffffffffff811115611d3b57611d3a613357565b5b604051908082528060200260200182016040528015611d695781602001602082028036833780820191505090505b5090508281600081518110611d8157611d80613328565b5b60200260200101818152505080915050919050565b611db58473ffffffffffffffffffffffffffffffffffffffff16611f7d565b15611f75578373ffffffffffffffffffffffffffffffffffffffff1663f23a6e6187878686866040518663ffffffff1660e01b8152600401611dfb959493929190612bc1565b602060405180830381600087803b158015611e1557600080fd5b505af1925050508015611e4657506040513d601f19601f82011682018060405250810190611e4391906125d5565b60015b611eec57611e52613386565b806308c379a01415611eaf5750611e67613834565b80611e725750611eb1565b806040517f08c379a0000000000000000000000000000000000000000000000000000000008152600401611ea69190612caa565b60405180910390fd5b505b6040517f08c379a0000000000000000000000000000000000000000000000000000000008152600401611ee390612d18565b60405180910390fd5b63f23a6e6160e01b7bffffffffffffffffffffffffffffffffffffffffffffffffffffffff1916817bffffffffffffffffffffffffffffffffffffffffffffffffffffffff191614611f73576040517f08c379a0000000000000000000000000000000000000000000000000000000008152600401611f6a90612d58565b60405180910390fd5b505b505050505050565b6000808273ffffffffffffffffffffffffffffffffffffffff163b119050919050565b828054611fac9061321e565b90600052602060002090601f016020900481019282611fce5760008555612015565b82601f10611fe757805160ff1916838001178555612015565b82800160010185558215612015579182015b82811115612014578251825591602001919060010190611ff9565b5b5090506120229190612026565b5090565b5b8082111561203f576000816000905550600101612027565b5090565b600061205661205184612fa6565b612f81565b90508083825260208201905082856020860282011115612079576120786133ad565b5b60005b858110156120a9578161208f88826121a7565b84526020840193506020830192505060018101905061207c565b5050509392505050565b60006120c66120c184612fd2565b612f81565b905080838252602082019050828560208602820111156120e9576120e86133ad565b5b60005b8581101561211957816120ff88826122c8565b8452602084019350602083019250506001810190506120ec565b5050509392505050565b600061213661213184612ffe565b612f81565b905082815260208101848484011115612152576121516133b2565b5b61215d8482856131dc565b509392505050565b60006121786121738461302f565b612f81565b905082815260208101848484011115612194576121936133b2565b5b61219f8482856131dc565b509392505050565b6000813590506121b6816138ca565b92915050565b6000815190506121cb816138ca565b92915050565b600082601f8301126121e6576121e56133a8565b5b81356121f6848260208601612043565b91505092915050565b600082601f830112612214576122136133a8565b5b81356122248482602086016120b3565b91505092915050565b60008135905061223c816138e1565b92915050565b600081359050612251816138f8565b92915050565b600081519050612266816138f8565b92915050565b600082601f830112612281576122806133a8565b5b8135612291848260208601612123565b91505092915050565b600082601f8301126122af576122ae6133a8565b5b81356122bf848260208601612165565b91505092915050565b6000813590506122d78161390f565b92915050565b6000602082840312156122f3576122f26133bc565b5b6000612301848285016121bc565b91505092915050565b60008060408385031215612321576123206133bc565b5b600061232f858286016121a7565b9250506020612340858286016121a7565b9150509250929050565b600080600080600060a08688031215612366576123656133bc565b5b6000612374888289016121a7565b9550506020612385888289016121a7565b945050604086013567ffffffffffffffff8111156123a6576123a56133b7565b5b6123b2888289016121ff565b935050606086013567ffffffffffffffff8111156123d3576123d26133b7565b5b6123df888289016121ff565b925050608086013567ffffffffffffffff811115612400576123ff6133b7565b5b61240c8882890161226c565b9150509295509295909350565b600080600080600060a08688031215612435576124346133bc565b5b6000612443888289016121a7565b9550506020612454888289016121a7565b9450506040612465888289016122c8565b9350506060612476888289016122c8565b925050608086013567ffffffffffffffff811115612497576124966133b7565b5b6124a38882890161226c565b9150509295509295909350565b600080604083850312156124c7576124c66133bc565b5b60006124d5858286016121a7565b92505060206124e68582860161222d565b9150509250929050565b60008060408385031215612507576125066133bc565b5b6000612515858286016121a7565b9250506020612526858286016122c8565b9150509250929050565b60008060408385031215612547576125466133bc565b5b600083013567ffffffffffffffff811115612565576125646133b7565b5b612571858286016121d1565b925050602083013567ffffffffffffffff811115612592576125916133b7565b5b61259e858286016121ff565b9150509250929050565b6000602082840312156125be576125bd6133bc565b5b60006125cc84828501612242565b91505092915050565b6000602082840312156125eb576125ea6133bc565b5b60006125f984828501612257565b91505092915050565b600060208284031215612618576126176133bc565b5b600082013567ffffffffffffffff811115612636576126356133b7565b5b6126428482850161229a565b91505092915050565b60008060008060808587031215612665576126646133bc565b5b600085013567ffffffffffffffff811115612683576126826133b7565b5b61268f8782880161229a565b945050602085013567ffffffffffffffff8111156126b0576126af6133b7565b5b6126bc8782880161229a565b935050604085013567ffffffffffffffff8111156126dd576126dc6133b7565b5b6126e98782880161229a565b92505060606126fa878288016122c8565b91505092959194509250565b600080600080608085870312156127205761271f6133bc565b5b600085013567ffffffffffffffff81111561273e5761273d6133b7565b5b61274a8782880161229a565b945050602061275b878288016122c8565b935050604061276c878288016122c8565b925050606061277d878288016122c8565b91505092959194509250565b60006020828403121561279f5761279e6133bc565b5b60006127ad848285016122c8565b91505092915050565b60006127c28383612b09565b60208301905092915050565b6127d781613132565b82525050565b60006127e882613070565b6127f2818561309e565b93506127fd83613060565b8060005b8381101561282e57815161281588826127b6565b975061282083613091565b925050600181019050612801565b5085935050505092915050565b61284481613144565b82525050565b60006128558261307b565b61285f81856130af565b935061286f8185602086016131eb565b612878816133c1565b840191505092915050565b61288c816131a6565b82525050565b600061289d82613086565b6128a781856130c0565b93506128b78185602086016131eb565b6128c0816133c1565b840191505092915050565b60006128d682613086565b6128e081856130d1565b93506128f08185602086016131eb565b80840191505092915050565b60006129096034836130c0565b9150612914826133df565b604082019050919050565b600061292c602f836130c0565b91506129378261342e565b604082019050919050565b600061294f6028836130c0565b915061295a8261347d565b604082019050919050565b6000612972601f836130c0565b915061297d826134cc565b602082019050919050565b6000612995602a836130c0565b91506129a0826134f5565b604082019050919050565b60006129b86028836130c0565b91506129c382613544565b604082019050919050565b60006129db6025836130c0565b91506129e682613593565b604082019050919050565b60006129fe602a836130c0565b9150612a09826135e2565b604082019050919050565b6000612a21601f836130c0565b9150612a2c82613631565b602082019050919050565b6000612a44602a836130c0565b9150612a4f8261365a565b604082019050919050565b6000612a676029836130c0565b9150612a72826136a9565b604082019050919050565b6000612a8a6029836130c0565b9150612a95826136f8565b604082019050919050565b6000612aad6028836130c0565b9150612ab882613747565b604082019050919050565b6000612ad06023836130c0565b9150612adb82613796565b604082019050919050565b6000612af36021836130c0565b9150612afe826137e5565b604082019050919050565b612b128161319c565b82525050565b612b218161319c565b82525050565b6000612b3382846128cb565b915081905092915050565b6000602082019050612b5360008301846127ce565b92915050565b600060a082019050612b6e60008301886127ce565b612b7b60208301876127ce565b8181036040830152612b8d81866127dd565b90508181036060830152612ba181856127dd565b90508181036080830152612bb5818461284a565b90509695505050505050565b600060a082019050612bd660008301886127ce565b612be360208301876127ce565b612bf06040830186612b18565b612bfd6060830185612b18565b8181036080830152612c0f818461284a565b90509695505050505050565b60006020820190508181036000830152612c3581846127dd565b905092915050565b60006040820190508181036000830152612c5781856127dd565b90508181036020830152612c6b81846127dd565b90509392505050565b6000602082019050612c89600083018461283b565b92915050565b6000602082019050612ca46000830184612883565b92915050565b60006020820190508181036000830152612cc48184612892565b905092915050565b60006080820190508181036000830152612ce68187612892565b9050612cf56020830186612b18565b612d0260408301856127ce565b612d0f606083018461283b565b95945050505050565b60006020820190508181036000830152612d31816128fc565b9050919050565b60006020820190508181036000830152612d518161291f565b9050919050565b60006020820190508181036000830152612d7181612942565b9050919050565b60006020820190508181036000830152612d9181612965565b9050919050565b60006020820190508181036000830152612db181612988565b9050919050565b60006020820190508181036000830152612dd1816129ab565b9050919050565b60006020820190508181036000830152612df1816129ce565b9050919050565b60006020820190508181036000830152612e11816129f1565b9050919050565b60006020820190508181036000830152612e3181612a14565b9050919050565b60006020820190508181036000830152612e5181612a37565b9050919050565b60006020820190508181036000830152612e7181612a5a565b9050919050565b60006020820190508181036000830152612e9181612a7d565b9050919050565b60006020820190508181036000830152612eb181612aa0565b9050919050565b60006020820190508181036000830152612ed181612ac3565b9050919050565b60006020820190508181036000830152612ef181612ae6565b9050919050565b6000602082019050612f0d6000830184612b18565b92915050565b6000604082019050612f286000830185612b18565b612f356020830184612b18565b9392505050565b6000608082019050612f516000830187612b18565b612f5e6020830186612b18565b612f6b6040830185612b18565b612f786060830184612b18565b95945050505050565b6000612f8b612f9c565b9050612f978282613250565b919050565b6000604051905090565b600067ffffffffffffffff821115612fc157612fc0613357565b5b602082029050602081019050919050565b600067ffffffffffffffff821115612fed57612fec613357565b5b602082029050602081019050919050565b600067ffffffffffffffff82111561301957613018613357565b5b613022826133c1565b9050602081019050919050565b600067ffffffffffffffff82111561304a57613049613357565b5b613053826133c1565b9050602081019050919050565b6000819050602082019050919050565b600081519050919050565b600081519050919050565b600081519050919050565b6000602082019050919050565b600082825260208201905092915050565b600082825260208201905092915050565b600082825260208201905092915050565b600081905092915050565b60006130e78261319c565b91506130f28361319c565b9250827fffffffffffffffffffffffffffffffffffffffffffffffffffffffffffffffff03821115613127576131266132ca565b5b828201905092915050565b600061313d8261317c565b9050919050565b60008115159050919050565b60007fffffffff0000000000000000000000000000000000000000000000000000000082169050919050565b600073ffffffffffffffffffffffffffffffffffffffff82169050919050565b6000819050919050565b60006131b1826131b8565b9050919050565b60006131c3826131ca565b9050919050565b60006131d58261317c565b9050919050565b82818337600083830152505050565b60005b838110156132095780820151818401526020810190506131ee565b83811115613218576000848401525b50505050565b6000600282049050600182168061323657607f821691505b6020821081141561324a576132496132f9565b5b50919050565b613259826133c1565b810181811067ffffffffffffffff8211171561327857613277613357565b5b80604052505050565b600061328c8261319c565b91507fffffffffffffffffffffffffffffffffffffffffffffffffffffffffffffffff8214156132bf576132be6132ca565b5b600182019050919050565b7f4e487b7100000000000000000000000000000000000000000000000000000000600052601160045260246000fd5b7f4e487b7100000000000000000000000000000000000000000000000000000000600052602260045260246000fd5b7f4e487b7100000000000000000000000000000000000000000000000000000000600052603260045260246000fd5b7f4e487b7100000000000000000000000000000000000000000000000000000000600052604160045260246000fd5b600060033d11156133a55760046000803e6133a26000516133d2565b90505b90565b600080fd5b600080fd5b600080fd5b600080fd5b600080fd5b6000601f19601f8301169050919050565b60008160e01c9050919050565b7f455243313135353a207472616e7366657220746f206e6f6e204552433131353560008201527f526563656976657220696d706c656d656e746572000000000000000000000000602082015250565b7f455243313135353a2063616c6c6572206973206e6f7420746f6b656e206f776e60008201527f6572206e6f7220617070726f7665640000000000000000000000000000000000602082015250565b7f455243313135353a204552433131353552656365697665722072656a6563746560008201527f6420746f6b656e73000000000000000000000000000000000000000000000000602082015250565b7f436172626f6e20546f6b656e20494420646f6573206e6f742065786973742e00600082015250565b7f455243313135353a2061646472657373207a65726f206973206e6f742061207660008201527f616c6964206f776e657200000000000000000000000000000000000000000000602082015250565b7f4f6e6c792061646d696e2063616e206469737472696275746520436172626f6e60008201527f20546f6b656e732e000000000000000000000000000000000000000000000000602082015250565b7f455243313135353a207472616e7366657220746f20746865207a65726f20616460008201527f6472657373000000000000000000000000000000000000000000000000000000602082015250565b7f455243313135353a20696e73756666696369656e742062616c616e636520666f60008201527f72207472616e7366657200000000000000000000000000000000000000000000602082015250565b7f446973747269627574696f6e20494420646f6573206e6f742065786973742e00600082015250565b7f4f6e6c792061646d696e2063616e2075706461746520436172626f6e20546f6b60008201527f656e207374617475732e00000000000000000000000000000000000000000000602082015250565b7f455243313135353a2073657474696e6720617070726f76616c2073746174757360008201527f20666f722073656c660000000000000000000000000000000000000000000000602082015250565b7f455243313135353a206163636f756e747320616e6420696473206c656e67746860008201527f206d69736d617463680000000000000000000000000000000000000000000000602082015250565b7f455243313135353a2069647320616e6420616d6f756e7473206c656e6774682060008201527f6d69736d61746368000000000000000000000000000000000000000000000000602082015250565b7f4f6e6c792061646d696e2063616e20697373756520436172626f6e20546f6b6560008201527f6e732e0000000000000000000000000000000000000000000000000000000000602082015250565b7f455243313135353a206d696e7420746f20746865207a65726f2061646472657360008201527f7300000000000000000000000000000000000000000000000000000000000000602082015250565b600060443d1015613844576138c7565b61384c612f9c565b60043d036004823e80513d602482011167ffffffffffffffff821117156138745750506138c7565b808201805167ffffffffffffffff81111561389257505050506138c7565b80602083010160043d0385018111156138af5750505050506138c7565b6138be82602001850186613250565b82955050505050505b90565b6138d381613132565b81146138de57600080fd5b50565b6138ea81613144565b81146138f557600080fd5b50565b61390181613150565b811461390c57600080fd5b50565b6139188161319c565b811461392357600080fd5b5056fea26469706673582212208d1e2af602be742b8d0fff6ec4ca238824f591c6fd0b1136a6ef8b41ff8b88cc64736f6c63430008070033",
  "immutableReferences": {},
  "source": "// SPDX-License-Identifier: MIT\npragma solidity ^0.8.0;\n\nimport \"../../node_modules/@openzeppelin/contracts/token/ERC1155/ERC1155.sol\";\nimport \"./FarmRegistry.sol\";\nimport \"./EmissionTracking.sol\";\n\ncontract CarbonToken is ERC1155 {\n    address public admin;\n    FarmRegistry public farmregistry;\n\n    // CBT's internal ids\n    // VERRA-0, ACCU-1, GOLDSTANDARD-2\n\n    struct CBToken {\n        uint256 InternalID; // the id used to mint a 1155 token\n        uint256 Amount;\n        uint256 StartDate;\n        uint256 EndDate;\n    }\n\n    struct Distribution {\n        string CBTokenID;\n        uint256 Amount;\n        address Farmer;\n        bool Paid;\n    }\n\n    mapping(string => CBToken) cbtokens;\n    mapping(string => bool) cbtokenExists;\n    mapping(string => Distribution) distributions;\n    mapping(string => bool) distributionExists;\n\n    constructor(string memory _uri, FarmRegistry _farmregistry)\n        ERC1155(_uri)\n    {\n        admin = msg.sender;\n        farmregistry = _farmregistry;\n    }\n\n    // Todo: add a condition for issue, e.g., only if emissions are verified carbon tokens can be issued.\n    function issue(string memory _cbtokenid, uint256 _amount, uint256 _startdate, uint256 _enddate) public {\n        require(msg.sender == admin, \"Only admin can issue Carbon Tokens.\");\n        _mint(admin,0,_amount,\"\");\n        cbtokens[_cbtokenid] = CBToken(0,_amount,_startdate,_enddate);\n        cbtokenExists[_cbtokenid] = true;\n    }\n\n    function distribute(string memory _cbtokenid, string memory _distributionid, string memory _farmid, uint256 _amount) public {\n        require(msg.sender == admin, \"Only admin can distribute Carbon Tokens.\");\n        require(cbtokenExists[_cbtokenid], \"Carbon Token ID does not exist.\");\n        safeTransferFrom(admin,farmregistry.farms(_farmid),cbtokens[_cbtokenid].InternalID,_amount, \"\");\n        distributions[_distributionid] = Distribution(_cbtokenid,_amount,farmregistry.farms(_farmid),false);\n    }\n\n    function update(string memory _distributionid) public {\n        require(msg.sender == admin, \"Only admin can update Carbon Token status.\");\n        require(distributionExists[_distributionid], \"Distribution ID does not exist.\");\n        distributions[_distributionid].Paid = true;\n    }\n\n    function queryCarbonToken(string memory _cbtokenid) public view returns(uint256,uint256,uint256,uint256)\n    {\n        require(cbtokenExists[_cbtokenid], \"Carbon Token ID does not exist.\");\n        return(\n            cbtokens[_cbtokenid].InternalID,\n            cbtokens[_cbtokenid].Amount,\n            cbtokens[_cbtokenid].StartDate,\n            cbtokens[_cbtokenid].EndDate\n        );\n    }\n\n    function queryDistribution(string memory _distributionid) public view returns(string memory,uint256,address,bool)\n    {\n        require(distributionExists[_distributionid], \"Distribution ID does not exist.\");\n        return(\n            distributions[_distributionid].CBTokenID,\n            distributions[_distributionid].Amount,\n            distributions[_distributionid].Farmer,\n            distributions[_distributionid].Paid\n        );\n    }\n}",
  "sourcePath": "/home/yih/Documents/dev/beston-dapps/contracts/carbon/CarbonToken.sol",
  "compiler": {
    "name": "solc",
    "version": "0.8.7+commit.e28d00a7.Emscripten.clang"
  },
  "schemaVersion": "3.4.1",
  "updatedAt": "2023-02-01T03:16:03.034Z",
  "networkType": "ethereum",
  "devdoc": {
    "kind": "dev",
    "methods": {
      "balanceOf(address,uint256)": {
        "details": "See {IERC1155-balanceOf}. Requirements: - `account` cannot be the zero address."
      },
      "balanceOfBatch(address[],uint256[])": {
        "details": "See {IERC1155-balanceOfBatch}. Requirements: - `accounts` and `ids` must have the same length."
      },
      "isApprovedForAll(address,address)": {
        "details": "See {IERC1155-isApprovedForAll}."
      },
      "safeBatchTransferFrom(address,address,uint256[],uint256[],bytes)": {
        "details": "See {IERC1155-safeBatchTransferFrom}."
      },
      "safeTransferFrom(address,address,uint256,uint256,bytes)": {
        "details": "See {IERC1155-safeTransferFrom}."
      },
      "setApprovalForAll(address,bool)": {
        "details": "See {IERC1155-setApprovalForAll}."
      },
      "supportsInterface(bytes4)": {
        "details": "See {IERC165-supportsInterface}."
      },
      "uri(uint256)": {
        "details": "See {IERC1155MetadataURI-uri}. This implementation returns the same URI for *all* token types. It relies on the token type ID substitution mechanism https://eips.ethereum.org/EIPS/eip-1155#metadata[defined in the EIP]. Clients calling this function must replace the `\\{id\\}` substring with the actual token type ID."
      }
    },
    "version": 1
  },
  "userdoc": {
    "kind": "user",
    "methods": {},
    "version": 1
  }
}