{
  "contractName": "CarbonToken",
  "abi": [
    {
      "inputs": [
        {
          "internalType": "string",
          "name": "_uri",
          "type": "string"
        },
        {
          "internalType": "contract FarmRegistry",
          "name": "_farmregistry",
          "type": "address"
        }
      ],
      "stateMutability": "nonpayable",
      "type": "constructor"
    },
    {
      "anonymous": false,
      "inputs": [
        {
          "indexed": true,
          "internalType": "address",
          "name": "account",
          "type": "address"
        },
        {
          "indexed": true,
          "internalType": "address",
          "name": "operator",
          "type": "address"
        },
        {
          "indexed": false,
          "internalType": "bool",
          "name": "approved",
          "type": "bool"
        }
      ],
      "name": "ApprovalForAll",
      "type": "event"
    },
    {
      "anonymous": false,
      "inputs": [
        {
          "indexed": true,
          "internalType": "address",
          "name": "operator",
          "type": "address"
        },
        {
          "indexed": true,
          "internalType": "address",
          "name": "from",
          "type": "address"
        },
        {
          "indexed": true,
          "internalType": "address",
          "name": "to",
          "type": "address"
        },
        {
          "indexed": false,
          "internalType": "uint256[]",
          "name": "ids",
          "type": "uint256[]"
        },
        {
          "indexed": false,
          "internalType": "uint256[]",
          "name": "values",
          "type": "uint256[]"
        }
      ],
      "name": "TransferBatch",
      "type": "event"
    },
    {
      "anonymous": false,
      "inputs": [
        {
          "indexed": true,
          "internalType": "address",
          "name": "operator",
          "type": "address"
        },
        {
          "indexed": true,
          "internalType": "address",
          "name": "from",
          "type": "address"
        },
        {
          "indexed": true,
          "internalType": "address",
          "name": "to",
          "type": "address"
        },
        {
          "indexed": false,
          "internalType": "uint256",
          "name": "id",
          "type": "uint256"
        },
        {
          "indexed": false,
          "internalType": "uint256",
          "name": "value",
          "type": "uint256"
        }
      ],
      "name": "TransferSingle",
      "type": "event"
    },
    {
      "anonymous": false,
      "inputs": [
        {
          "indexed": false,
          "internalType": "string",
          "name": "value",
          "type": "string"
        },
        {
          "indexed": true,
          "internalType": "uint256",
          "name": "id",
          "type": "uint256"
        }
      ],
      "name": "URI",
      "type": "event"
    },
    {
      "inputs": [],
      "name": "admin",
      "outputs": [
        {
          "internalType": "address",
          "name": "",
          "type": "address"
        }
      ],
      "stateMutability": "view",
      "type": "function",
      "constant": true
    },
    {
      "inputs": [
        {
          "internalType": "address",
          "name": "account",
          "type": "address"
        },
        {
          "internalType": "uint256",
          "name": "id",
          "type": "uint256"
        }
      ],
      "name": "balanceOf",
      "outputs": [
        {
          "internalType": "uint256",
          "name": "",
          "type": "uint256"
        }
      ],
      "stateMutability": "view",
      "type": "function",
      "constant": true
    },
    {
      "inputs": [
        {
          "internalType": "address[]",
          "name": "accounts",
          "type": "address[]"
        },
        {
          "internalType": "uint256[]",
          "name": "ids",
          "type": "uint256[]"
        }
      ],
      "name": "balanceOfBatch",
      "outputs": [
        {
          "internalType": "uint256[]",
          "name": "",
          "type": "uint256[]"
        }
      ],
      "stateMutability": "view",
      "type": "function",
      "constant": true
    },
    {
      "inputs": [],
      "name": "farmregistry",
      "outputs": [
        {
          "internalType": "contract FarmRegistry",
          "name": "",
          "type": "address"
        }
      ],
      "stateMutability": "view",
      "type": "function",
      "constant": true
    },
    {
      "inputs": [],
      "name": "feedtracking",
      "outputs": [
        {
          "internalType": "contract FeedTracking",
          "name": "",
          "type": "address"
        }
      ],
      "stateMutability": "view",
      "type": "function",
      "constant": true
    },
    {
      "inputs": [
        {
          "internalType": "address",
          "name": "account",
          "type": "address"
        },
        {
          "internalType": "address",
          "name": "operator",
          "type": "address"
        }
      ],
      "name": "isApprovedForAll",
      "outputs": [
        {
          "internalType": "bool",
          "name": "",
          "type": "bool"
        }
      ],
      "stateMutability": "view",
      "type": "function",
      "constant": true
    },
    {
      "inputs": [
        {
          "internalType": "address",
          "name": "from",
          "type": "address"
        },
        {
          "internalType": "address",
          "name": "to",
          "type": "address"
        },
        {
          "internalType": "uint256[]",
          "name": "ids",
          "type": "uint256[]"
        },
        {
          "internalType": "uint256[]",
          "name": "amounts",
          "type": "uint256[]"
        },
        {
          "internalType": "bytes",
          "name": "data",
          "type": "bytes"
        }
      ],
      "name": "safeBatchTransferFrom",
      "outputs": [],
      "stateMutability": "nonpayable",
      "type": "function"
    },
    {
      "inputs": [
        {
          "internalType": "address",
          "name": "from",
          "type": "address"
        },
        {
          "internalType": "address",
          "name": "to",
          "type": "address"
        },
        {
          "internalType": "uint256",
          "name": "id",
          "type": "uint256"
        },
        {
          "internalType": "uint256",
          "name": "amount",
          "type": "uint256"
        },
        {
          "internalType": "bytes",
          "name": "data",
          "type": "bytes"
        }
      ],
      "name": "safeTransferFrom",
      "outputs": [],
      "stateMutability": "nonpayable",
      "type": "function"
    },
    {
      "inputs": [
        {
          "internalType": "address",
          "name": "operator",
          "type": "address"
        },
        {
          "internalType": "bool",
          "name": "approved",
          "type": "bool"
        }
      ],
      "name": "setApprovalForAll",
      "outputs": [],
      "stateMutability": "nonpayable",
      "type": "function"
    },
    {
      "inputs": [
        {
          "internalType": "bytes4",
          "name": "interfaceId",
          "type": "bytes4"
        }
      ],
      "name": "supportsInterface",
      "outputs": [
        {
          "internalType": "bool",
          "name": "",
          "type": "bool"
        }
      ],
      "stateMutability": "view",
      "type": "function",
      "constant": true
    },
    {
      "inputs": [
        {
          "internalType": "uint256",
          "name": "",
          "type": "uint256"
        }
      ],
      "name": "uri",
      "outputs": [
        {
          "internalType": "string",
          "name": "",
          "type": "string"
        }
      ],
      "stateMutability": "view",
      "type": "function",
      "constant": true
    },
    {
      "inputs": [
        {
          "internalType": "string",
          "name": "_cbtokenid",
          "type": "string"
        },
        {
          "internalType": "uint256",
          "name": "_amount",
          "type": "uint256"
        },
        {
          "internalType": "string[]",
          "name": "_feedids",
          "type": "string[]"
        },
        {
          "internalType": "uint256",
          "name": "_startdate",
          "type": "uint256"
        },
        {
          "internalType": "uint256",
          "name": "_enddate",
          "type": "uint256"
        }
      ],
      "name": "issue",
      "outputs": [],
      "stateMutability": "nonpayable",
      "type": "function"
    },
    {
      "inputs": [
        {
          "internalType": "string",
          "name": "_cbtokenid",
          "type": "string"
        },
        {
          "internalType": "string",
          "name": "_distributionid",
          "type": "string"
        },
        {
          "internalType": "string",
          "name": "_farmid",
          "type": "string"
        },
        {
          "internalType": "uint256",
          "name": "_amount",
          "type": "uint256"
        }
      ],
      "name": "distribute",
      "outputs": [],
      "stateMutability": "nonpayable",
      "type": "function"
    },
    {
      "inputs": [
        {
          "internalType": "string",
          "name": "_distributionid",
          "type": "string"
        }
      ],
      "name": "update",
      "outputs": [],
      "stateMutability": "nonpayable",
      "type": "function"
    },
    {
      "inputs": [
        {
          "internalType": "string",
          "name": "_cbtokenid",
          "type": "string"
        }
      ],
      "name": "queryCarbonToken",
      "outputs": [
        {
          "internalType": "uint256",
          "name": "",
          "type": "uint256"
        },
        {
          "internalType": "uint256",
          "name": "",
          "type": "uint256"
        },
        {
          "internalType": "uint256",
          "name": "",
          "type": "uint256"
        },
        {
          "internalType": "uint256",
          "name": "",
          "type": "uint256"
        }
      ],
      "stateMutability": "view",
      "type": "function",
      "constant": true
    },
    {
      "inputs": [
        {
          "internalType": "string",
          "name": "_distributionid",
          "type": "string"
        }
      ],
      "name": "queryDistribution",
      "outputs": [
        {
          "internalType": "string",
          "name": "",
          "type": "string"
        },
        {
          "internalType": "uint256",
          "name": "",
          "type": "uint256"
        },
        {
          "internalType": "address",
          "name": "",
          "type": "address"
        },
        {
          "internalType": "bool",
          "name": "",
          "type": "bool"
        }
      ],
      "stateMutability": "view",
      "type": "function",
      "constant": true
    }
  ],
  "bytecode": "0x60806040523480156200001157600080fd5b50604051620044fe380380620044fe833981810160405281019062000037919062000235565b816200004981620000d460201b60201c565b5033600360006101000a81548173ffffffffffffffffffffffffffffffffffffffff021916908373ffffffffffffffffffffffffffffffffffffffff16021790555080600460006101000a81548173ffffffffffffffffffffffffffffffffffffffff021916908373ffffffffffffffffffffffffffffffffffffffff160217905550505062000481565b8060029080519060200190620000ec929190620000f0565b5050565b828054620000fe9062000378565b90600052602060002090601f0160209004810192826200012257600085556200016e565b82601f106200013d57805160ff19168380011785556200016e565b828001600101855582156200016e579182015b828111156200016d57825182559160200191906001019062000150565b5b5090506200017d919062000181565b5090565b5b808211156200019c57600081600090555060010162000182565b5090565b6000620001b7620001b184620002c4565b6200029b565b905082815260208101848484011115620001d657620001d562000447565b5b620001e384828562000342565b509392505050565b600081519050620001fc8162000467565b92915050565b600082601f8301126200021a576200021962000442565b5b81516200022c848260208601620001a0565b91505092915050565b600080604083850312156200024f576200024e62000451565b5b600083015167ffffffffffffffff81111562000270576200026f6200044c565b5b6200027e8582860162000202565b92505060206200029185828601620001eb565b9150509250929050565b6000620002a7620002ba565b9050620002b58282620003ae565b919050565b6000604051905090565b600067ffffffffffffffff821115620002e257620002e162000413565b5b620002ed8262000456565b9050602081019050919050565b6000620003078262000322565b9050919050565b60006200031b82620002fa565b9050919050565b600073ffffffffffffffffffffffffffffffffffffffff82169050919050565b60005b838110156200036257808201518184015260208101905062000345565b8381111562000372576000848401525b50505050565b600060028204905060018216806200039157607f821691505b60208210811415620003a857620003a7620003e4565b5b50919050565b620003b98262000456565b810181811067ffffffffffffffff82111715620003db57620003da62000413565b5b80604052505050565b7f4e487b7100000000000000000000000000000000000000000000000000000000600052602260045260246000fd5b7f4e487b7100000000000000000000000000000000000000000000000000000000600052604160045260246000fd5b600080fd5b600080fd5b600080fd5b600080fd5b6000601f19601f8301169050919050565b62000472816200030e565b81146200047e57600080fd5b50565b61406d80620004916000396000f3fe608060405234801561001057600080fd5b50600436106100ff5760003560e01c80635032572411610097578063a22cb46511610066578063a22cb465146102d6578063e985e9c5146102f2578063f242432a14610322578063f851a4401461033e576100ff565b8063503257241461024d57806358536d9f146102805780637ac593131461029c57806390061628146102b8576100ff565b8063110eed2e116100d3578063110eed2e146101c75780632eb2c2d6146101e55780633d7403a3146102015780634e1273f41461021d576100ff565b8062fdd58e1461010457806301ffc9a7146101345780630e89341c146101645780630f65d02f14610194575b600080fd5b61011e60048036038101906101199190612919565b61035c565b60405161012b91906134e2565b60405180910390f35b61014e600480360381019061014991906129d1565b610425565b60405161015b9190613203565b60405180910390f35b61017e60048036038101906101799190612cc3565b610507565b60405161018b9190613254565b60405180910390f35b6101ae60048036038101906101a99190612a2b565b61059b565b6040516101be9493929190613276565b60405180910390f35b6101cf61075c565b6040516101dc919061321e565b60405180910390f35b6101ff60048036038101906101fa9190612773565b610782565b005b61021b60048036038101906102169190612a2b565b610823565b005b61023760048036038101906102329190612959565b61095b565b60405161024491906131aa565b60405180910390f35b61026760048036038101906102629190612a2b565b610a74565b6040516102779493929190613526565b60405180910390f35b61029a60048036038101906102959190612c10565b610b7c565b005b6102b660048036038101906102b19190612b55565b610f76565b005b6102c0611313565b6040516102cd9190613239565b60405180910390f35b6102f060048036038101906102eb91906128d9565b611339565b005b61030c60048036038101906103079190612733565b61134f565b6040516103199190613203565b60405180910390f35b61033c60048036038101906103379190612842565b6113e3565b005b610346611484565b60405161035391906130cd565b60405180910390f35b60008073ffffffffffffffffffffffffffffffffffffffff168373ffffffffffffffffffffffffffffffffffffffff1614156103cd576040517f08c379a00000000000000000000000000000000000000000000000000000000081526004016103c490613342565b60405180910390fd5b60008083815260200190815260200160002060008473ffffffffffffffffffffffffffffffffffffffff1673ffffffffffffffffffffffffffffffffffffffff16815260200190815260200160002054905092915050565b60007fd9b67a26000000000000000000000000000000000000000000000000000000007bffffffffffffffffffffffffffffffffffffffffffffffffffffffff1916827bffffffffffffffffffffffffffffffffffffffffffffffffffffffff191614806104f057507f0e89341c000000000000000000000000000000000000000000000000000000007bffffffffffffffffffffffffffffffffffffffffffffffffffffffff1916827bffffffffffffffffffffffffffffffffffffffffffffffffffffffff1916145b8061050057506104ff826114aa565b5b9050919050565b60606002805461051690613854565b80601f016020809104026020016040519081016040528092919081815260200182805461054290613854565b801561058f5780601f106105645761010080835404028352916020019161058f565b820191906000526020600020905b81548152906001019060200180831161057257829003601f168201915b50505050509050919050565b606060008060006009856040516105b291906130b6565b908152602001604051809103902060009054906101000a900460ff1661060d576040517f08c379a0000000000000000000000000000000000000000000000000000000008152600401610604906133e2565b60405180910390fd5b60088560405161061d91906130b6565b908152602001604051809103902060000160088660405161063e91906130b6565b90815260200160405180910390206001015460088760405161066091906130b6565b908152602001604051809103902060020160009054906101000a900473ffffffffffffffffffffffffffffffffffffffff166008886040516106a291906130b6565b908152602001604051809103902060020160149054906101000a900460ff168380546106cd90613854565b80601f01602080910402602001604051908101604052809291908181526020018280546106f990613854565b80156107465780601f1061071b57610100808354040283529160200191610746565b820191906000526020600020905b81548152906001019060200180831161072957829003601f168201915b5050505050935093509350935093509193509193565b600460009054906101000a900473ffffffffffffffffffffffffffffffffffffffff1681565b61078a611514565b73ffffffffffffffffffffffffffffffffffffffff168573ffffffffffffffffffffffffffffffffffffffff1614806107d057506107cf856107ca611514565b61134f565b5b61080f576040517f08c379a0000000000000000000000000000000000000000000000000000000008152600401610806906132e2565b60405180910390fd5b61081c858585858561151c565b5050505050565b600360009054906101000a900473ffffffffffffffffffffffffffffffffffffffff1673ffffffffffffffffffffffffffffffffffffffff163373ffffffffffffffffffffffffffffffffffffffff16146108b3576040517f08c379a00000000000000000000000000000000000000000000000000000000081526004016108aa90613402565b60405180910390fd5b6009816040516108c391906130b6565b908152602001604051809103902060009054906101000a900460ff1661091e576040517f08c379a0000000000000000000000000000000000000000000000000000000008152600401610915906133e2565b60405180910390fd5b600160088260405161093091906130b6565b908152602001604051809103902060020160146101000a81548160ff02191690831515021790555050565b606081518351146109a1576040517f08c379a000000000000000000000000000000000000000000000000000000000815260040161099890613462565b60405180910390fd5b6000835167ffffffffffffffff8111156109be576109bd61398d565b5b6040519080825280602002602001820160405280156109ec5781602001602082028036833780820191505090505b50905060005b8451811015610a6957610a39858281518110610a1157610a1061395e565b5b6020026020010151858381518110610a2c57610a2b61395e565b5b602002602001015161035c565b828281518110610a4c57610a4b61395e565b5b60200260200101818152505080610a62906138b7565b90506109f2565b508091505092915050565b600080600080600785604051610a8a91906130b6565b908152602001604051809103902060009054906101000a900460ff16610ae5576040517f08c379a0000000000000000000000000000000000000000000000000000000008152600401610adc90613322565b60405180910390fd5b600685604051610af591906130b6565b908152602001604051809103902060000154600686604051610b1791906130b6565b908152602001604051809103902060010154600687604051610b3991906130b6565b908152602001604051809103902060020154600688604051610b5b91906130b6565b90815260200160405180910390206003015493509350935093509193509193565b600360009054906101000a900473ffffffffffffffffffffffffffffffffffffffff1673ffffffffffffffffffffffffffffffffffffffff163373ffffffffffffffffffffffffffffffffffffffff1614610c0c576040517f08c379a0000000000000000000000000000000000000000000000000000000008152600401610c03906134a2565b60405180910390fd5b610c4a600360009054906101000a900473ffffffffffffffffffffffffffffffffffffffff166000866040518060200160405280600081525061183e565b60005b8351811015610ecc57600080600080600080600560009054906101000a900473ffffffffffffffffffffffffffffffffffffffff1673ffffffffffffffffffffffffffffffffffffffff166398b226408b8981518110610cb057610caf61395e565b5b60200260200101516040518263ffffffff1660e01b8152600401610cd49190613254565b60006040518083038186803b158015610cec57600080fd5b505afa158015610d00573d6000803e3d6000fd5b505050506040513d6000823e3d601f19601f82011682018060405250810190610d299190612a74565b955095509550955095509550888210158015610d455750878211155b610d84576040517f08c379a0000000000000000000000000000000000000000000000000000000008152600401610d7b90613422565b60405180910390fd5b7f556e636c61696d6564000000000000000000000000000000000000000000000085604051602001610db691906130b6565b6040516020818303038152906040528051906020012014610e0c576040517f08c379a0000000000000000000000000000000000000000000000000000000008152600401610e03906133a2565b60405180910390fd5b600560009054906101000a900473ffffffffffffffffffffffffffffffffffffffff1673ffffffffffffffffffffffffffffffffffffffff1663d1686ecb8b8981518110610e5d57610e5c61395e565b5b60200260200101516040518263ffffffff1660e01b8152600401610e819190613254565b600060405180830381600087803b158015610e9b57600080fd5b505af1158015610eaf573d6000803e3d6000fd5b505050505050505050508080610ec4906138b7565b915050610c4d565b5060405180608001604052806000815260200185815260200183815260200182815250600686604051610eff91906130b6565b9081526020016040518091039020600082015181600001556020820151816001015560408201518160020155606082015181600301559050506001600786604051610f4a91906130b6565b908152602001604051809103902060006101000a81548160ff0219169083151502179055505050505050565b600360009054906101000a900473ffffffffffffffffffffffffffffffffffffffff1673ffffffffffffffffffffffffffffffffffffffff163373ffffffffffffffffffffffffffffffffffffffff1614611006576040517f08c379a0000000000000000000000000000000000000000000000000000000008152600401610ffd90613362565b60405180910390fd5b60078460405161101691906130b6565b908152602001604051809103902060009054906101000a900460ff16611071576040517f08c379a000000000000000000000000000000000000000000000000000000000815260040161106890613322565b60405180910390fd5b61117a600360009054906101000a900473ffffffffffffffffffffffffffffffffffffffff16600460009054906101000a900473ffffffffffffffffffffffffffffffffffffffff1673ffffffffffffffffffffffffffffffffffffffff1663ac9f1276856040518263ffffffff1660e01b81526004016110f29190613254565b60206040518083038186803b15801561110a57600080fd5b505afa15801561111e573d6000803e3d6000fd5b505050506040513d601f19601f820116820180604052508101906111429190612706565b60068760405161115291906130b6565b90815260200160405180910390206000015484604051806020016040528060008152506113e3565b6040518060800160405280858152602001828152602001600460009054906101000a900473ffffffffffffffffffffffffffffffffffffffff1673ffffffffffffffffffffffffffffffffffffffff1663ac9f1276856040518263ffffffff1660e01b81526004016111ec9190613254565b60206040518083038186803b15801561120457600080fd5b505afa158015611218573d6000803e3d6000fd5b505050506040513d601f19601f8201168201806040525081019061123c9190612706565b73ffffffffffffffffffffffffffffffffffffffff1681526020016000151581525060088460405161126e91906130b6565b90815260200160405180910390206000820151816000019080519060200190611298929190612273565b506020820151816001015560408201518160020160006101000a81548173ffffffffffffffffffffffffffffffffffffffff021916908373ffffffffffffffffffffffffffffffffffffffff16021790555060608201518160020160146101000a81548160ff02191690831515021790555090505050505050565b600560009054906101000a900473ffffffffffffffffffffffffffffffffffffffff1681565b61134b611344611514565b83836119ef565b5050565b6000600160008473ffffffffffffffffffffffffffffffffffffffff1673ffffffffffffffffffffffffffffffffffffffff16815260200190815260200160002060008373ffffffffffffffffffffffffffffffffffffffff1673ffffffffffffffffffffffffffffffffffffffff16815260200190815260200160002060009054906101000a900460ff16905092915050565b6113eb611514565b73ffffffffffffffffffffffffffffffffffffffff168573ffffffffffffffffffffffffffffffffffffffff16148061143157506114308561142b611514565b61134f565b5b611470576040517f08c379a0000000000000000000000000000000000000000000000000000000008152600401611467906132e2565b60405180910390fd5b61147d8585858585611b5c565b5050505050565b600360009054906101000a900473ffffffffffffffffffffffffffffffffffffffff1681565b60007f01ffc9a7000000000000000000000000000000000000000000000000000000007bffffffffffffffffffffffffffffffffffffffffffffffffffffffff1916827bffffffffffffffffffffffffffffffffffffffffffffffffffffffff1916149050919050565b600033905090565b8151835114611560576040517f08c379a000000000000000000000000000000000000000000000000000000000815260040161155790613482565b60405180910390fd5b600073ffffffffffffffffffffffffffffffffffffffff168473ffffffffffffffffffffffffffffffffffffffff1614156115d0576040517f08c379a00000000000000000000000000000000000000000000000000000000081526004016115c790613382565b60405180910390fd5b60006115da611514565b90506115ea818787878787611df8565b60005b845181101561179b57600085828151811061160b5761160a61395e565b5b60200260200101519050600085838151811061162a5761162961395e565b5b60200260200101519050600080600084815260200190815260200160002060008b73ffffffffffffffffffffffffffffffffffffffff1673ffffffffffffffffffffffffffffffffffffffff168152602001908152602001600020549050818110156116cb576040517f08c379a00000000000000000000000000000000000000000000000000000000081526004016116c2906133c2565b60405180910390fd5b81810360008085815260200190815260200160002060008c73ffffffffffffffffffffffffffffffffffffffff1673ffffffffffffffffffffffffffffffffffffffff168152602001908152602001600020819055508160008085815260200190815260200160002060008b73ffffffffffffffffffffffffffffffffffffffff1673ffffffffffffffffffffffffffffffffffffffff168152602001908152602001600020600082825461178091906136f2565b9250508190555050505080611794906138b7565b90506115ed565b508473ffffffffffffffffffffffffffffffffffffffff168673ffffffffffffffffffffffffffffffffffffffff168273ffffffffffffffffffffffffffffffffffffffff167f4a39dc06d4c0dbc64b70af90fd698a233a518aa5d07e595d983b8c0526c8f7fb87876040516118129291906131cc565b60405180910390a4611828818787878787611e00565b611836818787878787611e08565b505050505050565b600073ffffffffffffffffffffffffffffffffffffffff168473ffffffffffffffffffffffffffffffffffffffff1614156118ae576040517f08c379a00000000000000000000000000000000000000000000000000000000081526004016118a5906134c2565b60405180910390fd5b60006118b8611514565b905060006118c585611fef565b905060006118d285611fef565b90506118e383600089858589611df8565b8460008088815260200190815260200160002060008973ffffffffffffffffffffffffffffffffffffffff1673ffffffffffffffffffffffffffffffffffffffff168152602001908152602001600020600082825461194291906136f2565b925050819055508673ffffffffffffffffffffffffffffffffffffffff16600073ffffffffffffffffffffffffffffffffffffffff168473ffffffffffffffffffffffffffffffffffffffff167fc3d58168c5ae7397731d063d5bbf3d657854427343f4c083240f7aacaa2d0f6289896040516119c09291906134fd565b60405180910390a46119d783600089858589611e00565b6119e683600089898989612069565b50505050505050565b8173ffffffffffffffffffffffffffffffffffffffff168373ffffffffffffffffffffffffffffffffffffffff161415611a5e576040517f08c379a0000000000000000000000000000000000000000000000000000000008152600401611a5590613442565b60405180910390fd5b80600160008573ffffffffffffffffffffffffffffffffffffffff1673ffffffffffffffffffffffffffffffffffffffff16815260200190815260200160002060008473ffffffffffffffffffffffffffffffffffffffff1673ffffffffffffffffffffffffffffffffffffffff16815260200190815260200160002060006101000a81548160ff0219169083151502179055508173ffffffffffffffffffffffffffffffffffffffff168373ffffffffffffffffffffffffffffffffffffffff167f17307eab39ab6107e8899845ad3d59bd9653f200f220920489ca2b5937696c3183604051611b4f9190613203565b60405180910390a3505050565b600073ffffffffffffffffffffffffffffffffffffffff168473ffffffffffffffffffffffffffffffffffffffff161415611bcc576040517f08c379a0000000000000000000000000000000000000000000000000000000008152600401611bc390613382565b60405180910390fd5b6000611bd6611514565b90506000611be385611fef565b90506000611bf085611fef565b9050611c00838989858589611df8565b600080600088815260200190815260200160002060008a73ffffffffffffffffffffffffffffffffffffffff1673ffffffffffffffffffffffffffffffffffffffff16815260200190815260200160002054905085811015611c97576040517f08c379a0000000000000000000000000000000000000000000000000000000008152600401611c8e906133c2565b60405180910390fd5b85810360008089815260200190815260200160002060008b73ffffffffffffffffffffffffffffffffffffffff1673ffffffffffffffffffffffffffffffffffffffff168152602001908152602001600020819055508560008089815260200190815260200160002060008a73ffffffffffffffffffffffffffffffffffffffff1673ffffffffffffffffffffffffffffffffffffffff1681526020019081526020016000206000828254611d4c91906136f2565b925050819055508773ffffffffffffffffffffffffffffffffffffffff168973ffffffffffffffffffffffffffffffffffffffff168573ffffffffffffffffffffffffffffffffffffffff167fc3d58168c5ae7397731d063d5bbf3d657854427343f4c083240f7aacaa2d0f628a8a604051611dc99291906134fd565b60405180910390a4611ddf848a8a86868a611e00565b611ded848a8a8a8a8a612069565b505050505050505050565b505050505050565b505050505050565b611e278473ffffffffffffffffffffffffffffffffffffffff16612250565b15611fe7578373ffffffffffffffffffffffffffffffffffffffff1663bc197c8187878686866040518663ffffffff1660e01b8152600401611e6d9594939291906130e8565b602060405180830381600087803b158015611e8757600080fd5b505af1925050508015611eb857506040513d601f19601f82011682018060405250810190611eb591906129fe565b60015b611f5e57611ec46139bc565b806308c379a01415611f215750611ed9613f2e565b80611ee45750611f23565b806040517f08c379a0000000000000000000000000000000000000000000000000000000008152600401611f189190613254565b60405180910390fd5b505b6040517f08c379a0000000000000000000000000000000000000000000000000000000008152600401611f55906132c2565b60405180910390fd5b63bc197c8160e01b7bffffffffffffffffffffffffffffffffffffffffffffffffffffffff1916817bffffffffffffffffffffffffffffffffffffffffffffffffffffffff191614611fe5576040517f08c379a0000000000000000000000000000000000000000000000000000000008152600401611fdc90613302565b60405180910390fd5b505b505050505050565b60606000600167ffffffffffffffff81111561200e5761200d61398d565b5b60405190808252806020026020018201604052801561203c5781602001602082028036833780820191505090505b50905082816000815181106120545761205361395e565b5b60200260200101818152505080915050919050565b6120888473ffffffffffffffffffffffffffffffffffffffff16612250565b15612248578373ffffffffffffffffffffffffffffffffffffffff1663f23a6e6187878686866040518663ffffffff1660e01b81526004016120ce959493929190613150565b602060405180830381600087803b1580156120e857600080fd5b505af192505050801561211957506040513d601f19601f8201168201806040525081019061211691906129fe565b60015b6121bf576121256139bc565b806308c379a01415612182575061213a613f2e565b806121455750612184565b806040517f08c379a00000000000000000000000000000000000000000000000000000000081526004016121799190613254565b60405180910390fd5b505b6040517f08c379a00000000000000000000000000000000000000000000000000000000081526004016121b6906132c2565b60405180910390fd5b63f23a6e6160e01b7bffffffffffffffffffffffffffffffffffffffffffffffffffffffff1916817bffffffffffffffffffffffffffffffffffffffffffffffffffffffff191614612246576040517f08c379a000000000000000000000000000000000000000000000000000000000815260040161223d90613302565b60405180910390fd5b505b505050505050565b6000808273ffffffffffffffffffffffffffffffffffffffff163b119050919050565b82805461227f90613854565b90600052602060002090601f0160209004810192826122a157600085556122e8565b82601f106122ba57805160ff19168380011785556122e8565b828001600101855582156122e8579182015b828111156122e75782518255916020019190600101906122cc565b5b5090506122f591906122f9565b5090565b5b808211156123125760008160009055506001016122fa565b5090565b600061232961232484613590565b61356b565b9050808382526020820190508285602086028201111561234c5761234b6139e3565b5b60005b8581101561237c5781612362888261254a565b84526020840193506020830192505060018101905061234f565b5050509392505050565b6000612399612394846135bc565b61356b565b905080838252602082019050828560208602820111156123bc576123bb6139e3565b5b60005b8581101561240a57813567ffffffffffffffff8111156123e2576123e16139de565b5b8086016123ef898261266b565b855260208501945060208401935050506001810190506123bf565b5050509392505050565b6000612427612422846135e8565b61356b565b9050808382526020820190508285602086028201111561244a576124496139e3565b5b60005b8581101561247a578161246088826126dc565b84526020840193506020830192505060018101905061244d565b5050509392505050565b600061249761249284613614565b61356b565b9050828152602081018484840111156124b3576124b26139e8565b5b6124be848285613812565b509392505050565b60006124d96124d484613645565b61356b565b9050828152602081018484840111156124f5576124f46139e8565b5b612500848285613812565b509392505050565b600061251b61251684613645565b61356b565b905082815260208101848484011115612537576125366139e8565b5b612542848285613821565b509392505050565b60008135905061255981613fc4565b92915050565b60008151905061256e81613fc4565b92915050565b600082601f830112612589576125886139de565b5b8135612599848260208601612316565b91505092915050565b600082601f8301126125b7576125b66139de565b5b81356125c7848260208601612386565b91505092915050565b600082601f8301126125e5576125e46139de565b5b81356125f5848260208601612414565b91505092915050565b60008135905061260d81613fdb565b92915050565b60008135905061262281613ff2565b92915050565b60008151905061263781613ff2565b92915050565b600082601f830112612652576126516139de565b5b8135612662848260208601612484565b91505092915050565b600082601f8301126126805761267f6139de565b5b81356126908482602086016124c6565b91505092915050565b600082601f8301126126ae576126ad6139de565b5b81516126be848260208601612508565b91505092915050565b6000815190506126d681614009565b92915050565b6000813590506126eb81614020565b92915050565b60008151905061270081614020565b92915050565b60006020828403121561271c5761271b6139f2565b5b600061272a8482850161255f565b91505092915050565b6000806040838503121561274a576127496139f2565b5b60006127588582860161254a565b92505060206127698582860161254a565b9150509250929050565b600080600080600060a0868803121561278f5761278e6139f2565b5b600061279d8882890161254a565b95505060206127ae8882890161254a565b945050604086013567ffffffffffffffff8111156127cf576127ce6139ed565b5b6127db888289016125d0565b935050606086013567ffffffffffffffff8111156127fc576127fb6139ed565b5b612808888289016125d0565b925050608086013567ffffffffffffffff811115612829576128286139ed565b5b6128358882890161263d565b9150509295509295909350565b600080600080600060a0868803121561285e5761285d6139f2565b5b600061286c8882890161254a565b955050602061287d8882890161254a565b945050604061288e888289016126dc565b935050606061289f888289016126dc565b925050608086013567ffffffffffffffff8111156128c0576128bf6139ed565b5b6128cc8882890161263d565b9150509295509295909350565b600080604083850312156128f0576128ef6139f2565b5b60006128fe8582860161254a565b925050602061290f858286016125fe565b9150509250929050565b600080604083850312156129305761292f6139f2565b5b600061293e8582860161254a565b925050602061294f858286016126dc565b9150509250929050565b600080604083850312156129705761296f6139f2565b5b600083013567ffffffffffffffff81111561298e5761298d6139ed565b5b61299a85828601612574565b925050602083013567ffffffffffffffff8111156129bb576129ba6139ed565b5b6129c7858286016125d0565b9150509250929050565b6000602082840312156129e7576129e66139f2565b5b60006129f584828501612613565b91505092915050565b600060208284031215612a1457612a136139f2565b5b6000612a2284828501612628565b91505092915050565b600060208284031215612a4157612a406139f2565b5b600082013567ffffffffffffffff811115612a5f57612a5e6139ed565b5b612a6b8482850161266b565b91505092915050565b60008060008060008060c08789031215612a9157612a906139f2565b5b600087015167ffffffffffffffff811115612aaf57612aae6139ed565b5b612abb89828a01612699565b965050602087015167ffffffffffffffff811115612adc57612adb6139ed565b5b612ae889828a01612699565b955050604087015167ffffffffffffffff811115612b0957612b086139ed565b5b612b1589828a01612699565b9450506060612b2689828a016126c7565b9350506080612b3789828a016126f1565b92505060a0612b4889828a016126f1565b9150509295509295509295565b60008060008060808587031215612b6f57612b6e6139f2565b5b600085013567ffffffffffffffff811115612b8d57612b8c6139ed565b5b612b998782880161266b565b945050602085013567ffffffffffffffff811115612bba57612bb96139ed565b5b612bc68782880161266b565b935050604085013567ffffffffffffffff811115612be757612be66139ed565b5b612bf38782880161266b565b9250506060612c04878288016126dc565b91505092959194509250565b600080600080600060a08688031215612c2c57612c2b6139f2565b5b600086013567ffffffffffffffff811115612c4a57612c496139ed565b5b612c568882890161266b565b9550506020612c67888289016126dc565b945050604086013567ffffffffffffffff811115612c8857612c876139ed565b5b612c94888289016125a2565b9350506060612ca5888289016126dc565b9250506080612cb6888289016126dc565b9150509295509295909350565b600060208284031215612cd957612cd86139f2565b5b6000612ce7848285016126dc565b91505092915050565b6000612cfc8383613098565b60208301905092915050565b612d1181613748565b82525050565b6000612d2282613686565b612d2c81856136b4565b9350612d3783613676565b8060005b83811015612d68578151612d4f8882612cf0565b9750612d5a836136a7565b925050600181019050612d3b565b5085935050505092915050565b612d7e8161375a565b82525050565b6000612d8f82613691565b612d9981856136c5565b9350612da9818560208601613821565b612db2816139f7565b840191505092915050565b612dc6816137ca565b82525050565b612dd5816137dc565b82525050565b6000612de68261369c565b612df081856136d6565b9350612e00818560208601613821565b612e09816139f7565b840191505092915050565b6000612e1f8261369c565b612e2981856136e7565b9350612e39818560208601613821565b80840191505092915050565b6000612e526034836136d6565b9150612e5d82613a15565b604082019050919050565b6000612e75602f836136d6565b9150612e8082613a64565b604082019050919050565b6000612e986028836136d6565b9150612ea382613ab3565b604082019050919050565b6000612ebb601f836136d6565b9150612ec682613b02565b602082019050919050565b6000612ede602a836136d6565b9150612ee982613b2b565b604082019050919050565b6000612f016028836136d6565b9150612f0c82613b7a565b604082019050919050565b6000612f246025836136d6565b9150612f2f82613bc9565b604082019050919050565b6000612f476042836136d6565b9150612f5282613c18565b606082019050919050565b6000612f6a602a836136d6565b9150612f7582613c8d565b604082019050919050565b6000612f8d601f836136d6565b9150612f9882613cdc565b602082019050919050565b6000612fb0602a836136d6565b9150612fbb82613d05565b604082019050919050565b6000612fd36035836136d6565b9150612fde82613d54565b604082019050919050565b6000612ff66029836136d6565b915061300182613da3565b604082019050919050565b60006130196029836136d6565b915061302482613df2565b604082019050919050565b600061303c6028836136d6565b915061304782613e41565b604082019050919050565b600061305f6023836136d6565b915061306a82613e90565b604082019050919050565b60006130826021836136d6565b915061308d82613edf565b604082019050919050565b6130a1816137c0565b82525050565b6130b0816137c0565b82525050565b60006130c28284612e14565b915081905092915050565b60006020820190506130e26000830184612d08565b92915050565b600060a0820190506130fd6000830188612d08565b61310a6020830187612d08565b818103604083015261311c8186612d17565b905081810360608301526131308185612d17565b905081810360808301526131448184612d84565b90509695505050505050565b600060a0820190506131656000830188612d08565b6131726020830187612d08565b61317f60408301866130a7565b61318c60608301856130a7565b818103608083015261319e8184612d84565b90509695505050505050565b600060208201905081810360008301526131c48184612d17565b905092915050565b600060408201905081810360008301526131e68185612d17565b905081810360208301526131fa8184612d17565b90509392505050565b60006020820190506132186000830184612d75565b92915050565b60006020820190506132336000830184612dbd565b92915050565b600060208201905061324e6000830184612dcc565b92915050565b6000602082019050818103600083015261326e8184612ddb565b905092915050565b600060808201905081810360008301526132908187612ddb565b905061329f60208301866130a7565b6132ac6040830185612d08565b6132b96060830184612d75565b95945050505050565b600060208201905081810360008301526132db81612e45565b9050919050565b600060208201905081810360008301526132fb81612e68565b9050919050565b6000602082019050818103600083015261331b81612e8b565b9050919050565b6000602082019050818103600083015261333b81612eae565b9050919050565b6000602082019050818103600083015261335b81612ed1565b9050919050565b6000602082019050818103600083015261337b81612ef4565b9050919050565b6000602082019050818103600083015261339b81612f17565b9050919050565b600060208201905081810360008301526133bb81612f3a565b9050919050565b600060208201905081810360008301526133db81612f5d565b9050919050565b600060208201905081810360008301526133fb81612f80565b9050919050565b6000602082019050818103600083015261341b81612fa3565b9050919050565b6000602082019050818103600083015261343b81612fc6565b9050919050565b6000602082019050818103600083015261345b81612fe9565b9050919050565b6000602082019050818103600083015261347b8161300c565b9050919050565b6000602082019050818103600083015261349b8161302f565b9050919050565b600060208201905081810360008301526134bb81613052565b9050919050565b600060208201905081810360008301526134db81613075565b9050919050565b60006020820190506134f760008301846130a7565b92915050565b600060408201905061351260008301856130a7565b61351f60208301846130a7565b9392505050565b600060808201905061353b60008301876130a7565b61354860208301866130a7565b61355560408301856130a7565b61356260608301846130a7565b95945050505050565b6000613575613586565b90506135818282613886565b919050565b6000604051905090565b600067ffffffffffffffff8211156135ab576135aa61398d565b5b602082029050602081019050919050565b600067ffffffffffffffff8211156135d7576135d661398d565b5b602082029050602081019050919050565b600067ffffffffffffffff8211156136035761360261398d565b5b602082029050602081019050919050565b600067ffffffffffffffff82111561362f5761362e61398d565b5b613638826139f7565b9050602081019050919050565b600067ffffffffffffffff8211156136605761365f61398d565b5b613669826139f7565b9050602081019050919050565b6000819050602082019050919050565b600081519050919050565b600081519050919050565b600081519050919050565b6000602082019050919050565b600082825260208201905092915050565b600082825260208201905092915050565b600082825260208201905092915050565b600081905092915050565b60006136fd826137c0565b9150613708836137c0565b9250827fffffffffffffffffffffffffffffffffffffffffffffffffffffffffffffffff0382111561373d5761373c613900565b5b828201905092915050565b6000613753826137a0565b9050919050565b60008115159050919050565b60007fffffffff0000000000000000000000000000000000000000000000000000000082169050919050565b600061ffff82169050919050565b600073ffffffffffffffffffffffffffffffffffffffff82169050919050565b6000819050919050565b60006137d5826137ee565b9050919050565b60006137e7826137ee565b9050919050565b60006137f982613800565b9050919050565b600061380b826137a0565b9050919050565b82818337600083830152505050565b60005b8381101561383f578082015181840152602081019050613824565b8381111561384e576000848401525b50505050565b6000600282049050600182168061386c57607f821691505b602082108114156138805761387f61392f565b5b50919050565b61388f826139f7565b810181811067ffffffffffffffff821117156138ae576138ad61398d565b5b80604052505050565b60006138c2826137c0565b91507fffffffffffffffffffffffffffffffffffffffffffffffffffffffffffffffff8214156138f5576138f4613900565b5b600182019050919050565b7f4e487b7100000000000000000000000000000000000000000000000000000000600052601160045260246000fd5b7f4e487b7100000000000000000000000000000000000000000000000000000000600052602260045260246000fd5b7f4e487b7100000000000000000000000000000000000000000000000000000000600052603260045260246000fd5b7f4e487b7100000000000000000000000000000000000000000000000000000000600052604160045260246000fd5b600060033d11156139db5760046000803e6139d8600051613a08565b90505b90565b600080fd5b600080fd5b600080fd5b600080fd5b600080fd5b6000601f19601f8301169050919050565b60008160e01c9050919050565b7f455243313135353a207472616e7366657220746f206e6f6e204552433131353560008201527f526563656976657220696d706c656d656e746572000000000000000000000000602082015250565b7f455243313135353a2063616c6c6572206973206e6f7420746f6b656e206f776e60008201527f6572206e6f7220617070726f7665640000000000000000000000000000000000602082015250565b7f455243313135353a204552433131353552656365697665722072656a6563746560008201527f6420746f6b656e73000000000000000000000000000000000000000000000000602082015250565b7f436172626f6e20546f6b656e20494420646f6573206e6f742065786973742e00600082015250565b7f455243313135353a2061646472657373207a65726f206973206e6f742061207660008201527f616c6964206f776e657200000000000000000000000000000000000000000000602082015250565b7f4f6e6c792061646d696e2063616e206469737472696275746520436172626f6e60008201527f20546f6b656e732e000000000000000000000000000000000000000000000000602082015250565b7f455243313135353a207472616e7366657220746f20746865207a65726f20616460008201527f6472657373000000000000000000000000000000000000000000000000000000602082015250565b7f546865207370656369666965642066656564207265636f726420697320616c7260008201527f65616479207573656420746f20636c61696d20636172626f6e2063726564697460208201527f732e000000000000000000000000000000000000000000000000000000000000604082015250565b7f455243313135353a20696e73756666696369656e742062616c616e636520666f60008201527f72207472616e7366657200000000000000000000000000000000000000000000602082015250565b7f446973747269627574696f6e20494420646f6573206e6f742065786973742e00600082015250565b7f4f6e6c792061646d696e2063616e2075706461746520436172626f6e20546f6b60008201527f656e207374617475732e00000000000000000000000000000000000000000000602082015250565b7f546865207370656369666965642066656564207265636f7264206973206e6f7460008201527f20696e2074686520636c61696d20706572696f642e0000000000000000000000602082015250565b7f455243313135353a2073657474696e6720617070726f76616c2073746174757360008201527f20666f722073656c660000000000000000000000000000000000000000000000602082015250565b7f455243313135353a206163636f756e747320616e6420696473206c656e67746860008201527f206d69736d617463680000000000000000000000000000000000000000000000602082015250565b7f455243313135353a2069647320616e6420616d6f756e7473206c656e6774682060008201527f6d69736d61746368000000000000000000000000000000000000000000000000602082015250565b7f4f6e6c792061646d696e2063616e20697373756520436172626f6e20546f6b6560008201527f6e732e0000000000000000000000000000000000000000000000000000000000602082015250565b7f455243313135353a206d696e7420746f20746865207a65726f2061646472657360008201527f7300000000000000000000000000000000000000000000000000000000000000602082015250565b600060443d1015613f3e57613fc1565b613f46613586565b60043d036004823e80513d602482011167ffffffffffffffff82111715613f6e575050613fc1565b808201805167ffffffffffffffff811115613f8c5750505050613fc1565b80602083010160043d038501811115613fa9575050505050613fc1565b613fb882602001850186613886565b82955050505050505b90565b613fcd81613748565b8114613fd857600080fd5b50565b613fe48161375a565b8114613fef57600080fd5b50565b613ffb81613766565b811461400657600080fd5b50565b61401281613792565b811461401d57600080fd5b50565b614029816137c0565b811461403457600080fd5b5056fea26469706673582212200841cdc5e214ba50a1baa26d46d5de40c1eb28ce292c026cb6d6e6510388e13364736f6c63430008070033",
  "immutableReferences": {},
  "source": "// SPDX-License-Identifier: MIT\npragma solidity ^0.8.0;\n\nimport \"../../node_modules/@openzeppelin/contracts/token/ERC1155/ERC1155.sol\";\nimport \"./FarmRegistry.sol\";\nimport \"./FeedTracking.sol\";\nimport \"./EmissionTracking.sol\";\n\ncontract CarbonToken is ERC1155 {\n    address public admin;\n    FarmRegistry public farmregistry;\n    FeedTracking public feedtracking;\n\n    // CBT's internal ids\n    // VERRA-0, ACCU-1, GOLDSTANDARD-2\n\n    struct CBToken {\n        uint256 InternalID; // the id used to mint a 1155 token\n        uint256 Amount;\n        uint256 StartDate;\n        uint256 EndDate;\n        // string[] FeedIDs; // the Carbon Token has to be linked to feed records\n    }\n\n    struct Distribution {\n        string CBTokenID;\n        uint256 Amount;\n        address Farmer;\n        bool Paid;\n    }\n\n    mapping(string => CBToken) cbtokens;\n    mapping(string => bool) cbtokenExists;\n    mapping(string => Distribution) distributions;\n    mapping(string => bool) distributionExists;\n\n    constructor(string memory _uri, FarmRegistry _farmregistry)\n        ERC1155(_uri)\n    {\n        admin = msg.sender;\n        farmregistry = _farmregistry;\n    }\n\n    // Todo: add a condition for issue, e.g., only if emissions are verified carbon tokens can be issued.\n    function issue(string memory _cbtokenid, uint256 _amount, string[] memory _feedids, uint256 _startdate, uint256 _enddate) public {\n        require(msg.sender == admin, \"Only admin can issue Carbon Tokens.\");\n        _mint(admin,0,_amount,\"\");\n\n        for(uint256 i=0; i<_feedids.length; i++){\n            (string memory ingredient, string memory claimstatus, string memory animalid, uint16 dmi, uint256 datetime, uint256 blocktime)=feedtracking.queryFeed(_feedids[i]);\n            require((datetime>=_startdate && datetime<=_enddate ), \"The specified feed record is not in the claim period.\");\n            require(keccak256(abi.encodePacked(claimstatus))==\"Unclaimed\", \"The specified feed record is already used to claim carbon credits.\");\n            \n            feedtracking.updateFeed(_feedids[i]);\n        }\n\n        cbtokens[_cbtokenid] = CBToken(0,_amount,_startdate,_enddate);\n        cbtokenExists[_cbtokenid] = true;\n    }\n\n    function distribute(string memory _cbtokenid, string memory _distributionid, string memory _farmid, uint256 _amount) public {\n        require(msg.sender == admin, \"Only admin can distribute Carbon Tokens.\");\n        require(cbtokenExists[_cbtokenid], \"Carbon Token ID does not exist.\");\n        safeTransferFrom(admin,farmregistry.farms(_farmid),cbtokens[_cbtokenid].InternalID,_amount, \"\");\n        distributions[_distributionid] = Distribution(_cbtokenid,_amount,farmregistry.farms(_farmid),false);\n    }\n\n    function update(string memory _distributionid) public {\n        require(msg.sender == admin, \"Only admin can update Carbon Token status.\");\n        require(distributionExists[_distributionid], \"Distribution ID does not exist.\");\n        distributions[_distributionid].Paid = true;\n    }\n\n    function queryCarbonToken(string memory _cbtokenid) public view returns(uint256,uint256,uint256,uint256)\n    {\n        require(cbtokenExists[_cbtokenid], \"Carbon Token ID does not exist.\");\n        return(\n            cbtokens[_cbtokenid].InternalID,\n            cbtokens[_cbtokenid].Amount,\n            cbtokens[_cbtokenid].StartDate,\n            cbtokens[_cbtokenid].EndDate\n        );\n    }\n\n    function queryDistribution(string memory _distributionid) public view returns(string memory,uint256,address,bool)\n    {\n        require(distributionExists[_distributionid], \"Distribution ID does not exist.\");\n        return(\n            distributions[_distributionid].CBTokenID,\n            distributions[_distributionid].Amount,\n            distributions[_distributionid].Farmer,\n            distributions[_distributionid].Paid\n        );\n    }\n}",
  "sourcePath": "/home/yih/Documents/dev/beston-dapps/contracts/carbon/CarbonToken.sol",
  "compiler": {
    "name": "solc",
    "version": "0.8.7+commit.e28d00a7.Emscripten.clang"
  },
  "schemaVersion": "3.4.1",
  "updatedAt": "2023-02-10T05:37:15.622Z",
  "networkType": "ethereum",
  "devdoc": {
    "kind": "dev",
    "methods": {
      "balanceOf(address,uint256)": {
        "details": "See {IERC1155-balanceOf}. Requirements: - `account` cannot be the zero address."
      },
      "balanceOfBatch(address[],uint256[])": {
        "details": "See {IERC1155-balanceOfBatch}. Requirements: - `accounts` and `ids` must have the same length."
      },
      "isApprovedForAll(address,address)": {
        "details": "See {IERC1155-isApprovedForAll}."
      },
      "safeBatchTransferFrom(address,address,uint256[],uint256[],bytes)": {
        "details": "See {IERC1155-safeBatchTransferFrom}."
      },
      "safeTransferFrom(address,address,uint256,uint256,bytes)": {
        "details": "See {IERC1155-safeTransferFrom}."
      },
      "setApprovalForAll(address,bool)": {
        "details": "See {IERC1155-setApprovalForAll}."
      },
      "supportsInterface(bytes4)": {
        "details": "See {IERC165-supportsInterface}."
      },
      "uri(uint256)": {
        "details": "See {IERC1155MetadataURI-uri}. This implementation returns the same URI for *all* token types. It relies on the token type ID substitution mechanism https://eips.ethereum.org/EIPS/eip-1155#metadata[defined in the EIP]. Clients calling this function must replace the `\\{id\\}` substring with the actual token type ID."
      }
    },
    "version": 1
  },
  "userdoc": {
    "kind": "user",
    "methods": {},
    "version": 1
  }
}