{
  "contractName": "CarbonToken",
  "abi": [
    {
      "inputs": [
        {
          "internalType": "string",
          "name": "_uri",
          "type": "string"
        },
        {
          "internalType": "contract FarmRegistry",
          "name": "_farmregistry",
          "type": "address"
        },
        {
          "internalType": "contract FeedTracking",
          "name": "_feedtracking",
          "type": "address"
        },
        {
          "internalType": "contract EmissionTracking",
          "name": "_emissiontracking",
          "type": "address"
        }
      ],
      "stateMutability": "nonpayable",
      "type": "constructor"
    },
    {
      "anonymous": false,
      "inputs": [
        {
          "indexed": true,
          "internalType": "address",
          "name": "account",
          "type": "address"
        },
        {
          "indexed": true,
          "internalType": "address",
          "name": "operator",
          "type": "address"
        },
        {
          "indexed": false,
          "internalType": "bool",
          "name": "approved",
          "type": "bool"
        }
      ],
      "name": "ApprovalForAll",
      "type": "event"
    },
    {
      "anonymous": false,
      "inputs": [
        {
          "indexed": true,
          "internalType": "address",
          "name": "operator",
          "type": "address"
        },
        {
          "indexed": true,
          "internalType": "address",
          "name": "from",
          "type": "address"
        },
        {
          "indexed": true,
          "internalType": "address",
          "name": "to",
          "type": "address"
        },
        {
          "indexed": false,
          "internalType": "uint256[]",
          "name": "ids",
          "type": "uint256[]"
        },
        {
          "indexed": false,
          "internalType": "uint256[]",
          "name": "values",
          "type": "uint256[]"
        }
      ],
      "name": "TransferBatch",
      "type": "event"
    },
    {
      "anonymous": false,
      "inputs": [
        {
          "indexed": true,
          "internalType": "address",
          "name": "operator",
          "type": "address"
        },
        {
          "indexed": true,
          "internalType": "address",
          "name": "from",
          "type": "address"
        },
        {
          "indexed": true,
          "internalType": "address",
          "name": "to",
          "type": "address"
        },
        {
          "indexed": false,
          "internalType": "uint256",
          "name": "id",
          "type": "uint256"
        },
        {
          "indexed": false,
          "internalType": "uint256",
          "name": "value",
          "type": "uint256"
        }
      ],
      "name": "TransferSingle",
      "type": "event"
    },
    {
      "anonymous": false,
      "inputs": [
        {
          "indexed": false,
          "internalType": "string",
          "name": "value",
          "type": "string"
        },
        {
          "indexed": true,
          "internalType": "uint256",
          "name": "id",
          "type": "uint256"
        }
      ],
      "name": "URI",
      "type": "event"
    },
    {
      "inputs": [],
      "name": "admin",
      "outputs": [
        {
          "internalType": "address",
          "name": "",
          "type": "address"
        }
      ],
      "stateMutability": "view",
      "type": "function",
      "constant": true
    },
    {
      "inputs": [
        {
          "internalType": "address",
          "name": "account",
          "type": "address"
        },
        {
          "internalType": "uint256",
          "name": "id",
          "type": "uint256"
        }
      ],
      "name": "balanceOf",
      "outputs": [
        {
          "internalType": "uint256",
          "name": "",
          "type": "uint256"
        }
      ],
      "stateMutability": "view",
      "type": "function",
      "constant": true
    },
    {
      "inputs": [
        {
          "internalType": "address[]",
          "name": "accounts",
          "type": "address[]"
        },
        {
          "internalType": "uint256[]",
          "name": "ids",
          "type": "uint256[]"
        }
      ],
      "name": "balanceOfBatch",
      "outputs": [
        {
          "internalType": "uint256[]",
          "name": "",
          "type": "uint256[]"
        }
      ],
      "stateMutability": "view",
      "type": "function",
      "constant": true
    },
    {
      "inputs": [],
      "name": "emissiontracking",
      "outputs": [
        {
          "internalType": "contract EmissionTracking",
          "name": "",
          "type": "address"
        }
      ],
      "stateMutability": "view",
      "type": "function",
      "constant": true
    },
    {
      "inputs": [],
      "name": "farmregistry",
      "outputs": [
        {
          "internalType": "contract FarmRegistry",
          "name": "",
          "type": "address"
        }
      ],
      "stateMutability": "view",
      "type": "function",
      "constant": true
    },
    {
      "inputs": [],
      "name": "feedtracking",
      "outputs": [
        {
          "internalType": "contract FeedTracking",
          "name": "",
          "type": "address"
        }
      ],
      "stateMutability": "view",
      "type": "function",
      "constant": true
    },
    {
      "inputs": [
        {
          "internalType": "address",
          "name": "account",
          "type": "address"
        },
        {
          "internalType": "address",
          "name": "operator",
          "type": "address"
        }
      ],
      "name": "isApprovedForAll",
      "outputs": [
        {
          "internalType": "bool",
          "name": "",
          "type": "bool"
        }
      ],
      "stateMutability": "view",
      "type": "function",
      "constant": true
    },
    {
      "inputs": [
        {
          "internalType": "address",
          "name": "from",
          "type": "address"
        },
        {
          "internalType": "address",
          "name": "to",
          "type": "address"
        },
        {
          "internalType": "uint256[]",
          "name": "ids",
          "type": "uint256[]"
        },
        {
          "internalType": "uint256[]",
          "name": "amounts",
          "type": "uint256[]"
        },
        {
          "internalType": "bytes",
          "name": "data",
          "type": "bytes"
        }
      ],
      "name": "safeBatchTransferFrom",
      "outputs": [],
      "stateMutability": "nonpayable",
      "type": "function"
    },
    {
      "inputs": [
        {
          "internalType": "address",
          "name": "from",
          "type": "address"
        },
        {
          "internalType": "address",
          "name": "to",
          "type": "address"
        },
        {
          "internalType": "uint256",
          "name": "id",
          "type": "uint256"
        },
        {
          "internalType": "uint256",
          "name": "amount",
          "type": "uint256"
        },
        {
          "internalType": "bytes",
          "name": "data",
          "type": "bytes"
        }
      ],
      "name": "safeTransferFrom",
      "outputs": [],
      "stateMutability": "nonpayable",
      "type": "function"
    },
    {
      "inputs": [
        {
          "internalType": "address",
          "name": "operator",
          "type": "address"
        },
        {
          "internalType": "bool",
          "name": "approved",
          "type": "bool"
        }
      ],
      "name": "setApprovalForAll",
      "outputs": [],
      "stateMutability": "nonpayable",
      "type": "function"
    },
    {
      "inputs": [
        {
          "internalType": "bytes4",
          "name": "interfaceId",
          "type": "bytes4"
        }
      ],
      "name": "supportsInterface",
      "outputs": [
        {
          "internalType": "bool",
          "name": "",
          "type": "bool"
        }
      ],
      "stateMutability": "view",
      "type": "function",
      "constant": true
    },
    {
      "inputs": [
        {
          "internalType": "uint256",
          "name": "",
          "type": "uint256"
        }
      ],
      "name": "uri",
      "outputs": [
        {
          "internalType": "string",
          "name": "",
          "type": "string"
        }
      ],
      "stateMutability": "view",
      "type": "function",
      "constant": true
    },
    {
      "inputs": [
        {
          "internalType": "string",
          "name": "_cbtokenid",
          "type": "string"
        },
        {
          "internalType": "uint256",
          "name": "_amount",
          "type": "uint256"
        },
        {
          "internalType": "string[]",
          "name": "_feedids",
          "type": "string[]"
        },
        {
          "internalType": "uint256",
          "name": "_startdate",
          "type": "uint256"
        },
        {
          "internalType": "uint256",
          "name": "_enddate",
          "type": "uint256"
        }
      ],
      "name": "issue",
      "outputs": [],
      "stateMutability": "nonpayable",
      "type": "function"
    },
    {
      "inputs": [
        {
          "internalType": "string",
          "name": "_cbtokenid",
          "type": "string"
        },
        {
          "internalType": "string",
          "name": "_distributionid",
          "type": "string"
        },
        {
          "internalType": "string",
          "name": "_farmid",
          "type": "string"
        },
        {
          "internalType": "uint256",
          "name": "_amount",
          "type": "uint256"
        }
      ],
      "name": "distribute",
      "outputs": [],
      "stateMutability": "nonpayable",
      "type": "function"
    },
    {
      "inputs": [
        {
          "internalType": "string",
          "name": "_distributionid",
          "type": "string"
        }
      ],
      "name": "update",
      "outputs": [],
      "stateMutability": "nonpayable",
      "type": "function"
    },
    {
      "inputs": [
        {
          "internalType": "string",
          "name": "_cbtokenid",
          "type": "string"
        }
      ],
      "name": "queryCarbonToken",
      "outputs": [
        {
          "internalType": "uint256",
          "name": "",
          "type": "uint256"
        },
        {
          "internalType": "uint256",
          "name": "",
          "type": "uint256"
        },
        {
          "internalType": "uint256",
          "name": "",
          "type": "uint256"
        },
        {
          "internalType": "uint256",
          "name": "",
          "type": "uint256"
        }
      ],
      "stateMutability": "view",
      "type": "function",
      "constant": true
    },
    {
      "inputs": [
        {
          "internalType": "string",
          "name": "_distributionid",
          "type": "string"
        }
      ],
      "name": "queryDistribution",
      "outputs": [
        {
          "internalType": "string",
          "name": "",
          "type": "string"
        },
        {
          "internalType": "uint256",
          "name": "",
          "type": "uint256"
        },
        {
          "internalType": "address",
          "name": "",
          "type": "address"
        },
        {
          "internalType": "bool",
          "name": "",
          "type": "bool"
        }
      ],
      "stateMutability": "view",
      "type": "function",
      "constant": true
    }
  ],
  "bytecode": "0x60806040523480156200001157600080fd5b5060405162004582380380620045828339818101604052810190620000379190620002e7565b8362000049816200015860201b60201c565b5033600360006101000a81548173ffffffffffffffffffffffffffffffffffffffff021916908373ffffffffffffffffffffffffffffffffffffffff16021790555082600460006101000a81548173ffffffffffffffffffffffffffffffffffffffff021916908373ffffffffffffffffffffffffffffffffffffffff16021790555081600560006101000a81548173ffffffffffffffffffffffffffffffffffffffff021916908373ffffffffffffffffffffffffffffffffffffffff16021790555080600660006101000a81548173ffffffffffffffffffffffffffffffffffffffff021916908373ffffffffffffffffffffffffffffffffffffffff16021790555050505050620005ba565b80600290805190602001906200017092919062000174565b5050565b82805462000182906200047d565b90600052602060002090601f016020900481019282620001a65760008555620001f2565b82601f10620001c157805160ff1916838001178555620001f2565b82800160010185558215620001f2579182015b82811115620001f1578251825591602001919060010190620001d4565b5b50905062000201919062000205565b5090565b5b808211156200022057600081600090555060010162000206565b5090565b60006200023b6200023584620003a1565b62000378565b9050828152602081018484840111156200025a57620002596200054c565b5b6200026784828562000447565b509392505050565b60008151905062000280816200056c565b92915050565b600081519050620002978162000586565b92915050565b600081519050620002ae81620005a0565b92915050565b600082601f830112620002cc57620002cb62000547565b5b8151620002de84826020860162000224565b91505092915050565b6000806000806080858703121562000304576200030362000556565b5b600085015167ffffffffffffffff81111562000325576200032462000551565b5b6200033387828801620002b4565b9450506020620003468782880162000286565b935050604062000359878288016200029d565b92505060606200036c878288016200026f565b91505092959194509250565b60006200038462000397565b9050620003928282620004b3565b919050565b6000604051905090565b600067ffffffffffffffff821115620003bf57620003be62000518565b5b620003ca826200055b565b9050602081019050919050565b6000620003e48262000427565b9050919050565b6000620003f882620003d7565b9050919050565b60006200040c82620003d7565b9050919050565b60006200042082620003d7565b9050919050565b600073ffffffffffffffffffffffffffffffffffffffff82169050919050565b60005b83811015620004675780820151818401526020810190506200044a565b8381111562000477576000848401525b50505050565b600060028204905060018216806200049657607f821691505b60208210811415620004ad57620004ac620004e9565b5b50919050565b620004be826200055b565b810181811067ffffffffffffffff82111715620004e057620004df62000518565b5b80604052505050565b7f4e487b7100000000000000000000000000000000000000000000000000000000600052602260045260246000fd5b7f4e487b7100000000000000000000000000000000000000000000000000000000600052604160045260246000fd5b600080fd5b600080fd5b600080fd5b600080fd5b6000601f19601f8301169050919050565b6200057781620003eb565b81146200058357600080fd5b50565b6200059181620003ff565b81146200059d57600080fd5b50565b620005ab8162000413565b8114620005b757600080fd5b50565b613fb880620005ca6000396000f3fe608060405234801561001057600080fd5b506004361061010a5760003560e01c80634e1273f4116100a2578063900616281161007157806390061628146102e1578063a22cb465146102ff578063e985e9c51461031b578063f242432a1461034b578063f851a440146103675761010a565b80634e1273f414610246578063503257241461027657806358536d9f146102a95780637ac59313146102c55761010a565b8063110eed2e116100de578063110eed2e146101d25780632eb2c2d6146101f05780633d7403a31461020c5780634def8f8b146102285761010a565b8062fdd58e1461010f57806301ffc9a71461013f5780630e89341c1461016f5780630f65d02f1461019f575b600080fd5b610129600480360381019061012491906128e0565b610385565b6040516101369190613490565b60405180910390f35b61015960048036038101906101549190612998565b61044e565b60405161016691906131b6565b60405180910390f35b61018960048036038101906101849190612c8a565b610530565b6040516101969190613222565b60405180910390f35b6101b960048036038101906101b491906129f2565b6105c4565b6040516101c99493929190613244565b60405180910390f35b6101da610785565b6040516101e791906131ec565b60405180910390f35b61020a6004803603810190610205919061273a565b6107ab565b005b610226600480360381019061022191906129f2565b61084c565b005b610230610984565b60405161023d91906131d1565b60405180910390f35b610260600480360381019061025b9190612920565b6109aa565b60405161026d919061315d565b60405180910390f35b610290600480360381019061028b91906129f2565b610ac3565b6040516102a094939291906134d4565b60405180910390f35b6102c360048036038101906102be9190612bd7565b610bcb565b005b6102df60048036038101906102da9190612b1c565b610f3d565b005b6102e96112da565b6040516102f69190613207565b60405180910390f35b610319600480360381019061031491906128a0565b611300565b005b610335600480360381019061033091906126fa565b611316565b60405161034291906131b6565b60405180910390f35b61036560048036038101906103609190612809565b6113aa565b005b61036f61144b565b60405161037c9190613080565b60405180910390f35b60008073ffffffffffffffffffffffffffffffffffffffff168373ffffffffffffffffffffffffffffffffffffffff1614156103f6576040517f08c379a00000000000000000000000000000000000000000000000000000000081526004016103ed90613310565b60405180910390fd5b60008083815260200190815260200160002060008473ffffffffffffffffffffffffffffffffffffffff1673ffffffffffffffffffffffffffffffffffffffff16815260200190815260200160002054905092915050565b60007fd9b67a26000000000000000000000000000000000000000000000000000000007bffffffffffffffffffffffffffffffffffffffffffffffffffffffff1916827bffffffffffffffffffffffffffffffffffffffffffffffffffffffff1916148061051957507f0e89341c000000000000000000000000000000000000000000000000000000007bffffffffffffffffffffffffffffffffffffffffffffffffffffffff1916827bffffffffffffffffffffffffffffffffffffffffffffffffffffffff1916145b80610529575061052882611471565b5b9050919050565b60606002805461053f90613814565b80601f016020809104026020016040519081016040528092919081815260200182805461056b90613814565b80156105b85780601f1061058d576101008083540402835291602001916105b8565b820191906000526020600020905b81548152906001019060200180831161059b57829003601f168201915b50505050509050919050565b60606000806000600a856040516105db9190613069565b908152602001604051809103902060009054906101000a900460ff16610636576040517f08c379a000000000000000000000000000000000000000000000000000000000815260040161062d90613390565b60405180910390fd5b6009856040516106469190613069565b90815260200160405180910390206000016009866040516106679190613069565b9081526020016040518091039020600101546009876040516106899190613069565b908152602001604051809103902060020160009054906101000a900473ffffffffffffffffffffffffffffffffffffffff166009886040516106cb9190613069565b908152602001604051809103902060020160149054906101000a900460ff168380546106f690613814565b80601f016020809104026020016040519081016040528092919081815260200182805461072290613814565b801561076f5780601f106107445761010080835404028352916020019161076f565b820191906000526020600020905b81548152906001019060200180831161075257829003601f168201915b5050505050935093509350935093509193509193565b600460009054906101000a900473ffffffffffffffffffffffffffffffffffffffff1681565b6107b36114db565b73ffffffffffffffffffffffffffffffffffffffff168573ffffffffffffffffffffffffffffffffffffffff1614806107f957506107f8856107f36114db565b611316565b5b610838576040517f08c379a000000000000000000000000000000000000000000000000000000000815260040161082f906132b0565b60405180910390fd5b61084585858585856114e3565b5050505050565b600360009054906101000a900473ffffffffffffffffffffffffffffffffffffffff1673ffffffffffffffffffffffffffffffffffffffff163373ffffffffffffffffffffffffffffffffffffffff16146108dc576040517f08c379a00000000000000000000000000000000000000000000000000000000081526004016108d3906133b0565b60405180910390fd5b600a816040516108ec9190613069565b908152602001604051809103902060009054906101000a900460ff16610947576040517f08c379a000000000000000000000000000000000000000000000000000000000815260040161093e90613390565b60405180910390fd5b60016009826040516109599190613069565b908152602001604051809103902060020160146101000a81548160ff02191690831515021790555050565b600660009054906101000a900473ffffffffffffffffffffffffffffffffffffffff1681565b606081518351146109f0576040517f08c379a00000000000000000000000000000000000000000000000000000000081526004016109e790613410565b60405180910390fd5b6000835167ffffffffffffffff811115610a0d57610a0c61394d565b5b604051908082528060200260200182016040528015610a3b5781602001602082028036833780820191505090505b50905060005b8451811015610ab857610a88858281518110610a6057610a5f61391e565b5b6020026020010151858381518110610a7b57610a7a61391e565b5b6020026020010151610385565b828281518110610a9b57610a9a61391e565b5b60200260200101818152505080610ab190613877565b9050610a41565b508091505092915050565b600080600080600885604051610ad99190613069565b908152602001604051809103902060009054906101000a900460ff16610b34576040517f08c379a0000000000000000000000000000000000000000000000000000000008152600401610b2b906132f0565b60405180910390fd5b600785604051610b449190613069565b908152602001604051809103902060000154600786604051610b669190613069565b908152602001604051809103902060010154600787604051610b889190613069565b908152602001604051809103902060020154600788604051610baa9190613069565b90815260200160405180910390206003015493509350935093509193509193565b600360009054906101000a900473ffffffffffffffffffffffffffffffffffffffff1673ffffffffffffffffffffffffffffffffffffffff163373ffffffffffffffffffffffffffffffffffffffff1614610c5b576040517f08c379a0000000000000000000000000000000000000000000000000000000008152600401610c5290613450565b60405180910390fd5b610c99600360009054906101000a900473ffffffffffffffffffffffffffffffffffffffff1660008660405180602001604052806000815250611805565b60005b8351811015610e9357600080600080600080600560009054906101000a900473ffffffffffffffffffffffffffffffffffffffff1673ffffffffffffffffffffffffffffffffffffffff166398b226408b8981518110610cff57610cfe61391e565b5b60200260200101516040518263ffffffff1660e01b8152600401610d239190613222565b60006040518083038186803b158015610d3b57600080fd5b505afa158015610d4f573d6000803e3d6000fd5b505050506040513d6000823e3d601f19601f82011682018060405250810190610d789190612a3b565b955095509550955095509550888210158015610d945750878211155b610dd3576040517f08c379a0000000000000000000000000000000000000000000000000000000008152600401610dca906133d0565b60405180910390fd5b600560009054906101000a900473ffffffffffffffffffffffffffffffffffffffff1673ffffffffffffffffffffffffffffffffffffffff1663d1686ecb8b8981518110610e2457610e2361391e565b5b60200260200101516040518263ffffffff1660e01b8152600401610e489190613222565b600060405180830381600087803b158015610e6257600080fd5b505af1158015610e76573d6000803e3d6000fd5b505050505050505050508080610e8b90613877565b915050610c9c565b5060405180608001604052806000815260200185815260200183815260200182815250600786604051610ec69190613069565b9081526020016040518091039020600082015181600001556020820151816001015560408201518160020155606082015181600301559050506001600886604051610f119190613069565b908152602001604051809103902060006101000a81548160ff0219169083151502179055505050505050565b600360009054906101000a900473ffffffffffffffffffffffffffffffffffffffff1673ffffffffffffffffffffffffffffffffffffffff163373ffffffffffffffffffffffffffffffffffffffff1614610fcd576040517f08c379a0000000000000000000000000000000000000000000000000000000008152600401610fc490613330565b60405180910390fd5b600884604051610fdd9190613069565b908152602001604051809103902060009054906101000a900460ff16611038576040517f08c379a000000000000000000000000000000000000000000000000000000000815260040161102f906132f0565b60405180910390fd5b611141600360009054906101000a900473ffffffffffffffffffffffffffffffffffffffff16600460009054906101000a900473ffffffffffffffffffffffffffffffffffffffff1673ffffffffffffffffffffffffffffffffffffffff1663ac9f1276856040518263ffffffff1660e01b81526004016110b99190613222565b60206040518083038186803b1580156110d157600080fd5b505afa1580156110e5573d6000803e3d6000fd5b505050506040513d601f19601f8201168201806040525081019061110991906126cd565b6007876040516111199190613069565b90815260200160405180910390206000015484604051806020016040528060008152506113aa565b6040518060800160405280858152602001828152602001600460009054906101000a900473ffffffffffffffffffffffffffffffffffffffff1673ffffffffffffffffffffffffffffffffffffffff1663ac9f1276856040518263ffffffff1660e01b81526004016111b39190613222565b60206040518083038186803b1580156111cb57600080fd5b505afa1580156111df573d6000803e3d6000fd5b505050506040513d601f19601f8201168201806040525081019061120391906126cd565b73ffffffffffffffffffffffffffffffffffffffff168152602001600015158152506009846040516112359190613069565b9081526020016040518091039020600082015181600001908051906020019061125f92919061223a565b506020820151816001015560408201518160020160006101000a81548173ffffffffffffffffffffffffffffffffffffffff021916908373ffffffffffffffffffffffffffffffffffffffff16021790555060608201518160020160146101000a81548160ff02191690831515021790555090505050505050565b600560009054906101000a900473ffffffffffffffffffffffffffffffffffffffff1681565b61131261130b6114db565b83836119b6565b5050565b6000600160008473ffffffffffffffffffffffffffffffffffffffff1673ffffffffffffffffffffffffffffffffffffffff16815260200190815260200160002060008373ffffffffffffffffffffffffffffffffffffffff1673ffffffffffffffffffffffffffffffffffffffff16815260200190815260200160002060009054906101000a900460ff16905092915050565b6113b26114db565b73ffffffffffffffffffffffffffffffffffffffff168573ffffffffffffffffffffffffffffffffffffffff1614806113f857506113f7856113f26114db565b611316565b5b611437576040517f08c379a000000000000000000000000000000000000000000000000000000000815260040161142e906132b0565b60405180910390fd5b6114448585858585611b23565b5050505050565b600360009054906101000a900473ffffffffffffffffffffffffffffffffffffffff1681565b60007f01ffc9a7000000000000000000000000000000000000000000000000000000007bffffffffffffffffffffffffffffffffffffffffffffffffffffffff1916827bffffffffffffffffffffffffffffffffffffffffffffffffffffffff1916149050919050565b600033905090565b8151835114611527576040517f08c379a000000000000000000000000000000000000000000000000000000000815260040161151e90613430565b60405180910390fd5b600073ffffffffffffffffffffffffffffffffffffffff168473ffffffffffffffffffffffffffffffffffffffff161415611597576040517f08c379a000000000000000000000000000000000000000000000000000000000815260040161158e90613350565b60405180910390fd5b60006115a16114db565b90506115b1818787878787611dbf565b60005b84518110156117625760008582815181106115d2576115d161391e565b5b6020026020010151905060008583815181106115f1576115f061391e565b5b60200260200101519050600080600084815260200190815260200160002060008b73ffffffffffffffffffffffffffffffffffffffff1673ffffffffffffffffffffffffffffffffffffffff16815260200190815260200160002054905081811015611692576040517f08c379a000000000000000000000000000000000000000000000000000000000815260040161168990613370565b60405180910390fd5b81810360008085815260200190815260200160002060008c73ffffffffffffffffffffffffffffffffffffffff1673ffffffffffffffffffffffffffffffffffffffff168152602001908152602001600020819055508160008085815260200190815260200160002060008b73ffffffffffffffffffffffffffffffffffffffff1673ffffffffffffffffffffffffffffffffffffffff168152602001908152602001600020600082825461174791906136a0565b925050819055505050508061175b90613877565b90506115b4565b508473ffffffffffffffffffffffffffffffffffffffff168673ffffffffffffffffffffffffffffffffffffffff168273ffffffffffffffffffffffffffffffffffffffff167f4a39dc06d4c0dbc64b70af90fd698a233a518aa5d07e595d983b8c0526c8f7fb87876040516117d992919061317f565b60405180910390a46117ef818787878787611dc7565b6117fd818787878787611dcf565b505050505050565b600073ffffffffffffffffffffffffffffffffffffffff168473ffffffffffffffffffffffffffffffffffffffff161415611875576040517f08c379a000000000000000000000000000000000000000000000000000000000815260040161186c90613470565b60405180910390fd5b600061187f6114db565b9050600061188c85611fb6565b9050600061189985611fb6565b90506118aa83600089858589611dbf565b8460008088815260200190815260200160002060008973ffffffffffffffffffffffffffffffffffffffff1673ffffffffffffffffffffffffffffffffffffffff168152602001908152602001600020600082825461190991906136a0565b925050819055508673ffffffffffffffffffffffffffffffffffffffff16600073ffffffffffffffffffffffffffffffffffffffff168473ffffffffffffffffffffffffffffffffffffffff167fc3d58168c5ae7397731d063d5bbf3d657854427343f4c083240f7aacaa2d0f6289896040516119879291906134ab565b60405180910390a461199e83600089858589611dc7565b6119ad83600089898989612030565b50505050505050565b8173ffffffffffffffffffffffffffffffffffffffff168373ffffffffffffffffffffffffffffffffffffffff161415611a25576040517f08c379a0000000000000000000000000000000000000000000000000000000008152600401611a1c906133f0565b60405180910390fd5b80600160008573ffffffffffffffffffffffffffffffffffffffff1673ffffffffffffffffffffffffffffffffffffffff16815260200190815260200160002060008473ffffffffffffffffffffffffffffffffffffffff1673ffffffffffffffffffffffffffffffffffffffff16815260200190815260200160002060006101000a81548160ff0219169083151502179055508173ffffffffffffffffffffffffffffffffffffffff168373ffffffffffffffffffffffffffffffffffffffff167f17307eab39ab6107e8899845ad3d59bd9653f200f220920489ca2b5937696c3183604051611b1691906131b6565b60405180910390a3505050565b600073ffffffffffffffffffffffffffffffffffffffff168473ffffffffffffffffffffffffffffffffffffffff161415611b93576040517f08c379a0000000000000000000000000000000000000000000000000000000008152600401611b8a90613350565b60405180910390fd5b6000611b9d6114db565b90506000611baa85611fb6565b90506000611bb785611fb6565b9050611bc7838989858589611dbf565b600080600088815260200190815260200160002060008a73ffffffffffffffffffffffffffffffffffffffff1673ffffffffffffffffffffffffffffffffffffffff16815260200190815260200160002054905085811015611c5e576040517f08c379a0000000000000000000000000000000000000000000000000000000008152600401611c5590613370565b60405180910390fd5b85810360008089815260200190815260200160002060008b73ffffffffffffffffffffffffffffffffffffffff1673ffffffffffffffffffffffffffffffffffffffff168152602001908152602001600020819055508560008089815260200190815260200160002060008a73ffffffffffffffffffffffffffffffffffffffff1673ffffffffffffffffffffffffffffffffffffffff1681526020019081526020016000206000828254611d1391906136a0565b925050819055508773ffffffffffffffffffffffffffffffffffffffff168973ffffffffffffffffffffffffffffffffffffffff168573ffffffffffffffffffffffffffffffffffffffff167fc3d58168c5ae7397731d063d5bbf3d657854427343f4c083240f7aacaa2d0f628a8a604051611d909291906134ab565b60405180910390a4611da6848a8a86868a611dc7565b611db4848a8a8a8a8a612030565b505050505050505050565b505050505050565b505050505050565b611dee8473ffffffffffffffffffffffffffffffffffffffff16612217565b15611fae578373ffffffffffffffffffffffffffffffffffffffff1663bc197c8187878686866040518663ffffffff1660e01b8152600401611e3495949392919061309b565b602060405180830381600087803b158015611e4e57600080fd5b505af1925050508015611e7f57506040513d601f19601f82011682018060405250810190611e7c91906129c5565b60015b611f2557611e8b61397c565b806308c379a01415611ee85750611ea0613e79565b80611eab5750611eea565b806040517f08c379a0000000000000000000000000000000000000000000000000000000008152600401611edf9190613222565b60405180910390fd5b505b6040517f08c379a0000000000000000000000000000000000000000000000000000000008152600401611f1c90613290565b60405180910390fd5b63bc197c8160e01b7bffffffffffffffffffffffffffffffffffffffffffffffffffffffff1916817bffffffffffffffffffffffffffffffffffffffffffffffffffffffff191614611fac576040517f08c379a0000000000000000000000000000000000000000000000000000000008152600401611fa3906132d0565b60405180910390fd5b505b505050505050565b60606000600167ffffffffffffffff811115611fd557611fd461394d565b5b6040519080825280602002602001820160405280156120035781602001602082028036833780820191505090505b509050828160008151811061201b5761201a61391e565b5b60200260200101818152505080915050919050565b61204f8473ffffffffffffffffffffffffffffffffffffffff16612217565b1561220f578373ffffffffffffffffffffffffffffffffffffffff1663f23a6e6187878686866040518663ffffffff1660e01b8152600401612095959493929190613103565b602060405180830381600087803b1580156120af57600080fd5b505af19250505080156120e057506040513d601f19601f820116820180604052508101906120dd91906129c5565b60015b612186576120ec61397c565b806308c379a014156121495750612101613e79565b8061210c575061214b565b806040517f08c379a00000000000000000000000000000000000000000000000000000000081526004016121409190613222565b60405180910390fd5b505b6040517f08c379a000000000000000000000000000000000000000000000000000000000815260040161217d90613290565b60405180910390fd5b63f23a6e6160e01b7bffffffffffffffffffffffffffffffffffffffffffffffffffffffff1916817bffffffffffffffffffffffffffffffffffffffffffffffffffffffff19161461220d576040517f08c379a0000000000000000000000000000000000000000000000000000000008152600401612204906132d0565b60405180910390fd5b505b505050505050565b6000808273ffffffffffffffffffffffffffffffffffffffff163b119050919050565b82805461224690613814565b90600052602060002090601f01602090048101928261226857600085556122af565b82601f1061228157805160ff19168380011785556122af565b828001600101855582156122af579182015b828111156122ae578251825591602001919060010190612293565b5b5090506122bc91906122c0565b5090565b5b808211156122d95760008160009055506001016122c1565b5090565b60006122f06122eb8461353e565b613519565b90508083825260208201905082856020860282011115612313576123126139a3565b5b60005b8581101561234357816123298882612511565b845260208401935060208301925050600181019050612316565b5050509392505050565b600061236061235b8461356a565b613519565b90508083825260208201905082856020860282011115612383576123826139a3565b5b60005b858110156123d157813567ffffffffffffffff8111156123a9576123a861399e565b5b8086016123b68982612632565b85526020850194506020840193505050600181019050612386565b5050509392505050565b60006123ee6123e984613596565b613519565b90508083825260208201905082856020860282011115612411576124106139a3565b5b60005b85811015612441578161242788826126a3565b845260208401935060208301925050600181019050612414565b5050509392505050565b600061245e612459846135c2565b613519565b90508281526020810184848401111561247a576124796139a8565b5b6124858482856137d2565b509392505050565b60006124a061249b846135f3565b613519565b9050828152602081018484840111156124bc576124bb6139a8565b5b6124c78482856137d2565b509392505050565b60006124e26124dd846135f3565b613519565b9050828152602081018484840111156124fe576124fd6139a8565b5b6125098482856137e1565b509392505050565b60008135905061252081613f0f565b92915050565b60008151905061253581613f0f565b92915050565b600082601f8301126125505761254f61399e565b5b81356125608482602086016122dd565b91505092915050565b600082601f83011261257e5761257d61399e565b5b813561258e84826020860161234d565b91505092915050565b600082601f8301126125ac576125ab61399e565b5b81356125bc8482602086016123db565b91505092915050565b6000813590506125d481613f26565b92915050565b6000813590506125e981613f3d565b92915050565b6000815190506125fe81613f3d565b92915050565b600082601f8301126126195761261861399e565b5b813561262984826020860161244b565b91505092915050565b600082601f8301126126475761264661399e565b5b813561265784826020860161248d565b91505092915050565b600082601f8301126126755761267461399e565b5b81516126858482602086016124cf565b91505092915050565b60008151905061269d81613f54565b92915050565b6000813590506126b281613f6b565b92915050565b6000815190506126c781613f6b565b92915050565b6000602082840312156126e3576126e26139b2565b5b60006126f184828501612526565b91505092915050565b60008060408385031215612711576127106139b2565b5b600061271f85828601612511565b925050602061273085828601612511565b9150509250929050565b600080600080600060a08688031215612756576127556139b2565b5b600061276488828901612511565b955050602061277588828901612511565b945050604086013567ffffffffffffffff811115612796576127956139ad565b5b6127a288828901612597565b935050606086013567ffffffffffffffff8111156127c3576127c26139ad565b5b6127cf88828901612597565b925050608086013567ffffffffffffffff8111156127f0576127ef6139ad565b5b6127fc88828901612604565b9150509295509295909350565b600080600080600060a08688031215612825576128246139b2565b5b600061283388828901612511565b955050602061284488828901612511565b9450506040612855888289016126a3565b9350506060612866888289016126a3565b925050608086013567ffffffffffffffff811115612887576128866139ad565b5b61289388828901612604565b9150509295509295909350565b600080604083850312156128b7576128b66139b2565b5b60006128c585828601612511565b92505060206128d6858286016125c5565b9150509250929050565b600080604083850312156128f7576128f66139b2565b5b600061290585828601612511565b9250506020612916858286016126a3565b9150509250929050565b60008060408385031215612937576129366139b2565b5b600083013567ffffffffffffffff811115612955576129546139ad565b5b6129618582860161253b565b925050602083013567ffffffffffffffff811115612982576129816139ad565b5b61298e85828601612597565b9150509250929050565b6000602082840312156129ae576129ad6139b2565b5b60006129bc848285016125da565b91505092915050565b6000602082840312156129db576129da6139b2565b5b60006129e9848285016125ef565b91505092915050565b600060208284031215612a0857612a076139b2565b5b600082013567ffffffffffffffff811115612a2657612a256139ad565b5b612a3284828501612632565b91505092915050565b60008060008060008060c08789031215612a5857612a576139b2565b5b600087015167ffffffffffffffff811115612a7657612a756139ad565b5b612a8289828a01612660565b965050602087015167ffffffffffffffff811115612aa357612aa26139ad565b5b612aaf89828a01612660565b955050604087015167ffffffffffffffff811115612ad057612acf6139ad565b5b612adc89828a01612660565b9450506060612aed89828a0161268e565b9350506080612afe89828a016126b8565b92505060a0612b0f89828a016126b8565b9150509295509295509295565b60008060008060808587031215612b3657612b356139b2565b5b600085013567ffffffffffffffff811115612b5457612b536139ad565b5b612b6087828801612632565b945050602085013567ffffffffffffffff811115612b8157612b806139ad565b5b612b8d87828801612632565b935050604085013567ffffffffffffffff811115612bae57612bad6139ad565b5b612bba87828801612632565b9250506060612bcb878288016126a3565b91505092959194509250565b600080600080600060a08688031215612bf357612bf26139b2565b5b600086013567ffffffffffffffff811115612c1157612c106139ad565b5b612c1d88828901612632565b9550506020612c2e888289016126a3565b945050604086013567ffffffffffffffff811115612c4f57612c4e6139ad565b5b612c5b88828901612569565b9350506060612c6c888289016126a3565b9250506080612c7d888289016126a3565b9150509295509295909350565b600060208284031215612ca057612c9f6139b2565b5b6000612cae848285016126a3565b91505092915050565b6000612cc3838361304b565b60208301905092915050565b612cd8816136f6565b82525050565b6000612ce982613634565b612cf38185613662565b9350612cfe83613624565b8060005b83811015612d2f578151612d168882612cb7565b9750612d2183613655565b925050600181019050612d02565b5085935050505092915050565b612d4581613708565b82525050565b6000612d568261363f565b612d608185613673565b9350612d708185602086016137e1565b612d79816139b7565b840191505092915050565b612d8d81613778565b82525050565b612d9c8161378a565b82525050565b612dab8161379c565b82525050565b6000612dbc8261364a565b612dc68185613684565b9350612dd68185602086016137e1565b612ddf816139b7565b840191505092915050565b6000612df58261364a565b612dff8185613695565b9350612e0f8185602086016137e1565b80840191505092915050565b6000612e28603483613684565b9150612e33826139d5565b604082019050919050565b6000612e4b602f83613684565b9150612e5682613a24565b604082019050919050565b6000612e6e602883613684565b9150612e7982613a73565b604082019050919050565b6000612e91601f83613684565b9150612e9c82613ac2565b602082019050919050565b6000612eb4602a83613684565b9150612ebf82613aeb565b604082019050919050565b6000612ed7602883613684565b9150612ee282613b3a565b604082019050919050565b6000612efa602583613684565b9150612f0582613b89565b604082019050919050565b6000612f1d602a83613684565b9150612f2882613bd8565b604082019050919050565b6000612f40601f83613684565b9150612f4b82613c27565b602082019050919050565b6000612f63602a83613684565b9150612f6e82613c50565b604082019050919050565b6000612f86603583613684565b9150612f9182613c9f565b604082019050919050565b6000612fa9602983613684565b9150612fb482613cee565b604082019050919050565b6000612fcc602983613684565b9150612fd782613d3d565b604082019050919050565b6000612fef602883613684565b9150612ffa82613d8c565b604082019050919050565b6000613012602383613684565b915061301d82613ddb565b604082019050919050565b6000613035602183613684565b915061304082613e2a565b604082019050919050565b6130548161376e565b82525050565b6130638161376e565b82525050565b60006130758284612dea565b915081905092915050565b60006020820190506130956000830184612ccf565b92915050565b600060a0820190506130b06000830188612ccf565b6130bd6020830187612ccf565b81810360408301526130cf8186612cde565b905081810360608301526130e38185612cde565b905081810360808301526130f78184612d4b565b90509695505050505050565b600060a0820190506131186000830188612ccf565b6131256020830187612ccf565b613132604083018661305a565b61313f606083018561305a565b81810360808301526131518184612d4b565b90509695505050505050565b600060208201905081810360008301526131778184612cde565b905092915050565b600060408201905081810360008301526131998185612cde565b905081810360208301526131ad8184612cde565b90509392505050565b60006020820190506131cb6000830184612d3c565b92915050565b60006020820190506131e66000830184612d84565b92915050565b60006020820190506132016000830184612d93565b92915050565b600060208201905061321c6000830184612da2565b92915050565b6000602082019050818103600083015261323c8184612db1565b905092915050565b6000608082019050818103600083015261325e8187612db1565b905061326d602083018661305a565b61327a6040830185612ccf565b6132876060830184612d3c565b95945050505050565b600060208201905081810360008301526132a981612e1b565b9050919050565b600060208201905081810360008301526132c981612e3e565b9050919050565b600060208201905081810360008301526132e981612e61565b9050919050565b6000602082019050818103600083015261330981612e84565b9050919050565b6000602082019050818103600083015261332981612ea7565b9050919050565b6000602082019050818103600083015261334981612eca565b9050919050565b6000602082019050818103600083015261336981612eed565b9050919050565b6000602082019050818103600083015261338981612f10565b9050919050565b600060208201905081810360008301526133a981612f33565b9050919050565b600060208201905081810360008301526133c981612f56565b9050919050565b600060208201905081810360008301526133e981612f79565b9050919050565b6000602082019050818103600083015261340981612f9c565b9050919050565b6000602082019050818103600083015261342981612fbf565b9050919050565b6000602082019050818103600083015261344981612fe2565b9050919050565b6000602082019050818103600083015261346981613005565b9050919050565b6000602082019050818103600083015261348981613028565b9050919050565b60006020820190506134a5600083018461305a565b92915050565b60006040820190506134c0600083018561305a565b6134cd602083018461305a565b9392505050565b60006080820190506134e9600083018761305a565b6134f6602083018661305a565b613503604083018561305a565b613510606083018461305a565b95945050505050565b6000613523613534565b905061352f8282613846565b919050565b6000604051905090565b600067ffffffffffffffff8211156135595761355861394d565b5b602082029050602081019050919050565b600067ffffffffffffffff8211156135855761358461394d565b5b602082029050602081019050919050565b600067ffffffffffffffff8211156135b1576135b061394d565b5b602082029050602081019050919050565b600067ffffffffffffffff8211156135dd576135dc61394d565b5b6135e6826139b7565b9050602081019050919050565b600067ffffffffffffffff82111561360e5761360d61394d565b5b613617826139b7565b9050602081019050919050565b6000819050602082019050919050565b600081519050919050565b600081519050919050565b600081519050919050565b6000602082019050919050565b600082825260208201905092915050565b600082825260208201905092915050565b600082825260208201905092915050565b600081905092915050565b60006136ab8261376e565b91506136b68361376e565b9250827fffffffffffffffffffffffffffffffffffffffffffffffffffffffffffffffff038211156136eb576136ea6138c0565b5b828201905092915050565b60006137018261374e565b9050919050565b60008115159050919050565b60007fffffffff0000000000000000000000000000000000000000000000000000000082169050919050565b600061ffff82169050919050565b600073ffffffffffffffffffffffffffffffffffffffff82169050919050565b6000819050919050565b6000613783826137ae565b9050919050565b6000613795826137ae565b9050919050565b60006137a7826137ae565b9050919050565b60006137b9826137c0565b9050919050565b60006137cb8261374e565b9050919050565b82818337600083830152505050565b60005b838110156137ff5780820151818401526020810190506137e4565b8381111561380e576000848401525b50505050565b6000600282049050600182168061382c57607f821691505b602082108114156138405761383f6138ef565b5b50919050565b61384f826139b7565b810181811067ffffffffffffffff8211171561386e5761386d61394d565b5b80604052505050565b60006138828261376e565b91507fffffffffffffffffffffffffffffffffffffffffffffffffffffffffffffffff8214156138b5576138b46138c0565b5b600182019050919050565b7f4e487b7100000000000000000000000000000000000000000000000000000000600052601160045260246000fd5b7f4e487b7100000000000000000000000000000000000000000000000000000000600052602260045260246000fd5b7f4e487b7100000000000000000000000000000000000000000000000000000000600052603260045260246000fd5b7f4e487b7100000000000000000000000000000000000000000000000000000000600052604160045260246000fd5b600060033d111561399b5760046000803e6139986000516139c8565b90505b90565b600080fd5b600080fd5b600080fd5b600080fd5b600080fd5b6000601f19601f8301169050919050565b60008160e01c9050919050565b7f455243313135353a207472616e7366657220746f206e6f6e204552433131353560008201527f526563656976657220696d706c656d656e746572000000000000000000000000602082015250565b7f455243313135353a2063616c6c6572206973206e6f7420746f6b656e206f776e60008201527f6572206e6f7220617070726f7665640000000000000000000000000000000000602082015250565b7f455243313135353a204552433131353552656365697665722072656a6563746560008201527f6420746f6b656e73000000000000000000000000000000000000000000000000602082015250565b7f436172626f6e20546f6b656e20494420646f6573206e6f742065786973742e00600082015250565b7f455243313135353a2061646472657373207a65726f206973206e6f742061207660008201527f616c6964206f776e657200000000000000000000000000000000000000000000602082015250565b7f4f6e6c792061646d696e2063616e206469737472696275746520436172626f6e60008201527f20546f6b656e732e000000000000000000000000000000000000000000000000602082015250565b7f455243313135353a207472616e7366657220746f20746865207a65726f20616460008201527f6472657373000000000000000000000000000000000000000000000000000000602082015250565b7f455243313135353a20696e73756666696369656e742062616c616e636520666f60008201527f72207472616e7366657200000000000000000000000000000000000000000000602082015250565b7f446973747269627574696f6e20494420646f6573206e6f742065786973742e00600082015250565b7f4f6e6c792061646d696e2063616e2075706461746520436172626f6e20546f6b60008201527f656e207374617475732e00000000000000000000000000000000000000000000602082015250565b7f546865207370656369666965642066656564207265636f7264206973206e6f7460008201527f20696e2074686520636c61696d20706572696f642e0000000000000000000000602082015250565b7f455243313135353a2073657474696e6720617070726f76616c2073746174757360008201527f20666f722073656c660000000000000000000000000000000000000000000000602082015250565b7f455243313135353a206163636f756e747320616e6420696473206c656e67746860008201527f206d69736d617463680000000000000000000000000000000000000000000000602082015250565b7f455243313135353a2069647320616e6420616d6f756e7473206c656e6774682060008201527f6d69736d61746368000000000000000000000000000000000000000000000000602082015250565b7f4f6e6c792061646d696e2063616e20697373756520436172626f6e20546f6b6560008201527f6e732e0000000000000000000000000000000000000000000000000000000000602082015250565b7f455243313135353a206d696e7420746f20746865207a65726f2061646472657360008201527f7300000000000000000000000000000000000000000000000000000000000000602082015250565b600060443d1015613e8957613f0c565b613e91613534565b60043d036004823e80513d602482011167ffffffffffffffff82111715613eb9575050613f0c565b808201805167ffffffffffffffff811115613ed75750505050613f0c565b80602083010160043d038501811115613ef4575050505050613f0c565b613f0382602001850186613846565b82955050505050505b90565b613f18816136f6565b8114613f2357600080fd5b50565b613f2f81613708565b8114613f3a57600080fd5b50565b613f4681613714565b8114613f5157600080fd5b50565b613f5d81613740565b8114613f6857600080fd5b50565b613f748161376e565b8114613f7f57600080fd5b5056fea2646970667358221220006edac2d21617be580f0f4aaa491c271f85d573dc7e48bf98dc268f3a72018564736f6c63430008070033",
  "immutableReferences": {},
  "source": "// SPDX-License-Identifier: MIT\npragma solidity ^0.8.0;\n\nimport \"../../node_modules/@openzeppelin/contracts/token/ERC1155/ERC1155.sol\";\nimport \"./FarmRegistry.sol\";\nimport \"./FeedTracking.sol\";\nimport \"./EmissionTracking.sol\";\n\ncontract CarbonToken is ERC1155 {\n    address public admin;\n    FarmRegistry public farmregistry;\n    FeedTracking public feedtracking;\n    EmissionTracking public emissiontracking;\n\n    // CBT's internal ids\n    // VERRA-0, ACCU-1, GOLDSTANDARD-2\n\n    struct CBToken {\n        uint256 InternalID; // the id used to mint a 1155 token\n        uint256 Amount;\n        uint256 StartDate;\n        uint256 EndDate;\n        // string[] FeedIDs; // the Carbon Token has to be linked to feed records\n    }\n\n    struct Distribution {\n        string CBTokenID;\n        uint256 Amount;\n        address Farmer;\n        bool Paid;\n    }\n\n    mapping(string => CBToken) cbtokens;\n    mapping(string => bool) cbtokenExists;\n    mapping(string => Distribution) distributions;\n    mapping(string => bool) distributionExists;\n\n    constructor(string memory _uri, FarmRegistry _farmregistry, FeedTracking _feedtracking, EmissionTracking _emissiontracking)\n        ERC1155(_uri)\n    {\n        admin = msg.sender;\n        farmregistry = _farmregistry;\n        feedtracking = _feedtracking;\n        emissiontracking = _emissiontracking;\n    }\n\n    // Todo: add a condition for issue, e.g., only if emissions are verified carbon tokens can be issued.\n    function issue(string memory _cbtokenid, uint256 _amount, string[] memory _feedids, uint256 _startdate, uint256 _enddate) public {\n        require(msg.sender == admin, \"Only admin can issue Carbon Tokens.\");\n        _mint(admin,0,_amount,\"\");\n\n        for(uint256 i=0; i<_feedids.length; i++){\n            (string memory ingredient, string memory claimstatus, string memory animalid, uint16 dmi, uint256 datetime, uint256 blocktime)=feedtracking.queryFeed(_feedids[i]);\n            require((datetime>=_startdate && datetime<=_enddate ), \"The specified feed record is not in the claim period.\");\n            \n            feedtracking.updateFeed(_feedids[i]);\n        }\n\n        cbtokens[_cbtokenid] = CBToken(0,_amount,_startdate,_enddate);\n        cbtokenExists[_cbtokenid] = true;\n    }\n\n    function distribute(string memory _cbtokenid, string memory _distributionid, string memory _farmid, uint256 _amount) public {\n        require(msg.sender == admin, \"Only admin can distribute Carbon Tokens.\");\n        require(cbtokenExists[_cbtokenid], \"Carbon Token ID does not exist.\");\n        safeTransferFrom(admin,farmregistry.farms(_farmid),cbtokens[_cbtokenid].InternalID,_amount, \"\");\n        distributions[_distributionid] = Distribution(_cbtokenid,_amount,farmregistry.farms(_farmid),false);\n    }\n\n    function update(string memory _distributionid) public {\n        require(msg.sender == admin, \"Only admin can update Carbon Token status.\");\n        require(distributionExists[_distributionid], \"Distribution ID does not exist.\");\n        distributions[_distributionid].Paid = true;\n    }\n\n    function queryCarbonToken(string memory _cbtokenid) public view returns(uint256,uint256,uint256,uint256)\n    {\n        require(cbtokenExists[_cbtokenid], \"Carbon Token ID does not exist.\");\n        return(\n            cbtokens[_cbtokenid].InternalID,\n            cbtokens[_cbtokenid].Amount,\n            cbtokens[_cbtokenid].StartDate,\n            cbtokens[_cbtokenid].EndDate\n        );\n    }\n\n    function queryDistribution(string memory _distributionid) public view returns(string memory,uint256,address,bool)\n    {\n        require(distributionExists[_distributionid], \"Distribution ID does not exist.\");\n        return(\n            distributions[_distributionid].CBTokenID,\n            distributions[_distributionid].Amount,\n            distributions[_distributionid].Farmer,\n            distributions[_distributionid].Paid\n        );\n    }\n}",
  "sourcePath": "/home/yih/Documents/dev/beston-dapps/contracts/carbon/CarbonToken.sol",
  "compiler": {
    "name": "solc",
    "version": "0.8.7+commit.e28d00a7.Emscripten.clang"
  },
  "schemaVersion": "3.4.1",
  "updatedAt": "2023-02-19T23:43:14.862Z",
  "networkType": "ethereum",
  "devdoc": {
    "kind": "dev",
    "methods": {
      "balanceOf(address,uint256)": {
        "details": "See {IERC1155-balanceOf}. Requirements: - `account` cannot be the zero address."
      },
      "balanceOfBatch(address[],uint256[])": {
        "details": "See {IERC1155-balanceOfBatch}. Requirements: - `accounts` and `ids` must have the same length."
      },
      "isApprovedForAll(address,address)": {
        "details": "See {IERC1155-isApprovedForAll}."
      },
      "safeBatchTransferFrom(address,address,uint256[],uint256[],bytes)": {
        "details": "See {IERC1155-safeBatchTransferFrom}."
      },
      "safeTransferFrom(address,address,uint256,uint256,bytes)": {
        "details": "See {IERC1155-safeTransferFrom}."
      },
      "setApprovalForAll(address,bool)": {
        "details": "See {IERC1155-setApprovalForAll}."
      },
      "supportsInterface(bytes4)": {
        "details": "See {IERC165-supportsInterface}."
      },
      "uri(uint256)": {
        "details": "See {IERC1155MetadataURI-uri}. This implementation returns the same URI for *all* token types. It relies on the token type ID substitution mechanism https://eips.ethereum.org/EIPS/eip-1155#metadata[defined in the EIP]. Clients calling this function must replace the `\\{id\\}` substring with the actual token type ID."
      }
    },
    "version": 1
  },
  "userdoc": {
    "kind": "user",
    "methods": {},
    "version": 1
  }
}