{
  "contractName": "CarbonToken",
  "abi": [
    {
      "inputs": [
        {
          "internalType": "string",
          "name": "_uri",
          "type": "string"
        },
        {
          "internalType": "contract FarmRegistry",
          "name": "_farmregistry",
          "type": "address"
        },
        {
          "internalType": "contract ProjectRegistry",
          "name": "_projectregistry",
          "type": "address"
        },
        {
          "internalType": "contract FeedTracking",
          "name": "_feedtracking",
          "type": "address"
        },
        {
          "internalType": "contract EmissionTracking",
          "name": "_emissiontracking",
          "type": "address"
        }
      ],
      "stateMutability": "nonpayable",
      "type": "constructor"
    },
    {
      "anonymous": false,
      "inputs": [
        {
          "indexed": true,
          "internalType": "address",
          "name": "account",
          "type": "address"
        },
        {
          "indexed": true,
          "internalType": "address",
          "name": "operator",
          "type": "address"
        },
        {
          "indexed": false,
          "internalType": "bool",
          "name": "approved",
          "type": "bool"
        }
      ],
      "name": "ApprovalForAll",
      "type": "event"
    },
    {
      "anonymous": false,
      "inputs": [
        {
          "indexed": true,
          "internalType": "address",
          "name": "operator",
          "type": "address"
        },
        {
          "indexed": true,
          "internalType": "address",
          "name": "from",
          "type": "address"
        },
        {
          "indexed": true,
          "internalType": "address",
          "name": "to",
          "type": "address"
        },
        {
          "indexed": false,
          "internalType": "uint256[]",
          "name": "ids",
          "type": "uint256[]"
        },
        {
          "indexed": false,
          "internalType": "uint256[]",
          "name": "values",
          "type": "uint256[]"
        }
      ],
      "name": "TransferBatch",
      "type": "event"
    },
    {
      "anonymous": false,
      "inputs": [
        {
          "indexed": true,
          "internalType": "address",
          "name": "operator",
          "type": "address"
        },
        {
          "indexed": true,
          "internalType": "address",
          "name": "from",
          "type": "address"
        },
        {
          "indexed": true,
          "internalType": "address",
          "name": "to",
          "type": "address"
        },
        {
          "indexed": false,
          "internalType": "uint256",
          "name": "id",
          "type": "uint256"
        },
        {
          "indexed": false,
          "internalType": "uint256",
          "name": "value",
          "type": "uint256"
        }
      ],
      "name": "TransferSingle",
      "type": "event"
    },
    {
      "anonymous": false,
      "inputs": [
        {
          "indexed": false,
          "internalType": "string",
          "name": "value",
          "type": "string"
        },
        {
          "indexed": true,
          "internalType": "uint256",
          "name": "id",
          "type": "uint256"
        }
      ],
      "name": "URI",
      "type": "event"
    },
    {
      "inputs": [],
      "name": "admin",
      "outputs": [
        {
          "internalType": "address",
          "name": "",
          "type": "address"
        }
      ],
      "stateMutability": "view",
      "type": "function"
    },
    {
      "inputs": [
        {
          "internalType": "uint256",
          "name": "",
          "type": "uint256"
        }
      ],
      "name": "allcbtokens",
      "outputs": [
        {
          "internalType": "string",
          "name": "",
          "type": "string"
        }
      ],
      "stateMutability": "view",
      "type": "function"
    },
    {
      "inputs": [
        {
          "internalType": "uint256",
          "name": "",
          "type": "uint256"
        }
      ],
      "name": "alldistributions",
      "outputs": [
        {
          "internalType": "string",
          "name": "",
          "type": "string"
        }
      ],
      "stateMutability": "view",
      "type": "function"
    },
    {
      "inputs": [
        {
          "internalType": "address",
          "name": "account",
          "type": "address"
        },
        {
          "internalType": "uint256",
          "name": "id",
          "type": "uint256"
        }
      ],
      "name": "balanceOf",
      "outputs": [
        {
          "internalType": "uint256",
          "name": "",
          "type": "uint256"
        }
      ],
      "stateMutability": "view",
      "type": "function"
    },
    {
      "inputs": [
        {
          "internalType": "address[]",
          "name": "accounts",
          "type": "address[]"
        },
        {
          "internalType": "uint256[]",
          "name": "ids",
          "type": "uint256[]"
        }
      ],
      "name": "balanceOfBatch",
      "outputs": [
        {
          "internalType": "uint256[]",
          "name": "",
          "type": "uint256[]"
        }
      ],
      "stateMutability": "view",
      "type": "function"
    },
    {
      "inputs": [
        {
          "internalType": "string",
          "name": "",
          "type": "string"
        }
      ],
      "name": "cbtokenExists",
      "outputs": [
        {
          "internalType": "bool",
          "name": "",
          "type": "bool"
        }
      ],
      "stateMutability": "view",
      "type": "function"
    },
    {
      "inputs": [
        {
          "internalType": "string",
          "name": "",
          "type": "string"
        }
      ],
      "name": "cbtokens",
      "outputs": [
        {
          "internalType": "string",
          "name": "ProjectID",
          "type": "string"
        },
        {
          "internalType": "uint256",
          "name": "InternalID",
          "type": "uint256"
        },
        {
          "internalType": "uint256",
          "name": "Amount",
          "type": "uint256"
        }
      ],
      "stateMutability": "view",
      "type": "function"
    },
    {
      "inputs": [
        {
          "internalType": "string",
          "name": "",
          "type": "string"
        }
      ],
      "name": "distributionExists",
      "outputs": [
        {
          "internalType": "bool",
          "name": "",
          "type": "bool"
        }
      ],
      "stateMutability": "view",
      "type": "function"
    },
    {
      "inputs": [
        {
          "internalType": "string",
          "name": "",
          "type": "string"
        }
      ],
      "name": "distributions",
      "outputs": [
        {
          "internalType": "string",
          "name": "CBTokenID",
          "type": "string"
        },
        {
          "internalType": "uint256",
          "name": "Amount",
          "type": "uint256"
        },
        {
          "internalType": "address",
          "name": "Farmer",
          "type": "address"
        },
        {
          "internalType": "bool",
          "name": "Paid",
          "type": "bool"
        }
      ],
      "stateMutability": "view",
      "type": "function"
    },
    {
      "inputs": [],
      "name": "emissiontracking",
      "outputs": [
        {
          "internalType": "contract EmissionTracking",
          "name": "",
          "type": "address"
        }
      ],
      "stateMutability": "view",
      "type": "function"
    },
    {
      "inputs": [],
      "name": "farmregistry",
      "outputs": [
        {
          "internalType": "contract FarmRegistry",
          "name": "",
          "type": "address"
        }
      ],
      "stateMutability": "view",
      "type": "function"
    },
    {
      "inputs": [],
      "name": "feedtracking",
      "outputs": [
        {
          "internalType": "contract FeedTracking",
          "name": "",
          "type": "address"
        }
      ],
      "stateMutability": "view",
      "type": "function"
    },
    {
      "inputs": [
        {
          "internalType": "address",
          "name": "account",
          "type": "address"
        },
        {
          "internalType": "address",
          "name": "operator",
          "type": "address"
        }
      ],
      "name": "isApprovedForAll",
      "outputs": [
        {
          "internalType": "bool",
          "name": "",
          "type": "bool"
        }
      ],
      "stateMutability": "view",
      "type": "function"
    },
    {
      "inputs": [],
      "name": "projectregistry",
      "outputs": [
        {
          "internalType": "contract ProjectRegistry",
          "name": "",
          "type": "address"
        }
      ],
      "stateMutability": "view",
      "type": "function"
    },
    {
      "inputs": [
        {
          "internalType": "address",
          "name": "from",
          "type": "address"
        },
        {
          "internalType": "address",
          "name": "to",
          "type": "address"
        },
        {
          "internalType": "uint256[]",
          "name": "ids",
          "type": "uint256[]"
        },
        {
          "internalType": "uint256[]",
          "name": "amounts",
          "type": "uint256[]"
        },
        {
          "internalType": "bytes",
          "name": "data",
          "type": "bytes"
        }
      ],
      "name": "safeBatchTransferFrom",
      "outputs": [],
      "stateMutability": "nonpayable",
      "type": "function"
    },
    {
      "inputs": [
        {
          "internalType": "address",
          "name": "from",
          "type": "address"
        },
        {
          "internalType": "address",
          "name": "to",
          "type": "address"
        },
        {
          "internalType": "uint256",
          "name": "id",
          "type": "uint256"
        },
        {
          "internalType": "uint256",
          "name": "amount",
          "type": "uint256"
        },
        {
          "internalType": "bytes",
          "name": "data",
          "type": "bytes"
        }
      ],
      "name": "safeTransferFrom",
      "outputs": [],
      "stateMutability": "nonpayable",
      "type": "function"
    },
    {
      "inputs": [
        {
          "internalType": "address",
          "name": "operator",
          "type": "address"
        },
        {
          "internalType": "bool",
          "name": "approved",
          "type": "bool"
        }
      ],
      "name": "setApprovalForAll",
      "outputs": [],
      "stateMutability": "nonpayable",
      "type": "function"
    },
    {
      "inputs": [
        {
          "internalType": "bytes4",
          "name": "interfaceId",
          "type": "bytes4"
        }
      ],
      "name": "supportsInterface",
      "outputs": [
        {
          "internalType": "bool",
          "name": "",
          "type": "bool"
        }
      ],
      "stateMutability": "view",
      "type": "function"
    },
    {
      "inputs": [
        {
          "internalType": "uint256",
          "name": "",
          "type": "uint256"
        }
      ],
      "name": "uri",
      "outputs": [
        {
          "internalType": "string",
          "name": "",
          "type": "string"
        }
      ],
      "stateMutability": "view",
      "type": "function"
    },
    {
      "inputs": [
        {
          "internalType": "string",
          "name": "_cbtokenid",
          "type": "string"
        },
        {
          "internalType": "uint256",
          "name": "_amount",
          "type": "uint256"
        },
        {
          "internalType": "string[]",
          "name": "_feedids",
          "type": "string[]"
        },
        {
          "internalType": "string",
          "name": "_projectid",
          "type": "string"
        }
      ],
      "name": "issue",
      "outputs": [],
      "stateMutability": "nonpayable",
      "type": "function"
    },
    {
      "inputs": [
        {
          "internalType": "string",
          "name": "_cbtokenid",
          "type": "string"
        },
        {
          "internalType": "string",
          "name": "_distributionid",
          "type": "string"
        },
        {
          "internalType": "string",
          "name": "_farmid",
          "type": "string"
        },
        {
          "internalType": "uint256",
          "name": "_amount",
          "type": "uint256"
        }
      ],
      "name": "distribute",
      "outputs": [],
      "stateMutability": "nonpayable",
      "type": "function"
    },
    {
      "inputs": [
        {
          "internalType": "string",
          "name": "_distributionid",
          "type": "string"
        }
      ],
      "name": "update",
      "outputs": [],
      "stateMutability": "nonpayable",
      "type": "function"
    },
    {
      "inputs": [
        {
          "internalType": "string",
          "name": "_cbtokenid",
          "type": "string"
        }
      ],
      "name": "queryCarbonToken",
      "outputs": [
        {
          "internalType": "string",
          "name": "",
          "type": "string"
        },
        {
          "internalType": "uint256",
          "name": "",
          "type": "uint256"
        },
        {
          "internalType": "uint256",
          "name": "",
          "type": "uint256"
        }
      ],
      "stateMutability": "view",
      "type": "function"
    },
    {
      "inputs": [],
      "name": "queryAllCarbonToken",
      "outputs": [
        {
          "internalType": "string[]",
          "name": "",
          "type": "string[]"
        },
        {
          "internalType": "string[]",
          "name": "",
          "type": "string[]"
        },
        {
          "internalType": "uint256[]",
          "name": "",
          "type": "uint256[]"
        },
        {
          "internalType": "uint256[]",
          "name": "",
          "type": "uint256[]"
        }
      ],
      "stateMutability": "view",
      "type": "function"
    },
    {
      "inputs": [
        {
          "internalType": "string",
          "name": "_distributionid",
          "type": "string"
        }
      ],
      "name": "queryDistribution",
      "outputs": [
        {
          "internalType": "string",
          "name": "",
          "type": "string"
        },
        {
          "internalType": "uint256",
          "name": "",
          "type": "uint256"
        },
        {
          "internalType": "address",
          "name": "",
          "type": "address"
        },
        {
          "internalType": "bool",
          "name": "",
          "type": "bool"
        }
      ],
      "stateMutability": "view",
      "type": "function"
    },
    {
      "inputs": [],
      "name": "queryAllDistribution",
      "outputs": [
        {
          "internalType": "string[]",
          "name": "",
          "type": "string[]"
        },
        {
          "internalType": "string[]",
          "name": "",
          "type": "string[]"
        },
        {
          "internalType": "uint256[]",
          "name": "",
          "type": "uint256[]"
        },
        {
          "internalType": "address[]",
          "name": "",
          "type": "address[]"
        },
        {
          "internalType": "bool[]",
          "name": "",
          "type": "bool[]"
        }
      ],
      "stateMutability": "view",
      "type": "function"
    }
  ],
  "bytecode": "0x60806040523480156200001157600080fd5b5060405162005e5438038062005e54833981810160405281019062000037919062000340565b8462000049816200019a60201b60201c565b5033600360006101000a81548173ffffffffffffffffffffffffffffffffffffffff021916908373ffffffffffffffffffffffffffffffffffffffff16021790555083600460006101000a81548173ffffffffffffffffffffffffffffffffffffffff021916908373ffffffffffffffffffffffffffffffffffffffff16021790555082600560006101000a81548173ffffffffffffffffffffffffffffffffffffffff021916908373ffffffffffffffffffffffffffffffffffffffff16021790555081600660006101000a81548173ffffffffffffffffffffffffffffffffffffffff021916908373ffffffffffffffffffffffffffffffffffffffff16021790555080600760006101000a81548173ffffffffffffffffffffffffffffffffffffffff021916908373ffffffffffffffffffffffffffffffffffffffff160217905550505050505062000657565b8060029080519060200190620001b2929190620001b6565b5050565b828054620001c49062000500565b90600052602060002090601f016020900481019282620001e8576000855562000234565b82601f106200020357805160ff191683800117855562000234565b8280016001018555821562000234579182015b828111156200023357825182559160200191906001019062000216565b5b50905062000243919062000247565b5090565b5b808211156200026257600081600090555060010162000248565b5090565b60006200027d620002778462000410565b620003e7565b9050828152602081018484840111156200029c576200029b620005cf565b5b620002a9848285620004ca565b509392505050565b600081519050620002c281620005ef565b92915050565b600081519050620002d98162000609565b92915050565b600081519050620002f08162000623565b92915050565b60008151905062000307816200063d565b92915050565b600082601f830112620003255762000324620005ca565b5b81516200033784826020860162000266565b91505092915050565b600080600080600060a086880312156200035f576200035e620005d9565b5b600086015167ffffffffffffffff81111562000380576200037f620005d4565b5b6200038e888289016200030d565b9550506020620003a188828901620002c8565b9450506040620003b488828901620002f6565b9350506060620003c788828901620002df565b9250506080620003da88828901620002b1565b9150509295509295909350565b6000620003f362000406565b905062000401828262000536565b919050565b6000604051905090565b600067ffffffffffffffff8211156200042e576200042d6200059b565b5b6200043982620005de565b9050602081019050919050565b60006200045382620004aa565b9050919050565b6000620004678262000446565b9050919050565b60006200047b8262000446565b9050919050565b60006200048f8262000446565b9050919050565b6000620004a38262000446565b9050919050565b600073ffffffffffffffffffffffffffffffffffffffff82169050919050565b60005b83811015620004ea578082015181840152602081019050620004cd565b83811115620004fa576000848401525b50505050565b600060028204905060018216806200051957607f821691505b6020821081141562000530576200052f6200056c565b5b50919050565b6200054182620005de565b810181811067ffffffffffffffff821117156200056357620005626200059b565b5b80604052505050565b7f4e487b7100000000000000000000000000000000000000000000000000000000600052602260045260246000fd5b7f4e487b7100000000000000000000000000000000000000000000000000000000600052604160045260246000fd5b600080fd5b600080fd5b600080fd5b600080fd5b6000601f19601f8301169050919050565b620005fa816200045a565b81146200060657600080fd5b50565b62000614816200046e565b81146200062057600080fd5b50565b6200062e8162000482565b81146200063a57600080fd5b50565b620006488162000496565b81146200065457600080fd5b50565b6157ed80620006676000396000f3fe608060405234801561001057600080fd5b506004361061018d5760003560e01c806350325724116100de578063ace1a68e11610097578063e985e9c511610071578063e985e9c5146104f1578063f242432a14610521578063f851a4401461053d578063ffa651441461055b5761018d565b8063ace1a68e14610470578063d4149bc3146104a3578063d4b78655146104c15761018d565b8063503257241461039c5780636af9d52c146103ce5780637ac59313146103ea578063900616281461040657806397fc6e9f14610424578063a22cb465146104545761018d565b80631980e14c1161014b5780633d7403a3116101255780633d7403a31461030257806347fe14551461031e5780634def8f8b1461034e5780634e1273f41461036c5761018d565b80631980e14c146102a35780632eb2c2d6146102c4578063354e5c1f146102e05761018d565b8062fdd58e1461019257806301ffc9a7146101c25780630a3909bb146101f25780630e89341c146102225780630f65d02f14610252578063110eed2e14610285575b600080fd5b6101ac60048036038101906101a79190613b16565b61058d565b6040516101b99190614bd5565b60405180910390f35b6101dc60048036038101906101d79190613bfb565b610656565b6040516101e99190614862565b60405180910390f35b61020c60048036038101906102079190613f11565b610738565b60405161021991906148e9565b60405180910390f35b61023c60048036038101906102379190613f11565b6107e4565b60405161024991906148e9565b60405180910390f35b61026c60048036038101906102679190613c55565b610878565b60405161027c949392919061490b565b60405180910390f35b61028d610a39565b60405161029a9190614898565b60405180910390f35b6102ab610a5f565b6040516102bb94939291906147a8565b60405180910390f35b6102de60048036038101906102d99190613970565b610e0e565b005b6102e8610eaf565b6040516102f9959493929190614732565b60405180910390f35b61031c60048036038101906103179190613c55565b611376565b005b61033860048036038101906103339190613c55565b6114ae565b6040516103459190614862565b60405180910390f35b6103566114e4565b604051610363919061487d565b60405180910390f35b61038660048036038101906103819190613b56565b61150a565b6040516103939190614809565b60405180910390f35b6103b660048036038101906103b19190613c55565b611623565b6040516103c593929190614957565b60405180910390f35b6103e860048036038101906103e39190613e56565b611791565b005b61040460048036038101906103ff9190613d9b565b611d64565b005b61040e612174565b60405161041b91906148b3565b60405180910390f35b61043e60048036038101906104399190613c55565b61219a565b60405161044b9190614862565b60405180910390f35b61046e60048036038101906104699190613ad6565b6121d0565b005b61048a60048036038101906104859190613c55565b6121e6565b60405161049a949392919061490b565b60405180910390f35b6104ab6122e1565b6040516104b891906148ce565b60405180910390f35b6104db60048036038101906104d69190613f11565b612307565b6040516104e891906148e9565b60405180910390f35b61050b60048036038101906105069190613930565b6123b3565b6040516105189190614862565b60405180910390f35b61053b60048036038101906105369190613a3f565b612447565b005b6105456124e8565b6040516105529190614655565b60405180910390f35b61057560048036038101906105709190613c55565b61250e565b60405161058493929190614957565b60405180910390f35b60008073ffffffffffffffffffffffffffffffffffffffff168373ffffffffffffffffffffffffffffffffffffffff1614156105fe576040517f08c379a00000000000000000000000000000000000000000000000000000000081526004016105f590614a35565b60405180910390fd5b60008083815260200190815260200160002060008473ffffffffffffffffffffffffffffffffffffffff1673ffffffffffffffffffffffffffffffffffffffff16815260200190815260200160002054905092915050565b60007fd9b67a26000000000000000000000000000000000000000000000000000000007bffffffffffffffffffffffffffffffffffffffffffffffffffffffff1916827bffffffffffffffffffffffffffffffffffffffffffffffffffffffff1916148061072157507f0e89341c000000000000000000000000000000000000000000000000000000007bffffffffffffffffffffffffffffffffffffffffffffffffffffffff1916827bffffffffffffffffffffffffffffffffffffffffffffffffffffffff1916145b806107315750610730826125d6565b5b9050919050565b600d818154811061074857600080fd5b90600052602060002001600091509050805461076390614ff7565b80601f016020809104026020016040519081016040528092919081815260200182805461078f90614ff7565b80156107dc5780601f106107b1576101008083540402835291602001916107dc565b820191906000526020600020905b8154815290600101906020018083116107bf57829003601f168201915b505050505081565b6060600280546107f390614ff7565b80601f016020809104026020016040519081016040528092919081815260200182805461081f90614ff7565b801561086c5780601f106108415761010080835404028352916020019161086c565b820191906000526020600020905b81548152906001019060200180831161084f57829003601f168201915b50505050509050919050565b60606000806000600b8560405161088f9190614627565b908152602001604051809103902060009054906101000a900460ff166108ea576040517f08c379a00000000000000000000000000000000000000000000000000000000081526004016108e190614ab5565b60405180910390fd5b600a856040516108fa9190614627565b9081526020016040518091039020600001600a8660405161091b9190614627565b908152602001604051809103902060010154600a8760405161093d9190614627565b908152602001604051809103902060020160009054906101000a900473ffffffffffffffffffffffffffffffffffffffff16600a8860405161097f9190614627565b908152602001604051809103902060020160149054906101000a900460ff168380546109aa90614ff7565b80601f01602080910402602001604051908101604052809291908181526020018280546109d690614ff7565b8015610a235780601f106109f857610100808354040283529160200191610a23565b820191906000526020600020905b815481529060010190602001808311610a0657829003601f168201915b5050505050935093509350935093509193509193565b600460009054906101000a900473ffffffffffffffffffffffffffffffffffffffff1681565b6060806060806000600c8054905067ffffffffffffffff811115610a8657610a85615130565b5b604051908082528060200260200182016040528015610ab957816020015b6060815260200190600190039081610aa45790505b5090506000600c8054905067ffffffffffffffff811115610add57610adc615130565b5b604051908082528060200260200182016040528015610b0b5781602001602082028036833780820191505090505b5090506000600c8054905067ffffffffffffffff811115610b2f57610b2e615130565b5b604051908082528060200260200182016040528015610b5d5781602001602082028036833780820191505090505b50905060005b600c80549050811015610d24576008600c8281548110610b8657610b85615101565b5b90600052602060002001604051610b9d919061463e565b90815260200160405180910390206000018054610bb990614ff7565b80601f0160208091040260200160405190810160405280929190818152602001828054610be590614ff7565b8015610c325780601f10610c0757610100808354040283529160200191610c32565b820191906000526020600020905b815481529060010190602001808311610c1557829003601f168201915b5050505050848281518110610c4a57610c49615101565b5b60200260200101819052506008600c8281548110610c6b57610c6a615101565b5b90600052602060002001604051610c82919061463e565b908152602001604051809103902060010154838281518110610ca757610ca6615101565b5b6020026020010181815250506008600c8281548110610cc957610cc8615101565b5b90600052602060002001604051610ce0919061463e565b908152602001604051809103902060020154828281518110610d0557610d04615101565b5b6020026020010181815250508080610d1c9061505a565b915050610b63565b50600c83838383805480602002602001604051908101604052809291908181526020016000905b82821015610df7578382906000526020600020018054610d6a90614ff7565b80601f0160208091040260200160405190810160405280929190818152602001828054610d9690614ff7565b8015610de35780601f10610db857610100808354040283529160200191610de3565b820191906000526020600020905b815481529060010190602001808311610dc657829003601f168201915b505050505081526020019060010190610d4b565b505050509350965096509650965050505090919293565b610e16612640565b73ffffffffffffffffffffffffffffffffffffffff168573ffffffffffffffffffffffffffffffffffffffff161480610e5c5750610e5b85610e56612640565b6123b3565b5b610e9b576040517f08c379a0000000000000000000000000000000000000000000000000000000008152600401610e92906149b5565b60405180910390fd5b610ea88585858585612648565b5050505050565b60608060608060606000600d8054905067ffffffffffffffff811115610ed857610ed7615130565b5b604051908082528060200260200182016040528015610f0b57816020015b6060815260200190600190039081610ef65790505b5090506000600d8054905067ffffffffffffffff811115610f2f57610f2e615130565b5b604051908082528060200260200182016040528015610f5d5781602001602082028036833780820191505090505b5090506000600d8054905067ffffffffffffffff811115610f8157610f80615130565b5b604051908082528060200260200182016040528015610faf5781602001602082028036833780820191505090505b5090506000600d8054905067ffffffffffffffff811115610fd357610fd2615130565b5b6040519080825280602002602001820160405280156110015781602001602082028036833780820191505090505b50905060005b600d8054905081101561128757600a600d828154811061102a57611029615101565b5b90600052602060002001604051611041919061463e565b9081526020016040518091039020600001805461105d90614ff7565b80601f016020809104026020016040519081016040528092919081815260200182805461108990614ff7565b80156110d65780601f106110ab576101008083540402835291602001916110d6565b820191906000526020600020905b8154815290600101906020018083116110b957829003601f168201915b50505050508582815181106110ee576110ed615101565b5b6020026020010181905250600a600d828154811061110f5761110e615101565b5b90600052602060002001604051611126919061463e565b90815260200160405180910390206001015484828151811061114b5761114a615101565b5b602002602001018181525050600a600d828154811061116d5761116c615101565b5b90600052602060002001604051611184919061463e565b908152602001604051809103902060020160009054906101000a900473ffffffffffffffffffffffffffffffffffffffff168382815181106111c9576111c8615101565b5b602002602001019073ffffffffffffffffffffffffffffffffffffffff16908173ffffffffffffffffffffffffffffffffffffffff1681525050600a600d828154811061121957611218615101565b5b90600052602060002001604051611230919061463e565b908152602001604051809103902060020160149054906101000a900460ff1682828151811061126257611261615101565b5b602002602001019015159081151581525050808061127f9061505a565b915050611007565b50600d8484848484805480602002602001604051908101604052809291908181526020016000905b8282101561135b5783829060005260206000200180546112ce90614ff7565b80601f01602080910402602001604051908101604052809291908181526020018280546112fa90614ff7565b80156113475780601f1061131c57610100808354040283529160200191611347565b820191906000526020600020905b81548152906001019060200180831161132a57829003601f168201915b5050505050815260200190600101906112af565b50505050945098509850985098509850505050509091929394565b600360009054906101000a900473ffffffffffffffffffffffffffffffffffffffff1673ffffffffffffffffffffffffffffffffffffffff163373ffffffffffffffffffffffffffffffffffffffff1614611406576040517f08c379a00000000000000000000000000000000000000000000000000000000081526004016113fd90614ad5565b60405180910390fd5b600b816040516114169190614627565b908152602001604051809103902060009054906101000a900460ff16611471576040517f08c379a000000000000000000000000000000000000000000000000000000000815260040161146890614ab5565b60405180910390fd5b6001600a826040516114839190614627565b908152602001604051809103902060020160146101000a81548160ff02191690831515021790555050565b600b818051602081018201805184825260208301602085012081835280955050505050506000915054906101000a900460ff1681565b600760009054906101000a900473ffffffffffffffffffffffffffffffffffffffff1681565b60608151835114611550576040517f08c379a000000000000000000000000000000000000000000000000000000000815260040161154790614b35565b60405180910390fd5b6000835167ffffffffffffffff81111561156d5761156c615130565b5b60405190808252806020026020018201604052801561159b5781602001602082028036833780820191505090505b50905060005b8451811015611618576115e88582815181106115c0576115bf615101565b5b60200260200101518583815181106115db576115da615101565b5b602002602001015161058d565b8282815181106115fb576115fa615101565b5b602002602001018181525050806116119061505a565b90506115a1565b508091505092915050565b60606000806009846040516116389190614627565b908152602001604051809103902060009054906101000a900460ff16611693576040517f08c379a000000000000000000000000000000000000000000000000000000000815260040161168a90614a15565b60405180910390fd5b6008846040516116a39190614627565b90815260200160405180910390206000016008856040516116c49190614627565b9081526020016040518091039020600101546008866040516116e69190614627565b90815260200160405180910390206002015482805461170490614ff7565b80601f016020809104026020016040519081016040528092919081815260200182805461173090614ff7565b801561177d5780601f106117525761010080835404028352916020019161177d565b820191906000526020600020905b81548152906001019060200180831161176057829003601f168201915b505050505092509250925092509193909250565b600360009054906101000a900473ffffffffffffffffffffffffffffffffffffffff1673ffffffffffffffffffffffffffffffffffffffff163373ffffffffffffffffffffffffffffffffffffffff1614611821576040517f08c379a000000000000000000000000000000000000000000000000000000000815260040161181890614b75565b60405180910390fd5b600015156009856040516118359190614627565b908152602001604051809103902060009054906101000a900460ff16151514611893576040517f08c379a000000000000000000000000000000000000000000000000000000000815260040161188a906149f5565b60405180910390fd5b600560009054906101000a900473ffffffffffffffffffffffffffffffffffffffff1673ffffffffffffffffffffffffffffffffffffffff1663fcfa958e826040518263ffffffff1660e01b81526004016118ee91906148e9565b60206040518083038186803b15801561190657600080fd5b505afa15801561191a573d6000803e3d6000fd5b505050506040513d601f19601f8201168201806040525081019061193e9190613bce565b61197d576040517f08c379a000000000000000000000000000000000000000000000000000000000815260040161197490614bb5565b60405180910390fd5b6119bb600360009054906101000a900473ffffffffffffffffffffffffffffffffffffffff166000856040518060200160405280600081525061296a565b60005b8251811015611c7c57600080600080600080600660009054906101000a900473ffffffffffffffffffffffffffffffffffffffff1673ffffffffffffffffffffffffffffffffffffffff166398b226408a8981518110611a2157611a20615101565b5b60200260200101516040518263ffffffff1660e01b8152600401611a4591906148e9565b60006040518083038186803b158015611a5d57600080fd5b505afa158015611a71573d6000803e3d6000fd5b505050506040513d6000823e3d601f19601f82011682018060405250810190611a9a9190613c9e565b9550955095509550955095506000806000806000600560009054906101000a900473ffffffffffffffffffffffffffffffffffffffff1673ffffffffffffffffffffffffffffffffffffffff166382dbea608e6040518263ffffffff1660e01b8152600401611b0991906148e9565b60006040518083038186803b158015611b2157600080fd5b505afa158015611b35573d6000803e3d6000fd5b505050506040513d6000823e3d601f19601f82011682018060405250810190611b5e9190613f3e565b94509450945094509450828610158015611b785750818611155b611bb7576040517f08c379a0000000000000000000000000000000000000000000000000000000008152600401611bae90614af5565b60405180910390fd5b600660009054906101000a900473ffffffffffffffffffffffffffffffffffffffff1673ffffffffffffffffffffffffffffffffffffffff16634d1e6c7a8f8e81518110611c0857611c07615101565b5b60200260200101516040518263ffffffff1660e01b8152600401611c2c91906148e9565b600060405180830381600087803b158015611c4657600080fd5b505af1158015611c5a573d6000803e3d6000fd5b5050505050505050505050505050508080611c749061505a565b9150506119be565b5060405180606001604052808281526020016000815260200184815250600885604051611ca99190614627565b90815260200160405180910390206000820151816000019080519060200190611cd392919061339f565b506020820151816001015560408201518160020155905050600c84908060018154018082558091505060019003906000526020600020016000909190919091509080519060200190611d2692919061339f565b506001600985604051611d399190614627565b908152602001604051809103902060006101000a81548160ff02191690831515021790555050505050565b600360009054906101000a900473ffffffffffffffffffffffffffffffffffffffff1673ffffffffffffffffffffffffffffffffffffffff163373ffffffffffffffffffffffffffffffffffffffff1614611df4576040517f08c379a0000000000000000000000000000000000000000000000000000000008152600401611deb90614a55565b60405180910390fd5b600984604051611e049190614627565b908152602001604051809103902060009054906101000a900460ff16611e5f576040517f08c379a0000000000000000000000000000000000000000000000000000000008152600401611e5690614a15565b60405180910390fd5b611f68600360009054906101000a900473ffffffffffffffffffffffffffffffffffffffff16600460009054906101000a900473ffffffffffffffffffffffffffffffffffffffff1673ffffffffffffffffffffffffffffffffffffffff1663ac9f1276856040518263ffffffff1660e01b8152600401611ee091906148e9565b60206040518083038186803b158015611ef857600080fd5b505afa158015611f0c573d6000803e3d6000fd5b505050506040513d601f19601f82011682018060405250810190611f309190613903565b600887604051611f409190614627565b9081526020016040518091039020600101548460405180602001604052806000815250612447565b6040518060800160405280858152602001828152602001600460009054906101000a900473ffffffffffffffffffffffffffffffffffffffff1673ffffffffffffffffffffffffffffffffffffffff1663ac9f1276856040518263ffffffff1660e01b8152600401611fda91906148e9565b60206040518083038186803b158015611ff257600080fd5b505afa158015612006573d6000803e3d6000fd5b505050506040513d601f19601f8201168201806040525081019061202a9190613903565b73ffffffffffffffffffffffffffffffffffffffff16815260200160001515815250600a8460405161205c9190614627565b9081526020016040518091039020600082015181600001908051906020019061208692919061339f565b506020820151816001015560408201518160020160006101000a81548173ffffffffffffffffffffffffffffffffffffffff021916908373ffffffffffffffffffffffffffffffffffffffff16021790555060608201518160020160146101000a81548160ff0219169083151502179055509050506001600b8460405161210d9190614627565b908152602001604051809103902060006101000a81548160ff021916908315150217905550600d8390806001815401808255809150506001900390600052602060002001600090919091909150908051906020019061216d92919061339f565b5050505050565b600660009054906101000a900473ffffffffffffffffffffffffffffffffffffffff1681565b6009818051602081018201805184825260208301602085012081835280955050505050506000915054906101000a900460ff1681565b6121e26121db612640565b8383612b1b565b5050565b600a8180516020810182018051848252602083016020850120818352809550505050505060009150905080600001805461221f90614ff7565b80601f016020809104026020016040519081016040528092919081815260200182805461224b90614ff7565b80156122985780601f1061226d57610100808354040283529160200191612298565b820191906000526020600020905b81548152906001019060200180831161227b57829003601f168201915b5050505050908060010154908060020160009054906101000a900473ffffffffffffffffffffffffffffffffffffffff16908060020160149054906101000a900460ff16905084565b600560009054906101000a900473ffffffffffffffffffffffffffffffffffffffff1681565b600c818154811061231757600080fd5b90600052602060002001600091509050805461233290614ff7565b80601f016020809104026020016040519081016040528092919081815260200182805461235e90614ff7565b80156123ab5780601f10612380576101008083540402835291602001916123ab565b820191906000526020600020905b81548152906001019060200180831161238e57829003601f168201915b505050505081565b6000600160008473ffffffffffffffffffffffffffffffffffffffff1673ffffffffffffffffffffffffffffffffffffffff16815260200190815260200160002060008373ffffffffffffffffffffffffffffffffffffffff1673ffffffffffffffffffffffffffffffffffffffff16815260200190815260200160002060009054906101000a900460ff16905092915050565b61244f612640565b73ffffffffffffffffffffffffffffffffffffffff168573ffffffffffffffffffffffffffffffffffffffff16148061249557506124948561248f612640565b6123b3565b5b6124d4576040517f08c379a00000000000000000000000000000000000000000000000000000000081526004016124cb906149b5565b60405180910390fd5b6124e18585858585612c88565b5050505050565b600360009054906101000a900473ffffffffffffffffffffffffffffffffffffffff1681565b60088180516020810182018051848252602083016020850120818352809550505050505060009150905080600001805461254790614ff7565b80601f016020809104026020016040519081016040528092919081815260200182805461257390614ff7565b80156125c05780601f10612595576101008083540402835291602001916125c0565b820191906000526020600020905b8154815290600101906020018083116125a357829003601f168201915b5050505050908060010154908060020154905083565b60007f01ffc9a7000000000000000000000000000000000000000000000000000000007bffffffffffffffffffffffffffffffffffffffffffffffffffffffff1916827bffffffffffffffffffffffffffffffffffffffffffffffffffffffff1916149050919050565b600033905090565b815183511461268c576040517f08c379a000000000000000000000000000000000000000000000000000000000815260040161268390614b55565b60405180910390fd5b600073ffffffffffffffffffffffffffffffffffffffff168473ffffffffffffffffffffffffffffffffffffffff1614156126fc576040517f08c379a00000000000000000000000000000000000000000000000000000000081526004016126f390614a75565b60405180910390fd5b6000612706612640565b9050612716818787878787612f24565b60005b84518110156128c757600085828151811061273757612736615101565b5b60200260200101519050600085838151811061275657612755615101565b5b60200260200101519050600080600084815260200190815260200160002060008b73ffffffffffffffffffffffffffffffffffffffff1673ffffffffffffffffffffffffffffffffffffffff168152602001908152602001600020549050818110156127f7576040517f08c379a00000000000000000000000000000000000000000000000000000000081526004016127ee90614a95565b60405180910390fd5b81810360008085815260200190815260200160002060008c73ffffffffffffffffffffffffffffffffffffffff1673ffffffffffffffffffffffffffffffffffffffff168152602001908152602001600020819055508160008085815260200190815260200160002060008b73ffffffffffffffffffffffffffffffffffffffff1673ffffffffffffffffffffffffffffffffffffffff16815260200190815260200160002060008282546128ac9190614e71565b92505081905550505050806128c09061505a565b9050612719565b508473ffffffffffffffffffffffffffffffffffffffff168673ffffffffffffffffffffffffffffffffffffffff168273ffffffffffffffffffffffffffffffffffffffff167f4a39dc06d4c0dbc64b70af90fd698a233a518aa5d07e595d983b8c0526c8f7fb878760405161293e92919061482b565b60405180910390a4612954818787878787612f2c565b612962818787878787612f34565b505050505050565b600073ffffffffffffffffffffffffffffffffffffffff168473ffffffffffffffffffffffffffffffffffffffff1614156129da576040517f08c379a00000000000000000000000000000000000000000000000000000000081526004016129d190614b95565b60405180910390fd5b60006129e4612640565b905060006129f18561311b565b905060006129fe8561311b565b9050612a0f83600089858589612f24565b8460008088815260200190815260200160002060008973ffffffffffffffffffffffffffffffffffffffff1673ffffffffffffffffffffffffffffffffffffffff1681526020019081526020016000206000828254612a6e9190614e71565b925050819055508673ffffffffffffffffffffffffffffffffffffffff16600073ffffffffffffffffffffffffffffffffffffffff168473ffffffffffffffffffffffffffffffffffffffff167fc3d58168c5ae7397731d063d5bbf3d657854427343f4c083240f7aacaa2d0f628989604051612aec929190614bf0565b60405180910390a4612b0383600089858589612f2c565b612b1283600089898989613195565b50505050505050565b8173ffffffffffffffffffffffffffffffffffffffff168373ffffffffffffffffffffffffffffffffffffffff161415612b8a576040517f08c379a0000000000000000000000000000000000000000000000000000000008152600401612b8190614b15565b60405180910390fd5b80600160008573ffffffffffffffffffffffffffffffffffffffff1673ffffffffffffffffffffffffffffffffffffffff16815260200190815260200160002060008473ffffffffffffffffffffffffffffffffffffffff1673ffffffffffffffffffffffffffffffffffffffff16815260200190815260200160002060006101000a81548160ff0219169083151502179055508173ffffffffffffffffffffffffffffffffffffffff168373ffffffffffffffffffffffffffffffffffffffff167f17307eab39ab6107e8899845ad3d59bd9653f200f220920489ca2b5937696c3183604051612c7b9190614862565b60405180910390a3505050565b600073ffffffffffffffffffffffffffffffffffffffff168473ffffffffffffffffffffffffffffffffffffffff161415612cf8576040517f08c379a0000000000000000000000000000000000000000000000000000000008152600401612cef90614a75565b60405180910390fd5b6000612d02612640565b90506000612d0f8561311b565b90506000612d1c8561311b565b9050612d2c838989858589612f24565b600080600088815260200190815260200160002060008a73ffffffffffffffffffffffffffffffffffffffff1673ffffffffffffffffffffffffffffffffffffffff16815260200190815260200160002054905085811015612dc3576040517f08c379a0000000000000000000000000000000000000000000000000000000008152600401612dba90614a95565b60405180910390fd5b85810360008089815260200190815260200160002060008b73ffffffffffffffffffffffffffffffffffffffff1673ffffffffffffffffffffffffffffffffffffffff168152602001908152602001600020819055508560008089815260200190815260200160002060008a73ffffffffffffffffffffffffffffffffffffffff1673ffffffffffffffffffffffffffffffffffffffff1681526020019081526020016000206000828254612e789190614e71565b925050819055508773ffffffffffffffffffffffffffffffffffffffff168973ffffffffffffffffffffffffffffffffffffffff168573ffffffffffffffffffffffffffffffffffffffff167fc3d58168c5ae7397731d063d5bbf3d657854427343f4c083240f7aacaa2d0f628a8a604051612ef5929190614bf0565b60405180910390a4612f0b848a8a86868a612f2c565b612f19848a8a8a8a8a613195565b505050505050505050565b505050505050565b505050505050565b612f538473ffffffffffffffffffffffffffffffffffffffff1661337c565b15613113578373ffffffffffffffffffffffffffffffffffffffff1663bc197c8187878686866040518663ffffffff1660e01b8152600401612f99959493929190614670565b602060405180830381600087803b158015612fb357600080fd5b505af1925050508015612fe457506040513d601f19601f82011682018060405250810190612fe19190613c28565b60015b61308a57612ff061515f565b806308c379a0141561304d57506130056156ae565b80613010575061304f565b806040517f08c379a000000000000000000000000000000000000000000000000000000000815260040161304491906148e9565b60405180910390fd5b505b6040517f08c379a000000000000000000000000000000000000000000000000000000000815260040161308190614995565b60405180910390fd5b63bc197c8160e01b7bffffffffffffffffffffffffffffffffffffffffffffffffffffffff1916817bffffffffffffffffffffffffffffffffffffffffffffffffffffffff191614613111576040517f08c379a0000000000000000000000000000000000000000000000000000000008152600401613108906149d5565b60405180910390fd5b505b505050505050565b60606000600167ffffffffffffffff81111561313a57613139615130565b5b6040519080825280602002602001820160405280156131685781602001602082028036833780820191505090505b50905082816000815181106131805761317f615101565b5b60200260200101818152505080915050919050565b6131b48473ffffffffffffffffffffffffffffffffffffffff1661337c565b15613374578373ffffffffffffffffffffffffffffffffffffffff1663f23a6e6187878686866040518663ffffffff1660e01b81526004016131fa9594939291906146d8565b602060405180830381600087803b15801561321457600080fd5b505af192505050801561324557506040513d601f19601f820116820180604052508101906132429190613c28565b60015b6132eb5761325161515f565b806308c379a014156132ae57506132666156ae565b8061327157506132b0565b806040517f08c379a00000000000000000000000000000000000000000000000000000000081526004016132a591906148e9565b60405180910390fd5b505b6040517f08c379a00000000000000000000000000000000000000000000000000000000081526004016132e290614995565b60405180910390fd5b63f23a6e6160e01b7bffffffffffffffffffffffffffffffffffffffffffffffffffffffff1916817bffffffffffffffffffffffffffffffffffffffffffffffffffffffff191614613372576040517f08c379a0000000000000000000000000000000000000000000000000000000008152600401613369906149d5565b60405180910390fd5b505b505050505050565b6000808273ffffffffffffffffffffffffffffffffffffffff163b119050919050565b8280546133ab90614ff7565b90600052602060002090601f0160209004810192826133cd5760008555613414565b82601f106133e657805160ff1916838001178555613414565b82800160010185558215613414579182015b828111156134135782518255916020019190600101906133f8565b5b5090506134219190613425565b5090565b5b8082111561343e576000816000905550600101613426565b5090565b600061345561345084614c3e565b614c19565b9050808382526020820190508285602086028201111561347857613477615186565b5b60005b858110156134a8578161348e8882613704565b84526020840193506020830192505060018101905061347b565b5050509392505050565b60006134c56134c084614c6a565b614c19565b905080838252602082019050828560208602820111156134e8576134e7615186565b5b60005b8581101561353657813567ffffffffffffffff81111561350e5761350d615181565b5b80860161351b8982613868565b855260208501945060208401935050506001810190506134eb565b5050509392505050565b600061355361354e84614c6a565b614c19565b9050808382526020820190508285602086028201111561357657613575615186565b5b60005b858110156135c457815167ffffffffffffffff81111561359c5761359b615181565b5b8086016135a98982613896565b85526020850194506020840193505050600181019050613579565b5050509392505050565b60006135e16135dc84614c96565b614c19565b9050808382526020820190508285602086028201111561360457613603615186565b5b60005b85811015613634578161361a88826138d9565b845260208401935060208301925050600181019050613607565b5050509392505050565b600061365161364c84614cc2565b614c19565b90508281526020810184848401111561366d5761366c61518b565b5b613678848285614fb5565b509392505050565b600061369361368e84614cf3565b614c19565b9050828152602081018484840111156136af576136ae61518b565b5b6136ba848285614fb5565b509392505050565b60006136d56136d084614cf3565b614c19565b9050828152602081018484840111156136f1576136f061518b565b5b6136fc848285614fc4565b509392505050565b60008135905061371381615744565b92915050565b60008151905061372881615744565b92915050565b600082601f83011261374357613742615181565b5b8135613753848260208601613442565b91505092915050565b600082601f83011261377157613770615181565b5b81356137818482602086016134b2565b91505092915050565b600082601f83011261379f5761379e615181565b5b81516137af848260208601613540565b91505092915050565b600082601f8301126137cd576137cc615181565b5b81356137dd8482602086016135ce565b91505092915050565b6000813590506137f58161575b565b92915050565b60008151905061380a8161575b565b92915050565b60008135905061381f81615772565b92915050565b60008151905061383481615772565b92915050565b600082601f83011261384f5761384e615181565b5b813561385f84826020860161363e565b91505092915050565b600082601f83011261387d5761387c615181565b5b813561388d848260208601613680565b91505092915050565b600082601f8301126138ab576138aa615181565b5b81516138bb8482602086016136c2565b91505092915050565b6000815190506138d381615789565b92915050565b6000813590506138e8816157a0565b92915050565b6000815190506138fd816157a0565b92915050565b60006020828403121561391957613918615195565b5b600061392784828501613719565b91505092915050565b6000806040838503121561394757613946615195565b5b600061395585828601613704565b925050602061396685828601613704565b9150509250929050565b600080600080600060a0868803121561398c5761398b615195565b5b600061399a88828901613704565b95505060206139ab88828901613704565b945050604086013567ffffffffffffffff8111156139cc576139cb615190565b5b6139d8888289016137b8565b935050606086013567ffffffffffffffff8111156139f9576139f8615190565b5b613a05888289016137b8565b925050608086013567ffffffffffffffff811115613a2657613a25615190565b5b613a328882890161383a565b9150509295509295909350565b600080600080600060a08688031215613a5b57613a5a615195565b5b6000613a6988828901613704565b9550506020613a7a88828901613704565b9450506040613a8b888289016138d9565b9350506060613a9c888289016138d9565b925050608086013567ffffffffffffffff811115613abd57613abc615190565b5b613ac98882890161383a565b9150509295509295909350565b60008060408385031215613aed57613aec615195565b5b6000613afb85828601613704565b9250506020613b0c858286016137e6565b9150509250929050565b60008060408385031215613b2d57613b2c615195565b5b6000613b3b85828601613704565b9250506020613b4c858286016138d9565b9150509250929050565b60008060408385031215613b6d57613b6c615195565b5b600083013567ffffffffffffffff811115613b8b57613b8a615190565b5b613b978582860161372e565b925050602083013567ffffffffffffffff811115613bb857613bb7615190565b5b613bc4858286016137b8565b9150509250929050565b600060208284031215613be457613be3615195565b5b6000613bf2848285016137fb565b91505092915050565b600060208284031215613c1157613c10615195565b5b6000613c1f84828501613810565b91505092915050565b600060208284031215613c3e57613c3d615195565b5b6000613c4c84828501613825565b91505092915050565b600060208284031215613c6b57613c6a615195565b5b600082013567ffffffffffffffff811115613c8957613c88615190565b5b613c9584828501613868565b91505092915050565b60008060008060008060c08789031215613cbb57613cba615195565b5b600087015167ffffffffffffffff811115613cd957613cd8615190565b5b613ce589828a01613896565b965050602087015167ffffffffffffffff811115613d0657613d05615190565b5b613d1289828a01613896565b955050604087015167ffffffffffffffff811115613d3357613d32615190565b5b613d3f89828a01613896565b945050606087015167ffffffffffffffff811115613d6057613d5f615190565b5b613d6c89828a01613896565b9350506080613d7d89828a016138c4565b92505060a0613d8e89828a016138ee565b9150509295509295509295565b60008060008060808587031215613db557613db4615195565b5b600085013567ffffffffffffffff811115613dd357613dd2615190565b5b613ddf87828801613868565b945050602085013567ffffffffffffffff811115613e0057613dff615190565b5b613e0c87828801613868565b935050604085013567ffffffffffffffff811115613e2d57613e2c615190565b5b613e3987828801613868565b9250506060613e4a878288016138d9565b91505092959194509250565b60008060008060808587031215613e7057613e6f615195565b5b600085013567ffffffffffffffff811115613e8e57613e8d615190565b5b613e9a87828801613868565b9450506020613eab878288016138d9565b935050604085013567ffffffffffffffff811115613ecc57613ecb615190565b5b613ed88782880161375c565b925050606085013567ffffffffffffffff811115613ef957613ef8615190565b5b613f0587828801613868565b91505092959194509250565b600060208284031215613f2757613f26615195565b5b6000613f35848285016138d9565b91505092915050565b600080600080600060a08688031215613f5a57613f59615195565b5b6000613f68888289016138ee565b9550506020613f79888289016138ee565b9450506040613f8a888289016138ee565b9350506060613f9b888289016138ee565b925050608086015167ffffffffffffffff811115613fbc57613fbb615190565b5b613fc88882890161378a565b9150509295509295909350565b6000613fe18383614031565b60208301905092915050565b6000613ff983836141de565b60208301905092915050565b60006140118383614271565b905092915050565b60006140258383614609565b60208301905092915050565b61403a81614ec7565b82525050565b61404981614ec7565b82525050565b600061405a82614d79565b6140648185614def565b935061406f83614d24565b8060005b838110156140a05781516140878882613fd5565b975061409283614dbb565b925050600181019050614073565b5085935050505092915050565b60006140b882614d84565b6140c28185614e00565b93506140cd83614d34565b8060005b838110156140fe5781516140e58882613fed565b97506140f083614dc8565b9250506001810190506140d1565b5085935050505092915050565b600061411682614d8f565b6141208185614e11565b93508360208202850161413285614d44565b8060005b8581101561416e578484038952815161414f8582614005565b945061415a83614dd5565b925060208a01995050600181019050614136565b50829750879550505050505092915050565b600061418b82614d9a565b6141958185614e22565b93506141a083614d54565b8060005b838110156141d15781516141b88882614019565b97506141c383614de2565b9250506001810190506141a4565b5085935050505092915050565b6141e781614ed9565b82525050565b6141f681614ed9565b82525050565b600061420782614da5565b6142118185614e33565b9350614221818560208601614fc4565b61422a8161519a565b840191505092915050565b61423e81614f49565b82525050565b61424d81614f5b565b82525050565b61425c81614f6d565b82525050565b61426b81614f7f565b82525050565b600061427c82614db0565b6142868185614e44565b9350614296818560208601614fc4565b61429f8161519a565b840191505092915050565b60006142b582614db0565b6142bf8185614e55565b93506142cf818560208601614fc4565b6142d88161519a565b840191505092915050565b60006142ee82614db0565b6142f88185614e66565b9350614308818560208601614fc4565b80840191505092915050565b6000815461432181614ff7565b61432b8186614e66565b9450600182166000811461434657600181146143575761438a565b60ff1983168652818601935061438a565b61436085614d64565b60005b8381101561438257815481890152600182019150602081019050614363565b838801955050505b50505092915050565b60006143a0603483614e55565b91506143ab826151b8565b604082019050919050565b60006143c3602f83614e55565b91506143ce82615207565b604082019050919050565b60006143e6602883614e55565b91506143f182615256565b604082019050919050565b6000614409601f83614e55565b9150614414826152a5565b602082019050919050565b600061442c601f83614e55565b9150614437826152ce565b602082019050919050565b600061444f602a83614e55565b915061445a826152f7565b604082019050919050565b6000614472602883614e55565b915061447d82615346565b604082019050919050565b6000614495602583614e55565b91506144a082615395565b604082019050919050565b60006144b8602a83614e55565b91506144c3826153e4565b604082019050919050565b60006144db601f83614e55565b91506144e682615433565b602082019050919050565b60006144fe602a83614e55565b91506145098261545c565b604082019050919050565b6000614521603583614e55565b915061452c826154ab565b604082019050919050565b6000614544602983614e55565b915061454f826154fa565b604082019050919050565b6000614567602983614e55565b915061457282615549565b604082019050919050565b600061458a602883614e55565b915061459582615598565b604082019050919050565b60006145ad602383614e55565b91506145b8826155e7565b604082019050919050565b60006145d0602183614e55565b91506145db82615636565b604082019050919050565b60006145f3601783614e55565b91506145fe82615685565b602082019050919050565b61461281614f3f565b82525050565b61462181614f3f565b82525050565b600061463382846142e3565b915081905092915050565b600061464a8284614314565b915081905092915050565b600060208201905061466a6000830184614040565b92915050565b600060a0820190506146856000830188614040565b6146926020830187614040565b81810360408301526146a48186614180565b905081810360608301526146b88185614180565b905081810360808301526146cc81846141fc565b90509695505050505050565b600060a0820190506146ed6000830188614040565b6146fa6020830187614040565b6147076040830186614618565b6147146060830185614618565b818103608083015261472681846141fc565b90509695505050505050565b600060a082019050818103600083015261474c818861410b565b90508181036020830152614760818761410b565b905081810360408301526147748186614180565b90508181036060830152614788818561404f565b9050818103608083015261479c81846140ad565b90509695505050505050565b600060808201905081810360008301526147c2818761410b565b905081810360208301526147d6818661410b565b905081810360408301526147ea8185614180565b905081810360608301526147fe8184614180565b905095945050505050565b600060208201905081810360008301526148238184614180565b905092915050565b600060408201905081810360008301526148458185614180565b905081810360208301526148598184614180565b90509392505050565b600060208201905061487760008301846141ed565b92915050565b60006020820190506148926000830184614235565b92915050565b60006020820190506148ad6000830184614244565b92915050565b60006020820190506148c86000830184614253565b92915050565b60006020820190506148e36000830184614262565b92915050565b6000602082019050818103600083015261490381846142aa565b905092915050565b6000608082019050818103600083015261492581876142aa565b90506149346020830186614618565b6149416040830185614040565b61494e60608301846141ed565b95945050505050565b6000606082019050818103600083015261497181866142aa565b90506149806020830185614618565b61498d6040830184614618565b949350505050565b600060208201905081810360008301526149ae81614393565b9050919050565b600060208201905081810360008301526149ce816143b6565b9050919050565b600060208201905081810360008301526149ee816143d9565b9050919050565b60006020820190508181036000830152614a0e816143fc565b9050919050565b60006020820190508181036000830152614a2e8161441f565b9050919050565b60006020820190508181036000830152614a4e81614442565b9050919050565b60006020820190508181036000830152614a6e81614465565b9050919050565b60006020820190508181036000830152614a8e81614488565b9050919050565b60006020820190508181036000830152614aae816144ab565b9050919050565b60006020820190508181036000830152614ace816144ce565b9050919050565b60006020820190508181036000830152614aee816144f1565b9050919050565b60006020820190508181036000830152614b0e81614514565b9050919050565b60006020820190508181036000830152614b2e81614537565b9050919050565b60006020820190508181036000830152614b4e8161455a565b9050919050565b60006020820190508181036000830152614b6e8161457d565b9050919050565b60006020820190508181036000830152614b8e816145a0565b9050919050565b60006020820190508181036000830152614bae816145c3565b9050919050565b60006020820190508181036000830152614bce816145e6565b9050919050565b6000602082019050614bea6000830184614618565b92915050565b6000604082019050614c056000830185614618565b614c126020830184614618565b9392505050565b6000614c23614c34565b9050614c2f8282615029565b919050565b6000604051905090565b600067ffffffffffffffff821115614c5957614c58615130565b5b602082029050602081019050919050565b600067ffffffffffffffff821115614c8557614c84615130565b5b602082029050602081019050919050565b600067ffffffffffffffff821115614cb157614cb0615130565b5b602082029050602081019050919050565b600067ffffffffffffffff821115614cdd57614cdc615130565b5b614ce68261519a565b9050602081019050919050565b600067ffffffffffffffff821115614d0e57614d0d615130565b5b614d178261519a565b9050602081019050919050565b6000819050602082019050919050565b6000819050602082019050919050565b6000819050602082019050919050565b6000819050602082019050919050565b60008190508160005260206000209050919050565b600081519050919050565b600081519050919050565b600081519050919050565b600081519050919050565b600081519050919050565b600081519050919050565b6000602082019050919050565b6000602082019050919050565b6000602082019050919050565b6000602082019050919050565b600082825260208201905092915050565b600082825260208201905092915050565b600082825260208201905092915050565b600082825260208201905092915050565b600082825260208201905092915050565b600082825260208201905092915050565b600082825260208201905092915050565b600081905092915050565b6000614e7c82614f3f565b9150614e8783614f3f565b9250827fffffffffffffffffffffffffffffffffffffffffffffffffffffffffffffffff03821115614ebc57614ebb6150a3565b5b828201905092915050565b6000614ed282614f1f565b9050919050565b60008115159050919050565b60007fffffffff0000000000000000000000000000000000000000000000000000000082169050919050565b600061ffff82169050919050565b600073ffffffffffffffffffffffffffffffffffffffff82169050919050565b6000819050919050565b6000614f5482614f91565b9050919050565b6000614f6682614f91565b9050919050565b6000614f7882614f91565b9050919050565b6000614f8a82614f91565b9050919050565b6000614f9c82614fa3565b9050919050565b6000614fae82614f1f565b9050919050565b82818337600083830152505050565b60005b83811015614fe2578082015181840152602081019050614fc7565b83811115614ff1576000848401525b50505050565b6000600282049050600182168061500f57607f821691505b60208210811415615023576150226150d2565b5b50919050565b6150328261519a565b810181811067ffffffffffffffff8211171561505157615050615130565b5b80604052505050565b600061506582614f3f565b91507fffffffffffffffffffffffffffffffffffffffffffffffffffffffffffffffff821415615098576150976150a3565b5b600182019050919050565b7f4e487b7100000000000000000000000000000000000000000000000000000000600052601160045260246000fd5b7f4e487b7100000000000000000000000000000000000000000000000000000000600052602260045260246000fd5b7f4e487b7100000000000000000000000000000000000000000000000000000000600052603260045260246000fd5b7f4e487b7100000000000000000000000000000000000000000000000000000000600052604160045260246000fd5b600060033d111561517e5760046000803e61517b6000516151ab565b90505b90565b600080fd5b600080fd5b600080fd5b600080fd5b600080fd5b6000601f19601f8301169050919050565b60008160e01c9050919050565b7f455243313135353a207472616e7366657220746f206e6f6e204552433131353560008201527f526563656976657220696d706c656d656e746572000000000000000000000000602082015250565b7f455243313135353a2063616c6c6572206973206e6f7420746f6b656e206f776e60008201527f6572206e6f7220617070726f7665640000000000000000000000000000000000602082015250565b7f455243313135353a204552433131353552656365697665722072656a6563746560008201527f6420746f6b656e73000000000000000000000000000000000000000000000000602082015250565b7f436172626f6e20746f6b656e20696420616c7265616479206578697374732e00600082015250565b7f436172626f6e20546f6b656e20494420646f6573206e6f742065786973742e00600082015250565b7f455243313135353a2061646472657373207a65726f206973206e6f742061207660008201527f616c6964206f776e657200000000000000000000000000000000000000000000602082015250565b7f4f6e6c792061646d696e2063616e206469737472696275746520436172626f6e60008201527f20546f6b656e732e000000000000000000000000000000000000000000000000602082015250565b7f455243313135353a207472616e7366657220746f20746865207a65726f20616460008201527f6472657373000000000000000000000000000000000000000000000000000000602082015250565b7f455243313135353a20696e73756666696369656e742062616c616e636520666f60008201527f72207472616e7366657200000000000000000000000000000000000000000000602082015250565b7f446973747269627574696f6e20494420646f6573206e6f742065786973742e00600082015250565b7f4f6e6c792061646d696e2063616e2075706461746520436172626f6e20546f6b60008201527f656e207374617475732e00000000000000000000000000000000000000000000602082015250565b7f546865207370656369666965642066656564207265636f7264206973206e6f7460008201527f20696e2074686520636c61696d20706572696f642e0000000000000000000000602082015250565b7f455243313135353a2073657474696e6720617070726f76616c2073746174757360008201527f20666f722073656c660000000000000000000000000000000000000000000000602082015250565b7f455243313135353a206163636f756e747320616e6420696473206c656e67746860008201527f206d69736d617463680000000000000000000000000000000000000000000000602082015250565b7f455243313135353a2069647320616e6420616d6f756e7473206c656e6774682060008201527f6d69736d61746368000000000000000000000000000000000000000000000000602082015250565b7f4f6e6c792061646d696e2063616e20697373756520436172626f6e20546f6b6560008201527f6e732e0000000000000000000000000000000000000000000000000000000000602082015250565b7f455243313135353a206d696e7420746f20746865207a65726f2061646472657360008201527f7300000000000000000000000000000000000000000000000000000000000000602082015250565b7f50726f6a65637420646f6573206e6f742065786973742e000000000000000000600082015250565b600060443d10156156be57615741565b6156c6614c34565b60043d036004823e80513d602482011167ffffffffffffffff821117156156ee575050615741565b808201805167ffffffffffffffff81111561570c5750505050615741565b80602083010160043d038501811115615729575050505050615741565b61573882602001850186615029565b82955050505050505b90565b61574d81614ec7565b811461575857600080fd5b50565b61576481614ed9565b811461576f57600080fd5b50565b61577b81614ee5565b811461578657600080fd5b50565b61579281614f11565b811461579d57600080fd5b50565b6157a981614f3f565b81146157b457600080fd5b5056fea2646970667358221220c360330bdc66263ced2e60699c1465e46ee350ae493b6c947739b508d75415df64736f6c63430008070033",
  "immutableReferences": {},
  "source": "// SPDX-License-Identifier: MIT\npragma solidity ^0.8.0;\n\nimport \"../../node_modules/@openzeppelin/contracts/token/ERC1155/ERC1155.sol\";\nimport \"./FarmRegistry.sol\";\nimport \"./ProjectRegistry.sol\";\nimport \"./FeedTracking.sol\";\nimport \"./EmissionTracking.sol\";\n\ncontract CarbonToken is ERC1155 {\n    address public admin;\n    FarmRegistry public farmregistry;\n    ProjectRegistry public projectregistry;\n    FeedTracking public feedtracking;\n    EmissionTracking public emissiontracking;\n\n    // CBT's internal ids\n    // VERRA-0, ACCU-1, GOLDSTANDARD-2\n\n    struct CBToken {\n        string ProjectID;\n        uint256 InternalID; // the id used to mint a 1155 token\n        uint256 Amount;\n    }\n\n    struct Distribution {\n        string CBTokenID;\n        uint256 Amount;\n        address Farmer;\n        bool Paid;\n    }\n\n    mapping(string => CBToken) public cbtokens;\n    mapping(string => bool) public cbtokenExists;\n    mapping(string => Distribution) public distributions;\n    mapping(string => bool) public distributionExists;\n    string[] public allcbtokens;\n    string[] public alldistributions;\n\n    constructor(string memory _uri, FarmRegistry _farmregistry, ProjectRegistry _projectregistry, FeedTracking _feedtracking, EmissionTracking _emissiontracking)\n        ERC1155(_uri)\n    {\n        admin = msg.sender;\n        farmregistry = _farmregistry;\n        projectregistry = _projectregistry;\n        feedtracking = _feedtracking;\n        emissiontracking = _emissiontracking;\n    }\n\n    // todo: change the startdate and enddate of issue to referring to a project in the project registry\n    function issue(string memory _cbtokenid, uint256 _amount, string[] memory _feedids, string memory _projectid) public {\n        require(msg.sender == admin, \"Only admin can issue Carbon Tokens.\");\n        require(cbtokenExists[_cbtokenid] == false, \"Carbon token id already exists.\");\n        require(projectregistry.projectExists(_projectid), \"Project does not exist.\");\n\n        _mint(admin,0,_amount,\"\");\n\n        for(uint256 i=0; i<_feedids.length; i++){\n            (string memory ingredient, string memory claimstatus, string memory animalid, string memory orderid, uint16 dmi, uint256 datetime)=feedtracking.queryFeed(_feedids[i]);\n            (uint256 blstart, uint256 blend, uint256 pjstart, uint256 pjend, string[] memory herds)=projectregistry.queryProject(_projectid);\n            require((datetime>=pjstart && datetime<=pjend ), \"The specified feed record is not in the claim period.\");\n            \n            feedtracking.claimFeed(_feedids[i]);\n        }\n\n        cbtokens[_cbtokenid] = CBToken(_projectid,0,_amount);\n        allcbtokens.push(_cbtokenid);\n        cbtokenExists[_cbtokenid] = true;\n    }\n\n    function distribute(string memory _cbtokenid, string memory _distributionid, string memory _farmid, uint256 _amount) public {\n        require(msg.sender == admin, \"Only admin can distribute Carbon Tokens.\");\n        require(cbtokenExists[_cbtokenid], \"Carbon Token ID does not exist.\");\n        safeTransferFrom(admin,farmregistry.farms(_farmid),cbtokens[_cbtokenid].InternalID,_amount, \"\");\n        distributions[_distributionid] = Distribution(_cbtokenid,_amount,farmregistry.farms(_farmid),false);\n        distributionExists[_distributionid] = true;\n        alldistributions.push(_distributionid);\n    }\n\n    function update(string memory _distributionid) public {\n        require(msg.sender == admin, \"Only admin can update Carbon Token status.\");\n        require(distributionExists[_distributionid], \"Distribution ID does not exist.\");\n        distributions[_distributionid].Paid = true;\n    }\n\n    function queryCarbonToken(string memory _cbtokenid) public view returns(string memory,uint256,uint256)\n    {\n        require(cbtokenExists[_cbtokenid], \"Carbon Token ID does not exist.\");\n        return(\n            cbtokens[_cbtokenid].ProjectID,\n            cbtokens[_cbtokenid].InternalID,\n            cbtokens[_cbtokenid].Amount\n        );\n    }\n\n    function queryAllCarbonToken() public view \n    returns(\n        string[] memory,\n        string[] memory,\n        uint256[] memory,\n        uint256[] memory\n    )\n    {\n        string[] memory projectids = new string[](allcbtokens.length);\n        uint256[] memory internalids = new uint256[](allcbtokens.length);\n        uint256[] memory amounts = new uint256[](allcbtokens.length);\n\n        for(uint256 i=0; i<allcbtokens.length; i++) {\n            projectids[i] = cbtokens[allcbtokens[i]].ProjectID;\n            internalids[i] = cbtokens[allcbtokens[i]].InternalID;\n            amounts[i] = cbtokens[allcbtokens[i]].Amount;\n        }\n\n        return(allcbtokens,projectids,internalids,amounts);\n    }\n\n    function queryDistribution(string memory _distributionid) public view returns(string memory,uint256,address,bool)\n    {\n        require(distributionExists[_distributionid], \"Distribution ID does not exist.\");\n        return(\n            distributions[_distributionid].CBTokenID,\n            distributions[_distributionid].Amount,\n            distributions[_distributionid].Farmer,\n            distributions[_distributionid].Paid\n        );\n    }\n\n    function queryAllDistribution() public view \n    returns(\n        string[] memory,\n        string[] memory,\n        uint256[] memory,\n        address[] memory,\n        bool[] memory\n    )\n    {\n        string[] memory cbtokenids = new string[](alldistributions.length);\n        uint256[] memory amounts = new uint256[](alldistributions.length);\n        address[] memory farmers = new address[](alldistributions.length);\n        bool[] memory paid = new bool[](alldistributions.length);\n\n        for(uint256 i=0; i<alldistributions.length; i++){\n            cbtokenids[i] = distributions[alldistributions[i]].CBTokenID;\n            amounts[i] = distributions[alldistributions[i]].Amount;\n            farmers[i] = distributions[alldistributions[i]].Farmer;\n            paid[i] = distributions[alldistributions[i]].Paid;\n        }\n\n        return(alldistributions,cbtokenids,amounts,farmers,paid);\n    }\n}",
  "sourcePath": "/home/yih/Documents/dev/beston-dapps/contracts/carbon/CarbonToken.sol",
  "compiler": {
    "name": "solc",
    "version": "0.8.7+commit.e28d00a7.Emscripten.clang"
  },
  "schemaVersion": "3.4.1",
  "updatedAt": "2023-09-07T05:40:21.070Z",
  "devdoc": {
    "kind": "dev",
    "methods": {
      "balanceOf(address,uint256)": {
        "details": "See {IERC1155-balanceOf}. Requirements: - `account` cannot be the zero address."
      },
      "balanceOfBatch(address[],uint256[])": {
        "details": "See {IERC1155-balanceOfBatch}. Requirements: - `accounts` and `ids` must have the same length."
      },
      "isApprovedForAll(address,address)": {
        "details": "See {IERC1155-isApprovedForAll}."
      },
      "safeBatchTransferFrom(address,address,uint256[],uint256[],bytes)": {
        "details": "See {IERC1155-safeBatchTransferFrom}."
      },
      "safeTransferFrom(address,address,uint256,uint256,bytes)": {
        "details": "See {IERC1155-safeTransferFrom}."
      },
      "setApprovalForAll(address,bool)": {
        "details": "See {IERC1155-setApprovalForAll}."
      },
      "supportsInterface(bytes4)": {
        "details": "See {IERC165-supportsInterface}."
      },
      "uri(uint256)": {
        "details": "See {IERC1155MetadataURI-uri}. This implementation returns the same URI for *all* token types. It relies on the token type ID substitution mechanism https://eips.ethereum.org/EIPS/eip-1155#metadata[defined in the EIP]. Clients calling this function must replace the `\\{id\\}` substring with the actual token type ID."
      }
    },
    "version": 1
  },
  "userdoc": {
    "kind": "user",
    "methods": {},
    "version": 1
  }
}