{
  "contractName": "CarbonToken",
  "abi": [
    {
      "inputs": [
        {
          "internalType": "string",
          "name": "_uri",
          "type": "string"
        },
        {
          "internalType": "contract FarmRegistry",
          "name": "_farmregistry",
          "type": "address"
        },
        {
          "internalType": "contract FeedTracking",
          "name": "_feedtracking",
          "type": "address"
        },
        {
          "internalType": "contract EmissionTracking",
          "name": "_emissiontracking",
          "type": "address"
        }
      ],
      "stateMutability": "nonpayable",
      "type": "constructor"
    },
    {
      "anonymous": false,
      "inputs": [
        {
          "indexed": true,
          "internalType": "address",
          "name": "account",
          "type": "address"
        },
        {
          "indexed": true,
          "internalType": "address",
          "name": "operator",
          "type": "address"
        },
        {
          "indexed": false,
          "internalType": "bool",
          "name": "approved",
          "type": "bool"
        }
      ],
      "name": "ApprovalForAll",
      "type": "event"
    },
    {
      "anonymous": false,
      "inputs": [
        {
          "indexed": true,
          "internalType": "address",
          "name": "operator",
          "type": "address"
        },
        {
          "indexed": true,
          "internalType": "address",
          "name": "from",
          "type": "address"
        },
        {
          "indexed": true,
          "internalType": "address",
          "name": "to",
          "type": "address"
        },
        {
          "indexed": false,
          "internalType": "uint256[]",
          "name": "ids",
          "type": "uint256[]"
        },
        {
          "indexed": false,
          "internalType": "uint256[]",
          "name": "values",
          "type": "uint256[]"
        }
      ],
      "name": "TransferBatch",
      "type": "event"
    },
    {
      "anonymous": false,
      "inputs": [
        {
          "indexed": true,
          "internalType": "address",
          "name": "operator",
          "type": "address"
        },
        {
          "indexed": true,
          "internalType": "address",
          "name": "from",
          "type": "address"
        },
        {
          "indexed": true,
          "internalType": "address",
          "name": "to",
          "type": "address"
        },
        {
          "indexed": false,
          "internalType": "uint256",
          "name": "id",
          "type": "uint256"
        },
        {
          "indexed": false,
          "internalType": "uint256",
          "name": "value",
          "type": "uint256"
        }
      ],
      "name": "TransferSingle",
      "type": "event"
    },
    {
      "anonymous": false,
      "inputs": [
        {
          "indexed": false,
          "internalType": "string",
          "name": "value",
          "type": "string"
        },
        {
          "indexed": true,
          "internalType": "uint256",
          "name": "id",
          "type": "uint256"
        }
      ],
      "name": "URI",
      "type": "event"
    },
    {
      "inputs": [],
      "name": "admin",
      "outputs": [
        {
          "internalType": "address",
          "name": "",
          "type": "address"
        }
      ],
      "stateMutability": "view",
      "type": "function",
      "constant": true
    },
    {
      "inputs": [
        {
          "internalType": "uint256",
          "name": "",
          "type": "uint256"
        }
      ],
      "name": "allcbtokens",
      "outputs": [
        {
          "internalType": "string",
          "name": "",
          "type": "string"
        }
      ],
      "stateMutability": "view",
      "type": "function",
      "constant": true
    },
    {
      "inputs": [
        {
          "internalType": "uint256",
          "name": "",
          "type": "uint256"
        }
      ],
      "name": "alldistributions",
      "outputs": [
        {
          "internalType": "string",
          "name": "",
          "type": "string"
        }
      ],
      "stateMutability": "view",
      "type": "function",
      "constant": true
    },
    {
      "inputs": [
        {
          "internalType": "address",
          "name": "account",
          "type": "address"
        },
        {
          "internalType": "uint256",
          "name": "id",
          "type": "uint256"
        }
      ],
      "name": "balanceOf",
      "outputs": [
        {
          "internalType": "uint256",
          "name": "",
          "type": "uint256"
        }
      ],
      "stateMutability": "view",
      "type": "function",
      "constant": true
    },
    {
      "inputs": [
        {
          "internalType": "address[]",
          "name": "accounts",
          "type": "address[]"
        },
        {
          "internalType": "uint256[]",
          "name": "ids",
          "type": "uint256[]"
        }
      ],
      "name": "balanceOfBatch",
      "outputs": [
        {
          "internalType": "uint256[]",
          "name": "",
          "type": "uint256[]"
        }
      ],
      "stateMutability": "view",
      "type": "function",
      "constant": true
    },
    {
      "inputs": [
        {
          "internalType": "string",
          "name": "",
          "type": "string"
        }
      ],
      "name": "cbtokenExists",
      "outputs": [
        {
          "internalType": "bool",
          "name": "",
          "type": "bool"
        }
      ],
      "stateMutability": "view",
      "type": "function",
      "constant": true
    },
    {
      "inputs": [
        {
          "internalType": "string",
          "name": "",
          "type": "string"
        }
      ],
      "name": "cbtokens",
      "outputs": [
        {
          "internalType": "uint256",
          "name": "InternalID",
          "type": "uint256"
        },
        {
          "internalType": "uint256",
          "name": "Amount",
          "type": "uint256"
        },
        {
          "internalType": "uint256",
          "name": "StartDate",
          "type": "uint256"
        },
        {
          "internalType": "uint256",
          "name": "EndDate",
          "type": "uint256"
        }
      ],
      "stateMutability": "view",
      "type": "function",
      "constant": true
    },
    {
      "inputs": [
        {
          "internalType": "string",
          "name": "",
          "type": "string"
        }
      ],
      "name": "distributionExists",
      "outputs": [
        {
          "internalType": "bool",
          "name": "",
          "type": "bool"
        }
      ],
      "stateMutability": "view",
      "type": "function",
      "constant": true
    },
    {
      "inputs": [
        {
          "internalType": "string",
          "name": "",
          "type": "string"
        }
      ],
      "name": "distributions",
      "outputs": [
        {
          "internalType": "string",
          "name": "CBTokenID",
          "type": "string"
        },
        {
          "internalType": "uint256",
          "name": "Amount",
          "type": "uint256"
        },
        {
          "internalType": "address",
          "name": "Farmer",
          "type": "address"
        },
        {
          "internalType": "bool",
          "name": "Paid",
          "type": "bool"
        }
      ],
      "stateMutability": "view",
      "type": "function",
      "constant": true
    },
    {
      "inputs": [],
      "name": "emissiontracking",
      "outputs": [
        {
          "internalType": "contract EmissionTracking",
          "name": "",
          "type": "address"
        }
      ],
      "stateMutability": "view",
      "type": "function",
      "constant": true
    },
    {
      "inputs": [],
      "name": "farmregistry",
      "outputs": [
        {
          "internalType": "contract FarmRegistry",
          "name": "",
          "type": "address"
        }
      ],
      "stateMutability": "view",
      "type": "function",
      "constant": true
    },
    {
      "inputs": [],
      "name": "feedtracking",
      "outputs": [
        {
          "internalType": "contract FeedTracking",
          "name": "",
          "type": "address"
        }
      ],
      "stateMutability": "view",
      "type": "function",
      "constant": true
    },
    {
      "inputs": [
        {
          "internalType": "address",
          "name": "account",
          "type": "address"
        },
        {
          "internalType": "address",
          "name": "operator",
          "type": "address"
        }
      ],
      "name": "isApprovedForAll",
      "outputs": [
        {
          "internalType": "bool",
          "name": "",
          "type": "bool"
        }
      ],
      "stateMutability": "view",
      "type": "function",
      "constant": true
    },
    {
      "inputs": [
        {
          "internalType": "address",
          "name": "from",
          "type": "address"
        },
        {
          "internalType": "address",
          "name": "to",
          "type": "address"
        },
        {
          "internalType": "uint256[]",
          "name": "ids",
          "type": "uint256[]"
        },
        {
          "internalType": "uint256[]",
          "name": "amounts",
          "type": "uint256[]"
        },
        {
          "internalType": "bytes",
          "name": "data",
          "type": "bytes"
        }
      ],
      "name": "safeBatchTransferFrom",
      "outputs": [],
      "stateMutability": "nonpayable",
      "type": "function"
    },
    {
      "inputs": [
        {
          "internalType": "address",
          "name": "from",
          "type": "address"
        },
        {
          "internalType": "address",
          "name": "to",
          "type": "address"
        },
        {
          "internalType": "uint256",
          "name": "id",
          "type": "uint256"
        },
        {
          "internalType": "uint256",
          "name": "amount",
          "type": "uint256"
        },
        {
          "internalType": "bytes",
          "name": "data",
          "type": "bytes"
        }
      ],
      "name": "safeTransferFrom",
      "outputs": [],
      "stateMutability": "nonpayable",
      "type": "function"
    },
    {
      "inputs": [
        {
          "internalType": "address",
          "name": "operator",
          "type": "address"
        },
        {
          "internalType": "bool",
          "name": "approved",
          "type": "bool"
        }
      ],
      "name": "setApprovalForAll",
      "outputs": [],
      "stateMutability": "nonpayable",
      "type": "function"
    },
    {
      "inputs": [
        {
          "internalType": "bytes4",
          "name": "interfaceId",
          "type": "bytes4"
        }
      ],
      "name": "supportsInterface",
      "outputs": [
        {
          "internalType": "bool",
          "name": "",
          "type": "bool"
        }
      ],
      "stateMutability": "view",
      "type": "function",
      "constant": true
    },
    {
      "inputs": [
        {
          "internalType": "uint256",
          "name": "",
          "type": "uint256"
        }
      ],
      "name": "uri",
      "outputs": [
        {
          "internalType": "string",
          "name": "",
          "type": "string"
        }
      ],
      "stateMutability": "view",
      "type": "function",
      "constant": true
    },
    {
      "inputs": [
        {
          "internalType": "string",
          "name": "_cbtokenid",
          "type": "string"
        },
        {
          "internalType": "uint256",
          "name": "_amount",
          "type": "uint256"
        },
        {
          "internalType": "string[]",
          "name": "_feedids",
          "type": "string[]"
        },
        {
          "internalType": "uint256",
          "name": "_startdate",
          "type": "uint256"
        },
        {
          "internalType": "uint256",
          "name": "_enddate",
          "type": "uint256"
        }
      ],
      "name": "issue",
      "outputs": [],
      "stateMutability": "nonpayable",
      "type": "function"
    },
    {
      "inputs": [
        {
          "internalType": "string",
          "name": "_cbtokenid",
          "type": "string"
        },
        {
          "internalType": "string",
          "name": "_distributionid",
          "type": "string"
        },
        {
          "internalType": "string",
          "name": "_farmid",
          "type": "string"
        },
        {
          "internalType": "uint256",
          "name": "_amount",
          "type": "uint256"
        }
      ],
      "name": "distribute",
      "outputs": [],
      "stateMutability": "nonpayable",
      "type": "function"
    },
    {
      "inputs": [
        {
          "internalType": "string",
          "name": "_distributionid",
          "type": "string"
        }
      ],
      "name": "update",
      "outputs": [],
      "stateMutability": "nonpayable",
      "type": "function"
    },
    {
      "inputs": [
        {
          "internalType": "string",
          "name": "_cbtokenid",
          "type": "string"
        }
      ],
      "name": "queryCarbonToken",
      "outputs": [
        {
          "internalType": "uint256",
          "name": "",
          "type": "uint256"
        },
        {
          "internalType": "uint256",
          "name": "",
          "type": "uint256"
        },
        {
          "internalType": "uint256",
          "name": "",
          "type": "uint256"
        },
        {
          "internalType": "uint256",
          "name": "",
          "type": "uint256"
        }
      ],
      "stateMutability": "view",
      "type": "function",
      "constant": true
    },
    {
      "inputs": [],
      "name": "queryAllCarbonToken",
      "outputs": [
        {
          "internalType": "string[]",
          "name": "",
          "type": "string[]"
        },
        {
          "internalType": "uint256[]",
          "name": "",
          "type": "uint256[]"
        },
        {
          "internalType": "uint256[]",
          "name": "",
          "type": "uint256[]"
        },
        {
          "internalType": "uint256[]",
          "name": "",
          "type": "uint256[]"
        },
        {
          "internalType": "uint256[]",
          "name": "",
          "type": "uint256[]"
        }
      ],
      "stateMutability": "view",
      "type": "function",
      "constant": true
    },
    {
      "inputs": [
        {
          "internalType": "string",
          "name": "_distributionid",
          "type": "string"
        }
      ],
      "name": "queryDistribution",
      "outputs": [
        {
          "internalType": "string",
          "name": "",
          "type": "string"
        },
        {
          "internalType": "uint256",
          "name": "",
          "type": "uint256"
        },
        {
          "internalType": "address",
          "name": "",
          "type": "address"
        },
        {
          "internalType": "bool",
          "name": "",
          "type": "bool"
        }
      ],
      "stateMutability": "view",
      "type": "function",
      "constant": true
    },
    {
      "inputs": [],
      "name": "queryAllDistribution",
      "outputs": [
        {
          "internalType": "string[]",
          "name": "",
          "type": "string[]"
        },
        {
          "internalType": "string[]",
          "name": "",
          "type": "string[]"
        },
        {
          "internalType": "uint256[]",
          "name": "",
          "type": "uint256[]"
        },
        {
          "internalType": "address[]",
          "name": "",
          "type": "address[]"
        },
        {
          "internalType": "bool[]",
          "name": "",
          "type": "bool[]"
        }
      ],
      "stateMutability": "view",
      "type": "function",
      "constant": true
    }
  ],
  "bytecode": "0x60806040523480156200001157600080fd5b50604051620058a6380380620058a68339818101604052810190620000379190620002e7565b8362000049816200015860201b60201c565b5033600360006101000a81548173ffffffffffffffffffffffffffffffffffffffff021916908373ffffffffffffffffffffffffffffffffffffffff16021790555082600460006101000a81548173ffffffffffffffffffffffffffffffffffffffff021916908373ffffffffffffffffffffffffffffffffffffffff16021790555081600560006101000a81548173ffffffffffffffffffffffffffffffffffffffff021916908373ffffffffffffffffffffffffffffffffffffffff16021790555080600660006101000a81548173ffffffffffffffffffffffffffffffffffffffff021916908373ffffffffffffffffffffffffffffffffffffffff16021790555050505050620005ba565b80600290805190602001906200017092919062000174565b5050565b82805462000182906200047d565b90600052602060002090601f016020900481019282620001a65760008555620001f2565b82601f10620001c157805160ff1916838001178555620001f2565b82800160010185558215620001f2579182015b82811115620001f1578251825591602001919060010190620001d4565b5b50905062000201919062000205565b5090565b5b808211156200022057600081600090555060010162000206565b5090565b60006200023b6200023584620003a1565b62000378565b9050828152602081018484840111156200025a57620002596200054c565b5b6200026784828562000447565b509392505050565b60008151905062000280816200056c565b92915050565b600081519050620002978162000586565b92915050565b600081519050620002ae81620005a0565b92915050565b600082601f830112620002cc57620002cb62000547565b5b8151620002de84826020860162000224565b91505092915050565b6000806000806080858703121562000304576200030362000556565b5b600085015167ffffffffffffffff81111562000325576200032462000551565b5b6200033387828801620002b4565b9450506020620003468782880162000286565b935050604062000359878288016200029d565b92505060606200036c878288016200026f565b91505092959194509250565b60006200038462000397565b9050620003928282620004b3565b919050565b6000604051905090565b600067ffffffffffffffff821115620003bf57620003be62000518565b5b620003ca826200055b565b9050602081019050919050565b6000620003e48262000427565b9050919050565b6000620003f882620003d7565b9050919050565b60006200040c82620003d7565b9050919050565b60006200042082620003d7565b9050919050565b600073ffffffffffffffffffffffffffffffffffffffff82169050919050565b60005b83811015620004675780820151818401526020810190506200044a565b8381111562000477576000848401525b50505050565b600060028204905060018216806200049657607f821691505b60208210811415620004ad57620004ac620004e9565b5b50919050565b620004be826200055b565b810181811067ffffffffffffffff82111715620004e057620004df62000518565b5b80604052505050565b7f4e487b7100000000000000000000000000000000000000000000000000000000600052602260045260246000fd5b7f4e487b7100000000000000000000000000000000000000000000000000000000600052604160045260246000fd5b600080fd5b600080fd5b600080fd5b600080fd5b6000601f19601f8301169050919050565b6200057781620003eb565b81146200058357600080fd5b50565b6200059181620003ff565b81146200059d57600080fd5b50565b620005ab8162000413565b8114620005b757600080fd5b50565b6152dc80620005ca6000396000f3fe608060405234801561001057600080fd5b50600436106101725760003560e01c80634e1273f4116100de578063a22cb46511610097578063e985e9c511610071578063e985e9c5146104ba578063f242432a146104ea578063f851a44014610506578063ffa651441461052457610172565b8063a22cb4651461043b578063ace1a68e14610457578063d4b786551461048a57610172565b80634e1273f414610352578063503257241461038257806358536d9f146103b55780637ac59313146103d157806390061628146103ed57806397fc6e9f1461040b57610172565b80631980e14c116101305780631980e14c146102885780632eb2c2d6146102aa578063354e5c1f146102c65780633d7403a3146102e857806347fe1455146103045780634def8f8b1461033457610172565b8062fdd58e1461017757806301ffc9a7146101a75780630a3909bb146101d75780630e89341c146102075780630f65d02f14610237578063110eed2e1461026a575b600080fd5b610191600480360381019061018c9190613779565b610557565b60405161019e91906146ba565b60405180910390f35b6101c160048036038101906101bc9190613831565b610620565b6040516101ce91906143c0565b60405180910390f35b6101f160048036038101906101ec9190613b23565b610702565b6040516101fe919061442c565b60405180910390f35b610221600480360381019061021c9190613b23565b6107ae565b60405161022e919061442c565b60405180910390f35b610251600480360381019061024c919061388b565b610842565b604051610261949392919061444e565b60405180910390f35b610272610a03565b60405161027f91906143f6565b60405180910390f35b610290610a29565b6040516102a19594939291906142f1565b60405180910390f35b6102c460048036038101906102bf91906135d3565b610e03565b005b6102ce610ea4565b6040516102df95949392919061427b565b60405180910390f35b61030260048036038101906102fd919061388b565b61136b565b005b61031e6004803603810190610319919061388b565b6114a3565b60405161032b91906143c0565b60405180910390f35b61033c6114d9565b60405161034991906143db565b60405180910390f35b61036c600480360381019061036791906137b9565b6114ff565b6040516103799190614367565b60405180910390f35b61039c6004803603810190610397919061388b565b611618565b6040516103ac94939291906146fe565b60405180910390f35b6103cf60048036038101906103ca9190613a70565b611720565b005b6103eb60048036038101906103e691906139b5565b611b40565b005b6103f5611f50565b6040516104029190614411565b60405180910390f35b6104256004803603810190610420919061388b565b611f76565b60405161043291906143c0565b60405180910390f35b61045560048036038101906104509190613739565b611fac565b005b610471600480360381019061046c919061388b565b611fc2565b604051610481949392919061444e565b60405180910390f35b6104a4600480360381019061049f9190613b23565b6120bd565b6040516104b1919061442c565b60405180910390f35b6104d460048036038101906104cf9190613593565b612169565b6040516104e191906143c0565b60405180910390f35b61050460048036038101906104ff91906136a2565b6121fd565b005b61050e61229e565b60405161051b919061419e565b60405180910390f35b61053e6004803603810190610539919061388b565b6122c4565b60405161054e94939291906146fe565b60405180910390f35b60008073ffffffffffffffffffffffffffffffffffffffff168373ffffffffffffffffffffffffffffffffffffffff1614156105c8576040517f08c379a00000000000000000000000000000000000000000000000000000000081526004016105bf9061453a565b60405180910390fd5b60008083815260200190815260200160002060008473ffffffffffffffffffffffffffffffffffffffff1673ffffffffffffffffffffffffffffffffffffffff16815260200190815260200160002054905092915050565b60007fd9b67a26000000000000000000000000000000000000000000000000000000007bffffffffffffffffffffffffffffffffffffffffffffffffffffffff1916827bffffffffffffffffffffffffffffffffffffffffffffffffffffffff191614806106eb57507f0e89341c000000000000000000000000000000000000000000000000000000007bffffffffffffffffffffffffffffffffffffffffffffffffffffffff1916827bffffffffffffffffffffffffffffffffffffffffffffffffffffffff1916145b806106fb57506106fa8261230a565b5b9050919050565b600c818154811061071257600080fd5b90600052602060002001600091509050805461072d90614b0f565b80601f016020809104026020016040519081016040528092919081815260200182805461075990614b0f565b80156107a65780601f1061077b576101008083540402835291602001916107a6565b820191906000526020600020905b81548152906001019060200180831161078957829003601f168201915b505050505081565b6060600280546107bd90614b0f565b80601f01602080910402602001604051908101604052809291908181526020018280546107e990614b0f565b80156108365780601f1061080b57610100808354040283529160200191610836565b820191906000526020600020905b81548152906001019060200180831161081957829003601f168201915b50505050509050919050565b60606000806000600a856040516108599190614170565b908152602001604051809103902060009054906101000a900460ff166108b4576040517f08c379a00000000000000000000000000000000000000000000000000000000081526004016108ab906145ba565b60405180910390fd5b6009856040516108c49190614170565b90815260200160405180910390206000016009866040516108e59190614170565b9081526020016040518091039020600101546009876040516109079190614170565b908152602001604051809103902060020160009054906101000a900473ffffffffffffffffffffffffffffffffffffffff166009886040516109499190614170565b908152602001604051809103902060020160149054906101000a900460ff1683805461097490614b0f565b80601f01602080910402602001604051908101604052809291908181526020018280546109a090614b0f565b80156109ed5780601f106109c2576101008083540402835291602001916109ed565b820191906000526020600020905b8154815290600101906020018083116109d057829003601f168201915b5050505050935093509350935093509193509193565b600460009054906101000a900473ffffffffffffffffffffffffffffffffffffffff1681565b60608060608060606000600b8054905067ffffffffffffffff811115610a5257610a51614c48565b5b604051908082528060200260200182016040528015610a805781602001602082028036833780820191505090505b5090506000600b8054905067ffffffffffffffff811115610aa457610aa3614c48565b5b604051908082528060200260200182016040528015610ad25781602001602082028036833780820191505090505b5090506000600b8054905067ffffffffffffffff811115610af657610af5614c48565b5b604051908082528060200260200182016040528015610b245781602001602082028036833780820191505090505b5090506000600b8054905067ffffffffffffffff811115610b4857610b47614c48565b5b604051908082528060200260200182016040528015610b765781602001602082028036833780820191505090505b50905060005b600b80549050811015610d14576007600b8281548110610b9f57610b9e614c19565b5b90600052602060002001604051610bb69190614187565b908152602001604051809103902060000154858281518110610bdb57610bda614c19565b5b6020026020010181815250506007600b8281548110610bfd57610bfc614c19565b5b90600052602060002001604051610c149190614187565b908152602001604051809103902060010154848281518110610c3957610c38614c19565b5b6020026020010181815250506007600b8281548110610c5b57610c5a614c19565b5b90600052602060002001604051610c729190614187565b908152602001604051809103902060020154838281518110610c9757610c96614c19565b5b6020026020010181815250506007600b8281548110610cb957610cb8614c19565b5b90600052602060002001604051610cd09190614187565b908152602001604051809103902060030154828281518110610cf557610cf4614c19565b5b6020026020010181815250508080610d0c90614b72565b915050610b7c565b50600b8484848484805480602002602001604051908101604052809291908181526020016000905b82821015610de8578382906000526020600020018054610d5b90614b0f565b80601f0160208091040260200160405190810160405280929190818152602001828054610d8790614b0f565b8015610dd45780601f10610da957610100808354040283529160200191610dd4565b820191906000526020600020905b815481529060010190602001808311610db757829003601f168201915b505050505081526020019060010190610d3c565b50505050945098509850985098509850505050509091929394565b610e0b612374565b73ffffffffffffffffffffffffffffffffffffffff168573ffffffffffffffffffffffffffffffffffffffff161480610e515750610e5085610e4b612374565b612169565b5b610e90576040517f08c379a0000000000000000000000000000000000000000000000000000000008152600401610e87906144ba565b60405180910390fd5b610e9d858585858561237c565b5050505050565b60608060608060606000600c8054905067ffffffffffffffff811115610ecd57610ecc614c48565b5b604051908082528060200260200182016040528015610f0057816020015b6060815260200190600190039081610eeb5790505b5090506000600c8054905067ffffffffffffffff811115610f2457610f23614c48565b5b604051908082528060200260200182016040528015610f525781602001602082028036833780820191505090505b5090506000600c8054905067ffffffffffffffff811115610f7657610f75614c48565b5b604051908082528060200260200182016040528015610fa45781602001602082028036833780820191505090505b5090506000600c8054905067ffffffffffffffff811115610fc857610fc7614c48565b5b604051908082528060200260200182016040528015610ff65781602001602082028036833780820191505090505b50905060005b600c8054905081101561127c576009600c828154811061101f5761101e614c19565b5b906000526020600020016040516110369190614187565b9081526020016040518091039020600001805461105290614b0f565b80601f016020809104026020016040519081016040528092919081815260200182805461107e90614b0f565b80156110cb5780601f106110a0576101008083540402835291602001916110cb565b820191906000526020600020905b8154815290600101906020018083116110ae57829003601f168201915b50505050508582815181106110e3576110e2614c19565b5b60200260200101819052506009600c828154811061110457611103614c19565b5b9060005260206000200160405161111b9190614187565b9081526020016040518091039020600101548482815181106111405761113f614c19565b5b6020026020010181815250506009600c828154811061116257611161614c19565b5b906000526020600020016040516111799190614187565b908152602001604051809103902060020160009054906101000a900473ffffffffffffffffffffffffffffffffffffffff168382815181106111be576111bd614c19565b5b602002602001019073ffffffffffffffffffffffffffffffffffffffff16908173ffffffffffffffffffffffffffffffffffffffff16815250506009600c828154811061120e5761120d614c19565b5b906000526020600020016040516112259190614187565b908152602001604051809103902060020160149054906101000a900460ff1682828151811061125757611256614c19565b5b602002602001019015159081151581525050808061127490614b72565b915050610ffc565b50600c8484848484805480602002602001604051908101604052809291908181526020016000905b828210156113505783829060005260206000200180546112c390614b0f565b80601f01602080910402602001604051908101604052809291908181526020018280546112ef90614b0f565b801561133c5780601f106113115761010080835404028352916020019161133c565b820191906000526020600020905b81548152906001019060200180831161131f57829003601f168201915b5050505050815260200190600101906112a4565b50505050945098509850985098509850505050509091929394565b600360009054906101000a900473ffffffffffffffffffffffffffffffffffffffff1673ffffffffffffffffffffffffffffffffffffffff163373ffffffffffffffffffffffffffffffffffffffff16146113fb576040517f08c379a00000000000000000000000000000000000000000000000000000000081526004016113f2906145da565b60405180910390fd5b600a8160405161140b9190614170565b908152602001604051809103902060009054906101000a900460ff16611466576040517f08c379a000000000000000000000000000000000000000000000000000000000815260040161145d906145ba565b60405180910390fd5b60016009826040516114789190614170565b908152602001604051809103902060020160146101000a81548160ff02191690831515021790555050565b600a818051602081018201805184825260208301602085012081835280955050505050506000915054906101000a900460ff1681565b600660009054906101000a900473ffffffffffffffffffffffffffffffffffffffff1681565b60608151835114611545576040517f08c379a000000000000000000000000000000000000000000000000000000000815260040161153c9061463a565b60405180910390fd5b6000835167ffffffffffffffff81111561156257611561614c48565b5b6040519080825280602002602001820160405280156115905781602001602082028036833780820191505090505b50905060005b845181101561160d576115dd8582815181106115b5576115b4614c19565b5b60200260200101518583815181106115d0576115cf614c19565b5b6020026020010151610557565b8282815181106115f0576115ef614c19565b5b6020026020010181815250508061160690614b72565b9050611596565b508091505092915050565b60008060008060088560405161162e9190614170565b908152602001604051809103902060009054906101000a900460ff16611689576040517f08c379a00000000000000000000000000000000000000000000000000000000081526004016116809061451a565b60405180910390fd5b6007856040516116999190614170565b9081526020016040518091039020600001546007866040516116bb9190614170565b9081526020016040518091039020600101546007876040516116dd9190614170565b9081526020016040518091039020600201546007886040516116ff9190614170565b90815260200160405180910390206003015493509350935093509193509193565b600360009054906101000a900473ffffffffffffffffffffffffffffffffffffffff1673ffffffffffffffffffffffffffffffffffffffff163373ffffffffffffffffffffffffffffffffffffffff16146117b0576040517f08c379a00000000000000000000000000000000000000000000000000000000081526004016117a79061467a565b60405180910390fd5b600015156008866040516117c49190614170565b908152602001604051809103902060009054906101000a900460ff16151514611822576040517f08c379a0000000000000000000000000000000000000000000000000000000008152600401611819906144fa565b60405180910390fd5b611860600360009054906101000a900473ffffffffffffffffffffffffffffffffffffffff166000866040518060200160405280600081525061269e565b60005b8351811015611a5a57600080600080600080600560009054906101000a900473ffffffffffffffffffffffffffffffffffffffff1673ffffffffffffffffffffffffffffffffffffffff166398b226408b89815181106118c6576118c5614c19565b5b60200260200101516040518263ffffffff1660e01b81526004016118ea919061442c565b60006040518083038186803b15801561190257600080fd5b505afa158015611916573d6000803e3d6000fd5b505050506040513d6000823e3d601f19601f8201168201806040525081019061193f91906138d4565b95509550955095509550955088821015801561195b5750878211155b61199a576040517f08c379a0000000000000000000000000000000000000000000000000000000008152600401611991906145fa565b60405180910390fd5b600560009054906101000a900473ffffffffffffffffffffffffffffffffffffffff1673ffffffffffffffffffffffffffffffffffffffff16634d1e6c7a8b89815181106119eb576119ea614c19565b5b60200260200101516040518263ffffffff1660e01b8152600401611a0f919061442c565b600060405180830381600087803b158015611a2957600080fd5b505af1158015611a3d573d6000803e3d6000fd5b505050505050505050508080611a5290614b72565b915050611863565b5060405180608001604052806000815260200185815260200183815260200182815250600786604051611a8d9190614170565b908152602001604051809103902060008201518160000155602082015181600101556040820151816002015560608201518160030155905050600b85908060018154018082558091505060019003906000526020600020016000909190919091509080519060200190611b019291906130d3565b506001600886604051611b149190614170565b908152602001604051809103902060006101000a81548160ff0219169083151502179055505050505050565b600360009054906101000a900473ffffffffffffffffffffffffffffffffffffffff1673ffffffffffffffffffffffffffffffffffffffff163373ffffffffffffffffffffffffffffffffffffffff1614611bd0576040517f08c379a0000000000000000000000000000000000000000000000000000000008152600401611bc79061455a565b60405180910390fd5b600884604051611be09190614170565b908152602001604051809103902060009054906101000a900460ff16611c3b576040517f08c379a0000000000000000000000000000000000000000000000000000000008152600401611c329061451a565b60405180910390fd5b611d44600360009054906101000a900473ffffffffffffffffffffffffffffffffffffffff16600460009054906101000a900473ffffffffffffffffffffffffffffffffffffffff1673ffffffffffffffffffffffffffffffffffffffff1663ac9f1276856040518263ffffffff1660e01b8152600401611cbc919061442c565b60206040518083038186803b158015611cd457600080fd5b505afa158015611ce8573d6000803e3d6000fd5b505050506040513d601f19601f82011682018060405250810190611d0c9190613566565b600787604051611d1c9190614170565b90815260200160405180910390206000015484604051806020016040528060008152506121fd565b6040518060800160405280858152602001828152602001600460009054906101000a900473ffffffffffffffffffffffffffffffffffffffff1673ffffffffffffffffffffffffffffffffffffffff1663ac9f1276856040518263ffffffff1660e01b8152600401611db6919061442c565b60206040518083038186803b158015611dce57600080fd5b505afa158015611de2573d6000803e3d6000fd5b505050506040513d601f19601f82011682018060405250810190611e069190613566565b73ffffffffffffffffffffffffffffffffffffffff16815260200160001515815250600984604051611e389190614170565b90815260200160405180910390206000820151816000019080519060200190611e629291906130d3565b506020820151816001015560408201518160020160006101000a81548173ffffffffffffffffffffffffffffffffffffffff021916908373ffffffffffffffffffffffffffffffffffffffff16021790555060608201518160020160146101000a81548160ff0219169083151502179055509050506001600a84604051611ee99190614170565b908152602001604051809103902060006101000a81548160ff021916908315150217905550600c83908060018154018082558091505060019003906000526020600020016000909190919091509080519060200190611f499291906130d3565b5050505050565b600560009054906101000a900473ffffffffffffffffffffffffffffffffffffffff1681565b6008818051602081018201805184825260208301602085012081835280955050505050506000915054906101000a900460ff1681565b611fbe611fb7612374565b838361284f565b5050565b600981805160208101820180518482526020830160208501208183528095505050505050600091509050806000018054611ffb90614b0f565b80601f016020809104026020016040519081016040528092919081815260200182805461202790614b0f565b80156120745780601f1061204957610100808354040283529160200191612074565b820191906000526020600020905b81548152906001019060200180831161205757829003601f168201915b5050505050908060010154908060020160009054906101000a900473ffffffffffffffffffffffffffffffffffffffff16908060020160149054906101000a900460ff16905084565b600b81815481106120cd57600080fd5b9060005260206000200160009150905080546120e890614b0f565b80601f016020809104026020016040519081016040528092919081815260200182805461211490614b0f565b80156121615780601f1061213657610100808354040283529160200191612161565b820191906000526020600020905b81548152906001019060200180831161214457829003601f168201915b505050505081565b6000600160008473ffffffffffffffffffffffffffffffffffffffff1673ffffffffffffffffffffffffffffffffffffffff16815260200190815260200160002060008373ffffffffffffffffffffffffffffffffffffffff1673ffffffffffffffffffffffffffffffffffffffff16815260200190815260200160002060009054906101000a900460ff16905092915050565b612205612374565b73ffffffffffffffffffffffffffffffffffffffff168573ffffffffffffffffffffffffffffffffffffffff16148061224b575061224a85612245612374565b612169565b5b61228a576040517f08c379a0000000000000000000000000000000000000000000000000000000008152600401612281906144ba565b60405180910390fd5b61229785858585856129bc565b5050505050565b600360009054906101000a900473ffffffffffffffffffffffffffffffffffffffff1681565b6007818051602081018201805184825260208301602085012081835280955050505050506000915090508060000154908060010154908060020154908060030154905084565b60007f01ffc9a7000000000000000000000000000000000000000000000000000000007bffffffffffffffffffffffffffffffffffffffffffffffffffffffff1916827bffffffffffffffffffffffffffffffffffffffffffffffffffffffff1916149050919050565b600033905090565b81518351146123c0576040517f08c379a00000000000000000000000000000000000000000000000000000000081526004016123b79061465a565b60405180910390fd5b600073ffffffffffffffffffffffffffffffffffffffff168473ffffffffffffffffffffffffffffffffffffffff161415612430576040517f08c379a00000000000000000000000000000000000000000000000000000000081526004016124279061457a565b60405180910390fd5b600061243a612374565b905061244a818787878787612c58565b60005b84518110156125fb57600085828151811061246b5761246a614c19565b5b60200260200101519050600085838151811061248a57612489614c19565b5b60200260200101519050600080600084815260200190815260200160002060008b73ffffffffffffffffffffffffffffffffffffffff1673ffffffffffffffffffffffffffffffffffffffff1681526020019081526020016000205490508181101561252b576040517f08c379a00000000000000000000000000000000000000000000000000000000081526004016125229061459a565b60405180910390fd5b81810360008085815260200190815260200160002060008c73ffffffffffffffffffffffffffffffffffffffff1673ffffffffffffffffffffffffffffffffffffffff168152602001908152602001600020819055508160008085815260200190815260200160002060008b73ffffffffffffffffffffffffffffffffffffffff1673ffffffffffffffffffffffffffffffffffffffff16815260200190815260200160002060008282546125e0919061499b565b92505081905550505050806125f490614b72565b905061244d565b508473ffffffffffffffffffffffffffffffffffffffff168673ffffffffffffffffffffffffffffffffffffffff168273ffffffffffffffffffffffffffffffffffffffff167f4a39dc06d4c0dbc64b70af90fd698a233a518aa5d07e595d983b8c0526c8f7fb8787604051612672929190614389565b60405180910390a4612688818787878787612c60565b612696818787878787612c68565b505050505050565b600073ffffffffffffffffffffffffffffffffffffffff168473ffffffffffffffffffffffffffffffffffffffff16141561270e576040517f08c379a00000000000000000000000000000000000000000000000000000000081526004016127059061469a565b60405180910390fd5b6000612718612374565b9050600061272585612e4f565b9050600061273285612e4f565b905061274383600089858589612c58565b8460008088815260200190815260200160002060008973ffffffffffffffffffffffffffffffffffffffff1673ffffffffffffffffffffffffffffffffffffffff16815260200190815260200160002060008282546127a2919061499b565b925050819055508673ffffffffffffffffffffffffffffffffffffffff16600073ffffffffffffffffffffffffffffffffffffffff168473ffffffffffffffffffffffffffffffffffffffff167fc3d58168c5ae7397731d063d5bbf3d657854427343f4c083240f7aacaa2d0f6289896040516128209291906146d5565b60405180910390a461283783600089858589612c60565b61284683600089898989612ec9565b50505050505050565b8173ffffffffffffffffffffffffffffffffffffffff168373ffffffffffffffffffffffffffffffffffffffff1614156128be576040517f08c379a00000000000000000000000000000000000000000000000000000000081526004016128b59061461a565b60405180910390fd5b80600160008573ffffffffffffffffffffffffffffffffffffffff1673ffffffffffffffffffffffffffffffffffffffff16815260200190815260200160002060008473ffffffffffffffffffffffffffffffffffffffff1673ffffffffffffffffffffffffffffffffffffffff16815260200190815260200160002060006101000a81548160ff0219169083151502179055508173ffffffffffffffffffffffffffffffffffffffff168373ffffffffffffffffffffffffffffffffffffffff167f17307eab39ab6107e8899845ad3d59bd9653f200f220920489ca2b5937696c31836040516129af91906143c0565b60405180910390a3505050565b600073ffffffffffffffffffffffffffffffffffffffff168473ffffffffffffffffffffffffffffffffffffffff161415612a2c576040517f08c379a0000000000000000000000000000000000000000000000000000000008152600401612a239061457a565b60405180910390fd5b6000612a36612374565b90506000612a4385612e4f565b90506000612a5085612e4f565b9050612a60838989858589612c58565b600080600088815260200190815260200160002060008a73ffffffffffffffffffffffffffffffffffffffff1673ffffffffffffffffffffffffffffffffffffffff16815260200190815260200160002054905085811015612af7576040517f08c379a0000000000000000000000000000000000000000000000000000000008152600401612aee9061459a565b60405180910390fd5b85810360008089815260200190815260200160002060008b73ffffffffffffffffffffffffffffffffffffffff1673ffffffffffffffffffffffffffffffffffffffff168152602001908152602001600020819055508560008089815260200190815260200160002060008a73ffffffffffffffffffffffffffffffffffffffff1673ffffffffffffffffffffffffffffffffffffffff1681526020019081526020016000206000828254612bac919061499b565b925050819055508773ffffffffffffffffffffffffffffffffffffffff168973ffffffffffffffffffffffffffffffffffffffff168573ffffffffffffffffffffffffffffffffffffffff167fc3d58168c5ae7397731d063d5bbf3d657854427343f4c083240f7aacaa2d0f628a8a604051612c299291906146d5565b60405180910390a4612c3f848a8a86868a612c60565b612c4d848a8a8a8a8a612ec9565b505050505050505050565b505050505050565b505050505050565b612c878473ffffffffffffffffffffffffffffffffffffffff166130b0565b15612e47578373ffffffffffffffffffffffffffffffffffffffff1663bc197c8187878686866040518663ffffffff1660e01b8152600401612ccd9594939291906141b9565b602060405180830381600087803b158015612ce757600080fd5b505af1925050508015612d1857506040513d601f19601f82011682018060405250810190612d15919061385e565b60015b612dbe57612d24614c77565b806308c379a01415612d815750612d3961519d565b80612d445750612d83565b806040517f08c379a0000000000000000000000000000000000000000000000000000000008152600401612d78919061442c565b60405180910390fd5b505b6040517f08c379a0000000000000000000000000000000000000000000000000000000008152600401612db59061449a565b60405180910390fd5b63bc197c8160e01b7bffffffffffffffffffffffffffffffffffffffffffffffffffffffff1916817bffffffffffffffffffffffffffffffffffffffffffffffffffffffff191614612e45576040517f08c379a0000000000000000000000000000000000000000000000000000000008152600401612e3c906144da565b60405180910390fd5b505b505050505050565b60606000600167ffffffffffffffff811115612e6e57612e6d614c48565b5b604051908082528060200260200182016040528015612e9c5781602001602082028036833780820191505090505b5090508281600081518110612eb457612eb3614c19565b5b60200260200101818152505080915050919050565b612ee88473ffffffffffffffffffffffffffffffffffffffff166130b0565b156130a8578373ffffffffffffffffffffffffffffffffffffffff1663f23a6e6187878686866040518663ffffffff1660e01b8152600401612f2e959493929190614221565b602060405180830381600087803b158015612f4857600080fd5b505af1925050508015612f7957506040513d601f19601f82011682018060405250810190612f76919061385e565b60015b61301f57612f85614c77565b806308c379a01415612fe25750612f9a61519d565b80612fa55750612fe4565b806040517f08c379a0000000000000000000000000000000000000000000000000000000008152600401612fd9919061442c565b60405180910390fd5b505b6040517f08c379a00000000000000000000000000000000000000000000000000000000081526004016130169061449a565b60405180910390fd5b63f23a6e6160e01b7bffffffffffffffffffffffffffffffffffffffffffffffffffffffff1916817bffffffffffffffffffffffffffffffffffffffffffffffffffffffff1916146130a6576040517f08c379a000000000000000000000000000000000000000000000000000000000815260040161309d906144da565b60405180910390fd5b505b505050505050565b6000808273ffffffffffffffffffffffffffffffffffffffff163b119050919050565b8280546130df90614b0f565b90600052602060002090601f0160209004810192826131015760008555613148565b82601f1061311a57805160ff1916838001178555613148565b82800160010185558215613148579182015b8281111561314757825182559160200191906001019061312c565b5b5090506131559190613159565b5090565b5b8082111561317257600081600090555060010161315a565b5090565b600061318961318484614768565b614743565b905080838252602082019050828560208602820111156131ac576131ab614c9e565b5b60005b858110156131dc57816131c288826133aa565b8452602084019350602083019250506001810190506131af565b5050509392505050565b60006131f96131f484614794565b614743565b9050808382526020820190508285602086028201111561321c5761321b614c9e565b5b60005b8581101561326a57813567ffffffffffffffff81111561324257613241614c99565b5b80860161324f89826134cb565b8552602085019450602084019350505060018101905061321f565b5050509392505050565b6000613287613282846147c0565b614743565b905080838252602082019050828560208602820111156132aa576132a9614c9e565b5b60005b858110156132da57816132c0888261353c565b8452602084019350602083019250506001810190506132ad565b5050509392505050565b60006132f76132f2846147ec565b614743565b90508281526020810184848401111561331357613312614ca3565b5b61331e848285614acd565b509392505050565b60006133396133348461481d565b614743565b90508281526020810184848401111561335557613354614ca3565b5b613360848285614acd565b509392505050565b600061337b6133768461481d565b614743565b90508281526020810184848401111561339757613396614ca3565b5b6133a2848285614adc565b509392505050565b6000813590506133b981615233565b92915050565b6000815190506133ce81615233565b92915050565b600082601f8301126133e9576133e8614c99565b5b81356133f9848260208601613176565b91505092915050565b600082601f83011261341757613416614c99565b5b81356134278482602086016131e6565b91505092915050565b600082601f83011261344557613444614c99565b5b8135613455848260208601613274565b91505092915050565b60008135905061346d8161524a565b92915050565b60008135905061348281615261565b92915050565b60008151905061349781615261565b92915050565b600082601f8301126134b2576134b1614c99565b5b81356134c28482602086016132e4565b91505092915050565b600082601f8301126134e0576134df614c99565b5b81356134f0848260208601613326565b91505092915050565b600082601f83011261350e5761350d614c99565b5b815161351e848260208601613368565b91505092915050565b60008151905061353681615278565b92915050565b60008135905061354b8161528f565b92915050565b6000815190506135608161528f565b92915050565b60006020828403121561357c5761357b614cad565b5b600061358a848285016133bf565b91505092915050565b600080604083850312156135aa576135a9614cad565b5b60006135b8858286016133aa565b92505060206135c9858286016133aa565b9150509250929050565b600080600080600060a086880312156135ef576135ee614cad565b5b60006135fd888289016133aa565b955050602061360e888289016133aa565b945050604086013567ffffffffffffffff81111561362f5761362e614ca8565b5b61363b88828901613430565b935050606086013567ffffffffffffffff81111561365c5761365b614ca8565b5b61366888828901613430565b925050608086013567ffffffffffffffff81111561368957613688614ca8565b5b6136958882890161349d565b9150509295509295909350565b600080600080600060a086880312156136be576136bd614cad565b5b60006136cc888289016133aa565b95505060206136dd888289016133aa565b94505060406136ee8882890161353c565b93505060606136ff8882890161353c565b925050608086013567ffffffffffffffff8111156137205761371f614ca8565b5b61372c8882890161349d565b9150509295509295909350565b600080604083850312156137505761374f614cad565b5b600061375e858286016133aa565b925050602061376f8582860161345e565b9150509250929050565b600080604083850312156137905761378f614cad565b5b600061379e858286016133aa565b92505060206137af8582860161353c565b9150509250929050565b600080604083850312156137d0576137cf614cad565b5b600083013567ffffffffffffffff8111156137ee576137ed614ca8565b5b6137fa858286016133d4565b925050602083013567ffffffffffffffff81111561381b5761381a614ca8565b5b61382785828601613430565b9150509250929050565b60006020828403121561384757613846614cad565b5b600061385584828501613473565b91505092915050565b60006020828403121561387457613873614cad565b5b600061388284828501613488565b91505092915050565b6000602082840312156138a1576138a0614cad565b5b600082013567ffffffffffffffff8111156138bf576138be614ca8565b5b6138cb848285016134cb565b91505092915050565b60008060008060008060c087890312156138f1576138f0614cad565b5b600087015167ffffffffffffffff81111561390f5761390e614ca8565b5b61391b89828a016134f9565b965050602087015167ffffffffffffffff81111561393c5761393b614ca8565b5b61394889828a016134f9565b955050604087015167ffffffffffffffff81111561396957613968614ca8565b5b61397589828a016134f9565b945050606061398689828a01613527565b935050608061399789828a01613551565b92505060a06139a889828a01613551565b9150509295509295509295565b600080600080608085870312156139cf576139ce614cad565b5b600085013567ffffffffffffffff8111156139ed576139ec614ca8565b5b6139f9878288016134cb565b945050602085013567ffffffffffffffff811115613a1a57613a19614ca8565b5b613a26878288016134cb565b935050604085013567ffffffffffffffff811115613a4757613a46614ca8565b5b613a53878288016134cb565b9250506060613a648782880161353c565b91505092959194509250565b600080600080600060a08688031215613a8c57613a8b614cad565b5b600086013567ffffffffffffffff811115613aaa57613aa9614ca8565b5b613ab6888289016134cb565b9550506020613ac78882890161353c565b945050604086013567ffffffffffffffff811115613ae857613ae7614ca8565b5b613af488828901613402565b9350506060613b058882890161353c565b9250506080613b168882890161353c565b9150509295509295909350565b600060208284031215613b3957613b38614cad565b5b6000613b478482850161353c565b91505092915050565b6000613b5c8383613bac565b60208301905092915050565b6000613b748383613d59565b60208301905092915050565b6000613b8c8383613ddd565b905092915050565b6000613ba08383614152565b60208301905092915050565b613bb5816149f1565b82525050565b613bc4816149f1565b82525050565b6000613bd5826148a3565b613bdf8185614919565b9350613bea8361484e565b8060005b83811015613c1b578151613c028882613b50565b9750613c0d836148e5565b925050600181019050613bee565b5085935050505092915050565b6000613c33826148ae565b613c3d818561492a565b9350613c488361485e565b8060005b83811015613c79578151613c608882613b68565b9750613c6b836148f2565b925050600181019050613c4c565b5085935050505092915050565b6000613c91826148b9565b613c9b818561493b565b935083602082028501613cad8561486e565b8060005b85811015613ce95784840389528151613cca8582613b80565b9450613cd5836148ff565b925060208a01995050600181019050613cb1565b50829750879550505050505092915050565b6000613d06826148c4565b613d10818561494c565b9350613d1b8361487e565b8060005b83811015613d4c578151613d338882613b94565b9750613d3e8361490c565b925050600181019050613d1f565b5085935050505092915050565b613d6281614a03565b82525050565b613d7181614a03565b82525050565b6000613d82826148cf565b613d8c818561495d565b9350613d9c818560208601614adc565b613da581614cb2565b840191505092915050565b613db981614a73565b82525050565b613dc881614a85565b82525050565b613dd781614a97565b82525050565b6000613de8826148da565b613df2818561496e565b9350613e02818560208601614adc565b613e0b81614cb2565b840191505092915050565b6000613e21826148da565b613e2b818561497f565b9350613e3b818560208601614adc565b613e4481614cb2565b840191505092915050565b6000613e5a826148da565b613e648185614990565b9350613e74818560208601614adc565b80840191505092915050565b60008154613e8d81614b0f565b613e978186614990565b94506001821660008114613eb25760018114613ec357613ef6565b60ff19831686528186019350613ef6565b613ecc8561488e565b60005b83811015613eee57815481890152600182019150602081019050613ecf565b838801955050505b50505092915050565b6000613f0c60348361497f565b9150613f1782614cd0565b604082019050919050565b6000613f2f602f8361497f565b9150613f3a82614d1f565b604082019050919050565b6000613f5260288361497f565b9150613f5d82614d6e565b604082019050919050565b6000613f75601f8361497f565b9150613f8082614dbd565b602082019050919050565b6000613f98601f8361497f565b9150613fa382614de6565b602082019050919050565b6000613fbb602a8361497f565b9150613fc682614e0f565b604082019050919050565b6000613fde60288361497f565b9150613fe982614e5e565b604082019050919050565b600061400160258361497f565b915061400c82614ead565b604082019050919050565b6000614024602a8361497f565b915061402f82614efc565b604082019050919050565b6000614047601f8361497f565b915061405282614f4b565b602082019050919050565b600061406a602a8361497f565b915061407582614f74565b604082019050919050565b600061408d60358361497f565b915061409882614fc3565b604082019050919050565b60006140b060298361497f565b91506140bb82615012565b604082019050919050565b60006140d360298361497f565b91506140de82615061565b604082019050919050565b60006140f660288361497f565b9150614101826150b0565b604082019050919050565b600061411960238361497f565b9150614124826150ff565b604082019050919050565b600061413c60218361497f565b91506141478261514e565b604082019050919050565b61415b81614a69565b82525050565b61416a81614a69565b82525050565b600061417c8284613e4f565b915081905092915050565b60006141938284613e80565b915081905092915050565b60006020820190506141b36000830184613bbb565b92915050565b600060a0820190506141ce6000830188613bbb565b6141db6020830187613bbb565b81810360408301526141ed8186613cfb565b905081810360608301526142018185613cfb565b905081810360808301526142158184613d77565b90509695505050505050565b600060a0820190506142366000830188613bbb565b6142436020830187613bbb565b6142506040830186614161565b61425d6060830185614161565b818103608083015261426f8184613d77565b90509695505050505050565b600060a08201905081810360008301526142958188613c86565b905081810360208301526142a98187613c86565b905081810360408301526142bd8186613cfb565b905081810360608301526142d18185613bca565b905081810360808301526142e58184613c28565b90509695505050505050565b600060a082019050818103600083015261430b8188613c86565b9050818103602083015261431f8187613cfb565b905081810360408301526143338186613cfb565b905081810360608301526143478185613cfb565b9050818103608083015261435b8184613cfb565b90509695505050505050565b600060208201905081810360008301526143818184613cfb565b905092915050565b600060408201905081810360008301526143a38185613cfb565b905081810360208301526143b78184613cfb565b90509392505050565b60006020820190506143d56000830184613d68565b92915050565b60006020820190506143f06000830184613db0565b92915050565b600060208201905061440b6000830184613dbf565b92915050565b60006020820190506144266000830184613dce565b92915050565b600060208201905081810360008301526144468184613e16565b905092915050565b600060808201905081810360008301526144688187613e16565b90506144776020830186614161565b6144846040830185613bbb565b6144916060830184613d68565b95945050505050565b600060208201905081810360008301526144b381613eff565b9050919050565b600060208201905081810360008301526144d381613f22565b9050919050565b600060208201905081810360008301526144f381613f45565b9050919050565b6000602082019050818103600083015261451381613f68565b9050919050565b6000602082019050818103600083015261453381613f8b565b9050919050565b6000602082019050818103600083015261455381613fae565b9050919050565b6000602082019050818103600083015261457381613fd1565b9050919050565b6000602082019050818103600083015261459381613ff4565b9050919050565b600060208201905081810360008301526145b381614017565b9050919050565b600060208201905081810360008301526145d38161403a565b9050919050565b600060208201905081810360008301526145f38161405d565b9050919050565b6000602082019050818103600083015261461381614080565b9050919050565b60006020820190508181036000830152614633816140a3565b9050919050565b60006020820190508181036000830152614653816140c6565b9050919050565b60006020820190508181036000830152614673816140e9565b9050919050565b600060208201905081810360008301526146938161410c565b9050919050565b600060208201905081810360008301526146b38161412f565b9050919050565b60006020820190506146cf6000830184614161565b92915050565b60006040820190506146ea6000830185614161565b6146f76020830184614161565b9392505050565b60006080820190506147136000830187614161565b6147206020830186614161565b61472d6040830185614161565b61473a6060830184614161565b95945050505050565b600061474d61475e565b90506147598282614b41565b919050565b6000604051905090565b600067ffffffffffffffff82111561478357614782614c48565b5b602082029050602081019050919050565b600067ffffffffffffffff8211156147af576147ae614c48565b5b602082029050602081019050919050565b600067ffffffffffffffff8211156147db576147da614c48565b5b602082029050602081019050919050565b600067ffffffffffffffff82111561480757614806614c48565b5b61481082614cb2565b9050602081019050919050565b600067ffffffffffffffff82111561483857614837614c48565b5b61484182614cb2565b9050602081019050919050565b6000819050602082019050919050565b6000819050602082019050919050565b6000819050602082019050919050565b6000819050602082019050919050565b60008190508160005260206000209050919050565b600081519050919050565b600081519050919050565b600081519050919050565b600081519050919050565b600081519050919050565b600081519050919050565b6000602082019050919050565b6000602082019050919050565b6000602082019050919050565b6000602082019050919050565b600082825260208201905092915050565b600082825260208201905092915050565b600082825260208201905092915050565b600082825260208201905092915050565b600082825260208201905092915050565b600082825260208201905092915050565b600082825260208201905092915050565b600081905092915050565b60006149a682614a69565b91506149b183614a69565b9250827fffffffffffffffffffffffffffffffffffffffffffffffffffffffffffffffff038211156149e6576149e5614bbb565b5b828201905092915050565b60006149fc82614a49565b9050919050565b60008115159050919050565b60007fffffffff0000000000000000000000000000000000000000000000000000000082169050919050565b600061ffff82169050919050565b600073ffffffffffffffffffffffffffffffffffffffff82169050919050565b6000819050919050565b6000614a7e82614aa9565b9050919050565b6000614a9082614aa9565b9050919050565b6000614aa282614aa9565b9050919050565b6000614ab482614abb565b9050919050565b6000614ac682614a49565b9050919050565b82818337600083830152505050565b60005b83811015614afa578082015181840152602081019050614adf565b83811115614b09576000848401525b50505050565b60006002820490506001821680614b2757607f821691505b60208210811415614b3b57614b3a614bea565b5b50919050565b614b4a82614cb2565b810181811067ffffffffffffffff82111715614b6957614b68614c48565b5b80604052505050565b6000614b7d82614a69565b91507fffffffffffffffffffffffffffffffffffffffffffffffffffffffffffffffff821415614bb057614baf614bbb565b5b600182019050919050565b7f4e487b7100000000000000000000000000000000000000000000000000000000600052601160045260246000fd5b7f4e487b7100000000000000000000000000000000000000000000000000000000600052602260045260246000fd5b7f4e487b7100000000000000000000000000000000000000000000000000000000600052603260045260246000fd5b7f4e487b7100000000000000000000000000000000000000000000000000000000600052604160045260246000fd5b600060033d1115614c965760046000803e614c93600051614cc3565b90505b90565b600080fd5b600080fd5b600080fd5b600080fd5b600080fd5b6000601f19601f8301169050919050565b60008160e01c9050919050565b7f455243313135353a207472616e7366657220746f206e6f6e204552433131353560008201527f526563656976657220696d706c656d656e746572000000000000000000000000602082015250565b7f455243313135353a2063616c6c6572206973206e6f7420746f6b656e206f776e60008201527f6572206e6f7220617070726f7665640000000000000000000000000000000000602082015250565b7f455243313135353a204552433131353552656365697665722072656a6563746560008201527f6420746f6b656e73000000000000000000000000000000000000000000000000602082015250565b7f436172626f6e20746f6b656e20696420616c7265616479206578697374732e00600082015250565b7f436172626f6e20546f6b656e20494420646f6573206e6f742065786973742e00600082015250565b7f455243313135353a2061646472657373207a65726f206973206e6f742061207660008201527f616c6964206f776e657200000000000000000000000000000000000000000000602082015250565b7f4f6e6c792061646d696e2063616e206469737472696275746520436172626f6e60008201527f20546f6b656e732e000000000000000000000000000000000000000000000000602082015250565b7f455243313135353a207472616e7366657220746f20746865207a65726f20616460008201527f6472657373000000000000000000000000000000000000000000000000000000602082015250565b7f455243313135353a20696e73756666696369656e742062616c616e636520666f60008201527f72207472616e7366657200000000000000000000000000000000000000000000602082015250565b7f446973747269627574696f6e20494420646f6573206e6f742065786973742e00600082015250565b7f4f6e6c792061646d696e2063616e2075706461746520436172626f6e20546f6b60008201527f656e207374617475732e00000000000000000000000000000000000000000000602082015250565b7f546865207370656369666965642066656564207265636f7264206973206e6f7460008201527f20696e2074686520636c61696d20706572696f642e0000000000000000000000602082015250565b7f455243313135353a2073657474696e6720617070726f76616c2073746174757360008201527f20666f722073656c660000000000000000000000000000000000000000000000602082015250565b7f455243313135353a206163636f756e747320616e6420696473206c656e67746860008201527f206d69736d617463680000000000000000000000000000000000000000000000602082015250565b7f455243313135353a2069647320616e6420616d6f756e7473206c656e6774682060008201527f6d69736d61746368000000000000000000000000000000000000000000000000602082015250565b7f4f6e6c792061646d696e2063616e20697373756520436172626f6e20546f6b6560008201527f6e732e0000000000000000000000000000000000000000000000000000000000602082015250565b7f455243313135353a206d696e7420746f20746865207a65726f2061646472657360008201527f7300000000000000000000000000000000000000000000000000000000000000602082015250565b600060443d10156151ad57615230565b6151b561475e565b60043d036004823e80513d602482011167ffffffffffffffff821117156151dd575050615230565b808201805167ffffffffffffffff8111156151fb5750505050615230565b80602083010160043d038501811115615218575050505050615230565b61522782602001850186614b41565b82955050505050505b90565b61523c816149f1565b811461524757600080fd5b50565b61525381614a03565b811461525e57600080fd5b50565b61526a81614a0f565b811461527557600080fd5b50565b61528181614a3b565b811461528c57600080fd5b50565b61529881614a69565b81146152a357600080fd5b5056fea264697066735822122039355f364feb4881dcc70a571e3e78a220f1c31522b2e62170b24dfa606018ad64736f6c63430008070033",
  "immutableReferences": {},
  "source": "// SPDX-License-Identifier: MIT\npragma solidity ^0.8.0;\n\nimport \"../../node_modules/@openzeppelin/contracts/token/ERC1155/ERC1155.sol\";\nimport \"./FarmRegistry.sol\";\nimport \"./FeedTracking.sol\";\nimport \"./EmissionTracking.sol\";\n\ncontract CarbonToken is ERC1155 {\n    address public admin;\n    FarmRegistry public farmregistry;\n    FeedTracking public feedtracking;\n    EmissionTracking public emissiontracking;\n\n    // CBT's internal ids\n    // VERRA-0, ACCU-1, GOLDSTANDARD-2\n\n    struct CBToken {\n        uint256 InternalID; // the id used to mint a 1155 token\n        uint256 Amount;\n        uint256 StartDate;\n        uint256 EndDate;\n        // string[] FeedIDs; // the Carbon Token has to be linked to feed records\n    }\n\n    struct Distribution {\n        string CBTokenID;\n        uint256 Amount;\n        address Farmer;\n        bool Paid;\n    }\n\n    mapping(string => CBToken) public cbtokens;\n    mapping(string => bool) public cbtokenExists;\n    mapping(string => Distribution) public distributions;\n    mapping(string => bool) public distributionExists;\n    string[] public allcbtokens;\n    string[] public alldistributions;\n\n    constructor(string memory _uri, FarmRegistry _farmregistry, FeedTracking _feedtracking, EmissionTracking _emissiontracking)\n        ERC1155(_uri)\n    {\n        admin = msg.sender;\n        farmregistry = _farmregistry;\n        feedtracking = _feedtracking;\n        emissiontracking = _emissiontracking;\n    }\n\n    function issue(string memory _cbtokenid, uint256 _amount, string[] memory _feedids, uint256 _startdate, uint256 _enddate) public {\n        require(msg.sender == admin, \"Only admin can issue Carbon Tokens.\");\n        require(cbtokenExists[_cbtokenid] == false, \"Carbon token id already exists.\");\n        _mint(admin,0,_amount,\"\");\n\n        for(uint256 i=0; i<_feedids.length; i++){\n            (string memory ingredient, string memory claimstatus, string memory animalid, uint16 dmi, uint256 datetime, uint256 blocktime)=feedtracking.queryFeed(_feedids[i]);\n            require((datetime>=_startdate && datetime<=_enddate ), \"The specified feed record is not in the claim period.\");\n            \n            feedtracking.claimFeed(_feedids[i]);\n        }\n\n        cbtokens[_cbtokenid] = CBToken(0,_amount,_startdate,_enddate);\n        allcbtokens.push(_cbtokenid);\n        cbtokenExists[_cbtokenid] = true;\n    }\n\n    function distribute(string memory _cbtokenid, string memory _distributionid, string memory _farmid, uint256 _amount) public {\n        require(msg.sender == admin, \"Only admin can distribute Carbon Tokens.\");\n        require(cbtokenExists[_cbtokenid], \"Carbon Token ID does not exist.\");\n        safeTransferFrom(admin,farmregistry.farms(_farmid),cbtokens[_cbtokenid].InternalID,_amount, \"\");\n        distributions[_distributionid] = Distribution(_cbtokenid,_amount,farmregistry.farms(_farmid),false);\n        distributionExists[_distributionid] = true;\n        alldistributions.push(_distributionid);\n    }\n\n    function update(string memory _distributionid) public {\n        require(msg.sender == admin, \"Only admin can update Carbon Token status.\");\n        require(distributionExists[_distributionid], \"Distribution ID does not exist.\");\n        distributions[_distributionid].Paid = true;\n    }\n\n    function queryCarbonToken(string memory _cbtokenid) public view returns(uint256,uint256,uint256,uint256)\n    {\n        require(cbtokenExists[_cbtokenid], \"Carbon Token ID does not exist.\");\n        return(\n            cbtokens[_cbtokenid].InternalID,\n            cbtokens[_cbtokenid].Amount,\n            cbtokens[_cbtokenid].StartDate,\n            cbtokens[_cbtokenid].EndDate\n        );\n    }\n\n    function queryAllCarbonToken() public view \n    returns(\n        string[] memory,\n        uint256[] memory,\n        uint256[] memory,\n        uint256[] memory,\n        uint256[] memory\n    )\n    {\n        uint256[] memory internalids = new uint256[](allcbtokens.length);\n        uint256[] memory amounts = new uint256[](allcbtokens.length);\n        uint256[] memory starts = new uint256[](allcbtokens.length);\n        uint256[] memory ends = new uint256[](allcbtokens.length);\n\n        for(uint256 i=0; i<allcbtokens.length; i++) {\n            internalids[i] = cbtokens[allcbtokens[i]].InternalID;\n            amounts[i] = cbtokens[allcbtokens[i]].Amount;\n            starts[i] = cbtokens[allcbtokens[i]].StartDate;\n            ends[i] = cbtokens[allcbtokens[i]].EndDate;\n        }\n\n        return(allcbtokens,internalids,amounts,starts,ends);\n    }\n\n    function queryDistribution(string memory _distributionid) public view returns(string memory,uint256,address,bool)\n    {\n        require(distributionExists[_distributionid], \"Distribution ID does not exist.\");\n        return(\n            distributions[_distributionid].CBTokenID,\n            distributions[_distributionid].Amount,\n            distributions[_distributionid].Farmer,\n            distributions[_distributionid].Paid\n        );\n    }\n\n    function queryAllDistribution() public view \n    returns(\n        string[] memory,\n        string[] memory,\n        uint256[] memory,\n        address[] memory,\n        bool[] memory\n    )\n    {\n        string[] memory cbtokenids = new string[](alldistributions.length);\n        uint256[] memory amounts = new uint256[](alldistributions.length);\n        address[] memory farmers = new address[](alldistributions.length);\n        bool[] memory paid = new bool[](alldistributions.length);\n\n        for(uint256 i=0; i<alldistributions.length; i++){\n            cbtokenids[i] = distributions[alldistributions[i]].CBTokenID;\n            amounts[i] = distributions[alldistributions[i]].Amount;\n            farmers[i] = distributions[alldistributions[i]].Farmer;\n            paid[i] = distributions[alldistributions[i]].Paid;\n        }\n\n        return(alldistributions,cbtokenids,amounts,farmers,paid);\n    }\n}",
  "sourcePath": "/home/yih/Documents/dev/beston-dapps/contracts/carbon/CarbonToken.sol",
  "compiler": {
    "name": "solc",
    "version": "0.8.7+commit.e28d00a7.Emscripten.clang"
  },
  "schemaVersion": "3.4.1",
  "updatedAt": "2023-03-20T00:06:48.228Z",
  "networkType": "ethereum",
  "devdoc": {
    "kind": "dev",
    "methods": {
      "balanceOf(address,uint256)": {
        "details": "See {IERC1155-balanceOf}. Requirements: - `account` cannot be the zero address."
      },
      "balanceOfBatch(address[],uint256[])": {
        "details": "See {IERC1155-balanceOfBatch}. Requirements: - `accounts` and `ids` must have the same length."
      },
      "isApprovedForAll(address,address)": {
        "details": "See {IERC1155-isApprovedForAll}."
      },
      "safeBatchTransferFrom(address,address,uint256[],uint256[],bytes)": {
        "details": "See {IERC1155-safeBatchTransferFrom}."
      },
      "safeTransferFrom(address,address,uint256,uint256,bytes)": {
        "details": "See {IERC1155-safeTransferFrom}."
      },
      "setApprovalForAll(address,bool)": {
        "details": "See {IERC1155-setApprovalForAll}."
      },
      "supportsInterface(bytes4)": {
        "details": "See {IERC165-supportsInterface}."
      },
      "uri(uint256)": {
        "details": "See {IERC1155MetadataURI-uri}. This implementation returns the same URI for *all* token types. It relies on the token type ID substitution mechanism https://eips.ethereum.org/EIPS/eip-1155#metadata[defined in the EIP]. Clients calling this function must replace the `\\{id\\}` substring with the actual token type ID."
      }
    },
    "version": 1
  },
  "userdoc": {
    "kind": "user",
    "methods": {},
    "version": 1
  }
}