{
  "contractName": "DigitalTwin",
  "abi": [
    {
      "inputs": [
        {
          "internalType": "string",
          "name": "_name",
          "type": "string"
        },
        {
          "internalType": "string",
          "name": "_symbol",
          "type": "string"
        }
      ],
      "stateMutability": "nonpayable",
      "type": "constructor"
    },
    {
      "anonymous": false,
      "inputs": [
        {
          "indexed": true,
          "internalType": "address",
          "name": "owner",
          "type": "address"
        },
        {
          "indexed": true,
          "internalType": "address",
          "name": "approved",
          "type": "address"
        },
        {
          "indexed": true,
          "internalType": "uint256",
          "name": "tokenId",
          "type": "uint256"
        }
      ],
      "name": "Approval",
      "type": "event"
    },
    {
      "anonymous": false,
      "inputs": [
        {
          "indexed": true,
          "internalType": "address",
          "name": "owner",
          "type": "address"
        },
        {
          "indexed": true,
          "internalType": "address",
          "name": "operator",
          "type": "address"
        },
        {
          "indexed": false,
          "internalType": "bool",
          "name": "approved",
          "type": "bool"
        }
      ],
      "name": "ApprovalForAll",
      "type": "event"
    },
    {
      "anonymous": false,
      "inputs": [
        {
          "indexed": false,
          "internalType": "string",
          "name": "tkname",
          "type": "string"
        }
      ],
      "name": "TokenUpdated",
      "type": "event"
    },
    {
      "anonymous": false,
      "inputs": [
        {
          "indexed": false,
          "internalType": "string",
          "name": "tkname",
          "type": "string"
        }
      ],
      "name": "TokenVerified",
      "type": "event"
    },
    {
      "anonymous": false,
      "inputs": [
        {
          "indexed": true,
          "internalType": "address",
          "name": "from",
          "type": "address"
        },
        {
          "indexed": true,
          "internalType": "address",
          "name": "to",
          "type": "address"
        },
        {
          "indexed": true,
          "internalType": "uint256",
          "name": "tokenId",
          "type": "uint256"
        }
      ],
      "name": "Transfer",
      "type": "event"
    },
    {
      "inputs": [],
      "name": "admin",
      "outputs": [
        {
          "internalType": "address",
          "name": "",
          "type": "address"
        }
      ],
      "stateMutability": "view",
      "type": "function",
      "constant": true
    },
    {
      "inputs": [
        {
          "internalType": "uint256",
          "name": "",
          "type": "uint256"
        }
      ],
      "name": "alltks",
      "outputs": [
        {
          "internalType": "string",
          "name": "",
          "type": "string"
        }
      ],
      "stateMutability": "view",
      "type": "function",
      "constant": true
    },
    {
      "inputs": [
        {
          "internalType": "address",
          "name": "to",
          "type": "address"
        },
        {
          "internalType": "uint256",
          "name": "tokenId",
          "type": "uint256"
        }
      ],
      "name": "approve",
      "outputs": [],
      "stateMutability": "nonpayable",
      "type": "function"
    },
    {
      "inputs": [
        {
          "internalType": "address",
          "name": "owner",
          "type": "address"
        }
      ],
      "name": "balanceOf",
      "outputs": [
        {
          "internalType": "uint256",
          "name": "",
          "type": "uint256"
        }
      ],
      "stateMutability": "view",
      "type": "function",
      "constant": true
    },
    {
      "inputs": [
        {
          "internalType": "uint256",
          "name": "tokenId",
          "type": "uint256"
        }
      ],
      "name": "getApproved",
      "outputs": [
        {
          "internalType": "address",
          "name": "",
          "type": "address"
        }
      ],
      "stateMutability": "view",
      "type": "function",
      "constant": true
    },
    {
      "inputs": [
        {
          "internalType": "address",
          "name": "owner",
          "type": "address"
        },
        {
          "internalType": "address",
          "name": "operator",
          "type": "address"
        }
      ],
      "name": "isApprovedForAll",
      "outputs": [
        {
          "internalType": "bool",
          "name": "",
          "type": "bool"
        }
      ],
      "stateMutability": "view",
      "type": "function",
      "constant": true
    },
    {
      "inputs": [],
      "name": "name",
      "outputs": [
        {
          "internalType": "string",
          "name": "",
          "type": "string"
        }
      ],
      "stateMutability": "view",
      "type": "function",
      "constant": true
    },
    {
      "inputs": [
        {
          "internalType": "uint256",
          "name": "tokenId",
          "type": "uint256"
        }
      ],
      "name": "ownerOf",
      "outputs": [
        {
          "internalType": "address",
          "name": "",
          "type": "address"
        }
      ],
      "stateMutability": "view",
      "type": "function",
      "constant": true
    },
    {
      "inputs": [
        {
          "internalType": "address",
          "name": "from",
          "type": "address"
        },
        {
          "internalType": "address",
          "name": "to",
          "type": "address"
        },
        {
          "internalType": "uint256",
          "name": "tokenId",
          "type": "uint256"
        }
      ],
      "name": "safeTransferFrom",
      "outputs": [],
      "stateMutability": "nonpayable",
      "type": "function"
    },
    {
      "inputs": [
        {
          "internalType": "address",
          "name": "from",
          "type": "address"
        },
        {
          "internalType": "address",
          "name": "to",
          "type": "address"
        },
        {
          "internalType": "uint256",
          "name": "tokenId",
          "type": "uint256"
        },
        {
          "internalType": "bytes",
          "name": "data",
          "type": "bytes"
        }
      ],
      "name": "safeTransferFrom",
      "outputs": [],
      "stateMutability": "nonpayable",
      "type": "function"
    },
    {
      "inputs": [
        {
          "internalType": "address",
          "name": "operator",
          "type": "address"
        },
        {
          "internalType": "bool",
          "name": "approved",
          "type": "bool"
        }
      ],
      "name": "setApprovalForAll",
      "outputs": [],
      "stateMutability": "nonpayable",
      "type": "function"
    },
    {
      "inputs": [
        {
          "internalType": "bytes4",
          "name": "interfaceId",
          "type": "bytes4"
        }
      ],
      "name": "supportsInterface",
      "outputs": [
        {
          "internalType": "bool",
          "name": "",
          "type": "bool"
        }
      ],
      "stateMutability": "view",
      "type": "function",
      "constant": true
    },
    {
      "inputs": [],
      "name": "symbol",
      "outputs": [
        {
          "internalType": "string",
          "name": "",
          "type": "string"
        }
      ],
      "stateMutability": "view",
      "type": "function",
      "constant": true
    },
    {
      "inputs": [
        {
          "internalType": "string",
          "name": "",
          "type": "string"
        }
      ],
      "name": "tkExists",
      "outputs": [
        {
          "internalType": "bool",
          "name": "",
          "type": "bool"
        }
      ],
      "stateMutability": "view",
      "type": "function",
      "constant": true
    },
    {
      "inputs": [],
      "name": "tkcount",
      "outputs": [
        {
          "internalType": "uint256",
          "name": "",
          "type": "uint256"
        }
      ],
      "stateMutability": "view",
      "type": "function",
      "constant": true
    },
    {
      "inputs": [
        {
          "internalType": "string",
          "name": "",
          "type": "string"
        }
      ],
      "name": "tks",
      "outputs": [
        {
          "internalType": "uint256",
          "name": "id",
          "type": "uint256"
        },
        {
          "internalType": "string",
          "name": "metadata",
          "type": "string"
        },
        {
          "internalType": "enum DigitalTwin.Recognitionstatus",
          "name": "rstatus",
          "type": "uint8"
        },
        {
          "internalType": "enum DigitalTwin.Verificationstatus",
          "name": "vstatus",
          "type": "uint8"
        }
      ],
      "stateMutability": "view",
      "type": "function",
      "constant": true
    },
    {
      "inputs": [
        {
          "internalType": "uint256",
          "name": "tokenId",
          "type": "uint256"
        }
      ],
      "name": "tokenURI",
      "outputs": [
        {
          "internalType": "string",
          "name": "",
          "type": "string"
        }
      ],
      "stateMutability": "view",
      "type": "function",
      "constant": true
    },
    {
      "inputs": [
        {
          "internalType": "address",
          "name": "from",
          "type": "address"
        },
        {
          "internalType": "address",
          "name": "to",
          "type": "address"
        },
        {
          "internalType": "uint256",
          "name": "tokenId",
          "type": "uint256"
        }
      ],
      "name": "transferFrom",
      "outputs": [],
      "stateMutability": "nonpayable",
      "type": "function"
    },
    {
      "inputs": [
        {
          "internalType": "string",
          "name": "_tkname",
          "type": "string"
        },
        {
          "internalType": "string",
          "name": "_metadata",
          "type": "string"
        }
      ],
      "name": "mint",
      "outputs": [],
      "stateMutability": "nonpayable",
      "type": "function"
    },
    {
      "inputs": [
        {
          "internalType": "string",
          "name": "_tkname",
          "type": "string"
        },
        {
          "internalType": "string",
          "name": "_metadata",
          "type": "string"
        }
      ],
      "name": "update",
      "outputs": [],
      "stateMutability": "nonpayable",
      "type": "function"
    },
    {
      "inputs": [
        {
          "internalType": "string",
          "name": "_tkname",
          "type": "string"
        },
        {
          "internalType": "bool",
          "name": "_status",
          "type": "bool"
        }
      ],
      "name": "recognize",
      "outputs": [],
      "stateMutability": "nonpayable",
      "type": "function"
    },
    {
      "inputs": [
        {
          "internalType": "string",
          "name": "_tkname",
          "type": "string"
        },
        {
          "internalType": "bool",
          "name": "_status",
          "type": "bool"
        }
      ],
      "name": "verify",
      "outputs": [],
      "stateMutability": "nonpayable",
      "type": "function"
    },
    {
      "inputs": [
        {
          "internalType": "string",
          "name": "_tkname",
          "type": "string"
        }
      ],
      "name": "burn",
      "outputs": [],
      "stateMutability": "nonpayable",
      "type": "function"
    },
    {
      "inputs": [
        {
          "internalType": "string",
          "name": "_tkname",
          "type": "string"
        },
        {
          "internalType": "address",
          "name": "_to",
          "type": "address"
        }
      ],
      "name": "transferByName",
      "outputs": [],
      "stateMutability": "nonpayable",
      "type": "function"
    },
    {
      "inputs": [
        {
          "internalType": "string",
          "name": "_tkname",
          "type": "string"
        },
        {
          "internalType": "address",
          "name": "_to",
          "type": "address"
        }
      ],
      "name": "approveByName",
      "outputs": [],
      "stateMutability": "nonpayable",
      "type": "function"
    },
    {
      "inputs": [
        {
          "internalType": "string",
          "name": "_tkname",
          "type": "string"
        }
      ],
      "name": "queryToken",
      "outputs": [
        {
          "internalType": "uint256",
          "name": "",
          "type": "uint256"
        },
        {
          "internalType": "string",
          "name": "",
          "type": "string"
        },
        {
          "internalType": "string",
          "name": "",
          "type": "string"
        },
        {
          "internalType": "string",
          "name": "",
          "type": "string"
        },
        {
          "internalType": "address",
          "name": "",
          "type": "address"
        }
      ],
      "stateMutability": "view",
      "type": "function",
      "constant": true
    },
    {
      "inputs": [],
      "name": "countToken",
      "outputs": [
        {
          "internalType": "uint256",
          "name": "",
          "type": "uint256"
        }
      ],
      "stateMutability": "view",
      "type": "function",
      "constant": true
    },
    {
      "inputs": [],
      "name": "queryAll",
      "outputs": [
        {
          "internalType": "string[]",
          "name": "",
          "type": "string[]"
        }
      ],
      "stateMutability": "view",
      "type": "function",
      "constant": true
    },
    {
      "inputs": [],
      "name": "queryAllFields",
      "outputs": [
        {
          "internalType": "string[]",
          "name": "",
          "type": "string[]"
        },
        {
          "internalType": "uint256[]",
          "name": "",
          "type": "uint256[]"
        },
        {
          "internalType": "string[]",
          "name": "",
          "type": "string[]"
        },
        {
          "internalType": "string[]",
          "name": "",
          "type": "string[]"
        },
        {
          "internalType": "string[]",
          "name": "",
          "type": "string[]"
        },
        {
          "internalType": "address[]",
          "name": "",
          "type": "address[]"
        }
      ],
      "stateMutability": "view",
      "type": "function",
      "constant": true
    }
  ],
  "bytecode": "0x60806040523480156200001157600080fd5b506040516200555f3803806200555f8339818101604052810190620000379190620001e4565b8181816000908051906020019062000051929190620000b6565b5080600190805190602001906200006a929190620000b6565b50505033600760006101000a81548173ffffffffffffffffffffffffffffffffffffffff021916908373ffffffffffffffffffffffffffffffffffffffff1602179055505050620003ed565b828054620000c490620002fe565b90600052602060002090601f016020900481019282620000e8576000855562000134565b82601f106200010357805160ff191683800117855562000134565b8280016001018555821562000134579182015b828111156200013357825182559160200191906001019062000116565b5b50905062000143919062000147565b5090565b5b808211156200016257600081600090555060010162000148565b5090565b60006200017d620001778462000292565b62000269565b9050828152602081018484840111156200019c576200019b620003cd565b5b620001a9848285620002c8565b509392505050565b600082601f830112620001c957620001c8620003c8565b5b8151620001db84826020860162000166565b91505092915050565b60008060408385031215620001fe57620001fd620003d7565b5b600083015167ffffffffffffffff8111156200021f576200021e620003d2565b5b6200022d85828601620001b1565b925050602083015167ffffffffffffffff811115620002515762000250620003d2565b5b6200025f85828601620001b1565b9150509250929050565b60006200027562000288565b905062000283828262000334565b919050565b6000604051905090565b600067ffffffffffffffff821115620002b057620002af62000399565b5b620002bb82620003dc565b9050602081019050919050565b60005b83811015620002e8578082015181840152602081019050620002cb565b83811115620002f8576000848401525b50505050565b600060028204905060018216806200031757607f821691505b602082108114156200032e576200032d6200036a565b5b50919050565b6200033f82620003dc565b810181811067ffffffffffffffff8211171562000361576200036062000399565b5b80604052505050565b7f4e487b7100000000000000000000000000000000000000000000000000000000600052602260045260246000fd5b7f4e487b7100000000000000000000000000000000000000000000000000000000600052604160045260246000fd5b600080fd5b600080fd5b600080fd5b600080fd5b6000601f19601f8301169050919050565b61516280620003fd6000396000f3fe608060405234801561001057600080fd5b50600436106101cf5760003560e01c806395d89b4111610104578063d26ac388116100a2578063e985e9c511610071578063e985e9c514610545578063ef3ecfb214610575578063f4c84d19146105a8578063f851a440146105c4576101cf565b8063d26ac388146104d1578063dafa1d2d146104ed578063e592470814610509578063e7a81c5514610527576101cf565b8063c00ee908116100de578063c00ee90814610433578063c5573d461461044f578063c87b56dd14610483578063c884ed90146104b3576101cf565b806395d89b41146103dd578063a22cb465146103fb578063b88d4fde14610417576101cf565b80633f5e37191161017157806370a082311161014b57806370a0823114610352578063747c6e8b1461038257806381ec053f146103a55780638aa0fdad146103c1576101cf565b80633f5e3719146102d657806342842e0e146103065780636352211e14610322576101cf565b8063095ea7b3116101ad578063095ea7b3146102525780630ad5b5051461026e5780630d202ced1461029e57806323b872dd146102ba576101cf565b806301ffc9a7146101d457806306fdde0314610204578063081812fc14610222575b600080fd5b6101ee60048036038101906101e99190613973565b6105e2565b6040516101fb91906142ab565b60405180910390f35b61020c6106c4565b60405161021991906142c6565b60405180910390f35b61023c60048036038101906102379190613b46565b610756565b6040516102499190614197565b60405180910390f35b61026c60048036038101906102679190613933565b61079c565b005b610288600480360381019061028391906139cd565b6108b4565b60405161029591906142ab565b60405180910390f35b6102b860048036038101906102b39190613a16565b6108ea565b005b6102d460048036038101906102cf919061381d565b610a1c565b005b6102f060048036038101906102eb9190613b46565b610a7c565b6040516102fd91906142c6565b60405180910390f35b610320600480360381019061031b919061381d565b610b28565b005b61033c60048036038101906103379190613b46565b610b48565b6040516103499190614197565b60405180910390f35b61036c600480360381019061036791906137b0565b610bfa565b6040516103799190614548565b60405180910390f35b61038a610cb2565b60405161039c96959493929190614220565b60405180910390f35b6103bf60048036038101906103ba9190613a16565b6115cf565b005b6103db60048036038101906103d69190613ace565b611700565b005b6103e56118fd565b6040516103f291906142c6565b60405180910390f35b610415600480360381019061041091906138f3565b61198f565b005b610431600480360381019061042c9190613870565b6119a5565b005b61044d60048036038101906104489190613a72565b611a07565b005b610469600480360381019061046491906139cd565b611be4565b60405161047a9594939291906145af565b60405180910390f35b61049d60048036038101906104989190613b46565b61203f565b6040516104aa91906142c6565b60405180910390f35b6104bb6120a7565b6040516104c89190614548565b60405180910390f35b6104eb60048036038101906104e69190613a72565b6120ad565b005b610507600480360381019061050291906139cd565b61228a565b005b610511612405565b60405161051e91906141fe565b60405180910390f35b61052f61256e565b60405161053c9190614548565b60405180910390f35b61055f600480360381019061055a91906137dd565b6125d5565b60405161056c91906142ab565b60405180910390f35b61058f600480360381019061058a91906139cd565b612669565b60405161059f9493929190614563565b60405180910390f35b6105c260048036038101906105bd9190613ace565b612751565b005b6105cc6128c4565b6040516105d99190614197565b60405180910390f35b60007f80ac58cd000000000000000000000000000000000000000000000000000000007bffffffffffffffffffffffffffffffffffffffffffffffffffffffff1916827bffffffffffffffffffffffffffffffffffffffffffffffffffffffff191614806106ad57507f5b5e139f000000000000000000000000000000000000000000000000000000007bffffffffffffffffffffffffffffffffffffffffffffffffffffffff1916827bffffffffffffffffffffffffffffffffffffffffffffffffffffffff1916145b806106bd57506106bc826128ea565b5b9050919050565b6060600080546106d39061496d565b80601f01602080910402602001604051908101604052809291908181526020018280546106ff9061496d565b801561074c5780601f106107215761010080835404028352916020019161074c565b820191906000526020600020905b81548152906001019060200180831161072f57829003601f168201915b5050505050905090565b600061076182612954565b6004600083815260200190815260200160002060009054906101000a900473ffffffffffffffffffffffffffffffffffffffff169050919050565b60006107a782610b48565b90508073ffffffffffffffffffffffffffffffffffffffff168373ffffffffffffffffffffffffffffffffffffffff161415610818576040517f08c379a000000000000000000000000000000000000000000000000000000000815260040161080f906144e8565b60405180910390fd5b8073ffffffffffffffffffffffffffffffffffffffff1661083761299f565b73ffffffffffffffffffffffffffffffffffffffff16148061086657506108658161086061299f565b6125d5565b5b6108a5576040517f08c379a000000000000000000000000000000000000000000000000000000000815260040161089c90614468565b60405180910390fd5b6108af83836129a7565b505050565b600a818051602081018201805184825260208301602085012081835280955050505050506000915054906101000a900460ff1681565b600a826040516108fa9190614145565b908152602001604051809103902060009054906101000a900460ff16610955576040517f08c379a000000000000000000000000000000000000000000000000000000000815260040161094c906144a8565b60405180910390fd5b3273ffffffffffffffffffffffffffffffffffffffff1661099660098460405161097f9190614145565b908152602001604051809103902060000154610b48565b73ffffffffffffffffffffffffffffffffffffffff16146109ec576040517f08c379a00000000000000000000000000000000000000000000000000000000081526004016109e390614388565b60405180910390fd5b610a183282600985604051610a019190614145565b908152602001604051809103902060000154612a60565b5050565b610a2d610a2761299f565b82612cc7565b610a6c576040517f08c379a0000000000000000000000000000000000000000000000000000000008152600401610a6390614528565b60405180910390fd5b610a77838383612a60565b505050565b60068181548110610a8c57600080fd5b906000526020600020016000915090508054610aa79061496d565b80601f0160208091040260200160405190810160405280929190818152602001828054610ad39061496d565b8015610b205780601f10610af557610100808354040283529160200191610b20565b820191906000526020600020905b815481529060010190602001808311610b0357829003601f168201915b505050505081565b610b43838383604051806020016040528060008152506119a5565b505050565b6000806002600084815260200190815260200160002060009054906101000a900473ffffffffffffffffffffffffffffffffffffffff169050600073ffffffffffffffffffffffffffffffffffffffff168173ffffffffffffffffffffffffffffffffffffffff161415610bf1576040517f08c379a0000000000000000000000000000000000000000000000000000000008152600401610be8906144c8565b60405180910390fd5b80915050919050565b60008073ffffffffffffffffffffffffffffffffffffffff168273ffffffffffffffffffffffffffffffffffffffff161415610c6b576040517f08c379a0000000000000000000000000000000000000000000000000000000008152600401610c62906143e8565b60405180910390fd5b600360008373ffffffffffffffffffffffffffffffffffffffff1673ffffffffffffffffffffffffffffffffffffffff168152602001908152602001600020549050919050565b606080606080606080600060085467ffffffffffffffff811115610cd957610cd8614b35565b5b604051908082528060200260200182016040528015610d0c57816020015b6060815260200190600190039081610cf75790505b509050600060085467ffffffffffffffff811115610d2d57610d2c614b35565b5b604051908082528060200260200182016040528015610d5b5781602001602082028036833780820191505090505b509050600060085467ffffffffffffffff811115610d7c57610d7b614b35565b5b604051908082528060200260200182016040528015610daf57816020015b6060815260200190600190039081610d9a5790505b509050600060085467ffffffffffffffff811115610dd057610dcf614b35565b5b604051908082528060200260200182016040528015610e0357816020015b6060815260200190600190039081610dee5790505b509050600060085467ffffffffffffffff811115610e2457610e23614b35565b5b604051908082528060200260200182016040528015610e5757816020015b6060815260200190600190039081610e425790505b509050600060085467ffffffffffffffff811115610e7857610e77614b35565b5b604051908082528060200260200182016040528015610ea65781602001602082028036833780820191505090505b50905060005b6006805490508110156115ae5760011515600a60068381548110610ed357610ed2614b06565b5b90600052602060002001604051610eea9190614180565b908152602001604051809103902060009054906101000a900460ff161515141561159b5760068181548110610f2257610f21614b06565b5b906000526020600020018054610f379061496d565b80601f0160208091040260200160405190810160405280929190818152602001828054610f639061496d565b8015610fb05780601f10610f8557610100808354040283529160200191610fb0565b820191906000526020600020905b815481529060010190602001808311610f9357829003601f168201915b5050505050878281518110610fc857610fc7614b06565b5b6020026020010181905250600960068281548110610fe957610fe8614b06565b5b906000526020600020016040516110009190614180565b90815260200160405180910390206000015486828151811061102557611024614b06565b5b60200260200101818152505060096006828154811061104757611046614b06565b5b9060005260206000200160405161105e9190614180565b9081526020016040518091039020600101805461107a9061496d565b80601f01602080910402602001604051908101604052809291908181526020018280546110a69061496d565b80156110f35780601f106110c8576101008083540402835291602001916110f3565b820191906000526020600020905b8154815290600101906020018083116110d657829003601f168201915b505050505085828151811061110b5761110a614b06565b5b60200260200101819052506000600281111561112a57611129614aa8565b5b6009600683815481106111405761113f614b06565b5b906000526020600020016040516111579190614180565b908152602001604051809103902060020160009054906101000a900460ff16600281111561118857611187614aa8565b5b14156111e7576040518060400160405280601e81526020017f70656e64696e67207061636b6167696e6720766572696669636174696f6e00008152508482815181106111d7576111d6614b06565b5b602002602001018190525061130e565b600160028111156111fb576111fa614aa8565b5b60096006838154811061121157611210614b06565b5b906000526020600020016040516112289190614180565b908152602001604051809103902060020160009054906101000a900460ff16600281111561125957611258614aa8565b5b14156112b8576040518060400160405280601281526020017f7061636b6167696e6720766572696669656400000000000000000000000000008152508482815181106112a8576112a7614b06565b5b602002602001018190525061130d565b6040518060400160405280601081526020017f7061636b6167696e672064656e6965640000000000000000000000000000000081525084828151811061130157611300614b06565b5b60200260200101819052505b5b6000600281111561132257611321614aa8565b5b60096006838154811061133857611337614b06565b5b9060005260206000200160405161134f9190614180565b908152602001604051809103902060020160019054906101000a900460ff1660028111156113805761137f614aa8565b5b14156113df576040518060400160405280601c81526020017f70656e64696e672070726f6475637420766572696669636174696f6e000000008152508382815181106113cf576113ce614b06565b5b6020026020010181905250611506565b600160028111156113f3576113f2614aa8565b5b60096006838154811061140957611408614b06565b5b906000526020600020016040516114209190614180565b908152602001604051809103902060020160019054906101000a900460ff16600281111561145157611450614aa8565b5b14156114b0576040518060400160405280601081526020017f70726f64756374207665726966696564000000000000000000000000000000008152508382815181106114a05761149f614b06565b5b6020026020010181905250611505565b6040518060400160405280600e81526020017f70726f647563742064656e6965640000000000000000000000000000000000008152508382815181106114f9576114f8614b06565b5b60200260200101819052505b5b61154d60096006838154811061151f5761151e614b06565b5b906000526020600020016040516115369190614180565b908152602001604051809103902060000154610b48565b8282815181106115605761155f614b06565b5b602002602001019073ffffffffffffffffffffffffffffffffffffffff16908173ffffffffffffffffffffffffffffffffffffffff16815250505b80806115a6906149d0565b915050610eac565b508585858585859b509b509b509b509b509b50505050505050909192939495565b600a826040516115df9190614145565b908152602001604051809103902060009054906101000a900460ff1661163a576040517f08c379a0000000000000000000000000000000000000000000000000000000008152600401611631906144a8565b60405180910390fd5b3273ffffffffffffffffffffffffffffffffffffffff1661167b6009846040516116649190614145565b908152602001604051809103902060000154610b48565b73ffffffffffffffffffffffffffffffffffffffff16146116d1576040517f08c379a00000000000000000000000000000000000000000000000000000000081526004016116c890614388565b60405180910390fd5b6116fc816009846040516116e59190614145565b9081526020016040518091039020600001546129a7565b5050565b600a826040516117109190614145565b908152602001604051809103902060009054906101000a900460ff161561176c576040517f08c379a000000000000000000000000000000000000000000000000000000000815260040161176390614408565b60405180910390fd5b6006829080600181540180825580915050600190039060005260206000200160009091909190915090805190602001906117a79291906135c4565b50600060068054905090506117bc3382612d5c565b60016008546117cb91906147b2565b600881905550806009846040516117e29190614145565b908152602001604051809103902060000181905550816009846040516118089190614145565b9081526020016040518091039020600101908051906020019061182c9291906135c4565b50600060098460405161183f9190614145565b908152602001604051809103902060020160006101000a81548160ff0219169083600281111561187257611871614aa8565b5b021790555060006009846040516118899190614145565b908152602001604051809103902060020160016101000a81548160ff021916908360028111156118bc576118bb614aa8565b5b02179055506001600a846040516118d39190614145565b908152602001604051809103902060006101000a81548160ff021916908315150217905550505050565b60606001805461190c9061496d565b80601f01602080910402602001604051908101604052809291908181526020018280546119389061496d565b80156119855780601f1061195a57610100808354040283529160200191611985565b820191906000526020600020905b81548152906001019060200180831161196857829003601f168201915b5050505050905090565b6119a161199a61299f565b8383612f36565b5050565b6119b66119b061299f565b83612cc7565b6119f5576040517f08c379a00000000000000000000000000000000000000000000000000000000081526004016119ec90614528565b60405180910390fd5b611a01848484846130a3565b50505050565b600a82604051611a179190614145565b908152602001604051809103902060009054906101000a900460ff16611a72576040517f08c379a0000000000000000000000000000000000000000000000000000000008152600401611a69906144a8565b60405180910390fd5b600760009054906101000a900473ffffffffffffffffffffffffffffffffffffffff1673ffffffffffffffffffffffffffffffffffffffff163373ffffffffffffffffffffffffffffffffffffffff1614611b02576040517f08c379a0000000000000000000000000000000000000000000000000000000008152600401611af990614428565b60405180910390fd5b600115158115151415611b5e576001600983604051611b219190614145565b908152602001604051809103902060020160006101000a81548160ff02191690836002811115611b5457611b53614aa8565b5b0217905550611ba9565b6002600983604051611b709190614145565b908152602001604051809103902060020160006101000a81548160ff02191690836002811115611ba357611ba2614aa8565b5b02179055505b7f59d309664d5e5c5c7562159b94306437ae8aed905c4f84933f4ad06eea902ed482604051611bd891906142c6565b60405180910390a15050565b600060608060606000600a86604051611bfd9190614145565b908152602001604051809103902060009054906101000a900460ff16611c58576040517f08c379a0000000000000000000000000000000000000000000000000000000008152600401611c4f906144a8565b60405180910390fd5b60608060006002811115611c6f57611c6e614aa8565b5b600989604051611c7f9190614145565b908152602001604051809103902060020160009054906101000a900460ff166002811115611cb057611caf614aa8565b5b1415611cf3576040518060400160405280601e81526020017f70656e64696e67207061636b6167696e6720766572696669636174696f6e00008152509150611dc5565b60016002811115611d0757611d06614aa8565b5b600989604051611d179190614145565b908152602001604051809103902060020160009054906101000a900460ff166002811115611d4857611d47614aa8565b5b1415611d8b576040518060400160405280601281526020017f7061636b6167696e6720766572696669656400000000000000000000000000008152509150611dc4565b6040518060400160405280601081526020017f7061636b6167696e672064656e6965640000000000000000000000000000000081525091505b5b60006002811115611dd957611dd8614aa8565b5b600989604051611de99190614145565b908152602001604051809103902060020160019054906101000a900460ff166002811115611e1a57611e19614aa8565b5b1415611e5d576040518060400160405280601c81526020017f70656e64696e672070726f6475637420766572696669636174696f6e000000008152509050611f2f565b60016002811115611e7157611e70614aa8565b5b600989604051611e819190614145565b908152602001604051809103902060020160019054906101000a900460ff166002811115611eb257611eb1614aa8565b5b1415611ef5576040518060400160405280601081526020017f70726f64756374207665726966696564000000000000000000000000000000008152509050611f2e565b6040518060400160405280600e81526020017f70726f647563742064656e69656400000000000000000000000000000000000081525090505b5b600988604051611f3f9190614145565b908152602001604051809103902060000154600989604051611f619190614145565b90815260200160405180910390206001018383611f9e60098d604051611f879190614145565b908152602001604051809103902060000154610b48565b838054611faa9061496d565b80601f0160208091040260200160405190810160405280929190818152602001828054611fd69061496d565b80156120235780601f10611ff857610100808354040283529160200191612023565b820191906000526020600020905b81548152906001019060200180831161200657829003601f168201915b5050505050935096509650965096509650505091939590929450565b606061204a82612954565b60006120546130ff565b90506000815111612074576040518060200160405280600081525061209f565b8061207e84613116565b60405160200161208f92919061415c565b6040516020818303038152906040525b915050919050565b60085481565b600a826040516120bd9190614145565b908152602001604051809103902060009054906101000a900460ff16612118576040517f08c379a000000000000000000000000000000000000000000000000000000000815260040161210f906144a8565b60405180910390fd5b600760009054906101000a900473ffffffffffffffffffffffffffffffffffffffff1673ffffffffffffffffffffffffffffffffffffffff163373ffffffffffffffffffffffffffffffffffffffff16146121a8576040517f08c379a000000000000000000000000000000000000000000000000000000000815260040161219f90614448565b60405180910390fd5b6001151581151514156122045760016009836040516121c79190614145565b908152602001604051809103902060020160016101000a81548160ff021916908360028111156121fa576121f9614aa8565b5b021790555061224f565b60026009836040516122169190614145565b908152602001604051809103902060020160016101000a81548160ff0219169083600281111561224957612248614aa8565b5b02179055505b7f59d309664d5e5c5c7562159b94306437ae8aed905c4f84933f4ad06eea902ed48260405161227e91906142c6565b60405180910390a15050565b600a8160405161229a9190614145565b908152602001604051809103902060009054906101000a900460ff166122f5576040517f08c379a00000000000000000000000000000000000000000000000000000000081526004016122ec906144a8565b60405180910390fd5b3373ffffffffffffffffffffffffffffffffffffffff1661233660098360405161231f9190614145565b908152602001604051809103902060000154610b48565b73ffffffffffffffffffffffffffffffffffffffff161461238c576040517f08c379a000000000000000000000000000000000000000000000000000000000815260040161238390614328565b60405180910390fd5b6123b660098260405161239f9190614145565b908152602001604051809103902060000154613277565b6000600a826040516123c89190614145565b908152602001604051809103902060006101000a81548160ff02191690831515021790555060016008546123fc9190614839565b60088190555050565b6060600760009054906101000a900473ffffffffffffffffffffffffffffffffffffffff1673ffffffffffffffffffffffffffffffffffffffff163373ffffffffffffffffffffffffffffffffffffffff1614612497576040517f08c379a000000000000000000000000000000000000000000000000000000000815260040161248e90614508565b60405180910390fd5b6006805480602002602001604051908101604052809291908181526020016000905b828210156125655783829060005260206000200180546124d89061496d565b80601f01602080910402602001604051908101604052809291908181526020018280546125049061496d565b80156125515780601f1061252657610100808354040283529160200191612551565b820191906000526020600020905b81548152906001019060200180831161253457829003601f168201915b5050505050815260200190600101906124b9565b50505050905090565b6000600760009054906101000a900473ffffffffffffffffffffffffffffffffffffffff1673ffffffffffffffffffffffffffffffffffffffff163373ffffffffffffffffffffffffffffffffffffffff16146125ca57600080fd5b600680549050905090565b6000600560008473ffffffffffffffffffffffffffffffffffffffff1673ffffffffffffffffffffffffffffffffffffffff16815260200190815260200160002060008373ffffffffffffffffffffffffffffffffffffffff1673ffffffffffffffffffffffffffffffffffffffff16815260200190815260200160002060009054906101000a900460ff16905092915050565b6009818051602081018201805184825260208301602085012081835280955050505050506000915090508060000154908060010180546126a89061496d565b80601f01602080910402602001604051908101604052809291908181526020018280546126d49061496d565b80156127215780601f106126f657610100808354040283529160200191612721565b820191906000526020600020905b81548152906001019060200180831161270457829003601f168201915b5050505050908060020160009054906101000a900460ff16908060020160019054906101000a900460ff16905084565b600a826040516127619190614145565b908152602001604051809103902060009054906101000a900460ff166127bc576040517f08c379a00000000000000000000000000000000000000000000000000000000081526004016127b3906144a8565b60405180910390fd5b3373ffffffffffffffffffffffffffffffffffffffff166127fd6009846040516127e69190614145565b908152602001604051809103902060000154610b48565b73ffffffffffffffffffffffffffffffffffffffff1614612853576040517f08c379a000000000000000000000000000000000000000000000000000000000815260040161284a906142e8565b60405180910390fd5b806009836040516128649190614145565b908152602001604051809103902060010190805190602001906128889291906135c4565b507f6714407191569b7b9edd5db2d624b8e2281272e577950f0e87ca156570ffe9e4826040516128b891906142c6565b60405180910390a15050565b600760009054906101000a900473ffffffffffffffffffffffffffffffffffffffff1681565b60007f01ffc9a7000000000000000000000000000000000000000000000000000000007bffffffffffffffffffffffffffffffffffffffffffffffffffffffff1916827bffffffffffffffffffffffffffffffffffffffffffffffffffffffff1916149050919050565b61295d81613394565b61299c576040517f08c379a0000000000000000000000000000000000000000000000000000000008152600401612993906144c8565b60405180910390fd5b50565b600033905090565b816004600083815260200190815260200160002060006101000a81548173ffffffffffffffffffffffffffffffffffffffff021916908373ffffffffffffffffffffffffffffffffffffffff160217905550808273ffffffffffffffffffffffffffffffffffffffff16612a1a83610b48565b73ffffffffffffffffffffffffffffffffffffffff167f8c5be1e5ebec7d5bd14f71427d1e84f3dd0314c0f7b2291e5b200ac8c7c3b92560405160405180910390a45050565b8273ffffffffffffffffffffffffffffffffffffffff16612a8082610b48565b73ffffffffffffffffffffffffffffffffffffffff1614612ad6576040517f08c379a0000000000000000000000000000000000000000000000000000000008152600401612acd90614348565b60405180910390fd5b600073ffffffffffffffffffffffffffffffffffffffff168273ffffffffffffffffffffffffffffffffffffffff161415612b46576040517f08c379a0000000000000000000000000000000000000000000000000000000008152600401612b3d906143a8565b60405180910390fd5b612b51838383613400565b612b5c6000826129a7565b6001600360008573ffffffffffffffffffffffffffffffffffffffff1673ffffffffffffffffffffffffffffffffffffffff1681526020019081526020016000206000828254612bac9190614839565b925050819055506001600360008473ffffffffffffffffffffffffffffffffffffffff1673ffffffffffffffffffffffffffffffffffffffff1681526020019081526020016000206000828254612c0391906147b2565b92505081905550816002600083815260200190815260200160002060006101000a81548173ffffffffffffffffffffffffffffffffffffffff021916908373ffffffffffffffffffffffffffffffffffffffff160217905550808273ffffffffffffffffffffffffffffffffffffffff168473ffffffffffffffffffffffffffffffffffffffff167fddf252ad1be2c89b69c2b068fc378daa952ba7f163c4a11628f55a4df523b3ef60405160405180910390a4612cc2838383613405565b505050565b600080612cd383610b48565b90508073ffffffffffffffffffffffffffffffffffffffff168473ffffffffffffffffffffffffffffffffffffffff161480612d155750612d1481856125d5565b5b80612d5357508373ffffffffffffffffffffffffffffffffffffffff16612d3b84610756565b73ffffffffffffffffffffffffffffffffffffffff16145b91505092915050565b600073ffffffffffffffffffffffffffffffffffffffff168273ffffffffffffffffffffffffffffffffffffffff161415612dcc576040517f08c379a0000000000000000000000000000000000000000000000000000000008152600401612dc390614488565b60405180910390fd5b612dd581613394565b15612e15576040517f08c379a0000000000000000000000000000000000000000000000000000000008152600401612e0c90614368565b60405180910390fd5b612e2160008383613400565b6001600360008473ffffffffffffffffffffffffffffffffffffffff1673ffffffffffffffffffffffffffffffffffffffff1681526020019081526020016000206000828254612e7191906147b2565b92505081905550816002600083815260200190815260200160002060006101000a81548173ffffffffffffffffffffffffffffffffffffffff021916908373ffffffffffffffffffffffffffffffffffffffff160217905550808273ffffffffffffffffffffffffffffffffffffffff16600073ffffffffffffffffffffffffffffffffffffffff167fddf252ad1be2c89b69c2b068fc378daa952ba7f163c4a11628f55a4df523b3ef60405160405180910390a4612f3260008383613405565b5050565b8173ffffffffffffffffffffffffffffffffffffffff168373ffffffffffffffffffffffffffffffffffffffff161415612fa5576040517f08c379a0000000000000000000000000000000000000000000000000000000008152600401612f9c906143c8565b60405180910390fd5b80600560008573ffffffffffffffffffffffffffffffffffffffff1673ffffffffffffffffffffffffffffffffffffffff16815260200190815260200160002060008473ffffffffffffffffffffffffffffffffffffffff1673ffffffffffffffffffffffffffffffffffffffff16815260200190815260200160002060006101000a81548160ff0219169083151502179055508173ffffffffffffffffffffffffffffffffffffffff168373ffffffffffffffffffffffffffffffffffffffff167f17307eab39ab6107e8899845ad3d59bd9653f200f220920489ca2b5937696c318360405161309691906142ab565b60405180910390a3505050565b6130ae848484612a60565b6130ba8484848461340a565b6130f9576040517f08c379a00000000000000000000000000000000000000000000000000000000081526004016130f090614308565b60405180910390fd5b50505050565b606060405180602001604052806000815250905090565b6060600082141561315e576040518060400160405280600181526020017f30000000000000000000000000000000000000000000000000000000000000008152509050613272565b600082905060005b60008214613190578080613179906149d0565b915050600a826131899190614808565b9150613166565b60008167ffffffffffffffff8111156131ac576131ab614b35565b5b6040519080825280601f01601f1916602001820160405280156131de5781602001600182028036833780820191505090505b5090505b6000851461326b576001826131f79190614839565b9150600a856132069190614a19565b603061321291906147b2565b60f81b81838151811061322857613227614b06565b5b60200101907effffffffffffffffffffffffffffffffffffffffffffffffffffffffffffff1916908160001a905350600a856132649190614808565b94506131e2565b8093505050505b919050565b600061328282610b48565b905061329081600084613400565b61329b6000836129a7565b6001600360008373ffffffffffffffffffffffffffffffffffffffff1673ffffffffffffffffffffffffffffffffffffffff16815260200190815260200160002060008282546132eb9190614839565b925050819055506002600083815260200190815260200160002060006101000a81549073ffffffffffffffffffffffffffffffffffffffff021916905581600073ffffffffffffffffffffffffffffffffffffffff168273ffffffffffffffffffffffffffffffffffffffff167fddf252ad1be2c89b69c2b068fc378daa952ba7f163c4a11628f55a4df523b3ef60405160405180910390a461339081600084613405565b5050565b60008073ffffffffffffffffffffffffffffffffffffffff166002600084815260200190815260200160002060009054906101000a900473ffffffffffffffffffffffffffffffffffffffff1673ffffffffffffffffffffffffffffffffffffffff1614159050919050565b505050565b505050565b600061342b8473ffffffffffffffffffffffffffffffffffffffff166135a1565b15613594578373ffffffffffffffffffffffffffffffffffffffff1663150b7a0261345461299f565b8786866040518563ffffffff1660e01b815260040161347694939291906141b2565b602060405180830381600087803b15801561349057600080fd5b505af19250505080156134c157506040513d601f19601f820116820180604052508101906134be91906139a0565b60015b613544573d80600081146134f1576040519150601f19603f3d011682016040523d82523d6000602084013e6134f6565b606091505b5060008151141561353c576040517f08c379a000000000000000000000000000000000000000000000000000000000815260040161353390614308565b60405180910390fd5b805181602001fd5b63150b7a0260e01b7bffffffffffffffffffffffffffffffffffffffffffffffffffffffff1916817bffffffffffffffffffffffffffffffffffffffffffffffffffffffff191614915050613599565b600190505b949350505050565b6000808273ffffffffffffffffffffffffffffffffffffffff163b119050919050565b8280546135d09061496d565b90600052602060002090601f0160209004810192826135f25760008555613639565b82601f1061360b57805160ff1916838001178555613639565b82800160010185558215613639579182015b8281111561363857825182559160200191906001019061361d565b5b509050613646919061364a565b5090565b5b8082111561366357600081600090555060010161364b565b5090565b600061367a6136758461463c565b614617565b90508281526020810184848401111561369657613695614b69565b5b6136a184828561492b565b509392505050565b60006136bc6136b78461466d565b614617565b9050828152602081018484840111156136d8576136d7614b69565b5b6136e384828561492b565b509392505050565b6000813590506136fa816150d0565b92915050565b60008135905061370f816150e7565b92915050565b600081359050613724816150fe565b92915050565b600081519050613739816150fe565b92915050565b600082601f83011261375457613753614b64565b5b8135613764848260208601613667565b91505092915050565b600082601f83011261378257613781614b64565b5b81356137928482602086016136a9565b91505092915050565b6000813590506137aa81615115565b92915050565b6000602082840312156137c6576137c5614b73565b5b60006137d4848285016136eb565b91505092915050565b600080604083850312156137f4576137f3614b73565b5b6000613802858286016136eb565b9250506020613813858286016136eb565b9150509250929050565b60008060006060848603121561383657613835614b73565b5b6000613844868287016136eb565b9350506020613855868287016136eb565b92505060406138668682870161379b565b9150509250925092565b6000806000806080858703121561388a57613889614b73565b5b6000613898878288016136eb565b94505060206138a9878288016136eb565b93505060406138ba8782880161379b565b925050606085013567ffffffffffffffff8111156138db576138da614b6e565b5b6138e78782880161373f565b91505092959194509250565b6000806040838503121561390a57613909614b73565b5b6000613918858286016136eb565b925050602061392985828601613700565b9150509250929050565b6000806040838503121561394a57613949614b73565b5b6000613958858286016136eb565b92505060206139698582860161379b565b9150509250929050565b60006020828403121561398957613988614b73565b5b600061399784828501613715565b91505092915050565b6000602082840312156139b6576139b5614b73565b5b60006139c48482850161372a565b91505092915050565b6000602082840312156139e3576139e2614b73565b5b600082013567ffffffffffffffff811115613a0157613a00614b6e565b5b613a0d8482850161376d565b91505092915050565b60008060408385031215613a2d57613a2c614b73565b5b600083013567ffffffffffffffff811115613a4b57613a4a614b6e565b5b613a578582860161376d565b9250506020613a68858286016136eb565b9150509250929050565b60008060408385031215613a8957613a88614b73565b5b600083013567ffffffffffffffff811115613aa757613aa6614b6e565b5b613ab38582860161376d565b9250506020613ac485828601613700565b9150509250929050565b60008060408385031215613ae557613ae4614b73565b5b600083013567ffffffffffffffff811115613b0357613b02614b6e565b5b613b0f8582860161376d565b925050602083013567ffffffffffffffff811115613b3057613b2f614b6e565b5b613b3c8582860161376d565b9150509250929050565b600060208284031215613b5c57613b5b614b73565b5b6000613b6a8482850161379b565b91505092915050565b6000613b7f8383613bb7565b60208301905092915050565b6000613b978383613d6c565b905092915050565b6000613bab8383614127565b60208301905092915050565b613bc08161486d565b82525050565b613bcf8161486d565b82525050565b6000613be0826146e3565b613bea8185614741565b9350613bf58361469e565b8060005b83811015613c26578151613c0d8882613b73565b9750613c188361471a565b925050600181019050613bf9565b5085935050505092915050565b6000613c3e826146ee565b613c488185614752565b935083602082028501613c5a856146ae565b8060005b85811015613c965784840389528151613c778582613b8b565b9450613c8283614727565b925060208a01995050600181019050613c5e565b50829750879550505050505092915050565b6000613cb3826146f9565b613cbd8185614763565b9350613cc8836146be565b8060005b83811015613cf9578151613ce08882613b9f565b9750613ceb83614734565b925050600181019050613ccc565b5085935050505092915050565b613d0f8161487f565b82525050565b6000613d2082614704565b613d2a8185614774565b9350613d3a81856020860161493a565b613d4381614b78565b840191505092915050565b613d5781614907565b82525050565b613d6681614919565b82525050565b6000613d778261470f565b613d818185614785565b9350613d9181856020860161493a565b613d9a81614b78565b840191505092915050565b6000613db08261470f565b613dba8185614796565b9350613dca81856020860161493a565b613dd381614b78565b840191505092915050565b6000613de98261470f565b613df381856147a7565b9350613e0381856020860161493a565b80840191505092915050565b60008154613e1c8161496d565b613e2681866147a7565b94506001821660008114613e415760018114613e5257613e85565b60ff19831686528186019350613e85565b613e5b856146ce565b60005b83811015613e7d57815481890152600182019150602081019050613e5e565b838801955050505b50505092915050565b6000613e9b602a83614796565b9150613ea682614b89565b604082019050919050565b6000613ebe603283614796565b9150613ec982614bd8565b604082019050919050565b6000613ee1602b83614796565b9150613eec82614c27565b604082019050919050565b6000613f04602583614796565b9150613f0f82614c76565b604082019050919050565b6000613f27601c83614796565b9150613f3282614cc5565b602082019050919050565b6000613f4a602883614796565b9150613f5582614cee565b604082019050919050565b6000613f6d602483614796565b9150613f7882614d3d565b604082019050919050565b6000613f90601983614796565b9150613f9b82614d8c565b602082019050919050565b6000613fb3602983614796565b9150613fbe82614db5565b604082019050919050565b6000613fd6601583614796565b9150613fe182614e04565b602082019050919050565b6000613ff9604083614796565b915061400482614e2d565b604082019050919050565b600061401c604183614796565b915061402782614e7c565b606082019050919050565b600061403f603e83614796565b915061404a82614ef1565b604082019050919050565b6000614062602083614796565b915061406d82614f40565b602082019050919050565b6000614085601583614796565b915061409082614f69565b602082019050919050565b60006140a8601883614796565b91506140b382614f92565b602082019050919050565b60006140cb602183614796565b91506140d682614fbb565b604082019050919050565b60006140ee602983614796565b91506140f98261500a565b604082019050919050565b6000614111602e83614796565b915061411c82615059565b604082019050919050565b614130816148fd565b82525050565b61413f816148fd565b82525050565b60006141518284613dde565b915081905092915050565b60006141688285613dde565b91506141748284613dde565b91508190509392505050565b600061418c8284613e0f565b915081905092915050565b60006020820190506141ac6000830184613bc6565b92915050565b60006080820190506141c76000830187613bc6565b6141d46020830186613bc6565b6141e16040830185614136565b81810360608301526141f38184613d15565b905095945050505050565b600060208201905081810360008301526142188184613c33565b905092915050565b600060c082019050818103600083015261423a8189613c33565b9050818103602083015261424e8188613ca8565b905081810360408301526142628187613c33565b905081810360608301526142768186613c33565b9050818103608083015261428a8185613c33565b905081810360a083015261429e8184613bd5565b9050979650505050505050565b60006020820190506142c06000830184613d06565b92915050565b600060208201905081810360008301526142e08184613da5565b905092915050565b6000602082019050818103600083015261430181613e8e565b9050919050565b6000602082019050818103600083015261432181613eb1565b9050919050565b6000602082019050818103600083015261434181613ed4565b9050919050565b6000602082019050818103600083015261436181613ef7565b9050919050565b6000602082019050818103600083015261438181613f1a565b9050919050565b600060208201905081810360008301526143a181613f3d565b9050919050565b600060208201905081810360008301526143c181613f60565b9050919050565b600060208201905081810360008301526143e181613f83565b9050919050565b6000602082019050818103600083015261440181613fa6565b9050919050565b6000602082019050818103600083015261442181613fc9565b9050919050565b6000602082019050818103600083015261444181613fec565b9050919050565b600060208201905081810360008301526144618161400f565b9050919050565b6000602082019050818103600083015261448181614032565b9050919050565b600060208201905081810360008301526144a181614055565b9050919050565b600060208201905081810360008301526144c181614078565b9050919050565b600060208201905081810360008301526144e18161409b565b9050919050565b60006020820190508181036000830152614501816140be565b9050919050565b60006020820190508181036000830152614521816140e1565b9050919050565b6000602082019050818103600083015261454181614104565b9050919050565b600060208201905061455d6000830184614136565b92915050565b60006080820190506145786000830187614136565b818103602083015261458a8186613da5565b90506145996040830185613d4e565b6145a66060830184613d5d565b95945050505050565b600060a0820190506145c46000830188614136565b81810360208301526145d68187613da5565b905081810360408301526145ea8186613da5565b905081810360608301526145fe8185613da5565b905061460d6080830184613bc6565b9695505050505050565b6000614621614632565b905061462d828261499f565b919050565b6000604051905090565b600067ffffffffffffffff82111561465757614656614b35565b5b61466082614b78565b9050602081019050919050565b600067ffffffffffffffff82111561468857614687614b35565b5b61469182614b78565b9050602081019050919050565b6000819050602082019050919050565b6000819050602082019050919050565b6000819050602082019050919050565b60008190508160005260206000209050919050565b600081519050919050565b600081519050919050565b600081519050919050565b600081519050919050565b600081519050919050565b6000602082019050919050565b6000602082019050919050565b6000602082019050919050565b600082825260208201905092915050565b600082825260208201905092915050565b600082825260208201905092915050565b600082825260208201905092915050565b600082825260208201905092915050565b600082825260208201905092915050565b600081905092915050565b60006147bd826148fd565b91506147c8836148fd565b9250827fffffffffffffffffffffffffffffffffffffffffffffffffffffffffffffffff038211156147fd576147fc614a4a565b5b828201905092915050565b6000614813826148fd565b915061481e836148fd565b92508261482e5761482d614a79565b5b828204905092915050565b6000614844826148fd565b915061484f836148fd565b92508282101561486257614861614a4a565b5b828203905092915050565b6000614878826148dd565b9050919050565b60008115159050919050565b60007fffffffff0000000000000000000000000000000000000000000000000000000082169050919050565b60008190506148c5826150a8565b919050565b60008190506148d8826150bc565b919050565b600073ffffffffffffffffffffffffffffffffffffffff82169050919050565b6000819050919050565b6000614912826148b7565b9050919050565b6000614924826148ca565b9050919050565b82818337600083830152505050565b60005b8381101561495857808201518184015260208101905061493d565b83811115614967576000848401525b50505050565b6000600282049050600182168061498557607f821691505b6020821081141561499957614998614ad7565b5b50919050565b6149a882614b78565b810181811067ffffffffffffffff821117156149c7576149c6614b35565b5b80604052505050565b60006149db826148fd565b91507fffffffffffffffffffffffffffffffffffffffffffffffffffffffffffffffff821415614a0e57614a0d614a4a565b5b600182019050919050565b6000614a24826148fd565b9150614a2f836148fd565b925082614a3f57614a3e614a79565b5b828206905092915050565b7f4e487b7100000000000000000000000000000000000000000000000000000000600052601160045260246000fd5b7f4e487b7100000000000000000000000000000000000000000000000000000000600052601260045260246000fd5b7f4e487b7100000000000000000000000000000000000000000000000000000000600052602160045260246000fd5b7f4e487b7100000000000000000000000000000000000000000000000000000000600052602260045260246000fd5b7f4e487b7100000000000000000000000000000000000000000000000000000000600052603260045260246000fd5b7f4e487b7100000000000000000000000000000000000000000000000000000000600052604160045260246000fd5b600080fd5b600080fd5b600080fd5b600080fd5b6000601f19601f8301169050919050565b7f4f6e6c792074686520746f6b656e206f776e65722063616e207570646174652060008201527f74686520746f6b656e2e00000000000000000000000000000000000000000000602082015250565b7f4552433732313a207472616e7366657220746f206e6f6e20455243373231526560008201527f63656976657220696d706c656d656e7465720000000000000000000000000000602082015250565b7f4f6e6c792074686520746f6b656e206f776e65722063616e2064657374726f7960008201527f2074686520746f6b656e2e000000000000000000000000000000000000000000602082015250565b7f4552433732313a207472616e736665722066726f6d20696e636f72726563742060008201527f6f776e6572000000000000000000000000000000000000000000000000000000602082015250565b7f4552433732313a20746f6b656e20616c7265616479206d696e74656400000000600082015250565b7f4f6e6c7920746f6b656e206f776e65722063616e207472616e7366657220746860008201527f6520746f6b656e2e000000000000000000000000000000000000000000000000602082015250565b7f4552433732313a207472616e7366657220746f20746865207a65726f2061646460008201527f7265737300000000000000000000000000000000000000000000000000000000602082015250565b7f4552433732313a20617070726f766520746f2063616c6c657200000000000000600082015250565b7f4552433732313a2061646472657373207a65726f206973206e6f74206120766160008201527f6c6964206f776e65720000000000000000000000000000000000000000000000602082015250565b7f546f6b656e20616c7265616479206578697374732e0000000000000000000000600082015250565b7f4f6e6c792074686520746f6b656e206f776e65722063616e207570646174652060008201527f7265636f676e6974696f6e20737461747573206f662074686520746f6b656e2e602082015250565b7f4f6e6c792074686520746f6b656e206f776e65722063616e207570646174652060008201527f766572696669636174696f6e20737461747573206f662074686520746f6b656e60208201527f2e00000000000000000000000000000000000000000000000000000000000000604082015250565b7f4552433732313a20617070726f76652063616c6c6572206973206e6f7420746f60008201527f6b656e206f776e6572206e6f7220617070726f76656420666f7220616c6c0000602082015250565b7f4552433732313a206d696e7420746f20746865207a65726f2061646472657373600082015250565b7f546f6b656e20646f6573206e6f742065786973742e0000000000000000000000600082015250565b7f4552433732313a20696e76616c696420746f6b656e2049440000000000000000600082015250565b7f4552433732313a20617070726f76616c20746f2063757272656e74206f776e6560008201527f7200000000000000000000000000000000000000000000000000000000000000602082015250565b7f4f6e6c7920636f6e7472616374206f776e65722063616e20717565727920616c60008201527f6c20746f6b656e732e0000000000000000000000000000000000000000000000602082015250565b7f4552433732313a2063616c6c6572206973206e6f7420746f6b656e206f776e6560008201527f72206e6f7220617070726f766564000000000000000000000000000000000000602082015250565b600381106150b9576150b8614aa8565b5b50565b600381106150cd576150cc614aa8565b5b50565b6150d98161486d565b81146150e457600080fd5b50565b6150f08161487f565b81146150fb57600080fd5b50565b6151078161488b565b811461511257600080fd5b50565b61511e816148fd565b811461512957600080fd5b5056fea2646970667358221220d7409d0f68c403aad0c7ea69f42c4d9842583b1abcd4f6a1421e53432f10d47764736f6c63430008070033",
  "immutableReferences": {},
  "source": "// SPDX-License-Identifier: MIT\npragma solidity ^0.8.0;\n\nimport \"../node_modules/@openzeppelin/contracts/token/ERC721/ERC721.sol\";\n\ncontract DigitalTwin is ERC721 {\n    string[] public alltks; // records all tks including burned\n    address public admin;\n    uint256 public tkcount; // count unburned tks\n\n    /**\n     * Recognition: Packaging\n     * Verification: Product\n     */\n    enum Recognitionstatus {\n        PENDING,\n        VERIFIED,\n        DENIED\n    }\n\n    enum Verificationstatus {\n        PENDING,\n        VERIFIED,\n        DENIED\n    }\n\n    struct TkDetails {\n        uint256 id;\n        string metadata;\n        Recognitionstatus rstatus;\n        Verificationstatus vstatus;\n    }\n\n    mapping(string => TkDetails) public tks; // mapping of tkname => ProductTk struct\n    mapping(string => bool) public tkExists;\n\n    event TokenUpdated(string tkname);\n    event TokenVerified(string tkname);\n\n    constructor(string memory _name, string memory _symbol)\n        ERC721(_name, _symbol)\n    {\n        admin = msg.sender;\n    }\n\n    function mint(string memory _tkname, string memory _metadata) public {\n\n        require(!tkExists[_tkname], \"Token already exists.\");\n\n        alltks.push(_tkname);\n        uint256 id = alltks.length;\n        _mint(msg.sender, id);\n        tkcount = tkcount + 1;\n        \n        tks[_tkname].id = id;\n        tks[_tkname].metadata = _metadata;\n        tks[_tkname].rstatus = Recognitionstatus.PENDING;\n        tks[_tkname].vstatus = Verificationstatus.PENDING;\n\n        tkExists[_tkname] = true;\n    }\n\n    /**\n     * update only updates the metadata of an existing token\n     */\n    function update(string memory _tkname, string memory _metadata) public {\n\n        require(tkExists[_tkname], \"Token does not exist.\");\n        require(\n            ownerOf(tks[_tkname].id) == address(msg.sender),\n            \"Only the token owner can update the token.\"\n        );\n\n        tks[_tkname].metadata = _metadata;\n\n        emit TokenUpdated(_tkname);\n    }\n\n    /**\n     * recognize is called by processor upon optical verification of the product\n     */\n    function recognize(string memory _tkname, bool _status) public {\n\n        require(tkExists[_tkname], \"Token does not exist.\");\n        require(msg.sender == admin, \"Only the token owner can update recognition status of the token.\");\n\n        if (_status == true) {\n            tks[_tkname].rstatus = Recognitionstatus.VERIFIED;\n        }\n        else {\n            tks[_tkname].rstatus = Recognitionstatus.DENIED;\n        }\n\n        emit TokenVerified(_tkname);\n    }\n\n    /**\n     * verify is called by processor upon optical verification of the product\n     */\n    function verify(string memory _tkname, bool _status) public {\n\n        require(tkExists[_tkname], \"Token does not exist.\");\n        require(msg.sender == admin, \"Only the token owner can update verification status of the token.\");\n\n        if (_status == true) {\n            tks[_tkname].vstatus = Verificationstatus.VERIFIED;\n        }\n        else {\n            tks[_tkname].vstatus = Verificationstatus.DENIED;\n        }\n\n        emit TokenVerified(_tkname);\n    }\n\n    function burn(string memory _tkname) public {\n        require(tkExists[_tkname], \"Token does not exist.\");\n        require(\n            ownerOf(tks[_tkname].id) == address(msg.sender),\n            \"Only the token owner can destroy the token.\"\n        );\n\n        _burn(tks[_tkname].id); // transfer the token to the 0x address\n        tkExists[_tkname] = false; // change existence to false\n        tkcount = tkcount-1;\n\n        /// @notice: To delete from alltks: 1. find the index of an element; 2. to remove an element - shift the elements after the index and remove the last\n        // uint i = 0;\n        // uint j;\n        // while (keccak256(abi.encodePacked(alltks[i])) != keccak256(abi.encodePacked(_tkname))) {\n        //     i++;\n        // }\n        // for (j=i; j<alltks.length-1; j++) {\n        //     alltks[j] = alltks[j+1];\n        // }\n        // alltks.pop(); // remove the token from the alltks list\n\n        // delete tks[_tkname]; // delete token from the mapping\n    }\n\n    /// @notice tx.origin is the user account that starts the call, msg.sender is the contract that calls this contract\n    function transferByName(string memory _tkname, address _to) public {\n        require(tkExists[_tkname], \"Token does not exist.\");\n        require(ownerOf(tks[_tkname].id) == tx.origin, \"Only token owner can transfer the token.\");\n\n        _transfer(tx.origin,_to,tks[_tkname].id);\n    }\n\n    function approveByName(string memory _tkname, address _to) public {\n        require(tkExists[_tkname], \"Token does not exist.\");\n        require(ownerOf(tks[_tkname].id) == tx.origin, \"Only token owner can transfer the token.\");\n\n        _approve(_to, tks[_tkname].id);\n    }\n\n    /**\n     * @notice for js client to interact\n     */\n    function queryToken(string memory _tkname)\n        public\n        view\n        returns (uint256, string memory, string memory, string memory, address)\n    {\n        require(tkExists[_tkname], \"Token does not exist.\");\n        \n        string memory rstatus;\n        string memory vstatus;\n\n        if (tks[_tkname].rstatus == Recognitionstatus.PENDING) {\n            rstatus = \"pending packaging verification\";\n        } else if (tks[_tkname].rstatus == Recognitionstatus.VERIFIED) {\n            rstatus = \"packaging verified\";\n        } else {\n            rstatus = \"packaging denied\";\n        }\n\n        if (tks[_tkname].vstatus == Verificationstatus.PENDING) {\n            vstatus = \"pending product verification\";\n        } else if (tks[_tkname].vstatus == Verificationstatus.VERIFIED) {\n            vstatus = \"product verified\";\n        } else {\n            vstatus = \"product denied\";\n        }\n\n        return (tks[_tkname].id, tks[_tkname].metadata, rstatus, vstatus, ownerOf(tks[_tkname].id));\n    }\n\n    /**\n     * query the metadata of a token\n     */\n    function countToken() public view returns (uint256) {\n        require(msg.sender == admin); // require caller to be the contract owner\n        return alltks.length;\n    }\n\n    function queryAll() public view returns (string[] memory) {\n        require(msg.sender == admin, \"Only contract owner can query all tokens.\"); // require caller to be the contract owner\n        return alltks;\n    }\n\n    function queryAllFields() \n        public \n        view \n        returns \n    (\n        string[] memory, \n        uint256[] memory, \n        string[] memory, \n        string[] memory, \n        string[] memory,\n        address[] memory\n    ) \n    {\n        string[] memory tkname = new string[](tkcount);\n        uint256[] memory internal_id = new uint256[](tkcount);\n        string[] memory metadata = new string[](tkcount);\n        string[] memory rstatus = new string[](tkcount);\n        string[] memory vstatus = new string[](tkcount);\n        address[] memory owner = new address[](tkcount);\n\n        for(uint256 i=0; i<alltks.length; i++){\n            if (tkExists[alltks[i]] == true) {\n                tkname[i] = alltks[i];\n                internal_id[i] = tks[alltks[i]].id;\n                metadata[i] = tks[alltks[i]].metadata;\n\n                if (tks[alltks[i]].rstatus == Recognitionstatus.PENDING) {\n                    rstatus[i] = \"pending packaging verification\";\n                } else if (tks[alltks[i]].rstatus == Recognitionstatus.VERIFIED) {\n                    rstatus[i] = \"packaging verified\";\n                } else {\n                    rstatus[i] = \"packaging denied\";\n                }\n\n                if (tks[alltks[i]].vstatus == Verificationstatus.PENDING) {\n                    vstatus[i] = \"pending product verification\";\n                } else if (tks[alltks[i]].vstatus == Verificationstatus.VERIFIED) {\n                    vstatus[i] = \"product verified\";\n                } else {\n                    vstatus[i] = \"product denied\";\n                }\n\n                owner[i] = ownerOf(tks[alltks[i]].id);\n            }\n        }\n\n        return (tkname, internal_id, metadata, rstatus, vstatus, owner);\n    }\n}\n",
  "sourcePath": "/home/yih/Documents/dev/beston-dapps/contracts/DigitalTwin.sol",
  "compiler": {
    "name": "solc",
    "version": "0.8.7+commit.e28d00a7.Emscripten.clang"
  },
  "schemaVersion": "3.4.1",
  "updatedAt": "2023-04-17T03:02:36.455Z",
  "networkType": "ethereum",
  "devdoc": {
    "kind": "dev",
    "methods": {
      "approve(address,uint256)": {
        "details": "See {IERC721-approve}."
      },
      "balanceOf(address)": {
        "details": "See {IERC721-balanceOf}."
      },
      "getApproved(uint256)": {
        "details": "See {IERC721-getApproved}."
      },
      "isApprovedForAll(address,address)": {
        "details": "See {IERC721-isApprovedForAll}."
      },
      "name()": {
        "details": "See {IERC721Metadata-name}."
      },
      "ownerOf(uint256)": {
        "details": "See {IERC721-ownerOf}."
      },
      "safeTransferFrom(address,address,uint256)": {
        "details": "See {IERC721-safeTransferFrom}."
      },
      "safeTransferFrom(address,address,uint256,bytes)": {
        "details": "See {IERC721-safeTransferFrom}."
      },
      "setApprovalForAll(address,bool)": {
        "details": "See {IERC721-setApprovalForAll}."
      },
      "supportsInterface(bytes4)": {
        "details": "See {IERC165-supportsInterface}."
      },
      "symbol()": {
        "details": "See {IERC721Metadata-symbol}."
      },
      "tokenURI(uint256)": {
        "details": "See {IERC721Metadata-tokenURI}."
      },
      "transferFrom(address,address,uint256)": {
        "details": "See {IERC721-transferFrom}."
      }
    },
    "version": 1
  },
  "userdoc": {
    "kind": "user",
    "methods": {
      "countToken()": {
        "notice": "query the metadata of a token"
      },
      "queryToken(string)": {
        "notice": "for js client to interact"
      },
      "recognize(string,bool)": {
        "notice": "recognize is called by processor upon optical verification of the product"
      },
      "transferByName(string,address)": {
        "notice": "tx.origin is the user account that starts the call, msg.sender is the contract that calls this contract"
      },
      "update(string,string)": {
        "notice": "update only updates the metadata of an existing token"
      },
      "verify(string,bool)": {
        "notice": "verify is called by processor upon optical verification of the product"
      }
    },
    "version": 1
  }
}