{
  "contractName": "DigitalTwin",
  "abi": [
    {
      "inputs": [
        {
          "internalType": "string",
          "name": "_name",
          "type": "string"
        },
        {
          "internalType": "string",
          "name": "_symbol",
          "type": "string"
        }
      ],
      "stateMutability": "nonpayable",
      "type": "constructor"
    },
    {
      "anonymous": false,
      "inputs": [
        {
          "indexed": true,
          "internalType": "address",
          "name": "owner",
          "type": "address"
        },
        {
          "indexed": true,
          "internalType": "address",
          "name": "approved",
          "type": "address"
        },
        {
          "indexed": true,
          "internalType": "uint256",
          "name": "tokenId",
          "type": "uint256"
        }
      ],
      "name": "Approval",
      "type": "event"
    },
    {
      "anonymous": false,
      "inputs": [
        {
          "indexed": true,
          "internalType": "address",
          "name": "owner",
          "type": "address"
        },
        {
          "indexed": true,
          "internalType": "address",
          "name": "operator",
          "type": "address"
        },
        {
          "indexed": false,
          "internalType": "bool",
          "name": "approved",
          "type": "bool"
        }
      ],
      "name": "ApprovalForAll",
      "type": "event"
    },
    {
      "anonymous": false,
      "inputs": [
        {
          "indexed": false,
          "internalType": "string",
          "name": "tkname",
          "type": "string"
        }
      ],
      "name": "TokenUpdated",
      "type": "event"
    },
    {
      "anonymous": false,
      "inputs": [
        {
          "indexed": false,
          "internalType": "string",
          "name": "tkname",
          "type": "string"
        }
      ],
      "name": "TokenVerified",
      "type": "event"
    },
    {
      "anonymous": false,
      "inputs": [
        {
          "indexed": true,
          "internalType": "address",
          "name": "from",
          "type": "address"
        },
        {
          "indexed": true,
          "internalType": "address",
          "name": "to",
          "type": "address"
        },
        {
          "indexed": true,
          "internalType": "uint256",
          "name": "tokenId",
          "type": "uint256"
        }
      ],
      "name": "Transfer",
      "type": "event"
    },
    {
      "inputs": [],
      "name": "admin",
      "outputs": [
        {
          "internalType": "address",
          "name": "",
          "type": "address"
        }
      ],
      "stateMutability": "view",
      "type": "function",
      "constant": true
    },
    {
      "inputs": [
        {
          "internalType": "uint256",
          "name": "",
          "type": "uint256"
        }
      ],
      "name": "alltks",
      "outputs": [
        {
          "internalType": "string",
          "name": "",
          "type": "string"
        }
      ],
      "stateMutability": "view",
      "type": "function",
      "constant": true
    },
    {
      "inputs": [
        {
          "internalType": "address",
          "name": "to",
          "type": "address"
        },
        {
          "internalType": "uint256",
          "name": "tokenId",
          "type": "uint256"
        }
      ],
      "name": "approve",
      "outputs": [],
      "stateMutability": "nonpayable",
      "type": "function"
    },
    {
      "inputs": [
        {
          "internalType": "address",
          "name": "owner",
          "type": "address"
        }
      ],
      "name": "balanceOf",
      "outputs": [
        {
          "internalType": "uint256",
          "name": "",
          "type": "uint256"
        }
      ],
      "stateMutability": "view",
      "type": "function",
      "constant": true
    },
    {
      "inputs": [
        {
          "internalType": "uint256",
          "name": "tokenId",
          "type": "uint256"
        }
      ],
      "name": "getApproved",
      "outputs": [
        {
          "internalType": "address",
          "name": "",
          "type": "address"
        }
      ],
      "stateMutability": "view",
      "type": "function",
      "constant": true
    },
    {
      "inputs": [
        {
          "internalType": "address",
          "name": "owner",
          "type": "address"
        },
        {
          "internalType": "address",
          "name": "operator",
          "type": "address"
        }
      ],
      "name": "isApprovedForAll",
      "outputs": [
        {
          "internalType": "bool",
          "name": "",
          "type": "bool"
        }
      ],
      "stateMutability": "view",
      "type": "function",
      "constant": true
    },
    {
      "inputs": [],
      "name": "name",
      "outputs": [
        {
          "internalType": "string",
          "name": "",
          "type": "string"
        }
      ],
      "stateMutability": "view",
      "type": "function",
      "constant": true
    },
    {
      "inputs": [
        {
          "internalType": "uint256",
          "name": "tokenId",
          "type": "uint256"
        }
      ],
      "name": "ownerOf",
      "outputs": [
        {
          "internalType": "address",
          "name": "",
          "type": "address"
        }
      ],
      "stateMutability": "view",
      "type": "function",
      "constant": true
    },
    {
      "inputs": [
        {
          "internalType": "address",
          "name": "from",
          "type": "address"
        },
        {
          "internalType": "address",
          "name": "to",
          "type": "address"
        },
        {
          "internalType": "uint256",
          "name": "tokenId",
          "type": "uint256"
        }
      ],
      "name": "safeTransferFrom",
      "outputs": [],
      "stateMutability": "nonpayable",
      "type": "function"
    },
    {
      "inputs": [
        {
          "internalType": "address",
          "name": "from",
          "type": "address"
        },
        {
          "internalType": "address",
          "name": "to",
          "type": "address"
        },
        {
          "internalType": "uint256",
          "name": "tokenId",
          "type": "uint256"
        },
        {
          "internalType": "bytes",
          "name": "_data",
          "type": "bytes"
        }
      ],
      "name": "safeTransferFrom",
      "outputs": [],
      "stateMutability": "nonpayable",
      "type": "function"
    },
    {
      "inputs": [
        {
          "internalType": "address",
          "name": "operator",
          "type": "address"
        },
        {
          "internalType": "bool",
          "name": "approved",
          "type": "bool"
        }
      ],
      "name": "setApprovalForAll",
      "outputs": [],
      "stateMutability": "nonpayable",
      "type": "function"
    },
    {
      "inputs": [
        {
          "internalType": "bytes4",
          "name": "interfaceId",
          "type": "bytes4"
        }
      ],
      "name": "supportsInterface",
      "outputs": [
        {
          "internalType": "bool",
          "name": "",
          "type": "bool"
        }
      ],
      "stateMutability": "view",
      "type": "function",
      "constant": true
    },
    {
      "inputs": [],
      "name": "symbol",
      "outputs": [
        {
          "internalType": "string",
          "name": "",
          "type": "string"
        }
      ],
      "stateMutability": "view",
      "type": "function",
      "constant": true
    },
    {
      "inputs": [
        {
          "internalType": "string",
          "name": "",
          "type": "string"
        }
      ],
      "name": "tkExists",
      "outputs": [
        {
          "internalType": "bool",
          "name": "",
          "type": "bool"
        }
      ],
      "stateMutability": "view",
      "type": "function",
      "constant": true
    },
    {
      "inputs": [
        {
          "internalType": "string",
          "name": "",
          "type": "string"
        }
      ],
      "name": "tks",
      "outputs": [
        {
          "internalType": "uint256",
          "name": "id",
          "type": "uint256"
        },
        {
          "internalType": "string",
          "name": "metadata",
          "type": "string"
        },
        {
          "internalType": "enum DigitalTwin.Verificationstatus",
          "name": "status",
          "type": "uint8"
        }
      ],
      "stateMutability": "view",
      "type": "function",
      "constant": true
    },
    {
      "inputs": [
        {
          "internalType": "uint256",
          "name": "tokenId",
          "type": "uint256"
        }
      ],
      "name": "tokenURI",
      "outputs": [
        {
          "internalType": "string",
          "name": "",
          "type": "string"
        }
      ],
      "stateMutability": "view",
      "type": "function",
      "constant": true
    },
    {
      "inputs": [
        {
          "internalType": "address",
          "name": "from",
          "type": "address"
        },
        {
          "internalType": "address",
          "name": "to",
          "type": "address"
        },
        {
          "internalType": "uint256",
          "name": "tokenId",
          "type": "uint256"
        }
      ],
      "name": "transferFrom",
      "outputs": [],
      "stateMutability": "nonpayable",
      "type": "function"
    },
    {
      "inputs": [
        {
          "internalType": "string",
          "name": "_tkname",
          "type": "string"
        },
        {
          "internalType": "string",
          "name": "_metadata",
          "type": "string"
        }
      ],
      "name": "mint",
      "outputs": [],
      "stateMutability": "nonpayable",
      "type": "function"
    },
    {
      "inputs": [
        {
          "internalType": "string",
          "name": "_tkname",
          "type": "string"
        },
        {
          "internalType": "string",
          "name": "_metadata",
          "type": "string"
        }
      ],
      "name": "update",
      "outputs": [],
      "stateMutability": "nonpayable",
      "type": "function"
    },
    {
      "inputs": [
        {
          "internalType": "string",
          "name": "_tkname",
          "type": "string"
        },
        {
          "internalType": "bool",
          "name": "_status",
          "type": "bool"
        }
      ],
      "name": "verify",
      "outputs": [],
      "stateMutability": "nonpayable",
      "type": "function"
    },
    {
      "inputs": [
        {
          "internalType": "string",
          "name": "_tkname",
          "type": "string"
        }
      ],
      "name": "burn",
      "outputs": [],
      "stateMutability": "nonpayable",
      "type": "function"
    },
    {
      "inputs": [
        {
          "internalType": "string",
          "name": "_tkname",
          "type": "string"
        },
        {
          "internalType": "address",
          "name": "_to",
          "type": "address"
        }
      ],
      "name": "transferByName",
      "outputs": [],
      "stateMutability": "nonpayable",
      "type": "function"
    },
    {
      "inputs": [
        {
          "internalType": "string",
          "name": "_tkname",
          "type": "string"
        }
      ],
      "name": "queryToken",
      "outputs": [
        {
          "internalType": "uint256",
          "name": "",
          "type": "uint256"
        },
        {
          "internalType": "string",
          "name": "",
          "type": "string"
        },
        {
          "internalType": "string",
          "name": "",
          "type": "string"
        },
        {
          "internalType": "address",
          "name": "",
          "type": "address"
        }
      ],
      "stateMutability": "view",
      "type": "function",
      "constant": true
    },
    {
      "inputs": [],
      "name": "countToken",
      "outputs": [
        {
          "internalType": "uint256",
          "name": "",
          "type": "uint256"
        }
      ],
      "stateMutability": "view",
      "type": "function",
      "constant": true
    },
    {
      "inputs": [],
      "name": "queryAll",
      "outputs": [
        {
          "internalType": "string[]",
          "name": "",
          "type": "string[]"
        }
      ],
      "stateMutability": "view",
      "type": "function",
      "constant": true
    },
    {
      "inputs": [],
      "name": "queryAllFields",
      "outputs": [
        {
          "internalType": "string[]",
          "name": "",
          "type": "string[]"
        },
        {
          "internalType": "uint256[]",
          "name": "",
          "type": "uint256[]"
        },
        {
          "internalType": "string[]",
          "name": "",
          "type": "string[]"
        },
        {
          "internalType": "string[]",
          "name": "",
          "type": "string[]"
        },
        {
          "internalType": "address[]",
          "name": "",
          "type": "address[]"
        }
      ],
      "stateMutability": "view",
      "type": "function",
      "constant": true
    }
  ],
  "bytecode": "0x60806040523480156200001157600080fd5b50604051620050b4380380620050b48339818101604052810190620000379190620001e4565b8181816000908051906020019062000051929190620000b6565b5080600190805190602001906200006a929190620000b6565b50505033600760006101000a81548173ffffffffffffffffffffffffffffffffffffffff021916908373ffffffffffffffffffffffffffffffffffffffff1602179055505050620003ed565b828054620000c490620002fe565b90600052602060002090601f016020900481019282620000e8576000855562000134565b82601f106200010357805160ff191683800117855562000134565b8280016001018555821562000134579182015b828111156200013357825182559160200191906001019062000116565b5b50905062000143919062000147565b5090565b5b808211156200016257600081600090555060010162000148565b5090565b60006200017d620001778462000292565b62000269565b9050828152602081018484840111156200019c576200019b620003cd565b5b620001a9848285620002c8565b509392505050565b600082601f830112620001c957620001c8620003c8565b5b8151620001db84826020860162000166565b91505092915050565b60008060408385031215620001fe57620001fd620003d7565b5b600083015167ffffffffffffffff8111156200021f576200021e620003d2565b5b6200022d85828601620001b1565b925050602083015167ffffffffffffffff811115620002515762000250620003d2565b5b6200025f85828601620001b1565b9150509250929050565b60006200027562000288565b905062000283828262000334565b919050565b6000604051905090565b600067ffffffffffffffff821115620002b057620002af62000399565b5b620002bb82620003dc565b9050602081019050919050565b60005b83811015620002e8578082015181840152602081019050620002cb565b83811115620002f8576000848401525b50505050565b600060028204905060018216806200031757607f821691505b602082108114156200032e576200032d6200036a565b5b50919050565b6200033f82620003dc565b810181811067ffffffffffffffff8211171562000361576200036062000399565b5b80604052505050565b7f4e487b7100000000000000000000000000000000000000000000000000000000600052602260045260246000fd5b7f4e487b7100000000000000000000000000000000000000000000000000000000600052604160045260246000fd5b600080fd5b600080fd5b600080fd5b600080fd5b6000601f19601f8301169050919050565b614cb780620003fd6000396000f3fe608060405234801561001057600080fd5b506004361061018e5760003560e01c806395d89b41116100de578063dafa1d2d11610097578063e985e9c511610071578063e985e9c5146104ac578063ef3ecfb2146104dc578063f4c84d191461050e578063f851a4401461052a5761018e565b8063dafa1d2d14610454578063e592470814610470578063e7a81c551461048e5761018e565b806395d89b411461037f578063a22cb4651461039d578063b88d4fde146103b9578063c5573d46146103d5578063c87b56dd14610408578063d26ac388146104385761018e565b806323b872dd1161014b5780636352211e116101255780636352211e146102e157806370a0823114610311578063747c6e8b146103415780638aa0fdad146103635761018e565b806323b872dd146102795780633f5e37191461029557806342842e0e146102c55761018e565b806301ffc9a71461019357806306fdde03146101c3578063081812fc146101e1578063095ea7b3146102115780630ad5b5051461022d5780630d202ced1461025d575b600080fd5b6101ad60048036038101906101a891906133cf565b610548565b6040516101ba9190613d29565b60405180910390f35b6101cb61062a565b6040516101d89190613d44565b60405180910390f35b6101fb60048036038101906101f691906135a2565b6106bc565b6040516102089190613c2a565b60405180910390f35b61022b6004803603810190610226919061338f565b610741565b005b61024760048036038101906102429190613429565b610859565b6040516102549190613d29565b60405180910390f35b61027760048036038101906102729190613472565b61088f565b005b610293600480360381019061028e9190613279565b6109c1565b005b6102af60048036038101906102aa91906135a2565b610a21565b6040516102bc9190613d44565b60405180910390f35b6102df60048036038101906102da9190613279565b610acd565b005b6102fb60048036038101906102f691906135a2565b610aed565b6040516103089190613c2a565b60405180910390f35b61032b6004803603810190610326919061320c565b610b9f565b6040516103389190614006565b60405180910390f35b610349610c57565b60405161035a959493929190613cb3565b60405180910390f35b61037d6004803603810190610378919061352a565b611292565b005b610387611430565b6040516103949190613d44565b60405180910390f35b6103b760048036038101906103b2919061334f565b6114c2565b005b6103d360048036038101906103ce91906132cc565b6114d8565b005b6103ef60048036038101906103ea9190613429565b61153a565b6040516103ff949392919061405f565b60405180910390f35b610422600480360381019061041d91906135a2565b611822565b60405161042f9190613d44565b60405180910390f35b610452600480360381019061044d91906134ce565b6118c9565b005b61046e60048036038101906104699190613429565b611aad565b005b610478611da9565b6040516104859190613c91565b60405180910390f35b610496611f12565b6040516104a39190614006565b60405180910390f35b6104c660048036038101906104c19190613239565b611f79565b6040516104d39190613d29565b60405180910390f35b6104f660048036038101906104f19190613429565b61200d565b60405161050593929190614021565b60405180910390f35b6105286004803603810190610523919061352a565b6120e2565b005b610532612255565b60405161053f9190613c2a565b60405180910390f35b60007f80ac58cd000000000000000000000000000000000000000000000000000000007bffffffffffffffffffffffffffffffffffffffffffffffffffffffff1916827bffffffffffffffffffffffffffffffffffffffffffffffffffffffff1916148061061357507f5b5e139f000000000000000000000000000000000000000000000000000000007bffffffffffffffffffffffffffffffffffffffffffffffffffffffff1916827bffffffffffffffffffffffffffffffffffffffffffffffffffffffff1916145b8061062357506106228261227b565b5b9050919050565b606060008054610639906143e3565b80601f0160208091040260200160405190810160405280929190818152602001828054610665906143e3565b80156106b25780601f10610687576101008083540402835291602001916106b2565b820191906000526020600020905b81548152906001019060200180831161069557829003601f168201915b5050505050905090565b60006106c7826122e5565b610706576040517f08c379a00000000000000000000000000000000000000000000000000000000081526004016106fd90613f66565b60405180910390fd5b6004600083815260200190815260200160002060009054906101000a900473ffffffffffffffffffffffffffffffffffffffff169050919050565b600061074c82610aed565b90508073ffffffffffffffffffffffffffffffffffffffff168373ffffffffffffffffffffffffffffffffffffffff1614156107bd576040517f08c379a00000000000000000000000000000000000000000000000000000000081526004016107b490613fa6565b60405180910390fd5b8073ffffffffffffffffffffffffffffffffffffffff166107dc612351565b73ffffffffffffffffffffffffffffffffffffffff16148061080b575061080a81610805612351565b611f79565b5b61084a576040517f08c379a000000000000000000000000000000000000000000000000000000000815260040161084190613e86565b60405180910390fd5b6108548383612359565b505050565b600a818051602081018201805184825260208301602085012081835280955050505050506000915054906101000a900460ff1681565b600a8260405161089f9190613bd8565b908152602001604051809103902060009054906101000a900460ff166108fa576040517f08c379a00000000000000000000000000000000000000000000000000000000081526004016108f190613f46565b60405180910390fd5b3273ffffffffffffffffffffffffffffffffffffffff1661093b6009846040516109249190613bd8565b908152602001604051809103902060000154610aed565b73ffffffffffffffffffffffffffffffffffffffff1614610991576040517f08c379a000000000000000000000000000000000000000000000000000000000815260040161098890613e06565b60405180910390fd5b6109bd32826009856040516109a69190613bd8565b908152602001604051809103902060000154612412565b5050565b6109d26109cc612351565b82612679565b610a11576040517f08c379a0000000000000000000000000000000000000000000000000000000008152600401610a0890613fe6565b60405180910390fd5b610a1c838383612412565b505050565b60068181548110610a3157600080fd5b906000526020600020016000915090508054610a4c906143e3565b80601f0160208091040260200160405190810160405280929190818152602001828054610a78906143e3565b8015610ac55780601f10610a9a57610100808354040283529160200191610ac5565b820191906000526020600020905b815481529060010190602001808311610aa857829003601f168201915b505050505081565b610ae8838383604051806020016040528060008152506114d8565b505050565b6000806002600084815260200190815260200160002060009054906101000a900473ffffffffffffffffffffffffffffffffffffffff169050600073ffffffffffffffffffffffffffffffffffffffff168173ffffffffffffffffffffffffffffffffffffffff161415610b96576040517f08c379a0000000000000000000000000000000000000000000000000000000008152600401610b8d90613ec6565b60405180910390fd5b80915050919050565b60008073ffffffffffffffffffffffffffffffffffffffff168273ffffffffffffffffffffffffffffffffffffffff161415610c10576040517f08c379a0000000000000000000000000000000000000000000000000000000008152600401610c0790613ea6565b60405180910390fd5b600360008373ffffffffffffffffffffffffffffffffffffffff1673ffffffffffffffffffffffffffffffffffffffff168152602001908152602001600020549050919050565b6060806060806060600060068054905067ffffffffffffffff811115610c8057610c7f6145da565b5b604051908082528060200260200182016040528015610cae5781602001602082028036833780820191505090505b509050600060068054905067ffffffffffffffff811115610cd257610cd16145da565b5b604051908082528060200260200182016040528015610d0557816020015b6060815260200190600190039081610cf05790505b509050600060068054905067ffffffffffffffff811115610d2957610d286145da565b5b604051908082528060200260200182016040528015610d5c57816020015b6060815260200190600190039081610d475790505b509050600060068054905067ffffffffffffffff811115610d8057610d7f6145da565b5b604051908082528060200260200182016040528015610dae5781602001602082028036833780820191505090505b50905060005b6006805490508110156111a357600960068281548110610dd757610dd66145ab565b5b90600052602060002001604051610dee9190613c13565b908152602001604051809103902060000154858281518110610e1357610e126145ab565b5b602002602001018181525050600960068281548110610e3557610e346145ab565b5b90600052602060002001604051610e4c9190613c13565b90815260200160405180910390206001018054610e68906143e3565b80601f0160208091040260200160405190810160405280929190818152602001828054610e94906143e3565b8015610ee15780601f10610eb657610100808354040283529160200191610ee1565b820191906000526020600020905b815481529060010190602001808311610ec457829003601f168201915b5050505050848281518110610ef957610ef86145ab565b5b602002602001018190525060006002811115610f1857610f1761451e565b5b600960068381548110610f2e57610f2d6145ab565b5b90600052602060002001604051610f459190613c13565b908152602001604051809103902060020160009054906101000a900460ff166002811115610f7657610f7561451e565b5b1415610fd5576040518060400160405280601481526020017f70656e64696e6720766572696669636174696f6e000000000000000000000000815250838281518110610fc557610fc46145ab565b5b60200260200101819052506110fc565b60016002811115610fe957610fe861451e565b5b600960068381548110610fff57610ffe6145ab565b5b906000526020600020016040516110169190613c13565b908152602001604051809103902060020160009054906101000a900460ff1660028111156110475761104661451e565b5b14156110a6576040518060400160405280600881526020017f7665726966696564000000000000000000000000000000000000000000000000815250838281518110611096576110956145ab565b5b60200260200101819052506110fb565b6040518060400160405280600681526020017f64656e69656400000000000000000000000000000000000000000000000000008152508382815181106110ef576110ee6145ab565b5b60200260200101819052505b5b611143600960068381548110611115576111146145ab565b5b9060005260206000200160405161112c9190613c13565b908152602001604051809103902060000154610aed565b828281518110611156576111556145ab565b5b602002602001019073ffffffffffffffffffffffffffffffffffffffff16908173ffffffffffffffffffffffffffffffffffffffff1681525050808061119b90614446565b915050610db4565b5060068484848484805480602002602001604051908101604052809291908181526020016000905b828210156112775783829060005260206000200180546111ea906143e3565b80601f0160208091040260200160405190810160405280929190818152602001828054611216906143e3565b80156112635780601f1061123857610100808354040283529160200191611263565b820191906000526020600020905b81548152906001019060200180831161124657829003601f168201915b5050505050815260200190600101906111cb565b50505050945098509850985098509850505050509091929394565b600a826040516112a29190613bd8565b908152602001604051809103902060009054906101000a900460ff16156112fe576040517f08c379a00000000000000000000000000000000000000000000000000000000081526004016112f590613ee6565b60405180910390fd5b600682908060018154018082558091505060019003906000526020600020016000909190919091509080519060200190611339929190612f53565b506000600680549050905061134e3382612757565b8060098460405161135f9190613bd8565b908152602001604051809103902060000181905550816009846040516113859190613bd8565b908152602001604051809103902060010190805190602001906113a9929190612f53565b5060006009846040516113bc9190613bd8565b908152602001604051809103902060020160006101000a81548160ff021916908360028111156113ef576113ee61451e565b5b02179055506001600a846040516114069190613bd8565b908152602001604051809103902060006101000a81548160ff021916908315150217905550505050565b60606001805461143f906143e3565b80601f016020809104026020016040519081016040528092919081815260200182805461146b906143e3565b80156114b85780601f1061148d576101008083540402835291602001916114b8565b820191906000526020600020905b81548152906001019060200180831161149b57829003601f168201915b5050505050905090565b6114d46114cd612351565b8383612931565b5050565b6114e96114e3612351565b83612679565b611528576040517f08c379a000000000000000000000000000000000000000000000000000000000815260040161151f90613fe6565b60405180910390fd5b61153484848484612a9e565b50505050565b60006060806000600a856040516115519190613bd8565b908152602001604051809103902060009054906101000a900460ff166115ac576040517f08c379a00000000000000000000000000000000000000000000000000000000081526004016115a390613f46565b60405180910390fd5b6060600060028111156115c2576115c161451e565b5b6009876040516115d29190613bd8565b908152602001604051809103902060020160009054906101000a900460ff1660028111156116035761160261451e565b5b1415611646576040518060400160405280601481526020017f70656e64696e6720766572696669636174696f6e0000000000000000000000008152509050611718565b6001600281111561165a5761165961451e565b5b60098760405161166a9190613bd8565b908152602001604051809103902060020160009054906101000a900460ff16600281111561169b5761169a61451e565b5b14156116de576040518060400160405280600881526020017f76657269666965640000000000000000000000000000000000000000000000008152509050611717565b6040518060400160405280600681526020017f64656e696564000000000000000000000000000000000000000000000000000081525090505b5b6009866040516117289190613bd8565b90815260200160405180910390206000015460098760405161174a9190613bd8565b90815260200160405180910390206001018261178660098a60405161176f9190613bd8565b908152602001604051809103902060000154610aed565b828054611792906143e3565b80601f01602080910402602001604051908101604052809291908181526020018280546117be906143e3565b801561180b5780601f106117e05761010080835404028352916020019161180b565b820191906000526020600020905b8154815290600101906020018083116117ee57829003601f168201915b505050505092509450945094509450509193509193565b606061182d826122e5565b61186c576040517f08c379a000000000000000000000000000000000000000000000000000000000815260040161186390613f86565b60405180910390fd5b6000611876612afa565b9050600081511161189657604051806020016040528060008152506118c1565b806118a084612b11565b6040516020016118b1929190613bef565b6040516020818303038152906040525b915050919050565b600a826040516118d99190613bd8565b908152602001604051809103902060009054906101000a900460ff16611934576040517f08c379a000000000000000000000000000000000000000000000000000000000815260040161192b90613f46565b60405180910390fd5b3373ffffffffffffffffffffffffffffffffffffffff1661197560098460405161195e9190613bd8565b908152602001604051809103902060000154610aed565b73ffffffffffffffffffffffffffffffffffffffff16146119cb576040517f08c379a00000000000000000000000000000000000000000000000000000000081526004016119c290613f06565b60405180910390fd5b600115158115151415611a275760016009836040516119ea9190613bd8565b908152602001604051809103902060020160006101000a81548160ff02191690836002811115611a1d57611a1c61451e565b5b0217905550611a72565b6002600983604051611a399190613bd8565b908152602001604051809103902060020160006101000a81548160ff02191690836002811115611a6c57611a6b61451e565b5b02179055505b7f59d309664d5e5c5c7562159b94306437ae8aed905c4f84933f4ad06eea902ed482604051611aa19190613d44565b60405180910390a15050565b600080600a83604051611ac09190613bd8565b908152602001604051809103902060009054906101000a900460ff16611b1b576040517f08c379a0000000000000000000000000000000000000000000000000000000008152600401611b1290613f46565b60405180910390fd5b3373ffffffffffffffffffffffffffffffffffffffff16611b5c600985604051611b459190613bd8565b908152602001604051809103902060000154610aed565b73ffffffffffffffffffffffffffffffffffffffff1614611bb2576040517f08c379a0000000000000000000000000000000000000000000000000000000008152600401611ba990613da6565b60405180910390fd5b611bdc600984604051611bc59190613bd8565b908152602001604051809103902060000154612c72565b6000600a84604051611bee9190613bd8565b908152602001604051809103902060006101000a81548160ff021916908315150217905550600983604051611c239190613bd8565b9081526020016040518091039020600080820160009055600182016000611c4a9190612fd9565b6002820160006101000a81549060ff021916905550505b82604051602001611c729190613bd8565b6040516020818303038152906040528051906020012060068381548110611c9c57611c9b6145ab565b5b90600052602060002001604051602001611cb69190613c13565b6040516020818303038152906040528051906020012014611ce4578180611cdc90614446565b925050611c61565b8190505b6001600680549050611cfa91906142d4565b811015611d74576006600182611d10919061424d565b81548110611d2157611d206145ab565b5b9060005260206000200160068281548110611d3f57611d3e6145ab565b5b90600052602060002001908054611d55906143e3565b611d60929190613019565b508080611d6c90614446565b915050611ce8565b6006805480611d8657611d8561457c565b5b600190038181906000526020600020016000611da29190612fd9565b9055505050565b6060600760009054906101000a900473ffffffffffffffffffffffffffffffffffffffff1673ffffffffffffffffffffffffffffffffffffffff163373ffffffffffffffffffffffffffffffffffffffff1614611e3b576040517f08c379a0000000000000000000000000000000000000000000000000000000008152600401611e3290613fc6565b60405180910390fd5b6006805480602002602001604051908101604052809291908181526020016000905b82821015611f09578382906000526020600020018054611e7c906143e3565b80601f0160208091040260200160405190810160405280929190818152602001828054611ea8906143e3565b8015611ef55780601f10611eca57610100808354040283529160200191611ef5565b820191906000526020600020905b815481529060010190602001808311611ed857829003601f168201915b505050505081526020019060010190611e5d565b50505050905090565b6000600760009054906101000a900473ffffffffffffffffffffffffffffffffffffffff1673ffffffffffffffffffffffffffffffffffffffff163373ffffffffffffffffffffffffffffffffffffffff1614611f6e57600080fd5b600680549050905090565b6000600560008473ffffffffffffffffffffffffffffffffffffffff1673ffffffffffffffffffffffffffffffffffffffff16815260200190815260200160002060008373ffffffffffffffffffffffffffffffffffffffff1673ffffffffffffffffffffffffffffffffffffffff16815260200190815260200160002060009054906101000a900460ff16905092915050565b60098180516020810182018051848252602083016020850120818352809550505050505060009150905080600001549080600101805461204c906143e3565b80601f0160208091040260200160405190810160405280929190818152602001828054612078906143e3565b80156120c55780601f1061209a576101008083540402835291602001916120c5565b820191906000526020600020905b8154815290600101906020018083116120a857829003601f168201915b5050505050908060020160009054906101000a900460ff16905083565b600a826040516120f29190613bd8565b908152602001604051809103902060009054906101000a900460ff1661214d576040517f08c379a000000000000000000000000000000000000000000000000000000000815260040161214490613f46565b60405180910390fd5b3373ffffffffffffffffffffffffffffffffffffffff1661218e6009846040516121779190613bd8565b908152602001604051809103902060000154610aed565b73ffffffffffffffffffffffffffffffffffffffff16146121e4576040517f08c379a00000000000000000000000000000000000000000000000000000000081526004016121db90613d66565b60405180910390fd5b806009836040516121f59190613bd8565b90815260200160405180910390206001019080519060200190612219929190612f53565b507f6714407191569b7b9edd5db2d624b8e2281272e577950f0e87ca156570ffe9e4826040516122499190613d44565b60405180910390a15050565b600760009054906101000a900473ffffffffffffffffffffffffffffffffffffffff1681565b60007f01ffc9a7000000000000000000000000000000000000000000000000000000007bffffffffffffffffffffffffffffffffffffffffffffffffffffffff1916827bffffffffffffffffffffffffffffffffffffffffffffffffffffffff1916149050919050565b60008073ffffffffffffffffffffffffffffffffffffffff166002600084815260200190815260200160002060009054906101000a900473ffffffffffffffffffffffffffffffffffffffff1673ffffffffffffffffffffffffffffffffffffffff1614159050919050565b600033905090565b816004600083815260200190815260200160002060006101000a81548173ffffffffffffffffffffffffffffffffffffffff021916908373ffffffffffffffffffffffffffffffffffffffff160217905550808273ffffffffffffffffffffffffffffffffffffffff166123cc83610aed565b73ffffffffffffffffffffffffffffffffffffffff167f8c5be1e5ebec7d5bd14f71427d1e84f3dd0314c0f7b2291e5b200ac8c7c3b92560405160405180910390a45050565b8273ffffffffffffffffffffffffffffffffffffffff1661243282610aed565b73ffffffffffffffffffffffffffffffffffffffff1614612488576040517f08c379a000000000000000000000000000000000000000000000000000000000815260040161247f90613dc6565b60405180910390fd5b600073ffffffffffffffffffffffffffffffffffffffff168273ffffffffffffffffffffffffffffffffffffffff1614156124f8576040517f08c379a00000000000000000000000000000000000000000000000000000000081526004016124ef90613e26565b60405180910390fd5b612503838383612d8f565b61250e600082612359565b6001600360008573ffffffffffffffffffffffffffffffffffffffff1673ffffffffffffffffffffffffffffffffffffffff168152602001908152602001600020600082825461255e91906142d4565b925050819055506001600360008473ffffffffffffffffffffffffffffffffffffffff1673ffffffffffffffffffffffffffffffffffffffff16815260200190815260200160002060008282546125b5919061424d565b92505081905550816002600083815260200190815260200160002060006101000a81548173ffffffffffffffffffffffffffffffffffffffff021916908373ffffffffffffffffffffffffffffffffffffffff160217905550808273ffffffffffffffffffffffffffffffffffffffff168473ffffffffffffffffffffffffffffffffffffffff167fddf252ad1be2c89b69c2b068fc378daa952ba7f163c4a11628f55a4df523b3ef60405160405180910390a4612674838383612d94565b505050565b6000612684826122e5565b6126c3576040517f08c379a00000000000000000000000000000000000000000000000000000000081526004016126ba90613e66565b60405180910390fd5b60006126ce83610aed565b90508073ffffffffffffffffffffffffffffffffffffffff168473ffffffffffffffffffffffffffffffffffffffff16148061273d57508373ffffffffffffffffffffffffffffffffffffffff16612725846106bc565b73ffffffffffffffffffffffffffffffffffffffff16145b8061274e575061274d8185611f79565b5b91505092915050565b600073ffffffffffffffffffffffffffffffffffffffff168273ffffffffffffffffffffffffffffffffffffffff1614156127c7576040517f08c379a00000000000000000000000000000000000000000000000000000000081526004016127be90613f26565b60405180910390fd5b6127d0816122e5565b15612810576040517f08c379a000000000000000000000000000000000000000000000000000000000815260040161280790613de6565b60405180910390fd5b61281c60008383612d8f565b6001600360008473ffffffffffffffffffffffffffffffffffffffff1673ffffffffffffffffffffffffffffffffffffffff168152602001908152602001600020600082825461286c919061424d565b92505081905550816002600083815260200190815260200160002060006101000a81548173ffffffffffffffffffffffffffffffffffffffff021916908373ffffffffffffffffffffffffffffffffffffffff160217905550808273ffffffffffffffffffffffffffffffffffffffff16600073ffffffffffffffffffffffffffffffffffffffff167fddf252ad1be2c89b69c2b068fc378daa952ba7f163c4a11628f55a4df523b3ef60405160405180910390a461292d60008383612d94565b5050565b8173ffffffffffffffffffffffffffffffffffffffff168373ffffffffffffffffffffffffffffffffffffffff1614156129a0576040517f08c379a000000000000000000000000000000000000000000000000000000000815260040161299790613e46565b60405180910390fd5b80600560008573ffffffffffffffffffffffffffffffffffffffff1673ffffffffffffffffffffffffffffffffffffffff16815260200190815260200160002060008473ffffffffffffffffffffffffffffffffffffffff1673ffffffffffffffffffffffffffffffffffffffff16815260200190815260200160002060006101000a81548160ff0219169083151502179055508173ffffffffffffffffffffffffffffffffffffffff168373ffffffffffffffffffffffffffffffffffffffff167f17307eab39ab6107e8899845ad3d59bd9653f200f220920489ca2b5937696c3183604051612a919190613d29565b60405180910390a3505050565b612aa9848484612412565b612ab584848484612d99565b612af4576040517f08c379a0000000000000000000000000000000000000000000000000000000008152600401612aeb90613d86565b60405180910390fd5b50505050565b606060405180602001604052806000815250905090565b60606000821415612b59576040518060400160405280600181526020017f30000000000000000000000000000000000000000000000000000000000000008152509050612c6d565b600082905060005b60008214612b8b578080612b7490614446565b915050600a82612b8491906142a3565b9150612b61565b60008167ffffffffffffffff811115612ba757612ba66145da565b5b6040519080825280601f01601f191660200182016040528015612bd95781602001600182028036833780820191505090505b5090505b60008514612c6657600182612bf291906142d4565b9150600a85612c01919061448f565b6030612c0d919061424d565b60f81b818381518110612c2357612c226145ab565b5b60200101907effffffffffffffffffffffffffffffffffffffffffffffffffffffffffffff1916908160001a905350600a85612c5f91906142a3565b9450612bdd565b8093505050505b919050565b6000612c7d82610aed565b9050612c8b81600084612d8f565b612c96600083612359565b6001600360008373ffffffffffffffffffffffffffffffffffffffff1673ffffffffffffffffffffffffffffffffffffffff1681526020019081526020016000206000828254612ce691906142d4565b925050819055506002600083815260200190815260200160002060006101000a81549073ffffffffffffffffffffffffffffffffffffffff021916905581600073ffffffffffffffffffffffffffffffffffffffff168273ffffffffffffffffffffffffffffffffffffffff167fddf252ad1be2c89b69c2b068fc378daa952ba7f163c4a11628f55a4df523b3ef60405160405180910390a4612d8b81600084612d94565b5050565b505050565b505050565b6000612dba8473ffffffffffffffffffffffffffffffffffffffff16612f30565b15612f23578373ffffffffffffffffffffffffffffffffffffffff1663150b7a02612de3612351565b8786866040518563ffffffff1660e01b8152600401612e059493929190613c45565b602060405180830381600087803b158015612e1f57600080fd5b505af1925050508015612e5057506040513d601f19601f82011682018060405250810190612e4d91906133fc565b60015b612ed3573d8060008114612e80576040519150601f19603f3d011682016040523d82523d6000602084013e612e85565b606091505b50600081511415612ecb576040517f08c379a0000000000000000000000000000000000000000000000000000000008152600401612ec290613d86565b60405180910390fd5b805181602001fd5b63150b7a0260e01b7bffffffffffffffffffffffffffffffffffffffffffffffffffffffff1916817bffffffffffffffffffffffffffffffffffffffffffffffffffffffff191614915050612f28565b600190505b949350505050565b6000808273ffffffffffffffffffffffffffffffffffffffff163b119050919050565b828054612f5f906143e3565b90600052602060002090601f016020900481019282612f815760008555612fc8565b82601f10612f9a57805160ff1916838001178555612fc8565b82800160010185558215612fc8579182015b82811115612fc7578251825591602001919060010190612fac565b5b509050612fd591906130a6565b5090565b508054612fe5906143e3565b6000825580601f10612ff75750613016565b601f01602090049060005260206000209081019061301591906130a6565b5b50565b828054613025906143e3565b90600052602060002090601f0160209004810192826130475760008555613095565b82601f106130585780548555613095565b8280016001018555821561309557600052602060002091601f016020900482015b82811115613094578254825591600101919060010190613079565b5b5090506130a291906130a6565b5090565b5b808211156130bf5760008160009055506001016130a7565b5090565b60006130d66130d1846140d7565b6140b2565b9050828152602081018484840111156130f2576130f161460e565b5b6130fd8482856143a1565b509392505050565b600061311861311384614108565b6140b2565b9050828152602081018484840111156131345761313361460e565b5b61313f8482856143a1565b509392505050565b60008135905061315681614c25565b92915050565b60008135905061316b81614c3c565b92915050565b60008135905061318081614c53565b92915050565b60008151905061319581614c53565b92915050565b600082601f8301126131b0576131af614609565b5b81356131c08482602086016130c3565b91505092915050565b600082601f8301126131de576131dd614609565b5b81356131ee848260208601613105565b91505092915050565b60008135905061320681614c6a565b92915050565b60006020828403121561322257613221614618565b5b600061323084828501613147565b91505092915050565b600080604083850312156132505761324f614618565b5b600061325e85828601613147565b925050602061326f85828601613147565b9150509250929050565b60008060006060848603121561329257613291614618565b5b60006132a086828701613147565b93505060206132b186828701613147565b92505060406132c2868287016131f7565b9150509250925092565b600080600080608085870312156132e6576132e5614618565b5b60006132f487828801613147565b945050602061330587828801613147565b9350506040613316878288016131f7565b925050606085013567ffffffffffffffff81111561333757613336614613565b5b6133438782880161319b565b91505092959194509250565b6000806040838503121561336657613365614618565b5b600061337485828601613147565b92505060206133858582860161315c565b9150509250929050565b600080604083850312156133a6576133a5614618565b5b60006133b485828601613147565b92505060206133c5858286016131f7565b9150509250929050565b6000602082840312156133e5576133e4614618565b5b60006133f384828501613171565b91505092915050565b60006020828403121561341257613411614618565b5b600061342084828501613186565b91505092915050565b60006020828403121561343f5761343e614618565b5b600082013567ffffffffffffffff81111561345d5761345c614613565b5b613469848285016131c9565b91505092915050565b6000806040838503121561348957613488614618565b5b600083013567ffffffffffffffff8111156134a7576134a6614613565b5b6134b3858286016131c9565b92505060206134c485828601613147565b9150509250929050565b600080604083850312156134e5576134e4614618565b5b600083013567ffffffffffffffff81111561350357613502614613565b5b61350f858286016131c9565b92505060206135208582860161315c565b9150509250929050565b6000806040838503121561354157613540614618565b5b600083013567ffffffffffffffff81111561355f5761355e614613565b5b61356b858286016131c9565b925050602083013567ffffffffffffffff81111561358c5761358b614613565b5b613598858286016131c9565b9150509250929050565b6000602082840312156135b8576135b7614618565b5b60006135c6848285016131f7565b91505092915050565b60006135db8383613613565b60208301905092915050565b60006135f383836137b9565b905092915050565b60006136078383613bba565b60208301905092915050565b61361c81614308565b82525050565b61362b81614308565b82525050565b600061363c8261417e565b61364681856141dc565b935061365183614139565b8060005b8381101561368257815161366988826135cf565b9750613674836141b5565b925050600181019050613655565b5085935050505092915050565b600061369a82614189565b6136a481856141ed565b9350836020820285016136b685614149565b8060005b858110156136f257848403895281516136d385826135e7565b94506136de836141c2565b925060208a019950506001810190506136ba565b50829750879550505050505092915050565b600061370f82614194565b61371981856141fe565b935061372483614159565b8060005b8381101561375557815161373c88826135fb565b9750613747836141cf565b925050600181019050613728565b5085935050505092915050565b61376b8161431a565b82525050565b600061377c8261419f565b613786818561420f565b93506137968185602086016143b0565b61379f8161461d565b840191505092915050565b6137b38161438f565b82525050565b60006137c4826141aa565b6137ce8185614220565b93506137de8185602086016143b0565b6137e78161461d565b840191505092915050565b60006137fd826141aa565b6138078185614231565b93506138178185602086016143b0565b6138208161461d565b840191505092915050565b6000613836826141aa565b6138408185614242565b93506138508185602086016143b0565b80840191505092915050565b60008154613869816143e3565b6138738186614242565b9450600182166000811461388e576001811461389f576138d2565b60ff198316865281860193506138d2565b6138a885614169565b60005b838110156138ca578154818901526001820191506020810190506138ab565b838801955050505b50505092915050565b60006138e8602a83614231565b91506138f38261462e565b604082019050919050565b600061390b603283614231565b91506139168261467d565b604082019050919050565b600061392e602b83614231565b9150613939826146cc565b604082019050919050565b6000613951602583614231565b915061395c8261471b565b604082019050919050565b6000613974601c83614231565b915061397f8261476a565b602082019050919050565b6000613997602883614231565b91506139a282614793565b604082019050919050565b60006139ba602483614231565b91506139c5826147e2565b604082019050919050565b60006139dd601983614231565b91506139e882614831565b602082019050919050565b6000613a00602c83614231565b9150613a0b8261485a565b604082019050919050565b6000613a23603883614231565b9150613a2e826148a9565b604082019050919050565b6000613a46602a83614231565b9150613a51826148f8565b604082019050919050565b6000613a69602983614231565b9150613a7482614947565b604082019050919050565b6000613a8c601583614231565b9150613a9782614996565b602082019050919050565b6000613aaf604183614231565b9150613aba826149bf565b606082019050919050565b6000613ad2602083614231565b9150613add82614a34565b602082019050919050565b6000613af5601583614231565b9150613b0082614a5d565b602082019050919050565b6000613b18602c83614231565b9150613b2382614a86565b604082019050919050565b6000613b3b602f83614231565b9150613b4682614ad5565b604082019050919050565b6000613b5e602183614231565b9150613b6982614b24565b604082019050919050565b6000613b81602983614231565b9150613b8c82614b73565b604082019050919050565b6000613ba4603183614231565b9150613baf82614bc2565b604082019050919050565b613bc381614385565b82525050565b613bd281614385565b82525050565b6000613be4828461382b565b915081905092915050565b6000613bfb828561382b565b9150613c07828461382b565b91508190509392505050565b6000613c1f828461385c565b915081905092915050565b6000602082019050613c3f6000830184613622565b92915050565b6000608082019050613c5a6000830187613622565b613c676020830186613622565b613c746040830185613bc9565b8181036060830152613c868184613771565b905095945050505050565b60006020820190508181036000830152613cab818461368f565b905092915050565b600060a0820190508181036000830152613ccd818861368f565b90508181036020830152613ce18187613704565b90508181036040830152613cf5818661368f565b90508181036060830152613d09818561368f565b90508181036080830152613d1d8184613631565b90509695505050505050565b6000602082019050613d3e6000830184613762565b92915050565b60006020820190508181036000830152613d5e81846137f2565b905092915050565b60006020820190508181036000830152613d7f816138db565b9050919050565b60006020820190508181036000830152613d9f816138fe565b9050919050565b60006020820190508181036000830152613dbf81613921565b9050919050565b60006020820190508181036000830152613ddf81613944565b9050919050565b60006020820190508181036000830152613dff81613967565b9050919050565b60006020820190508181036000830152613e1f8161398a565b9050919050565b60006020820190508181036000830152613e3f816139ad565b9050919050565b60006020820190508181036000830152613e5f816139d0565b9050919050565b60006020820190508181036000830152613e7f816139f3565b9050919050565b60006020820190508181036000830152613e9f81613a16565b9050919050565b60006020820190508181036000830152613ebf81613a39565b9050919050565b60006020820190508181036000830152613edf81613a5c565b9050919050565b60006020820190508181036000830152613eff81613a7f565b9050919050565b60006020820190508181036000830152613f1f81613aa2565b9050919050565b60006020820190508181036000830152613f3f81613ac5565b9050919050565b60006020820190508181036000830152613f5f81613ae8565b9050919050565b60006020820190508181036000830152613f7f81613b0b565b9050919050565b60006020820190508181036000830152613f9f81613b2e565b9050919050565b60006020820190508181036000830152613fbf81613b51565b9050919050565b60006020820190508181036000830152613fdf81613b74565b9050919050565b60006020820190508181036000830152613fff81613b97565b9050919050565b600060208201905061401b6000830184613bc9565b92915050565b60006060820190506140366000830186613bc9565b818103602083015261404881856137f2565b905061405760408301846137aa565b949350505050565b60006080820190506140746000830187613bc9565b818103602083015261408681866137f2565b9050818103604083015261409a81856137f2565b90506140a96060830184613622565b95945050505050565b60006140bc6140cd565b90506140c88282614415565b919050565b6000604051905090565b600067ffffffffffffffff8211156140f2576140f16145da565b5b6140fb8261461d565b9050602081019050919050565b600067ffffffffffffffff821115614123576141226145da565b5b61412c8261461d565b9050602081019050919050565b6000819050602082019050919050565b6000819050602082019050919050565b6000819050602082019050919050565b60008190508160005260206000209050919050565b600081519050919050565b600081519050919050565b600081519050919050565b600081519050919050565b600081519050919050565b6000602082019050919050565b6000602082019050919050565b6000602082019050919050565b600082825260208201905092915050565b600082825260208201905092915050565b600082825260208201905092915050565b600082825260208201905092915050565b600082825260208201905092915050565b600082825260208201905092915050565b600081905092915050565b600061425882614385565b915061426383614385565b9250827fffffffffffffffffffffffffffffffffffffffffffffffffffffffffffffffff03821115614298576142976144c0565b5b828201905092915050565b60006142ae82614385565b91506142b983614385565b9250826142c9576142c86144ef565b5b828204905092915050565b60006142df82614385565b91506142ea83614385565b9250828210156142fd576142fc6144c0565b5b828203905092915050565b600061431382614365565b9050919050565b60008115159050919050565b60007fffffffff0000000000000000000000000000000000000000000000000000000082169050919050565b600081905061436082614c11565b919050565b600073ffffffffffffffffffffffffffffffffffffffff82169050919050565b6000819050919050565b600061439a82614352565b9050919050565b82818337600083830152505050565b60005b838110156143ce5780820151818401526020810190506143b3565b838111156143dd576000848401525b50505050565b600060028204905060018216806143fb57607f821691505b6020821081141561440f5761440e61454d565b5b50919050565b61441e8261461d565b810181811067ffffffffffffffff8211171561443d5761443c6145da565b5b80604052505050565b600061445182614385565b91507fffffffffffffffffffffffffffffffffffffffffffffffffffffffffffffffff821415614484576144836144c0565b5b600182019050919050565b600061449a82614385565b91506144a583614385565b9250826144b5576144b46144ef565b5b828206905092915050565b7f4e487b7100000000000000000000000000000000000000000000000000000000600052601160045260246000fd5b7f4e487b7100000000000000000000000000000000000000000000000000000000600052601260045260246000fd5b7f4e487b7100000000000000000000000000000000000000000000000000000000600052602160045260246000fd5b7f4e487b7100000000000000000000000000000000000000000000000000000000600052602260045260246000fd5b7f4e487b7100000000000000000000000000000000000000000000000000000000600052603160045260246000fd5b7f4e487b7100000000000000000000000000000000000000000000000000000000600052603260045260246000fd5b7f4e487b7100000000000000000000000000000000000000000000000000000000600052604160045260246000fd5b600080fd5b600080fd5b600080fd5b600080fd5b6000601f19601f8301169050919050565b7f4f6e6c792074686520746f6b656e206f776e65722063616e207570646174652060008201527f74686520746f6b656e2e00000000000000000000000000000000000000000000602082015250565b7f4552433732313a207472616e7366657220746f206e6f6e20455243373231526560008201527f63656976657220696d706c656d656e7465720000000000000000000000000000602082015250565b7f4f6e6c792074686520746f6b656e206f776e65722063616e2064657374726f7960008201527f2074686520746f6b656e2e000000000000000000000000000000000000000000602082015250565b7f4552433732313a207472616e736665722066726f6d20696e636f72726563742060008201527f6f776e6572000000000000000000000000000000000000000000000000000000602082015250565b7f4552433732313a20746f6b656e20616c7265616479206d696e74656400000000600082015250565b7f4f6e6c7920746f6b656e206f776e65722063616e207472616e7366657220746860008201527f6520746f6b656e2e000000000000000000000000000000000000000000000000602082015250565b7f4552433732313a207472616e7366657220746f20746865207a65726f2061646460008201527f7265737300000000000000000000000000000000000000000000000000000000602082015250565b7f4552433732313a20617070726f766520746f2063616c6c657200000000000000600082015250565b7f4552433732313a206f70657261746f7220717565727920666f72206e6f6e657860008201527f697374656e7420746f6b656e0000000000000000000000000000000000000000602082015250565b7f4552433732313a20617070726f76652063616c6c6572206973206e6f74206f7760008201527f6e6572206e6f7220617070726f76656420666f7220616c6c0000000000000000602082015250565b7f4552433732313a2062616c616e636520717565727920666f7220746865207a6560008201527f726f206164647265737300000000000000000000000000000000000000000000602082015250565b7f4552433732313a206f776e657220717565727920666f72206e6f6e657869737460008201527f656e7420746f6b656e0000000000000000000000000000000000000000000000602082015250565b7f546f6b656e20616c7265616479206578697374732e0000000000000000000000600082015250565b7f4f6e6c792074686520746f6b656e206f776e65722063616e207570646174652060008201527f766572696669636174696f6e20737461747573206f662074686520746f6b656e60208201527f2e00000000000000000000000000000000000000000000000000000000000000604082015250565b7f4552433732313a206d696e7420746f20746865207a65726f2061646472657373600082015250565b7f546f6b656e20646f6573206e6f742065786973742e0000000000000000000000600082015250565b7f4552433732313a20617070726f76656420717565727920666f72206e6f6e657860008201527f697374656e7420746f6b656e0000000000000000000000000000000000000000602082015250565b7f4552433732314d657461646174613a2055524920717565727920666f72206e6f60008201527f6e6578697374656e7420746f6b656e0000000000000000000000000000000000602082015250565b7f4552433732313a20617070726f76616c20746f2063757272656e74206f776e6560008201527f7200000000000000000000000000000000000000000000000000000000000000602082015250565b7f4f6e6c7920636f6e7472616374206f776e65722063616e20717565727920616c60008201527f6c20746f6b656e732e0000000000000000000000000000000000000000000000602082015250565b7f4552433732313a207472616e736665722063616c6c6572206973206e6f74206f60008201527f776e6572206e6f7220617070726f766564000000000000000000000000000000602082015250565b60038110614c2257614c2161451e565b5b50565b614c2e81614308565b8114614c3957600080fd5b50565b614c458161431a565b8114614c5057600080fd5b50565b614c5c81614326565b8114614c6757600080fd5b50565b614c7381614385565b8114614c7e57600080fd5b5056fea2646970667358221220bdd180b5693642d2511b4ac1d4d8ef16657fd095f03f5272b29d77d772eaf03d64736f6c63430008070033",
  "immutableReferences": {},
  "source": "// SPDX-License-Identifier: UNLICENSED\npragma solidity ^0.8.0;\npragma experimental ABIEncoderV2;\n\nimport \"../node_modules/@openzeppelin/contracts/token/ERC721/ERC721.sol\";\n\ncontract DigitalTwin is ERC721 {\n    string[] public alltks; // to record all all tks\n    address public admin;\n\n    /**\n     * Allow consumers to access the product verification results through apis.\n     */\n    enum Verificationstatus {\n        PENDING,\n        PROCESSORVERIFIED,\n        PROCESSORDENIED\n    }\n\n    struct TkDetails {\n        uint256 id;\n        string metadata;\n        Verificationstatus status;\n    }\n\n    TkDetails[] alltkdetails;\n\n    mapping(string => TkDetails) public tks; // mapping of tkname => ProductTk struct\n    mapping(string => bool) public tkExists;\n\n    event TokenUpdated(string tkname);\n    event TokenVerified(string tkname);\n\n    constructor(string memory _name, string memory _symbol)\n        ERC721(_name, _symbol)\n    {\n        admin = msg.sender;\n    }\n\n    function mint(string memory _tkname, string memory _metadata) public {\n\n        require(!tkExists[_tkname], \"Token already exists.\");\n\n        alltks.push(_tkname);\n        uint256 id = alltks.length;\n        _mint(msg.sender, id);\n        \n        tks[_tkname].id = id;\n        tks[_tkname].metadata = _metadata;\n        tks[_tkname].status = Verificationstatus.PENDING;\n\n        tkExists[_tkname] = true;\n    }\n\n    /**\n     * update only updates the metadata of an existing token\n     */\n    function update(string memory _tkname, string memory _metadata) public {\n\n        require(tkExists[_tkname], \"Token does not exist.\");\n        require(\n            ownerOf(tks[_tkname].id) == address(msg.sender),\n            \"Only the token owner can update the token.\"\n        );\n\n        tks[_tkname].metadata = _metadata;\n\n        emit TokenUpdated(_tkname);\n    }\n\n    /**\n     * verify is called by process upon optical verification of the product\n     */\n    function verify(string memory _tkname, bool _status) public {\n\n        require(tkExists[_tkname], \"Token does not exist.\");\n        require(\n            ownerOf(tks[_tkname].id) == address(msg.sender),\n            \"Only the token owner can update verification status of the token.\"\n        );\n\n        if (_status == true) {\n            tks[_tkname].status = Verificationstatus.PROCESSORVERIFIED;\n        }\n        else {\n            tks[_tkname].status = Verificationstatus.PROCESSORDENIED;\n        }\n\n        emit TokenVerified(_tkname);\n    }\n\n    function burn(string memory _tkname) public {\n        uint i = 0;\n        uint j;\n\n        require(tkExists[_tkname], \"Token does not exist.\");\n        require(\n            ownerOf(tks[_tkname].id) == address(msg.sender),\n            \"Only the token owner can destroy the token.\"\n        );\n\n        _burn(tks[_tkname].id); // transfer the token to the 0x address\n        tkExists[_tkname] = false; // change existence to false\n        delete tks[_tkname]; // delete token from the mapping\n\n        /// @dev: there doesn't seem to be a straight forward way to get all keys in a mapping - to find out\n        /// @notice: 1. find the index of an element\n        /// @notice: 2. to remove an element - shift the elements after the index and remove the last\n        while (keccak256(abi.encodePacked(alltks[i])) != keccak256(abi.encodePacked(_tkname))) {\n            i++;\n        }\n        \n        for (j=i; j<alltks.length-1; j++) {\n            alltks[j] = alltks[j+1];\n        }\n\n        alltks.pop(); // remove the token from the alltks list\n    }\n\n    /// @notice tx.origin is the user account that starts the call, msg.sender is the contract that calls this contract\n    function transferByName(string memory _tkname, address _to) public {\n        require(tkExists[_tkname], \"Token does not exist.\");\n        require(ownerOf(tks[_tkname].id) == tx.origin, \"Only token owner can transfer the token.\");\n\n        _transfer(tx.origin,_to,tks[_tkname].id);\n    }\n\n    /**\n     * @notice for js client to interact\n     */\n    function queryToken(string memory _tkname)\n        public\n        view\n        returns (uint256, string memory, string memory, address)\n    {\n        require(tkExists[_tkname], \"Token does not exist.\");\n        \n        string memory status;\n\n        if (tks[_tkname].status == Verificationstatus.PENDING) {\n            status = \"pending verification\";\n        } else if (tks[_tkname].status == Verificationstatus.PROCESSORVERIFIED) {\n            status = \"verified\";\n        } else {\n            status = \"denied\";\n        }\n\n        return (tks[_tkname].id, tks[_tkname].metadata, status, ownerOf(tks[_tkname].id));\n    }\n\n    /**\n     * query the metadata of a token\n     */\n    function countToken() public view returns (uint256) {\n        require(msg.sender == admin); // require caller to be the contract owner\n        return alltks.length;\n    }\n\n    function queryAll() public view returns (string[] memory) {\n        require(msg.sender == admin, \"Only contract owner can query all tokens.\"); // require caller to be the contract owner\n        return alltks;\n    }\n\n    function queryAllFields() \n        public \n        view \n        returns \n    (\n        string[] memory, \n        uint256[] memory, \n        string[] memory, \n        string[] memory, \n        address[] memory\n    ) \n    {\n        uint256[] memory internal_id = new uint256[](alltks.length);\n        string[] memory metadata = new string[](alltks.length);\n        string[] memory status = new string[](alltks.length);\n        address[] memory owner = new address[](alltks.length);\n\n        for(uint i=0; i<alltks.length; i++){\n            internal_id[i] = tks[alltks[i]].id;\n            metadata[i] = tks[alltks[i]].metadata;\n\n            // parse the status field\n            if (tks[alltks[i]].status == Verificationstatus.PENDING) {\n                status[i] = \"pending verification\";\n            } else if (tks[alltks[i]].status == Verificationstatus.PROCESSORVERIFIED) {\n                status[i] = \"verified\";\n            } else {\n                status[i] = \"denied\";\n            }\n\n            owner[i] = ownerOf(tks[alltks[i]].id);\n        }\n\n        return (alltks, internal_id, metadata, status, owner);\n    }\n}\n",
  "sourcePath": "/home/yih/Documents/dev/beston-dapps/contracts/DigitalTwin.sol",
  "compiler": {
    "name": "solc",
    "version": "0.8.7+commit.e28d00a7.Emscripten.clang"
  },
  "schemaVersion": "3.4.1",
  "updatedAt": "2022-07-15T03:47:11.774Z",
  "networkType": "ethereum",
  "devdoc": {
    "kind": "dev",
    "methods": {
      "approve(address,uint256)": {
        "details": "See {IERC721-approve}."
      },
      "balanceOf(address)": {
        "details": "See {IERC721-balanceOf}."
      },
      "getApproved(uint256)": {
        "details": "See {IERC721-getApproved}."
      },
      "isApprovedForAll(address,address)": {
        "details": "See {IERC721-isApprovedForAll}."
      },
      "name()": {
        "details": "See {IERC721Metadata-name}."
      },
      "ownerOf(uint256)": {
        "details": "See {IERC721-ownerOf}."
      },
      "safeTransferFrom(address,address,uint256)": {
        "details": "See {IERC721-safeTransferFrom}."
      },
      "safeTransferFrom(address,address,uint256,bytes)": {
        "details": "See {IERC721-safeTransferFrom}."
      },
      "setApprovalForAll(address,bool)": {
        "details": "See {IERC721-setApprovalForAll}."
      },
      "supportsInterface(bytes4)": {
        "details": "See {IERC165-supportsInterface}."
      },
      "symbol()": {
        "details": "See {IERC721Metadata-symbol}."
      },
      "tokenURI(uint256)": {
        "details": "See {IERC721Metadata-tokenURI}."
      },
      "transferFrom(address,address,uint256)": {
        "details": "See {IERC721-transferFrom}."
      }
    },
    "version": 1
  },
  "userdoc": {
    "kind": "user",
    "methods": {
      "countToken()": {
        "notice": "query the metadata of a token"
      },
      "queryToken(string)": {
        "notice": "for js client to interact"
      },
      "transferByName(string,address)": {
        "notice": "tx.origin is the user account that starts the call, msg.sender is the contract that calls this contract"
      },
      "update(string,string)": {
        "notice": "update only updates the metadata of an existing token"
      },
      "verify(string,bool)": {
        "notice": "verify is called by process upon optical verification of the product"
      }
    },
    "version": 1
  }
}