{
  "contractName": "DigitalTwin",
  "abi": [
    {
      "inputs": [
        {
          "internalType": "string",
          "name": "_name",
          "type": "string"
        },
        {
          "internalType": "string",
          "name": "_symbol",
          "type": "string"
        }
      ],
      "stateMutability": "nonpayable",
      "type": "constructor"
    },
    {
      "anonymous": false,
      "inputs": [
        {
          "indexed": true,
          "internalType": "address",
          "name": "owner",
          "type": "address"
        },
        {
          "indexed": true,
          "internalType": "address",
          "name": "approved",
          "type": "address"
        },
        {
          "indexed": true,
          "internalType": "uint256",
          "name": "tokenId",
          "type": "uint256"
        }
      ],
      "name": "Approval",
      "type": "event"
    },
    {
      "anonymous": false,
      "inputs": [
        {
          "indexed": true,
          "internalType": "address",
          "name": "owner",
          "type": "address"
        },
        {
          "indexed": true,
          "internalType": "address",
          "name": "operator",
          "type": "address"
        },
        {
          "indexed": false,
          "internalType": "bool",
          "name": "approved",
          "type": "bool"
        }
      ],
      "name": "ApprovalForAll",
      "type": "event"
    },
    {
      "anonymous": false,
      "inputs": [
        {
          "indexed": false,
          "internalType": "string",
          "name": "tkname",
          "type": "string"
        }
      ],
      "name": "TokenUpdated",
      "type": "event"
    },
    {
      "anonymous": false,
      "inputs": [
        {
          "indexed": false,
          "internalType": "string",
          "name": "tkname",
          "type": "string"
        }
      ],
      "name": "TokenVerified",
      "type": "event"
    },
    {
      "anonymous": false,
      "inputs": [
        {
          "indexed": true,
          "internalType": "address",
          "name": "from",
          "type": "address"
        },
        {
          "indexed": true,
          "internalType": "address",
          "name": "to",
          "type": "address"
        },
        {
          "indexed": true,
          "internalType": "uint256",
          "name": "tokenId",
          "type": "uint256"
        }
      ],
      "name": "Transfer",
      "type": "event"
    },
    {
      "inputs": [],
      "name": "admin",
      "outputs": [
        {
          "internalType": "address",
          "name": "",
          "type": "address"
        }
      ],
      "stateMutability": "view",
      "type": "function",
      "constant": true
    },
    {
      "inputs": [
        {
          "internalType": "uint256",
          "name": "",
          "type": "uint256"
        }
      ],
      "name": "alltks",
      "outputs": [
        {
          "internalType": "string",
          "name": "",
          "type": "string"
        }
      ],
      "stateMutability": "view",
      "type": "function",
      "constant": true
    },
    {
      "inputs": [
        {
          "internalType": "address",
          "name": "to",
          "type": "address"
        },
        {
          "internalType": "uint256",
          "name": "tokenId",
          "type": "uint256"
        }
      ],
      "name": "approve",
      "outputs": [],
      "stateMutability": "nonpayable",
      "type": "function"
    },
    {
      "inputs": [
        {
          "internalType": "address",
          "name": "owner",
          "type": "address"
        }
      ],
      "name": "balanceOf",
      "outputs": [
        {
          "internalType": "uint256",
          "name": "",
          "type": "uint256"
        }
      ],
      "stateMutability": "view",
      "type": "function",
      "constant": true
    },
    {
      "inputs": [
        {
          "internalType": "uint256",
          "name": "tokenId",
          "type": "uint256"
        }
      ],
      "name": "getApproved",
      "outputs": [
        {
          "internalType": "address",
          "name": "",
          "type": "address"
        }
      ],
      "stateMutability": "view",
      "type": "function",
      "constant": true
    },
    {
      "inputs": [
        {
          "internalType": "address",
          "name": "owner",
          "type": "address"
        },
        {
          "internalType": "address",
          "name": "operator",
          "type": "address"
        }
      ],
      "name": "isApprovedForAll",
      "outputs": [
        {
          "internalType": "bool",
          "name": "",
          "type": "bool"
        }
      ],
      "stateMutability": "view",
      "type": "function",
      "constant": true
    },
    {
      "inputs": [],
      "name": "name",
      "outputs": [
        {
          "internalType": "string",
          "name": "",
          "type": "string"
        }
      ],
      "stateMutability": "view",
      "type": "function",
      "constant": true
    },
    {
      "inputs": [
        {
          "internalType": "uint256",
          "name": "tokenId",
          "type": "uint256"
        }
      ],
      "name": "ownerOf",
      "outputs": [
        {
          "internalType": "address",
          "name": "",
          "type": "address"
        }
      ],
      "stateMutability": "view",
      "type": "function",
      "constant": true
    },
    {
      "inputs": [
        {
          "internalType": "address",
          "name": "from",
          "type": "address"
        },
        {
          "internalType": "address",
          "name": "to",
          "type": "address"
        },
        {
          "internalType": "uint256",
          "name": "tokenId",
          "type": "uint256"
        }
      ],
      "name": "safeTransferFrom",
      "outputs": [],
      "stateMutability": "nonpayable",
      "type": "function"
    },
    {
      "inputs": [
        {
          "internalType": "address",
          "name": "from",
          "type": "address"
        },
        {
          "internalType": "address",
          "name": "to",
          "type": "address"
        },
        {
          "internalType": "uint256",
          "name": "tokenId",
          "type": "uint256"
        },
        {
          "internalType": "bytes",
          "name": "data",
          "type": "bytes"
        }
      ],
      "name": "safeTransferFrom",
      "outputs": [],
      "stateMutability": "nonpayable",
      "type": "function"
    },
    {
      "inputs": [
        {
          "internalType": "address",
          "name": "operator",
          "type": "address"
        },
        {
          "internalType": "bool",
          "name": "approved",
          "type": "bool"
        }
      ],
      "name": "setApprovalForAll",
      "outputs": [],
      "stateMutability": "nonpayable",
      "type": "function"
    },
    {
      "inputs": [
        {
          "internalType": "bytes4",
          "name": "interfaceId",
          "type": "bytes4"
        }
      ],
      "name": "supportsInterface",
      "outputs": [
        {
          "internalType": "bool",
          "name": "",
          "type": "bool"
        }
      ],
      "stateMutability": "view",
      "type": "function",
      "constant": true
    },
    {
      "inputs": [],
      "name": "symbol",
      "outputs": [
        {
          "internalType": "string",
          "name": "",
          "type": "string"
        }
      ],
      "stateMutability": "view",
      "type": "function",
      "constant": true
    },
    {
      "inputs": [
        {
          "internalType": "string",
          "name": "",
          "type": "string"
        }
      ],
      "name": "tkExists",
      "outputs": [
        {
          "internalType": "bool",
          "name": "",
          "type": "bool"
        }
      ],
      "stateMutability": "view",
      "type": "function",
      "constant": true
    },
    {
      "inputs": [
        {
          "internalType": "string",
          "name": "",
          "type": "string"
        }
      ],
      "name": "tks",
      "outputs": [
        {
          "internalType": "uint256",
          "name": "id",
          "type": "uint256"
        },
        {
          "internalType": "string",
          "name": "metadata",
          "type": "string"
        },
        {
          "internalType": "enum DigitalTwin.Recognitionstatus",
          "name": "rstatus",
          "type": "uint8"
        },
        {
          "internalType": "enum DigitalTwin.Verificationstatus",
          "name": "vstatus",
          "type": "uint8"
        }
      ],
      "stateMutability": "view",
      "type": "function",
      "constant": true
    },
    {
      "inputs": [
        {
          "internalType": "uint256",
          "name": "tokenId",
          "type": "uint256"
        }
      ],
      "name": "tokenURI",
      "outputs": [
        {
          "internalType": "string",
          "name": "",
          "type": "string"
        }
      ],
      "stateMutability": "view",
      "type": "function",
      "constant": true
    },
    {
      "inputs": [
        {
          "internalType": "address",
          "name": "from",
          "type": "address"
        },
        {
          "internalType": "address",
          "name": "to",
          "type": "address"
        },
        {
          "internalType": "uint256",
          "name": "tokenId",
          "type": "uint256"
        }
      ],
      "name": "transferFrom",
      "outputs": [],
      "stateMutability": "nonpayable",
      "type": "function"
    },
    {
      "inputs": [
        {
          "internalType": "string",
          "name": "_tkname",
          "type": "string"
        },
        {
          "internalType": "string",
          "name": "_metadata",
          "type": "string"
        }
      ],
      "name": "mint",
      "outputs": [],
      "stateMutability": "nonpayable",
      "type": "function"
    },
    {
      "inputs": [
        {
          "internalType": "string",
          "name": "_tkname",
          "type": "string"
        },
        {
          "internalType": "string",
          "name": "_metadata",
          "type": "string"
        }
      ],
      "name": "update",
      "outputs": [],
      "stateMutability": "nonpayable",
      "type": "function"
    },
    {
      "inputs": [
        {
          "internalType": "string",
          "name": "_tkname",
          "type": "string"
        },
        {
          "internalType": "bool",
          "name": "_status",
          "type": "bool"
        }
      ],
      "name": "recognize",
      "outputs": [],
      "stateMutability": "nonpayable",
      "type": "function"
    },
    {
      "inputs": [
        {
          "internalType": "string",
          "name": "_tkname",
          "type": "string"
        },
        {
          "internalType": "bool",
          "name": "_status",
          "type": "bool"
        }
      ],
      "name": "verify",
      "outputs": [],
      "stateMutability": "nonpayable",
      "type": "function"
    },
    {
      "inputs": [
        {
          "internalType": "string",
          "name": "_tkname",
          "type": "string"
        }
      ],
      "name": "burn",
      "outputs": [],
      "stateMutability": "nonpayable",
      "type": "function"
    },
    {
      "inputs": [
        {
          "internalType": "string",
          "name": "_tkname",
          "type": "string"
        },
        {
          "internalType": "address",
          "name": "_to",
          "type": "address"
        }
      ],
      "name": "transferByName",
      "outputs": [],
      "stateMutability": "nonpayable",
      "type": "function"
    },
    {
      "inputs": [
        {
          "internalType": "string",
          "name": "_tkname",
          "type": "string"
        },
        {
          "internalType": "address",
          "name": "_to",
          "type": "address"
        }
      ],
      "name": "approveByName",
      "outputs": [],
      "stateMutability": "nonpayable",
      "type": "function"
    },
    {
      "inputs": [
        {
          "internalType": "string",
          "name": "_tkname",
          "type": "string"
        }
      ],
      "name": "queryToken",
      "outputs": [
        {
          "internalType": "uint256",
          "name": "",
          "type": "uint256"
        },
        {
          "internalType": "string",
          "name": "",
          "type": "string"
        },
        {
          "internalType": "string",
          "name": "",
          "type": "string"
        },
        {
          "internalType": "string",
          "name": "",
          "type": "string"
        },
        {
          "internalType": "address",
          "name": "",
          "type": "address"
        }
      ],
      "stateMutability": "view",
      "type": "function",
      "constant": true
    },
    {
      "inputs": [],
      "name": "countToken",
      "outputs": [
        {
          "internalType": "uint256",
          "name": "",
          "type": "uint256"
        }
      ],
      "stateMutability": "view",
      "type": "function",
      "constant": true
    },
    {
      "inputs": [],
      "name": "queryAll",
      "outputs": [
        {
          "internalType": "string[]",
          "name": "",
          "type": "string[]"
        }
      ],
      "stateMutability": "view",
      "type": "function",
      "constant": true
    },
    {
      "inputs": [],
      "name": "queryAllFields",
      "outputs": [
        {
          "internalType": "string[]",
          "name": "",
          "type": "string[]"
        },
        {
          "internalType": "uint256[]",
          "name": "",
          "type": "uint256[]"
        },
        {
          "internalType": "string[]",
          "name": "",
          "type": "string[]"
        },
        {
          "internalType": "string[]",
          "name": "",
          "type": "string[]"
        },
        {
          "internalType": "string[]",
          "name": "",
          "type": "string[]"
        },
        {
          "internalType": "address[]",
          "name": "",
          "type": "address[]"
        }
      ],
      "stateMutability": "view",
      "type": "function",
      "constant": true
    }
  ],
  "bytecode": "0x60806040523480156200001157600080fd5b506040516200569b3803806200569b8339818101604052810190620000379190620001e4565b8181816000908051906020019062000051929190620000b6565b5080600190805190602001906200006a929190620000b6565b50505033600760006101000a81548173ffffffffffffffffffffffffffffffffffffffff021916908373ffffffffffffffffffffffffffffffffffffffff1602179055505050620003ed565b828054620000c490620002fe565b90600052602060002090601f016020900481019282620000e8576000855562000134565b82601f106200010357805160ff191683800117855562000134565b8280016001018555821562000134579182015b828111156200013357825182559160200191906001019062000116565b5b50905062000143919062000147565b5090565b5b808211156200016257600081600090555060010162000148565b5090565b60006200017d620001778462000292565b62000269565b9050828152602081018484840111156200019c576200019b620003cd565b5b620001a9848285620002c8565b509392505050565b600082601f830112620001c957620001c8620003c8565b5b8151620001db84826020860162000166565b91505092915050565b60008060408385031215620001fe57620001fd620003d7565b5b600083015167ffffffffffffffff8111156200021f576200021e620003d2565b5b6200022d85828601620001b1565b925050602083015167ffffffffffffffff811115620002515762000250620003d2565b5b6200025f85828601620001b1565b9150509250929050565b60006200027562000288565b905062000283828262000334565b919050565b6000604051905090565b600067ffffffffffffffff821115620002b057620002af62000399565b5b620002bb82620003dc565b9050602081019050919050565b60005b83811015620002e8578082015181840152602081019050620002cb565b83811115620002f8576000848401525b50505050565b600060028204905060018216806200031757607f821691505b602082108114156200032e576200032d6200036a565b5b50919050565b6200033f82620003dc565b810181811067ffffffffffffffff8211171562000361576200036062000399565b5b80604052505050565b7f4e487b7100000000000000000000000000000000000000000000000000000000600052602260045260246000fd5b7f4e487b7100000000000000000000000000000000000000000000000000000000600052604160045260246000fd5b600080fd5b600080fd5b600080fd5b600080fd5b6000601f19601f8301169050919050565b61529e80620003fd6000396000f3fe608060405234801561001057600080fd5b50600436106101c45760003560e01c806395d89b41116100f9578063dafa1d2d11610097578063e985e9c511610071578063e985e9c51461051c578063ef3ecfb21461054c578063f4c84d191461057f578063f851a4401461059b576101c4565b8063dafa1d2d146104c4578063e5924708146104e0578063e7a81c55146104fe576101c4565b8063c00ee908116100d3578063c00ee90814610428578063c5573d4614610444578063c87b56dd14610478578063d26ac388146104a8576101c4565b806395d89b41146103d2578063a22cb465146103f0578063b88d4fde1461040c576101c4565b80633f5e37191161016657806370a082311161014057806370a0823114610347578063747c6e8b1461037757806381ec053f1461039a5780638aa0fdad146103b6576101c4565b80633f5e3719146102cb57806342842e0e146102fb5780636352211e14610317576101c4565b8063095ea7b3116101a2578063095ea7b3146102475780630ad5b505146102635780630d202ced1461029357806323b872dd146102af576101c4565b806301ffc9a7146101c957806306fdde03146101f9578063081812fc14610217575b600080fd5b6101e360048036038101906101de9190613b12565b6105b9565b6040516101f09190614427565b60405180910390f35b61020161069b565b60405161020e9190614442565b60405180910390f35b610231600480360381019061022c9190613ce5565b61072d565b60405161023e9190614313565b60405180910390f35b610261600480360381019061025c9190613ad2565b610773565b005b61027d60048036038101906102789190613b6c565b61088b565b60405161028a9190614427565b60405180910390f35b6102ad60048036038101906102a89190613bb5565b6108c1565b005b6102c960048036038101906102c491906139bc565b6109f3565b005b6102e560048036038101906102e09190613ce5565b610a53565b6040516102f29190614442565b60405180910390f35b610315600480360381019061031091906139bc565b610aff565b005b610331600480360381019061032c9190613ce5565b610b1f565b60405161033e9190614313565b60405180910390f35b610361600480360381019061035c919061394f565b610bd1565b60405161036e91906146a4565b60405180910390f35b61037f610c89565b6040516103919695949392919061439c565b60405180910390f35b6103b460048036038101906103af9190613bb5565b611519565b005b6103d060048036038101906103cb9190613c6d565b61164a565b005b6103da611832565b6040516103e79190614442565b60405180910390f35b61040a60048036038101906104059190613a92565b6118c4565b005b61042660048036038101906104219190613a0f565b6118da565b005b610442600480360381019061043d9190613c11565b61193c565b005b61045e60048036038101906104599190613b6c565b611b20565b60405161046f95949392919061470b565b60405180910390f35b610492600480360381019061048d9190613ce5565b611f7b565b60405161049f9190614442565b60405180910390f35b6104c260048036038101906104bd9190613c11565b611fe3565b005b6104de60048036038101906104d99190613b6c565b6121c7565b005b6104e86124d7565b6040516104f5919061437a565b60405180910390f35b610506612640565b60405161051391906146a4565b60405180910390f35b6105366004803603810190610531919061397c565b6126a7565b6040516105439190614427565b60405180910390f35b61056660048036038101906105619190613b6c565b61273b565b60405161057694939291906146bf565b60405180910390f35b61059960048036038101906105949190613c6d565b612823565b005b6105a3612996565b6040516105b09190614313565b60405180910390f35b60007f80ac58cd000000000000000000000000000000000000000000000000000000007bffffffffffffffffffffffffffffffffffffffffffffffffffffffff1916827bffffffffffffffffffffffffffffffffffffffffffffffffffffffff1916148061068457507f5b5e139f000000000000000000000000000000000000000000000000000000007bffffffffffffffffffffffffffffffffffffffffffffffffffffffff1916827bffffffffffffffffffffffffffffffffffffffffffffffffffffffff1916145b806106945750610693826129bc565b5b9050919050565b6060600080546106aa90614ac9565b80601f01602080910402602001604051908101604052809291908181526020018280546106d690614ac9565b80156107235780601f106106f857610100808354040283529160200191610723565b820191906000526020600020905b81548152906001019060200180831161070657829003601f168201915b5050505050905090565b600061073882612a26565b6004600083815260200190815260200160002060009054906101000a900473ffffffffffffffffffffffffffffffffffffffff169050919050565b600061077e82610b1f565b90508073ffffffffffffffffffffffffffffffffffffffff168373ffffffffffffffffffffffffffffffffffffffff1614156107ef576040517f08c379a00000000000000000000000000000000000000000000000000000000081526004016107e690614644565b60405180910390fd5b8073ffffffffffffffffffffffffffffffffffffffff1661080e612a71565b73ffffffffffffffffffffffffffffffffffffffff16148061083d575061083c81610837612a71565b6126a7565b5b61087c576040517f08c379a0000000000000000000000000000000000000000000000000000000008152600401610873906145c4565b60405180910390fd5b6108868383612a79565b505050565b6009818051602081018201805184825260208301602085012081835280955050505050506000915054906101000a900460ff1681565b6009826040516108d191906142c1565b908152602001604051809103902060009054906101000a900460ff1661092c576040517f08c379a000000000000000000000000000000000000000000000000000000000815260040161092390614604565b60405180910390fd5b3273ffffffffffffffffffffffffffffffffffffffff1661096d60088460405161095691906142c1565b908152602001604051809103902060000154610b1f565b73ffffffffffffffffffffffffffffffffffffffff16146109c3576040517f08c379a00000000000000000000000000000000000000000000000000000000081526004016109ba90614504565b60405180910390fd5b6109ef32826008856040516109d891906142c1565b908152602001604051809103902060000154612b32565b5050565b610a046109fe612a71565b82612d99565b610a43576040517f08c379a0000000000000000000000000000000000000000000000000000000008152600401610a3a90614684565b60405180910390fd5b610a4e838383612b32565b505050565b60068181548110610a6357600080fd5b906000526020600020016000915090508054610a7e90614ac9565b80601f0160208091040260200160405190810160405280929190818152602001828054610aaa90614ac9565b8015610af75780601f10610acc57610100808354040283529160200191610af7565b820191906000526020600020905b815481529060010190602001808311610ada57829003601f168201915b505050505081565b610b1a838383604051806020016040528060008152506118da565b505050565b6000806002600084815260200190815260200160002060009054906101000a900473ffffffffffffffffffffffffffffffffffffffff169050600073ffffffffffffffffffffffffffffffffffffffff168173ffffffffffffffffffffffffffffffffffffffff161415610bc8576040517f08c379a0000000000000000000000000000000000000000000000000000000008152600401610bbf90614624565b60405180910390fd5b80915050919050565b60008073ffffffffffffffffffffffffffffffffffffffff168273ffffffffffffffffffffffffffffffffffffffff161415610c42576040517f08c379a0000000000000000000000000000000000000000000000000000000008152600401610c3990614564565b60405180910390fd5b600360008373ffffffffffffffffffffffffffffffffffffffff1673ffffffffffffffffffffffffffffffffffffffff168152602001908152602001600020549050919050565b606080606080606080600060068054905067ffffffffffffffff811115610cb357610cb2614cc0565b5b604051908082528060200260200182016040528015610ce15781602001602082028036833780820191505090505b509050600060068054905067ffffffffffffffff811115610d0557610d04614cc0565b5b604051908082528060200260200182016040528015610d3857816020015b6060815260200190600190039081610d235790505b509050600060068054905067ffffffffffffffff811115610d5c57610d5b614cc0565b5b604051908082528060200260200182016040528015610d8f57816020015b6060815260200190600190039081610d7a5790505b509050600060068054905067ffffffffffffffff811115610db357610db2614cc0565b5b604051908082528060200260200182016040528015610de657816020015b6060815260200190600190039081610dd15790505b509050600060068054905067ffffffffffffffff811115610e0a57610e09614cc0565b5b604051908082528060200260200182016040528015610e385781602001602082028036833780820191505090505b50905060005b60068054905081101561142557600860068281548110610e6157610e60614c91565b5b90600052602060002001604051610e7891906142fc565b908152602001604051809103902060000154868281518110610e9d57610e9c614c91565b5b602002602001018181525050600860068281548110610ebf57610ebe614c91565b5b90600052602060002001604051610ed691906142fc565b90815260200160405180910390206001018054610ef290614ac9565b80601f0160208091040260200160405190810160405280929190818152602001828054610f1e90614ac9565b8015610f6b5780601f10610f4057610100808354040283529160200191610f6b565b820191906000526020600020905b815481529060010190602001808311610f4e57829003601f168201915b5050505050858281518110610f8357610f82614c91565b5b602002602001018190525060006002811115610fa257610fa1614c04565b5b600860068381548110610fb857610fb7614c91565b5b90600052602060002001604051610fcf91906142fc565b908152602001604051809103902060020160009054906101000a900460ff16600281111561100057610fff614c04565b5b141561105f576040518060400160405280601e81526020017f70656e64696e67207061636b6167696e6720766572696669636174696f6e000081525084828151811061104f5761104e614c91565b5b6020026020010181905250611186565b6001600281111561107357611072614c04565b5b60086006838154811061108957611088614c91565b5b906000526020600020016040516110a091906142fc565b908152602001604051809103902060020160009054906101000a900460ff1660028111156110d1576110d0614c04565b5b1415611130576040518060400160405280601281526020017f7061636b6167696e6720766572696669656400000000000000000000000000008152508482815181106111205761111f614c91565b5b6020026020010181905250611185565b6040518060400160405280601081526020017f7061636b6167696e672064656e6965640000000000000000000000000000000081525084828151811061117957611178614c91565b5b60200260200101819052505b5b6000600281111561119a57611199614c04565b5b6008600683815481106111b0576111af614c91565b5b906000526020600020016040516111c791906142fc565b908152602001604051809103902060020160019054906101000a900460ff1660028111156111f8576111f7614c04565b5b1415611257576040518060400160405280601c81526020017f70656e64696e672070726f6475637420766572696669636174696f6e0000000081525083828151811061124757611246614c91565b5b602002602001018190525061137e565b6001600281111561126b5761126a614c04565b5b60086006838154811061128157611280614c91565b5b9060005260206000200160405161129891906142fc565b908152602001604051809103902060020160019054906101000a900460ff1660028111156112c9576112c8614c04565b5b1415611328576040518060400160405280601081526020017f70726f647563742076657269666965640000000000000000000000000000000081525083828151811061131857611317614c91565b5b602002602001018190525061137d565b6040518060400160405280600e81526020017f70726f647563742064656e69656400000000000000000000000000000000000081525083828151811061137157611370614c91565b5b60200260200101819052505b5b6113c560086006838154811061139757611396614c91565b5b906000526020600020016040516113ae91906142fc565b908152602001604051809103902060000154610b1f565b8282815181106113d8576113d7614c91565b5b602002602001019073ffffffffffffffffffffffffffffffffffffffff16908173ffffffffffffffffffffffffffffffffffffffff1681525050808061141d90614b2c565b915050610e3e565b506006858585858585805480602002602001604051908101604052809291908181526020016000905b828210156114fa57838290600052602060002001805461146d90614ac9565b80601f016020809104026020016040519081016040528092919081815260200182805461149990614ac9565b80156114e65780601f106114bb576101008083540402835291602001916114e6565b820191906000526020600020905b8154815290600101906020018083116114c957829003601f168201915b50505050508152602001906001019061144e565b5050505095509a509a509a509a509a509a505050505050909192939495565b60098260405161152991906142c1565b908152602001604051809103902060009054906101000a900460ff16611584576040517f08c379a000000000000000000000000000000000000000000000000000000000815260040161157b90614604565b60405180910390fd5b3273ffffffffffffffffffffffffffffffffffffffff166115c56008846040516115ae91906142c1565b908152602001604051809103902060000154610b1f565b73ffffffffffffffffffffffffffffffffffffffff161461161b576040517f08c379a000000000000000000000000000000000000000000000000000000000815260040161161290614504565b60405180910390fd5b6116468160088460405161162f91906142c1565b908152602001604051809103902060000154612a79565b5050565b60098260405161165a91906142c1565b908152602001604051809103902060009054906101000a900460ff16156116b6576040517f08c379a00000000000000000000000000000000000000000000000000000000081526004016116ad90614584565b60405180910390fd5b6006829080600181540180825580915050600190039060005260206000200160009091909190915090805190602001906116f1929190613696565b50600060068054905090506117063382612e2e565b8060088460405161171791906142c1565b9081526020016040518091039020600001819055508160088460405161173d91906142c1565b90815260200160405180910390206001019080519060200190611761929190613696565b50600060088460405161177491906142c1565b908152602001604051809103902060020160006101000a81548160ff021916908360028111156117a7576117a6614c04565b5b021790555060006008846040516117be91906142c1565b908152602001604051809103902060020160016101000a81548160ff021916908360028111156117f1576117f0614c04565b5b0217905550600160098460405161180891906142c1565b908152602001604051809103902060006101000a81548160ff021916908315150217905550505050565b60606001805461184190614ac9565b80601f016020809104026020016040519081016040528092919081815260200182805461186d90614ac9565b80156118ba5780601f1061188f576101008083540402835291602001916118ba565b820191906000526020600020905b81548152906001019060200180831161189d57829003601f168201915b5050505050905090565b6118d66118cf612a71565b8383613008565b5050565b6118eb6118e5612a71565b83612d99565b61192a576040517f08c379a000000000000000000000000000000000000000000000000000000000815260040161192190614684565b60405180910390fd5b61193684848484613175565b50505050565b60098260405161194c91906142c1565b908152602001604051809103902060009054906101000a900460ff166119a7576040517f08c379a000000000000000000000000000000000000000000000000000000000815260040161199e90614604565b60405180910390fd5b3373ffffffffffffffffffffffffffffffffffffffff166119e86008846040516119d191906142c1565b908152602001604051809103902060000154610b1f565b73ffffffffffffffffffffffffffffffffffffffff1614611a3e576040517f08c379a0000000000000000000000000000000000000000000000000000000008152600401611a35906145a4565b60405180910390fd5b600115158115151415611a9a576001600883604051611a5d91906142c1565b908152602001604051809103902060020160006101000a81548160ff02191690836002811115611a9057611a8f614c04565b5b0217905550611ae5565b6002600883604051611aac91906142c1565b908152602001604051809103902060020160006101000a81548160ff02191690836002811115611adf57611ade614c04565b5b02179055505b7f59d309664d5e5c5c7562159b94306437ae8aed905c4f84933f4ad06eea902ed482604051611b149190614442565b60405180910390a15050565b600060608060606000600986604051611b3991906142c1565b908152602001604051809103902060009054906101000a900460ff16611b94576040517f08c379a0000000000000000000000000000000000000000000000000000000008152600401611b8b90614604565b60405180910390fd5b60608060006002811115611bab57611baa614c04565b5b600889604051611bbb91906142c1565b908152602001604051809103902060020160009054906101000a900460ff166002811115611bec57611beb614c04565b5b1415611c2f576040518060400160405280601e81526020017f70656e64696e67207061636b6167696e6720766572696669636174696f6e00008152509150611d01565b60016002811115611c4357611c42614c04565b5b600889604051611c5391906142c1565b908152602001604051809103902060020160009054906101000a900460ff166002811115611c8457611c83614c04565b5b1415611cc7576040518060400160405280601281526020017f7061636b6167696e6720766572696669656400000000000000000000000000008152509150611d00565b6040518060400160405280601081526020017f7061636b6167696e672064656e6965640000000000000000000000000000000081525091505b5b60006002811115611d1557611d14614c04565b5b600889604051611d2591906142c1565b908152602001604051809103902060020160019054906101000a900460ff166002811115611d5657611d55614c04565b5b1415611d99576040518060400160405280601c81526020017f70656e64696e672070726f6475637420766572696669636174696f6e000000008152509050611e6b565b60016002811115611dad57611dac614c04565b5b600889604051611dbd91906142c1565b908152602001604051809103902060020160019054906101000a900460ff166002811115611dee57611ded614c04565b5b1415611e31576040518060400160405280601081526020017f70726f64756374207665726966696564000000000000000000000000000000008152509050611e6a565b6040518060400160405280600e81526020017f70726f647563742064656e69656400000000000000000000000000000000000081525090505b5b600888604051611e7b91906142c1565b908152602001604051809103902060000154600889604051611e9d91906142c1565b90815260200160405180910390206001018383611eda60088d604051611ec391906142c1565b908152602001604051809103902060000154610b1f565b838054611ee690614ac9565b80601f0160208091040260200160405190810160405280929190818152602001828054611f1290614ac9565b8015611f5f5780601f10611f3457610100808354040283529160200191611f5f565b820191906000526020600020905b815481529060010190602001808311611f4257829003601f168201915b5050505050935096509650965096509650505091939590929450565b6060611f8682612a26565b6000611f906131d1565b90506000815111611fb05760405180602001604052806000815250611fdb565b80611fba846131e8565b604051602001611fcb9291906142d8565b6040516020818303038152906040525b915050919050565b600982604051611ff391906142c1565b908152602001604051809103902060009054906101000a900460ff1661204e576040517f08c379a000000000000000000000000000000000000000000000000000000000815260040161204590614604565b60405180910390fd5b3373ffffffffffffffffffffffffffffffffffffffff1661208f60088460405161207891906142c1565b908152602001604051809103902060000154610b1f565b73ffffffffffffffffffffffffffffffffffffffff16146120e5576040517f08c379a00000000000000000000000000000000000000000000000000000000081526004016120dc906145a4565b60405180910390fd5b60011515811515141561214157600160088360405161210491906142c1565b908152602001604051809103902060020160016101000a81548160ff0219169083600281111561213757612136614c04565b5b021790555061218c565b600260088360405161215391906142c1565b908152602001604051809103902060020160016101000a81548160ff0219169083600281111561218657612185614c04565b5b02179055505b7f59d309664d5e5c5c7562159b94306437ae8aed905c4f84933f4ad06eea902ed4826040516121bb9190614442565b60405180910390a15050565b6000806009836040516121da91906142c1565b908152602001604051809103902060009054906101000a900460ff16612235576040517f08c379a000000000000000000000000000000000000000000000000000000000815260040161222c90614604565b60405180910390fd5b3373ffffffffffffffffffffffffffffffffffffffff1661227660088560405161225f91906142c1565b908152602001604051809103902060000154610b1f565b73ffffffffffffffffffffffffffffffffffffffff16146122cc576040517f08c379a00000000000000000000000000000000000000000000000000000000081526004016122c3906144a4565b60405180910390fd5b6122f66008846040516122df91906142c1565b908152602001604051809103902060000154613349565b600060098460405161230891906142c1565b908152602001604051809103902060006101000a81548160ff02191690831515021790555060088360405161233d91906142c1565b9081526020016040518091039020600080820160009055600182016000612364919061371c565b6002820160006101000a81549060ff02191690556002820160016101000a81549060ff021916905550505b826040516020016123a091906142c1565b60405160208183030381529060405280519060200120600683815481106123ca576123c9614c91565b5b906000526020600020016040516020016123e491906142fc565b604051602081830303815290604052805190602001201461241257818061240a90614b2c565b92505061238f565b8190505b60016006805490506124289190614995565b8110156124a257600660018261243e919061490e565b8154811061244f5761244e614c91565b5b906000526020600020016006828154811061246d5761246c614c91565b5b9060005260206000200190805461248390614ac9565b61248e92919061375c565b50808061249a90614b2c565b915050612416565b60068054806124b4576124b3614c62565b5b6001900381819060005260206000200160006124d0919061371c565b9055505050565b6060600760009054906101000a900473ffffffffffffffffffffffffffffffffffffffff1673ffffffffffffffffffffffffffffffffffffffff163373ffffffffffffffffffffffffffffffffffffffff1614612569576040517f08c379a000000000000000000000000000000000000000000000000000000000815260040161256090614664565b60405180910390fd5b6006805480602002602001604051908101604052809291908181526020016000905b828210156126375783829060005260206000200180546125aa90614ac9565b80601f01602080910402602001604051908101604052809291908181526020018280546125d690614ac9565b80156126235780601f106125f857610100808354040283529160200191612623565b820191906000526020600020905b81548152906001019060200180831161260657829003601f168201915b50505050508152602001906001019061258b565b50505050905090565b6000600760009054906101000a900473ffffffffffffffffffffffffffffffffffffffff1673ffffffffffffffffffffffffffffffffffffffff163373ffffffffffffffffffffffffffffffffffffffff161461269c57600080fd5b600680549050905090565b6000600560008473ffffffffffffffffffffffffffffffffffffffff1673ffffffffffffffffffffffffffffffffffffffff16815260200190815260200160002060008373ffffffffffffffffffffffffffffffffffffffff1673ffffffffffffffffffffffffffffffffffffffff16815260200190815260200160002060009054906101000a900460ff16905092915050565b60088180516020810182018051848252602083016020850120818352809550505050505060009150905080600001549080600101805461277a90614ac9565b80601f01602080910402602001604051908101604052809291908181526020018280546127a690614ac9565b80156127f35780601f106127c8576101008083540402835291602001916127f3565b820191906000526020600020905b8154815290600101906020018083116127d657829003601f168201915b5050505050908060020160009054906101000a900460ff16908060020160019054906101000a900460ff16905084565b60098260405161283391906142c1565b908152602001604051809103902060009054906101000a900460ff1661288e576040517f08c379a000000000000000000000000000000000000000000000000000000000815260040161288590614604565b60405180910390fd5b3373ffffffffffffffffffffffffffffffffffffffff166128cf6008846040516128b891906142c1565b908152602001604051809103902060000154610b1f565b73ffffffffffffffffffffffffffffffffffffffff1614612925576040517f08c379a000000000000000000000000000000000000000000000000000000000815260040161291c90614464565b60405180910390fd5b8060088360405161293691906142c1565b9081526020016040518091039020600101908051906020019061295a929190613696565b507f6714407191569b7b9edd5db2d624b8e2281272e577950f0e87ca156570ffe9e48260405161298a9190614442565b60405180910390a15050565b600760009054906101000a900473ffffffffffffffffffffffffffffffffffffffff1681565b60007f01ffc9a7000000000000000000000000000000000000000000000000000000007bffffffffffffffffffffffffffffffffffffffffffffffffffffffff1916827bffffffffffffffffffffffffffffffffffffffffffffffffffffffff1916149050919050565b612a2f81613466565b612a6e576040517f08c379a0000000000000000000000000000000000000000000000000000000008152600401612a6590614624565b60405180910390fd5b50565b600033905090565b816004600083815260200190815260200160002060006101000a81548173ffffffffffffffffffffffffffffffffffffffff021916908373ffffffffffffffffffffffffffffffffffffffff160217905550808273ffffffffffffffffffffffffffffffffffffffff16612aec83610b1f565b73ffffffffffffffffffffffffffffffffffffffff167f8c5be1e5ebec7d5bd14f71427d1e84f3dd0314c0f7b2291e5b200ac8c7c3b92560405160405180910390a45050565b8273ffffffffffffffffffffffffffffffffffffffff16612b5282610b1f565b73ffffffffffffffffffffffffffffffffffffffff1614612ba8576040517f08c379a0000000000000000000000000000000000000000000000000000000008152600401612b9f906144c4565b60405180910390fd5b600073ffffffffffffffffffffffffffffffffffffffff168273ffffffffffffffffffffffffffffffffffffffff161415612c18576040517f08c379a0000000000000000000000000000000000000000000000000000000008152600401612c0f90614524565b60405180910390fd5b612c238383836134d2565b612c2e600082612a79565b6001600360008573ffffffffffffffffffffffffffffffffffffffff1673ffffffffffffffffffffffffffffffffffffffff1681526020019081526020016000206000828254612c7e9190614995565b925050819055506001600360008473ffffffffffffffffffffffffffffffffffffffff1673ffffffffffffffffffffffffffffffffffffffff1681526020019081526020016000206000828254612cd5919061490e565b92505081905550816002600083815260200190815260200160002060006101000a81548173ffffffffffffffffffffffffffffffffffffffff021916908373ffffffffffffffffffffffffffffffffffffffff160217905550808273ffffffffffffffffffffffffffffffffffffffff168473ffffffffffffffffffffffffffffffffffffffff167fddf252ad1be2c89b69c2b068fc378daa952ba7f163c4a11628f55a4df523b3ef60405160405180910390a4612d948383836134d7565b505050565b600080612da583610b1f565b90508073ffffffffffffffffffffffffffffffffffffffff168473ffffffffffffffffffffffffffffffffffffffff161480612de75750612de681856126a7565b5b80612e2557508373ffffffffffffffffffffffffffffffffffffffff16612e0d8461072d565b73ffffffffffffffffffffffffffffffffffffffff16145b91505092915050565b600073ffffffffffffffffffffffffffffffffffffffff168273ffffffffffffffffffffffffffffffffffffffff161415612e9e576040517f08c379a0000000000000000000000000000000000000000000000000000000008152600401612e95906145e4565b60405180910390fd5b612ea781613466565b15612ee7576040517f08c379a0000000000000000000000000000000000000000000000000000000008152600401612ede906144e4565b60405180910390fd5b612ef3600083836134d2565b6001600360008473ffffffffffffffffffffffffffffffffffffffff1673ffffffffffffffffffffffffffffffffffffffff1681526020019081526020016000206000828254612f43919061490e565b92505081905550816002600083815260200190815260200160002060006101000a81548173ffffffffffffffffffffffffffffffffffffffff021916908373ffffffffffffffffffffffffffffffffffffffff160217905550808273ffffffffffffffffffffffffffffffffffffffff16600073ffffffffffffffffffffffffffffffffffffffff167fddf252ad1be2c89b69c2b068fc378daa952ba7f163c4a11628f55a4df523b3ef60405160405180910390a4613004600083836134d7565b5050565b8173ffffffffffffffffffffffffffffffffffffffff168373ffffffffffffffffffffffffffffffffffffffff161415613077576040517f08c379a000000000000000000000000000000000000000000000000000000000815260040161306e90614544565b60405180910390fd5b80600560008573ffffffffffffffffffffffffffffffffffffffff1673ffffffffffffffffffffffffffffffffffffffff16815260200190815260200160002060008473ffffffffffffffffffffffffffffffffffffffff1673ffffffffffffffffffffffffffffffffffffffff16815260200190815260200160002060006101000a81548160ff0219169083151502179055508173ffffffffffffffffffffffffffffffffffffffff168373ffffffffffffffffffffffffffffffffffffffff167f17307eab39ab6107e8899845ad3d59bd9653f200f220920489ca2b5937696c31836040516131689190614427565b60405180910390a3505050565b613180848484612b32565b61318c848484846134dc565b6131cb576040517f08c379a00000000000000000000000000000000000000000000000000000000081526004016131c290614484565b60405180910390fd5b50505050565b606060405180602001604052806000815250905090565b60606000821415613230576040518060400160405280600181526020017f30000000000000000000000000000000000000000000000000000000000000008152509050613344565b600082905060005b6000821461326257808061324b90614b2c565b915050600a8261325b9190614964565b9150613238565b60008167ffffffffffffffff81111561327e5761327d614cc0565b5b6040519080825280601f01601f1916602001820160405280156132b05781602001600182028036833780820191505090505b5090505b6000851461333d576001826132c99190614995565b9150600a856132d89190614b75565b60306132e4919061490e565b60f81b8183815181106132fa576132f9614c91565b5b60200101907effffffffffffffffffffffffffffffffffffffffffffffffffffffffffffff1916908160001a905350600a856133369190614964565b94506132b4565b8093505050505b919050565b600061335482610b1f565b9050613362816000846134d2565b61336d600083612a79565b6001600360008373ffffffffffffffffffffffffffffffffffffffff1673ffffffffffffffffffffffffffffffffffffffff16815260200190815260200160002060008282546133bd9190614995565b925050819055506002600083815260200190815260200160002060006101000a81549073ffffffffffffffffffffffffffffffffffffffff021916905581600073ffffffffffffffffffffffffffffffffffffffff168273ffffffffffffffffffffffffffffffffffffffff167fddf252ad1be2c89b69c2b068fc378daa952ba7f163c4a11628f55a4df523b3ef60405160405180910390a4613462816000846134d7565b5050565b60008073ffffffffffffffffffffffffffffffffffffffff166002600084815260200190815260200160002060009054906101000a900473ffffffffffffffffffffffffffffffffffffffff1673ffffffffffffffffffffffffffffffffffffffff1614159050919050565b505050565b505050565b60006134fd8473ffffffffffffffffffffffffffffffffffffffff16613673565b15613666578373ffffffffffffffffffffffffffffffffffffffff1663150b7a02613526612a71565b8786866040518563ffffffff1660e01b8152600401613548949392919061432e565b602060405180830381600087803b15801561356257600080fd5b505af192505050801561359357506040513d601f19601f820116820180604052508101906135909190613b3f565b60015b613616573d80600081146135c3576040519150601f19603f3d011682016040523d82523d6000602084013e6135c8565b606091505b5060008151141561360e576040517f08c379a000000000000000000000000000000000000000000000000000000000815260040161360590614484565b60405180910390fd5b805181602001fd5b63150b7a0260e01b7bffffffffffffffffffffffffffffffffffffffffffffffffffffffff1916817bffffffffffffffffffffffffffffffffffffffffffffffffffffffff19161491505061366b565b600190505b949350505050565b6000808273ffffffffffffffffffffffffffffffffffffffff163b119050919050565b8280546136a290614ac9565b90600052602060002090601f0160209004810192826136c4576000855561370b565b82601f106136dd57805160ff191683800117855561370b565b8280016001018555821561370b579182015b8281111561370a5782518255916020019190600101906136ef565b5b50905061371891906137e9565b5090565b50805461372890614ac9565b6000825580601f1061373a5750613759565b601f01602090049060005260206000209081019061375891906137e9565b5b50565b82805461376890614ac9565b90600052602060002090601f01602090048101928261378a57600085556137d8565b82601f1061379b57805485556137d8565b828001600101855582156137d857600052602060002091601f016020900482015b828111156137d75782548255916001019190600101906137bc565b5b5090506137e591906137e9565b5090565b5b808211156138025760008160009055506001016137ea565b5090565b600061381961381484614798565b614773565b90508281526020810184848401111561383557613834614cf4565b5b613840848285614a87565b509392505050565b600061385b613856846147c9565b614773565b90508281526020810184848401111561387757613876614cf4565b5b613882848285614a87565b509392505050565b6000813590506138998161520c565b92915050565b6000813590506138ae81615223565b92915050565b6000813590506138c38161523a565b92915050565b6000815190506138d88161523a565b92915050565b600082601f8301126138f3576138f2614cef565b5b8135613903848260208601613806565b91505092915050565b600082601f83011261392157613920614cef565b5b8135613931848260208601613848565b91505092915050565b60008135905061394981615251565b92915050565b60006020828403121561396557613964614cfe565b5b60006139738482850161388a565b91505092915050565b6000806040838503121561399357613992614cfe565b5b60006139a18582860161388a565b92505060206139b28582860161388a565b9150509250929050565b6000806000606084860312156139d5576139d4614cfe565b5b60006139e38682870161388a565b93505060206139f48682870161388a565b9250506040613a058682870161393a565b9150509250925092565b60008060008060808587031215613a2957613a28614cfe565b5b6000613a378782880161388a565b9450506020613a488782880161388a565b9350506040613a598782880161393a565b925050606085013567ffffffffffffffff811115613a7a57613a79614cf9565b5b613a86878288016138de565b91505092959194509250565b60008060408385031215613aa957613aa8614cfe565b5b6000613ab78582860161388a565b9250506020613ac88582860161389f565b9150509250929050565b60008060408385031215613ae957613ae8614cfe565b5b6000613af78582860161388a565b9250506020613b088582860161393a565b9150509250929050565b600060208284031215613b2857613b27614cfe565b5b6000613b36848285016138b4565b91505092915050565b600060208284031215613b5557613b54614cfe565b5b6000613b63848285016138c9565b91505092915050565b600060208284031215613b8257613b81614cfe565b5b600082013567ffffffffffffffff811115613ba057613b9f614cf9565b5b613bac8482850161390c565b91505092915050565b60008060408385031215613bcc57613bcb614cfe565b5b600083013567ffffffffffffffff811115613bea57613be9614cf9565b5b613bf68582860161390c565b9250506020613c078582860161388a565b9150509250929050565b60008060408385031215613c2857613c27614cfe565b5b600083013567ffffffffffffffff811115613c4657613c45614cf9565b5b613c528582860161390c565b9250506020613c638582860161389f565b9150509250929050565b60008060408385031215613c8457613c83614cfe565b5b600083013567ffffffffffffffff811115613ca257613ca1614cf9565b5b613cae8582860161390c565b925050602083013567ffffffffffffffff811115613ccf57613cce614cf9565b5b613cdb8582860161390c565b9150509250929050565b600060208284031215613cfb57613cfa614cfe565b5b6000613d098482850161393a565b91505092915050565b6000613d1e8383613d56565b60208301905092915050565b6000613d368383613f0b565b905092915050565b6000613d4a83836142a3565b60208301905092915050565b613d5f816149c9565b82525050565b613d6e816149c9565b82525050565b6000613d7f8261483f565b613d89818561489d565b9350613d94836147fa565b8060005b83811015613dc5578151613dac8882613d12565b9750613db783614876565b925050600181019050613d98565b5085935050505092915050565b6000613ddd8261484a565b613de781856148ae565b935083602082028501613df98561480a565b8060005b85811015613e355784840389528151613e168582613d2a565b9450613e2183614883565b925060208a01995050600181019050613dfd565b50829750879550505050505092915050565b6000613e5282614855565b613e5c81856148bf565b9350613e678361481a565b8060005b83811015613e98578151613e7f8882613d3e565b9750613e8a83614890565b925050600181019050613e6b565b5085935050505092915050565b613eae816149db565b82525050565b6000613ebf82614860565b613ec981856148d0565b9350613ed9818560208601614a96565b613ee281614d03565b840191505092915050565b613ef681614a63565b82525050565b613f0581614a75565b82525050565b6000613f168261486b565b613f2081856148e1565b9350613f30818560208601614a96565b613f3981614d03565b840191505092915050565b6000613f4f8261486b565b613f5981856148f2565b9350613f69818560208601614a96565b613f7281614d03565b840191505092915050565b6000613f888261486b565b613f928185614903565b9350613fa2818560208601614a96565b80840191505092915050565b60008154613fbb81614ac9565b613fc58186614903565b94506001821660008114613fe05760018114613ff157614024565b60ff19831686528186019350614024565b613ffa8561482a565b60005b8381101561401c57815481890152600182019150602081019050613ffd565b838801955050505b50505092915050565b600061403a602a836148f2565b915061404582614d14565b604082019050919050565b600061405d6032836148f2565b915061406882614d63565b604082019050919050565b6000614080602b836148f2565b915061408b82614db2565b604082019050919050565b60006140a36025836148f2565b91506140ae82614e01565b604082019050919050565b60006140c6601c836148f2565b91506140d182614e50565b602082019050919050565b60006140e96028836148f2565b91506140f482614e79565b604082019050919050565b600061410c6024836148f2565b915061411782614ec8565b604082019050919050565b600061412f6019836148f2565b915061413a82614f17565b602082019050919050565b60006141526029836148f2565b915061415d82614f40565b604082019050919050565b60006141756015836148f2565b915061418082614f8f565b602082019050919050565b60006141986041836148f2565b91506141a382614fb8565b606082019050919050565b60006141bb603e836148f2565b91506141c68261502d565b604082019050919050565b60006141de6020836148f2565b91506141e98261507c565b602082019050919050565b60006142016015836148f2565b915061420c826150a5565b602082019050919050565b60006142246018836148f2565b915061422f826150ce565b602082019050919050565b60006142476021836148f2565b9150614252826150f7565b604082019050919050565b600061426a6029836148f2565b915061427582615146565b604082019050919050565b600061428d602e836148f2565b915061429882615195565b604082019050919050565b6142ac81614a59565b82525050565b6142bb81614a59565b82525050565b60006142cd8284613f7d565b915081905092915050565b60006142e48285613f7d565b91506142f08284613f7d565b91508190509392505050565b60006143088284613fae565b915081905092915050565b60006020820190506143286000830184613d65565b92915050565b60006080820190506143436000830187613d65565b6143506020830186613d65565b61435d60408301856142b2565b818103606083015261436f8184613eb4565b905095945050505050565b600060208201905081810360008301526143948184613dd2565b905092915050565b600060c08201905081810360008301526143b68189613dd2565b905081810360208301526143ca8188613e47565b905081810360408301526143de8187613dd2565b905081810360608301526143f28186613dd2565b905081810360808301526144068185613dd2565b905081810360a083015261441a8184613d74565b9050979650505050505050565b600060208201905061443c6000830184613ea5565b92915050565b6000602082019050818103600083015261445c8184613f44565b905092915050565b6000602082019050818103600083015261447d8161402d565b9050919050565b6000602082019050818103600083015261449d81614050565b9050919050565b600060208201905081810360008301526144bd81614073565b9050919050565b600060208201905081810360008301526144dd81614096565b9050919050565b600060208201905081810360008301526144fd816140b9565b9050919050565b6000602082019050818103600083015261451d816140dc565b9050919050565b6000602082019050818103600083015261453d816140ff565b9050919050565b6000602082019050818103600083015261455d81614122565b9050919050565b6000602082019050818103600083015261457d81614145565b9050919050565b6000602082019050818103600083015261459d81614168565b9050919050565b600060208201905081810360008301526145bd8161418b565b9050919050565b600060208201905081810360008301526145dd816141ae565b9050919050565b600060208201905081810360008301526145fd816141d1565b9050919050565b6000602082019050818103600083015261461d816141f4565b9050919050565b6000602082019050818103600083015261463d81614217565b9050919050565b6000602082019050818103600083015261465d8161423a565b9050919050565b6000602082019050818103600083015261467d8161425d565b9050919050565b6000602082019050818103600083015261469d81614280565b9050919050565b60006020820190506146b960008301846142b2565b92915050565b60006080820190506146d460008301876142b2565b81810360208301526146e68186613f44565b90506146f56040830185613eed565b6147026060830184613efc565b95945050505050565b600060a08201905061472060008301886142b2565b81810360208301526147328187613f44565b905081810360408301526147468186613f44565b9050818103606083015261475a8185613f44565b90506147696080830184613d65565b9695505050505050565b600061477d61478e565b90506147898282614afb565b919050565b6000604051905090565b600067ffffffffffffffff8211156147b3576147b2614cc0565b5b6147bc82614d03565b9050602081019050919050565b600067ffffffffffffffff8211156147e4576147e3614cc0565b5b6147ed82614d03565b9050602081019050919050565b6000819050602082019050919050565b6000819050602082019050919050565b6000819050602082019050919050565b60008190508160005260206000209050919050565b600081519050919050565b600081519050919050565b600081519050919050565b600081519050919050565b600081519050919050565b6000602082019050919050565b6000602082019050919050565b6000602082019050919050565b600082825260208201905092915050565b600082825260208201905092915050565b600082825260208201905092915050565b600082825260208201905092915050565b600082825260208201905092915050565b600082825260208201905092915050565b600081905092915050565b600061491982614a59565b915061492483614a59565b9250827fffffffffffffffffffffffffffffffffffffffffffffffffffffffffffffffff0382111561495957614958614ba6565b5b828201905092915050565b600061496f82614a59565b915061497a83614a59565b92508261498a57614989614bd5565b5b828204905092915050565b60006149a082614a59565b91506149ab83614a59565b9250828210156149be576149bd614ba6565b5b828203905092915050565b60006149d482614a39565b9050919050565b60008115159050919050565b60007fffffffff0000000000000000000000000000000000000000000000000000000082169050919050565b6000819050614a21826151e4565b919050565b6000819050614a34826151f8565b919050565b600073ffffffffffffffffffffffffffffffffffffffff82169050919050565b6000819050919050565b6000614a6e82614a13565b9050919050565b6000614a8082614a26565b9050919050565b82818337600083830152505050565b60005b83811015614ab4578082015181840152602081019050614a99565b83811115614ac3576000848401525b50505050565b60006002820490506001821680614ae157607f821691505b60208210811415614af557614af4614c33565b5b50919050565b614b0482614d03565b810181811067ffffffffffffffff82111715614b2357614b22614cc0565b5b80604052505050565b6000614b3782614a59565b91507fffffffffffffffffffffffffffffffffffffffffffffffffffffffffffffffff821415614b6a57614b69614ba6565b5b600182019050919050565b6000614b8082614a59565b9150614b8b83614a59565b925082614b9b57614b9a614bd5565b5b828206905092915050565b7f4e487b7100000000000000000000000000000000000000000000000000000000600052601160045260246000fd5b7f4e487b7100000000000000000000000000000000000000000000000000000000600052601260045260246000fd5b7f4e487b7100000000000000000000000000000000000000000000000000000000600052602160045260246000fd5b7f4e487b7100000000000000000000000000000000000000000000000000000000600052602260045260246000fd5b7f4e487b7100000000000000000000000000000000000000000000000000000000600052603160045260246000fd5b7f4e487b7100000000000000000000000000000000000000000000000000000000600052603260045260246000fd5b7f4e487b7100000000000000000000000000000000000000000000000000000000600052604160045260246000fd5b600080fd5b600080fd5b600080fd5b600080fd5b6000601f19601f8301169050919050565b7f4f6e6c792074686520746f6b656e206f776e65722063616e207570646174652060008201527f74686520746f6b656e2e00000000000000000000000000000000000000000000602082015250565b7f4552433732313a207472616e7366657220746f206e6f6e20455243373231526560008201527f63656976657220696d706c656d656e7465720000000000000000000000000000602082015250565b7f4f6e6c792074686520746f6b656e206f776e65722063616e2064657374726f7960008201527f2074686520746f6b656e2e000000000000000000000000000000000000000000602082015250565b7f4552433732313a207472616e736665722066726f6d20696e636f72726563742060008201527f6f776e6572000000000000000000000000000000000000000000000000000000602082015250565b7f4552433732313a20746f6b656e20616c7265616479206d696e74656400000000600082015250565b7f4f6e6c7920746f6b656e206f776e65722063616e207472616e7366657220746860008201527f6520746f6b656e2e000000000000000000000000000000000000000000000000602082015250565b7f4552433732313a207472616e7366657220746f20746865207a65726f2061646460008201527f7265737300000000000000000000000000000000000000000000000000000000602082015250565b7f4552433732313a20617070726f766520746f2063616c6c657200000000000000600082015250565b7f4552433732313a2061646472657373207a65726f206973206e6f74206120766160008201527f6c6964206f776e65720000000000000000000000000000000000000000000000602082015250565b7f546f6b656e20616c7265616479206578697374732e0000000000000000000000600082015250565b7f4f6e6c792074686520746f6b656e206f776e65722063616e207570646174652060008201527f766572696669636174696f6e20737461747573206f662074686520746f6b656e60208201527f2e00000000000000000000000000000000000000000000000000000000000000604082015250565b7f4552433732313a20617070726f76652063616c6c6572206973206e6f7420746f60008201527f6b656e206f776e6572206e6f7220617070726f76656420666f7220616c6c0000602082015250565b7f4552433732313a206d696e7420746f20746865207a65726f2061646472657373600082015250565b7f546f6b656e20646f6573206e6f742065786973742e0000000000000000000000600082015250565b7f4552433732313a20696e76616c696420746f6b656e2049440000000000000000600082015250565b7f4552433732313a20617070726f76616c20746f2063757272656e74206f776e6560008201527f7200000000000000000000000000000000000000000000000000000000000000602082015250565b7f4f6e6c7920636f6e7472616374206f776e65722063616e20717565727920616c60008201527f6c20746f6b656e732e0000000000000000000000000000000000000000000000602082015250565b7f4552433732313a2063616c6c6572206973206e6f7420746f6b656e206f776e6560008201527f72206e6f7220617070726f766564000000000000000000000000000000000000602082015250565b600381106151f5576151f4614c04565b5b50565b6003811061520957615208614c04565b5b50565b615215816149c9565b811461522057600080fd5b50565b61522c816149db565b811461523757600080fd5b50565b615243816149e7565b811461524e57600080fd5b50565b61525a81614a59565b811461526557600080fd5b5056fea2646970667358221220e67147fb911a950a0f199b4ed839393c2bea5155288399a4be88156eb2c128ae64736f6c63430008070033",
  "immutableReferences": {},
  "source": "// SPDX-License-Identifier: MIT\npragma solidity ^0.8.0;\n\nimport \"../node_modules/@openzeppelin/contracts/token/ERC721/ERC721.sol\";\n\ncontract DigitalTwin is ERC721 {\n    string[] public alltks; // to record all all tks\n    address public admin;\n\n    /**\n     * Recognition: Packaging\n     * Verification: Product\n     */\n    enum Recognitionstatus {\n        PENDING,\n        VERIFIED,\n        DENIED\n    }\n\n    enum Verificationstatus {\n        PENDING,\n        VERIFIED,\n        DENIED\n    }\n\n    struct TkDetails {\n        uint256 id;\n        string metadata;\n        Recognitionstatus rstatus;\n        Verificationstatus vstatus;\n    }\n\n    mapping(string => TkDetails) public tks; // mapping of tkname => ProductTk struct\n    mapping(string => bool) public tkExists;\n\n    event TokenUpdated(string tkname);\n    event TokenVerified(string tkname);\n\n    constructor(string memory _name, string memory _symbol)\n        ERC721(_name, _symbol)\n    {\n        admin = msg.sender;\n    }\n\n    function mint(string memory _tkname, string memory _metadata) public {\n\n        require(!tkExists[_tkname], \"Token already exists.\");\n\n        alltks.push(_tkname);\n        uint256 id = alltks.length;\n        _mint(msg.sender, id);\n        \n        tks[_tkname].id = id;\n        tks[_tkname].metadata = _metadata;\n        tks[_tkname].rstatus = Recognitionstatus.PENDING;\n        tks[_tkname].vstatus = Verificationstatus.PENDING;\n\n        tkExists[_tkname] = true;\n    }\n\n    /**\n     * update only updates the metadata of an existing token\n     */\n    function update(string memory _tkname, string memory _metadata) public {\n\n        require(tkExists[_tkname], \"Token does not exist.\");\n        require(\n            ownerOf(tks[_tkname].id) == address(msg.sender),\n            \"Only the token owner can update the token.\"\n        );\n\n        tks[_tkname].metadata = _metadata;\n\n        emit TokenUpdated(_tkname);\n    }\n\n    /**\n     * recognize is called by processor upon optical verification of the product\n     */\n    function recognize(string memory _tkname, bool _status) public {\n\n        require(tkExists[_tkname], \"Token does not exist.\");\n        require(\n            ownerOf(tks[_tkname].id) == address(msg.sender),\n            \"Only the token owner can update verification status of the token.\"\n        );\n\n        if (_status == true) {\n            tks[_tkname].rstatus = Recognitionstatus.VERIFIED;\n        }\n        else {\n            tks[_tkname].rstatus = Recognitionstatus.DENIED;\n        }\n\n        emit TokenVerified(_tkname);\n    }\n\n    /**\n     * verify is called by processor upon optical verification of the product\n     */\n    function verify(string memory _tkname, bool _status) public {\n\n        require(tkExists[_tkname], \"Token does not exist.\");\n        require(\n            ownerOf(tks[_tkname].id) == address(msg.sender),\n            \"Only the token owner can update verification status of the token.\"\n        );\n\n        if (_status == true) {\n            tks[_tkname].vstatus = Verificationstatus.VERIFIED;\n        }\n        else {\n            tks[_tkname].vstatus = Verificationstatus.DENIED;\n        }\n\n        emit TokenVerified(_tkname);\n    }\n\n    function burn(string memory _tkname) public {\n        uint i = 0;\n        uint j;\n\n        require(tkExists[_tkname], \"Token does not exist.\");\n        require(\n            ownerOf(tks[_tkname].id) == address(msg.sender),\n            \"Only the token owner can destroy the token.\"\n        );\n\n        _burn(tks[_tkname].id); // transfer the token to the 0x address\n        tkExists[_tkname] = false; // change existence to false\n        delete tks[_tkname]; // delete token from the mapping\n\n        /// @notice: 1. find the index of an element\n        /// @notice: 2. to remove an element - shift the elements after the index and remove the last\n        while (keccak256(abi.encodePacked(alltks[i])) != keccak256(abi.encodePacked(_tkname))) {\n            i++;\n        }\n        \n        for (j=i; j<alltks.length-1; j++) {\n            alltks[j] = alltks[j+1];\n        }\n        \n        alltks.pop(); // remove the token from the alltks list\n    }\n\n    /// @notice tx.origin is the user account that starts the call, msg.sender is the contract that calls this contract\n    function transferByName(string memory _tkname, address _to) public {\n        require(tkExists[_tkname], \"Token does not exist.\");\n        require(ownerOf(tks[_tkname].id) == tx.origin, \"Only token owner can transfer the token.\");\n\n        _transfer(tx.origin,_to,tks[_tkname].id);\n    }\n\n    function approveByName(string memory _tkname, address _to) public {\n        require(tkExists[_tkname], \"Token does not exist.\");\n        require(ownerOf(tks[_tkname].id) == tx.origin, \"Only token owner can transfer the token.\");\n\n        _approve(_to, tks[_tkname].id);\n    }\n\n    /**\n     * @notice for js client to interact\n     */\n    function queryToken(string memory _tkname)\n        public\n        view\n        returns (uint256, string memory, string memory, string memory, address)\n    {\n        require(tkExists[_tkname], \"Token does not exist.\");\n        \n        string memory rstatus;\n        string memory vstatus;\n\n        if (tks[_tkname].rstatus == Recognitionstatus.PENDING) {\n            rstatus = \"pending packaging verification\";\n        } else if (tks[_tkname].rstatus == Recognitionstatus.VERIFIED) {\n            rstatus = \"packaging verified\";\n        } else {\n            rstatus = \"packaging denied\";\n        }\n\n        if (tks[_tkname].vstatus == Verificationstatus.PENDING) {\n            vstatus = \"pending product verification\";\n        } else if (tks[_tkname].vstatus == Verificationstatus.VERIFIED) {\n            vstatus = \"product verified\";\n        } else {\n            vstatus = \"product denied\";\n        }\n\n        return (tks[_tkname].id, tks[_tkname].metadata, rstatus, vstatus, ownerOf(tks[_tkname].id));\n    }\n\n    /**\n     * query the metadata of a token\n     */\n    function countToken() public view returns (uint256) {\n        require(msg.sender == admin); // require caller to be the contract owner\n        return alltks.length;\n    }\n\n    function queryAll() public view returns (string[] memory) {\n        require(msg.sender == admin, \"Only contract owner can query all tokens.\"); // require caller to be the contract owner\n        return alltks;\n    }\n\n    function queryAllFields() \n        public \n        view \n        returns \n    (\n        string[] memory, \n        uint256[] memory, \n        string[] memory, \n        string[] memory, \n        string[] memory,\n        address[] memory\n    ) \n    {\n        uint256[] memory internal_id = new uint256[](alltks.length);\n        string[] memory metadata = new string[](alltks.length);\n        string[] memory rstatus = new string[](alltks.length);\n        string[] memory vstatus = new string[](alltks.length);\n        address[] memory owner = new address[](alltks.length);\n\n        for(uint i=0; i<alltks.length; i++){\n            internal_id[i] = tks[alltks[i]].id;\n            metadata[i] = tks[alltks[i]].metadata;\n\n            if (tks[alltks[i]].rstatus == Recognitionstatus.PENDING) {\n                rstatus[i] = \"pending packaging verification\";\n            } else if (tks[alltks[i]].rstatus == Recognitionstatus.VERIFIED) {\n                rstatus[i] = \"packaging verified\";\n            } else {\n                rstatus[i] = \"packaging denied\";\n            }\n\n            if (tks[alltks[i]].vstatus == Verificationstatus.PENDING) {\n                vstatus[i] = \"pending product verification\";\n            } else if (tks[alltks[i]].vstatus == Verificationstatus.VERIFIED) {\n                vstatus[i] = \"product verified\";\n            } else {\n                vstatus[i] = \"product denied\";\n            }\n\n            owner[i] = ownerOf(tks[alltks[i]].id);\n        }\n\n        return (alltks, internal_id, metadata, rstatus, vstatus, owner);\n    }\n}\n",
  "sourcePath": "/home/yih/Documents/dev/beston-dapps/contracts/DigitalTwin.sol",
  "compiler": {
    "name": "solc",
    "version": "0.8.7+commit.e28d00a7.Emscripten.clang"
  },
  "schemaVersion": "3.4.1",
  "updatedAt": "2023-03-13T05:27:57.102Z",
  "networkType": "ethereum",
  "devdoc": {
    "kind": "dev",
    "methods": {
      "approve(address,uint256)": {
        "details": "See {IERC721-approve}."
      },
      "balanceOf(address)": {
        "details": "See {IERC721-balanceOf}."
      },
      "getApproved(uint256)": {
        "details": "See {IERC721-getApproved}."
      },
      "isApprovedForAll(address,address)": {
        "details": "See {IERC721-isApprovedForAll}."
      },
      "name()": {
        "details": "See {IERC721Metadata-name}."
      },
      "ownerOf(uint256)": {
        "details": "See {IERC721-ownerOf}."
      },
      "safeTransferFrom(address,address,uint256)": {
        "details": "See {IERC721-safeTransferFrom}."
      },
      "safeTransferFrom(address,address,uint256,bytes)": {
        "details": "See {IERC721-safeTransferFrom}."
      },
      "setApprovalForAll(address,bool)": {
        "details": "See {IERC721-setApprovalForAll}."
      },
      "supportsInterface(bytes4)": {
        "details": "See {IERC165-supportsInterface}."
      },
      "symbol()": {
        "details": "See {IERC721Metadata-symbol}."
      },
      "tokenURI(uint256)": {
        "details": "See {IERC721Metadata-tokenURI}."
      },
      "transferFrom(address,address,uint256)": {
        "details": "See {IERC721-transferFrom}."
      }
    },
    "version": 1
  },
  "userdoc": {
    "kind": "user",
    "methods": {
      "countToken()": {
        "notice": "query the metadata of a token"
      },
      "queryToken(string)": {
        "notice": "for js client to interact"
      },
      "recognize(string,bool)": {
        "notice": "recognize is called by processor upon optical verification of the product"
      },
      "transferByName(string,address)": {
        "notice": "tx.origin is the user account that starts the call, msg.sender is the contract that calls this contract"
      },
      "update(string,string)": {
        "notice": "update only updates the metadata of an existing token"
      },
      "verify(string,bool)": {
        "notice": "verify is called by processor upon optical verification of the product"
      }
    },
    "version": 1
  }
}