{
  "contractName": "DigitalTwin",
  "abi": [
    {
      "inputs": [
        {
          "internalType": "string",
          "name": "_name",
          "type": "string"
        },
        {
          "internalType": "string",
          "name": "_symbol",
          "type": "string"
        }
      ],
      "stateMutability": "nonpayable",
      "type": "constructor"
    },
    {
      "anonymous": false,
      "inputs": [
        {
          "indexed": true,
          "internalType": "address",
          "name": "owner",
          "type": "address"
        },
        {
          "indexed": true,
          "internalType": "address",
          "name": "approved",
          "type": "address"
        },
        {
          "indexed": true,
          "internalType": "uint256",
          "name": "tokenId",
          "type": "uint256"
        }
      ],
      "name": "Approval",
      "type": "event"
    },
    {
      "anonymous": false,
      "inputs": [
        {
          "indexed": true,
          "internalType": "address",
          "name": "owner",
          "type": "address"
        },
        {
          "indexed": true,
          "internalType": "address",
          "name": "operator",
          "type": "address"
        },
        {
          "indexed": false,
          "internalType": "bool",
          "name": "approved",
          "type": "bool"
        }
      ],
      "name": "ApprovalForAll",
      "type": "event"
    },
    {
      "anonymous": false,
      "inputs": [
        {
          "indexed": false,
          "internalType": "string",
          "name": "tkname",
          "type": "string"
        }
      ],
      "name": "TokenUpdated",
      "type": "event"
    },
    {
      "anonymous": false,
      "inputs": [
        {
          "indexed": false,
          "internalType": "string",
          "name": "tkname",
          "type": "string"
        }
      ],
      "name": "TokenVerified",
      "type": "event"
    },
    {
      "anonymous": false,
      "inputs": [
        {
          "indexed": true,
          "internalType": "address",
          "name": "from",
          "type": "address"
        },
        {
          "indexed": true,
          "internalType": "address",
          "name": "to",
          "type": "address"
        },
        {
          "indexed": true,
          "internalType": "uint256",
          "name": "tokenId",
          "type": "uint256"
        }
      ],
      "name": "Transfer",
      "type": "event"
    },
    {
      "inputs": [],
      "name": "admin",
      "outputs": [
        {
          "internalType": "address",
          "name": "",
          "type": "address"
        }
      ],
      "stateMutability": "view",
      "type": "function",
      "constant": true
    },
    {
      "inputs": [
        {
          "internalType": "uint256",
          "name": "",
          "type": "uint256"
        }
      ],
      "name": "alltks",
      "outputs": [
        {
          "internalType": "string",
          "name": "",
          "type": "string"
        }
      ],
      "stateMutability": "view",
      "type": "function",
      "constant": true
    },
    {
      "inputs": [
        {
          "internalType": "address",
          "name": "to",
          "type": "address"
        },
        {
          "internalType": "uint256",
          "name": "tokenId",
          "type": "uint256"
        }
      ],
      "name": "approve",
      "outputs": [],
      "stateMutability": "nonpayable",
      "type": "function"
    },
    {
      "inputs": [
        {
          "internalType": "address",
          "name": "owner",
          "type": "address"
        }
      ],
      "name": "balanceOf",
      "outputs": [
        {
          "internalType": "uint256",
          "name": "",
          "type": "uint256"
        }
      ],
      "stateMutability": "view",
      "type": "function",
      "constant": true
    },
    {
      "inputs": [
        {
          "internalType": "uint256",
          "name": "tokenId",
          "type": "uint256"
        }
      ],
      "name": "getApproved",
      "outputs": [
        {
          "internalType": "address",
          "name": "",
          "type": "address"
        }
      ],
      "stateMutability": "view",
      "type": "function",
      "constant": true
    },
    {
      "inputs": [
        {
          "internalType": "address",
          "name": "owner",
          "type": "address"
        },
        {
          "internalType": "address",
          "name": "operator",
          "type": "address"
        }
      ],
      "name": "isApprovedForAll",
      "outputs": [
        {
          "internalType": "bool",
          "name": "",
          "type": "bool"
        }
      ],
      "stateMutability": "view",
      "type": "function",
      "constant": true
    },
    {
      "inputs": [],
      "name": "name",
      "outputs": [
        {
          "internalType": "string",
          "name": "",
          "type": "string"
        }
      ],
      "stateMutability": "view",
      "type": "function",
      "constant": true
    },
    {
      "inputs": [
        {
          "internalType": "uint256",
          "name": "tokenId",
          "type": "uint256"
        }
      ],
      "name": "ownerOf",
      "outputs": [
        {
          "internalType": "address",
          "name": "",
          "type": "address"
        }
      ],
      "stateMutability": "view",
      "type": "function",
      "constant": true
    },
    {
      "inputs": [
        {
          "internalType": "address",
          "name": "from",
          "type": "address"
        },
        {
          "internalType": "address",
          "name": "to",
          "type": "address"
        },
        {
          "internalType": "uint256",
          "name": "tokenId",
          "type": "uint256"
        }
      ],
      "name": "safeTransferFrom",
      "outputs": [],
      "stateMutability": "nonpayable",
      "type": "function"
    },
    {
      "inputs": [
        {
          "internalType": "address",
          "name": "from",
          "type": "address"
        },
        {
          "internalType": "address",
          "name": "to",
          "type": "address"
        },
        {
          "internalType": "uint256",
          "name": "tokenId",
          "type": "uint256"
        },
        {
          "internalType": "bytes",
          "name": "data",
          "type": "bytes"
        }
      ],
      "name": "safeTransferFrom",
      "outputs": [],
      "stateMutability": "nonpayable",
      "type": "function"
    },
    {
      "inputs": [
        {
          "internalType": "address",
          "name": "operator",
          "type": "address"
        },
        {
          "internalType": "bool",
          "name": "approved",
          "type": "bool"
        }
      ],
      "name": "setApprovalForAll",
      "outputs": [],
      "stateMutability": "nonpayable",
      "type": "function"
    },
    {
      "inputs": [
        {
          "internalType": "bytes4",
          "name": "interfaceId",
          "type": "bytes4"
        }
      ],
      "name": "supportsInterface",
      "outputs": [
        {
          "internalType": "bool",
          "name": "",
          "type": "bool"
        }
      ],
      "stateMutability": "view",
      "type": "function",
      "constant": true
    },
    {
      "inputs": [],
      "name": "symbol",
      "outputs": [
        {
          "internalType": "string",
          "name": "",
          "type": "string"
        }
      ],
      "stateMutability": "view",
      "type": "function",
      "constant": true
    },
    {
      "inputs": [
        {
          "internalType": "string",
          "name": "",
          "type": "string"
        }
      ],
      "name": "tkExists",
      "outputs": [
        {
          "internalType": "bool",
          "name": "",
          "type": "bool"
        }
      ],
      "stateMutability": "view",
      "type": "function",
      "constant": true
    },
    {
      "inputs": [
        {
          "internalType": "string",
          "name": "",
          "type": "string"
        }
      ],
      "name": "tks",
      "outputs": [
        {
          "internalType": "uint256",
          "name": "id",
          "type": "uint256"
        },
        {
          "internalType": "string",
          "name": "metadata",
          "type": "string"
        },
        {
          "internalType": "enum DigitalTwin.Recognitionstatus",
          "name": "rstatus",
          "type": "uint8"
        },
        {
          "internalType": "enum DigitalTwin.Verificationstatus",
          "name": "vstatus",
          "type": "uint8"
        }
      ],
      "stateMutability": "view",
      "type": "function",
      "constant": true
    },
    {
      "inputs": [
        {
          "internalType": "uint256",
          "name": "tokenId",
          "type": "uint256"
        }
      ],
      "name": "tokenURI",
      "outputs": [
        {
          "internalType": "string",
          "name": "",
          "type": "string"
        }
      ],
      "stateMutability": "view",
      "type": "function",
      "constant": true
    },
    {
      "inputs": [
        {
          "internalType": "address",
          "name": "from",
          "type": "address"
        },
        {
          "internalType": "address",
          "name": "to",
          "type": "address"
        },
        {
          "internalType": "uint256",
          "name": "tokenId",
          "type": "uint256"
        }
      ],
      "name": "transferFrom",
      "outputs": [],
      "stateMutability": "nonpayable",
      "type": "function"
    },
    {
      "inputs": [
        {
          "internalType": "string",
          "name": "_tkname",
          "type": "string"
        },
        {
          "internalType": "string",
          "name": "_metadata",
          "type": "string"
        }
      ],
      "name": "mint",
      "outputs": [],
      "stateMutability": "nonpayable",
      "type": "function"
    },
    {
      "inputs": [
        {
          "internalType": "string",
          "name": "_tkname",
          "type": "string"
        },
        {
          "internalType": "string",
          "name": "_metadata",
          "type": "string"
        }
      ],
      "name": "update",
      "outputs": [],
      "stateMutability": "nonpayable",
      "type": "function"
    },
    {
      "inputs": [
        {
          "internalType": "string",
          "name": "_tkname",
          "type": "string"
        },
        {
          "internalType": "bool",
          "name": "_status",
          "type": "bool"
        }
      ],
      "name": "recognize",
      "outputs": [],
      "stateMutability": "nonpayable",
      "type": "function"
    },
    {
      "inputs": [
        {
          "internalType": "string",
          "name": "_tkname",
          "type": "string"
        },
        {
          "internalType": "bool",
          "name": "_status",
          "type": "bool"
        }
      ],
      "name": "verify",
      "outputs": [],
      "stateMutability": "nonpayable",
      "type": "function"
    },
    {
      "inputs": [
        {
          "internalType": "string",
          "name": "_tkname",
          "type": "string"
        }
      ],
      "name": "burn",
      "outputs": [],
      "stateMutability": "nonpayable",
      "type": "function"
    },
    {
      "inputs": [
        {
          "internalType": "string",
          "name": "_tkname",
          "type": "string"
        },
        {
          "internalType": "address",
          "name": "_to",
          "type": "address"
        }
      ],
      "name": "transferByName",
      "outputs": [],
      "stateMutability": "nonpayable",
      "type": "function"
    },
    {
      "inputs": [
        {
          "internalType": "string",
          "name": "_tkname",
          "type": "string"
        }
      ],
      "name": "queryToken",
      "outputs": [
        {
          "internalType": "uint256",
          "name": "",
          "type": "uint256"
        },
        {
          "internalType": "string",
          "name": "",
          "type": "string"
        },
        {
          "internalType": "string",
          "name": "",
          "type": "string"
        },
        {
          "internalType": "string",
          "name": "",
          "type": "string"
        },
        {
          "internalType": "address",
          "name": "",
          "type": "address"
        }
      ],
      "stateMutability": "view",
      "type": "function",
      "constant": true
    },
    {
      "inputs": [],
      "name": "countToken",
      "outputs": [
        {
          "internalType": "uint256",
          "name": "",
          "type": "uint256"
        }
      ],
      "stateMutability": "view",
      "type": "function",
      "constant": true
    },
    {
      "inputs": [],
      "name": "queryAll",
      "outputs": [
        {
          "internalType": "string[]",
          "name": "",
          "type": "string[]"
        }
      ],
      "stateMutability": "view",
      "type": "function",
      "constant": true
    },
    {
      "inputs": [],
      "name": "queryAllFields",
      "outputs": [
        {
          "internalType": "string[]",
          "name": "",
          "type": "string[]"
        },
        {
          "internalType": "uint256[]",
          "name": "",
          "type": "uint256[]"
        },
        {
          "internalType": "string[]",
          "name": "",
          "type": "string[]"
        },
        {
          "internalType": "string[]",
          "name": "",
          "type": "string[]"
        },
        {
          "internalType": "string[]",
          "name": "",
          "type": "string[]"
        },
        {
          "internalType": "address[]",
          "name": "",
          "type": "address[]"
        }
      ],
      "stateMutability": "view",
      "type": "function",
      "constant": true
    }
  ],
  "bytecode": "0x60806040523480156200001157600080fd5b5060405162005533380380620055338339818101604052810190620000379190620001e4565b8181816000908051906020019062000051929190620000b6565b5080600190805190602001906200006a929190620000b6565b50505033600760006101000a81548173ffffffffffffffffffffffffffffffffffffffff021916908373ffffffffffffffffffffffffffffffffffffffff1602179055505050620003ed565b828054620000c490620002fe565b90600052602060002090601f016020900481019282620000e8576000855562000134565b82601f106200010357805160ff191683800117855562000134565b8280016001018555821562000134579182015b828111156200013357825182559160200191906001019062000116565b5b50905062000143919062000147565b5090565b5b808211156200016257600081600090555060010162000148565b5090565b60006200017d620001778462000292565b62000269565b9050828152602081018484840111156200019c576200019b620003cd565b5b620001a9848285620002c8565b509392505050565b600082601f830112620001c957620001c8620003c8565b5b8151620001db84826020860162000166565b91505092915050565b60008060408385031215620001fe57620001fd620003d7565b5b600083015167ffffffffffffffff8111156200021f576200021e620003d2565b5b6200022d85828601620001b1565b925050602083015167ffffffffffffffff811115620002515762000250620003d2565b5b6200025f85828601620001b1565b9150509250929050565b60006200027562000288565b905062000283828262000334565b919050565b6000604051905090565b600067ffffffffffffffff821115620002b057620002af62000399565b5b620002bb82620003dc565b9050602081019050919050565b60005b83811015620002e8578082015181840152602081019050620002cb565b83811115620002f8576000848401525b50505050565b600060028204905060018216806200031757607f821691505b602082108114156200032e576200032d6200036a565b5b50919050565b6200033f82620003dc565b810181811067ffffffffffffffff8211171562000361576200036062000399565b5b80604052505050565b7f4e487b7100000000000000000000000000000000000000000000000000000000600052602260045260246000fd5b7f4e487b7100000000000000000000000000000000000000000000000000000000600052604160045260246000fd5b600080fd5b600080fd5b600080fd5b600080fd5b6000601f19601f8301169050919050565b61513680620003fd6000396000f3fe608060405234801561001057600080fd5b50600436106101a95760003560e01c806395d89b41116100f9578063dafa1d2d11610097578063e985e9c511610071578063e985e9c5146104e5578063ef3ecfb214610515578063f4c84d1914610548578063f851a44014610564576101a9565b8063dafa1d2d1461048d578063e5924708146104a9578063e7a81c55146104c7576101a9565b8063c00ee908116100d3578063c00ee908146103f1578063c5573d461461040d578063c87b56dd14610441578063d26ac38814610471576101a9565b806395d89b411461039b578063a22cb465146103b9578063b88d4fde146103d5576101a9565b806323b872dd116101665780636352211e116101405780636352211e146102fc57806370a082311461032c578063747c6e8b1461035c5780638aa0fdad1461037f576101a9565b806323b872dd146102945780633f5e3719146102b057806342842e0e146102e0576101a9565b806301ffc9a7146101ae57806306fdde03146101de578063081812fc146101fc578063095ea7b31461022c5780630ad5b505146102485780630d202ced14610278575b600080fd5b6101c860048036038101906101c391906139aa565b610582565b6040516101d591906142bf565b60405180910390f35b6101e6610664565b6040516101f391906142da565b60405180910390f35b61021660048036038101906102119190613b7d565b6106f6565b60405161022391906141ab565b60405180910390f35b6102466004803603810190610241919061396a565b61073c565b005b610262600480360381019061025d9190613a04565b610854565b60405161026f91906142bf565b60405180910390f35b610292600480360381019061028d9190613a4d565b61088a565b005b6102ae60048036038101906102a99190613854565b6109bc565b005b6102ca60048036038101906102c59190613b7d565b610a1c565b6040516102d791906142da565b60405180910390f35b6102fa60048036038101906102f59190613854565b610ac8565b005b61031660048036038101906103119190613b7d565b610ae8565b60405161032391906141ab565b60405180910390f35b610346600480360381019061034191906137e7565b610b9a565b604051610353919061453c565b60405180910390f35b610364610c52565b60405161037696959493929190614234565b60405180910390f35b61039960048036038101906103949190613b05565b6114e2565b005b6103a36116ca565b6040516103b091906142da565b60405180910390f35b6103d360048036038101906103ce919061392a565b61175c565b005b6103ef60048036038101906103ea91906138a7565b611772565b005b61040b60048036038101906104069190613aa9565b6117d4565b005b61042760048036038101906104229190613a04565b6119b8565b6040516104389594939291906145a3565b60405180910390f35b61045b60048036038101906104569190613b7d565b611e13565b60405161046891906142da565b60405180910390f35b61048b60048036038101906104869190613aa9565b611e7b565b005b6104a760048036038101906104a29190613a04565b61205f565b005b6104b161236f565b6040516104be9190614212565b60405180910390f35b6104cf6124d8565b6040516104dc919061453c565b60405180910390f35b6104ff60048036038101906104fa9190613814565b61253f565b60405161050c91906142bf565b60405180910390f35b61052f600480360381019061052a9190613a04565b6125d3565b60405161053f9493929190614557565b60405180910390f35b610562600480360381019061055d9190613b05565b6126bb565b005b61056c61282e565b60405161057991906141ab565b60405180910390f35b60007f80ac58cd000000000000000000000000000000000000000000000000000000007bffffffffffffffffffffffffffffffffffffffffffffffffffffffff1916827bffffffffffffffffffffffffffffffffffffffffffffffffffffffff1916148061064d57507f5b5e139f000000000000000000000000000000000000000000000000000000007bffffffffffffffffffffffffffffffffffffffffffffffffffffffff1916827bffffffffffffffffffffffffffffffffffffffffffffffffffffffff1916145b8061065d575061065c82612854565b5b9050919050565b60606000805461067390614961565b80601f016020809104026020016040519081016040528092919081815260200182805461069f90614961565b80156106ec5780601f106106c1576101008083540402835291602001916106ec565b820191906000526020600020905b8154815290600101906020018083116106cf57829003601f168201915b5050505050905090565b6000610701826128be565b6004600083815260200190815260200160002060009054906101000a900473ffffffffffffffffffffffffffffffffffffffff169050919050565b600061074782610ae8565b90508073ffffffffffffffffffffffffffffffffffffffff168373ffffffffffffffffffffffffffffffffffffffff1614156107b8576040517f08c379a00000000000000000000000000000000000000000000000000000000081526004016107af906144dc565b60405180910390fd5b8073ffffffffffffffffffffffffffffffffffffffff166107d7612909565b73ffffffffffffffffffffffffffffffffffffffff161480610806575061080581610800612909565b61253f565b5b610845576040517f08c379a000000000000000000000000000000000000000000000000000000000815260040161083c9061445c565b60405180910390fd5b61084f8383612911565b505050565b6009818051602081018201805184825260208301602085012081835280955050505050506000915054906101000a900460ff1681565b60098260405161089a9190614159565b908152602001604051809103902060009054906101000a900460ff166108f5576040517f08c379a00000000000000000000000000000000000000000000000000000000081526004016108ec9061449c565b60405180910390fd5b3273ffffffffffffffffffffffffffffffffffffffff1661093660088460405161091f9190614159565b908152602001604051809103902060000154610ae8565b73ffffffffffffffffffffffffffffffffffffffff161461098c576040517f08c379a00000000000000000000000000000000000000000000000000000000081526004016109839061439c565b60405180910390fd5b6109b832826008856040516109a19190614159565b9081526020016040518091039020600001546129ca565b5050565b6109cd6109c7612909565b82612c31565b610a0c576040517f08c379a0000000000000000000000000000000000000000000000000000000008152600401610a039061451c565b60405180910390fd5b610a178383836129ca565b505050565b60068181548110610a2c57600080fd5b906000526020600020016000915090508054610a4790614961565b80601f0160208091040260200160405190810160405280929190818152602001828054610a7390614961565b8015610ac05780601f10610a9557610100808354040283529160200191610ac0565b820191906000526020600020905b815481529060010190602001808311610aa357829003601f168201915b505050505081565b610ae383838360405180602001604052806000815250611772565b505050565b6000806002600084815260200190815260200160002060009054906101000a900473ffffffffffffffffffffffffffffffffffffffff169050600073ffffffffffffffffffffffffffffffffffffffff168173ffffffffffffffffffffffffffffffffffffffff161415610b91576040517f08c379a0000000000000000000000000000000000000000000000000000000008152600401610b88906144bc565b60405180910390fd5b80915050919050565b60008073ffffffffffffffffffffffffffffffffffffffff168273ffffffffffffffffffffffffffffffffffffffff161415610c0b576040517f08c379a0000000000000000000000000000000000000000000000000000000008152600401610c02906143fc565b60405180910390fd5b600360008373ffffffffffffffffffffffffffffffffffffffff1673ffffffffffffffffffffffffffffffffffffffff168152602001908152602001600020549050919050565b606080606080606080600060068054905067ffffffffffffffff811115610c7c57610c7b614b58565b5b604051908082528060200260200182016040528015610caa5781602001602082028036833780820191505090505b509050600060068054905067ffffffffffffffff811115610cce57610ccd614b58565b5b604051908082528060200260200182016040528015610d0157816020015b6060815260200190600190039081610cec5790505b509050600060068054905067ffffffffffffffff811115610d2557610d24614b58565b5b604051908082528060200260200182016040528015610d5857816020015b6060815260200190600190039081610d435790505b509050600060068054905067ffffffffffffffff811115610d7c57610d7b614b58565b5b604051908082528060200260200182016040528015610daf57816020015b6060815260200190600190039081610d9a5790505b509050600060068054905067ffffffffffffffff811115610dd357610dd2614b58565b5b604051908082528060200260200182016040528015610e015781602001602082028036833780820191505090505b50905060005b6006805490508110156113ee57600860068281548110610e2a57610e29614b29565b5b90600052602060002001604051610e419190614194565b908152602001604051809103902060000154868281518110610e6657610e65614b29565b5b602002602001018181525050600860068281548110610e8857610e87614b29565b5b90600052602060002001604051610e9f9190614194565b90815260200160405180910390206001018054610ebb90614961565b80601f0160208091040260200160405190810160405280929190818152602001828054610ee790614961565b8015610f345780601f10610f0957610100808354040283529160200191610f34565b820191906000526020600020905b815481529060010190602001808311610f1757829003601f168201915b5050505050858281518110610f4c57610f4b614b29565b5b602002602001018190525060006002811115610f6b57610f6a614a9c565b5b600860068381548110610f8157610f80614b29565b5b90600052602060002001604051610f989190614194565b908152602001604051809103902060020160009054906101000a900460ff166002811115610fc957610fc8614a9c565b5b1415611028576040518060400160405280601e81526020017f70656e64696e67207061636b6167696e6720766572696669636174696f6e000081525084828151811061101857611017614b29565b5b602002602001018190525061114f565b6001600281111561103c5761103b614a9c565b5b60086006838154811061105257611051614b29565b5b906000526020600020016040516110699190614194565b908152602001604051809103902060020160009054906101000a900460ff16600281111561109a57611099614a9c565b5b14156110f9576040518060400160405280601281526020017f7061636b6167696e6720766572696669656400000000000000000000000000008152508482815181106110e9576110e8614b29565b5b602002602001018190525061114e565b6040518060400160405280601081526020017f7061636b6167696e672064656e6965640000000000000000000000000000000081525084828151811061114257611141614b29565b5b60200260200101819052505b5b6000600281111561116357611162614a9c565b5b60086006838154811061117957611178614b29565b5b906000526020600020016040516111909190614194565b908152602001604051809103902060020160019054906101000a900460ff1660028111156111c1576111c0614a9c565b5b1415611220576040518060400160405280601c81526020017f70656e64696e672070726f6475637420766572696669636174696f6e000000008152508382815181106112105761120f614b29565b5b6020026020010181905250611347565b6001600281111561123457611233614a9c565b5b60086006838154811061124a57611249614b29565b5b906000526020600020016040516112619190614194565b908152602001604051809103902060020160019054906101000a900460ff16600281111561129257611291614a9c565b5b14156112f1576040518060400160405280601081526020017f70726f64756374207665726966696564000000000000000000000000000000008152508382815181106112e1576112e0614b29565b5b6020026020010181905250611346565b6040518060400160405280600e81526020017f70726f647563742064656e69656400000000000000000000000000000000000081525083828151811061133a57611339614b29565b5b60200260200101819052505b5b61138e6008600683815481106113605761135f614b29565b5b906000526020600020016040516113779190614194565b908152602001604051809103902060000154610ae8565b8282815181106113a1576113a0614b29565b5b602002602001019073ffffffffffffffffffffffffffffffffffffffff16908173ffffffffffffffffffffffffffffffffffffffff168152505080806113e6906149c4565b915050610e07565b506006858585858585805480602002602001604051908101604052809291908181526020016000905b828210156114c357838290600052602060002001805461143690614961565b80601f016020809104026020016040519081016040528092919081815260200182805461146290614961565b80156114af5780601f10611484576101008083540402835291602001916114af565b820191906000526020600020905b81548152906001019060200180831161149257829003601f168201915b505050505081526020019060010190611417565b5050505095509a509a509a509a509a509a505050505050909192939495565b6009826040516114f29190614159565b908152602001604051809103902060009054906101000a900460ff161561154e576040517f08c379a00000000000000000000000000000000000000000000000000000000081526004016115459061441c565b60405180910390fd5b60068290806001815401808255809150506001900390600052602060002001600090919091909150908051906020019061158992919061352e565b506000600680549050905061159e3382612cc6565b806008846040516115af9190614159565b908152602001604051809103902060000181905550816008846040516115d59190614159565b908152602001604051809103902060010190805190602001906115f992919061352e565b50600060088460405161160c9190614159565b908152602001604051809103902060020160006101000a81548160ff0219169083600281111561163f5761163e614a9c565b5b021790555060006008846040516116569190614159565b908152602001604051809103902060020160016101000a81548160ff0219169083600281111561168957611688614a9c565b5b021790555060016009846040516116a09190614159565b908152602001604051809103902060006101000a81548160ff021916908315150217905550505050565b6060600180546116d990614961565b80601f016020809104026020016040519081016040528092919081815260200182805461170590614961565b80156117525780601f1061172757610100808354040283529160200191611752565b820191906000526020600020905b81548152906001019060200180831161173557829003601f168201915b5050505050905090565b61176e611767612909565b8383612ea0565b5050565b61178361177d612909565b83612c31565b6117c2576040517f08c379a00000000000000000000000000000000000000000000000000000000081526004016117b99061451c565b60405180910390fd5b6117ce8484848461300d565b50505050565b6009826040516117e49190614159565b908152602001604051809103902060009054906101000a900460ff1661183f576040517f08c379a00000000000000000000000000000000000000000000000000000000081526004016118369061449c565b60405180910390fd5b3373ffffffffffffffffffffffffffffffffffffffff166118806008846040516118699190614159565b908152602001604051809103902060000154610ae8565b73ffffffffffffffffffffffffffffffffffffffff16146118d6576040517f08c379a00000000000000000000000000000000000000000000000000000000081526004016118cd9061443c565b60405180910390fd5b6001151581151514156119325760016008836040516118f59190614159565b908152602001604051809103902060020160006101000a81548160ff0219169083600281111561192857611927614a9c565b5b021790555061197d565b60026008836040516119449190614159565b908152602001604051809103902060020160006101000a81548160ff0219169083600281111561197757611976614a9c565b5b02179055505b7f59d309664d5e5c5c7562159b94306437ae8aed905c4f84933f4ad06eea902ed4826040516119ac91906142da565b60405180910390a15050565b6000606080606060006009866040516119d19190614159565b908152602001604051809103902060009054906101000a900460ff16611a2c576040517f08c379a0000000000000000000000000000000000000000000000000000000008152600401611a239061449c565b60405180910390fd5b60608060006002811115611a4357611a42614a9c565b5b600889604051611a539190614159565b908152602001604051809103902060020160009054906101000a900460ff166002811115611a8457611a83614a9c565b5b1415611ac7576040518060400160405280601e81526020017f70656e64696e67207061636b6167696e6720766572696669636174696f6e00008152509150611b99565b60016002811115611adb57611ada614a9c565b5b600889604051611aeb9190614159565b908152602001604051809103902060020160009054906101000a900460ff166002811115611b1c57611b1b614a9c565b5b1415611b5f576040518060400160405280601281526020017f7061636b6167696e6720766572696669656400000000000000000000000000008152509150611b98565b6040518060400160405280601081526020017f7061636b6167696e672064656e6965640000000000000000000000000000000081525091505b5b60006002811115611bad57611bac614a9c565b5b600889604051611bbd9190614159565b908152602001604051809103902060020160019054906101000a900460ff166002811115611bee57611bed614a9c565b5b1415611c31576040518060400160405280601c81526020017f70656e64696e672070726f6475637420766572696669636174696f6e000000008152509050611d03565b60016002811115611c4557611c44614a9c565b5b600889604051611c559190614159565b908152602001604051809103902060020160019054906101000a900460ff166002811115611c8657611c85614a9c565b5b1415611cc9576040518060400160405280601081526020017f70726f64756374207665726966696564000000000000000000000000000000008152509050611d02565b6040518060400160405280600e81526020017f70726f647563742064656e69656400000000000000000000000000000000000081525090505b5b600888604051611d139190614159565b908152602001604051809103902060000154600889604051611d359190614159565b90815260200160405180910390206001018383611d7260088d604051611d5b9190614159565b908152602001604051809103902060000154610ae8565b838054611d7e90614961565b80601f0160208091040260200160405190810160405280929190818152602001828054611daa90614961565b8015611df75780601f10611dcc57610100808354040283529160200191611df7565b820191906000526020600020905b815481529060010190602001808311611dda57829003601f168201915b5050505050935096509650965096509650505091939590929450565b6060611e1e826128be565b6000611e28613069565b90506000815111611e485760405180602001604052806000815250611e73565b80611e5284613080565b604051602001611e63929190614170565b6040516020818303038152906040525b915050919050565b600982604051611e8b9190614159565b908152602001604051809103902060009054906101000a900460ff16611ee6576040517f08c379a0000000000000000000000000000000000000000000000000000000008152600401611edd9061449c565b60405180910390fd5b3373ffffffffffffffffffffffffffffffffffffffff16611f27600884604051611f109190614159565b908152602001604051809103902060000154610ae8565b73ffffffffffffffffffffffffffffffffffffffff1614611f7d576040517f08c379a0000000000000000000000000000000000000000000000000000000008152600401611f749061443c565b60405180910390fd5b600115158115151415611fd9576001600883604051611f9c9190614159565b908152602001604051809103902060020160016101000a81548160ff02191690836002811115611fcf57611fce614a9c565b5b0217905550612024565b6002600883604051611feb9190614159565b908152602001604051809103902060020160016101000a81548160ff0219169083600281111561201e5761201d614a9c565b5b02179055505b7f59d309664d5e5c5c7562159b94306437ae8aed905c4f84933f4ad06eea902ed48260405161205391906142da565b60405180910390a15050565b6000806009836040516120729190614159565b908152602001604051809103902060009054906101000a900460ff166120cd576040517f08c379a00000000000000000000000000000000000000000000000000000000081526004016120c49061449c565b60405180910390fd5b3373ffffffffffffffffffffffffffffffffffffffff1661210e6008856040516120f79190614159565b908152602001604051809103902060000154610ae8565b73ffffffffffffffffffffffffffffffffffffffff1614612164576040517f08c379a000000000000000000000000000000000000000000000000000000000815260040161215b9061433c565b60405180910390fd5b61218e6008846040516121779190614159565b9081526020016040518091039020600001546131e1565b60006009846040516121a09190614159565b908152602001604051809103902060006101000a81548160ff0219169083151502179055506008836040516121d59190614159565b90815260200160405180910390206000808201600090556001820160006121fc91906135b4565b6002820160006101000a81549060ff02191690556002820160016101000a81549060ff021916905550505b826040516020016122389190614159565b604051602081830303815290604052805190602001206006838154811061226257612261614b29565b5b9060005260206000200160405160200161227c9190614194565b60405160208183030381529060405280519060200120146122aa5781806122a2906149c4565b925050612227565b8190505b60016006805490506122c0919061482d565b81101561233a5760066001826122d691906147a6565b815481106122e7576122e6614b29565b5b906000526020600020016006828154811061230557612304614b29565b5b9060005260206000200190805461231b90614961565b6123269291906135f4565b508080612332906149c4565b9150506122ae565b600680548061234c5761234b614afa565b5b60019003818190600052602060002001600061236891906135b4565b9055505050565b6060600760009054906101000a900473ffffffffffffffffffffffffffffffffffffffff1673ffffffffffffffffffffffffffffffffffffffff163373ffffffffffffffffffffffffffffffffffffffff1614612401576040517f08c379a00000000000000000000000000000000000000000000000000000000081526004016123f8906144fc565b60405180910390fd5b6006805480602002602001604051908101604052809291908181526020016000905b828210156124cf57838290600052602060002001805461244290614961565b80601f016020809104026020016040519081016040528092919081815260200182805461246e90614961565b80156124bb5780601f10612490576101008083540402835291602001916124bb565b820191906000526020600020905b81548152906001019060200180831161249e57829003601f168201915b505050505081526020019060010190612423565b50505050905090565b6000600760009054906101000a900473ffffffffffffffffffffffffffffffffffffffff1673ffffffffffffffffffffffffffffffffffffffff163373ffffffffffffffffffffffffffffffffffffffff161461253457600080fd5b600680549050905090565b6000600560008473ffffffffffffffffffffffffffffffffffffffff1673ffffffffffffffffffffffffffffffffffffffff16815260200190815260200160002060008373ffffffffffffffffffffffffffffffffffffffff1673ffffffffffffffffffffffffffffffffffffffff16815260200190815260200160002060009054906101000a900460ff16905092915050565b60088180516020810182018051848252602083016020850120818352809550505050505060009150905080600001549080600101805461261290614961565b80601f016020809104026020016040519081016040528092919081815260200182805461263e90614961565b801561268b5780601f106126605761010080835404028352916020019161268b565b820191906000526020600020905b81548152906001019060200180831161266e57829003601f168201915b5050505050908060020160009054906101000a900460ff16908060020160019054906101000a900460ff16905084565b6009826040516126cb9190614159565b908152602001604051809103902060009054906101000a900460ff16612726576040517f08c379a000000000000000000000000000000000000000000000000000000000815260040161271d9061449c565b60405180910390fd5b3373ffffffffffffffffffffffffffffffffffffffff166127676008846040516127509190614159565b908152602001604051809103902060000154610ae8565b73ffffffffffffffffffffffffffffffffffffffff16146127bd576040517f08c379a00000000000000000000000000000000000000000000000000000000081526004016127b4906142fc565b60405180910390fd5b806008836040516127ce9190614159565b908152602001604051809103902060010190805190602001906127f292919061352e565b507f6714407191569b7b9edd5db2d624b8e2281272e577950f0e87ca156570ffe9e48260405161282291906142da565b60405180910390a15050565b600760009054906101000a900473ffffffffffffffffffffffffffffffffffffffff1681565b60007f01ffc9a7000000000000000000000000000000000000000000000000000000007bffffffffffffffffffffffffffffffffffffffffffffffffffffffff1916827bffffffffffffffffffffffffffffffffffffffffffffffffffffffff1916149050919050565b6128c7816132fe565b612906576040517f08c379a00000000000000000000000000000000000000000000000000000000081526004016128fd906144bc565b60405180910390fd5b50565b600033905090565b816004600083815260200190815260200160002060006101000a81548173ffffffffffffffffffffffffffffffffffffffff021916908373ffffffffffffffffffffffffffffffffffffffff160217905550808273ffffffffffffffffffffffffffffffffffffffff1661298483610ae8565b73ffffffffffffffffffffffffffffffffffffffff167f8c5be1e5ebec7d5bd14f71427d1e84f3dd0314c0f7b2291e5b200ac8c7c3b92560405160405180910390a45050565b8273ffffffffffffffffffffffffffffffffffffffff166129ea82610ae8565b73ffffffffffffffffffffffffffffffffffffffff1614612a40576040517f08c379a0000000000000000000000000000000000000000000000000000000008152600401612a379061435c565b60405180910390fd5b600073ffffffffffffffffffffffffffffffffffffffff168273ffffffffffffffffffffffffffffffffffffffff161415612ab0576040517f08c379a0000000000000000000000000000000000000000000000000000000008152600401612aa7906143bc565b60405180910390fd5b612abb83838361336a565b612ac6600082612911565b6001600360008573ffffffffffffffffffffffffffffffffffffffff1673ffffffffffffffffffffffffffffffffffffffff1681526020019081526020016000206000828254612b16919061482d565b925050819055506001600360008473ffffffffffffffffffffffffffffffffffffffff1673ffffffffffffffffffffffffffffffffffffffff1681526020019081526020016000206000828254612b6d91906147a6565b92505081905550816002600083815260200190815260200160002060006101000a81548173ffffffffffffffffffffffffffffffffffffffff021916908373ffffffffffffffffffffffffffffffffffffffff160217905550808273ffffffffffffffffffffffffffffffffffffffff168473ffffffffffffffffffffffffffffffffffffffff167fddf252ad1be2c89b69c2b068fc378daa952ba7f163c4a11628f55a4df523b3ef60405160405180910390a4612c2c83838361336f565b505050565b600080612c3d83610ae8565b90508073ffffffffffffffffffffffffffffffffffffffff168473ffffffffffffffffffffffffffffffffffffffff161480612c7f5750612c7e818561253f565b5b80612cbd57508373ffffffffffffffffffffffffffffffffffffffff16612ca5846106f6565b73ffffffffffffffffffffffffffffffffffffffff16145b91505092915050565b600073ffffffffffffffffffffffffffffffffffffffff168273ffffffffffffffffffffffffffffffffffffffff161415612d36576040517f08c379a0000000000000000000000000000000000000000000000000000000008152600401612d2d9061447c565b60405180910390fd5b612d3f816132fe565b15612d7f576040517f08c379a0000000000000000000000000000000000000000000000000000000008152600401612d769061437c565b60405180910390fd5b612d8b6000838361336a565b6001600360008473ffffffffffffffffffffffffffffffffffffffff1673ffffffffffffffffffffffffffffffffffffffff1681526020019081526020016000206000828254612ddb91906147a6565b92505081905550816002600083815260200190815260200160002060006101000a81548173ffffffffffffffffffffffffffffffffffffffff021916908373ffffffffffffffffffffffffffffffffffffffff160217905550808273ffffffffffffffffffffffffffffffffffffffff16600073ffffffffffffffffffffffffffffffffffffffff167fddf252ad1be2c89b69c2b068fc378daa952ba7f163c4a11628f55a4df523b3ef60405160405180910390a4612e9c6000838361336f565b5050565b8173ffffffffffffffffffffffffffffffffffffffff168373ffffffffffffffffffffffffffffffffffffffff161415612f0f576040517f08c379a0000000000000000000000000000000000000000000000000000000008152600401612f06906143dc565b60405180910390fd5b80600560008573ffffffffffffffffffffffffffffffffffffffff1673ffffffffffffffffffffffffffffffffffffffff16815260200190815260200160002060008473ffffffffffffffffffffffffffffffffffffffff1673ffffffffffffffffffffffffffffffffffffffff16815260200190815260200160002060006101000a81548160ff0219169083151502179055508173ffffffffffffffffffffffffffffffffffffffff168373ffffffffffffffffffffffffffffffffffffffff167f17307eab39ab6107e8899845ad3d59bd9653f200f220920489ca2b5937696c318360405161300091906142bf565b60405180910390a3505050565b6130188484846129ca565b61302484848484613374565b613063576040517f08c379a000000000000000000000000000000000000000000000000000000000815260040161305a9061431c565b60405180910390fd5b50505050565b606060405180602001604052806000815250905090565b606060008214156130c8576040518060400160405280600181526020017f300000000000000000000000000000000000000000000000000000000000000081525090506131dc565b600082905060005b600082146130fa5780806130e3906149c4565b915050600a826130f391906147fc565b91506130d0565b60008167ffffffffffffffff81111561311657613115614b58565b5b6040519080825280601f01601f1916602001820160405280156131485781602001600182028036833780820191505090505b5090505b600085146131d557600182613161919061482d565b9150600a856131709190614a0d565b603061317c91906147a6565b60f81b81838151811061319257613191614b29565b5b60200101907effffffffffffffffffffffffffffffffffffffffffffffffffffffffffffff1916908160001a905350600a856131ce91906147fc565b945061314c565b8093505050505b919050565b60006131ec82610ae8565b90506131fa8160008461336a565b613205600083612911565b6001600360008373ffffffffffffffffffffffffffffffffffffffff1673ffffffffffffffffffffffffffffffffffffffff1681526020019081526020016000206000828254613255919061482d565b925050819055506002600083815260200190815260200160002060006101000a81549073ffffffffffffffffffffffffffffffffffffffff021916905581600073ffffffffffffffffffffffffffffffffffffffff168273ffffffffffffffffffffffffffffffffffffffff167fddf252ad1be2c89b69c2b068fc378daa952ba7f163c4a11628f55a4df523b3ef60405160405180910390a46132fa8160008461336f565b5050565b60008073ffffffffffffffffffffffffffffffffffffffff166002600084815260200190815260200160002060009054906101000a900473ffffffffffffffffffffffffffffffffffffffff1673ffffffffffffffffffffffffffffffffffffffff1614159050919050565b505050565b505050565b60006133958473ffffffffffffffffffffffffffffffffffffffff1661350b565b156134fe578373ffffffffffffffffffffffffffffffffffffffff1663150b7a026133be612909565b8786866040518563ffffffff1660e01b81526004016133e094939291906141c6565b602060405180830381600087803b1580156133fa57600080fd5b505af192505050801561342b57506040513d601f19601f8201168201806040525081019061342891906139d7565b60015b6134ae573d806000811461345b576040519150601f19603f3d011682016040523d82523d6000602084013e613460565b606091505b506000815114156134a6576040517f08c379a000000000000000000000000000000000000000000000000000000000815260040161349d9061431c565b60405180910390fd5b805181602001fd5b63150b7a0260e01b7bffffffffffffffffffffffffffffffffffffffffffffffffffffffff1916817bffffffffffffffffffffffffffffffffffffffffffffffffffffffff191614915050613503565b600190505b949350505050565b6000808273ffffffffffffffffffffffffffffffffffffffff163b119050919050565b82805461353a90614961565b90600052602060002090601f01602090048101928261355c57600085556135a3565b82601f1061357557805160ff19168380011785556135a3565b828001600101855582156135a3579182015b828111156135a2578251825591602001919060010190613587565b5b5090506135b09190613681565b5090565b5080546135c090614961565b6000825580601f106135d257506135f1565b601f0160209004906000526020600020908101906135f09190613681565b5b50565b82805461360090614961565b90600052602060002090601f0160209004810192826136225760008555613670565b82601f106136335780548555613670565b8280016001018555821561367057600052602060002091601f016020900482015b8281111561366f578254825591600101919060010190613654565b5b50905061367d9190613681565b5090565b5b8082111561369a576000816000905550600101613682565b5090565b60006136b16136ac84614630565b61460b565b9050828152602081018484840111156136cd576136cc614b8c565b5b6136d884828561491f565b509392505050565b60006136f36136ee84614661565b61460b565b90508281526020810184848401111561370f5761370e614b8c565b5b61371a84828561491f565b509392505050565b600081359050613731816150a4565b92915050565b600081359050613746816150bb565b92915050565b60008135905061375b816150d2565b92915050565b600081519050613770816150d2565b92915050565b600082601f83011261378b5761378a614b87565b5b813561379b84826020860161369e565b91505092915050565b600082601f8301126137b9576137b8614b87565b5b81356137c98482602086016136e0565b91505092915050565b6000813590506137e1816150e9565b92915050565b6000602082840312156137fd576137fc614b96565b5b600061380b84828501613722565b91505092915050565b6000806040838503121561382b5761382a614b96565b5b600061383985828601613722565b925050602061384a85828601613722565b9150509250929050565b60008060006060848603121561386d5761386c614b96565b5b600061387b86828701613722565b935050602061388c86828701613722565b925050604061389d868287016137d2565b9150509250925092565b600080600080608085870312156138c1576138c0614b96565b5b60006138cf87828801613722565b94505060206138e087828801613722565b93505060406138f1878288016137d2565b925050606085013567ffffffffffffffff81111561391257613911614b91565b5b61391e87828801613776565b91505092959194509250565b6000806040838503121561394157613940614b96565b5b600061394f85828601613722565b925050602061396085828601613737565b9150509250929050565b6000806040838503121561398157613980614b96565b5b600061398f85828601613722565b92505060206139a0858286016137d2565b9150509250929050565b6000602082840312156139c0576139bf614b96565b5b60006139ce8482850161374c565b91505092915050565b6000602082840312156139ed576139ec614b96565b5b60006139fb84828501613761565b91505092915050565b600060208284031215613a1a57613a19614b96565b5b600082013567ffffffffffffffff811115613a3857613a37614b91565b5b613a44848285016137a4565b91505092915050565b60008060408385031215613a6457613a63614b96565b5b600083013567ffffffffffffffff811115613a8257613a81614b91565b5b613a8e858286016137a4565b9250506020613a9f85828601613722565b9150509250929050565b60008060408385031215613ac057613abf614b96565b5b600083013567ffffffffffffffff811115613ade57613add614b91565b5b613aea858286016137a4565b9250506020613afb85828601613737565b9150509250929050565b60008060408385031215613b1c57613b1b614b96565b5b600083013567ffffffffffffffff811115613b3a57613b39614b91565b5b613b46858286016137a4565b925050602083013567ffffffffffffffff811115613b6757613b66614b91565b5b613b73858286016137a4565b9150509250929050565b600060208284031215613b9357613b92614b96565b5b6000613ba1848285016137d2565b91505092915050565b6000613bb68383613bee565b60208301905092915050565b6000613bce8383613da3565b905092915050565b6000613be2838361413b565b60208301905092915050565b613bf781614861565b82525050565b613c0681614861565b82525050565b6000613c17826146d7565b613c218185614735565b9350613c2c83614692565b8060005b83811015613c5d578151613c448882613baa565b9750613c4f8361470e565b925050600181019050613c30565b5085935050505092915050565b6000613c75826146e2565b613c7f8185614746565b935083602082028501613c91856146a2565b8060005b85811015613ccd5784840389528151613cae8582613bc2565b9450613cb98361471b565b925060208a01995050600181019050613c95565b50829750879550505050505092915050565b6000613cea826146ed565b613cf48185614757565b9350613cff836146b2565b8060005b83811015613d30578151613d178882613bd6565b9750613d2283614728565b925050600181019050613d03565b5085935050505092915050565b613d4681614873565b82525050565b6000613d57826146f8565b613d618185614768565b9350613d7181856020860161492e565b613d7a81614b9b565b840191505092915050565b613d8e816148fb565b82525050565b613d9d8161490d565b82525050565b6000613dae82614703565b613db88185614779565b9350613dc881856020860161492e565b613dd181614b9b565b840191505092915050565b6000613de782614703565b613df1818561478a565b9350613e0181856020860161492e565b613e0a81614b9b565b840191505092915050565b6000613e2082614703565b613e2a818561479b565b9350613e3a81856020860161492e565b80840191505092915050565b60008154613e5381614961565b613e5d818661479b565b94506001821660008114613e785760018114613e8957613ebc565b60ff19831686528186019350613ebc565b613e92856146c2565b60005b83811015613eb457815481890152600182019150602081019050613e95565b838801955050505b50505092915050565b6000613ed2602a8361478a565b9150613edd82614bac565b604082019050919050565b6000613ef560328361478a565b9150613f0082614bfb565b604082019050919050565b6000613f18602b8361478a565b9150613f2382614c4a565b604082019050919050565b6000613f3b60258361478a565b9150613f4682614c99565b604082019050919050565b6000613f5e601c8361478a565b9150613f6982614ce8565b602082019050919050565b6000613f8160288361478a565b9150613f8c82614d11565b604082019050919050565b6000613fa460248361478a565b9150613faf82614d60565b604082019050919050565b6000613fc760198361478a565b9150613fd282614daf565b602082019050919050565b6000613fea60298361478a565b9150613ff582614dd8565b604082019050919050565b600061400d60158361478a565b915061401882614e27565b602082019050919050565b600061403060418361478a565b915061403b82614e50565b606082019050919050565b6000614053603e8361478a565b915061405e82614ec5565b604082019050919050565b600061407660208361478a565b915061408182614f14565b602082019050919050565b600061409960158361478a565b91506140a482614f3d565b602082019050919050565b60006140bc60188361478a565b91506140c782614f66565b602082019050919050565b60006140df60218361478a565b91506140ea82614f8f565b604082019050919050565b600061410260298361478a565b915061410d82614fde565b604082019050919050565b6000614125602e8361478a565b91506141308261502d565b604082019050919050565b614144816148f1565b82525050565b614153816148f1565b82525050565b60006141658284613e15565b915081905092915050565b600061417c8285613e15565b91506141888284613e15565b91508190509392505050565b60006141a08284613e46565b915081905092915050565b60006020820190506141c06000830184613bfd565b92915050565b60006080820190506141db6000830187613bfd565b6141e86020830186613bfd565b6141f5604083018561414a565b81810360608301526142078184613d4c565b905095945050505050565b6000602082019050818103600083015261422c8184613c6a565b905092915050565b600060c082019050818103600083015261424e8189613c6a565b905081810360208301526142628188613cdf565b905081810360408301526142768187613c6a565b9050818103606083015261428a8186613c6a565b9050818103608083015261429e8185613c6a565b905081810360a08301526142b28184613c0c565b9050979650505050505050565b60006020820190506142d46000830184613d3d565b92915050565b600060208201905081810360008301526142f48184613ddc565b905092915050565b6000602082019050818103600083015261431581613ec5565b9050919050565b6000602082019050818103600083015261433581613ee8565b9050919050565b6000602082019050818103600083015261435581613f0b565b9050919050565b6000602082019050818103600083015261437581613f2e565b9050919050565b6000602082019050818103600083015261439581613f51565b9050919050565b600060208201905081810360008301526143b581613f74565b9050919050565b600060208201905081810360008301526143d581613f97565b9050919050565b600060208201905081810360008301526143f581613fba565b9050919050565b6000602082019050818103600083015261441581613fdd565b9050919050565b6000602082019050818103600083015261443581614000565b9050919050565b6000602082019050818103600083015261445581614023565b9050919050565b6000602082019050818103600083015261447581614046565b9050919050565b6000602082019050818103600083015261449581614069565b9050919050565b600060208201905081810360008301526144b58161408c565b9050919050565b600060208201905081810360008301526144d5816140af565b9050919050565b600060208201905081810360008301526144f5816140d2565b9050919050565b60006020820190508181036000830152614515816140f5565b9050919050565b6000602082019050818103600083015261453581614118565b9050919050565b6000602082019050614551600083018461414a565b92915050565b600060808201905061456c600083018761414a565b818103602083015261457e8186613ddc565b905061458d6040830185613d85565b61459a6060830184613d94565b95945050505050565b600060a0820190506145b8600083018861414a565b81810360208301526145ca8187613ddc565b905081810360408301526145de8186613ddc565b905081810360608301526145f28185613ddc565b90506146016080830184613bfd565b9695505050505050565b6000614615614626565b90506146218282614993565b919050565b6000604051905090565b600067ffffffffffffffff82111561464b5761464a614b58565b5b61465482614b9b565b9050602081019050919050565b600067ffffffffffffffff82111561467c5761467b614b58565b5b61468582614b9b565b9050602081019050919050565b6000819050602082019050919050565b6000819050602082019050919050565b6000819050602082019050919050565b60008190508160005260206000209050919050565b600081519050919050565b600081519050919050565b600081519050919050565b600081519050919050565b600081519050919050565b6000602082019050919050565b6000602082019050919050565b6000602082019050919050565b600082825260208201905092915050565b600082825260208201905092915050565b600082825260208201905092915050565b600082825260208201905092915050565b600082825260208201905092915050565b600082825260208201905092915050565b600081905092915050565b60006147b1826148f1565b91506147bc836148f1565b9250827fffffffffffffffffffffffffffffffffffffffffffffffffffffffffffffffff038211156147f1576147f0614a3e565b5b828201905092915050565b6000614807826148f1565b9150614812836148f1565b92508261482257614821614a6d565b5b828204905092915050565b6000614838826148f1565b9150614843836148f1565b92508282101561485657614855614a3e565b5b828203905092915050565b600061486c826148d1565b9050919050565b60008115159050919050565b60007fffffffff0000000000000000000000000000000000000000000000000000000082169050919050565b60008190506148b98261507c565b919050565b60008190506148cc82615090565b919050565b600073ffffffffffffffffffffffffffffffffffffffff82169050919050565b6000819050919050565b6000614906826148ab565b9050919050565b6000614918826148be565b9050919050565b82818337600083830152505050565b60005b8381101561494c578082015181840152602081019050614931565b8381111561495b576000848401525b50505050565b6000600282049050600182168061497957607f821691505b6020821081141561498d5761498c614acb565b5b50919050565b61499c82614b9b565b810181811067ffffffffffffffff821117156149bb576149ba614b58565b5b80604052505050565b60006149cf826148f1565b91507fffffffffffffffffffffffffffffffffffffffffffffffffffffffffffffffff821415614a0257614a01614a3e565b5b600182019050919050565b6000614a18826148f1565b9150614a23836148f1565b925082614a3357614a32614a6d565b5b828206905092915050565b7f4e487b7100000000000000000000000000000000000000000000000000000000600052601160045260246000fd5b7f4e487b7100000000000000000000000000000000000000000000000000000000600052601260045260246000fd5b7f4e487b7100000000000000000000000000000000000000000000000000000000600052602160045260246000fd5b7f4e487b7100000000000000000000000000000000000000000000000000000000600052602260045260246000fd5b7f4e487b7100000000000000000000000000000000000000000000000000000000600052603160045260246000fd5b7f4e487b7100000000000000000000000000000000000000000000000000000000600052603260045260246000fd5b7f4e487b7100000000000000000000000000000000000000000000000000000000600052604160045260246000fd5b600080fd5b600080fd5b600080fd5b600080fd5b6000601f19601f8301169050919050565b7f4f6e6c792074686520746f6b656e206f776e65722063616e207570646174652060008201527f74686520746f6b656e2e00000000000000000000000000000000000000000000602082015250565b7f4552433732313a207472616e7366657220746f206e6f6e20455243373231526560008201527f63656976657220696d706c656d656e7465720000000000000000000000000000602082015250565b7f4f6e6c792074686520746f6b656e206f776e65722063616e2064657374726f7960008201527f2074686520746f6b656e2e000000000000000000000000000000000000000000602082015250565b7f4552433732313a207472616e736665722066726f6d20696e636f72726563742060008201527f6f776e6572000000000000000000000000000000000000000000000000000000602082015250565b7f4552433732313a20746f6b656e20616c7265616479206d696e74656400000000600082015250565b7f4f6e6c7920746f6b656e206f776e65722063616e207472616e7366657220746860008201527f6520746f6b656e2e000000000000000000000000000000000000000000000000602082015250565b7f4552433732313a207472616e7366657220746f20746865207a65726f2061646460008201527f7265737300000000000000000000000000000000000000000000000000000000602082015250565b7f4552433732313a20617070726f766520746f2063616c6c657200000000000000600082015250565b7f4552433732313a2061646472657373207a65726f206973206e6f74206120766160008201527f6c6964206f776e65720000000000000000000000000000000000000000000000602082015250565b7f546f6b656e20616c7265616479206578697374732e0000000000000000000000600082015250565b7f4f6e6c792074686520746f6b656e206f776e65722063616e207570646174652060008201527f766572696669636174696f6e20737461747573206f662074686520746f6b656e60208201527f2e00000000000000000000000000000000000000000000000000000000000000604082015250565b7f4552433732313a20617070726f76652063616c6c6572206973206e6f7420746f60008201527f6b656e206f776e6572206e6f7220617070726f76656420666f7220616c6c0000602082015250565b7f4552433732313a206d696e7420746f20746865207a65726f2061646472657373600082015250565b7f546f6b656e20646f6573206e6f742065786973742e0000000000000000000000600082015250565b7f4552433732313a20696e76616c696420746f6b656e2049440000000000000000600082015250565b7f4552433732313a20617070726f76616c20746f2063757272656e74206f776e6560008201527f7200000000000000000000000000000000000000000000000000000000000000602082015250565b7f4f6e6c7920636f6e7472616374206f776e65722063616e20717565727920616c60008201527f6c20746f6b656e732e0000000000000000000000000000000000000000000000602082015250565b7f4552433732313a2063616c6c6572206973206e6f7420746f6b656e206f776e6560008201527f72206e6f7220617070726f766564000000000000000000000000000000000000602082015250565b6003811061508d5761508c614a9c565b5b50565b600381106150a1576150a0614a9c565b5b50565b6150ad81614861565b81146150b857600080fd5b50565b6150c481614873565b81146150cf57600080fd5b50565b6150db8161487f565b81146150e657600080fd5b50565b6150f2816148f1565b81146150fd57600080fd5b5056fea26469706673582212208ea72a6e9463b0609a7c15a3b9472fbf8dd38ed9ba93169e780a9ebf17eea63764736f6c63430008070033",
  "immutableReferences": {},
  "source": "// SPDX-License-Identifier: UNLICENSED\npragma solidity ^0.8.0;\n\nimport \"../node_modules/@openzeppelin/contracts/token/ERC721/ERC721.sol\";\n\ncontract DigitalTwin is ERC721 {\n    string[] public alltks; // to record all all tks\n    address public admin;\n\n    /**\n     * Recognition: Packaging\n     * \n     * Verification: Product\n     */\n    enum Recognitionstatus {\n        PENDING,\n        VERIFIED,\n        DENIED\n    }\n\n    enum Verificationstatus {\n        PENDING,\n        VERIFIED,\n        DENIED\n    }\n\n    struct TkDetails {\n        uint256 id;\n        string metadata;\n        Recognitionstatus rstatus;\n        Verificationstatus vstatus;\n    }\n\n    mapping(string => TkDetails) public tks; // mapping of tkname => ProductTk struct\n    mapping(string => bool) public tkExists;\n\n    event TokenUpdated(string tkname);\n    event TokenVerified(string tkname);\n\n    constructor(string memory _name, string memory _symbol)\n        ERC721(_name, _symbol)\n    {\n        admin = msg.sender;\n    }\n\n    function mint(string memory _tkname, string memory _metadata) public {\n\n        require(!tkExists[_tkname], \"Token already exists.\");\n\n        alltks.push(_tkname);\n        uint256 id = alltks.length;\n        _mint(msg.sender, id);\n        \n        tks[_tkname].id = id;\n        tks[_tkname].metadata = _metadata;\n        tks[_tkname].rstatus = Recognitionstatus.PENDING;\n        tks[_tkname].vstatus = Verificationstatus.PENDING;\n\n        tkExists[_tkname] = true;\n    }\n\n    /**\n     * update only updates the metadata of an existing token\n     */\n    function update(string memory _tkname, string memory _metadata) public {\n\n        require(tkExists[_tkname], \"Token does not exist.\");\n        require(\n            ownerOf(tks[_tkname].id) == address(msg.sender),\n            \"Only the token owner can update the token.\"\n        );\n\n        tks[_tkname].metadata = _metadata;\n\n        emit TokenUpdated(_tkname);\n    }\n\n    /**\n     * recognize is called by processor upon optical verification of the product\n     */\n    function recognize(string memory _tkname, bool _status) public {\n\n        require(tkExists[_tkname], \"Token does not exist.\");\n        require(\n            ownerOf(tks[_tkname].id) == address(msg.sender),\n            \"Only the token owner can update verification status of the token.\"\n        );\n\n        if (_status == true) {\n            tks[_tkname].rstatus = Recognitionstatus.VERIFIED;\n        }\n        else {\n            tks[_tkname].rstatus = Recognitionstatus.DENIED;\n        }\n\n        emit TokenVerified(_tkname);\n    }\n\n    /**\n     * verify is called by processor upon optical verification of the product\n     */\n    function verify(string memory _tkname, bool _status) public {\n\n        require(tkExists[_tkname], \"Token does not exist.\");\n        require(\n            ownerOf(tks[_tkname].id) == address(msg.sender),\n            \"Only the token owner can update verification status of the token.\"\n        );\n\n        if (_status == true) {\n            tks[_tkname].vstatus = Verificationstatus.VERIFIED;\n        }\n        else {\n            tks[_tkname].vstatus = Verificationstatus.DENIED;\n        }\n\n        emit TokenVerified(_tkname);\n    }\n\n    function burn(string memory _tkname) public {\n        uint i = 0;\n        uint j;\n\n        require(tkExists[_tkname], \"Token does not exist.\");\n        require(\n            ownerOf(tks[_tkname].id) == address(msg.sender),\n            \"Only the token owner can destroy the token.\"\n        );\n\n        _burn(tks[_tkname].id); // transfer the token to the 0x address\n        tkExists[_tkname] = false; // change existence to false\n        delete tks[_tkname]; // delete token from the mapping\n\n        /// @notice: 1. find the index of an element\n        /// @notice: 2. to remove an element - shift the elements after the index and remove the last\n        while (keccak256(abi.encodePacked(alltks[i])) != keccak256(abi.encodePacked(_tkname))) {\n            i++;\n        }\n        \n        for (j=i; j<alltks.length-1; j++) {\n            alltks[j] = alltks[j+1];\n        }\n        \n        alltks.pop(); // remove the token from the alltks list\n    }\n\n    /// @notice tx.origin is the user account that starts the call, msg.sender is the contract that calls this contract\n    function transferByName(string memory _tkname, address _to) public {\n        require(tkExists[_tkname], \"Token does not exist.\");\n        require(ownerOf(tks[_tkname].id) == tx.origin, \"Only token owner can transfer the token.\");\n\n        _transfer(tx.origin,_to,tks[_tkname].id);\n    }\n\n    /**\n     * @notice for js client to interact\n     */\n    function queryToken(string memory _tkname)\n        public\n        view\n        returns (uint256, string memory, string memory, string memory, address)\n    {\n        require(tkExists[_tkname], \"Token does not exist.\");\n        \n        string memory rstatus;\n        string memory vstatus;\n\n        if (tks[_tkname].rstatus == Recognitionstatus.PENDING) {\n            rstatus = \"pending packaging verification\";\n        } else if (tks[_tkname].rstatus == Recognitionstatus.VERIFIED) {\n            rstatus = \"packaging verified\";\n        } else {\n            rstatus = \"packaging denied\";\n        }\n\n        if (tks[_tkname].vstatus == Verificationstatus.PENDING) {\n            vstatus = \"pending product verification\";\n        } else if (tks[_tkname].vstatus == Verificationstatus.VERIFIED) {\n            vstatus = \"product verified\";\n        } else {\n            vstatus = \"product denied\";\n        }\n\n        return (tks[_tkname].id, tks[_tkname].metadata, rstatus, vstatus, ownerOf(tks[_tkname].id));\n    }\n\n    /**\n     * query the metadata of a token\n     */\n    function countToken() public view returns (uint256) {\n        require(msg.sender == admin); // require caller to be the contract owner\n        return alltks.length;\n    }\n\n    function queryAll() public view returns (string[] memory) {\n        require(msg.sender == admin, \"Only contract owner can query all tokens.\"); // require caller to be the contract owner\n        return alltks;\n    }\n\n    function queryAllFields() \n        public \n        view \n        returns \n    (\n        string[] memory, \n        uint256[] memory, \n        string[] memory, \n        string[] memory, \n        string[] memory,\n        address[] memory\n    ) \n    {\n        uint256[] memory internal_id = new uint256[](alltks.length);\n        string[] memory metadata = new string[](alltks.length);\n        string[] memory rstatus = new string[](alltks.length);\n        string[] memory vstatus = new string[](alltks.length);\n        address[] memory owner = new address[](alltks.length);\n\n        for(uint i=0; i<alltks.length; i++){\n            internal_id[i] = tks[alltks[i]].id;\n            metadata[i] = tks[alltks[i]].metadata;\n\n            if (tks[alltks[i]].rstatus == Recognitionstatus.PENDING) {\n                rstatus[i] = \"pending packaging verification\";\n            } else if (tks[alltks[i]].rstatus == Recognitionstatus.VERIFIED) {\n                rstatus[i] = \"packaging verified\";\n            } else {\n                rstatus[i] = \"packaging denied\";\n            }\n\n            if (tks[alltks[i]].vstatus == Verificationstatus.PENDING) {\n                vstatus[i] = \"pending product verification\";\n            } else if (tks[alltks[i]].vstatus == Verificationstatus.VERIFIED) {\n                vstatus[i] = \"product verified\";\n            } else {\n                vstatus[i] = \"product denied\";\n            }\n\n            owner[i] = ownerOf(tks[alltks[i]].id);\n        }\n\n        return (alltks, internal_id, metadata, rstatus, vstatus, owner);\n    }\n}\n",
  "sourcePath": "/home/yih/Documents/dev/beston-dapps/contracts/DigitalTwin.sol",
  "compiler": {
    "name": "solc",
    "version": "0.8.7+commit.e28d00a7.Emscripten.clang"
  },
  "schemaVersion": "3.4.1",
  "updatedAt": "2022-12-12T03:10:05.687Z",
  "networkType": "ethereum",
  "devdoc": {
    "kind": "dev",
    "methods": {
      "approve(address,uint256)": {
        "details": "See {IERC721-approve}."
      },
      "balanceOf(address)": {
        "details": "See {IERC721-balanceOf}."
      },
      "getApproved(uint256)": {
        "details": "See {IERC721-getApproved}."
      },
      "isApprovedForAll(address,address)": {
        "details": "See {IERC721-isApprovedForAll}."
      },
      "name()": {
        "details": "See {IERC721Metadata-name}."
      },
      "ownerOf(uint256)": {
        "details": "See {IERC721-ownerOf}."
      },
      "safeTransferFrom(address,address,uint256)": {
        "details": "See {IERC721-safeTransferFrom}."
      },
      "safeTransferFrom(address,address,uint256,bytes)": {
        "details": "See {IERC721-safeTransferFrom}."
      },
      "setApprovalForAll(address,bool)": {
        "details": "See {IERC721-setApprovalForAll}."
      },
      "supportsInterface(bytes4)": {
        "details": "See {IERC165-supportsInterface}."
      },
      "symbol()": {
        "details": "See {IERC721Metadata-symbol}."
      },
      "tokenURI(uint256)": {
        "details": "See {IERC721Metadata-tokenURI}."
      },
      "transferFrom(address,address,uint256)": {
        "details": "See {IERC721-transferFrom}."
      }
    },
    "version": 1
  },
  "userdoc": {
    "kind": "user",
    "methods": {
      "countToken()": {
        "notice": "query the metadata of a token"
      },
      "queryToken(string)": {
        "notice": "for js client to interact"
      },
      "recognize(string,bool)": {
        "notice": "recognize is called by processor upon optical verification of the product"
      },
      "transferByName(string,address)": {
        "notice": "tx.origin is the user account that starts the call, msg.sender is the contract that calls this contract"
      },
      "update(string,string)": {
        "notice": "update only updates the metadata of an existing token"
      },
      "verify(string,bool)": {
        "notice": "verify is called by processor upon optical verification of the product"
      }
    },
    "version": 1
  }
}