{
  "contractName": "DigitalTwin",
  "abi": [
    {
      "inputs": [
        {
          "internalType": "string",
          "name": "_name",
          "type": "string"
        },
        {
          "internalType": "string",
          "name": "_symbol",
          "type": "string"
        }
      ],
      "stateMutability": "nonpayable",
      "type": "constructor"
    },
    {
      "anonymous": false,
      "inputs": [
        {
          "indexed": true,
          "internalType": "address",
          "name": "owner",
          "type": "address"
        },
        {
          "indexed": true,
          "internalType": "address",
          "name": "approved",
          "type": "address"
        },
        {
          "indexed": true,
          "internalType": "uint256",
          "name": "tokenId",
          "type": "uint256"
        }
      ],
      "name": "Approval",
      "type": "event"
    },
    {
      "anonymous": false,
      "inputs": [
        {
          "indexed": true,
          "internalType": "address",
          "name": "owner",
          "type": "address"
        },
        {
          "indexed": true,
          "internalType": "address",
          "name": "operator",
          "type": "address"
        },
        {
          "indexed": false,
          "internalType": "bool",
          "name": "approved",
          "type": "bool"
        }
      ],
      "name": "ApprovalForAll",
      "type": "event"
    },
    {
      "anonymous": false,
      "inputs": [
        {
          "indexed": false,
          "internalType": "string",
          "name": "tkname",
          "type": "string"
        }
      ],
      "name": "TokenUpdated",
      "type": "event"
    },
    {
      "anonymous": false,
      "inputs": [
        {
          "indexed": false,
          "internalType": "string",
          "name": "tkname",
          "type": "string"
        }
      ],
      "name": "TokenVerified",
      "type": "event"
    },
    {
      "anonymous": false,
      "inputs": [
        {
          "indexed": true,
          "internalType": "address",
          "name": "from",
          "type": "address"
        },
        {
          "indexed": true,
          "internalType": "address",
          "name": "to",
          "type": "address"
        },
        {
          "indexed": true,
          "internalType": "uint256",
          "name": "tokenId",
          "type": "uint256"
        }
      ],
      "name": "Transfer",
      "type": "event"
    },
    {
      "inputs": [],
      "name": "admin",
      "outputs": [
        {
          "internalType": "address",
          "name": "",
          "type": "address"
        }
      ],
      "stateMutability": "view",
      "type": "function",
      "constant": true
    },
    {
      "inputs": [
        {
          "internalType": "uint256",
          "name": "",
          "type": "uint256"
        }
      ],
      "name": "alltks",
      "outputs": [
        {
          "internalType": "string",
          "name": "",
          "type": "string"
        }
      ],
      "stateMutability": "view",
      "type": "function",
      "constant": true
    },
    {
      "inputs": [
        {
          "internalType": "address",
          "name": "to",
          "type": "address"
        },
        {
          "internalType": "uint256",
          "name": "tokenId",
          "type": "uint256"
        }
      ],
      "name": "approve",
      "outputs": [],
      "stateMutability": "nonpayable",
      "type": "function"
    },
    {
      "inputs": [
        {
          "internalType": "address",
          "name": "owner",
          "type": "address"
        }
      ],
      "name": "balanceOf",
      "outputs": [
        {
          "internalType": "uint256",
          "name": "",
          "type": "uint256"
        }
      ],
      "stateMutability": "view",
      "type": "function",
      "constant": true
    },
    {
      "inputs": [
        {
          "internalType": "uint256",
          "name": "tokenId",
          "type": "uint256"
        }
      ],
      "name": "getApproved",
      "outputs": [
        {
          "internalType": "address",
          "name": "",
          "type": "address"
        }
      ],
      "stateMutability": "view",
      "type": "function",
      "constant": true
    },
    {
      "inputs": [
        {
          "internalType": "address",
          "name": "owner",
          "type": "address"
        },
        {
          "internalType": "address",
          "name": "operator",
          "type": "address"
        }
      ],
      "name": "isApprovedForAll",
      "outputs": [
        {
          "internalType": "bool",
          "name": "",
          "type": "bool"
        }
      ],
      "stateMutability": "view",
      "type": "function",
      "constant": true
    },
    {
      "inputs": [],
      "name": "name",
      "outputs": [
        {
          "internalType": "string",
          "name": "",
          "type": "string"
        }
      ],
      "stateMutability": "view",
      "type": "function",
      "constant": true
    },
    {
      "inputs": [
        {
          "internalType": "uint256",
          "name": "tokenId",
          "type": "uint256"
        }
      ],
      "name": "ownerOf",
      "outputs": [
        {
          "internalType": "address",
          "name": "",
          "type": "address"
        }
      ],
      "stateMutability": "view",
      "type": "function",
      "constant": true
    },
    {
      "inputs": [
        {
          "internalType": "address",
          "name": "from",
          "type": "address"
        },
        {
          "internalType": "address",
          "name": "to",
          "type": "address"
        },
        {
          "internalType": "uint256",
          "name": "tokenId",
          "type": "uint256"
        }
      ],
      "name": "safeTransferFrom",
      "outputs": [],
      "stateMutability": "nonpayable",
      "type": "function"
    },
    {
      "inputs": [
        {
          "internalType": "address",
          "name": "from",
          "type": "address"
        },
        {
          "internalType": "address",
          "name": "to",
          "type": "address"
        },
        {
          "internalType": "uint256",
          "name": "tokenId",
          "type": "uint256"
        },
        {
          "internalType": "bytes",
          "name": "_data",
          "type": "bytes"
        }
      ],
      "name": "safeTransferFrom",
      "outputs": [],
      "stateMutability": "nonpayable",
      "type": "function"
    },
    {
      "inputs": [
        {
          "internalType": "address",
          "name": "operator",
          "type": "address"
        },
        {
          "internalType": "bool",
          "name": "approved",
          "type": "bool"
        }
      ],
      "name": "setApprovalForAll",
      "outputs": [],
      "stateMutability": "nonpayable",
      "type": "function"
    },
    {
      "inputs": [
        {
          "internalType": "bytes4",
          "name": "interfaceId",
          "type": "bytes4"
        }
      ],
      "name": "supportsInterface",
      "outputs": [
        {
          "internalType": "bool",
          "name": "",
          "type": "bool"
        }
      ],
      "stateMutability": "view",
      "type": "function",
      "constant": true
    },
    {
      "inputs": [],
      "name": "symbol",
      "outputs": [
        {
          "internalType": "string",
          "name": "",
          "type": "string"
        }
      ],
      "stateMutability": "view",
      "type": "function",
      "constant": true
    },
    {
      "inputs": [
        {
          "internalType": "string",
          "name": "",
          "type": "string"
        }
      ],
      "name": "tkExists",
      "outputs": [
        {
          "internalType": "bool",
          "name": "",
          "type": "bool"
        }
      ],
      "stateMutability": "view",
      "type": "function",
      "constant": true
    },
    {
      "inputs": [
        {
          "internalType": "string",
          "name": "",
          "type": "string"
        }
      ],
      "name": "tks",
      "outputs": [
        {
          "internalType": "uint256",
          "name": "id",
          "type": "uint256"
        },
        {
          "internalType": "string",
          "name": "metadata",
          "type": "string"
        },
        {
          "internalType": "enum DigitalTwin.Verificationstatus",
          "name": "status",
          "type": "uint8"
        }
      ],
      "stateMutability": "view",
      "type": "function",
      "constant": true
    },
    {
      "inputs": [
        {
          "internalType": "uint256",
          "name": "tokenId",
          "type": "uint256"
        }
      ],
      "name": "tokenURI",
      "outputs": [
        {
          "internalType": "string",
          "name": "",
          "type": "string"
        }
      ],
      "stateMutability": "view",
      "type": "function",
      "constant": true
    },
    {
      "inputs": [
        {
          "internalType": "address",
          "name": "from",
          "type": "address"
        },
        {
          "internalType": "address",
          "name": "to",
          "type": "address"
        },
        {
          "internalType": "uint256",
          "name": "tokenId",
          "type": "uint256"
        }
      ],
      "name": "transferFrom",
      "outputs": [],
      "stateMutability": "nonpayable",
      "type": "function"
    },
    {
      "inputs": [
        {
          "internalType": "string",
          "name": "_tkname",
          "type": "string"
        },
        {
          "internalType": "string",
          "name": "_metadata",
          "type": "string"
        }
      ],
      "name": "mint",
      "outputs": [],
      "stateMutability": "nonpayable",
      "type": "function"
    },
    {
      "inputs": [
        {
          "internalType": "string",
          "name": "_tkname",
          "type": "string"
        },
        {
          "internalType": "string",
          "name": "_metadata",
          "type": "string"
        }
      ],
      "name": "update",
      "outputs": [],
      "stateMutability": "nonpayable",
      "type": "function"
    },
    {
      "inputs": [
        {
          "internalType": "string",
          "name": "_tkname",
          "type": "string"
        },
        {
          "internalType": "bool",
          "name": "_status",
          "type": "bool"
        }
      ],
      "name": "verify",
      "outputs": [],
      "stateMutability": "nonpayable",
      "type": "function"
    },
    {
      "inputs": [
        {
          "internalType": "string",
          "name": "_tkname",
          "type": "string"
        }
      ],
      "name": "burn",
      "outputs": [],
      "stateMutability": "nonpayable",
      "type": "function"
    },
    {
      "inputs": [
        {
          "internalType": "string",
          "name": "_tkname",
          "type": "string"
        }
      ],
      "name": "queryToken",
      "outputs": [
        {
          "internalType": "uint256",
          "name": "",
          "type": "uint256"
        },
        {
          "internalType": "string",
          "name": "",
          "type": "string"
        },
        {
          "internalType": "string",
          "name": "",
          "type": "string"
        },
        {
          "internalType": "address",
          "name": "",
          "type": "address"
        }
      ],
      "stateMutability": "view",
      "type": "function",
      "constant": true
    },
    {
      "inputs": [],
      "name": "countToken",
      "outputs": [
        {
          "internalType": "uint256",
          "name": "",
          "type": "uint256"
        }
      ],
      "stateMutability": "view",
      "type": "function",
      "constant": true
    },
    {
      "inputs": [],
      "name": "queryAll",
      "outputs": [
        {
          "internalType": "string[]",
          "name": "",
          "type": "string[]"
        }
      ],
      "stateMutability": "view",
      "type": "function",
      "constant": true
    }
  ],
  "bytecode": "0x60806040523480156200001157600080fd5b50604051620045f3380380620045f38339818101604052810190620000379190620001e4565b8181816000908051906020019062000051929190620000b6565b5080600190805190602001906200006a929190620000b6565b50505033600760006101000a81548173ffffffffffffffffffffffffffffffffffffffff021916908373ffffffffffffffffffffffffffffffffffffffff1602179055505050620003ed565b828054620000c490620002fe565b90600052602060002090601f016020900481019282620000e8576000855562000134565b82601f106200010357805160ff191683800117855562000134565b8280016001018555821562000134579182015b828111156200013357825182559160200191906001019062000116565b5b50905062000143919062000147565b5090565b5b808211156200016257600081600090555060010162000148565b5090565b60006200017d620001778462000292565b62000269565b9050828152602081018484840111156200019c576200019b620003cd565b5b620001a9848285620002c8565b509392505050565b600082601f830112620001c957620001c8620003c8565b5b8151620001db84826020860162000166565b91505092915050565b60008060408385031215620001fe57620001fd620003d7565b5b600083015167ffffffffffffffff8111156200021f576200021e620003d2565b5b6200022d85828601620001b1565b925050602083015167ffffffffffffffff811115620002515762000250620003d2565b5b6200025f85828601620001b1565b9150509250929050565b60006200027562000288565b905062000283828262000334565b919050565b6000604051905090565b600067ffffffffffffffff821115620002b057620002af62000399565b5b620002bb82620003dc565b9050602081019050919050565b60005b83811015620002e8578082015181840152602081019050620002cb565b83811115620002f8576000848401525b50505050565b600060028204905060018216806200031757607f821691505b602082108114156200032e576200032d6200036a565b5b50919050565b6200033f82620003dc565b810181811067ffffffffffffffff8211171562000361576200036062000399565b5b80604052505050565b7f4e487b7100000000000000000000000000000000000000000000000000000000600052602260045260246000fd5b7f4e487b7100000000000000000000000000000000000000000000000000000000600052604160045260246000fd5b600080fd5b600080fd5b600080fd5b600080fd5b6000601f19601f8301169050919050565b6141f680620003fd6000396000f3fe608060405234801561001057600080fd5b50600436106101585760003560e01c8063a22cb465116100c3578063e59247081161007c578063e5924708146103fc578063e7a81c551461041a578063e985e9c514610438578063ef3ecfb214610468578063f4c84d191461049a578063f851a440146104b657610158565b8063a22cb46514610329578063b88d4fde14610345578063c5573d4614610361578063c87b56dd14610394578063d26ac388146103c4578063dafa1d2d146103e057610158565b80633f5e3719116101155780633f5e37191461024357806342842e0e146102735780636352211e1461028f57806370a08231146102bf5780638aa0fdad146102ef57806395d89b411461030b57610158565b806301ffc9a71461015d57806306fdde031461018d578063081812fc146101ab578063095ea7b3146101db5780630ad5b505146101f757806323b872dd14610227575b600080fd5b61017760048036038101906101729190612bee565b6104d4565b6040516101849190613349565b60405180910390f35b6101956105b6565b6040516101a29190613364565b60405180910390f35b6101c560048036038101906101c09190612d65565b610648565b6040516101d291906132c0565b60405180910390f35b6101f560048036038101906101f09190612bae565b6106cd565b005b610211600480360381019061020c9190612c48565b6107e5565b60405161021e9190613349565b60405180910390f35b610241600480360381019061023c9190612a98565b61081b565b005b61025d60048036038101906102589190612d65565b61087b565b60405161026a9190613364565b60405180910390f35b61028d60048036038101906102889190612a98565b610927565b005b6102a960048036038101906102a49190612d65565b610947565b6040516102b691906132c0565b60405180910390f35b6102d960048036038101906102d49190612a2b565b6109f9565b6040516102e69190613606565b60405180910390f35b61030960048036038101906103049190612ced565b610ab1565b005b610313610c4f565b6040516103209190613364565b60405180910390f35b610343600480360381019061033e9190612b6e565b610ce1565b005b61035f600480360381019061035a9190612aeb565b610cf7565b005b61037b60048036038101906103769190612c48565b610d59565b60405161038b949392919061365f565b60405180910390f35b6103ae60048036038101906103a99190612d65565b611041565b6040516103bb9190613364565b60405180910390f35b6103de60048036038101906103d99190612c91565b6110e8565b005b6103fa60048036038101906103f59190612c48565b6112cc565b005b6104046115c8565b6040516104119190613327565b60405180910390f35b610422611731565b60405161042f9190613606565b60405180910390f35b610452600480360381019061044d9190612a58565b611798565b60405161045f9190613349565b60405180910390f35b610482600480360381019061047d9190612c48565b61182c565b60405161049193929190613621565b60405180910390f35b6104b460048036038101906104af9190612ced565b611901565b005b6104be611a74565b6040516104cb91906132c0565b60405180910390f35b60007f80ac58cd000000000000000000000000000000000000000000000000000000007bffffffffffffffffffffffffffffffffffffffffffffffffffffffff1916827bffffffffffffffffffffffffffffffffffffffffffffffffffffffff1916148061059f57507f5b5e139f000000000000000000000000000000000000000000000000000000007bffffffffffffffffffffffffffffffffffffffffffffffffffffffff1916827bffffffffffffffffffffffffffffffffffffffffffffffffffffffff1916145b806105af57506105ae82611a9a565b5b9050919050565b6060600080546105c590613971565b80601f01602080910402602001604051908101604052809291908181526020018280546105f190613971565b801561063e5780601f106106135761010080835404028352916020019161063e565b820191906000526020600020905b81548152906001019060200180831161062157829003601f168201915b5050505050905090565b600061065382611b04565b610692576040517f08c379a000000000000000000000000000000000000000000000000000000000815260040161068990613566565b60405180910390fd5b6004600083815260200190815260200160002060009054906101000a900473ffffffffffffffffffffffffffffffffffffffff169050919050565b60006106d882610947565b90508073ffffffffffffffffffffffffffffffffffffffff168373ffffffffffffffffffffffffffffffffffffffff161415610749576040517f08c379a0000000000000000000000000000000000000000000000000000000008152600401610740906135a6565b60405180910390fd5b8073ffffffffffffffffffffffffffffffffffffffff16610768611b70565b73ffffffffffffffffffffffffffffffffffffffff161480610797575061079681610791611b70565b611798565b5b6107d6576040517f08c379a00000000000000000000000000000000000000000000000000000000081526004016107cd90613486565b60405180910390fd5b6107e08383611b78565b505050565b6009818051602081018201805184825260208301602085012081835280955050505050506000915054906101000a900460ff1681565b61082c610826611b70565b82611c31565b61086b576040517f08c379a0000000000000000000000000000000000000000000000000000000008152600401610862906135e6565b60405180910390fd5b610876838383611d0f565b505050565b6006818154811061088b57600080fd5b9060005260206000200160009150905080546108a690613971565b80601f01602080910402602001604051908101604052809291908181526020018280546108d290613971565b801561091f5780601f106108f45761010080835404028352916020019161091f565b820191906000526020600020905b81548152906001019060200180831161090257829003601f168201915b505050505081565b61094283838360405180602001604052806000815250610cf7565b505050565b6000806002600084815260200190815260200160002060009054906101000a900473ffffffffffffffffffffffffffffffffffffffff169050600073ffffffffffffffffffffffffffffffffffffffff168173ffffffffffffffffffffffffffffffffffffffff1614156109f0576040517f08c379a00000000000000000000000000000000000000000000000000000000081526004016109e7906134c6565b60405180910390fd5b80915050919050565b60008073ffffffffffffffffffffffffffffffffffffffff168273ffffffffffffffffffffffffffffffffffffffff161415610a6a576040517f08c379a0000000000000000000000000000000000000000000000000000000008152600401610a61906134a6565b60405180910390fd5b600360008373ffffffffffffffffffffffffffffffffffffffff1673ffffffffffffffffffffffffffffffffffffffff168152602001908152602001600020549050919050565b600982604051610ac1919061326e565b908152602001604051809103902060009054906101000a900460ff1615610b1d576040517f08c379a0000000000000000000000000000000000000000000000000000000008152600401610b14906134e6565b60405180910390fd5b600682908060018154018082558091505060019003906000526020600020016000909190919091509080519060200190610b58929190612772565b5060006006805490509050610b6d3382611f76565b80600884604051610b7e919061326e565b90815260200160405180910390206000018190555081600884604051610ba4919061326e565b90815260200160405180910390206001019080519060200190610bc8929190612772565b506000600884604051610bdb919061326e565b908152602001604051809103902060020160006101000a81548160ff02191690836002811115610c0e57610c0d613aac565b5b02179055506001600984604051610c25919061326e565b908152602001604051809103902060006101000a81548160ff021916908315150217905550505050565b606060018054610c5e90613971565b80601f0160208091040260200160405190810160405280929190818152602001828054610c8a90613971565b8015610cd75780601f10610cac57610100808354040283529160200191610cd7565b820191906000526020600020905b815481529060010190602001808311610cba57829003601f168201915b5050505050905090565b610cf3610cec611b70565b8383612150565b5050565b610d08610d02611b70565b83611c31565b610d47576040517f08c379a0000000000000000000000000000000000000000000000000000000008152600401610d3e906135e6565b60405180910390fd5b610d53848484846122bd565b50505050565b60006060806000600985604051610d70919061326e565b908152602001604051809103902060009054906101000a900460ff16610dcb576040517f08c379a0000000000000000000000000000000000000000000000000000000008152600401610dc290613546565b60405180910390fd5b606060006002811115610de157610de0613aac565b5b600887604051610df1919061326e565b908152602001604051809103902060020160009054906101000a900460ff166002811115610e2257610e21613aac565b5b1415610e65576040518060400160405280601481526020017f70656e64696e6720766572696669636174696f6e0000000000000000000000008152509050610f37565b60016002811115610e7957610e78613aac565b5b600887604051610e89919061326e565b908152602001604051809103902060020160009054906101000a900460ff166002811115610eba57610eb9613aac565b5b1415610efd576040518060400160405280600881526020017f76657269666965640000000000000000000000000000000000000000000000008152509050610f36565b6040518060400160405280600681526020017f64656e696564000000000000000000000000000000000000000000000000000081525090505b5b600886604051610f47919061326e565b908152602001604051809103902060000154600887604051610f69919061326e565b908152602001604051809103902060010182610fa560088a604051610f8e919061326e565b908152602001604051809103902060000154610947565b828054610fb190613971565b80601f0160208091040260200160405190810160405280929190818152602001828054610fdd90613971565b801561102a5780601f10610fff5761010080835404028352916020019161102a565b820191906000526020600020905b81548152906001019060200180831161100d57829003601f168201915b505050505092509450945094509450509193509193565b606061104c82611b04565b61108b576040517f08c379a000000000000000000000000000000000000000000000000000000000815260040161108290613586565b60405180910390fd5b6000611095612319565b905060008151116110b557604051806020016040528060008152506110e0565b806110bf84612330565b6040516020016110d0929190613285565b6040516020818303038152906040525b915050919050565b6009826040516110f8919061326e565b908152602001604051809103902060009054906101000a900460ff16611153576040517f08c379a000000000000000000000000000000000000000000000000000000000815260040161114a90613546565b60405180910390fd5b3373ffffffffffffffffffffffffffffffffffffffff1661119460088460405161117d919061326e565b908152602001604051809103902060000154610947565b73ffffffffffffffffffffffffffffffffffffffff16146111ea576040517f08c379a00000000000000000000000000000000000000000000000000000000081526004016111e190613506565b60405180910390fd5b600115158115151415611246576001600883604051611209919061326e565b908152602001604051809103902060020160006101000a81548160ff0219169083600281111561123c5761123b613aac565b5b0217905550611291565b6002600883604051611258919061326e565b908152602001604051809103902060020160006101000a81548160ff0219169083600281111561128b5761128a613aac565b5b02179055505b7f59d309664d5e5c5c7562159b94306437ae8aed905c4f84933f4ad06eea902ed4826040516112c09190613364565b60405180910390a15050565b6000806009836040516112df919061326e565b908152602001604051809103902060009054906101000a900460ff1661133a576040517f08c379a000000000000000000000000000000000000000000000000000000000815260040161133190613546565b60405180910390fd5b3373ffffffffffffffffffffffffffffffffffffffff1661137b600885604051611364919061326e565b908152602001604051809103902060000154610947565b73ffffffffffffffffffffffffffffffffffffffff16146113d1576040517f08c379a00000000000000000000000000000000000000000000000000000000081526004016113c8906133c6565b60405180910390fd5b6113fb6008846040516113e4919061326e565b908152602001604051809103902060000154612491565b600060098460405161140d919061326e565b908152602001604051809103902060006101000a81548160ff021916908315150217905550600883604051611442919061326e565b908152602001604051809103902060008082016000905560018201600061146991906127f8565b6002820160006101000a81549060ff021916905550505b82604051602001611491919061326e565b60405160208183030381529060405280519060200120600683815481106114bb576114ba613b39565b5b906000526020600020016040516020016114d591906132a9565b60405160208183030381529060405280519060200120146115035781806114fb906139d4565b925050611480565b8190505b60016006805490506115199190613862565b81101561159357600660018261152f91906137db565b815481106115405761153f613b39565b5b906000526020600020016006828154811061155e5761155d613b39565b5b9060005260206000200190805461157490613971565b61157f929190612838565b50808061158b906139d4565b915050611507565b60068054806115a5576115a4613b0a565b5b6001900381819060005260206000200160006115c191906127f8565b9055505050565b6060600760009054906101000a900473ffffffffffffffffffffffffffffffffffffffff1673ffffffffffffffffffffffffffffffffffffffff163373ffffffffffffffffffffffffffffffffffffffff161461165a576040517f08c379a0000000000000000000000000000000000000000000000000000000008152600401611651906135c6565b60405180910390fd5b6006805480602002602001604051908101604052809291908181526020016000905b8282101561172857838290600052602060002001805461169b90613971565b80601f01602080910402602001604051908101604052809291908181526020018280546116c790613971565b80156117145780601f106116e957610100808354040283529160200191611714565b820191906000526020600020905b8154815290600101906020018083116116f757829003601f168201915b50505050508152602001906001019061167c565b50505050905090565b6000600760009054906101000a900473ffffffffffffffffffffffffffffffffffffffff1673ffffffffffffffffffffffffffffffffffffffff163373ffffffffffffffffffffffffffffffffffffffff161461178d57600080fd5b600680549050905090565b6000600560008473ffffffffffffffffffffffffffffffffffffffff1673ffffffffffffffffffffffffffffffffffffffff16815260200190815260200160002060008373ffffffffffffffffffffffffffffffffffffffff1673ffffffffffffffffffffffffffffffffffffffff16815260200190815260200160002060009054906101000a900460ff16905092915050565b60088180516020810182018051848252602083016020850120818352809550505050505060009150905080600001549080600101805461186b90613971565b80601f016020809104026020016040519081016040528092919081815260200182805461189790613971565b80156118e45780601f106118b9576101008083540402835291602001916118e4565b820191906000526020600020905b8154815290600101906020018083116118c757829003601f168201915b5050505050908060020160009054906101000a900460ff16905083565b600982604051611911919061326e565b908152602001604051809103902060009054906101000a900460ff1661196c576040517f08c379a000000000000000000000000000000000000000000000000000000000815260040161196390613546565b60405180910390fd5b3373ffffffffffffffffffffffffffffffffffffffff166119ad600884604051611996919061326e565b908152602001604051809103902060000154610947565b73ffffffffffffffffffffffffffffffffffffffff1614611a03576040517f08c379a00000000000000000000000000000000000000000000000000000000081526004016119fa90613386565b60405180910390fd5b80600883604051611a14919061326e565b90815260200160405180910390206001019080519060200190611a38929190612772565b507f6714407191569b7b9edd5db2d624b8e2281272e577950f0e87ca156570ffe9e482604051611a689190613364565b60405180910390a15050565b600760009054906101000a900473ffffffffffffffffffffffffffffffffffffffff1681565b60007f01ffc9a7000000000000000000000000000000000000000000000000000000007bffffffffffffffffffffffffffffffffffffffffffffffffffffffff1916827bffffffffffffffffffffffffffffffffffffffffffffffffffffffff1916149050919050565b60008073ffffffffffffffffffffffffffffffffffffffff166002600084815260200190815260200160002060009054906101000a900473ffffffffffffffffffffffffffffffffffffffff1673ffffffffffffffffffffffffffffffffffffffff1614159050919050565b600033905090565b816004600083815260200190815260200160002060006101000a81548173ffffffffffffffffffffffffffffffffffffffff021916908373ffffffffffffffffffffffffffffffffffffffff160217905550808273ffffffffffffffffffffffffffffffffffffffff16611beb83610947565b73ffffffffffffffffffffffffffffffffffffffff167f8c5be1e5ebec7d5bd14f71427d1e84f3dd0314c0f7b2291e5b200ac8c7c3b92560405160405180910390a45050565b6000611c3c82611b04565b611c7b576040517f08c379a0000000000000000000000000000000000000000000000000000000008152600401611c7290613466565b60405180910390fd5b6000611c8683610947565b90508073ffffffffffffffffffffffffffffffffffffffff168473ffffffffffffffffffffffffffffffffffffffff161480611cf557508373ffffffffffffffffffffffffffffffffffffffff16611cdd84610648565b73ffffffffffffffffffffffffffffffffffffffff16145b80611d065750611d058185611798565b5b91505092915050565b8273ffffffffffffffffffffffffffffffffffffffff16611d2f82610947565b73ffffffffffffffffffffffffffffffffffffffff1614611d85576040517f08c379a0000000000000000000000000000000000000000000000000000000008152600401611d7c906133e6565b60405180910390fd5b600073ffffffffffffffffffffffffffffffffffffffff168273ffffffffffffffffffffffffffffffffffffffff161415611df5576040517f08c379a0000000000000000000000000000000000000000000000000000000008152600401611dec90613426565b60405180910390fd5b611e008383836125ae565b611e0b600082611b78565b6001600360008573ffffffffffffffffffffffffffffffffffffffff1673ffffffffffffffffffffffffffffffffffffffff1681526020019081526020016000206000828254611e5b9190613862565b925050819055506001600360008473ffffffffffffffffffffffffffffffffffffffff1673ffffffffffffffffffffffffffffffffffffffff1681526020019081526020016000206000828254611eb291906137db565b92505081905550816002600083815260200190815260200160002060006101000a81548173ffffffffffffffffffffffffffffffffffffffff021916908373ffffffffffffffffffffffffffffffffffffffff160217905550808273ffffffffffffffffffffffffffffffffffffffff168473ffffffffffffffffffffffffffffffffffffffff167fddf252ad1be2c89b69c2b068fc378daa952ba7f163c4a11628f55a4df523b3ef60405160405180910390a4611f718383836125b3565b505050565b600073ffffffffffffffffffffffffffffffffffffffff168273ffffffffffffffffffffffffffffffffffffffff161415611fe6576040517f08c379a0000000000000000000000000000000000000000000000000000000008152600401611fdd90613526565b60405180910390fd5b611fef81611b04565b1561202f576040517f08c379a000000000000000000000000000000000000000000000000000000000815260040161202690613406565b60405180910390fd5b61203b600083836125ae565b6001600360008473ffffffffffffffffffffffffffffffffffffffff1673ffffffffffffffffffffffffffffffffffffffff168152602001908152602001600020600082825461208b91906137db565b92505081905550816002600083815260200190815260200160002060006101000a81548173ffffffffffffffffffffffffffffffffffffffff021916908373ffffffffffffffffffffffffffffffffffffffff160217905550808273ffffffffffffffffffffffffffffffffffffffff16600073ffffffffffffffffffffffffffffffffffffffff167fddf252ad1be2c89b69c2b068fc378daa952ba7f163c4a11628f55a4df523b3ef60405160405180910390a461214c600083836125b3565b5050565b8173ffffffffffffffffffffffffffffffffffffffff168373ffffffffffffffffffffffffffffffffffffffff1614156121bf576040517f08c379a00000000000000000000000000000000000000000000000000000000081526004016121b690613446565b60405180910390fd5b80600560008573ffffffffffffffffffffffffffffffffffffffff1673ffffffffffffffffffffffffffffffffffffffff16815260200190815260200160002060008473ffffffffffffffffffffffffffffffffffffffff1673ffffffffffffffffffffffffffffffffffffffff16815260200190815260200160002060006101000a81548160ff0219169083151502179055508173ffffffffffffffffffffffffffffffffffffffff168373ffffffffffffffffffffffffffffffffffffffff167f17307eab39ab6107e8899845ad3d59bd9653f200f220920489ca2b5937696c31836040516122b09190613349565b60405180910390a3505050565b6122c8848484611d0f565b6122d4848484846125b8565b612313576040517f08c379a000000000000000000000000000000000000000000000000000000000815260040161230a906133a6565b60405180910390fd5b50505050565b606060405180602001604052806000815250905090565b60606000821415612378576040518060400160405280600181526020017f3000000000000000000000000000000000000000000000000000000000000000815250905061248c565b600082905060005b600082146123aa578080612393906139d4565b915050600a826123a39190613831565b9150612380565b60008167ffffffffffffffff8111156123c6576123c5613b68565b5b6040519080825280601f01601f1916602001820160405280156123f85781602001600182028036833780820191505090505b5090505b60008514612485576001826124119190613862565b9150600a856124209190613a1d565b603061242c91906137db565b60f81b81838151811061244257612441613b39565b5b60200101907effffffffffffffffffffffffffffffffffffffffffffffffffffffffffffff1916908160001a905350600a8561247e9190613831565b94506123fc565b8093505050505b919050565b600061249c82610947565b90506124aa816000846125ae565b6124b5600083611b78565b6001600360008373ffffffffffffffffffffffffffffffffffffffff1673ffffffffffffffffffffffffffffffffffffffff16815260200190815260200160002060008282546125059190613862565b925050819055506002600083815260200190815260200160002060006101000a81549073ffffffffffffffffffffffffffffffffffffffff021916905581600073ffffffffffffffffffffffffffffffffffffffff168273ffffffffffffffffffffffffffffffffffffffff167fddf252ad1be2c89b69c2b068fc378daa952ba7f163c4a11628f55a4df523b3ef60405160405180910390a46125aa816000846125b3565b5050565b505050565b505050565b60006125d98473ffffffffffffffffffffffffffffffffffffffff1661274f565b15612742578373ffffffffffffffffffffffffffffffffffffffff1663150b7a02612602611b70565b8786866040518563ffffffff1660e01b815260040161262494939291906132db565b602060405180830381600087803b15801561263e57600080fd5b505af192505050801561266f57506040513d601f19601f8201168201806040525081019061266c9190612c1b565b60015b6126f2573d806000811461269f576040519150601f19603f3d011682016040523d82523d6000602084013e6126a4565b606091505b506000815114156126ea576040517f08c379a00000000000000000000000000000000000000000000000000000000081526004016126e1906133a6565b60405180910390fd5b805181602001fd5b63150b7a0260e01b7bffffffffffffffffffffffffffffffffffffffffffffffffffffffff1916817bffffffffffffffffffffffffffffffffffffffffffffffffffffffff191614915050612747565b600190505b949350505050565b6000808273ffffffffffffffffffffffffffffffffffffffff163b119050919050565b82805461277e90613971565b90600052602060002090601f0160209004810192826127a057600085556127e7565b82601f106127b957805160ff19168380011785556127e7565b828001600101855582156127e7579182015b828111156127e65782518255916020019190600101906127cb565b5b5090506127f491906128c5565b5090565b50805461280490613971565b6000825580601f106128165750612835565b601f01602090049060005260206000209081019061283491906128c5565b5b50565b82805461284490613971565b90600052602060002090601f01602090048101928261286657600085556128b4565b82601f1061287757805485556128b4565b828001600101855582156128b457600052602060002091601f016020900482015b828111156128b3578254825591600101919060010190612898565b5b5090506128c191906128c5565b5090565b5b808211156128de5760008160009055506001016128c6565b5090565b60006128f56128f0846136d7565b6136b2565b90508281526020810184848401111561291157612910613b9c565b5b61291c84828561392f565b509392505050565b600061293761293284613708565b6136b2565b90508281526020810184848401111561295357612952613b9c565b5b61295e84828561392f565b509392505050565b60008135905061297581614164565b92915050565b60008135905061298a8161417b565b92915050565b60008135905061299f81614192565b92915050565b6000815190506129b481614192565b92915050565b600082601f8301126129cf576129ce613b97565b5b81356129df8482602086016128e2565b91505092915050565b600082601f8301126129fd576129fc613b97565b5b8135612a0d848260208601612924565b91505092915050565b600081359050612a25816141a9565b92915050565b600060208284031215612a4157612a40613ba6565b5b6000612a4f84828501612966565b91505092915050565b60008060408385031215612a6f57612a6e613ba6565b5b6000612a7d85828601612966565b9250506020612a8e85828601612966565b9150509250929050565b600080600060608486031215612ab157612ab0613ba6565b5b6000612abf86828701612966565b9350506020612ad086828701612966565b9250506040612ae186828701612a16565b9150509250925092565b60008060008060808587031215612b0557612b04613ba6565b5b6000612b1387828801612966565b9450506020612b2487828801612966565b9350506040612b3587828801612a16565b925050606085013567ffffffffffffffff811115612b5657612b55613ba1565b5b612b62878288016129ba565b91505092959194509250565b60008060408385031215612b8557612b84613ba6565b5b6000612b9385828601612966565b9250506020612ba48582860161297b565b9150509250929050565b60008060408385031215612bc557612bc4613ba6565b5b6000612bd385828601612966565b9250506020612be485828601612a16565b9150509250929050565b600060208284031215612c0457612c03613ba6565b5b6000612c1284828501612990565b91505092915050565b600060208284031215612c3157612c30613ba6565b5b6000612c3f848285016129a5565b91505092915050565b600060208284031215612c5e57612c5d613ba6565b5b600082013567ffffffffffffffff811115612c7c57612c7b613ba1565b5b612c88848285016129e8565b91505092915050565b60008060408385031215612ca857612ca7613ba6565b5b600083013567ffffffffffffffff811115612cc657612cc5613ba1565b5b612cd2858286016129e8565b9250506020612ce38582860161297b565b9150509250929050565b60008060408385031215612d0457612d03613ba6565b5b600083013567ffffffffffffffff811115612d2257612d21613ba1565b5b612d2e858286016129e8565b925050602083013567ffffffffffffffff811115612d4f57612d4e613ba1565b5b612d5b858286016129e8565b9150509250929050565b600060208284031215612d7b57612d7a613ba6565b5b6000612d8984828501612a16565b91505092915050565b6000612d9e8383612e81565b905092915050565b612daf81613896565b82525050565b6000612dc08261375e565b612dca818561378c565b935083602082028501612ddc85613739565b8060005b85811015612e185784840389528151612df98582612d92565b9450612e048361377f565b925060208a01995050600181019050612de0565b50829750879550505050505092915050565b612e33816138a8565b82525050565b6000612e4482613769565b612e4e818561379d565b9350612e5e81856020860161393e565b612e6781613bab565b840191505092915050565b612e7b8161391d565b82525050565b6000612e8c82613774565b612e9681856137ae565b9350612ea681856020860161393e565b612eaf81613bab565b840191505092915050565b6000612ec582613774565b612ecf81856137bf565b9350612edf81856020860161393e565b612ee881613bab565b840191505092915050565b6000612efe82613774565b612f0881856137d0565b9350612f1881856020860161393e565b80840191505092915050565b60008154612f3181613971565b612f3b81866137d0565b94506001821660008114612f565760018114612f6757612f9a565b60ff19831686528186019350612f9a565b612f7085613749565b60005b83811015612f9257815481890152600182019150602081019050612f73565b838801955050505b50505092915050565b6000612fb0602a836137bf565b9150612fbb82613bbc565b604082019050919050565b6000612fd36032836137bf565b9150612fde82613c0b565b604082019050919050565b6000612ff6602b836137bf565b915061300182613c5a565b604082019050919050565b60006130196025836137bf565b915061302482613ca9565b604082019050919050565b600061303c601c836137bf565b915061304782613cf8565b602082019050919050565b600061305f6024836137bf565b915061306a82613d21565b604082019050919050565b60006130826019836137bf565b915061308d82613d70565b602082019050919050565b60006130a5602c836137bf565b91506130b082613d99565b604082019050919050565b60006130c86038836137bf565b91506130d382613de8565b604082019050919050565b60006130eb602a836137bf565b91506130f682613e37565b604082019050919050565b600061310e6029836137bf565b915061311982613e86565b604082019050919050565b60006131316015836137bf565b915061313c82613ed5565b602082019050919050565b60006131546041836137bf565b915061315f82613efe565b606082019050919050565b60006131776020836137bf565b915061318282613f73565b602082019050919050565b600061319a6015836137bf565b91506131a582613f9c565b602082019050919050565b60006131bd602c836137bf565b91506131c882613fc5565b604082019050919050565b60006131e0602f836137bf565b91506131eb82614014565b604082019050919050565b60006132036021836137bf565b915061320e82614063565b604082019050919050565b60006132266029836137bf565b9150613231826140b2565b604082019050919050565b60006132496031836137bf565b915061325482614101565b604082019050919050565b61326881613913565b82525050565b600061327a8284612ef3565b915081905092915050565b60006132918285612ef3565b915061329d8284612ef3565b91508190509392505050565b60006132b58284612f24565b915081905092915050565b60006020820190506132d56000830184612da6565b92915050565b60006080820190506132f06000830187612da6565b6132fd6020830186612da6565b61330a604083018561325f565b818103606083015261331c8184612e39565b905095945050505050565b600060208201905081810360008301526133418184612db5565b905092915050565b600060208201905061335e6000830184612e2a565b92915050565b6000602082019050818103600083015261337e8184612eba565b905092915050565b6000602082019050818103600083015261339f81612fa3565b9050919050565b600060208201905081810360008301526133bf81612fc6565b9050919050565b600060208201905081810360008301526133df81612fe9565b9050919050565b600060208201905081810360008301526133ff8161300c565b9050919050565b6000602082019050818103600083015261341f8161302f565b9050919050565b6000602082019050818103600083015261343f81613052565b9050919050565b6000602082019050818103600083015261345f81613075565b9050919050565b6000602082019050818103600083015261347f81613098565b9050919050565b6000602082019050818103600083015261349f816130bb565b9050919050565b600060208201905081810360008301526134bf816130de565b9050919050565b600060208201905081810360008301526134df81613101565b9050919050565b600060208201905081810360008301526134ff81613124565b9050919050565b6000602082019050818103600083015261351f81613147565b9050919050565b6000602082019050818103600083015261353f8161316a565b9050919050565b6000602082019050818103600083015261355f8161318d565b9050919050565b6000602082019050818103600083015261357f816131b0565b9050919050565b6000602082019050818103600083015261359f816131d3565b9050919050565b600060208201905081810360008301526135bf816131f6565b9050919050565b600060208201905081810360008301526135df81613219565b9050919050565b600060208201905081810360008301526135ff8161323c565b9050919050565b600060208201905061361b600083018461325f565b92915050565b6000606082019050613636600083018661325f565b81810360208301526136488185612eba565b90506136576040830184612e72565b949350505050565b6000608082019050613674600083018761325f565b81810360208301526136868186612eba565b9050818103604083015261369a8185612eba565b90506136a96060830184612da6565b95945050505050565b60006136bc6136cd565b90506136c882826139a3565b919050565b6000604051905090565b600067ffffffffffffffff8211156136f2576136f1613b68565b5b6136fb82613bab565b9050602081019050919050565b600067ffffffffffffffff82111561372357613722613b68565b5b61372c82613bab565b9050602081019050919050565b6000819050602082019050919050565b60008190508160005260206000209050919050565b600081519050919050565b600081519050919050565b600081519050919050565b6000602082019050919050565b600082825260208201905092915050565b600082825260208201905092915050565b600082825260208201905092915050565b600082825260208201905092915050565b600081905092915050565b60006137e682613913565b91506137f183613913565b9250827fffffffffffffffffffffffffffffffffffffffffffffffffffffffffffffffff0382111561382657613825613a4e565b5b828201905092915050565b600061383c82613913565b915061384783613913565b92508261385757613856613a7d565b5b828204905092915050565b600061386d82613913565b915061387883613913565b92508282101561388b5761388a613a4e565b5b828203905092915050565b60006138a1826138f3565b9050919050565b60008115159050919050565b60007fffffffff0000000000000000000000000000000000000000000000000000000082169050919050565b60008190506138ee82614150565b919050565b600073ffffffffffffffffffffffffffffffffffffffff82169050919050565b6000819050919050565b6000613928826138e0565b9050919050565b82818337600083830152505050565b60005b8381101561395c578082015181840152602081019050613941565b8381111561396b576000848401525b50505050565b6000600282049050600182168061398957607f821691505b6020821081141561399d5761399c613adb565b5b50919050565b6139ac82613bab565b810181811067ffffffffffffffff821117156139cb576139ca613b68565b5b80604052505050565b60006139df82613913565b91507fffffffffffffffffffffffffffffffffffffffffffffffffffffffffffffffff821415613a1257613a11613a4e565b5b600182019050919050565b6000613a2882613913565b9150613a3383613913565b925082613a4357613a42613a7d565b5b828206905092915050565b7f4e487b7100000000000000000000000000000000000000000000000000000000600052601160045260246000fd5b7f4e487b7100000000000000000000000000000000000000000000000000000000600052601260045260246000fd5b7f4e487b7100000000000000000000000000000000000000000000000000000000600052602160045260246000fd5b7f4e487b7100000000000000000000000000000000000000000000000000000000600052602260045260246000fd5b7f4e487b7100000000000000000000000000000000000000000000000000000000600052603160045260246000fd5b7f4e487b7100000000000000000000000000000000000000000000000000000000600052603260045260246000fd5b7f4e487b7100000000000000000000000000000000000000000000000000000000600052604160045260246000fd5b600080fd5b600080fd5b600080fd5b600080fd5b6000601f19601f8301169050919050565b7f4f6e6c792074686520746f6b656e206f776e65722063616e207570646174652060008201527f74686520746f6b656e2e00000000000000000000000000000000000000000000602082015250565b7f4552433732313a207472616e7366657220746f206e6f6e20455243373231526560008201527f63656976657220696d706c656d656e7465720000000000000000000000000000602082015250565b7f4f6e6c792074686520746f6b656e206f776e65722063616e2064657374726f7960008201527f2074686520746f6b656e2e000000000000000000000000000000000000000000602082015250565b7f4552433732313a207472616e736665722066726f6d20696e636f72726563742060008201527f6f776e6572000000000000000000000000000000000000000000000000000000602082015250565b7f4552433732313a20746f6b656e20616c7265616479206d696e74656400000000600082015250565b7f4552433732313a207472616e7366657220746f20746865207a65726f2061646460008201527f7265737300000000000000000000000000000000000000000000000000000000602082015250565b7f4552433732313a20617070726f766520746f2063616c6c657200000000000000600082015250565b7f4552433732313a206f70657261746f7220717565727920666f72206e6f6e657860008201527f697374656e7420746f6b656e0000000000000000000000000000000000000000602082015250565b7f4552433732313a20617070726f76652063616c6c6572206973206e6f74206f7760008201527f6e6572206e6f7220617070726f76656420666f7220616c6c0000000000000000602082015250565b7f4552433732313a2062616c616e636520717565727920666f7220746865207a6560008201527f726f206164647265737300000000000000000000000000000000000000000000602082015250565b7f4552433732313a206f776e657220717565727920666f72206e6f6e657869737460008201527f656e7420746f6b656e0000000000000000000000000000000000000000000000602082015250565b7f546f6b656e20616c7265616479206578697374732e0000000000000000000000600082015250565b7f4f6e6c792074686520746f6b656e206f776e65722063616e207570646174652060008201527f766572696669636174696f6e20737461747573206f662074686520746f6b656e60208201527f2e00000000000000000000000000000000000000000000000000000000000000604082015250565b7f4552433732313a206d696e7420746f20746865207a65726f2061646472657373600082015250565b7f546f6b656e20646f6573206e6f742065786973742e0000000000000000000000600082015250565b7f4552433732313a20617070726f76656420717565727920666f72206e6f6e657860008201527f697374656e7420746f6b656e0000000000000000000000000000000000000000602082015250565b7f4552433732314d657461646174613a2055524920717565727920666f72206e6f60008201527f6e6578697374656e7420746f6b656e0000000000000000000000000000000000602082015250565b7f4552433732313a20617070726f76616c20746f2063757272656e74206f776e6560008201527f7200000000000000000000000000000000000000000000000000000000000000602082015250565b7f4f6e6c7920636f6e7472616374206f776e65722063616e20717565727920616c60008201527f6c20746f6b656e732e0000000000000000000000000000000000000000000000602082015250565b7f4552433732313a207472616e736665722063616c6c6572206973206e6f74206f60008201527f776e6572206e6f7220617070726f766564000000000000000000000000000000602082015250565b6003811061416157614160613aac565b5b50565b61416d81613896565b811461417857600080fd5b50565b614184816138a8565b811461418f57600080fd5b50565b61419b816138b4565b81146141a657600080fd5b50565b6141b281613913565b81146141bd57600080fd5b5056fea2646970667358221220f59fe7828a8b470608e879cbb86590f754a90556a986840dd46f5894a124491d64736f6c63430008070033",
  "immutableReferences": {},
  "source": "// SPDX-License-Identifier: UNLICENSED\npragma solidity ^0.8.0;\n\nimport \"../node_modules/@openzeppelin/contracts/token/ERC721/ERC721.sol\";\n\n/**\n * To do: viewalltokens still show tokens that are burned (burn is not correct)\n */\ncontract DigitalTwin is ERC721 {\n    string[] public alltks; // to record all all tks\n    address public admin;\n\n    /**\n     * Allow consumers to access the product verification results through apis.\n     */\n    enum Verificationstatus {\n        PENDING,\n        PROCESSORVERIFIED,\n        PROCESSORDENIED\n    }\n\n    struct TkDetails {\n        uint256 id;\n        string metadata;\n        Verificationstatus status;\n    }\n\n    mapping(string => TkDetails) public tks; // mapping of tkname => ProductTk struct\n    mapping(string => bool) public tkExists;\n\n    event TokenUpdated(string tkname);\n    event TokenVerified(string tkname);\n\n    constructor(string memory _name, string memory _symbol)\n        ERC721(_name, _symbol)\n    {\n        admin = msg.sender;\n    }\n\n    function mint(string memory _tkname, string memory _metadata) public {\n\n        require(!tkExists[_tkname], \"Token already exists.\");\n\n        alltks.push(_tkname);\n        uint256 id = alltks.length;\n        _mint(msg.sender, id);\n        \n        tks[_tkname].id = id;\n        tks[_tkname].metadata = _metadata;\n        tks[_tkname].status = Verificationstatus.PENDING;\n\n        tkExists[_tkname] = true;\n    }\n\n    /**\n     * update only updates the metadata of an existing token\n     */\n    function update(string memory _tkname, string memory _metadata) public {\n\n        require(tkExists[_tkname], \"Token does not exist.\");\n        require(\n            ownerOf(tks[_tkname].id) == address(msg.sender),\n            \"Only the token owner can update the token.\"\n        );\n\n        tks[_tkname].metadata = _metadata;\n\n        emit TokenUpdated(_tkname);\n    }\n\n    /**\n     * verify is called by process upon optical verification of the product\n     */\n    function verify(string memory _tkname, bool _status) public {\n\n        require(tkExists[_tkname], \"Token does not exist.\");\n        require(\n            ownerOf(tks[_tkname].id) == address(msg.sender),\n            \"Only the token owner can update verification status of the token.\"\n        );\n\n        if (_status == true) {\n            tks[_tkname].status = Verificationstatus.PROCESSORVERIFIED;\n        }\n        else {\n            tks[_tkname].status = Verificationstatus.PROCESSORDENIED;\n        }\n\n        emit TokenVerified(_tkname);\n    }\n\n    // util for burn\n    // To do: this is because there doesn't seem to be a straight forward way to get all keys in a mapping - to find out\n    // To do: create a util contract, cannot do it right now as .pop only works on data in storage, not in memory (as an input parameter)\n\n\n    function burn(string memory _tkname) public {\n        uint i = 0;\n        uint j;\n\n        require(tkExists[_tkname], \"Token does not exist.\");\n        require(\n            ownerOf(tks[_tkname].id) == address(msg.sender),\n            \"Only the token owner can destroy the token.\"\n        );\n\n        _burn(tks[_tkname].id); // transfer the token to the 0x address\n        tkExists[_tkname] = false; // change existence to false\n        delete tks[_tkname]; // delete token from the mapping\n\n        while (keccak256(abi.encodePacked(alltks[i])) != keccak256(abi.encodePacked(_tkname))) {\n            i++;\n        }\n\n        for (j=i; j<alltks.length-1; j++) {\n            alltks[j] = alltks[j+1];\n        }\n        alltks.pop(); // remove the token from the alltks list\n    }\n\n    /**\n     * @notice for js client to interact\n     */\n    function queryToken(string memory _tkname)\n        public\n        view\n        returns (uint256, string memory, string memory, address)\n    {\n        require(tkExists[_tkname], \"Token does not exist.\");\n        \n        string memory status;\n\n        if (tks[_tkname].status == Verificationstatus.PENDING) {\n            status = \"pending verification\";\n        } else if (tks[_tkname].status == Verificationstatus.PROCESSORVERIFIED) {\n            status = \"verified\";\n        } else {\n            status = \"denied\";\n        }\n\n        return (tks[_tkname].id, tks[_tkname].metadata, status, ownerOf(tks[_tkname].id));\n    }\n\n    /**\n     * query the metadata of a token\n     */\n    function countToken() public view returns (uint256) {\n        require(msg.sender == admin); // require caller to be the contract owner\n        return alltks.length;\n    }\n\n    function queryAll() public view returns (string[] memory) {\n        require(msg.sender == admin, \"Only contract owner can query all tokens.\"); // require caller to be the contract owner\n        return alltks;\n    }\n}\n",
  "sourcePath": "/home/yih/Documents/dev/beston-dapps/contracts/DigitalTwin.sol",
  "compiler": {
    "name": "solc",
    "version": "0.8.7+commit.e28d00a7.Emscripten.clang"
  },
  "schemaVersion": "3.4.1",
  "updatedAt": "2022-05-11T02:43:12.499Z",
  "networkType": "ethereum",
  "devdoc": {
    "kind": "dev",
    "methods": {
      "approve(address,uint256)": {
        "details": "See {IERC721-approve}."
      },
      "balanceOf(address)": {
        "details": "See {IERC721-balanceOf}."
      },
      "getApproved(uint256)": {
        "details": "See {IERC721-getApproved}."
      },
      "isApprovedForAll(address,address)": {
        "details": "See {IERC721-isApprovedForAll}."
      },
      "name()": {
        "details": "See {IERC721Metadata-name}."
      },
      "ownerOf(uint256)": {
        "details": "See {IERC721-ownerOf}."
      },
      "safeTransferFrom(address,address,uint256)": {
        "details": "See {IERC721-safeTransferFrom}."
      },
      "safeTransferFrom(address,address,uint256,bytes)": {
        "details": "See {IERC721-safeTransferFrom}."
      },
      "setApprovalForAll(address,bool)": {
        "details": "See {IERC721-setApprovalForAll}."
      },
      "supportsInterface(bytes4)": {
        "details": "See {IERC165-supportsInterface}."
      },
      "symbol()": {
        "details": "See {IERC721Metadata-symbol}."
      },
      "tokenURI(uint256)": {
        "details": "See {IERC721Metadata-tokenURI}."
      },
      "transferFrom(address,address,uint256)": {
        "details": "See {IERC721-transferFrom}."
      }
    },
    "version": 1
  },
  "userdoc": {
    "kind": "user",
    "methods": {
      "countToken()": {
        "notice": "query the metadata of a token"
      },
      "queryToken(string)": {
        "notice": "for js client to interact"
      },
      "update(string,string)": {
        "notice": "update only updates the metadata of an existing token"
      },
      "verify(string,bool)": {
        "notice": "verify is called by process upon optical verification of the product"
      }
    },
    "notice": "To do: viewalltokens still show tokens that are burned (burn is not correct)",
    "version": 1
  }
}