{
  "contractName": "DigitalTwin",
  "abi": [
    {
      "inputs": [
        {
          "internalType": "string",
          "name": "_name",
          "type": "string"
        },
        {
          "internalType": "string",
          "name": "_symbol",
          "type": "string"
        }
      ],
      "stateMutability": "nonpayable",
      "type": "constructor"
    },
    {
      "anonymous": false,
      "inputs": [
        {
          "indexed": true,
          "internalType": "address",
          "name": "owner",
          "type": "address"
        },
        {
          "indexed": true,
          "internalType": "address",
          "name": "approved",
          "type": "address"
        },
        {
          "indexed": true,
          "internalType": "uint256",
          "name": "tokenId",
          "type": "uint256"
        }
      ],
      "name": "Approval",
      "type": "event"
    },
    {
      "anonymous": false,
      "inputs": [
        {
          "indexed": true,
          "internalType": "address",
          "name": "owner",
          "type": "address"
        },
        {
          "indexed": true,
          "internalType": "address",
          "name": "operator",
          "type": "address"
        },
        {
          "indexed": false,
          "internalType": "bool",
          "name": "approved",
          "type": "bool"
        }
      ],
      "name": "ApprovalForAll",
      "type": "event"
    },
    {
      "anonymous": false,
      "inputs": [
        {
          "indexed": false,
          "internalType": "string",
          "name": "tkname",
          "type": "string"
        }
      ],
      "name": "TokenUpdated",
      "type": "event"
    },
    {
      "anonymous": false,
      "inputs": [
        {
          "indexed": false,
          "internalType": "string",
          "name": "tkname",
          "type": "string"
        }
      ],
      "name": "TokenVerified",
      "type": "event"
    },
    {
      "anonymous": false,
      "inputs": [
        {
          "indexed": true,
          "internalType": "address",
          "name": "from",
          "type": "address"
        },
        {
          "indexed": true,
          "internalType": "address",
          "name": "to",
          "type": "address"
        },
        {
          "indexed": true,
          "internalType": "uint256",
          "name": "tokenId",
          "type": "uint256"
        }
      ],
      "name": "Transfer",
      "type": "event"
    },
    {
      "inputs": [],
      "name": "admin",
      "outputs": [
        {
          "internalType": "address",
          "name": "",
          "type": "address"
        }
      ],
      "stateMutability": "view",
      "type": "function",
      "constant": true
    },
    {
      "inputs": [
        {
          "internalType": "uint256",
          "name": "",
          "type": "uint256"
        }
      ],
      "name": "alltks",
      "outputs": [
        {
          "internalType": "string",
          "name": "",
          "type": "string"
        }
      ],
      "stateMutability": "view",
      "type": "function",
      "constant": true
    },
    {
      "inputs": [
        {
          "internalType": "address",
          "name": "to",
          "type": "address"
        },
        {
          "internalType": "uint256",
          "name": "tokenId",
          "type": "uint256"
        }
      ],
      "name": "approve",
      "outputs": [],
      "stateMutability": "nonpayable",
      "type": "function"
    },
    {
      "inputs": [
        {
          "internalType": "address",
          "name": "owner",
          "type": "address"
        }
      ],
      "name": "balanceOf",
      "outputs": [
        {
          "internalType": "uint256",
          "name": "",
          "type": "uint256"
        }
      ],
      "stateMutability": "view",
      "type": "function",
      "constant": true
    },
    {
      "inputs": [
        {
          "internalType": "uint256",
          "name": "tokenId",
          "type": "uint256"
        }
      ],
      "name": "getApproved",
      "outputs": [
        {
          "internalType": "address",
          "name": "",
          "type": "address"
        }
      ],
      "stateMutability": "view",
      "type": "function",
      "constant": true
    },
    {
      "inputs": [
        {
          "internalType": "address",
          "name": "owner",
          "type": "address"
        },
        {
          "internalType": "address",
          "name": "operator",
          "type": "address"
        }
      ],
      "name": "isApprovedForAll",
      "outputs": [
        {
          "internalType": "bool",
          "name": "",
          "type": "bool"
        }
      ],
      "stateMutability": "view",
      "type": "function",
      "constant": true
    },
    {
      "inputs": [],
      "name": "name",
      "outputs": [
        {
          "internalType": "string",
          "name": "",
          "type": "string"
        }
      ],
      "stateMutability": "view",
      "type": "function",
      "constant": true
    },
    {
      "inputs": [
        {
          "internalType": "uint256",
          "name": "tokenId",
          "type": "uint256"
        }
      ],
      "name": "ownerOf",
      "outputs": [
        {
          "internalType": "address",
          "name": "",
          "type": "address"
        }
      ],
      "stateMutability": "view",
      "type": "function",
      "constant": true
    },
    {
      "inputs": [
        {
          "internalType": "address",
          "name": "from",
          "type": "address"
        },
        {
          "internalType": "address",
          "name": "to",
          "type": "address"
        },
        {
          "internalType": "uint256",
          "name": "tokenId",
          "type": "uint256"
        }
      ],
      "name": "safeTransferFrom",
      "outputs": [],
      "stateMutability": "nonpayable",
      "type": "function"
    },
    {
      "inputs": [
        {
          "internalType": "address",
          "name": "from",
          "type": "address"
        },
        {
          "internalType": "address",
          "name": "to",
          "type": "address"
        },
        {
          "internalType": "uint256",
          "name": "tokenId",
          "type": "uint256"
        },
        {
          "internalType": "bytes",
          "name": "data",
          "type": "bytes"
        }
      ],
      "name": "safeTransferFrom",
      "outputs": [],
      "stateMutability": "nonpayable",
      "type": "function"
    },
    {
      "inputs": [
        {
          "internalType": "address",
          "name": "operator",
          "type": "address"
        },
        {
          "internalType": "bool",
          "name": "approved",
          "type": "bool"
        }
      ],
      "name": "setApprovalForAll",
      "outputs": [],
      "stateMutability": "nonpayable",
      "type": "function"
    },
    {
      "inputs": [
        {
          "internalType": "bytes4",
          "name": "interfaceId",
          "type": "bytes4"
        }
      ],
      "name": "supportsInterface",
      "outputs": [
        {
          "internalType": "bool",
          "name": "",
          "type": "bool"
        }
      ],
      "stateMutability": "view",
      "type": "function",
      "constant": true
    },
    {
      "inputs": [],
      "name": "symbol",
      "outputs": [
        {
          "internalType": "string",
          "name": "",
          "type": "string"
        }
      ],
      "stateMutability": "view",
      "type": "function",
      "constant": true
    },
    {
      "inputs": [
        {
          "internalType": "string",
          "name": "",
          "type": "string"
        }
      ],
      "name": "tkExists",
      "outputs": [
        {
          "internalType": "bool",
          "name": "",
          "type": "bool"
        }
      ],
      "stateMutability": "view",
      "type": "function",
      "constant": true
    },
    {
      "inputs": [
        {
          "internalType": "string",
          "name": "",
          "type": "string"
        }
      ],
      "name": "tks",
      "outputs": [
        {
          "internalType": "uint256",
          "name": "id",
          "type": "uint256"
        },
        {
          "internalType": "string",
          "name": "metadata",
          "type": "string"
        },
        {
          "internalType": "enum DigitalTwin.Recognitionstatus",
          "name": "rstatus",
          "type": "uint8"
        },
        {
          "internalType": "enum DigitalTwin.Verificationstatus",
          "name": "vstatus",
          "type": "uint8"
        }
      ],
      "stateMutability": "view",
      "type": "function",
      "constant": true
    },
    {
      "inputs": [
        {
          "internalType": "uint256",
          "name": "tokenId",
          "type": "uint256"
        }
      ],
      "name": "tokenURI",
      "outputs": [
        {
          "internalType": "string",
          "name": "",
          "type": "string"
        }
      ],
      "stateMutability": "view",
      "type": "function",
      "constant": true
    },
    {
      "inputs": [
        {
          "internalType": "address",
          "name": "from",
          "type": "address"
        },
        {
          "internalType": "address",
          "name": "to",
          "type": "address"
        },
        {
          "internalType": "uint256",
          "name": "tokenId",
          "type": "uint256"
        }
      ],
      "name": "transferFrom",
      "outputs": [],
      "stateMutability": "nonpayable",
      "type": "function"
    },
    {
      "inputs": [
        {
          "internalType": "string",
          "name": "_tkname",
          "type": "string"
        },
        {
          "internalType": "string",
          "name": "_metadata",
          "type": "string"
        }
      ],
      "name": "mint",
      "outputs": [],
      "stateMutability": "nonpayable",
      "type": "function"
    },
    {
      "inputs": [
        {
          "internalType": "string",
          "name": "_tkname",
          "type": "string"
        },
        {
          "internalType": "string",
          "name": "_metadata",
          "type": "string"
        }
      ],
      "name": "update",
      "outputs": [],
      "stateMutability": "nonpayable",
      "type": "function"
    },
    {
      "inputs": [
        {
          "internalType": "string",
          "name": "_tkname",
          "type": "string"
        },
        {
          "internalType": "bool",
          "name": "_status",
          "type": "bool"
        }
      ],
      "name": "recognize",
      "outputs": [],
      "stateMutability": "nonpayable",
      "type": "function"
    },
    {
      "inputs": [
        {
          "internalType": "string",
          "name": "_tkname",
          "type": "string"
        },
        {
          "internalType": "bool",
          "name": "_status",
          "type": "bool"
        }
      ],
      "name": "verify",
      "outputs": [],
      "stateMutability": "nonpayable",
      "type": "function"
    },
    {
      "inputs": [
        {
          "internalType": "string",
          "name": "_tkname",
          "type": "string"
        }
      ],
      "name": "burn",
      "outputs": [],
      "stateMutability": "nonpayable",
      "type": "function"
    },
    {
      "inputs": [
        {
          "internalType": "string",
          "name": "_tkname",
          "type": "string"
        },
        {
          "internalType": "address",
          "name": "_to",
          "type": "address"
        }
      ],
      "name": "transferByName",
      "outputs": [],
      "stateMutability": "nonpayable",
      "type": "function"
    },
    {
      "inputs": [
        {
          "internalType": "string",
          "name": "_tkname",
          "type": "string"
        },
        {
          "internalType": "address",
          "name": "_to",
          "type": "address"
        }
      ],
      "name": "approveByName",
      "outputs": [],
      "stateMutability": "nonpayable",
      "type": "function"
    },
    {
      "inputs": [
        {
          "internalType": "string",
          "name": "_tkname",
          "type": "string"
        }
      ],
      "name": "queryToken",
      "outputs": [
        {
          "internalType": "uint256",
          "name": "",
          "type": "uint256"
        },
        {
          "internalType": "string",
          "name": "",
          "type": "string"
        },
        {
          "internalType": "string",
          "name": "",
          "type": "string"
        },
        {
          "internalType": "string",
          "name": "",
          "type": "string"
        },
        {
          "internalType": "address",
          "name": "",
          "type": "address"
        }
      ],
      "stateMutability": "view",
      "type": "function",
      "constant": true
    },
    {
      "inputs": [],
      "name": "countToken",
      "outputs": [
        {
          "internalType": "uint256",
          "name": "",
          "type": "uint256"
        }
      ],
      "stateMutability": "view",
      "type": "function",
      "constant": true
    },
    {
      "inputs": [],
      "name": "queryAll",
      "outputs": [
        {
          "internalType": "string[]",
          "name": "",
          "type": "string[]"
        }
      ],
      "stateMutability": "view",
      "type": "function",
      "constant": true
    },
    {
      "inputs": [],
      "name": "queryAllFields",
      "outputs": [
        {
          "internalType": "string[]",
          "name": "",
          "type": "string[]"
        },
        {
          "internalType": "uint256[]",
          "name": "",
          "type": "uint256[]"
        },
        {
          "internalType": "string[]",
          "name": "",
          "type": "string[]"
        },
        {
          "internalType": "string[]",
          "name": "",
          "type": "string[]"
        },
        {
          "internalType": "string[]",
          "name": "",
          "type": "string[]"
        },
        {
          "internalType": "address[]",
          "name": "",
          "type": "address[]"
        }
      ],
      "stateMutability": "view",
      "type": "function",
      "constant": true
    }
  ],
  "bytecode": "0x60806040523480156200001157600080fd5b506040516200571f3803806200571f8339818101604052810190620000379190620001e4565b8181816000908051906020019062000051929190620000b6565b5080600190805190602001906200006a929190620000b6565b50505033600760006101000a81548173ffffffffffffffffffffffffffffffffffffffff021916908373ffffffffffffffffffffffffffffffffffffffff1602179055505050620003ed565b828054620000c490620002fe565b90600052602060002090601f016020900481019282620000e8576000855562000134565b82601f106200010357805160ff191683800117855562000134565b8280016001018555821562000134579182015b828111156200013357825182559160200191906001019062000116565b5b50905062000143919062000147565b5090565b5b808211156200016257600081600090555060010162000148565b5090565b60006200017d620001778462000292565b62000269565b9050828152602081018484840111156200019c576200019b620003cd565b5b620001a9848285620002c8565b509392505050565b600082601f830112620001c957620001c8620003c8565b5b8151620001db84826020860162000166565b91505092915050565b60008060408385031215620001fe57620001fd620003d7565b5b600083015167ffffffffffffffff8111156200021f576200021e620003d2565b5b6200022d85828601620001b1565b925050602083015167ffffffffffffffff811115620002515762000250620003d2565b5b6200025f85828601620001b1565b9150509250929050565b60006200027562000288565b905062000283828262000334565b919050565b6000604051905090565b600067ffffffffffffffff821115620002b057620002af62000399565b5b620002bb82620003dc565b9050602081019050919050565b60005b83811015620002e8578082015181840152602081019050620002cb565b83811115620002f8576000848401525b50505050565b600060028204905060018216806200031757607f821691505b602082108114156200032e576200032d6200036a565b5b50919050565b6200033f82620003dc565b810181811067ffffffffffffffff8211171562000361576200036062000399565b5b80604052505050565b7f4e487b7100000000000000000000000000000000000000000000000000000000600052602260045260246000fd5b7f4e487b7100000000000000000000000000000000000000000000000000000000600052604160045260246000fd5b600080fd5b600080fd5b600080fd5b600080fd5b6000601f19601f8301169050919050565b61532280620003fd6000396000f3fe608060405234801561001057600080fd5b50600436106101c45760003560e01c806395d89b41116100f9578063dafa1d2d11610097578063e985e9c511610071578063e985e9c51461051c578063ef3ecfb21461054c578063f4c84d191461057f578063f851a4401461059b576101c4565b8063dafa1d2d146104c4578063e5924708146104e0578063e7a81c55146104fe576101c4565b8063c00ee908116100d3578063c00ee90814610428578063c5573d4614610444578063c87b56dd14610478578063d26ac388146104a8576101c4565b806395d89b41146103d2578063a22cb465146103f0578063b88d4fde1461040c576101c4565b80633f5e37191161016657806370a082311161014057806370a0823114610347578063747c6e8b1461037757806381ec053f1461039a5780638aa0fdad146103b6576101c4565b80633f5e3719146102cb57806342842e0e146102fb5780636352211e14610317576101c4565b8063095ea7b3116101a2578063095ea7b3146102475780630ad5b505146102635780630d202ced1461029357806323b872dd146102af576101c4565b806301ffc9a7146101c957806306fdde03146101f9578063081812fc14610217575b600080fd5b6101e360048036038101906101de9190613b04565b6105b9565b6040516101f0919061443c565b60405180910390f35b61020161069b565b60405161020e9190614457565b60405180910390f35b610231600480360381019061022c9190613cd7565b61072d565b60405161023e9190614328565b60405180910390f35b610261600480360381019061025c9190613ac4565b610773565b005b61027d60048036038101906102789190613b5e565b61088b565b60405161028a919061443c565b60405180910390f35b6102ad60048036038101906102a89190613ba7565b6108c1565b005b6102c960048036038101906102c491906139ae565b6109f3565b005b6102e560048036038101906102e09190613cd7565b610a53565b6040516102f29190614457565b60405180910390f35b610315600480360381019061031091906139ae565b610aff565b005b610331600480360381019061032c9190613cd7565b610b1f565b60405161033e9190614328565b60405180910390f35b610361600480360381019061035c9190613941565b610bd1565b60405161036e91906146d9565b60405180910390f35b61037f610c89565b604051610391969594939291906143b1565b60405180910390f35b6103b460048036038101906103af9190613ba7565b611519565b005b6103d060048036038101906103cb9190613c5f565b61164a565b005b6103da611832565b6040516103e79190614457565b60405180910390f35b61040a60048036038101906104059190613a84565b6118c4565b005b61042660048036038101906104219190613a01565b6118da565b005b610442600480360381019061043d9190613c03565b61193c565b005b61045e60048036038101906104599190613b5e565b611b19565b60405161046f959493929190614740565b60405180910390f35b610492600480360381019061048d9190613cd7565b611f74565b60405161049f9190614457565b60405180910390f35b6104c260048036038101906104bd9190613c03565b611fdc565b005b6104de60048036038101906104d99190613b5e565b6121b9565b005b6104e86124c9565b6040516104f5919061438f565b60405180910390f35b610506612632565b60405161051391906146d9565b60405180910390f35b6105366004803603810190610531919061396e565b612699565b604051610543919061443c565b60405180910390f35b61056660048036038101906105619190613b5e565b61272d565b60405161057694939291906146f4565b60405180910390f35b61059960048036038101906105949190613c5f565b612815565b005b6105a3612988565b6040516105b09190614328565b60405180910390f35b60007f80ac58cd000000000000000000000000000000000000000000000000000000007bffffffffffffffffffffffffffffffffffffffffffffffffffffffff1916827bffffffffffffffffffffffffffffffffffffffffffffffffffffffff1916148061068457507f5b5e139f000000000000000000000000000000000000000000000000000000007bffffffffffffffffffffffffffffffffffffffffffffffffffffffff1916827bffffffffffffffffffffffffffffffffffffffffffffffffffffffff1916145b806106945750610693826129ae565b5b9050919050565b6060600080546106aa90614afe565b80601f01602080910402602001604051908101604052809291908181526020018280546106d690614afe565b80156107235780601f106106f857610100808354040283529160200191610723565b820191906000526020600020905b81548152906001019060200180831161070657829003601f168201915b5050505050905090565b600061073882612a18565b6004600083815260200190815260200160002060009054906101000a900473ffffffffffffffffffffffffffffffffffffffff169050919050565b600061077e82610b1f565b90508073ffffffffffffffffffffffffffffffffffffffff168373ffffffffffffffffffffffffffffffffffffffff1614156107ef576040517f08c379a00000000000000000000000000000000000000000000000000000000081526004016107e690614679565b60405180910390fd5b8073ffffffffffffffffffffffffffffffffffffffff1661080e612a63565b73ffffffffffffffffffffffffffffffffffffffff16148061083d575061083c81610837612a63565b612699565b5b61087c576040517f08c379a0000000000000000000000000000000000000000000000000000000008152600401610873906145f9565b60405180910390fd5b6108868383612a6b565b505050565b6009818051602081018201805184825260208301602085012081835280955050505050506000915054906101000a900460ff1681565b6009826040516108d191906142d6565b908152602001604051809103902060009054906101000a900460ff1661092c576040517f08c379a000000000000000000000000000000000000000000000000000000000815260040161092390614639565b60405180910390fd5b3273ffffffffffffffffffffffffffffffffffffffff1661096d60088460405161095691906142d6565b908152602001604051809103902060000154610b1f565b73ffffffffffffffffffffffffffffffffffffffff16146109c3576040517f08c379a00000000000000000000000000000000000000000000000000000000081526004016109ba90614519565b60405180910390fd5b6109ef32826008856040516109d891906142d6565b908152602001604051809103902060000154612b24565b5050565b610a046109fe612a63565b82612d8b565b610a43576040517f08c379a0000000000000000000000000000000000000000000000000000000008152600401610a3a906146b9565b60405180910390fd5b610a4e838383612b24565b505050565b60068181548110610a6357600080fd5b906000526020600020016000915090508054610a7e90614afe565b80601f0160208091040260200160405190810160405280929190818152602001828054610aaa90614afe565b8015610af75780601f10610acc57610100808354040283529160200191610af7565b820191906000526020600020905b815481529060010190602001808311610ada57829003601f168201915b505050505081565b610b1a838383604051806020016040528060008152506118da565b505050565b6000806002600084815260200190815260200160002060009054906101000a900473ffffffffffffffffffffffffffffffffffffffff169050600073ffffffffffffffffffffffffffffffffffffffff168173ffffffffffffffffffffffffffffffffffffffff161415610bc8576040517f08c379a0000000000000000000000000000000000000000000000000000000008152600401610bbf90614659565b60405180910390fd5b80915050919050565b60008073ffffffffffffffffffffffffffffffffffffffff168273ffffffffffffffffffffffffffffffffffffffff161415610c42576040517f08c379a0000000000000000000000000000000000000000000000000000000008152600401610c3990614579565b60405180910390fd5b600360008373ffffffffffffffffffffffffffffffffffffffff1673ffffffffffffffffffffffffffffffffffffffff168152602001908152602001600020549050919050565b606080606080606080600060068054905067ffffffffffffffff811115610cb357610cb2614cf5565b5b604051908082528060200260200182016040528015610ce15781602001602082028036833780820191505090505b509050600060068054905067ffffffffffffffff811115610d0557610d04614cf5565b5b604051908082528060200260200182016040528015610d3857816020015b6060815260200190600190039081610d235790505b509050600060068054905067ffffffffffffffff811115610d5c57610d5b614cf5565b5b604051908082528060200260200182016040528015610d8f57816020015b6060815260200190600190039081610d7a5790505b509050600060068054905067ffffffffffffffff811115610db357610db2614cf5565b5b604051908082528060200260200182016040528015610de657816020015b6060815260200190600190039081610dd15790505b509050600060068054905067ffffffffffffffff811115610e0a57610e09614cf5565b5b604051908082528060200260200182016040528015610e385781602001602082028036833780820191505090505b50905060005b60068054905081101561142557600860068281548110610e6157610e60614cc6565b5b90600052602060002001604051610e789190614311565b908152602001604051809103902060000154868281518110610e9d57610e9c614cc6565b5b602002602001018181525050600860068281548110610ebf57610ebe614cc6565b5b90600052602060002001604051610ed69190614311565b90815260200160405180910390206001018054610ef290614afe565b80601f0160208091040260200160405190810160405280929190818152602001828054610f1e90614afe565b8015610f6b5780601f10610f4057610100808354040283529160200191610f6b565b820191906000526020600020905b815481529060010190602001808311610f4e57829003601f168201915b5050505050858281518110610f8357610f82614cc6565b5b602002602001018190525060006002811115610fa257610fa1614c39565b5b600860068381548110610fb857610fb7614cc6565b5b90600052602060002001604051610fcf9190614311565b908152602001604051809103902060020160009054906101000a900460ff16600281111561100057610fff614c39565b5b141561105f576040518060400160405280601e81526020017f70656e64696e67207061636b6167696e6720766572696669636174696f6e000081525084828151811061104f5761104e614cc6565b5b6020026020010181905250611186565b6001600281111561107357611072614c39565b5b60086006838154811061108957611088614cc6565b5b906000526020600020016040516110a09190614311565b908152602001604051809103902060020160009054906101000a900460ff1660028111156110d1576110d0614c39565b5b1415611130576040518060400160405280601281526020017f7061636b6167696e6720766572696669656400000000000000000000000000008152508482815181106111205761111f614cc6565b5b6020026020010181905250611185565b6040518060400160405280601081526020017f7061636b6167696e672064656e6965640000000000000000000000000000000081525084828151811061117957611178614cc6565b5b60200260200101819052505b5b6000600281111561119a57611199614c39565b5b6008600683815481106111b0576111af614cc6565b5b906000526020600020016040516111c79190614311565b908152602001604051809103902060020160019054906101000a900460ff1660028111156111f8576111f7614c39565b5b1415611257576040518060400160405280601c81526020017f70656e64696e672070726f6475637420766572696669636174696f6e0000000081525083828151811061124757611246614cc6565b5b602002602001018190525061137e565b6001600281111561126b5761126a614c39565b5b60086006838154811061128157611280614cc6565b5b906000526020600020016040516112989190614311565b908152602001604051809103902060020160019054906101000a900460ff1660028111156112c9576112c8614c39565b5b1415611328576040518060400160405280601081526020017f70726f647563742076657269666965640000000000000000000000000000000081525083828151811061131857611317614cc6565b5b602002602001018190525061137d565b6040518060400160405280600e81526020017f70726f647563742064656e69656400000000000000000000000000000000000081525083828151811061137157611370614cc6565b5b60200260200101819052505b5b6113c560086006838154811061139757611396614cc6565b5b906000526020600020016040516113ae9190614311565b908152602001604051809103902060000154610b1f565b8282815181106113d8576113d7614cc6565b5b602002602001019073ffffffffffffffffffffffffffffffffffffffff16908173ffffffffffffffffffffffffffffffffffffffff1681525050808061141d90614b61565b915050610e3e565b506006858585858585805480602002602001604051908101604052809291908181526020016000905b828210156114fa57838290600052602060002001805461146d90614afe565b80601f016020809104026020016040519081016040528092919081815260200182805461149990614afe565b80156114e65780601f106114bb576101008083540402835291602001916114e6565b820191906000526020600020905b8154815290600101906020018083116114c957829003601f168201915b50505050508152602001906001019061144e565b5050505095509a509a509a509a509a509a505050505050909192939495565b60098260405161152991906142d6565b908152602001604051809103902060009054906101000a900460ff16611584576040517f08c379a000000000000000000000000000000000000000000000000000000000815260040161157b90614639565b60405180910390fd5b3273ffffffffffffffffffffffffffffffffffffffff166115c56008846040516115ae91906142d6565b908152602001604051809103902060000154610b1f565b73ffffffffffffffffffffffffffffffffffffffff161461161b576040517f08c379a000000000000000000000000000000000000000000000000000000000815260040161161290614519565b60405180910390fd5b6116468160088460405161162f91906142d6565b908152602001604051809103902060000154612a6b565b5050565b60098260405161165a91906142d6565b908152602001604051809103902060009054906101000a900460ff16156116b6576040517f08c379a00000000000000000000000000000000000000000000000000000000081526004016116ad90614599565b60405180910390fd5b6006829080600181540180825580915050600190039060005260206000200160009091909190915090805190602001906116f1929190613688565b50600060068054905090506117063382612e20565b8060088460405161171791906142d6565b9081526020016040518091039020600001819055508160088460405161173d91906142d6565b90815260200160405180910390206001019080519060200190611761929190613688565b50600060088460405161177491906142d6565b908152602001604051809103902060020160006101000a81548160ff021916908360028111156117a7576117a6614c39565b5b021790555060006008846040516117be91906142d6565b908152602001604051809103902060020160016101000a81548160ff021916908360028111156117f1576117f0614c39565b5b0217905550600160098460405161180891906142d6565b908152602001604051809103902060006101000a81548160ff021916908315150217905550505050565b60606001805461184190614afe565b80601f016020809104026020016040519081016040528092919081815260200182805461186d90614afe565b80156118ba5780601f1061188f576101008083540402835291602001916118ba565b820191906000526020600020905b81548152906001019060200180831161189d57829003601f168201915b5050505050905090565b6118d66118cf612a63565b8383612ffa565b5050565b6118eb6118e5612a63565b83612d8b565b61192a576040517f08c379a0000000000000000000000000000000000000000000000000000000008152600401611921906146b9565b60405180910390fd5b61193684848484613167565b50505050565b60098260405161194c91906142d6565b908152602001604051809103902060009054906101000a900460ff166119a7576040517f08c379a000000000000000000000000000000000000000000000000000000000815260040161199e90614639565b60405180910390fd5b600760009054906101000a900473ffffffffffffffffffffffffffffffffffffffff1673ffffffffffffffffffffffffffffffffffffffff163373ffffffffffffffffffffffffffffffffffffffff1614611a37576040517f08c379a0000000000000000000000000000000000000000000000000000000008152600401611a2e906145b9565b60405180910390fd5b600115158115151415611a93576001600883604051611a5691906142d6565b908152602001604051809103902060020160006101000a81548160ff02191690836002811115611a8957611a88614c39565b5b0217905550611ade565b6002600883604051611aa591906142d6565b908152602001604051809103902060020160006101000a81548160ff02191690836002811115611ad857611ad7614c39565b5b02179055505b7f59d309664d5e5c5c7562159b94306437ae8aed905c4f84933f4ad06eea902ed482604051611b0d9190614457565b60405180910390a15050565b600060608060606000600986604051611b3291906142d6565b908152602001604051809103902060009054906101000a900460ff16611b8d576040517f08c379a0000000000000000000000000000000000000000000000000000000008152600401611b8490614639565b60405180910390fd5b60608060006002811115611ba457611ba3614c39565b5b600889604051611bb491906142d6565b908152602001604051809103902060020160009054906101000a900460ff166002811115611be557611be4614c39565b5b1415611c28576040518060400160405280601e81526020017f70656e64696e67207061636b6167696e6720766572696669636174696f6e00008152509150611cfa565b60016002811115611c3c57611c3b614c39565b5b600889604051611c4c91906142d6565b908152602001604051809103902060020160009054906101000a900460ff166002811115611c7d57611c7c614c39565b5b1415611cc0576040518060400160405280601281526020017f7061636b6167696e6720766572696669656400000000000000000000000000008152509150611cf9565b6040518060400160405280601081526020017f7061636b6167696e672064656e6965640000000000000000000000000000000081525091505b5b60006002811115611d0e57611d0d614c39565b5b600889604051611d1e91906142d6565b908152602001604051809103902060020160019054906101000a900460ff166002811115611d4f57611d4e614c39565b5b1415611d92576040518060400160405280601c81526020017f70656e64696e672070726f6475637420766572696669636174696f6e000000008152509050611e64565b60016002811115611da657611da5614c39565b5b600889604051611db691906142d6565b908152602001604051809103902060020160019054906101000a900460ff166002811115611de757611de6614c39565b5b1415611e2a576040518060400160405280601081526020017f70726f64756374207665726966696564000000000000000000000000000000008152509050611e63565b6040518060400160405280600e81526020017f70726f647563742064656e69656400000000000000000000000000000000000081525090505b5b600888604051611e7491906142d6565b908152602001604051809103902060000154600889604051611e9691906142d6565b90815260200160405180910390206001018383611ed360088d604051611ebc91906142d6565b908152602001604051809103902060000154610b1f565b838054611edf90614afe565b80601f0160208091040260200160405190810160405280929190818152602001828054611f0b90614afe565b8015611f585780601f10611f2d57610100808354040283529160200191611f58565b820191906000526020600020905b815481529060010190602001808311611f3b57829003601f168201915b5050505050935096509650965096509650505091939590929450565b6060611f7f82612a18565b6000611f896131c3565b90506000815111611fa95760405180602001604052806000815250611fd4565b80611fb3846131da565b604051602001611fc49291906142ed565b6040516020818303038152906040525b915050919050565b600982604051611fec91906142d6565b908152602001604051809103902060009054906101000a900460ff16612047576040517f08c379a000000000000000000000000000000000000000000000000000000000815260040161203e90614639565b60405180910390fd5b600760009054906101000a900473ffffffffffffffffffffffffffffffffffffffff1673ffffffffffffffffffffffffffffffffffffffff163373ffffffffffffffffffffffffffffffffffffffff16146120d7576040517f08c379a00000000000000000000000000000000000000000000000000000000081526004016120ce906145d9565b60405180910390fd5b6001151581151514156121335760016008836040516120f691906142d6565b908152602001604051809103902060020160016101000a81548160ff0219169083600281111561212957612128614c39565b5b021790555061217e565b600260088360405161214591906142d6565b908152602001604051809103902060020160016101000a81548160ff0219169083600281111561217857612177614c39565b5b02179055505b7f59d309664d5e5c5c7562159b94306437ae8aed905c4f84933f4ad06eea902ed4826040516121ad9190614457565b60405180910390a15050565b6000806009836040516121cc91906142d6565b908152602001604051809103902060009054906101000a900460ff16612227576040517f08c379a000000000000000000000000000000000000000000000000000000000815260040161221e90614639565b60405180910390fd5b3373ffffffffffffffffffffffffffffffffffffffff1661226860088560405161225191906142d6565b908152602001604051809103902060000154610b1f565b73ffffffffffffffffffffffffffffffffffffffff16146122be576040517f08c379a00000000000000000000000000000000000000000000000000000000081526004016122b5906144b9565b60405180910390fd5b6122e86008846040516122d191906142d6565b90815260200160405180910390206000015461333b565b60006009846040516122fa91906142d6565b908152602001604051809103902060006101000a81548160ff02191690831515021790555060088360405161232f91906142d6565b9081526020016040518091039020600080820160009055600182016000612356919061370e565b6002820160006101000a81549060ff02191690556002820160016101000a81549060ff021916905550505b8260405160200161239291906142d6565b60405160208183030381529060405280519060200120600683815481106123bc576123bb614cc6565b5b906000526020600020016040516020016123d69190614311565b60405160208183030381529060405280519060200120146124045781806123fc90614b61565b925050612381565b8190505b600160068054905061241a91906149ca565b8110156124945760066001826124309190614943565b8154811061244157612440614cc6565b5b906000526020600020016006828154811061245f5761245e614cc6565b5b9060005260206000200190805461247590614afe565b61248092919061374e565b50808061248c90614b61565b915050612408565b60068054806124a6576124a5614c97565b5b6001900381819060005260206000200160006124c2919061370e565b9055505050565b6060600760009054906101000a900473ffffffffffffffffffffffffffffffffffffffff1673ffffffffffffffffffffffffffffffffffffffff163373ffffffffffffffffffffffffffffffffffffffff161461255b576040517f08c379a000000000000000000000000000000000000000000000000000000000815260040161255290614699565b60405180910390fd5b6006805480602002602001604051908101604052809291908181526020016000905b8282101561262957838290600052602060002001805461259c90614afe565b80601f01602080910402602001604051908101604052809291908181526020018280546125c890614afe565b80156126155780601f106125ea57610100808354040283529160200191612615565b820191906000526020600020905b8154815290600101906020018083116125f857829003601f168201915b50505050508152602001906001019061257d565b50505050905090565b6000600760009054906101000a900473ffffffffffffffffffffffffffffffffffffffff1673ffffffffffffffffffffffffffffffffffffffff163373ffffffffffffffffffffffffffffffffffffffff161461268e57600080fd5b600680549050905090565b6000600560008473ffffffffffffffffffffffffffffffffffffffff1673ffffffffffffffffffffffffffffffffffffffff16815260200190815260200160002060008373ffffffffffffffffffffffffffffffffffffffff1673ffffffffffffffffffffffffffffffffffffffff16815260200190815260200160002060009054906101000a900460ff16905092915050565b60088180516020810182018051848252602083016020850120818352809550505050505060009150905080600001549080600101805461276c90614afe565b80601f016020809104026020016040519081016040528092919081815260200182805461279890614afe565b80156127e55780601f106127ba576101008083540402835291602001916127e5565b820191906000526020600020905b8154815290600101906020018083116127c857829003601f168201915b5050505050908060020160009054906101000a900460ff16908060020160019054906101000a900460ff16905084565b60098260405161282591906142d6565b908152602001604051809103902060009054906101000a900460ff16612880576040517f08c379a000000000000000000000000000000000000000000000000000000000815260040161287790614639565b60405180910390fd5b3373ffffffffffffffffffffffffffffffffffffffff166128c16008846040516128aa91906142d6565b908152602001604051809103902060000154610b1f565b73ffffffffffffffffffffffffffffffffffffffff1614612917576040517f08c379a000000000000000000000000000000000000000000000000000000000815260040161290e90614479565b60405180910390fd5b8060088360405161292891906142d6565b9081526020016040518091039020600101908051906020019061294c929190613688565b507f6714407191569b7b9edd5db2d624b8e2281272e577950f0e87ca156570ffe9e48260405161297c9190614457565b60405180910390a15050565b600760009054906101000a900473ffffffffffffffffffffffffffffffffffffffff1681565b60007f01ffc9a7000000000000000000000000000000000000000000000000000000007bffffffffffffffffffffffffffffffffffffffffffffffffffffffff1916827bffffffffffffffffffffffffffffffffffffffffffffffffffffffff1916149050919050565b612a2181613458565b612a60576040517f08c379a0000000000000000000000000000000000000000000000000000000008152600401612a5790614659565b60405180910390fd5b50565b600033905090565b816004600083815260200190815260200160002060006101000a81548173ffffffffffffffffffffffffffffffffffffffff021916908373ffffffffffffffffffffffffffffffffffffffff160217905550808273ffffffffffffffffffffffffffffffffffffffff16612ade83610b1f565b73ffffffffffffffffffffffffffffffffffffffff167f8c5be1e5ebec7d5bd14f71427d1e84f3dd0314c0f7b2291e5b200ac8c7c3b92560405160405180910390a45050565b8273ffffffffffffffffffffffffffffffffffffffff16612b4482610b1f565b73ffffffffffffffffffffffffffffffffffffffff1614612b9a576040517f08c379a0000000000000000000000000000000000000000000000000000000008152600401612b91906144d9565b60405180910390fd5b600073ffffffffffffffffffffffffffffffffffffffff168273ffffffffffffffffffffffffffffffffffffffff161415612c0a576040517f08c379a0000000000000000000000000000000000000000000000000000000008152600401612c0190614539565b60405180910390fd5b612c158383836134c4565b612c20600082612a6b565b6001600360008573ffffffffffffffffffffffffffffffffffffffff1673ffffffffffffffffffffffffffffffffffffffff1681526020019081526020016000206000828254612c7091906149ca565b925050819055506001600360008473ffffffffffffffffffffffffffffffffffffffff1673ffffffffffffffffffffffffffffffffffffffff1681526020019081526020016000206000828254612cc79190614943565b92505081905550816002600083815260200190815260200160002060006101000a81548173ffffffffffffffffffffffffffffffffffffffff021916908373ffffffffffffffffffffffffffffffffffffffff160217905550808273ffffffffffffffffffffffffffffffffffffffff168473ffffffffffffffffffffffffffffffffffffffff167fddf252ad1be2c89b69c2b068fc378daa952ba7f163c4a11628f55a4df523b3ef60405160405180910390a4612d868383836134c9565b505050565b600080612d9783610b1f565b90508073ffffffffffffffffffffffffffffffffffffffff168473ffffffffffffffffffffffffffffffffffffffff161480612dd95750612dd88185612699565b5b80612e1757508373ffffffffffffffffffffffffffffffffffffffff16612dff8461072d565b73ffffffffffffffffffffffffffffffffffffffff16145b91505092915050565b600073ffffffffffffffffffffffffffffffffffffffff168273ffffffffffffffffffffffffffffffffffffffff161415612e90576040517f08c379a0000000000000000000000000000000000000000000000000000000008152600401612e8790614619565b60405180910390fd5b612e9981613458565b15612ed9576040517f08c379a0000000000000000000000000000000000000000000000000000000008152600401612ed0906144f9565b60405180910390fd5b612ee5600083836134c4565b6001600360008473ffffffffffffffffffffffffffffffffffffffff1673ffffffffffffffffffffffffffffffffffffffff1681526020019081526020016000206000828254612f359190614943565b92505081905550816002600083815260200190815260200160002060006101000a81548173ffffffffffffffffffffffffffffffffffffffff021916908373ffffffffffffffffffffffffffffffffffffffff160217905550808273ffffffffffffffffffffffffffffffffffffffff16600073ffffffffffffffffffffffffffffffffffffffff167fddf252ad1be2c89b69c2b068fc378daa952ba7f163c4a11628f55a4df523b3ef60405160405180910390a4612ff6600083836134c9565b5050565b8173ffffffffffffffffffffffffffffffffffffffff168373ffffffffffffffffffffffffffffffffffffffff161415613069576040517f08c379a000000000000000000000000000000000000000000000000000000000815260040161306090614559565b60405180910390fd5b80600560008573ffffffffffffffffffffffffffffffffffffffff1673ffffffffffffffffffffffffffffffffffffffff16815260200190815260200160002060008473ffffffffffffffffffffffffffffffffffffffff1673ffffffffffffffffffffffffffffffffffffffff16815260200190815260200160002060006101000a81548160ff0219169083151502179055508173ffffffffffffffffffffffffffffffffffffffff168373ffffffffffffffffffffffffffffffffffffffff167f17307eab39ab6107e8899845ad3d59bd9653f200f220920489ca2b5937696c318360405161315a919061443c565b60405180910390a3505050565b613172848484612b24565b61317e848484846134ce565b6131bd576040517f08c379a00000000000000000000000000000000000000000000000000000000081526004016131b490614499565b60405180910390fd5b50505050565b606060405180602001604052806000815250905090565b60606000821415613222576040518060400160405280600181526020017f30000000000000000000000000000000000000000000000000000000000000008152509050613336565b600082905060005b6000821461325457808061323d90614b61565b915050600a8261324d9190614999565b915061322a565b60008167ffffffffffffffff8111156132705761326f614cf5565b5b6040519080825280601f01601f1916602001820160405280156132a25781602001600182028036833780820191505090505b5090505b6000851461332f576001826132bb91906149ca565b9150600a856132ca9190614baa565b60306132d69190614943565b60f81b8183815181106132ec576132eb614cc6565b5b60200101907effffffffffffffffffffffffffffffffffffffffffffffffffffffffffffff1916908160001a905350600a856133289190614999565b94506132a6565b8093505050505b919050565b600061334682610b1f565b9050613354816000846134c4565b61335f600083612a6b565b6001600360008373ffffffffffffffffffffffffffffffffffffffff1673ffffffffffffffffffffffffffffffffffffffff16815260200190815260200160002060008282546133af91906149ca565b925050819055506002600083815260200190815260200160002060006101000a81549073ffffffffffffffffffffffffffffffffffffffff021916905581600073ffffffffffffffffffffffffffffffffffffffff168273ffffffffffffffffffffffffffffffffffffffff167fddf252ad1be2c89b69c2b068fc378daa952ba7f163c4a11628f55a4df523b3ef60405160405180910390a4613454816000846134c9565b5050565b60008073ffffffffffffffffffffffffffffffffffffffff166002600084815260200190815260200160002060009054906101000a900473ffffffffffffffffffffffffffffffffffffffff1673ffffffffffffffffffffffffffffffffffffffff1614159050919050565b505050565b505050565b60006134ef8473ffffffffffffffffffffffffffffffffffffffff16613665565b15613658578373ffffffffffffffffffffffffffffffffffffffff1663150b7a02613518612a63565b8786866040518563ffffffff1660e01b815260040161353a9493929190614343565b602060405180830381600087803b15801561355457600080fd5b505af192505050801561358557506040513d601f19601f820116820180604052508101906135829190613b31565b60015b613608573d80600081146135b5576040519150601f19603f3d011682016040523d82523d6000602084013e6135ba565b606091505b50600081511415613600576040517f08c379a00000000000000000000000000000000000000000000000000000000081526004016135f790614499565b60405180910390fd5b805181602001fd5b63150b7a0260e01b7bffffffffffffffffffffffffffffffffffffffffffffffffffffffff1916817bffffffffffffffffffffffffffffffffffffffffffffffffffffffff19161491505061365d565b600190505b949350505050565b6000808273ffffffffffffffffffffffffffffffffffffffff163b119050919050565b82805461369490614afe565b90600052602060002090601f0160209004810192826136b657600085556136fd565b82601f106136cf57805160ff19168380011785556136fd565b828001600101855582156136fd579182015b828111156136fc5782518255916020019190600101906136e1565b5b50905061370a91906137db565b5090565b50805461371a90614afe565b6000825580601f1061372c575061374b565b601f01602090049060005260206000209081019061374a91906137db565b5b50565b82805461375a90614afe565b90600052602060002090601f01602090048101928261377c57600085556137ca565b82601f1061378d57805485556137ca565b828001600101855582156137ca57600052602060002091601f016020900482015b828111156137c95782548255916001019190600101906137ae565b5b5090506137d791906137db565b5090565b5b808211156137f45760008160009055506001016137dc565b5090565b600061380b613806846147cd565b6147a8565b90508281526020810184848401111561382757613826614d29565b5b613832848285614abc565b509392505050565b600061384d613848846147fe565b6147a8565b90508281526020810184848401111561386957613868614d29565b5b613874848285614abc565b509392505050565b60008135905061388b81615290565b92915050565b6000813590506138a0816152a7565b92915050565b6000813590506138b5816152be565b92915050565b6000815190506138ca816152be565b92915050565b600082601f8301126138e5576138e4614d24565b5b81356138f58482602086016137f8565b91505092915050565b600082601f83011261391357613912614d24565b5b813561392384826020860161383a565b91505092915050565b60008135905061393b816152d5565b92915050565b60006020828403121561395757613956614d33565b5b60006139658482850161387c565b91505092915050565b6000806040838503121561398557613984614d33565b5b60006139938582860161387c565b92505060206139a48582860161387c565b9150509250929050565b6000806000606084860312156139c7576139c6614d33565b5b60006139d58682870161387c565b93505060206139e68682870161387c565b92505060406139f78682870161392c565b9150509250925092565b60008060008060808587031215613a1b57613a1a614d33565b5b6000613a298782880161387c565b9450506020613a3a8782880161387c565b9350506040613a4b8782880161392c565b925050606085013567ffffffffffffffff811115613a6c57613a6b614d2e565b5b613a78878288016138d0565b91505092959194509250565b60008060408385031215613a9b57613a9a614d33565b5b6000613aa98582860161387c565b9250506020613aba85828601613891565b9150509250929050565b60008060408385031215613adb57613ada614d33565b5b6000613ae98582860161387c565b9250506020613afa8582860161392c565b9150509250929050565b600060208284031215613b1a57613b19614d33565b5b6000613b28848285016138a6565b91505092915050565b600060208284031215613b4757613b46614d33565b5b6000613b55848285016138bb565b91505092915050565b600060208284031215613b7457613b73614d33565b5b600082013567ffffffffffffffff811115613b9257613b91614d2e565b5b613b9e848285016138fe565b91505092915050565b60008060408385031215613bbe57613bbd614d33565b5b600083013567ffffffffffffffff811115613bdc57613bdb614d2e565b5b613be8858286016138fe565b9250506020613bf98582860161387c565b9150509250929050565b60008060408385031215613c1a57613c19614d33565b5b600083013567ffffffffffffffff811115613c3857613c37614d2e565b5b613c44858286016138fe565b9250506020613c5585828601613891565b9150509250929050565b60008060408385031215613c7657613c75614d33565b5b600083013567ffffffffffffffff811115613c9457613c93614d2e565b5b613ca0858286016138fe565b925050602083013567ffffffffffffffff811115613cc157613cc0614d2e565b5b613ccd858286016138fe565b9150509250929050565b600060208284031215613ced57613cec614d33565b5b6000613cfb8482850161392c565b91505092915050565b6000613d108383613d48565b60208301905092915050565b6000613d288383613efd565b905092915050565b6000613d3c83836142b8565b60208301905092915050565b613d51816149fe565b82525050565b613d60816149fe565b82525050565b6000613d7182614874565b613d7b81856148d2565b9350613d868361482f565b8060005b83811015613db7578151613d9e8882613d04565b9750613da9836148ab565b925050600181019050613d8a565b5085935050505092915050565b6000613dcf8261487f565b613dd981856148e3565b935083602082028501613deb8561483f565b8060005b85811015613e275784840389528151613e088582613d1c565b9450613e13836148b8565b925060208a01995050600181019050613def565b50829750879550505050505092915050565b6000613e448261488a565b613e4e81856148f4565b9350613e598361484f565b8060005b83811015613e8a578151613e718882613d30565b9750613e7c836148c5565b925050600181019050613e5d565b5085935050505092915050565b613ea081614a10565b82525050565b6000613eb182614895565b613ebb8185614905565b9350613ecb818560208601614acb565b613ed481614d38565b840191505092915050565b613ee881614a98565b82525050565b613ef781614aaa565b82525050565b6000613f08826148a0565b613f128185614916565b9350613f22818560208601614acb565b613f2b81614d38565b840191505092915050565b6000613f41826148a0565b613f4b8185614927565b9350613f5b818560208601614acb565b613f6481614d38565b840191505092915050565b6000613f7a826148a0565b613f848185614938565b9350613f94818560208601614acb565b80840191505092915050565b60008154613fad81614afe565b613fb78186614938565b94506001821660008114613fd25760018114613fe357614016565b60ff19831686528186019350614016565b613fec8561485f565b60005b8381101561400e57815481890152600182019150602081019050613fef565b838801955050505b50505092915050565b600061402c602a83614927565b915061403782614d49565b604082019050919050565b600061404f603283614927565b915061405a82614d98565b604082019050919050565b6000614072602b83614927565b915061407d82614de7565b604082019050919050565b6000614095602583614927565b91506140a082614e36565b604082019050919050565b60006140b8601c83614927565b91506140c382614e85565b602082019050919050565b60006140db602883614927565b91506140e682614eae565b604082019050919050565b60006140fe602483614927565b915061410982614efd565b604082019050919050565b6000614121601983614927565b915061412c82614f4c565b602082019050919050565b6000614144602983614927565b915061414f82614f75565b604082019050919050565b6000614167601583614927565b915061417282614fc4565b602082019050919050565b600061418a604083614927565b915061419582614fed565b604082019050919050565b60006141ad604183614927565b91506141b88261503c565b606082019050919050565b60006141d0603e83614927565b91506141db826150b1565b604082019050919050565b60006141f3602083614927565b91506141fe82615100565b602082019050919050565b6000614216601583614927565b915061422182615129565b602082019050919050565b6000614239601883614927565b915061424482615152565b602082019050919050565b600061425c602183614927565b91506142678261517b565b604082019050919050565b600061427f602983614927565b915061428a826151ca565b604082019050919050565b60006142a2602e83614927565b91506142ad82615219565b604082019050919050565b6142c181614a8e565b82525050565b6142d081614a8e565b82525050565b60006142e28284613f6f565b915081905092915050565b60006142f98285613f6f565b91506143058284613f6f565b91508190509392505050565b600061431d8284613fa0565b915081905092915050565b600060208201905061433d6000830184613d57565b92915050565b60006080820190506143586000830187613d57565b6143656020830186613d57565b61437260408301856142c7565b81810360608301526143848184613ea6565b905095945050505050565b600060208201905081810360008301526143a98184613dc4565b905092915050565b600060c08201905081810360008301526143cb8189613dc4565b905081810360208301526143df8188613e39565b905081810360408301526143f38187613dc4565b905081810360608301526144078186613dc4565b9050818103608083015261441b8185613dc4565b905081810360a083015261442f8184613d66565b9050979650505050505050565b60006020820190506144516000830184613e97565b92915050565b600060208201905081810360008301526144718184613f36565b905092915050565b600060208201905081810360008301526144928161401f565b9050919050565b600060208201905081810360008301526144b281614042565b9050919050565b600060208201905081810360008301526144d281614065565b9050919050565b600060208201905081810360008301526144f281614088565b9050919050565b60006020820190508181036000830152614512816140ab565b9050919050565b60006020820190508181036000830152614532816140ce565b9050919050565b60006020820190508181036000830152614552816140f1565b9050919050565b6000602082019050818103600083015261457281614114565b9050919050565b6000602082019050818103600083015261459281614137565b9050919050565b600060208201905081810360008301526145b28161415a565b9050919050565b600060208201905081810360008301526145d28161417d565b9050919050565b600060208201905081810360008301526145f2816141a0565b9050919050565b60006020820190508181036000830152614612816141c3565b9050919050565b60006020820190508181036000830152614632816141e6565b9050919050565b6000602082019050818103600083015261465281614209565b9050919050565b600060208201905081810360008301526146728161422c565b9050919050565b600060208201905081810360008301526146928161424f565b9050919050565b600060208201905081810360008301526146b281614272565b9050919050565b600060208201905081810360008301526146d281614295565b9050919050565b60006020820190506146ee60008301846142c7565b92915050565b600060808201905061470960008301876142c7565b818103602083015261471b8186613f36565b905061472a6040830185613edf565b6147376060830184613eee565b95945050505050565b600060a08201905061475560008301886142c7565b81810360208301526147678187613f36565b9050818103604083015261477b8186613f36565b9050818103606083015261478f8185613f36565b905061479e6080830184613d57565b9695505050505050565b60006147b26147c3565b90506147be8282614b30565b919050565b6000604051905090565b600067ffffffffffffffff8211156147e8576147e7614cf5565b5b6147f182614d38565b9050602081019050919050565b600067ffffffffffffffff82111561481957614818614cf5565b5b61482282614d38565b9050602081019050919050565b6000819050602082019050919050565b6000819050602082019050919050565b6000819050602082019050919050565b60008190508160005260206000209050919050565b600081519050919050565b600081519050919050565b600081519050919050565b600081519050919050565b600081519050919050565b6000602082019050919050565b6000602082019050919050565b6000602082019050919050565b600082825260208201905092915050565b600082825260208201905092915050565b600082825260208201905092915050565b600082825260208201905092915050565b600082825260208201905092915050565b600082825260208201905092915050565b600081905092915050565b600061494e82614a8e565b915061495983614a8e565b9250827fffffffffffffffffffffffffffffffffffffffffffffffffffffffffffffffff0382111561498e5761498d614bdb565b5b828201905092915050565b60006149a482614a8e565b91506149af83614a8e565b9250826149bf576149be614c0a565b5b828204905092915050565b60006149d582614a8e565b91506149e083614a8e565b9250828210156149f3576149f2614bdb565b5b828203905092915050565b6000614a0982614a6e565b9050919050565b60008115159050919050565b60007fffffffff0000000000000000000000000000000000000000000000000000000082169050919050565b6000819050614a5682615268565b919050565b6000819050614a698261527c565b919050565b600073ffffffffffffffffffffffffffffffffffffffff82169050919050565b6000819050919050565b6000614aa382614a48565b9050919050565b6000614ab582614a5b565b9050919050565b82818337600083830152505050565b60005b83811015614ae9578082015181840152602081019050614ace565b83811115614af8576000848401525b50505050565b60006002820490506001821680614b1657607f821691505b60208210811415614b2a57614b29614c68565b5b50919050565b614b3982614d38565b810181811067ffffffffffffffff82111715614b5857614b57614cf5565b5b80604052505050565b6000614b6c82614a8e565b91507fffffffffffffffffffffffffffffffffffffffffffffffffffffffffffffffff821415614b9f57614b9e614bdb565b5b600182019050919050565b6000614bb582614a8e565b9150614bc083614a8e565b925082614bd057614bcf614c0a565b5b828206905092915050565b7f4e487b7100000000000000000000000000000000000000000000000000000000600052601160045260246000fd5b7f4e487b7100000000000000000000000000000000000000000000000000000000600052601260045260246000fd5b7f4e487b7100000000000000000000000000000000000000000000000000000000600052602160045260246000fd5b7f4e487b7100000000000000000000000000000000000000000000000000000000600052602260045260246000fd5b7f4e487b7100000000000000000000000000000000000000000000000000000000600052603160045260246000fd5b7f4e487b7100000000000000000000000000000000000000000000000000000000600052603260045260246000fd5b7f4e487b7100000000000000000000000000000000000000000000000000000000600052604160045260246000fd5b600080fd5b600080fd5b600080fd5b600080fd5b6000601f19601f8301169050919050565b7f4f6e6c792074686520746f6b656e206f776e65722063616e207570646174652060008201527f74686520746f6b656e2e00000000000000000000000000000000000000000000602082015250565b7f4552433732313a207472616e7366657220746f206e6f6e20455243373231526560008201527f63656976657220696d706c656d656e7465720000000000000000000000000000602082015250565b7f4f6e6c792074686520746f6b656e206f776e65722063616e2064657374726f7960008201527f2074686520746f6b656e2e000000000000000000000000000000000000000000602082015250565b7f4552433732313a207472616e736665722066726f6d20696e636f72726563742060008201527f6f776e6572000000000000000000000000000000000000000000000000000000602082015250565b7f4552433732313a20746f6b656e20616c7265616479206d696e74656400000000600082015250565b7f4f6e6c7920746f6b656e206f776e65722063616e207472616e7366657220746860008201527f6520746f6b656e2e000000000000000000000000000000000000000000000000602082015250565b7f4552433732313a207472616e7366657220746f20746865207a65726f2061646460008201527f7265737300000000000000000000000000000000000000000000000000000000602082015250565b7f4552433732313a20617070726f766520746f2063616c6c657200000000000000600082015250565b7f4552433732313a2061646472657373207a65726f206973206e6f74206120766160008201527f6c6964206f776e65720000000000000000000000000000000000000000000000602082015250565b7f546f6b656e20616c7265616479206578697374732e0000000000000000000000600082015250565b7f4f6e6c792074686520746f6b656e206f776e65722063616e207570646174652060008201527f7265636f676e6974696f6e20737461747573206f662074686520746f6b656e2e602082015250565b7f4f6e6c792074686520746f6b656e206f776e65722063616e207570646174652060008201527f766572696669636174696f6e20737461747573206f662074686520746f6b656e60208201527f2e00000000000000000000000000000000000000000000000000000000000000604082015250565b7f4552433732313a20617070726f76652063616c6c6572206973206e6f7420746f60008201527f6b656e206f776e6572206e6f7220617070726f76656420666f7220616c6c0000602082015250565b7f4552433732313a206d696e7420746f20746865207a65726f2061646472657373600082015250565b7f546f6b656e20646f6573206e6f742065786973742e0000000000000000000000600082015250565b7f4552433732313a20696e76616c696420746f6b656e2049440000000000000000600082015250565b7f4552433732313a20617070726f76616c20746f2063757272656e74206f776e6560008201527f7200000000000000000000000000000000000000000000000000000000000000602082015250565b7f4f6e6c7920636f6e7472616374206f776e65722063616e20717565727920616c60008201527f6c20746f6b656e732e0000000000000000000000000000000000000000000000602082015250565b7f4552433732313a2063616c6c6572206973206e6f7420746f6b656e206f776e6560008201527f72206e6f7220617070726f766564000000000000000000000000000000000000602082015250565b6003811061527957615278614c39565b5b50565b6003811061528d5761528c614c39565b5b50565b615299816149fe565b81146152a457600080fd5b50565b6152b081614a10565b81146152bb57600080fd5b50565b6152c781614a1c565b81146152d257600080fd5b50565b6152de81614a8e565b81146152e957600080fd5b5056fea26469706673582212201ad12e51518db9e5d39db9eefb640bfb666718c286740fa6f94bcc47bb00505d64736f6c63430008070033",
  "immutableReferences": {},
  "source": "// SPDX-License-Identifier: MIT\npragma solidity ^0.8.0;\n\nimport \"../node_modules/@openzeppelin/contracts/token/ERC721/ERC721.sol\";\n\ncontract DigitalTwin is ERC721 {\n    string[] public alltks; // to record all all tks\n    address public admin;\n\n    /**\n     * Recognition: Packaging\n     * Verification: Product\n     */\n    enum Recognitionstatus {\n        PENDING,\n        VERIFIED,\n        DENIED\n    }\n\n    enum Verificationstatus {\n        PENDING,\n        VERIFIED,\n        DENIED\n    }\n\n    struct TkDetails {\n        uint256 id;\n        string metadata;\n        Recognitionstatus rstatus;\n        Verificationstatus vstatus;\n    }\n\n    mapping(string => TkDetails) public tks; // mapping of tkname => ProductTk struct\n    mapping(string => bool) public tkExists;\n\n    event TokenUpdated(string tkname);\n    event TokenVerified(string tkname);\n\n    constructor(string memory _name, string memory _symbol)\n        ERC721(_name, _symbol)\n    {\n        admin = msg.sender;\n    }\n\n    function mint(string memory _tkname, string memory _metadata) public {\n\n        require(!tkExists[_tkname], \"Token already exists.\");\n\n        alltks.push(_tkname);\n        uint256 id = alltks.length;\n        _mint(msg.sender, id);\n        \n        tks[_tkname].id = id;\n        tks[_tkname].metadata = _metadata;\n        tks[_tkname].rstatus = Recognitionstatus.PENDING;\n        tks[_tkname].vstatus = Verificationstatus.PENDING;\n\n        tkExists[_tkname] = true;\n    }\n\n    /**\n     * update only updates the metadata of an existing token\n     */\n    function update(string memory _tkname, string memory _metadata) public {\n\n        require(tkExists[_tkname], \"Token does not exist.\");\n        require(\n            ownerOf(tks[_tkname].id) == address(msg.sender),\n            \"Only the token owner can update the token.\"\n        );\n\n        tks[_tkname].metadata = _metadata;\n\n        emit TokenUpdated(_tkname);\n    }\n\n    /**\n     * recognize is called by processor upon optical verification of the product\n     */\n    function recognize(string memory _tkname, bool _status) public {\n\n        require(tkExists[_tkname], \"Token does not exist.\");\n        require(msg.sender == admin, \"Only the token owner can update recognition status of the token.\");\n\n        if (_status == true) {\n            tks[_tkname].rstatus = Recognitionstatus.VERIFIED;\n        }\n        else {\n            tks[_tkname].rstatus = Recognitionstatus.DENIED;\n        }\n\n        emit TokenVerified(_tkname);\n    }\n\n    /**\n     * verify is called by processor upon optical verification of the product\n     */\n    function verify(string memory _tkname, bool _status) public {\n\n        require(tkExists[_tkname], \"Token does not exist.\");\n        require(msg.sender == admin, \"Only the token owner can update verification status of the token.\");\n\n        if (_status == true) {\n            tks[_tkname].vstatus = Verificationstatus.VERIFIED;\n        }\n        else {\n            tks[_tkname].vstatus = Verificationstatus.DENIED;\n        }\n\n        emit TokenVerified(_tkname);\n    }\n\n    function burn(string memory _tkname) public {\n        uint i = 0;\n        uint j;\n\n        require(tkExists[_tkname], \"Token does not exist.\");\n        require(\n            ownerOf(tks[_tkname].id) == address(msg.sender),\n            \"Only the token owner can destroy the token.\"\n        );\n\n        _burn(tks[_tkname].id); // transfer the token to the 0x address\n        tkExists[_tkname] = false; // change existence to false\n        delete tks[_tkname]; // delete token from the mapping\n\n        /// @notice: 1. find the index of an element\n        /// @notice: 2. to remove an element - shift the elements after the index and remove the last\n        while (keccak256(abi.encodePacked(alltks[i])) != keccak256(abi.encodePacked(_tkname))) {\n            i++;\n        }\n        \n        for (j=i; j<alltks.length-1; j++) {\n            alltks[j] = alltks[j+1];\n        }\n        \n        alltks.pop(); // remove the token from the alltks list\n    }\n\n    /// @notice tx.origin is the user account that starts the call, msg.sender is the contract that calls this contract\n    function transferByName(string memory _tkname, address _to) public {\n        require(tkExists[_tkname], \"Token does not exist.\");\n        require(ownerOf(tks[_tkname].id) == tx.origin, \"Only token owner can transfer the token.\");\n\n        _transfer(tx.origin,_to,tks[_tkname].id);\n    }\n\n    function approveByName(string memory _tkname, address _to) public {\n        require(tkExists[_tkname], \"Token does not exist.\");\n        require(ownerOf(tks[_tkname].id) == tx.origin, \"Only token owner can transfer the token.\");\n\n        _approve(_to, tks[_tkname].id);\n    }\n\n    /**\n     * @notice for js client to interact\n     */\n    function queryToken(string memory _tkname)\n        public\n        view\n        returns (uint256, string memory, string memory, string memory, address)\n    {\n        require(tkExists[_tkname], \"Token does not exist.\");\n        \n        string memory rstatus;\n        string memory vstatus;\n\n        if (tks[_tkname].rstatus == Recognitionstatus.PENDING) {\n            rstatus = \"pending packaging verification\";\n        } else if (tks[_tkname].rstatus == Recognitionstatus.VERIFIED) {\n            rstatus = \"packaging verified\";\n        } else {\n            rstatus = \"packaging denied\";\n        }\n\n        if (tks[_tkname].vstatus == Verificationstatus.PENDING) {\n            vstatus = \"pending product verification\";\n        } else if (tks[_tkname].vstatus == Verificationstatus.VERIFIED) {\n            vstatus = \"product verified\";\n        } else {\n            vstatus = \"product denied\";\n        }\n\n        return (tks[_tkname].id, tks[_tkname].metadata, rstatus, vstatus, ownerOf(tks[_tkname].id));\n    }\n\n    /**\n     * query the metadata of a token\n     */\n    function countToken() public view returns (uint256) {\n        require(msg.sender == admin); // require caller to be the contract owner\n        return alltks.length;\n    }\n\n    function queryAll() public view returns (string[] memory) {\n        require(msg.sender == admin, \"Only contract owner can query all tokens.\"); // require caller to be the contract owner\n        return alltks;\n    }\n\n    function queryAllFields() \n        public \n        view \n        returns \n    (\n        string[] memory, \n        uint256[] memory, \n        string[] memory, \n        string[] memory, \n        string[] memory,\n        address[] memory\n    ) \n    {\n        uint256[] memory internal_id = new uint256[](alltks.length);\n        string[] memory metadata = new string[](alltks.length);\n        string[] memory rstatus = new string[](alltks.length);\n        string[] memory vstatus = new string[](alltks.length);\n        address[] memory owner = new address[](alltks.length);\n\n        for(uint i=0; i<alltks.length; i++){\n            internal_id[i] = tks[alltks[i]].id;\n            metadata[i] = tks[alltks[i]].metadata;\n\n            if (tks[alltks[i]].rstatus == Recognitionstatus.PENDING) {\n                rstatus[i] = \"pending packaging verification\";\n            } else if (tks[alltks[i]].rstatus == Recognitionstatus.VERIFIED) {\n                rstatus[i] = \"packaging verified\";\n            } else {\n                rstatus[i] = \"packaging denied\";\n            }\n\n            if (tks[alltks[i]].vstatus == Verificationstatus.PENDING) {\n                vstatus[i] = \"pending product verification\";\n            } else if (tks[alltks[i]].vstatus == Verificationstatus.VERIFIED) {\n                vstatus[i] = \"product verified\";\n            } else {\n                vstatus[i] = \"product denied\";\n            }\n\n            owner[i] = ownerOf(tks[alltks[i]].id);\n        }\n\n        return (alltks, internal_id, metadata, rstatus, vstatus, owner);\n    }\n}\n",
  "sourcePath": "/home/yih/Documents/dev/beston-dapps/contracts/DigitalTwin.sol",
  "compiler": {
    "name": "solc",
    "version": "0.8.7+commit.e28d00a7.Emscripten.clang"
  },
  "schemaVersion": "3.4.1",
  "updatedAt": "2023-03-17T04:12:23.315Z",
  "networkType": "ethereum",
  "devdoc": {
    "kind": "dev",
    "methods": {
      "approve(address,uint256)": {
        "details": "See {IERC721-approve}."
      },
      "balanceOf(address)": {
        "details": "See {IERC721-balanceOf}."
      },
      "getApproved(uint256)": {
        "details": "See {IERC721-getApproved}."
      },
      "isApprovedForAll(address,address)": {
        "details": "See {IERC721-isApprovedForAll}."
      },
      "name()": {
        "details": "See {IERC721Metadata-name}."
      },
      "ownerOf(uint256)": {
        "details": "See {IERC721-ownerOf}."
      },
      "safeTransferFrom(address,address,uint256)": {
        "details": "See {IERC721-safeTransferFrom}."
      },
      "safeTransferFrom(address,address,uint256,bytes)": {
        "details": "See {IERC721-safeTransferFrom}."
      },
      "setApprovalForAll(address,bool)": {
        "details": "See {IERC721-setApprovalForAll}."
      },
      "supportsInterface(bytes4)": {
        "details": "See {IERC165-supportsInterface}."
      },
      "symbol()": {
        "details": "See {IERC721Metadata-symbol}."
      },
      "tokenURI(uint256)": {
        "details": "See {IERC721Metadata-tokenURI}."
      },
      "transferFrom(address,address,uint256)": {
        "details": "See {IERC721-transferFrom}."
      }
    },
    "version": 1
  },
  "userdoc": {
    "kind": "user",
    "methods": {
      "countToken()": {
        "notice": "query the metadata of a token"
      },
      "queryToken(string)": {
        "notice": "for js client to interact"
      },
      "recognize(string,bool)": {
        "notice": "recognize is called by processor upon optical verification of the product"
      },
      "transferByName(string,address)": {
        "notice": "tx.origin is the user account that starts the call, msg.sender is the contract that calls this contract"
      },
      "update(string,string)": {
        "notice": "update only updates the metadata of an existing token"
      },
      "verify(string,bool)": {
        "notice": "verify is called by processor upon optical verification of the product"
      }
    },
    "version": 1
  }
}