{
  "contractName": "DigitalTwin",
  "abi": [
    {
      "inputs": [
        {
          "internalType": "string",
          "name": "_name",
          "type": "string"
        },
        {
          "internalType": "string",
          "name": "_symbol",
          "type": "string"
        }
      ],
      "stateMutability": "nonpayable",
      "type": "constructor"
    },
    {
      "anonymous": false,
      "inputs": [
        {
          "indexed": true,
          "internalType": "address",
          "name": "owner",
          "type": "address"
        },
        {
          "indexed": true,
          "internalType": "address",
          "name": "approved",
          "type": "address"
        },
        {
          "indexed": true,
          "internalType": "uint256",
          "name": "tokenId",
          "type": "uint256"
        }
      ],
      "name": "Approval",
      "type": "event"
    },
    {
      "anonymous": false,
      "inputs": [
        {
          "indexed": true,
          "internalType": "address",
          "name": "owner",
          "type": "address"
        },
        {
          "indexed": true,
          "internalType": "address",
          "name": "operator",
          "type": "address"
        },
        {
          "indexed": false,
          "internalType": "bool",
          "name": "approved",
          "type": "bool"
        }
      ],
      "name": "ApprovalForAll",
      "type": "event"
    },
    {
      "anonymous": false,
      "inputs": [
        {
          "indexed": false,
          "internalType": "string",
          "name": "tkname",
          "type": "string"
        }
      ],
      "name": "TokenUpdated",
      "type": "event"
    },
    {
      "anonymous": false,
      "inputs": [
        {
          "indexed": false,
          "internalType": "string",
          "name": "tkname",
          "type": "string"
        }
      ],
      "name": "TokenVerified",
      "type": "event"
    },
    {
      "anonymous": false,
      "inputs": [
        {
          "indexed": true,
          "internalType": "address",
          "name": "from",
          "type": "address"
        },
        {
          "indexed": true,
          "internalType": "address",
          "name": "to",
          "type": "address"
        },
        {
          "indexed": true,
          "internalType": "uint256",
          "name": "tokenId",
          "type": "uint256"
        }
      ],
      "name": "Transfer",
      "type": "event"
    },
    {
      "inputs": [],
      "name": "admin",
      "outputs": [
        {
          "internalType": "address",
          "name": "",
          "type": "address"
        }
      ],
      "stateMutability": "view",
      "type": "function",
      "constant": true
    },
    {
      "inputs": [
        {
          "internalType": "uint256",
          "name": "",
          "type": "uint256"
        }
      ],
      "name": "alltks",
      "outputs": [
        {
          "internalType": "string",
          "name": "",
          "type": "string"
        }
      ],
      "stateMutability": "view",
      "type": "function",
      "constant": true
    },
    {
      "inputs": [
        {
          "internalType": "address",
          "name": "to",
          "type": "address"
        },
        {
          "internalType": "uint256",
          "name": "tokenId",
          "type": "uint256"
        }
      ],
      "name": "approve",
      "outputs": [],
      "stateMutability": "nonpayable",
      "type": "function"
    },
    {
      "inputs": [
        {
          "internalType": "address",
          "name": "owner",
          "type": "address"
        }
      ],
      "name": "balanceOf",
      "outputs": [
        {
          "internalType": "uint256",
          "name": "",
          "type": "uint256"
        }
      ],
      "stateMutability": "view",
      "type": "function",
      "constant": true
    },
    {
      "inputs": [
        {
          "internalType": "uint256",
          "name": "tokenId",
          "type": "uint256"
        }
      ],
      "name": "getApproved",
      "outputs": [
        {
          "internalType": "address",
          "name": "",
          "type": "address"
        }
      ],
      "stateMutability": "view",
      "type": "function",
      "constant": true
    },
    {
      "inputs": [
        {
          "internalType": "address",
          "name": "owner",
          "type": "address"
        },
        {
          "internalType": "address",
          "name": "operator",
          "type": "address"
        }
      ],
      "name": "isApprovedForAll",
      "outputs": [
        {
          "internalType": "bool",
          "name": "",
          "type": "bool"
        }
      ],
      "stateMutability": "view",
      "type": "function",
      "constant": true
    },
    {
      "inputs": [],
      "name": "name",
      "outputs": [
        {
          "internalType": "string",
          "name": "",
          "type": "string"
        }
      ],
      "stateMutability": "view",
      "type": "function",
      "constant": true
    },
    {
      "inputs": [
        {
          "internalType": "uint256",
          "name": "tokenId",
          "type": "uint256"
        }
      ],
      "name": "ownerOf",
      "outputs": [
        {
          "internalType": "address",
          "name": "",
          "type": "address"
        }
      ],
      "stateMutability": "view",
      "type": "function",
      "constant": true
    },
    {
      "inputs": [
        {
          "internalType": "address",
          "name": "from",
          "type": "address"
        },
        {
          "internalType": "address",
          "name": "to",
          "type": "address"
        },
        {
          "internalType": "uint256",
          "name": "tokenId",
          "type": "uint256"
        }
      ],
      "name": "safeTransferFrom",
      "outputs": [],
      "stateMutability": "nonpayable",
      "type": "function"
    },
    {
      "inputs": [
        {
          "internalType": "address",
          "name": "from",
          "type": "address"
        },
        {
          "internalType": "address",
          "name": "to",
          "type": "address"
        },
        {
          "internalType": "uint256",
          "name": "tokenId",
          "type": "uint256"
        },
        {
          "internalType": "bytes",
          "name": "data",
          "type": "bytes"
        }
      ],
      "name": "safeTransferFrom",
      "outputs": [],
      "stateMutability": "nonpayable",
      "type": "function"
    },
    {
      "inputs": [
        {
          "internalType": "address",
          "name": "operator",
          "type": "address"
        },
        {
          "internalType": "bool",
          "name": "approved",
          "type": "bool"
        }
      ],
      "name": "setApprovalForAll",
      "outputs": [],
      "stateMutability": "nonpayable",
      "type": "function"
    },
    {
      "inputs": [
        {
          "internalType": "bytes4",
          "name": "interfaceId",
          "type": "bytes4"
        }
      ],
      "name": "supportsInterface",
      "outputs": [
        {
          "internalType": "bool",
          "name": "",
          "type": "bool"
        }
      ],
      "stateMutability": "view",
      "type": "function",
      "constant": true
    },
    {
      "inputs": [],
      "name": "symbol",
      "outputs": [
        {
          "internalType": "string",
          "name": "",
          "type": "string"
        }
      ],
      "stateMutability": "view",
      "type": "function",
      "constant": true
    },
    {
      "inputs": [
        {
          "internalType": "string",
          "name": "",
          "type": "string"
        }
      ],
      "name": "tkExists",
      "outputs": [
        {
          "internalType": "bool",
          "name": "",
          "type": "bool"
        }
      ],
      "stateMutability": "view",
      "type": "function",
      "constant": true
    },
    {
      "inputs": [
        {
          "internalType": "string",
          "name": "",
          "type": "string"
        }
      ],
      "name": "tks",
      "outputs": [
        {
          "internalType": "uint256",
          "name": "id",
          "type": "uint256"
        },
        {
          "internalType": "string",
          "name": "metadata",
          "type": "string"
        },
        {
          "internalType": "enum DigitalTwin.Recognitionstatus",
          "name": "rstatus",
          "type": "uint8"
        },
        {
          "internalType": "enum DigitalTwin.Verificationstatus",
          "name": "vstatus",
          "type": "uint8"
        }
      ],
      "stateMutability": "view",
      "type": "function",
      "constant": true
    },
    {
      "inputs": [
        {
          "internalType": "uint256",
          "name": "tokenId",
          "type": "uint256"
        }
      ],
      "name": "tokenURI",
      "outputs": [
        {
          "internalType": "string",
          "name": "",
          "type": "string"
        }
      ],
      "stateMutability": "view",
      "type": "function",
      "constant": true
    },
    {
      "inputs": [
        {
          "internalType": "address",
          "name": "from",
          "type": "address"
        },
        {
          "internalType": "address",
          "name": "to",
          "type": "address"
        },
        {
          "internalType": "uint256",
          "name": "tokenId",
          "type": "uint256"
        }
      ],
      "name": "transferFrom",
      "outputs": [],
      "stateMutability": "nonpayable",
      "type": "function"
    },
    {
      "inputs": [
        {
          "internalType": "string",
          "name": "_tkname",
          "type": "string"
        },
        {
          "internalType": "string",
          "name": "_metadata",
          "type": "string"
        }
      ],
      "name": "mint",
      "outputs": [],
      "stateMutability": "nonpayable",
      "type": "function"
    },
    {
      "inputs": [
        {
          "internalType": "string",
          "name": "_tkname",
          "type": "string"
        },
        {
          "internalType": "string",
          "name": "_metadata",
          "type": "string"
        }
      ],
      "name": "update",
      "outputs": [],
      "stateMutability": "nonpayable",
      "type": "function"
    },
    {
      "inputs": [
        {
          "internalType": "string",
          "name": "_tkname",
          "type": "string"
        },
        {
          "internalType": "bool",
          "name": "_status",
          "type": "bool"
        }
      ],
      "name": "recognize",
      "outputs": [],
      "stateMutability": "nonpayable",
      "type": "function"
    },
    {
      "inputs": [
        {
          "internalType": "string",
          "name": "_tkname",
          "type": "string"
        },
        {
          "internalType": "bool",
          "name": "_status",
          "type": "bool"
        }
      ],
      "name": "verify",
      "outputs": [],
      "stateMutability": "nonpayable",
      "type": "function"
    },
    {
      "inputs": [
        {
          "internalType": "string",
          "name": "_tkname",
          "type": "string"
        }
      ],
      "name": "burn",
      "outputs": [],
      "stateMutability": "nonpayable",
      "type": "function"
    },
    {
      "inputs": [
        {
          "internalType": "string",
          "name": "_tkname",
          "type": "string"
        },
        {
          "internalType": "address",
          "name": "_to",
          "type": "address"
        }
      ],
      "name": "transferByName",
      "outputs": [],
      "stateMutability": "nonpayable",
      "type": "function"
    },
    {
      "inputs": [
        {
          "internalType": "string",
          "name": "_tkname",
          "type": "string"
        }
      ],
      "name": "queryToken",
      "outputs": [
        {
          "internalType": "uint256",
          "name": "",
          "type": "uint256"
        },
        {
          "internalType": "string",
          "name": "",
          "type": "string"
        },
        {
          "internalType": "string",
          "name": "",
          "type": "string"
        },
        {
          "internalType": "string",
          "name": "",
          "type": "string"
        },
        {
          "internalType": "address",
          "name": "",
          "type": "address"
        }
      ],
      "stateMutability": "view",
      "type": "function",
      "constant": true
    },
    {
      "inputs": [],
      "name": "countToken",
      "outputs": [
        {
          "internalType": "uint256",
          "name": "",
          "type": "uint256"
        }
      ],
      "stateMutability": "view",
      "type": "function",
      "constant": true
    },
    {
      "inputs": [],
      "name": "queryAll",
      "outputs": [
        {
          "internalType": "string[]",
          "name": "",
          "type": "string[]"
        }
      ],
      "stateMutability": "view",
      "type": "function",
      "constant": true
    },
    {
      "inputs": [],
      "name": "queryAllFields",
      "outputs": [
        {
          "internalType": "string[]",
          "name": "",
          "type": "string[]"
        },
        {
          "internalType": "uint256[]",
          "name": "",
          "type": "uint256[]"
        },
        {
          "internalType": "string[]",
          "name": "",
          "type": "string[]"
        },
        {
          "internalType": "string[]",
          "name": "",
          "type": "string[]"
        },
        {
          "internalType": "address[]",
          "name": "",
          "type": "address[]"
        }
      ],
      "stateMutability": "view",
      "type": "function",
      "constant": true
    }
  ],
  "bytecode": "0x60806040523480156200001157600080fd5b50604051620054c0380380620054c08339818101604052810190620000379190620001e4565b8181816000908051906020019062000051929190620000b6565b5080600190805190602001906200006a929190620000b6565b50505033600760006101000a81548173ffffffffffffffffffffffffffffffffffffffff021916908373ffffffffffffffffffffffffffffffffffffffff1602179055505050620003ed565b828054620000c490620002fe565b90600052602060002090601f016020900481019282620000e8576000855562000134565b82601f106200010357805160ff191683800117855562000134565b8280016001018555821562000134579182015b828111156200013357825182559160200191906001019062000116565b5b50905062000143919062000147565b5090565b5b808211156200016257600081600090555060010162000148565b5090565b60006200017d620001778462000292565b62000269565b9050828152602081018484840111156200019c576200019b620003cd565b5b620001a9848285620002c8565b509392505050565b600082601f830112620001c957620001c8620003c8565b5b8151620001db84826020860162000166565b91505092915050565b60008060408385031215620001fe57620001fd620003d7565b5b600083015167ffffffffffffffff8111156200021f576200021e620003d2565b5b6200022d85828601620001b1565b925050602083015167ffffffffffffffff811115620002515762000250620003d2565b5b6200025f85828601620001b1565b9150509250929050565b60006200027562000288565b905062000283828262000334565b919050565b6000604051905090565b600067ffffffffffffffff821115620002b057620002af62000399565b5b620002bb82620003dc565b9050602081019050919050565b60005b83811015620002e8578082015181840152602081019050620002cb565b83811115620002f8576000848401525b50505050565b600060028204905060018216806200031757607f821691505b602082108114156200032e576200032d6200036a565b5b50919050565b6200033f82620003dc565b810181811067ffffffffffffffff8211171562000361576200036062000399565b5b80604052505050565b7f4e487b7100000000000000000000000000000000000000000000000000000000600052602260045260246000fd5b7f4e487b7100000000000000000000000000000000000000000000000000000000600052604160045260246000fd5b600080fd5b600080fd5b600080fd5b600080fd5b6000601f19601f8301169050919050565b6150c380620003fd6000396000f3fe608060405234801561001057600080fd5b50600436106101a95760003560e01c806395d89b41116100f9578063dafa1d2d11610097578063e985e9c511610071578063e985e9c5146104e4578063ef3ecfb214610514578063f4c84d1914610547578063f851a44014610563576101a9565b8063dafa1d2d1461048c578063e5924708146104a8578063e7a81c55146104c6576101a9565b8063c00ee908116100d3578063c00ee908146103f0578063c5573d461461040c578063c87b56dd14610440578063d26ac38814610470576101a9565b806395d89b411461039a578063a22cb465146103b8578063b88d4fde146103d4576101a9565b806323b872dd116101665780636352211e116101405780636352211e146102fc57806370a082311461032c578063747c6e8b1461035c5780638aa0fdad1461037e576101a9565b806323b872dd146102945780633f5e3719146102b057806342842e0e146102e0576101a9565b806301ffc9a7146101ae57806306fdde03146101de578063081812fc146101fc578063095ea7b31461022c5780630ad5b505146102485780630d202ced14610278575b600080fd5b6101c860048036038101906101c3919061394c565b610581565b6040516101d5919061424c565b60405180910390f35b6101e6610663565b6040516101f39190614267565b60405180910390f35b61021660048036038101906102119190613b1f565b6106f5565b604051610223919061414d565b60405180910390f35b6102466004803603810190610241919061390c565b61073b565b005b610262600480360381019061025d91906139a6565b610853565b60405161026f919061424c565b60405180910390f35b610292600480360381019061028d91906139ef565b610889565b005b6102ae60048036038101906102a991906137f6565b6109bb565b005b6102ca60048036038101906102c59190613b1f565b610a1b565b6040516102d79190614267565b60405180910390f35b6102fa60048036038101906102f591906137f6565b610ac7565b005b61031660048036038101906103119190613b1f565b610ae7565b604051610323919061414d565b60405180910390f35b61034660048036038101906103419190613789565b610b99565b60405161035391906144c9565b60405180910390f35b610364610c51565b6040516103759594939291906141d6565b60405180910390f35b61039860048036038101906103939190613aa7565b611484565b005b6103a261166c565b6040516103af9190614267565b60405180910390f35b6103d260048036038101906103cd91906138cc565b6116fe565b005b6103ee60048036038101906103e99190613849565b611714565b005b61040a60048036038101906104059190613a4b565b611776565b005b610426600480360381019061042191906139a6565b61195a565b604051610437959493929190614530565b60405180910390f35b61045a60048036038101906104559190613b1f565b611db5565b6040516104679190614267565b60405180910390f35b61048a60048036038101906104859190613a4b565b611e1d565b005b6104a660048036038101906104a191906139a6565b612001565b005b6104b0612311565b6040516104bd91906141b4565b60405180910390f35b6104ce61247a565b6040516104db91906144c9565b60405180910390f35b6104fe60048036038101906104f991906137b6565b6124e1565b60405161050b919061424c565b60405180910390f35b61052e600480360381019061052991906139a6565b612575565b60405161053e94939291906144e4565b60405180910390f35b610561600480360381019061055c9190613aa7565b61265d565b005b61056b6127d0565b604051610578919061414d565b60405180910390f35b60007f80ac58cd000000000000000000000000000000000000000000000000000000007bffffffffffffffffffffffffffffffffffffffffffffffffffffffff1916827bffffffffffffffffffffffffffffffffffffffffffffffffffffffff1916148061064c57507f5b5e139f000000000000000000000000000000000000000000000000000000007bffffffffffffffffffffffffffffffffffffffffffffffffffffffff1916827bffffffffffffffffffffffffffffffffffffffffffffffffffffffff1916145b8061065c575061065b826127f6565b5b9050919050565b606060008054610672906148ee565b80601f016020809104026020016040519081016040528092919081815260200182805461069e906148ee565b80156106eb5780601f106106c0576101008083540402835291602001916106eb565b820191906000526020600020905b8154815290600101906020018083116106ce57829003601f168201915b5050505050905090565b600061070082612860565b6004600083815260200190815260200160002060009054906101000a900473ffffffffffffffffffffffffffffffffffffffff169050919050565b600061074682610ae7565b90508073ffffffffffffffffffffffffffffffffffffffff168373ffffffffffffffffffffffffffffffffffffffff1614156107b7576040517f08c379a00000000000000000000000000000000000000000000000000000000081526004016107ae90614469565b60405180910390fd5b8073ffffffffffffffffffffffffffffffffffffffff166107d66128ab565b73ffffffffffffffffffffffffffffffffffffffff1614806108055750610804816107ff6128ab565b6124e1565b5b610844576040517f08c379a000000000000000000000000000000000000000000000000000000000815260040161083b906143e9565b60405180910390fd5b61084e83836128b3565b505050565b6009818051602081018201805184825260208301602085012081835280955050505050506000915054906101000a900460ff1681565b60098260405161089991906140fb565b908152602001604051809103902060009054906101000a900460ff166108f4576040517f08c379a00000000000000000000000000000000000000000000000000000000081526004016108eb90614429565b60405180910390fd5b3273ffffffffffffffffffffffffffffffffffffffff1661093560088460405161091e91906140fb565b908152602001604051809103902060000154610ae7565b73ffffffffffffffffffffffffffffffffffffffff161461098b576040517f08c379a000000000000000000000000000000000000000000000000000000000815260040161098290614329565b60405180910390fd5b6109b732826008856040516109a091906140fb565b90815260200160405180910390206000015461296c565b5050565b6109cc6109c66128ab565b82612bd3565b610a0b576040517f08c379a0000000000000000000000000000000000000000000000000000000008152600401610a02906144a9565b60405180910390fd5b610a1683838361296c565b505050565b60068181548110610a2b57600080fd5b906000526020600020016000915090508054610a46906148ee565b80601f0160208091040260200160405190810160405280929190818152602001828054610a72906148ee565b8015610abf5780601f10610a9457610100808354040283529160200191610abf565b820191906000526020600020905b815481529060010190602001808311610aa257829003601f168201915b505050505081565b610ae283838360405180602001604052806000815250611714565b505050565b6000806002600084815260200190815260200160002060009054906101000a900473ffffffffffffffffffffffffffffffffffffffff169050600073ffffffffffffffffffffffffffffffffffffffff168173ffffffffffffffffffffffffffffffffffffffff161415610b90576040517f08c379a0000000000000000000000000000000000000000000000000000000008152600401610b8790614449565b60405180910390fd5b80915050919050565b60008073ffffffffffffffffffffffffffffffffffffffff168273ffffffffffffffffffffffffffffffffffffffff161415610c0a576040517f08c379a0000000000000000000000000000000000000000000000000000000008152600401610c0190614389565b60405180910390fd5b600360008373ffffffffffffffffffffffffffffffffffffffff1673ffffffffffffffffffffffffffffffffffffffff168152602001908152602001600020549050919050565b6060806060806060600060068054905067ffffffffffffffff811115610c7a57610c79614ae5565b5b604051908082528060200260200182016040528015610ca85781602001602082028036833780820191505090505b509050600060068054905067ffffffffffffffff811115610ccc57610ccb614ae5565b5b604051908082528060200260200182016040528015610cff57816020015b6060815260200190600190039081610cea5790505b509050600060068054905067ffffffffffffffff811115610d2357610d22614ae5565b5b604051908082528060200260200182016040528015610d5657816020015b6060815260200190600190039081610d415790505b509050600060068054905067ffffffffffffffff811115610d7a57610d79614ae5565b5b604051908082528060200260200182016040528015610da85781602001602082028036833780820191505090505b50905060005b60068054905081101561139557600860068281548110610dd157610dd0614ab6565b5b90600052602060002001604051610de89190614136565b908152602001604051809103902060000154858281518110610e0d57610e0c614ab6565b5b602002602001018181525050600860068281548110610e2f57610e2e614ab6565b5b90600052602060002001604051610e469190614136565b90815260200160405180910390206001018054610e62906148ee565b80601f0160208091040260200160405190810160405280929190818152602001828054610e8e906148ee565b8015610edb5780601f10610eb057610100808354040283529160200191610edb565b820191906000526020600020905b815481529060010190602001808311610ebe57829003601f168201915b5050505050848281518110610ef357610ef2614ab6565b5b602002602001018190525060006002811115610f1257610f11614a29565b5b600860068381548110610f2857610f27614ab6565b5b90600052602060002001604051610f3f9190614136565b908152602001604051809103902060020160009054906101000a900460ff166002811115610f7057610f6f614a29565b5b1415610fcf576040518060400160405280601e81526020017f70656e64696e67207061636b6167696e6720766572696669636174696f6e0000815250838281518110610fbf57610fbe614ab6565b5b60200260200101819052506110f6565b60016002811115610fe357610fe2614a29565b5b600860068381548110610ff957610ff8614ab6565b5b906000526020600020016040516110109190614136565b908152602001604051809103902060020160009054906101000a900460ff16600281111561104157611040614a29565b5b14156110a0576040518060400160405280601281526020017f7061636b6167696e6720766572696669656400000000000000000000000000008152508382815181106110905761108f614ab6565b5b60200260200101819052506110f5565b6040518060400160405280601081526020017f7061636b6167696e672064656e696564000000000000000000000000000000008152508382815181106110e9576110e8614ab6565b5b60200260200101819052505b5b6000600281111561110a57611109614a29565b5b6008600683815481106111205761111f614ab6565b5b906000526020600020016040516111379190614136565b908152602001604051809103902060020160019054906101000a900460ff16600281111561116857611167614a29565b5b14156111c7576040518060400160405280601c81526020017f70656e64696e672070726f6475637420766572696669636174696f6e000000008152508382815181106111b7576111b6614ab6565b5b60200260200101819052506112ee565b600160028111156111db576111da614a29565b5b6008600683815481106111f1576111f0614ab6565b5b906000526020600020016040516112089190614136565b908152602001604051809103902060020160019054906101000a900460ff16600281111561123957611238614a29565b5b1415611298576040518060400160405280601081526020017f70726f647563742076657269666965640000000000000000000000000000000081525083828151811061128857611287614ab6565b5b60200260200101819052506112ed565b6040518060400160405280600e81526020017f70726f647563742064656e6965640000000000000000000000000000000000008152508382815181106112e1576112e0614ab6565b5b60200260200101819052505b5b61133560086006838154811061130757611306614ab6565b5b9060005260206000200160405161131e9190614136565b908152602001604051809103902060000154610ae7565b82828151811061134857611347614ab6565b5b602002602001019073ffffffffffffffffffffffffffffffffffffffff16908173ffffffffffffffffffffffffffffffffffffffff1681525050808061138d90614951565b915050610dae565b5060068484848484805480602002602001604051908101604052809291908181526020016000905b828210156114695783829060005260206000200180546113dc906148ee565b80601f0160208091040260200160405190810160405280929190818152602001828054611408906148ee565b80156114555780601f1061142a57610100808354040283529160200191611455565b820191906000526020600020905b81548152906001019060200180831161143857829003601f168201915b5050505050815260200190600101906113bd565b50505050945098509850985098509850505050509091929394565b60098260405161149491906140fb565b908152602001604051809103902060009054906101000a900460ff16156114f0576040517f08c379a00000000000000000000000000000000000000000000000000000000081526004016114e7906143a9565b60405180910390fd5b60068290806001815401808255809150506001900390600052602060002001600090919091909150908051906020019061152b9291906134d0565b50600060068054905090506115403382612c68565b8060088460405161155191906140fb565b9081526020016040518091039020600001819055508160088460405161157791906140fb565b9081526020016040518091039020600101908051906020019061159b9291906134d0565b5060006008846040516115ae91906140fb565b908152602001604051809103902060020160006101000a81548160ff021916908360028111156115e1576115e0614a29565b5b021790555060006008846040516115f891906140fb565b908152602001604051809103902060020160016101000a81548160ff0219169083600281111561162b5761162a614a29565b5b0217905550600160098460405161164291906140fb565b908152602001604051809103902060006101000a81548160ff021916908315150217905550505050565b60606001805461167b906148ee565b80601f01602080910402602001604051908101604052809291908181526020018280546116a7906148ee565b80156116f45780601f106116c9576101008083540402835291602001916116f4565b820191906000526020600020905b8154815290600101906020018083116116d757829003601f168201915b5050505050905090565b6117106117096128ab565b8383612e42565b5050565b61172561171f6128ab565b83612bd3565b611764576040517f08c379a000000000000000000000000000000000000000000000000000000000815260040161175b906144a9565b60405180910390fd5b61177084848484612faf565b50505050565b60098260405161178691906140fb565b908152602001604051809103902060009054906101000a900460ff166117e1576040517f08c379a00000000000000000000000000000000000000000000000000000000081526004016117d890614429565b60405180910390fd5b3373ffffffffffffffffffffffffffffffffffffffff1661182260088460405161180b91906140fb565b908152602001604051809103902060000154610ae7565b73ffffffffffffffffffffffffffffffffffffffff1614611878576040517f08c379a000000000000000000000000000000000000000000000000000000000815260040161186f906143c9565b60405180910390fd5b6001151581151514156118d457600160088360405161189791906140fb565b908152602001604051809103902060020160006101000a81548160ff021916908360028111156118ca576118c9614a29565b5b021790555061191f565b60026008836040516118e691906140fb565b908152602001604051809103902060020160006101000a81548160ff0219169083600281111561191957611918614a29565b5b02179055505b7f59d309664d5e5c5c7562159b94306437ae8aed905c4f84933f4ad06eea902ed48260405161194e9190614267565b60405180910390a15050565b60006060806060600060098660405161197391906140fb565b908152602001604051809103902060009054906101000a900460ff166119ce576040517f08c379a00000000000000000000000000000000000000000000000000000000081526004016119c590614429565b60405180910390fd5b606080600060028111156119e5576119e4614a29565b5b6008896040516119f591906140fb565b908152602001604051809103902060020160009054906101000a900460ff166002811115611a2657611a25614a29565b5b1415611a69576040518060400160405280601e81526020017f70656e64696e67207061636b6167696e6720766572696669636174696f6e00008152509150611b3b565b60016002811115611a7d57611a7c614a29565b5b600889604051611a8d91906140fb565b908152602001604051809103902060020160009054906101000a900460ff166002811115611abe57611abd614a29565b5b1415611b01576040518060400160405280601281526020017f7061636b6167696e6720766572696669656400000000000000000000000000008152509150611b3a565b6040518060400160405280601081526020017f7061636b6167696e672064656e6965640000000000000000000000000000000081525091505b5b60006002811115611b4f57611b4e614a29565b5b600889604051611b5f91906140fb565b908152602001604051809103902060020160019054906101000a900460ff166002811115611b9057611b8f614a29565b5b1415611bd3576040518060400160405280601c81526020017f70656e64696e672070726f6475637420766572696669636174696f6e000000008152509050611ca5565b60016002811115611be757611be6614a29565b5b600889604051611bf791906140fb565b908152602001604051809103902060020160019054906101000a900460ff166002811115611c2857611c27614a29565b5b1415611c6b576040518060400160405280601081526020017f70726f64756374207665726966696564000000000000000000000000000000008152509050611ca4565b6040518060400160405280600e81526020017f70726f647563742064656e69656400000000000000000000000000000000000081525090505b5b600888604051611cb591906140fb565b908152602001604051809103902060000154600889604051611cd791906140fb565b90815260200160405180910390206001018383611d1460088d604051611cfd91906140fb565b908152602001604051809103902060000154610ae7565b838054611d20906148ee565b80601f0160208091040260200160405190810160405280929190818152602001828054611d4c906148ee565b8015611d995780601f10611d6e57610100808354040283529160200191611d99565b820191906000526020600020905b815481529060010190602001808311611d7c57829003601f168201915b5050505050935096509650965096509650505091939590929450565b6060611dc082612860565b6000611dca61300b565b90506000815111611dea5760405180602001604052806000815250611e15565b80611df484613022565b604051602001611e05929190614112565b6040516020818303038152906040525b915050919050565b600982604051611e2d91906140fb565b908152602001604051809103902060009054906101000a900460ff16611e88576040517f08c379a0000000000000000000000000000000000000000000000000000000008152600401611e7f90614429565b60405180910390fd5b3373ffffffffffffffffffffffffffffffffffffffff16611ec9600884604051611eb291906140fb565b908152602001604051809103902060000154610ae7565b73ffffffffffffffffffffffffffffffffffffffff1614611f1f576040517f08c379a0000000000000000000000000000000000000000000000000000000008152600401611f16906143c9565b60405180910390fd5b600115158115151415611f7b576001600883604051611f3e91906140fb565b908152602001604051809103902060020160016101000a81548160ff02191690836002811115611f7157611f70614a29565b5b0217905550611fc6565b6002600883604051611f8d91906140fb565b908152602001604051809103902060020160016101000a81548160ff02191690836002811115611fc057611fbf614a29565b5b02179055505b7f59d309664d5e5c5c7562159b94306437ae8aed905c4f84933f4ad06eea902ed482604051611ff59190614267565b60405180910390a15050565b60008060098360405161201491906140fb565b908152602001604051809103902060009054906101000a900460ff1661206f576040517f08c379a000000000000000000000000000000000000000000000000000000000815260040161206690614429565b60405180910390fd5b3373ffffffffffffffffffffffffffffffffffffffff166120b060088560405161209991906140fb565b908152602001604051809103902060000154610ae7565b73ffffffffffffffffffffffffffffffffffffffff1614612106576040517f08c379a00000000000000000000000000000000000000000000000000000000081526004016120fd906142c9565b60405180910390fd5b61213060088460405161211991906140fb565b908152602001604051809103902060000154613183565b600060098460405161214291906140fb565b908152602001604051809103902060006101000a81548160ff02191690831515021790555060088360405161217791906140fb565b908152602001604051809103902060008082016000905560018201600061219e9190613556565b6002820160006101000a81549060ff02191690556002820160016101000a81549060ff021916905550505b826040516020016121da91906140fb565b604051602081830303815290604052805190602001206006838154811061220457612203614ab6565b5b9060005260206000200160405160200161221e9190614136565b604051602081830303815290604052805190602001201461224c57818061224490614951565b9250506121c9565b8190505b600160068054905061226291906147ba565b8110156122dc5760066001826122789190614733565b8154811061228957612288614ab6565b5b90600052602060002001600682815481106122a7576122a6614ab6565b5b906000526020600020019080546122bd906148ee565b6122c8929190613596565b5080806122d490614951565b915050612250565b60068054806122ee576122ed614a87565b5b60019003818190600052602060002001600061230a9190613556565b9055505050565b6060600760009054906101000a900473ffffffffffffffffffffffffffffffffffffffff1673ffffffffffffffffffffffffffffffffffffffff163373ffffffffffffffffffffffffffffffffffffffff16146123a3576040517f08c379a000000000000000000000000000000000000000000000000000000000815260040161239a90614489565b60405180910390fd5b6006805480602002602001604051908101604052809291908181526020016000905b828210156124715783829060005260206000200180546123e4906148ee565b80601f0160208091040260200160405190810160405280929190818152602001828054612410906148ee565b801561245d5780601f106124325761010080835404028352916020019161245d565b820191906000526020600020905b81548152906001019060200180831161244057829003601f168201915b5050505050815260200190600101906123c5565b50505050905090565b6000600760009054906101000a900473ffffffffffffffffffffffffffffffffffffffff1673ffffffffffffffffffffffffffffffffffffffff163373ffffffffffffffffffffffffffffffffffffffff16146124d657600080fd5b600680549050905090565b6000600560008473ffffffffffffffffffffffffffffffffffffffff1673ffffffffffffffffffffffffffffffffffffffff16815260200190815260200160002060008373ffffffffffffffffffffffffffffffffffffffff1673ffffffffffffffffffffffffffffffffffffffff16815260200190815260200160002060009054906101000a900460ff16905092915050565b6008818051602081018201805184825260208301602085012081835280955050505050506000915090508060000154908060010180546125b4906148ee565b80601f01602080910402602001604051908101604052809291908181526020018280546125e0906148ee565b801561262d5780601f106126025761010080835404028352916020019161262d565b820191906000526020600020905b81548152906001019060200180831161261057829003601f168201915b5050505050908060020160009054906101000a900460ff16908060020160019054906101000a900460ff16905084565b60098260405161266d91906140fb565b908152602001604051809103902060009054906101000a900460ff166126c8576040517f08c379a00000000000000000000000000000000000000000000000000000000081526004016126bf90614429565b60405180910390fd5b3373ffffffffffffffffffffffffffffffffffffffff166127096008846040516126f291906140fb565b908152602001604051809103902060000154610ae7565b73ffffffffffffffffffffffffffffffffffffffff161461275f576040517f08c379a000000000000000000000000000000000000000000000000000000000815260040161275690614289565b60405180910390fd5b8060088360405161277091906140fb565b908152602001604051809103902060010190805190602001906127949291906134d0565b507f6714407191569b7b9edd5db2d624b8e2281272e577950f0e87ca156570ffe9e4826040516127c49190614267565b60405180910390a15050565b600760009054906101000a900473ffffffffffffffffffffffffffffffffffffffff1681565b60007f01ffc9a7000000000000000000000000000000000000000000000000000000007bffffffffffffffffffffffffffffffffffffffffffffffffffffffff1916827bffffffffffffffffffffffffffffffffffffffffffffffffffffffff1916149050919050565b612869816132a0565b6128a8576040517f08c379a000000000000000000000000000000000000000000000000000000000815260040161289f90614449565b60405180910390fd5b50565b600033905090565b816004600083815260200190815260200160002060006101000a81548173ffffffffffffffffffffffffffffffffffffffff021916908373ffffffffffffffffffffffffffffffffffffffff160217905550808273ffffffffffffffffffffffffffffffffffffffff1661292683610ae7565b73ffffffffffffffffffffffffffffffffffffffff167f8c5be1e5ebec7d5bd14f71427d1e84f3dd0314c0f7b2291e5b200ac8c7c3b92560405160405180910390a45050565b8273ffffffffffffffffffffffffffffffffffffffff1661298c82610ae7565b73ffffffffffffffffffffffffffffffffffffffff16146129e2576040517f08c379a00000000000000000000000000000000000000000000000000000000081526004016129d9906142e9565b60405180910390fd5b600073ffffffffffffffffffffffffffffffffffffffff168273ffffffffffffffffffffffffffffffffffffffff161415612a52576040517f08c379a0000000000000000000000000000000000000000000000000000000008152600401612a4990614349565b60405180910390fd5b612a5d83838361330c565b612a686000826128b3565b6001600360008573ffffffffffffffffffffffffffffffffffffffff1673ffffffffffffffffffffffffffffffffffffffff1681526020019081526020016000206000828254612ab891906147ba565b925050819055506001600360008473ffffffffffffffffffffffffffffffffffffffff1673ffffffffffffffffffffffffffffffffffffffff1681526020019081526020016000206000828254612b0f9190614733565b92505081905550816002600083815260200190815260200160002060006101000a81548173ffffffffffffffffffffffffffffffffffffffff021916908373ffffffffffffffffffffffffffffffffffffffff160217905550808273ffffffffffffffffffffffffffffffffffffffff168473ffffffffffffffffffffffffffffffffffffffff167fddf252ad1be2c89b69c2b068fc378daa952ba7f163c4a11628f55a4df523b3ef60405160405180910390a4612bce838383613311565b505050565b600080612bdf83610ae7565b90508073ffffffffffffffffffffffffffffffffffffffff168473ffffffffffffffffffffffffffffffffffffffff161480612c215750612c2081856124e1565b5b80612c5f57508373ffffffffffffffffffffffffffffffffffffffff16612c47846106f5565b73ffffffffffffffffffffffffffffffffffffffff16145b91505092915050565b600073ffffffffffffffffffffffffffffffffffffffff168273ffffffffffffffffffffffffffffffffffffffff161415612cd8576040517f08c379a0000000000000000000000000000000000000000000000000000000008152600401612ccf90614409565b60405180910390fd5b612ce1816132a0565b15612d21576040517f08c379a0000000000000000000000000000000000000000000000000000000008152600401612d1890614309565b60405180910390fd5b612d2d6000838361330c565b6001600360008473ffffffffffffffffffffffffffffffffffffffff1673ffffffffffffffffffffffffffffffffffffffff1681526020019081526020016000206000828254612d7d9190614733565b92505081905550816002600083815260200190815260200160002060006101000a81548173ffffffffffffffffffffffffffffffffffffffff021916908373ffffffffffffffffffffffffffffffffffffffff160217905550808273ffffffffffffffffffffffffffffffffffffffff16600073ffffffffffffffffffffffffffffffffffffffff167fddf252ad1be2c89b69c2b068fc378daa952ba7f163c4a11628f55a4df523b3ef60405160405180910390a4612e3e60008383613311565b5050565b8173ffffffffffffffffffffffffffffffffffffffff168373ffffffffffffffffffffffffffffffffffffffff161415612eb1576040517f08c379a0000000000000000000000000000000000000000000000000000000008152600401612ea890614369565b60405180910390fd5b80600560008573ffffffffffffffffffffffffffffffffffffffff1673ffffffffffffffffffffffffffffffffffffffff16815260200190815260200160002060008473ffffffffffffffffffffffffffffffffffffffff1673ffffffffffffffffffffffffffffffffffffffff16815260200190815260200160002060006101000a81548160ff0219169083151502179055508173ffffffffffffffffffffffffffffffffffffffff168373ffffffffffffffffffffffffffffffffffffffff167f17307eab39ab6107e8899845ad3d59bd9653f200f220920489ca2b5937696c3183604051612fa2919061424c565b60405180910390a3505050565b612fba84848461296c565b612fc684848484613316565b613005576040517f08c379a0000000000000000000000000000000000000000000000000000000008152600401612ffc906142a9565b60405180910390fd5b50505050565b606060405180602001604052806000815250905090565b6060600082141561306a576040518060400160405280600181526020017f3000000000000000000000000000000000000000000000000000000000000000815250905061317e565b600082905060005b6000821461309c57808061308590614951565b915050600a826130959190614789565b9150613072565b60008167ffffffffffffffff8111156130b8576130b7614ae5565b5b6040519080825280601f01601f1916602001820160405280156130ea5781602001600182028036833780820191505090505b5090505b600085146131775760018261310391906147ba565b9150600a85613112919061499a565b603061311e9190614733565b60f81b81838151811061313457613133614ab6565b5b60200101907effffffffffffffffffffffffffffffffffffffffffffffffffffffffffffff1916908160001a905350600a856131709190614789565b94506130ee565b8093505050505b919050565b600061318e82610ae7565b905061319c8160008461330c565b6131a76000836128b3565b6001600360008373ffffffffffffffffffffffffffffffffffffffff1673ffffffffffffffffffffffffffffffffffffffff16815260200190815260200160002060008282546131f791906147ba565b925050819055506002600083815260200190815260200160002060006101000a81549073ffffffffffffffffffffffffffffffffffffffff021916905581600073ffffffffffffffffffffffffffffffffffffffff168273ffffffffffffffffffffffffffffffffffffffff167fddf252ad1be2c89b69c2b068fc378daa952ba7f163c4a11628f55a4df523b3ef60405160405180910390a461329c81600084613311565b5050565b60008073ffffffffffffffffffffffffffffffffffffffff166002600084815260200190815260200160002060009054906101000a900473ffffffffffffffffffffffffffffffffffffffff1673ffffffffffffffffffffffffffffffffffffffff1614159050919050565b505050565b505050565b60006133378473ffffffffffffffffffffffffffffffffffffffff166134ad565b156134a0578373ffffffffffffffffffffffffffffffffffffffff1663150b7a026133606128ab565b8786866040518563ffffffff1660e01b81526004016133829493929190614168565b602060405180830381600087803b15801561339c57600080fd5b505af19250505080156133cd57506040513d601f19601f820116820180604052508101906133ca9190613979565b60015b613450573d80600081146133fd576040519150601f19603f3d011682016040523d82523d6000602084013e613402565b606091505b50600081511415613448576040517f08c379a000000000000000000000000000000000000000000000000000000000815260040161343f906142a9565b60405180910390fd5b805181602001fd5b63150b7a0260e01b7bffffffffffffffffffffffffffffffffffffffffffffffffffffffff1916817bffffffffffffffffffffffffffffffffffffffffffffffffffffffff1916149150506134a5565b600190505b949350505050565b6000808273ffffffffffffffffffffffffffffffffffffffff163b119050919050565b8280546134dc906148ee565b90600052602060002090601f0160209004810192826134fe5760008555613545565b82601f1061351757805160ff1916838001178555613545565b82800160010185558215613545579182015b82811115613544578251825591602001919060010190613529565b5b5090506135529190613623565b5090565b508054613562906148ee565b6000825580601f106135745750613593565b601f0160209004906000526020600020908101906135929190613623565b5b50565b8280546135a2906148ee565b90600052602060002090601f0160209004810192826135c45760008555613612565b82601f106135d55780548555613612565b8280016001018555821561361257600052602060002091601f016020900482015b828111156136115782548255916001019190600101906135f6565b5b50905061361f9190613623565b5090565b5b8082111561363c576000816000905550600101613624565b5090565b600061365361364e846145bd565b614598565b90508281526020810184848401111561366f5761366e614b19565b5b61367a8482856148ac565b509392505050565b6000613695613690846145ee565b614598565b9050828152602081018484840111156136b1576136b0614b19565b5b6136bc8482856148ac565b509392505050565b6000813590506136d381615031565b92915050565b6000813590506136e881615048565b92915050565b6000813590506136fd8161505f565b92915050565b6000815190506137128161505f565b92915050565b600082601f83011261372d5761372c614b14565b5b813561373d848260208601613640565b91505092915050565b600082601f83011261375b5761375a614b14565b5b813561376b848260208601613682565b91505092915050565b60008135905061378381615076565b92915050565b60006020828403121561379f5761379e614b23565b5b60006137ad848285016136c4565b91505092915050565b600080604083850312156137cd576137cc614b23565b5b60006137db858286016136c4565b92505060206137ec858286016136c4565b9150509250929050565b60008060006060848603121561380f5761380e614b23565b5b600061381d868287016136c4565b935050602061382e868287016136c4565b925050604061383f86828701613774565b9150509250925092565b6000806000806080858703121561386357613862614b23565b5b6000613871878288016136c4565b9450506020613882878288016136c4565b935050604061389387828801613774565b925050606085013567ffffffffffffffff8111156138b4576138b3614b1e565b5b6138c087828801613718565b91505092959194509250565b600080604083850312156138e3576138e2614b23565b5b60006138f1858286016136c4565b9250506020613902858286016136d9565b9150509250929050565b6000806040838503121561392357613922614b23565b5b6000613931858286016136c4565b925050602061394285828601613774565b9150509250929050565b60006020828403121561396257613961614b23565b5b6000613970848285016136ee565b91505092915050565b60006020828403121561398f5761398e614b23565b5b600061399d84828501613703565b91505092915050565b6000602082840312156139bc576139bb614b23565b5b600082013567ffffffffffffffff8111156139da576139d9614b1e565b5b6139e684828501613746565b91505092915050565b60008060408385031215613a0657613a05614b23565b5b600083013567ffffffffffffffff811115613a2457613a23614b1e565b5b613a3085828601613746565b9250506020613a41858286016136c4565b9150509250929050565b60008060408385031215613a6257613a61614b23565b5b600083013567ffffffffffffffff811115613a8057613a7f614b1e565b5b613a8c85828601613746565b9250506020613a9d858286016136d9565b9150509250929050565b60008060408385031215613abe57613abd614b23565b5b600083013567ffffffffffffffff811115613adc57613adb614b1e565b5b613ae885828601613746565b925050602083013567ffffffffffffffff811115613b0957613b08614b1e565b5b613b1585828601613746565b9150509250929050565b600060208284031215613b3557613b34614b23565b5b6000613b4384828501613774565b91505092915050565b6000613b588383613b90565b60208301905092915050565b6000613b708383613d45565b905092915050565b6000613b8483836140dd565b60208301905092915050565b613b99816147ee565b82525050565b613ba8816147ee565b82525050565b6000613bb982614664565b613bc381856146c2565b9350613bce8361461f565b8060005b83811015613bff578151613be68882613b4c565b9750613bf18361469b565b925050600181019050613bd2565b5085935050505092915050565b6000613c178261466f565b613c2181856146d3565b935083602082028501613c338561462f565b8060005b85811015613c6f5784840389528151613c508582613b64565b9450613c5b836146a8565b925060208a01995050600181019050613c37565b50829750879550505050505092915050565b6000613c8c8261467a565b613c9681856146e4565b9350613ca18361463f565b8060005b83811015613cd2578151613cb98882613b78565b9750613cc4836146b5565b925050600181019050613ca5565b5085935050505092915050565b613ce881614800565b82525050565b6000613cf982614685565b613d0381856146f5565b9350613d138185602086016148bb565b613d1c81614b28565b840191505092915050565b613d3081614888565b82525050565b613d3f8161489a565b82525050565b6000613d5082614690565b613d5a8185614706565b9350613d6a8185602086016148bb565b613d7381614b28565b840191505092915050565b6000613d8982614690565b613d938185614717565b9350613da38185602086016148bb565b613dac81614b28565b840191505092915050565b6000613dc282614690565b613dcc8185614728565b9350613ddc8185602086016148bb565b80840191505092915050565b60008154613df5816148ee565b613dff8186614728565b94506001821660008114613e1a5760018114613e2b57613e5e565b60ff19831686528186019350613e5e565b613e348561464f565b60005b83811015613e5657815481890152600182019150602081019050613e37565b838801955050505b50505092915050565b6000613e74602a83614717565b9150613e7f82614b39565b604082019050919050565b6000613e97603283614717565b9150613ea282614b88565b604082019050919050565b6000613eba602b83614717565b9150613ec582614bd7565b604082019050919050565b6000613edd602583614717565b9150613ee882614c26565b604082019050919050565b6000613f00601c83614717565b9150613f0b82614c75565b602082019050919050565b6000613f23602883614717565b9150613f2e82614c9e565b604082019050919050565b6000613f46602483614717565b9150613f5182614ced565b604082019050919050565b6000613f69601983614717565b9150613f7482614d3c565b602082019050919050565b6000613f8c602983614717565b9150613f9782614d65565b604082019050919050565b6000613faf601583614717565b9150613fba82614db4565b602082019050919050565b6000613fd2604183614717565b9150613fdd82614ddd565b606082019050919050565b6000613ff5603e83614717565b915061400082614e52565b604082019050919050565b6000614018602083614717565b915061402382614ea1565b602082019050919050565b600061403b601583614717565b915061404682614eca565b602082019050919050565b600061405e601883614717565b915061406982614ef3565b602082019050919050565b6000614081602183614717565b915061408c82614f1c565b604082019050919050565b60006140a4602983614717565b91506140af82614f6b565b604082019050919050565b60006140c7602e83614717565b91506140d282614fba565b604082019050919050565b6140e68161487e565b82525050565b6140f58161487e565b82525050565b60006141078284613db7565b915081905092915050565b600061411e8285613db7565b915061412a8284613db7565b91508190509392505050565b60006141428284613de8565b915081905092915050565b60006020820190506141626000830184613b9f565b92915050565b600060808201905061417d6000830187613b9f565b61418a6020830186613b9f565b61419760408301856140ec565b81810360608301526141a98184613cee565b905095945050505050565b600060208201905081810360008301526141ce8184613c0c565b905092915050565b600060a08201905081810360008301526141f08188613c0c565b905081810360208301526142048187613c81565b905081810360408301526142188186613c0c565b9050818103606083015261422c8185613c0c565b905081810360808301526142408184613bae565b90509695505050505050565b60006020820190506142616000830184613cdf565b92915050565b600060208201905081810360008301526142818184613d7e565b905092915050565b600060208201905081810360008301526142a281613e67565b9050919050565b600060208201905081810360008301526142c281613e8a565b9050919050565b600060208201905081810360008301526142e281613ead565b9050919050565b6000602082019050818103600083015261430281613ed0565b9050919050565b6000602082019050818103600083015261432281613ef3565b9050919050565b6000602082019050818103600083015261434281613f16565b9050919050565b6000602082019050818103600083015261436281613f39565b9050919050565b6000602082019050818103600083015261438281613f5c565b9050919050565b600060208201905081810360008301526143a281613f7f565b9050919050565b600060208201905081810360008301526143c281613fa2565b9050919050565b600060208201905081810360008301526143e281613fc5565b9050919050565b6000602082019050818103600083015261440281613fe8565b9050919050565b600060208201905081810360008301526144228161400b565b9050919050565b600060208201905081810360008301526144428161402e565b9050919050565b6000602082019050818103600083015261446281614051565b9050919050565b6000602082019050818103600083015261448281614074565b9050919050565b600060208201905081810360008301526144a281614097565b9050919050565b600060208201905081810360008301526144c2816140ba565b9050919050565b60006020820190506144de60008301846140ec565b92915050565b60006080820190506144f960008301876140ec565b818103602083015261450b8186613d7e565b905061451a6040830185613d27565b6145276060830184613d36565b95945050505050565b600060a08201905061454560008301886140ec565b81810360208301526145578187613d7e565b9050818103604083015261456b8186613d7e565b9050818103606083015261457f8185613d7e565b905061458e6080830184613b9f565b9695505050505050565b60006145a26145b3565b90506145ae8282614920565b919050565b6000604051905090565b600067ffffffffffffffff8211156145d8576145d7614ae5565b5b6145e182614b28565b9050602081019050919050565b600067ffffffffffffffff82111561460957614608614ae5565b5b61461282614b28565b9050602081019050919050565b6000819050602082019050919050565b6000819050602082019050919050565b6000819050602082019050919050565b60008190508160005260206000209050919050565b600081519050919050565b600081519050919050565b600081519050919050565b600081519050919050565b600081519050919050565b6000602082019050919050565b6000602082019050919050565b6000602082019050919050565b600082825260208201905092915050565b600082825260208201905092915050565b600082825260208201905092915050565b600082825260208201905092915050565b600082825260208201905092915050565b600082825260208201905092915050565b600081905092915050565b600061473e8261487e565b91506147498361487e565b9250827fffffffffffffffffffffffffffffffffffffffffffffffffffffffffffffffff0382111561477e5761477d6149cb565b5b828201905092915050565b60006147948261487e565b915061479f8361487e565b9250826147af576147ae6149fa565b5b828204905092915050565b60006147c58261487e565b91506147d08361487e565b9250828210156147e3576147e26149cb565b5b828203905092915050565b60006147f98261485e565b9050919050565b60008115159050919050565b60007fffffffff0000000000000000000000000000000000000000000000000000000082169050919050565b600081905061484682615009565b919050565b60008190506148598261501d565b919050565b600073ffffffffffffffffffffffffffffffffffffffff82169050919050565b6000819050919050565b600061489382614838565b9050919050565b60006148a58261484b565b9050919050565b82818337600083830152505050565b60005b838110156148d95780820151818401526020810190506148be565b838111156148e8576000848401525b50505050565b6000600282049050600182168061490657607f821691505b6020821081141561491a57614919614a58565b5b50919050565b61492982614b28565b810181811067ffffffffffffffff8211171561494857614947614ae5565b5b80604052505050565b600061495c8261487e565b91507fffffffffffffffffffffffffffffffffffffffffffffffffffffffffffffffff82141561498f5761498e6149cb565b5b600182019050919050565b60006149a58261487e565b91506149b08361487e565b9250826149c0576149bf6149fa565b5b828206905092915050565b7f4e487b7100000000000000000000000000000000000000000000000000000000600052601160045260246000fd5b7f4e487b7100000000000000000000000000000000000000000000000000000000600052601260045260246000fd5b7f4e487b7100000000000000000000000000000000000000000000000000000000600052602160045260246000fd5b7f4e487b7100000000000000000000000000000000000000000000000000000000600052602260045260246000fd5b7f4e487b7100000000000000000000000000000000000000000000000000000000600052603160045260246000fd5b7f4e487b7100000000000000000000000000000000000000000000000000000000600052603260045260246000fd5b7f4e487b7100000000000000000000000000000000000000000000000000000000600052604160045260246000fd5b600080fd5b600080fd5b600080fd5b600080fd5b6000601f19601f8301169050919050565b7f4f6e6c792074686520746f6b656e206f776e65722063616e207570646174652060008201527f74686520746f6b656e2e00000000000000000000000000000000000000000000602082015250565b7f4552433732313a207472616e7366657220746f206e6f6e20455243373231526560008201527f63656976657220696d706c656d656e7465720000000000000000000000000000602082015250565b7f4f6e6c792074686520746f6b656e206f776e65722063616e2064657374726f7960008201527f2074686520746f6b656e2e000000000000000000000000000000000000000000602082015250565b7f4552433732313a207472616e736665722066726f6d20696e636f72726563742060008201527f6f776e6572000000000000000000000000000000000000000000000000000000602082015250565b7f4552433732313a20746f6b656e20616c7265616479206d696e74656400000000600082015250565b7f4f6e6c7920746f6b656e206f776e65722063616e207472616e7366657220746860008201527f6520746f6b656e2e000000000000000000000000000000000000000000000000602082015250565b7f4552433732313a207472616e7366657220746f20746865207a65726f2061646460008201527f7265737300000000000000000000000000000000000000000000000000000000602082015250565b7f4552433732313a20617070726f766520746f2063616c6c657200000000000000600082015250565b7f4552433732313a2061646472657373207a65726f206973206e6f74206120766160008201527f6c6964206f776e65720000000000000000000000000000000000000000000000602082015250565b7f546f6b656e20616c7265616479206578697374732e0000000000000000000000600082015250565b7f4f6e6c792074686520746f6b656e206f776e65722063616e207570646174652060008201527f766572696669636174696f6e20737461747573206f662074686520746f6b656e60208201527f2e00000000000000000000000000000000000000000000000000000000000000604082015250565b7f4552433732313a20617070726f76652063616c6c6572206973206e6f7420746f60008201527f6b656e206f776e6572206e6f7220617070726f76656420666f7220616c6c0000602082015250565b7f4552433732313a206d696e7420746f20746865207a65726f2061646472657373600082015250565b7f546f6b656e20646f6573206e6f742065786973742e0000000000000000000000600082015250565b7f4552433732313a20696e76616c696420746f6b656e2049440000000000000000600082015250565b7f4552433732313a20617070726f76616c20746f2063757272656e74206f776e6560008201527f7200000000000000000000000000000000000000000000000000000000000000602082015250565b7f4f6e6c7920636f6e7472616374206f776e65722063616e20717565727920616c60008201527f6c20746f6b656e732e0000000000000000000000000000000000000000000000602082015250565b7f4552433732313a2063616c6c6572206973206e6f7420746f6b656e206f776e6560008201527f72206e6f7220617070726f766564000000000000000000000000000000000000602082015250565b6003811061501a57615019614a29565b5b50565b6003811061502e5761502d614a29565b5b50565b61503a816147ee565b811461504557600080fd5b50565b61505181614800565b811461505c57600080fd5b50565b6150688161480c565b811461507357600080fd5b50565b61507f8161487e565b811461508a57600080fd5b5056fea2646970667358221220e747ac1b31f7d20f3c61c4e8bc1e9249858b1f27b87478399fc81c9246a29c4864736f6c63430008070033",
  "immutableReferences": {},
  "source": "// SPDX-License-Identifier: UNLICENSED\npragma solidity ^0.8.0;\n\nimport \"../node_modules/@openzeppelin/contracts/token/ERC721/ERC721.sol\";\n\ncontract DigitalTwin is ERC721 {\n    string[] public alltks; // to record all all tks\n    address public admin;\n\n    /**\n     * Recognition: Packaging\n     * \n     * Verification: Product\n     */\n    enum Recognitionstatus {\n        PENDING,\n        VERIFIED,\n        DENIED\n    }\n\n    enum Verificationstatus {\n        PENDING,\n        VERIFIED,\n        DENIED\n    }\n\n    struct TkDetails {\n        uint256 id;\n        string metadata;\n        Recognitionstatus rstatus;\n        Verificationstatus vstatus;\n    }\n\n    mapping(string => TkDetails) public tks; // mapping of tkname => ProductTk struct\n    mapping(string => bool) public tkExists;\n\n    event TokenUpdated(string tkname);\n    event TokenVerified(string tkname);\n\n    constructor(string memory _name, string memory _symbol)\n        ERC721(_name, _symbol)\n    {\n        admin = msg.sender;\n    }\n\n    function mint(string memory _tkname, string memory _metadata) public {\n\n        require(!tkExists[_tkname], \"Token already exists.\");\n\n        alltks.push(_tkname);\n        uint256 id = alltks.length;\n        _mint(msg.sender, id);\n        \n        tks[_tkname].id = id;\n        tks[_tkname].metadata = _metadata;\n        tks[_tkname].rstatus = Recognitionstatus.PENDING;\n        tks[_tkname].vstatus = Verificationstatus.PENDING;\n\n        tkExists[_tkname] = true;\n    }\n\n    /**\n     * update only updates the metadata of an existing token\n     */\n    function update(string memory _tkname, string memory _metadata) public {\n\n        require(tkExists[_tkname], \"Token does not exist.\");\n        require(\n            ownerOf(tks[_tkname].id) == address(msg.sender),\n            \"Only the token owner can update the token.\"\n        );\n\n        tks[_tkname].metadata = _metadata;\n\n        emit TokenUpdated(_tkname);\n    }\n\n    /**\n     * recognize is called by processor upon optical verification of the product\n     */\n    function recognize(string memory _tkname, bool _status) public {\n\n        require(tkExists[_tkname], \"Token does not exist.\");\n        require(\n            ownerOf(tks[_tkname].id) == address(msg.sender),\n            \"Only the token owner can update verification status of the token.\"\n        );\n\n        if (_status == true) {\n            tks[_tkname].rstatus = Recognitionstatus.VERIFIED;\n        }\n        else {\n            tks[_tkname].rstatus = Recognitionstatus.DENIED;\n        }\n\n        emit TokenVerified(_tkname);\n    }\n\n    /**\n     * verify is called by processor upon optical verification of the product\n     */\n    function verify(string memory _tkname, bool _status) public {\n\n        require(tkExists[_tkname], \"Token does not exist.\");\n        require(\n            ownerOf(tks[_tkname].id) == address(msg.sender),\n            \"Only the token owner can update verification status of the token.\"\n        );\n\n        if (_status == true) {\n            tks[_tkname].vstatus = Verificationstatus.VERIFIED;\n        }\n        else {\n            tks[_tkname].vstatus = Verificationstatus.DENIED;\n        }\n\n        emit TokenVerified(_tkname);\n    }\n\n    function burn(string memory _tkname) public {\n        uint i = 0;\n        uint j;\n\n        require(tkExists[_tkname], \"Token does not exist.\");\n        require(\n            ownerOf(tks[_tkname].id) == address(msg.sender),\n            \"Only the token owner can destroy the token.\"\n        );\n\n        _burn(tks[_tkname].id); // transfer the token to the 0x address\n        tkExists[_tkname] = false; // change existence to false\n        delete tks[_tkname]; // delete token from the mapping\n\n        /// @notice: 1. find the index of an element\n        /// @notice: 2. to remove an element - shift the elements after the index and remove the last\n        while (keccak256(abi.encodePacked(alltks[i])) != keccak256(abi.encodePacked(_tkname))) {\n            i++;\n        }\n        \n        for (j=i; j<alltks.length-1; j++) {\n            alltks[j] = alltks[j+1];\n        }\n\n        alltks.pop(); // remove the token from the alltks list\n    }\n\n    /// @notice tx.origin is the user account that starts the call, msg.sender is the contract that calls this contract\n    function transferByName(string memory _tkname, address _to) public {\n        require(tkExists[_tkname], \"Token does not exist.\");\n        require(ownerOf(tks[_tkname].id) == tx.origin, \"Only token owner can transfer the token.\");\n\n        _transfer(tx.origin,_to,tks[_tkname].id);\n    }\n\n    /**\n     * @notice for js client to interact\n     */\n    function queryToken(string memory _tkname)\n        public\n        view\n        returns (uint256, string memory, string memory, string memory, address)\n    {\n        require(tkExists[_tkname], \"Token does not exist.\");\n        \n        string memory rstatus;\n        string memory vstatus;\n\n        if (tks[_tkname].rstatus == Recognitionstatus.PENDING) {\n            rstatus = \"pending packaging verification\";\n        } else if (tks[_tkname].rstatus == Recognitionstatus.VERIFIED) {\n            rstatus = \"packaging verified\";\n        } else {\n            rstatus = \"packaging denied\";\n        }\n\n        if (tks[_tkname].vstatus == Verificationstatus.PENDING) {\n            vstatus = \"pending product verification\";\n        } else if (tks[_tkname].vstatus == Verificationstatus.VERIFIED) {\n            vstatus = \"product verified\";\n        } else {\n            vstatus = \"product denied\";\n        }\n\n        return (tks[_tkname].id, tks[_tkname].metadata, rstatus, vstatus, ownerOf(tks[_tkname].id));\n    }\n\n    /**\n     * query the metadata of a token\n     */\n    function countToken() public view returns (uint256) {\n        require(msg.sender == admin); // require caller to be the contract owner\n        return alltks.length;\n    }\n\n    function queryAll() public view returns (string[] memory) {\n        require(msg.sender == admin, \"Only contract owner can query all tokens.\"); // require caller to be the contract owner\n        return alltks;\n    }\n\n    function queryAllFields() \n        public \n        view \n        returns \n    (\n        string[] memory, \n        uint256[] memory, \n        string[] memory, \n        string[] memory, \n        address[] memory\n    ) \n    {\n        uint256[] memory internal_id = new uint256[](alltks.length);\n        string[] memory metadata = new string[](alltks.length);\n        string[] memory status = new string[](alltks.length);\n        address[] memory owner = new address[](alltks.length);\n\n        for(uint i=0; i<alltks.length; i++){\n            internal_id[i] = tks[alltks[i]].id;\n            metadata[i] = tks[alltks[i]].metadata;\n\n            if (tks[alltks[i]].rstatus == Recognitionstatus.PENDING) {\n                status[i] = \"pending packaging verification\";\n            } else if (tks[alltks[i]].rstatus == Recognitionstatus.VERIFIED) {\n                status[i] = \"packaging verified\";\n            } else {\n                status[i] = \"packaging denied\";\n            }\n\n            if (tks[alltks[i]].vstatus == Verificationstatus.PENDING) {\n                status[i] = \"pending product verification\";\n            } else if (tks[alltks[i]].vstatus == Verificationstatus.VERIFIED) {\n                status[i] = \"product verified\";\n            } else {\n                status[i] = \"product denied\";\n            }\n\n            owner[i] = ownerOf(tks[alltks[i]].id);\n        }\n\n        return (alltks, internal_id, metadata, status, owner);\n    }\n}\n",
  "sourcePath": "/home/yih/Documents/dev/beston-dapps/contracts/DigitalTwin.sol",
  "compiler": {
    "name": "solc",
    "version": "0.8.7+commit.e28d00a7.Emscripten.clang"
  },
  "schemaVersion": "3.4.1",
  "updatedAt": "2022-11-03T04:49:10.477Z",
  "networkType": "ethereum",
  "devdoc": {
    "kind": "dev",
    "methods": {
      "approve(address,uint256)": {
        "details": "See {IERC721-approve}."
      },
      "balanceOf(address)": {
        "details": "See {IERC721-balanceOf}."
      },
      "getApproved(uint256)": {
        "details": "See {IERC721-getApproved}."
      },
      "isApprovedForAll(address,address)": {
        "details": "See {IERC721-isApprovedForAll}."
      },
      "name()": {
        "details": "See {IERC721Metadata-name}."
      },
      "ownerOf(uint256)": {
        "details": "See {IERC721-ownerOf}."
      },
      "safeTransferFrom(address,address,uint256)": {
        "details": "See {IERC721-safeTransferFrom}."
      },
      "safeTransferFrom(address,address,uint256,bytes)": {
        "details": "See {IERC721-safeTransferFrom}."
      },
      "setApprovalForAll(address,bool)": {
        "details": "See {IERC721-setApprovalForAll}."
      },
      "supportsInterface(bytes4)": {
        "details": "See {IERC165-supportsInterface}."
      },
      "symbol()": {
        "details": "See {IERC721Metadata-symbol}."
      },
      "tokenURI(uint256)": {
        "details": "See {IERC721Metadata-tokenURI}."
      },
      "transferFrom(address,address,uint256)": {
        "details": "See {IERC721-transferFrom}."
      }
    },
    "version": 1
  },
  "userdoc": {
    "kind": "user",
    "methods": {
      "countToken()": {
        "notice": "query the metadata of a token"
      },
      "queryToken(string)": {
        "notice": "for js client to interact"
      },
      "recognize(string,bool)": {
        "notice": "recognize is called by processor upon optical verification of the product"
      },
      "transferByName(string,address)": {
        "notice": "tx.origin is the user account that starts the call, msg.sender is the contract that calls this contract"
      },
      "update(string,string)": {
        "notice": "update only updates the metadata of an existing token"
      },
      "verify(string,bool)": {
        "notice": "verify is called by processor upon optical verification of the product"
      }
    },
    "version": 1
  }
}