{
  "contractName": "DigitalTwin",
  "abi": [
    {
      "inputs": [
        {
          "internalType": "string",
          "name": "_name",
          "type": "string"
        },
        {
          "internalType": "string",
          "name": "_symbol",
          "type": "string"
        }
      ],
      "stateMutability": "nonpayable",
      "type": "constructor"
    },
    {
      "anonymous": false,
      "inputs": [
        {
          "indexed": true,
          "internalType": "address",
          "name": "owner",
          "type": "address"
        },
        {
          "indexed": true,
          "internalType": "address",
          "name": "approved",
          "type": "address"
        },
        {
          "indexed": true,
          "internalType": "uint256",
          "name": "tokenId",
          "type": "uint256"
        }
      ],
      "name": "Approval",
      "type": "event"
    },
    {
      "anonymous": false,
      "inputs": [
        {
          "indexed": true,
          "internalType": "address",
          "name": "owner",
          "type": "address"
        },
        {
          "indexed": true,
          "internalType": "address",
          "name": "operator",
          "type": "address"
        },
        {
          "indexed": false,
          "internalType": "bool",
          "name": "approved",
          "type": "bool"
        }
      ],
      "name": "ApprovalForAll",
      "type": "event"
    },
    {
      "anonymous": false,
      "inputs": [
        {
          "indexed": false,
          "internalType": "string",
          "name": "tkname",
          "type": "string"
        }
      ],
      "name": "TokenUpdated",
      "type": "event"
    },
    {
      "anonymous": false,
      "inputs": [
        {
          "indexed": false,
          "internalType": "string",
          "name": "tkname",
          "type": "string"
        }
      ],
      "name": "TokenVerified",
      "type": "event"
    },
    {
      "anonymous": false,
      "inputs": [
        {
          "indexed": true,
          "internalType": "address",
          "name": "from",
          "type": "address"
        },
        {
          "indexed": true,
          "internalType": "address",
          "name": "to",
          "type": "address"
        },
        {
          "indexed": true,
          "internalType": "uint256",
          "name": "tokenId",
          "type": "uint256"
        }
      ],
      "name": "Transfer",
      "type": "event"
    },
    {
      "inputs": [],
      "name": "admin",
      "outputs": [
        {
          "internalType": "address",
          "name": "",
          "type": "address"
        }
      ],
      "stateMutability": "view",
      "type": "function"
    },
    {
      "inputs": [
        {
          "internalType": "address",
          "name": "to",
          "type": "address"
        },
        {
          "internalType": "uint256",
          "name": "tokenId",
          "type": "uint256"
        }
      ],
      "name": "approve",
      "outputs": [],
      "stateMutability": "nonpayable",
      "type": "function"
    },
    {
      "inputs": [
        {
          "internalType": "address",
          "name": "owner",
          "type": "address"
        }
      ],
      "name": "balanceOf",
      "outputs": [
        {
          "internalType": "uint256",
          "name": "",
          "type": "uint256"
        }
      ],
      "stateMutability": "view",
      "type": "function"
    },
    {
      "inputs": [
        {
          "internalType": "uint256",
          "name": "tokenId",
          "type": "uint256"
        }
      ],
      "name": "getApproved",
      "outputs": [
        {
          "internalType": "address",
          "name": "",
          "type": "address"
        }
      ],
      "stateMutability": "view",
      "type": "function"
    },
    {
      "inputs": [
        {
          "internalType": "address",
          "name": "owner",
          "type": "address"
        },
        {
          "internalType": "address",
          "name": "operator",
          "type": "address"
        }
      ],
      "name": "isApprovedForAll",
      "outputs": [
        {
          "internalType": "bool",
          "name": "",
          "type": "bool"
        }
      ],
      "stateMutability": "view",
      "type": "function"
    },
    {
      "inputs": [],
      "name": "name",
      "outputs": [
        {
          "internalType": "string",
          "name": "",
          "type": "string"
        }
      ],
      "stateMutability": "view",
      "type": "function"
    },
    {
      "inputs": [
        {
          "internalType": "uint256",
          "name": "tokenId",
          "type": "uint256"
        }
      ],
      "name": "ownerOf",
      "outputs": [
        {
          "internalType": "address",
          "name": "",
          "type": "address"
        }
      ],
      "stateMutability": "view",
      "type": "function"
    },
    {
      "inputs": [
        {
          "internalType": "string",
          "name": "",
          "type": "string"
        }
      ],
      "name": "producttks",
      "outputs": [
        {
          "internalType": "uint256",
          "name": "id",
          "type": "uint256"
        },
        {
          "internalType": "string",
          "name": "metadata",
          "type": "string"
        },
        {
          "internalType": "enum DigitalTwin.Verificationstatus",
          "name": "status",
          "type": "uint8"
        }
      ],
      "stateMutability": "view",
      "type": "function"
    },
    {
      "inputs": [
        {
          "internalType": "address",
          "name": "from",
          "type": "address"
        },
        {
          "internalType": "address",
          "name": "to",
          "type": "address"
        },
        {
          "internalType": "uint256",
          "name": "tokenId",
          "type": "uint256"
        }
      ],
      "name": "safeTransferFrom",
      "outputs": [],
      "stateMutability": "nonpayable",
      "type": "function"
    },
    {
      "inputs": [
        {
          "internalType": "address",
          "name": "from",
          "type": "address"
        },
        {
          "internalType": "address",
          "name": "to",
          "type": "address"
        },
        {
          "internalType": "uint256",
          "name": "tokenId",
          "type": "uint256"
        },
        {
          "internalType": "bytes",
          "name": "_data",
          "type": "bytes"
        }
      ],
      "name": "safeTransferFrom",
      "outputs": [],
      "stateMutability": "nonpayable",
      "type": "function"
    },
    {
      "inputs": [
        {
          "internalType": "address",
          "name": "operator",
          "type": "address"
        },
        {
          "internalType": "bool",
          "name": "approved",
          "type": "bool"
        }
      ],
      "name": "setApprovalForAll",
      "outputs": [],
      "stateMutability": "nonpayable",
      "type": "function"
    },
    {
      "inputs": [
        {
          "internalType": "bytes4",
          "name": "interfaceId",
          "type": "bytes4"
        }
      ],
      "name": "supportsInterface",
      "outputs": [
        {
          "internalType": "bool",
          "name": "",
          "type": "bool"
        }
      ],
      "stateMutability": "view",
      "type": "function"
    },
    {
      "inputs": [],
      "name": "symbol",
      "outputs": [
        {
          "internalType": "string",
          "name": "",
          "type": "string"
        }
      ],
      "stateMutability": "view",
      "type": "function"
    },
    {
      "inputs": [
        {
          "internalType": "string",
          "name": "",
          "type": "string"
        }
      ],
      "name": "tkExists",
      "outputs": [
        {
          "internalType": "bool",
          "name": "",
          "type": "bool"
        }
      ],
      "stateMutability": "view",
      "type": "function"
    },
    {
      "inputs": [
        {
          "internalType": "uint256",
          "name": "",
          "type": "uint256"
        }
      ],
      "name": "tks",
      "outputs": [
        {
          "internalType": "string",
          "name": "",
          "type": "string"
        }
      ],
      "stateMutability": "view",
      "type": "function"
    },
    {
      "inputs": [
        {
          "internalType": "uint256",
          "name": "tokenId",
          "type": "uint256"
        }
      ],
      "name": "tokenURI",
      "outputs": [
        {
          "internalType": "string",
          "name": "",
          "type": "string"
        }
      ],
      "stateMutability": "view",
      "type": "function"
    },
    {
      "inputs": [
        {
          "internalType": "address",
          "name": "from",
          "type": "address"
        },
        {
          "internalType": "address",
          "name": "to",
          "type": "address"
        },
        {
          "internalType": "uint256",
          "name": "tokenId",
          "type": "uint256"
        }
      ],
      "name": "transferFrom",
      "outputs": [],
      "stateMutability": "nonpayable",
      "type": "function"
    },
    {
      "inputs": [
        {
          "internalType": "string",
          "name": "_tkname",
          "type": "string"
        },
        {
          "internalType": "string",
          "name": "_metadata",
          "type": "string"
        }
      ],
      "name": "mint",
      "outputs": [],
      "stateMutability": "nonpayable",
      "type": "function"
    },
    {
      "inputs": [
        {
          "internalType": "string",
          "name": "_tkname",
          "type": "string"
        },
        {
          "internalType": "string",
          "name": "_metadata",
          "type": "string"
        }
      ],
      "name": "update",
      "outputs": [],
      "stateMutability": "nonpayable",
      "type": "function"
    },
    {
      "inputs": [
        {
          "internalType": "string",
          "name": "_tkname",
          "type": "string"
        },
        {
          "internalType": "bool",
          "name": "_status",
          "type": "bool"
        }
      ],
      "name": "verify",
      "outputs": [],
      "stateMutability": "nonpayable",
      "type": "function"
    },
    {
      "inputs": [
        {
          "internalType": "string",
          "name": "_tkname",
          "type": "string"
        }
      ],
      "name": "burn",
      "outputs": [],
      "stateMutability": "nonpayable",
      "type": "function"
    },
    {
      "inputs": [
        {
          "internalType": "string",
          "name": "_tkname",
          "type": "string"
        }
      ],
      "name": "queryToken",
      "outputs": [
        {
          "internalType": "uint256",
          "name": "",
          "type": "uint256"
        },
        {
          "internalType": "string",
          "name": "",
          "type": "string"
        },
        {
          "internalType": "string",
          "name": "",
          "type": "string"
        },
        {
          "internalType": "address",
          "name": "",
          "type": "address"
        }
      ],
      "stateMutability": "view",
      "type": "function"
    },
    {
      "inputs": [],
      "name": "countToken",
      "outputs": [
        {
          "internalType": "uint256",
          "name": "",
          "type": "uint256"
        }
      ],
      "stateMutability": "view",
      "type": "function"
    },
    {
      "inputs": [],
      "name": "queryAll",
      "outputs": [
        {
          "internalType": "string[]",
          "name": "",
          "type": "string[]"
        }
      ],
      "stateMutability": "view",
      "type": "function"
    }
  ],
  "bytecode": "0x60806040523480156200001157600080fd5b50604051620040f5380380620040f58339818101604052810190620000379190620001e4565b8181816000908051906020019062000051929190620000b6565b5080600190805190602001906200006a929190620000b6565b50505033600760006101000a81548173ffffffffffffffffffffffffffffffffffffffff021916908373ffffffffffffffffffffffffffffffffffffffff1602179055505050620003ed565b828054620000c490620002fe565b90600052602060002090601f016020900481019282620000e8576000855562000134565b82601f106200010357805160ff191683800117855562000134565b8280016001018555821562000134579182015b828111156200013357825182559160200191906001019062000116565b5b50905062000143919062000147565b5090565b5b808211156200016257600081600090555060010162000148565b5090565b60006200017d620001778462000292565b62000269565b9050828152602081018484840111156200019c576200019b620003cd565b5b620001a9848285620002c8565b509392505050565b600082601f830112620001c957620001c8620003c8565b5b8151620001db84826020860162000166565b91505092915050565b60008060408385031215620001fe57620001fd620003d7565b5b600083015167ffffffffffffffff8111156200021f576200021e620003d2565b5b6200022d85828601620001b1565b925050602083015167ffffffffffffffff811115620002515762000250620003d2565b5b6200025f85828601620001b1565b9150509250929050565b60006200027562000288565b905062000283828262000334565b919050565b6000604051905090565b600067ffffffffffffffff821115620002b057620002af62000399565b5b620002bb82620003dc565b9050602081019050919050565b60005b83811015620002e8578082015181840152602081019050620002cb565b83811115620002f8576000848401525b50505050565b600060028204905060018216806200031757607f821691505b602082108114156200032e576200032d6200036a565b5b50919050565b6200033f82620003dc565b810181811067ffffffffffffffff8211171562000361576200036062000399565b5b80604052505050565b7f4e487b7100000000000000000000000000000000000000000000000000000000600052602260045260246000fd5b7f4e487b7100000000000000000000000000000000000000000000000000000000600052604160045260246000fd5b600080fd5b600080fd5b600080fd5b600080fd5b6000601f19601f8301169050919050565b613cf880620003fd6000396000f3fe608060405234801561001057600080fd5b50600436106101585760003560e01c8063b88d4fde116100c3578063e59247081161007c578063e5924708146103fe578063e7a81c551461041c578063e985e9c51461043a578063f4c84d191461046a578063f851a44014610486578063fe7c827b146104a457610158565b8063b88d4fde14610315578063c5573d4614610331578063c87b56dd14610364578063c8908f0214610394578063d26ac388146103c6578063dafa1d2d146103e257610158565b806342842e0e1161011557806342842e0e146102435780636352211e1461025f57806370a082311461028f5780638aa0fdad146102bf57806395d89b41146102db578063a22cb465146102f957610158565b806301ffc9a71461015d57806306fdde031461018d578063081812fc146101ab578063095ea7b3146101db5780630ad5b505146101f757806323b872dd14610227575b600080fd5b61017760048036038101906101729190612914565b6104d4565b6040516101849190612f93565b60405180910390f35b6101956105b6565b6040516101a29190612fae565b60405180910390f35b6101c560048036038101906101c09190612a8b565b610648565b6040516101d29190612f0a565b60405180910390f35b6101f560048036038101906101f091906128d4565b6106cd565b005b610211600480360381019061020c919061296e565b6107e5565b60405161021e9190612f93565b60405180910390f35b610241600480360381019061023c91906127be565b61081b565b005b61025d600480360381019061025891906127be565b61087b565b005b61027960048036038101906102749190612a8b565b61089b565b6040516102869190612f0a565b60405180910390f35b6102a960048036038101906102a49190612751565b61094d565b6040516102b69190613210565b60405180910390f35b6102d960048036038101906102d49190612a13565b610a05565b005b6102e3610ba3565b6040516102f09190612fae565b60405180910390f35b610313600480360381019061030e9190612894565b610c35565b005b61032f600480360381019061032a9190612811565b610c4b565b005b61034b6004803603810190610346919061296e565b610cad565b60405161035b9493929190613269565b60405180910390f35b61037e60048036038101906103799190612a8b565b610f95565b60405161038b9190612fae565b60405180910390f35b6103ae60048036038101906103a9919061296e565b61103c565b6040516103bd9392919061322b565b60405180910390f35b6103e060048036038101906103db91906129b7565b611111565b005b6103fc60048036038101906103f7919061296e565b61125e565b005b6104066113da565b6040516104139190612f71565b60405180910390f35b61042461150d565b6040516104319190613210565b60405180910390f35b610454600480360381019061044f919061277e565b611574565b6040516104619190612f93565b60405180910390f35b610484600480360381019061047f9190612a13565b611608565b005b61048e61177b565b60405161049b9190612f0a565b60405180910390f35b6104be60048036038101906104b99190612a8b565b6117a1565b6040516104cb9190612fae565b60405180910390f35b60007f80ac58cd000000000000000000000000000000000000000000000000000000007bffffffffffffffffffffffffffffffffffffffffffffffffffffffff1916827bffffffffffffffffffffffffffffffffffffffffffffffffffffffff1916148061059f57507f5b5e139f000000000000000000000000000000000000000000000000000000007bffffffffffffffffffffffffffffffffffffffffffffffffffffffff1916827bffffffffffffffffffffffffffffffffffffffffffffffffffffffff1916145b806105af57506105ae8261184d565b5b9050919050565b6060600080546105c590613566565b80601f01602080910402602001604051908101604052809291908181526020018280546105f190613566565b801561063e5780601f106106135761010080835404028352916020019161063e565b820191906000526020600020905b81548152906001019060200180831161062157829003601f168201915b5050505050905090565b6000610653826118b7565b610692576040517f08c379a000000000000000000000000000000000000000000000000000000000815260040161068990613190565b60405180910390fd5b6004600083815260200190815260200160002060009054906101000a900473ffffffffffffffffffffffffffffffffffffffff169050919050565b60006106d88261089b565b90508073ffffffffffffffffffffffffffffffffffffffff168373ffffffffffffffffffffffffffffffffffffffff161415610749576040517f08c379a0000000000000000000000000000000000000000000000000000000008152600401610740906131d0565b60405180910390fd5b8073ffffffffffffffffffffffffffffffffffffffff16610768611923565b73ffffffffffffffffffffffffffffffffffffffff161480610797575061079681610791611923565b611574565b5b6107d6576040517f08c379a00000000000000000000000000000000000000000000000000000000081526004016107cd906130d0565b60405180910390fd5b6107e0838361192b565b505050565b6009818051602081018201805184825260208301602085012081835280955050505050506000915054906101000a900460ff1681565b61082c610826611923565b826119e4565b61086b576040517f08c379a0000000000000000000000000000000000000000000000000000000008152600401610862906131f0565b60405180910390fd5b610876838383611ac2565b505050565b61089683838360405180602001604052806000815250610c4b565b505050565b6000806002600084815260200190815260200160002060009054906101000a900473ffffffffffffffffffffffffffffffffffffffff169050600073ffffffffffffffffffffffffffffffffffffffff168173ffffffffffffffffffffffffffffffffffffffff161415610944576040517f08c379a000000000000000000000000000000000000000000000000000000000815260040161093b90613110565b60405180910390fd5b80915050919050565b60008073ffffffffffffffffffffffffffffffffffffffff168273ffffffffffffffffffffffffffffffffffffffff1614156109be576040517f08c379a00000000000000000000000000000000000000000000000000000000081526004016109b5906130f0565b60405180910390fd5b600360008373ffffffffffffffffffffffffffffffffffffffff1673ffffffffffffffffffffffffffffffffffffffff168152602001908152602001600020549050919050565b600982604051610a159190612ecf565b908152602001604051809103902060009054906101000a900460ff1615610a71576040517f08c379a0000000000000000000000000000000000000000000000000000000008152600401610a6890613130565b60405180910390fd5b600682908060018154018082558091505060019003906000526020600020016000909190919091509080519060200190610aac929190612525565b5060006006805490509050610ac13382611d29565b80600884604051610ad29190612ecf565b90815260200160405180910390206000018190555081600884604051610af89190612ecf565b90815260200160405180910390206001019080519060200190610b1c929190612525565b506000600884604051610b2f9190612ecf565b908152602001604051809103902060020160006101000a81548160ff02191690836002811115610b6257610b616136a1565b5b02179055506001600984604051610b799190612ecf565b908152602001604051809103902060006101000a81548160ff021916908315150217905550505050565b606060018054610bb290613566565b80601f0160208091040260200160405190810160405280929190818152602001828054610bde90613566565b8015610c2b5780601f10610c0057610100808354040283529160200191610c2b565b820191906000526020600020905b815481529060010190602001808311610c0e57829003601f168201915b5050505050905090565b610c47610c40611923565b8383611f03565b5050565b610c5c610c56611923565b836119e4565b610c9b576040517f08c379a0000000000000000000000000000000000000000000000000000000008152600401610c92906131f0565b60405180910390fd5b610ca784848484612070565b50505050565b60006060806000600985604051610cc49190612ecf565b908152602001604051809103902060009054906101000a900460ff16610d1f576040517f08c379a0000000000000000000000000000000000000000000000000000000008152600401610d1690613170565b60405180910390fd5b606060006002811115610d3557610d346136a1565b5b600887604051610d459190612ecf565b908152602001604051809103902060020160009054906101000a900460ff166002811115610d7657610d756136a1565b5b1415610db9576040518060400160405280601481526020017f70656e64696e6720766572696669636174696f6e0000000000000000000000008152509050610e8b565b60016002811115610dcd57610dcc6136a1565b5b600887604051610ddd9190612ecf565b908152602001604051809103902060020160009054906101000a900460ff166002811115610e0e57610e0d6136a1565b5b1415610e51576040518060400160405280600881526020017f76657269666965640000000000000000000000000000000000000000000000008152509050610e8a565b6040518060400160405280600681526020017f64656e696564000000000000000000000000000000000000000000000000000081525090505b5b600886604051610e9b9190612ecf565b908152602001604051809103902060000154600887604051610ebd9190612ecf565b908152602001604051809103902060010182610ef960088a604051610ee29190612ecf565b90815260200160405180910390206000015461089b565b828054610f0590613566565b80601f0160208091040260200160405190810160405280929190818152602001828054610f3190613566565b8015610f7e5780601f10610f5357610100808354040283529160200191610f7e565b820191906000526020600020905b815481529060010190602001808311610f6157829003601f168201915b505050505092509450945094509450509193509193565b6060610fa0826118b7565b610fdf576040517f08c379a0000000000000000000000000000000000000000000000000000000008152600401610fd6906131b0565b60405180910390fd5b6000610fe96120cc565b905060008151116110095760405180602001604052806000815250611034565b80611013846120e3565b604051602001611024929190612ee6565b6040516020818303038152906040525b915050919050565b60088180516020810182018051848252602083016020850120818352809550505050505060009150905080600001549080600101805461107b90613566565b80601f01602080910402602001604051908101604052809291908181526020018280546110a790613566565b80156110f45780601f106110c9576101008083540402835291602001916110f4565b820191906000526020600020905b8154815290600101906020018083116110d757829003601f168201915b5050505050908060020160009054906101000a900460ff16905083565b6009826040516111219190612ecf565b908152602001604051809103902060009054906101000a900460ff1661117c576040517f08c379a000000000000000000000000000000000000000000000000000000000815260040161117390613170565b60405180910390fd5b6001151581151514156111d857600160088360405161119b9190612ecf565b908152602001604051809103902060020160006101000a81548160ff021916908360028111156111ce576111cd6136a1565b5b0217905550611223565b60026008836040516111ea9190612ecf565b908152602001604051809103902060020160006101000a81548160ff0219169083600281111561121d5761121c6136a1565b5b02179055505b7f59d309664d5e5c5c7562159b94306437ae8aed905c4f84933f4ad06eea902ed4826040516112529190612fae565b60405180910390a15050565b60098160405161126e9190612ecf565b908152602001604051809103902060009054906101000a900460ff166112c9576040517f08c379a00000000000000000000000000000000000000000000000000000000081526004016112c090613170565b60405180910390fd5b3373ffffffffffffffffffffffffffffffffffffffff1661130a6008836040516112f39190612ecf565b90815260200160405180910390206000015461089b565b73ffffffffffffffffffffffffffffffffffffffff1614611360576040517f08c379a000000000000000000000000000000000000000000000000000000000815260040161135790613010565b60405180910390fd5b61138a6008826040516113739190612ecf565b908152602001604051809103902060000154612244565b60088160405161139a9190612ecf565b90815260200160405180910390206000808201600090556001820160006113c191906125ab565b6002820160006101000a81549060ff0219169055505050565b6060600760009054906101000a900473ffffffffffffffffffffffffffffffffffffffff1673ffffffffffffffffffffffffffffffffffffffff163373ffffffffffffffffffffffffffffffffffffffff161461143657600080fd5b6006805480602002602001604051908101604052809291908181526020016000905b8282101561150457838290600052602060002001805461147790613566565b80601f01602080910402602001604051908101604052809291908181526020018280546114a390613566565b80156114f05780601f106114c5576101008083540402835291602001916114f0565b820191906000526020600020905b8154815290600101906020018083116114d357829003601f168201915b505050505081526020019060010190611458565b50505050905090565b6000600760009054906101000a900473ffffffffffffffffffffffffffffffffffffffff1673ffffffffffffffffffffffffffffffffffffffff163373ffffffffffffffffffffffffffffffffffffffff161461156957600080fd5b600680549050905090565b6000600560008473ffffffffffffffffffffffffffffffffffffffff1673ffffffffffffffffffffffffffffffffffffffff16815260200190815260200160002060008373ffffffffffffffffffffffffffffffffffffffff1673ffffffffffffffffffffffffffffffffffffffff16815260200190815260200160002060009054906101000a900460ff16905092915050565b6009826040516116189190612ecf565b908152602001604051809103902060009054906101000a900460ff16611673576040517f08c379a000000000000000000000000000000000000000000000000000000000815260040161166a90613170565b60405180910390fd5b3373ffffffffffffffffffffffffffffffffffffffff166116b460088460405161169d9190612ecf565b90815260200160405180910390206000015461089b565b73ffffffffffffffffffffffffffffffffffffffff161461170a576040517f08c379a000000000000000000000000000000000000000000000000000000000815260040161170190612fd0565b60405180910390fd5b8060088360405161171b9190612ecf565b9081526020016040518091039020600101908051906020019061173f929190612525565b507f6714407191569b7b9edd5db2d624b8e2281272e577950f0e87ca156570ffe9e48260405161176f9190612fae565b60405180910390a15050565b600760009054906101000a900473ffffffffffffffffffffffffffffffffffffffff1681565b600681815481106117b157600080fd5b9060005260206000200160009150905080546117cc90613566565b80601f01602080910402602001604051908101604052809291908181526020018280546117f890613566565b80156118455780601f1061181a57610100808354040283529160200191611845565b820191906000526020600020905b81548152906001019060200180831161182857829003601f168201915b505050505081565b60007f01ffc9a7000000000000000000000000000000000000000000000000000000007bffffffffffffffffffffffffffffffffffffffffffffffffffffffff1916827bffffffffffffffffffffffffffffffffffffffffffffffffffffffff1916149050919050565b60008073ffffffffffffffffffffffffffffffffffffffff166002600084815260200190815260200160002060009054906101000a900473ffffffffffffffffffffffffffffffffffffffff1673ffffffffffffffffffffffffffffffffffffffff1614159050919050565b600033905090565b816004600083815260200190815260200160002060006101000a81548173ffffffffffffffffffffffffffffffffffffffff021916908373ffffffffffffffffffffffffffffffffffffffff160217905550808273ffffffffffffffffffffffffffffffffffffffff1661199e8361089b565b73ffffffffffffffffffffffffffffffffffffffff167f8c5be1e5ebec7d5bd14f71427d1e84f3dd0314c0f7b2291e5b200ac8c7c3b92560405160405180910390a45050565b60006119ef826118b7565b611a2e576040517f08c379a0000000000000000000000000000000000000000000000000000000008152600401611a25906130b0565b60405180910390fd5b6000611a398361089b565b90508073ffffffffffffffffffffffffffffffffffffffff168473ffffffffffffffffffffffffffffffffffffffff161480611aa857508373ffffffffffffffffffffffffffffffffffffffff16611a9084610648565b73ffffffffffffffffffffffffffffffffffffffff16145b80611ab95750611ab88185611574565b5b91505092915050565b8273ffffffffffffffffffffffffffffffffffffffff16611ae28261089b565b73ffffffffffffffffffffffffffffffffffffffff1614611b38576040517f08c379a0000000000000000000000000000000000000000000000000000000008152600401611b2f90613030565b60405180910390fd5b600073ffffffffffffffffffffffffffffffffffffffff168273ffffffffffffffffffffffffffffffffffffffff161415611ba8576040517f08c379a0000000000000000000000000000000000000000000000000000000008152600401611b9f90613070565b60405180910390fd5b611bb3838383612361565b611bbe60008261192b565b6001600360008573ffffffffffffffffffffffffffffffffffffffff1673ffffffffffffffffffffffffffffffffffffffff1681526020019081526020016000206000828254611c0e9190613457565b925050819055506001600360008473ffffffffffffffffffffffffffffffffffffffff1673ffffffffffffffffffffffffffffffffffffffff1681526020019081526020016000206000828254611c6591906133d0565b92505081905550816002600083815260200190815260200160002060006101000a81548173ffffffffffffffffffffffffffffffffffffffff021916908373ffffffffffffffffffffffffffffffffffffffff160217905550808273ffffffffffffffffffffffffffffffffffffffff168473ffffffffffffffffffffffffffffffffffffffff167fddf252ad1be2c89b69c2b068fc378daa952ba7f163c4a11628f55a4df523b3ef60405160405180910390a4611d24838383612366565b505050565b600073ffffffffffffffffffffffffffffffffffffffff168273ffffffffffffffffffffffffffffffffffffffff161415611d99576040517f08c379a0000000000000000000000000000000000000000000000000000000008152600401611d9090613150565b60405180910390fd5b611da2816118b7565b15611de2576040517f08c379a0000000000000000000000000000000000000000000000000000000008152600401611dd990613050565b60405180910390fd5b611dee60008383612361565b6001600360008473ffffffffffffffffffffffffffffffffffffffff1673ffffffffffffffffffffffffffffffffffffffff1681526020019081526020016000206000828254611e3e91906133d0565b92505081905550816002600083815260200190815260200160002060006101000a81548173ffffffffffffffffffffffffffffffffffffffff021916908373ffffffffffffffffffffffffffffffffffffffff160217905550808273ffffffffffffffffffffffffffffffffffffffff16600073ffffffffffffffffffffffffffffffffffffffff167fddf252ad1be2c89b69c2b068fc378daa952ba7f163c4a11628f55a4df523b3ef60405160405180910390a4611eff60008383612366565b5050565b8173ffffffffffffffffffffffffffffffffffffffff168373ffffffffffffffffffffffffffffffffffffffff161415611f72576040517f08c379a0000000000000000000000000000000000000000000000000000000008152600401611f6990613090565b60405180910390fd5b80600560008573ffffffffffffffffffffffffffffffffffffffff1673ffffffffffffffffffffffffffffffffffffffff16815260200190815260200160002060008473ffffffffffffffffffffffffffffffffffffffff1673ffffffffffffffffffffffffffffffffffffffff16815260200190815260200160002060006101000a81548160ff0219169083151502179055508173ffffffffffffffffffffffffffffffffffffffff168373ffffffffffffffffffffffffffffffffffffffff167f17307eab39ab6107e8899845ad3d59bd9653f200f220920489ca2b5937696c31836040516120639190612f93565b60405180910390a3505050565b61207b848484611ac2565b6120878484848461236b565b6120c6576040517f08c379a00000000000000000000000000000000000000000000000000000000081526004016120bd90612ff0565b60405180910390fd5b50505050565b606060405180602001604052806000815250905090565b6060600082141561212b576040518060400160405280600181526020017f3000000000000000000000000000000000000000000000000000000000000000815250905061223f565b600082905060005b6000821461215d578080612146906135c9565b915050600a826121569190613426565b9150612133565b60008167ffffffffffffffff8111156121795761217861372e565b5b6040519080825280601f01601f1916602001820160405280156121ab5781602001600182028036833780820191505090505b5090505b60008514612238576001826121c49190613457565b9150600a856121d39190613612565b60306121df91906133d0565b60f81b8183815181106121f5576121f46136ff565b5b60200101907effffffffffffffffffffffffffffffffffffffffffffffffffffffffffffff1916908160001a905350600a856122319190613426565b94506121af565b8093505050505b919050565b600061224f8261089b565b905061225d81600084612361565b61226860008361192b565b6001600360008373ffffffffffffffffffffffffffffffffffffffff1673ffffffffffffffffffffffffffffffffffffffff16815260200190815260200160002060008282546122b89190613457565b925050819055506002600083815260200190815260200160002060006101000a81549073ffffffffffffffffffffffffffffffffffffffff021916905581600073ffffffffffffffffffffffffffffffffffffffff168273ffffffffffffffffffffffffffffffffffffffff167fddf252ad1be2c89b69c2b068fc378daa952ba7f163c4a11628f55a4df523b3ef60405160405180910390a461235d81600084612366565b5050565b505050565b505050565b600061238c8473ffffffffffffffffffffffffffffffffffffffff16612502565b156124f5578373ffffffffffffffffffffffffffffffffffffffff1663150b7a026123b5611923565b8786866040518563ffffffff1660e01b81526004016123d79493929190612f25565b602060405180830381600087803b1580156123f157600080fd5b505af192505050801561242257506040513d601f19601f8201168201806040525081019061241f9190612941565b60015b6124a5573d8060008114612452576040519150601f19603f3d011682016040523d82523d6000602084013e612457565b606091505b5060008151141561249d576040517f08c379a000000000000000000000000000000000000000000000000000000000815260040161249490612ff0565b60405180910390fd5b805181602001fd5b63150b7a0260e01b7bffffffffffffffffffffffffffffffffffffffffffffffffffffffff1916817bffffffffffffffffffffffffffffffffffffffffffffffffffffffff1916149150506124fa565b600190505b949350505050565b6000808273ffffffffffffffffffffffffffffffffffffffff163b119050919050565b82805461253190613566565b90600052602060002090601f016020900481019282612553576000855561259a565b82601f1061256c57805160ff191683800117855561259a565b8280016001018555821561259a579182015b8281111561259957825182559160200191906001019061257e565b5b5090506125a791906125eb565b5090565b5080546125b790613566565b6000825580601f106125c957506125e8565b601f0160209004906000526020600020908101906125e791906125eb565b5b50565b5b808211156126045760008160009055506001016125ec565b5090565b600061261b612616846132e1565b6132bc565b90508281526020810184848401111561263757612636613762565b5b612642848285613524565b509392505050565b600061265d61265884613312565b6132bc565b90508281526020810184848401111561267957612678613762565b5b612684848285613524565b509392505050565b60008135905061269b81613c66565b92915050565b6000813590506126b081613c7d565b92915050565b6000813590506126c581613c94565b92915050565b6000815190506126da81613c94565b92915050565b600082601f8301126126f5576126f461375d565b5b8135612705848260208601612608565b91505092915050565b600082601f8301126127235761272261375d565b5b813561273384826020860161264a565b91505092915050565b60008135905061274b81613cab565b92915050565b6000602082840312156127675761276661376c565b5b60006127758482850161268c565b91505092915050565b600080604083850312156127955761279461376c565b5b60006127a38582860161268c565b92505060206127b48582860161268c565b9150509250929050565b6000806000606084860312156127d7576127d661376c565b5b60006127e58682870161268c565b93505060206127f68682870161268c565b92505060406128078682870161273c565b9150509250925092565b6000806000806080858703121561282b5761282a61376c565b5b60006128398782880161268c565b945050602061284a8782880161268c565b935050604061285b8782880161273c565b925050606085013567ffffffffffffffff81111561287c5761287b613767565b5b612888878288016126e0565b91505092959194509250565b600080604083850312156128ab576128aa61376c565b5b60006128b98582860161268c565b92505060206128ca858286016126a1565b9150509250929050565b600080604083850312156128eb576128ea61376c565b5b60006128f98582860161268c565b925050602061290a8582860161273c565b9150509250929050565b60006020828403121561292a5761292961376c565b5b6000612938848285016126b6565b91505092915050565b6000602082840312156129575761295661376c565b5b6000612965848285016126cb565b91505092915050565b6000602082840312156129845761298361376c565b5b600082013567ffffffffffffffff8111156129a2576129a1613767565b5b6129ae8482850161270e565b91505092915050565b600080604083850312156129ce576129cd61376c565b5b600083013567ffffffffffffffff8111156129ec576129eb613767565b5b6129f88582860161270e565b9250506020612a09858286016126a1565b9150509250929050565b60008060408385031215612a2a57612a2961376c565b5b600083013567ffffffffffffffff811115612a4857612a47613767565b5b612a548582860161270e565b925050602083013567ffffffffffffffff811115612a7557612a74613767565b5b612a818582860161270e565b9150509250929050565b600060208284031215612aa157612aa061376c565b5b6000612aaf8482850161273c565b91505092915050565b6000612ac48383612ba7565b905092915050565b612ad58161348b565b82525050565b6000612ae682613353565b612af08185613381565b935083602082028501612b0285613343565b8060005b85811015612b3e5784840389528151612b1f8582612ab8565b9450612b2a83613374565b925060208a01995050600181019050612b06565b50829750879550505050505092915050565b612b598161349d565b82525050565b6000612b6a8261335e565b612b748185613392565b9350612b84818560208601613533565b612b8d81613771565b840191505092915050565b612ba181613512565b82525050565b6000612bb282613369565b612bbc81856133a3565b9350612bcc818560208601613533565b612bd581613771565b840191505092915050565b6000612beb82613369565b612bf581856133b4565b9350612c05818560208601613533565b612c0e81613771565b840191505092915050565b6000612c2482613369565b612c2e81856133c5565b9350612c3e818560208601613533565b80840191505092915050565b6000612c57602a836133b4565b9150612c6282613782565b604082019050919050565b6000612c7a6032836133b4565b9150612c85826137d1565b604082019050919050565b6000612c9d602b836133b4565b9150612ca882613820565b604082019050919050565b6000612cc06025836133b4565b9150612ccb8261386f565b604082019050919050565b6000612ce3601c836133b4565b9150612cee826138be565b602082019050919050565b6000612d066024836133b4565b9150612d11826138e7565b604082019050919050565b6000612d296019836133b4565b9150612d3482613936565b602082019050919050565b6000612d4c602c836133b4565b9150612d578261395f565b604082019050919050565b6000612d6f6038836133b4565b9150612d7a826139ae565b604082019050919050565b6000612d92602a836133b4565b9150612d9d826139fd565b604082019050919050565b6000612db56029836133b4565b9150612dc082613a4c565b604082019050919050565b6000612dd86015836133b4565b9150612de382613a9b565b602082019050919050565b6000612dfb6020836133b4565b9150612e0682613ac4565b602082019050919050565b6000612e1e6015836133b4565b9150612e2982613aed565b602082019050919050565b6000612e41602c836133b4565b9150612e4c82613b16565b604082019050919050565b6000612e64602f836133b4565b9150612e6f82613b65565b604082019050919050565b6000612e876021836133b4565b9150612e9282613bb4565b604082019050919050565b6000612eaa6031836133b4565b9150612eb582613c03565b604082019050919050565b612ec981613508565b82525050565b6000612edb8284612c19565b915081905092915050565b6000612ef28285612c19565b9150612efe8284612c19565b91508190509392505050565b6000602082019050612f1f6000830184612acc565b92915050565b6000608082019050612f3a6000830187612acc565b612f476020830186612acc565b612f546040830185612ec0565b8181036060830152612f668184612b5f565b905095945050505050565b60006020820190508181036000830152612f8b8184612adb565b905092915050565b6000602082019050612fa86000830184612b50565b92915050565b60006020820190508181036000830152612fc88184612be0565b905092915050565b60006020820190508181036000830152612fe981612c4a565b9050919050565b6000602082019050818103600083015261300981612c6d565b9050919050565b6000602082019050818103600083015261302981612c90565b9050919050565b6000602082019050818103600083015261304981612cb3565b9050919050565b6000602082019050818103600083015261306981612cd6565b9050919050565b6000602082019050818103600083015261308981612cf9565b9050919050565b600060208201905081810360008301526130a981612d1c565b9050919050565b600060208201905081810360008301526130c981612d3f565b9050919050565b600060208201905081810360008301526130e981612d62565b9050919050565b6000602082019050818103600083015261310981612d85565b9050919050565b6000602082019050818103600083015261312981612da8565b9050919050565b6000602082019050818103600083015261314981612dcb565b9050919050565b6000602082019050818103600083015261316981612dee565b9050919050565b6000602082019050818103600083015261318981612e11565b9050919050565b600060208201905081810360008301526131a981612e34565b9050919050565b600060208201905081810360008301526131c981612e57565b9050919050565b600060208201905081810360008301526131e981612e7a565b9050919050565b6000602082019050818103600083015261320981612e9d565b9050919050565b60006020820190506132256000830184612ec0565b92915050565b60006060820190506132406000830186612ec0565b81810360208301526132528185612be0565b90506132616040830184612b98565b949350505050565b600060808201905061327e6000830187612ec0565b81810360208301526132908186612be0565b905081810360408301526132a48185612be0565b90506132b36060830184612acc565b95945050505050565b60006132c66132d7565b90506132d28282613598565b919050565b6000604051905090565b600067ffffffffffffffff8211156132fc576132fb61372e565b5b61330582613771565b9050602081019050919050565b600067ffffffffffffffff82111561332d5761332c61372e565b5b61333682613771565b9050602081019050919050565b6000819050602082019050919050565b600081519050919050565b600081519050919050565b600081519050919050565b6000602082019050919050565b600082825260208201905092915050565b600082825260208201905092915050565b600082825260208201905092915050565b600082825260208201905092915050565b600081905092915050565b60006133db82613508565b91506133e683613508565b9250827fffffffffffffffffffffffffffffffffffffffffffffffffffffffffffffffff0382111561341b5761341a613643565b5b828201905092915050565b600061343182613508565b915061343c83613508565b92508261344c5761344b613672565b5b828204905092915050565b600061346282613508565b915061346d83613508565b9250828210156134805761347f613643565b5b828203905092915050565b6000613496826134e8565b9050919050565b60008115159050919050565b60007fffffffff0000000000000000000000000000000000000000000000000000000082169050919050565b60008190506134e382613c52565b919050565b600073ffffffffffffffffffffffffffffffffffffffff82169050919050565b6000819050919050565b600061351d826134d5565b9050919050565b82818337600083830152505050565b60005b83811015613551578082015181840152602081019050613536565b83811115613560576000848401525b50505050565b6000600282049050600182168061357e57607f821691505b60208210811415613592576135916136d0565b5b50919050565b6135a182613771565b810181811067ffffffffffffffff821117156135c0576135bf61372e565b5b80604052505050565b60006135d482613508565b91507fffffffffffffffffffffffffffffffffffffffffffffffffffffffffffffffff82141561360757613606613643565b5b600182019050919050565b600061361d82613508565b915061362883613508565b92508261363857613637613672565b5b828206905092915050565b7f4e487b7100000000000000000000000000000000000000000000000000000000600052601160045260246000fd5b7f4e487b7100000000000000000000000000000000000000000000000000000000600052601260045260246000fd5b7f4e487b7100000000000000000000000000000000000000000000000000000000600052602160045260246000fd5b7f4e487b7100000000000000000000000000000000000000000000000000000000600052602260045260246000fd5b7f4e487b7100000000000000000000000000000000000000000000000000000000600052603260045260246000fd5b7f4e487b7100000000000000000000000000000000000000000000000000000000600052604160045260246000fd5b600080fd5b600080fd5b600080fd5b600080fd5b6000601f19601f8301169050919050565b7f4f6e6c792074686520746f6b656e206f776e65722063616e207570646174652060008201527f74686520746f6b656e2e00000000000000000000000000000000000000000000602082015250565b7f4552433732313a207472616e7366657220746f206e6f6e20455243373231526560008201527f63656976657220696d706c656d656e7465720000000000000000000000000000602082015250565b7f4f6e6c792074686520746f6b656e206f776e65722063616e2064657374726f7960008201527f2074686520746f6b656e2e000000000000000000000000000000000000000000602082015250565b7f4552433732313a207472616e736665722066726f6d20696e636f72726563742060008201527f6f776e6572000000000000000000000000000000000000000000000000000000602082015250565b7f4552433732313a20746f6b656e20616c7265616479206d696e74656400000000600082015250565b7f4552433732313a207472616e7366657220746f20746865207a65726f2061646460008201527f7265737300000000000000000000000000000000000000000000000000000000602082015250565b7f4552433732313a20617070726f766520746f2063616c6c657200000000000000600082015250565b7f4552433732313a206f70657261746f7220717565727920666f72206e6f6e657860008201527f697374656e7420746f6b656e0000000000000000000000000000000000000000602082015250565b7f4552433732313a20617070726f76652063616c6c6572206973206e6f74206f7760008201527f6e6572206e6f7220617070726f76656420666f7220616c6c0000000000000000602082015250565b7f4552433732313a2062616c616e636520717565727920666f7220746865207a6560008201527f726f206164647265737300000000000000000000000000000000000000000000602082015250565b7f4552433732313a206f776e657220717565727920666f72206e6f6e657869737460008201527f656e7420746f6b656e0000000000000000000000000000000000000000000000602082015250565b7f546f6b656e20616c7265616479206578697374732e0000000000000000000000600082015250565b7f4552433732313a206d696e7420746f20746865207a65726f2061646472657373600082015250565b7f546f6b656e20646f6573206e6f742065786973742e0000000000000000000000600082015250565b7f4552433732313a20617070726f76656420717565727920666f72206e6f6e657860008201527f697374656e7420746f6b656e0000000000000000000000000000000000000000602082015250565b7f4552433732314d657461646174613a2055524920717565727920666f72206e6f60008201527f6e6578697374656e7420746f6b656e0000000000000000000000000000000000602082015250565b7f4552433732313a20617070726f76616c20746f2063757272656e74206f776e6560008201527f7200000000000000000000000000000000000000000000000000000000000000602082015250565b7f4552433732313a207472616e736665722063616c6c6572206973206e6f74206f60008201527f776e6572206e6f7220617070726f766564000000000000000000000000000000602082015250565b60038110613c6357613c626136a1565b5b50565b613c6f8161348b565b8114613c7a57600080fd5b50565b613c868161349d565b8114613c9157600080fd5b50565b613c9d816134a9565b8114613ca857600080fd5b50565b613cb481613508565b8114613cbf57600080fd5b5056fea2646970667358221220ed2a25bc0321dd874276cd3dd9fe66e3599aeb986296f3f16bb74f65ff0ef5b364736f6c63430008070033",
  "immutableReferences": {},
  "source": "// SPDX-License-Identifier: UNLICENSED\npragma solidity ^0.8.0;\n\nimport \"../node_modules/@openzeppelin/contracts/token/ERC721/ERC721.sol\";\n\ncontract DigitalTwin is ERC721 {\n    string[] public tks; // to record all tks\n    address public admin;\n\n    /**\n     * Allow consumers to access the product verification results through apis.\n     */\n    enum Verificationstatus {\n        PENDING,\n        PROCESSORVERIFIED,\n        PROCESSORDENIED\n    }\n\n    struct ProductTk {\n        uint256 id;\n        string metadata;\n        Verificationstatus status;\n    }\n\n    mapping(string => ProductTk) public producttks; // mapping of tkname => ProductTk struct\n    mapping(string => bool) public tkExists;\n\n    event TokenUpdated(string tkname);\n    event TokenVerified(string tkname);\n\n    constructor(string memory _name, string memory _symbol)\n        ERC721(_name, _symbol)\n    {\n        admin = msg.sender;\n    }\n\n    function mint(string memory _tkname, string memory _metadata) public {\n\n        require(!tkExists[_tkname], \"Token already exists.\");\n\n        tks.push(_tkname);\n        uint256 id = tks.length;\n        _mint(msg.sender, id);\n        \n        producttks[_tkname].id = id;\n        producttks[_tkname].metadata = _metadata;\n        producttks[_tkname].status = Verificationstatus.PENDING;\n\n        tkExists[_tkname] = true;\n    }\n\n    /**\n     * update only updates the metadata of an existing token\n     */\n    function update(string memory _tkname, string memory _metadata) public {\n\n        require(tkExists[_tkname], \"Token does not exist.\");\n        require(\n            ownerOf(producttks[_tkname].id) == address(msg.sender),\n            \"Only the token owner can update the token.\"\n        );\n\n        producttks[_tkname].metadata = _metadata;\n\n        emit TokenUpdated(_tkname);\n    }\n\n    /**\n     * verify is called by process upon optical verification of the product\n     */\n    function verify(string memory _tkname, bool _status) public {\n\n        require(tkExists[_tkname], \"Token does not exist.\");\n\n        if (_status == true) {\n            producttks[_tkname].status = Verificationstatus.PROCESSORVERIFIED;\n        }\n        else {\n            producttks[_tkname].status = Verificationstatus.PROCESSORDENIED;\n        }\n\n        emit TokenVerified(_tkname);\n    }\n\n    function burn(string memory _tkname) public {\n\n        require(tkExists[_tkname], \"Token does not exist.\");\n        require(\n            ownerOf(producttks[_tkname].id) == address(msg.sender),\n            \"Only the token owner can destroy the token.\"\n        );\n\n        _burn(producttks[_tkname].id);\n        delete producttks[_tkname];\n    }\n\n    /**\n     * @notice for js client to interact\n     */\n    function queryToken(string memory _tkname)\n        public\n        view\n        returns (uint256, string memory, string memory, address)\n    {\n        require(tkExists[_tkname], \"Token does not exist.\");\n        \n        string memory status;\n\n        if (producttks[_tkname].status == Verificationstatus.PENDING) {\n            status = \"pending verification\";\n        } else if (producttks[_tkname].status == Verificationstatus.PROCESSORVERIFIED) {\n            status = \"verified\";\n        } else {\n            status = \"denied\";\n        }\n\n        return (producttks[_tkname].id, producttks[_tkname].metadata, status, ownerOf(producttks[_tkname].id));\n    }\n\n    /**\n     * query the metadata of a token\n     */\n    function countToken() public view returns (uint256) {\n        require(msg.sender == admin); // require caller to be the contract owner\n        return tks.length;\n    }\n\n    function queryAll() public view returns (string[] memory) {\n        require(msg.sender == admin); // require caller to be the contract owner\n        return tks;\n    }\n}\n",
  "sourcePath": "/home/yih/Documents/dev/beston-dapps/contracts/DigitalTwin.sol",
  "compiler": {
    "name": "solc",
    "version": "0.8.7+commit.e28d00a7.Emscripten.clang"
  },
  "schemaVersion": "3.4.1",
  "updatedAt": "2022-04-29T04:14:46.427Z",
  "devdoc": {
    "kind": "dev",
    "methods": {
      "approve(address,uint256)": {
        "details": "See {IERC721-approve}."
      },
      "balanceOf(address)": {
        "details": "See {IERC721-balanceOf}."
      },
      "getApproved(uint256)": {
        "details": "See {IERC721-getApproved}."
      },
      "isApprovedForAll(address,address)": {
        "details": "See {IERC721-isApprovedForAll}."
      },
      "name()": {
        "details": "See {IERC721Metadata-name}."
      },
      "ownerOf(uint256)": {
        "details": "See {IERC721-ownerOf}."
      },
      "safeTransferFrom(address,address,uint256)": {
        "details": "See {IERC721-safeTransferFrom}."
      },
      "safeTransferFrom(address,address,uint256,bytes)": {
        "details": "See {IERC721-safeTransferFrom}."
      },
      "setApprovalForAll(address,bool)": {
        "details": "See {IERC721-setApprovalForAll}."
      },
      "supportsInterface(bytes4)": {
        "details": "See {IERC165-supportsInterface}."
      },
      "symbol()": {
        "details": "See {IERC721Metadata-symbol}."
      },
      "tokenURI(uint256)": {
        "details": "See {IERC721Metadata-tokenURI}."
      },
      "transferFrom(address,address,uint256)": {
        "details": "See {IERC721-transferFrom}."
      }
    },
    "version": 1
  },
  "userdoc": {
    "kind": "user",
    "methods": {
      "countToken()": {
        "notice": "query the metadata of a token"
      },
      "queryToken(string)": {
        "notice": "for js client to interact"
      },
      "update(string,string)": {
        "notice": "update only updates the metadata of an existing token"
      },
      "verify(string,bool)": {
        "notice": "verify is called by process upon optical verification of the product"
      }
    },
    "version": 1
  }
}