{
  "contractName": "EmissionTracking",
  "abi": [
    {
      "inputs": [
        {
          "internalType": "contract HerdRegistry",
          "name": "_herdregistry",
          "type": "address"
        },
        {
          "internalType": "contract FeedTracking",
          "name": "_feedtracking",
          "type": "address"
        }
      ],
      "stateMutability": "nonpayable",
      "type": "constructor"
    },
    {
      "inputs": [
        {
          "internalType": "uint256",
          "name": "",
          "type": "uint256"
        }
      ],
      "name": "allemissions",
      "outputs": [
        {
          "internalType": "string",
          "name": "",
          "type": "string"
        }
      ],
      "stateMutability": "view",
      "type": "function"
    },
    {
      "inputs": [
        {
          "internalType": "string",
          "name": "",
          "type": "string"
        }
      ],
      "name": "emissionExists",
      "outputs": [
        {
          "internalType": "bool",
          "name": "",
          "type": "bool"
        }
      ],
      "stateMutability": "view",
      "type": "function"
    },
    {
      "inputs": [
        {
          "internalType": "string",
          "name": "",
          "type": "string"
        }
      ],
      "name": "emissions",
      "outputs": [
        {
          "internalType": "uint16",
          "name": "Value",
          "type": "uint16"
        },
        {
          "internalType": "enum FeedTracking.Ingredient",
          "name": "FeedType",
          "type": "uint8"
        },
        {
          "internalType": "string",
          "name": "HerdID",
          "type": "string"
        },
        {
          "internalType": "uint256",
          "name": "DateTime",
          "type": "uint256"
        },
        {
          "internalType": "uint256",
          "name": "BlockTime",
          "type": "uint256"
        }
      ],
      "stateMutability": "view",
      "type": "function"
    },
    {
      "inputs": [],
      "name": "feedtracking",
      "outputs": [
        {
          "internalType": "contract FeedTracking",
          "name": "",
          "type": "address"
        }
      ],
      "stateMutability": "view",
      "type": "function"
    },
    {
      "inputs": [],
      "name": "herdregistry",
      "outputs": [
        {
          "internalType": "contract HerdRegistry",
          "name": "",
          "type": "address"
        }
      ],
      "stateMutability": "view",
      "type": "function"
    },
    {
      "inputs": [
        {
          "internalType": "string",
          "name": "_emissionid",
          "type": "string"
        },
        {
          "internalType": "uint16",
          "name": "_value",
          "type": "uint16"
        },
        {
          "internalType": "uint8",
          "name": "_feedtype",
          "type": "uint8"
        },
        {
          "internalType": "string",
          "name": "_herdid",
          "type": "string"
        },
        {
          "internalType": "uint256",
          "name": "_datetime",
          "type": "uint256"
        }
      ],
      "name": "logEmission",
      "outputs": [],
      "stateMutability": "nonpayable",
      "type": "function"
    },
    {
      "inputs": [
        {
          "internalType": "string",
          "name": "_emissionid",
          "type": "string"
        }
      ],
      "name": "queryEmission",
      "outputs": [
        {
          "internalType": "string",
          "name": "",
          "type": "string"
        },
        {
          "internalType": "uint16",
          "name": "",
          "type": "uint16"
        },
        {
          "internalType": "string",
          "name": "",
          "type": "string"
        },
        {
          "internalType": "uint256",
          "name": "",
          "type": "uint256"
        },
        {
          "internalType": "uint256",
          "name": "",
          "type": "uint256"
        }
      ],
      "stateMutability": "view",
      "type": "function"
    },
    {
      "inputs": [],
      "name": "queryAll",
      "outputs": [
        {
          "internalType": "string[]",
          "name": "",
          "type": "string[]"
        },
        {
          "internalType": "string[]",
          "name": "",
          "type": "string[]"
        },
        {
          "internalType": "uint16[]",
          "name": "",
          "type": "uint16[]"
        },
        {
          "internalType": "string[]",
          "name": "",
          "type": "string[]"
        },
        {
          "internalType": "uint256[]",
          "name": "",
          "type": "uint256[]"
        },
        {
          "internalType": "uint256[]",
          "name": "",
          "type": "uint256[]"
        }
      ],
      "stateMutability": "view",
      "type": "function"
    },
    {
      "inputs": [
        {
          "internalType": "string[]",
          "name": "_control",
          "type": "string[]"
        },
        {
          "internalType": "string[]",
          "name": "_treatment",
          "type": "string[]"
        },
        {
          "internalType": "uint8",
          "name": "_feedtype",
          "type": "uint8"
        }
      ],
      "name": "verifyEmissionValue",
      "outputs": [
        {
          "internalType": "bool",
          "name": "",
          "type": "bool"
        }
      ],
      "stateMutability": "view",
      "type": "function"
    },
    {
      "inputs": [
        {
          "internalType": "string",
          "name": "_emissionid",
          "type": "string"
        }
      ],
      "name": "linkEmissionToFeed",
      "outputs": [
        {
          "internalType": "string",
          "name": "",
          "type": "string"
        }
      ],
      "stateMutability": "view",
      "type": "function"
    }
  ],
  "bytecode": "0x60806040523480156200001157600080fd5b5060405162003062380380620030628339818101604052810190620000379190620000ee565b816000806101000a81548173ffffffffffffffffffffffffffffffffffffffff021916908373ffffffffffffffffffffffffffffffffffffffff16021790555080600160006101000a81548173ffffffffffffffffffffffffffffffffffffffff021916908373ffffffffffffffffffffffffffffffffffffffff1602179055505050620001ca565b600081519050620000d18162000196565b92915050565b600081519050620000e881620001b0565b92915050565b6000806040838503121562000108576200010762000191565b5b60006200011885828601620000d7565b92505060206200012b85828601620000c0565b9150509250929050565b6000620001428262000171565b9050919050565b6000620001568262000135565b9050919050565b60006200016a8262000135565b9050919050565b600073ffffffffffffffffffffffffffffffffffffffff82169050919050565b600080fd5b620001a18162000149565b8114620001ad57600080fd5b50565b620001bb816200015d565b8114620001c757600080fd5b50565b612e8880620001da6000396000f3fe608060405234801561001057600080fd5b506004361061009e5760003560e01c8063ad90429111610066578063ad90429114610175578063b3f4b362146101a5578063c3eb4ba4146101c3578063e5924708146101f3578063e5e5efc8146102165761009e565b80630b134f30146100a3578063120f894e146100d357806372a5b30e14610107578063900616281461013b5780639c699d0a14610159575b600080fd5b6100bd60048036038101906100b89190611e47565b610246565b6040516100ca9190612536565b60405180910390f35b6100ed60048036038101906100e89190611e47565b6105de565b6040516100fe959493929190612558565b60405180910390f35b610121600480360381019061011c9190611e47565b61098c565b6040516101329594939291906126b9565b60405180910390f35b610143610a7b565b6040516101509190612500565b60405180910390f35b610173600480360381019061016e9190611ed9565b610aa1565b005b61018f600480360381019061018a9190611f8c565b610d66565b60405161019c9190612536565b60405180910390f35b6101ad610e12565b6040516101ba919061251b565b60405180910390f35b6101dd60048036038101906101d89190611e47565b610e36565b6040516101ea91906124e5565b60405180910390f35b6101fb610e6c565b60405161020d9695949392919061245a565b60405180910390f35b610230600480360381019061022b9190611d8f565b611610565b60405161023d91906124e5565b60405180910390f35b606060038260405161025891906123f7565b908152602001604051809103902060009054906101000a900460ff166102b3576040517f08c379a00000000000000000000000000000000000000000000000000000000081526004016102aa90612679565b60405180910390fd5b6060806060600060028111156102cc576102cb612aaa565b5b6002866040516102dc91906123f7565b908152602001604051809103902060000160029054906101000a900460ff16600281111561030d5761030c612aaa565b5b1415610350576040518060400160405280600781526020017f526567756c61720000000000000000000000000000000000000000000000000081525092506104ba565b6001600281111561036457610363612aaa565b5b60028660405161037491906123f7565b908152602001604051809103902060000160029054906101000a900460ff1660028111156103a5576103a4612aaa565b5b14156103e8576040518060400160405280600c81526020017f417370617261676f70736973000000000000000000000000000000000000000081525092506104b9565b6002808111156103fb576103fa612aaa565b5b60028660405161040b91906123f7565b908152602001604051809103902060000160029054906101000a900460ff16600281111561043c5761043b612aaa565b5b141561047f576040518060400160405280600881526020017f506f6c796761696e00000000000000000000000000000000000000000000000081525092506104b8565b6040518060400160405280600781526020017f556e6b6e6f776e0000000000000000000000000000000000000000000000000081525092505b5b5b826002866040516104cb91906123f7565b90815260200160405180910390206001016002876040516104ec91906123f7565b9081526020016040518091039020600201546040516020016105109392919061240e565b6040516020818303038152906040529050600160009054906101000a900473ffffffffffffffffffffffffffffffffffffffff1673ffffffffffffffffffffffffffffffffffffffff1663f846bdfa826040518263ffffffff1660e01b815260040161057c9190612536565b60006040518083038186803b15801561059457600080fd5b505afa1580156105a8573d6000803e3d6000fd5b505050506040513d6000823e3d601f19601f820116820180604052508101906105d19190611e90565b9150819350505050919050565b6060600060606000806003866040516105f791906123f7565b908152602001604051809103902060009054906101000a900460ff16610652576040517f08c379a0000000000000000000000000000000000000000000000000000000008152600401610649906125b9565b60405180910390fd5b60606000600281111561066857610667612aaa565b5b60028860405161067891906123f7565b908152602001604051809103902060000160029054906101000a900460ff1660028111156106a9576106a8612aaa565b5b14156106ec576040518060400160405280600781526020017f526567756c6172000000000000000000000000000000000000000000000000008152509050610856565b60016002811115610700576106ff612aaa565b5b60028860405161071091906123f7565b908152602001604051809103902060000160029054906101000a900460ff16600281111561074157610740612aaa565b5b1415610784576040518060400160405280600c81526020017f417370617261676f7073697300000000000000000000000000000000000000008152509050610855565b60028081111561079757610796612aaa565b5b6002886040516107a791906123f7565b908152602001604051809103902060000160029054906101000a900460ff1660028111156107d8576107d7612aaa565b5b141561081b576040518060400160405280600881526020017f506f6c796761696e0000000000000000000000000000000000000000000000008152509050610854565b6040518060400160405280600781526020017f556e6b6e6f776e0000000000000000000000000000000000000000000000000081525090505b5b5b60028760405161086691906123f7565b908152602001604051809103902060010160028860405161088791906123f7565b908152602001604051809103902060000160009054906101000a900461ffff168260028a6040516108b891906123f7565b90815260200160405180910390206002015460028b6040516108da91906123f7565b9081526020016040518091039020600301548480546108f8906129c5565b80601f0160208091040260200160405190810160405280929190818152602001828054610924906129c5565b80156109715780601f1061094657610100808354040283529160200191610971565b820191906000526020600020905b81548152906001019060200180831161095457829003601f168201915b50505050509450955095509550955095505091939590929450565b6002818051602081018201805184825260208301602085012081835280955050505050506000915090508060000160009054906101000a900461ffff16908060000160029054906101000a900460ff16908060010180546109ec906129c5565b80601f0160208091040260200160405190810160405280929190818152602001828054610a18906129c5565b8015610a655780601f10610a3a57610100808354040283529160200191610a65565b820191906000526020600020905b815481529060010190602001808311610a4857829003601f168201915b5050505050908060020154908060030154905085565b600160009054906101000a900473ffffffffffffffffffffffffffffffffffffffff1681565b600385604051610ab191906123f7565b908152602001604051809103902060009054906101000a900460ff1615610b0d576040517f08c379a0000000000000000000000000000000000000000000000000000000008152600401610b0490612619565b60405180910390fd5b60008054906101000a900473ffffffffffffffffffffffffffffffffffffffff1673ffffffffffffffffffffffffffffffffffffffff1663cfe6aaf1836040518263ffffffff1660e01b8152600401610b669190612536565b60206040518083038186803b158015610b7e57600080fd5b505afa158015610b92573d6000803e3d6000fd5b505050506040513d601f19601f82011682018060405250810190610bb69190611e1a565b610bf5576040517f08c379a0000000000000000000000000000000000000000000000000000000008152600401610bec90612639565b60405180910390fd5b6040518060a001604052808561ffff1681526020018460ff166002811115610c2057610c1f612aaa565b5b6002811115610c3257610c31612aaa565b5b815260200183815260200182815260200142815250600286604051610c5791906123f7565b908152602001604051809103902060008201518160000160006101000a81548161ffff021916908361ffff16021790555060208201518160000160026101000a81548160ff02191690836002811115610cb357610cb2612aaa565b5b02179055506040820151816001019080519060200190610cd4929190611afc565b5060608201518160020155608082015181600301559050506001600386604051610cfe91906123f7565b908152602001604051809103902060006101000a81548160ff021916908315150217905550600485908060018154018082558091505060019003906000526020600020016000909190919091509080519060200190610d5e929190611afc565b505050505050565b60048181548110610d7657600080fd5b906000526020600020016000915090508054610d91906129c5565b80601f0160208091040260200160405190810160405280929190818152602001828054610dbd906129c5565b8015610e0a5780601f10610ddf57610100808354040283529160200191610e0a565b820191906000526020600020905b815481529060010190602001808311610ded57829003601f168201915b505050505081565b60008054906101000a900473ffffffffffffffffffffffffffffffffffffffff1681565b6003818051602081018201805184825260208301602085012081835280955050505050506000915054906101000a900460ff1681565b606080606080606080600060048054905067ffffffffffffffff811115610e9657610e95612b37565b5b604051908082528060200260200182016040528015610ec957816020015b6060815260200190600190039081610eb45790505b509050600060048054905067ffffffffffffffff811115610eed57610eec612b37565b5b604051908082528060200260200182016040528015610f1b5781602001602082028036833780820191505090505b509050600060048054905067ffffffffffffffff811115610f3f57610f3e612b37565b5b604051908082528060200260200182016040528015610f7257816020015b6060815260200190600190039081610f5d5790505b509050600060048054905067ffffffffffffffff811115610f9657610f95612b37565b5b604051908082528060200260200182016040528015610fc45781602001602082028036833780820191505090505b509050600060048054905067ffffffffffffffff811115610fe857610fe7612b37565b5b6040519080825280602002602001820160405280156110165781602001602082028036833780820191505090505b50905060005b60048054905081101561151c5760026004828154811061103f5761103e612b08565b5b906000526020600020016040516110569190612443565b90815260200160405180910390206001018054611072906129c5565b80601f016020809104026020016040519081016040528092919081815260200182805461109e906129c5565b80156110eb5780601f106110c0576101008083540402835291602001916110eb565b820191906000526020600020905b8154815290600101906020018083116110ce57829003601f168201915b505050505086828151811061110357611102612b08565b5b602002602001018190525060026004828154811061112457611123612b08565b5b9060005260206000200160405161113b9190612443565b908152602001604051809103902060000160009054906101000a900461ffff1685828151811061116e5761116d612b08565b5b602002602001019061ffff16908161ffff16815250506000600281111561119857611197612aaa565b5b6002600483815481106111ae576111ad612b08565b5b906000526020600020016040516111c59190612443565b908152602001604051809103902060000160029054906101000a900460ff1660028111156111f6576111f5612aaa565b5b1415611255576040518060400160405280600781526020017f526567756c61720000000000000000000000000000000000000000000000000081525084828151811061124557611244612b08565b5b602002602001018190525061144d565b6001600281111561126957611268612aaa565b5b60026004838154811061127f5761127e612b08565b5b906000526020600020016040516112969190612443565b908152602001604051809103902060000160029054906101000a900460ff1660028111156112c7576112c6612aaa565b5b1415611326576040518060400160405280600c81526020017f417370617261676f70736973000000000000000000000000000000000000000081525084828151811061131657611315612b08565b5b602002602001018190525061144c565b60028081111561133957611338612aaa565b5b60026004838154811061134f5761134e612b08565b5b906000526020600020016040516113669190612443565b908152602001604051809103902060000160029054906101000a900460ff16600281111561139757611396612aaa565b5b14156113f6576040518060400160405280600881526020017f506f6c796761696e0000000000000000000000000000000000000000000000008152508482815181106113e6576113e5612b08565b5b602002602001018190525061144b565b6040518060400160405280600781526020017f556e6b6e6f776e0000000000000000000000000000000000000000000000000081525084828151811061143f5761143e612b08565b5b60200260200101819052505b5b5b60026004828154811061146357611462612b08565b5b9060005260206000200160405161147a9190612443565b90815260200160405180910390206002015483828151811061149f5761149e612b08565b5b6020026020010181815250506002600482815481106114c1576114c0612b08565b5b906000526020600020016040516114d89190612443565b9081526020016040518091039020600301548282815181106114fd576114fc612b08565b5b602002602001018181525050808061151490612a28565b91505061101c565b506004858585858585805480602002602001604051908101604052809291908181526020016000905b828210156115f1578382906000526020600020018054611564906129c5565b80601f0160208091040260200160405190810160405280929190818152602001828054611590906129c5565b80156115dd5780601f106115b2576101008083540402835291602001916115dd565b820191906000526020600020905b8154815290600101906020018083116115c057829003601f168201915b505050505081526020019060010190611545565b5050505095509a509a509a509a509a509a505050505050909192939495565b60008251845114611656576040517f08c379a000000000000000000000000000000000000000000000000000000000815260040161164d90612699565b60405180910390fd5b60008060005b86518110156119a257600387828151811061167a57611679612b08565b5b602002602001015160405161168f91906123f7565b908152602001604051809103902060009054906101000a900460ff166116ea576040517f08c379a00000000000000000000000000000000000000000000000000000000081526004016116e1906125b9565b60405180910390fd5b600060028111156116fe576116fd612aaa565b5b600288838151811061171357611712612b08565b5b602002602001015160405161172891906123f7565b908152602001604051809103902060000160029054906101000a900460ff16600281111561175957611758612aaa565b5b14611799576040517f08c379a000000000000000000000000000000000000000000000000000000000815260040161179090612659565b60405180910390fd5b60028782815181106117ae576117ad612b08565b5b60200260200101516040516117c391906123f7565b908152602001604051809103902060000160009054906101000a900461ffff16836117ee919061288d565b9250600386828151811061180557611804612b08565b5b602002602001015160405161181a91906123f7565b908152602001604051809103902060009054906101000a900460ff16611875576040517f08c379a000000000000000000000000000000000000000000000000000000000815260040161186c906125b9565b60405180910390fd5b8460ff16600281111561188b5761188a612aaa565b5b600281111561189d5761189c612aaa565b5b60028783815181106118b2576118b1612b08565b5b60200260200101516040516118c791906123f7565b908152602001604051809103902060000160029054906101000a900460ff1660028111156118f8576118f7612aaa565b5b14611938576040517f08c379a000000000000000000000000000000000000000000000000000000000815260040161192f906125f9565b60405180910390fd5b600286828151811061194d5761194c612b08565b5b602002602001015160405161196291906123f7565b908152602001604051809103902060000160009054906101000a900461ffff168261198d919061288d565b9150808061199a90612a28565b91505061165c565b5060005b8651811015611ae55760005b8651811015611ad15760028883815181106119d0576119cf612b08565b5b60200260200101516040516119e591906123f7565b9081526020016040518091039020600101604051602001611a069190612443565b604051602081830303815290604052805190602001206002888381518110611a3157611a30612b08565b5b6020026020010151604051611a4691906123f7565b9081526020016040518091039020600101604051602001611a679190612443565b604051602081830303815290604052805190602001201415611abe576040517f08c379a0000000000000000000000000000000000000000000000000000000008152600401611ab5906125d9565b60405180910390fd5b8080611ac990612a28565b9150506119b2565b508080611add90612a28565b9150506119a6565b508061ffff168261ffff1611925050509392505050565b828054611b08906129c5565b90600052602060002090601f016020900481019282611b2a5760008555611b71565b82601f10611b4357805160ff1916838001178555611b71565b82800160010185558215611b71579182015b82811115611b70578251825591602001919060010190611b55565b5b509050611b7e9190611b82565b5090565b5b80821115611b9b576000816000905550600101611b83565b5090565b6000611bb2611bad84612738565b612713565b90508083825260208201905082856020860282011115611bd557611bd4612b6b565b5b60005b85811015611c2357813567ffffffffffffffff811115611bfb57611bfa612b66565b5b808601611c088982611cf4565b85526020850194506020840193505050600181019050611bd8565b5050509392505050565b6000611c40611c3b84612764565b612713565b905082815260208101848484011115611c5c57611c5b612b70565b5b611c67848285612983565b509392505050565b6000611c82611c7d84612764565b612713565b905082815260208101848484011115611c9e57611c9d612b70565b5b611ca9848285612992565b509392505050565b600082601f830112611cc657611cc5612b66565b5b8135611cd6848260208601611b9f565b91505092915050565b600081519050611cee81612df6565b92915050565b600082601f830112611d0957611d08612b66565b5b8135611d19848260208601611c2d565b91505092915050565b600082601f830112611d3757611d36612b66565b5b8151611d47848260208601611c6f565b91505092915050565b600081359050611d5f81612e0d565b92915050565b600081359050611d7481612e24565b92915050565b600081359050611d8981612e3b565b92915050565b600080600060608486031215611da857611da7612b7a565b5b600084013567ffffffffffffffff811115611dc657611dc5612b75565b5b611dd286828701611cb1565b935050602084013567ffffffffffffffff811115611df357611df2612b75565b5b611dff86828701611cb1565b9250506040611e1086828701611d7a565b9150509250925092565b600060208284031215611e3057611e2f612b7a565b5b6000611e3e84828501611cdf565b91505092915050565b600060208284031215611e5d57611e5c612b7a565b5b600082013567ffffffffffffffff811115611e7b57611e7a612b75565b5b611e8784828501611cf4565b91505092915050565b600060208284031215611ea657611ea5612b7a565b5b600082015167ffffffffffffffff811115611ec457611ec3612b75565b5b611ed084828501611d22565b91505092915050565b600080600080600060a08688031215611ef557611ef4612b7a565b5b600086013567ffffffffffffffff811115611f1357611f12612b75565b5b611f1f88828901611cf4565b9550506020611f3088828901611d50565b9450506040611f4188828901611d7a565b935050606086013567ffffffffffffffff811115611f6257611f61612b75565b5b611f6e88828901611cf4565b9250506080611f7f88828901611d65565b9150509295509295909350565b600060208284031215611fa257611fa1612b7a565b5b6000611fb084828501611d65565b91505092915050565b6000611fc5838361216a565b905092915050565b6000611fd983836123a4565b60208301905092915050565b6000611ff183836123c2565b60208301905092915050565b6000612008826127da565b612012818561282d565b93508360208202850161202485612795565b8060005b8581101561206057848403895281516120418582611fb9565b945061204c83612806565b925060208a01995050600181019050612028565b50829750879550505050505092915050565b600061207d826127e5565b612087818561283e565b9350612092836127a5565b8060005b838110156120c35781516120aa8882611fcd565b97506120b583612813565b925050600181019050612096565b5085935050505092915050565b60006120db826127f0565b6120e5818561284f565b93506120f0836127b5565b8060005b838110156121215781516121088882611fe5565b975061211383612820565b9250506001810190506120f4565b5085935050505092915050565b612137816128c5565b82525050565b61214681612929565b82525050565b6121558161293b565b82525050565b6121648161294d565b82525050565b6000612175826127fb565b61217f8185612860565b935061218f818560208601612992565b61219881612b7f565b840191505092915050565b60006121ae826127fb565b6121b88185612871565b93506121c8818560208601612992565b6121d181612b7f565b840191505092915050565b60006121e7826127fb565b6121f18185612882565b9350612201818560208601612992565b80840191505092915050565b6000815461221a816129c5565b6122248186612882565b9450600182166000811461223f576001811461225057612283565b60ff19831686528186019350612283565b612259856127c5565b60005b8381101561227b5781548189015260018201915060208101905061225c565b838801955050505b50505092915050565b6000612299601b83612871565b91506122a482612b90565b602082019050919050565b60006122bc604183612871565b91506122c782612bb9565b606082019050919050565b60006122df604583612871565b91506122ea82612c2e565b606082019050919050565b6000612302601383612871565b915061230d82612ca3565b602082019050919050565b6000612325601483612871565b915061233082612ccc565b602082019050919050565b6000612348603583612871565b915061235382612cf5565b604082019050919050565b600061236b601883612871565b915061237682612d44565b602082019050919050565b600061238e605783612871565b915061239982612d6d565b606082019050919050565b6123ad816128e4565b82525050565b6123bc816128e4565b82525050565b6123cb81612912565b82525050565b6123da81612912565b82525050565b6123f16123ec82612912565b612a71565b82525050565b600061240382846121dc565b915081905092915050565b600061241a82866121dc565b9150612426828561220d565b915061243282846123e0565b602082019150819050949350505050565b600061244f828461220d565b915081905092915050565b600060c08201905081810360008301526124748189611ffd565b905081810360208301526124888188611ffd565b9050818103604083015261249c8187612072565b905081810360608301526124b08186611ffd565b905081810360808301526124c481856120d0565b905081810360a08301526124d881846120d0565b9050979650505050505050565b60006020820190506124fa600083018461212e565b92915050565b6000602082019050612515600083018461213d565b92915050565b6000602082019050612530600083018461214c565b92915050565b6000602082019050818103600083015261255081846121a3565b905092915050565b600060a082019050818103600083015261257281886121a3565b905061258160208301876123b3565b818103604083015261259381866121a3565b90506125a260608301856123d1565b6125af60808301846123d1565b9695505050505050565b600060208201905081810360008301526125d28161228c565b9050919050565b600060208201905081810360008301526125f2816122af565b9050919050565b60006020820190508181036000830152612612816122d2565b9050919050565b60006020820190508181036000830152612632816122f5565b9050919050565b6000602082019050818103600083015261265281612318565b9050919050565b600060208201905081810360008301526126728161233b565b9050919050565b600060208201905081810360008301526126928161235e565b9050919050565b600060208201905081810360008301526126b281612381565b9050919050565b600060a0820190506126ce60008301886123b3565b6126db602083018761215b565b81810360408301526126ed81866121a3565b90506126fc60608301856123d1565b61270960808301846123d1565b9695505050505050565b600061271d61272e565b905061272982826129f7565b919050565b6000604051905090565b600067ffffffffffffffff82111561275357612752612b37565b5b602082029050602081019050919050565b600067ffffffffffffffff82111561277f5761277e612b37565b5b61278882612b7f565b9050602081019050919050565b6000819050602082019050919050565b6000819050602082019050919050565b6000819050602082019050919050565b60008190508160005260206000209050919050565b600081519050919050565b600081519050919050565b600081519050919050565b600081519050919050565b6000602082019050919050565b6000602082019050919050565b6000602082019050919050565b600082825260208201905092915050565b600082825260208201905092915050565b600082825260208201905092915050565b600082825260208201905092915050565b600082825260208201905092915050565b600081905092915050565b6000612898826128e4565b91506128a3836128e4565b92508261ffff038211156128ba576128b9612a7b565b5b828201905092915050565b60008115159050919050565b60008190506128df82612de2565b919050565b600061ffff82169050919050565b600073ffffffffffffffffffffffffffffffffffffffff82169050919050565b6000819050919050565b600060ff82169050919050565b60006129348261295f565b9050919050565b60006129468261295f565b9050919050565b6000612958826128d1565b9050919050565b600061296a82612971565b9050919050565b600061297c826128f2565b9050919050565b82818337600083830152505050565b60005b838110156129b0578082015181840152602081019050612995565b838111156129bf576000848401525b50505050565b600060028204905060018216806129dd57607f821691505b602082108114156129f1576129f0612ad9565b5b50919050565b612a0082612b7f565b810181811067ffffffffffffffff82111715612a1f57612a1e612b37565b5b80604052505050565b6000612a3382612912565b91507fffffffffffffffffffffffffffffffffffffffffffffffffffffffffffffffff821415612a6657612a65612a7b565b5b600182019050919050565b6000819050919050565b7f4e487b7100000000000000000000000000000000000000000000000000000000600052601160045260246000fd5b7f4e487b7100000000000000000000000000000000000000000000000000000000600052602160045260246000fd5b7f4e487b7100000000000000000000000000000000000000000000000000000000600052602260045260246000fd5b7f4e487b7100000000000000000000000000000000000000000000000000000000600052603260045260246000fd5b7f4e487b7100000000000000000000000000000000000000000000000000000000600052604160045260246000fd5b600080fd5b600080fd5b600080fd5b600080fd5b600080fd5b6000601f19601f8301169050919050565b7f456d697373696f6e20494420646f6573206e6f742065786973742e0000000000600082015250565b7f436f6e74726f6c2047726f75702073686f756c646e277420686176652074686560008201527f2073616d6520616e696d616c732061732054726561746d656e742047726f757060208201527f2e00000000000000000000000000000000000000000000000000000000000000604082015250565b7f506c65617365206f6e6c7920656e74657220656d697373696f6e207265636f7260008201527f6473207769746820746865207370656369666965642074726561746d656e742060208201527f747970652e000000000000000000000000000000000000000000000000000000604082015250565b7f456d697373696f6e204944206578697374732e00000000000000000000000000600082015250565b7f4865726420646f6573206e6f742065786973742e000000000000000000000000600082015250565b7f506c65617365206f6e6c7920656e74657220656d697373696f6e207265636f7260008201527f6473207769746820726567756c617220666565642e0000000000000000000000602082015250565b7f456d697373696f6e20646f6573206e6f742065786973742e0000000000000000600082015250565b7f506c6561736520737570706c792073616d65206e756d626572206f6620656d6960008201527f7373696f6e207265636f72647320666f722074686520636f6e74726f6c20677260208201527f6f757020616e642074686520746573742067726f75702e000000000000000000604082015250565b60038110612df357612df2612aaa565b5b50565b612dff816128c5565b8114612e0a57600080fd5b50565b612e16816128e4565b8114612e2157600080fd5b50565b612e2d81612912565b8114612e3857600080fd5b50565b612e448161291c565b8114612e4f57600080fd5b5056fea264697066735822122094b7d6b4993543ffd685c396bdc5cd3208dfdf8937492139ca6c19166dc45a3a64736f6c63430008070033",
  "immutableReferences": {},
  "source": "// SPDX-License-Identifier: MIT\npragma solidity ^0.8.0;\n\n// import \"./AnimalRegistry.sol\";\nimport \"./HerdRegistry.sol\";\nimport \"./FeedTracking.sol\";\n\ncontract EmissionTracking {\n    // AnimalRegistry public animalregistry;\n    HerdRegistry public herdregistry;\n    FeedTracking public feedtracking;\n\n    struct EmissionRecord {\n        uint16 Value;\n        FeedTracking.Ingredient FeedType;\n        string HerdID;\n        // string AnimalID;\n        uint256 DateTime; // unix time\n        uint256 BlockTime;\n    }\n    \n    mapping(string => EmissionRecord) public emissions;\n    mapping(string => bool) public emissionExists;\n    string[] public allemissions;\n\n    constructor(HerdRegistry _herdregistry, FeedTracking _feedtracking)\n    {\n        // animalregistry = _animalregistry;\n        herdregistry = _herdregistry;\n        feedtracking = _feedtracking;\n    }\n\n    // Note: oziris should receive data as often as needed; blockchain will only receive data once/twice a day\n    function logEmission(string memory _emissionid, uint16 _value, uint8 _feedtype, string memory _herdid, uint256 _datetime) public \n    {\n        require(!emissionExists[_emissionid], \"Emission ID exists.\");\n        // require(animalregistry.animalExists(_animalid), \"Animal is not registed.\");\n        require(herdregistry.herdExists(_herdid), \"Herd does not exist.\");\n        \n        emissions[_emissionid] = EmissionRecord(_value, FeedTracking.Ingredient(_feedtype), _herdid, _datetime, block.timestamp);\n        emissionExists[_emissionid] = true;\n        allemissions.push(_emissionid);\n    }\n\n    function queryEmission(string memory _emissionid)\n        public\n        view \n        returns(\n            string memory,\n            uint16,\n            string memory,\n            uint256,\n            uint256)\n        {\n            require(emissionExists[_emissionid], \"Emission ID does not exist.\");\n            string memory ingredient;\n\n            if (emissions[_emissionid].FeedType == FeedTracking.Ingredient.REGULAR) {\n                ingredient = \"Regular\";\n            } else if (emissions[_emissionid].FeedType == FeedTracking.Ingredient.ASPARAGOPSIS) {\n                ingredient = \"Asparagopsis\";\n            } else if (emissions[_emissionid].FeedType == FeedTracking.Ingredient.POLYGAIN) {\n                ingredient = \"Polygain\";\n            } else {\n                ingredient = \"Unknown\";\n            }\n\n            return(\n                // emissions[_emissionid].AnimalID,\n                emissions[_emissionid].HerdID,\n                emissions[_emissionid].Value,\n                ingredient,\n                emissions[_emissionid].DateTime,\n                emissions[_emissionid].BlockTime\n            );\n        }\n\n    function queryAll() public view \n    returns(\n        string[] memory,\n        string[] memory,\n        uint16[] memory,\n        string[] memory,\n        uint256[] memory,\n        uint256[] memory\n    )\n    {\n        // string[] memory animalids = new string[](allemissions.length);\n        string[] memory herdids = new string[](allemissions.length);\n        uint16[] memory values = new uint16[](allemissions.length);\n        string[] memory ingredients = new string[](allemissions.length);\n        uint256[] memory datetimes = new uint256[](allemissions.length);\n        uint256[] memory blocktimes = new uint256[](allemissions.length);\n\n        for(uint256 i=0; i<allemissions.length; i++){\n            // animalids[i] = emissions[allemissions[i]].AnimalID;\n            herdids[i] = emissions[allemissions[i]].HerdID;\n            values[i] = emissions[allemissions[i]].Value;\n\n            if (emissions[allemissions[i]].FeedType == FeedTracking.Ingredient.REGULAR) {\n                ingredients[i] = \"Regular\";\n            } else if (emissions[allemissions[i]].FeedType == FeedTracking.Ingredient.ASPARAGOPSIS) {\n                ingredients[i] = \"Asparagopsis\";\n            } else if (emissions[allemissions[i]].FeedType == FeedTracking.Ingredient.POLYGAIN) {\n                ingredients[i] = \"Polygain\";\n            } else {\n                ingredients[i] = \"Unknown\";\n            }\n\n            datetimes[i] = emissions[allemissions[i]].DateTime;\n            blocktimes[i] = emissions[allemissions[i]].BlockTime;\n        }\n\n        return(allemissions,herdids,values,ingredients,datetimes,blocktimes);\n    }\n\n    // Note: on the front end, for a record of issued Carbon Tokens, we first take the start and end date, then for each date we find the emission record\n    // total emission is expected to be lower for the treatment group and higher for the controlled group\n    // arg _control is an array of emission ids in the control group\n    // arg _treatment is an array of emission ids in the treatment group\n    function verifyEmissionValue(string[] memory _control, string[] memory _treatment, uint8 _feedtype) public view returns(bool) {\n        require(_control.length == _treatment.length, \"Please supply same number of emission records for the control group and the test group.\");\n        uint16 controltotal = 0;\n        uint16 treatmenttotal = 0;\n\n        for(uint256 i=0; i<_control.length; i++){\n            require(emissionExists[_control[i]], \"Emission ID does not exist.\");\n            require(emissions[_control[i]].FeedType==FeedTracking.Ingredient.REGULAR, \"Please only enter emission records with regular feed.\");\n            controltotal = controltotal + emissions[_control[i]].Value;\n\n            require(emissionExists[_treatment[i]], \"Emission ID does not exist.\");\n            require(emissions[_treatment[i]].FeedType==FeedTracking.Ingredient(_feedtype), \"Please only enter emission records with the specified treatment type.\");\n            treatmenttotal = treatmenttotal + emissions[_treatment[i]].Value;\n        }\n\n        // same animal id shouldn't appear in both groups\n        for(uint256 i=0; i<_control.length; i++){\n            for(uint256 j=0; j<_treatment.length; j++){\n                require(keccak256(abi.encodePacked(emissions[_treatment[j]].HerdID))!=keccak256(abi.encodePacked(emissions[_control[i]].HerdID)), \"Control Group shouldn't have the same animals as Treatment Group.\");\n            }\n        }\n\n        return(controltotal > treatmenttotal);\n    }\n\n    // the function takes an Emission ID as an argument, returns the animalid and datetime, and find the corresponding feed record\n    // it returns '' if the emission cannot be linked to a feed record\n    // the frontend should propafate this\n    function linkEmissionToFeed(string memory _emissionid) public view returns(string memory) {\n        require(emissionExists[_emissionid], \"Emission does not exist.\");\n        string memory ingredient;\n        string memory feedid;\n        string memory feedsearchid;\n\n        if (emissions[_emissionid].FeedType == FeedTracking.Ingredient.REGULAR) {\n            ingredient = \"Regular\";\n        } else if (emissions[_emissionid].FeedType == FeedTracking.Ingredient.ASPARAGOPSIS) {\n            ingredient = \"Asparagopsis\";\n        } else if (emissions[_emissionid].FeedType == FeedTracking.Ingredient.POLYGAIN) {\n            ingredient = \"Polygain\";\n        } else {\n            ingredient = \"Unknown\";\n        }\n\n        feedsearchid = string(abi.encodePacked(ingredient,emissions[_emissionid].HerdID,emissions[_emissionid].DateTime));\n        feedid = feedtracking.feedSearch(feedsearchid);\n\n        return(feedid);\n    }\n}",
  "sourcePath": "/home/yih/Documents/dev/beston-dapps/contracts/carbon/EmissionTracking.sol",
  "compiler": {
    "name": "solc",
    "version": "0.8.7+commit.e28d00a7.Emscripten.clang"
  },
  "schemaVersion": "3.4.1",
  "updatedAt": "2023-07-31T00:10:34.342Z",
  "networkType": "ethereum",
  "devdoc": {
    "kind": "dev",
    "methods": {},
    "version": 1
  },
  "userdoc": {
    "kind": "user",
    "methods": {},
    "version": 1
  }
}