{
  "contractName": "EmissionTracking",
  "abi": [
    {
      "inputs": [
        {
          "internalType": "contract AnimalRegistry",
          "name": "_animalregistry",
          "type": "address"
        },
        {
          "internalType": "contract FeedTracking",
          "name": "_feedtracking",
          "type": "address"
        }
      ],
      "stateMutability": "nonpayable",
      "type": "constructor"
    },
    {
      "inputs": [
        {
          "internalType": "uint256",
          "name": "",
          "type": "uint256"
        }
      ],
      "name": "allemissions",
      "outputs": [
        {
          "internalType": "string",
          "name": "",
          "type": "string"
        }
      ],
      "stateMutability": "view",
      "type": "function"
    },
    {
      "inputs": [],
      "name": "animalregistry",
      "outputs": [
        {
          "internalType": "contract AnimalRegistry",
          "name": "",
          "type": "address"
        }
      ],
      "stateMutability": "view",
      "type": "function"
    },
    {
      "inputs": [
        {
          "internalType": "string",
          "name": "",
          "type": "string"
        }
      ],
      "name": "emissionExists",
      "outputs": [
        {
          "internalType": "bool",
          "name": "",
          "type": "bool"
        }
      ],
      "stateMutability": "view",
      "type": "function"
    },
    {
      "inputs": [
        {
          "internalType": "string",
          "name": "",
          "type": "string"
        }
      ],
      "name": "emissions",
      "outputs": [
        {
          "internalType": "uint16",
          "name": "Value",
          "type": "uint16"
        },
        {
          "internalType": "enum FeedTracking.Ingredient",
          "name": "FeedType",
          "type": "uint8"
        },
        {
          "internalType": "string",
          "name": "AnimalID",
          "type": "string"
        },
        {
          "internalType": "uint256",
          "name": "DateTime",
          "type": "uint256"
        },
        {
          "internalType": "uint256",
          "name": "BlockTime",
          "type": "uint256"
        }
      ],
      "stateMutability": "view",
      "type": "function"
    },
    {
      "inputs": [],
      "name": "feedtracking",
      "outputs": [
        {
          "internalType": "contract FeedTracking",
          "name": "",
          "type": "address"
        }
      ],
      "stateMutability": "view",
      "type": "function"
    },
    {
      "inputs": [
        {
          "internalType": "string",
          "name": "_emissionid",
          "type": "string"
        },
        {
          "internalType": "uint16",
          "name": "_value",
          "type": "uint16"
        },
        {
          "internalType": "uint8",
          "name": "_feedtype",
          "type": "uint8"
        },
        {
          "internalType": "string",
          "name": "_animalid",
          "type": "string"
        },
        {
          "internalType": "uint256",
          "name": "_datetime",
          "type": "uint256"
        }
      ],
      "name": "logEmission",
      "outputs": [],
      "stateMutability": "nonpayable",
      "type": "function"
    },
    {
      "inputs": [
        {
          "internalType": "string",
          "name": "_emissionid",
          "type": "string"
        }
      ],
      "name": "queryEmission",
      "outputs": [
        {
          "internalType": "string",
          "name": "",
          "type": "string"
        },
        {
          "internalType": "uint16",
          "name": "",
          "type": "uint16"
        },
        {
          "internalType": "string",
          "name": "",
          "type": "string"
        },
        {
          "internalType": "uint256",
          "name": "",
          "type": "uint256"
        },
        {
          "internalType": "uint256",
          "name": "",
          "type": "uint256"
        }
      ],
      "stateMutability": "view",
      "type": "function"
    },
    {
      "inputs": [],
      "name": "queryAll",
      "outputs": [
        {
          "internalType": "string[]",
          "name": "",
          "type": "string[]"
        },
        {
          "internalType": "string[]",
          "name": "",
          "type": "string[]"
        },
        {
          "internalType": "uint16[]",
          "name": "",
          "type": "uint16[]"
        },
        {
          "internalType": "string[]",
          "name": "",
          "type": "string[]"
        },
        {
          "internalType": "uint256[]",
          "name": "",
          "type": "uint256[]"
        },
        {
          "internalType": "uint256[]",
          "name": "",
          "type": "uint256[]"
        }
      ],
      "stateMutability": "view",
      "type": "function"
    },
    {
      "inputs": [
        {
          "internalType": "string[]",
          "name": "_control",
          "type": "string[]"
        },
        {
          "internalType": "string[]",
          "name": "_treatment",
          "type": "string[]"
        },
        {
          "internalType": "uint8",
          "name": "_feedtype",
          "type": "uint8"
        }
      ],
      "name": "verifyEmissionValue",
      "outputs": [
        {
          "internalType": "bool",
          "name": "",
          "type": "bool"
        }
      ],
      "stateMutability": "view",
      "type": "function"
    },
    {
      "inputs": [
        {
          "internalType": "string",
          "name": "_emissionid",
          "type": "string"
        }
      ],
      "name": "linkEmissionToFeed",
      "outputs": [
        {
          "internalType": "string",
          "name": "",
          "type": "string"
        }
      ],
      "stateMutability": "nonpayable",
      "type": "function"
    }
  ],
  "bytecode": "0x60806040523480156200001157600080fd5b5060405162002f8a38038062002f8a8339818101604052810190620000379190620000ee565b816000806101000a81548173ffffffffffffffffffffffffffffffffffffffff021916908373ffffffffffffffffffffffffffffffffffffffff16021790555080600160006101000a81548173ffffffffffffffffffffffffffffffffffffffff021916908373ffffffffffffffffffffffffffffffffffffffff1602179055505050620001ca565b600081519050620000d18162000196565b92915050565b600081519050620000e881620001b0565b92915050565b6000806040838503121562000108576200010762000191565b5b60006200011885828601620000c0565b92505060206200012b85828601620000d7565b9150509250929050565b6000620001428262000171565b9050919050565b6000620001568262000135565b9050919050565b60006200016a8262000135565b9050919050565b600073ffffffffffffffffffffffffffffffffffffffff82169050919050565b600080fd5b620001a18162000149565b8114620001ad57600080fd5b50565b620001bb816200015d565b8114620001c757600080fd5b50565b612db080620001da6000396000f3fe608060405234801561001057600080fd5b506004361061009e5760003560e01c80639c699d0a116100665780639c699d0a14610177578063ad90429114610193578063c3eb4ba4146101c3578063e5924708146101f3578063e5e5efc8146102165761009e565b80630b134f30146100a3578063120f894e146100d3578063515f24281461010757806372a5b30e146101255780639006162814610159575b600080fd5b6100bd60048036038101906100b89190611ddb565b610246565b6040516100ca91906124a7565b60405180910390f35b6100ed60048036038101906100e89190611ddb565b610572565b6040516100fe9594939291906124c9565b60405180910390f35b61010f610920565b60405161011c9190612471565b60405180910390f35b61013f600480360381019061013a9190611ddb565b610944565b60405161015095949392919061260a565b60405180910390f35b610161610a33565b60405161016e919061248c565b60405180910390f35b610191600480360381019061018c9190611e6d565b610a59565b005b6101ad60048036038101906101a89190611f20565b610d1e565b6040516101ba91906124a7565b60405180910390f35b6101dd60048036038101906101d89190611ddb565b610dca565b6040516101ea9190612456565b60405180910390f35b6101fb610e00565b60405161020d969594939291906123cb565b60405180910390f35b610230600480360381019061022b9190611d23565b6115a4565b60405161023d9190612456565b60405180910390f35b606080606080600060028111156102605761025f6129fb565b5b6002866040516102709190612368565b908152602001604051809103902060000160029054906101000a900460ff1660028111156102a1576102a06129fb565b5b14156102e4576040518060400160405280600781526020017f526567756c617200000000000000000000000000000000000000000000000000815250925061044e565b600160028111156102f8576102f76129fb565b5b6002866040516103089190612368565b908152602001604051809103902060000160029054906101000a900460ff166002811115610339576103386129fb565b5b141561037c576040518060400160405280600c81526020017f417370617261676f707369730000000000000000000000000000000000000000815250925061044d565b60028081111561038f5761038e6129fb565b5b60028660405161039f9190612368565b908152602001604051809103902060000160029054906101000a900460ff1660028111156103d0576103cf6129fb565b5b1415610413576040518060400160405280600881526020017f506f6c796761696e000000000000000000000000000000000000000000000000815250925061044c565b6040518060400160405280600781526020017f556e6b6e6f776e0000000000000000000000000000000000000000000000000081525092505b5b5b8260028660405161045f9190612368565b90815260200160405180910390206001016002876040516104809190612368565b9081526020016040518091039020600201546040516020016104a49392919061237f565b6040516020818303038152906040529050600160009054906101000a900473ffffffffffffffffffffffffffffffffffffffff1673ffffffffffffffffffffffffffffffffffffffff1663f846bdfa826040518263ffffffff1660e01b815260040161051091906124a7565b60006040518083038186803b15801561052857600080fd5b505afa15801561053c573d6000803e3d6000fd5b505050506040513d6000823e3d601f19601f820116820180604052508101906105659190611e24565b9150819350505050919050565b60606000606060008060038660405161058b9190612368565b908152602001604051809103902060009054906101000a900460ff166105e6576040517f08c379a00000000000000000000000000000000000000000000000000000000081526004016105dd9061254a565b60405180910390fd5b6060600060028111156105fc576105fb6129fb565b5b60028860405161060c9190612368565b908152602001604051809103902060000160029054906101000a900460ff16600281111561063d5761063c6129fb565b5b1415610680576040518060400160405280600781526020017f526567756c61720000000000000000000000000000000000000000000000000081525090506107ea565b60016002811115610694576106936129fb565b5b6002886040516106a49190612368565b908152602001604051809103902060000160029054906101000a900460ff1660028111156106d5576106d46129fb565b5b1415610718576040518060400160405280600c81526020017f417370617261676f70736973000000000000000000000000000000000000000081525090506107e9565b60028081111561072b5761072a6129fb565b5b60028860405161073b9190612368565b908152602001604051809103902060000160029054906101000a900460ff16600281111561076c5761076b6129fb565b5b14156107af576040518060400160405280600881526020017f506f6c796761696e00000000000000000000000000000000000000000000000081525090506107e8565b6040518060400160405280600781526020017f556e6b6e6f776e0000000000000000000000000000000000000000000000000081525090505b5b5b6002876040516107fa9190612368565b908152602001604051809103902060010160028860405161081b9190612368565b908152602001604051809103902060000160009054906101000a900461ffff168260028a60405161084c9190612368565b90815260200160405180910390206002015460028b60405161086e9190612368565b90815260200160405180910390206003015484805461088c90612916565b80601f01602080910402602001604051908101604052809291908181526020018280546108b890612916565b80156109055780601f106108da57610100808354040283529160200191610905565b820191906000526020600020905b8154815290600101906020018083116108e857829003601f168201915b50505050509450955095509550955095505091939590929450565b60008054906101000a900473ffffffffffffffffffffffffffffffffffffffff1681565b6002818051602081018201805184825260208301602085012081835280955050505050506000915090508060000160009054906101000a900461ffff16908060000160029054906101000a900460ff16908060010180546109a490612916565b80601f01602080910402602001604051908101604052809291908181526020018280546109d090612916565b8015610a1d5780601f106109f257610100808354040283529160200191610a1d565b820191906000526020600020905b815481529060010190602001808311610a0057829003601f168201915b5050505050908060020154908060030154905085565b600160009054906101000a900473ffffffffffffffffffffffffffffffffffffffff1681565b600385604051610a699190612368565b908152602001604051809103902060009054906101000a900460ff1615610ac5576040517f08c379a0000000000000000000000000000000000000000000000000000000008152600401610abc906125aa565b60405180910390fd5b60008054906101000a900473ffffffffffffffffffffffffffffffffffffffff1673ffffffffffffffffffffffffffffffffffffffff16632c80a7f5836040518263ffffffff1660e01b8152600401610b1e91906124a7565b60206040518083038186803b158015610b3657600080fd5b505afa158015610b4a573d6000803e3d6000fd5b505050506040513d601f19601f82011682018060405250810190610b6e9190611dae565b610bad576040517f08c379a0000000000000000000000000000000000000000000000000000000008152600401610ba49061252a565b60405180910390fd5b6040518060a001604052808561ffff1681526020018460ff166002811115610bd857610bd76129fb565b5b6002811115610bea57610be96129fb565b5b815260200183815260200182815260200142815250600286604051610c0f9190612368565b908152602001604051809103902060008201518160000160006101000a81548161ffff021916908361ffff16021790555060208201518160000160026101000a81548160ff02191690836002811115610c6b57610c6a6129fb565b5b02179055506040820151816001019080519060200190610c8c929190611a90565b5060608201518160020155608082015181600301559050506001600386604051610cb69190612368565b908152602001604051809103902060006101000a81548160ff021916908315150217905550600485908060018154018082558091505060019003906000526020600020016000909190919091509080519060200190610d16929190611a90565b505050505050565b60048181548110610d2e57600080fd5b906000526020600020016000915090508054610d4990612916565b80601f0160208091040260200160405190810160405280929190818152602001828054610d7590612916565b8015610dc25780601f10610d9757610100808354040283529160200191610dc2565b820191906000526020600020905b815481529060010190602001808311610da557829003601f168201915b505050505081565b6003818051602081018201805184825260208301602085012081835280955050505050506000915054906101000a900460ff1681565b606080606080606080600060048054905067ffffffffffffffff811115610e2a57610e29612a88565b5b604051908082528060200260200182016040528015610e5d57816020015b6060815260200190600190039081610e485790505b509050600060048054905067ffffffffffffffff811115610e8157610e80612a88565b5b604051908082528060200260200182016040528015610eaf5781602001602082028036833780820191505090505b509050600060048054905067ffffffffffffffff811115610ed357610ed2612a88565b5b604051908082528060200260200182016040528015610f0657816020015b6060815260200190600190039081610ef15790505b509050600060048054905067ffffffffffffffff811115610f2a57610f29612a88565b5b604051908082528060200260200182016040528015610f585781602001602082028036833780820191505090505b509050600060048054905067ffffffffffffffff811115610f7c57610f7b612a88565b5b604051908082528060200260200182016040528015610faa5781602001602082028036833780820191505090505b50905060005b6004805490508110156114b057600260048281548110610fd357610fd2612a59565b5b90600052602060002001604051610fea91906123b4565b9081526020016040518091039020600101805461100690612916565b80601f016020809104026020016040519081016040528092919081815260200182805461103290612916565b801561107f5780601f106110545761010080835404028352916020019161107f565b820191906000526020600020905b81548152906001019060200180831161106257829003601f168201915b505050505086828151811061109757611096612a59565b5b60200260200101819052506002600482815481106110b8576110b7612a59565b5b906000526020600020016040516110cf91906123b4565b908152602001604051809103902060000160009054906101000a900461ffff1685828151811061110257611101612a59565b5b602002602001019061ffff16908161ffff16815250506000600281111561112c5761112b6129fb565b5b60026004838154811061114257611141612a59565b5b9060005260206000200160405161115991906123b4565b908152602001604051809103902060000160029054906101000a900460ff16600281111561118a576111896129fb565b5b14156111e9576040518060400160405280600781526020017f526567756c6172000000000000000000000000000000000000000000000000008152508482815181106111d9576111d8612a59565b5b60200260200101819052506113e1565b600160028111156111fd576111fc6129fb565b5b60026004838154811061121357611212612a59565b5b9060005260206000200160405161122a91906123b4565b908152602001604051809103902060000160029054906101000a900460ff16600281111561125b5761125a6129fb565b5b14156112ba576040518060400160405280600c81526020017f417370617261676f7073697300000000000000000000000000000000000000008152508482815181106112aa576112a9612a59565b5b60200260200101819052506113e0565b6002808111156112cd576112cc6129fb565b5b6002600483815481106112e3576112e2612a59565b5b906000526020600020016040516112fa91906123b4565b908152602001604051809103902060000160029054906101000a900460ff16600281111561132b5761132a6129fb565b5b141561138a576040518060400160405280600881526020017f506f6c796761696e00000000000000000000000000000000000000000000000081525084828151811061137a57611379612a59565b5b60200260200101819052506113df565b6040518060400160405280600781526020017f556e6b6e6f776e000000000000000000000000000000000000000000000000008152508482815181106113d3576113d2612a59565b5b60200260200101819052505b5b5b6002600482815481106113f7576113f6612a59565b5b9060005260206000200160405161140e91906123b4565b90815260200160405180910390206002015483828151811061143357611432612a59565b5b60200260200101818152505060026004828154811061145557611454612a59565b5b9060005260206000200160405161146c91906123b4565b90815260200160405180910390206003015482828151811061149157611490612a59565b5b60200260200101818152505080806114a890612979565b915050610fb0565b506004858585858585805480602002602001604051908101604052809291908181526020016000905b828210156115855783829060005260206000200180546114f890612916565b80601f016020809104026020016040519081016040528092919081815260200182805461152490612916565b80156115715780601f1061154657610100808354040283529160200191611571565b820191906000526020600020905b81548152906001019060200180831161155457829003601f168201915b5050505050815260200190600101906114d9565b5050505095509a509a509a509a509a509a505050505050909192939495565b600082518451146115ea576040517f08c379a00000000000000000000000000000000000000000000000000000000081526004016115e1906125ea565b60405180910390fd5b60008060005b865181101561193657600387828151811061160e5761160d612a59565b5b60200260200101516040516116239190612368565b908152602001604051809103902060009054906101000a900460ff1661167e576040517f08c379a00000000000000000000000000000000000000000000000000000000081526004016116759061254a565b60405180910390fd5b60006002811115611692576116916129fb565b5b60028883815181106116a7576116a6612a59565b5b60200260200101516040516116bc9190612368565b908152602001604051809103902060000160029054906101000a900460ff1660028111156116ed576116ec6129fb565b5b1461172d576040517f08c379a0000000000000000000000000000000000000000000000000000000008152600401611724906125ca565b60405180910390fd5b600287828151811061174257611741612a59565b5b60200260200101516040516117579190612368565b908152602001604051809103902060000160009054906101000a900461ffff168361178291906127de565b9250600386828151811061179957611798612a59565b5b60200260200101516040516117ae9190612368565b908152602001604051809103902060009054906101000a900460ff16611809576040517f08c379a00000000000000000000000000000000000000000000000000000000081526004016118009061254a565b60405180910390fd5b8460ff16600281111561181f5761181e6129fb565b5b6002811115611831576118306129fb565b5b600287838151811061184657611845612a59565b5b602002602001015160405161185b9190612368565b908152602001604051809103902060000160029054906101000a900460ff16600281111561188c5761188b6129fb565b5b146118cc576040517f08c379a00000000000000000000000000000000000000000000000000000000081526004016118c39061258a565b60405180910390fd5b60028682815181106118e1576118e0612a59565b5b60200260200101516040516118f69190612368565b908152602001604051809103902060000160009054906101000a900461ffff168261192191906127de565b9150808061192e90612979565b9150506115f0565b5060005b8651811015611a795760005b8651811015611a6557600288838151811061196457611963612a59565b5b60200260200101516040516119799190612368565b908152602001604051809103902060010160405160200161199a91906123b4565b6040516020818303038152906040528051906020012060028883815181106119c5576119c4612a59565b5b60200260200101516040516119da9190612368565b90815260200160405180910390206001016040516020016119fb91906123b4565b604051602081830303815290604052805190602001201415611a52576040517f08c379a0000000000000000000000000000000000000000000000000000000008152600401611a499061256a565b60405180910390fd5b8080611a5d90612979565b915050611946565b508080611a7190612979565b91505061193a565b508061ffff168261ffff1611925050509392505050565b828054611a9c90612916565b90600052602060002090601f016020900481019282611abe5760008555611b05565b82601f10611ad757805160ff1916838001178555611b05565b82800160010185558215611b05579182015b82811115611b04578251825591602001919060010190611ae9565b5b509050611b129190611b16565b5090565b5b80821115611b2f576000816000905550600101611b17565b5090565b6000611b46611b4184612689565b612664565b90508083825260208201905082856020860282011115611b6957611b68612abc565b5b60005b85811015611bb757813567ffffffffffffffff811115611b8f57611b8e612ab7565b5b808601611b9c8982611c88565b85526020850194506020840193505050600181019050611b6c565b5050509392505050565b6000611bd4611bcf846126b5565b612664565b905082815260208101848484011115611bf057611bef612ac1565b5b611bfb8482856128d4565b509392505050565b6000611c16611c11846126b5565b612664565b905082815260208101848484011115611c3257611c31612ac1565b5b611c3d8482856128e3565b509392505050565b600082601f830112611c5a57611c59612ab7565b5b8135611c6a848260208601611b33565b91505092915050565b600081519050611c8281612d1e565b92915050565b600082601f830112611c9d57611c9c612ab7565b5b8135611cad848260208601611bc1565b91505092915050565b600082601f830112611ccb57611cca612ab7565b5b8151611cdb848260208601611c03565b91505092915050565b600081359050611cf381612d35565b92915050565b600081359050611d0881612d4c565b92915050565b600081359050611d1d81612d63565b92915050565b600080600060608486031215611d3c57611d3b612acb565b5b600084013567ffffffffffffffff811115611d5a57611d59612ac6565b5b611d6686828701611c45565b935050602084013567ffffffffffffffff811115611d8757611d86612ac6565b5b611d9386828701611c45565b9250506040611da486828701611d0e565b9150509250925092565b600060208284031215611dc457611dc3612acb565b5b6000611dd284828501611c73565b91505092915050565b600060208284031215611df157611df0612acb565b5b600082013567ffffffffffffffff811115611e0f57611e0e612ac6565b5b611e1b84828501611c88565b91505092915050565b600060208284031215611e3a57611e39612acb565b5b600082015167ffffffffffffffff811115611e5857611e57612ac6565b5b611e6484828501611cb6565b91505092915050565b600080600080600060a08688031215611e8957611e88612acb565b5b600086013567ffffffffffffffff811115611ea757611ea6612ac6565b5b611eb388828901611c88565b9550506020611ec488828901611ce4565b9450506040611ed588828901611d0e565b935050606086013567ffffffffffffffff811115611ef657611ef5612ac6565b5b611f0288828901611c88565b9250506080611f1388828901611cf9565b9150509295509295909350565b600060208284031215611f3657611f35612acb565b5b6000611f4484828501611cf9565b91505092915050565b6000611f5983836120fe565b905092915050565b6000611f6d8383612315565b60208301905092915050565b6000611f858383612333565b60208301905092915050565b6000611f9c8261272b565b611fa6818561277e565b935083602082028501611fb8856126e6565b8060005b85811015611ff45784840389528151611fd58582611f4d565b9450611fe083612757565b925060208a01995050600181019050611fbc565b50829750879550505050505092915050565b600061201182612736565b61201b818561278f565b9350612026836126f6565b8060005b8381101561205757815161203e8882611f61565b975061204983612764565b92505060018101905061202a565b5085935050505092915050565b600061206f82612741565b61207981856127a0565b935061208483612706565b8060005b838110156120b557815161209c8882611f79565b97506120a783612771565b925050600181019050612088565b5085935050505092915050565b6120cb81612816565b82525050565b6120da8161287a565b82525050565b6120e98161288c565b82525050565b6120f88161289e565b82525050565b60006121098261274c565b61211381856127b1565b93506121238185602086016128e3565b61212c81612ad0565b840191505092915050565b60006121428261274c565b61214c81856127c2565b935061215c8185602086016128e3565b61216581612ad0565b840191505092915050565b600061217b8261274c565b61218581856127d3565b93506121958185602086016128e3565b80840191505092915050565b600081546121ae81612916565b6121b881866127d3565b945060018216600081146121d357600181146121e457612217565b60ff19831686528186019350612217565b6121ed85612716565b60005b8381101561220f578154818901526001820191506020810190506121f0565b838801955050505b50505092915050565b600061222d6017836127c2565b915061223882612ae1565b602082019050919050565b6000612250601b836127c2565b915061225b82612b0a565b602082019050919050565b60006122736041836127c2565b915061227e82612b33565b606082019050919050565b60006122966045836127c2565b91506122a182612ba8565b606082019050919050565b60006122b96013836127c2565b91506122c482612c1d565b602082019050919050565b60006122dc6035836127c2565b91506122e782612c46565b604082019050919050565b60006122ff6057836127c2565b915061230a82612c95565b606082019050919050565b61231e81612835565b82525050565b61232d81612835565b82525050565b61233c81612863565b82525050565b61234b81612863565b82525050565b61236261235d82612863565b6129c2565b82525050565b60006123748284612170565b915081905092915050565b600061238b8286612170565b915061239782856121a1565b91506123a38284612351565b602082019150819050949350505050565b60006123c082846121a1565b915081905092915050565b600060c08201905081810360008301526123e58189611f91565b905081810360208301526123f98188611f91565b9050818103604083015261240d8187612006565b905081810360608301526124218186611f91565b905081810360808301526124358185612064565b905081810360a08301526124498184612064565b9050979650505050505050565b600060208201905061246b60008301846120c2565b92915050565b600060208201905061248660008301846120d1565b92915050565b60006020820190506124a160008301846120e0565b92915050565b600060208201905081810360008301526124c18184612137565b905092915050565b600060a08201905081810360008301526124e38188612137565b90506124f26020830187612324565b81810360408301526125048186612137565b90506125136060830185612342565b6125206080830184612342565b9695505050505050565b6000602082019050818103600083015261254381612220565b9050919050565b6000602082019050818103600083015261256381612243565b9050919050565b6000602082019050818103600083015261258381612266565b9050919050565b600060208201905081810360008301526125a381612289565b9050919050565b600060208201905081810360008301526125c3816122ac565b9050919050565b600060208201905081810360008301526125e3816122cf565b9050919050565b60006020820190508181036000830152612603816122f2565b9050919050565b600060a08201905061261f6000830188612324565b61262c60208301876120ef565b818103604083015261263e8186612137565b905061264d6060830185612342565b61265a6080830184612342565b9695505050505050565b600061266e61267f565b905061267a8282612948565b919050565b6000604051905090565b600067ffffffffffffffff8211156126a4576126a3612a88565b5b602082029050602081019050919050565b600067ffffffffffffffff8211156126d0576126cf612a88565b5b6126d982612ad0565b9050602081019050919050565b6000819050602082019050919050565b6000819050602082019050919050565b6000819050602082019050919050565b60008190508160005260206000209050919050565b600081519050919050565b600081519050919050565b600081519050919050565b600081519050919050565b6000602082019050919050565b6000602082019050919050565b6000602082019050919050565b600082825260208201905092915050565b600082825260208201905092915050565b600082825260208201905092915050565b600082825260208201905092915050565b600082825260208201905092915050565b600081905092915050565b60006127e982612835565b91506127f483612835565b92508261ffff0382111561280b5761280a6129cc565b5b828201905092915050565b60008115159050919050565b600081905061283082612d0a565b919050565b600061ffff82169050919050565b600073ffffffffffffffffffffffffffffffffffffffff82169050919050565b6000819050919050565b600060ff82169050919050565b6000612885826128b0565b9050919050565b6000612897826128b0565b9050919050565b60006128a982612822565b9050919050565b60006128bb826128c2565b9050919050565b60006128cd82612843565b9050919050565b82818337600083830152505050565b60005b838110156129015780820151818401526020810190506128e6565b83811115612910576000848401525b50505050565b6000600282049050600182168061292e57607f821691505b6020821081141561294257612941612a2a565b5b50919050565b61295182612ad0565b810181811067ffffffffffffffff821117156129705761296f612a88565b5b80604052505050565b600061298482612863565b91507fffffffffffffffffffffffffffffffffffffffffffffffffffffffffffffffff8214156129b7576129b66129cc565b5b600182019050919050565b6000819050919050565b7f4e487b7100000000000000000000000000000000000000000000000000000000600052601160045260246000fd5b7f4e487b7100000000000000000000000000000000000000000000000000000000600052602160045260246000fd5b7f4e487b7100000000000000000000000000000000000000000000000000000000600052602260045260246000fd5b7f4e487b7100000000000000000000000000000000000000000000000000000000600052603260045260246000fd5b7f4e487b7100000000000000000000000000000000000000000000000000000000600052604160045260246000fd5b600080fd5b600080fd5b600080fd5b600080fd5b600080fd5b6000601f19601f8301169050919050565b7f416e696d616c206973206e6f742072656769737465642e000000000000000000600082015250565b7f456d697373696f6e20494420646f6573206e6f742065786973742e0000000000600082015250565b7f436f6e74726f6c2047726f75702073686f756c646e277420686176652074686560008201527f2073616d6520616e696d616c732061732054726561746d656e742047726f757060208201527f2e00000000000000000000000000000000000000000000000000000000000000604082015250565b7f506c65617365206f6e6c7920656e74657220656d697373696f6e207265636f7260008201527f6473207769746820746865207370656369666965642074726561746d656e742060208201527f747970652e000000000000000000000000000000000000000000000000000000604082015250565b7f456d697373696f6e204944206578697374732e00000000000000000000000000600082015250565b7f506c65617365206f6e6c7920656e74657220656d697373696f6e207265636f7260008201527f6473207769746820726567756c617220666565642e0000000000000000000000602082015250565b7f506c6561736520737570706c792073616d65206e756d626572206f6620656d6960008201527f7373696f6e207265636f72647320666f722074686520636f6e74726f6c20677260208201527f6f757020616e642074686520746573742067726f75702e000000000000000000604082015250565b60038110612d1b57612d1a6129fb565b5b50565b612d2781612816565b8114612d3257600080fd5b50565b612d3e81612835565b8114612d4957600080fd5b50565b612d5581612863565b8114612d6057600080fd5b50565b612d6c8161286d565b8114612d7757600080fd5b5056fea264697066735822122089a141175f6efa32a57dbba4ff9bbb9e78b2719c452ce67b9530a165f237503764736f6c63430008070033",
  "immutableReferences": {},
  "source": "// SPDX-License-Identifier: MIT\npragma solidity ^0.8.0;\n\nimport \"./AnimalRegistry.sol\";\nimport \"./FeedTracking.sol\";\n\ncontract EmissionTracking {\n    AnimalRegistry public animalregistry;\n    FeedTracking public feedtracking;\n\n    struct EmissionRecord {\n        uint16 Value;\n        FeedTracking.Ingredient FeedType;\n        string AnimalID;\n        uint256 DateTime; // unix time\n        uint256 BlockTime;\n    }\n    \n    mapping(string => EmissionRecord) public emissions;\n    mapping(string => bool) public emissionExists;\n    string[] public allemissions;\n\n    constructor(AnimalRegistry _animalregistry, FeedTracking _feedtracking)\n    {\n        animalregistry = _animalregistry;\n        feedtracking = _feedtracking;\n    }\n\n    // Note: oziris should receive data as often as needed; blockchain will only receive data once/twice a day\n    function logEmission(string memory _emissionid, uint16 _value, uint8 _feedtype, string memory _animalid, uint256 _datetime) public \n    {\n        require(!emissionExists[_emissionid], \"Emission ID exists.\");\n        require(animalregistry.animalExists(_animalid), \"Animal is not registed.\");\n        \n        emissions[_emissionid] = EmissionRecord(_value, FeedTracking.Ingredient(_feedtype), _animalid, _datetime, block.timestamp);\n        emissionExists[_emissionid] = true;\n        allemissions.push(_emissionid);\n    }\n\n    function queryEmission(string memory _emissionid)\n        public\n        view \n        returns(\n            string memory,\n            uint16,\n            string memory,\n            uint256,\n            uint256)\n        {\n            require(emissionExists[_emissionid], \"Emission ID does not exist.\");\n            string memory ingredient;\n\n            if (emissions[_emissionid].FeedType == FeedTracking.Ingredient.REGULAR) {\n                ingredient = \"Regular\";\n            } else if (emissions[_emissionid].FeedType == FeedTracking.Ingredient.ASPARAGOPSIS) {\n                ingredient = \"Asparagopsis\";\n            } else if (emissions[_emissionid].FeedType == FeedTracking.Ingredient.POLYGAIN) {\n                ingredient = \"Polygain\";\n            } else {\n                ingredient = \"Unknown\";\n            }\n\n            return(\n                emissions[_emissionid].AnimalID,\n                emissions[_emissionid].Value,\n                ingredient,\n                emissions[_emissionid].DateTime,\n                emissions[_emissionid].BlockTime\n            );\n        }\n\n    function queryAll() public view \n    returns(\n        string[] memory,\n        string[] memory,\n        uint16[] memory,\n        string[] memory,\n        uint256[] memory,\n        uint256[] memory\n    )\n    {\n        string[] memory animalids = new string[](allemissions.length);\n        uint16[] memory values = new uint16[](allemissions.length);\n        string[] memory ingredients = new string[](allemissions.length);\n        uint256[] memory datetimes = new uint256[](allemissions.length);\n        uint256[] memory blocktimes = new uint256[](allemissions.length);\n\n        for(uint256 i=0; i<allemissions.length; i++){\n            animalids[i] = emissions[allemissions[i]].AnimalID;\n            values[i] = emissions[allemissions[i]].Value;\n\n            if (emissions[allemissions[i]].FeedType == FeedTracking.Ingredient.REGULAR) {\n                ingredients[i] = \"Regular\";\n            } else if (emissions[allemissions[i]].FeedType == FeedTracking.Ingredient.ASPARAGOPSIS) {\n                ingredients[i] = \"Asparagopsis\";\n            } else if (emissions[allemissions[i]].FeedType == FeedTracking.Ingredient.POLYGAIN) {\n                ingredients[i] = \"Polygain\";\n            } else {\n                ingredients[i] = \"Unknown\";\n            }\n\n            datetimes[i] = emissions[allemissions[i]].DateTime;\n            blocktimes[i] = emissions[allemissions[i]].BlockTime;\n        }\n\n        return(allemissions,animalids,values,ingredients,datetimes,blocktimes);\n    }\n\n    // Note: on the front end, for a record of issued Carbon Tokens, we first take the start and end date, then for each date we find the emission record\n    // total emission is expected to be lower for the treatment group and higher for the controlled group\n    // arg _control is an array of emission ids in the control group\n    // arg _treatment is an array of emission ids in the treatment group\n    function verifyEmissionValue(string[] memory _control, string[] memory _treatment, uint8 _feedtype) public view returns(bool) {\n        require(_control.length == _treatment.length, \"Please supply same number of emission records for the control group and the test group.\");\n        uint16 controltotal = 0;\n        uint16 treatmenttotal = 0;\n\n        for(uint256 i=0; i<_control.length; i++){\n            require(emissionExists[_control[i]], \"Emission ID does not exist.\");\n            require(emissions[_control[i]].FeedType==FeedTracking.Ingredient.REGULAR, \"Please only enter emission records with regular feed.\");\n            controltotal = controltotal + emissions[_control[i]].Value;\n\n            require(emissionExists[_treatment[i]], \"Emission ID does not exist.\");\n            require(emissions[_treatment[i]].FeedType==FeedTracking.Ingredient(_feedtype), \"Please only enter emission records with the specified treatment type.\");\n            treatmenttotal = treatmenttotal + emissions[_treatment[i]].Value;\n        }\n\n        // same animal id shouldn't appear in both groups\n        for(uint256 i=0; i<_control.length; i++){\n            for(uint256 j=0; j<_treatment.length; j++){\n                require(keccak256(abi.encodePacked(emissions[_treatment[j]].AnimalID))!=keccak256(abi.encodePacked(emissions[_control[i]].AnimalID)), \"Control Group shouldn't have the same animals as Treatment Group.\");\n            }\n        }\n\n        return(controltotal > treatmenttotal);\n    }\n\n    // the function takes an Emission ID as an argument, returns the animalid and datetime, and find the corresponding feed record\n    // it returns '' if the emission cannot be linked to a feed record\n    // the frontend should propafate this\n    function linkEmissionToFeed(string memory _emissionid) public returns(string memory) {\n        string memory ingredient;\n        string memory feedid;\n        string memory feedsearchid;\n\n        if (emissions[_emissionid].FeedType == FeedTracking.Ingredient.REGULAR) {\n            ingredient = \"Regular\";\n        } else if (emissions[_emissionid].FeedType == FeedTracking.Ingredient.ASPARAGOPSIS) {\n            ingredient = \"Asparagopsis\";\n        } else if (emissions[_emissionid].FeedType == FeedTracking.Ingredient.POLYGAIN) {\n            ingredient = \"Polygain\";\n        } else {\n            ingredient = \"Unknown\";\n        }\n\n        feedsearchid = string(abi.encodePacked(ingredient,emissions[_emissionid].AnimalID,emissions[_emissionid].DateTime));\n        feedid = feedtracking.feedSearch(feedsearchid);\n\n        return(feedid);\n    }\n}",
  "sourcePath": "/home/yih/Documents/dev/beston-dapps/contracts/carbon/EmissionTracking.sol",
  "compiler": {
    "name": "solc",
    "version": "0.8.7+commit.e28d00a7.Emscripten.clang"
  },
  "schemaVersion": "3.4.1",
  "updatedAt": "2023-03-13T03:20:04.429Z",
  "devdoc": {
    "kind": "dev",
    "methods": {},
    "version": 1
  },
  "userdoc": {
    "kind": "user",
    "methods": {},
    "version": 1
  }
}