{
  "contractName": "EmissionTracking",
  "abi": [
    {
      "inputs": [
        {
          "internalType": "contract AnimalRegistry",
          "name": "_animalregistry",
          "type": "address"
        },
        {
          "internalType": "contract FeedTracking",
          "name": "_feedtracking",
          "type": "address"
        }
      ],
      "stateMutability": "nonpayable",
      "type": "constructor"
    },
    {
      "inputs": [],
      "name": "animalregistry",
      "outputs": [
        {
          "internalType": "contract AnimalRegistry",
          "name": "",
          "type": "address"
        }
      ],
      "stateMutability": "view",
      "type": "function",
      "constant": true
    },
    {
      "inputs": [
        {
          "internalType": "string",
          "name": "",
          "type": "string"
        }
      ],
      "name": "emissionExists",
      "outputs": [
        {
          "internalType": "bool",
          "name": "",
          "type": "bool"
        }
      ],
      "stateMutability": "view",
      "type": "function",
      "constant": true
    },
    {
      "inputs": [
        {
          "internalType": "string",
          "name": "",
          "type": "string"
        }
      ],
      "name": "emissions",
      "outputs": [
        {
          "internalType": "uint16",
          "name": "Value",
          "type": "uint16"
        },
        {
          "internalType": "enum FeedTracking.Ingredient",
          "name": "FeedType",
          "type": "uint8"
        },
        {
          "internalType": "string",
          "name": "AnimalID",
          "type": "string"
        },
        {
          "internalType": "uint256",
          "name": "DateTime",
          "type": "uint256"
        },
        {
          "internalType": "uint256",
          "name": "BlockTime",
          "type": "uint256"
        }
      ],
      "stateMutability": "view",
      "type": "function",
      "constant": true
    },
    {
      "inputs": [],
      "name": "feedtracking",
      "outputs": [
        {
          "internalType": "contract FeedTracking",
          "name": "",
          "type": "address"
        }
      ],
      "stateMutability": "view",
      "type": "function",
      "constant": true
    },
    {
      "inputs": [
        {
          "internalType": "string",
          "name": "_emissionid",
          "type": "string"
        },
        {
          "internalType": "uint16",
          "name": "_value",
          "type": "uint16"
        },
        {
          "internalType": "uint8",
          "name": "_feedtype",
          "type": "uint8"
        },
        {
          "internalType": "string",
          "name": "_animalid",
          "type": "string"
        },
        {
          "internalType": "uint256",
          "name": "_datetime",
          "type": "uint256"
        }
      ],
      "name": "logEmission",
      "outputs": [],
      "stateMutability": "nonpayable",
      "type": "function"
    },
    {
      "inputs": [
        {
          "internalType": "string",
          "name": "_emissionid",
          "type": "string"
        }
      ],
      "name": "queryEmission",
      "outputs": [
        {
          "internalType": "string",
          "name": "",
          "type": "string"
        },
        {
          "internalType": "uint16",
          "name": "",
          "type": "uint16"
        },
        {
          "internalType": "string",
          "name": "",
          "type": "string"
        },
        {
          "internalType": "uint256",
          "name": "",
          "type": "uint256"
        },
        {
          "internalType": "uint256",
          "name": "",
          "type": "uint256"
        }
      ],
      "stateMutability": "view",
      "type": "function",
      "constant": true
    },
    {
      "inputs": [
        {
          "internalType": "string[]",
          "name": "_control",
          "type": "string[]"
        },
        {
          "internalType": "string[]",
          "name": "_treatment",
          "type": "string[]"
        },
        {
          "internalType": "uint8",
          "name": "_feedtype",
          "type": "uint8"
        }
      ],
      "name": "verifyEmissionValue",
      "outputs": [
        {
          "internalType": "bool",
          "name": "",
          "type": "bool"
        }
      ],
      "stateMutability": "view",
      "type": "function",
      "constant": true
    },
    {
      "inputs": [
        {
          "internalType": "string",
          "name": "_emissionid",
          "type": "string"
        }
      ],
      "name": "linkEmissionToFeed",
      "outputs": [
        {
          "internalType": "string",
          "name": "",
          "type": "string"
        }
      ],
      "stateMutability": "nonpayable",
      "type": "function"
    }
  ],
  "bytecode": "0x60806040523480156200001157600080fd5b50604051620024e7380380620024e78339818101604052810190620000379190620000ee565b816000806101000a81548173ffffffffffffffffffffffffffffffffffffffff021916908373ffffffffffffffffffffffffffffffffffffffff16021790555080600160006101000a81548173ffffffffffffffffffffffffffffffffffffffff021916908373ffffffffffffffffffffffffffffffffffffffff1602179055505050620001ca565b600081519050620000d18162000196565b92915050565b600081519050620000e881620001b0565b92915050565b6000806040838503121562000108576200010762000191565b5b60006200011885828601620000c0565b92505060206200012b85828601620000d7565b9150509250929050565b6000620001428262000171565b9050919050565b6000620001568262000135565b9050919050565b60006200016a8262000135565b9050919050565b600073ffffffffffffffffffffffffffffffffffffffff82169050919050565b600080fd5b620001a18162000149565b8114620001ad57600080fd5b50565b620001bb816200015d565b8114620001c757600080fd5b50565b61230d80620001da6000396000f3fe608060405234801561001057600080fd5b50600436106100885760003560e01c8063900616281161005b57806390061628146101435780639c699d0a14610161578063c3eb4ba41461017d578063e5e5efc8146101ad57610088565b80630b134f301461008d578063120f894e146100bd578063515f2428146100f157806372a5b30e1461010f575b600080fd5b6100a760048036038101906100a29190611678565b6101dd565b6040516100b49190611ac0565b60405180910390f35b6100d760048036038101906100d29190611678565b610509565b6040516100e8959493929190611ae2565b60405180910390f35b6100f96108b7565b6040516101069190611a8a565b60405180910390f35b61012960048036038101906101249190611678565b6108db565b60405161013a959493929190611c23565b60405180910390f35b61014b6109ca565b6040516101589190611aa5565b60405180910390f35b61017b6004803603810190610176919061170a565b6109f0565b005b61019760048036038101906101929190611678565b610c42565b6040516101a49190611a6f565b60405180910390f35b6101c760048036038101906101c291906115c0565b610c78565b6040516101d49190611a6f565b60405180910390f35b606080606080600060028111156101f7576101f6611f58565b5b6002866040516102079190611a0c565b908152602001604051809103902060000160029054906101000a900460ff16600281111561023857610237611f58565b5b141561027b576040518060400160405280600781526020017f526567756c61720000000000000000000000000000000000000000000000000081525092506103e5565b6001600281111561028f5761028e611f58565b5b60028660405161029f9190611a0c565b908152602001604051809103902060000160029054906101000a900460ff1660028111156102d0576102cf611f58565b5b1415610313576040518060400160405280600c81526020017f417370617261676f70736973000000000000000000000000000000000000000081525092506103e4565b60028081111561032657610325611f58565b5b6002866040516103369190611a0c565b908152602001604051809103902060000160029054906101000a900460ff16600281111561036757610366611f58565b5b14156103aa576040518060400160405280600881526020017f506f6c796761696e00000000000000000000000000000000000000000000000081525092506103e3565b6040518060400160405280600781526020017f556e6b6e6f776e0000000000000000000000000000000000000000000000000081525092505b5b5b826002866040516103f69190611a0c565b90815260200160405180910390206001016002876040516104179190611a0c565b90815260200160405180910390206002015460405160200161043b93929190611a23565b6040516020818303038152906040529050600160009054906101000a900473ffffffffffffffffffffffffffffffffffffffff1673ffffffffffffffffffffffffffffffffffffffff1663f846bdfa826040518263ffffffff1660e01b81526004016104a79190611ac0565b60006040518083038186803b1580156104bf57600080fd5b505afa1580156104d3573d6000803e3d6000fd5b505050506040513d6000823e3d601f19601f820116820180604052508101906104fc91906116c1565b9150819350505050919050565b6060600060606000806003866040516105229190611a0c565b908152602001604051809103902060009054906101000a900460ff1661057d576040517f08c379a000000000000000000000000000000000000000000000000000000000815260040161057490611b63565b60405180910390fd5b60606000600281111561059357610592611f58565b5b6002886040516105a39190611a0c565b908152602001604051809103902060000160029054906101000a900460ff1660028111156105d4576105d3611f58565b5b1415610617576040518060400160405280600781526020017f526567756c6172000000000000000000000000000000000000000000000000008152509050610781565b6001600281111561062b5761062a611f58565b5b60028860405161063b9190611a0c565b908152602001604051809103902060000160029054906101000a900460ff16600281111561066c5761066b611f58565b5b14156106af576040518060400160405280600c81526020017f417370617261676f7073697300000000000000000000000000000000000000008152509050610780565b6002808111156106c2576106c1611f58565b5b6002886040516106d29190611a0c565b908152602001604051809103902060000160029054906101000a900460ff16600281111561070357610702611f58565b5b1415610746576040518060400160405280600881526020017f506f6c796761696e000000000000000000000000000000000000000000000000815250905061077f565b6040518060400160405280600781526020017f556e6b6e6f776e0000000000000000000000000000000000000000000000000081525090505b5b5b6002876040516107919190611a0c565b90815260200160405180910390206001016002886040516107b29190611a0c565b908152602001604051809103902060000160009054906101000a900461ffff168260028a6040516107e39190611a0c565b90815260200160405180910390206002015460028b6040516108059190611a0c565b90815260200160405180910390206003015484805461082390611e73565b80601f016020809104026020016040519081016040528092919081815260200182805461084f90611e73565b801561089c5780601f106108715761010080835404028352916020019161089c565b820191906000526020600020905b81548152906001019060200180831161087f57829003601f168201915b50505050509450955095509550955095505091939590929450565b60008054906101000a900473ffffffffffffffffffffffffffffffffffffffff1681565b6002818051602081018201805184825260208301602085012081835280955050505050506000915090508060000160009054906101000a900461ffff16908060000160029054906101000a900460ff169080600101805461093b90611e73565b80601f016020809104026020016040519081016040528092919081815260200182805461096790611e73565b80156109b45780601f10610989576101008083540402835291602001916109b4565b820191906000526020600020905b81548152906001019060200180831161099757829003601f168201915b5050505050908060020154908060030154905085565b600160009054906101000a900473ffffffffffffffffffffffffffffffffffffffff1681565b600385604051610a009190611a0c565b908152602001604051809103902060009054906101000a900460ff1615610a5c576040517f08c379a0000000000000000000000000000000000000000000000000000000008152600401610a5390611ba3565b60405180910390fd5b60008054906101000a900473ffffffffffffffffffffffffffffffffffffffff1673ffffffffffffffffffffffffffffffffffffffff16632c80a7f5836040518263ffffffff1660e01b8152600401610ab59190611ac0565b60206040518083038186803b158015610acd57600080fd5b505afa158015610ae1573d6000803e3d6000fd5b505050506040513d601f19601f82011682018060405250810190610b05919061164b565b610b44576040517f08c379a0000000000000000000000000000000000000000000000000000000008152600401610b3b90611b43565b60405180910390fd5b6040518060a001604052808561ffff1681526020018460ff166002811115610b6f57610b6e611f58565b5b6002811115610b8157610b80611f58565b5b815260200183815260200182815260200142815250600286604051610ba69190611a0c565b908152602001604051809103902060008201518160000160006101000a81548161ffff021916908361ffff16021790555060208201518160000160026101000a81548160ff02191690836002811115610c0257610c01611f58565b5b02179055506040820151816001019080519060200190610c2392919061132d565b5060608201518160020155608082015181600301559050505050505050565b6003818051602081018201805184825260208301602085012081835280955050505050506000915054906101000a900460ff1681565b60008251845114610cbe576040517f08c379a0000000000000000000000000000000000000000000000000000000008152600401610cb590611c03565b60405180910390fd5b60008060608060005b88518110156111d1576003898281518110610ce557610ce4611fb6565b5b6020026020010151604051610cfa9190611a0c565b908152602001604051809103902060009054906101000a900460ff16610d55576040517f08c379a0000000000000000000000000000000000000000000000000000000008152600401610d4c90611b63565b60405180910390fd5b60006002811115610d6957610d68611f58565b5b60028a8381518110610d7e57610d7d611fb6565b5b6020026020010151604051610d939190611a0c565b908152602001604051809103902060000160029054906101000a900460ff166002811115610dc457610dc3611f58565b5b14610e04576040517f08c379a0000000000000000000000000000000000000000000000000000000008152600401610dfb90611bc3565b60405180910390fd5b6002898281518110610e1957610e18611fb6565b5b6020026020010151604051610e2e9190611a0c565b908152602001604051809103902060000160009054906101000a900461ffff1685610e599190611d3b565b94506002898281518110610e7057610e6f611fb6565b5b6020026020010151604051610e859190611a0c565b90815260200160405180910390206001018054610ea190611e73565b80601f0160208091040260200160405190810160405280929190818152602001828054610ecd90611e73565b8015610f1a5780601f10610eef57610100808354040283529160200191610f1a565b820191906000526020600020905b815481529060010190602001808311610efd57829003601f168201915b5050505050838281518110610f3257610f31611fb6565b5b60200260200101819052506003888281518110610f5257610f51611fb6565b5b6020026020010151604051610f679190611a0c565b908152602001604051809103902060009054906101000a900460ff16610fc2576040517f08c379a0000000000000000000000000000000000000000000000000000000008152600401610fb990611b63565b60405180910390fd5b8660ff166002811115610fd857610fd7611f58565b5b6002811115610fea57610fe9611f58565b5b60028a8381518110610fff57610ffe611fb6565b5b60200260200101516040516110149190611a0c565b908152602001604051809103902060000160029054906101000a900460ff16600281111561104557611044611f58565b5b14611085576040517f08c379a000000000000000000000000000000000000000000000000000000000815260040161107c90611b83565b60405180910390fd5b600288828151811061109a57611099611fb6565b5b60200260200101516040516110af9190611a0c565b908152602001604051809103902060000160009054906101000a900461ffff16846110da9190611d3b565b935060028982815181106110f1576110f0611fb6565b5b60200260200101516040516111069190611a0c565b9081526020016040518091039020600101805461112290611e73565b80601f016020809104026020016040519081016040528092919081815260200182805461114e90611e73565b801561119b5780601f106111705761010080835404028352916020019161119b565b820191906000526020600020905b81548152906001019060200180831161117e57829003601f168201915b50505050508282815181106111b3576111b2611fb6565b5b602002602001018190525080806111c990611ed6565b915050610cc7565b5060005b88518110156113145760005b89518110156113005760028a83815181106111ff576111fe611fb6565b5b60200260200101516040516112149190611a0c565b90815260200160405180910390206001016040516020016112359190611a58565b6040516020818303038152906040528051906020012060028a83815181106112605761125f611fb6565b5b60200260200101516040516112759190611a0c565b90815260200160405180910390206001016040516020016112969190611a58565b6040516020818303038152906040528051906020012014156112ed576040517f08c379a00000000000000000000000000000000000000000000000000000000081526004016112e490611be3565b60405180910390fd5b81806112f890611ed6565b9250506111e1565b50808061130c90611ed6565b9150506111d5565b508261ffff168461ffff16119450505050509392505050565b82805461133990611e73565b90600052602060002090601f01602090048101928261135b57600085556113a2565b82601f1061137457805160ff19168380011785556113a2565b828001600101855582156113a2579182015b828111156113a1578251825591602001919060010190611386565b5b5090506113af91906113b3565b5090565b5b808211156113cc5760008160009055506001016113b4565b5090565b60006113e36113de84611ca2565b611c7d565b9050808382526020820190508285602086028201111561140657611405612019565b5b60005b8581101561145457813567ffffffffffffffff81111561142c5761142b612014565b5b8086016114398982611525565b85526020850194506020840193505050600181019050611409565b5050509392505050565b600061147161146c84611cce565b611c7d565b90508281526020810184848401111561148d5761148c61201e565b5b611498848285611e31565b509392505050565b60006114b36114ae84611cce565b611c7d565b9050828152602081018484840111156114cf576114ce61201e565b5b6114da848285611e40565b509392505050565b600082601f8301126114f7576114f6612014565b5b81356115078482602086016113d0565b91505092915050565b60008151905061151f8161227b565b92915050565b600082601f83011261153a57611539612014565b5b813561154a84826020860161145e565b91505092915050565b600082601f83011261156857611567612014565b5b81516115788482602086016114a0565b91505092915050565b60008135905061159081612292565b92915050565b6000813590506115a5816122a9565b92915050565b6000813590506115ba816122c0565b92915050565b6000806000606084860312156115d9576115d8612028565b5b600084013567ffffffffffffffff8111156115f7576115f6612023565b5b611603868287016114e2565b935050602084013567ffffffffffffffff81111561162457611623612023565b5b611630868287016114e2565b9250506040611641868287016115ab565b9150509250925092565b60006020828403121561166157611660612028565b5b600061166f84828501611510565b91505092915050565b60006020828403121561168e5761168d612028565b5b600082013567ffffffffffffffff8111156116ac576116ab612023565b5b6116b884828501611525565b91505092915050565b6000602082840312156116d7576116d6612028565b5b600082015167ffffffffffffffff8111156116f5576116f4612023565b5b61170184828501611553565b91505092915050565b600080600080600060a0868803121561172657611725612028565b5b600086013567ffffffffffffffff81111561174457611743612023565b5b61175088828901611525565b955050602061176188828901611581565b9450506040611772888289016115ab565b935050606086013567ffffffffffffffff81111561179357611792612023565b5b61179f88828901611525565b92505060806117b088828901611596565b9150509295509295909350565b6117c681611d73565b82525050565b6117d581611dd7565b82525050565b6117e481611de9565b82525050565b6117f381611dfb565b82525050565b600061180482611d14565b61180e8185611d1f565b935061181e818560208601611e40565b6118278161202d565b840191505092915050565b600061183d82611d14565b6118478185611d30565b9350611857818560208601611e40565b80840191505092915050565b6000815461187081611e73565b61187a8186611d30565b9450600182166000811461189557600181146118a6576118d9565b60ff198316865281860193506118d9565b6118af85611cff565b60005b838110156118d1578154818901526001820191506020810190506118b2565b838801955050505b50505092915050565b60006118ef601783611d1f565b91506118fa8261203e565b602082019050919050565b6000611912601b83611d1f565b915061191d82612067565b602082019050919050565b6000611935604583611d1f565b915061194082612090565b606082019050919050565b6000611958601383611d1f565b915061196382612105565b602082019050919050565b600061197b603583611d1f565b91506119868261212e565b604082019050919050565b600061199e604183611d1f565b91506119a98261217d565b606082019050919050565b60006119c1605783611d1f565b91506119cc826121f2565b606082019050919050565b6119e081611d92565b82525050565b6119ef81611dc0565b82525050565b611a06611a0182611dc0565b611f1f565b82525050565b6000611a188284611832565b915081905092915050565b6000611a2f8286611832565b9150611a3b8285611863565b9150611a4782846119f5565b602082019150819050949350505050565b6000611a648284611863565b915081905092915050565b6000602082019050611a8460008301846117bd565b92915050565b6000602082019050611a9f60008301846117cc565b92915050565b6000602082019050611aba60008301846117db565b92915050565b60006020820190508181036000830152611ada81846117f9565b905092915050565b600060a0820190508181036000830152611afc81886117f9565b9050611b0b60208301876119d7565b8181036040830152611b1d81866117f9565b9050611b2c60608301856119e6565b611b3960808301846119e6565b9695505050505050565b60006020820190508181036000830152611b5c816118e2565b9050919050565b60006020820190508181036000830152611b7c81611905565b9050919050565b60006020820190508181036000830152611b9c81611928565b9050919050565b60006020820190508181036000830152611bbc8161194b565b9050919050565b60006020820190508181036000830152611bdc8161196e565b9050919050565b60006020820190508181036000830152611bfc81611991565b9050919050565b60006020820190508181036000830152611c1c816119b4565b9050919050565b600060a082019050611c3860008301886119d7565b611c4560208301876117ea565b8181036040830152611c5781866117f9565b9050611c6660608301856119e6565b611c7360808301846119e6565b9695505050505050565b6000611c87611c98565b9050611c938282611ea5565b919050565b6000604051905090565b600067ffffffffffffffff821115611cbd57611cbc611fe5565b5b602082029050602081019050919050565b600067ffffffffffffffff821115611ce957611ce8611fe5565b5b611cf28261202d565b9050602081019050919050565b60008190508160005260206000209050919050565b600081519050919050565b600082825260208201905092915050565b600081905092915050565b6000611d4682611d92565b9150611d5183611d92565b92508261ffff03821115611d6857611d67611f29565b5b828201905092915050565b60008115159050919050565b6000819050611d8d82612267565b919050565b600061ffff82169050919050565b600073ffffffffffffffffffffffffffffffffffffffff82169050919050565b6000819050919050565b600060ff82169050919050565b6000611de282611e0d565b9050919050565b6000611df482611e0d565b9050919050565b6000611e0682611d7f565b9050919050565b6000611e1882611e1f565b9050919050565b6000611e2a82611da0565b9050919050565b82818337600083830152505050565b60005b83811015611e5e578082015181840152602081019050611e43565b83811115611e6d576000848401525b50505050565b60006002820490506001821680611e8b57607f821691505b60208210811415611e9f57611e9e611f87565b5b50919050565b611eae8261202d565b810181811067ffffffffffffffff82111715611ecd57611ecc611fe5565b5b80604052505050565b6000611ee182611dc0565b91507fffffffffffffffffffffffffffffffffffffffffffffffffffffffffffffffff821415611f1457611f13611f29565b5b600182019050919050565b6000819050919050565b7f4e487b7100000000000000000000000000000000000000000000000000000000600052601160045260246000fd5b7f4e487b7100000000000000000000000000000000000000000000000000000000600052602160045260246000fd5b7f4e487b7100000000000000000000000000000000000000000000000000000000600052602260045260246000fd5b7f4e487b7100000000000000000000000000000000000000000000000000000000600052603260045260246000fd5b7f4e487b7100000000000000000000000000000000000000000000000000000000600052604160045260246000fd5b600080fd5b600080fd5b600080fd5b600080fd5b600080fd5b6000601f19601f8301169050919050565b7f416e696d616c206973206e6f742072656769737465642e000000000000000000600082015250565b7f456d697373696f6e20494420646f6573206e6f742065786973742e0000000000600082015250565b7f506c65617365206f6e6c7920656e74657220656d697373696f6e207265636f7260008201527f6473207769746820746865207370656369666965642074726561746d656e742060208201527f747970652e000000000000000000000000000000000000000000000000000000604082015250565b7f456d697373696f6e204944206578697374732e00000000000000000000000000600082015250565b7f506c65617365206f6e6c7920656e74657220656d697373696f6e207265636f7260008201527f6473207769746820726567756c617220666565642e0000000000000000000000602082015250565b7f436f6e74726f6c2047726f75702073686f756c646e277420686176652074686560008201527f2073616d6520616e696d616c732061732054726561746d6e65742047726f757060208201527f2e00000000000000000000000000000000000000000000000000000000000000604082015250565b7f506c6561736520737570706c792073616d65206e756d626572206f6620656d6960008201527f7373696f6e207265636f72647320666f722074686520636f6e74726f6c20677260208201527f6f757020616e642074686520746573742067726f75702e000000000000000000604082015250565b6003811061227857612277611f58565b5b50565b61228481611d73565b811461228f57600080fd5b50565b61229b81611d92565b81146122a657600080fd5b50565b6122b281611dc0565b81146122bd57600080fd5b50565b6122c981611dca565b81146122d457600080fd5b5056fea26469706673582212209f7edf472099463cff33045e7028b4694bdf3add542ef950df100363b2a5bc1264736f6c63430008070033",
  "immutableReferences": {},
  "source": "// SPDX-License-Identifier: MIT\npragma solidity ^0.8.0;\n\nimport \"./AnimalRegistry.sol\";\nimport \"./FeedTracking.sol\";\n\ncontract EmissionTracking {\n    AnimalRegistry public animalregistry;\n    FeedTracking public feedtracking;\n\n    struct EmissionRecord {\n        uint16 Value;\n        FeedTracking.Ingredient FeedType;\n        string AnimalID;\n        uint256 DateTime; // unix time\n        uint256 BlockTime;\n    }\n    \n    mapping(string => EmissionRecord) public emissions;\n    mapping(string => bool) public emissionExists;\n\n    constructor(AnimalRegistry _animalregistry, FeedTracking _feedtracking)\n    {\n        animalregistry = _animalregistry;\n        feedtracking = _feedtracking;\n    }\n\n    // Note: oziris should receive data as often as needed; blockchain will only receive data once/twice a day\n    function logEmission(string memory _emissionid, uint16 _value, uint8 _feedtype, string memory _animalid, uint256 _datetime) public \n    {\n        require(!emissionExists[_emissionid], \"Emission ID exists.\");\n        require(animalregistry.animalExists(_animalid), \"Animal is not registed.\");\n        \n        emissions[_emissionid] = EmissionRecord(_value, FeedTracking.Ingredient(_feedtype), _animalid, _datetime, block.timestamp);\n    }\n\n    function queryEmission(string memory _emissionid)\n        public\n        view \n        returns(\n            string memory,\n            uint16,\n            string memory,\n            uint256,\n            uint256) \n        {\n            require(emissionExists[_emissionid], \"Emission ID does not exist.\");\n            string memory ingredient;\n\n            if (emissions[_emissionid].FeedType == FeedTracking.Ingredient.REGULAR) {\n                ingredient = \"Regular\";\n            } else if (emissions[_emissionid].FeedType == FeedTracking.Ingredient.ASPARAGOPSIS) {\n                ingredient = \"Asparagopsis\";\n            } else if (emissions[_emissionid].FeedType == FeedTracking.Ingredient.POLYGAIN) {\n                ingredient = \"Polygain\";\n            } else {\n                ingredient = \"Unknown\";\n            }\n\n            return(\n                emissions[_emissionid].AnimalID,\n                emissions[_emissionid].Value,\n                ingredient,\n                emissions[_emissionid].DateTime,\n                emissions[_emissionid].BlockTime\n            );\n        }\n\n    // Note: on the front end, for a record of issued Carbon Tokens, we first take the start and end date, then for each date we find the emission record\n    // total emission is expected to be lower for the treatment group and higher for the controlled group\n    // arg _control is an array of emission ids in the control group\n    // arg _treatment is an array of emission ids in the treatment group\n    function verifyEmissionValue(string[] memory _control, string[] memory _treatment, uint8 _feedtype) public view returns(bool) {\n        require(_control.length == _treatment.length, \"Please supply same number of emission records for the control group and the test group.\");\n        uint16 controltotal = 0;\n        uint16 treatmenttotal = 0;\n        string[] memory animalids_control;\n        string[] memory animalids_treatment;\n\n        for(uint256 i=0; i<_control.length; i++){\n            require(emissionExists[_control[i]], \"Emission ID does not exist.\");\n            require(emissions[_control[i]].FeedType==FeedTracking.Ingredient.REGULAR, \"Please only enter emission records with regular feed.\");\n            controltotal = controltotal + emissions[_control[i]].Value;\n            animalids_control[i]=(emissions[_control[i]].AnimalID);\n\n            require(emissionExists[_treatment[i]], \"Emission ID does not exist.\");\n            require(emissions[_control[i]].FeedType==FeedTracking.Ingredient(_feedtype), \"Please only enter emission records with the specified treatment type.\");\n            treatmenttotal = treatmenttotal + emissions[_treatment[i]].Value;\n            animalids_treatment[i]=(emissions[_control[i]].AnimalID);\n        }\n\n        // same animal id shouldn't appear in both groups\n        for(uint256 i=0; i<_control.length; i++){\n            for(uint256 j=0; j<_control.length; i++){\n                require(keccak256(abi.encodePacked(emissions[_treatment[j]].AnimalID))!=keccak256(abi.encodePacked(emissions[_control[i]].AnimalID)), \"Control Group shouldn't have the same animals as Treatmnet Group.\");\n            }\n        }\n\n        return(controltotal > treatmenttotal);\n    }\n\n    // the function takes an Emission ID as an argument, returns the animalid and datetime, and find the corresponding feed record\n    // it returns '' if the emission cannot be linked to a feed record\n    // the frontend should propafate this\n    function linkEmissionToFeed(string memory _emissionid) public returns(string memory) {\n        string memory ingredient;\n        string memory feedid;\n        string memory feedsearchid;\n\n        if (emissions[_emissionid].FeedType == FeedTracking.Ingredient.REGULAR) {\n            ingredient = \"Regular\";\n        } else if (emissions[_emissionid].FeedType == FeedTracking.Ingredient.ASPARAGOPSIS) {\n            ingredient = \"Asparagopsis\";\n        } else if (emissions[_emissionid].FeedType == FeedTracking.Ingredient.POLYGAIN) {\n            ingredient = \"Polygain\";\n        } else {\n            ingredient = \"Unknown\";\n        }\n\n        feedsearchid = string(abi.encodePacked(ingredient,emissions[_emissionid].AnimalID,emissions[_emissionid].DateTime));\n        feedid = feedtracking.feedSearch(feedsearchid);\n\n        return(feedid);\n    }\n}",
  "sourcePath": "/home/yih/Documents/dev/beston-dapps/contracts/carbon/EmissionTracking.sol",
  "compiler": {
    "name": "solc",
    "version": "0.8.7+commit.e28d00a7.Emscripten.clang"
  },
  "schemaVersion": "3.4.1",
  "updatedAt": "2023-02-17T04:51:08.600Z",
  "networkType": "ethereum",
  "devdoc": {
    "kind": "dev",
    "methods": {},
    "version": 1
  },
  "userdoc": {
    "kind": "user",
    "methods": {},
    "version": 1
  }
}