{
  "contractName": "EmissionTracking",
  "abi": [
    {
      "inputs": [
        {
          "internalType": "contract HerdRegistry",
          "name": "_herdregistry",
          "type": "address"
        }
      ],
      "stateMutability": "nonpayable",
      "type": "constructor"
    },
    {
      "inputs": [
        {
          "internalType": "uint256",
          "name": "",
          "type": "uint256"
        }
      ],
      "name": "emissions",
      "outputs": [
        {
          "internalType": "uint256",
          "name": "herdID",
          "type": "uint256"
        },
        {
          "internalType": "uint256",
          "name": "amount",
          "type": "uint256"
        },
        {
          "internalType": "bool",
          "name": "ccminted",
          "type": "bool"
        },
        {
          "internalType": "address",
          "name": "farmer",
          "type": "address"
        },
        {
          "internalType": "uint256",
          "name": "time",
          "type": "uint256"
        },
        {
          "internalType": "uint256",
          "name": "blocktime",
          "type": "uint256"
        }
      ],
      "stateMutability": "view",
      "type": "function"
    },
    {
      "inputs": [],
      "name": "herdregistry",
      "outputs": [
        {
          "internalType": "contract HerdRegistry",
          "name": "",
          "type": "address"
        }
      ],
      "stateMutability": "view",
      "type": "function"
    },
    {
      "inputs": [
        {
          "internalType": "uint256",
          "name": "_herdID",
          "type": "uint256"
        },
        {
          "internalType": "uint256",
          "name": "_amount",
          "type": "uint256"
        },
        {
          "internalType": "uint256",
          "name": "_time",
          "type": "uint256"
        }
      ],
      "name": "logEmission",
      "outputs": [],
      "stateMutability": "nonpayable",
      "type": "function"
    },
    {
      "inputs": [
        {
          "internalType": "uint256",
          "name": "_emissionID",
          "type": "uint256"
        }
      ],
      "name": "viewEmission",
      "outputs": [
        {
          "internalType": "uint256",
          "name": "",
          "type": "uint256"
        },
        {
          "internalType": "uint256",
          "name": "",
          "type": "uint256"
        },
        {
          "internalType": "bool",
          "name": "",
          "type": "bool"
        },
        {
          "internalType": "address",
          "name": "",
          "type": "address"
        },
        {
          "internalType": "uint256",
          "name": "",
          "type": "uint256"
        }
      ],
      "stateMutability": "view",
      "type": "function"
    },
    {
      "inputs": [
        {
          "internalType": "uint256",
          "name": "_emissionID",
          "type": "uint256"
        }
      ],
      "name": "verifyEmission",
      "outputs": [
        {
          "internalType": "bool",
          "name": "",
          "type": "bool"
        }
      ],
      "stateMutability": "view",
      "type": "function"
    }
  ],
  "bytecode": "0x608060405234801561001057600080fd5b506040516109de3803806109de8339818101604052810190610032919061008d565b806000806101000a81548173ffffffffffffffffffffffffffffffffffffffff021916908373ffffffffffffffffffffffffffffffffffffffff1602179055505061011a565b60008151905061008781610103565b92915050565b6000602082840312156100a3576100a26100fe565b5b60006100b184828501610078565b91505092915050565b60006100c5826100de565b9050919050565b60006100d7826100ba565b9050919050565b600073ffffffffffffffffffffffffffffffffffffffff82169050919050565b600080fd5b61010c816100cc565b811461011757600080fd5b50565b6108b5806101296000396000f3fe608060405234801561001057600080fd5b50600436106100575760003560e01c8063296e56ea1461005c578063a1c809bc14610078578063b3f4b362146100a8578063cb6da670146100c6578063d18326e1146100fb575b600080fd5b61007660048036038101906100719190610545565b61012f565b005b610092600480360381019061008d9190610518565b610330565b60405161009f91906105f7565b60405180910390f35b6100b0610379565b6040516100bd9190610612565b60405180910390f35b6100e060048036038101906100db9190610518565b61039d565b6040516100f2969594939291906106bb565b60405180910390f35b61011560048036038101906101109190610518565b610406565b604051610126959493929190610668565b60405180910390f35b60008054906101000a900473ffffffffffffffffffffffffffffffffffffffff1673ffffffffffffffffffffffffffffffffffffffff166329bea640846040518263ffffffff1660e01b8152600401610188919061064d565b60206040518083038186803b1580156101a057600080fd5b505afa1580156101b4573d6000803e3d6000fd5b505050506040513d601f19601f820116820180604052508101906101d891906104eb565b610217576040517f08c379a000000000000000000000000000000000000000000000000000000000815260040161020e9061062d565b60405180910390fd5b6002600081548092919061022a906107ab565b919050555082600160006002548152602001908152602001600020600001819055508160016000600254815260200190815260200160002060010181905550600060016000600254815260200190815260200160002060020160006101000a81548160ff0219169083151502179055503360016000600254815260200190815260200160002060020160016101000a81548173ffffffffffffffffffffffffffffffffffffffff021916908373ffffffffffffffffffffffffffffffffffffffff16021790555080600160006002548152602001908152602001600020600301819055504260016000600254815260200190815260200160002060040181905550505050565b600060016000838152602001908152602001600020600401546001600084815260200190815260200160002060030154101561036f5760019050610374565b600090505b919050565b60008054906101000a900473ffffffffffffffffffffffffffffffffffffffff1681565b60016020528060005260406000206000915090508060000154908060010154908060020160009054906101000a900460ff16908060020160019054906101000a900473ffffffffffffffffffffffffffffffffffffffff16908060030154908060040154905086565b6000806000806000600160008781526020019081526020016000206000015460016000888152602001908152602001600020600101546001600089815260200190815260200160002060020160009054906101000a900460ff16600160008a815260200190815260200160002060020160019054906101000a900473ffffffffffffffffffffffffffffffffffffffff16600160008b8152602001908152602001600020600301549450945094509450945091939590929450565b6000815190506104d081610851565b92915050565b6000813590506104e581610868565b92915050565b60006020828403121561050157610500610823565b5b600061050f848285016104c1565b91505092915050565b60006020828403121561052e5761052d610823565b5b600061053c848285016104d6565b91505092915050565b60008060006060848603121561055e5761055d610823565b5b600061056c868287016104d6565b935050602061057d868287016104d6565b925050604061058e868287016104d6565b9150509250925092565b6105a18161072d565b82525050565b6105b08161073f565b82525050565b6105bf81610775565b82525050565b60006105d260158361071c565b91506105dd82610828565b602082019050919050565b6105f18161076b565b82525050565b600060208201905061060c60008301846105a7565b92915050565b600060208201905061062760008301846105b6565b92915050565b60006020820190508181036000830152610646816105c5565b9050919050565b600060208201905061066260008301846105e8565b92915050565b600060a08201905061067d60008301886105e8565b61068a60208301876105e8565b61069760408301866105a7565b6106a46060830185610598565b6106b160808301846105e8565b9695505050505050565b600060c0820190506106d060008301896105e8565b6106dd60208301886105e8565b6106ea60408301876105a7565b6106f76060830186610598565b61070460808301856105e8565b61071160a08301846105e8565b979650505050505050565b600082825260208201905092915050565b60006107388261074b565b9050919050565b60008115159050919050565b600073ffffffffffffffffffffffffffffffffffffffff82169050919050565b6000819050919050565b600061078082610787565b9050919050565b600061079282610799565b9050919050565b60006107a48261074b565b9050919050565b60006107b68261076b565b91507fffffffffffffffffffffffffffffffffffffffffffffffffffffffffffffffff8214156107e9576107e86107f4565b5b600182019050919050565b7f4e487b7100000000000000000000000000000000000000000000000000000000600052601160045260246000fd5b600080fd5b7f48657264206973206e6f742072656769737465642e0000000000000000000000600082015250565b61085a8161073f565b811461086557600080fd5b50565b6108718161076b565b811461087c57600080fd5b5056fea2646970667358221220817f694fbca6c7c011d9cb6af7f639703bb40b65f938cd4c08f443b44065b3db64736f6c63430008070033",
  "immutableReferences": {},
  "source": "// SPDX-License-Identifier: UNLICENSED\npragma solidity ^0.8.0;\n\nimport \"./HerdRegistry.sol\";\n\n/**\n * Emission is by default CH4 \n */\ncontract EmissionTracking {\n    HerdRegistry public herdregistry;\n\n    struct EmissionRecord {\n        uint256 herdID;\n        uint256 amount;\n        bool ccminted;\n        address farmer;\n        uint time;\n        uint blocktime;\n    }\n    \n    mapping(uint256 => EmissionRecord) public emissions;\n    uint256 emissionCount;\n\n    constructor(HerdRegistry _herdregistry)\n    {\n        herdregistry = _herdregistry;\n    }\n\n    function logEmission(uint256 _herdID, uint256 _amount, uint _time) public \n    {\n        require(herdregistry.herdExists(_herdID), \"Herd is not registed.\");\n        \n        emissionCount++;\n        emissions[emissionCount].herdID = _herdID;\n        emissions[emissionCount].amount = _amount;\n        emissions[emissionCount].ccminted = false;\n        emissions[emissionCount].farmer = msg.sender;\n        emissions[emissionCount].time = _time;\n        emissions[emissionCount].blocktime = block.timestamp;\n    }\n\n    function viewEmission(uint256 _emissionID)\n        public\n        view \n        returns(\n            uint256,\n            uint256,\n            bool,\n            address,\n            uint        ) {\n            return(\n                emissions[_emissionID].herdID,\n                emissions[_emissionID].amount,\n                emissions[_emissionID].ccminted,\n                emissions[_emissionID].farmer,\n                emissions[_emissionID].time\n            );\n        }\n\n    function verifyEmission(uint256 _emissionID) public view returns (bool)\n    {\n        if (emissions[_emissionID].time < emissions[_emissionID].blocktime) {\n            return(true);\n        } else {\n            return(false);\n        }\n    }\n}",
  "sourcePath": "/Users/yininghu/Documents/work/Beston/Blockchain-Server/contracts/carbon/EmissionTracking.sol",
  "compiler": {
    "name": "solc",
    "version": "0.8.7+commit.e28d00a7.Emscripten.clang"
  },
  "schemaVersion": "3.4.1",
  "updatedAt": "2022-09-20T03:37:13.917Z",
  "devdoc": {
    "kind": "dev",
    "methods": {},
    "version": 1
  },
  "userdoc": {
    "kind": "user",
    "methods": {},
    "notice": "Emission is by default CH4 ",
    "version": 1
  }
}