{
  "contractName": "EmissionTracking",
  "abi": [
    {
      "inputs": [
        {
          "internalType": "contract AnimalRegistry",
          "name": "_animalregistry",
          "type": "address"
        },
        {
          "internalType": "contract FeedTracking",
          "name": "_feedtracking",
          "type": "address"
        }
      ],
      "stateMutability": "nonpayable",
      "type": "constructor"
    },
    {
      "inputs": [],
      "name": "animalregistry",
      "outputs": [
        {
          "internalType": "contract AnimalRegistry",
          "name": "",
          "type": "address"
        }
      ],
      "stateMutability": "view",
      "type": "function"
    },
    {
      "inputs": [
        {
          "internalType": "string",
          "name": "",
          "type": "string"
        }
      ],
      "name": "emissionExists",
      "outputs": [
        {
          "internalType": "bool",
          "name": "",
          "type": "bool"
        }
      ],
      "stateMutability": "view",
      "type": "function"
    },
    {
      "inputs": [
        {
          "internalType": "string",
          "name": "",
          "type": "string"
        }
      ],
      "name": "emissions",
      "outputs": [
        {
          "internalType": "uint16",
          "name": "Value",
          "type": "uint16"
        },
        {
          "internalType": "enum FeedTracking.Ingredient",
          "name": "FeedType",
          "type": "uint8"
        },
        {
          "internalType": "string",
          "name": "AnimalID",
          "type": "string"
        },
        {
          "internalType": "uint256",
          "name": "DateTime",
          "type": "uint256"
        },
        {
          "internalType": "uint256",
          "name": "BlockTime",
          "type": "uint256"
        }
      ],
      "stateMutability": "view",
      "type": "function"
    },
    {
      "inputs": [],
      "name": "feedtracking",
      "outputs": [
        {
          "internalType": "contract FeedTracking",
          "name": "",
          "type": "address"
        }
      ],
      "stateMutability": "view",
      "type": "function"
    },
    {
      "inputs": [
        {
          "internalType": "string",
          "name": "_emissionid",
          "type": "string"
        },
        {
          "internalType": "uint16",
          "name": "_value",
          "type": "uint16"
        },
        {
          "internalType": "uint8",
          "name": "_feedtype",
          "type": "uint8"
        },
        {
          "internalType": "string",
          "name": "_animalid",
          "type": "string"
        },
        {
          "internalType": "uint256",
          "name": "_datetime",
          "type": "uint256"
        }
      ],
      "name": "logEmission",
      "outputs": [],
      "stateMutability": "nonpayable",
      "type": "function"
    },
    {
      "inputs": [
        {
          "internalType": "string",
          "name": "_emissionid",
          "type": "string"
        }
      ],
      "name": "queryEmission",
      "outputs": [
        {
          "internalType": "string",
          "name": "",
          "type": "string"
        },
        {
          "internalType": "uint16",
          "name": "",
          "type": "uint16"
        },
        {
          "internalType": "string",
          "name": "",
          "type": "string"
        },
        {
          "internalType": "uint256",
          "name": "",
          "type": "uint256"
        },
        {
          "internalType": "uint256",
          "name": "",
          "type": "uint256"
        }
      ],
      "stateMutability": "view",
      "type": "function"
    },
    {
      "inputs": [
        {
          "internalType": "string",
          "name": "_emissionid",
          "type": "string"
        }
      ],
      "name": "verifyEmissionTime",
      "outputs": [
        {
          "internalType": "bool",
          "name": "",
          "type": "bool"
        }
      ],
      "stateMutability": "view",
      "type": "function"
    },
    {
      "inputs": [
        {
          "internalType": "string[]",
          "name": "_control",
          "type": "string[]"
        },
        {
          "internalType": "string[]",
          "name": "_test",
          "type": "string[]"
        }
      ],
      "name": "verifyEmissionValue",
      "outputs": [
        {
          "internalType": "bool",
          "name": "",
          "type": "bool"
        }
      ],
      "stateMutability": "nonpayable",
      "type": "function"
    }
  ],
  "bytecode": "0x60806040523480156200001157600080fd5b5060405162001a5138038062001a518339818101604052810190620000379190620000ee565b816000806101000a81548173ffffffffffffffffffffffffffffffffffffffff021916908373ffffffffffffffffffffffffffffffffffffffff16021790555080600160006101000a81548173ffffffffffffffffffffffffffffffffffffffff021916908373ffffffffffffffffffffffffffffffffffffffff1602179055505050620001ca565b600081519050620000d18162000196565b92915050565b600081519050620000e881620001b0565b92915050565b6000806040838503121562000108576200010762000191565b5b60006200011885828601620000c0565b92505060206200012b85828601620000d7565b9150509250929050565b6000620001428262000171565b9050919050565b6000620001568262000135565b9050919050565b60006200016a8262000135565b9050919050565b600073ffffffffffffffffffffffffffffffffffffffff82169050919050565b600080fd5b620001a18162000149565b8114620001ad57600080fd5b50565b620001bb816200015d565b8114620001c757600080fd5b50565b61187780620001da6000396000f3fe608060405234801561001057600080fd5b50600436106100885760003560e01c8063900616281161005b57806390061628146101435780639c699d0a14610161578063c3eb4ba41461017d578063f062a434146101ad57610088565b8063120f894e1461008d578063515f2428146100c15780636a7fb0f5146100df57806372a5b30e1461010f575b600080fd5b6100a760048036038101906100a29190610f2e565b6101dd565b6040516100b8959493929190611204565b60405180910390f35b6100c961058b565b6040516100d691906111ac565b60405180910390f35b6100f960048036038101906100f49190610e89565b6105af565b6040516101069190611191565b60405180910390f35b61012960048036038101906101249190610f2e565b6107e7565b60405161013a9594939291906112e5565b60405180910390f35b61014b6108d6565b60405161015891906111c7565b60405180910390f35b61017b60048036038101906101769190610f77565b6108fc565b005b61019760048036038101906101929190610f2e565b610b66565b6040516101a49190611191565b60405180910390f35b6101c760048036038101906101c29190610f2e565b610b9c565b6040516101d49190611191565b60405180910390f35b6060600060606000806003866040516101f6919061117a565b908152602001604051809103902060009054906101000a900460ff16610251576040517f08c379a000000000000000000000000000000000000000000000000000000000815260040161024890611285565b60405180910390fd5b606060006002811115610267576102666115fb565b5b600288604051610277919061117a565b908152602001604051809103902060000160029054906101000a900460ff1660028111156102a8576102a76115fb565b5b14156102eb576040518060400160405280600781526020017f526567756c6172000000000000000000000000000000000000000000000000008152509050610455565b600160028111156102ff576102fe6115fb565b5b60028860405161030f919061117a565b908152602001604051809103902060000160029054906101000a900460ff1660028111156103405761033f6115fb565b5b1415610383576040518060400160405280600c81526020017f417370617261676f7073697300000000000000000000000000000000000000008152509050610454565b600280811115610396576103956115fb565b5b6002886040516103a6919061117a565b908152602001604051809103902060000160029054906101000a900460ff1660028111156103d7576103d66115fb565b5b141561041a576040518060400160405280600881526020017f506f6c796761696e0000000000000000000000000000000000000000000000008152509050610453565b6040518060400160405280600781526020017f556e6b6e6f776e0000000000000000000000000000000000000000000000000081525090505b5b5b600287604051610465919061117a565b9081526020016040518091039020600101600288604051610486919061117a565b908152602001604051809103902060000160009054906101000a900461ffff168260028a6040516104b7919061117a565b90815260200160405180910390206002015460028b6040516104d9919061117a565b9081526020016040518091039020600301548480546104f790611520565b80601f016020809104026020016040519081016040528092919081815260200182805461052390611520565b80156105705780601f1061054557610100808354040283529160200191610570565b820191906000526020600020905b81548152906001019060200180831161055357829003601f168201915b50505050509450955095509550955095505091939590929450565b60008054906101000a900473ffffffffffffffffffffffffffffffffffffffff1681565b600081518351146105f5576040517f08c379a00000000000000000000000000000000000000000000000000000000081526004016105ec906112c5565b60405180910390fd5b60008060005b85518110156106e457600386828151811061061957610618611659565b5b602002602001015160405161062e919061117a565b908152602001604051809103902060009054906101000a900460ff16610689576040517f08c379a000000000000000000000000000000000000000000000000000000000815260040161068090611285565b60405180910390fd5b60008060008060006106b48b87815181106106a7576106a6611659565b5b60200260200101516101dd565b9450945094509450945083886106ca91906113e8565b9750505050505080806106dc90611583565b9150506105fb565b5060005b84518110156107d157600385828151811061070657610705611659565b5b602002602001015160405161071b919061117a565b908152602001604051809103902060009054906101000a900460ff16610776576040517f08c379a000000000000000000000000000000000000000000000000000000000815260040161076d90611285565b60405180910390fd5b60008060008060006107a18a878151811061079457610793611659565b5b60200260200101516101dd565b9450945094509450945083876107b791906113e8565b9650505050505080806107c990611583565b9150506106e8565b508061ffff168261ffff16119250505092915050565b6002818051602081018201805184825260208301602085012081835280955050505050506000915090508060000160009054906101000a900461ffff16908060000160029054906101000a900460ff169080600101805461084790611520565b80601f016020809104026020016040519081016040528092919081815260200182805461087390611520565b80156108c05780601f10610895576101008083540402835291602001916108c0565b820191906000526020600020905b8154815290600101906020018083116108a357829003601f168201915b5050505050908060020154908060030154905085565b600160009054906101000a900473ffffffffffffffffffffffffffffffffffffffff1681565b60038560405161090c919061117a565b908152602001604051809103902060009054906101000a900460ff1615610968576040517f08c379a000000000000000000000000000000000000000000000000000000000815260040161095f906112a5565b60405180910390fd5b60008054906101000a900473ffffffffffffffffffffffffffffffffffffffff1673ffffffffffffffffffffffffffffffffffffffff16632c80a7f5836040518263ffffffff1660e01b81526004016109c191906111e2565b60206040518083038186803b1580156109d957600080fd5b505afa1580156109ed573d6000803e3d6000fd5b505050506040513d601f19601f82011682018060405250810190610a119190610f01565b610a50576040517f08c379a0000000000000000000000000000000000000000000000000000000008152600401610a4790611265565b60405180910390fd5b60046000815480929190610a6390611583565b91905055506040518060a001604052808561ffff1681526020018460ff166002811115610a9357610a926115fb565b5b6002811115610aa557610aa46115fb565b5b815260200183815260200182815260200142815250600286604051610aca919061117a565b908152602001604051809103902060008201518160000160006101000a81548161ffff021916908361ffff16021790555060208201518160000160026101000a81548160ff02191690836002811115610b2657610b256115fb565b5b02179055506040820151816001019080519060200190610b47929190610c66565b5060608201518160020155608082015181600301559050505050505050565b6003818051602081018201805184825260208301602085012081835280955050505050506000915054906101000a900460ff1681565b6000600382604051610bae919061117a565b908152602001604051809103902060009054906101000a900460ff16610c09576040517f08c379a0000000000000000000000000000000000000000000000000000000008152600401610c0090611285565b60405180910390fd5b600282604051610c19919061117a565b908152602001604051809103902060030154600283604051610c3b919061117a565b9081526020016040518091039020600201541015610c5c5760019050610c61565b600090505b919050565b828054610c7290611520565b90600052602060002090601f016020900481019282610c945760008555610cdb565b82601f10610cad57805160ff1916838001178555610cdb565b82800160010185558215610cdb579182015b82811115610cda578251825591602001919060010190610cbf565b5b509050610ce89190610cec565b5090565b5b80821115610d05576000816000905550600101610ced565b5090565b6000610d1c610d1784611364565b61133f565b90508083825260208201905082856020860282011115610d3f57610d3e6116bc565b5b60005b85811015610d8d57813567ffffffffffffffff811115610d6557610d646116b7565b5b808601610d728982610e1c565b85526020850194506020840193505050600181019050610d42565b5050509392505050565b6000610daa610da584611390565b61133f565b905082815260208101848484011115610dc657610dc56116c1565b5b610dd18482856114de565b509392505050565b600082601f830112610dee57610ded6116b7565b5b8135610dfe848260208601610d09565b91505092915050565b600081519050610e16816117e5565b92915050565b600082601f830112610e3157610e306116b7565b5b8135610e41848260208601610d97565b91505092915050565b600081359050610e59816117fc565b92915050565b600081359050610e6e81611813565b92915050565b600081359050610e838161182a565b92915050565b60008060408385031215610ea057610e9f6116cb565b5b600083013567ffffffffffffffff811115610ebe57610ebd6116c6565b5b610eca85828601610dd9565b925050602083013567ffffffffffffffff811115610eeb57610eea6116c6565b5b610ef785828601610dd9565b9150509250929050565b600060208284031215610f1757610f166116cb565b5b6000610f2584828501610e07565b91505092915050565b600060208284031215610f4457610f436116cb565b5b600082013567ffffffffffffffff811115610f6257610f616116c6565b5b610f6e84828501610e1c565b91505092915050565b600080600080600060a08688031215610f9357610f926116cb565b5b600086013567ffffffffffffffff811115610fb157610fb06116c6565b5b610fbd88828901610e1c565b9550506020610fce88828901610e4a565b9450506040610fdf88828901610e74565b935050606086013567ffffffffffffffff81111561100057610fff6116c6565b5b61100c88828901610e1c565b925050608061101d88828901610e5f565b9150509295509295909350565b61103381611420565b82525050565b61104281611484565b82525050565b61105181611496565b82525050565b611060816114a8565b82525050565b6000611071826113c1565b61107b81856113cc565b935061108b8185602086016114ed565b611094816116d0565b840191505092915050565b60006110aa826113c1565b6110b481856113dd565b93506110c48185602086016114ed565b80840191505092915050565b60006110dd6017836113cc565b91506110e8826116e1565b602082019050919050565b6000611100601b836113cc565b915061110b8261170a565b602082019050919050565b60006111236013836113cc565b915061112e82611733565b602082019050919050565b60006111466057836113cc565b91506111518261175c565b606082019050919050565b6111658161143f565b82525050565b6111748161146d565b82525050565b6000611186828461109f565b915081905092915050565b60006020820190506111a6600083018461102a565b92915050565b60006020820190506111c16000830184611039565b92915050565b60006020820190506111dc6000830184611048565b92915050565b600060208201905081810360008301526111fc8184611066565b905092915050565b600060a082019050818103600083015261121e8188611066565b905061122d602083018761115c565b818103604083015261123f8186611066565b905061124e606083018561116b565b61125b608083018461116b565b9695505050505050565b6000602082019050818103600083015261127e816110d0565b9050919050565b6000602082019050818103600083015261129e816110f3565b9050919050565b600060208201905081810360008301526112be81611116565b9050919050565b600060208201905081810360008301526112de81611139565b9050919050565b600060a0820190506112fa600083018861115c565b6113076020830187611057565b81810360408301526113198186611066565b9050611328606083018561116b565b611335608083018461116b565b9695505050505050565b600061134961135a565b90506113558282611552565b919050565b6000604051905090565b600067ffffffffffffffff82111561137f5761137e611688565b5b602082029050602081019050919050565b600067ffffffffffffffff8211156113ab576113aa611688565b5b6113b4826116d0565b9050602081019050919050565b600081519050919050565b600082825260208201905092915050565b600081905092915050565b60006113f38261143f565b91506113fe8361143f565b92508261ffff03821115611415576114146115cc565b5b828201905092915050565b60008115159050919050565b600081905061143a826117d1565b919050565b600061ffff82169050919050565b600073ffffffffffffffffffffffffffffffffffffffff82169050919050565b6000819050919050565b600060ff82169050919050565b600061148f826114ba565b9050919050565b60006114a1826114ba565b9050919050565b60006114b38261142c565b9050919050565b60006114c5826114cc565b9050919050565b60006114d78261144d565b9050919050565b82818337600083830152505050565b60005b8381101561150b5780820151818401526020810190506114f0565b8381111561151a576000848401525b50505050565b6000600282049050600182168061153857607f821691505b6020821081141561154c5761154b61162a565b5b50919050565b61155b826116d0565b810181811067ffffffffffffffff8211171561157a57611579611688565b5b80604052505050565b600061158e8261146d565b91507fffffffffffffffffffffffffffffffffffffffffffffffffffffffffffffffff8214156115c1576115c06115cc565b5b600182019050919050565b7f4e487b7100000000000000000000000000000000000000000000000000000000600052601160045260246000fd5b7f4e487b7100000000000000000000000000000000000000000000000000000000600052602160045260246000fd5b7f4e487b7100000000000000000000000000000000000000000000000000000000600052602260045260246000fd5b7f4e487b7100000000000000000000000000000000000000000000000000000000600052603260045260246000fd5b7f4e487b7100000000000000000000000000000000000000000000000000000000600052604160045260246000fd5b600080fd5b600080fd5b600080fd5b600080fd5b600080fd5b6000601f19601f8301169050919050565b7f416e696d616c206973206e6f742072656769737465642e000000000000000000600082015250565b7f456d697373696f6e20494420646f6573206e6f742065786973742e0000000000600082015250565b7f456d697373696f6e204944206578697374732e00000000000000000000000000600082015250565b7f506c6561736520737570706c792073616d65206e756d626572206f6620656d6960008201527f7373696f6e207265636f72647320666f722074686520636f6e74726f6c20677260208201527f6f757020616e642074686520746573742067726f75702e000000000000000000604082015250565b600381106117e2576117e16115fb565b5b50565b6117ee81611420565b81146117f957600080fd5b50565b6118058161143f565b811461181057600080fd5b50565b61181c8161146d565b811461182757600080fd5b50565b61183381611477565b811461183e57600080fd5b5056fea264697066735822122097cdac41d58baf6d882279ab03fea4640837506c4b3f29d182e6dbb176d3ce9964736f6c63430008070033",
  "immutableReferences": {},
  "source": "// SPDX-License-Identifier: MIT\npragma solidity ^0.8.0;\n\nimport \"./AnimalRegistry.sol\";\nimport \"./FeedTracking.sol\";\n\ncontract EmissionTracking {\n    AnimalRegistry public animalregistry;\n    FeedTracking public feedtracking;\n\n    struct EmissionRecord {\n        uint16 Value;\n        FeedTracking.Ingredient FeedType;\n        string AnimalID;\n        uint256 DateTime; // unix time\n        uint256 BlockTime;\n    }\n    \n    mapping(string => EmissionRecord) public emissions;\n    mapping(string => bool) public emissionExists;\n    uint256 emissionCount;\n\n    constructor(AnimalRegistry _animalregistry, FeedTracking _feedtracking)\n    {\n        animalregistry = _animalregistry;\n        feedtracking = _feedtracking;\n    }\n\n    // Note: oziris should receive data as often as needed; blockchain will only receive data once/twice a day\n    function logEmission(string memory _emissionid, uint16 _value, uint8 _feedtype, string memory _animalid, uint256 _datetime) public \n    {\n        require(!emissionExists[_emissionid], \"Emission ID exists.\");\n        require(animalregistry.animalExists(_animalid), \"Animal is not registed.\");\n        \n        emissionCount++;\n        emissions[_emissionid] = EmissionRecord(_value, FeedTracking.Ingredient(_feedtype), _animalid, _datetime, block.timestamp);\n    }\n\n    function queryEmission(string memory _emissionid)\n        public\n        view \n        returns(\n            string memory,\n            uint16,\n            string memory,\n            uint256,\n            uint256) \n        {\n            require(emissionExists[_emissionid], \"Emission ID does not exist.\");\n            string memory ingredient;\n\n            if (emissions[_emissionid].FeedType == FeedTracking.Ingredient.REGULAR) {\n                ingredient = \"Regular\";\n            } else if (emissions[_emissionid].FeedType == FeedTracking.Ingredient.ASPARAGOPSIS) {\n                ingredient = \"Asparagopsis\";\n            } else if (emissions[_emissionid].FeedType == FeedTracking.Ingredient.POLYGAIN) {\n                ingredient = \"Polygain\";\n            } else {\n                ingredient = \"Unknown\";\n            }\n\n            return(\n                emissions[_emissionid].AnimalID,\n                emissions[_emissionid].Value,\n                ingredient,\n                emissions[_emissionid].DateTime,\n                emissions[_emissionid].BlockTime\n            );\n        }\n\n    function verifyEmissionTime(string memory _emissionid) public view returns (bool)\n    {\n        require(emissionExists[_emissionid], \"Emission ID does not exist.\");\n        if (emissions[_emissionid].DateTime < emissions[_emissionid].BlockTime) {\n            return(true);\n        } else {\n            return(false);\n        }\n    }\n\n    // Note: on the front end, for a record of issued Carbon Tokens, we first take the start and end date, then for each date we find the emission record\n    // total emission has to be lower for the test group and higher for the controlled group\n    // arg _control is an array of emission ids in the control group\n    // arg _test is an array of emission ids in the test group\n    function verifyEmissionValue(string[] memory _control, string[] memory _test) public returns(bool) {\n        require(_control.length == _test.length, \"Please supply same number of emission records for the control group and the test group.\");\n        uint16 controltotal = 0;\n        uint16 testtotal = 0;\n\n        for(uint256 i = 0; i <_control.length; i++){\n            require(emissionExists[_control[i]], \"Emission ID does not exist.\");\n            (string memory animalid,uint16 value,string memory ingredient,uint256 datetime,uint256 blocktime)=queryEmission(_control[i]);\n            controltotal = controltotal + value;\n        }\n\n        for(uint256 i = 0; i <_test.length; i++){\n            require(emissionExists[_test[i]], \"Emission ID does not exist.\");\n            (string memory animalid,uint16 value,string memory ingredient,uint256 datetime,uint256 blocktime)=queryEmission(_test[i]);\n            testtotal = testtotal + value;\n        }\n\n        return(controltotal > testtotal);\n    }\n}",
  "sourcePath": "/home/yih/Documents/dev/beston-dapps/contracts/carbon/EmissionTracking.sol",
  "compiler": {
    "name": "solc",
    "version": "0.8.7+commit.e28d00a7.Emscripten.clang"
  },
  "schemaVersion": "3.4.1",
  "updatedAt": "2023-02-01T03:16:02.115Z",
  "networkType": "ethereum",
  "devdoc": {
    "kind": "dev",
    "methods": {},
    "version": 1
  },
  "userdoc": {
    "kind": "user",
    "methods": {},
    "version": 1
  }
}