{
  "contractName": "Escrow",
  "abi": [
    {
      "inputs": [
        {
          "internalType": "contract DigitalTwin",
          "name": "_digitaltwin",
          "type": "address"
        }
      ],
      "stateMutability": "nonpayable",
      "type": "constructor"
    },
    {
      "anonymous": false,
      "inputs": [
        {
          "indexed": false,
          "internalType": "string",
          "name": "tkname",
          "type": "string"
        },
        {
          "indexed": false,
          "internalType": "uint256",
          "name": "price",
          "type": "uint256"
        }
      ],
      "name": "DepositTaken",
      "type": "event"
    },
    {
      "inputs": [],
      "name": "btk",
      "outputs": [
        {
          "internalType": "contract BToken",
          "name": "",
          "type": "address"
        }
      ],
      "stateMutability": "view",
      "type": "function",
      "constant": true
    },
    {
      "inputs": [],
      "name": "digitaltwin",
      "outputs": [
        {
          "internalType": "contract DigitalTwin",
          "name": "",
          "type": "address"
        }
      ],
      "stateMutability": "view",
      "type": "function",
      "constant": true
    },
    {
      "inputs": [],
      "name": "fee_btk",
      "outputs": [
        {
          "internalType": "uint256",
          "name": "",
          "type": "uint256"
        }
      ],
      "stateMutability": "view",
      "type": "function",
      "constant": true
    },
    {
      "inputs": [
        {
          "internalType": "string",
          "name": "",
          "type": "string"
        }
      ],
      "name": "productExists",
      "outputs": [
        {
          "internalType": "bool",
          "name": "",
          "type": "bool"
        }
      ],
      "stateMutability": "view",
      "type": "function",
      "constant": true
    },
    {
      "inputs": [
        {
          "internalType": "string",
          "name": "",
          "type": "string"
        }
      ],
      "name": "stock",
      "outputs": [
        {
          "internalType": "uint256",
          "name": "price",
          "type": "uint256"
        },
        {
          "internalType": "address",
          "name": "buyer",
          "type": "address"
        },
        {
          "internalType": "address",
          "name": "seller",
          "type": "address"
        },
        {
          "internalType": "enum Escrow.EscrowState",
          "name": "state",
          "type": "uint8"
        },
        {
          "internalType": "uint256",
          "name": "timeout",
          "type": "uint256"
        }
      ],
      "stateMutability": "view",
      "type": "function",
      "constant": true
    },
    {
      "inputs": [
        {
          "internalType": "string",
          "name": "_tkname",
          "type": "string"
        },
        {
          "internalType": "uint256",
          "name": "_price",
          "type": "uint256"
        }
      ],
      "name": "offer",
      "outputs": [],
      "stateMutability": "nonpayable",
      "type": "function"
    },
    {
      "inputs": [
        {
          "internalType": "address",
          "name": "_to",
          "type": "address"
        }
      ],
      "name": "buyBTK",
      "outputs": [],
      "stateMutability": "payable",
      "type": "function",
      "payable": true
    },
    {
      "inputs": [
        {
          "internalType": "uint256",
          "name": "amount",
          "type": "uint256"
        }
      ],
      "name": "sellBTK",
      "outputs": [],
      "stateMutability": "nonpayable",
      "type": "function"
    },
    {
      "inputs": [
        {
          "internalType": "string",
          "name": "_tkname",
          "type": "string"
        },
        {
          "internalType": "uint256",
          "name": "_deposit",
          "type": "uint256"
        }
      ],
      "name": "BuyerDepositWithBTK",
      "outputs": [],
      "stateMutability": "nonpayable",
      "type": "function"
    },
    {
      "inputs": [
        {
          "internalType": "string",
          "name": "_tkname",
          "type": "string"
        }
      ],
      "name": "AgentApproveWithBTK",
      "outputs": [],
      "stateMutability": "nonpayable",
      "type": "function"
    },
    {
      "inputs": [
        {
          "internalType": "string",
          "name": "_tkname",
          "type": "string"
        }
      ],
      "name": "AgentDenyWithBTK",
      "outputs": [],
      "stateMutability": "nonpayable",
      "type": "function"
    },
    {
      "inputs": [
        {
          "internalType": "string",
          "name": "_tkname",
          "type": "string"
        }
      ],
      "name": "VerifyPackaging",
      "outputs": [
        {
          "internalType": "bool",
          "name": "",
          "type": "bool"
        }
      ],
      "stateMutability": "view",
      "type": "function",
      "constant": true
    },
    {
      "inputs": [
        {
          "internalType": "string",
          "name": "_tkname",
          "type": "string"
        }
      ],
      "name": "VerifyProduct",
      "outputs": [
        {
          "internalType": "bool",
          "name": "",
          "type": "bool"
        }
      ],
      "stateMutability": "view",
      "type": "function",
      "constant": true
    },
    {
      "inputs": [
        {
          "internalType": "string",
          "name": "_tkname",
          "type": "string"
        }
      ],
      "name": "QueryProduct",
      "outputs": [
        {
          "internalType": "uint256",
          "name": "",
          "type": "uint256"
        },
        {
          "internalType": "string",
          "name": "",
          "type": "string"
        },
        {
          "internalType": "address",
          "name": "",
          "type": "address"
        },
        {
          "internalType": "address",
          "name": "",
          "type": "address"
        }
      ],
      "stateMutability": "view",
      "type": "function",
      "constant": true
    },
    {
      "inputs": [],
      "name": "QueryAllProducts",
      "outputs": [
        {
          "internalType": "string[]",
          "name": "",
          "type": "string[]"
        },
        {
          "internalType": "uint256[]",
          "name": "",
          "type": "uint256[]"
        },
        {
          "internalType": "string[]",
          "name": "",
          "type": "string[]"
        },
        {
          "internalType": "address[]",
          "name": "",
          "type": "address[]"
        },
        {
          "internalType": "address[]",
          "name": "",
          "type": "address[]"
        }
      ],
      "stateMutability": "view",
      "type": "function",
      "constant": true
    }
  ],
  "bytecode": "0x60806040523480156200001157600080fd5b50604051620060eb380380620060eb833981810160405281019062000037919062000170565b80600360006101000a81548173ffffffffffffffffffffffffffffffffffffffff021916908373ffffffffffffffffffffffffffffffffffffffff160217905550620f42406040516200008a906200014b565b620000969190620001da565b604051809103906000f080158015620000b3573d6000803e3d6000fd5b50600460006101000a81548173ffffffffffffffffffffffffffffffffffffffff021916908373ffffffffffffffffffffffffffffffffffffffff160217905550336000806101000a81548173ffffffffffffffffffffffffffffffffffffffff021916908373ffffffffffffffffffffffffffffffffffffffff1602179055506001808190555061012c60028190555050620002e0565b611a2380620046c883390190565b6000815190506200016a81620002c6565b92915050565b60006020828403121562000189576200018862000298565b5b6000620001998482850162000159565b91505092915050565b620001ad8162000284565b82525050565b6000620001c260028362000221565b9150620001cf826200029d565b602082019050919050565b60006060820190508181036000830152620001f581620001b3565b905081810360208301526200020a81620001b3565b90506200021b6040830184620001a2565b92915050565b600082825260208201905092915050565b60006200023f826200025a565b9050919050565b6000620002538262000232565b9050919050565b600073ffffffffffffffffffffffffffffffffffffffff82169050919050565b6000819050919050565b600062000291826200027a565b9050919050565b600080fd5b7f4254000000000000000000000000000000000000000000000000000000000000600082015250565b620002d18162000246565b8114620002dd57600080fd5b50565b6143d880620002f06000396000f3fe6080604052600436106100e85760003560e01c8063a00cbd5b1161008a578063eef0613811610059578063eef06138146102ec578063f2922cf414610315578063f8c3540b14610340578063fd9908e31461037d576100e8565b8063a00cbd5b1461021d578063bc9d30c71461025d578063c4e0827a14610286578063cc763608146102af576100e8565b806378356db6116100c657806378356db6146101705780637a76f2e21461018c57806386dc434b146101b55780638addc051146101e0576100e8565b80630a7182e5146100ed5780632ca9f4bd146101165780636056f11914610141575b600080fd5b3480156100f957600080fd5b50610114600480360381019061010f9190612db0565b6103be565b005b34801561012257600080fd5b5061012b610832565b60405161013891906136b3565b60405180910390f35b34801561014d57600080fd5b50610156610858565b604051610167959493929190613622565b60405180910390f35b61018a60048036038101906101859190612d56565b611010565b005b34801561019857600080fd5b506101b360048036038101906101ae9190612db0565b6111ff565b005b3480156101c157600080fd5b506101ca611673565b6040516101d791906136ce565b60405180910390f35b3480156101ec57600080fd5b5061020760048036038101906102029190612db0565b611699565b6040516102149190613698565b60405180910390f35b34801561022957600080fd5b50610244600480360381019061023f9190612db0565b6116cf565b60405161025494939291906139f9565b60405180910390f35b34801561026957600080fd5b50610284600480360381019061027f9190612df9565b611a97565b005b34801561029257600080fd5b506102ad60048036038101906102a89190612e55565b611fb8565b005b3480156102bb57600080fd5b506102d660048036038101906102d19190612db0565b6121ec565b6040516102e39190613698565b60405180910390f35b3480156102f857600080fd5b50610313600480360381019061030e9190612df9565b61238c565b005b34801561032157600080fd5b5061032a6128be565b604051610337919061398b565b60405180910390f35b34801561034c57600080fd5b5061036760048036038101906103629190612db0565b6128c4565b6040516103749190613698565b60405180910390f35b34801561038957600080fd5b506103a4600480360381019061039f9190612db0565b612a64565b6040516103b59594939291906139a6565b60405180910390f35b6006816040516103ce9190613526565b908152602001604051809103902060020160009054906101000a900473ffffffffffffffffffffffffffffffffffffffff16600073ffffffffffffffffffffffffffffffffffffffff168173ffffffffffffffffffffffffffffffffffffffff161415610470576040517f08c379a00000000000000000000000000000000000000000000000000000000081526004016104679061386b565b60405180910390fd5b3073ffffffffffffffffffffffffffffffffffffffff168173ffffffffffffffffffffffffffffffffffffffff1614156104df576040517f08c379a00000000000000000000000000000000000000000000000000000000081526004016104d69061394b565b60405180910390fd5b816007816040516104f09190613526565b908152602001604051809103902060009054906101000a900460ff1661054b576040517f08c379a0000000000000000000000000000000000000000000000000000000008152600401610542906137ab565b60405180910390fd5b60008054906101000a900473ffffffffffffffffffffffffffffffffffffffff1673ffffffffffffffffffffffffffffffffffffffff163373ffffffffffffffffffffffffffffffffffffffff16146105d9576040517f08c379a00000000000000000000000000000000000000000000000000000000081526004016105d0906138ab565b60405180910390fd5b600160038111156105ed576105ec613dbb565b5b6006846040516105fd9190613526565b908152602001604051809103902060020160149054906101000a900460ff16600381111561062e5761062d613dbb565b5b1461066e576040517f08c379a00000000000000000000000000000000000000000000000000000000081526004016106659061378b565b60405180910390fd5b60068360405161067e9190613526565b90815260200160405180910390206003015442106106d1576040517f08c379a00000000000000000000000000000000000000000000000000000000081526004016106c8906137eb565b60405180910390fd5b600460009054906101000a900473ffffffffffffffffffffffffffffffffffffffff1673ffffffffffffffffffffffffffffffffffffffff1663a9059cbb60068560405161071f9190613526565b908152602001604051809103902060020160009054906101000a900473ffffffffffffffffffffffffffffffffffffffff166006866040516107619190613526565b9081526020016040518091039020600001546040518363ffffffff1660e01b81526004016107909291906135f9565b602060405180830381600087803b1580156107aa57600080fd5b505af11580156107be573d6000803e3d6000fd5b505050506040513d601f19601f820116820180604052508101906107e29190612d83565b5060026006846040516107f59190613526565b908152602001604051809103902060020160146101000a81548160ff0219169083600381111561082857610827613dbb565b5b0217905550505050565b600460009054906101000a900473ffffffffffffffffffffffffffffffffffffffff1681565b6060806060806060600060058054905067ffffffffffffffff81111561088157610880613e48565b5b6040519080825280602002602001820160405280156108af5781602001602082028036833780820191505090505b509050600060058054905067ffffffffffffffff8111156108d3576108d2613e48565b5b60405190808252806020026020018201604052801561090657816020015b60608152602001906001900390816108f15790505b509050600060058054905067ffffffffffffffff81111561092a57610929613e48565b5b6040519080825280602002602001820160405280156109585781602001602082028036833780820191505090505b509050600060058054905067ffffffffffffffff81111561097c5761097b613e48565b5b6040519080825280602002602001820160405280156109aa5781602001602082028036833780820191505090505b50905060005b600580549050811015610f21576006600582815481106109d3576109d2613e19565b5b906000526020600020016040516109ea919061353d565b908152602001604051809103902060000154858281518110610a0f57610a0e613e19565b5b60200260200101818152505060006003811115610a2f57610a2e613dbb565b5b600660058381548110610a4557610a44613e19565b5b90600052602060002001604051610a5c919061353d565b908152602001604051809103902060020160149054906101000a900460ff166003811115610a8d57610a8c613dbb565b5b1415610aec576040518060400160405280601081526020017f70726f64756374206f6e206f6666657200000000000000000000000000000000815250848281518110610adc57610adb613e19565b5b6020026020010181905250610db6565b60016003811115610b0057610aff613dbb565b5b600660058381548110610b1657610b15613e19565b5b90600052602060002001604051610b2d919061353d565b908152602001604051809103902060020160149054906101000a900460ff166003811115610b5e57610b5d613dbb565b5b1415610bbd576040518060400160405280600d81526020017f6465706f7369742074616b656e00000000000000000000000000000000000000815250848281518110610bad57610bac613e19565b5b6020026020010181905250610db5565b60026003811115610bd157610bd0613dbb565b5b600660058381548110610be757610be6613e19565b5b90600052602060002001604051610bfe919061353d565b908152602001604051809103902060020160149054906101000a900460ff166003811115610c2f57610c2e613dbb565b5b1415610c8e576040518060400160405280601281526020017f7061796d656e74207375636365737366756c0000000000000000000000000000815250848281518110610c7e57610c7d613e19565b5b6020026020010181905250610db4565b600380811115610ca157610ca0613dbb565b5b600660058381548110610cb757610cb6613e19565b5b90600052602060002001604051610cce919061353d565b908152602001604051809103902060020160149054906101000a900460ff166003811115610cff57610cfe613dbb565b5b1415610d5e576040518060400160405280601081526020017f7061796d656e742072657475726e656400000000000000000000000000000000815250848281518110610d4e57610d4d613e19565b5b6020026020010181905250610db3565b6040518060400160405280601481526020017f756e6b6e6f776e20657363726f77207374617465000000000000000000000000815250848281518110610da757610da6613e19565b5b60200260200101819052505b5b5b5b600660058281548110610dcc57610dcb613e19565b5b90600052602060002001604051610de3919061353d565b908152602001604051809103902060020160009054906101000a900473ffffffffffffffffffffffffffffffffffffffff16838281518110610e2857610e27613e19565b5b602002602001019073ffffffffffffffffffffffffffffffffffffffff16908173ffffffffffffffffffffffffffffffffffffffff1681525050600660058281548110610e7857610e77613e19565b5b90600052602060002001604051610e8f919061353d565b908152602001604051809103902060010160009054906101000a900473ffffffffffffffffffffffffffffffffffffffff16828281518110610ed457610ed3613e19565b5b602002602001019073ffffffffffffffffffffffffffffffffffffffff16908173ffffffffffffffffffffffffffffffffffffffff16815250508080610f1990613d43565b9150506109b0565b5060058484848484805480602002602001604051908101604052809291908181526020016000905b82821015610ff5578382906000526020600020018054610f6890613ce0565b80601f0160208091040260200160405190810160405280929190818152602001828054610f9490613ce0565b8015610fe15780601f10610fb657610100808354040283529160200191610fe1565b820191906000526020600020905b815481529060010190602001808311610fc457829003601f168201915b505050505081526020019060010190610f49565b50505050945098509850985098509850505050509091929394565b60003490506000600460009054906101000a900473ffffffffffffffffffffffffffffffffffffffff1673ffffffffffffffffffffffffffffffffffffffff166370a08231306040518263ffffffff1660e01b8152600401611072919061357e565b60206040518083038186803b15801561108a57600080fd5b505afa15801561109e573d6000803e3d6000fd5b505050506040513d601f19601f820116820180604052508101906110c29190612e82565b905060008211611107576040517f08c379a00000000000000000000000000000000000000000000000000000000081526004016110fe9061390b565b60405180910390fd5b8082111561114a576040517f08c379a0000000000000000000000000000000000000000000000000000000008152600401611141906138eb565b60405180910390fd5b600460009054906101000a900473ffffffffffffffffffffffffffffffffffffffff1673ffffffffffffffffffffffffffffffffffffffff1663a9059cbb84846040518363ffffffff1660e01b81526004016111a79291906135f9565b602060405180830381600087803b1580156111c157600080fd5b505af11580156111d5573d6000803e3d6000fd5b505050506040513d601f19601f820116820180604052508101906111f99190612d83565b50505050565b60068160405161120f9190613526565b908152602001604051809103902060010160009054906101000a900473ffffffffffffffffffffffffffffffffffffffff16600073ffffffffffffffffffffffffffffffffffffffff168173ffffffffffffffffffffffffffffffffffffffff1614156112b1576040517f08c379a00000000000000000000000000000000000000000000000000000000081526004016112a89061386b565b60405180910390fd5b3073ffffffffffffffffffffffffffffffffffffffff168173ffffffffffffffffffffffffffffffffffffffff161415611320576040517f08c379a00000000000000000000000000000000000000000000000000000000081526004016113179061394b565b60405180910390fd5b816007816040516113319190613526565b908152602001604051809103902060009054906101000a900460ff1661138c576040517f08c379a0000000000000000000000000000000000000000000000000000000008152600401611383906137ab565b60405180910390fd5b60008054906101000a900473ffffffffffffffffffffffffffffffffffffffff1673ffffffffffffffffffffffffffffffffffffffff163373ffffffffffffffffffffffffffffffffffffffff161461141a576040517f08c379a00000000000000000000000000000000000000000000000000000000081526004016114119061384b565b60405180910390fd5b6001600381111561142e5761142d613dbb565b5b60068460405161143e9190613526565b908152602001604051809103902060020160149054906101000a900460ff16600381111561146f5761146e613dbb565b5b146114af576040517f08c379a00000000000000000000000000000000000000000000000000000000081526004016114a69061378b565b60405180910390fd5b6006836040516114bf9190613526565b9081526020016040518091039020600301544211611512576040517f08c379a00000000000000000000000000000000000000000000000000000000081526004016115099061376b565b60405180910390fd5b600460009054906101000a900473ffffffffffffffffffffffffffffffffffffffff1673ffffffffffffffffffffffffffffffffffffffff1663a9059cbb6006856040516115609190613526565b908152602001604051809103902060010160009054906101000a900473ffffffffffffffffffffffffffffffffffffffff166006866040516115a29190613526565b9081526020016040518091039020600001546040518363ffffffff1660e01b81526004016115d19291906135f9565b602060405180830381600087803b1580156115eb57600080fd5b505af11580156115ff573d6000803e3d6000fd5b505050506040513d601f19601f820116820180604052508101906116239190612d83565b5060036006846040516116369190613526565b908152602001604051809103902060020160146101000a81548160ff0219169083600381111561166957611668613dbb565b5b0217905550505050565b600360009054906101000a900473ffffffffffffffffffffffffffffffffffffffff1681565b6007818051602081018201805184825260208301602085012081835280955050505050506000915054906101000a900460ff1681565b60006060600080846007816040516116e79190613526565b908152602001604051809103902060009054906101000a900460ff16611742576040517f08c379a0000000000000000000000000000000000000000000000000000000008152600401611739906137ab565b60405180910390fd5b60606000600381111561175857611757613dbb565b5b6006886040516117689190613526565b908152602001604051809103902060020160149054906101000a900460ff16600381111561179957611798613dbb565b5b14156117dc576040518060400160405280601081526020017f70726f64756374206f6e206f666665720000000000000000000000000000000081525090506119df565b600160038111156117f0576117ef613dbb565b5b6006886040516118009190613526565b908152602001604051809103902060020160149054906101000a900460ff16600381111561183157611830613dbb565b5b1415611874576040518060400160405280600d81526020017f6465706f7369742074616b656e0000000000000000000000000000000000000081525090506119de565b6002600381111561188857611887613dbb565b5b6006886040516118989190613526565b908152602001604051809103902060020160149054906101000a900460ff1660038111156118c9576118c8613dbb565b5b141561190c576040518060400160405280601281526020017f7061796d656e74207375636365737366756c000000000000000000000000000081525090506119dd565b60038081111561191f5761191e613dbb565b5b60068860405161192f9190613526565b908152602001604051809103902060020160149054906101000a900460ff1660038111156119605761195f613dbb565b5b14156119a3576040518060400160405280601081526020017f7061796d656e742072657475726e65640000000000000000000000000000000081525090506119dc565b6040518060400160405280601481526020017f756e6b6e6f776e20657363726f7720737461746500000000000000000000000081525090505b5b5b5b6006876040516119ef9190613526565b90815260200160405180910390206000015481600689604051611a129190613526565b908152602001604051809103902060020160009054906101000a900473ffffffffffffffffffffffffffffffffffffffff1660068a604051611a549190613526565b908152602001604051809103902060010160009054906101000a900473ffffffffffffffffffffffffffffffffffffffff16955095509550955050509193509193565b600782604051611aa79190613526565b908152602001604051809103902060009054906101000a900460ff1615611b03576040517f08c379a0000000000000000000000000000000000000000000000000000000008152600401611afa906137cb565b60405180910390fd5b600360009054906101000a900473ffffffffffffffffffffffffffffffffffffffff1673ffffffffffffffffffffffffffffffffffffffff16630ad5b505836040518263ffffffff1660e01b8152600401611b5e91906136e9565b60206040518083038186803b158015611b7657600080fd5b505afa158015611b8a573d6000803e3d6000fd5b505050506040513d601f19601f82011682018060405250810190611bae9190612d83565b611bed576040517f08c379a0000000000000000000000000000000000000000000000000000000008152600401611be49061388b565b60405180910390fd5b6000806000806000600360009054906101000a900473ffffffffffffffffffffffffffffffffffffffff1673ffffffffffffffffffffffffffffffffffffffff1663c5573d46886040518263ffffffff1660e01b8152600401611c5091906136e9565b60006040518083038186803b158015611c6857600080fd5b505afa158015611c7c573d6000803e3d6000fd5b505050506040513d6000823e3d601f19601f82011682018060405250810190611ca59190612eaf565b945094509450945094508073ffffffffffffffffffffffffffffffffffffffff163373ffffffffffffffffffffffffffffffffffffffff1614611d1d576040517f08c379a0000000000000000000000000000000000000000000000000000000008152600401611d14906138cb565b60405180910390fd5b611d25612afd565b86816000018181525050600081606001906003811115611d4857611d47613dbb565b5b90816003811115611d5c57611d5b613dbb565b5b8152505033816040019073ffffffffffffffffffffffffffffffffffffffff16908173ffffffffffffffffffffffffffffffffffffffff168152505080600689604051611da99190613526565b90815260200160405180910390206000820151816000015560208201518160010160006101000a81548173ffffffffffffffffffffffffffffffffffffffff021916908373ffffffffffffffffffffffffffffffffffffffff16021790555060408201518160020160006101000a81548173ffffffffffffffffffffffffffffffffffffffff021916908373ffffffffffffffffffffffffffffffffffffffff16021790555060608201518160020160146101000a81548160ff02191690836003811115611e7a57611e79613dbb565b5b0217905550608082015181600301559050506001600789604051611e9e9190613526565b908152602001604051809103902060006101000a81548160ff021916908315150217905550600588908060018154018082558091505060019003906000526020600020016000909190919091509080519060200190611efe929190612b6a565b50600360009054906101000a900473ffffffffffffffffffffffffffffffffffffffff1673ffffffffffffffffffffffffffffffffffffffff16630d202ced8960008054906101000a900473ffffffffffffffffffffffffffffffffffffffff166040518363ffffffff1660e01b8152600401611f7c92919061370b565b600060405180830381600087803b158015611f9657600080fd5b505af1158015611faa573d6000803e3d6000fd5b505050505050505050505050565b60008111611ffb576040517f08c379a0000000000000000000000000000000000000000000000000000000008152600401611ff29061380b565b60405180910390fd5b6000600460009054906101000a900473ffffffffffffffffffffffffffffffffffffffff1673ffffffffffffffffffffffffffffffffffffffff1663dd62ed3e33306040518363ffffffff1660e01b815260040161205a929190613599565b60206040518083038186803b15801561207257600080fd5b505afa158015612086573d6000803e3d6000fd5b505050506040513d601f19601f820116820180604052508101906120aa9190612e82565b9050818110156120ef576040517f08c379a00000000000000000000000000000000000000000000000000000000081526004016120e69061382b565b60405180910390fd5b600460009054906101000a900473ffffffffffffffffffffffffffffffffffffffff1673ffffffffffffffffffffffffffffffffffffffff166323b872dd3330856040518463ffffffff1660e01b815260040161214e939291906135c2565b602060405180830381600087803b15801561216857600080fd5b505af115801561217c573d6000803e3d6000fd5b505050506040513d601f19601f820116820180604052508101906121a09190612d83565b503373ffffffffffffffffffffffffffffffffffffffff166108fc839081150290604051600060405180830381858888f193505050501580156121e7573d6000803e3d6000fd5b505050565b6000816007816040516121ff9190613526565b908152602001604051809103902060009054906101000a900460ff1661225a576040517f08c379a0000000000000000000000000000000000000000000000000000000008152600401612251906137ab565b60405180910390fd5b6000806000806000600360009054906101000a900473ffffffffffffffffffffffffffffffffffffffff1673ffffffffffffffffffffffffffffffffffffffff1663c5573d46896040518263ffffffff1660e01b81526004016122bd91906136e9565b60006040518083038186803b1580156122d557600080fd5b505afa1580156122e9573d6000803e3d6000fd5b505050506040513d6000823e3d601f19601f820116820180604052508101906123129190612eaf565b9450945094509450945060405160200161232b90613554565b60405160208183030381529060405280519060200120836040516020016123529190613526565b60405160208183030381529060405280519060200120141561237c57600196505050505050612386565b6000965050505050505b50919050565b60008054906101000a900473ffffffffffffffffffffffffffffffffffffffff16600073ffffffffffffffffffffffffffffffffffffffff168173ffffffffffffffffffffffffffffffffffffffff16141561241d576040517f08c379a00000000000000000000000000000000000000000000000000000000081526004016124149061386b565b60405180910390fd5b3073ffffffffffffffffffffffffffffffffffffffff168173ffffffffffffffffffffffffffffffffffffffff16141561248c576040517f08c379a00000000000000000000000000000000000000000000000000000000081526004016124839061394b565b60405180910390fd5b8260078160405161249d9190613526565b908152602001604051809103902060009054906101000a900460ff166124f8576040517f08c379a00000000000000000000000000000000000000000000000000000000081526004016124ef906137ab565b60405180910390fd5b6006846040516125089190613526565b9081526020016040518091039020600001546001546125279190613b93565b8314612568576040517f08c379a000000000000000000000000000000000000000000000000000000000815260040161255f9061392b565b60405180910390fd5b6000600381111561257c5761257b613dbb565b5b60068560405161258c9190613526565b908152602001604051809103902060020160149054906101000a900460ff1660038111156125bd576125bc613dbb565b5b146125fd576040517f08c379a00000000000000000000000000000000000000000000000000000000081526004016125f49061396b565b60405180910390fd5b3360068560405161260e9190613526565b908152602001604051809103902060010160006101000a81548173ffffffffffffffffffffffffffffffffffffffff021916908373ffffffffffffffffffffffffffffffffffffffff160217905550600160068560405161266f9190613526565b908152602001604051809103902060020160146101000a81548160ff021916908360038111156126a2576126a1613dbb565b5b0217905550600254426126b59190613b93565b6006856040516126c59190613526565b908152602001604051809103902060030181905550600460009054906101000a900473ffffffffffffffffffffffffffffffffffffffff1673ffffffffffffffffffffffffffffffffffffffff166323b872dd3330866040518463ffffffff1660e01b8152600401612739939291906135c2565b602060405180830381600087803b15801561275357600080fd5b505af1158015612767573d6000803e3d6000fd5b505050506040513d601f19601f8201168201806040525081019061278b9190612d83565b50600460009054906101000a900473ffffffffffffffffffffffffffffffffffffffff1673ffffffffffffffffffffffffffffffffffffffff1663a9059cbb60008054906101000a900473ffffffffffffffffffffffffffffffffffffffff166001546040518363ffffffff1660e01b815260040161280b9291906135f9565b602060405180830381600087803b15801561282557600080fd5b505af1158015612839573d6000803e3d6000fd5b505050506040513d601f19601f8201168201806040525081019061285d9190612d83565b507f6b4150c430f0b9b9df0f255d6761fd17eefed34257973ab988203c832edbcc23846006866040516128909190613526565b9081526020016040518091039020600001546040516128b092919061373b565b60405180910390a150505050565b60015481565b6000816007816040516128d79190613526565b908152602001604051809103902060009054906101000a900460ff16612932576040517f08c379a0000000000000000000000000000000000000000000000000000000008152600401612929906137ab565b60405180910390fd5b6000806000806000600360009054906101000a900473ffffffffffffffffffffffffffffffffffffffff1673ffffffffffffffffffffffffffffffffffffffff1663c5573d46896040518263ffffffff1660e01b815260040161299591906136e9565b60006040518083038186803b1580156129ad57600080fd5b505afa1580156129c1573d6000803e3d6000fd5b505050506040513d6000823e3d601f19601f820116820180604052508101906129ea9190612eaf565b94509450945094509450604051602001612a0390613569565b6040516020818303038152906040528051906020012082604051602001612a2a9190613526565b604051602081830303815290604052805190602001201415612a5457600196505050505050612a5e565b6000965050505050505b50919050565b6006818051602081018201805184825260208301602085012081835280955050505050506000915090508060000154908060010160009054906101000a900473ffffffffffffffffffffffffffffffffffffffff16908060020160009054906101000a900473ffffffffffffffffffffffffffffffffffffffff16908060020160149054906101000a900460ff16908060030154905085565b6040518060a0016040528060008152602001600073ffffffffffffffffffffffffffffffffffffffff168152602001600073ffffffffffffffffffffffffffffffffffffffff16815260200160006003811115612b5d57612b5c613dbb565b5b8152602001600081525090565b828054612b7690613ce0565b90600052602060002090601f016020900481019282612b985760008555612bdf565b82601f10612bb157805160ff1916838001178555612bdf565b82800160010185558215612bdf579182015b82811115612bde578251825591602001919060010190612bc3565b5b509050612bec9190612bf0565b5090565b5b80821115612c09576000816000905550600101612bf1565b5090565b6000612c20612c1b84613a6a565b613a45565b905082815260208101848484011115612c3c57612c3b613e7c565b5b612c47848285613c9e565b509392505050565b6000612c62612c5d84613a6a565b613a45565b905082815260208101848484011115612c7e57612c7d613e7c565b5b612c89848285613cad565b509392505050565b600081359050612ca08161435d565b92915050565b600081519050612cb58161435d565b92915050565b600081519050612cca81614374565b92915050565b600082601f830112612ce557612ce4613e77565b5b8135612cf5848260208601612c0d565b91505092915050565b600082601f830112612d1357612d12613e77565b5b8151612d23848260208601612c4f565b91505092915050565b600081359050612d3b8161438b565b92915050565b600081519050612d508161438b565b92915050565b600060208284031215612d6c57612d6b613e86565b5b6000612d7a84828501612c91565b91505092915050565b600060208284031215612d9957612d98613e86565b5b6000612da784828501612cbb565b91505092915050565b600060208284031215612dc657612dc5613e86565b5b600082013567ffffffffffffffff811115612de457612de3613e81565b5b612df084828501612cd0565b91505092915050565b60008060408385031215612e1057612e0f613e86565b5b600083013567ffffffffffffffff811115612e2e57612e2d613e81565b5b612e3a85828601612cd0565b9250506020612e4b85828601612d2c565b9150509250929050565b600060208284031215612e6b57612e6a613e86565b5b6000612e7984828501612d2c565b91505092915050565b600060208284031215612e9857612e97613e86565b5b6000612ea684828501612d41565b91505092915050565b600080600080600060a08688031215612ecb57612eca613e86565b5b6000612ed988828901612d41565b955050602086015167ffffffffffffffff811115612efa57612ef9613e81565b5b612f0688828901612cfe565b945050604086015167ffffffffffffffff811115612f2757612f26613e81565b5b612f3388828901612cfe565b935050606086015167ffffffffffffffff811115612f5457612f53613e81565b5b612f6088828901612cfe565b9250506080612f7188828901612ca6565b9150509295509295909350565b6000612f8a8383612fc2565b60208301905092915050565b6000612fa2838361314d565b905092915050565b6000612fb68383613508565b60208301905092915050565b612fcb81613be9565b82525050565b612fda81613be9565b82525050565b6000612feb82613ae0565b612ff58185613b33565b935061300083613a9b565b8060005b838110156130315781516130188882612f7e565b975061302383613b0c565b925050600181019050613004565b5085935050505092915050565b600061304982613aeb565b6130538185613b44565b93508360208202850161306585613aab565b8060005b858110156130a157848403895281516130828582612f96565b945061308d83613b19565b925060208a01995050600181019050613069565b50829750879550505050505092915050565b60006130be82613af6565b6130c88185613b55565b93506130d383613abb565b8060005b838110156131045781516130eb8882612faa565b97506130f683613b26565b9250506001810190506130d7565b5085935050505092915050565b61311a81613bfb565b82525050565b61312981613c44565b82525050565b61313881613c56565b82525050565b61314781613c68565b82525050565b600061315882613b01565b6131628185613b66565b9350613172818560208601613cad565b61317b81613e8b565b840191505092915050565b600061319182613b01565b61319b8185613b77565b93506131ab818560208601613cad565b6131b481613e8b565b840191505092915050565b60006131ca82613b01565b6131d48185613b88565b93506131e4818560208601613cad565b80840191505092915050565b600081546131fd81613ce0565b6132078186613b88565b94506001821660008114613222576001811461323357613266565b60ff19831686528186019350613266565b61323c85613acb565b60005b8381101561325e5781548189015260018201915060208101905061323f565b838801955050505b50505092915050565b600061327c603c83613b77565b915061328782613e9c565b604082019050919050565b600061329f602283613b77565b91506132aa82613eeb565b604082019050919050565b60006132c2601783613b77565b91506132cd82613f3a565b602082019050919050565b60006132e5601283613b88565b91506132f082613f63565b601282019050919050565b6000613308601b83613b77565b915061331382613f8c565b602082019050919050565b600061332b604083613b77565b915061333682613fb5565b604082019050919050565b600061334e602583613b77565b915061335982614004565b604082019050919050565b6000613371601983613b77565b915061337c82614053565b602082019050919050565b6000613394602883613b77565b915061339f8261407c565b604082019050919050565b60006133b7602683613b77565b91506133c2826140cb565b604082019050919050565b60006133da601c83613b77565b91506133e58261411a565b602082019050919050565b60006133fd602883613b77565b915061340882614143565b604082019050919050565b6000613420603083613b77565b915061342b82614192565b604082019050919050565b6000613443602083613b77565b915061344e826141e1565b602082019050919050565b6000613466601b83613b77565b91506134718261420a565b602082019050919050565b6000613489604a83613b77565b915061349482614233565b606082019050919050565b60006134ac601083613b88565b91506134b7826142a8565b601082019050919050565b60006134cf602583613b77565b91506134da826142d1565b604082019050919050565b60006134f2601883613b77565b91506134fd82614320565b602082019050919050565b61351181613c3a565b82525050565b61352081613c3a565b82525050565b600061353282846131bf565b915081905092915050565b600061354982846131f0565b915081905092915050565b600061355f826132d8565b9150819050919050565b60006135748261349f565b9150819050919050565b60006020820190506135936000830184612fd1565b92915050565b60006040820190506135ae6000830185612fd1565b6135bb6020830184612fd1565b9392505050565b60006060820190506135d76000830186612fd1565b6135e46020830185612fd1565b6135f16040830184613517565b949350505050565b600060408201905061360e6000830185612fd1565b61361b6020830184613517565b9392505050565b600060a082019050818103600083015261363c818861303e565b9050818103602083015261365081876130b3565b90508181036040830152613664818661303e565b905081810360608301526136788185612fe0565b9050818103608083015261368c8184612fe0565b90509695505050505050565b60006020820190506136ad6000830184613111565b92915050565b60006020820190506136c86000830184613120565b92915050565b60006020820190506136e3600083018461312f565b92915050565b600060208201905081810360008301526137038184613186565b905092915050565b600060408201905081810360008301526137258185613186565b90506137346020830184612fd1565b9392505050565b600060408201905081810360008301526137558185613186565b90506137646020830184613517565b9392505050565b600060208201905081810360008301526137848161326f565b9050919050565b600060208201905081810360008301526137a481613292565b9050919050565b600060208201905081810360008301526137c4816132b5565b9050919050565b600060208201905081810360008301526137e4816132fb565b9050919050565b600060208201905081810360008301526138048161331e565b9050919050565b6000602082019050818103600083015261382481613341565b9050919050565b6000602082019050818103600083015261384481613364565b9050919050565b6000602082019050818103600083015261386481613387565b9050919050565b60006020820190508181036000830152613884816133aa565b9050919050565b600060208201905081810360008301526138a4816133cd565b9050919050565b600060208201905081810360008301526138c4816133f0565b9050919050565b600060208201905081810360008301526138e481613413565b9050919050565b6000602082019050818103600083015261390481613436565b9050919050565b6000602082019050818103600083015261392481613459565b9050919050565b600060208201905081810360008301526139448161347c565b9050919050565b60006020820190508181036000830152613964816134c2565b9050919050565b60006020820190508181036000830152613984816134e5565b9050919050565b60006020820190506139a06000830184613517565b92915050565b600060a0820190506139bb6000830188613517565b6139c86020830187612fd1565b6139d56040830186612fd1565b6139e2606083018561313e565b6139ef6080830184613517565b9695505050505050565b6000608082019050613a0e6000830187613517565b8181036020830152613a208186613186565b9050613a2f6040830185612fd1565b613a3c6060830184612fd1565b95945050505050565b6000613a4f613a60565b9050613a5b8282613d12565b919050565b6000604051905090565b600067ffffffffffffffff821115613a8557613a84613e48565b5b613a8e82613e8b565b9050602081019050919050565b6000819050602082019050919050565b6000819050602082019050919050565b6000819050602082019050919050565b60008190508160005260206000209050919050565b600081519050919050565b600081519050919050565b600081519050919050565b600081519050919050565b6000602082019050919050565b6000602082019050919050565b6000602082019050919050565b600082825260208201905092915050565b600082825260208201905092915050565b600082825260208201905092915050565b600082825260208201905092915050565b600082825260208201905092915050565b600081905092915050565b6000613b9e82613c3a565b9150613ba983613c3a565b9250827fffffffffffffffffffffffffffffffffffffffffffffffffffffffffffffffff03821115613bde57613bdd613d8c565b5b828201905092915050565b6000613bf482613c1a565b9050919050565b60008115159050919050565b6000819050613c1582614349565b919050565b600073ffffffffffffffffffffffffffffffffffffffff82169050919050565b6000819050919050565b6000613c4f82613c7a565b9050919050565b6000613c6182613c7a565b9050919050565b6000613c7382613c07565b9050919050565b6000613c8582613c8c565b9050919050565b6000613c9782613c1a565b9050919050565b82818337600083830152505050565b60005b83811015613ccb578082015181840152602081019050613cb0565b83811115613cda576000848401525b50505050565b60006002820490506001821680613cf857607f821691505b60208210811415613d0c57613d0b613dea565b5b50919050565b613d1b82613e8b565b810181811067ffffffffffffffff82111715613d3a57613d39613e48565b5b80604052505050565b6000613d4e82613c3a565b91507fffffffffffffffffffffffffffffffffffffffffffffffffffffffffffffffff821415613d8157613d80613d8c565b5b600182019050919050565b7f4e487b7100000000000000000000000000000000000000000000000000000000600052601160045260246000fd5b7f4e487b7100000000000000000000000000000000000000000000000000000000600052602160045260246000fd5b7f4e487b7100000000000000000000000000000000000000000000000000000000600052602260045260246000fd5b7f4e487b7100000000000000000000000000000000000000000000000000000000600052603260045260246000fd5b7f4e487b7100000000000000000000000000000000000000000000000000000000600052604160045260246000fd5b600080fd5b600080fd5b600080fd5b600080fd5b6000601f19601f8301169050919050565b7f4167656e742063616e206f6e6c792069737375652074686520726566756e642060008201527f616674657220746865207370656369666965642074696d656f75742e00000000602082015250565b7f4e6f206465706f73697420666f756e6420666f7220746869732070726f64756360008201527f742e000000000000000000000000000000000000000000000000000000000000602082015250565b7f50726f6475637420646f6573206e6f742065786973742e000000000000000000600082015250565b7f7061636b6167696e672076657269666965640000000000000000000000000000600082015250565b7f50726f6475637420697320616c7265616479206f6666657265642e0000000000600082015250565b7f4167656e742063616e206f6e6c7920617070726f766520746865207061796d6560008201527f6e74206265666f726520746865207370656369666965642074696d656f75742e602082015250565b7f596f75206e65656420746f2073656c6c206174206c6561737420736f6d65207460008201527f6f6b656e73000000000000000000000000000000000000000000000000000000602082015250565b7f436865636b2074686520746f6b656e20616c6c6f77616e636500000000000000600082015250565b7f4f6e6c79206167656e742063616e2063616c6c2074686520726566756e64206660008201527f756e6374696f6e2e000000000000000000000000000000000000000000000000602082015250565b7f526563697069656e742073686f756c64206861766520612076616c696420616460008201527f6472657373210000000000000000000000000000000000000000000000000000602082015250565b7f50726f6475637420746f6b656e206973206e6f74206d696e7465642e00000000600082015250565b7f4f6e6c79206167656e742063616e2063616c6c207468652072656465656d206660008201527f756e6374696f6e2e000000000000000000000000000000000000000000000000602082015250565b7f4f6e6c79206f776e6572206f66206120746f6b656e2063616e206f666665722060008201527f697420617320612070726f647563742e00000000000000000000000000000000602082015250565b7f4e6f7420656e6f75676820746f6b656e7320696e207468652072657365727665600082015250565b7f596f75206e65656420746f2073656e6420736f6d652065746865720000000000600082015250565b7f506c65617365206d616b65207375726520796f7572206465706f73697420636f60008201527f7665727320626f7468207468652070726f6475637420707269636520616e642060208201527f6167656e74206665652100000000000000000000000000000000000000000000604082015250565b7f70726f6475637420766572696669656400000000000000000000000000000000600082015250565b7f526563697069656e742073686f756c64206e6f742062652074686520636f6e7460008201527f7261637421000000000000000000000000000000000000000000000000000000602082015250565b7f50726f64756374206973206e6f74206f6e206f66666572210000000000000000600082015250565b6004811061435a57614359613dbb565b5b50565b61436681613be9565b811461437157600080fd5b50565b61437d81613bfb565b811461438857600080fd5b50565b61439481613c3a565b811461439f57600080fd5b5056fea26469706673582212205414088264680968efc1e87dc6e2a3dd45a8d43f7fd4bff2bf18ce9709576fd564736f6c6343000807003360806040523480156200001157600080fd5b5060405162001a2338038062001a238339818101604052810190620000379190620003b3565b82828160039080519060200190620000519291906200026e565b5080600490805190602001906200006a9291906200026e565b50505033600560006101000a81548173ffffffffffffffffffffffffffffffffffffffff021916908373ffffffffffffffffffffffffffffffffffffffff160217905550620000e2600560009054906101000a900473ffffffffffffffffffffffffffffffffffffffff1682620000eb60201b60201c565b50505062000732565b600073ffffffffffffffffffffffffffffffffffffffff168273ffffffffffffffffffffffffffffffffffffffff1614156200015e576040517f08c379a0000000000000000000000000000000000000000000000000000000008152600401620001559062000485565b60405180910390fd5b62000172600083836200026460201b60201c565b806002600082825462000186919062000534565b92505081905550806000808473ffffffffffffffffffffffffffffffffffffffff1673ffffffffffffffffffffffffffffffffffffffff1681526020019081526020016000206000828254620001dd919062000534565b925050819055508173ffffffffffffffffffffffffffffffffffffffff16600073ffffffffffffffffffffffffffffffffffffffff167fddf252ad1be2c89b69c2b068fc378daa952ba7f163c4a11628f55a4df523b3ef83604051620002449190620004a7565b60405180910390a362000260600083836200026960201b60201c565b5050565b505050565b505050565b8280546200027c90620005d1565b90600052602060002090601f016020900481019282620002a05760008555620002ec565b82601f10620002bb57805160ff1916838001178555620002ec565b82800160010185558215620002ec579182015b82811115620002eb578251825591602001919060010190620002ce565b5b509050620002fb9190620002ff565b5090565b5b808211156200031a57600081600090555060010162000300565b5090565b6000620003356200032f84620004ed565b620004c4565b905082815260208101848484011115620003545762000353620006cf565b5b620003618482856200059b565b509392505050565b600082601f830112620003815762000380620006ca565b5b8151620003938482602086016200031e565b91505092915050565b600081519050620003ad8162000718565b92915050565b600080600060608486031215620003cf57620003ce620006d9565b5b600084015167ffffffffffffffff811115620003f057620003ef620006d4565b5b620003fe8682870162000369565b935050602084015167ffffffffffffffff811115620004225762000421620006d4565b5b620004308682870162000369565b925050604062000443868287016200039c565b9150509250925092565b60006200045c601f8362000523565b91506200046982620006ef565b602082019050919050565b6200047f8162000591565b82525050565b60006020820190508181036000830152620004a0816200044d565b9050919050565b6000602082019050620004be600083018462000474565b92915050565b6000620004d0620004e3565b9050620004de828262000607565b919050565b6000604051905090565b600067ffffffffffffffff8211156200050b576200050a6200069b565b5b6200051682620006de565b9050602081019050919050565b600082825260208201905092915050565b6000620005418262000591565b91506200054e8362000591565b9250827fffffffffffffffffffffffffffffffffffffffffffffffffffffffffffffffff038211156200058657620005856200063d565b5b828201905092915050565b6000819050919050565b60005b83811015620005bb5780820151818401526020810190506200059e565b83811115620005cb576000848401525b50505050565b60006002820490506001821680620005ea57607f821691505b602082108114156200060157620006006200066c565b5b50919050565b6200061282620006de565b810181811067ffffffffffffffff821117156200063457620006336200069b565b5b80604052505050565b7f4e487b7100000000000000000000000000000000000000000000000000000000600052601160045260246000fd5b7f4e487b7100000000000000000000000000000000000000000000000000000000600052602260045260246000fd5b7f4e487b7100000000000000000000000000000000000000000000000000000000600052604160045260246000fd5b600080fd5b600080fd5b600080fd5b600080fd5b6000601f19601f8301169050919050565b7f45524332303a206d696e7420746f20746865207a65726f206164647265737300600082015250565b620007238162000591565b81146200072f57600080fd5b50565b6112e180620007426000396000f3fe608060405234801561001057600080fd5b50600436106100b45760003560e01c806370a082311161007157806370a08231146101a357806395d89b41146101d3578063a457c2d7146101f1578063a9059cbb14610221578063dd62ed3e14610251578063f851a44014610281576100b4565b806306fdde03146100b9578063095ea7b3146100d757806318160ddd1461010757806323b872dd14610125578063313ce567146101555780633950935114610173575b600080fd5b6100c161029f565b6040516100ce9190610da2565b60405180910390f35b6100f160048036038101906100ec9190610bc2565b610331565b6040516100fe9190610d87565b60405180910390f35b61010f610354565b60405161011c9190610ea4565b60405180910390f35b61013f600480360381019061013a9190610b6f565b61035e565b60405161014c9190610d87565b60405180910390f35b61015d61038d565b60405161016a9190610ebf565b60405180910390f35b61018d60048036038101906101889190610bc2565b610396565b60405161019a9190610d87565b60405180910390f35b6101bd60048036038101906101b89190610b02565b6103cd565b6040516101ca9190610ea4565b60405180910390f35b6101db610415565b6040516101e89190610da2565b60405180910390f35b61020b60048036038101906102069190610bc2565b6104a7565b6040516102189190610d87565b60405180910390f35b61023b60048036038101906102369190610bc2565b61051e565b6040516102489190610d87565b60405180910390f35b61026b60048036038101906102669190610b2f565b610541565b6040516102789190610ea4565b60405180910390f35b6102896105c8565b6040516102969190610d6c565b60405180910390f35b6060600380546102ae90610fd4565b80601f01602080910402602001604051908101604052809291908181526020018280546102da90610fd4565b80156103275780601f106102fc57610100808354040283529160200191610327565b820191906000526020600020905b81548152906001019060200180831161030a57829003601f168201915b5050505050905090565b60008061033c6105ee565b90506103498185856105f6565b600191505092915050565b6000600254905090565b6000806103696105ee565b90506103768582856107c1565b61038185858561084d565b60019150509392505050565b60006012905090565b6000806103a16105ee565b90506103c28185856103b38589610541565b6103bd9190610ef6565b6105f6565b600191505092915050565b60008060008373ffffffffffffffffffffffffffffffffffffffff1673ffffffffffffffffffffffffffffffffffffffff168152602001908152602001600020549050919050565b60606004805461042490610fd4565b80601f016020809104026020016040519081016040528092919081815260200182805461045090610fd4565b801561049d5780601f106104725761010080835404028352916020019161049d565b820191906000526020600020905b81548152906001019060200180831161048057829003601f168201915b5050505050905090565b6000806104b26105ee565b905060006104c08286610541565b905083811015610505576040517f08c379a00000000000000000000000000000000000000000000000000000000081526004016104fc90610e84565b60405180910390fd5b61051282868684036105f6565b60019250505092915050565b6000806105296105ee565b905061053681858561084d565b600191505092915050565b6000600160008473ffffffffffffffffffffffffffffffffffffffff1673ffffffffffffffffffffffffffffffffffffffff16815260200190815260200160002060008373ffffffffffffffffffffffffffffffffffffffff1673ffffffffffffffffffffffffffffffffffffffff16815260200190815260200160002054905092915050565b600560009054906101000a900473ffffffffffffffffffffffffffffffffffffffff1681565b600033905090565b600073ffffffffffffffffffffffffffffffffffffffff168373ffffffffffffffffffffffffffffffffffffffff161415610666576040517f08c379a000000000000000000000000000000000000000000000000000000000815260040161065d90610e64565b60405180910390fd5b600073ffffffffffffffffffffffffffffffffffffffff168273ffffffffffffffffffffffffffffffffffffffff1614156106d6576040517f08c379a00000000000000000000000000000000000000000000000000000000081526004016106cd90610de4565b60405180910390fd5b80600160008573ffffffffffffffffffffffffffffffffffffffff1673ffffffffffffffffffffffffffffffffffffffff16815260200190815260200160002060008473ffffffffffffffffffffffffffffffffffffffff1673ffffffffffffffffffffffffffffffffffffffff168152602001908152602001600020819055508173ffffffffffffffffffffffffffffffffffffffff168373ffffffffffffffffffffffffffffffffffffffff167f8c5be1e5ebec7d5bd14f71427d1e84f3dd0314c0f7b2291e5b200ac8c7c3b925836040516107b49190610ea4565b60405180910390a3505050565b60006107cd8484610541565b90507fffffffffffffffffffffffffffffffffffffffffffffffffffffffffffffffff81146108475781811015610839576040517f08c379a000000000000000000000000000000000000000000000000000000000815260040161083090610e04565b60405180910390fd5b61084684848484036105f6565b5b50505050565b600073ffffffffffffffffffffffffffffffffffffffff168373ffffffffffffffffffffffffffffffffffffffff1614156108bd576040517f08c379a00000000000000000000000000000000000000000000000000000000081526004016108b490610e44565b60405180910390fd5b600073ffffffffffffffffffffffffffffffffffffffff168273ffffffffffffffffffffffffffffffffffffffff16141561092d576040517f08c379a000000000000000000000000000000000000000000000000000000000815260040161092490610dc4565b60405180910390fd5b610938838383610ace565b60008060008573ffffffffffffffffffffffffffffffffffffffff1673ffffffffffffffffffffffffffffffffffffffff168152602001908152602001600020549050818110156109be576040517f08c379a00000000000000000000000000000000000000000000000000000000081526004016109b590610e24565b60405180910390fd5b8181036000808673ffffffffffffffffffffffffffffffffffffffff1673ffffffffffffffffffffffffffffffffffffffff16815260200190815260200160002081905550816000808573ffffffffffffffffffffffffffffffffffffffff1673ffffffffffffffffffffffffffffffffffffffff1681526020019081526020016000206000828254610a519190610ef6565b925050819055508273ffffffffffffffffffffffffffffffffffffffff168473ffffffffffffffffffffffffffffffffffffffff167fddf252ad1be2c89b69c2b068fc378daa952ba7f163c4a11628f55a4df523b3ef84604051610ab59190610ea4565b60405180910390a3610ac8848484610ad3565b50505050565b505050565b505050565b600081359050610ae78161127d565b92915050565b600081359050610afc81611294565b92915050565b600060208284031215610b1857610b17611064565b5b6000610b2684828501610ad8565b91505092915050565b60008060408385031215610b4657610b45611064565b5b6000610b5485828601610ad8565b9250506020610b6585828601610ad8565b9150509250929050565b600080600060608486031215610b8857610b87611064565b5b6000610b9686828701610ad8565b9350506020610ba786828701610ad8565b9250506040610bb886828701610aed565b9150509250925092565b60008060408385031215610bd957610bd8611064565b5b6000610be785828601610ad8565b9250506020610bf885828601610aed565b9150509250929050565b610c0b81610f4c565b82525050565b610c1a81610f5e565b82525050565b6000610c2b82610eda565b610c358185610ee5565b9350610c45818560208601610fa1565b610c4e81611069565b840191505092915050565b6000610c66602383610ee5565b9150610c718261107a565b604082019050919050565b6000610c89602283610ee5565b9150610c94826110c9565b604082019050919050565b6000610cac601d83610ee5565b9150610cb782611118565b602082019050919050565b6000610ccf602683610ee5565b9150610cda82611141565b604082019050919050565b6000610cf2602583610ee5565b9150610cfd82611190565b604082019050919050565b6000610d15602483610ee5565b9150610d20826111df565b604082019050919050565b6000610d38602583610ee5565b9150610d438261122e565b604082019050919050565b610d5781610f8a565b82525050565b610d6681610f94565b82525050565b6000602082019050610d816000830184610c02565b92915050565b6000602082019050610d9c6000830184610c11565b92915050565b60006020820190508181036000830152610dbc8184610c20565b905092915050565b60006020820190508181036000830152610ddd81610c59565b9050919050565b60006020820190508181036000830152610dfd81610c7c565b9050919050565b60006020820190508181036000830152610e1d81610c9f565b9050919050565b60006020820190508181036000830152610e3d81610cc2565b9050919050565b60006020820190508181036000830152610e5d81610ce5565b9050919050565b60006020820190508181036000830152610e7d81610d08565b9050919050565b60006020820190508181036000830152610e9d81610d2b565b9050919050565b6000602082019050610eb96000830184610d4e565b92915050565b6000602082019050610ed46000830184610d5d565b92915050565b600081519050919050565b600082825260208201905092915050565b6000610f0182610f8a565b9150610f0c83610f8a565b9250827fffffffffffffffffffffffffffffffffffffffffffffffffffffffffffffffff03821115610f4157610f40611006565b5b828201905092915050565b6000610f5782610f6a565b9050919050565b60008115159050919050565b600073ffffffffffffffffffffffffffffffffffffffff82169050919050565b6000819050919050565b600060ff82169050919050565b60005b83811015610fbf578082015181840152602081019050610fa4565b83811115610fce576000848401525b50505050565b60006002820490506001821680610fec57607f821691505b6020821081141561100057610fff611035565b5b50919050565b7f4e487b7100000000000000000000000000000000000000000000000000000000600052601160045260246000fd5b7f4e487b7100000000000000000000000000000000000000000000000000000000600052602260045260246000fd5b600080fd5b6000601f19601f8301169050919050565b7f45524332303a207472616e7366657220746f20746865207a65726f206164647260008201527f6573730000000000000000000000000000000000000000000000000000000000602082015250565b7f45524332303a20617070726f766520746f20746865207a65726f20616464726560008201527f7373000000000000000000000000000000000000000000000000000000000000602082015250565b7f45524332303a20696e73756666696369656e7420616c6c6f77616e6365000000600082015250565b7f45524332303a207472616e7366657220616d6f756e742065786365656473206260008201527f616c616e63650000000000000000000000000000000000000000000000000000602082015250565b7f45524332303a207472616e736665722066726f6d20746865207a65726f20616460008201527f6472657373000000000000000000000000000000000000000000000000000000602082015250565b7f45524332303a20617070726f76652066726f6d20746865207a65726f2061646460008201527f7265737300000000000000000000000000000000000000000000000000000000602082015250565b7f45524332303a2064656372656173656420616c6c6f77616e63652062656c6f7760008201527f207a65726f000000000000000000000000000000000000000000000000000000602082015250565b61128681610f4c565b811461129157600080fd5b50565b61129d81610f8a565b81146112a857600080fd5b5056fea2646970667358221220b3be26dabe8439ffd658502bec8946a7cb1219d90863fcfb15160f4ebc7b35cc64736f6c63430008070033",
  "immutableReferences": {},
  "source": "// SPDX-License-Identifier: MIT\npragma solidity ^0.8.0;\n\nimport \"../node_modules/@openzeppelin/contracts/utils/math/SafeMath.sol\";\nimport \"./DigitalTwin.sol\";\nimport \"./BToken.sol\";\n\n/**\n * @title EscrowService Contract, forked from https://github.com/AleRapchan/escrow-service\n * @author Yining Hu\n * @notice Building a single role access control Escrow Service using OpenZeppelin Escrow and RBAC\n * @dev contract currently assume one buyer account and one seller account, should develop an additional wallet contract and allow new user registration\n * @dev Todo: to implement multi-sig, time-based escrow\n * @dev Todo: the easiest would be to transfer both money and ownership of the product to the agent \n * @dev then to prevent agent from taking everything, agent needs to deposit, which can be slashed if caught faulty\n */\ncontract Escrow {\n\n    address agent;\n    uint256 public fee_btk;\n    uint256 timeout;\n\n    using SafeMath for uint256;\n\n    DigitalTwin public digitaltwin;\n    BToken public btk;\n    \n    enum EscrowState { OFFERED, DEPOSITTAKEN, SELLERREDEEMED, BUYERDENIED } //PAYMENTSUCCESSFUL, PAYMENTREVERTED\n\n    struct Product{\n        uint256 price;\n        address buyer;\n        address seller;\n        EscrowState state;\n        uint256 timeout; // timeout for payment settlement\n    }\n\n    string[] allproducts;\n    mapping (string => Product) public stock; // whole stock of offered items for sale in escrow arragement\n    mapping(string => bool) public productExists;\n\n    event DepositTaken(string tkname, uint256 price);\n\n    /**\n     * @dev before setting up any user wallet, all buyers/sellers use a single buyer/seller address, which are maintained by Beston.\n     */\n    constructor(DigitalTwin _digitaltwin) {\n        digitaltwin = _digitaltwin;\n        btk = new BToken(\"BT\", \"BT\", 1000000);\n        agent = msg.sender;\n        fee_btk = 1;\n        timeout = 5 minutes;\n    }\n\n    modifier validDestination(address to) {\n        require(to != address(0x0), \"Recipient should have a valid address!\");\n        require(to != address(this), \"Recipient should not be the contract!\");\n        _;\n    }\n\n    modifier validProduct(string memory _tkname) {\n        require(productExists[_tkname], \"Product does not exist.\");\n        _;\n    }\n\n    function offer(string memory _tkname , uint256 _price) public {\n        require(!productExists[_tkname], \"Product is already offered.\");\n        require(digitaltwin.tkExists(_tkname), \"Product token is not minted.\");\n\n        // should also require the caller to be the owner of the product\n        (uint256 id, string memory metadata, string memory rstatus, string memory vstatus, address addr) = digitaltwin.queryToken(_tkname);\n        require(msg.sender == addr, \"Only owner of a token can offer it as a product.\");\n\n        Product memory product;\n        product.price = _price; /// @dev double check the conversion in Polygon\n        product.state = EscrowState.OFFERED;\n        product.seller = msg.sender;\n        stock[_tkname] = product;\n        productExists[_tkname] = true;\n        allproducts.push(_tkname);\n\n        // transfer the token ownership to the agent\n        digitaltwin.transferByName(_tkname,agent);\n    }\n\n    /**\n     * buyBTK allows a caller to buy BTK from Escrow\n     * sellBTK allows a caller to sell BTK to Escrow\n     */\n    function buyBTK(address _to) payable public {\n        uint256 amountTobuy = msg.value;\n        uint256 dexBalance = btk.balanceOf(address(this));\n        require(amountTobuy > 0, \"You need to send some ether\");\n        require(amountTobuy <= dexBalance, \"Not enough tokens in the reserve\");\n        btk.transfer(_to, amountTobuy);\n    }\n\n    function sellBTK(uint256 amount) public {\n        require(amount > 0, \"You need to sell at least some tokens\");\n        uint256 allowance = btk.allowance(msg.sender, address(this));\n        require(allowance >= amount, \"Check the token allowance\");\n        btk.transferFrom(msg.sender, address(this), amount); // msg.sender is the caller, address(this) is Escrow\n        payable(msg.sender).transfer(amount);\n    }\n\n    /**\n     * @notice Buyer can make a deposit to products on offer\n     */\n    function BuyerDepositWithBTK(string memory _tkname, uint256 _deposit) external validDestination(agent) validProduct(_tkname) {\n        require (_deposit == fee_btk + stock[_tkname].price, \"Please make sure your deposit covers both the product price and agent fee!\");\n        require (stock[_tkname].state == EscrowState.OFFERED , \"Product is not on offer!\"); // this also blocks buyer from making duplicatd deposit\n\n        stock[_tkname].buyer = payable(msg.sender); //Todo: this doesn't need to be payable\n        stock[_tkname].state = EscrowState.DEPOSITTAKEN;\n        stock[_tkname].timeout = block.timestamp + timeout; // add a timeout for settlement when buyer sends deposit\n\n        btk.transferFrom(msg.sender, address(this), _deposit); // buyer transfers the deposit to Escrow (provided that buyer approves separately)\n        btk.transfer(agent, fee_btk); // buyer transfers the agent fee via Escrow, this msg.sender is Escrow\n        \n        emit DepositTaken(_tkname, stock[_tkname].price);\n    }\n\n    function AgentApproveWithBTK(string memory _tkname) public validDestination(stock[_tkname].seller) validProduct(_tkname) {\n        require (msg.sender == agent, \"Only agent can call the redeem function.\");\n        require (stock[_tkname].state == EscrowState.DEPOSITTAKEN, \"No deposit found for this product.\");\n        require (block.timestamp < stock[_tkname].timeout, \"Agent can only approve the payment before the specified timeout.\");\n        btk.transfer(stock[_tkname].seller, stock[_tkname].price); // Escrow transfers the product price to seller\n        stock[_tkname].state = EscrowState.SELLERREDEEMED;\n    }\n\n    /**\n     * @notice Buyer can deny the payment upon unsatisfactory verification result or for other reasons.\n     */\n    function AgentDenyWithBTK(string memory _tkname) public validDestination(stock[_tkname].buyer) validProduct(_tkname) {\n        require (msg.sender == agent, \"Only agent can call the refund function.\");\n        require (stock[_tkname].state == EscrowState.DEPOSITTAKEN, \"No deposit found for this product.\");\n        require (block.timestamp > stock[_tkname].timeout, \"Agent can only issue the refund after the specified timeout.\");\n        btk.transfer(stock[_tkname].buyer, stock[_tkname].price);\n        stock[_tkname].state = EscrowState.BUYERDENIED;\n    }\n\n    /**\n     * @notice getters\n     */\n\n    function VerifyPackaging(string memory _tkname) public view validProduct(_tkname) returns (bool) {\n        (uint256 id, string memory metadata, string memory rstatus, string memory vstatus, address addr) = digitaltwin.queryToken(_tkname);\n        if (keccak256(abi.encodePacked(rstatus)) == keccak256(abi.encodePacked(\"packaging verified\"))) {\n            return true;\n        } else {\n            return false;\n        }\n    }\n\n    function VerifyProduct(string memory _tkname) public view validProduct(_tkname) returns (bool) {\n        (uint256 id, string memory metadata, string memory rstatus, string memory vstatus, address addr) = digitaltwin.queryToken(_tkname);\n        if (keccak256(abi.encodePacked(vstatus)) == keccak256(abi.encodePacked(\"product verified\"))) {\n            return true;\n        } else {\n            return false;\n        }\n    }\n\n    function QueryProduct(string memory _tkname) public view validProduct(_tkname) returns(uint256, string memory, address, address) {\n        string memory state;\n\n        if (stock[_tkname].state == EscrowState.OFFERED) {\n            state = \"product on offer\";\n        } else if (stock[_tkname].state == EscrowState.DEPOSITTAKEN) {\n            state = \"deposit taken\";\n        } else if (stock[_tkname].state == EscrowState.SELLERREDEEMED) {\n            state = \"payment successful\";\n        } else if (stock[_tkname].state == EscrowState.BUYERDENIED) {\n            state = \"payment returned\";\n        } else {\n            state = \"unknown escrow state\";\n        }\n\n        return (stock[_tkname].price, state, stock[_tkname].seller, stock[_tkname].buyer);\n    }\n\n    function QueryAllProducts() \n        public\n        view\n        returns\n    (\n        string[] memory, \n        uint256[] memory, \n        string[] memory,\n        address[] memory,\n        address[] memory\n    )\n    {\n        uint256[] memory prices = new uint256[](allproducts.length);\n        string[] memory states = new string[](allproducts.length);\n        address[] memory sellers = new address[](allproducts.length);\n        address[] memory buyers = new address[](allproducts.length);\n\n        for(uint i=0; i<allproducts.length; i++){\n            prices[i] = stock[allproducts[i]].price;\n\n            if (stock[allproducts[i]].state == EscrowState.OFFERED) {\n                states[i] = \"product on offer\";\n            } else if (stock[allproducts[i]].state == EscrowState.DEPOSITTAKEN) {\n                states[i] = \"deposit taken\";\n            } else if (stock[allproducts[i]].state == EscrowState.SELLERREDEEMED) {\n                states[i] = \"payment successful\";\n            } else if (stock[allproducts[i]].state == EscrowState.BUYERDENIED) {\n                states[i] = \"payment returned\";\n            } else {\n                states[i] = \"unknown escrow state\";\n            }\n\n            sellers[i] = stock[allproducts[i]].seller;\n            buyers[i] = stock[allproducts[i]].buyer;\n        }\n\n        return (allproducts, prices, states, sellers, buyers);\n    }\n}",
  "sourcePath": "/home/yih/Documents/dev/beston-dapps/contracts/Escrow.sol",
  "compiler": {
    "name": "solc",
    "version": "0.8.7+commit.e28d00a7.Emscripten.clang"
  },
  "schemaVersion": "3.4.1",
  "updatedAt": "2023-02-10T05:37:14.212Z",
  "networkType": "ethereum",
  "devdoc": {
    "author": "Yining Hu",
    "details": "contract currently assume one buyer account and one seller account, should develop an additional wallet contract and allow new user registrationTodo: to implement multi-sig, time-based escrowTodo: the easiest would be to transfer both money and ownership of the product to the agent then to prevent agent from taking everything, agent needs to deposit, which can be slashed if caught faulty",
    "kind": "dev",
    "methods": {
      "constructor": {
        "details": "before setting up any user wallet, all buyers/sellers use a single buyer/seller address, which are maintained by Beston."
      }
    },
    "title": "EscrowService Contract, forked from https://github.com/AleRapchan/escrow-service",
    "version": 1
  },
  "userdoc": {
    "kind": "user",
    "methods": {
      "AgentDenyWithBTK(string)": {
        "notice": "Buyer can deny the payment upon unsatisfactory verification result or for other reasons."
      },
      "BuyerDepositWithBTK(string,uint256)": {
        "notice": "Buyer can make a deposit to products on offer"
      },
      "VerifyPackaging(string)": {
        "notice": "getters"
      },
      "buyBTK(address)": {
        "notice": "buyBTK allows a caller to buy BTK from Escrow sellBTK allows a caller to sell BTK to Escrow"
      }
    },
    "notice": "Building a single role access control Escrow Service using OpenZeppelin Escrow and RBAC",
    "version": 1
  }
}