{
  "contractName": "Escrow",
  "abi": [
    {
      "inputs": [
        {
          "internalType": "contract DigitalTwin",
          "name": "_digitaltwin",
          "type": "address"
        }
      ],
      "stateMutability": "nonpayable",
      "type": "constructor"
    },
    {
      "anonymous": false,
      "inputs": [
        {
          "indexed": false,
          "internalType": "string",
          "name": "tkname",
          "type": "string"
        },
        {
          "indexed": false,
          "internalType": "uint256",
          "name": "price",
          "type": "uint256"
        }
      ],
      "name": "DepositTaken",
      "type": "event"
    },
    {
      "inputs": [],
      "name": "btk",
      "outputs": [
        {
          "internalType": "contract BToken",
          "name": "",
          "type": "address"
        }
      ],
      "stateMutability": "view",
      "type": "function",
      "constant": true
    },
    {
      "inputs": [],
      "name": "digitaltwin",
      "outputs": [
        {
          "internalType": "contract DigitalTwin",
          "name": "",
          "type": "address"
        }
      ],
      "stateMutability": "view",
      "type": "function",
      "constant": true
    },
    {
      "inputs": [],
      "name": "fee_btk",
      "outputs": [
        {
          "internalType": "uint256",
          "name": "",
          "type": "uint256"
        }
      ],
      "stateMutability": "view",
      "type": "function",
      "constant": true
    },
    {
      "inputs": [
        {
          "internalType": "string",
          "name": "",
          "type": "string"
        }
      ],
      "name": "productExists",
      "outputs": [
        {
          "internalType": "bool",
          "name": "",
          "type": "bool"
        }
      ],
      "stateMutability": "view",
      "type": "function",
      "constant": true
    },
    {
      "inputs": [
        {
          "internalType": "string",
          "name": "",
          "type": "string"
        }
      ],
      "name": "stock",
      "outputs": [
        {
          "internalType": "uint256",
          "name": "price",
          "type": "uint256"
        },
        {
          "internalType": "address",
          "name": "buyer",
          "type": "address"
        },
        {
          "internalType": "address",
          "name": "seller",
          "type": "address"
        },
        {
          "internalType": "enum Escrow.EscrowState",
          "name": "state",
          "type": "uint8"
        },
        {
          "internalType": "uint256",
          "name": "timeout",
          "type": "uint256"
        }
      ],
      "stateMutability": "view",
      "type": "function",
      "constant": true
    },
    {
      "inputs": [
        {
          "internalType": "string",
          "name": "_tkname",
          "type": "string"
        },
        {
          "internalType": "uint256",
          "name": "_price",
          "type": "uint256"
        }
      ],
      "name": "offer",
      "outputs": [],
      "stateMutability": "nonpayable",
      "type": "function"
    },
    {
      "inputs": [],
      "name": "buyBTK",
      "outputs": [],
      "stateMutability": "payable",
      "type": "function",
      "payable": true
    },
    {
      "inputs": [
        {
          "internalType": "uint256",
          "name": "amount",
          "type": "uint256"
        }
      ],
      "name": "sellBTK",
      "outputs": [],
      "stateMutability": "nonpayable",
      "type": "function"
    },
    {
      "inputs": [
        {
          "internalType": "string",
          "name": "_tkname",
          "type": "string"
        },
        {
          "internalType": "uint256",
          "name": "_deposit",
          "type": "uint256"
        }
      ],
      "name": "BuyerDepositWithBTK",
      "outputs": [],
      "stateMutability": "nonpayable",
      "type": "function"
    },
    {
      "inputs": [
        {
          "internalType": "string",
          "name": "_tkname",
          "type": "string"
        }
      ],
      "name": "AgentApproveWithBTK",
      "outputs": [],
      "stateMutability": "nonpayable",
      "type": "function"
    },
    {
      "inputs": [
        {
          "internalType": "string",
          "name": "_tkname",
          "type": "string"
        }
      ],
      "name": "AgentDenyWithBTK",
      "outputs": [],
      "stateMutability": "nonpayable",
      "type": "function"
    },
    {
      "inputs": [
        {
          "internalType": "string",
          "name": "_tkname",
          "type": "string"
        }
      ],
      "name": "VerifyPackaging",
      "outputs": [
        {
          "internalType": "bool",
          "name": "",
          "type": "bool"
        }
      ],
      "stateMutability": "view",
      "type": "function",
      "constant": true
    },
    {
      "inputs": [
        {
          "internalType": "string",
          "name": "_tkname",
          "type": "string"
        }
      ],
      "name": "VerifyProduct",
      "outputs": [
        {
          "internalType": "bool",
          "name": "",
          "type": "bool"
        }
      ],
      "stateMutability": "view",
      "type": "function",
      "constant": true
    },
    {
      "inputs": [
        {
          "internalType": "string",
          "name": "_tkname",
          "type": "string"
        }
      ],
      "name": "QueryProduct",
      "outputs": [
        {
          "internalType": "uint256",
          "name": "",
          "type": "uint256"
        },
        {
          "internalType": "string",
          "name": "",
          "type": "string"
        },
        {
          "internalType": "address",
          "name": "",
          "type": "address"
        },
        {
          "internalType": "address",
          "name": "",
          "type": "address"
        }
      ],
      "stateMutability": "view",
      "type": "function",
      "constant": true
    },
    {
      "inputs": [],
      "name": "QueryAllProducts",
      "outputs": [
        {
          "internalType": "string[]",
          "name": "",
          "type": "string[]"
        },
        {
          "internalType": "uint256[]",
          "name": "",
          "type": "uint256[]"
        },
        {
          "internalType": "string[]",
          "name": "",
          "type": "string[]"
        },
        {
          "internalType": "address[]",
          "name": "",
          "type": "address[]"
        },
        {
          "internalType": "address[]",
          "name": "",
          "type": "address[]"
        }
      ],
      "stateMutability": "view",
      "type": "function",
      "constant": true
    },
    {
      "inputs": [
        {
          "internalType": "address",
          "name": "addr",
          "type": "address"
        }
      ],
      "name": "GetBalance",
      "outputs": [
        {
          "internalType": "uint256",
          "name": "",
          "type": "uint256"
        }
      ],
      "stateMutability": "view",
      "type": "function",
      "constant": true
    }
  ],
  "bytecode": "0x60806040523480156200001157600080fd5b506040516200614138038062006141833981810160405281019062000037919062000170565b80600360006101000a81548173ffffffffffffffffffffffffffffffffffffffff021916908373ffffffffffffffffffffffffffffffffffffffff160217905550620f42406040516200008a906200014b565b620000969190620001da565b604051809103906000f080158015620000b3573d6000803e3d6000fd5b50600460006101000a81548173ffffffffffffffffffffffffffffffffffffffff021916908373ffffffffffffffffffffffffffffffffffffffff160217905550336000806101000a81548173ffffffffffffffffffffffffffffffffffffffff021916908373ffffffffffffffffffffffffffffffffffffffff1602179055506001808190555061012c60028190555050620002e0565b611a23806200471e83390190565b6000815190506200016a81620002c6565b92915050565b60006020828403121562000189576200018862000298565b5b6000620001998482850162000159565b91505092915050565b620001ad8162000284565b82525050565b6000620001c260028362000221565b9150620001cf826200029d565b602082019050919050565b60006060820190508181036000830152620001f581620001b3565b905081810360208301526200020a81620001b3565b90506200021b6040830184620001a2565b92915050565b600082825260208201905092915050565b60006200023f826200025a565b9050919050565b6000620002538262000232565b9050919050565b600073ffffffffffffffffffffffffffffffffffffffff82169050919050565b6000819050919050565b600062000291826200027a565b9050919050565b600080fd5b7f4254000000000000000000000000000000000000000000000000000000000000600082015250565b620002d18162000246565b8114620002dd57600080fd5b50565b61442e80620002f06000396000f3fe6080604052600436106100f35760003560e01c8063a00cbd5b1161008a578063eef0613811610059578063eef0613814610322578063f2922cf41461034b578063f8c3540b14610376578063fd9908e3146103b3576100f3565b8063a00cbd5b14610253578063bc9d30c714610293578063c4e0827a146102bc578063cc763608146102e5576100f3565b80636056f119116100c65780636056f119146101935780637a76f2e2146101c257806386dc434b146101eb5780638addc05114610216576100f3565b80630a7182e5146100f85780632ca9f4bd146101215780632f59b3f71461014c57806343e2e50414610156575b600080fd5b34801561010457600080fd5b5061011f600480360381019061011a9190612e06565b6103f4565b005b34801561012d57600080fd5b50610136610868565b6040516101439190613709565b60405180910390f35b61015461088e565b005b34801561016257600080fd5b5061017d60048036038101906101789190612dac565b610a7c565b60405161018a91906139e1565b60405180910390f35b34801561019f57600080fd5b506101a8610a9d565b6040516101b9959493929190613678565b60405180910390f35b3480156101ce57600080fd5b506101e960048036038101906101e49190612e06565b611255565b005b3480156101f757600080fd5b506102006116c9565b60405161020d9190613724565b60405180910390f35b34801561022257600080fd5b5061023d60048036038101906102389190612e06565b6116ef565b60405161024a91906136ee565b60405180910390f35b34801561025f57600080fd5b5061027a60048036038101906102759190612e06565b611725565b60405161028a9493929190613a4f565b60405180910390f35b34801561029f57600080fd5b506102ba60048036038101906102b59190612e4f565b611aed565b005b3480156102c857600080fd5b506102e360048036038101906102de9190612eab565b61200e565b005b3480156102f157600080fd5b5061030c60048036038101906103079190612e06565b612242565b60405161031991906136ee565b60405180910390f35b34801561032e57600080fd5b5061034960048036038101906103449190612e4f565b6123e2565b005b34801561035757600080fd5b50610360612914565b60405161036d91906139e1565b60405180910390f35b34801561038257600080fd5b5061039d60048036038101906103989190612e06565b61291a565b6040516103aa91906136ee565b60405180910390f35b3480156103bf57600080fd5b506103da60048036038101906103d59190612e06565b612aba565b6040516103eb9594939291906139fc565b60405180910390f35b600681604051610404919061357c565b908152602001604051809103902060020160009054906101000a900473ffffffffffffffffffffffffffffffffffffffff16600073ffffffffffffffffffffffffffffffffffffffff168173ffffffffffffffffffffffffffffffffffffffff1614156104a6576040517f08c379a000000000000000000000000000000000000000000000000000000000815260040161049d906138c1565b60405180910390fd5b3073ffffffffffffffffffffffffffffffffffffffff168173ffffffffffffffffffffffffffffffffffffffff161415610515576040517f08c379a000000000000000000000000000000000000000000000000000000000815260040161050c906139a1565b60405180910390fd5b81600781604051610526919061357c565b908152602001604051809103902060009054906101000a900460ff16610581576040517f08c379a000000000000000000000000000000000000000000000000000000000815260040161057890613801565b60405180910390fd5b60008054906101000a900473ffffffffffffffffffffffffffffffffffffffff1673ffffffffffffffffffffffffffffffffffffffff163373ffffffffffffffffffffffffffffffffffffffff161461060f576040517f08c379a000000000000000000000000000000000000000000000000000000000815260040161060690613901565b60405180910390fd5b6001600381111561062357610622613e11565b5b600684604051610633919061357c565b908152602001604051809103902060020160149054906101000a900460ff16600381111561066457610663613e11565b5b146106a4576040517f08c379a000000000000000000000000000000000000000000000000000000000815260040161069b906137e1565b60405180910390fd5b6006836040516106b4919061357c565b9081526020016040518091039020600301544210610707576040517f08c379a00000000000000000000000000000000000000000000000000000000081526004016106fe90613841565b60405180910390fd5b600460009054906101000a900473ffffffffffffffffffffffffffffffffffffffff1673ffffffffffffffffffffffffffffffffffffffff1663a9059cbb600685604051610755919061357c565b908152602001604051809103902060020160009054906101000a900473ffffffffffffffffffffffffffffffffffffffff16600686604051610797919061357c565b9081526020016040518091039020600001546040518363ffffffff1660e01b81526004016107c692919061364f565b602060405180830381600087803b1580156107e057600080fd5b505af11580156107f4573d6000803e3d6000fd5b505050506040513d601f19601f820116820180604052508101906108189190612dd9565b50600260068460405161082b919061357c565b908152602001604051809103902060020160146101000a81548160ff0219169083600381111561085e5761085d613e11565b5b0217905550505050565b600460009054906101000a900473ffffffffffffffffffffffffffffffffffffffff1681565b60003490506000600460009054906101000a900473ffffffffffffffffffffffffffffffffffffffff1673ffffffffffffffffffffffffffffffffffffffff166370a08231306040518263ffffffff1660e01b81526004016108f091906135d4565b60206040518083038186803b15801561090857600080fd5b505afa15801561091c573d6000803e3d6000fd5b505050506040513d601f19601f820116820180604052508101906109409190612ed8565b905060008211610985576040517f08c379a000000000000000000000000000000000000000000000000000000000815260040161097c90613961565b60405180910390fd5b808211156109c8576040517f08c379a00000000000000000000000000000000000000000000000000000000081526004016109bf90613941565b60405180910390fd5b600460009054906101000a900473ffffffffffffffffffffffffffffffffffffffff1673ffffffffffffffffffffffffffffffffffffffff1663a9059cbb33846040518363ffffffff1660e01b8152600401610a2592919061364f565b602060405180830381600087803b158015610a3f57600080fd5b505af1158015610a53573d6000803e3d6000fd5b505050506040513d601f19601f82011682018060405250810190610a779190612dd9565b505050565b60008173ffffffffffffffffffffffffffffffffffffffff16319050919050565b6060806060806060600060058054905067ffffffffffffffff811115610ac657610ac5613e9e565b5b604051908082528060200260200182016040528015610af45781602001602082028036833780820191505090505b509050600060058054905067ffffffffffffffff811115610b1857610b17613e9e565b5b604051908082528060200260200182016040528015610b4b57816020015b6060815260200190600190039081610b365790505b509050600060058054905067ffffffffffffffff811115610b6f57610b6e613e9e565b5b604051908082528060200260200182016040528015610b9d5781602001602082028036833780820191505090505b509050600060058054905067ffffffffffffffff811115610bc157610bc0613e9e565b5b604051908082528060200260200182016040528015610bef5781602001602082028036833780820191505090505b50905060005b60058054905081101561116657600660058281548110610c1857610c17613e6f565b5b90600052602060002001604051610c2f9190613593565b908152602001604051809103902060000154858281518110610c5457610c53613e6f565b5b60200260200101818152505060006003811115610c7457610c73613e11565b5b600660058381548110610c8a57610c89613e6f565b5b90600052602060002001604051610ca19190613593565b908152602001604051809103902060020160149054906101000a900460ff166003811115610cd257610cd1613e11565b5b1415610d31576040518060400160405280601081526020017f70726f64756374206f6e206f6666657200000000000000000000000000000000815250848281518110610d2157610d20613e6f565b5b6020026020010181905250610ffb565b60016003811115610d4557610d44613e11565b5b600660058381548110610d5b57610d5a613e6f565b5b90600052602060002001604051610d729190613593565b908152602001604051809103902060020160149054906101000a900460ff166003811115610da357610da2613e11565b5b1415610e02576040518060400160405280600d81526020017f6465706f7369742074616b656e00000000000000000000000000000000000000815250848281518110610df257610df1613e6f565b5b6020026020010181905250610ffa565b60026003811115610e1657610e15613e11565b5b600660058381548110610e2c57610e2b613e6f565b5b90600052602060002001604051610e439190613593565b908152602001604051809103902060020160149054906101000a900460ff166003811115610e7457610e73613e11565b5b1415610ed3576040518060400160405280601281526020017f7061796d656e74207375636365737366756c0000000000000000000000000000815250848281518110610ec357610ec2613e6f565b5b6020026020010181905250610ff9565b600380811115610ee657610ee5613e11565b5b600660058381548110610efc57610efb613e6f565b5b90600052602060002001604051610f139190613593565b908152602001604051809103902060020160149054906101000a900460ff166003811115610f4457610f43613e11565b5b1415610fa3576040518060400160405280601081526020017f7061796d656e742072657475726e656400000000000000000000000000000000815250848281518110610f9357610f92613e6f565b5b6020026020010181905250610ff8565b6040518060400160405280601481526020017f756e6b6e6f776e20657363726f77207374617465000000000000000000000000815250848281518110610fec57610feb613e6f565b5b60200260200101819052505b5b5b5b60066005828154811061101157611010613e6f565b5b906000526020600020016040516110289190613593565b908152602001604051809103902060020160009054906101000a900473ffffffffffffffffffffffffffffffffffffffff1683828151811061106d5761106c613e6f565b5b602002602001019073ffffffffffffffffffffffffffffffffffffffff16908173ffffffffffffffffffffffffffffffffffffffff16815250506006600582815481106110bd576110bc613e6f565b5b906000526020600020016040516110d49190613593565b908152602001604051809103902060010160009054906101000a900473ffffffffffffffffffffffffffffffffffffffff1682828151811061111957611118613e6f565b5b602002602001019073ffffffffffffffffffffffffffffffffffffffff16908173ffffffffffffffffffffffffffffffffffffffff1681525050808061115e90613d99565b915050610bf5565b5060058484848484805480602002602001604051908101604052809291908181526020016000905b8282101561123a5783829060005260206000200180546111ad90613d36565b80601f01602080910402602001604051908101604052809291908181526020018280546111d990613d36565b80156112265780601f106111fb57610100808354040283529160200191611226565b820191906000526020600020905b81548152906001019060200180831161120957829003601f168201915b50505050508152602001906001019061118e565b50505050945098509850985098509850505050509091929394565b600681604051611265919061357c565b908152602001604051809103902060010160009054906101000a900473ffffffffffffffffffffffffffffffffffffffff16600073ffffffffffffffffffffffffffffffffffffffff168173ffffffffffffffffffffffffffffffffffffffff161415611307576040517f08c379a00000000000000000000000000000000000000000000000000000000081526004016112fe906138c1565b60405180910390fd5b3073ffffffffffffffffffffffffffffffffffffffff168173ffffffffffffffffffffffffffffffffffffffff161415611376576040517f08c379a000000000000000000000000000000000000000000000000000000000815260040161136d906139a1565b60405180910390fd5b81600781604051611387919061357c565b908152602001604051809103902060009054906101000a900460ff166113e2576040517f08c379a00000000000000000000000000000000000000000000000000000000081526004016113d990613801565b60405180910390fd5b60008054906101000a900473ffffffffffffffffffffffffffffffffffffffff1673ffffffffffffffffffffffffffffffffffffffff163373ffffffffffffffffffffffffffffffffffffffff1614611470576040517f08c379a0000000000000000000000000000000000000000000000000000000008152600401611467906138a1565b60405180910390fd5b6001600381111561148457611483613e11565b5b600684604051611494919061357c565b908152602001604051809103902060020160149054906101000a900460ff1660038111156114c5576114c4613e11565b5b14611505576040517f08c379a00000000000000000000000000000000000000000000000000000000081526004016114fc906137e1565b60405180910390fd5b600683604051611515919061357c565b9081526020016040518091039020600301544211611568576040517f08c379a000000000000000000000000000000000000000000000000000000000815260040161155f906137c1565b60405180910390fd5b600460009054906101000a900473ffffffffffffffffffffffffffffffffffffffff1673ffffffffffffffffffffffffffffffffffffffff1663a9059cbb6006856040516115b6919061357c565b908152602001604051809103902060010160009054906101000a900473ffffffffffffffffffffffffffffffffffffffff166006866040516115f8919061357c565b9081526020016040518091039020600001546040518363ffffffff1660e01b815260040161162792919061364f565b602060405180830381600087803b15801561164157600080fd5b505af1158015611655573d6000803e3d6000fd5b505050506040513d601f19601f820116820180604052508101906116799190612dd9565b50600360068460405161168c919061357c565b908152602001604051809103902060020160146101000a81548160ff021916908360038111156116bf576116be613e11565b5b0217905550505050565b600360009054906101000a900473ffffffffffffffffffffffffffffffffffffffff1681565b6007818051602081018201805184825260208301602085012081835280955050505050506000915054906101000a900460ff1681565b600060606000808460078160405161173d919061357c565b908152602001604051809103902060009054906101000a900460ff16611798576040517f08c379a000000000000000000000000000000000000000000000000000000000815260040161178f90613801565b60405180910390fd5b6060600060038111156117ae576117ad613e11565b5b6006886040516117be919061357c565b908152602001604051809103902060020160149054906101000a900460ff1660038111156117ef576117ee613e11565b5b1415611832576040518060400160405280601081526020017f70726f64756374206f6e206f66666572000000000000000000000000000000008152509050611a35565b6001600381111561184657611845613e11565b5b600688604051611856919061357c565b908152602001604051809103902060020160149054906101000a900460ff16600381111561188757611886613e11565b5b14156118ca576040518060400160405280600d81526020017f6465706f7369742074616b656e000000000000000000000000000000000000008152509050611a34565b600260038111156118de576118dd613e11565b5b6006886040516118ee919061357c565b908152602001604051809103902060020160149054906101000a900460ff16600381111561191f5761191e613e11565b5b1415611962576040518060400160405280601281526020017f7061796d656e74207375636365737366756c00000000000000000000000000008152509050611a33565b60038081111561197557611974613e11565b5b600688604051611985919061357c565b908152602001604051809103902060020160149054906101000a900460ff1660038111156119b6576119b5613e11565b5b14156119f9576040518060400160405280601081526020017f7061796d656e742072657475726e6564000000000000000000000000000000008152509050611a32565b6040518060400160405280601481526020017f756e6b6e6f776e20657363726f7720737461746500000000000000000000000081525090505b5b5b5b600687604051611a45919061357c565b90815260200160405180910390206000015481600689604051611a68919061357c565b908152602001604051809103902060020160009054906101000a900473ffffffffffffffffffffffffffffffffffffffff1660068a604051611aaa919061357c565b908152602001604051809103902060010160009054906101000a900473ffffffffffffffffffffffffffffffffffffffff16955095509550955050509193509193565b600782604051611afd919061357c565b908152602001604051809103902060009054906101000a900460ff1615611b59576040517f08c379a0000000000000000000000000000000000000000000000000000000008152600401611b5090613821565b60405180910390fd5b600360009054906101000a900473ffffffffffffffffffffffffffffffffffffffff1673ffffffffffffffffffffffffffffffffffffffff16630ad5b505836040518263ffffffff1660e01b8152600401611bb4919061373f565b60206040518083038186803b158015611bcc57600080fd5b505afa158015611be0573d6000803e3d6000fd5b505050506040513d601f19601f82011682018060405250810190611c049190612dd9565b611c43576040517f08c379a0000000000000000000000000000000000000000000000000000000008152600401611c3a906138e1565b60405180910390fd5b6000806000806000600360009054906101000a900473ffffffffffffffffffffffffffffffffffffffff1673ffffffffffffffffffffffffffffffffffffffff1663c5573d46886040518263ffffffff1660e01b8152600401611ca6919061373f565b60006040518083038186803b158015611cbe57600080fd5b505afa158015611cd2573d6000803e3d6000fd5b505050506040513d6000823e3d601f19601f82011682018060405250810190611cfb9190612f05565b945094509450945094508073ffffffffffffffffffffffffffffffffffffffff163373ffffffffffffffffffffffffffffffffffffffff1614611d73576040517f08c379a0000000000000000000000000000000000000000000000000000000008152600401611d6a90613921565b60405180910390fd5b611d7b612b53565b86816000018181525050600081606001906003811115611d9e57611d9d613e11565b5b90816003811115611db257611db1613e11565b5b8152505033816040019073ffffffffffffffffffffffffffffffffffffffff16908173ffffffffffffffffffffffffffffffffffffffff168152505080600689604051611dff919061357c565b90815260200160405180910390206000820151816000015560208201518160010160006101000a81548173ffffffffffffffffffffffffffffffffffffffff021916908373ffffffffffffffffffffffffffffffffffffffff16021790555060408201518160020160006101000a81548173ffffffffffffffffffffffffffffffffffffffff021916908373ffffffffffffffffffffffffffffffffffffffff16021790555060608201518160020160146101000a81548160ff02191690836003811115611ed057611ecf613e11565b5b0217905550608082015181600301559050506001600789604051611ef4919061357c565b908152602001604051809103902060006101000a81548160ff021916908315150217905550600588908060018154018082558091505060019003906000526020600020016000909190919091509080519060200190611f54929190612bc0565b50600360009054906101000a900473ffffffffffffffffffffffffffffffffffffffff1673ffffffffffffffffffffffffffffffffffffffff16630d202ced8960008054906101000a900473ffffffffffffffffffffffffffffffffffffffff166040518363ffffffff1660e01b8152600401611fd2929190613761565b600060405180830381600087803b158015611fec57600080fd5b505af1158015612000573d6000803e3d6000fd5b505050505050505050505050565b60008111612051576040517f08c379a000000000000000000000000000000000000000000000000000000000815260040161204890613861565b60405180910390fd5b6000600460009054906101000a900473ffffffffffffffffffffffffffffffffffffffff1673ffffffffffffffffffffffffffffffffffffffff1663dd62ed3e33306040518363ffffffff1660e01b81526004016120b09291906135ef565b60206040518083038186803b1580156120c857600080fd5b505afa1580156120dc573d6000803e3d6000fd5b505050506040513d601f19601f820116820180604052508101906121009190612ed8565b905081811015612145576040517f08c379a000000000000000000000000000000000000000000000000000000000815260040161213c90613881565b60405180910390fd5b600460009054906101000a900473ffffffffffffffffffffffffffffffffffffffff1673ffffffffffffffffffffffffffffffffffffffff166323b872dd3330856040518463ffffffff1660e01b81526004016121a493929190613618565b602060405180830381600087803b1580156121be57600080fd5b505af11580156121d2573d6000803e3d6000fd5b505050506040513d601f19601f820116820180604052508101906121f69190612dd9565b503373ffffffffffffffffffffffffffffffffffffffff166108fc839081150290604051600060405180830381858888f1935050505015801561223d573d6000803e3d6000fd5b505050565b600081600781604051612255919061357c565b908152602001604051809103902060009054906101000a900460ff166122b0576040517f08c379a00000000000000000000000000000000000000000000000000000000081526004016122a790613801565b60405180910390fd5b6000806000806000600360009054906101000a900473ffffffffffffffffffffffffffffffffffffffff1673ffffffffffffffffffffffffffffffffffffffff1663c5573d46896040518263ffffffff1660e01b8152600401612313919061373f565b60006040518083038186803b15801561232b57600080fd5b505afa15801561233f573d6000803e3d6000fd5b505050506040513d6000823e3d601f19601f820116820180604052508101906123689190612f05565b94509450945094509450604051602001612381906135aa565b60405160208183030381529060405280519060200120836040516020016123a8919061357c565b6040516020818303038152906040528051906020012014156123d2576001965050505050506123dc565b6000965050505050505b50919050565b60008054906101000a900473ffffffffffffffffffffffffffffffffffffffff16600073ffffffffffffffffffffffffffffffffffffffff168173ffffffffffffffffffffffffffffffffffffffff161415612473576040517f08c379a000000000000000000000000000000000000000000000000000000000815260040161246a906138c1565b60405180910390fd5b3073ffffffffffffffffffffffffffffffffffffffff168173ffffffffffffffffffffffffffffffffffffffff1614156124e2576040517f08c379a00000000000000000000000000000000000000000000000000000000081526004016124d9906139a1565b60405180910390fd5b826007816040516124f3919061357c565b908152602001604051809103902060009054906101000a900460ff1661254e576040517f08c379a000000000000000000000000000000000000000000000000000000000815260040161254590613801565b60405180910390fd5b60068460405161255e919061357c565b90815260200160405180910390206000015460015461257d9190613be9565b83146125be576040517f08c379a00000000000000000000000000000000000000000000000000000000081526004016125b590613981565b60405180910390fd5b600060038111156125d2576125d1613e11565b5b6006856040516125e2919061357c565b908152602001604051809103902060020160149054906101000a900460ff16600381111561261357612612613e11565b5b14612653576040517f08c379a000000000000000000000000000000000000000000000000000000000815260040161264a906139c1565b60405180910390fd5b33600685604051612664919061357c565b908152602001604051809103902060010160006101000a81548173ffffffffffffffffffffffffffffffffffffffff021916908373ffffffffffffffffffffffffffffffffffffffff16021790555060016006856040516126c5919061357c565b908152602001604051809103902060020160146101000a81548160ff021916908360038111156126f8576126f7613e11565b5b02179055506002544261270b9190613be9565b60068560405161271b919061357c565b908152602001604051809103902060030181905550600460009054906101000a900473ffffffffffffffffffffffffffffffffffffffff1673ffffffffffffffffffffffffffffffffffffffff166323b872dd3330866040518463ffffffff1660e01b815260040161278f93929190613618565b602060405180830381600087803b1580156127a957600080fd5b505af11580156127bd573d6000803e3d6000fd5b505050506040513d601f19601f820116820180604052508101906127e19190612dd9565b50600460009054906101000a900473ffffffffffffffffffffffffffffffffffffffff1673ffffffffffffffffffffffffffffffffffffffff1663a9059cbb60008054906101000a900473ffffffffffffffffffffffffffffffffffffffff166001546040518363ffffffff1660e01b815260040161286192919061364f565b602060405180830381600087803b15801561287b57600080fd5b505af115801561288f573d6000803e3d6000fd5b505050506040513d601f19601f820116820180604052508101906128b39190612dd9565b507f6b4150c430f0b9b9df0f255d6761fd17eefed34257973ab988203c832edbcc23846006866040516128e6919061357c565b908152602001604051809103902060000154604051612906929190613791565b60405180910390a150505050565b60015481565b60008160078160405161292d919061357c565b908152602001604051809103902060009054906101000a900460ff16612988576040517f08c379a000000000000000000000000000000000000000000000000000000000815260040161297f90613801565b60405180910390fd5b6000806000806000600360009054906101000a900473ffffffffffffffffffffffffffffffffffffffff1673ffffffffffffffffffffffffffffffffffffffff1663c5573d46896040518263ffffffff1660e01b81526004016129eb919061373f565b60006040518083038186803b158015612a0357600080fd5b505afa158015612a17573d6000803e3d6000fd5b505050506040513d6000823e3d601f19601f82011682018060405250810190612a409190612f05565b94509450945094509450604051602001612a59906135bf565b6040516020818303038152906040528051906020012082604051602001612a80919061357c565b604051602081830303815290604052805190602001201415612aaa57600196505050505050612ab4565b6000965050505050505b50919050565b6006818051602081018201805184825260208301602085012081835280955050505050506000915090508060000154908060010160009054906101000a900473ffffffffffffffffffffffffffffffffffffffff16908060020160009054906101000a900473ffffffffffffffffffffffffffffffffffffffff16908060020160149054906101000a900460ff16908060030154905085565b6040518060a0016040528060008152602001600073ffffffffffffffffffffffffffffffffffffffff168152602001600073ffffffffffffffffffffffffffffffffffffffff16815260200160006003811115612bb357612bb2613e11565b5b8152602001600081525090565b828054612bcc90613d36565b90600052602060002090601f016020900481019282612bee5760008555612c35565b82601f10612c0757805160ff1916838001178555612c35565b82800160010185558215612c35579182015b82811115612c34578251825591602001919060010190612c19565b5b509050612c429190612c46565b5090565b5b80821115612c5f576000816000905550600101612c47565b5090565b6000612c76612c7184613ac0565b613a9b565b905082815260208101848484011115612c9257612c91613ed2565b5b612c9d848285613cf4565b509392505050565b6000612cb8612cb384613ac0565b613a9b565b905082815260208101848484011115612cd457612cd3613ed2565b5b612cdf848285613d03565b509392505050565b600081359050612cf6816143b3565b92915050565b600081519050612d0b816143b3565b92915050565b600081519050612d20816143ca565b92915050565b600082601f830112612d3b57612d3a613ecd565b5b8135612d4b848260208601612c63565b91505092915050565b600082601f830112612d6957612d68613ecd565b5b8151612d79848260208601612ca5565b91505092915050565b600081359050612d91816143e1565b92915050565b600081519050612da6816143e1565b92915050565b600060208284031215612dc257612dc1613edc565b5b6000612dd084828501612ce7565b91505092915050565b600060208284031215612def57612dee613edc565b5b6000612dfd84828501612d11565b91505092915050565b600060208284031215612e1c57612e1b613edc565b5b600082013567ffffffffffffffff811115612e3a57612e39613ed7565b5b612e4684828501612d26565b91505092915050565b60008060408385031215612e6657612e65613edc565b5b600083013567ffffffffffffffff811115612e8457612e83613ed7565b5b612e9085828601612d26565b9250506020612ea185828601612d82565b9150509250929050565b600060208284031215612ec157612ec0613edc565b5b6000612ecf84828501612d82565b91505092915050565b600060208284031215612eee57612eed613edc565b5b6000612efc84828501612d97565b91505092915050565b600080600080600060a08688031215612f2157612f20613edc565b5b6000612f2f88828901612d97565b955050602086015167ffffffffffffffff811115612f5057612f4f613ed7565b5b612f5c88828901612d54565b945050604086015167ffffffffffffffff811115612f7d57612f7c613ed7565b5b612f8988828901612d54565b935050606086015167ffffffffffffffff811115612faa57612fa9613ed7565b5b612fb688828901612d54565b9250506080612fc788828901612cfc565b9150509295509295909350565b6000612fe08383613018565b60208301905092915050565b6000612ff883836131a3565b905092915050565b600061300c838361355e565b60208301905092915050565b61302181613c3f565b82525050565b61303081613c3f565b82525050565b600061304182613b36565b61304b8185613b89565b935061305683613af1565b8060005b8381101561308757815161306e8882612fd4565b975061307983613b62565b92505060018101905061305a565b5085935050505092915050565b600061309f82613b41565b6130a98185613b9a565b9350836020820285016130bb85613b01565b8060005b858110156130f757848403895281516130d88582612fec565b94506130e383613b6f565b925060208a019950506001810190506130bf565b50829750879550505050505092915050565b600061311482613b4c565b61311e8185613bab565b935061312983613b11565b8060005b8381101561315a5781516131418882613000565b975061314c83613b7c565b92505060018101905061312d565b5085935050505092915050565b61317081613c51565b82525050565b61317f81613c9a565b82525050565b61318e81613cac565b82525050565b61319d81613cbe565b82525050565b60006131ae82613b57565b6131b88185613bbc565b93506131c8818560208601613d03565b6131d181613ee1565b840191505092915050565b60006131e782613b57565b6131f18185613bcd565b9350613201818560208601613d03565b61320a81613ee1565b840191505092915050565b600061322082613b57565b61322a8185613bde565b935061323a818560208601613d03565b80840191505092915050565b6000815461325381613d36565b61325d8186613bde565b945060018216600081146132785760018114613289576132bc565b60ff198316865281860193506132bc565b61329285613b21565b60005b838110156132b457815481890152600182019150602081019050613295565b838801955050505b50505092915050565b60006132d2603c83613bcd565b91506132dd82613ef2565b604082019050919050565b60006132f5602283613bcd565b915061330082613f41565b604082019050919050565b6000613318601783613bcd565b915061332382613f90565b602082019050919050565b600061333b601283613bde565b915061334682613fb9565b601282019050919050565b600061335e601b83613bcd565b915061336982613fe2565b602082019050919050565b6000613381604083613bcd565b915061338c8261400b565b604082019050919050565b60006133a4602583613bcd565b91506133af8261405a565b604082019050919050565b60006133c7601983613bcd565b91506133d2826140a9565b602082019050919050565b60006133ea602883613bcd565b91506133f5826140d2565b604082019050919050565b600061340d602683613bcd565b915061341882614121565b604082019050919050565b6000613430601c83613bcd565b915061343b82614170565b602082019050919050565b6000613453602883613bcd565b915061345e82614199565b604082019050919050565b6000613476603083613bcd565b9150613481826141e8565b604082019050919050565b6000613499602083613bcd565b91506134a482614237565b602082019050919050565b60006134bc601b83613bcd565b91506134c782614260565b602082019050919050565b60006134df604a83613bcd565b91506134ea82614289565b606082019050919050565b6000613502601083613bde565b915061350d826142fe565b601082019050919050565b6000613525602583613bcd565b915061353082614327565b604082019050919050565b6000613548601883613bcd565b915061355382614376565b602082019050919050565b61356781613c90565b82525050565b61357681613c90565b82525050565b60006135888284613215565b915081905092915050565b600061359f8284613246565b915081905092915050565b60006135b58261332e565b9150819050919050565b60006135ca826134f5565b9150819050919050565b60006020820190506135e96000830184613027565b92915050565b60006040820190506136046000830185613027565b6136116020830184613027565b9392505050565b600060608201905061362d6000830186613027565b61363a6020830185613027565b613647604083018461356d565b949350505050565b60006040820190506136646000830185613027565b613671602083018461356d565b9392505050565b600060a08201905081810360008301526136928188613094565b905081810360208301526136a68187613109565b905081810360408301526136ba8186613094565b905081810360608301526136ce8185613036565b905081810360808301526136e28184613036565b90509695505050505050565b60006020820190506137036000830184613167565b92915050565b600060208201905061371e6000830184613176565b92915050565b60006020820190506137396000830184613185565b92915050565b6000602082019050818103600083015261375981846131dc565b905092915050565b6000604082019050818103600083015261377b81856131dc565b905061378a6020830184613027565b9392505050565b600060408201905081810360008301526137ab81856131dc565b90506137ba602083018461356d565b9392505050565b600060208201905081810360008301526137da816132c5565b9050919050565b600060208201905081810360008301526137fa816132e8565b9050919050565b6000602082019050818103600083015261381a8161330b565b9050919050565b6000602082019050818103600083015261383a81613351565b9050919050565b6000602082019050818103600083015261385a81613374565b9050919050565b6000602082019050818103600083015261387a81613397565b9050919050565b6000602082019050818103600083015261389a816133ba565b9050919050565b600060208201905081810360008301526138ba816133dd565b9050919050565b600060208201905081810360008301526138da81613400565b9050919050565b600060208201905081810360008301526138fa81613423565b9050919050565b6000602082019050818103600083015261391a81613446565b9050919050565b6000602082019050818103600083015261393a81613469565b9050919050565b6000602082019050818103600083015261395a8161348c565b9050919050565b6000602082019050818103600083015261397a816134af565b9050919050565b6000602082019050818103600083015261399a816134d2565b9050919050565b600060208201905081810360008301526139ba81613518565b9050919050565b600060208201905081810360008301526139da8161353b565b9050919050565b60006020820190506139f6600083018461356d565b92915050565b600060a082019050613a11600083018861356d565b613a1e6020830187613027565b613a2b6040830186613027565b613a386060830185613194565b613a45608083018461356d565b9695505050505050565b6000608082019050613a64600083018761356d565b8181036020830152613a7681866131dc565b9050613a856040830185613027565b613a926060830184613027565b95945050505050565b6000613aa5613ab6565b9050613ab18282613d68565b919050565b6000604051905090565b600067ffffffffffffffff821115613adb57613ada613e9e565b5b613ae482613ee1565b9050602081019050919050565b6000819050602082019050919050565b6000819050602082019050919050565b6000819050602082019050919050565b60008190508160005260206000209050919050565b600081519050919050565b600081519050919050565b600081519050919050565b600081519050919050565b6000602082019050919050565b6000602082019050919050565b6000602082019050919050565b600082825260208201905092915050565b600082825260208201905092915050565b600082825260208201905092915050565b600082825260208201905092915050565b600082825260208201905092915050565b600081905092915050565b6000613bf482613c90565b9150613bff83613c90565b9250827fffffffffffffffffffffffffffffffffffffffffffffffffffffffffffffffff03821115613c3457613c33613de2565b5b828201905092915050565b6000613c4a82613c70565b9050919050565b60008115159050919050565b6000819050613c6b8261439f565b919050565b600073ffffffffffffffffffffffffffffffffffffffff82169050919050565b6000819050919050565b6000613ca582613cd0565b9050919050565b6000613cb782613cd0565b9050919050565b6000613cc982613c5d565b9050919050565b6000613cdb82613ce2565b9050919050565b6000613ced82613c70565b9050919050565b82818337600083830152505050565b60005b83811015613d21578082015181840152602081019050613d06565b83811115613d30576000848401525b50505050565b60006002820490506001821680613d4e57607f821691505b60208210811415613d6257613d61613e40565b5b50919050565b613d7182613ee1565b810181811067ffffffffffffffff82111715613d9057613d8f613e9e565b5b80604052505050565b6000613da482613c90565b91507fffffffffffffffffffffffffffffffffffffffffffffffffffffffffffffffff821415613dd757613dd6613de2565b5b600182019050919050565b7f4e487b7100000000000000000000000000000000000000000000000000000000600052601160045260246000fd5b7f4e487b7100000000000000000000000000000000000000000000000000000000600052602160045260246000fd5b7f4e487b7100000000000000000000000000000000000000000000000000000000600052602260045260246000fd5b7f4e487b7100000000000000000000000000000000000000000000000000000000600052603260045260246000fd5b7f4e487b7100000000000000000000000000000000000000000000000000000000600052604160045260246000fd5b600080fd5b600080fd5b600080fd5b600080fd5b6000601f19601f8301169050919050565b7f4167656e742063616e206f6e6c792069737375652074686520726566756e642060008201527f616674657220746865207370656369666965642074696d656f75742e00000000602082015250565b7f4e6f206465706f73697420666f756e6420666f7220746869732070726f64756360008201527f742e000000000000000000000000000000000000000000000000000000000000602082015250565b7f50726f6475637420646f6573206e6f742065786973742e000000000000000000600082015250565b7f7061636b6167696e672076657269666965640000000000000000000000000000600082015250565b7f50726f6475637420697320616c7265616479206f6666657265642e0000000000600082015250565b7f4167656e742063616e206f6e6c7920617070726f766520746865207061796d6560008201527f6e74206265666f726520746865207370656369666965642074696d656f75742e602082015250565b7f596f75206e65656420746f2073656c6c206174206c6561737420736f6d65207460008201527f6f6b656e73000000000000000000000000000000000000000000000000000000602082015250565b7f436865636b2074686520746f6b656e20616c6c6f77616e636500000000000000600082015250565b7f4f6e6c79206167656e742063616e2063616c6c2074686520726566756e64206660008201527f756e6374696f6e2e000000000000000000000000000000000000000000000000602082015250565b7f526563697069656e742073686f756c64206861766520612076616c696420616460008201527f6472657373210000000000000000000000000000000000000000000000000000602082015250565b7f50726f6475637420746f6b656e206973206e6f74206d696e7465642e00000000600082015250565b7f4f6e6c79206167656e742063616e2063616c6c207468652072656465656d206660008201527f756e6374696f6e2e000000000000000000000000000000000000000000000000602082015250565b7f4f6e6c79206f776e6572206f66206120746f6b656e2063616e206f666665722060008201527f697420617320612070726f647563742e00000000000000000000000000000000602082015250565b7f4e6f7420656e6f75676820746f6b656e7320696e207468652072657365727665600082015250565b7f596f75206e65656420746f2073656e6420736f6d652065746865720000000000600082015250565b7f506c65617365206d616b65207375726520796f7572206465706f73697420636f60008201527f7665727320626f7468207468652070726f6475637420707269636520616e642060208201527f6167656e74206665652100000000000000000000000000000000000000000000604082015250565b7f70726f6475637420766572696669656400000000000000000000000000000000600082015250565b7f526563697069656e742073686f756c64206e6f742062652074686520636f6e7460008201527f7261637421000000000000000000000000000000000000000000000000000000602082015250565b7f50726f64756374206973206e6f74206f6e206f66666572210000000000000000600082015250565b600481106143b0576143af613e11565b5b50565b6143bc81613c3f565b81146143c757600080fd5b50565b6143d381613c51565b81146143de57600080fd5b50565b6143ea81613c90565b81146143f557600080fd5b5056fea264697066735822122025c76c9740195d931274c31b55e9ee41ff4f4dabccaf7f541c452ed7e89215b964736f6c6343000807003360806040523480156200001157600080fd5b5060405162001a2338038062001a238339818101604052810190620000379190620003b3565b82828160039080519060200190620000519291906200026e565b5080600490805190602001906200006a9291906200026e565b50505033600560006101000a81548173ffffffffffffffffffffffffffffffffffffffff021916908373ffffffffffffffffffffffffffffffffffffffff160217905550620000e2600560009054906101000a900473ffffffffffffffffffffffffffffffffffffffff1682620000eb60201b60201c565b50505062000732565b600073ffffffffffffffffffffffffffffffffffffffff168273ffffffffffffffffffffffffffffffffffffffff1614156200015e576040517f08c379a0000000000000000000000000000000000000000000000000000000008152600401620001559062000485565b60405180910390fd5b62000172600083836200026460201b60201c565b806002600082825462000186919062000534565b92505081905550806000808473ffffffffffffffffffffffffffffffffffffffff1673ffffffffffffffffffffffffffffffffffffffff1681526020019081526020016000206000828254620001dd919062000534565b925050819055508173ffffffffffffffffffffffffffffffffffffffff16600073ffffffffffffffffffffffffffffffffffffffff167fddf252ad1be2c89b69c2b068fc378daa952ba7f163c4a11628f55a4df523b3ef83604051620002449190620004a7565b60405180910390a362000260600083836200026960201b60201c565b5050565b505050565b505050565b8280546200027c90620005d1565b90600052602060002090601f016020900481019282620002a05760008555620002ec565b82601f10620002bb57805160ff1916838001178555620002ec565b82800160010185558215620002ec579182015b82811115620002eb578251825591602001919060010190620002ce565b5b509050620002fb9190620002ff565b5090565b5b808211156200031a57600081600090555060010162000300565b5090565b6000620003356200032f84620004ed565b620004c4565b905082815260208101848484011115620003545762000353620006cf565b5b620003618482856200059b565b509392505050565b600082601f830112620003815762000380620006ca565b5b8151620003938482602086016200031e565b91505092915050565b600081519050620003ad8162000718565b92915050565b600080600060608486031215620003cf57620003ce620006d9565b5b600084015167ffffffffffffffff811115620003f057620003ef620006d4565b5b620003fe8682870162000369565b935050602084015167ffffffffffffffff811115620004225762000421620006d4565b5b620004308682870162000369565b925050604062000443868287016200039c565b9150509250925092565b60006200045c601f8362000523565b91506200046982620006ef565b602082019050919050565b6200047f8162000591565b82525050565b60006020820190508181036000830152620004a0816200044d565b9050919050565b6000602082019050620004be600083018462000474565b92915050565b6000620004d0620004e3565b9050620004de828262000607565b919050565b6000604051905090565b600067ffffffffffffffff8211156200050b576200050a6200069b565b5b6200051682620006de565b9050602081019050919050565b600082825260208201905092915050565b6000620005418262000591565b91506200054e8362000591565b9250827fffffffffffffffffffffffffffffffffffffffffffffffffffffffffffffffff038211156200058657620005856200063d565b5b828201905092915050565b6000819050919050565b60005b83811015620005bb5780820151818401526020810190506200059e565b83811115620005cb576000848401525b50505050565b60006002820490506001821680620005ea57607f821691505b602082108114156200060157620006006200066c565b5b50919050565b6200061282620006de565b810181811067ffffffffffffffff821117156200063457620006336200069b565b5b80604052505050565b7f4e487b7100000000000000000000000000000000000000000000000000000000600052601160045260246000fd5b7f4e487b7100000000000000000000000000000000000000000000000000000000600052602260045260246000fd5b7f4e487b7100000000000000000000000000000000000000000000000000000000600052604160045260246000fd5b600080fd5b600080fd5b600080fd5b600080fd5b6000601f19601f8301169050919050565b7f45524332303a206d696e7420746f20746865207a65726f206164647265737300600082015250565b620007238162000591565b81146200072f57600080fd5b50565b6112e180620007426000396000f3fe608060405234801561001057600080fd5b50600436106100b45760003560e01c806370a082311161007157806370a08231146101a357806395d89b41146101d3578063a457c2d7146101f1578063a9059cbb14610221578063dd62ed3e14610251578063f851a44014610281576100b4565b806306fdde03146100b9578063095ea7b3146100d757806318160ddd1461010757806323b872dd14610125578063313ce567146101555780633950935114610173575b600080fd5b6100c161029f565b6040516100ce9190610da2565b60405180910390f35b6100f160048036038101906100ec9190610bc2565b610331565b6040516100fe9190610d87565b60405180910390f35b61010f610354565b60405161011c9190610ea4565b60405180910390f35b61013f600480360381019061013a9190610b6f565b61035e565b60405161014c9190610d87565b60405180910390f35b61015d61038d565b60405161016a9190610ebf565b60405180910390f35b61018d60048036038101906101889190610bc2565b610396565b60405161019a9190610d87565b60405180910390f35b6101bd60048036038101906101b89190610b02565b6103cd565b6040516101ca9190610ea4565b60405180910390f35b6101db610415565b6040516101e89190610da2565b60405180910390f35b61020b60048036038101906102069190610bc2565b6104a7565b6040516102189190610d87565b60405180910390f35b61023b60048036038101906102369190610bc2565b61051e565b6040516102489190610d87565b60405180910390f35b61026b60048036038101906102669190610b2f565b610541565b6040516102789190610ea4565b60405180910390f35b6102896105c8565b6040516102969190610d6c565b60405180910390f35b6060600380546102ae90610fd4565b80601f01602080910402602001604051908101604052809291908181526020018280546102da90610fd4565b80156103275780601f106102fc57610100808354040283529160200191610327565b820191906000526020600020905b81548152906001019060200180831161030a57829003601f168201915b5050505050905090565b60008061033c6105ee565b90506103498185856105f6565b600191505092915050565b6000600254905090565b6000806103696105ee565b90506103768582856107c1565b61038185858561084d565b60019150509392505050565b60006012905090565b6000806103a16105ee565b90506103c28185856103b38589610541565b6103bd9190610ef6565b6105f6565b600191505092915050565b60008060008373ffffffffffffffffffffffffffffffffffffffff1673ffffffffffffffffffffffffffffffffffffffff168152602001908152602001600020549050919050565b60606004805461042490610fd4565b80601f016020809104026020016040519081016040528092919081815260200182805461045090610fd4565b801561049d5780601f106104725761010080835404028352916020019161049d565b820191906000526020600020905b81548152906001019060200180831161048057829003601f168201915b5050505050905090565b6000806104b26105ee565b905060006104c08286610541565b905083811015610505576040517f08c379a00000000000000000000000000000000000000000000000000000000081526004016104fc90610e84565b60405180910390fd5b61051282868684036105f6565b60019250505092915050565b6000806105296105ee565b905061053681858561084d565b600191505092915050565b6000600160008473ffffffffffffffffffffffffffffffffffffffff1673ffffffffffffffffffffffffffffffffffffffff16815260200190815260200160002060008373ffffffffffffffffffffffffffffffffffffffff1673ffffffffffffffffffffffffffffffffffffffff16815260200190815260200160002054905092915050565b600560009054906101000a900473ffffffffffffffffffffffffffffffffffffffff1681565b600033905090565b600073ffffffffffffffffffffffffffffffffffffffff168373ffffffffffffffffffffffffffffffffffffffff161415610666576040517f08c379a000000000000000000000000000000000000000000000000000000000815260040161065d90610e64565b60405180910390fd5b600073ffffffffffffffffffffffffffffffffffffffff168273ffffffffffffffffffffffffffffffffffffffff1614156106d6576040517f08c379a00000000000000000000000000000000000000000000000000000000081526004016106cd90610de4565b60405180910390fd5b80600160008573ffffffffffffffffffffffffffffffffffffffff1673ffffffffffffffffffffffffffffffffffffffff16815260200190815260200160002060008473ffffffffffffffffffffffffffffffffffffffff1673ffffffffffffffffffffffffffffffffffffffff168152602001908152602001600020819055508173ffffffffffffffffffffffffffffffffffffffff168373ffffffffffffffffffffffffffffffffffffffff167f8c5be1e5ebec7d5bd14f71427d1e84f3dd0314c0f7b2291e5b200ac8c7c3b925836040516107b49190610ea4565b60405180910390a3505050565b60006107cd8484610541565b90507fffffffffffffffffffffffffffffffffffffffffffffffffffffffffffffffff81146108475781811015610839576040517f08c379a000000000000000000000000000000000000000000000000000000000815260040161083090610e04565b60405180910390fd5b61084684848484036105f6565b5b50505050565b600073ffffffffffffffffffffffffffffffffffffffff168373ffffffffffffffffffffffffffffffffffffffff1614156108bd576040517f08c379a00000000000000000000000000000000000000000000000000000000081526004016108b490610e44565b60405180910390fd5b600073ffffffffffffffffffffffffffffffffffffffff168273ffffffffffffffffffffffffffffffffffffffff16141561092d576040517f08c379a000000000000000000000000000000000000000000000000000000000815260040161092490610dc4565b60405180910390fd5b610938838383610ace565b60008060008573ffffffffffffffffffffffffffffffffffffffff1673ffffffffffffffffffffffffffffffffffffffff168152602001908152602001600020549050818110156109be576040517f08c379a00000000000000000000000000000000000000000000000000000000081526004016109b590610e24565b60405180910390fd5b8181036000808673ffffffffffffffffffffffffffffffffffffffff1673ffffffffffffffffffffffffffffffffffffffff16815260200190815260200160002081905550816000808573ffffffffffffffffffffffffffffffffffffffff1673ffffffffffffffffffffffffffffffffffffffff1681526020019081526020016000206000828254610a519190610ef6565b925050819055508273ffffffffffffffffffffffffffffffffffffffff168473ffffffffffffffffffffffffffffffffffffffff167fddf252ad1be2c89b69c2b068fc378daa952ba7f163c4a11628f55a4df523b3ef84604051610ab59190610ea4565b60405180910390a3610ac8848484610ad3565b50505050565b505050565b505050565b600081359050610ae78161127d565b92915050565b600081359050610afc81611294565b92915050565b600060208284031215610b1857610b17611064565b5b6000610b2684828501610ad8565b91505092915050565b60008060408385031215610b4657610b45611064565b5b6000610b5485828601610ad8565b9250506020610b6585828601610ad8565b9150509250929050565b600080600060608486031215610b8857610b87611064565b5b6000610b9686828701610ad8565b9350506020610ba786828701610ad8565b9250506040610bb886828701610aed565b9150509250925092565b60008060408385031215610bd957610bd8611064565b5b6000610be785828601610ad8565b9250506020610bf885828601610aed565b9150509250929050565b610c0b81610f4c565b82525050565b610c1a81610f5e565b82525050565b6000610c2b82610eda565b610c358185610ee5565b9350610c45818560208601610fa1565b610c4e81611069565b840191505092915050565b6000610c66602383610ee5565b9150610c718261107a565b604082019050919050565b6000610c89602283610ee5565b9150610c94826110c9565b604082019050919050565b6000610cac601d83610ee5565b9150610cb782611118565b602082019050919050565b6000610ccf602683610ee5565b9150610cda82611141565b604082019050919050565b6000610cf2602583610ee5565b9150610cfd82611190565b604082019050919050565b6000610d15602483610ee5565b9150610d20826111df565b604082019050919050565b6000610d38602583610ee5565b9150610d438261122e565b604082019050919050565b610d5781610f8a565b82525050565b610d6681610f94565b82525050565b6000602082019050610d816000830184610c02565b92915050565b6000602082019050610d9c6000830184610c11565b92915050565b60006020820190508181036000830152610dbc8184610c20565b905092915050565b60006020820190508181036000830152610ddd81610c59565b9050919050565b60006020820190508181036000830152610dfd81610c7c565b9050919050565b60006020820190508181036000830152610e1d81610c9f565b9050919050565b60006020820190508181036000830152610e3d81610cc2565b9050919050565b60006020820190508181036000830152610e5d81610ce5565b9050919050565b60006020820190508181036000830152610e7d81610d08565b9050919050565b60006020820190508181036000830152610e9d81610d2b565b9050919050565b6000602082019050610eb96000830184610d4e565b92915050565b6000602082019050610ed46000830184610d5d565b92915050565b600081519050919050565b600082825260208201905092915050565b6000610f0182610f8a565b9150610f0c83610f8a565b9250827fffffffffffffffffffffffffffffffffffffffffffffffffffffffffffffffff03821115610f4157610f40611006565b5b828201905092915050565b6000610f5782610f6a565b9050919050565b60008115159050919050565b600073ffffffffffffffffffffffffffffffffffffffff82169050919050565b6000819050919050565b600060ff82169050919050565b60005b83811015610fbf578082015181840152602081019050610fa4565b83811115610fce576000848401525b50505050565b60006002820490506001821680610fec57607f821691505b6020821081141561100057610fff611035565b5b50919050565b7f4e487b7100000000000000000000000000000000000000000000000000000000600052601160045260246000fd5b7f4e487b7100000000000000000000000000000000000000000000000000000000600052602260045260246000fd5b600080fd5b6000601f19601f8301169050919050565b7f45524332303a207472616e7366657220746f20746865207a65726f206164647260008201527f6573730000000000000000000000000000000000000000000000000000000000602082015250565b7f45524332303a20617070726f766520746f20746865207a65726f20616464726560008201527f7373000000000000000000000000000000000000000000000000000000000000602082015250565b7f45524332303a20696e73756666696369656e7420616c6c6f77616e6365000000600082015250565b7f45524332303a207472616e7366657220616d6f756e742065786365656473206260008201527f616c616e63650000000000000000000000000000000000000000000000000000602082015250565b7f45524332303a207472616e736665722066726f6d20746865207a65726f20616460008201527f6472657373000000000000000000000000000000000000000000000000000000602082015250565b7f45524332303a20617070726f76652066726f6d20746865207a65726f2061646460008201527f7265737300000000000000000000000000000000000000000000000000000000602082015250565b7f45524332303a2064656372656173656420616c6c6f77616e63652062656c6f7760008201527f207a65726f000000000000000000000000000000000000000000000000000000602082015250565b61128681610f4c565b811461129157600080fd5b50565b61129d81610f8a565b81146112a857600080fd5b5056fea26469706673582212202796dee11127094ba97e0b171a33a7b8ddd16e1d3d36db0ab9835197c532d48164736f6c63430008070033",
  "immutableReferences": {},
  "source": "// SPDX-License-Identifier: UNLICENSED\npragma solidity ^0.8.0;\n\nimport \"../node_modules/@openzeppelin/contracts/utils/math/SafeMath.sol\";\nimport \"./DigitalTwin.sol\";\nimport \"./BToken.sol\";\n\n/**\n * @title EscrowService Contract, forked from https://github.com/AleRapchan/escrow-service\n * @author Yining Hu\n * @notice Building a single role access control Escrow Service using OpenZeppelin Escrow and RBAC\n * @dev contract currently assume one buyer account and one seller account, should develop an additional wallet contract and allow new user registration\n * @dev Todo: to implement multi-sig, time-based escrow\n * @dev Todo: the easiest would be to transfer both money and ownership of the product to the agent \n * @dev then to prevent agent from taking everything, agent needs to deposit, which can be slashed if caught faulty\n */\ncontract Escrow {\n\n    address agent;\n    uint256 public fee_btk;\n    uint256 timeout;\n\n    using SafeMath for uint256;\n\n    DigitalTwin public digitaltwin;\n    BToken public btk;\n    \n    enum EscrowState { OFFERED, DEPOSITTAKEN, SELLERREDEEMED, BUYERDENIED } //PAYMENTSUCCESSFUL, PAYMENTREVERTED\n\n    struct Product{\n        uint256 price;\n        address buyer;\n        address seller;\n        EscrowState state;\n        uint256 timeout; // timeout for payment settlement\n    }\n\n    string[] allproducts;\n    mapping (string => Product) public stock; // whole stock of offered items for sale in escrow arragement\n    mapping(string => bool) public productExists;\n\n    event DepositTaken(string tkname, uint256 price);\n\n    /**\n     * @dev before setting up any user wallet, all buyers/sellers use a single buyer/seller address, which are maintained by Beston.\n     */\n    constructor(DigitalTwin _digitaltwin) {\n        digitaltwin = _digitaltwin;\n        btk = new BToken(\"BT\", \"BT\", 1000000);\n        agent = msg.sender;\n        fee_btk = 1;\n        timeout = 5 minutes;\n    }\n\n    modifier validDestination(address to) {\n        require(to != address(0x0), \"Recipient should have a valid address!\");\n        require(to != address(this), \"Recipient should not be the contract!\");\n        _;\n    }\n\n    modifier validProduct(string memory _tkname) {\n        require(productExists[_tkname], \"Product does not exist.\");\n        _;\n    }\n\n    function offer(string memory _tkname , uint256 _price) public {\n        require(!productExists[_tkname], \"Product is already offered.\");\n        require(digitaltwin.tkExists(_tkname), \"Product token is not minted.\");\n\n        // should also require the caller to be the owner of the product\n        (uint256 id, string memory metadata, string memory rstatus, string memory vstatus, address addr) = digitaltwin.queryToken(_tkname);\n        require(msg.sender == addr, \"Only owner of a token can offer it as a product.\");\n\n        Product memory product;\n        product.price = _price; /// @dev double check the conversion in Polygon\n        product.state = EscrowState.OFFERED;\n        product.seller = msg.sender;\n        stock[_tkname] = product;\n        productExists[_tkname] = true;\n        allproducts.push(_tkname);\n\n        // transfer the token ownership to the agent\n        digitaltwin.transferByName(_tkname,agent);\n    }\n\n    /**\n     * buyBTK allows a caller to buy BTK from Escrow\n     * sellBTK allows a caller to sell BTK to Escrow\n     */\n    function buyBTK() payable public {\n        uint256 amountTobuy = msg.value;\n        uint256 dexBalance = btk.balanceOf(address(this));\n        require(amountTobuy > 0, \"You need to send some ether\");\n        require(amountTobuy <= dexBalance, \"Not enough tokens in the reserve\");\n        btk.transfer(msg.sender, amountTobuy);\n    }\n\n    function sellBTK(uint256 amount) public {\n        require(amount > 0, \"You need to sell at least some tokens\");\n        uint256 allowance = btk.allowance(msg.sender, address(this));\n        require(allowance >= amount, \"Check the token allowance\");\n        btk.transferFrom(msg.sender, address(this), amount); // msg.sender is the caller, address(this) is Escrow\n        payable(msg.sender).transfer(amount);\n    }\n\n    /**\n     * @notice Buyer can make a deposit to products on offer\n     */\n    function BuyerDepositWithBTK(string memory _tkname, uint256 _deposit) external validDestination(agent) validProduct(_tkname) {\n        require (_deposit == fee_btk + stock[_tkname].price, \"Please make sure your deposit covers both the product price and agent fee!\");\n        require (stock[_tkname].state == EscrowState.OFFERED , \"Product is not on offer!\"); // this also blocks buyer from making duplicatd deposit\n\n        stock[_tkname].buyer = payable(msg.sender); //Todo: this doesn't need to be payable\n        stock[_tkname].state = EscrowState.DEPOSITTAKEN;\n        stock[_tkname].timeout = block.timestamp + timeout; // add a timeout for settlement when buyer sends deposit\n\n        btk.transferFrom(msg.sender, address(this), _deposit); // buyer transfers the deposit to Escrow (provided that buyer approves separately)\n        btk.transfer(agent, fee_btk); // buyer transfers the agent fee via Escrow, this msg.sender is Escrow\n        \n        emit DepositTaken(_tkname, stock[_tkname].price);\n    }\n\n    function AgentApproveWithBTK(string memory _tkname) public validDestination(stock[_tkname].seller) validProduct(_tkname) {\n        require (msg.sender == agent, \"Only agent can call the redeem function.\");\n        require (stock[_tkname].state == EscrowState.DEPOSITTAKEN, \"No deposit found for this product.\");\n        require (block.timestamp < stock[_tkname].timeout, \"Agent can only approve the payment before the specified timeout.\");\n        btk.transfer(stock[_tkname].seller, stock[_tkname].price); // Escrow transfers the product price to seller\n        stock[_tkname].state = EscrowState.SELLERREDEEMED;\n    }\n\n    /**\n     * @notice Buyer can deny the payment upon unsatisfactory verification result or for other reasons.\n     */\n    function AgentDenyWithBTK(string memory _tkname) public validDestination(stock[_tkname].buyer) validProduct(_tkname) {\n        require (msg.sender == agent, \"Only agent can call the refund function.\");\n        require (stock[_tkname].state == EscrowState.DEPOSITTAKEN, \"No deposit found for this product.\");\n        require (block.timestamp > stock[_tkname].timeout, \"Agent can only issue the refund after the specified timeout.\");\n        btk.transfer(stock[_tkname].buyer, stock[_tkname].price);\n        stock[_tkname].state = EscrowState.BUYERDENIED;\n    }\n\n    /**\n     * @notice getters\n     */\n\n    function VerifyPackaging(string memory _tkname) public view validProduct(_tkname) returns (bool) {\n        (uint256 id, string memory metadata, string memory rstatus, string memory vstatus, address addr) = digitaltwin.queryToken(_tkname);\n        if (keccak256(abi.encodePacked(rstatus)) == keccak256(abi.encodePacked(\"packaging verified\"))) {\n            return true;\n        } else {\n            return false;\n        }\n    }\n\n    function VerifyProduct(string memory _tkname) public view validProduct(_tkname) returns (bool) {\n        (uint256 id, string memory metadata, string memory rstatus, string memory vstatus, address addr) = digitaltwin.queryToken(_tkname);\n        if (keccak256(abi.encodePacked(vstatus)) == keccak256(abi.encodePacked(\"product verified\"))) {\n            return true;\n        } else {\n            return false;\n        }\n    }\n\n    function QueryProduct(string memory _tkname) public view validProduct(_tkname) returns(uint256, string memory, address, address) {\n        string memory state;\n\n        if (stock[_tkname].state == EscrowState.OFFERED) {\n            state = \"product on offer\";\n        } else if (stock[_tkname].state == EscrowState.DEPOSITTAKEN) {\n            state = \"deposit taken\";\n        } else if (stock[_tkname].state == EscrowState.SELLERREDEEMED) {\n            state = \"payment successful\";\n        } else if (stock[_tkname].state == EscrowState.BUYERDENIED) {\n            state = \"payment returned\";\n        } else {\n            state = \"unknown escrow state\";\n        }\n\n        return (stock[_tkname].price, state, stock[_tkname].seller, stock[_tkname].buyer);\n    }\n\n    function QueryAllProducts() \n        public\n        view\n        returns\n    (\n        string[] memory, \n        uint256[] memory, \n        string[] memory,\n        address[] memory,\n        address[] memory\n    )\n    {\n        uint256[] memory prices = new uint256[](allproducts.length);\n        string[] memory states = new string[](allproducts.length);\n        address[] memory sellers = new address[](allproducts.length);\n        address[] memory buyers = new address[](allproducts.length);\n\n        for(uint i=0; i<allproducts.length; i++){\n            prices[i] = stock[allproducts[i]].price;\n\n            if (stock[allproducts[i]].state == EscrowState.OFFERED) {\n                states[i] = \"product on offer\";\n            } else if (stock[allproducts[i]].state == EscrowState.DEPOSITTAKEN) {\n                states[i] = \"deposit taken\";\n            } else if (stock[allproducts[i]].state == EscrowState.SELLERREDEEMED) {\n                states[i] = \"payment successful\";\n            } else if (stock[allproducts[i]].state == EscrowState.BUYERDENIED) {\n                states[i] = \"payment returned\";\n            } else {\n                states[i] = \"unknown escrow state\";\n            }\n\n            sellers[i] = stock[allproducts[i]].seller;\n            buyers[i] = stock[allproducts[i]].buyer;\n        }\n\n        return (allproducts, prices, states, sellers, buyers);\n    }\n\n    function GetBalance(address addr) public view returns(uint256) {\n        return addr.balance;\n    }\n}",
  "sourcePath": "/home/yih/Documents/dev/beston-dapps/contracts/Escrow.sol",
  "compiler": {
    "name": "solc",
    "version": "0.8.7+commit.e28d00a7.Emscripten.clang"
  },
  "schemaVersion": "3.4.1",
  "updatedAt": "2023-01-11T04:47:20.857Z",
  "networkType": "ethereum",
  "devdoc": {
    "author": "Yining Hu",
    "details": "contract currently assume one buyer account and one seller account, should develop an additional wallet contract and allow new user registrationTodo: to implement multi-sig, time-based escrowTodo: the easiest would be to transfer both money and ownership of the product to the agent then to prevent agent from taking everything, agent needs to deposit, which can be slashed if caught faulty",
    "kind": "dev",
    "methods": {
      "constructor": {
        "details": "before setting up any user wallet, all buyers/sellers use a single buyer/seller address, which are maintained by Beston."
      }
    },
    "title": "EscrowService Contract, forked from https://github.com/AleRapchan/escrow-service",
    "version": 1
  },
  "userdoc": {
    "kind": "user",
    "methods": {
      "AgentDenyWithBTK(string)": {
        "notice": "Buyer can deny the payment upon unsatisfactory verification result or for other reasons."
      },
      "BuyerDepositWithBTK(string,uint256)": {
        "notice": "Buyer can make a deposit to products on offer"
      },
      "VerifyPackaging(string)": {
        "notice": "getters"
      },
      "buyBTK()": {
        "notice": "buyBTK allows a caller to buy BTK from Escrow sellBTK allows a caller to sell BTK to Escrow"
      }
    },
    "notice": "Building a single role access control Escrow Service using OpenZeppelin Escrow and RBAC",
    "version": 1
  }
}