{
  "contractName": "Escrow",
  "abi": [
    {
      "inputs": [
        {
          "internalType": "contract DigitalTwin",
          "name": "_digitaltwin",
          "type": "address"
        }
      ],
      "stateMutability": "nonpayable",
      "type": "constructor"
    },
    {
      "anonymous": false,
      "inputs": [
        {
          "indexed": false,
          "internalType": "string",
          "name": "tkname",
          "type": "string"
        },
        {
          "indexed": false,
          "internalType": "uint256",
          "name": "price",
          "type": "uint256"
        }
      ],
      "name": "DepositTaken",
      "type": "event"
    },
    {
      "inputs": [],
      "name": "btk",
      "outputs": [
        {
          "internalType": "contract BToken",
          "name": "",
          "type": "address"
        }
      ],
      "stateMutability": "view",
      "type": "function",
      "constant": true
    },
    {
      "inputs": [],
      "name": "digitaltwin",
      "outputs": [
        {
          "internalType": "contract DigitalTwin",
          "name": "",
          "type": "address"
        }
      ],
      "stateMutability": "view",
      "type": "function",
      "constant": true
    },
    {
      "inputs": [],
      "name": "fee_btk",
      "outputs": [
        {
          "internalType": "uint256",
          "name": "",
          "type": "uint256"
        }
      ],
      "stateMutability": "view",
      "type": "function",
      "constant": true
    },
    {
      "inputs": [
        {
          "internalType": "string",
          "name": "",
          "type": "string"
        }
      ],
      "name": "productExists",
      "outputs": [
        {
          "internalType": "bool",
          "name": "",
          "type": "bool"
        }
      ],
      "stateMutability": "view",
      "type": "function",
      "constant": true
    },
    {
      "inputs": [
        {
          "internalType": "string",
          "name": "",
          "type": "string"
        }
      ],
      "name": "stock",
      "outputs": [
        {
          "internalType": "uint256",
          "name": "price",
          "type": "uint256"
        },
        {
          "internalType": "address",
          "name": "buyer",
          "type": "address"
        },
        {
          "internalType": "address",
          "name": "seller",
          "type": "address"
        },
        {
          "internalType": "enum Escrow.EscrowState",
          "name": "state",
          "type": "uint8"
        },
        {
          "internalType": "uint256",
          "name": "timeout",
          "type": "uint256"
        }
      ],
      "stateMutability": "view",
      "type": "function",
      "constant": true
    },
    {
      "inputs": [
        {
          "internalType": "string",
          "name": "_tkname",
          "type": "string"
        },
        {
          "internalType": "uint256",
          "name": "_price",
          "type": "uint256"
        }
      ],
      "name": "offer",
      "outputs": [],
      "stateMutability": "nonpayable",
      "type": "function"
    },
    {
      "inputs": [],
      "name": "buyBTK",
      "outputs": [],
      "stateMutability": "payable",
      "type": "function",
      "payable": true
    },
    {
      "inputs": [
        {
          "internalType": "uint256",
          "name": "amount",
          "type": "uint256"
        }
      ],
      "name": "sellBTK",
      "outputs": [],
      "stateMutability": "nonpayable",
      "type": "function"
    },
    {
      "inputs": [
        {
          "internalType": "string",
          "name": "_tkname",
          "type": "string"
        },
        {
          "internalType": "uint256",
          "name": "_deposit",
          "type": "uint256"
        }
      ],
      "name": "BuyerDepositWithBTK",
      "outputs": [],
      "stateMutability": "nonpayable",
      "type": "function"
    },
    {
      "inputs": [
        {
          "internalType": "string",
          "name": "_tkname",
          "type": "string"
        }
      ],
      "name": "AgentApproveWithBTK",
      "outputs": [],
      "stateMutability": "nonpayable",
      "type": "function"
    },
    {
      "inputs": [
        {
          "internalType": "string",
          "name": "_tkname",
          "type": "string"
        }
      ],
      "name": "AgentDenyWithBTK",
      "outputs": [],
      "stateMutability": "nonpayable",
      "type": "function"
    },
    {
      "inputs": [
        {
          "internalType": "string",
          "name": "_tkname",
          "type": "string"
        }
      ],
      "name": "VerifyPackaging",
      "outputs": [
        {
          "internalType": "bool",
          "name": "",
          "type": "bool"
        }
      ],
      "stateMutability": "view",
      "type": "function",
      "constant": true
    },
    {
      "inputs": [
        {
          "internalType": "string",
          "name": "_tkname",
          "type": "string"
        }
      ],
      "name": "VerifyProduct",
      "outputs": [
        {
          "internalType": "bool",
          "name": "",
          "type": "bool"
        }
      ],
      "stateMutability": "view",
      "type": "function",
      "constant": true
    },
    {
      "inputs": [
        {
          "internalType": "string",
          "name": "_tkname",
          "type": "string"
        }
      ],
      "name": "QueryProduct",
      "outputs": [
        {
          "internalType": "uint256",
          "name": "",
          "type": "uint256"
        },
        {
          "internalType": "string",
          "name": "",
          "type": "string"
        },
        {
          "internalType": "address",
          "name": "",
          "type": "address"
        },
        {
          "internalType": "address",
          "name": "",
          "type": "address"
        }
      ],
      "stateMutability": "view",
      "type": "function",
      "constant": true
    },
    {
      "inputs": [],
      "name": "QueryAllProducts",
      "outputs": [
        {
          "internalType": "string[]",
          "name": "",
          "type": "string[]"
        },
        {
          "internalType": "uint256[]",
          "name": "",
          "type": "uint256[]"
        },
        {
          "internalType": "string[]",
          "name": "",
          "type": "string[]"
        },
        {
          "internalType": "address[]",
          "name": "",
          "type": "address[]"
        },
        {
          "internalType": "address[]",
          "name": "",
          "type": "address[]"
        }
      ],
      "stateMutability": "view",
      "type": "function",
      "constant": true
    }
  ],
  "bytecode": "0x60806040523480156200001157600080fd5b506040516200609638038062006096833981810160405281019062000037919062000170565b80600360006101000a81548173ffffffffffffffffffffffffffffffffffffffff021916908373ffffffffffffffffffffffffffffffffffffffff160217905550620f42406040516200008a906200014b565b620000969190620001da565b604051809103906000f080158015620000b3573d6000803e3d6000fd5b50600460006101000a81548173ffffffffffffffffffffffffffffffffffffffff021916908373ffffffffffffffffffffffffffffffffffffffff160217905550336000806101000a81548173ffffffffffffffffffffffffffffffffffffffff021916908373ffffffffffffffffffffffffffffffffffffffff1602179055506001808190555061012c60028190555050620002e0565b611a23806200467383390190565b6000815190506200016a81620002c6565b92915050565b60006020828403121562000189576200018862000298565b5b6000620001998482850162000159565b91505092915050565b620001ad8162000284565b82525050565b6000620001c260028362000221565b9150620001cf826200029d565b602082019050919050565b60006060820190508181036000830152620001f581620001b3565b905081810360208301526200020a81620001b3565b90506200021b6040830184620001a2565b92915050565b600082825260208201905092915050565b60006200023f826200025a565b9050919050565b6000620002538262000232565b9050919050565b600073ffffffffffffffffffffffffffffffffffffffff82169050919050565b6000819050919050565b600062000291826200027a565b9050919050565b600080fd5b7f4254000000000000000000000000000000000000000000000000000000000000600082015250565b620002d18162000246565b8114620002dd57600080fd5b50565b61438380620002f06000396000f3fe6080604052600436106100e85760003560e01c8063a00cbd5b1161008a578063eef0613811610059578063eef06138146102da578063f2922cf414610303578063f8c3540b1461032e578063fd9908e31461036b576100e8565b8063a00cbd5b1461020b578063bc9d30c71461024b578063c4e0827a14610274578063cc7636081461029d576100e8565b80636056f119116100c65780636056f1191461014b5780637a76f2e21461017a57806386dc434b146101a35780638addc051146101ce576100e8565b80630a7182e5146100ed5780632ca9f4bd146101165780632f59b3f714610141575b600080fd5b3480156100f957600080fd5b50610114600480360381019061010f9190612d5b565b6103ac565b005b34801561012257600080fd5b5061012b610820565b604051610138919061365e565b60405180910390f35b610149610846565b005b34801561015757600080fd5b50610160610a34565b6040516101719594939291906135cd565b60405180910390f35b34801561018657600080fd5b506101a1600480360381019061019c9190612d5b565b6111ec565b005b3480156101af57600080fd5b506101b8611660565b6040516101c59190613679565b60405180910390f35b3480156101da57600080fd5b506101f560048036038101906101f09190612d5b565b611686565b6040516102029190613643565b60405180910390f35b34801561021757600080fd5b50610232600480360381019061022d9190612d5b565b6116bc565b60405161024294939291906139a4565b60405180910390f35b34801561025757600080fd5b50610272600480360381019061026d9190612da4565b611a84565b005b34801561028057600080fd5b5061029b60048036038101906102969190612e00565b611fa5565b005b3480156102a957600080fd5b506102c460048036038101906102bf9190612d5b565b6121d9565b6040516102d19190613643565b60405180910390f35b3480156102e657600080fd5b5061030160048036038101906102fc9190612da4565b612379565b005b34801561030f57600080fd5b506103186128ab565b6040516103259190613936565b60405180910390f35b34801561033a57600080fd5b5061035560048036038101906103509190612d5b565b6128b1565b6040516103629190613643565b60405180910390f35b34801561037757600080fd5b50610392600480360381019061038d9190612d5b565b612a51565b6040516103a3959493929190613951565b60405180910390f35b6006816040516103bc91906134d1565b908152602001604051809103902060020160009054906101000a900473ffffffffffffffffffffffffffffffffffffffff16600073ffffffffffffffffffffffffffffffffffffffff168173ffffffffffffffffffffffffffffffffffffffff16141561045e576040517f08c379a000000000000000000000000000000000000000000000000000000000815260040161045590613816565b60405180910390fd5b3073ffffffffffffffffffffffffffffffffffffffff168173ffffffffffffffffffffffffffffffffffffffff1614156104cd576040517f08c379a00000000000000000000000000000000000000000000000000000000081526004016104c4906138f6565b60405180910390fd5b816007816040516104de91906134d1565b908152602001604051809103902060009054906101000a900460ff16610539576040517f08c379a000000000000000000000000000000000000000000000000000000000815260040161053090613756565b60405180910390fd5b60008054906101000a900473ffffffffffffffffffffffffffffffffffffffff1673ffffffffffffffffffffffffffffffffffffffff163373ffffffffffffffffffffffffffffffffffffffff16146105c7576040517f08c379a00000000000000000000000000000000000000000000000000000000081526004016105be90613856565b60405180910390fd5b600160038111156105db576105da613d66565b5b6006846040516105eb91906134d1565b908152602001604051809103902060020160149054906101000a900460ff16600381111561061c5761061b613d66565b5b1461065c576040517f08c379a000000000000000000000000000000000000000000000000000000000815260040161065390613736565b60405180910390fd5b60068360405161066c91906134d1565b90815260200160405180910390206003015442106106bf576040517f08c379a00000000000000000000000000000000000000000000000000000000081526004016106b690613796565b60405180910390fd5b600460009054906101000a900473ffffffffffffffffffffffffffffffffffffffff1673ffffffffffffffffffffffffffffffffffffffff1663a9059cbb60068560405161070d91906134d1565b908152602001604051809103902060020160009054906101000a900473ffffffffffffffffffffffffffffffffffffffff1660068660405161074f91906134d1565b9081526020016040518091039020600001546040518363ffffffff1660e01b815260040161077e9291906135a4565b602060405180830381600087803b15801561079857600080fd5b505af11580156107ac573d6000803e3d6000fd5b505050506040513d601f19601f820116820180604052508101906107d09190612d2e565b5060026006846040516107e391906134d1565b908152602001604051809103902060020160146101000a81548160ff0219169083600381111561081657610815613d66565b5b0217905550505050565b600460009054906101000a900473ffffffffffffffffffffffffffffffffffffffff1681565b60003490506000600460009054906101000a900473ffffffffffffffffffffffffffffffffffffffff1673ffffffffffffffffffffffffffffffffffffffff166370a08231306040518263ffffffff1660e01b81526004016108a89190613529565b60206040518083038186803b1580156108c057600080fd5b505afa1580156108d4573d6000803e3d6000fd5b505050506040513d601f19601f820116820180604052508101906108f89190612e2d565b90506000821161093d576040517f08c379a0000000000000000000000000000000000000000000000000000000008152600401610934906138b6565b60405180910390fd5b80821115610980576040517f08c379a000000000000000000000000000000000000000000000000000000000815260040161097790613896565b60405180910390fd5b600460009054906101000a900473ffffffffffffffffffffffffffffffffffffffff1673ffffffffffffffffffffffffffffffffffffffff1663a9059cbb33846040518363ffffffff1660e01b81526004016109dd9291906135a4565b602060405180830381600087803b1580156109f757600080fd5b505af1158015610a0b573d6000803e3d6000fd5b505050506040513d601f19601f82011682018060405250810190610a2f9190612d2e565b505050565b6060806060806060600060058054905067ffffffffffffffff811115610a5d57610a5c613df3565b5b604051908082528060200260200182016040528015610a8b5781602001602082028036833780820191505090505b509050600060058054905067ffffffffffffffff811115610aaf57610aae613df3565b5b604051908082528060200260200182016040528015610ae257816020015b6060815260200190600190039081610acd5790505b509050600060058054905067ffffffffffffffff811115610b0657610b05613df3565b5b604051908082528060200260200182016040528015610b345781602001602082028036833780820191505090505b509050600060058054905067ffffffffffffffff811115610b5857610b57613df3565b5b604051908082528060200260200182016040528015610b865781602001602082028036833780820191505090505b50905060005b6005805490508110156110fd57600660058281548110610baf57610bae613dc4565b5b90600052602060002001604051610bc691906134e8565b908152602001604051809103902060000154858281518110610beb57610bea613dc4565b5b60200260200101818152505060006003811115610c0b57610c0a613d66565b5b600660058381548110610c2157610c20613dc4565b5b90600052602060002001604051610c3891906134e8565b908152602001604051809103902060020160149054906101000a900460ff166003811115610c6957610c68613d66565b5b1415610cc8576040518060400160405280601081526020017f70726f64756374206f6e206f6666657200000000000000000000000000000000815250848281518110610cb857610cb7613dc4565b5b6020026020010181905250610f92565b60016003811115610cdc57610cdb613d66565b5b600660058381548110610cf257610cf1613dc4565b5b90600052602060002001604051610d0991906134e8565b908152602001604051809103902060020160149054906101000a900460ff166003811115610d3a57610d39613d66565b5b1415610d99576040518060400160405280600d81526020017f6465706f7369742074616b656e00000000000000000000000000000000000000815250848281518110610d8957610d88613dc4565b5b6020026020010181905250610f91565b60026003811115610dad57610dac613d66565b5b600660058381548110610dc357610dc2613dc4565b5b90600052602060002001604051610dda91906134e8565b908152602001604051809103902060020160149054906101000a900460ff166003811115610e0b57610e0a613d66565b5b1415610e6a576040518060400160405280601281526020017f7061796d656e74207375636365737366756c0000000000000000000000000000815250848281518110610e5a57610e59613dc4565b5b6020026020010181905250610f90565b600380811115610e7d57610e7c613d66565b5b600660058381548110610e9357610e92613dc4565b5b90600052602060002001604051610eaa91906134e8565b908152602001604051809103902060020160149054906101000a900460ff166003811115610edb57610eda613d66565b5b1415610f3a576040518060400160405280601081526020017f7061796d656e742072657475726e656400000000000000000000000000000000815250848281518110610f2a57610f29613dc4565b5b6020026020010181905250610f8f565b6040518060400160405280601481526020017f756e6b6e6f776e20657363726f77207374617465000000000000000000000000815250848281518110610f8357610f82613dc4565b5b60200260200101819052505b5b5b5b600660058281548110610fa857610fa7613dc4565b5b90600052602060002001604051610fbf91906134e8565b908152602001604051809103902060020160009054906101000a900473ffffffffffffffffffffffffffffffffffffffff1683828151811061100457611003613dc4565b5b602002602001019073ffffffffffffffffffffffffffffffffffffffff16908173ffffffffffffffffffffffffffffffffffffffff168152505060066005828154811061105457611053613dc4565b5b9060005260206000200160405161106b91906134e8565b908152602001604051809103902060010160009054906101000a900473ffffffffffffffffffffffffffffffffffffffff168282815181106110b0576110af613dc4565b5b602002602001019073ffffffffffffffffffffffffffffffffffffffff16908173ffffffffffffffffffffffffffffffffffffffff168152505080806110f590613cee565b915050610b8c565b5060058484848484805480602002602001604051908101604052809291908181526020016000905b828210156111d157838290600052602060002001805461114490613c8b565b80601f016020809104026020016040519081016040528092919081815260200182805461117090613c8b565b80156111bd5780601f10611192576101008083540402835291602001916111bd565b820191906000526020600020905b8154815290600101906020018083116111a057829003601f168201915b505050505081526020019060010190611125565b50505050945098509850985098509850505050509091929394565b6006816040516111fc91906134d1565b908152602001604051809103902060010160009054906101000a900473ffffffffffffffffffffffffffffffffffffffff16600073ffffffffffffffffffffffffffffffffffffffff168173ffffffffffffffffffffffffffffffffffffffff16141561129e576040517f08c379a000000000000000000000000000000000000000000000000000000000815260040161129590613816565b60405180910390fd5b3073ffffffffffffffffffffffffffffffffffffffff168173ffffffffffffffffffffffffffffffffffffffff16141561130d576040517f08c379a0000000000000000000000000000000000000000000000000000000008152600401611304906138f6565b60405180910390fd5b8160078160405161131e91906134d1565b908152602001604051809103902060009054906101000a900460ff16611379576040517f08c379a000000000000000000000000000000000000000000000000000000000815260040161137090613756565b60405180910390fd5b60008054906101000a900473ffffffffffffffffffffffffffffffffffffffff1673ffffffffffffffffffffffffffffffffffffffff163373ffffffffffffffffffffffffffffffffffffffff1614611407576040517f08c379a00000000000000000000000000000000000000000000000000000000081526004016113fe906137f6565b60405180910390fd5b6001600381111561141b5761141a613d66565b5b60068460405161142b91906134d1565b908152602001604051809103902060020160149054906101000a900460ff16600381111561145c5761145b613d66565b5b1461149c576040517f08c379a000000000000000000000000000000000000000000000000000000000815260040161149390613736565b60405180910390fd5b6006836040516114ac91906134d1565b90815260200160405180910390206003015442116114ff576040517f08c379a00000000000000000000000000000000000000000000000000000000081526004016114f690613716565b60405180910390fd5b600460009054906101000a900473ffffffffffffffffffffffffffffffffffffffff1673ffffffffffffffffffffffffffffffffffffffff1663a9059cbb60068560405161154d91906134d1565b908152602001604051809103902060010160009054906101000a900473ffffffffffffffffffffffffffffffffffffffff1660068660405161158f91906134d1565b9081526020016040518091039020600001546040518363ffffffff1660e01b81526004016115be9291906135a4565b602060405180830381600087803b1580156115d857600080fd5b505af11580156115ec573d6000803e3d6000fd5b505050506040513d601f19601f820116820180604052508101906116109190612d2e565b50600360068460405161162391906134d1565b908152602001604051809103902060020160146101000a81548160ff0219169083600381111561165657611655613d66565b5b0217905550505050565b600360009054906101000a900473ffffffffffffffffffffffffffffffffffffffff1681565b6007818051602081018201805184825260208301602085012081835280955050505050506000915054906101000a900460ff1681565b60006060600080846007816040516116d491906134d1565b908152602001604051809103902060009054906101000a900460ff1661172f576040517f08c379a000000000000000000000000000000000000000000000000000000000815260040161172690613756565b60405180910390fd5b60606000600381111561174557611744613d66565b5b60068860405161175591906134d1565b908152602001604051809103902060020160149054906101000a900460ff16600381111561178657611785613d66565b5b14156117c9576040518060400160405280601081526020017f70726f64756374206f6e206f666665720000000000000000000000000000000081525090506119cc565b600160038111156117dd576117dc613d66565b5b6006886040516117ed91906134d1565b908152602001604051809103902060020160149054906101000a900460ff16600381111561181e5761181d613d66565b5b1415611861576040518060400160405280600d81526020017f6465706f7369742074616b656e0000000000000000000000000000000000000081525090506119cb565b6002600381111561187557611874613d66565b5b60068860405161188591906134d1565b908152602001604051809103902060020160149054906101000a900460ff1660038111156118b6576118b5613d66565b5b14156118f9576040518060400160405280601281526020017f7061796d656e74207375636365737366756c000000000000000000000000000081525090506119ca565b60038081111561190c5761190b613d66565b5b60068860405161191c91906134d1565b908152602001604051809103902060020160149054906101000a900460ff16600381111561194d5761194c613d66565b5b1415611990576040518060400160405280601081526020017f7061796d656e742072657475726e65640000000000000000000000000000000081525090506119c9565b6040518060400160405280601481526020017f756e6b6e6f776e20657363726f7720737461746500000000000000000000000081525090505b5b5b5b6006876040516119dc91906134d1565b908152602001604051809103902060000154816006896040516119ff91906134d1565b908152602001604051809103902060020160009054906101000a900473ffffffffffffffffffffffffffffffffffffffff1660068a604051611a4191906134d1565b908152602001604051809103902060010160009054906101000a900473ffffffffffffffffffffffffffffffffffffffff16955095509550955050509193509193565b600782604051611a9491906134d1565b908152602001604051809103902060009054906101000a900460ff1615611af0576040517f08c379a0000000000000000000000000000000000000000000000000000000008152600401611ae790613776565b60405180910390fd5b600360009054906101000a900473ffffffffffffffffffffffffffffffffffffffff1673ffffffffffffffffffffffffffffffffffffffff16630ad5b505836040518263ffffffff1660e01b8152600401611b4b9190613694565b60206040518083038186803b158015611b6357600080fd5b505afa158015611b77573d6000803e3d6000fd5b505050506040513d601f19601f82011682018060405250810190611b9b9190612d2e565b611bda576040517f08c379a0000000000000000000000000000000000000000000000000000000008152600401611bd190613836565b60405180910390fd5b6000806000806000600360009054906101000a900473ffffffffffffffffffffffffffffffffffffffff1673ffffffffffffffffffffffffffffffffffffffff1663c5573d46886040518263ffffffff1660e01b8152600401611c3d9190613694565b60006040518083038186803b158015611c5557600080fd5b505afa158015611c69573d6000803e3d6000fd5b505050506040513d6000823e3d601f19601f82011682018060405250810190611c929190612e5a565b945094509450945094508073ffffffffffffffffffffffffffffffffffffffff163373ffffffffffffffffffffffffffffffffffffffff1614611d0a576040517f08c379a0000000000000000000000000000000000000000000000000000000008152600401611d0190613876565b60405180910390fd5b611d12612aea565b86816000018181525050600081606001906003811115611d3557611d34613d66565b5b90816003811115611d4957611d48613d66565b5b8152505033816040019073ffffffffffffffffffffffffffffffffffffffff16908173ffffffffffffffffffffffffffffffffffffffff168152505080600689604051611d9691906134d1565b90815260200160405180910390206000820151816000015560208201518160010160006101000a81548173ffffffffffffffffffffffffffffffffffffffff021916908373ffffffffffffffffffffffffffffffffffffffff16021790555060408201518160020160006101000a81548173ffffffffffffffffffffffffffffffffffffffff021916908373ffffffffffffffffffffffffffffffffffffffff16021790555060608201518160020160146101000a81548160ff02191690836003811115611e6757611e66613d66565b5b0217905550608082015181600301559050506001600789604051611e8b91906134d1565b908152602001604051809103902060006101000a81548160ff021916908315150217905550600588908060018154018082558091505060019003906000526020600020016000909190919091509080519060200190611eeb929190612b57565b50600360009054906101000a900473ffffffffffffffffffffffffffffffffffffffff1673ffffffffffffffffffffffffffffffffffffffff16630d202ced8960008054906101000a900473ffffffffffffffffffffffffffffffffffffffff166040518363ffffffff1660e01b8152600401611f699291906136b6565b600060405180830381600087803b158015611f8357600080fd5b505af1158015611f97573d6000803e3d6000fd5b505050505050505050505050565b60008111611fe8576040517f08c379a0000000000000000000000000000000000000000000000000000000008152600401611fdf906137b6565b60405180910390fd5b6000600460009054906101000a900473ffffffffffffffffffffffffffffffffffffffff1673ffffffffffffffffffffffffffffffffffffffff1663dd62ed3e33306040518363ffffffff1660e01b8152600401612047929190613544565b60206040518083038186803b15801561205f57600080fd5b505afa158015612073573d6000803e3d6000fd5b505050506040513d601f19601f820116820180604052508101906120979190612e2d565b9050818110156120dc576040517f08c379a00000000000000000000000000000000000000000000000000000000081526004016120d3906137d6565b60405180910390fd5b600460009054906101000a900473ffffffffffffffffffffffffffffffffffffffff1673ffffffffffffffffffffffffffffffffffffffff166323b872dd3330856040518463ffffffff1660e01b815260040161213b9392919061356d565b602060405180830381600087803b15801561215557600080fd5b505af1158015612169573d6000803e3d6000fd5b505050506040513d601f19601f8201168201806040525081019061218d9190612d2e565b503373ffffffffffffffffffffffffffffffffffffffff166108fc839081150290604051600060405180830381858888f193505050501580156121d4573d6000803e3d6000fd5b505050565b6000816007816040516121ec91906134d1565b908152602001604051809103902060009054906101000a900460ff16612247576040517f08c379a000000000000000000000000000000000000000000000000000000000815260040161223e90613756565b60405180910390fd5b6000806000806000600360009054906101000a900473ffffffffffffffffffffffffffffffffffffffff1673ffffffffffffffffffffffffffffffffffffffff1663c5573d46896040518263ffffffff1660e01b81526004016122aa9190613694565b60006040518083038186803b1580156122c257600080fd5b505afa1580156122d6573d6000803e3d6000fd5b505050506040513d6000823e3d601f19601f820116820180604052508101906122ff9190612e5a565b94509450945094509450604051602001612318906134ff565b604051602081830303815290604052805190602001208360405160200161233f91906134d1565b60405160208183030381529060405280519060200120141561236957600196505050505050612373565b6000965050505050505b50919050565b60008054906101000a900473ffffffffffffffffffffffffffffffffffffffff16600073ffffffffffffffffffffffffffffffffffffffff168173ffffffffffffffffffffffffffffffffffffffff16141561240a576040517f08c379a000000000000000000000000000000000000000000000000000000000815260040161240190613816565b60405180910390fd5b3073ffffffffffffffffffffffffffffffffffffffff168173ffffffffffffffffffffffffffffffffffffffff161415612479576040517f08c379a0000000000000000000000000000000000000000000000000000000008152600401612470906138f6565b60405180910390fd5b8260078160405161248a91906134d1565b908152602001604051809103902060009054906101000a900460ff166124e5576040517f08c379a00000000000000000000000000000000000000000000000000000000081526004016124dc90613756565b60405180910390fd5b6006846040516124f591906134d1565b9081526020016040518091039020600001546001546125149190613b3e565b8314612555576040517f08c379a000000000000000000000000000000000000000000000000000000000815260040161254c906138d6565b60405180910390fd5b6000600381111561256957612568613d66565b5b60068560405161257991906134d1565b908152602001604051809103902060020160149054906101000a900460ff1660038111156125aa576125a9613d66565b5b146125ea576040517f08c379a00000000000000000000000000000000000000000000000000000000081526004016125e190613916565b60405180910390fd5b336006856040516125fb91906134d1565b908152602001604051809103902060010160006101000a81548173ffffffffffffffffffffffffffffffffffffffff021916908373ffffffffffffffffffffffffffffffffffffffff160217905550600160068560405161265c91906134d1565b908152602001604051809103902060020160146101000a81548160ff0219169083600381111561268f5761268e613d66565b5b0217905550600254426126a29190613b3e565b6006856040516126b291906134d1565b908152602001604051809103902060030181905550600460009054906101000a900473ffffffffffffffffffffffffffffffffffffffff1673ffffffffffffffffffffffffffffffffffffffff166323b872dd3330866040518463ffffffff1660e01b81526004016127269392919061356d565b602060405180830381600087803b15801561274057600080fd5b505af1158015612754573d6000803e3d6000fd5b505050506040513d601f19601f820116820180604052508101906127789190612d2e565b50600460009054906101000a900473ffffffffffffffffffffffffffffffffffffffff1673ffffffffffffffffffffffffffffffffffffffff1663a9059cbb60008054906101000a900473ffffffffffffffffffffffffffffffffffffffff166001546040518363ffffffff1660e01b81526004016127f89291906135a4565b602060405180830381600087803b15801561281257600080fd5b505af1158015612826573d6000803e3d6000fd5b505050506040513d601f19601f8201168201806040525081019061284a9190612d2e565b507f6b4150c430f0b9b9df0f255d6761fd17eefed34257973ab988203c832edbcc238460068660405161287d91906134d1565b90815260200160405180910390206000015460405161289d9291906136e6565b60405180910390a150505050565b60015481565b6000816007816040516128c491906134d1565b908152602001604051809103902060009054906101000a900460ff1661291f576040517f08c379a000000000000000000000000000000000000000000000000000000000815260040161291690613756565b60405180910390fd5b6000806000806000600360009054906101000a900473ffffffffffffffffffffffffffffffffffffffff1673ffffffffffffffffffffffffffffffffffffffff1663c5573d46896040518263ffffffff1660e01b81526004016129829190613694565b60006040518083038186803b15801561299a57600080fd5b505afa1580156129ae573d6000803e3d6000fd5b505050506040513d6000823e3d601f19601f820116820180604052508101906129d79190612e5a565b945094509450945094506040516020016129f090613514565b6040516020818303038152906040528051906020012082604051602001612a1791906134d1565b604051602081830303815290604052805190602001201415612a4157600196505050505050612a4b565b6000965050505050505b50919050565b6006818051602081018201805184825260208301602085012081835280955050505050506000915090508060000154908060010160009054906101000a900473ffffffffffffffffffffffffffffffffffffffff16908060020160009054906101000a900473ffffffffffffffffffffffffffffffffffffffff16908060020160149054906101000a900460ff16908060030154905085565b6040518060a0016040528060008152602001600073ffffffffffffffffffffffffffffffffffffffff168152602001600073ffffffffffffffffffffffffffffffffffffffff16815260200160006003811115612b4a57612b49613d66565b5b8152602001600081525090565b828054612b6390613c8b565b90600052602060002090601f016020900481019282612b855760008555612bcc565b82601f10612b9e57805160ff1916838001178555612bcc565b82800160010185558215612bcc579182015b82811115612bcb578251825591602001919060010190612bb0565b5b509050612bd99190612bdd565b5090565b5b80821115612bf6576000816000905550600101612bde565b5090565b6000612c0d612c0884613a15565b6139f0565b905082815260208101848484011115612c2957612c28613e27565b5b612c34848285613c49565b509392505050565b6000612c4f612c4a84613a15565b6139f0565b905082815260208101848484011115612c6b57612c6a613e27565b5b612c76848285613c58565b509392505050565b600081519050612c8d81614308565b92915050565b600081519050612ca28161431f565b92915050565b600082601f830112612cbd57612cbc613e22565b5b8135612ccd848260208601612bfa565b91505092915050565b600082601f830112612ceb57612cea613e22565b5b8151612cfb848260208601612c3c565b91505092915050565b600081359050612d1381614336565b92915050565b600081519050612d2881614336565b92915050565b600060208284031215612d4457612d43613e31565b5b6000612d5284828501612c93565b91505092915050565b600060208284031215612d7157612d70613e31565b5b600082013567ffffffffffffffff811115612d8f57612d8e613e2c565b5b612d9b84828501612ca8565b91505092915050565b60008060408385031215612dbb57612dba613e31565b5b600083013567ffffffffffffffff811115612dd957612dd8613e2c565b5b612de585828601612ca8565b9250506020612df685828601612d04565b9150509250929050565b600060208284031215612e1657612e15613e31565b5b6000612e2484828501612d04565b91505092915050565b600060208284031215612e4357612e42613e31565b5b6000612e5184828501612d19565b91505092915050565b600080600080600060a08688031215612e7657612e75613e31565b5b6000612e8488828901612d19565b955050602086015167ffffffffffffffff811115612ea557612ea4613e2c565b5b612eb188828901612cd6565b945050604086015167ffffffffffffffff811115612ed257612ed1613e2c565b5b612ede88828901612cd6565b935050606086015167ffffffffffffffff811115612eff57612efe613e2c565b5b612f0b88828901612cd6565b9250506080612f1c88828901612c7e565b9150509295509295909350565b6000612f358383612f6d565b60208301905092915050565b6000612f4d83836130f8565b905092915050565b6000612f6183836134b3565b60208301905092915050565b612f7681613b94565b82525050565b612f8581613b94565b82525050565b6000612f9682613a8b565b612fa08185613ade565b9350612fab83613a46565b8060005b83811015612fdc578151612fc38882612f29565b9750612fce83613ab7565b925050600181019050612faf565b5085935050505092915050565b6000612ff482613a96565b612ffe8185613aef565b93508360208202850161301085613a56565b8060005b8581101561304c578484038952815161302d8582612f41565b945061303883613ac4565b925060208a01995050600181019050613014565b50829750879550505050505092915050565b600061306982613aa1565b6130738185613b00565b935061307e83613a66565b8060005b838110156130af5781516130968882612f55565b97506130a183613ad1565b925050600181019050613082565b5085935050505092915050565b6130c581613ba6565b82525050565b6130d481613bef565b82525050565b6130e381613c01565b82525050565b6130f281613c13565b82525050565b600061310382613aac565b61310d8185613b11565b935061311d818560208601613c58565b61312681613e36565b840191505092915050565b600061313c82613aac565b6131468185613b22565b9350613156818560208601613c58565b61315f81613e36565b840191505092915050565b600061317582613aac565b61317f8185613b33565b935061318f818560208601613c58565b80840191505092915050565b600081546131a881613c8b565b6131b28186613b33565b945060018216600081146131cd57600181146131de57613211565b60ff19831686528186019350613211565b6131e785613a76565b60005b83811015613209578154818901526001820191506020810190506131ea565b838801955050505b50505092915050565b6000613227603c83613b22565b915061323282613e47565b604082019050919050565b600061324a602283613b22565b915061325582613e96565b604082019050919050565b600061326d601783613b22565b915061327882613ee5565b602082019050919050565b6000613290601283613b33565b915061329b82613f0e565b601282019050919050565b60006132b3601b83613b22565b91506132be82613f37565b602082019050919050565b60006132d6604083613b22565b91506132e182613f60565b604082019050919050565b60006132f9602583613b22565b915061330482613faf565b604082019050919050565b600061331c601983613b22565b915061332782613ffe565b602082019050919050565b600061333f602883613b22565b915061334a82614027565b604082019050919050565b6000613362602683613b22565b915061336d82614076565b604082019050919050565b6000613385601c83613b22565b9150613390826140c5565b602082019050919050565b60006133a8602883613b22565b91506133b3826140ee565b604082019050919050565b60006133cb603083613b22565b91506133d68261413d565b604082019050919050565b60006133ee602083613b22565b91506133f98261418c565b602082019050919050565b6000613411601b83613b22565b915061341c826141b5565b602082019050919050565b6000613434604a83613b22565b915061343f826141de565b606082019050919050565b6000613457601083613b33565b915061346282614253565b601082019050919050565b600061347a602583613b22565b91506134858261427c565b604082019050919050565b600061349d601883613b22565b91506134a8826142cb565b602082019050919050565b6134bc81613be5565b82525050565b6134cb81613be5565b82525050565b60006134dd828461316a565b915081905092915050565b60006134f4828461319b565b915081905092915050565b600061350a82613283565b9150819050919050565b600061351f8261344a565b9150819050919050565b600060208201905061353e6000830184612f7c565b92915050565b60006040820190506135596000830185612f7c565b6135666020830184612f7c565b9392505050565b60006060820190506135826000830186612f7c565b61358f6020830185612f7c565b61359c60408301846134c2565b949350505050565b60006040820190506135b96000830185612f7c565b6135c660208301846134c2565b9392505050565b600060a08201905081810360008301526135e78188612fe9565b905081810360208301526135fb818761305e565b9050818103604083015261360f8186612fe9565b905081810360608301526136238185612f8b565b905081810360808301526136378184612f8b565b90509695505050505050565b600060208201905061365860008301846130bc565b92915050565b600060208201905061367360008301846130cb565b92915050565b600060208201905061368e60008301846130da565b92915050565b600060208201905081810360008301526136ae8184613131565b905092915050565b600060408201905081810360008301526136d08185613131565b90506136df6020830184612f7c565b9392505050565b600060408201905081810360008301526137008185613131565b905061370f60208301846134c2565b9392505050565b6000602082019050818103600083015261372f8161321a565b9050919050565b6000602082019050818103600083015261374f8161323d565b9050919050565b6000602082019050818103600083015261376f81613260565b9050919050565b6000602082019050818103600083015261378f816132a6565b9050919050565b600060208201905081810360008301526137af816132c9565b9050919050565b600060208201905081810360008301526137cf816132ec565b9050919050565b600060208201905081810360008301526137ef8161330f565b9050919050565b6000602082019050818103600083015261380f81613332565b9050919050565b6000602082019050818103600083015261382f81613355565b9050919050565b6000602082019050818103600083015261384f81613378565b9050919050565b6000602082019050818103600083015261386f8161339b565b9050919050565b6000602082019050818103600083015261388f816133be565b9050919050565b600060208201905081810360008301526138af816133e1565b9050919050565b600060208201905081810360008301526138cf81613404565b9050919050565b600060208201905081810360008301526138ef81613427565b9050919050565b6000602082019050818103600083015261390f8161346d565b9050919050565b6000602082019050818103600083015261392f81613490565b9050919050565b600060208201905061394b60008301846134c2565b92915050565b600060a08201905061396660008301886134c2565b6139736020830187612f7c565b6139806040830186612f7c565b61398d60608301856130e9565b61399a60808301846134c2565b9695505050505050565b60006080820190506139b960008301876134c2565b81810360208301526139cb8186613131565b90506139da6040830185612f7c565b6139e76060830184612f7c565b95945050505050565b60006139fa613a0b565b9050613a068282613cbd565b919050565b6000604051905090565b600067ffffffffffffffff821115613a3057613a2f613df3565b5b613a3982613e36565b9050602081019050919050565b6000819050602082019050919050565b6000819050602082019050919050565b6000819050602082019050919050565b60008190508160005260206000209050919050565b600081519050919050565b600081519050919050565b600081519050919050565b600081519050919050565b6000602082019050919050565b6000602082019050919050565b6000602082019050919050565b600082825260208201905092915050565b600082825260208201905092915050565b600082825260208201905092915050565b600082825260208201905092915050565b600082825260208201905092915050565b600081905092915050565b6000613b4982613be5565b9150613b5483613be5565b9250827fffffffffffffffffffffffffffffffffffffffffffffffffffffffffffffffff03821115613b8957613b88613d37565b5b828201905092915050565b6000613b9f82613bc5565b9050919050565b60008115159050919050565b6000819050613bc0826142f4565b919050565b600073ffffffffffffffffffffffffffffffffffffffff82169050919050565b6000819050919050565b6000613bfa82613c25565b9050919050565b6000613c0c82613c25565b9050919050565b6000613c1e82613bb2565b9050919050565b6000613c3082613c37565b9050919050565b6000613c4282613bc5565b9050919050565b82818337600083830152505050565b60005b83811015613c76578082015181840152602081019050613c5b565b83811115613c85576000848401525b50505050565b60006002820490506001821680613ca357607f821691505b60208210811415613cb757613cb6613d95565b5b50919050565b613cc682613e36565b810181811067ffffffffffffffff82111715613ce557613ce4613df3565b5b80604052505050565b6000613cf982613be5565b91507fffffffffffffffffffffffffffffffffffffffffffffffffffffffffffffffff821415613d2c57613d2b613d37565b5b600182019050919050565b7f4e487b7100000000000000000000000000000000000000000000000000000000600052601160045260246000fd5b7f4e487b7100000000000000000000000000000000000000000000000000000000600052602160045260246000fd5b7f4e487b7100000000000000000000000000000000000000000000000000000000600052602260045260246000fd5b7f4e487b7100000000000000000000000000000000000000000000000000000000600052603260045260246000fd5b7f4e487b7100000000000000000000000000000000000000000000000000000000600052604160045260246000fd5b600080fd5b600080fd5b600080fd5b600080fd5b6000601f19601f8301169050919050565b7f4167656e742063616e206f6e6c792069737375652074686520726566756e642060008201527f616674657220746865207370656369666965642074696d656f75742e00000000602082015250565b7f4e6f206465706f73697420666f756e6420666f7220746869732070726f64756360008201527f742e000000000000000000000000000000000000000000000000000000000000602082015250565b7f50726f6475637420646f6573206e6f742065786973742e000000000000000000600082015250565b7f7061636b6167696e672076657269666965640000000000000000000000000000600082015250565b7f50726f6475637420697320616c7265616479206f6666657265642e0000000000600082015250565b7f4167656e742063616e206f6e6c7920617070726f766520746865207061796d6560008201527f6e74206265666f726520746865207370656369666965642074696d656f75742e602082015250565b7f596f75206e65656420746f2073656c6c206174206c6561737420736f6d65207460008201527f6f6b656e73000000000000000000000000000000000000000000000000000000602082015250565b7f436865636b2074686520746f6b656e20616c6c6f77616e636500000000000000600082015250565b7f4f6e6c79206167656e742063616e2063616c6c2074686520726566756e64206660008201527f756e6374696f6e2e000000000000000000000000000000000000000000000000602082015250565b7f526563697069656e742073686f756c64206861766520612076616c696420616460008201527f6472657373210000000000000000000000000000000000000000000000000000602082015250565b7f50726f6475637420746f6b656e206973206e6f74206d696e7465642e00000000600082015250565b7f4f6e6c79206167656e742063616e2063616c6c207468652072656465656d206660008201527f756e6374696f6e2e000000000000000000000000000000000000000000000000602082015250565b7f4f6e6c79206f776e6572206f66206120746f6b656e2063616e206f666665722060008201527f697420617320612070726f647563742e00000000000000000000000000000000602082015250565b7f4e6f7420656e6f75676820746f6b656e7320696e207468652072657365727665600082015250565b7f596f75206e65656420746f2073656e6420736f6d652065746865720000000000600082015250565b7f506c65617365206d616b65207375726520796f7572206465706f73697420636f60008201527f7665727320626f7468207468652070726f6475637420707269636520616e642060208201527f6167656e74206665652100000000000000000000000000000000000000000000604082015250565b7f70726f6475637420766572696669656400000000000000000000000000000000600082015250565b7f526563697069656e742073686f756c64206e6f742062652074686520636f6e7460008201527f7261637421000000000000000000000000000000000000000000000000000000602082015250565b7f50726f64756374206973206e6f74206f6e206f66666572210000000000000000600082015250565b6004811061430557614304613d66565b5b50565b61431181613b94565b811461431c57600080fd5b50565b61432881613ba6565b811461433357600080fd5b50565b61433f81613be5565b811461434a57600080fd5b5056fea264697066735822122001657d34ca376c7f14c23098597bbe562b8d040db1feb2bc4032bacee0476ac464736f6c6343000807003360806040523480156200001157600080fd5b5060405162001a2338038062001a238339818101604052810190620000379190620003b3565b82828160039080519060200190620000519291906200026e565b5080600490805190602001906200006a9291906200026e565b50505033600560006101000a81548173ffffffffffffffffffffffffffffffffffffffff021916908373ffffffffffffffffffffffffffffffffffffffff160217905550620000e2600560009054906101000a900473ffffffffffffffffffffffffffffffffffffffff1682620000eb60201b60201c565b50505062000732565b600073ffffffffffffffffffffffffffffffffffffffff168273ffffffffffffffffffffffffffffffffffffffff1614156200015e576040517f08c379a0000000000000000000000000000000000000000000000000000000008152600401620001559062000485565b60405180910390fd5b62000172600083836200026460201b60201c565b806002600082825462000186919062000534565b92505081905550806000808473ffffffffffffffffffffffffffffffffffffffff1673ffffffffffffffffffffffffffffffffffffffff1681526020019081526020016000206000828254620001dd919062000534565b925050819055508173ffffffffffffffffffffffffffffffffffffffff16600073ffffffffffffffffffffffffffffffffffffffff167fddf252ad1be2c89b69c2b068fc378daa952ba7f163c4a11628f55a4df523b3ef83604051620002449190620004a7565b60405180910390a362000260600083836200026960201b60201c565b5050565b505050565b505050565b8280546200027c90620005d1565b90600052602060002090601f016020900481019282620002a05760008555620002ec565b82601f10620002bb57805160ff1916838001178555620002ec565b82800160010185558215620002ec579182015b82811115620002eb578251825591602001919060010190620002ce565b5b509050620002fb9190620002ff565b5090565b5b808211156200031a57600081600090555060010162000300565b5090565b6000620003356200032f84620004ed565b620004c4565b905082815260208101848484011115620003545762000353620006cf565b5b620003618482856200059b565b509392505050565b600082601f830112620003815762000380620006ca565b5b8151620003938482602086016200031e565b91505092915050565b600081519050620003ad8162000718565b92915050565b600080600060608486031215620003cf57620003ce620006d9565b5b600084015167ffffffffffffffff811115620003f057620003ef620006d4565b5b620003fe8682870162000369565b935050602084015167ffffffffffffffff811115620004225762000421620006d4565b5b620004308682870162000369565b925050604062000443868287016200039c565b9150509250925092565b60006200045c601f8362000523565b91506200046982620006ef565b602082019050919050565b6200047f8162000591565b82525050565b60006020820190508181036000830152620004a0816200044d565b9050919050565b6000602082019050620004be600083018462000474565b92915050565b6000620004d0620004e3565b9050620004de828262000607565b919050565b6000604051905090565b600067ffffffffffffffff8211156200050b576200050a6200069b565b5b6200051682620006de565b9050602081019050919050565b600082825260208201905092915050565b6000620005418262000591565b91506200054e8362000591565b9250827fffffffffffffffffffffffffffffffffffffffffffffffffffffffffffffffff038211156200058657620005856200063d565b5b828201905092915050565b6000819050919050565b60005b83811015620005bb5780820151818401526020810190506200059e565b83811115620005cb576000848401525b50505050565b60006002820490506001821680620005ea57607f821691505b602082108114156200060157620006006200066c565b5b50919050565b6200061282620006de565b810181811067ffffffffffffffff821117156200063457620006336200069b565b5b80604052505050565b7f4e487b7100000000000000000000000000000000000000000000000000000000600052601160045260246000fd5b7f4e487b7100000000000000000000000000000000000000000000000000000000600052602260045260246000fd5b7f4e487b7100000000000000000000000000000000000000000000000000000000600052604160045260246000fd5b600080fd5b600080fd5b600080fd5b600080fd5b6000601f19601f8301169050919050565b7f45524332303a206d696e7420746f20746865207a65726f206164647265737300600082015250565b620007238162000591565b81146200072f57600080fd5b50565b6112e180620007426000396000f3fe608060405234801561001057600080fd5b50600436106100b45760003560e01c806370a082311161007157806370a08231146101a357806395d89b41146101d3578063a457c2d7146101f1578063a9059cbb14610221578063dd62ed3e14610251578063f851a44014610281576100b4565b806306fdde03146100b9578063095ea7b3146100d757806318160ddd1461010757806323b872dd14610125578063313ce567146101555780633950935114610173575b600080fd5b6100c161029f565b6040516100ce9190610da2565b60405180910390f35b6100f160048036038101906100ec9190610bc2565b610331565b6040516100fe9190610d87565b60405180910390f35b61010f610354565b60405161011c9190610ea4565b60405180910390f35b61013f600480360381019061013a9190610b6f565b61035e565b60405161014c9190610d87565b60405180910390f35b61015d61038d565b60405161016a9190610ebf565b60405180910390f35b61018d60048036038101906101889190610bc2565b610396565b60405161019a9190610d87565b60405180910390f35b6101bd60048036038101906101b89190610b02565b6103cd565b6040516101ca9190610ea4565b60405180910390f35b6101db610415565b6040516101e89190610da2565b60405180910390f35b61020b60048036038101906102069190610bc2565b6104a7565b6040516102189190610d87565b60405180910390f35b61023b60048036038101906102369190610bc2565b61051e565b6040516102489190610d87565b60405180910390f35b61026b60048036038101906102669190610b2f565b610541565b6040516102789190610ea4565b60405180910390f35b6102896105c8565b6040516102969190610d6c565b60405180910390f35b6060600380546102ae90610fd4565b80601f01602080910402602001604051908101604052809291908181526020018280546102da90610fd4565b80156103275780601f106102fc57610100808354040283529160200191610327565b820191906000526020600020905b81548152906001019060200180831161030a57829003601f168201915b5050505050905090565b60008061033c6105ee565b90506103498185856105f6565b600191505092915050565b6000600254905090565b6000806103696105ee565b90506103768582856107c1565b61038185858561084d565b60019150509392505050565b60006012905090565b6000806103a16105ee565b90506103c28185856103b38589610541565b6103bd9190610ef6565b6105f6565b600191505092915050565b60008060008373ffffffffffffffffffffffffffffffffffffffff1673ffffffffffffffffffffffffffffffffffffffff168152602001908152602001600020549050919050565b60606004805461042490610fd4565b80601f016020809104026020016040519081016040528092919081815260200182805461045090610fd4565b801561049d5780601f106104725761010080835404028352916020019161049d565b820191906000526020600020905b81548152906001019060200180831161048057829003601f168201915b5050505050905090565b6000806104b26105ee565b905060006104c08286610541565b905083811015610505576040517f08c379a00000000000000000000000000000000000000000000000000000000081526004016104fc90610e84565b60405180910390fd5b61051282868684036105f6565b60019250505092915050565b6000806105296105ee565b905061053681858561084d565b600191505092915050565b6000600160008473ffffffffffffffffffffffffffffffffffffffff1673ffffffffffffffffffffffffffffffffffffffff16815260200190815260200160002060008373ffffffffffffffffffffffffffffffffffffffff1673ffffffffffffffffffffffffffffffffffffffff16815260200190815260200160002054905092915050565b600560009054906101000a900473ffffffffffffffffffffffffffffffffffffffff1681565b600033905090565b600073ffffffffffffffffffffffffffffffffffffffff168373ffffffffffffffffffffffffffffffffffffffff161415610666576040517f08c379a000000000000000000000000000000000000000000000000000000000815260040161065d90610e64565b60405180910390fd5b600073ffffffffffffffffffffffffffffffffffffffff168273ffffffffffffffffffffffffffffffffffffffff1614156106d6576040517f08c379a00000000000000000000000000000000000000000000000000000000081526004016106cd90610de4565b60405180910390fd5b80600160008573ffffffffffffffffffffffffffffffffffffffff1673ffffffffffffffffffffffffffffffffffffffff16815260200190815260200160002060008473ffffffffffffffffffffffffffffffffffffffff1673ffffffffffffffffffffffffffffffffffffffff168152602001908152602001600020819055508173ffffffffffffffffffffffffffffffffffffffff168373ffffffffffffffffffffffffffffffffffffffff167f8c5be1e5ebec7d5bd14f71427d1e84f3dd0314c0f7b2291e5b200ac8c7c3b925836040516107b49190610ea4565b60405180910390a3505050565b60006107cd8484610541565b90507fffffffffffffffffffffffffffffffffffffffffffffffffffffffffffffffff81146108475781811015610839576040517f08c379a000000000000000000000000000000000000000000000000000000000815260040161083090610e04565b60405180910390fd5b61084684848484036105f6565b5b50505050565b600073ffffffffffffffffffffffffffffffffffffffff168373ffffffffffffffffffffffffffffffffffffffff1614156108bd576040517f08c379a00000000000000000000000000000000000000000000000000000000081526004016108b490610e44565b60405180910390fd5b600073ffffffffffffffffffffffffffffffffffffffff168273ffffffffffffffffffffffffffffffffffffffff16141561092d576040517f08c379a000000000000000000000000000000000000000000000000000000000815260040161092490610dc4565b60405180910390fd5b610938838383610ace565b60008060008573ffffffffffffffffffffffffffffffffffffffff1673ffffffffffffffffffffffffffffffffffffffff168152602001908152602001600020549050818110156109be576040517f08c379a00000000000000000000000000000000000000000000000000000000081526004016109b590610e24565b60405180910390fd5b8181036000808673ffffffffffffffffffffffffffffffffffffffff1673ffffffffffffffffffffffffffffffffffffffff16815260200190815260200160002081905550816000808573ffffffffffffffffffffffffffffffffffffffff1673ffffffffffffffffffffffffffffffffffffffff1681526020019081526020016000206000828254610a519190610ef6565b925050819055508273ffffffffffffffffffffffffffffffffffffffff168473ffffffffffffffffffffffffffffffffffffffff167fddf252ad1be2c89b69c2b068fc378daa952ba7f163c4a11628f55a4df523b3ef84604051610ab59190610ea4565b60405180910390a3610ac8848484610ad3565b50505050565b505050565b505050565b600081359050610ae78161127d565b92915050565b600081359050610afc81611294565b92915050565b600060208284031215610b1857610b17611064565b5b6000610b2684828501610ad8565b91505092915050565b60008060408385031215610b4657610b45611064565b5b6000610b5485828601610ad8565b9250506020610b6585828601610ad8565b9150509250929050565b600080600060608486031215610b8857610b87611064565b5b6000610b9686828701610ad8565b9350506020610ba786828701610ad8565b9250506040610bb886828701610aed565b9150509250925092565b60008060408385031215610bd957610bd8611064565b5b6000610be785828601610ad8565b9250506020610bf885828601610aed565b9150509250929050565b610c0b81610f4c565b82525050565b610c1a81610f5e565b82525050565b6000610c2b82610eda565b610c358185610ee5565b9350610c45818560208601610fa1565b610c4e81611069565b840191505092915050565b6000610c66602383610ee5565b9150610c718261107a565b604082019050919050565b6000610c89602283610ee5565b9150610c94826110c9565b604082019050919050565b6000610cac601d83610ee5565b9150610cb782611118565b602082019050919050565b6000610ccf602683610ee5565b9150610cda82611141565b604082019050919050565b6000610cf2602583610ee5565b9150610cfd82611190565b604082019050919050565b6000610d15602483610ee5565b9150610d20826111df565b604082019050919050565b6000610d38602583610ee5565b9150610d438261122e565b604082019050919050565b610d5781610f8a565b82525050565b610d6681610f94565b82525050565b6000602082019050610d816000830184610c02565b92915050565b6000602082019050610d9c6000830184610c11565b92915050565b60006020820190508181036000830152610dbc8184610c20565b905092915050565b60006020820190508181036000830152610ddd81610c59565b9050919050565b60006020820190508181036000830152610dfd81610c7c565b9050919050565b60006020820190508181036000830152610e1d81610c9f565b9050919050565b60006020820190508181036000830152610e3d81610cc2565b9050919050565b60006020820190508181036000830152610e5d81610ce5565b9050919050565b60006020820190508181036000830152610e7d81610d08565b9050919050565b60006020820190508181036000830152610e9d81610d2b565b9050919050565b6000602082019050610eb96000830184610d4e565b92915050565b6000602082019050610ed46000830184610d5d565b92915050565b600081519050919050565b600082825260208201905092915050565b6000610f0182610f8a565b9150610f0c83610f8a565b9250827fffffffffffffffffffffffffffffffffffffffffffffffffffffffffffffffff03821115610f4157610f40611006565b5b828201905092915050565b6000610f5782610f6a565b9050919050565b60008115159050919050565b600073ffffffffffffffffffffffffffffffffffffffff82169050919050565b6000819050919050565b600060ff82169050919050565b60005b83811015610fbf578082015181840152602081019050610fa4565b83811115610fce576000848401525b50505050565b60006002820490506001821680610fec57607f821691505b6020821081141561100057610fff611035565b5b50919050565b7f4e487b7100000000000000000000000000000000000000000000000000000000600052601160045260246000fd5b7f4e487b7100000000000000000000000000000000000000000000000000000000600052602260045260246000fd5b600080fd5b6000601f19601f8301169050919050565b7f45524332303a207472616e7366657220746f20746865207a65726f206164647260008201527f6573730000000000000000000000000000000000000000000000000000000000602082015250565b7f45524332303a20617070726f766520746f20746865207a65726f20616464726560008201527f7373000000000000000000000000000000000000000000000000000000000000602082015250565b7f45524332303a20696e73756666696369656e7420616c6c6f77616e6365000000600082015250565b7f45524332303a207472616e7366657220616d6f756e742065786365656473206260008201527f616c616e63650000000000000000000000000000000000000000000000000000602082015250565b7f45524332303a207472616e736665722066726f6d20746865207a65726f20616460008201527f6472657373000000000000000000000000000000000000000000000000000000602082015250565b7f45524332303a20617070726f76652066726f6d20746865207a65726f2061646460008201527f7265737300000000000000000000000000000000000000000000000000000000602082015250565b7f45524332303a2064656372656173656420616c6c6f77616e63652062656c6f7760008201527f207a65726f000000000000000000000000000000000000000000000000000000602082015250565b61128681610f4c565b811461129157600080fd5b50565b61129d81610f8a565b81146112a857600080fd5b5056fea2646970667358221220b3be26dabe8439ffd658502bec8946a7cb1219d90863fcfb15160f4ebc7b35cc64736f6c63430008070033",
  "immutableReferences": {},
  "source": "// SPDX-License-Identifier: MIT\npragma solidity ^0.8.0;\n\nimport \"../node_modules/@openzeppelin/contracts/utils/math/SafeMath.sol\";\nimport \"./DigitalTwin.sol\";\nimport \"./BToken.sol\";\n\n/**\n * @title EscrowService Contract, forked from https://github.com/AleRapchan/escrow-service\n * @author Yining Hu\n * @notice Building a single role access control Escrow Service using OpenZeppelin Escrow and RBAC\n * @dev contract currently assume one buyer account and one seller account, should develop an additional wallet contract and allow new user registration\n * @dev Todo: to implement multi-sig, time-based escrow\n * @dev Todo: the easiest would be to transfer both money and ownership of the product to the agent \n * @dev then to prevent agent from taking everything, agent needs to deposit, which can be slashed if caught faulty\n */\ncontract Escrow {\n\n    address agent;\n    uint256 public fee_btk;\n    uint256 timeout;\n\n    using SafeMath for uint256;\n\n    DigitalTwin public digitaltwin;\n    BToken public btk;\n    \n    enum EscrowState { OFFERED, DEPOSITTAKEN, SELLERREDEEMED, BUYERDENIED } //PAYMENTSUCCESSFUL, PAYMENTREVERTED\n\n    struct Product{\n        uint256 price;\n        address buyer;\n        address seller;\n        EscrowState state;\n        uint256 timeout; // timeout for payment settlement\n    }\n\n    string[] allproducts;\n    mapping (string => Product) public stock; // whole stock of offered items for sale in escrow arragement\n    mapping(string => bool) public productExists;\n\n    event DepositTaken(string tkname, uint256 price);\n\n    /**\n     * @dev before setting up any user wallet, all buyers/sellers use a single buyer/seller address, which are maintained by Beston.\n     */\n    constructor(DigitalTwin _digitaltwin) {\n        digitaltwin = _digitaltwin;\n        btk = new BToken(\"BT\", \"BT\", 1000000);\n        agent = msg.sender;\n        fee_btk = 1;\n        timeout = 5 minutes;\n    }\n\n    modifier validDestination(address to) {\n        require(to != address(0x0), \"Recipient should have a valid address!\");\n        require(to != address(this), \"Recipient should not be the contract!\");\n        _;\n    }\n\n    modifier validProduct(string memory _tkname) {\n        require(productExists[_tkname], \"Product does not exist.\");\n        _;\n    }\n\n    function offer(string memory _tkname , uint256 _price) public {\n        require(!productExists[_tkname], \"Product is already offered.\");\n        require(digitaltwin.tkExists(_tkname), \"Product token is not minted.\");\n\n        // should also require the caller to be the owner of the product\n        (uint256 id, string memory metadata, string memory rstatus, string memory vstatus, address addr) = digitaltwin.queryToken(_tkname);\n        require(msg.sender == addr, \"Only owner of a token can offer it as a product.\");\n\n        Product memory product;\n        product.price = _price; /// @dev double check the conversion in Polygon\n        product.state = EscrowState.OFFERED;\n        product.seller = msg.sender;\n        stock[_tkname] = product;\n        productExists[_tkname] = true;\n        allproducts.push(_tkname);\n\n        // transfer the token ownership to the agent\n        digitaltwin.transferByName(_tkname,agent);\n    }\n\n    /**\n     * buyBTK allows a caller to buy BTK from Escrow\n     * sellBTK allows a caller to sell BTK to Escrow\n     */\n    function buyBTK() payable public {\n        uint256 amountTobuy = msg.value;\n        uint256 dexBalance = btk.balanceOf(address(this));\n        require(amountTobuy > 0, \"You need to send some ether\");\n        require(amountTobuy <= dexBalance, \"Not enough tokens in the reserve\");\n        btk.transfer(msg.sender, amountTobuy);\n    }\n\n    function sellBTK(uint256 amount) public {\n        require(amount > 0, \"You need to sell at least some tokens\");\n        uint256 allowance = btk.allowance(msg.sender, address(this));\n        require(allowance >= amount, \"Check the token allowance\");\n        btk.transferFrom(msg.sender, address(this), amount); // msg.sender is the caller, address(this) is Escrow\n        payable(msg.sender).transfer(amount);\n    }\n\n    /**\n     * @notice Buyer can make a deposit to products on offer\n     */\n    function BuyerDepositWithBTK(string memory _tkname, uint256 _deposit) external validDestination(agent) validProduct(_tkname) {\n        require (_deposit == fee_btk + stock[_tkname].price, \"Please make sure your deposit covers both the product price and agent fee!\");\n        require (stock[_tkname].state == EscrowState.OFFERED , \"Product is not on offer!\"); // this also blocks buyer from making duplicatd deposit\n\n        stock[_tkname].buyer = payable(msg.sender); //Todo: this doesn't need to be payable\n        stock[_tkname].state = EscrowState.DEPOSITTAKEN;\n        stock[_tkname].timeout = block.timestamp + timeout; // add a timeout for settlement when buyer sends deposit\n\n        btk.transferFrom(msg.sender, address(this), _deposit); // buyer transfers the deposit to Escrow (provided that buyer approves separately)\n        btk.transfer(agent, fee_btk); // buyer transfers the agent fee via Escrow, this msg.sender is Escrow\n        \n        emit DepositTaken(_tkname, stock[_tkname].price);\n    }\n\n    function AgentApproveWithBTK(string memory _tkname) public validDestination(stock[_tkname].seller) validProduct(_tkname) {\n        require (msg.sender == agent, \"Only agent can call the redeem function.\");\n        require (stock[_tkname].state == EscrowState.DEPOSITTAKEN, \"No deposit found for this product.\");\n        require (block.timestamp < stock[_tkname].timeout, \"Agent can only approve the payment before the specified timeout.\");\n        btk.transfer(stock[_tkname].seller, stock[_tkname].price); // Escrow transfers the product price to seller\n        stock[_tkname].state = EscrowState.SELLERREDEEMED;\n    }\n\n    /**\n     * @notice Buyer can deny the payment upon unsatisfactory verification result or for other reasons.\n     */\n    function AgentDenyWithBTK(string memory _tkname) public validDestination(stock[_tkname].buyer) validProduct(_tkname) {\n        require (msg.sender == agent, \"Only agent can call the refund function.\");\n        require (stock[_tkname].state == EscrowState.DEPOSITTAKEN, \"No deposit found for this product.\");\n        require (block.timestamp > stock[_tkname].timeout, \"Agent can only issue the refund after the specified timeout.\");\n        btk.transfer(stock[_tkname].buyer, stock[_tkname].price);\n        stock[_tkname].state = EscrowState.BUYERDENIED;\n    }\n\n    /**\n     * @notice getters\n     */\n\n    function VerifyPackaging(string memory _tkname) public view validProduct(_tkname) returns (bool) {\n        (uint256 id, string memory metadata, string memory rstatus, string memory vstatus, address addr) = digitaltwin.queryToken(_tkname);\n        if (keccak256(abi.encodePacked(rstatus)) == keccak256(abi.encodePacked(\"packaging verified\"))) {\n            return true;\n        } else {\n            return false;\n        }\n    }\n\n    function VerifyProduct(string memory _tkname) public view validProduct(_tkname) returns (bool) {\n        (uint256 id, string memory metadata, string memory rstatus, string memory vstatus, address addr) = digitaltwin.queryToken(_tkname);\n        if (keccak256(abi.encodePacked(vstatus)) == keccak256(abi.encodePacked(\"product verified\"))) {\n            return true;\n        } else {\n            return false;\n        }\n    }\n\n    function QueryProduct(string memory _tkname) public view validProduct(_tkname) returns(uint256, string memory, address, address) {\n        string memory state;\n\n        if (stock[_tkname].state == EscrowState.OFFERED) {\n            state = \"product on offer\";\n        } else if (stock[_tkname].state == EscrowState.DEPOSITTAKEN) {\n            state = \"deposit taken\";\n        } else if (stock[_tkname].state == EscrowState.SELLERREDEEMED) {\n            state = \"payment successful\";\n        } else if (stock[_tkname].state == EscrowState.BUYERDENIED) {\n            state = \"payment returned\";\n        } else {\n            state = \"unknown escrow state\";\n        }\n\n        return (stock[_tkname].price, state, stock[_tkname].seller, stock[_tkname].buyer);\n    }\n\n    function QueryAllProducts() \n        public\n        view\n        returns\n    (\n        string[] memory, \n        uint256[] memory, \n        string[] memory,\n        address[] memory,\n        address[] memory\n    )\n    {\n        uint256[] memory prices = new uint256[](allproducts.length);\n        string[] memory states = new string[](allproducts.length);\n        address[] memory sellers = new address[](allproducts.length);\n        address[] memory buyers = new address[](allproducts.length);\n\n        for(uint i=0; i<allproducts.length; i++){\n            prices[i] = stock[allproducts[i]].price;\n\n            if (stock[allproducts[i]].state == EscrowState.OFFERED) {\n                states[i] = \"product on offer\";\n            } else if (stock[allproducts[i]].state == EscrowState.DEPOSITTAKEN) {\n                states[i] = \"deposit taken\";\n            } else if (stock[allproducts[i]].state == EscrowState.SELLERREDEEMED) {\n                states[i] = \"payment successful\";\n            } else if (stock[allproducts[i]].state == EscrowState.BUYERDENIED) {\n                states[i] = \"payment returned\";\n            } else {\n                states[i] = \"unknown escrow state\";\n            }\n\n            sellers[i] = stock[allproducts[i]].seller;\n            buyers[i] = stock[allproducts[i]].buyer;\n        }\n\n        return (allproducts, prices, states, sellers, buyers);\n    }\n}",
  "sourcePath": "/home/yih/Documents/dev/beston-dapps/contracts/Escrow.sol",
  "compiler": {
    "name": "solc",
    "version": "0.8.7+commit.e28d00a7.Emscripten.clang"
  },
  "schemaVersion": "3.4.1",
  "updatedAt": "2023-02-02T04:42:13.576Z",
  "networkType": "ethereum",
  "devdoc": {
    "author": "Yining Hu",
    "details": "contract currently assume one buyer account and one seller account, should develop an additional wallet contract and allow new user registrationTodo: to implement multi-sig, time-based escrowTodo: the easiest would be to transfer both money and ownership of the product to the agent then to prevent agent from taking everything, agent needs to deposit, which can be slashed if caught faulty",
    "kind": "dev",
    "methods": {
      "constructor": {
        "details": "before setting up any user wallet, all buyers/sellers use a single buyer/seller address, which are maintained by Beston."
      }
    },
    "title": "EscrowService Contract, forked from https://github.com/AleRapchan/escrow-service",
    "version": 1
  },
  "userdoc": {
    "kind": "user",
    "methods": {
      "AgentDenyWithBTK(string)": {
        "notice": "Buyer can deny the payment upon unsatisfactory verification result or for other reasons."
      },
      "BuyerDepositWithBTK(string,uint256)": {
        "notice": "Buyer can make a deposit to products on offer"
      },
      "VerifyPackaging(string)": {
        "notice": "getters"
      },
      "buyBTK()": {
        "notice": "buyBTK allows a caller to buy BTK from Escrow sellBTK allows a caller to sell BTK to Escrow"
      }
    },
    "notice": "Building a single role access control Escrow Service using OpenZeppelin Escrow and RBAC",
    "version": 1
  }
}