{
  "contractName": "Escrow",
  "abi": [
    {
      "inputs": [
        {
          "internalType": "address payable",
          "name": "_buyer_address",
          "type": "address"
        },
        {
          "internalType": "address payable",
          "name": "_seller_address",
          "type": "address"
        }
      ],
      "stateMutability": "nonpayable",
      "type": "constructor"
    },
    {
      "anonymous": false,
      "inputs": [
        {
          "indexed": true,
          "internalType": "bytes32",
          "name": "role",
          "type": "bytes32"
        },
        {
          "indexed": true,
          "internalType": "bytes32",
          "name": "previousAdminRole",
          "type": "bytes32"
        },
        {
          "indexed": true,
          "internalType": "bytes32",
          "name": "newAdminRole",
          "type": "bytes32"
        }
      ],
      "name": "RoleAdminChanged",
      "type": "event"
    },
    {
      "anonymous": false,
      "inputs": [
        {
          "indexed": true,
          "internalType": "bytes32",
          "name": "role",
          "type": "bytes32"
        },
        {
          "indexed": true,
          "internalType": "address",
          "name": "account",
          "type": "address"
        },
        {
          "indexed": true,
          "internalType": "address",
          "name": "sender",
          "type": "address"
        }
      ],
      "name": "RoleGranted",
      "type": "event"
    },
    {
      "anonymous": false,
      "inputs": [
        {
          "indexed": true,
          "internalType": "bytes32",
          "name": "role",
          "type": "bytes32"
        },
        {
          "indexed": true,
          "internalType": "address",
          "name": "account",
          "type": "address"
        },
        {
          "indexed": true,
          "internalType": "address",
          "name": "sender",
          "type": "address"
        }
      ],
      "name": "RoleRevoked",
      "type": "event"
    },
    {
      "inputs": [],
      "name": "AGENT_ROLE",
      "outputs": [
        {
          "internalType": "bytes32",
          "name": "",
          "type": "bytes32"
        }
      ],
      "stateMutability": "view",
      "type": "function"
    },
    {
      "inputs": [],
      "name": "BUYER_ROLE",
      "outputs": [
        {
          "internalType": "bytes32",
          "name": "",
          "type": "bytes32"
        }
      ],
      "stateMutability": "view",
      "type": "function"
    },
    {
      "inputs": [],
      "name": "DEFAULT_ADMIN_ROLE",
      "outputs": [
        {
          "internalType": "bytes32",
          "name": "",
          "type": "bytes32"
        }
      ],
      "stateMutability": "view",
      "type": "function"
    },
    {
      "inputs": [],
      "name": "SELLER_ROLE",
      "outputs": [
        {
          "internalType": "bytes32",
          "name": "",
          "type": "bytes32"
        }
      ],
      "stateMutability": "view",
      "type": "function"
    },
    {
      "inputs": [],
      "name": "digitaltwin",
      "outputs": [
        {
          "internalType": "contract DigitalTwin",
          "name": "",
          "type": "address"
        }
      ],
      "stateMutability": "view",
      "type": "function"
    },
    {
      "inputs": [],
      "name": "fee",
      "outputs": [
        {
          "internalType": "uint256",
          "name": "",
          "type": "uint256"
        }
      ],
      "stateMutability": "view",
      "type": "function"
    },
    {
      "inputs": [
        {
          "internalType": "bytes32",
          "name": "role",
          "type": "bytes32"
        }
      ],
      "name": "getRoleAdmin",
      "outputs": [
        {
          "internalType": "bytes32",
          "name": "",
          "type": "bytes32"
        }
      ],
      "stateMutability": "view",
      "type": "function"
    },
    {
      "inputs": [
        {
          "internalType": "bytes32",
          "name": "role",
          "type": "bytes32"
        },
        {
          "internalType": "address",
          "name": "account",
          "type": "address"
        }
      ],
      "name": "grantRole",
      "outputs": [],
      "stateMutability": "nonpayable",
      "type": "function"
    },
    {
      "inputs": [
        {
          "internalType": "bytes32",
          "name": "role",
          "type": "bytes32"
        },
        {
          "internalType": "address",
          "name": "account",
          "type": "address"
        }
      ],
      "name": "hasRole",
      "outputs": [
        {
          "internalType": "bool",
          "name": "",
          "type": "bool"
        }
      ],
      "stateMutability": "view",
      "type": "function"
    },
    {
      "inputs": [],
      "name": "initial_payment",
      "outputs": [
        {
          "internalType": "uint256",
          "name": "",
          "type": "uint256"
        }
      ],
      "stateMutability": "view",
      "type": "function"
    },
    {
      "inputs": [],
      "name": "price",
      "outputs": [
        {
          "internalType": "uint256",
          "name": "",
          "type": "uint256"
        }
      ],
      "stateMutability": "view",
      "type": "function"
    },
    {
      "inputs": [
        {
          "internalType": "string",
          "name": "",
          "type": "string"
        }
      ],
      "name": "productExists",
      "outputs": [
        {
          "internalType": "bool",
          "name": "",
          "type": "bool"
        }
      ],
      "stateMutability": "view",
      "type": "function"
    },
    {
      "inputs": [],
      "name": "remaining_payment",
      "outputs": [
        {
          "internalType": "uint256",
          "name": "",
          "type": "uint256"
        }
      ],
      "stateMutability": "view",
      "type": "function"
    },
    {
      "inputs": [
        {
          "internalType": "bytes32",
          "name": "role",
          "type": "bytes32"
        },
        {
          "internalType": "address",
          "name": "account",
          "type": "address"
        }
      ],
      "name": "renounceRole",
      "outputs": [],
      "stateMutability": "nonpayable",
      "type": "function"
    },
    {
      "inputs": [
        {
          "internalType": "bytes32",
          "name": "role",
          "type": "bytes32"
        },
        {
          "internalType": "address",
          "name": "account",
          "type": "address"
        }
      ],
      "name": "revokeRole",
      "outputs": [],
      "stateMutability": "nonpayable",
      "type": "function"
    },
    {
      "inputs": [
        {
          "internalType": "string",
          "name": "",
          "type": "string"
        }
      ],
      "name": "stock",
      "outputs": [
        {
          "internalType": "uint256",
          "name": "price",
          "type": "uint256"
        },
        {
          "internalType": "enum Escrow.EscrowState",
          "name": "state",
          "type": "uint8"
        }
      ],
      "stateMutability": "view",
      "type": "function"
    },
    {
      "inputs": [
        {
          "internalType": "bytes4",
          "name": "interfaceId",
          "type": "bytes4"
        }
      ],
      "name": "supportsInterface",
      "outputs": [
        {
          "internalType": "bool",
          "name": "",
          "type": "bool"
        }
      ],
      "stateMutability": "view",
      "type": "function"
    },
    {
      "inputs": [
        {
          "internalType": "address",
          "name": "_address",
          "type": "address"
        }
      ],
      "name": "setAddr",
      "outputs": [],
      "stateMutability": "nonpayable",
      "type": "function"
    },
    {
      "inputs": [
        {
          "internalType": "string",
          "name": "_tkname",
          "type": "string"
        },
        {
          "internalType": "uint256",
          "name": "_price",
          "type": "uint256"
        }
      ],
      "name": "Offer",
      "outputs": [],
      "stateMutability": "nonpayable",
      "type": "function"
    },
    {
      "inputs": [
        {
          "internalType": "string",
          "name": "_tkname",
          "type": "string"
        }
      ],
      "name": "BuyerSendPayment",
      "outputs": [],
      "stateMutability": "payable",
      "type": "function"
    },
    {
      "inputs": [
        {
          "internalType": "string",
          "name": "_tkname",
          "type": "string"
        }
      ],
      "name": "VerifyProduct",
      "outputs": [
        {
          "internalType": "bool",
          "name": "",
          "type": "bool"
        }
      ],
      "stateMutability": "view",
      "type": "function"
    },
    {
      "inputs": [
        {
          "internalType": "string",
          "name": "_tkname",
          "type": "string"
        }
      ],
      "name": "BuyerApprove",
      "outputs": [],
      "stateMutability": "nonpayable",
      "type": "function"
    },
    {
      "inputs": [
        {
          "internalType": "string",
          "name": "_tkname",
          "type": "string"
        }
      ],
      "name": "BuyerDeny",
      "outputs": [],
      "stateMutability": "nonpayable",
      "type": "function"
    },
    {
      "inputs": [
        {
          "internalType": "string",
          "name": "_tkname",
          "type": "string"
        }
      ],
      "name": "AgentConfirmTransaction",
      "outputs": [],
      "stateMutability": "nonpayable",
      "type": "function"
    },
    {
      "inputs": [
        {
          "internalType": "string",
          "name": "_tkname",
          "type": "string"
        }
      ],
      "name": "AgentCancelTransaction",
      "outputs": [],
      "stateMutability": "nonpayable",
      "type": "function"
    },
    {
      "inputs": [],
      "name": "GetUsers",
      "outputs": [
        {
          "internalType": "address",
          "name": "",
          "type": "address"
        },
        {
          "internalType": "address",
          "name": "",
          "type": "address"
        }
      ],
      "stateMutability": "view",
      "type": "function"
    },
    {
      "inputs": [
        {
          "internalType": "string",
          "name": "_tkname",
          "type": "string"
        }
      ],
      "name": "QueryProduct",
      "outputs": [
        {
          "internalType": "uint256",
          "name": "",
          "type": "uint256"
        },
        {
          "internalType": "enum Escrow.EscrowState",
          "name": "",
          "type": "uint8"
        },
        {
          "internalType": "bool",
          "name": "",
          "type": "bool"
        }
      ],
      "stateMutability": "view",
      "type": "function"
    },
    {
      "inputs": [],
      "name": "VaultBalance",
      "outputs": [
        {
          "internalType": "uint256",
          "name": "",
          "type": "uint256"
        }
      ],
      "stateMutability": "view",
      "type": "function"
    }
  ],
  "bytecode": "0x60806040523480156200001157600080fd5b506040516200326038038062003260833981810160405281019062000037919062000410565b30600160006101000a81548173ffffffffffffffffffffffffffffffffffffffff021916908373ffffffffffffffffffffffffffffffffffffffff16021790555033600260006101000a81548173ffffffffffffffffffffffffffffffffffffffff021916908373ffffffffffffffffffffffffffffffffffffffff16021790555033600360006101000a81548173ffffffffffffffffffffffffffffffffffffffff021916908373ffffffffffffffffffffffffffffffffffffffff16021790555081600460006101000a81548173ffffffffffffffffffffffffffffffffffffffff021916908373ffffffffffffffffffffffffffffffffffffffff16021790555080600560006101000a81548173ffffffffffffffffffffffffffffffffffffffff021916908373ffffffffffffffffffffffffffffffffffffffff160217905550620001d07fcab5a0bfe0b79d2c4b1c2e02599fa044d115b7511f9659307cb4276950967709600360009054906101000a900473ffffffffffffffffffffffffffffffffffffffff166200028060201b60201c565b620002247ff8cd32ed93fc2f9fc78152a14807c9609af3d99c5fe4dc6b106a801aaddfe90e600460009054906101000a900473ffffffffffffffffffffffffffffffffffffffff166200028060201b60201c565b620002787f43f25613eb2f15fb17222a5d424ca2655743e71265d98e4b93c05e5fb589ecde600560009054906101000a900473ffffffffffffffffffffffffffffffffffffffff166200028060201b60201c565b5050620004aa565b6200029282826200029660201b60201c565b5050565b620002a882826200038760201b60201c565b6200038357600160008084815260200190815260200160002060000160008373ffffffffffffffffffffffffffffffffffffffff1673ffffffffffffffffffffffffffffffffffffffff16815260200190815260200160002060006101000a81548160ff02191690831515021790555062000328620003f160201b60201c565b73ffffffffffffffffffffffffffffffffffffffff168173ffffffffffffffffffffffffffffffffffffffff16837f2f8788117e7eff1d82e926ec794901d17c78024a50270940304540a733656f0d60405160405180910390a45b5050565b600080600084815260200190815260200160002060000160008373ffffffffffffffffffffffffffffffffffffffff1673ffffffffffffffffffffffffffffffffffffffff16815260200190815260200160002060009054906101000a900460ff16905092915050565b600033905090565b6000815190506200040a8162000490565b92915050565b600080604083850312156200042a57620004296200048b565b5b60006200043a85828601620003f9565b92505060206200044d85828601620003f9565b9150509250929050565b600062000464826200046b565b9050919050565b600073ffffffffffffffffffffffffffffffffffffffff82169050919050565b600080fd5b6200049b8162000457565b8114620004a757600080fd5b50565b612da680620004ba6000396000f3fe6080604052600436106101b75760003560e01c8063a035b1fe116100ec578063d547741f1161008a578063ddca3f4311610064578063ddca3f4314610602578063f8c3540b1461062d578063fae0c53c1461066a578063fd9908e314610693576101b7565b8063d547741f14610582578063da3eec19146105ab578063dbe4613d146105d7576101b7565b8063b882bd63116100c6578063b882bd63146104dc578063c0db2e5e14610505578063c8e2fa8d1461052e578063d1d80fdf14610559576101b7565b8063a035b1fe1461045b578063a217fddf14610486578063a8f5ecb7146104b1576101b7565b80635ebacb541161015957806386dc434b1161013357806386dc434b146103775780638addc051146103a257806391d14854146103df578063a00cbd5b1461041c576101b7565b80635ebacb54146103075780637a01a1da14610330578063833f41f51461035b576101b7565b80632710473d116101955780632710473d146102615780632f2ff15d1461028a57806336568abe146102b3578063511a80d5146102dc576101b7565b806301ffc9a7146101bc57806322459e18146101f9578063248a9ca314610224575b600080fd5b3480156101c857600080fd5b506101e360048036038101906101de9190612035565b6106d1565b6040516101f09190612449565b60405180910390f35b34801561020557600080fd5b5061020e61074b565b60405161021b9190612464565b60405180910390f35b34801561023057600080fd5b5061024b60048036038101906102469190611fc8565b61076f565b6040516102589190612464565b60405180910390f35b34801561026d57600080fd5b5061028860048036038101906102839190612062565b61078e565b005b34801561029657600080fd5b506102b160048036038101906102ac9190611ff5565b6109a5565b005b3480156102bf57600080fd5b506102da60048036038101906102d59190611ff5565b6109ce565b005b3480156102e857600080fd5b506102f1610a51565b6040516102fe91906125dc565b60405180910390f35b34801561031357600080fd5b5061032e600480360381019061032991906120ab565b610ac5565b005b34801561033c57600080fd5b50610345610ba0565b6040516103529190612464565b60405180910390f35b61037560048036038101906103709190612062565b610bc4565b005b34801561038357600080fd5b5061038c610ff2565b604051610399919061247f565b60405180910390f35b3480156103ae57600080fd5b506103c960048036038101906103c49190612062565b611018565b6040516103d69190612449565b60405180910390f35b3480156103eb57600080fd5b5061040660048036038101906104019190611ff5565b61104e565b6040516104139190612449565b60405180910390f35b34801561042857600080fd5b50610443600480360381019061043e9190612062565b6110b8565b60405161045293929190612620565b60405180910390f35b34801561046757600080fd5b50610470611195565b60405161047d91906125dc565b60405180910390f35b34801561049257600080fd5b5061049b61119b565b6040516104a89190612464565b60405180910390f35b3480156104bd57600080fd5b506104c66111a2565b6040516104d391906125dc565b60405180910390f35b3480156104e857600080fd5b5061050360048036038101906104fe9190612062565b6111a8565b005b34801561051157600080fd5b5061052c60048036038101906105279190612062565b6113bf565b005b34801561053a57600080fd5b506105436114d4565b60405161055091906125dc565b60405180910390f35b34801561056557600080fd5b50610580600480360381019061057b9190611f9b565b6114da565b005b34801561058e57600080fd5b506105a960048036038101906105a49190611ff5565b61151e565b005b3480156105b757600080fd5b506105c0611547565b6040516105ce929190612420565b60405180910390f35b3480156105e357600080fd5b506105ec6115cb565b6040516105f99190612464565b60405180910390f35b34801561060e57600080fd5b506106176115ef565b60405161062491906125dc565b60405180910390f35b34801561063957600080fd5b50610654600480360381019061064f9190612062565b6115f5565b6040516106619190612449565b60405180910390f35b34801561067657600080fd5b50610691600480360381019061068c9190612062565b611768565b005b34801561069f57600080fd5b506106ba60048036038101906106b59190612062565b61187d565b6040516106c89291906125f7565b60405180910390f35b60007f7965db0b000000000000000000000000000000000000000000000000000000007bffffffffffffffffffffffffffffffffffffffffffffffffffffffff1916827bffffffffffffffffffffffffffffffffffffffffffffffffffffffff191614806107445750610743826118c4565b5b9050919050565b7fcab5a0bfe0b79d2c4b1c2e02599fa044d115b7511f9659307cb427695096770981565b6000806000838152602001908152602001600020600101549050919050565b600460009054906101000a900473ffffffffffffffffffffffffffffffffffffffff16600073ffffffffffffffffffffffffffffffffffffffff168173ffffffffffffffffffffffffffffffffffffffff1614156107eb57600080fd5b3073ffffffffffffffffffffffffffffffffffffffff168173ffffffffffffffffffffffffffffffffffffffff16141561082457600080fd5b7fcab5a0bfe0b79d2c4b1c2e02599fa044d115b7511f9659307cb42769509677096108568161085161192e565b611936565b6003600581111561086a576108696129bd565b5b600b8460405161087a91906123cf565b908152602001604051809103902060010160009054906101000a900460ff1660058111156108ab576108aa6129bd565b5b146108eb576040517f08c379a00000000000000000000000000000000000000000000000000000000081526004016108e2906124fc565b60405180910390fd5b600460009054906101000a900473ffffffffffffffffffffffffffffffffffffffff1673ffffffffffffffffffffffffffffffffffffffff166108fc6009549081150290604051600060405180830381858888f19350505050158015610955573d6000803e3d6000fd5b506005600b8460405161096891906123cf565b908152602001604051809103902060010160006101000a81548160ff0219169083600581111561099b5761099a6129bd565b5b0217905550505050565b6109ae8261076f565b6109bf816109ba61192e565b611936565b6109c983836119d3565b505050565b6109d661192e565b73ffffffffffffffffffffffffffffffffffffffff168173ffffffffffffffffffffffffffffffffffffffff1614610a43576040517f08c379a0000000000000000000000000000000000000000000000000000000008152600401610a3a9061259c565b60405180910390fd5b610a4d8282611ab3565b5050565b60007fcab5a0bfe0b79d2c4b1c2e02599fa044d115b7511f9659307cb4276950967709610a8581610a8061192e565b611936565b600160009054906101000a900473ffffffffffffffffffffffffffffffffffffffff1673ffffffffffffffffffffffffffffffffffffffff163191505090565b610acd611dfc565b81816000018181525050600081602001906005811115610af057610aef6129bd565b5b90816005811115610b0457610b036129bd565b5b8152505080600b84604051610b1991906123cf565b90815260200160405180910390206000820151816000015560208201518160010160006101000a81548160ff02191690836005811115610b5c57610b5b6129bd565b5b02179055509050506001600c84604051610b7691906123cf565b908152602001604051809103902060006101000a81548160ff021916908315150217905550505050565b7ff8cd32ed93fc2f9fc78152a14807c9609af3d99c5fe4dc6b106a801aaddfe90e81565b600360009054906101000a900473ffffffffffffffffffffffffffffffffffffffff16600073ffffffffffffffffffffffffffffffffffffffff168173ffffffffffffffffffffffffffffffffffffffff161415610c2157600080fd5b3073ffffffffffffffffffffffffffffffffffffffff168173ffffffffffffffffffffffffffffffffffffffff161415610c5a57600080fd5b600560009054906101000a900473ffffffffffffffffffffffffffffffffffffffff16600073ffffffffffffffffffffffffffffffffffffffff168173ffffffffffffffffffffffffffffffffffffffff161415610cb757600080fd5b3073ffffffffffffffffffffffffffffffffffffffff168173ffffffffffffffffffffffffffffffffffffffff161415610cf057600080fd5b7ff8cd32ed93fc2f9fc78152a14807c9609af3d99c5fe4dc6b106a801aaddfe90e610d2281610d1d61192e565b611936565b600b84604051610d3291906123cf565b908152602001604051809103902060000154600754610d5191906126d4565b341015610d93576040517f08c379a0000000000000000000000000000000000000000000000000000000008152600401610d8a9061257c565b60405180910390fd5b60006005811115610da757610da66129bd565b5b600b85604051610db791906123cf565b908152602001604051809103902060010160009054906101000a900460ff166005811115610de857610de76129bd565b5b14610e28576040517f08c379a0000000000000000000000000000000000000000000000000000000008152600401610e1f906125bc565b60405180910390fd5b6001600b85604051610e3a91906123cf565b908152602001604051809103902060010160006101000a81548160ff02191690836005811115610e6d57610e6c6129bd565b5b0217905550610e88600a600654611b9490919063ffffffff16565b600881905550610ea5600854600654611baa90919063ffffffff16565b600981905550600360009054906101000a900473ffffffffffffffffffffffffffffffffffffffff1673ffffffffffffffffffffffffffffffffffffffff166108fc6007549081150290604051600060405180830381858888f19350505050158015610f15573d6000803e3d6000fd5b50600560009054906101000a900473ffffffffffffffffffffffffffffffffffffffff1673ffffffffffffffffffffffffffffffffffffffff166108fc6008549081150290604051600060405180830381858888f19350505050158015610f80573d6000803e3d6000fd5b50600160009054906101000a900473ffffffffffffffffffffffffffffffffffffffff1673ffffffffffffffffffffffffffffffffffffffff166108fc6009549081150290604051600060405180830381858888f19350505050158015610feb573d6000803e3d6000fd5b5050505050565b600a60009054906101000a900473ffffffffffffffffffffffffffffffffffffffff1681565b600c818051602081018201805184825260208301602085012081835280955050505050506000915054906101000a900460ff1681565b600080600084815260200190815260200160002060000160008373ffffffffffffffffffffffffffffffffffffffff1673ffffffffffffffffffffffffffffffffffffffff16815260200190815260200160002060009054906101000a900460ff16905092915050565b6000806000600c846040516110cd91906123cf565b908152602001604051809103902060009054906101000a900460ff16611128576040517f08c379a000000000000000000000000000000000000000000000000000000000815260040161111f9061251c565b60405180910390fd5b6000611133856115f5565b9050600b8560405161114591906123cf565b908152602001604051809103902060000154600b8660405161116791906123cf565b908152602001604051809103902060010160009054906101000a900460ff1682935093509350509193909250565b60065481565b6000801b81565b60085481565b600560009054906101000a900473ffffffffffffffffffffffffffffffffffffffff16600073ffffffffffffffffffffffffffffffffffffffff168173ffffffffffffffffffffffffffffffffffffffff16141561120557600080fd5b3073ffffffffffffffffffffffffffffffffffffffff168173ffffffffffffffffffffffffffffffffffffffff16141561123e57600080fd5b7fcab5a0bfe0b79d2c4b1c2e02599fa044d115b7511f9659307cb42769509677096112708161126b61192e565b611936565b60026005811115611284576112836129bd565b5b600b8460405161129491906123cf565b908152602001604051809103902060010160009054906101000a900460ff1660058111156112c5576112c46129bd565b5b14611305576040517f08c379a00000000000000000000000000000000000000000000000000000000081526004016112fc9061255c565b60405180910390fd5b600560009054906101000a900473ffffffffffffffffffffffffffffffffffffffff1673ffffffffffffffffffffffffffffffffffffffff166108fc6009549081150290604051600060405180830381858888f1935050505015801561136f573d6000803e3d6000fd5b506004600b8460405161138291906123cf565b908152602001604051809103902060010160006101000a81548160ff021916908360058111156113b5576113b46129bd565b5b0217905550505050565b7ff8cd32ed93fc2f9fc78152a14807c9609af3d99c5fe4dc6b106a801aaddfe90e6113f1816113ec61192e565b611936565b60016005811115611405576114046129bd565b5b600b8360405161141591906123cf565b908152602001604051809103902060010160009054906101000a900460ff166005811115611446576114456129bd565b5b14611486576040517f08c379a000000000000000000000000000000000000000000000000000000000815260040161147d906124dc565b60405180910390fd5b6002600b8360405161149891906123cf565b908152602001604051809103902060010160006101000a81548160ff021916908360058111156114cb576114ca6129bd565b5b02179055505050565b60095481565b80600a60006101000a81548173ffffffffffffffffffffffffffffffffffffffff021916908373ffffffffffffffffffffffffffffffffffffffff16021790555050565b6115278261076f565b6115388161153361192e565b611936565b6115428383611ab3565b505050565b6000807fcab5a0bfe0b79d2c4b1c2e02599fa044d115b7511f9659307cb427695096770961157c8161157761192e565b611936565b600460009054906101000a900473ffffffffffffffffffffffffffffffffffffffff16600560009054906101000a900473ffffffffffffffffffffffffffffffffffffffff1692509250509091565b7f43f25613eb2f15fb17222a5d424ca2655743e71265d98e4b93c05e5fb589ecde81565b60075481565b6000600c8260405161160791906123cf565b908152602001604051809103902060009054906101000a900460ff16611662576040517f08c379a00000000000000000000000000000000000000000000000000000000081526004016116599061251c565b60405180910390fd5b600080600080600a60009054906101000a900473ffffffffffffffffffffffffffffffffffffffff1673ffffffffffffffffffffffffffffffffffffffff1663769016a5876040518263ffffffff1660e01b81526004016116c3919061249a565b60006040518083038186803b1580156116db57600080fd5b505afa1580156116ef573d6000803e3d6000fd5b505050506040513d6000823e3d601f19601f820116820180604052508101906117189190612107565b935093509350935060016002811115611734576117336129bd565b5b826002811115611747576117466129bd565b5b141561175a576001945050505050611763565b60009450505050505b919050565b7ff8cd32ed93fc2f9fc78152a14807c9609af3d99c5fe4dc6b106a801aaddfe90e61179a8161179561192e565b611936565b600160058111156117ae576117ad6129bd565b5b600b836040516117be91906123cf565b908152602001604051809103902060010160009054906101000a900460ff1660058111156117ef576117ee6129bd565b5b1461182f576040517f08c379a00000000000000000000000000000000000000000000000000000000081526004016118269061253c565b60405180910390fd5b6003600b8360405161184191906123cf565b908152602001604051809103902060010160006101000a81548160ff02191690836005811115611874576118736129bd565b5b02179055505050565b600b818051602081018201805184825260208301602085012081835280955050505050506000915090508060000154908060010160009054906101000a900460ff16905082565b60007f01ffc9a7000000000000000000000000000000000000000000000000000000007bffffffffffffffffffffffffffffffffffffffffffffffffffffffff1916827bffffffffffffffffffffffffffffffffffffffffffffffffffffffff1916149050919050565b600033905090565b611940828261104e565b6119cf576119658173ffffffffffffffffffffffffffffffffffffffff166014611bc0565b6119738360001c6020611bc0565b6040516020016119849291906123e6565b6040516020818303038152906040526040517f08c379a00000000000000000000000000000000000000000000000000000000081526004016119c6919061249a565b60405180910390fd5b5050565b6119dd828261104e565b611aaf57600160008084815260200190815260200160002060000160008373ffffffffffffffffffffffffffffffffffffffff1673ffffffffffffffffffffffffffffffffffffffff16815260200190815260200160002060006101000a81548160ff021916908315150217905550611a5461192e565b73ffffffffffffffffffffffffffffffffffffffff168173ffffffffffffffffffffffffffffffffffffffff16837f2f8788117e7eff1d82e926ec794901d17c78024a50270940304540a733656f0d60405160405180910390a45b5050565b611abd828261104e565b15611b9057600080600084815260200190815260200160002060000160008373ffffffffffffffffffffffffffffffffffffffff1673ffffffffffffffffffffffffffffffffffffffff16815260200190815260200160002060006101000a81548160ff021916908315150217905550611b3561192e565b73ffffffffffffffffffffffffffffffffffffffff168173ffffffffffffffffffffffffffffffffffffffff16837ff6391f5c32d9c69d2a47ea670b442974b53935d1edc7fd64eb21e047a839171b60405160405180910390a45b5050565b60008183611ba2919061272a565b905092915050565b60008183611bb891906127b5565b905092915050565b606060006002836002611bd3919061275b565b611bdd91906126d4565b67ffffffffffffffff811115611bf657611bf5612a1b565b5b6040519080825280601f01601f191660200182016040528015611c285781602001600182028036833780820191505090505b5090507f300000000000000000000000000000000000000000000000000000000000000081600081518110611c6057611c5f6129ec565b5b60200101907effffffffffffffffffffffffffffffffffffffffffffffffffffffffffffff1916908160001a9053507f780000000000000000000000000000000000000000000000000000000000000081600181518110611cc457611cc36129ec565b5b60200101907effffffffffffffffffffffffffffffffffffffffffffffffffffffffffffff1916908160001a90535060006001846002611d04919061275b565b611d0e91906126d4565b90505b6001811115611dae577f3031323334353637383961626364656600000000000000000000000000000000600f861660108110611d5057611d4f6129ec565b5b1a60f81b828281518110611d6757611d666129ec565b5b60200101907effffffffffffffffffffffffffffffffffffffffffffffffffffffffffffff1916908160001a905350600485901c945080611da790612904565b9050611d11565b5060008414611df2576040517f08c379a0000000000000000000000000000000000000000000000000000000008152600401611de9906124bc565b60405180910390fd5b8091505092915050565b60405180604001604052806000815260200160006005811115611e2257611e216129bd565b5b81525090565b6000611e3b611e368461267c565b612657565b905082815260208101848484011115611e5757611e56612a4f565b5b611e628482856128c2565b509392505050565b6000611e7d611e788461267c565b612657565b905082815260208101848484011115611e9957611e98612a4f565b5b611ea48482856128d1565b509392505050565b600081359050611ebb81612d04565b92915050565b600081519050611ed081612d04565b92915050565b600081359050611ee581612d1b565b92915050565b600081359050611efa81612d32565b92915050565b600081519050611f0f81612d49565b92915050565b600082601f830112611f2a57611f29612a4a565b5b8135611f3a848260208601611e28565b91505092915050565b600082601f830112611f5857611f57612a4a565b5b8151611f68848260208601611e6a565b91505092915050565b600081359050611f8081612d59565b92915050565b600081519050611f9581612d59565b92915050565b600060208284031215611fb157611fb0612a59565b5b6000611fbf84828501611eac565b91505092915050565b600060208284031215611fde57611fdd612a59565b5b6000611fec84828501611ed6565b91505092915050565b6000806040838503121561200c5761200b612a59565b5b600061201a85828601611ed6565b925050602061202b85828601611eac565b9150509250929050565b60006020828403121561204b5761204a612a59565b5b600061205984828501611eeb565b91505092915050565b60006020828403121561207857612077612a59565b5b600082013567ffffffffffffffff81111561209657612095612a54565b5b6120a284828501611f15565b91505092915050565b600080604083850312156120c2576120c1612a59565b5b600083013567ffffffffffffffff8111156120e0576120df612a54565b5b6120ec85828601611f15565b92505060206120fd85828601611f71565b9150509250929050565b6000806000806080858703121561212157612120612a59565b5b600061212f87828801611f86565b945050602085015167ffffffffffffffff8111156121505761214f612a54565b5b61215c87828801611f43565b935050604061216d87828801611f00565b925050606061217e87828801611ec1565b91505092959194509250565b612193816127e9565b82525050565b6121a2816127fb565b82525050565b6121b181612807565b82525050565b6121c08161287a565b82525050565b6121cf8161288c565b82525050565b60006121e0826126ad565b6121ea81856126b8565b93506121fa8185602086016128d1565b61220381612a5e565b840191505092915050565b6000612219826126ad565b61222381856126c9565b93506122338185602086016128d1565b80840191505092915050565b600061224c6020836126b8565b915061225782612a6f565b602082019050919050565b600061226f6027836126b8565b915061227a82612a98565b604082019050919050565b60006122926016836126b8565b915061229d82612ae7565b602082019050919050565b60006122b56017836126b8565b91506122c082612b10565b602082019050919050565b60006122d86024836126b8565b91506122e382612b39565b604082019050919050565b60006122fb6018836126b8565b915061230682612b88565b602082019050919050565b600061231e6017836126c9565b915061232982612bb1565b601782019050919050565b6000612341604a836126b8565b915061234c82612bda565b606082019050919050565b60006123646011836126c9565b915061236f82612c4f565b601182019050919050565b6000612387602f836126b8565b915061239282612c78565b604082019050919050565b60006123aa6018836126b8565b91506123b582612cc7565b602082019050919050565b6123c981612870565b82525050565b60006123db828461220e565b915081905092915050565b60006123f182612311565b91506123fd828561220e565b915061240882612357565b9150612414828461220e565b91508190509392505050565b6000604082019050612435600083018561218a565b612442602083018461218a565b9392505050565b600060208201905061245e6000830184612199565b92915050565b600060208201905061247960008301846121a8565b92915050565b600060208201905061249460008301846121b7565b92915050565b600060208201905081810360008301526124b481846121d5565b905092915050565b600060208201905081810360008301526124d58161223f565b9050919050565b600060208201905081810360008301526124f581612262565b9050919050565b6000602082019050818103600083015261251581612285565b9050919050565b60006020820190508181036000830152612535816122a8565b9050919050565b60006020820190508181036000830152612555816122cb565b9050919050565b60006020820190508181036000830152612575816122ee565b9050919050565b6000602082019050818103600083015261259581612334565b9050919050565b600060208201905081810360008301526125b58161237a565b9050919050565b600060208201905081810360008301526125d58161239d565b9050919050565b60006020820190506125f160008301846123c0565b92915050565b600060408201905061260c60008301856123c0565b61261960208301846121c6565b9392505050565b600060608201905061263560008301866123c0565b61264260208301856121c6565b61264f6040830184612199565b949350505050565b6000612661612672565b905061266d828261292e565b919050565b6000604051905090565b600067ffffffffffffffff82111561269757612696612a1b565b5b6126a082612a5e565b9050602081019050919050565b600081519050919050565b600082825260208201905092915050565b600081905092915050565b60006126df82612870565b91506126ea83612870565b9250827fffffffffffffffffffffffffffffffffffffffffffffffffffffffffffffffff0382111561271f5761271e61295f565b5b828201905092915050565b600061273582612870565b915061274083612870565b9250826127505761274f61298e565b5b828204905092915050565b600061276682612870565b915061277183612870565b9250817fffffffffffffffffffffffffffffffffffffffffffffffffffffffffffffffff04831182151516156127aa576127a961295f565b5b828202905092915050565b60006127c082612870565b91506127cb83612870565b9250828210156127de576127dd61295f565b5b828203905092915050565b60006127f482612850565b9050919050565b60008115159050919050565b6000819050919050565b60007fffffffff0000000000000000000000000000000000000000000000000000000082169050919050565b600081905061284b82612cf0565b919050565b600073ffffffffffffffffffffffffffffffffffffffff82169050919050565b6000819050919050565b60006128858261289e565b9050919050565b60006128978261283d565b9050919050565b60006128a9826128b0565b9050919050565b60006128bb82612850565b9050919050565b82818337600083830152505050565b60005b838110156128ef5780820151818401526020810190506128d4565b838111156128fe576000848401525b50505050565b600061290f82612870565b915060008214156129235761292261295f565b5b600182039050919050565b61293782612a5e565b810181811067ffffffffffffffff8211171561295657612955612a1b565b5b80604052505050565b7f4e487b7100000000000000000000000000000000000000000000000000000000600052601160045260246000fd5b7f4e487b7100000000000000000000000000000000000000000000000000000000600052601260045260246000fd5b7f4e487b7100000000000000000000000000000000000000000000000000000000600052602160045260246000fd5b7f4e487b7100000000000000000000000000000000000000000000000000000000600052603260045260246000fd5b7f4e487b7100000000000000000000000000000000000000000000000000000000600052604160045260246000fd5b600080fd5b600080fd5b600080fd5b600080fd5b6000601f19601f8301169050919050565b7f537472696e67733a20686578206c656e67746820696e73756666696369656e74600082015250565b7f42757965722063616e6e6f7420617070726f766520776974686f75742061206460008201527f65706f7369742100000000000000000000000000000000000000000000000000602082015250565b7f4177616974696e672062757965722064656e61696c2100000000000000000000600082015250565b7f50726f6475637420646f6573206e6f742065786973742e000000000000000000600082015250565b7f42757965722063616e6e6f742064656e7920776974686f75742061206465706f60008201527f7369742100000000000000000000000000000000000000000000000000000000602082015250565b7f4177616974696e6720627579657220617070726f76616c210000000000000000600082015250565b7f416363657373436f6e74726f6c3a206163636f756e7420000000000000000000600082015250565b7f506c65617365206d616b65207375726520796f7572206465706f73697420636f60008201527f7665727320626f7468207468652070726f6475637420707269636520616e642060208201527f6167656e74206665652100000000000000000000000000000000000000000000604082015250565b7f206973206d697373696e6720726f6c6520000000000000000000000000000000600082015250565b7f416363657373436f6e74726f6c3a2063616e206f6e6c792072656e6f756e636560008201527f20726f6c657320666f722073656c660000000000000000000000000000000000602082015250565b7f50726f64756374206973206e6f74206f6e206f66666572210000000000000000600082015250565b60068110612d0157612d006129bd565b5b50565b612d0d816127e9565b8114612d1857600080fd5b50565b612d2481612807565b8114612d2f57600080fd5b50565b612d3b81612811565b8114612d4657600080fd5b50565b60038110612d5657600080fd5b50565b612d6281612870565b8114612d6d57600080fd5b5056fea2646970667358221220a26fcaa26110508f3b34b9ade150e5f1d4089209e2f64c396b3a870a050933be64736f6c63430008070033",
  "immutableReferences": {},
  "source": "// SPDX-License-Identifier: UNLICENSED\npragma solidity ^0.8.0;\n\nimport \"../node_modules/@openzeppelin/contracts/access/AccessControl.sol\";\nimport \"../node_modules/@openzeppelin/contracts/utils/math/SafeMath.sol\";\nimport \"./DigitalTwin.sol\";\n// import \"./MyTest.sol\";\n\n/**\n * @title EscrowService Contract, forked from https://github.com/AleRapchan/escrow-service\n * @author Yining Hu\n * @notice Building a single role access control Escrow Service using OpenZeppelin Escrow and RBAC\n * @dev contract currently assume one buyer account and one seller account, should develop an additional wallet contract and allow new user registration\n */\ncontract Escrow is AccessControl { //Ownable, \n\n    /**\n     * @dev Roles are referred to by their bytes32 identifier. \n     * @dev These should be exposed in the external API and be unique.\n     * To do: to add a mapping to check if token exists and insert the requirements in query functions\n     */\n    bytes32 public constant AGENT_ROLE = keccak256(\"AGENT_ROLE\");\n    bytes32 public constant BUYER_ROLE = keccak256(\"BUYER_ROLE\");\n    bytes32 public constant SELLER_ROLE = keccak256(\"SELLER_ROLE\");\n\n    address vault;\n    address root;\n    address payable agent;\n    address payable buyer;\n    address payable seller;\n    \n    uint256 public price;\n    uint256 public fee;\n    uint256 public initial_payment;\n    uint256 public remaining_payment;\n\n    using SafeMath for uint256;\n\n    DigitalTwin public digitaltwin;\n    // MyTest public mytest;\n    \n    enum EscrowState { OFFERED, DEPOSITTAKEN, BUYERAPPROVED, BUYERDENIED, PAYMENTSUCCESSFUL, PAYMENTREVERTED }\n\n    struct Product{\n        uint256 price;\n        EscrowState state;\n    }\n\n    mapping (string => Product) public stock; // whole stock of offered items for sell in escrow arragement\n    mapping(string => bool) public productExists;\n\n    /**\n     * @dev Create the community role, with `root` as a member.\n     * @dev before setting up any user wallet, all buyers/sellers use a single buyer/seller address, which are maintained by Beston.\n     * @dev the same goes for ownership tracking in DigitalTwin.sol.\n     */\n    constructor(address payable _buyer_address, address payable _seller_address) {\n        vault = address(this); // vault set to be the contract address\n        root = msg.sender;\n        agent = payable(msg.sender);\n        buyer = _buyer_address;\n        seller= _seller_address;\n        // fee = 1*10**18;\n        \n        _setupRole(AGENT_ROLE, agent);\n        _setupRole(BUYER_ROLE, buyer);\n        _setupRole(SELLER_ROLE, seller);\n    }\n\n    /**\n     * @notice To prevent sending tokens to 0x0 address and the contract address\n     */\n    modifier validDestination( address to ) {\n        require(to != address(0x0));\n        require(to != address(this) );\n        _;\n    }\n\n    /**\n     * @notice to get the deployed DigitalTwin instance for accessing stored variables\n     * @dev instead of pure inheriting\n     */\n    function setAddr(address _address) public {\n        digitaltwin = DigitalTwin(_address);\n        // mytest = MyTest(_address);\n    }\n\n    function Offer(string memory _tkname , uint256 _price) public {\n        Product memory product;\n        product.price = _price; /// @dev double check the conversion in Polygon\n        product.state = EscrowState.OFFERED;\n        stock[_tkname] = product;\n        productExists[_tkname] = true;\n    }\n    \n    /**\n     * @notice Buyer can make a deposit to products on offer\n     * @dev Partial payment is sent to the seller, however, can change depending on the agreement\n     */\n    function BuyerSendPayment(string memory _tkname) external payable validDestination(agent) validDestination(seller) onlyRole(BUYER_ROLE) {\n        require (msg.value >= fee + stock[_tkname].price, \"Please make sure your deposit covers both the product price and agent fee!\");\n        //require (_seller == seller, \"Buyer must confirm the seller address!\");\n        require (stock[_tkname].state == EscrowState.OFFERED , \"Product is not on offer!\");\n        stock[_tkname].state = EscrowState.DEPOSITTAKEN; \n\n        initial_payment = price.div(10); // initial payment set to be 10% of the total price\n        remaining_payment = price.sub(initial_payment);\n\n        payable(agent).transfer(fee);\n        payable(seller).transfer(initial_payment); // using SafeMath lib\n        payable(vault).transfer(remaining_payment);\n    }\n\n    function VerifyProduct(string memory _tkname) public view returns (bool) {\n        require(productExists[_tkname], \"Product does not exist.\");\n\n        (uint256 id, string memory metadata, DigitalTwin.Verificationstatus vstatus, address addr) = digitaltwin.queryTokenFromContract(_tkname);\n        if (vstatus == DigitalTwin.Verificationstatus.PROCESSORVERIFIED) {\n            return true;\n        } else {\n            return false;\n        }\n    }\n\n    /**\n     * @notice Buyer can approve the payment with or without verification\n     * @dev when implementing the api and front end, buyer should have the option to proceed without or with verification\n     */ \n    function BuyerApprove(string memory _tkname) public onlyRole(BUYER_ROLE) {\n        require (stock[_tkname].state == EscrowState.DEPOSITTAKEN, \"Buyer cannot approve without a deposit!\");\n        stock[_tkname].state = EscrowState.BUYERAPPROVED;\n    }\n\n    /**\n     * @notice Buyer can deny the payment upon unsatisfactory verification result or for other reasons.\n     */\n    function BuyerDeny (string memory _tkname) public onlyRole(BUYER_ROLE) {\n        require (stock[_tkname].state == EscrowState.DEPOSITTAKEN, \"Buyer cannot deny without a deposit!\");\n        stock[_tkname].state = EscrowState.BUYERDENIED;\n    }\n\n    /**\n     * @notice If conditions are met: escrow agent releases to seller.\n     * @dev consider allowing seller to redeem without agent\n     */\n    function AgentConfirmTransaction (string memory _tkname) public validDestination(seller) onlyRole(AGENT_ROLE) {\n        require (stock[_tkname].state == EscrowState.BUYERAPPROVED , \"Awaiting buyer approval!\");\n        /// To do: send payment from vault to seller. How to be sure that agent can spend from the vault?\n        seller.transfer(remaining_payment);\n        stock[_tkname].state =  EscrowState.PAYMENTSUCCESSFUL;\n    }\n\n    /**\n     * @notice If conditions does not met: escrow agent revert to buyer.\n     */\n    function AgentCancelTransaction (string memory _tkname) validDestination(buyer) onlyRole(AGENT_ROLE) public {\n        require (stock[_tkname].state == EscrowState.BUYERDENIED , \"Awaiting buyer denail!\");\n        buyer.transfer(remaining_payment); \n        stock[_tkname].state =  EscrowState.PAYMENTREVERTED;\n    }\n\n    /**\n     @notice getters\n     */\n    function GetUsers () public view onlyRole(AGENT_ROLE) returns(address, address) {\n        return (buyer,seller);\n    }\n\n    function QueryProduct (string memory _tkname) public view returns(uint256, EscrowState, bool) {\n        require(productExists[_tkname], \"Product does not exist.\");\n        bool vstatus = VerifyProduct(_tkname);\n        return (stock[_tkname].price, stock[_tkname].state, vstatus);\n    }\n\n    /// @notice Only the agent can check vault balance.\n    function VaultBalance () public view onlyRole(AGENT_ROLE) returns(uint256){\n        return vault.balance;\n    }\n\n}",
  "sourcePath": "/home/yih/Documents/dev/beston-dapps/contracts/Escrow.sol",
  "compiler": {
    "name": "solc",
    "version": "0.8.7+commit.e28d00a7.Emscripten.clang"
  },
  "schemaVersion": "3.4.1",
  "updatedAt": "2022-04-21T04:27:24.768Z",
  "devdoc": {
    "author": "Yining Hu",
    "details": "contract currently assume one buyer account and one seller account, should develop an additional wallet contract and allow new user registration",
    "kind": "dev",
    "methods": {
      "AgentConfirmTransaction(string)": {
        "details": "consider allowing seller to redeem without agent"
      },
      "BuyerApprove(string)": {
        "details": "when implementing the api and front end, buyer should have the option to proceed without or with verification"
      },
      "BuyerSendPayment(string)": {
        "details": "Partial payment is sent to the seller, however, can change depending on the agreement"
      },
      "constructor": {
        "details": "Create the community role, with `root` as a member.before setting up any user wallet, all buyers/sellers use a single buyer/seller address, which are maintained by Beston.the same goes for ownership tracking in DigitalTwin.sol."
      },
      "getRoleAdmin(bytes32)": {
        "details": "Returns the admin role that controls `role`. See {grantRole} and {revokeRole}. To change a role's admin, use {_setRoleAdmin}."
      },
      "grantRole(bytes32,address)": {
        "details": "Grants `role` to `account`. If `account` had not been already granted `role`, emits a {RoleGranted} event. Requirements: - the caller must have ``role``'s admin role."
      },
      "hasRole(bytes32,address)": {
        "details": "Returns `true` if `account` has been granted `role`."
      },
      "renounceRole(bytes32,address)": {
        "details": "Revokes `role` from the calling account. Roles are often managed via {grantRole} and {revokeRole}: this function's purpose is to provide a mechanism for accounts to lose their privileges if they are compromised (such as when a trusted device is misplaced). If the calling account had been revoked `role`, emits a {RoleRevoked} event. Requirements: - the caller must be `account`."
      },
      "revokeRole(bytes32,address)": {
        "details": "Revokes `role` from `account`. If `account` had been granted `role`, emits a {RoleRevoked} event. Requirements: - the caller must have ``role``'s admin role."
      },
      "setAddr(address)": {
        "details": "instead of pure inheriting"
      },
      "supportsInterface(bytes4)": {
        "details": "See {IERC165-supportsInterface}."
      }
    },
    "stateVariables": {
      "AGENT_ROLE": {
        "details": "Roles are referred to by their bytes32 identifier. These should be exposed in the external API and be unique. To do: to add a mapping to check if token exists and insert the requirements in query functions"
      }
    },
    "title": "EscrowService Contract, forked from https://github.com/AleRapchan/escrow-service",
    "version": 1
  },
  "userdoc": {
    "kind": "user",
    "methods": {
      "AgentCancelTransaction(string)": {
        "notice": "If conditions does not met: escrow agent revert to buyer."
      },
      "AgentConfirmTransaction(string)": {
        "notice": "If conditions are met: escrow agent releases to seller."
      },
      "BuyerApprove(string)": {
        "notice": "Buyer can approve the payment with or without verification"
      },
      "BuyerDeny(string)": {
        "notice": "Buyer can deny the payment upon unsatisfactory verification result or for other reasons."
      },
      "BuyerSendPayment(string)": {
        "notice": "Buyer can make a deposit to products on offer"
      },
      "GetUsers()": {
        "notice": "getters"
      },
      "VaultBalance()": {
        "notice": "Only the agent can check vault balance."
      },
      "setAddr(address)": {
        "notice": "to get the deployed DigitalTwin instance for accessing stored variables"
      }
    },
    "notice": "Building a single role access control Escrow Service using OpenZeppelin Escrow and RBAC",
    "version": 1
  }
}