{
  "contractName": "Escrow",
  "abi": [
    {
      "inputs": [
        {
          "internalType": "contract DigitalTwin",
          "name": "_digitaltwin",
          "type": "address"
        },
        {
          "internalType": "contract BToken",
          "name": "_btoken",
          "type": "address"
        },
        {
          "internalType": "uint256",
          "name": "_btkprice",
          "type": "uint256"
        }
      ],
      "stateMutability": "nonpayable",
      "type": "constructor"
    },
    {
      "anonymous": false,
      "inputs": [
        {
          "indexed": false,
          "internalType": "string",
          "name": "tkname",
          "type": "string"
        },
        {
          "indexed": false,
          "internalType": "uint256",
          "name": "price",
          "type": "uint256"
        }
      ],
      "name": "DepositTaken",
      "type": "event"
    },
    {
      "inputs": [],
      "name": "btk",
      "outputs": [
        {
          "internalType": "contract BToken",
          "name": "",
          "type": "address"
        }
      ],
      "stateMutability": "view",
      "type": "function",
      "constant": true
    },
    {
      "inputs": [],
      "name": "digitaltwin",
      "outputs": [
        {
          "internalType": "contract DigitalTwin",
          "name": "",
          "type": "address"
        }
      ],
      "stateMutability": "view",
      "type": "function",
      "constant": true
    },
    {
      "inputs": [],
      "name": "fee",
      "outputs": [
        {
          "internalType": "uint256",
          "name": "",
          "type": "uint256"
        }
      ],
      "stateMutability": "view",
      "type": "function",
      "constant": true
    },
    {
      "inputs": [],
      "name": "initial_payment",
      "outputs": [
        {
          "internalType": "uint256",
          "name": "",
          "type": "uint256"
        }
      ],
      "stateMutability": "view",
      "type": "function",
      "constant": true
    },
    {
      "inputs": [
        {
          "internalType": "string",
          "name": "",
          "type": "string"
        }
      ],
      "name": "productExists",
      "outputs": [
        {
          "internalType": "bool",
          "name": "",
          "type": "bool"
        }
      ],
      "stateMutability": "view",
      "type": "function",
      "constant": true
    },
    {
      "inputs": [],
      "name": "remaining_payment",
      "outputs": [
        {
          "internalType": "uint256",
          "name": "",
          "type": "uint256"
        }
      ],
      "stateMutability": "view",
      "type": "function",
      "constant": true
    },
    {
      "inputs": [
        {
          "internalType": "string",
          "name": "",
          "type": "string"
        }
      ],
      "name": "stock",
      "outputs": [
        {
          "internalType": "uint256",
          "name": "price",
          "type": "uint256"
        },
        {
          "internalType": "address payable",
          "name": "buyer",
          "type": "address"
        },
        {
          "internalType": "address payable",
          "name": "seller",
          "type": "address"
        },
        {
          "internalType": "enum Escrow.EscrowState",
          "name": "state",
          "type": "uint8"
        },
        {
          "internalType": "uint256",
          "name": "timeout",
          "type": "uint256"
        }
      ],
      "stateMutability": "view",
      "type": "function",
      "constant": true
    },
    {
      "inputs": [],
      "name": "tokenSold",
      "outputs": [
        {
          "internalType": "uint256",
          "name": "",
          "type": "uint256"
        }
      ],
      "stateMutability": "view",
      "type": "function",
      "constant": true
    },
    {
      "inputs": [
        {
          "internalType": "uint256",
          "name": "_numOfTokens",
          "type": "uint256"
        }
      ],
      "name": "buyTokens",
      "outputs": [],
      "stateMutability": "payable",
      "type": "function",
      "payable": true
    },
    {
      "inputs": [
        {
          "internalType": "address",
          "name": "_addr",
          "type": "address"
        }
      ],
      "name": "getTokenBalance",
      "outputs": [
        {
          "internalType": "uint256",
          "name": "",
          "type": "uint256"
        }
      ],
      "stateMutability": "view",
      "type": "function",
      "constant": true
    },
    {
      "inputs": [
        {
          "internalType": "string",
          "name": "_tkname",
          "type": "string"
        },
        {
          "internalType": "uint256",
          "name": "_price",
          "type": "uint256"
        }
      ],
      "name": "offer",
      "outputs": [],
      "stateMutability": "nonpayable",
      "type": "function"
    },
    {
      "inputs": [
        {
          "internalType": "string",
          "name": "_tkname",
          "type": "string"
        }
      ],
      "name": "BuyerDeposit",
      "outputs": [],
      "stateMutability": "payable",
      "type": "function",
      "payable": true
    },
    {
      "inputs": [
        {
          "internalType": "string",
          "name": "_tkname",
          "type": "string"
        }
      ],
      "name": "AgentApprove",
      "outputs": [],
      "stateMutability": "nonpayable",
      "type": "function"
    },
    {
      "inputs": [
        {
          "internalType": "string",
          "name": "_tkname",
          "type": "string"
        }
      ],
      "name": "AgentDeny",
      "outputs": [],
      "stateMutability": "nonpayable",
      "type": "function"
    },
    {
      "inputs": [
        {
          "internalType": "string",
          "name": "_tkname",
          "type": "string"
        }
      ],
      "name": "BuyerDepositWithBTK",
      "outputs": [],
      "stateMutability": "payable",
      "type": "function",
      "payable": true
    },
    {
      "inputs": [
        {
          "internalType": "string",
          "name": "_tkname",
          "type": "string"
        }
      ],
      "name": "AgentApproveWithBTK",
      "outputs": [],
      "stateMutability": "nonpayable",
      "type": "function"
    },
    {
      "inputs": [
        {
          "internalType": "string",
          "name": "_tkname",
          "type": "string"
        }
      ],
      "name": "AgentDenyWithBTK",
      "outputs": [],
      "stateMutability": "nonpayable",
      "type": "function"
    },
    {
      "inputs": [
        {
          "internalType": "string",
          "name": "_tkname",
          "type": "string"
        }
      ],
      "name": "VerifyPackaging",
      "outputs": [
        {
          "internalType": "bool",
          "name": "",
          "type": "bool"
        }
      ],
      "stateMutability": "view",
      "type": "function",
      "constant": true
    },
    {
      "inputs": [
        {
          "internalType": "string",
          "name": "_tkname",
          "type": "string"
        }
      ],
      "name": "VerifyProduct",
      "outputs": [
        {
          "internalType": "bool",
          "name": "",
          "type": "bool"
        }
      ],
      "stateMutability": "view",
      "type": "function",
      "constant": true
    },
    {
      "inputs": [
        {
          "internalType": "string",
          "name": "_tkname",
          "type": "string"
        }
      ],
      "name": "QueryProduct",
      "outputs": [
        {
          "internalType": "uint256",
          "name": "",
          "type": "uint256"
        },
        {
          "internalType": "string",
          "name": "",
          "type": "string"
        },
        {
          "internalType": "address",
          "name": "",
          "type": "address"
        },
        {
          "internalType": "address",
          "name": "",
          "type": "address"
        }
      ],
      "stateMutability": "view",
      "type": "function",
      "constant": true
    },
    {
      "inputs": [],
      "name": "QueryAllProducts",
      "outputs": [
        {
          "internalType": "string[]",
          "name": "",
          "type": "string[]"
        },
        {
          "internalType": "uint256[]",
          "name": "",
          "type": "uint256[]"
        },
        {
          "internalType": "string[]",
          "name": "",
          "type": "string[]"
        },
        {
          "internalType": "address[]",
          "name": "",
          "type": "address[]"
        },
        {
          "internalType": "address[]",
          "name": "",
          "type": "address[]"
        }
      ],
      "stateMutability": "view",
      "type": "function",
      "constant": true
    },
    {
      "inputs": [
        {
          "internalType": "address",
          "name": "addr",
          "type": "address"
        }
      ],
      "name": "GetBalance",
      "outputs": [
        {
          "internalType": "uint256",
          "name": "",
          "type": "uint256"
        }
      ],
      "stateMutability": "view",
      "type": "function",
      "constant": true
    }
  ],
  "bytecode": "0x60806040523480156200001157600080fd5b506040516200581f3803806200581f8339818101604052810190620000379190620001c2565b82600860006101000a81548173ffffffffffffffffffffffffffffffffffffffff021916908373ffffffffffffffffffffffffffffffffffffffff16021790555081600960006101000a81548173ffffffffffffffffffffffffffffffffffffffff021916908373ffffffffffffffffffffffffffffffffffffffff16021790555080600681905550336000806101000a81548173ffffffffffffffffffffffffffffffffffffffff021916908373ffffffffffffffffffffffffffffffffffffffff16021790555060008054906101000a900473ffffffffffffffffffffffffffffffffffffffff16600160006101000a81548173ffffffffffffffffffffffffffffffffffffffff021916908373ffffffffffffffffffffffffffffffffffffffff160217905550633b9aca0060028190555060b4600581905550505050620002d7565b6000815190506200018e8162000289565b92915050565b600081519050620001a581620002a3565b92915050565b600081519050620001bc81620002bd565b92915050565b600080600060608486031215620001de57620001dd62000284565b5b6000620001ee8682870162000194565b935050602062000201868287016200017d565b92505060406200021486828701620001ab565b9150509250925092565b60006200022b826200025a565b9050919050565b60006200023f826200021e565b9050919050565b600062000253826200021e565b9050919050565b600073ffffffffffffffffffffffffffffffffffffffff82169050919050565b6000819050919050565b600080fd5b620002948162000232565b8114620002a057600080fd5b50565b620002ae8162000246565b8114620002ba57600080fd5b50565b620002c8816200027a565b8114620002d457600080fd5b50565b61553880620002e76000396000f3fe6080604052600436106101355760003560e01c80638addc051116100ab578063c8e2fa8d1161006f578063c8e2fa8d14610411578063c94be3871461043c578063cc76360814610458578063ddca3f4314610495578063f8c3540b146104c0578063fd9908e3146104fd57610135565b80638addc05114610324578063a00cbd5b14610361578063a8f5ecb7146103a1578063bc9d30c7146103cc578063c2d92ee2146103f557610135565b806343e2e504116100fd57806343e2e50414610210578063519ee19e1461024d5780636056f119146102785780637a76f2e2146102a757806384fe4285146102d057806386dc434b146102f957610135565b80630a7182e51461013a578063112a6a3d146101635780632ca9f4bd1461018c5780633610724e146101b75780633aecd0e3146101d3575b600080fd5b34801561014657600080fd5b50610161600480360381019061015c9190613e11565b61053e565b005b34801561016f57600080fd5b5061018a60048036038101906101859190613e11565b610a25565b005b34801561019857600080fd5b506101a1610ea3565b6040516101ae91906146d8565b60405180910390f35b6101d160048036038101906101cc9190613eb6565b610ec9565b005b3480156101df57600080fd5b506101fa60048036038101906101f59190613db7565b6110a2565b6040516102079190614990565b60405180910390f35b34801561021c57600080fd5b5061023760048036038101906102329190613db7565b611156565b6040516102449190614990565b60405180910390f35b34801561025957600080fd5b50610262611177565b60405161026f9190614990565b60405180910390f35b34801561028457600080fd5b5061028d61117d565b60405161029e959493929190614647565b60405180910390f35b3480156102b357600080fd5b506102ce60048036038101906102c99190613e11565b611935565b005b3480156102dc57600080fd5b506102f760048036038101906102f29190613e11565b611d8c565b005b34801561030557600080fd5b5061030e61217a565b60405161031b91906146f3565b60405180910390f35b34801561033057600080fd5b5061034b60048036038101906103469190613e11565b6121a0565b60405161035891906146bd565b60405180910390f35b34801561036d57600080fd5b5061038860048036038101906103839190613e11565b6121d6565b60405161039894939291906149fe565b60405180910390f35b3480156103ad57600080fd5b506103b661259e565b6040516103c39190614990565b60405180910390f35b3480156103d857600080fd5b506103f360048036038101906103ee9190613e5a565b6125a4565b005b61040f600480360381019061040a9190613e11565b612ac5565b005b34801561041d57600080fd5b50610426613095565b6040516104339190614990565b60405180910390f35b61045660048036038101906104519190613e11565b61309b565b005b34801561046457600080fd5b5061047f600480360381019061047a9190613e11565b61373d565b60405161048c91906146bd565b60405180910390f35b3480156104a157600080fd5b506104aa6138dd565b6040516104b79190614990565b60405180910390f35b3480156104cc57600080fd5b506104e760048036038101906104e29190613e11565b6138e3565b6040516104f491906146bd565b60405180910390f35b34801561050957600080fd5b50610524600480360381019061051f9190613e11565b613a83565b6040516105359594939291906149ab565b60405180910390f35b600b8160405161054e9190614582565b908152602001604051809103902060020160009054906101000a900473ffffffffffffffffffffffffffffffffffffffff16600073ffffffffffffffffffffffffffffffffffffffff168173ffffffffffffffffffffffffffffffffffffffff1614156105f0576040517f08c379a00000000000000000000000000000000000000000000000000000000081526004016105e790614810565b60405180910390fd5b3073ffffffffffffffffffffffffffffffffffffffff168173ffffffffffffffffffffffffffffffffffffffff16141561065f576040517f08c379a000000000000000000000000000000000000000000000000000000000815260040161065690614950565b60405180910390fd5b81600c816040516106709190614582565b908152602001604051809103902060009054906101000a900460ff166106cb576040517f08c379a00000000000000000000000000000000000000000000000000000000081526004016106c2906147b0565b60405180910390fd5b600160009054906101000a900473ffffffffffffffffffffffffffffffffffffffff1673ffffffffffffffffffffffffffffffffffffffff163373ffffffffffffffffffffffffffffffffffffffff161461075b576040517f08c379a000000000000000000000000000000000000000000000000000000000815260040161075290614850565b60405180910390fd5b6001600381111561076f5761076e614ed2565b5b600b8460405161077f9190614582565b908152602001604051809103902060020160149054906101000a900460ff1660038111156107b0576107af614ed2565b5b146107f0576040517f08c379a00000000000000000000000000000000000000000000000000000000081526004016107e790614790565b60405180910390fd5b6107f98361373d565b610838576040517f08c379a000000000000000000000000000000000000000000000000000000000815260040161082f90614930565b60405180910390fd5b610841836138e3565b610880576040517f08c379a000000000000000000000000000000000000000000000000000000000815260040161087790614870565b60405180910390fd5b600b836040516108909190614582565b90815260200160405180910390206003015442106108e3576040517f08c379a00000000000000000000000000000000000000000000000000000000081526004016108da90614890565b60405180910390fd5b600960009054906101000a900473ffffffffffffffffffffffffffffffffffffffff1673ffffffffffffffffffffffffffffffffffffffff1663a9059cbb600b856040516109319190614582565b908152602001604051809103902060020160009054906101000a900473ffffffffffffffffffffffffffffffffffffffff166004546040518363ffffffff1660e01b81526004016109839291906145f5565b602060405180830381600087803b15801561099d57600080fd5b505af11580156109b1573d6000803e3d6000fd5b505050506040513d601f19601f820116820180604052508101906109d59190613de4565b506002600b846040516109e89190614582565b908152602001604051809103902060020160146101000a81548160ff02191690836003811115610a1b57610a1a614ed2565b5b0217905550505050565b600b81604051610a359190614582565b908152602001604051809103902060020160009054906101000a900473ffffffffffffffffffffffffffffffffffffffff16600073ffffffffffffffffffffffffffffffffffffffff168173ffffffffffffffffffffffffffffffffffffffff161415610ad7576040517f08c379a0000000000000000000000000000000000000000000000000000000008152600401610ace90614810565b60405180910390fd5b3073ffffffffffffffffffffffffffffffffffffffff168173ffffffffffffffffffffffffffffffffffffffff161415610b46576040517f08c379a0000000000000000000000000000000000000000000000000000000008152600401610b3d90614950565b60405180910390fd5b81600c81604051610b579190614582565b908152602001604051809103902060009054906101000a900460ff16610bb2576040517f08c379a0000000000000000000000000000000000000000000000000000000008152600401610ba9906147b0565b60405180910390fd5b600160009054906101000a900473ffffffffffffffffffffffffffffffffffffffff1673ffffffffffffffffffffffffffffffffffffffff163373ffffffffffffffffffffffffffffffffffffffff1614610c42576040517f08c379a0000000000000000000000000000000000000000000000000000000008152600401610c3990614850565b60405180910390fd5b60016003811115610c5657610c55614ed2565b5b600b84604051610c669190614582565b908152602001604051809103902060020160149054906101000a900460ff166003811115610c9757610c96614ed2565b5b14610cd7576040517f08c379a0000000000000000000000000000000000000000000000000000000008152600401610cce90614790565b60405180910390fd5b610ce08361373d565b610d1f576040517f08c379a0000000000000000000000000000000000000000000000000000000008152600401610d1690614930565b60405180910390fd5b610d28836138e3565b610d67576040517f08c379a0000000000000000000000000000000000000000000000000000000008152600401610d5e90614870565b60405180910390fd5b600b83604051610d779190614582565b9081526020016040518091039020600301544210610dca576040517f08c379a0000000000000000000000000000000000000000000000000000000008152600401610dc190614890565b60405180910390fd5b600b83604051610dda9190614582565b908152602001604051809103902060020160009054906101000a900473ffffffffffffffffffffffffffffffffffffffff1673ffffffffffffffffffffffffffffffffffffffff166108fc6004549081150290604051600060405180830381858888f19350505050158015610e53573d6000803e3d6000fd5b506002600b84604051610e669190614582565b908152602001604051809103902060020160146101000a81548160ff02191690836003811115610e9957610e98614ed2565b5b0217905550505050565b600960009054906101000a900473ffffffffffffffffffffffffffffffffffffffff1681565b610ede60065482613b1c90919063ffffffff16565b3414610ee957600080fd5b80600960009054906101000a900473ffffffffffffffffffffffffffffffffffffffff1673ffffffffffffffffffffffffffffffffffffffff166370a08231306040518263ffffffff1660e01b8152600401610f4591906145da565b60206040518083038186803b158015610f5d57600080fd5b505afa158015610f71573d6000803e3d6000fd5b505050506040513d601f19601f82011682018060405250810190610f959190613ee3565b1015610fd6576040517f08c379a0000000000000000000000000000000000000000000000000000000008152600401610fcd906148f0565b60405180910390fd5b600960009054906101000a900473ffffffffffffffffffffffffffffffffffffffff1673ffffffffffffffffffffffffffffffffffffffff1663a9059cbb33836040518363ffffffff1660e01b815260040161103392919061461e565b602060405180830381600087803b15801561104d57600080fd5b505af1158015611061573d6000803e3d6000fd5b505050506040513d601f19601f820116820180604052508101906110859190613de4565b5080600760008282546110989190614b98565b9250508190555050565b6000600960009054906101000a900473ffffffffffffffffffffffffffffffffffffffff1673ffffffffffffffffffffffffffffffffffffffff166370a08231836040518263ffffffff1660e01b81526004016110ff91906145da565b60206040518083038186803b15801561111757600080fd5b505afa15801561112b573d6000803e3d6000fd5b505050506040513d601f19601f8201168201806040525081019061114f9190613ee3565b9050919050565b60008173ffffffffffffffffffffffffffffffffffffffff16319050919050565b60075481565b60608060608060606000600a8054905067ffffffffffffffff8111156111a6576111a5614f5f565b5b6040519080825280602002602001820160405280156111d45781602001602082028036833780820191505090505b5090506000600a8054905067ffffffffffffffff8111156111f8576111f7614f5f565b5b60405190808252806020026020018201604052801561122b57816020015b60608152602001906001900390816112165790505b5090506000600a8054905067ffffffffffffffff81111561124f5761124e614f5f565b5b60405190808252806020026020018201604052801561127d5781602001602082028036833780820191505090505b5090506000600a8054905067ffffffffffffffff8111156112a1576112a0614f5f565b5b6040519080825280602002602001820160405280156112cf5781602001602082028036833780820191505090505b50905060005b600a8054905081101561184657600b600a82815481106112f8576112f7614f30565b5b9060005260206000200160405161130f9190614599565b90815260200160405180910390206000015485828151811061133457611333614f30565b5b6020026020010181815250506000600381111561135457611353614ed2565b5b600b600a838154811061136a57611369614f30565b5b906000526020600020016040516113819190614599565b908152602001604051809103902060020160149054906101000a900460ff1660038111156113b2576113b1614ed2565b5b1415611411576040518060400160405280601081526020017f70726f64756374206f6e206f666665720000000000000000000000000000000081525084828151811061140157611400614f30565b5b60200260200101819052506116db565b6001600381111561142557611424614ed2565b5b600b600a838154811061143b5761143a614f30565b5b906000526020600020016040516114529190614599565b908152602001604051809103902060020160149054906101000a900460ff16600381111561148357611482614ed2565b5b14156114e2576040518060400160405280600d81526020017f6465706f7369742074616b656e000000000000000000000000000000000000008152508482815181106114d2576114d1614f30565b5b60200260200101819052506116da565b600260038111156114f6576114f5614ed2565b5b600b600a838154811061150c5761150b614f30565b5b906000526020600020016040516115239190614599565b908152602001604051809103902060020160149054906101000a900460ff16600381111561155457611553614ed2565b5b14156115b3576040518060400160405280601281526020017f7061796d656e74207375636365737366756c00000000000000000000000000008152508482815181106115a3576115a2614f30565b5b60200260200101819052506116d9565b6003808111156115c6576115c5614ed2565b5b600b600a83815481106115dc576115db614f30565b5b906000526020600020016040516115f39190614599565b908152602001604051809103902060020160149054906101000a900460ff16600381111561162457611623614ed2565b5b1415611683576040518060400160405280601081526020017f7061796d656e742072657475726e65640000000000000000000000000000000081525084828151811061167357611672614f30565b5b60200260200101819052506116d8565b6040518060400160405280601481526020017f756e6b6e6f776e20657363726f772073746174650000000000000000000000008152508482815181106116cc576116cb614f30565b5b60200260200101819052505b5b5b5b600b600a82815481106116f1576116f0614f30565b5b906000526020600020016040516117089190614599565b908152602001604051809103902060020160009054906101000a900473ffffffffffffffffffffffffffffffffffffffff1683828151811061174d5761174c614f30565b5b602002602001019073ffffffffffffffffffffffffffffffffffffffff16908173ffffffffffffffffffffffffffffffffffffffff1681525050600b600a828154811061179d5761179c614f30565b5b906000526020600020016040516117b49190614599565b908152602001604051809103902060010160009054906101000a900473ffffffffffffffffffffffffffffffffffffffff168282815181106117f9576117f8614f30565b5b602002602001019073ffffffffffffffffffffffffffffffffffffffff16908173ffffffffffffffffffffffffffffffffffffffff1681525050808061183e90614e2b565b9150506112d5565b50600a8484848484805480602002602001604051908101604052809291908181526020016000905b8282101561191a57838290600052602060002001805461188d90614dc8565b80601f01602080910402602001604051908101604052809291908181526020018280546118b990614dc8565b80156119065780601f106118db57610100808354040283529160200191611906565b820191906000526020600020905b8154815290600101906020018083116118e957829003601f168201915b50505050508152602001906001019061186e565b50505050945098509850985098509850505050509091929394565b600b816040516119459190614582565b908152602001604051809103902060010160009054906101000a900473ffffffffffffffffffffffffffffffffffffffff16600073ffffffffffffffffffffffffffffffffffffffff168173ffffffffffffffffffffffffffffffffffffffff1614156119e7576040517f08c379a00000000000000000000000000000000000000000000000000000000081526004016119de90614810565b60405180910390fd5b3073ffffffffffffffffffffffffffffffffffffffff168173ffffffffffffffffffffffffffffffffffffffff161415611a56576040517f08c379a0000000000000000000000000000000000000000000000000000000008152600401611a4d90614950565b60405180910390fd5b81600c81604051611a679190614582565b908152602001604051809103902060009054906101000a900460ff16611ac2576040517f08c379a0000000000000000000000000000000000000000000000000000000008152600401611ab9906147b0565b60405180910390fd5b600160009054906101000a900473ffffffffffffffffffffffffffffffffffffffff1673ffffffffffffffffffffffffffffffffffffffff163373ffffffffffffffffffffffffffffffffffffffff1614611b52576040517f08c379a0000000000000000000000000000000000000000000000000000000008152600401611b49906147f0565b60405180910390fd5b60016003811115611b6657611b65614ed2565b5b600b84604051611b769190614582565b908152602001604051809103902060020160149054906101000a900460ff166003811115611ba757611ba6614ed2565b5b14611be7576040517f08c379a0000000000000000000000000000000000000000000000000000000008152600401611bde90614790565b60405180910390fd5b600b83604051611bf79190614582565b9081526020016040518091039020600301544211611c4a576040517f08c379a0000000000000000000000000000000000000000000000000000000008152600401611c41906148b0565b60405180910390fd5b600960009054906101000a900473ffffffffffffffffffffffffffffffffffffffff1673ffffffffffffffffffffffffffffffffffffffff1663a9059cbb600b85604051611c989190614582565b908152602001604051809103902060010160009054906101000a900473ffffffffffffffffffffffffffffffffffffffff166004546040518363ffffffff1660e01b8152600401611cea9291906145f5565b602060405180830381600087803b158015611d0457600080fd5b505af1158015611d18573d6000803e3d6000fd5b505050506040513d601f19601f82011682018060405250810190611d3c9190613de4565b506003600b84604051611d4f9190614582565b908152602001604051809103902060020160146101000a81548160ff02191690836003811115611d8257611d81614ed2565b5b0217905550505050565b600b81604051611d9c9190614582565b908152602001604051809103902060010160009054906101000a900473ffffffffffffffffffffffffffffffffffffffff16600073ffffffffffffffffffffffffffffffffffffffff168173ffffffffffffffffffffffffffffffffffffffff161415611e3e576040517f08c379a0000000000000000000000000000000000000000000000000000000008152600401611e3590614810565b60405180910390fd5b3073ffffffffffffffffffffffffffffffffffffffff168173ffffffffffffffffffffffffffffffffffffffff161415611ead576040517f08c379a0000000000000000000000000000000000000000000000000000000008152600401611ea490614950565b60405180910390fd5b81600c81604051611ebe9190614582565b908152602001604051809103902060009054906101000a900460ff16611f19576040517f08c379a0000000000000000000000000000000000000000000000000000000008152600401611f10906147b0565b60405180910390fd5b600160009054906101000a900473ffffffffffffffffffffffffffffffffffffffff1673ffffffffffffffffffffffffffffffffffffffff163373ffffffffffffffffffffffffffffffffffffffff1614611fa9576040517f08c379a0000000000000000000000000000000000000000000000000000000008152600401611fa0906147f0565b60405180910390fd5b60016003811115611fbd57611fbc614ed2565b5b600b84604051611fcd9190614582565b908152602001604051809103902060020160149054906101000a900460ff166003811115611ffe57611ffd614ed2565b5b1461203e576040517f08c379a000000000000000000000000000000000000000000000000000000000815260040161203590614790565b60405180910390fd5b600b8360405161204e9190614582565b90815260200160405180910390206003015442116120a1576040517f08c379a0000000000000000000000000000000000000000000000000000000008152600401612098906148b0565b60405180910390fd5b600b836040516120b19190614582565b908152602001604051809103902060010160009054906101000a900473ffffffffffffffffffffffffffffffffffffffff1673ffffffffffffffffffffffffffffffffffffffff166108fc6004549081150290604051600060405180830381858888f1935050505015801561212a573d6000803e3d6000fd5b506003600b8460405161213d9190614582565b908152602001604051809103902060020160146101000a81548160ff021916908360038111156121705761216f614ed2565b5b0217905550505050565b600860009054906101000a900473ffffffffffffffffffffffffffffffffffffffff1681565b600c818051602081018201805184825260208301602085012081835280955050505050506000915054906101000a900460ff1681565b6000606060008084600c816040516121ee9190614582565b908152602001604051809103902060009054906101000a900460ff16612249576040517f08c379a0000000000000000000000000000000000000000000000000000000008152600401612240906147b0565b60405180910390fd5b60606000600381111561225f5761225e614ed2565b5b600b8860405161226f9190614582565b908152602001604051809103902060020160149054906101000a900460ff1660038111156122a05761229f614ed2565b5b14156122e3576040518060400160405280601081526020017f70726f64756374206f6e206f666665720000000000000000000000000000000081525090506124e6565b600160038111156122f7576122f6614ed2565b5b600b886040516123079190614582565b908152602001604051809103902060020160149054906101000a900460ff16600381111561233857612337614ed2565b5b141561237b576040518060400160405280600d81526020017f6465706f7369742074616b656e0000000000000000000000000000000000000081525090506124e5565b6002600381111561238f5761238e614ed2565b5b600b8860405161239f9190614582565b908152602001604051809103902060020160149054906101000a900460ff1660038111156123d0576123cf614ed2565b5b1415612413576040518060400160405280601281526020017f7061796d656e74207375636365737366756c000000000000000000000000000081525090506124e4565b60038081111561242657612425614ed2565b5b600b886040516124369190614582565b908152602001604051809103902060020160149054906101000a900460ff16600381111561246757612466614ed2565b5b14156124aa576040518060400160405280601081526020017f7061796d656e742072657475726e65640000000000000000000000000000000081525090506124e3565b6040518060400160405280601481526020017f756e6b6e6f776e20657363726f7720737461746500000000000000000000000081525090505b5b5b5b600b876040516124f69190614582565b90815260200160405180910390206000015481600b896040516125199190614582565b908152602001604051809103902060020160009054906101000a900473ffffffffffffffffffffffffffffffffffffffff16600b8a60405161255b9190614582565b908152602001604051809103902060010160009054906101000a900473ffffffffffffffffffffffffffffffffffffffff16955095509550955050509193509193565b60035481565b600c826040516125b49190614582565b908152602001604051809103902060009054906101000a900460ff1615612610576040517f08c379a0000000000000000000000000000000000000000000000000000000008152600401612607906147d0565b60405180910390fd5b600860009054906101000a900473ffffffffffffffffffffffffffffffffffffffff1673ffffffffffffffffffffffffffffffffffffffff16630ad5b505836040518263ffffffff1660e01b815260040161266b919061470e565b60206040518083038186803b15801561268357600080fd5b505afa158015612697573d6000803e3d6000fd5b505050506040513d601f19601f820116820180604052508101906126bb9190613de4565b6126fa576040517f08c379a00000000000000000000000000000000000000000000000000000000081526004016126f190614830565b60405180910390fd5b6000806000806000600860009054906101000a900473ffffffffffffffffffffffffffffffffffffffff1673ffffffffffffffffffffffffffffffffffffffff1663c5573d46886040518263ffffffff1660e01b815260040161275d919061470e565b60006040518083038186803b15801561277557600080fd5b505afa158015612789573d6000803e3d6000fd5b505050506040513d6000823e3d601f19601f820116820180604052508101906127b29190613f10565b945094509450945094508073ffffffffffffffffffffffffffffffffffffffff163373ffffffffffffffffffffffffffffffffffffffff161461282a576040517f08c379a0000000000000000000000000000000000000000000000000000000008152600401612821906148d0565b60405180910390fd5b612832613b5e565b8681600001818152505060008160600190600381111561285557612854614ed2565b5b9081600381111561286957612868614ed2565b5b8152505033816040019073ffffffffffffffffffffffffffffffffffffffff16908173ffffffffffffffffffffffffffffffffffffffff168152505080600b896040516128b69190614582565b90815260200160405180910390206000820151816000015560208201518160010160006101000a81548173ffffffffffffffffffffffffffffffffffffffff021916908373ffffffffffffffffffffffffffffffffffffffff16021790555060408201518160020160006101000a81548173ffffffffffffffffffffffffffffffffffffffff021916908373ffffffffffffffffffffffffffffffffffffffff16021790555060608201518160020160146101000a81548160ff0219169083600381111561298757612986614ed2565b5b0217905550608082015181600301559050506001600c896040516129ab9190614582565b908152602001604051809103902060006101000a81548160ff021916908315150217905550600a88908060018154018082558091505060019003906000526020600020016000909190919091509080519060200190612a0b929190613bcb565b50600860009054906101000a900473ffffffffffffffffffffffffffffffffffffffff1673ffffffffffffffffffffffffffffffffffffffff16630d202ced8960008054906101000a900473ffffffffffffffffffffffffffffffffffffffff166040518363ffffffff1660e01b8152600401612a89929190614730565b600060405180830381600087803b158015612aa357600080fd5b505af1158015612ab7573d6000803e3d6000fd5b505050505050505050505050565b600160009054906101000a900473ffffffffffffffffffffffffffffffffffffffff16600073ffffffffffffffffffffffffffffffffffffffff168173ffffffffffffffffffffffffffffffffffffffff161415612b58576040517f08c379a0000000000000000000000000000000000000000000000000000000008152600401612b4f90614810565b60405180910390fd5b3073ffffffffffffffffffffffffffffffffffffffff168173ffffffffffffffffffffffffffffffffffffffff161415612bc7576040517f08c379a0000000000000000000000000000000000000000000000000000000008152600401612bbe90614950565b60405180910390fd5b600b82604051612bd79190614582565b908152602001604051809103902060020160009054906101000a900473ffffffffffffffffffffffffffffffffffffffff16600073ffffffffffffffffffffffffffffffffffffffff168173ffffffffffffffffffffffffffffffffffffffff161415612c79576040517f08c379a0000000000000000000000000000000000000000000000000000000008152600401612c7090614810565b60405180910390fd5b3073ffffffffffffffffffffffffffffffffffffffff168173ffffffffffffffffffffffffffffffffffffffff161415612ce8576040517f08c379a0000000000000000000000000000000000000000000000000000000008152600401612cdf90614950565b60405180910390fd5b600b83604051612cf89190614582565b908152602001604051809103902060000154600254612d179190614b98565b3414612d58576040517f08c379a0000000000000000000000000000000000000000000000000000000008152600401612d4f90614910565b60405180910390fd5b60006003811115612d6c57612d6b614ed2565b5b600b84604051612d7c9190614582565b908152602001604051809103902060020160149054906101000a900460ff166003811115612dad57612dac614ed2565b5b14612ded576040517f08c379a0000000000000000000000000000000000000000000000000000000008152600401612de490614970565b60405180910390fd5b33600b84604051612dfe9190614582565b908152602001604051809103902060010160006101000a81548173ffffffffffffffffffffffffffffffffffffffff021916908373ffffffffffffffffffffffffffffffffffffffff1602179055506001600b84604051612e5f9190614582565b908152602001604051809103902060020160146101000a81548160ff02191690836003811115612e9257612e91614ed2565b5b021790555060055442612ea59190614b98565b600b84604051612eb59190614582565b908152602001604051809103902060030181905550612eff600a600b85604051612edf9190614582565b908152602001604051809103902060000154613b3290919063ffffffff16565b600381905550612f3b600354600b85604051612f1b9190614582565b908152602001604051809103902060000154613b4890919063ffffffff16565b600481905550600160009054906101000a900473ffffffffffffffffffffffffffffffffffffffff1673ffffffffffffffffffffffffffffffffffffffff166108fc6002549081150290604051600060405180830381858888f19350505050158015612fab573d6000803e3d6000fd5b50600b83604051612fbc9190614582565b908152602001604051809103902060020160009054906101000a900473ffffffffffffffffffffffffffffffffffffffff1673ffffffffffffffffffffffffffffffffffffffff166108fc6003549081150290604051600060405180830381858888f19350505050158015613035573d6000803e3d6000fd5b507f6b4150c430f0b9b9df0f255d6761fd17eefed34257973ab988203c832edbcc2383600b856040516130689190614582565b908152602001604051809103902060000154604051613088929190614760565b60405180910390a1505050565b60045481565b600160009054906101000a900473ffffffffffffffffffffffffffffffffffffffff16600073ffffffffffffffffffffffffffffffffffffffff168173ffffffffffffffffffffffffffffffffffffffff16141561312e576040517f08c379a000000000000000000000000000000000000000000000000000000000815260040161312590614810565b60405180910390fd5b3073ffffffffffffffffffffffffffffffffffffffff168173ffffffffffffffffffffffffffffffffffffffff16141561319d576040517f08c379a000000000000000000000000000000000000000000000000000000000815260040161319490614950565b60405180910390fd5b600b826040516131ad9190614582565b908152602001604051809103902060020160009054906101000a900473ffffffffffffffffffffffffffffffffffffffff16600073ffffffffffffffffffffffffffffffffffffffff168173ffffffffffffffffffffffffffffffffffffffff16141561324f576040517f08c379a000000000000000000000000000000000000000000000000000000000815260040161324690614810565b60405180910390fd5b3073ffffffffffffffffffffffffffffffffffffffff168173ffffffffffffffffffffffffffffffffffffffff1614156132be576040517f08c379a00000000000000000000000000000000000000000000000000000000081526004016132b590614950565b60405180910390fd5b600b836040516132ce9190614582565b9081526020016040518091039020600001546002546132ed9190614b98565b341461332e576040517f08c379a000000000000000000000000000000000000000000000000000000000815260040161332590614910565b60405180910390fd5b6000600381111561334257613341614ed2565b5b600b846040516133529190614582565b908152602001604051809103902060020160149054906101000a900460ff16600381111561338357613382614ed2565b5b146133c3576040517f08c379a00000000000000000000000000000000000000000000000000000000081526004016133ba90614970565b60405180910390fd5b33600b846040516133d49190614582565b908152602001604051809103902060010160006101000a81548173ffffffffffffffffffffffffffffffffffffffff021916908373ffffffffffffffffffffffffffffffffffffffff1602179055506001600b846040516134359190614582565b908152602001604051809103902060020160146101000a81548160ff0219169083600381111561346857613467614ed2565b5b02179055506005544261347b9190614b98565b600b8460405161348b9190614582565b9081526020016040518091039020600301819055506134d5600a600b856040516134b59190614582565b908152602001604051809103902060000154613b3290919063ffffffff16565b600381905550613511600354600b856040516134f19190614582565b908152602001604051809103902060000154613b4890919063ffffffff16565b600481905550600960009054906101000a900473ffffffffffffffffffffffffffffffffffffffff1673ffffffffffffffffffffffffffffffffffffffff1663a9059cbb600160009054906101000a900473ffffffffffffffffffffffffffffffffffffffff166002546040518363ffffffff1660e01b81526004016135989291906145f5565b602060405180830381600087803b1580156135b257600080fd5b505af11580156135c6573d6000803e3d6000fd5b505050506040513d601f19601f820116820180604052508101906135ea9190613de4565b50600960009054906101000a900473ffffffffffffffffffffffffffffffffffffffff1673ffffffffffffffffffffffffffffffffffffffff1663a9059cbb600b856040516136399190614582565b908152602001604051809103902060020160009054906101000a900473ffffffffffffffffffffffffffffffffffffffff166003546040518363ffffffff1660e01b815260040161368b9291906145f5565b602060405180830381600087803b1580156136a557600080fd5b505af11580156136b9573d6000803e3d6000fd5b505050506040513d601f19601f820116820180604052508101906136dd9190613de4565b507f6b4150c430f0b9b9df0f255d6761fd17eefed34257973ab988203c832edbcc2383600b856040516137109190614582565b908152602001604051809103902060000154604051613730929190614760565b60405180910390a1505050565b600081600c816040516137509190614582565b908152602001604051809103902060009054906101000a900460ff166137ab576040517f08c379a00000000000000000000000000000000000000000000000000000000081526004016137a2906147b0565b60405180910390fd5b6000806000806000600860009054906101000a900473ffffffffffffffffffffffffffffffffffffffff1673ffffffffffffffffffffffffffffffffffffffff1663c5573d46896040518263ffffffff1660e01b815260040161380e919061470e565b60006040518083038186803b15801561382657600080fd5b505afa15801561383a573d6000803e3d6000fd5b505050506040513d6000823e3d601f19601f820116820180604052508101906138639190613f10565b9450945094509450945060405160200161387c906145b0565b60405160208183030381529060405280519060200120836040516020016138a39190614582565b6040516020818303038152906040528051906020012014156138cd576001965050505050506138d7565b6000965050505050505b50919050565b60025481565b600081600c816040516138f69190614582565b908152602001604051809103902060009054906101000a900460ff16613951576040517f08c379a0000000000000000000000000000000000000000000000000000000008152600401613948906147b0565b60405180910390fd5b6000806000806000600860009054906101000a900473ffffffffffffffffffffffffffffffffffffffff1673ffffffffffffffffffffffffffffffffffffffff1663c5573d46896040518263ffffffff1660e01b81526004016139b4919061470e565b60006040518083038186803b1580156139cc57600080fd5b505afa1580156139e0573d6000803e3d6000fd5b505050506040513d6000823e3d601f19601f82011682018060405250810190613a099190613f10565b94509450945094509450604051602001613a22906145c5565b6040516020818303038152906040528051906020012082604051602001613a499190614582565b604051602081830303815290604052805190602001201415613a7357600196505050505050613a7d565b6000965050505050505b50919050565b600b818051602081018201805184825260208301602085012081835280955050505050506000915090508060000154908060010160009054906101000a900473ffffffffffffffffffffffffffffffffffffffff16908060020160009054906101000a900473ffffffffffffffffffffffffffffffffffffffff16908060020160149054906101000a900460ff16908060030154905085565b60008183613b2a9190614c1f565b905092915050565b60008183613b409190614bee565b905092915050565b60008183613b569190614c79565b905092915050565b6040518060a0016040528060008152602001600073ffffffffffffffffffffffffffffffffffffffff168152602001600073ffffffffffffffffffffffffffffffffffffffff16815260200160006003811115613bbe57613bbd614ed2565b5b8152602001600081525090565b828054613bd790614dc8565b90600052602060002090601f016020900481019282613bf95760008555613c40565b82601f10613c1257805160ff1916838001178555613c40565b82800160010185558215613c40579182015b82811115613c3f578251825591602001919060010190613c24565b5b509050613c4d9190613c51565b5090565b5b80821115613c6a576000816000905550600101613c52565b5090565b6000613c81613c7c84614a6f565b614a4a565b905082815260208101848484011115613c9d57613c9c614f93565b5b613ca8848285614d86565b509392505050565b6000613cc3613cbe84614a6f565b614a4a565b905082815260208101848484011115613cdf57613cde614f93565b5b613cea848285614d95565b509392505050565b600081359050613d01816154bd565b92915050565b600081519050613d16816154bd565b92915050565b600081519050613d2b816154d4565b92915050565b600082601f830112613d4657613d45614f8e565b5b8135613d56848260208601613c6e565b91505092915050565b600082601f830112613d7457613d73614f8e565b5b8151613d84848260208601613cb0565b91505092915050565b600081359050613d9c816154eb565b92915050565b600081519050613db1816154eb565b92915050565b600060208284031215613dcd57613dcc614f9d565b5b6000613ddb84828501613cf2565b91505092915050565b600060208284031215613dfa57613df9614f9d565b5b6000613e0884828501613d1c565b91505092915050565b600060208284031215613e2757613e26614f9d565b5b600082013567ffffffffffffffff811115613e4557613e44614f98565b5b613e5184828501613d31565b91505092915050565b60008060408385031215613e7157613e70614f9d565b5b600083013567ffffffffffffffff811115613e8f57613e8e614f98565b5b613e9b85828601613d31565b9250506020613eac85828601613d8d565b9150509250929050565b600060208284031215613ecc57613ecb614f9d565b5b6000613eda84828501613d8d565b91505092915050565b600060208284031215613ef957613ef8614f9d565b5b6000613f0784828501613da2565b91505092915050565b600080600080600060a08688031215613f2c57613f2b614f9d565b5b6000613f3a88828901613da2565b955050602086015167ffffffffffffffff811115613f5b57613f5a614f98565b5b613f6788828901613d5f565b945050604086015167ffffffffffffffff811115613f8857613f87614f98565b5b613f9488828901613d5f565b935050606086015167ffffffffffffffff811115613fb557613fb4614f98565b5b613fc188828901613d5f565b9250506080613fd288828901613d07565b9150509295509295909350565b6000613feb8383614041565b60208301905092915050565b600061400383836141cc565b905092915050565b60006140178383614564565b60208301905092915050565b61402c81614d1a565b82525050565b61403b81614cbf565b82525050565b61404a81614cad565b82525050565b61405981614cad565b82525050565b600061406a82614ae5565b6140748185614b38565b935061407f83614aa0565b8060005b838110156140b05781516140978882613fdf565b97506140a283614b11565b925050600181019050614083565b5085935050505092915050565b60006140c882614af0565b6140d28185614b49565b9350836020820285016140e485614ab0565b8060005b8581101561412057848403895281516141018582613ff7565b945061410c83614b1e565b925060208a019950506001810190506140e8565b50829750879550505050505092915050565b600061413d82614afb565b6141478185614b5a565b935061415283614ac0565b8060005b8381101561418357815161416a888261400b565b975061417583614b2b565b925050600181019050614156565b5085935050505092915050565b61419981614cd1565b82525050565b6141a881614d2c565b82525050565b6141b781614d3e565b82525050565b6141c681614d50565b82525050565b60006141d782614b06565b6141e18185614b6b565b93506141f1818560208601614d95565b6141fa81614fa2565b840191505092915050565b600061421082614b06565b61421a8185614b7c565b935061422a818560208601614d95565b61423381614fa2565b840191505092915050565b600061424982614b06565b6142538185614b8d565b9350614263818560208601614d95565b80840191505092915050565b6000815461427c81614dc8565b6142868186614b8d565b945060018216600081146142a157600181146142b2576142e5565b60ff198316865281860193506142e5565b6142bb85614ad0565b60005b838110156142dd578154818901526001820191506020810190506142be565b838801955050505b50505092915050565b60006142fb602283614b7c565b915061430682614fb3565b604082019050919050565b600061431e601783614b7c565b915061432982615002565b602082019050919050565b6000614341601283614b8d565b915061434c8261502b565b601282019050919050565b6000614364601b83614b7c565b915061436f82615054565b602082019050919050565b6000614387602883614b7c565b91506143928261507d565b604082019050919050565b60006143aa602683614b7c565b91506143b5826150cc565b604082019050919050565b60006143cd601c83614b7c565b91506143d88261511b565b602082019050919050565b60006143f0602883614b7c565b91506143fb82615144565b604082019050919050565b6000614413603283614b7c565b915061441e82615193565b604082019050919050565b6000614436603483614b7c565b9150614441826151e2565b604082019050919050565b6000614459603783614b7c565b915061446482615231565b604082019050919050565b600061447c603083614b7c565b915061448782615280565b604082019050919050565b600061449f605383614b7c565b91506144aa826152cf565b606082019050919050565b60006144c2604a83614b7c565b91506144cd82615344565b606082019050919050565b60006144e5601083614b8d565b91506144f0826153b9565b601082019050919050565b6000614508603783614b7c565b9150614513826153e2565b604082019050919050565b600061452b602583614b7c565b915061453682615431565b604082019050919050565b600061454e601883614b7c565b915061455982615480565b602082019050919050565b61456d81614d10565b82525050565b61457c81614d10565b82525050565b600061458e828461423e565b915081905092915050565b60006145a5828461426f565b915081905092915050565b60006145bb82614334565b9150819050919050565b60006145d0826144d8565b9150819050919050565b60006020820190506145ef6000830184614050565b92915050565b600060408201905061460a6000830185614023565b6146176020830184614573565b9392505050565b60006040820190506146336000830185614050565b6146406020830184614573565b9392505050565b600060a082019050818103600083015261466181886140bd565b905081810360208301526146758187614132565b9050818103604083015261468981866140bd565b9050818103606083015261469d818561405f565b905081810360808301526146b1818461405f565b90509695505050505050565b60006020820190506146d26000830184614190565b92915050565b60006020820190506146ed600083018461419f565b92915050565b600060208201905061470860008301846141ae565b92915050565b600060208201905081810360008301526147288184614205565b905092915050565b6000604082019050818103600083015261474a8185614205565b90506147596020830184614050565b9392505050565b6000604082019050818103600083015261477a8185614205565b90506147896020830184614573565b9392505050565b600060208201905081810360008301526147a9816142ee565b9050919050565b600060208201905081810360008301526147c981614311565b9050919050565b600060208201905081810360008301526147e981614357565b9050919050565b600060208201905081810360008301526148098161437a565b9050919050565b600060208201905081810360008301526148298161439d565b9050919050565b60006020820190508181036000830152614849816143c0565b9050919050565b60006020820190508181036000830152614869816143e3565b9050919050565b6000602082019050818103600083015261488981614406565b9050919050565b600060208201905081810360008301526148a981614429565b9050919050565b600060208201905081810360008301526148c98161444c565b9050919050565b600060208201905081810360008301526148e98161446f565b9050919050565b6000602082019050818103600083015261490981614492565b9050919050565b60006020820190508181036000830152614929816144b5565b9050919050565b60006020820190508181036000830152614949816144fb565b9050919050565b600060208201905081810360008301526149698161451e565b9050919050565b6000602082019050818103600083015261498981614541565b9050919050565b60006020820190506149a56000830184614573565b92915050565b600060a0820190506149c06000830188614573565b6149cd6020830187614032565b6149da6040830186614032565b6149e760608301856141bd565b6149f46080830184614573565b9695505050505050565b6000608082019050614a136000830187614573565b8181036020830152614a258186614205565b9050614a346040830185614050565b614a416060830184614050565b95945050505050565b6000614a54614a65565b9050614a608282614dfa565b919050565b6000604051905090565b600067ffffffffffffffff821115614a8a57614a89614f5f565b5b614a9382614fa2565b9050602081019050919050565b6000819050602082019050919050565b6000819050602082019050919050565b6000819050602082019050919050565b60008190508160005260206000209050919050565b600081519050919050565b600081519050919050565b600081519050919050565b600081519050919050565b6000602082019050919050565b6000602082019050919050565b6000602082019050919050565b600082825260208201905092915050565b600082825260208201905092915050565b600082825260208201905092915050565b600082825260208201905092915050565b600082825260208201905092915050565b600081905092915050565b6000614ba382614d10565b9150614bae83614d10565b9250827fffffffffffffffffffffffffffffffffffffffffffffffffffffffffffffffff03821115614be357614be2614e74565b5b828201905092915050565b6000614bf982614d10565b9150614c0483614d10565b925082614c1457614c13614ea3565b5b828204905092915050565b6000614c2a82614d10565b9150614c3583614d10565b9250817fffffffffffffffffffffffffffffffffffffffffffffffffffffffffffffffff0483118215151615614c6e57614c6d614e74565b5b828202905092915050565b6000614c8482614d10565b9150614c8f83614d10565b925082821015614ca257614ca1614e74565b5b828203905092915050565b6000614cb882614cf0565b9050919050565b6000614cca82614cf0565b9050919050565b60008115159050919050565b6000819050614ceb826154a9565b919050565b600073ffffffffffffffffffffffffffffffffffffffff82169050919050565b6000819050919050565b6000614d2582614d62565b9050919050565b6000614d3782614d62565b9050919050565b6000614d4982614d62565b9050919050565b6000614d5b82614cdd565b9050919050565b6000614d6d82614d74565b9050919050565b6000614d7f82614cf0565b9050919050565b82818337600083830152505050565b60005b83811015614db3578082015181840152602081019050614d98565b83811115614dc2576000848401525b50505050565b60006002820490506001821680614de057607f821691505b60208210811415614df457614df3614f01565b5b50919050565b614e0382614fa2565b810181811067ffffffffffffffff82111715614e2257614e21614f5f565b5b80604052505050565b6000614e3682614d10565b91507fffffffffffffffffffffffffffffffffffffffffffffffffffffffffffffffff821415614e6957614e68614e74565b5b600182019050919050565b7f4e487b7100000000000000000000000000000000000000000000000000000000600052601160045260246000fd5b7f4e487b7100000000000000000000000000000000000000000000000000000000600052601260045260246000fd5b7f4e487b7100000000000000000000000000000000000000000000000000000000600052602160045260246000fd5b7f4e487b7100000000000000000000000000000000000000000000000000000000600052602260045260246000fd5b7f4e487b7100000000000000000000000000000000000000000000000000000000600052603260045260246000fd5b7f4e487b7100000000000000000000000000000000000000000000000000000000600052604160045260246000fd5b600080fd5b600080fd5b600080fd5b600080fd5b6000601f19601f8301169050919050565b7f4e6f206465706f73697420666f756e6420666f7220746869732070726f64756360008201527f742e000000000000000000000000000000000000000000000000000000000000602082015250565b7f50726f6475637420646f6573206e6f742065786973742e000000000000000000600082015250565b7f7061636b6167696e672076657269666965640000000000000000000000000000600082015250565b7f50726f6475637420697320616c7265616479206f6666657265642e0000000000600082015250565b7f4f6e6c79206167656e742063616e2063616c6c2074686520726566756e64206660008201527f756e6374696f6e2e000000000000000000000000000000000000000000000000602082015250565b7f526563697069656e742073686f756c64206861766520612076616c696420616460008201527f6472657373210000000000000000000000000000000000000000000000000000602082015250565b7f50726f6475637420746f6b656e206973206e6f74206d696e7465642e00000000600082015250565b7f4f6e6c79206167656e742063616e2063616c6c207468652072656465656d206660008201527f756e6374696f6e2e000000000000000000000000000000000000000000000000602082015250565b7f4167656e742063616e6e6f74206170726f7665207061796d656e74206f66207560008201527f6e76657269666965642070726f647563742e0000000000000000000000000000602082015250565b7f53656c6c65722063616e206f6e6c792072656465656d206265666f726520746860008201527f65207370656369666965642074696d656f75742e000000000000000000000000602082015250565b7f4167656e742063616e2069737375652074686520726566756e6420616674657260008201527f20746865207370656369666965642074696d656f75742e000000000000000000602082015250565b7f4f6e6c79206f776e6572206f66206120746f6b656e2063616e206f666665722060008201527f697420617320612070726f647563742e00000000000000000000000000000000602082015250565b7f526571756972657320746865206465706c6f796564204175746f6d617469635060008201527f61796d656e7420636f6e747261637420746f20686f6c64206d6f726520746f6b60208201527f656e73207468616e207265717565737465642e00000000000000000000000000604082015250565b7f506c65617365206d616b65207375726520796f7572206465706f73697420636f60008201527f7665727320626f7468207468652070726f6475637420707269636520616e642060208201527f6167656e74206665652100000000000000000000000000000000000000000000604082015250565b7f70726f6475637420766572696669656400000000000000000000000000000000600082015250565b7f4167656e742063616e6e6f74206170726f7665207061796d656e74206966207060008201527f61636b6167696e6720697320756e76657269666965642e000000000000000000602082015250565b7f526563697069656e742073686f756c64206e6f742062652074686520636f6e7460008201527f7261637421000000000000000000000000000000000000000000000000000000602082015250565b7f50726f64756374206973206e6f74206f6e206f66666572210000000000000000600082015250565b600481106154ba576154b9614ed2565b5b50565b6154c681614cad565b81146154d157600080fd5b50565b6154dd81614cd1565b81146154e857600080fd5b50565b6154f481614d10565b81146154ff57600080fd5b5056fea26469706673582212201464b92885941343060b599a1cedae878b7a839372aa46910310394892c45f3064736f6c63430008070033",
  "immutableReferences": {},
  "source": "// SPDX-License-Identifier: UNLICENSED\npragma solidity ^0.8.0;\n\nimport \"../node_modules/@openzeppelin/contracts/utils/math/SafeMath.sol\";\nimport \"./DigitalTwin.sol\";\nimport \"./BToken.sol\";\n\n/**\n * @title EscrowService Contract, forked from https://github.com/AleRapchan/escrow-service\n * @author Yining Hu\n * @notice Building a single role access control Escrow Service using OpenZeppelin Escrow and RBAC\n * @dev contract currently assume one buyer account and one seller account, should develop an additional wallet contract and allow new user registration\n * @dev Todo: to implement multi-sig, time-based escrow\n * @dev Todo: to add a product existence modifier, and a role modifier\n * @dev Todo: the easiest would be to transfer both money and ownership of the product to the agent \n * @dev then to prevent agent from taking everything, agent needs to deposit, which can be slashed if caught faulty\n */\ncontract Escrow {\n\n    address agentaddr;\n    address payable agent;\n    \n    uint256 public fee;\n    uint256 public initial_payment;\n    uint256 public remaining_payment;\n\n    uint256 timeout;\n\n    uint256 btkprice;\n    uint256 public tokenSold;\n\n    using SafeMath for uint256;\n\n    DigitalTwin public digitaltwin;\n    BToken public btk;\n    \n    enum EscrowState { OFFERED, DEPOSITTAKEN, SELLERREDEEMED, BUYERDENIED } //PAYMENTSUCCESSFUL, PAYMENTREVERTED\n\n    struct Product{\n        uint256 price;\n        address payable buyer;\n        address payable seller;\n        EscrowState state;\n        uint256 timeout; // timeout for payment settlement\n    }\n\n    string[] allproducts;\n    mapping (string => Product) public stock; // whole stock of offered items for sale in escrow arragement\n    mapping(string => bool) public productExists;\n\n    event DepositTaken(string tkname, uint256 price);\n\n    /**\n     * @dev before setting up any user wallet, all buyers/sellers use a single buyer/seller address, which are maintained by Beston.\n     */\n    constructor(DigitalTwin _digitaltwin, BToken _btoken, uint _btkprice) {\n        digitaltwin = _digitaltwin;\n        btk = _btoken;\n        btkprice = _btkprice;\n\n        agentaddr = msg.sender; // agent is the creator of the contract\n\n        agent = payable(agentaddr);\n        fee = 1000000000; // 1e9, based on estimated agent cost\n\n        timeout = 3 minutes;\n    }\n\n    modifier validDestination(address to) {\n        require(to != address(0x0), \"Recipient should have a valid address!\");\n        require(to != address(this), \"Recipient should not be the contract!\");\n        _;\n    }\n\n    modifier validProduct(string memory _tkname) {\n        require(productExists[_tkname], \"Product does not exist.\");\n        _;\n    }\n\n    // buyTokens sends BTokens to participants\n    function buyTokens(uint256 _numOfTokens) public payable {\n        require(msg.value == _numOfTokens.mul(btkprice));\n        require(\n            btk.balanceOf(address(this)) >= _numOfTokens,\n            \"Requires the deployed AutomaticPayment contract to hold more tokens than requested.\"\n        );\n\n        btk.transfer(msg.sender, _numOfTokens); // contract transfer _numOfTokens to the caller of this function\n\n        tokenSold += _numOfTokens; // keep track of tokens that are sold\n    }\n\n    function getTokenBalance(address _addr) external view returns(uint) {\n        return btk.balanceOf(_addr);\n    }    \n\n    function offer(string memory _tkname , uint256 _price) public {\n        require(!productExists[_tkname], \"Product is already offered.\");\n        require(digitaltwin.tkExists(_tkname), \"Product token is not minted.\");\n\n        // should also require the caller to be the owner of the product\n        (uint256 id, string memory metadata, string memory rstatus, string memory vstatus, address addr) = digitaltwin.queryToken(_tkname);\n        require(msg.sender == addr, \"Only owner of a token can offer it as a product.\");\n\n        Product memory product;\n        product.price = _price; /// @dev double check the conversion in Polygon\n        product.state = EscrowState.OFFERED;\n        product.seller = payable(msg.sender);\n        stock[_tkname] = product;\n        productExists[_tkname] = true;\n        allproducts.push(_tkname);\n\n        // transfer the token ownership to the agent\n        digitaltwin.transferByName(_tkname,agentaddr);\n    }\n    \n    /**\n     * @notice Buyer can make a deposit to products on offer\n     * @dev Partial payment is sent to the seller, however, can change depending on the agreement\n     */\n    function BuyerDeposit(string memory _tkname) external payable validDestination(agent) validDestination(stock[_tkname].seller) {\n        require (msg.value == fee + stock[_tkname].price, \"Please make sure your deposit covers both the product price and agent fee!\");\n        require (stock[_tkname].state == EscrowState.OFFERED , \"Product is not on offer!\"); // this also blocks buyer from making duplicatd deposit\n\n        stock[_tkname].buyer = payable(msg.sender);\n        stock[_tkname].state = EscrowState.DEPOSITTAKEN;\n        stock[_tkname].timeout = block.timestamp + timeout; // add a timeout for settlement when buyer sends deposit\n\n        initial_payment = stock[_tkname].price.div(10); // initial payment set to be 10% of the total price\n        remaining_payment = stock[_tkname].price.sub(initial_payment);\n\n        agent.transfer(fee);\n        stock[_tkname].seller.transfer(initial_payment);\n\n        emit DepositTaken(_tkname, stock[_tkname].price);\n    }\n\n    /**\n     * @notice Buyer can approve the payment with or without verification\n     * @dev when implementing the api and front end, buyer should have the option to proceed without or with verification\n     */ \n    // function BuyerApprove(string memory _tkname) public validDestination(seller) validProduct(_tkname) {\n    //     require (msg.sender == buyer);\n    //     require (stock[_tkname].state == EscrowState.DEPOSITTAKEN, \"Buyer cannot approve without a deposit!\");\n    //     require (block.timestamp < stock[_tkname].timeout);\n    //     seller.transfer(remaining_payment);\n    //     stock[_tkname].state = EscrowState.BUYERAPPROVED;\n    // }\n\n    /**\n     * @notice Seller can redeem with 2 verifications\n     * Achieves the same payment result as BuyerApprove, but requires seller to pay for execution\n     */\n    function AgentApprove(string memory _tkname) public validDestination(stock[_tkname].seller) validProduct(_tkname) {\n        require (msg.sender == agent, \"Only agent can call the redeem function.\");\n        require (stock[_tkname].state == EscrowState.DEPOSITTAKEN, \"No deposit found for this product.\");\n        require (VerifyPackaging(_tkname), \"Agent cannot aprove payment if packaging is unverified.\");\n        require (VerifyProduct(_tkname), \"Agent cannot aprove payment of unverified product.\");\n        require (block.timestamp < stock[_tkname].timeout, \"Seller can only redeem before the specified timeout.\");\n        stock[_tkname].seller.transfer(remaining_payment);\n        stock[_tkname].state = EscrowState.SELLERREDEEMED;\n    }\n\n    /**\n     * @notice Buyer can deny the payment upon unsatisfactory verification result or for other reasons.\n     */\n    function AgentDeny(string memory _tkname) public validDestination(stock[_tkname].buyer) validProduct(_tkname) {\n        require (msg.sender == agent, \"Only agent can call the refund function.\");\n        require (stock[_tkname].state == EscrowState.DEPOSITTAKEN, \"No deposit found for this product.\");\n        require (block.timestamp > stock[_tkname].timeout, \"Agent can issue the refund after the specified timeout.\");\n        stock[_tkname].buyer.transfer(remaining_payment);\n        stock[_tkname].state = EscrowState.BUYERDENIED;\n    }\n\n    /**\n     * the functions below are for payments using btks\n     * Todo: after confirming that function works, remove the payable keyword\n     */\n    function BuyerDepositWithBTK(string memory _tkname) external payable validDestination(agent) validDestination(stock[_tkname].seller) {\n        require (msg.value == fee + stock[_tkname].price, \"Please make sure your deposit covers both the product price and agent fee!\");\n        require (stock[_tkname].state == EscrowState.OFFERED , \"Product is not on offer!\"); // this also blocks buyer from making duplicatd deposit\n\n        stock[_tkname].buyer = payable(msg.sender);\n        stock[_tkname].state = EscrowState.DEPOSITTAKEN;\n        stock[_tkname].timeout = block.timestamp + timeout; // add a timeout for settlement when buyer sends deposit\n\n        initial_payment = stock[_tkname].price.div(10); // initial payment set to be 10% of the total price\n        remaining_payment = stock[_tkname].price.sub(initial_payment);\n\n        btk.transfer(agent, fee);\n        btk.transfer(stock[_tkname].seller, initial_payment);\n        \n        emit DepositTaken(_tkname, stock[_tkname].price);\n    }\n\n    function AgentApproveWithBTK(string memory _tkname) public validDestination(stock[_tkname].seller) validProduct(_tkname) {\n        require (msg.sender == agent, \"Only agent can call the redeem function.\");\n        require (stock[_tkname].state == EscrowState.DEPOSITTAKEN, \"No deposit found for this product.\");\n        require (VerifyPackaging(_tkname), \"Agent cannot aprove payment if packaging is unverified.\");\n        require (VerifyProduct(_tkname), \"Agent cannot aprove payment of unverified product.\");\n        require (block.timestamp < stock[_tkname].timeout, \"Seller can only redeem before the specified timeout.\");\n        btk.transfer(stock[_tkname].seller, remaining_payment);\n        stock[_tkname].state = EscrowState.SELLERREDEEMED;\n    }\n\n    /**\n     * @notice Buyer can deny the payment upon unsatisfactory verification result or for other reasons.\n     */\n    function AgentDenyWithBTK(string memory _tkname) public validDestination(stock[_tkname].buyer) validProduct(_tkname) {\n        require (msg.sender == agent, \"Only agent can call the refund function.\");\n        require (stock[_tkname].state == EscrowState.DEPOSITTAKEN, \"No deposit found for this product.\");\n        require (block.timestamp > stock[_tkname].timeout, \"Agent can issue the refund after the specified timeout.\");\n        btk.transfer(stock[_tkname].buyer, remaining_payment);\n        stock[_tkname].state = EscrowState.BUYERDENIED;\n    }\n\n    /**\n     * @notice getters\n     */\n\n    function VerifyPackaging(string memory _tkname) public view validProduct(_tkname) returns (bool) {\n        (uint256 id, string memory metadata, string memory rstatus, string memory vstatus, address addr) = digitaltwin.queryToken(_tkname);\n        if (keccak256(abi.encodePacked(rstatus)) == keccak256(abi.encodePacked(\"packaging verified\"))) {\n            return true;\n        } else {\n            return false;\n        }\n    }\n\n    function VerifyProduct(string memory _tkname) public view validProduct(_tkname) returns (bool) {\n        (uint256 id, string memory metadata, string memory rstatus, string memory vstatus, address addr) = digitaltwin.queryToken(_tkname);\n        if (keccak256(abi.encodePacked(vstatus)) == keccak256(abi.encodePacked(\"product verified\"))) {\n            return true;\n        } else {\n            return false;\n        }\n    }\n\n    function QueryProduct(string memory _tkname) public view validProduct(_tkname) returns(uint256, string memory, address, address) {\n        string memory state;\n\n        if (stock[_tkname].state == EscrowState.OFFERED) {\n            state = \"product on offer\";\n        } else if (stock[_tkname].state == EscrowState.DEPOSITTAKEN) {\n            state = \"deposit taken\";\n        } else if (stock[_tkname].state == EscrowState.SELLERREDEEMED) {\n            state = \"payment successful\";\n        } else if (stock[_tkname].state == EscrowState.BUYERDENIED) {\n            state = \"payment returned\";\n        } else {\n            state = \"unknown escrow state\";\n        }\n\n        return (stock[_tkname].price, state, stock[_tkname].seller, stock[_tkname].buyer);\n    }\n\n    function QueryAllProducts() \n        public\n        view\n        returns\n    (\n        string[] memory, \n        uint256[] memory, \n        string[] memory,\n        address[] memory,\n        address[] memory\n    )\n    {\n        uint256[] memory prices = new uint256[](allproducts.length);\n        string[] memory states = new string[](allproducts.length);\n        address[] memory sellers = new address[](allproducts.length);\n        address[] memory buyers = new address[](allproducts.length);\n\n        for(uint i=0; i<allproducts.length; i++){\n            prices[i] = stock[allproducts[i]].price;\n\n            if (stock[allproducts[i]].state == EscrowState.OFFERED) {\n                states[i] = \"product on offer\";\n            } else if (stock[allproducts[i]].state == EscrowState.DEPOSITTAKEN) {\n                states[i] = \"deposit taken\";\n            } else if (stock[allproducts[i]].state == EscrowState.SELLERREDEEMED) {\n                states[i] = \"payment successful\";\n            } else if (stock[allproducts[i]].state == EscrowState.BUYERDENIED) {\n                states[i] = \"payment returned\";\n            } else {\n                states[i] = \"unknown escrow state\";\n            }\n\n            sellers[i] = stock[allproducts[i]].seller;\n            buyers[i] = stock[allproducts[i]].buyer;\n        }\n\n        return (allproducts, prices, states, sellers, buyers);\n    }\n\n    function GetBalance(address addr) public view returns(uint256) {\n        return addr.balance;\n    }\n}",
  "sourcePath": "/home/yih/Documents/dev/beston-dapps/contracts/Escrow.sol",
  "compiler": {
    "name": "solc",
    "version": "0.8.7+commit.e28d00a7.Emscripten.clang"
  },
  "schemaVersion": "3.4.1",
  "updatedAt": "2022-12-12T03:10:05.719Z",
  "networkType": "ethereum",
  "devdoc": {
    "author": "Yining Hu",
    "details": "contract currently assume one buyer account and one seller account, should develop an additional wallet contract and allow new user registrationTodo: to implement multi-sig, time-based escrowTodo: to add a product existence modifier, and a role modifierTodo: the easiest would be to transfer both money and ownership of the product to the agent then to prevent agent from taking everything, agent needs to deposit, which can be slashed if caught faulty",
    "kind": "dev",
    "methods": {
      "BuyerDeposit(string)": {
        "details": "Partial payment is sent to the seller, however, can change depending on the agreement"
      },
      "constructor": {
        "details": "before setting up any user wallet, all buyers/sellers use a single buyer/seller address, which are maintained by Beston."
      }
    },
    "title": "EscrowService Contract, forked from https://github.com/AleRapchan/escrow-service",
    "version": 1
  },
  "userdoc": {
    "kind": "user",
    "methods": {
      "AgentApprove(string)": {
        "notice": "Seller can redeem with 2 verifications Achieves the same payment result as BuyerApprove, but requires seller to pay for execution"
      },
      "AgentDeny(string)": {
        "notice": "Buyer can deny the payment upon unsatisfactory verification result or for other reasons."
      },
      "AgentDenyWithBTK(string)": {
        "notice": "Buyer can deny the payment upon unsatisfactory verification result or for other reasons."
      },
      "BuyerDeposit(string)": {
        "notice": "Buyer can make a deposit to products on offer"
      },
      "BuyerDepositWithBTK(string)": {
        "notice": "the functions below are for payments using btks Todo: after confirming that function works, remove the payable keyword"
      },
      "VerifyPackaging(string)": {
        "notice": "getters"
      }
    },
    "notice": "Building a single role access control Escrow Service using OpenZeppelin Escrow and RBAC",
    "version": 1
  }
}