{
  "contractName": "Escrow",
  "abi": [
    {
      "inputs": [
        {
          "internalType": "contract DigitalTwin",
          "name": "_digitaltwin",
          "type": "address"
        },
        {
          "internalType": "address",
          "name": "_buyer_address",
          "type": "address"
        },
        {
          "internalType": "address",
          "name": "_seller_address",
          "type": "address"
        }
      ],
      "stateMutability": "nonpayable",
      "type": "constructor"
    },
    {
      "anonymous": false,
      "inputs": [
        {
          "indexed": false,
          "internalType": "string",
          "name": "tkname",
          "type": "string"
        },
        {
          "indexed": false,
          "internalType": "uint256",
          "name": "price",
          "type": "uint256"
        }
      ],
      "name": "DepositTaken",
      "type": "event"
    },
    {
      "inputs": [],
      "name": "digitaltwin",
      "outputs": [
        {
          "internalType": "contract DigitalTwin",
          "name": "",
          "type": "address"
        }
      ],
      "stateMutability": "view",
      "type": "function",
      "constant": true
    },
    {
      "inputs": [],
      "name": "fee",
      "outputs": [
        {
          "internalType": "uint256",
          "name": "",
          "type": "uint256"
        }
      ],
      "stateMutability": "view",
      "type": "function",
      "constant": true
    },
    {
      "inputs": [],
      "name": "initial_payment",
      "outputs": [
        {
          "internalType": "uint256",
          "name": "",
          "type": "uint256"
        }
      ],
      "stateMutability": "view",
      "type": "function",
      "constant": true
    },
    {
      "inputs": [
        {
          "internalType": "string",
          "name": "",
          "type": "string"
        }
      ],
      "name": "productExists",
      "outputs": [
        {
          "internalType": "bool",
          "name": "",
          "type": "bool"
        }
      ],
      "stateMutability": "view",
      "type": "function",
      "constant": true
    },
    {
      "inputs": [],
      "name": "remaining_payment",
      "outputs": [
        {
          "internalType": "uint256",
          "name": "",
          "type": "uint256"
        }
      ],
      "stateMutability": "view",
      "type": "function",
      "constant": true
    },
    {
      "inputs": [
        {
          "internalType": "string",
          "name": "",
          "type": "string"
        }
      ],
      "name": "stock",
      "outputs": [
        {
          "internalType": "uint256",
          "name": "price",
          "type": "uint256"
        },
        {
          "internalType": "enum Escrow.EscrowState",
          "name": "state",
          "type": "uint8"
        }
      ],
      "stateMutability": "view",
      "type": "function",
      "constant": true
    },
    {
      "inputs": [
        {
          "internalType": "address",
          "name": "_address",
          "type": "address"
        }
      ],
      "name": "setAddr",
      "outputs": [],
      "stateMutability": "nonpayable",
      "type": "function"
    },
    {
      "inputs": [
        {
          "internalType": "string",
          "name": "_tkname",
          "type": "string"
        },
        {
          "internalType": "uint256",
          "name": "_price",
          "type": "uint256"
        }
      ],
      "name": "offer",
      "outputs": [],
      "stateMutability": "nonpayable",
      "type": "function"
    },
    {
      "inputs": [
        {
          "internalType": "string",
          "name": "_tkname",
          "type": "string"
        }
      ],
      "name": "BuyerSendPayment",
      "outputs": [],
      "stateMutability": "payable",
      "type": "function",
      "payable": true
    },
    {
      "inputs": [
        {
          "internalType": "string",
          "name": "_tkname",
          "type": "string"
        }
      ],
      "name": "VerifyProduct",
      "outputs": [
        {
          "internalType": "bool",
          "name": "",
          "type": "bool"
        }
      ],
      "stateMutability": "view",
      "type": "function",
      "constant": true
    },
    {
      "inputs": [
        {
          "internalType": "string",
          "name": "_tkname",
          "type": "string"
        }
      ],
      "name": "BuyerApprove",
      "outputs": [],
      "stateMutability": "nonpayable",
      "type": "function"
    },
    {
      "inputs": [
        {
          "internalType": "string",
          "name": "_tkname",
          "type": "string"
        }
      ],
      "name": "BuyerDeny",
      "outputs": [],
      "stateMutability": "nonpayable",
      "type": "function"
    },
    {
      "inputs": [
        {
          "internalType": "string",
          "name": "_tkname",
          "type": "string"
        }
      ],
      "name": "AgentConfirmTransaction",
      "outputs": [],
      "stateMutability": "nonpayable",
      "type": "function"
    },
    {
      "inputs": [
        {
          "internalType": "string",
          "name": "_tkname",
          "type": "string"
        }
      ],
      "name": "AgentCancelTransaction",
      "outputs": [],
      "stateMutability": "nonpayable",
      "type": "function"
    },
    {
      "inputs": [],
      "name": "GetUsers",
      "outputs": [
        {
          "internalType": "address",
          "name": "",
          "type": "address"
        },
        {
          "internalType": "address",
          "name": "",
          "type": "address"
        }
      ],
      "stateMutability": "view",
      "type": "function",
      "constant": true
    },
    {
      "inputs": [
        {
          "internalType": "string",
          "name": "_tkname",
          "type": "string"
        }
      ],
      "name": "QueryProduct",
      "outputs": [
        {
          "internalType": "uint256",
          "name": "",
          "type": "uint256"
        },
        {
          "internalType": "enum Escrow.EscrowState",
          "name": "",
          "type": "uint8"
        },
        {
          "internalType": "bool",
          "name": "",
          "type": "bool"
        }
      ],
      "stateMutability": "view",
      "type": "function",
      "constant": true
    }
  ],
  "bytecode": "0x60806040523480156200001157600080fd5b50604051620024d6380380620024d68339818101604052810190620000379190620002a0565b82600960006101000a81548173ffffffffffffffffffffffffffffffffffffffff021916908373ffffffffffffffffffffffffffffffffffffffff160217905550336000806101000a81548173ffffffffffffffffffffffffffffffffffffffff021916908373ffffffffffffffffffffffffffffffffffffffff16021790555081600160006101000a81548173ffffffffffffffffffffffffffffffffffffffff021916908373ffffffffffffffffffffffffffffffffffffffff16021790555080600260006101000a81548173ffffffffffffffffffffffffffffffffffffffff021916908373ffffffffffffffffffffffffffffffffffffffff16021790555060008054906101000a900473ffffffffffffffffffffffffffffffffffffffff16600360006101000a81548173ffffffffffffffffffffffffffffffffffffffff021916908373ffffffffffffffffffffffffffffffffffffffff160217905550600160009054906101000a900473ffffffffffffffffffffffffffffffffffffffff16600460006101000a81548173ffffffffffffffffffffffffffffffffffffffff021916908373ffffffffffffffffffffffffffffffffffffffff160217905550600260009054906101000a900473ffffffffffffffffffffffffffffffffffffffff16600560006101000a81548173ffffffffffffffffffffffffffffffffffffffff021916908373ffffffffffffffffffffffffffffffffffffffff16021790555060646006819055505050506200037d565b600081519050620002838162000349565b92915050565b6000815190506200029a8162000363565b92915050565b600080600060608486031215620002bc57620002bb62000344565b5b6000620002cc8682870162000289565b9350506020620002df8682870162000272565b9250506040620002f28682870162000272565b9150509250925092565b6000620003098262000324565b9050919050565b60006200031d82620002fc565b9050919050565b600073ffffffffffffffffffffffffffffffffffffffff82169050919050565b600080fd5b6200035481620002fc565b81146200036057600080fd5b50565b6200036e8162000310565b81146200037a57600080fd5b50565b612149806200038d6000396000f3fe6080604052600436106100f35760003560e01c8063c0db2e5e1161008a578063ddca3f4311610059578063ddca3f431461030a578063f8c3540b14610335578063fae0c53c14610372578063fd9908e31461039b576100f3565b8063c0db2e5e14610261578063c8e2fa8d1461028a578063d1d80fdf146102b5578063da3eec19146102de576100f3565b8063a00cbd5b116100c6578063a00cbd5b146101a5578063a8f5ecb7146101e4578063b882bd631461020f578063bc9d30c714610238576100f3565b80632710473d146100f8578063833f41f51461012157806386dc434b1461013d5780638addc05114610168575b600080fd5b34801561010457600080fd5b5061011f600480360381019061011a919061160d565b6103d9565b005b61013b6004803603810190610136919061160d565b610617565b005b34801561014957600080fd5b50610152610a3e565b60405161015f91906119b1565b60405180910390f35b34801561017457600080fd5b5061018f600480360381019061018a919061160d565b610a64565b60405161019c9190611996565b60405180910390f35b3480156101b157600080fd5b506101cc60048036038101906101c7919061160d565b610a9a565b6040516101db93929190611b62565b60405180910390f35b3480156101f057600080fd5b506101f9610b77565b6040516102069190611b1e565b60405180910390f35b34801561021b57600080fd5b506102366004803603810190610231919061160d565b610b7d565b005b34801561024457600080fd5b5061025f600480360381019061025a9190611656565b610dbb565b005b34801561026d57600080fd5b506102886004803603810190610283919061160d565b610f02565b005b34801561029657600080fd5b5061029f61103e565b6040516102ac9190611b1e565b60405180910390f35b3480156102c157600080fd5b506102dc60048036038101906102d791906115e0565b611044565b005b3480156102ea57600080fd5b506102f3611088565b60405161030192919061196d565b60405180910390f35b34801561031657600080fd5b5061031f611133565b60405161032c9190611b1e565b60405180910390f35b34801561034157600080fd5b5061035c6004803603810190610357919061160d565b611139565b6040516103699190611996565b60405180910390f35b34801561037e57600080fd5b506103996004803603810190610394919061160d565b6112d1565b005b3480156103a757600080fd5b506103c260048036038101906103bd919061160d565b61140d565b6040516103d0929190611b39565b60405180910390f35b600460009054906101000a900473ffffffffffffffffffffffffffffffffffffffff16600073ffffffffffffffffffffffffffffffffffffffff168173ffffffffffffffffffffffffffffffffffffffff16141561043657600080fd5b3073ffffffffffffffffffffffffffffffffffffffff168173ffffffffffffffffffffffffffffffffffffffff16141561046f57600080fd5b600360009054906101000a900473ffffffffffffffffffffffffffffffffffffffff1673ffffffffffffffffffffffffffffffffffffffff163373ffffffffffffffffffffffffffffffffffffffff16146104c957600080fd5b600360058111156104dd576104dc611e45565b5b600a836040516104ed9190611941565b908152602001604051809103902060010160009054906101000a900460ff16600581111561051e5761051d611e45565b5b1461055e576040517f08c379a000000000000000000000000000000000000000000000000000000000815260040161055590611a3e565b60405180910390fd5b600460009054906101000a900473ffffffffffffffffffffffffffffffffffffffff1673ffffffffffffffffffffffffffffffffffffffff166108fc6008549081150290604051600060405180830381858888f193505050501580156105c8573d6000803e3d6000fd5b506005600a836040516105db9190611941565b908152602001604051809103902060010160006101000a81548160ff0219169083600581111561060e5761060d611e45565b5b02179055505050565b600360009054906101000a900473ffffffffffffffffffffffffffffffffffffffff16600073ffffffffffffffffffffffffffffffffffffffff168173ffffffffffffffffffffffffffffffffffffffff16141561067457600080fd5b3073ffffffffffffffffffffffffffffffffffffffff168173ffffffffffffffffffffffffffffffffffffffff1614156106ad57600080fd5b600560009054906101000a900473ffffffffffffffffffffffffffffffffffffffff16600073ffffffffffffffffffffffffffffffffffffffff168173ffffffffffffffffffffffffffffffffffffffff16141561070a57600080fd5b3073ffffffffffffffffffffffffffffffffffffffff168173ffffffffffffffffffffffffffffffffffffffff16141561074357600080fd5b600a836040516107539190611941565b9081526020016040518091039020600001546006546107729190611c16565b3410156107b4576040517f08c379a00000000000000000000000000000000000000000000000000000000081526004016107ab90611ade565b60405180910390fd5b600060058111156107c8576107c7611e45565b5b600a846040516107d89190611941565b908152602001604051809103902060010160009054906101000a900460ff16600581111561080957610808611e45565b5b14610849576040517f08c379a000000000000000000000000000000000000000000000000000000000815260040161084090611afe565b60405180910390fd5b6001600a8460405161085b9190611941565b908152602001604051809103902060010160006101000a81548160ff0219169083600581111561088e5761088d611e45565b5b02179055506108c7600a80856040516108a79190611941565b90815260200160405180910390206000015461145490919063ffffffff16565b600781905550610903600754600a856040516108e39190611941565b90815260200160405180910390206000015461146a90919063ffffffff16565b600881905550600360009054906101000a900473ffffffffffffffffffffffffffffffffffffffff1673ffffffffffffffffffffffffffffffffffffffff166108fc6006549081150290604051600060405180830381858888f19350505050158015610973573d6000803e3d6000fd5b50600560009054906101000a900473ffffffffffffffffffffffffffffffffffffffff1673ffffffffffffffffffffffffffffffffffffffff166108fc6007549081150290604051600060405180830381858888f193505050501580156109de573d6000803e3d6000fd5b507f6b4150c430f0b9b9df0f255d6761fd17eefed34257973ab988203c832edbcc2383600a85604051610a119190611941565b908152602001604051809103902060000154604051610a319291906119ee565b60405180910390a1505050565b600960009054906101000a900473ffffffffffffffffffffffffffffffffffffffff1681565b600b818051602081018201805184825260208301602085012081835280955050505050506000915054906101000a900460ff1681565b6000806000600b84604051610aaf9190611941565b908152602001604051809103902060009054906101000a900460ff16610b0a576040517f08c379a0000000000000000000000000000000000000000000000000000000008152600401610b0190611a5e565b60405180910390fd5b6000610b1585611139565b9050600a85604051610b279190611941565b908152602001604051809103902060000154600a86604051610b499190611941565b908152602001604051809103902060010160009054906101000a900460ff1682935093509350509193909250565b60075481565b600560009054906101000a900473ffffffffffffffffffffffffffffffffffffffff16600073ffffffffffffffffffffffffffffffffffffffff168173ffffffffffffffffffffffffffffffffffffffff161415610bda57600080fd5b3073ffffffffffffffffffffffffffffffffffffffff168173ffffffffffffffffffffffffffffffffffffffff161415610c1357600080fd5b600360009054906101000a900473ffffffffffffffffffffffffffffffffffffffff1673ffffffffffffffffffffffffffffffffffffffff163373ffffffffffffffffffffffffffffffffffffffff1614610c6d57600080fd5b60026005811115610c8157610c80611e45565b5b600a83604051610c919190611941565b908152602001604051809103902060010160009054906101000a900460ff166005811115610cc257610cc1611e45565b5b14610d02576040517f08c379a0000000000000000000000000000000000000000000000000000000008152600401610cf990611abe565b60405180910390fd5b600560009054906101000a900473ffffffffffffffffffffffffffffffffffffffff1673ffffffffffffffffffffffffffffffffffffffff166108fc6008549081150290604051600060405180830381858888f19350505050158015610d6c573d6000803e3d6000fd5b506004600a83604051610d7f9190611941565b908152602001604051809103902060010160006101000a81548160ff02191690836005811115610db257610db1611e45565b5b02179055505050565b600b82604051610dcb9190611941565b908152602001604051809103902060009054906101000a900460ff1615610e27576040517f08c379a0000000000000000000000000000000000000000000000000000000008152600401610e1e90611a7e565b60405180910390fd5b610e2f611480565b81816000018181525050600081602001906005811115610e5257610e51611e45565b5b90816005811115610e6657610e65611e45565b5b8152505080600a84604051610e7b9190611941565b90815260200160405180910390206000820151816000015560208201518160010160006101000a81548160ff02191690836005811115610ebe57610ebd611e45565b5b02179055509050506001600b84604051610ed89190611941565b908152602001604051809103902060006101000a81548160ff021916908315150217905550505050565b600460009054906101000a900473ffffffffffffffffffffffffffffffffffffffff1673ffffffffffffffffffffffffffffffffffffffff163373ffffffffffffffffffffffffffffffffffffffff1614610f5c57600080fd5b60016005811115610f7057610f6f611e45565b5b600a82604051610f809190611941565b908152602001604051809103902060010160009054906101000a900460ff166005811115610fb157610fb0611e45565b5b14610ff1576040517f08c379a0000000000000000000000000000000000000000000000000000000008152600401610fe890611a1e565b60405180910390fd5b6002600a826040516110039190611941565b908152602001604051809103902060010160006101000a81548160ff0219169083600581111561103657611035611e45565b5b021790555050565b60085481565b80600960006101000a81548173ffffffffffffffffffffffffffffffffffffffff021916908373ffffffffffffffffffffffffffffffffffffffff16021790555050565b600080600360009054906101000a900473ffffffffffffffffffffffffffffffffffffffff1673ffffffffffffffffffffffffffffffffffffffff163373ffffffffffffffffffffffffffffffffffffffff16146110e557600080fd5b600460009054906101000a900473ffffffffffffffffffffffffffffffffffffffff16600560009054906101000a900473ffffffffffffffffffffffffffffffffffffffff16915091509091565b60065481565b6000600b8260405161114b9190611941565b908152602001604051809103902060009054906101000a900460ff166111a6576040517f08c379a000000000000000000000000000000000000000000000000000000000815260040161119d90611a5e565b60405180910390fd5b600080600080600960009054906101000a900473ffffffffffffffffffffffffffffffffffffffff1673ffffffffffffffffffffffffffffffffffffffff1663c5573d46876040518263ffffffff1660e01b815260040161120791906119cc565b60006040518083038186803b15801561121f57600080fd5b505afa158015611233573d6000803e3d6000fd5b505050506040513d6000823e3d601f19601f8201168201806040525081019061125c91906116b2565b935093509350935060405160200161127390611958565b604051602081830303815290604052805190602001208260405160200161129a9190611941565b6040516020818303038152906040528051906020012014156112c35760019450505050506112cc565b60009450505050505b919050565b600460009054906101000a900473ffffffffffffffffffffffffffffffffffffffff1673ffffffffffffffffffffffffffffffffffffffff163373ffffffffffffffffffffffffffffffffffffffff161461132b57600080fd5b6001600581111561133f5761133e611e45565b5b600a8260405161134f9190611941565b908152602001604051809103902060010160009054906101000a900460ff1660058111156113805761137f611e45565b5b146113c0576040517f08c379a00000000000000000000000000000000000000000000000000000000081526004016113b790611a9e565b60405180910390fd5b6003600a826040516113d29190611941565b908152602001604051809103902060010160006101000a81548160ff0219169083600581111561140557611404611e45565b5b021790555050565b600a818051602081018201805184825260208301602085012081835280955050505050506000915090508060000154908060010160009054906101000a900460ff16905082565b600081836114629190611c6c565b905092915050565b600081836114789190611c9d565b905092915050565b604051806040016040528060008152602001600060058111156114a6576114a5611e45565b5b81525090565b60006114bf6114ba84611bbe565b611b99565b9050828152602081018484840111156114db576114da611ea8565b5b6114e6848285611d74565b509392505050565b60006115016114fc84611bbe565b611b99565b90508281526020810184848401111561151d5761151c611ea8565b5b611528848285611d83565b509392505050565b60008135905061153f816120e5565b92915050565b600081519050611554816120e5565b92915050565b600082601f83011261156f5761156e611ea3565b5b813561157f8482602086016114ac565b91505092915050565b600082601f83011261159d5761159c611ea3565b5b81516115ad8482602086016114ee565b91505092915050565b6000813590506115c5816120fc565b92915050565b6000815190506115da816120fc565b92915050565b6000602082840312156115f6576115f5611eb2565b5b600061160484828501611530565b91505092915050565b60006020828403121561162357611622611eb2565b5b600082013567ffffffffffffffff81111561164157611640611ead565b5b61164d8482850161155a565b91505092915050565b6000806040838503121561166d5761166c611eb2565b5b600083013567ffffffffffffffff81111561168b5761168a611ead565b5b6116978582860161155a565b92505060206116a8858286016115b6565b9150509250929050565b600080600080608085870312156116cc576116cb611eb2565b5b60006116da878288016115cb565b945050602085015167ffffffffffffffff8111156116fb576116fa611ead565b5b61170787828801611588565b935050604085015167ffffffffffffffff81111561172857611727611ead565b5b61173487828801611588565b925050606061174587828801611545565b91505092959194509250565b61175a81611cd1565b82525050565b61176981611ce3565b82525050565b61177881611d2c565b82525050565b61178781611d3e565b82525050565b600061179882611bef565b6117a28185611bfa565b93506117b2818560208601611d83565b6117bb81611eb7565b840191505092915050565b60006117d182611bef565b6117db8185611c0b565b93506117eb818560208601611d83565b80840191505092915050565b6000611804602783611bfa565b915061180f82611ec8565b604082019050919050565b6000611827600883611c0b565b915061183282611f17565b600882019050919050565b600061184a601683611bfa565b915061185582611f40565b602082019050919050565b600061186d601783611bfa565b915061187882611f69565b602082019050919050565b6000611890601b83611bfa565b915061189b82611f92565b602082019050919050565b60006118b3602483611bfa565b91506118be82611fbb565b604082019050919050565b60006118d6601883611bfa565b91506118e18261200a565b602082019050919050565b60006118f9604a83611bfa565b915061190482612033565b606082019050919050565b600061191c601883611bfa565b9150611927826120a8565b602082019050919050565b61193b81611d22565b82525050565b600061194d82846117c6565b915081905092915050565b60006119638261181a565b9150819050919050565b60006040820190506119826000830185611751565b61198f6020830184611751565b9392505050565b60006020820190506119ab6000830184611760565b92915050565b60006020820190506119c6600083018461176f565b92915050565b600060208201905081810360008301526119e6818461178d565b905092915050565b60006040820190508181036000830152611a08818561178d565b9050611a176020830184611932565b9392505050565b60006020820190508181036000830152611a37816117f7565b9050919050565b60006020820190508181036000830152611a578161183d565b9050919050565b60006020820190508181036000830152611a7781611860565b9050919050565b60006020820190508181036000830152611a9781611883565b9050919050565b60006020820190508181036000830152611ab7816118a6565b9050919050565b60006020820190508181036000830152611ad7816118c9565b9050919050565b60006020820190508181036000830152611af7816118ec565b9050919050565b60006020820190508181036000830152611b178161190f565b9050919050565b6000602082019050611b336000830184611932565b92915050565b6000604082019050611b4e6000830185611932565b611b5b602083018461177e565b9392505050565b6000606082019050611b776000830186611932565b611b84602083018561177e565b611b916040830184611760565b949350505050565b6000611ba3611bb4565b9050611baf8282611db6565b919050565b6000604051905090565b600067ffffffffffffffff821115611bd957611bd8611e74565b5b611be282611eb7565b9050602081019050919050565b600081519050919050565b600082825260208201905092915050565b600081905092915050565b6000611c2182611d22565b9150611c2c83611d22565b9250827fffffffffffffffffffffffffffffffffffffffffffffffffffffffffffffffff03821115611c6157611c60611de7565b5b828201905092915050565b6000611c7782611d22565b9150611c8283611d22565b925082611c9257611c91611e16565b5b828204905092915050565b6000611ca882611d22565b9150611cb383611d22565b925082821015611cc657611cc5611de7565b5b828203905092915050565b6000611cdc82611d02565b9050919050565b60008115159050919050565b6000819050611cfd826120d1565b919050565b600073ffffffffffffffffffffffffffffffffffffffff82169050919050565b6000819050919050565b6000611d3782611d50565b9050919050565b6000611d4982611cef565b9050919050565b6000611d5b82611d62565b9050919050565b6000611d6d82611d02565b9050919050565b82818337600083830152505050565b60005b83811015611da1578082015181840152602081019050611d86565b83811115611db0576000848401525b50505050565b611dbf82611eb7565b810181811067ffffffffffffffff82111715611dde57611ddd611e74565b5b80604052505050565b7f4e487b7100000000000000000000000000000000000000000000000000000000600052601160045260246000fd5b7f4e487b7100000000000000000000000000000000000000000000000000000000600052601260045260246000fd5b7f4e487b7100000000000000000000000000000000000000000000000000000000600052602160045260246000fd5b7f4e487b7100000000000000000000000000000000000000000000000000000000600052604160045260246000fd5b600080fd5b600080fd5b600080fd5b600080fd5b6000601f19601f8301169050919050565b7f42757965722063616e6e6f7420617070726f766520776974686f75742061206460008201527f65706f7369742100000000000000000000000000000000000000000000000000602082015250565b7f7665726966696564000000000000000000000000000000000000000000000000600082015250565b7f4177616974696e672062757965722064656e61696c2100000000000000000000600082015250565b7f50726f6475637420646f6573206e6f742065786973742e000000000000000000600082015250565b7f50726f6475637420697320616c7265616479206f6666657265642e0000000000600082015250565b7f42757965722063616e6e6f742064656e7920776974686f75742061206465706f60008201527f7369742100000000000000000000000000000000000000000000000000000000602082015250565b7f4177616974696e6720627579657220617070726f76616c210000000000000000600082015250565b7f506c65617365206d616b65207375726520796f7572206465706f73697420636f60008201527f7665727320626f7468207468652070726f6475637420707269636520616e642060208201527f6167656e74206665652100000000000000000000000000000000000000000000604082015250565b7f50726f64756374206973206e6f74206f6e206f66666572210000000000000000600082015250565b600681106120e2576120e1611e45565b5b50565b6120ee81611cd1565b81146120f957600080fd5b50565b61210581611d22565b811461211057600080fd5b5056fea2646970667358221220d599db625e44a978e34db264e8d0935f12ddd4290ed1403b2e5537ac78c187fb64736f6c63430008070033",
  "immutableReferences": {},
  "source": "// SPDX-License-Identifier: UNLICENSED\npragma solidity ^0.8.0;\n\nimport \"../node_modules/@openzeppelin/contracts/utils/math/SafeMath.sol\";\nimport \"./DigitalTwin.sol\";\n\n/**\n * @title EscrowService Contract, forked from https://github.com/AleRapchan/escrow-service\n * @author Yining Hu\n * @notice Building a single role access control Escrow Service using OpenZeppelin Escrow and RBAC\n * @dev To do: Removing rold based access control makes payments successful. However, this can be added manually as \"requires\"\n * @dev contract currently assume one buyer account and one seller account, should develop an additional wallet contract and allow new user registration\n */\ncontract Escrow { //Ownable, \n\n    /**\n     * @dev Roles are referred to by their bytes32 identifier. \n     * @dev These should be exposed in the external API and be unique.\n     * To do: to add a mapping to check if token exists and insert the requirements in query functions\n     */\n\n    address agentaddr;\n    address buyeraddr;\n    address selleraddr;\n\n    address payable agent;\n    address payable buyer;\n    address payable seller;\n    \n    uint256 public fee;\n    uint256 public initial_payment;\n    uint256 public remaining_payment;\n\n    using SafeMath for uint256;\n\n    DigitalTwin public digitaltwin;\n    \n    enum EscrowState { OFFERED, DEPOSITTAKEN, BUYERAPPROVED, BUYERDENIED, PAYMENTSUCCESSFUL, PAYMENTREVERTED }\n\n    struct Product{\n        uint256 price;\n        EscrowState state;\n    }\n\n    mapping (string => Product) public stock; // whole stock of offered items for sell in escrow arragement\n    mapping(string => bool) public productExists;\n\n    event DepositTaken(string tkname, uint256 price);\n\n    /**\n     * @dev before setting up any user wallet, all buyers/sellers use a single buyer/seller address, which are maintained by Beston.\n     * @dev the same goes for ownership tracking in DigitalTwin.sol.\n     */\n    constructor(DigitalTwin _digitaltwin, address _buyer_address, address _seller_address) {\n        digitaltwin = _digitaltwin;\n\n        agentaddr = msg.sender;\n        buyeraddr = _buyer_address;\n        selleraddr = _seller_address;\n\n        agent = payable(agentaddr);\n        buyer = payable(buyeraddr);\n        seller= payable(selleraddr);\n        fee = 100;\n    }\n\n    /**\n     * @notice To prevent sending tokens to 0x0 address and the contract address\n     */\n    modifier validDestination( address to ) {\n        require(to != address(0x0));\n        require(to != address(this) );\n        _;\n    }\n\n    /**\n     * @notice to get the deployed DigitalTwin instance for accessing stored variables\n     * @dev instead of pure inheriting\n     */\n    function setAddr(address _address) public {\n        digitaltwin = DigitalTwin(_address);\n    }\n\n    function offer(string memory _tkname , uint256 _price) public {\n        require(!productExists[_tkname], \"Product is already offered.\");\n\n        Product memory product;\n        product.price = _price; /// @dev double check the conversion in Polygon\n        product.state = EscrowState.OFFERED;\n        stock[_tkname] = product;\n        productExists[_tkname] = true;\n    }\n    \n    /**\n     * @notice Buyer can make a deposit to products on offer\n     * @dev Partial payment is sent to the seller, however, can change depending on the agreement\n     */\n    function BuyerSendPayment(string memory _tkname) external payable validDestination(agent) validDestination(seller) {\n        require (msg.value >= fee + stock[_tkname].price, \"Please make sure your deposit covers both the product price and agent fee!\");\n        //require (_seller == seller, \"Buyer must confirm the seller address!\");\n        require (stock[_tkname].state == EscrowState.OFFERED , \"Product is not on offer!\"); // this also blocks buyer from making duplicatd deposit\n        stock[_tkname].state = EscrowState.DEPOSITTAKEN;\n\n        initial_payment = stock[_tkname].price.div(10); // initial payment set to be 10% of the total price\n        remaining_payment = stock[_tkname].price.sub(initial_payment);\n\n        agent.transfer(fee);\n        seller.transfer(initial_payment);\n\n        emit DepositTaken(_tkname, stock[_tkname].price);\n    }\n\n    function VerifyProduct(string memory _tkname) public view returns (bool) {\n        require(productExists[_tkname], \"Product does not exist.\");\n\n        (uint256 id, string memory metadata, string memory vstatus, address addr) = digitaltwin.queryToken(_tkname);\n        if (keccak256(abi.encodePacked(vstatus)) == keccak256(abi.encodePacked(\"verified\"))) {\n            return true;\n        } else {\n            return false;\n        }\n    }\n\n    /**\n     * @notice Buyer can approve the payment with or without verification\n     * @dev when implementing the api and front end, buyer should have the option to proceed without or with verification\n     */ \n    function BuyerApprove(string memory _tkname) public {\n        require (msg.sender == buyer);\n        require (stock[_tkname].state == EscrowState.DEPOSITTAKEN, \"Buyer cannot approve without a deposit!\");\n        stock[_tkname].state = EscrowState.BUYERAPPROVED;\n    }\n\n    /**\n     * @notice Buyer can deny the payment upon unsatisfactory verification result or for other reasons.\n     */\n    function BuyerDeny (string memory _tkname) public {\n        require (msg.sender == buyer);\n        require (stock[_tkname].state == EscrowState.DEPOSITTAKEN, \"Buyer cannot deny without a deposit!\");\n        stock[_tkname].state = EscrowState.BUYERDENIED;\n    }\n\n    /**\n     * @notice If conditions are met: escrow agent releases to seller.\n     * @dev To do: to allow seller to redeem without agent/buyer to approve without agent\n     */\n    function AgentConfirmTransaction (string memory _tkname) public validDestination(seller) {\n        require (msg.sender == agent);\n        require (stock[_tkname].state == EscrowState.BUYERAPPROVED , \"Awaiting buyer approval!\");\n        seller.transfer(remaining_payment);\n        stock[_tkname].state =  EscrowState.PAYMENTSUCCESSFUL;\n    }\n\n    /**\n     * @notice If conditions does not met: escrow agent revert to buyer.\n     */\n    function AgentCancelTransaction (string memory _tkname) validDestination(buyer) public {\n        require (msg.sender == agent);\n        require (stock[_tkname].state == EscrowState.BUYERDENIED , \"Awaiting buyer denail!\");\n        buyer.transfer(remaining_payment); \n        stock[_tkname].state =  EscrowState.PAYMENTREVERTED;\n    }\n\n    /**\n     * @notice getters\n     */\n    function GetUsers () public view returns(address, address) {\n        require (msg.sender == agent);\n        return (buyer,seller);\n    }\n\n    function QueryProduct (string memory _tkname) public view returns(uint256, EscrowState, bool) {\n        require(productExists[_tkname], \"Product does not exist.\");\n        bool vstatus = VerifyProduct(_tkname);\n        return (stock[_tkname].price, stock[_tkname].state, vstatus);\n    }\n}",
  "sourcePath": "/home/yih/Documents/dev/beston-dapps/contracts/Escrow.sol",
  "compiler": {
    "name": "solc",
    "version": "0.8.7+commit.e28d00a7.Emscripten.clang"
  },
  "schemaVersion": "3.4.1",
  "updatedAt": "2022-04-27T00:23:53.456Z",
  "networkType": "ethereum",
  "devdoc": {
    "author": "Yining Hu",
    "details": "To do: Removing rold based access control makes payments successful. However, this can be added manually as \"requires\"contract currently assume one buyer account and one seller account, should develop an additional wallet contract and allow new user registration",
    "kind": "dev",
    "methods": {
      "AgentConfirmTransaction(string)": {
        "details": "To do: to allow seller to redeem without agent/buyer to approve without agent"
      },
      "BuyerApprove(string)": {
        "details": "when implementing the api and front end, buyer should have the option to proceed without or with verification"
      },
      "BuyerSendPayment(string)": {
        "details": "Partial payment is sent to the seller, however, can change depending on the agreement"
      },
      "constructor": {
        "details": "before setting up any user wallet, all buyers/sellers use a single buyer/seller address, which are maintained by Beston.the same goes for ownership tracking in DigitalTwin.sol."
      },
      "setAddr(address)": {
        "details": "instead of pure inheriting"
      }
    },
    "stateVariables": {
      "agentaddr": {
        "details": "Roles are referred to by their bytes32 identifier. These should be exposed in the external API and be unique. To do: to add a mapping to check if token exists and insert the requirements in query functions"
      }
    },
    "title": "EscrowService Contract, forked from https://github.com/AleRapchan/escrow-service",
    "version": 1
  },
  "userdoc": {
    "kind": "user",
    "methods": {
      "AgentCancelTransaction(string)": {
        "notice": "If conditions does not met: escrow agent revert to buyer."
      },
      "AgentConfirmTransaction(string)": {
        "notice": "If conditions are met: escrow agent releases to seller."
      },
      "BuyerApprove(string)": {
        "notice": "Buyer can approve the payment with or without verification"
      },
      "BuyerDeny(string)": {
        "notice": "Buyer can deny the payment upon unsatisfactory verification result or for other reasons."
      },
      "BuyerSendPayment(string)": {
        "notice": "Buyer can make a deposit to products on offer"
      },
      "GetUsers()": {
        "notice": "getters"
      },
      "setAddr(address)": {
        "notice": "to get the deployed DigitalTwin instance for accessing stored variables"
      }
    },
    "notice": "Building a single role access control Escrow Service using OpenZeppelin Escrow and RBAC",
    "version": 1
  }
}