{
  "contractName": "Escrow",
  "abi": [
    {
      "inputs": [
        {
          "internalType": "contract DigitalTwin",
          "name": "_digitaltwin",
          "type": "address"
        },
        {
          "internalType": "address",
          "name": "_buyer_address",
          "type": "address"
        },
        {
          "internalType": "address",
          "name": "_seller_address",
          "type": "address"
        }
      ],
      "stateMutability": "nonpayable",
      "type": "constructor"
    },
    {
      "anonymous": false,
      "inputs": [
        {
          "indexed": false,
          "internalType": "string",
          "name": "tkname",
          "type": "string"
        },
        {
          "indexed": false,
          "internalType": "uint256",
          "name": "price",
          "type": "uint256"
        }
      ],
      "name": "DepositTaken",
      "type": "event"
    },
    {
      "anonymous": false,
      "inputs": [
        {
          "indexed": true,
          "internalType": "address",
          "name": "previousOwner",
          "type": "address"
        },
        {
          "indexed": true,
          "internalType": "address",
          "name": "newOwner",
          "type": "address"
        }
      ],
      "name": "OwnershipTransferred",
      "type": "event"
    },
    {
      "inputs": [],
      "name": "digitaltwin",
      "outputs": [
        {
          "internalType": "contract DigitalTwin",
          "name": "",
          "type": "address"
        }
      ],
      "stateMutability": "view",
      "type": "function"
    },
    {
      "inputs": [],
      "name": "fee",
      "outputs": [
        {
          "internalType": "uint256",
          "name": "",
          "type": "uint256"
        }
      ],
      "stateMutability": "view",
      "type": "function"
    },
    {
      "inputs": [],
      "name": "initial_payment",
      "outputs": [
        {
          "internalType": "uint256",
          "name": "",
          "type": "uint256"
        }
      ],
      "stateMutability": "view",
      "type": "function"
    },
    {
      "inputs": [],
      "name": "owner",
      "outputs": [
        {
          "internalType": "address",
          "name": "",
          "type": "address"
        }
      ],
      "stateMutability": "view",
      "type": "function"
    },
    {
      "inputs": [
        {
          "internalType": "string",
          "name": "",
          "type": "string"
        }
      ],
      "name": "productExists",
      "outputs": [
        {
          "internalType": "bool",
          "name": "",
          "type": "bool"
        }
      ],
      "stateMutability": "view",
      "type": "function"
    },
    {
      "inputs": [],
      "name": "remaining_payment",
      "outputs": [
        {
          "internalType": "uint256",
          "name": "",
          "type": "uint256"
        }
      ],
      "stateMutability": "view",
      "type": "function"
    },
    {
      "inputs": [],
      "name": "renounceOwnership",
      "outputs": [],
      "stateMutability": "nonpayable",
      "type": "function"
    },
    {
      "inputs": [
        {
          "internalType": "string",
          "name": "",
          "type": "string"
        }
      ],
      "name": "stock",
      "outputs": [
        {
          "internalType": "uint256",
          "name": "price",
          "type": "uint256"
        },
        {
          "internalType": "enum Escrow.EscrowState",
          "name": "state",
          "type": "uint8"
        },
        {
          "internalType": "uint256",
          "name": "timeout",
          "type": "uint256"
        }
      ],
      "stateMutability": "view",
      "type": "function"
    },
    {
      "inputs": [
        {
          "internalType": "address",
          "name": "newOwner",
          "type": "address"
        }
      ],
      "name": "transferOwnership",
      "outputs": [],
      "stateMutability": "nonpayable",
      "type": "function"
    },
    {
      "inputs": [
        {
          "internalType": "string",
          "name": "_tkname",
          "type": "string"
        },
        {
          "internalType": "uint256",
          "name": "_price",
          "type": "uint256"
        }
      ],
      "name": "offer",
      "outputs": [],
      "stateMutability": "nonpayable",
      "type": "function"
    },
    {
      "inputs": [
        {
          "internalType": "string",
          "name": "_tkname",
          "type": "string"
        }
      ],
      "name": "BuyerDeposit",
      "outputs": [],
      "stateMutability": "payable",
      "type": "function"
    },
    {
      "inputs": [
        {
          "internalType": "string",
          "name": "_tkname",
          "type": "string"
        }
      ],
      "name": "VerifyProduct",
      "outputs": [
        {
          "internalType": "bool",
          "name": "",
          "type": "bool"
        }
      ],
      "stateMutability": "view",
      "type": "function"
    },
    {
      "inputs": [
        {
          "internalType": "string",
          "name": "_tkname",
          "type": "string"
        }
      ],
      "name": "AgentApprove",
      "outputs": [],
      "stateMutability": "nonpayable",
      "type": "function"
    },
    {
      "inputs": [
        {
          "internalType": "string",
          "name": "_tkname",
          "type": "string"
        }
      ],
      "name": "AgentDeny",
      "outputs": [],
      "stateMutability": "nonpayable",
      "type": "function"
    },
    {
      "inputs": [],
      "name": "GetUsers",
      "outputs": [
        {
          "internalType": "address",
          "name": "",
          "type": "address"
        },
        {
          "internalType": "address",
          "name": "",
          "type": "address"
        },
        {
          "internalType": "address",
          "name": "",
          "type": "address"
        }
      ],
      "stateMutability": "view",
      "type": "function"
    },
    {
      "inputs": [
        {
          "internalType": "string",
          "name": "_tkname",
          "type": "string"
        }
      ],
      "name": "QueryProduct",
      "outputs": [
        {
          "internalType": "uint256",
          "name": "",
          "type": "uint256"
        },
        {
          "internalType": "enum Escrow.EscrowState",
          "name": "",
          "type": "uint8"
        },
        {
          "internalType": "bool",
          "name": "",
          "type": "bool"
        }
      ],
      "stateMutability": "view",
      "type": "function"
    },
    {
      "inputs": [
        {
          "internalType": "address",
          "name": "addr",
          "type": "address"
        }
      ],
      "name": "GetBalance",
      "outputs": [
        {
          "internalType": "uint256",
          "name": "",
          "type": "uint256"
        }
      ],
      "stateMutability": "view",
      "type": "function"
    }
  ],
  "bytecode": "0x60806040523480156200001157600080fd5b506040516200304b3803806200304b833981810160405281019062000037919062000397565b620000576200004b6200029d60201b60201c565b620002a560201b60201c565b82600b60006101000a81548173ffffffffffffffffffffffffffffffffffffffff021916908373ffffffffffffffffffffffffffffffffffffffff16021790555033600160006101000a81548173ffffffffffffffffffffffffffffffffffffffff021916908373ffffffffffffffffffffffffffffffffffffffff16021790555081600260006101000a81548173ffffffffffffffffffffffffffffffffffffffff021916908373ffffffffffffffffffffffffffffffffffffffff16021790555080600360006101000a81548173ffffffffffffffffffffffffffffffffffffffff021916908373ffffffffffffffffffffffffffffffffffffffff160217905550600160009054906101000a900473ffffffffffffffffffffffffffffffffffffffff16600460006101000a81548173ffffffffffffffffffffffffffffffffffffffff021916908373ffffffffffffffffffffffffffffffffffffffff160217905550600260009054906101000a900473ffffffffffffffffffffffffffffffffffffffff16600560006101000a81548173ffffffffffffffffffffffffffffffffffffffff021916908373ffffffffffffffffffffffffffffffffffffffff160217905550600360009054906101000a900473ffffffffffffffffffffffffffffffffffffffff16600660006101000a81548173ffffffffffffffffffffffffffffffffffffffff021916908373ffffffffffffffffffffffffffffffffffffffff1602179055506064600781905550603c600a8190555050505062000474565b600033905090565b60008060009054906101000a900473ffffffffffffffffffffffffffffffffffffffff169050816000806101000a81548173ffffffffffffffffffffffffffffffffffffffff021916908373ffffffffffffffffffffffffffffffffffffffff1602179055508173ffffffffffffffffffffffffffffffffffffffff168173ffffffffffffffffffffffffffffffffffffffff167f8be0079c531659141344cd1fd0a4f28419497f9722a3daafe3b4186f6b6457e060405160405180910390a35050565b6000815190506200037a8162000440565b92915050565b60008151905062000391816200045a565b92915050565b600080600060608486031215620003b357620003b26200043b565b5b6000620003c38682870162000380565b9350506020620003d68682870162000369565b9250506040620003e98682870162000369565b9150509250925092565b600062000400826200041b565b9050919050565b60006200041482620003f3565b9050919050565b600073ffffffffffffffffffffffffffffffffffffffff82169050919050565b600080fd5b6200044b81620003f3565b81146200045757600080fd5b50565b620004658162000407565b81146200047157600080fd5b50565b612bc780620004846000396000f3fe6080604052600436106100fe5760003560e01c8063a8f5ecb711610095578063da3eec1911610064578063da3eec1914610316578063ddca3f4314610343578063f2fde38b1461036e578063f8c3540b14610397578063fd9908e3146103d4576100fe565b8063a8f5ecb71461027b578063bc9d30c7146102a6578063c2d92ee2146102cf578063c8e2fa8d146102eb576100fe565b806386dc434b116100d157806386dc434b146101a95780638addc051146101d45780638da5cb5b14610211578063a00cbd5b1461023c576100fe565b8063112a6a3d1461010357806343e2e5041461012c578063715018a61461016957806384fe428514610180575b600080fd5b34801561010f57600080fd5b5061012a60048036038101906101259190611c0f565b610413565b005b34801561013857600080fd5b50610153600480360381019061014e9190611bb5565b61080b565b604051610160919061234e565b60405180910390f35b34801561017557600080fd5b5061017e61082c565b005b34801561018c57600080fd5b506101a760048036038101906101a29190611c0f565b610840565b005b3480156101b557600080fd5b506101be610bf0565b6040516101cb91906120d1565b60405180910390f35b3480156101e057600080fd5b506101fb60048036038101906101f69190611c0f565b610c16565b60405161020891906120b6565b60405180910390f35b34801561021d57600080fd5b50610226610c4c565b6040516102339190612064565b60405180910390f35b34801561024857600080fd5b50610263600480360381019061025e9190611c0f565b610c75565b60405161027293929190612369565b60405180910390f35b34801561028757600080fd5b50610290610d54565b60405161029d919061234e565b60405180910390f35b3480156102b257600080fd5b506102cd60048036038101906102c89190611c58565b610d5a565b005b6102e960048036038101906102e49190611c0f565b611046565b005b3480156102f757600080fd5b50610300611579565b60405161030d919061234e565b60405180910390f35b34801561032257600080fd5b5061032b61157f565b60405161033a9392919061207f565b60405180910390f35b34801561034f57600080fd5b50610358611652565b604051610365919061234e565b60405180910390f35b34801561037a57600080fd5b5061039560048036038101906103909190611bb5565b611658565b005b3480156103a357600080fd5b506103be60048036038101906103b99190611c0f565b6116dc565b6040516103cb91906120b6565b60405180910390f35b3480156103e057600080fd5b506103fb60048036038101906103f69190611c0f565b611876565b60405161040a939291906123a0565b60405180910390f35b600660009054906101000a900473ffffffffffffffffffffffffffffffffffffffff16600073ffffffffffffffffffffffffffffffffffffffff168173ffffffffffffffffffffffffffffffffffffffff1614156104a6576040517f08c379a000000000000000000000000000000000000000000000000000000000815260040161049d9061220e565b60405180910390fd5b3073ffffffffffffffffffffffffffffffffffffffff168173ffffffffffffffffffffffffffffffffffffffff161415610515576040517f08c379a000000000000000000000000000000000000000000000000000000000815260040161050c9061230e565b60405180910390fd5b81600d816040516105269190612038565b908152602001604051809103902060009054906101000a900460ff16610581576040517f08c379a0000000000000000000000000000000000000000000000000000000008152600401610578906121ae565b60405180910390fd5b600460009054906101000a900473ffffffffffffffffffffffffffffffffffffffff1673ffffffffffffffffffffffffffffffffffffffff163373ffffffffffffffffffffffffffffffffffffffff1614610611576040517f08c379a00000000000000000000000000000000000000000000000000000000081526004016106089061224e565b60405180910390fd5b6001600381111561062557610624612683565b5b600c846040516106359190612038565b908152602001604051809103902060010160009054906101000a900460ff16600381111561066657610665612683565b5b146106a6576040517f08c379a000000000000000000000000000000000000000000000000000000000815260040161069d9061218e565b60405180910390fd5b6106af836116dc565b6106ee576040517f08c379a00000000000000000000000000000000000000000000000000000000081526004016106e5906122ae565b60405180910390fd5b600c836040516106fe9190612038565b9081526020016040518091039020600201544210610751576040517f08c379a00000000000000000000000000000000000000000000000000000000081526004016107489061226e565b60405180910390fd5b600660009054906101000a900473ffffffffffffffffffffffffffffffffffffffff1673ffffffffffffffffffffffffffffffffffffffff166108fc6009549081150290604051600060405180830381858888f193505050501580156107bb573d6000803e3d6000fd5b506002600c846040516107ce9190612038565b908152602001604051809103902060010160006101000a81548160ff0219169083600381111561080157610800612683565b5b0217905550505050565b60008173ffffffffffffffffffffffffffffffffffffffff16319050919050565b6108346118c3565b61083e6000611941565b565b600560009054906101000a900473ffffffffffffffffffffffffffffffffffffffff16600073ffffffffffffffffffffffffffffffffffffffff168173ffffffffffffffffffffffffffffffffffffffff1614156108d3576040517f08c379a00000000000000000000000000000000000000000000000000000000081526004016108ca9061220e565b60405180910390fd5b3073ffffffffffffffffffffffffffffffffffffffff168173ffffffffffffffffffffffffffffffffffffffff161415610942576040517f08c379a00000000000000000000000000000000000000000000000000000000081526004016109399061230e565b60405180910390fd5b81600d816040516109539190612038565b908152602001604051809103902060009054906101000a900460ff166109ae576040517f08c379a00000000000000000000000000000000000000000000000000000000081526004016109a5906121ae565b60405180910390fd5b600460009054906101000a900473ffffffffffffffffffffffffffffffffffffffff1673ffffffffffffffffffffffffffffffffffffffff163373ffffffffffffffffffffffffffffffffffffffff1614610a3e576040517f08c379a0000000000000000000000000000000000000000000000000000000008152600401610a35906121ee565b60405180910390fd5b60016003811115610a5257610a51612683565b5b600c84604051610a629190612038565b908152602001604051809103902060010160009054906101000a900460ff166003811115610a9357610a92612683565b5b14610ad3576040517f08c379a0000000000000000000000000000000000000000000000000000000008152600401610aca9061218e565b60405180910390fd5b600c83604051610ae39190612038565b9081526020016040518091039020600201544211610b36576040517f08c379a0000000000000000000000000000000000000000000000000000000008152600401610b2d906122ce565b60405180910390fd5b600560009054906101000a900473ffffffffffffffffffffffffffffffffffffffff1673ffffffffffffffffffffffffffffffffffffffff166108fc6009549081150290604051600060405180830381858888f19350505050158015610ba0573d6000803e3d6000fd5b506003600c84604051610bb39190612038565b908152602001604051809103902060010160006101000a81548160ff02191690836003811115610be657610be5612683565b5b0217905550505050565b600b60009054906101000a900473ffffffffffffffffffffffffffffffffffffffff1681565b600d818051602081018201805184825260208301602085012081835280955050505050506000915054906101000a900460ff1681565b60008060009054906101000a900473ffffffffffffffffffffffffffffffffffffffff16905090565b600080600083600d81604051610c8b9190612038565b908152602001604051809103902060009054906101000a900460ff16610ce6576040517f08c379a0000000000000000000000000000000000000000000000000000000008152600401610cdd906121ae565b60405180910390fd5b6000610cf1866116dc565b9050600c86604051610d039190612038565b908152602001604051809103902060000154600c87604051610d259190612038565b908152602001604051809103902060010160009054906101000a900460ff168294509450945050509193909250565b60085481565b600d82604051610d6a9190612038565b908152602001604051809103902060009054906101000a900460ff1615610dc6576040517f08c379a0000000000000000000000000000000000000000000000000000000008152600401610dbd906121ce565b60405180910390fd5b600b60009054906101000a900473ffffffffffffffffffffffffffffffffffffffff1673ffffffffffffffffffffffffffffffffffffffff16630ad5b505836040518263ffffffff1660e01b8152600401610e2191906120ec565b60206040518083038186803b158015610e3957600080fd5b505afa158015610e4d573d6000803e3d6000fd5b505050506040513d601f19601f82011682018060405250810190610e719190611be2565b610eb0576040517f08c379a0000000000000000000000000000000000000000000000000000000008152600401610ea79061222e565b60405180910390fd5b610eb8611a39565b81816000018181525050600081602001906003811115610edb57610eda612683565b5b90816003811115610eef57610eee612683565b5b8152505080600c84604051610f049190612038565b90815260200160405180910390206000820151816000015560208201518160010160006101000a81548160ff02191690836003811115610f4757610f46612683565b5b0217905550604082015181600201559050506001600d84604051610f6b9190612038565b908152602001604051809103902060006101000a81548160ff021916908315150217905550600b60009054906101000a900473ffffffffffffffffffffffffffffffffffffffff1673ffffffffffffffffffffffffffffffffffffffff16630d202ced84600160009054906101000a900473ffffffffffffffffffffffffffffffffffffffff166040518363ffffffff1660e01b815260040161100f92919061210e565b600060405180830381600087803b15801561102957600080fd5b505af115801561103d573d6000803e3d6000fd5b50505050505050565b600460009054906101000a900473ffffffffffffffffffffffffffffffffffffffff16600073ffffffffffffffffffffffffffffffffffffffff168173ffffffffffffffffffffffffffffffffffffffff1614156110d9576040517f08c379a00000000000000000000000000000000000000000000000000000000081526004016110d09061220e565b60405180910390fd5b3073ffffffffffffffffffffffffffffffffffffffff168173ffffffffffffffffffffffffffffffffffffffff161415611148576040517f08c379a000000000000000000000000000000000000000000000000000000000815260040161113f9061230e565b60405180910390fd5b600660009054906101000a900473ffffffffffffffffffffffffffffffffffffffff16600073ffffffffffffffffffffffffffffffffffffffff168173ffffffffffffffffffffffffffffffffffffffff1614156111db576040517f08c379a00000000000000000000000000000000000000000000000000000000081526004016111d29061220e565b60405180910390fd5b3073ffffffffffffffffffffffffffffffffffffffff168173ffffffffffffffffffffffffffffffffffffffff16141561124a576040517f08c379a00000000000000000000000000000000000000000000000000000000081526004016112419061230e565b60405180910390fd5b600c8360405161125a9190612038565b9081526020016040518091039020600001546007546112799190612454565b3410156112bb576040517f08c379a00000000000000000000000000000000000000000000000000000000081526004016112b2906122ee565b60405180910390fd5b600060038111156112cf576112ce612683565b5b600c846040516112df9190612038565b908152602001604051809103902060010160009054906101000a900460ff1660038111156113105761130f612683565b5b14611350576040517f08c379a00000000000000000000000000000000000000000000000000000000081526004016113479061232e565b60405180910390fd5b6001600c846040516113629190612038565b908152602001604051809103902060010160006101000a81548160ff0219169083600381111561139557611394612683565b5b0217905550600a54426113a89190612454565b600c846040516113b89190612038565b908152602001604051809103902060020181905550611402600a600c856040516113e29190612038565b908152602001604051809103902060000154611a0590919063ffffffff16565b60088190555061143e600854600c8560405161141e9190612038565b908152602001604051809103902060000154611a1b90919063ffffffff16565b600981905550600460009054906101000a900473ffffffffffffffffffffffffffffffffffffffff1673ffffffffffffffffffffffffffffffffffffffff166108fc6007549081150290604051600060405180830381858888f193505050501580156114ae573d6000803e3d6000fd5b50600660009054906101000a900473ffffffffffffffffffffffffffffffffffffffff1673ffffffffffffffffffffffffffffffffffffffff166108fc6008549081150290604051600060405180830381858888f19350505050158015611519573d6000803e3d6000fd5b507f6b4150c430f0b9b9df0f255d6761fd17eefed34257973ab988203c832edbcc2383600c8560405161154c9190612038565b90815260200160405180910390206000015460405161156c92919061213e565b60405180910390a1505050565b60095481565b6000806000600460009054906101000a900473ffffffffffffffffffffffffffffffffffffffff1673ffffffffffffffffffffffffffffffffffffffff163373ffffffffffffffffffffffffffffffffffffffff16146115de57600080fd5b600460009054906101000a900473ffffffffffffffffffffffffffffffffffffffff16600560009054906101000a900473ffffffffffffffffffffffffffffffffffffffff16600660009054906101000a900473ffffffffffffffffffffffffffffffffffffffff16925092509250909192565b60075481565b6116606118c3565b600073ffffffffffffffffffffffffffffffffffffffff168173ffffffffffffffffffffffffffffffffffffffff1614156116d0576040517f08c379a00000000000000000000000000000000000000000000000000000000081526004016116c79061216e565b60405180910390fd5b6116d981611941565b50565b600081600d816040516116ef9190612038565b908152602001604051809103902060009054906101000a900460ff1661174a576040517f08c379a0000000000000000000000000000000000000000000000000000000008152600401611741906121ae565b60405180910390fd5b600080600080600b60009054906101000a900473ffffffffffffffffffffffffffffffffffffffff1673ffffffffffffffffffffffffffffffffffffffff1663c5573d46886040518263ffffffff1660e01b81526004016117ab91906120ec565b60006040518083038186803b1580156117c357600080fd5b505afa1580156117d7573d6000803e3d6000fd5b505050506040513d6000823e3d601f19601f820116820180604052508101906118009190611cb4565b93509350935093506040516020016118179061204f565b604051602081830303815290604052805190602001208260405160200161183e9190612038565b604051602081830303815290604052805190602001201415611867576001955050505050611870565b60009550505050505b50919050565b600c818051602081018201805184825260208301602085012081835280955050505050506000915090508060000154908060010160009054906101000a900460ff16908060020154905083565b6118cb611a31565b73ffffffffffffffffffffffffffffffffffffffff166118e9610c4c565b73ffffffffffffffffffffffffffffffffffffffff161461193f576040517f08c379a00000000000000000000000000000000000000000000000000000000081526004016119369061228e565b60405180910390fd5b565b60008060009054906101000a900473ffffffffffffffffffffffffffffffffffffffff169050816000806101000a81548173ffffffffffffffffffffffffffffffffffffffff021916908373ffffffffffffffffffffffffffffffffffffffff1602179055508173ffffffffffffffffffffffffffffffffffffffff168173ffffffffffffffffffffffffffffffffffffffff167f8be0079c531659141344cd1fd0a4f28419497f9722a3daafe3b4186f6b6457e060405160405180910390a35050565b60008183611a1391906124aa565b905092915050565b60008183611a2991906124db565b905092915050565b600033905090565b60405180606001604052806000815260200160006003811115611a5f57611a5e612683565b5b8152602001600081525090565b6000611a7f611a7a846123fc565b6123d7565b905082815260208101848484011115611a9b57611a9a6126e6565b5b611aa68482856125b2565b509392505050565b6000611ac1611abc846123fc565b6123d7565b905082815260208101848484011115611add57611adc6126e6565b5b611ae88482856125c1565b509392505050565b600081359050611aff81612b4c565b92915050565b600081519050611b1481612b4c565b92915050565b600081519050611b2981612b63565b92915050565b600082601f830112611b4457611b436126e1565b5b8135611b54848260208601611a6c565b91505092915050565b600082601f830112611b7257611b716126e1565b5b8151611b82848260208601611aae565b91505092915050565b600081359050611b9a81612b7a565b92915050565b600081519050611baf81612b7a565b92915050565b600060208284031215611bcb57611bca6126f0565b5b6000611bd984828501611af0565b91505092915050565b600060208284031215611bf857611bf76126f0565b5b6000611c0684828501611b1a565b91505092915050565b600060208284031215611c2557611c246126f0565b5b600082013567ffffffffffffffff811115611c4357611c426126eb565b5b611c4f84828501611b2f565b91505092915050565b60008060408385031215611c6f57611c6e6126f0565b5b600083013567ffffffffffffffff811115611c8d57611c8c6126eb565b5b611c9985828601611b2f565b9250506020611caa85828601611b8b565b9150509250929050565b60008060008060808587031215611cce57611ccd6126f0565b5b6000611cdc87828801611ba0565b945050602085015167ffffffffffffffff811115611cfd57611cfc6126eb565b5b611d0987828801611b5d565b935050604085015167ffffffffffffffff811115611d2a57611d296126eb565b5b611d3687828801611b5d565b9250506060611d4787828801611b05565b91505092959194509250565b611d5c8161250f565b82525050565b611d6b81612521565b82525050565b611d7a8161256a565b82525050565b611d898161257c565b82525050565b6000611d9a8261242d565b611da48185612438565b9350611db48185602086016125c1565b611dbd816126f5565b840191505092915050565b6000611dd38261242d565b611ddd8185612449565b9350611ded8185602086016125c1565b80840191505092915050565b6000611e06602683612438565b9150611e1182612706565b604082019050919050565b6000611e29600883612449565b9150611e3482612755565b600882019050919050565b6000611e4c602283612438565b9150611e578261277e565b604082019050919050565b6000611e6f601783612438565b9150611e7a826127cd565b602082019050919050565b6000611e92601b83612438565b9150611e9d826127f6565b602082019050919050565b6000611eb5602883612438565b9150611ec08261281f565b604082019050919050565b6000611ed8602683612438565b9150611ee38261286e565b604082019050919050565b6000611efb601c83612438565b9150611f06826128bd565b602082019050919050565b6000611f1e602883612438565b9150611f29826128e6565b604082019050919050565b6000611f41603483612438565b9150611f4c82612935565b604082019050919050565b6000611f64602083612438565b9150611f6f82612984565b602082019050919050565b6000611f87603383612438565b9150611f92826129ad565b604082019050919050565b6000611faa603c83612438565b9150611fb5826129fc565b604082019050919050565b6000611fcd604a83612438565b9150611fd882612a4b565b606082019050919050565b6000611ff0602583612438565b9150611ffb82612ac0565b604082019050919050565b6000612013601883612438565b915061201e82612b0f565b602082019050919050565b61203281612560565b82525050565b60006120448284611dc8565b915081905092915050565b600061205a82611e1c565b9150819050919050565b60006020820190506120796000830184611d53565b92915050565b60006060820190506120946000830186611d53565b6120a16020830185611d53565b6120ae6040830184611d53565b949350505050565b60006020820190506120cb6000830184611d62565b92915050565b60006020820190506120e66000830184611d71565b92915050565b600060208201905081810360008301526121068184611d8f565b905092915050565b600060408201905081810360008301526121288185611d8f565b90506121376020830184611d53565b9392505050565b600060408201905081810360008301526121588185611d8f565b90506121676020830184612029565b9392505050565b6000602082019050818103600083015261218781611df9565b9050919050565b600060208201905081810360008301526121a781611e3f565b9050919050565b600060208201905081810360008301526121c781611e62565b9050919050565b600060208201905081810360008301526121e781611e85565b9050919050565b6000602082019050818103600083015261220781611ea8565b9050919050565b6000602082019050818103600083015261222781611ecb565b9050919050565b6000602082019050818103600083015261224781611eee565b9050919050565b6000602082019050818103600083015261226781611f11565b9050919050565b6000602082019050818103600083015261228781611f34565b9050919050565b600060208201905081810360008301526122a781611f57565b9050919050565b600060208201905081810360008301526122c781611f7a565b9050919050565b600060208201905081810360008301526122e781611f9d565b9050919050565b6000602082019050818103600083015261230781611fc0565b9050919050565b6000602082019050818103600083015261232781611fe3565b9050919050565b6000602082019050818103600083015261234781612006565b9050919050565b60006020820190506123636000830184612029565b92915050565b600060608201905061237e6000830186612029565b61238b6020830185611d80565b6123986040830184611d62565b949350505050565b60006060820190506123b56000830186612029565b6123c26020830185611d80565b6123cf6040830184612029565b949350505050565b60006123e16123f2565b90506123ed82826125f4565b919050565b6000604051905090565b600067ffffffffffffffff821115612417576124166126b2565b5b612420826126f5565b9050602081019050919050565b600081519050919050565b600082825260208201905092915050565b600081905092915050565b600061245f82612560565b915061246a83612560565b9250827fffffffffffffffffffffffffffffffffffffffffffffffffffffffffffffffff0382111561249f5761249e612625565b5b828201905092915050565b60006124b582612560565b91506124c083612560565b9250826124d0576124cf612654565b5b828204905092915050565b60006124e682612560565b91506124f183612560565b92508282101561250457612503612625565b5b828203905092915050565b600061251a82612540565b9050919050565b60008115159050919050565b600081905061253b82612b38565b919050565b600073ffffffffffffffffffffffffffffffffffffffff82169050919050565b6000819050919050565b60006125758261258e565b9050919050565b60006125878261252d565b9050919050565b6000612599826125a0565b9050919050565b60006125ab82612540565b9050919050565b82818337600083830152505050565b60005b838110156125df5780820151818401526020810190506125c4565b838111156125ee576000848401525b50505050565b6125fd826126f5565b810181811067ffffffffffffffff8211171561261c5761261b6126b2565b5b80604052505050565b7f4e487b7100000000000000000000000000000000000000000000000000000000600052601160045260246000fd5b7f4e487b7100000000000000000000000000000000000000000000000000000000600052601260045260246000fd5b7f4e487b7100000000000000000000000000000000000000000000000000000000600052602160045260246000fd5b7f4e487b7100000000000000000000000000000000000000000000000000000000600052604160045260246000fd5b600080fd5b600080fd5b600080fd5b600080fd5b6000601f19601f8301169050919050565b7f4f776e61626c653a206e6577206f776e657220697320746865207a65726f206160008201527f6464726573730000000000000000000000000000000000000000000000000000602082015250565b7f7665726966696564000000000000000000000000000000000000000000000000600082015250565b7f4e6f206465706f73697420666f756e6420666f7220746869732070726f64756360008201527f742e000000000000000000000000000000000000000000000000000000000000602082015250565b7f50726f6475637420646f6573206e6f742065786973742e000000000000000000600082015250565b7f50726f6475637420697320616c7265616479206f6666657265642e0000000000600082015250565b7f4f6e6c79206167656e742063616e2063616c6c2074686520726566756e64206660008201527f756e6374696f6e2e000000000000000000000000000000000000000000000000602082015250565b7f526563697069656e742073686f756c64206861766520612076616c696420616460008201527f6472657373210000000000000000000000000000000000000000000000000000602082015250565b7f50726f6475637420746f6b656e206973206e6f74206d696e7465642e00000000600082015250565b7f4f6e6c79206167656e742063616e2063616c6c207468652072656465656d206660008201527f756e6374696f6e2e000000000000000000000000000000000000000000000000602082015250565b7f53656c6c65722063616e206f6e6c792072656465656d206265666f726520746860008201527f65207370656369666965642074696d656f75742e000000000000000000000000602082015250565b7f4f776e61626c653a2063616c6c6572206973206e6f7420746865206f776e6572600082015250565b7f53656c6c65722063616e6e6f742072656465656d207061796d656e74206f662060008201527f756e76657269666965642070726f647563742e00000000000000000000000000602082015250565b7f42757965722063616e206f6e6c7920636c61696d2074686520726566756e642060008201527f616674657220746865207370656369666965642074696d656f75742e00000000602082015250565b7f506c65617365206d616b65207375726520796f7572206465706f73697420636f60008201527f7665727320626f7468207468652070726f6475637420707269636520616e642060208201527f6167656e74206665652100000000000000000000000000000000000000000000604082015250565b7f526563697069656e742073686f756c64206e6f742062652074686520636f6e7460008201527f7261637421000000000000000000000000000000000000000000000000000000602082015250565b7f50726f64756374206973206e6f74206f6e206f66666572210000000000000000600082015250565b60048110612b4957612b48612683565b5b50565b612b558161250f565b8114612b6057600080fd5b50565b612b6c81612521565b8114612b7757600080fd5b50565b612b8381612560565b8114612b8e57600080fd5b5056fea264697066735822122055b88f2e30e6a6aae46be99b23a20fd3939dc77ba514553e45c46a2242f2e32a64736f6c63430008070033",
  "immutableReferences": {},
  "source": "// SPDX-License-Identifier: UNLICENSED\npragma solidity ^0.8.0;\n\nimport \"../node_modules/@openzeppelin/contracts/utils/math/SafeMath.sol\";\nimport \"../node_modules/@openzeppelin/contracts/access/Ownable.sol\";\nimport \"./DigitalTwin.sol\";\n\n/**\n * @title EscrowService Contract, forked from https://github.com/AleRapchan/escrow-service\n * @author Yining Hu\n * @notice Building a single role access control Escrow Service using OpenZeppelin Escrow and RBAC\n * @dev contract currently assume one buyer account and one seller account, should develop an additional wallet contract and allow new user registration\n * @dev To do: to implement multi-sig, time-based escrow\n * @dev To do: to add a product existence modifier, and a role modifier\n * @dev To do: the easiest would be to transfer both money and ownership of the product to the agent \n * @dev then to prevent agent from taking everything, agent needs to deposit, which can be slashed if caught faulty\n */\ncontract Escrow is Ownable { //Ownable, \n\n    /**\n     * @dev Roles are referred to by their bytes32 identifier. \n     * @dev These should be exposed in the external API and be unique.\n     */\n\n    address agentaddr;\n    address buyeraddr;\n    address selleraddr;\n\n    address payable agent;\n    address payable buyer;\n    address payable seller;\n    \n    uint256 public fee;\n    uint256 public initial_payment;\n    uint256 public remaining_payment;\n\n    uint256 timeout;\n\n    using SafeMath for uint256;\n\n    DigitalTwin public digitaltwin;\n    \n    enum EscrowState { OFFERED, DEPOSITTAKEN, SELLERREDEEMED, BUYERDENIED } //PAYMENTSUCCESSFUL, PAYMENTREVERTED\n\n    struct Product{\n        uint256 price;\n        EscrowState state;\n        uint256 timeout; // timeout for payment settlement\n    }\n\n    mapping (string => Product) public stock; // whole stock of offered items for sell in escrow arragement\n    mapping(string => bool) public productExists;\n    mapping(address => bool) signed; // to collect signatures for multi-sig\n\n    event DepositTaken(string tkname, uint256 price);\n\n    /**\n     * @dev before setting up any user wallet, all buyers/sellers use a single buyer/seller address, which are maintained by Beston.\n     */\n    constructor(DigitalTwin _digitaltwin, address _buyer_address, address _seller_address) {\n        digitaltwin = _digitaltwin;\n\n        agentaddr = msg.sender; // agent is the creator of the contract\n        buyeraddr = _buyer_address;\n        selleraddr = _seller_address;\n\n        agent = payable(agentaddr);\n        buyer = payable(buyeraddr);\n        seller= payable(selleraddr);\n        fee = 100;\n\n        timeout = 1 minutes;\n    }\n\n    modifier validDestination(address to) {\n        require(to != address(0x0), \"Recipient should have a valid address!\");\n        require(to != address(this), \"Recipient should not be the contract!\");\n        _;\n    }\n\n    modifier validProduct(string memory _tkname) {\n        require(productExists[_tkname], \"Product does not exist.\");\n        _;\n    }\n\n    function offer(string memory _tkname , uint256 _price) public {\n        require(!productExists[_tkname], \"Product is already offered.\");\n        require(digitaltwin.tkExists(_tkname), \"Product token is not minted.\");\n        // should also require the caller to be the owner of the product\n\n        Product memory product;\n        product.price = _price; /// @dev double check the conversion in Polygon\n        product.state = EscrowState.OFFERED;\n        stock[_tkname] = product;\n        productExists[_tkname] = true;\n\n        // transfer the token ownership to the agent\n        digitaltwin.transferByName(_tkname,agentaddr);\n    }\n\n    // sign() should be used together with a deal() function, for buyer and seller to agree on a deal\n    // function sign() public {\n    //     require (msg.sender == buyer || msg.sender == seller);\n    //     require (!signed[msg.sender]);\n    //     signed[msg.sender] = true;\n    // }\n    \n    /**\n     * @notice Buyer can make a deposit to products on offer\n     * @dev Partial payment is sent to the seller, however, can change depending on the agreement\n     */\n    function BuyerDeposit(string memory _tkname) external payable validDestination(agent) validDestination(seller) {\n        require (msg.value >= fee + stock[_tkname].price, \"Please make sure your deposit covers both the product price and agent fee!\");\n        require (stock[_tkname].state == EscrowState.OFFERED , \"Product is not on offer!\"); // this also blocks buyer from making duplicatd deposit\n\n        stock[_tkname].state = EscrowState.DEPOSITTAKEN;\n        stock[_tkname].timeout = block.timestamp + timeout; // add a timeout for settlement when buyer sends deposit\n\n        initial_payment = stock[_tkname].price.div(10); // initial payment set to be 10% of the total price\n        remaining_payment = stock[_tkname].price.sub(initial_payment);\n\n        agent.transfer(fee);\n        seller.transfer(initial_payment);\n\n        emit DepositTaken(_tkname, stock[_tkname].price);\n    }\n\n    function VerifyProduct(string memory _tkname) public view validProduct(_tkname) returns (bool) {\n        (uint256 id, string memory metadata, string memory vstatus, address addr) = digitaltwin.queryToken(_tkname);\n        if (keccak256(abi.encodePacked(vstatus)) == keccak256(abi.encodePacked(\"verified\"))) {\n            return true;\n        } else {\n            return false;\n        }\n    }\n\n    /**\n     * @notice Buyer can approve the payment with or without verification\n     * @dev when implementing the api and front end, buyer should have the option to proceed without or with verification\n     */ \n    // function BuyerApprove(string memory _tkname) public validDestination(seller) validProduct(_tkname) {\n    //     require (msg.sender == buyer);\n    //     require (stock[_tkname].state == EscrowState.DEPOSITTAKEN, \"Buyer cannot approve without a deposit!\");\n    //     require (block.timestamp < stock[_tkname].timeout);\n    //     seller.transfer(remaining_payment);\n    //     stock[_tkname].state = EscrowState.BUYERAPPROVED;\n    // }\n\n    /**\n     * @notice Seller can redeem with verification\n     * Achieves the same payment result as BuyerApprove, but requires seller to pay for execution\n     */\n    function AgentApprove(string memory _tkname) public validDestination(seller) validProduct(_tkname) {\n        // require (msg.sender == seller, \"Only seller can call the redeem function.\");\n        require (msg.sender == agent, \"Only agent can call the redeem function.\");\n        require (stock[_tkname].state == EscrowState.DEPOSITTAKEN, \"No deposit found for this product.\");\n        require (VerifyProduct(_tkname), \"Seller cannot redeem payment of unverified product.\");\n        require (block.timestamp < stock[_tkname].timeout, \"Seller can only redeem before the specified timeout.\");\n        seller.transfer(remaining_payment);\n        stock[_tkname].state = EscrowState.SELLERREDEEMED;\n    }\n\n    /**\n     * @notice Buyer can deny the payment upon unsatisfactory verification result or for other reasons.\n     */\n    function AgentDeny(string memory _tkname) public validDestination(buyer) validProduct(_tkname) {\n        // require (msg.sender == buyer, \"Only buyer can call the deny function.\");\n        require (msg.sender == agent, \"Only agent can call the refund function.\");\n        require (stock[_tkname].state == EscrowState.DEPOSITTAKEN, \"No deposit found for this product.\");\n        require (block.timestamp > stock[_tkname].timeout, \"Buyer can only claim the refund after the specified timeout.\");\n        buyer.transfer(remaining_payment);\n        stock[_tkname].state = EscrowState.BUYERDENIED;\n    }\n\n    /**\n     * @notice getters\n     */\n    function GetUsers() public view returns(address, address, address) {\n        require (msg.sender == agent);\n        return (agent, buyer, seller);\n    }\n\n    function QueryProduct(string memory _tkname) public view validProduct(_tkname) returns(uint256, EscrowState, bool) {\n        bool vstatus = VerifyProduct(_tkname);\n        return (stock[_tkname].price, stock[_tkname].state, vstatus);\n    }\n\n    function GetBalance(address addr) public view returns(uint256) {\n        return addr.balance;\n    }\n}",
  "sourcePath": "/Users/yininghu/Documents/work/Beston/Blockchain-Server/contracts/Escrow.sol",
  "compiler": {
    "name": "solc",
    "version": "0.8.7+commit.e28d00a7.Emscripten.clang"
  },
  "schemaVersion": "3.4.1",
  "updatedAt": "2022-09-20T01:28:51.121Z",
  "devdoc": {
    "author": "Yining Hu",
    "details": "contract currently assume one buyer account and one seller account, should develop an additional wallet contract and allow new user registrationTo do: to implement multi-sig, time-based escrowTo do: to add a product existence modifier, and a role modifierTo do: the easiest would be to transfer both money and ownership of the product to the agent then to prevent agent from taking everything, agent needs to deposit, which can be slashed if caught faulty",
    "kind": "dev",
    "methods": {
      "BuyerDeposit(string)": {
        "details": "Partial payment is sent to the seller, however, can change depending on the agreement"
      },
      "constructor": {
        "details": "before setting up any user wallet, all buyers/sellers use a single buyer/seller address, which are maintained by Beston."
      },
      "owner()": {
        "details": "Returns the address of the current owner."
      },
      "renounceOwnership()": {
        "details": "Leaves the contract without owner. It will not be possible to call `onlyOwner` functions anymore. Can only be called by the current owner. NOTE: Renouncing ownership will leave the contract without an owner, thereby removing any functionality that is only available to the owner."
      },
      "transferOwnership(address)": {
        "details": "Transfers ownership of the contract to a new account (`newOwner`). Can only be called by the current owner."
      }
    },
    "stateVariables": {
      "agentaddr": {
        "details": "Roles are referred to by their bytes32 identifier. These should be exposed in the external API and be unique."
      }
    },
    "title": "EscrowService Contract, forked from https://github.com/AleRapchan/escrow-service",
    "version": 1
  },
  "userdoc": {
    "kind": "user",
    "methods": {
      "AgentApprove(string)": {
        "notice": "Seller can redeem with verification Achieves the same payment result as BuyerApprove, but requires seller to pay for execution"
      },
      "AgentDeny(string)": {
        "notice": "Buyer can deny the payment upon unsatisfactory verification result or for other reasons."
      },
      "BuyerDeposit(string)": {
        "notice": "Buyer can make a deposit to products on offer"
      },
      "GetUsers()": {
        "notice": "getters"
      }
    },
    "notice": "Building a single role access control Escrow Service using OpenZeppelin Escrow and RBAC",
    "version": 1
  }
}