{
  "contractName": "Escrow",
  "abi": [
    {
      "inputs": [
        {
          "internalType": "contract DigitalTwin",
          "name": "_digitaltwin",
          "type": "address"
        },
        {
          "internalType": "address",
          "name": "_buyer_address",
          "type": "address"
        },
        {
          "internalType": "address",
          "name": "_seller_address",
          "type": "address"
        }
      ],
      "stateMutability": "nonpayable",
      "type": "constructor"
    },
    {
      "anonymous": false,
      "inputs": [
        {
          "indexed": false,
          "internalType": "string",
          "name": "tkname",
          "type": "string"
        },
        {
          "indexed": false,
          "internalType": "uint256",
          "name": "price",
          "type": "uint256"
        }
      ],
      "name": "DepositTaken",
      "type": "event"
    },
    {
      "anonymous": false,
      "inputs": [
        {
          "indexed": true,
          "internalType": "address",
          "name": "previousOwner",
          "type": "address"
        },
        {
          "indexed": true,
          "internalType": "address",
          "name": "newOwner",
          "type": "address"
        }
      ],
      "name": "OwnershipTransferred",
      "type": "event"
    },
    {
      "inputs": [],
      "name": "digitaltwin",
      "outputs": [
        {
          "internalType": "contract DigitalTwin",
          "name": "",
          "type": "address"
        }
      ],
      "stateMutability": "view",
      "type": "function",
      "constant": true
    },
    {
      "inputs": [],
      "name": "fee",
      "outputs": [
        {
          "internalType": "uint256",
          "name": "",
          "type": "uint256"
        }
      ],
      "stateMutability": "view",
      "type": "function",
      "constant": true
    },
    {
      "inputs": [],
      "name": "initial_payment",
      "outputs": [
        {
          "internalType": "uint256",
          "name": "",
          "type": "uint256"
        }
      ],
      "stateMutability": "view",
      "type": "function",
      "constant": true
    },
    {
      "inputs": [],
      "name": "owner",
      "outputs": [
        {
          "internalType": "address",
          "name": "",
          "type": "address"
        }
      ],
      "stateMutability": "view",
      "type": "function",
      "constant": true
    },
    {
      "inputs": [
        {
          "internalType": "string",
          "name": "",
          "type": "string"
        }
      ],
      "name": "productExists",
      "outputs": [
        {
          "internalType": "bool",
          "name": "",
          "type": "bool"
        }
      ],
      "stateMutability": "view",
      "type": "function",
      "constant": true
    },
    {
      "inputs": [],
      "name": "remaining_payment",
      "outputs": [
        {
          "internalType": "uint256",
          "name": "",
          "type": "uint256"
        }
      ],
      "stateMutability": "view",
      "type": "function",
      "constant": true
    },
    {
      "inputs": [],
      "name": "renounceOwnership",
      "outputs": [],
      "stateMutability": "nonpayable",
      "type": "function"
    },
    {
      "inputs": [
        {
          "internalType": "string",
          "name": "",
          "type": "string"
        }
      ],
      "name": "stock",
      "outputs": [
        {
          "internalType": "uint256",
          "name": "price",
          "type": "uint256"
        },
        {
          "internalType": "enum Escrow.EscrowState",
          "name": "state",
          "type": "uint8"
        },
        {
          "internalType": "uint256",
          "name": "timeout",
          "type": "uint256"
        }
      ],
      "stateMutability": "view",
      "type": "function",
      "constant": true
    },
    {
      "inputs": [
        {
          "internalType": "address",
          "name": "newOwner",
          "type": "address"
        }
      ],
      "name": "transferOwnership",
      "outputs": [],
      "stateMutability": "nonpayable",
      "type": "function"
    },
    {
      "inputs": [
        {
          "internalType": "string",
          "name": "_tkname",
          "type": "string"
        },
        {
          "internalType": "uint256",
          "name": "_price",
          "type": "uint256"
        }
      ],
      "name": "offer",
      "outputs": [],
      "stateMutability": "nonpayable",
      "type": "function"
    },
    {
      "inputs": [
        {
          "internalType": "string",
          "name": "_tkname",
          "type": "string"
        }
      ],
      "name": "BuyerDeposit",
      "outputs": [],
      "stateMutability": "payable",
      "type": "function",
      "payable": true
    },
    {
      "inputs": [
        {
          "internalType": "string",
          "name": "_tkname",
          "type": "string"
        }
      ],
      "name": "VerifyProduct",
      "outputs": [
        {
          "internalType": "bool",
          "name": "",
          "type": "bool"
        }
      ],
      "stateMutability": "view",
      "type": "function",
      "constant": true
    },
    {
      "inputs": [
        {
          "internalType": "string",
          "name": "_tkname",
          "type": "string"
        }
      ],
      "name": "SellerRedeem",
      "outputs": [],
      "stateMutability": "nonpayable",
      "type": "function"
    },
    {
      "inputs": [
        {
          "internalType": "string",
          "name": "_tkname",
          "type": "string"
        }
      ],
      "name": "BuyerDeny",
      "outputs": [],
      "stateMutability": "nonpayable",
      "type": "function"
    },
    {
      "inputs": [],
      "name": "GetUsers",
      "outputs": [
        {
          "internalType": "address",
          "name": "",
          "type": "address"
        },
        {
          "internalType": "address",
          "name": "",
          "type": "address"
        }
      ],
      "stateMutability": "view",
      "type": "function",
      "constant": true
    },
    {
      "inputs": [
        {
          "internalType": "string",
          "name": "_tkname",
          "type": "string"
        }
      ],
      "name": "QueryProduct",
      "outputs": [
        {
          "internalType": "uint256",
          "name": "",
          "type": "uint256"
        },
        {
          "internalType": "enum Escrow.EscrowState",
          "name": "",
          "type": "uint8"
        },
        {
          "internalType": "bool",
          "name": "",
          "type": "bool"
        }
      ],
      "stateMutability": "view",
      "type": "function",
      "constant": true
    },
    {
      "inputs": [
        {
          "internalType": "address",
          "name": "addr",
          "type": "address"
        }
      ],
      "name": "GetBalance",
      "outputs": [
        {
          "internalType": "uint256",
          "name": "",
          "type": "uint256"
        }
      ],
      "stateMutability": "view",
      "type": "function",
      "constant": true
    }
  ],
  "bytecode": "0x60806040523480156200001157600080fd5b5060405162002f9d38038062002f9d833981810160405281019062000037919062000397565b620000576200004b6200029d60201b60201c565b620002a560201b60201c565b82600b60006101000a81548173ffffffffffffffffffffffffffffffffffffffff021916908373ffffffffffffffffffffffffffffffffffffffff16021790555033600160006101000a81548173ffffffffffffffffffffffffffffffffffffffff021916908373ffffffffffffffffffffffffffffffffffffffff16021790555081600260006101000a81548173ffffffffffffffffffffffffffffffffffffffff021916908373ffffffffffffffffffffffffffffffffffffffff16021790555080600360006101000a81548173ffffffffffffffffffffffffffffffffffffffff021916908373ffffffffffffffffffffffffffffffffffffffff160217905550600160009054906101000a900473ffffffffffffffffffffffffffffffffffffffff16600460006101000a81548173ffffffffffffffffffffffffffffffffffffffff021916908373ffffffffffffffffffffffffffffffffffffffff160217905550600260009054906101000a900473ffffffffffffffffffffffffffffffffffffffff16600560006101000a81548173ffffffffffffffffffffffffffffffffffffffff021916908373ffffffffffffffffffffffffffffffffffffffff160217905550600360009054906101000a900473ffffffffffffffffffffffffffffffffffffffff16600660006101000a81548173ffffffffffffffffffffffffffffffffffffffff021916908373ffffffffffffffffffffffffffffffffffffffff1602179055506064600781905550603c600a8190555050505062000474565b600033905090565b60008060009054906101000a900473ffffffffffffffffffffffffffffffffffffffff169050816000806101000a81548173ffffffffffffffffffffffffffffffffffffffff021916908373ffffffffffffffffffffffffffffffffffffffff1602179055508173ffffffffffffffffffffffffffffffffffffffff168173ffffffffffffffffffffffffffffffffffffffff167f8be0079c531659141344cd1fd0a4f28419497f9722a3daafe3b4186f6b6457e060405160405180910390a35050565b6000815190506200037a8162000440565b92915050565b60008151905062000391816200045a565b92915050565b600080600060608486031215620003b357620003b26200043b565b5b6000620003c38682870162000380565b9350506020620003d68682870162000369565b9250506040620003e98682870162000369565b9150509250925092565b600062000400826200041b565b9050919050565b60006200041482620003f3565b9050919050565b600073ffffffffffffffffffffffffffffffffffffffff82169050919050565b600080fd5b6200044b81620003f3565b81146200045757600080fd5b50565b620004658162000407565b81146200047157600080fd5b50565b612b1980620004846000396000f3fe6080604052600436106100fe5760003560e01c8063bc9d30c711610095578063ddca3f4311610064578063ddca3f4314610319578063f2fde38b14610344578063f8c3540b1461036d578063fae0c53c146103aa578063fd9908e3146103d3576100fe565b8063bc9d30c71461027d578063c2d92ee2146102a6578063c8e2fa8d146102c2578063da3eec19146102ed576100fe565b80638addc051116100d15780638addc051146101ab5780638da5cb5b146101e8578063a00cbd5b14610213578063a8f5ecb714610252576100fe565b806343e2e504146101035780635376bf7014610140578063715018a61461016957806386dc434b14610180575b600080fd5b34801561010f57600080fd5b5061012a60048036038101906101259190611b45565b610412565b60405161013791906122a0565b60405180910390f35b34801561014c57600080fd5b5061016760048036038101906101629190611b9f565b610433565b005b34801561017557600080fd5b5061017e61082b565b005b34801561018c57600080fd5b506101956108b3565b6040516101a29190612053565b60405180910390f35b3480156101b757600080fd5b506101d260048036038101906101cd9190611b9f565b6108d9565b6040516101df9190612038565b60405180910390f35b3480156101f457600080fd5b506101fd61090f565b60405161020a9190611ff4565b60405180910390f35b34801561021f57600080fd5b5061023a60048036038101906102359190611b9f565b610938565b604051610249939291906122bb565b60405180910390f35b34801561025e57600080fd5b50610267610a17565b60405161027491906122a0565b60405180910390f35b34801561028957600080fd5b506102a4600480360381019061029f9190611be8565b610a1d565b005b6102c060048036038101906102bb9190611b9f565b610c58565b005b3480156102ce57600080fd5b506102d761118b565b6040516102e491906122a0565b60405180910390f35b3480156102f957600080fd5b50610302611191565b60405161031092919061200f565b60405180910390f35b34801561032557600080fd5b5061032e61123c565b60405161033b91906122a0565b60405180910390f35b34801561035057600080fd5b5061036b60048036038101906103669190611b45565b611242565b005b34801561037957600080fd5b50610394600480360381019061038f9190611b9f565b61133a565b6040516103a19190612038565b60405180910390f35b3480156103b657600080fd5b506103d160048036038101906103cc9190611b9f565b6114d4565b005b3480156103df57600080fd5b506103fa60048036038101906103f59190611b9f565b611884565b604051610409939291906122f2565b60405180910390f35b60008173ffffffffffffffffffffffffffffffffffffffff16319050919050565b600660009054906101000a900473ffffffffffffffffffffffffffffffffffffffff16600073ffffffffffffffffffffffffffffffffffffffff168173ffffffffffffffffffffffffffffffffffffffff1614156104c6576040517f08c379a00000000000000000000000000000000000000000000000000000000081526004016104bd90612160565b60405180910390fd5b3073ffffffffffffffffffffffffffffffffffffffff168173ffffffffffffffffffffffffffffffffffffffff161415610535576040517f08c379a000000000000000000000000000000000000000000000000000000000815260040161052c90612260565b60405180910390fd5b81600d816040516105469190611fc8565b908152602001604051809103902060009054906101000a900460ff166105a1576040517f08c379a000000000000000000000000000000000000000000000000000000000815260040161059890612120565b60405180910390fd5b600660009054906101000a900473ffffffffffffffffffffffffffffffffffffffff1673ffffffffffffffffffffffffffffffffffffffff163373ffffffffffffffffffffffffffffffffffffffff1614610631576040517f08c379a0000000000000000000000000000000000000000000000000000000008152600401610628906120e0565b60405180910390fd5b60016003811115610645576106446125d5565b5b600c846040516106559190611fc8565b908152602001604051809103902060010160009054906101000a900460ff166003811115610686576106856125d5565b5b146106c6576040517f08c379a00000000000000000000000000000000000000000000000000000000081526004016106bd90612100565b60405180910390fd5b6106cf8361133a565b61070e576040517f08c379a000000000000000000000000000000000000000000000000000000000815260040161070590612200565b60405180910390fd5b600c8360405161071e9190611fc8565b9081526020016040518091039020600201544210610771576040517f08c379a0000000000000000000000000000000000000000000000000000000008152600401610768906121a0565b60405180910390fd5b600660009054906101000a900473ffffffffffffffffffffffffffffffffffffffff1673ffffffffffffffffffffffffffffffffffffffff166108fc6009549081150290604051600060405180830381858888f193505050501580156107db573d6000803e3d6000fd5b506002600c846040516107ee9190611fc8565b908152602001604051809103902060010160006101000a81548160ff02191690836003811115610821576108206125d5565b5b0217905550505050565b6108336118d1565b73ffffffffffffffffffffffffffffffffffffffff1661085161090f565b73ffffffffffffffffffffffffffffffffffffffff16146108a7576040517f08c379a000000000000000000000000000000000000000000000000000000000815260040161089e906121c0565b60405180910390fd5b6108b160006118d9565b565b600b60009054906101000a900473ffffffffffffffffffffffffffffffffffffffff1681565b600d818051602081018201805184825260208301602085012081835280955050505050506000915054906101000a900460ff1681565b60008060009054906101000a900473ffffffffffffffffffffffffffffffffffffffff16905090565b600080600083600d8160405161094e9190611fc8565b908152602001604051809103902060009054906101000a900460ff166109a9576040517f08c379a00000000000000000000000000000000000000000000000000000000081526004016109a090612120565b60405180910390fd5b60006109b48661133a565b9050600c866040516109c69190611fc8565b908152602001604051809103902060000154600c876040516109e89190611fc8565b908152602001604051809103902060010160009054906101000a900460ff168294509450945050509193909250565b60085481565b600d82604051610a2d9190611fc8565b908152602001604051809103902060009054906101000a900460ff1615610a89576040517f08c379a0000000000000000000000000000000000000000000000000000000008152600401610a8090612140565b60405180910390fd5b600b60009054906101000a900473ffffffffffffffffffffffffffffffffffffffff1673ffffffffffffffffffffffffffffffffffffffff16630ad5b505836040518263ffffffff1660e01b8152600401610ae4919061206e565b60206040518083038186803b158015610afc57600080fd5b505afa158015610b10573d6000803e3d6000fd5b505050506040513d601f19601f82011682018060405250810190610b349190611b72565b610b73576040517f08c379a0000000000000000000000000000000000000000000000000000000008152600401610b6a90612180565b60405180910390fd5b610b7b6119c9565b81816000018181525050600081602001906003811115610b9e57610b9d6125d5565b5b90816003811115610bb257610bb16125d5565b5b8152505080600c84604051610bc79190611fc8565b90815260200160405180910390206000820151816000015560208201518160010160006101000a81548160ff02191690836003811115610c0a57610c096125d5565b5b0217905550604082015181600201559050506001600d84604051610c2e9190611fc8565b908152602001604051809103902060006101000a81548160ff021916908315150217905550505050565b600460009054906101000a900473ffffffffffffffffffffffffffffffffffffffff16600073ffffffffffffffffffffffffffffffffffffffff168173ffffffffffffffffffffffffffffffffffffffff161415610ceb576040517f08c379a0000000000000000000000000000000000000000000000000000000008152600401610ce290612160565b60405180910390fd5b3073ffffffffffffffffffffffffffffffffffffffff168173ffffffffffffffffffffffffffffffffffffffff161415610d5a576040517f08c379a0000000000000000000000000000000000000000000000000000000008152600401610d5190612260565b60405180910390fd5b600660009054906101000a900473ffffffffffffffffffffffffffffffffffffffff16600073ffffffffffffffffffffffffffffffffffffffff168173ffffffffffffffffffffffffffffffffffffffff161415610ded576040517f08c379a0000000000000000000000000000000000000000000000000000000008152600401610de490612160565b60405180910390fd5b3073ffffffffffffffffffffffffffffffffffffffff168173ffffffffffffffffffffffffffffffffffffffff161415610e5c576040517f08c379a0000000000000000000000000000000000000000000000000000000008152600401610e5390612260565b60405180910390fd5b600c83604051610e6c9190611fc8565b908152602001604051809103902060000154600754610e8b91906123a6565b341015610ecd576040517f08c379a0000000000000000000000000000000000000000000000000000000008152600401610ec490612240565b60405180910390fd5b60006003811115610ee157610ee06125d5565b5b600c84604051610ef19190611fc8565b908152602001604051809103902060010160009054906101000a900460ff166003811115610f2257610f216125d5565b5b14610f62576040517f08c379a0000000000000000000000000000000000000000000000000000000008152600401610f5990612280565b60405180910390fd5b6001600c84604051610f749190611fc8565b908152602001604051809103902060010160006101000a81548160ff02191690836003811115610fa757610fa66125d5565b5b0217905550600a5442610fba91906123a6565b600c84604051610fca9190611fc8565b908152602001604051809103902060020181905550611014600a600c85604051610ff49190611fc8565b90815260200160405180910390206000015461199d90919063ffffffff16565b600881905550611050600854600c856040516110309190611fc8565b9081526020016040518091039020600001546119b390919063ffffffff16565b600981905550600460009054906101000a900473ffffffffffffffffffffffffffffffffffffffff1673ffffffffffffffffffffffffffffffffffffffff166108fc6007549081150290604051600060405180830381858888f193505050501580156110c0573d6000803e3d6000fd5b50600660009054906101000a900473ffffffffffffffffffffffffffffffffffffffff1673ffffffffffffffffffffffffffffffffffffffff166108fc6008549081150290604051600060405180830381858888f1935050505015801561112b573d6000803e3d6000fd5b507f6b4150c430f0b9b9df0f255d6761fd17eefed34257973ab988203c832edbcc2383600c8560405161115e9190611fc8565b90815260200160405180910390206000015460405161117e929190612090565b60405180910390a1505050565b60095481565b600080600460009054906101000a900473ffffffffffffffffffffffffffffffffffffffff1673ffffffffffffffffffffffffffffffffffffffff163373ffffffffffffffffffffffffffffffffffffffff16146111ee57600080fd5b600560009054906101000a900473ffffffffffffffffffffffffffffffffffffffff16600660009054906101000a900473ffffffffffffffffffffffffffffffffffffffff16915091509091565b60075481565b61124a6118d1565b73ffffffffffffffffffffffffffffffffffffffff1661126861090f565b73ffffffffffffffffffffffffffffffffffffffff16146112be576040517f08c379a00000000000000000000000000000000000000000000000000000000081526004016112b5906121c0565b60405180910390fd5b600073ffffffffffffffffffffffffffffffffffffffff168173ffffffffffffffffffffffffffffffffffffffff16141561132e576040517f08c379a0000000000000000000000000000000000000000000000000000000008152600401611325906120c0565b60405180910390fd5b611337816118d9565b50565b600081600d8160405161134d9190611fc8565b908152602001604051809103902060009054906101000a900460ff166113a8576040517f08c379a000000000000000000000000000000000000000000000000000000000815260040161139f90612120565b60405180910390fd5b600080600080600b60009054906101000a900473ffffffffffffffffffffffffffffffffffffffff1673ffffffffffffffffffffffffffffffffffffffff1663c5573d46886040518263ffffffff1660e01b8152600401611409919061206e565b60006040518083038186803b15801561142157600080fd5b505afa158015611435573d6000803e3d6000fd5b505050506040513d6000823e3d601f19601f8201168201806040525081019061145e9190611c44565b935093509350935060405160200161147590611fdf565b604051602081830303815290604052805190602001208260405160200161149c9190611fc8565b6040516020818303038152906040528051906020012014156114c55760019550505050506114ce565b60009550505050505b50919050565b600560009054906101000a900473ffffffffffffffffffffffffffffffffffffffff16600073ffffffffffffffffffffffffffffffffffffffff168173ffffffffffffffffffffffffffffffffffffffff161415611567576040517f08c379a000000000000000000000000000000000000000000000000000000000815260040161155e90612160565b60405180910390fd5b3073ffffffffffffffffffffffffffffffffffffffff168173ffffffffffffffffffffffffffffffffffffffff1614156115d6576040517f08c379a00000000000000000000000000000000000000000000000000000000081526004016115cd90612260565b60405180910390fd5b81600d816040516115e79190611fc8565b908152602001604051809103902060009054906101000a900460ff16611642576040517f08c379a000000000000000000000000000000000000000000000000000000000815260040161163990612120565b60405180910390fd5b600560009054906101000a900473ffffffffffffffffffffffffffffffffffffffff1673ffffffffffffffffffffffffffffffffffffffff163373ffffffffffffffffffffffffffffffffffffffff16146116d2576040517f08c379a00000000000000000000000000000000000000000000000000000000081526004016116c9906121e0565b60405180910390fd5b600160038111156116e6576116e56125d5565b5b600c846040516116f69190611fc8565b908152602001604051809103902060010160009054906101000a900460ff166003811115611727576117266125d5565b5b14611767576040517f08c379a000000000000000000000000000000000000000000000000000000000815260040161175e90612100565b60405180910390fd5b600c836040516117779190611fc8565b90815260200160405180910390206002015442116117ca576040517f08c379a00000000000000000000000000000000000000000000000000000000081526004016117c190612220565b60405180910390fd5b600560009054906101000a900473ffffffffffffffffffffffffffffffffffffffff1673ffffffffffffffffffffffffffffffffffffffff166108fc6009549081150290604051600060405180830381858888f19350505050158015611834573d6000803e3d6000fd5b506003600c846040516118479190611fc8565b908152602001604051809103902060010160006101000a81548160ff0219169083600381111561187a576118796125d5565b5b0217905550505050565b600c818051602081018201805184825260208301602085012081835280955050505050506000915090508060000154908060010160009054906101000a900460ff16908060020154905083565b600033905090565b60008060009054906101000a900473ffffffffffffffffffffffffffffffffffffffff169050816000806101000a81548173ffffffffffffffffffffffffffffffffffffffff021916908373ffffffffffffffffffffffffffffffffffffffff1602179055508173ffffffffffffffffffffffffffffffffffffffff168173ffffffffffffffffffffffffffffffffffffffff167f8be0079c531659141344cd1fd0a4f28419497f9722a3daafe3b4186f6b6457e060405160405180910390a35050565b600081836119ab91906123fc565b905092915050565b600081836119c1919061242d565b905092915050565b604051806060016040528060008152602001600060038111156119ef576119ee6125d5565b5b8152602001600081525090565b6000611a0f611a0a8461234e565b612329565b905082815260208101848484011115611a2b57611a2a612638565b5b611a36848285612504565b509392505050565b6000611a51611a4c8461234e565b612329565b905082815260208101848484011115611a6d57611a6c612638565b5b611a78848285612513565b509392505050565b600081359050611a8f81612a9e565b92915050565b600081519050611aa481612a9e565b92915050565b600081519050611ab981612ab5565b92915050565b600082601f830112611ad457611ad3612633565b5b8135611ae48482602086016119fc565b91505092915050565b600082601f830112611b0257611b01612633565b5b8151611b12848260208601611a3e565b91505092915050565b600081359050611b2a81612acc565b92915050565b600081519050611b3f81612acc565b92915050565b600060208284031215611b5b57611b5a612642565b5b6000611b6984828501611a80565b91505092915050565b600060208284031215611b8857611b87612642565b5b6000611b9684828501611aaa565b91505092915050565b600060208284031215611bb557611bb4612642565b5b600082013567ffffffffffffffff811115611bd357611bd261263d565b5b611bdf84828501611abf565b91505092915050565b60008060408385031215611bff57611bfe612642565b5b600083013567ffffffffffffffff811115611c1d57611c1c61263d565b5b611c2985828601611abf565b9250506020611c3a85828601611b1b565b9150509250929050565b60008060008060808587031215611c5e57611c5d612642565b5b6000611c6c87828801611b30565b945050602085015167ffffffffffffffff811115611c8d57611c8c61263d565b5b611c9987828801611aed565b935050604085015167ffffffffffffffff811115611cba57611cb961263d565b5b611cc687828801611aed565b9250506060611cd787828801611a95565b91505092959194509250565b611cec81612461565b82525050565b611cfb81612473565b82525050565b611d0a816124bc565b82525050565b611d19816124ce565b82525050565b6000611d2a8261237f565b611d34818561238a565b9350611d44818560208601612513565b611d4d81612647565b840191505092915050565b6000611d638261237f565b611d6d818561239b565b9350611d7d818560208601612513565b80840191505092915050565b6000611d9660268361238a565b9150611da182612658565b604082019050919050565b6000611db960088361239b565b9150611dc4826126a7565b600882019050919050565b6000611ddc60298361238a565b9150611de7826126d0565b604082019050919050565b6000611dff60228361238a565b9150611e0a8261271f565b604082019050919050565b6000611e2260178361238a565b9150611e2d8261276e565b602082019050919050565b6000611e45601b8361238a565b9150611e5082612797565b602082019050919050565b6000611e6860268361238a565b9150611e73826127c0565b604082019050919050565b6000611e8b601c8361238a565b9150611e968261280f565b602082019050919050565b6000611eae60348361238a565b9150611eb982612838565b604082019050919050565b6000611ed160208361238a565b9150611edc82612887565b602082019050919050565b6000611ef460268361238a565b9150611eff826128b0565b604082019050919050565b6000611f1760338361238a565b9150611f22826128ff565b604082019050919050565b6000611f3a603c8361238a565b9150611f458261294e565b604082019050919050565b6000611f5d604a8361238a565b9150611f688261299d565b606082019050919050565b6000611f8060258361238a565b9150611f8b82612a12565b604082019050919050565b6000611fa360188361238a565b9150611fae82612a61565b602082019050919050565b611fc2816124b2565b82525050565b6000611fd48284611d58565b915081905092915050565b6000611fea82611dac565b9150819050919050565b60006020820190506120096000830184611ce3565b92915050565b60006040820190506120246000830185611ce3565b6120316020830184611ce3565b9392505050565b600060208201905061204d6000830184611cf2565b92915050565b60006020820190506120686000830184611d01565b92915050565b600060208201905081810360008301526120888184611d1f565b905092915050565b600060408201905081810360008301526120aa8185611d1f565b90506120b96020830184611fb9565b9392505050565b600060208201905081810360008301526120d981611d89565b9050919050565b600060208201905081810360008301526120f981611dcf565b9050919050565b6000602082019050818103600083015261211981611df2565b9050919050565b6000602082019050818103600083015261213981611e15565b9050919050565b6000602082019050818103600083015261215981611e38565b9050919050565b6000602082019050818103600083015261217981611e5b565b9050919050565b6000602082019050818103600083015261219981611e7e565b9050919050565b600060208201905081810360008301526121b981611ea1565b9050919050565b600060208201905081810360008301526121d981611ec4565b9050919050565b600060208201905081810360008301526121f981611ee7565b9050919050565b6000602082019050818103600083015261221981611f0a565b9050919050565b6000602082019050818103600083015261223981611f2d565b9050919050565b6000602082019050818103600083015261225981611f50565b9050919050565b6000602082019050818103600083015261227981611f73565b9050919050565b6000602082019050818103600083015261229981611f96565b9050919050565b60006020820190506122b56000830184611fb9565b92915050565b60006060820190506122d06000830186611fb9565b6122dd6020830185611d10565b6122ea6040830184611cf2565b949350505050565b60006060820190506123076000830186611fb9565b6123146020830185611d10565b6123216040830184611fb9565b949350505050565b6000612333612344565b905061233f8282612546565b919050565b6000604051905090565b600067ffffffffffffffff82111561236957612368612604565b5b61237282612647565b9050602081019050919050565b600081519050919050565b600082825260208201905092915050565b600081905092915050565b60006123b1826124b2565b91506123bc836124b2565b9250827fffffffffffffffffffffffffffffffffffffffffffffffffffffffffffffffff038211156123f1576123f0612577565b5b828201905092915050565b6000612407826124b2565b9150612412836124b2565b925082612422576124216125a6565b5b828204905092915050565b6000612438826124b2565b9150612443836124b2565b92508282101561245657612455612577565b5b828203905092915050565b600061246c82612492565b9050919050565b60008115159050919050565b600081905061248d82612a8a565b919050565b600073ffffffffffffffffffffffffffffffffffffffff82169050919050565b6000819050919050565b60006124c7826124e0565b9050919050565b60006124d98261247f565b9050919050565b60006124eb826124f2565b9050919050565b60006124fd82612492565b9050919050565b82818337600083830152505050565b60005b83811015612531578082015181840152602081019050612516565b83811115612540576000848401525b50505050565b61254f82612647565b810181811067ffffffffffffffff8211171561256e5761256d612604565b5b80604052505050565b7f4e487b7100000000000000000000000000000000000000000000000000000000600052601160045260246000fd5b7f4e487b7100000000000000000000000000000000000000000000000000000000600052601260045260246000fd5b7f4e487b7100000000000000000000000000000000000000000000000000000000600052602160045260246000fd5b7f4e487b7100000000000000000000000000000000000000000000000000000000600052604160045260246000fd5b600080fd5b600080fd5b600080fd5b600080fd5b6000601f19601f8301169050919050565b7f4f776e61626c653a206e6577206f776e657220697320746865207a65726f206160008201527f6464726573730000000000000000000000000000000000000000000000000000602082015250565b7f7665726966696564000000000000000000000000000000000000000000000000600082015250565b7f4f6e6c792073656c6c65722063616e2063616c6c207468652072656465656d2060008201527f66756e6374696f6e2e0000000000000000000000000000000000000000000000602082015250565b7f4e6f206465706f73697420666f756e6420666f7220746869732070726f64756360008201527f742e000000000000000000000000000000000000000000000000000000000000602082015250565b7f50726f6475637420646f6573206e6f742065786973742e000000000000000000600082015250565b7f50726f6475637420697320616c7265616479206f6666657265642e0000000000600082015250565b7f526563697069656e742073686f756c64206861766520612076616c696420616460008201527f6472657373210000000000000000000000000000000000000000000000000000602082015250565b7f50726f6475637420746f6b656e206973206e6f74206d696e7465642e00000000600082015250565b7f53656c6c65722063616e206f6e6c792072656465656d206265666f726520746860008201527f65207370656369666965642074696d656f75742e000000000000000000000000602082015250565b7f4f776e61626c653a2063616c6c6572206973206e6f7420746865206f776e6572600082015250565b7f4f6e6c792062757965722063616e2063616c6c207468652064656e792066756e60008201527f6374696f6e2e0000000000000000000000000000000000000000000000000000602082015250565b7f53656c6c65722063616e6e6f742072656465656d207061796d656e74206f662060008201527f756e76657269666965642070726f647563742e00000000000000000000000000602082015250565b7f42757965722063616e206f6e6c7920636c61696d2074686520726566756e642060008201527f616674657220746865207370656369666965642074696d656f75742e00000000602082015250565b7f506c65617365206d616b65207375726520796f7572206465706f73697420636f60008201527f7665727320626f7468207468652070726f6475637420707269636520616e642060208201527f6167656e74206665652100000000000000000000000000000000000000000000604082015250565b7f526563697069656e742073686f756c64206e6f742062652074686520636f6e7460008201527f7261637421000000000000000000000000000000000000000000000000000000602082015250565b7f50726f64756374206973206e6f74206f6e206f66666572210000000000000000600082015250565b60048110612a9b57612a9a6125d5565b5b50565b612aa781612461565b8114612ab257600080fd5b50565b612abe81612473565b8114612ac957600080fd5b50565b612ad5816124b2565b8114612ae057600080fd5b5056fea2646970667358221220adc95243264f75d0b1c4a08a13ddc7b2bf1398e027bd954175ab7f436aceff3b64736f6c63430008070033",
  "immutableReferences": {},
  "source": "// SPDX-License-Identifier: UNLICENSED\npragma solidity ^0.8.0;\n\nimport \"../node_modules/@openzeppelin/contracts/utils/math/SafeMath.sol\";\nimport \"../node_modules/@openzeppelin/contracts/access/Ownable.sol\";\nimport \"./DigitalTwin.sol\";\n\n/**\n * @title EscrowService Contract, forked from https://github.com/AleRapchan/escrow-service\n * @author Yining Hu\n * @notice Building a single role access control Escrow Service using OpenZeppelin Escrow and RBAC\n * @dev contract currently assume one buyer account and one seller account, should develop an additional wallet contract and allow new user registration\n * @dev To do: to implement multi-sig, time-based escrow\n * @dev To do: to add a product existence modifier, and a role modifier\n */\ncontract Escrow is Ownable { //Ownable, \n\n    /**\n     * @dev Roles are referred to by their bytes32 identifier. \n     * @dev These should be exposed in the external API and be unique.\n     */\n\n    address agentaddr;\n    address buyeraddr;\n    address selleraddr;\n\n    address payable agent;\n    address payable buyer;\n    address payable seller;\n    \n    uint256 public fee;\n    uint256 public initial_payment;\n    uint256 public remaining_payment;\n\n    uint256 timeout;\n\n    using SafeMath for uint256;\n\n    DigitalTwin public digitaltwin;\n    \n    enum EscrowState { OFFERED, DEPOSITTAKEN, BUYERAPPROVED, BUYERDENIED } //PAYMENTSUCCESSFUL, PAYMENTREVERTED\n\n    struct Product{\n        uint256 price;\n        EscrowState state;\n        uint256 timeout; // timeout for payment settlement\n    }\n\n    mapping (string => Product) public stock; // whole stock of offered items for sell in escrow arragement\n    mapping(string => bool) public productExists;\n    mapping(address => bool) signed; // to collect signatures for multi-sig\n\n    event DepositTaken(string tkname, uint256 price);\n\n    /**\n     * @dev before setting up any user wallet, all buyers/sellers use a single buyer/seller address, which are maintained by Beston.\n     * @dev the same goes for ownership tracking in DigitalTwin.sol.\n     */\n    constructor(DigitalTwin _digitaltwin, address _buyer_address, address _seller_address) {\n        digitaltwin = _digitaltwin;\n\n        agentaddr = msg.sender;\n        buyeraddr = _buyer_address;\n        selleraddr = _seller_address;\n\n        agent = payable(agentaddr);\n        buyer = payable(buyeraddr);\n        seller= payable(selleraddr);\n        fee = 100;\n\n        timeout = 1 minutes;\n    }\n\n    modifier validDestination(address to) {\n        require(to != address(0x0), \"Recipient should have a valid address!\");\n        require(to != address(this), \"Recipient should not be the contract!\");\n        _;\n    }\n\n    modifier validProduct(string memory _tkname) {\n        require(productExists[_tkname], \"Product does not exist.\");\n        _;\n    }\n\n    /// @dev should also require tk to be minted on DigitalTwin.sol\n    function offer(string memory _tkname , uint256 _price) public {\n        require(!productExists[_tkname], \"Product is already offered.\");\n        require(digitaltwin.tkExists(_tkname), \"Product token is not minted.\");\n\n        Product memory product;\n        product.price = _price; /// @dev double check the conversion in Polygon\n        product.state = EscrowState.OFFERED;\n        stock[_tkname] = product;\n        productExists[_tkname] = true;\n    }\n\n    // sign() should be used together with a deal() function, for buyer and seller to agree on a deal\n    // function sign() public {\n    //     require (msg.sender == buyer || msg.sender == seller);\n    //     require (!signed[msg.sender]);\n    //     signed[msg.sender] = true;\n    // }\n    \n    /**\n     * @notice Buyer can make a deposit to products on offer\n     * @dev Partial payment is sent to the seller, however, can change depending on the agreement\n     */\n    function BuyerDeposit(string memory _tkname) external payable validDestination(agent) validDestination(seller) {\n        require (msg.value >= fee + stock[_tkname].price, \"Please make sure your deposit covers both the product price and agent fee!\");\n        require (stock[_tkname].state == EscrowState.OFFERED , \"Product is not on offer!\"); // this also blocks buyer from making duplicatd deposit\n\n        stock[_tkname].state = EscrowState.DEPOSITTAKEN;\n        stock[_tkname].timeout = block.timestamp + timeout; // add a timeout for settlement when buyer sends deposit\n\n        initial_payment = stock[_tkname].price.div(10); // initial payment set to be 10% of the total price\n        remaining_payment = stock[_tkname].price.sub(initial_payment);\n\n        agent.transfer(fee);\n        seller.transfer(initial_payment);\n\n        emit DepositTaken(_tkname, stock[_tkname].price);\n    }\n\n    function VerifyProduct(string memory _tkname) public view validProduct(_tkname) returns (bool) {\n        (uint256 id, string memory metadata, string memory vstatus, address addr) = digitaltwin.queryToken(_tkname);\n        if (keccak256(abi.encodePacked(vstatus)) == keccak256(abi.encodePacked(\"verified\"))) {\n            return true;\n        } else {\n            return false;\n        }\n    }\n\n    /**\n     * @notice Buyer can approve the payment with or without verification\n     * @dev when implementing the api and front end, buyer should have the option to proceed without or with verification\n     */ \n    // function BuyerApprove(string memory _tkname) public validDestination(seller) validProduct(_tkname) {\n    //     require (msg.sender == buyer);\n    //     require (stock[_tkname].state == EscrowState.DEPOSITTAKEN, \"Buyer cannot approve without a deposit!\");\n    //     require (block.timestamp < stock[_tkname].timeout);\n    //     seller.transfer(remaining_payment);\n    //     stock[_tkname].state = EscrowState.BUYERAPPROVED;\n    // }\n\n    /**\n     * @notice Seller can redeem with verification\n     * Achieves the same payment result as BuyerApprove, but requires seller to pay for execution\n     */\n    function SellerRedeem(string memory _tkname) public validDestination(seller) validProduct(_tkname) {\n        require (msg.sender == seller, \"Only seller can call the redeem function.\");\n        require (stock[_tkname].state == EscrowState.DEPOSITTAKEN, \"No deposit found for this product.\");\n        require (VerifyProduct(_tkname), \"Seller cannot redeem payment of unverified product.\");\n        require (block.timestamp < stock[_tkname].timeout, \"Seller can only redeem before the specified timeout.\");\n        seller.transfer(remaining_payment);\n        stock[_tkname].state = EscrowState.BUYERAPPROVED;\n    }\n\n    /**\n     * @notice Buyer can deny the payment upon unsatisfactory verification result or for other reasons.\n     */\n    function BuyerDeny(string memory _tkname) public validDestination(buyer) validProduct(_tkname) {\n        require (msg.sender == buyer, \"Only buyer can call the deny function.\");\n        require (stock[_tkname].state == EscrowState.DEPOSITTAKEN, \"No deposit found for this product.\");\n        require (block.timestamp > stock[_tkname].timeout, \"Buyer can only claim the refund after the specified timeout.\");\n        buyer.transfer(remaining_payment);\n        stock[_tkname].state = EscrowState.BUYERDENIED;\n    }\n\n    /**\n     * @notice getters\n     */\n    function GetUsers() public view returns(address, address) {\n        require (msg.sender == agent);\n        return (buyer,seller);\n    }\n\n    function QueryProduct(string memory _tkname) public view validProduct(_tkname) returns(uint256, EscrowState, bool) {\n        bool vstatus = VerifyProduct(_tkname);\n        return (stock[_tkname].price, stock[_tkname].state, vstatus);\n    }\n\n    function GetBalance(address addr) public view returns(uint256) {\n        return addr.balance;\n    }\n}",
  "sourcePath": "/home/yih/Documents/dev/beston-dapps/contracts/Escrow.sol",
  "compiler": {
    "name": "solc",
    "version": "0.8.7+commit.e28d00a7.Emscripten.clang"
  },
  "schemaVersion": "3.4.1",
  "updatedAt": "2022-05-02T03:14:26.636Z",
  "networkType": "ethereum",
  "devdoc": {
    "author": "Yining Hu",
    "details": "contract currently assume one buyer account and one seller account, should develop an additional wallet contract and allow new user registrationTo do: to implement multi-sig, time-based escrowTo do: to add a product existence modifier, and a role modifier",
    "kind": "dev",
    "methods": {
      "BuyerDeposit(string)": {
        "details": "Partial payment is sent to the seller, however, can change depending on the agreement"
      },
      "constructor": {
        "details": "before setting up any user wallet, all buyers/sellers use a single buyer/seller address, which are maintained by Beston.the same goes for ownership tracking in DigitalTwin.sol."
      },
      "offer(string,uint256)": {
        "details": "should also require tk to be minted on DigitalTwin.sol"
      },
      "owner()": {
        "details": "Returns the address of the current owner."
      },
      "renounceOwnership()": {
        "details": "Leaves the contract without owner. It will not be possible to call `onlyOwner` functions anymore. Can only be called by the current owner. NOTE: Renouncing ownership will leave the contract without an owner, thereby removing any functionality that is only available to the owner."
      },
      "transferOwnership(address)": {
        "details": "Transfers ownership of the contract to a new account (`newOwner`). Can only be called by the current owner."
      }
    },
    "stateVariables": {
      "agentaddr": {
        "details": "Roles are referred to by their bytes32 identifier. These should be exposed in the external API and be unique."
      }
    },
    "title": "EscrowService Contract, forked from https://github.com/AleRapchan/escrow-service",
    "version": 1
  },
  "userdoc": {
    "kind": "user",
    "methods": {
      "BuyerDeny(string)": {
        "notice": "Buyer can deny the payment upon unsatisfactory verification result or for other reasons."
      },
      "BuyerDeposit(string)": {
        "notice": "Buyer can make a deposit to products on offer"
      },
      "GetUsers()": {
        "notice": "getters"
      },
      "SellerRedeem(string)": {
        "notice": "Seller can redeem with verification Achieves the same payment result as BuyerApprove, but requires seller to pay for execution"
      }
    },
    "notice": "Building a single role access control Escrow Service using OpenZeppelin Escrow and RBAC",
    "version": 1
  }
}