{
  "contractName": "Escrow",
  "abi": [
    {
      "inputs": [
        {
          "internalType": "contract DigitalTwin",
          "name": "_digitaltwin",
          "type": "address"
        },
        {
          "internalType": "address",
          "name": "_buyer_address",
          "type": "address"
        },
        {
          "internalType": "address",
          "name": "_seller_address",
          "type": "address"
        }
      ],
      "stateMutability": "nonpayable",
      "type": "constructor"
    },
    {
      "anonymous": false,
      "inputs": [
        {
          "indexed": false,
          "internalType": "string",
          "name": "tkname",
          "type": "string"
        },
        {
          "indexed": false,
          "internalType": "uint256",
          "name": "price",
          "type": "uint256"
        }
      ],
      "name": "DepositTaken",
      "type": "event"
    },
    {
      "anonymous": false,
      "inputs": [
        {
          "indexed": true,
          "internalType": "address",
          "name": "previousOwner",
          "type": "address"
        },
        {
          "indexed": true,
          "internalType": "address",
          "name": "newOwner",
          "type": "address"
        }
      ],
      "name": "OwnershipTransferred",
      "type": "event"
    },
    {
      "inputs": [],
      "name": "digitaltwin",
      "outputs": [
        {
          "internalType": "contract DigitalTwin",
          "name": "",
          "type": "address"
        }
      ],
      "stateMutability": "view",
      "type": "function",
      "constant": true
    },
    {
      "inputs": [],
      "name": "fee",
      "outputs": [
        {
          "internalType": "uint256",
          "name": "",
          "type": "uint256"
        }
      ],
      "stateMutability": "view",
      "type": "function",
      "constant": true
    },
    {
      "inputs": [],
      "name": "initial_payment",
      "outputs": [
        {
          "internalType": "uint256",
          "name": "",
          "type": "uint256"
        }
      ],
      "stateMutability": "view",
      "type": "function",
      "constant": true
    },
    {
      "inputs": [],
      "name": "owner",
      "outputs": [
        {
          "internalType": "address",
          "name": "",
          "type": "address"
        }
      ],
      "stateMutability": "view",
      "type": "function",
      "constant": true
    },
    {
      "inputs": [
        {
          "internalType": "string",
          "name": "",
          "type": "string"
        }
      ],
      "name": "productExists",
      "outputs": [
        {
          "internalType": "bool",
          "name": "",
          "type": "bool"
        }
      ],
      "stateMutability": "view",
      "type": "function",
      "constant": true
    },
    {
      "inputs": [],
      "name": "remaining_payment",
      "outputs": [
        {
          "internalType": "uint256",
          "name": "",
          "type": "uint256"
        }
      ],
      "stateMutability": "view",
      "type": "function",
      "constant": true
    },
    {
      "inputs": [],
      "name": "renounceOwnership",
      "outputs": [],
      "stateMutability": "nonpayable",
      "type": "function"
    },
    {
      "inputs": [
        {
          "internalType": "string",
          "name": "",
          "type": "string"
        }
      ],
      "name": "stock",
      "outputs": [
        {
          "internalType": "uint256",
          "name": "price",
          "type": "uint256"
        },
        {
          "internalType": "enum Escrow.EscrowState",
          "name": "state",
          "type": "uint8"
        },
        {
          "internalType": "uint256",
          "name": "timeout",
          "type": "uint256"
        }
      ],
      "stateMutability": "view",
      "type": "function",
      "constant": true
    },
    {
      "inputs": [
        {
          "internalType": "address",
          "name": "newOwner",
          "type": "address"
        }
      ],
      "name": "transferOwnership",
      "outputs": [],
      "stateMutability": "nonpayable",
      "type": "function"
    },
    {
      "inputs": [
        {
          "internalType": "string",
          "name": "_tkname",
          "type": "string"
        },
        {
          "internalType": "uint256",
          "name": "_price",
          "type": "uint256"
        }
      ],
      "name": "offer",
      "outputs": [],
      "stateMutability": "nonpayable",
      "type": "function"
    },
    {
      "inputs": [
        {
          "internalType": "string",
          "name": "_tkname",
          "type": "string"
        }
      ],
      "name": "BuyerDeposit",
      "outputs": [],
      "stateMutability": "payable",
      "type": "function",
      "payable": true
    },
    {
      "inputs": [
        {
          "internalType": "string",
          "name": "_tkname",
          "type": "string"
        }
      ],
      "name": "VerifyPackaging",
      "outputs": [
        {
          "internalType": "bool",
          "name": "",
          "type": "bool"
        }
      ],
      "stateMutability": "view",
      "type": "function",
      "constant": true
    },
    {
      "inputs": [
        {
          "internalType": "string",
          "name": "_tkname",
          "type": "string"
        }
      ],
      "name": "VerifyProduct",
      "outputs": [
        {
          "internalType": "bool",
          "name": "",
          "type": "bool"
        }
      ],
      "stateMutability": "view",
      "type": "function",
      "constant": true
    },
    {
      "inputs": [
        {
          "internalType": "string",
          "name": "_tkname",
          "type": "string"
        }
      ],
      "name": "AgentApprove",
      "outputs": [],
      "stateMutability": "nonpayable",
      "type": "function"
    },
    {
      "inputs": [
        {
          "internalType": "string",
          "name": "_tkname",
          "type": "string"
        }
      ],
      "name": "AgentDeny",
      "outputs": [],
      "stateMutability": "nonpayable",
      "type": "function"
    },
    {
      "inputs": [],
      "name": "GetUsers",
      "outputs": [
        {
          "internalType": "address",
          "name": "",
          "type": "address"
        },
        {
          "internalType": "address",
          "name": "",
          "type": "address"
        },
        {
          "internalType": "address",
          "name": "",
          "type": "address"
        }
      ],
      "stateMutability": "view",
      "type": "function",
      "constant": true
    },
    {
      "inputs": [
        {
          "internalType": "string",
          "name": "_tkname",
          "type": "string"
        }
      ],
      "name": "QueryProduct",
      "outputs": [
        {
          "internalType": "uint256",
          "name": "",
          "type": "uint256"
        },
        {
          "internalType": "string",
          "name": "",
          "type": "string"
        }
      ],
      "stateMutability": "view",
      "type": "function",
      "constant": true
    },
    {
      "inputs": [],
      "name": "QueryAllProducts",
      "outputs": [
        {
          "internalType": "string[]",
          "name": "",
          "type": "string[]"
        },
        {
          "internalType": "uint256[]",
          "name": "",
          "type": "uint256[]"
        },
        {
          "internalType": "string[]",
          "name": "",
          "type": "string[]"
        }
      ],
      "stateMutability": "view",
      "type": "function",
      "constant": true
    },
    {
      "inputs": [
        {
          "internalType": "address",
          "name": "addr",
          "type": "address"
        }
      ],
      "name": "GetBalance",
      "outputs": [
        {
          "internalType": "uint256",
          "name": "",
          "type": "uint256"
        }
      ],
      "stateMutability": "view",
      "type": "function",
      "constant": true
    }
  ],
  "bytecode": "0x60806040523480156200001157600080fd5b506040516200405b3803806200405b83398181016040528101906200003791906200039a565b620000576200004b620002a060201b60201c565b620002a860201b60201c565b82600b60006101000a81548173ffffffffffffffffffffffffffffffffffffffff021916908373ffffffffffffffffffffffffffffffffffffffff16021790555033600160006101000a81548173ffffffffffffffffffffffffffffffffffffffff021916908373ffffffffffffffffffffffffffffffffffffffff16021790555081600260006101000a81548173ffffffffffffffffffffffffffffffffffffffff021916908373ffffffffffffffffffffffffffffffffffffffff16021790555080600360006101000a81548173ffffffffffffffffffffffffffffffffffffffff021916908373ffffffffffffffffffffffffffffffffffffffff160217905550600160009054906101000a900473ffffffffffffffffffffffffffffffffffffffff16600460006101000a81548173ffffffffffffffffffffffffffffffffffffffff021916908373ffffffffffffffffffffffffffffffffffffffff160217905550600260009054906101000a900473ffffffffffffffffffffffffffffffffffffffff16600560006101000a81548173ffffffffffffffffffffffffffffffffffffffff021916908373ffffffffffffffffffffffffffffffffffffffff160217905550600360009054906101000a900473ffffffffffffffffffffffffffffffffffffffff16600660006101000a81548173ffffffffffffffffffffffffffffffffffffffff021916908373ffffffffffffffffffffffffffffffffffffffff160217905550633b9aca0060078190555060b4600a8190555050505062000477565b600033905090565b60008060009054906101000a900473ffffffffffffffffffffffffffffffffffffffff169050816000806101000a81548173ffffffffffffffffffffffffffffffffffffffff021916908373ffffffffffffffffffffffffffffffffffffffff1602179055508173ffffffffffffffffffffffffffffffffffffffff168173ffffffffffffffffffffffffffffffffffffffff167f8be0079c531659141344cd1fd0a4f28419497f9722a3daafe3b4186f6b6457e060405160405180910390a35050565b6000815190506200037d8162000443565b92915050565b60008151905062000394816200045d565b92915050565b600080600060608486031215620003b657620003b56200043e565b5b6000620003c68682870162000383565b9350506020620003d9868287016200036c565b9250506040620003ec868287016200036c565b9150509250925092565b600062000403826200041e565b9050919050565b60006200041782620003f6565b9050919050565b600073ffffffffffffffffffffffffffffffffffffffff82169050919050565b600080fd5b6200044e81620003f6565b81146200045a57600080fd5b50565b62000468816200040a565b81146200047457600080fd5b50565b613bd480620004876000396000f3fe6080604052600436106101145760003560e01c8063a8f5ecb7116100a0578063da3eec1911610064578063da3eec1914610395578063ddca3f43146103c2578063f2fde38b146103ed578063f8c3540b14610416578063fd9908e31461045357610114565b8063a8f5ecb7146102bd578063bc9d30c7146102e8578063c2d92ee214610311578063c8e2fa8d1461032d578063cc7636081461035857610114565b806384fe4285116100e757806384fe4285146101c357806386dc434b146101ec5780638addc051146102175780638da5cb5b14610254578063a00cbd5b1461027f57610114565b8063112a6a3d1461011957806343e2e504146101425780636056f1191461017f578063715018a6146101ac575b600080fd5b34801561012557600080fd5b50610140600480360381019061013b9190612766565b610492565b005b34801561014e57600080fd5b506101696004803603810190610164919061270c565b6108d2565b6040516101769190613179565b60405180910390f35b34801561018b57600080fd5b506101946108f3565b6040516101a393929190612e75565b60405180910390f35b3480156101b857600080fd5b506101c1610ea2565b005b3480156101cf57600080fd5b506101ea60048036038101906101e59190612766565b610eb6565b005b3480156101f857600080fd5b50610201611266565b60405161020e9190612edc565b60405180910390f35b34801561022357600080fd5b5061023e60048036038101906102399190612766565b61128c565b60405161024b9190612ec1565b60405180910390f35b34801561026057600080fd5b506102696112c2565b6040516102769190612e23565b60405180910390f35b34801561028b57600080fd5b506102a660048036038101906102a19190612766565b6112eb565b6040516102b49291906131cb565b60405180910390f35b3480156102c957600080fd5b506102d2611626565b6040516102df9190613179565b60405180910390f35b3480156102f457600080fd5b5061030f600480360381019061030a91906127af565b61162c565b005b61032b60048036038101906103269190612766565b611954565b005b34801561033957600080fd5b50610342611e87565b60405161034f9190613179565b60405180910390f35b34801561036457600080fd5b5061037f600480360381019061037a9190612766565b611e8d565b60405161038c9190612ec1565b60405180910390f35b3480156103a157600080fd5b506103aa61202d565b6040516103b993929190612e3e565b60405180910390f35b3480156103ce57600080fd5b506103d7612100565b6040516103e49190613179565b60405180910390f35b3480156103f957600080fd5b50610414600480360381019061040f919061270c565b612106565b005b34801561042257600080fd5b5061043d60048036038101906104389190612766565b61218a565b60405161044a9190612ec1565b60405180910390f35b34801561045f57600080fd5b5061047a60048036038101906104759190612766565b61232a565b60405161048993929190613194565b60405180910390f35b600660009054906101000a900473ffffffffffffffffffffffffffffffffffffffff16600073ffffffffffffffffffffffffffffffffffffffff168173ffffffffffffffffffffffffffffffffffffffff161415610525576040517f08c379a000000000000000000000000000000000000000000000000000000000815260040161051c90613019565b60405180910390fd5b3073ffffffffffffffffffffffffffffffffffffffff168173ffffffffffffffffffffffffffffffffffffffff161415610594576040517f08c379a000000000000000000000000000000000000000000000000000000000815260040161058b90613139565b60405180910390fd5b81600e816040516105a59190612dcb565b908152602001604051809103902060009054906101000a900460ff16610600576040517f08c379a00000000000000000000000000000000000000000000000000000000081526004016105f790612fb9565b60405180910390fd5b600460009054906101000a900473ffffffffffffffffffffffffffffffffffffffff1673ffffffffffffffffffffffffffffffffffffffff163373ffffffffffffffffffffffffffffffffffffffff1614610690576040517f08c379a000000000000000000000000000000000000000000000000000000000815260040161068790613059565b60405180910390fd5b600160038111156106a4576106a36135ba565b5b600d846040516106b49190612dcb565b908152602001604051809103902060010160009054906101000a900460ff1660038111156106e5576106e46135ba565b5b14610725576040517f08c379a000000000000000000000000000000000000000000000000000000000815260040161071c90612f99565b60405180910390fd5b61072e83611e8d565b61076d576040517f08c379a0000000000000000000000000000000000000000000000000000000008152600401610764906130b9565b60405180910390fd5b6107768361218a565b6107b5576040517f08c379a00000000000000000000000000000000000000000000000000000000081526004016107ac906130d9565b60405180910390fd5b600d836040516107c59190612dcb565b9081526020016040518091039020600201544210610818576040517f08c379a000000000000000000000000000000000000000000000000000000000815260040161080f90613079565b60405180910390fd5b600660009054906101000a900473ffffffffffffffffffffffffffffffffffffffff1673ffffffffffffffffffffffffffffffffffffffff166108fc6009549081150290604051600060405180830381858888f19350505050158015610882573d6000803e3d6000fd5b506002600d846040516108959190612dcb565b908152602001604051809103902060010160006101000a81548160ff021916908360038111156108c8576108c76135ba565b5b0217905550505050565b60008173ffffffffffffffffffffffffffffffffffffffff16319050919050565b60608060606000600c8054905067ffffffffffffffff81111561091957610918613647565b5b6040519080825280602002602001820160405280156109475781602001602082028036833780820191505090505b5090506000600c8054905067ffffffffffffffff81111561096b5761096a613647565b5b60405190808252806020026020018201604052801561099e57816020015b60608152602001906001900390816109895790505b50905060005b600c80549050811015610dbd57600d600c82815481106109c7576109c6613618565b5b906000526020600020016040516109de9190612de2565b908152602001604051809103902060000154838281518110610a0357610a02613618565b5b60200260200101818152505060006003811115610a2357610a226135ba565b5b600d600c8381548110610a3957610a38613618565b5b90600052602060002001604051610a509190612de2565b908152602001604051809103902060010160009054906101000a900460ff166003811115610a8157610a806135ba565b5b1415610ae0576040518060400160405280601081526020017f70726f64756374206f6e206f6666657200000000000000000000000000000000815250828281518110610ad057610acf613618565b5b6020026020010181905250610daa565b60016003811115610af457610af36135ba565b5b600d600c8381548110610b0a57610b09613618565b5b90600052602060002001604051610b219190612de2565b908152602001604051809103902060010160009054906101000a900460ff166003811115610b5257610b516135ba565b5b1415610bb1576040518060400160405280600d81526020017f6465706f7369742074616b656e00000000000000000000000000000000000000815250828281518110610ba157610ba0613618565b5b6020026020010181905250610da9565b60026003811115610bc557610bc46135ba565b5b600d600c8381548110610bdb57610bda613618565b5b90600052602060002001604051610bf29190612de2565b908152602001604051809103902060010160009054906101000a900460ff166003811115610c2357610c226135ba565b5b1415610c82576040518060400160405280601281526020017f7061796d656e74207375636365737366756c0000000000000000000000000000815250828281518110610c7257610c71613618565b5b6020026020010181905250610da8565b600380811115610c9557610c946135ba565b5b600d600c8381548110610cab57610caa613618565b5b90600052602060002001604051610cc29190612de2565b908152602001604051809103902060010160009054906101000a900460ff166003811115610cf357610cf26135ba565b5b1415610d52576040518060400160405280601081526020017f7061796d656e742072657475726e656400000000000000000000000000000000815250828281518110610d4257610d41613618565b5b6020026020010181905250610da7565b6040518060400160405280601481526020017f756e6b6e6f776e20657363726f77207374617465000000000000000000000000815250828281518110610d9b57610d9a613618565b5b60200260200101819052505b5b5b5b8080610db590613513565b9150506109a4565b50600c828282805480602002602001604051908101604052809291908181526020016000905b82821015610e8f578382906000526020600020018054610e02906134b0565b80601f0160208091040260200160405190810160405280929190818152602001828054610e2e906134b0565b8015610e7b5780601f10610e5057610100808354040283529160200191610e7b565b820191906000526020600020905b815481529060010190602001808311610e5e57829003601f168201915b505050505081526020019060010190610de3565b5050505092509450945094505050909192565b610eaa612377565b610eb460006123f5565b565b600560009054906101000a900473ffffffffffffffffffffffffffffffffffffffff16600073ffffffffffffffffffffffffffffffffffffffff168173ffffffffffffffffffffffffffffffffffffffff161415610f49576040517f08c379a0000000000000000000000000000000000000000000000000000000008152600401610f4090613019565b60405180910390fd5b3073ffffffffffffffffffffffffffffffffffffffff168173ffffffffffffffffffffffffffffffffffffffff161415610fb8576040517f08c379a0000000000000000000000000000000000000000000000000000000008152600401610faf90613139565b60405180910390fd5b81600e81604051610fc99190612dcb565b908152602001604051809103902060009054906101000a900460ff16611024576040517f08c379a000000000000000000000000000000000000000000000000000000000815260040161101b90612fb9565b60405180910390fd5b600460009054906101000a900473ffffffffffffffffffffffffffffffffffffffff1673ffffffffffffffffffffffffffffffffffffffff163373ffffffffffffffffffffffffffffffffffffffff16146110b4576040517f08c379a00000000000000000000000000000000000000000000000000000000081526004016110ab90612ff9565b60405180910390fd5b600160038111156110c8576110c76135ba565b5b600d846040516110d89190612dcb565b908152602001604051809103902060010160009054906101000a900460ff166003811115611109576111086135ba565b5b14611149576040517f08c379a000000000000000000000000000000000000000000000000000000000815260040161114090612f99565b60405180910390fd5b600d836040516111599190612dcb565b90815260200160405180910390206002015442116111ac576040517f08c379a00000000000000000000000000000000000000000000000000000000081526004016111a3906130f9565b60405180910390fd5b600560009054906101000a900473ffffffffffffffffffffffffffffffffffffffff1673ffffffffffffffffffffffffffffffffffffffff166108fc6009549081150290604051600060405180830381858888f19350505050158015611216573d6000803e3d6000fd5b506003600d846040516112299190612dcb565b908152602001604051809103902060010160006101000a81548160ff0219169083600381111561125c5761125b6135ba565b5b0217905550505050565b600b60009054906101000a900473ffffffffffffffffffffffffffffffffffffffff1681565b600e818051602081018201805184825260208301602085012081835280955050505050506000915054906101000a900460ff1681565b60008060009054906101000a900473ffffffffffffffffffffffffffffffffffffffff16905090565b6000606082600e816040516113009190612dcb565b908152602001604051809103902060009054906101000a900460ff1661135b576040517f08c379a000000000000000000000000000000000000000000000000000000000815260040161135290612fb9565b60405180910390fd5b606060006003811115611371576113706135ba565b5b600d866040516113819190612dcb565b908152602001604051809103902060010160009054906101000a900460ff1660038111156113b2576113b16135ba565b5b14156113f5576040518060400160405280601081526020017f70726f64756374206f6e206f666665720000000000000000000000000000000081525090506115f8565b60016003811115611409576114086135ba565b5b600d866040516114199190612dcb565b908152602001604051809103902060010160009054906101000a900460ff16600381111561144a576114496135ba565b5b141561148d576040518060400160405280600d81526020017f6465706f7369742074616b656e0000000000000000000000000000000000000081525090506115f7565b600260038111156114a1576114a06135ba565b5b600d866040516114b19190612dcb565b908152602001604051809103902060010160009054906101000a900460ff1660038111156114e2576114e16135ba565b5b1415611525576040518060400160405280601281526020017f7061796d656e74207375636365737366756c000000000000000000000000000081525090506115f6565b600380811115611538576115376135ba565b5b600d866040516115489190612dcb565b908152602001604051809103902060010160009054906101000a900460ff166003811115611579576115786135ba565b5b14156115bc576040518060400160405280601081526020017f7061796d656e742072657475726e65640000000000000000000000000000000081525090506115f5565b6040518060400160405280601481526020017f756e6b6e6f776e20657363726f7720737461746500000000000000000000000081525090505b5b5b5b600d856040516116089190612dcb565b90815260200160405180910390206000015481935093505050915091565b60085481565b600e8260405161163c9190612dcb565b908152602001604051809103902060009054906101000a900460ff1615611698576040517f08c379a000000000000000000000000000000000000000000000000000000000815260040161168f90612fd9565b60405180910390fd5b600b60009054906101000a900473ffffffffffffffffffffffffffffffffffffffff1673ffffffffffffffffffffffffffffffffffffffff16630ad5b505836040518263ffffffff1660e01b81526004016116f39190612ef7565b60206040518083038186803b15801561170b57600080fd5b505afa15801561171f573d6000803e3d6000fd5b505050506040513d601f19601f820116820180604052508101906117439190612739565b611782576040517f08c379a000000000000000000000000000000000000000000000000000000000815260040161177990613039565b60405180910390fd5b61178a6124ed565b818160000181815250506000816020019060038111156117ad576117ac6135ba565b5b908160038111156117c1576117c06135ba565b5b8152505080600d846040516117d69190612dcb565b90815260200160405180910390206000820151816000015560208201518160010160006101000a81548160ff02191690836003811115611819576118186135ba565b5b0217905550604082015181600201559050506001600e8460405161183d9190612dcb565b908152602001604051809103902060006101000a81548160ff021916908315150217905550600c8390806001815401808255809150506001900390600052602060002001600090919091909150908051906020019061189d929190612520565b50600b60009054906101000a900473ffffffffffffffffffffffffffffffffffffffff1673ffffffffffffffffffffffffffffffffffffffff16630d202ced84600160009054906101000a900473ffffffffffffffffffffffffffffffffffffffff166040518363ffffffff1660e01b815260040161191d929190612f19565b600060405180830381600087803b15801561193757600080fd5b505af115801561194b573d6000803e3d6000fd5b50505050505050565b600460009054906101000a900473ffffffffffffffffffffffffffffffffffffffff16600073ffffffffffffffffffffffffffffffffffffffff168173ffffffffffffffffffffffffffffffffffffffff1614156119e7576040517f08c379a00000000000000000000000000000000000000000000000000000000081526004016119de90613019565b60405180910390fd5b3073ffffffffffffffffffffffffffffffffffffffff168173ffffffffffffffffffffffffffffffffffffffff161415611a56576040517f08c379a0000000000000000000000000000000000000000000000000000000008152600401611a4d90613139565b60405180910390fd5b600660009054906101000a900473ffffffffffffffffffffffffffffffffffffffff16600073ffffffffffffffffffffffffffffffffffffffff168173ffffffffffffffffffffffffffffffffffffffff161415611ae9576040517f08c379a0000000000000000000000000000000000000000000000000000000008152600401611ae090613019565b60405180910390fd5b3073ffffffffffffffffffffffffffffffffffffffff168173ffffffffffffffffffffffffffffffffffffffff161415611b58576040517f08c379a0000000000000000000000000000000000000000000000000000000008152600401611b4f90613139565b60405180910390fd5b600d83604051611b689190612dcb565b908152602001604051809103902060000154600754611b879190613310565b341015611bc9576040517f08c379a0000000000000000000000000000000000000000000000000000000008152600401611bc090613119565b60405180910390fd5b60006003811115611bdd57611bdc6135ba565b5b600d84604051611bed9190612dcb565b908152602001604051809103902060010160009054906101000a900460ff166003811115611c1e57611c1d6135ba565b5b14611c5e576040517f08c379a0000000000000000000000000000000000000000000000000000000008152600401611c5590613159565b60405180910390fd5b6001600d84604051611c709190612dcb565b908152602001604051809103902060010160006101000a81548160ff02191690836003811115611ca357611ca26135ba565b5b0217905550600a5442611cb69190613310565b600d84604051611cc69190612dcb565b908152602001604051809103902060020181905550611d10600a600d85604051611cf09190612dcb565b9081526020016040518091039020600001546124b990919063ffffffff16565b600881905550611d4c600854600d85604051611d2c9190612dcb565b9081526020016040518091039020600001546124cf90919063ffffffff16565b600981905550600460009054906101000a900473ffffffffffffffffffffffffffffffffffffffff1673ffffffffffffffffffffffffffffffffffffffff166108fc6007549081150290604051600060405180830381858888f19350505050158015611dbc573d6000803e3d6000fd5b50600660009054906101000a900473ffffffffffffffffffffffffffffffffffffffff1673ffffffffffffffffffffffffffffffffffffffff166108fc6008549081150290604051600060405180830381858888f19350505050158015611e27573d6000803e3d6000fd5b507f6b4150c430f0b9b9df0f255d6761fd17eefed34257973ab988203c832edbcc2383600d85604051611e5a9190612dcb565b908152602001604051809103902060000154604051611e7a929190612f49565b60405180910390a1505050565b60095481565b600081600e81604051611ea09190612dcb565b908152602001604051809103902060009054906101000a900460ff16611efb576040517f08c379a0000000000000000000000000000000000000000000000000000000008152600401611ef290612fb9565b60405180910390fd5b6000806000806000600b60009054906101000a900473ffffffffffffffffffffffffffffffffffffffff1673ffffffffffffffffffffffffffffffffffffffff1663c5573d46896040518263ffffffff1660e01b8152600401611f5e9190612ef7565b60006040518083038186803b158015611f7657600080fd5b505afa158015611f8a573d6000803e3d6000fd5b505050506040513d6000823e3d601f19601f82011682018060405250810190611fb3919061280b565b94509450945094509450604051602001611fcc90612df9565b6040516020818303038152906040528051906020012083604051602001611ff39190612dcb565b60405160208183030381529060405280519060200120141561201d57600196505050505050612027565b6000965050505050505b50919050565b6000806000600460009054906101000a900473ffffffffffffffffffffffffffffffffffffffff1673ffffffffffffffffffffffffffffffffffffffff163373ffffffffffffffffffffffffffffffffffffffff161461208c57600080fd5b600460009054906101000a900473ffffffffffffffffffffffffffffffffffffffff16600560009054906101000a900473ffffffffffffffffffffffffffffffffffffffff16600660009054906101000a900473ffffffffffffffffffffffffffffffffffffffff16925092509250909192565b60075481565b61210e612377565b600073ffffffffffffffffffffffffffffffffffffffff168173ffffffffffffffffffffffffffffffffffffffff16141561217e576040517f08c379a000000000000000000000000000000000000000000000000000000000815260040161217590612f79565b60405180910390fd5b612187816123f5565b50565b600081600e8160405161219d9190612dcb565b908152602001604051809103902060009054906101000a900460ff166121f8576040517f08c379a00000000000000000000000000000000000000000000000000000000081526004016121ef90612fb9565b60405180910390fd5b6000806000806000600b60009054906101000a900473ffffffffffffffffffffffffffffffffffffffff1673ffffffffffffffffffffffffffffffffffffffff1663c5573d46896040518263ffffffff1660e01b815260040161225b9190612ef7565b60006040518083038186803b15801561227357600080fd5b505afa158015612287573d6000803e3d6000fd5b505050506040513d6000823e3d601f19601f820116820180604052508101906122b0919061280b565b945094509450945094506040516020016122c990612e0e565b60405160208183030381529060405280519060200120826040516020016122f09190612dcb565b60405160208183030381529060405280519060200120141561231a57600196505050505050612324565b6000965050505050505b50919050565b600d818051602081018201805184825260208301602085012081835280955050505050506000915090508060000154908060010160009054906101000a900460ff16908060020154905083565b61237f6124e5565b73ffffffffffffffffffffffffffffffffffffffff1661239d6112c2565b73ffffffffffffffffffffffffffffffffffffffff16146123f3576040517f08c379a00000000000000000000000000000000000000000000000000000000081526004016123ea90613099565b60405180910390fd5b565b60008060009054906101000a900473ffffffffffffffffffffffffffffffffffffffff169050816000806101000a81548173ffffffffffffffffffffffffffffffffffffffff021916908373ffffffffffffffffffffffffffffffffffffffff1602179055508173ffffffffffffffffffffffffffffffffffffffff168173ffffffffffffffffffffffffffffffffffffffff167f8be0079c531659141344cd1fd0a4f28419497f9722a3daafe3b4186f6b6457e060405160405180910390a35050565b600081836124c79190613366565b905092915050565b600081836124dd9190613397565b905092915050565b600033905090565b60405180606001604052806000815260200160006003811115612513576125126135ba565b5b8152602001600081525090565b82805461252c906134b0565b90600052602060002090601f01602090048101928261254e5760008555612595565b82601f1061256757805160ff1916838001178555612595565b82800160010185558215612595579182015b82811115612594578251825591602001919060010190612579565b5b5090506125a291906125a6565b5090565b5b808211156125bf5760008160009055506001016125a7565b5090565b60006125d66125d184613220565b6131fb565b9050828152602081018484840111156125f2576125f161367b565b5b6125fd84828561346e565b509392505050565b600061261861261384613220565b6131fb565b9050828152602081018484840111156126345761263361367b565b5b61263f84828561347d565b509392505050565b60008135905061265681613b59565b92915050565b60008151905061266b81613b59565b92915050565b60008151905061268081613b70565b92915050565b600082601f83011261269b5761269a613676565b5b81356126ab8482602086016125c3565b91505092915050565b600082601f8301126126c9576126c8613676565b5b81516126d9848260208601612605565b91505092915050565b6000813590506126f181613b87565b92915050565b60008151905061270681613b87565b92915050565b60006020828403121561272257612721613685565b5b600061273084828501612647565b91505092915050565b60006020828403121561274f5761274e613685565b5b600061275d84828501612671565b91505092915050565b60006020828403121561277c5761277b613685565b5b600082013567ffffffffffffffff81111561279a57612799613680565b5b6127a684828501612686565b91505092915050565b600080604083850312156127c6576127c5613685565b5b600083013567ffffffffffffffff8111156127e4576127e3613680565b5b6127f085828601612686565b9250506020612801858286016126e2565b9150509250929050565b600080600080600060a0868803121561282757612826613685565b5b6000612835888289016126f7565b955050602086015167ffffffffffffffff81111561285657612855613680565b5b612862888289016126b4565b945050604086015167ffffffffffffffff81111561288357612882613680565b5b61288f888289016126b4565b935050606086015167ffffffffffffffff8111156128b0576128af613680565b5b6128bc888289016126b4565b92505060806128cd8882890161265c565b9150509295509295909350565b60006128e68383612a15565b905092915050565b60006128fa8383612dad565b60208301905092915050565b61290f816133cb565b82525050565b600061292082613286565b61292a81856132c1565b93508360208202850161293c85613251565b8060005b85811015612978578484038952815161295985826128da565b9450612964836132a7565b925060208a01995050600181019050612940565b50829750879550505050505092915050565b600061299582613291565b61299f81856132d2565b93506129aa83613261565b8060005b838110156129db5781516129c288826128ee565b97506129cd836132b4565b9250506001810190506129ae565b5085935050505092915050565b6129f1816133dd565b82525050565b612a0081613426565b82525050565b612a0f81613438565b82525050565b6000612a208261329c565b612a2a81856132e3565b9350612a3a81856020860161347d565b612a438161368a565b840191505092915050565b6000612a598261329c565b612a6381856132f4565b9350612a7381856020860161347d565b612a7c8161368a565b840191505092915050565b6000612a928261329c565b612a9c8185613305565b9350612aac81856020860161347d565b80840191505092915050565b60008154612ac5816134b0565b612acf8186613305565b94506001821660008114612aea5760018114612afb57612b2e565b60ff19831686528186019350612b2e565b612b0485613271565b60005b83811015612b2657815481890152600182019150602081019050612b07565b838801955050505b50505092915050565b6000612b446026836132f4565b9150612b4f8261369b565b604082019050919050565b6000612b676022836132f4565b9150612b72826136ea565b604082019050919050565b6000612b8a6017836132f4565b9150612b9582613739565b602082019050919050565b6000612bad601283613305565b9150612bb882613762565b601282019050919050565b6000612bd0601b836132f4565b9150612bdb8261378b565b602082019050919050565b6000612bf36028836132f4565b9150612bfe826137b4565b604082019050919050565b6000612c166026836132f4565b9150612c2182613803565b604082019050919050565b6000612c39601c836132f4565b9150612c4482613852565b602082019050919050565b6000612c5c6028836132f4565b9150612c678261387b565b604082019050919050565b6000612c7f6034836132f4565b9150612c8a826138ca565b604082019050919050565b6000612ca26020836132f4565b9150612cad82613919565b602082019050919050565b6000612cc56038836132f4565b9150612cd082613942565b604082019050919050565b6000612ce86033836132f4565b9150612cf382613991565b604082019050919050565b6000612d0b603c836132f4565b9150612d16826139e0565b604082019050919050565b6000612d2e604a836132f4565b9150612d3982613a2f565b606082019050919050565b6000612d51601083613305565b9150612d5c82613aa4565b601082019050919050565b6000612d746025836132f4565b9150612d7f82613acd565b604082019050919050565b6000612d976018836132f4565b9150612da282613b1c565b602082019050919050565b612db68161341c565b82525050565b612dc58161341c565b82525050565b6000612dd78284612a87565b915081905092915050565b6000612dee8284612ab8565b915081905092915050565b6000612e0482612ba0565b9150819050919050565b6000612e1982612d44565b9150819050919050565b6000602082019050612e386000830184612906565b92915050565b6000606082019050612e536000830186612906565b612e606020830185612906565b612e6d6040830184612906565b949350505050565b60006060820190508181036000830152612e8f8186612915565b90508181036020830152612ea3818561298a565b90508181036040830152612eb78184612915565b9050949350505050565b6000602082019050612ed660008301846129e8565b92915050565b6000602082019050612ef160008301846129f7565b92915050565b60006020820190508181036000830152612f118184612a4e565b905092915050565b60006040820190508181036000830152612f338185612a4e565b9050612f426020830184612906565b9392505050565b60006040820190508181036000830152612f638185612a4e565b9050612f726020830184612dbc565b9392505050565b60006020820190508181036000830152612f9281612b37565b9050919050565b60006020820190508181036000830152612fb281612b5a565b9050919050565b60006020820190508181036000830152612fd281612b7d565b9050919050565b60006020820190508181036000830152612ff281612bc3565b9050919050565b6000602082019050818103600083015261301281612be6565b9050919050565b6000602082019050818103600083015261303281612c09565b9050919050565b6000602082019050818103600083015261305281612c2c565b9050919050565b6000602082019050818103600083015261307281612c4f565b9050919050565b6000602082019050818103600083015261309281612c72565b9050919050565b600060208201905081810360008301526130b281612c95565b9050919050565b600060208201905081810360008301526130d281612cb8565b9050919050565b600060208201905081810360008301526130f281612cdb565b9050919050565b6000602082019050818103600083015261311281612cfe565b9050919050565b6000602082019050818103600083015261313281612d21565b9050919050565b6000602082019050818103600083015261315281612d67565b9050919050565b6000602082019050818103600083015261317281612d8a565b9050919050565b600060208201905061318e6000830184612dbc565b92915050565b60006060820190506131a96000830186612dbc565b6131b66020830185612a06565b6131c36040830184612dbc565b949350505050565b60006040820190506131e06000830185612dbc565b81810360208301526131f28184612a4e565b90509392505050565b6000613205613216565b905061321182826134e2565b919050565b6000604051905090565b600067ffffffffffffffff82111561323b5761323a613647565b5b6132448261368a565b9050602081019050919050565b6000819050602082019050919050565b6000819050602082019050919050565b60008190508160005260206000209050919050565b600081519050919050565b600081519050919050565b600081519050919050565b6000602082019050919050565b6000602082019050919050565b600082825260208201905092915050565b600082825260208201905092915050565b600082825260208201905092915050565b600082825260208201905092915050565b600081905092915050565b600061331b8261341c565b91506133268361341c565b9250827fffffffffffffffffffffffffffffffffffffffffffffffffffffffffffffffff0382111561335b5761335a61355c565b5b828201905092915050565b60006133718261341c565b915061337c8361341c565b92508261338c5761338b61358b565b5b828204905092915050565b60006133a28261341c565b91506133ad8361341c565b9250828210156133c0576133bf61355c565b5b828203905092915050565b60006133d6826133fc565b9050919050565b60008115159050919050565b60008190506133f782613b45565b919050565b600073ffffffffffffffffffffffffffffffffffffffff82169050919050565b6000819050919050565b60006134318261344a565b9050919050565b6000613443826133e9565b9050919050565b60006134558261345c565b9050919050565b6000613467826133fc565b9050919050565b82818337600083830152505050565b60005b8381101561349b578082015181840152602081019050613480565b838111156134aa576000848401525b50505050565b600060028204905060018216806134c857607f821691505b602082108114156134dc576134db6135e9565b5b50919050565b6134eb8261368a565b810181811067ffffffffffffffff8211171561350a57613509613647565b5b80604052505050565b600061351e8261341c565b91507fffffffffffffffffffffffffffffffffffffffffffffffffffffffffffffffff8214156135515761355061355c565b5b600182019050919050565b7f4e487b7100000000000000000000000000000000000000000000000000000000600052601160045260246000fd5b7f4e487b7100000000000000000000000000000000000000000000000000000000600052601260045260246000fd5b7f4e487b7100000000000000000000000000000000000000000000000000000000600052602160045260246000fd5b7f4e487b7100000000000000000000000000000000000000000000000000000000600052602260045260246000fd5b7f4e487b7100000000000000000000000000000000000000000000000000000000600052603260045260246000fd5b7f4e487b7100000000000000000000000000000000000000000000000000000000600052604160045260246000fd5b600080fd5b600080fd5b600080fd5b600080fd5b6000601f19601f8301169050919050565b7f4f776e61626c653a206e6577206f776e657220697320746865207a65726f206160008201527f6464726573730000000000000000000000000000000000000000000000000000602082015250565b7f4e6f206465706f73697420666f756e6420666f7220746869732070726f64756360008201527f742e000000000000000000000000000000000000000000000000000000000000602082015250565b7f50726f6475637420646f6573206e6f742065786973742e000000000000000000600082015250565b7f7061636b6167696e672076657269666965640000000000000000000000000000600082015250565b7f50726f6475637420697320616c7265616479206f6666657265642e0000000000600082015250565b7f4f6e6c79206167656e742063616e2063616c6c2074686520726566756e64206660008201527f756e6374696f6e2e000000000000000000000000000000000000000000000000602082015250565b7f526563697069656e742073686f756c64206861766520612076616c696420616460008201527f6472657373210000000000000000000000000000000000000000000000000000602082015250565b7f50726f6475637420746f6b656e206973206e6f74206d696e7465642e00000000600082015250565b7f4f6e6c79206167656e742063616e2063616c6c207468652072656465656d206660008201527f756e6374696f6e2e000000000000000000000000000000000000000000000000602082015250565b7f53656c6c65722063616e206f6e6c792072656465656d206265666f726520746860008201527f65207370656369666965642074696d656f75742e000000000000000000000000602082015250565b7f4f776e61626c653a2063616c6c6572206973206e6f7420746865206f776e6572600082015250565b7f53656c6c65722063616e6e6f742072656465656d207061796d656e742069662060008201527f7061636b6167696e6720697320756e76657269666965642e0000000000000000602082015250565b7f53656c6c65722063616e6e6f742072656465656d207061796d656e74206f662060008201527f756e76657269666965642070726f647563742e00000000000000000000000000602082015250565b7f42757965722063616e206f6e6c7920636c61696d2074686520726566756e642060008201527f616674657220746865207370656369666965642074696d656f75742e00000000602082015250565b7f506c65617365206d616b65207375726520796f7572206465706f73697420636f60008201527f7665727320626f7468207468652070726f6475637420707269636520616e642060208201527f6167656e74206665652100000000000000000000000000000000000000000000604082015250565b7f70726f6475637420766572696669656400000000000000000000000000000000600082015250565b7f526563697069656e742073686f756c64206e6f742062652074686520636f6e7460008201527f7261637421000000000000000000000000000000000000000000000000000000602082015250565b7f50726f64756374206973206e6f74206f6e206f66666572210000000000000000600082015250565b60048110613b5657613b556135ba565b5b50565b613b62816133cb565b8114613b6d57600080fd5b50565b613b79816133dd565b8114613b8457600080fd5b50565b613b908161341c565b8114613b9b57600080fd5b5056fea2646970667358221220114386f652392dabe8cf17c8c8eaafec83b3a7598f184838495bfc90cfbcde6f64736f6c63430008070033",
  "immutableReferences": {},
  "source": "// SPDX-License-Identifier: UNLICENSED\npragma solidity ^0.8.0;\n\nimport \"../node_modules/@openzeppelin/contracts/utils/math/SafeMath.sol\";\nimport \"../node_modules/@openzeppelin/contracts/access/Ownable.sol\";\nimport \"./DigitalTwin.sol\";\n\n/**\n * @title EscrowService Contract, forked from https://github.com/AleRapchan/escrow-service\n * @author Yining Hu\n * @notice Building a single role access control Escrow Service using OpenZeppelin Escrow and RBAC\n * @dev contract currently assume one buyer account and one seller account, should develop an additional wallet contract and allow new user registration\n * @dev To do: to implement multi-sig, time-based escrow\n * @dev To do: to add a product existence modifier, and a role modifier\n * @dev To do: the easiest would be to transfer both money and ownership of the product to the agent \n * @dev then to prevent agent from taking everything, agent needs to deposit, which can be slashed if caught faulty\n */\ncontract Escrow is Ownable { //Ownable, \n\n    /**\n     * @dev Roles are referred to by their bytes32 identifier. \n     * @dev These should be exposed in the external API and be unique.\n     */\n\n    address agentaddr;\n    address buyeraddr;\n    address selleraddr;\n\n    address payable agent;\n    address payable buyer;\n    address payable seller;\n    \n    uint256 public fee;\n    uint256 public initial_payment;\n    uint256 public remaining_payment;\n\n    uint256 timeout;\n\n    using SafeMath for uint256;\n\n    DigitalTwin public digitaltwin;\n    \n    enum EscrowState { OFFERED, DEPOSITTAKEN, SELLERREDEEMED, BUYERDENIED } //PAYMENTSUCCESSFUL, PAYMENTREVERTED\n\n    struct Product{\n        uint256 price;\n        EscrowState state;\n        uint256 timeout; // timeout for payment settlement\n    }\n\n    string[] allproducts;\n    mapping (string => Product) public stock; // whole stock of offered items for sale in escrow arragement\n    mapping(string => bool) public productExists;\n\n    event DepositTaken(string tkname, uint256 price);\n\n    /**\n     * @dev before setting up any user wallet, all buyers/sellers use a single buyer/seller address, which are maintained by Beston.\n     */\n    constructor(DigitalTwin _digitaltwin, address _buyer_address, address _seller_address) {\n        digitaltwin = _digitaltwin;\n\n        agentaddr = msg.sender; // agent is the creator of the contract\n        buyeraddr = _buyer_address;\n        selleraddr = _seller_address;\n\n        agent = payable(agentaddr);\n        buyer = payable(buyeraddr);\n        seller= payable(selleraddr);\n        fee = 1000000000; // 1e9, based on estimated agent cost\n\n        timeout = 3 minutes;\n    }\n\n    modifier validDestination(address to) {\n        require(to != address(0x0), \"Recipient should have a valid address!\");\n        require(to != address(this), \"Recipient should not be the contract!\");\n        _;\n    }\n\n    modifier validProduct(string memory _tkname) {\n        require(productExists[_tkname], \"Product does not exist.\");\n        _;\n    }\n\n    function offer(string memory _tkname , uint256 _price) public {\n        require(!productExists[_tkname], \"Product is already offered.\");\n        require(digitaltwin.tkExists(_tkname), \"Product token is not minted.\");\n        // should also require the caller to be the owner of the product\n\n        Product memory product;\n        product.price = _price; /// @dev double check the conversion in Polygon\n        product.state = EscrowState.OFFERED;\n        stock[_tkname] = product;\n        productExists[_tkname] = true;\n        allproducts.push(_tkname);\n\n        // transfer the token ownership to the agent\n        digitaltwin.transferByName(_tkname,agentaddr);\n    }\n    \n    /**\n     * @notice Buyer can make a deposit to products on offer\n     * @dev Partial payment is sent to the seller, however, can change depending on the agreement\n     */\n    function BuyerDeposit(string memory _tkname) external payable validDestination(agent) validDestination(seller) {\n        require (msg.value >= fee + stock[_tkname].price, \"Please make sure your deposit covers both the product price and agent fee!\");\n        require (stock[_tkname].state == EscrowState.OFFERED , \"Product is not on offer!\"); // this also blocks buyer from making duplicatd deposit\n\n        stock[_tkname].state = EscrowState.DEPOSITTAKEN;\n        stock[_tkname].timeout = block.timestamp + timeout; // add a timeout for settlement when buyer sends deposit\n\n        initial_payment = stock[_tkname].price.div(10); // initial payment set to be 10% of the total price\n        remaining_payment = stock[_tkname].price.sub(initial_payment);\n\n        agent.transfer(fee);\n        seller.transfer(initial_payment);\n\n        emit DepositTaken(_tkname, stock[_tkname].price);\n    }\n\n    function VerifyPackaging(string memory _tkname) public view validProduct(_tkname) returns (bool) {\n        (uint256 id, string memory metadata, string memory rstatus, string memory vstatus, address addr) = digitaltwin.queryToken(_tkname);\n        if (keccak256(abi.encodePacked(rstatus)) == keccak256(abi.encodePacked(\"packaging verified\"))) {\n            return true;\n        } else {\n            return false;\n        }\n    }\n\n    function VerifyProduct(string memory _tkname) public view validProduct(_tkname) returns (bool) {\n        (uint256 id, string memory metadata, string memory rstatus, string memory vstatus, address addr) = digitaltwin.queryToken(_tkname);\n        if (keccak256(abi.encodePacked(vstatus)) == keccak256(abi.encodePacked(\"product verified\"))) {\n            return true;\n        } else {\n            return false;\n        }\n    }\n\n    /**\n     * @notice Buyer can approve the payment with or without verification\n     * @dev when implementing the api and front end, buyer should have the option to proceed without or with verification\n     */ \n    // function BuyerApprove(string memory _tkname) public validDestination(seller) validProduct(_tkname) {\n    //     require (msg.sender == buyer);\n    //     require (stock[_tkname].state == EscrowState.DEPOSITTAKEN, \"Buyer cannot approve without a deposit!\");\n    //     require (block.timestamp < stock[_tkname].timeout);\n    //     seller.transfer(remaining_payment);\n    //     stock[_tkname].state = EscrowState.BUYERAPPROVED;\n    // }\n\n    /**\n     * @notice Seller can redeem with 2 verifications\n     * Achieves the same payment result as BuyerApprove, but requires seller to pay for execution\n     */\n    function AgentApprove(string memory _tkname) public validDestination(seller) validProduct(_tkname) {\n        // require (msg.sender == seller, \"Only seller can call the redeem function.\");\n        require (msg.sender == agent, \"Only agent can call the redeem function.\");\n        require (stock[_tkname].state == EscrowState.DEPOSITTAKEN, \"No deposit found for this product.\");\n        require (VerifyPackaging(_tkname), \"Seller cannot redeem payment if packaging is unverified.\");\n        require (VerifyProduct(_tkname), \"Seller cannot redeem payment of unverified product.\");\n        require (block.timestamp < stock[_tkname].timeout, \"Seller can only redeem before the specified timeout.\");\n        seller.transfer(remaining_payment);\n        stock[_tkname].state = EscrowState.SELLERREDEEMED;\n    }\n\n    /**\n     * @notice Buyer can deny the payment upon unsatisfactory verification result or for other reasons.\n     */\n    function AgentDeny(string memory _tkname) public validDestination(buyer) validProduct(_tkname) {\n        // require (msg.sender == buyer, \"Only buyer can call the deny function.\");\n        require (msg.sender == agent, \"Only agent can call the refund function.\");\n        require (stock[_tkname].state == EscrowState.DEPOSITTAKEN, \"No deposit found for this product.\");\n        require (block.timestamp > stock[_tkname].timeout, \"Buyer can only claim the refund after the specified timeout.\");\n        buyer.transfer(remaining_payment);\n        stock[_tkname].state = EscrowState.BUYERDENIED;\n    }\n\n    /**\n     * @notice getters\n     */\n    function GetUsers() public view returns(address, address, address) {\n        require (msg.sender == agent);\n        return (agent, buyer, seller);\n    }\n\n    function QueryProduct(string memory _tkname) public view validProduct(_tkname) returns(uint256, string memory) {\n        string memory state;\n\n        if (stock[_tkname].state == EscrowState.OFFERED) {\n            state = \"product on offer\";\n        } else if (stock[_tkname].state == EscrowState.DEPOSITTAKEN) {\n            state = \"deposit taken\";\n        } else if (stock[_tkname].state == EscrowState.SELLERREDEEMED) {\n            state = \"payment successful\";\n        } else if (stock[_tkname].state == EscrowState.BUYERDENIED) {\n            state = \"payment returned\";\n        } else {\n            state = \"unknown escrow state\";\n        }\n\n        return (stock[_tkname].price, state);\n    }\n\n    function QueryAllProducts() \n        public\n        view\n        returns\n    (\n        string[] memory, \n        uint256[] memory, \n        string[] memory\n    )\n    {\n        uint256[] memory prices = new uint256[](allproducts.length);\n        string[] memory states = new string[](allproducts.length);\n\n        for(uint i=0; i<allproducts.length; i++){\n            prices[i] = stock[allproducts[i]].price;\n\n            if (stock[allproducts[i]].state == EscrowState.OFFERED) {\n                states[i] = \"product on offer\";\n            } else if (stock[allproducts[i]].state == EscrowState.DEPOSITTAKEN) {\n                states[i] = \"deposit taken\";\n            } else if (stock[allproducts[i]].state == EscrowState.SELLERREDEEMED) {\n                states[i] = \"payment successful\";\n            } else if (stock[allproducts[i]].state == EscrowState.BUYERDENIED) {\n                states[i] = \"payment returned\";\n            } else {\n                states[i] = \"unknown escrow state\";\n            }\n        }\n\n        return (allproducts, prices, states);\n    }\n\n    function GetBalance(address addr) public view returns(uint256) {\n        return addr.balance;\n    }\n}",
  "sourcePath": "/home/yih/Documents/dev/beston-dapps/contracts/Escrow.sol",
  "compiler": {
    "name": "solc",
    "version": "0.8.7+commit.e28d00a7.Emscripten.clang"
  },
  "schemaVersion": "3.4.1",
  "updatedAt": "2022-11-15T02:13:53.935Z",
  "networkType": "ethereum",
  "devdoc": {
    "author": "Yining Hu",
    "details": "contract currently assume one buyer account and one seller account, should develop an additional wallet contract and allow new user registrationTo do: to implement multi-sig, time-based escrowTo do: to add a product existence modifier, and a role modifierTo do: the easiest would be to transfer both money and ownership of the product to the agent then to prevent agent from taking everything, agent needs to deposit, which can be slashed if caught faulty",
    "kind": "dev",
    "methods": {
      "BuyerDeposit(string)": {
        "details": "Partial payment is sent to the seller, however, can change depending on the agreement"
      },
      "constructor": {
        "details": "before setting up any user wallet, all buyers/sellers use a single buyer/seller address, which are maintained by Beston."
      },
      "owner()": {
        "details": "Returns the address of the current owner."
      },
      "renounceOwnership()": {
        "details": "Leaves the contract without owner. It will not be possible to call `onlyOwner` functions anymore. Can only be called by the current owner. NOTE: Renouncing ownership will leave the contract without an owner, thereby removing any functionality that is only available to the owner."
      },
      "transferOwnership(address)": {
        "details": "Transfers ownership of the contract to a new account (`newOwner`). Can only be called by the current owner."
      }
    },
    "stateVariables": {
      "agentaddr": {
        "details": "Roles are referred to by their bytes32 identifier. These should be exposed in the external API and be unique."
      }
    },
    "title": "EscrowService Contract, forked from https://github.com/AleRapchan/escrow-service",
    "version": 1
  },
  "userdoc": {
    "kind": "user",
    "methods": {
      "AgentApprove(string)": {
        "notice": "Seller can redeem with 2 verifications Achieves the same payment result as BuyerApprove, but requires seller to pay for execution"
      },
      "AgentDeny(string)": {
        "notice": "Buyer can deny the payment upon unsatisfactory verification result or for other reasons."
      },
      "BuyerDeposit(string)": {
        "notice": "Buyer can make a deposit to products on offer"
      },
      "GetUsers()": {
        "notice": "getters"
      }
    },
    "notice": "Building a single role access control Escrow Service using OpenZeppelin Escrow and RBAC",
    "version": 1
  }
}