{
  "contractName": "Escrow",
  "abi": [
    {
      "inputs": [
        {
          "internalType": "contract DigitalTwin",
          "name": "_digitaltwin",
          "type": "address"
        },
        {
          "internalType": "address",
          "name": "_buyer_address",
          "type": "address"
        },
        {
          "internalType": "address",
          "name": "_seller_address",
          "type": "address"
        }
      ],
      "stateMutability": "nonpayable",
      "type": "constructor"
    },
    {
      "anonymous": false,
      "inputs": [
        {
          "indexed": false,
          "internalType": "string",
          "name": "tkname",
          "type": "string"
        },
        {
          "indexed": false,
          "internalType": "uint256",
          "name": "price",
          "type": "uint256"
        }
      ],
      "name": "DepositTaken",
      "type": "event"
    },
    {
      "anonymous": false,
      "inputs": [
        {
          "indexed": true,
          "internalType": "address",
          "name": "previousOwner",
          "type": "address"
        },
        {
          "indexed": true,
          "internalType": "address",
          "name": "newOwner",
          "type": "address"
        }
      ],
      "name": "OwnershipTransferred",
      "type": "event"
    },
    {
      "inputs": [],
      "name": "digitaltwin",
      "outputs": [
        {
          "internalType": "contract DigitalTwin",
          "name": "",
          "type": "address"
        }
      ],
      "stateMutability": "view",
      "type": "function"
    },
    {
      "inputs": [],
      "name": "fee",
      "outputs": [
        {
          "internalType": "uint256",
          "name": "",
          "type": "uint256"
        }
      ],
      "stateMutability": "view",
      "type": "function"
    },
    {
      "inputs": [],
      "name": "initial_payment",
      "outputs": [
        {
          "internalType": "uint256",
          "name": "",
          "type": "uint256"
        }
      ],
      "stateMutability": "view",
      "type": "function"
    },
    {
      "inputs": [],
      "name": "owner",
      "outputs": [
        {
          "internalType": "address",
          "name": "",
          "type": "address"
        }
      ],
      "stateMutability": "view",
      "type": "function"
    },
    {
      "inputs": [
        {
          "internalType": "string",
          "name": "",
          "type": "string"
        }
      ],
      "name": "productExists",
      "outputs": [
        {
          "internalType": "bool",
          "name": "",
          "type": "bool"
        }
      ],
      "stateMutability": "view",
      "type": "function"
    },
    {
      "inputs": [],
      "name": "remaining_payment",
      "outputs": [
        {
          "internalType": "uint256",
          "name": "",
          "type": "uint256"
        }
      ],
      "stateMutability": "view",
      "type": "function"
    },
    {
      "inputs": [],
      "name": "renounceOwnership",
      "outputs": [],
      "stateMutability": "nonpayable",
      "type": "function"
    },
    {
      "inputs": [
        {
          "internalType": "string",
          "name": "",
          "type": "string"
        }
      ],
      "name": "stock",
      "outputs": [
        {
          "internalType": "uint256",
          "name": "price",
          "type": "uint256"
        },
        {
          "internalType": "enum Escrow.EscrowState",
          "name": "state",
          "type": "uint8"
        },
        {
          "internalType": "uint256",
          "name": "timeout",
          "type": "uint256"
        }
      ],
      "stateMutability": "view",
      "type": "function"
    },
    {
      "inputs": [
        {
          "internalType": "address",
          "name": "newOwner",
          "type": "address"
        }
      ],
      "name": "transferOwnership",
      "outputs": [],
      "stateMutability": "nonpayable",
      "type": "function"
    },
    {
      "inputs": [
        {
          "internalType": "string",
          "name": "_tkname",
          "type": "string"
        },
        {
          "internalType": "uint256",
          "name": "_price",
          "type": "uint256"
        }
      ],
      "name": "offer",
      "outputs": [],
      "stateMutability": "nonpayable",
      "type": "function"
    },
    {
      "inputs": [],
      "name": "sign",
      "outputs": [],
      "stateMutability": "nonpayable",
      "type": "function"
    },
    {
      "inputs": [
        {
          "internalType": "string",
          "name": "_tkname",
          "type": "string"
        }
      ],
      "name": "BuyerSendPayment",
      "outputs": [],
      "stateMutability": "payable",
      "type": "function"
    },
    {
      "inputs": [
        {
          "internalType": "string",
          "name": "_tkname",
          "type": "string"
        }
      ],
      "name": "VerifyProduct",
      "outputs": [
        {
          "internalType": "bool",
          "name": "",
          "type": "bool"
        }
      ],
      "stateMutability": "view",
      "type": "function"
    },
    {
      "inputs": [
        {
          "internalType": "string",
          "name": "_tkname",
          "type": "string"
        }
      ],
      "name": "SellerRedeem",
      "outputs": [],
      "stateMutability": "nonpayable",
      "type": "function"
    },
    {
      "inputs": [
        {
          "internalType": "string",
          "name": "_tkname",
          "type": "string"
        }
      ],
      "name": "BuyerDeny",
      "outputs": [],
      "stateMutability": "nonpayable",
      "type": "function"
    },
    {
      "inputs": [],
      "name": "GetUsers",
      "outputs": [
        {
          "internalType": "address",
          "name": "",
          "type": "address"
        },
        {
          "internalType": "address",
          "name": "",
          "type": "address"
        }
      ],
      "stateMutability": "view",
      "type": "function"
    },
    {
      "inputs": [
        {
          "internalType": "string",
          "name": "_tkname",
          "type": "string"
        }
      ],
      "name": "QueryProduct",
      "outputs": [
        {
          "internalType": "uint256",
          "name": "",
          "type": "uint256"
        },
        {
          "internalType": "enum Escrow.EscrowState",
          "name": "",
          "type": "uint8"
        },
        {
          "internalType": "bool",
          "name": "",
          "type": "bool"
        }
      ],
      "stateMutability": "view",
      "type": "function"
    },
    {
      "inputs": [
        {
          "internalType": "address",
          "name": "addr",
          "type": "address"
        }
      ],
      "name": "GetBalance",
      "outputs": [
        {
          "internalType": "uint256",
          "name": "",
          "type": "uint256"
        }
      ],
      "stateMutability": "view",
      "type": "function"
    }
  ],
  "bytecode": "0x60806040523480156200001157600080fd5b5060405162002e9438038062002e94833981810160405281019062000037919062000397565b620000576200004b6200029d60201b60201c565b620002a560201b60201c565b82600b60006101000a81548173ffffffffffffffffffffffffffffffffffffffff021916908373ffffffffffffffffffffffffffffffffffffffff16021790555033600160006101000a81548173ffffffffffffffffffffffffffffffffffffffff021916908373ffffffffffffffffffffffffffffffffffffffff16021790555081600260006101000a81548173ffffffffffffffffffffffffffffffffffffffff021916908373ffffffffffffffffffffffffffffffffffffffff16021790555080600360006101000a81548173ffffffffffffffffffffffffffffffffffffffff021916908373ffffffffffffffffffffffffffffffffffffffff160217905550600160009054906101000a900473ffffffffffffffffffffffffffffffffffffffff16600460006101000a81548173ffffffffffffffffffffffffffffffffffffffff021916908373ffffffffffffffffffffffffffffffffffffffff160217905550600260009054906101000a900473ffffffffffffffffffffffffffffffffffffffff16600560006101000a81548173ffffffffffffffffffffffffffffffffffffffff021916908373ffffffffffffffffffffffffffffffffffffffff160217905550600360009054906101000a900473ffffffffffffffffffffffffffffffffffffffff16600660006101000a81548173ffffffffffffffffffffffffffffffffffffffff021916908373ffffffffffffffffffffffffffffffffffffffff1602179055506064600781905550603c600a8190555050505062000474565b600033905090565b60008060009054906101000a900473ffffffffffffffffffffffffffffffffffffffff169050816000806101000a81548173ffffffffffffffffffffffffffffffffffffffff021916908373ffffffffffffffffffffffffffffffffffffffff1602179055508173ffffffffffffffffffffffffffffffffffffffff168173ffffffffffffffffffffffffffffffffffffffff167f8be0079c531659141344cd1fd0a4f28419497f9722a3daafe3b4186f6b6457e060405160405180910390a35050565b6000815190506200037a8162000440565b92915050565b60008151905062000391816200045a565b92915050565b600080600060608486031215620003b357620003b26200043b565b5b6000620003c38682870162000380565b9350506020620003d68682870162000369565b9250506040620003e98682870162000369565b9150509250925092565b600062000400826200041b565b9050919050565b60006200041482620003f3565b9050919050565b600073ffffffffffffffffffffffffffffffffffffffff82169050919050565b600080fd5b6200044b81620003f3565b81146200045757600080fd5b50565b620004658162000407565b81146200047157600080fd5b50565b612a1080620004846000396000f3fe6080604052600436106101095760003560e01c8063a8f5ecb711610095578063ddca3f4311610064578063ddca3f431461033b578063f2fde38b14610366578063f8c3540b1461038f578063fae0c53c146103cc578063fd9908e3146103f557610109565b8063a8f5ecb714610290578063bc9d30c7146102bb578063c8e2fa8d146102e4578063da3eec191461030f57610109565b8063833f41f5116100dc578063833f41f5146101a257806386dc434b146101be5780638addc051146101e95780638da5cb5b14610226578063a00cbd5b1461025157610109565b80632ca151221461010e57806343e2e504146101255780635376bf7014610162578063715018a61461018b575b600080fd5b34801561011a57600080fd5b50610123610434565b005b34801561013157600080fd5b5061014c60048036038101906101479190611bf2565b610597565b6040516101599190612284565b60405180910390f35b34801561016e57600080fd5b5061018960048036038101906101849190611c4c565b6105b8565b005b34801561019757600080fd5b506101a0610944565b005b6101bc60048036038101906101b79190611c4c565b6109cc565b005b3480156101ca57600080fd5b506101d3610eff565b6040516101e09190612097565b60405180910390f35b3480156101f557600080fd5b50610210600480360381019061020b9190611c4c565b610f25565b60405161021d919061207c565b60405180910390f35b34801561023257600080fd5b5061023b610f5b565b6040516102489190612038565b60405180910390f35b34801561025d57600080fd5b5061027860048036038101906102739190611c4c565b610f84565b6040516102879392919061229f565b60405180910390f35b34801561029c57600080fd5b506102a5611063565b6040516102b29190612284565b60405180910390f35b3480156102c757600080fd5b506102e260048036038101906102dd9190611c95565b611069565b005b3480156102f057600080fd5b506102f96112a4565b6040516103069190612284565b60405180910390f35b34801561031b57600080fd5b506103246112aa565b604051610332929190612053565b60405180910390f35b34801561034757600080fd5b50610350611355565b60405161035d9190612284565b60405180910390f35b34801561037257600080fd5b5061038d60048036038101906103889190611bf2565b61135b565b005b34801561039b57600080fd5b506103b660048036038101906103b19190611c4c565b611453565b6040516103c3919061207c565b60405180910390f35b3480156103d857600080fd5b506103f360048036038101906103ee9190611c4c565b6115ed565b005b34801561040157600080fd5b5061041c60048036038101906104179190611c4c565b611931565b60405161042b939291906122d6565b60405180910390f35b600560009054906101000a900473ffffffffffffffffffffffffffffffffffffffff1673ffffffffffffffffffffffffffffffffffffffff163373ffffffffffffffffffffffffffffffffffffffff1614806104dd5750600660009054906101000a900473ffffffffffffffffffffffffffffffffffffffff1673ffffffffffffffffffffffffffffffffffffffff163373ffffffffffffffffffffffffffffffffffffffff16145b6104e657600080fd5b600e60003373ffffffffffffffffffffffffffffffffffffffff1673ffffffffffffffffffffffffffffffffffffffff16815260200190815260200160002060009054906101000a900460ff161561053d57600080fd5b6001600e60003373ffffffffffffffffffffffffffffffffffffffff1673ffffffffffffffffffffffffffffffffffffffff16815260200190815260200160002060006101000a81548160ff021916908315150217905550565b60008173ffffffffffffffffffffffffffffffffffffffff16319050919050565b600660009054906101000a900473ffffffffffffffffffffffffffffffffffffffff16600073ffffffffffffffffffffffffffffffffffffffff168173ffffffffffffffffffffffffffffffffffffffff16141561064b576040517f08c379a0000000000000000000000000000000000000000000000000000000008152600401610642906121a4565b60405180910390fd5b3073ffffffffffffffffffffffffffffffffffffffff168173ffffffffffffffffffffffffffffffffffffffff1614156106ba576040517f08c379a00000000000000000000000000000000000000000000000000000000081526004016106b190612244565b60405180910390fd5b81600d816040516106cb919061200c565b908152602001604051809103902060009054906101000a900460ff16610726576040517f08c379a000000000000000000000000000000000000000000000000000000000815260040161071d90612144565b60405180910390fd5b600660009054906101000a900473ffffffffffffffffffffffffffffffffffffffff1673ffffffffffffffffffffffffffffffffffffffff163373ffffffffffffffffffffffffffffffffffffffff161461078057600080fd5b60016003811115610794576107936125b9565b5b600c846040516107a4919061200c565b908152602001604051809103902060010160009054906101000a900460ff1660038111156107d5576107d46125b9565b5b14610815576040517f08c379a000000000000000000000000000000000000000000000000000000000815260040161080c90612104565b60405180910390fd5b61081e83611453565b61085d576040517f08c379a000000000000000000000000000000000000000000000000000000000815260040161085490612204565b60405180910390fd5b600c8360405161086d919061200c565b908152602001604051809103902060020154421061088a57600080fd5b600660009054906101000a900473ffffffffffffffffffffffffffffffffffffffff1673ffffffffffffffffffffffffffffffffffffffff166108fc6009549081150290604051600060405180830381858888f193505050501580156108f4573d6000803e3d6000fd5b506002600c84604051610907919061200c565b908152602001604051809103902060010160006101000a81548160ff0219169083600381111561093a576109396125b9565b5b0217905550505050565b61094c61197e565b73ffffffffffffffffffffffffffffffffffffffff1661096a610f5b565b73ffffffffffffffffffffffffffffffffffffffff16146109c0576040517f08c379a00000000000000000000000000000000000000000000000000000000081526004016109b7906121e4565b60405180910390fd5b6109ca6000611986565b565b600460009054906101000a900473ffffffffffffffffffffffffffffffffffffffff16600073ffffffffffffffffffffffffffffffffffffffff168173ffffffffffffffffffffffffffffffffffffffff161415610a5f576040517f08c379a0000000000000000000000000000000000000000000000000000000008152600401610a56906121a4565b60405180910390fd5b3073ffffffffffffffffffffffffffffffffffffffff168173ffffffffffffffffffffffffffffffffffffffff161415610ace576040517f08c379a0000000000000000000000000000000000000000000000000000000008152600401610ac590612244565b60405180910390fd5b600660009054906101000a900473ffffffffffffffffffffffffffffffffffffffff16600073ffffffffffffffffffffffffffffffffffffffff168173ffffffffffffffffffffffffffffffffffffffff161415610b61576040517f08c379a0000000000000000000000000000000000000000000000000000000008152600401610b58906121a4565b60405180910390fd5b3073ffffffffffffffffffffffffffffffffffffffff168173ffffffffffffffffffffffffffffffffffffffff161415610bd0576040517f08c379a0000000000000000000000000000000000000000000000000000000008152600401610bc790612244565b60405180910390fd5b600c83604051610be0919061200c565b908152602001604051809103902060000154600754610bff919061238a565b341015610c41576040517f08c379a0000000000000000000000000000000000000000000000000000000008152600401610c3890612224565b60405180910390fd5b60006003811115610c5557610c546125b9565b5b600c84604051610c65919061200c565b908152602001604051809103902060010160009054906101000a900460ff166003811115610c9657610c956125b9565b5b14610cd6576040517f08c379a0000000000000000000000000000000000000000000000000000000008152600401610ccd90612264565b60405180910390fd5b6001600c84604051610ce8919061200c565b908152602001604051809103902060010160006101000a81548160ff02191690836003811115610d1b57610d1a6125b9565b5b0217905550600a5442610d2e919061238a565b600c84604051610d3e919061200c565b908152602001604051809103902060020181905550610d88600a600c85604051610d68919061200c565b908152602001604051809103902060000154611a4a90919063ffffffff16565b600881905550610dc4600854600c85604051610da4919061200c565b908152602001604051809103902060000154611a6090919063ffffffff16565b600981905550600460009054906101000a900473ffffffffffffffffffffffffffffffffffffffff1673ffffffffffffffffffffffffffffffffffffffff166108fc6007549081150290604051600060405180830381858888f19350505050158015610e34573d6000803e3d6000fd5b50600660009054906101000a900473ffffffffffffffffffffffffffffffffffffffff1673ffffffffffffffffffffffffffffffffffffffff166108fc6008549081150290604051600060405180830381858888f19350505050158015610e9f573d6000803e3d6000fd5b507f6b4150c430f0b9b9df0f255d6761fd17eefed34257973ab988203c832edbcc2383600c85604051610ed2919061200c565b908152602001604051809103902060000154604051610ef29291906120d4565b60405180910390a1505050565b600b60009054906101000a900473ffffffffffffffffffffffffffffffffffffffff1681565b600d818051602081018201805184825260208301602085012081835280955050505050506000915054906101000a900460ff1681565b60008060009054906101000a900473ffffffffffffffffffffffffffffffffffffffff16905090565b600080600083600d81604051610f9a919061200c565b908152602001604051809103902060009054906101000a900460ff16610ff5576040517f08c379a0000000000000000000000000000000000000000000000000000000008152600401610fec90612144565b60405180910390fd5b600061100086611453565b9050600c86604051611012919061200c565b908152602001604051809103902060000154600c87604051611034919061200c565b908152602001604051809103902060010160009054906101000a900460ff168294509450945050509193909250565b60085481565b600d82604051611079919061200c565b908152602001604051809103902060009054906101000a900460ff16156110d5576040517f08c379a00000000000000000000000000000000000000000000000000000000081526004016110cc90612164565b60405180910390fd5b600b60009054906101000a900473ffffffffffffffffffffffffffffffffffffffff1673ffffffffffffffffffffffffffffffffffffffff16630ad5b505836040518263ffffffff1660e01b815260040161113091906120b2565b60206040518083038186803b15801561114857600080fd5b505afa15801561115c573d6000803e3d6000fd5b505050506040513d601f19601f820116820180604052508101906111809190611c1f565b6111bf576040517f08c379a00000000000000000000000000000000000000000000000000000000081526004016111b6906121c4565b60405180910390fd5b6111c7611a76565b818160000181815250506000816020019060038111156111ea576111e96125b9565b5b908160038111156111fe576111fd6125b9565b5b8152505080600c84604051611213919061200c565b90815260200160405180910390206000820151816000015560208201518160010160006101000a81548160ff02191690836003811115611256576112556125b9565b5b0217905550604082015181600201559050506001600d8460405161127a919061200c565b908152602001604051809103902060006101000a81548160ff021916908315150217905550505050565b60095481565b600080600460009054906101000a900473ffffffffffffffffffffffffffffffffffffffff1673ffffffffffffffffffffffffffffffffffffffff163373ffffffffffffffffffffffffffffffffffffffff161461130757600080fd5b600560009054906101000a900473ffffffffffffffffffffffffffffffffffffffff16600660009054906101000a900473ffffffffffffffffffffffffffffffffffffffff16915091509091565b60075481565b61136361197e565b73ffffffffffffffffffffffffffffffffffffffff16611381610f5b565b73ffffffffffffffffffffffffffffffffffffffff16146113d7576040517f08c379a00000000000000000000000000000000000000000000000000000000081526004016113ce906121e4565b60405180910390fd5b600073ffffffffffffffffffffffffffffffffffffffff168173ffffffffffffffffffffffffffffffffffffffff161415611447576040517f08c379a000000000000000000000000000000000000000000000000000000000815260040161143e90612124565b60405180910390fd5b61145081611986565b50565b600081600d81604051611466919061200c565b908152602001604051809103902060009054906101000a900460ff166114c1576040517f08c379a00000000000000000000000000000000000000000000000000000000081526004016114b890612144565b60405180910390fd5b600080600080600b60009054906101000a900473ffffffffffffffffffffffffffffffffffffffff1673ffffffffffffffffffffffffffffffffffffffff1663c5573d46886040518263ffffffff1660e01b815260040161152291906120b2565b60006040518083038186803b15801561153a57600080fd5b505afa15801561154e573d6000803e3d6000fd5b505050506040513d6000823e3d601f19601f820116820180604052508101906115779190611cf1565b935093509350935060405160200161158e90612023565b60405160208183030381529060405280519060200120826040516020016115b5919061200c565b6040516020818303038152906040528051906020012014156115de5760019550505050506115e7565b60009550505050505b50919050565b600560009054906101000a900473ffffffffffffffffffffffffffffffffffffffff16600073ffffffffffffffffffffffffffffffffffffffff168173ffffffffffffffffffffffffffffffffffffffff161415611680576040517f08c379a0000000000000000000000000000000000000000000000000000000008152600401611677906121a4565b60405180910390fd5b3073ffffffffffffffffffffffffffffffffffffffff168173ffffffffffffffffffffffffffffffffffffffff1614156116ef576040517f08c379a00000000000000000000000000000000000000000000000000000000081526004016116e690612244565b60405180910390fd5b81600d81604051611700919061200c565b908152602001604051809103902060009054906101000a900460ff1661175b576040517f08c379a000000000000000000000000000000000000000000000000000000000815260040161175290612144565b60405180910390fd5b600560009054906101000a900473ffffffffffffffffffffffffffffffffffffffff1673ffffffffffffffffffffffffffffffffffffffff163373ffffffffffffffffffffffffffffffffffffffff16146117b557600080fd5b600160038111156117c9576117c86125b9565b5b600c846040516117d9919061200c565b908152602001604051809103902060010160009054906101000a900460ff16600381111561180a576118096125b9565b5b1461184a576040517f08c379a000000000000000000000000000000000000000000000000000000000815260040161184190612184565b60405180910390fd5b600c8360405161185a919061200c565b908152602001604051809103902060020154421161187757600080fd5b600560009054906101000a900473ffffffffffffffffffffffffffffffffffffffff1673ffffffffffffffffffffffffffffffffffffffff166108fc6009549081150290604051600060405180830381858888f193505050501580156118e1573d6000803e3d6000fd5b506003600c846040516118f4919061200c565b908152602001604051809103902060010160006101000a81548160ff02191690836003811115611927576119266125b9565b5b0217905550505050565b600c818051602081018201805184825260208301602085012081835280955050505050506000915090508060000154908060010160009054906101000a900460ff16908060020154905083565b600033905090565b60008060009054906101000a900473ffffffffffffffffffffffffffffffffffffffff169050816000806101000a81548173ffffffffffffffffffffffffffffffffffffffff021916908373ffffffffffffffffffffffffffffffffffffffff1602179055508173ffffffffffffffffffffffffffffffffffffffff168173ffffffffffffffffffffffffffffffffffffffff167f8be0079c531659141344cd1fd0a4f28419497f9722a3daafe3b4186f6b6457e060405160405180910390a35050565b60008183611a5891906123e0565b905092915050565b60008183611a6e9190612411565b905092915050565b60405180606001604052806000815260200160006003811115611a9c57611a9b6125b9565b5b8152602001600081525090565b6000611abc611ab784612332565b61230d565b905082815260208101848484011115611ad857611ad761261c565b5b611ae38482856124e8565b509392505050565b6000611afe611af984612332565b61230d565b905082815260208101848484011115611b1a57611b1961261c565b5b611b258482856124f7565b509392505050565b600081359050611b3c81612995565b92915050565b600081519050611b5181612995565b92915050565b600081519050611b66816129ac565b92915050565b600082601f830112611b8157611b80612617565b5b8135611b91848260208601611aa9565b91505092915050565b600082601f830112611baf57611bae612617565b5b8151611bbf848260208601611aeb565b91505092915050565b600081359050611bd7816129c3565b92915050565b600081519050611bec816129c3565b92915050565b600060208284031215611c0857611c07612626565b5b6000611c1684828501611b2d565b91505092915050565b600060208284031215611c3557611c34612626565b5b6000611c4384828501611b57565b91505092915050565b600060208284031215611c6257611c61612626565b5b600082013567ffffffffffffffff811115611c8057611c7f612621565b5b611c8c84828501611b6c565b91505092915050565b60008060408385031215611cac57611cab612626565b5b600083013567ffffffffffffffff811115611cca57611cc9612621565b5b611cd685828601611b6c565b9250506020611ce785828601611bc8565b9150509250929050565b60008060008060808587031215611d0b57611d0a612626565b5b6000611d1987828801611bdd565b945050602085015167ffffffffffffffff811115611d3a57611d39612621565b5b611d4687828801611b9a565b935050604085015167ffffffffffffffff811115611d6757611d66612621565b5b611d7387828801611b9a565b9250506060611d8487828801611b42565b91505092959194509250565b611d9981612445565b82525050565b611da881612457565b82525050565b611db7816124a0565b82525050565b611dc6816124b2565b82525050565b6000611dd782612363565b611de1818561236e565b9350611df18185602086016124f7565b611dfa8161262b565b840191505092915050565b6000611e1082612363565b611e1a818561237f565b9350611e2a8185602086016124f7565b80840191505092915050565b6000611e4360278361236e565b9150611e4e8261263c565b604082019050919050565b6000611e6660268361236e565b9150611e718261268b565b604082019050919050565b6000611e8960088361237f565b9150611e94826126da565b600882019050919050565b6000611eac60178361236e565b9150611eb782612703565b602082019050919050565b6000611ecf601b8361236e565b9150611eda8261272c565b602082019050919050565b6000611ef260248361236e565b9150611efd82612755565b604082019050919050565b6000611f1560268361236e565b9150611f20826127a4565b604082019050919050565b6000611f38601c8361236e565b9150611f43826127f3565b602082019050919050565b6000611f5b60208361236e565b9150611f668261281c565b602082019050919050565b6000611f7e60338361236e565b9150611f8982612845565b604082019050919050565b6000611fa1604a8361236e565b9150611fac82612894565b606082019050919050565b6000611fc460258361236e565b9150611fcf82612909565b604082019050919050565b6000611fe760188361236e565b9150611ff282612958565b602082019050919050565b61200681612496565b82525050565b60006120188284611e05565b915081905092915050565b600061202e82611e7c565b9150819050919050565b600060208201905061204d6000830184611d90565b92915050565b60006040820190506120686000830185611d90565b6120756020830184611d90565b9392505050565b60006020820190506120916000830184611d9f565b92915050565b60006020820190506120ac6000830184611dae565b92915050565b600060208201905081810360008301526120cc8184611dcc565b905092915050565b600060408201905081810360008301526120ee8185611dcc565b90506120fd6020830184611ffd565b9392505050565b6000602082019050818103600083015261211d81611e36565b9050919050565b6000602082019050818103600083015261213d81611e59565b9050919050565b6000602082019050818103600083015261215d81611e9f565b9050919050565b6000602082019050818103600083015261217d81611ec2565b9050919050565b6000602082019050818103600083015261219d81611ee5565b9050919050565b600060208201905081810360008301526121bd81611f08565b9050919050565b600060208201905081810360008301526121dd81611f2b565b9050919050565b600060208201905081810360008301526121fd81611f4e565b9050919050565b6000602082019050818103600083015261221d81611f71565b9050919050565b6000602082019050818103600083015261223d81611f94565b9050919050565b6000602082019050818103600083015261225d81611fb7565b9050919050565b6000602082019050818103600083015261227d81611fda565b9050919050565b60006020820190506122996000830184611ffd565b92915050565b60006060820190506122b46000830186611ffd565b6122c16020830185611dbd565b6122ce6040830184611d9f565b949350505050565b60006060820190506122eb6000830186611ffd565b6122f86020830185611dbd565b6123056040830184611ffd565b949350505050565b6000612317612328565b9050612323828261252a565b919050565b6000604051905090565b600067ffffffffffffffff82111561234d5761234c6125e8565b5b6123568261262b565b9050602081019050919050565b600081519050919050565b600082825260208201905092915050565b600081905092915050565b600061239582612496565b91506123a083612496565b9250827fffffffffffffffffffffffffffffffffffffffffffffffffffffffffffffffff038211156123d5576123d461255b565b5b828201905092915050565b60006123eb82612496565b91506123f683612496565b9250826124065761240561258a565b5b828204905092915050565b600061241c82612496565b915061242783612496565b92508282101561243a5761243961255b565b5b828203905092915050565b600061245082612476565b9050919050565b60008115159050919050565b600081905061247182612981565b919050565b600073ffffffffffffffffffffffffffffffffffffffff82169050919050565b6000819050919050565b60006124ab826124c4565b9050919050565b60006124bd82612463565b9050919050565b60006124cf826124d6565b9050919050565b60006124e182612476565b9050919050565b82818337600083830152505050565b60005b838110156125155780820151818401526020810190506124fa565b83811115612524576000848401525b50505050565b6125338261262b565b810181811067ffffffffffffffff82111715612552576125516125e8565b5b80604052505050565b7f4e487b7100000000000000000000000000000000000000000000000000000000600052601160045260246000fd5b7f4e487b7100000000000000000000000000000000000000000000000000000000600052601260045260246000fd5b7f4e487b7100000000000000000000000000000000000000000000000000000000600052602160045260246000fd5b7f4e487b7100000000000000000000000000000000000000000000000000000000600052604160045260246000fd5b600080fd5b600080fd5b600080fd5b600080fd5b6000601f19601f8301169050919050565b7f42757965722063616e6e6f7420617070726f766520776974686f75742061206460008201527f65706f7369742100000000000000000000000000000000000000000000000000602082015250565b7f4f776e61626c653a206e6577206f776e657220697320746865207a65726f206160008201527f6464726573730000000000000000000000000000000000000000000000000000602082015250565b7f7665726966696564000000000000000000000000000000000000000000000000600082015250565b7f50726f6475637420646f6573206e6f742065786973742e000000000000000000600082015250565b7f50726f6475637420697320616c7265616479206f6666657265642e0000000000600082015250565b7f42757965722063616e6e6f742064656e7920776974686f75742061206465706f60008201527f7369742100000000000000000000000000000000000000000000000000000000602082015250565b7f526563697069656e742073686f756c64206861766520612076616c696420616460008201527f6472657373210000000000000000000000000000000000000000000000000000602082015250565b7f50726f6475637420746f6b656e206973206e6f74206d696e7465642e00000000600082015250565b7f4f776e61626c653a2063616c6c6572206973206e6f7420746865206f776e6572600082015250565b7f53656c6c65722063616e6e6f742072656465656d207061796d656e74206f662060008201527f756e76657269666965642070726f647563742e00000000000000000000000000602082015250565b7f506c65617365206d616b65207375726520796f7572206465706f73697420636f60008201527f7665727320626f7468207468652070726f6475637420707269636520616e642060208201527f6167656e74206665652100000000000000000000000000000000000000000000604082015250565b7f526563697069656e742073686f756c64206e6f742062652074686520636f6e7460008201527f7261637421000000000000000000000000000000000000000000000000000000602082015250565b7f50726f64756374206973206e6f74206f6e206f66666572210000000000000000600082015250565b60048110612992576129916125b9565b5b50565b61299e81612445565b81146129a957600080fd5b50565b6129b581612457565b81146129c057600080fd5b50565b6129cc81612496565b81146129d757600080fd5b5056fea264697066735822122093369ba0de13a4da721d18b3deba95b3d51a412a6edad797b17b070d5146812664736f6c63430008070033",
  "immutableReferences": {},
  "source": "// SPDX-License-Identifier: UNLICENSED\npragma solidity ^0.8.0;\n\nimport \"../node_modules/@openzeppelin/contracts/utils/math/SafeMath.sol\";\nimport \"../node_modules/@openzeppelin/contracts/access/Ownable.sol\";\nimport \"./DigitalTwin.sol\";\n\n/**\n * @title EscrowService Contract, forked from https://github.com/AleRapchan/escrow-service\n * @author Yining Hu\n * @notice Building a single role access control Escrow Service using OpenZeppelin Escrow and RBAC\n * @dev contract currently assume one buyer account and one seller account, should develop an additional wallet contract and allow new user registration\n * @dev To do: to implement multi-sig, time-based escrow\n * @dev To do: to add a product existence modifier, and a role modifier\n */\ncontract Escrow is Ownable { //Ownable, \n\n    /**\n     * @dev Roles are referred to by their bytes32 identifier. \n     * @dev These should be exposed in the external API and be unique.\n     */\n\n    address agentaddr;\n    address buyeraddr;\n    address selleraddr;\n\n    address payable agent;\n    address payable buyer;\n    address payable seller;\n    \n    uint256 public fee;\n    uint256 public initial_payment;\n    uint256 public remaining_payment;\n\n    uint256 timeout;\n\n    using SafeMath for uint256;\n\n    DigitalTwin public digitaltwin;\n    \n    enum EscrowState { OFFERED, DEPOSITTAKEN, BUYERAPPROVED, BUYERDENIED } //PAYMENTSUCCESSFUL, PAYMENTREVERTED\n\n    struct Product{\n        uint256 price;\n        EscrowState state;\n        uint256 timeout; // timeout for payment settlement\n    }\n\n    mapping (string => Product) public stock; // whole stock of offered items for sell in escrow arragement\n    mapping(string => bool) public productExists;\n    mapping(address => bool) signed; // to collect signatures for multi-sig\n\n    event DepositTaken(string tkname, uint256 price);\n\n    /**\n     * @dev before setting up any user wallet, all buyers/sellers use a single buyer/seller address, which are maintained by Beston.\n     * @dev the same goes for ownership tracking in DigitalTwin.sol.\n     */\n    constructor(DigitalTwin _digitaltwin, address _buyer_address, address _seller_address) {\n        digitaltwin = _digitaltwin;\n\n        agentaddr = msg.sender;\n        buyeraddr = _buyer_address;\n        selleraddr = _seller_address;\n\n        agent = payable(agentaddr);\n        buyer = payable(buyeraddr);\n        seller= payable(selleraddr);\n        fee = 100;\n\n        timeout = 1 minutes;\n    }\n\n    modifier validDestination(address to) {\n        require(to != address(0x0), \"Recipient should have a valid address!\");\n        require(to != address(this), \"Recipient should not be the contract!\");\n        _;\n    }\n\n    modifier validProduct(string memory _tkname) {\n        require(productExists[_tkname], \"Product does not exist.\");\n        _;\n    }\n\n    /// @dev should also require tk to be minted on DigitalTwin.sol\n    function offer(string memory _tkname , uint256 _price) public {\n        require(!productExists[_tkname], \"Product is already offered.\");\n        require(digitaltwin.tkExists(_tkname), \"Product token is not minted.\");\n\n        Product memory product;\n        product.price = _price; /// @dev double check the conversion in Polygon\n        product.state = EscrowState.OFFERED;\n        stock[_tkname] = product;\n        productExists[_tkname] = true;\n    }\n\n    // sign() should be used together with a deal() function, for buyer and seller to agree on a deal\n    function sign() public {\n        require (msg.sender == buyer || msg.sender == seller);\n        require (!signed[msg.sender]);\n        signed[msg.sender] = true;\n    }\n    \n    /**\n     * @notice Buyer can make a deposit to products on offer\n     * @dev Partial payment is sent to the seller, however, can change depending on the agreement\n     */\n    function BuyerSendPayment(string memory _tkname) external payable validDestination(agent) validDestination(seller) {\n        require (msg.value >= fee + stock[_tkname].price, \"Please make sure your deposit covers both the product price and agent fee!\");\n        require (stock[_tkname].state == EscrowState.OFFERED , \"Product is not on offer!\"); // this also blocks buyer from making duplicatd deposit\n\n        stock[_tkname].state = EscrowState.DEPOSITTAKEN;\n        stock[_tkname].timeout = block.timestamp + timeout; // add a timeout for settlement when buyer sends deposit\n\n        initial_payment = stock[_tkname].price.div(10); // initial payment set to be 10% of the total price\n        remaining_payment = stock[_tkname].price.sub(initial_payment);\n\n        agent.transfer(fee);\n        seller.transfer(initial_payment);\n\n        emit DepositTaken(_tkname, stock[_tkname].price);\n    }\n\n    function VerifyProduct(string memory _tkname) public view validProduct(_tkname) returns (bool) {\n        (uint256 id, string memory metadata, string memory vstatus, address addr) = digitaltwin.queryToken(_tkname);\n        if (keccak256(abi.encodePacked(vstatus)) == keccak256(abi.encodePacked(\"verified\"))) {\n            return true;\n        } else {\n            return false;\n        }\n    }\n\n    /**\n     * @notice Buyer can approve the payment with or without verification\n     * @dev when implementing the api and front end, buyer should have the option to proceed without or with verification\n     */ \n    // function BuyerApprove(string memory _tkname) public validDestination(seller) validProduct(_tkname) {\n    //     require (msg.sender == buyer);\n    //     require (stock[_tkname].state == EscrowState.DEPOSITTAKEN, \"Buyer cannot approve without a deposit!\");\n    //     require (block.timestamp < stock[_tkname].timeout);\n    //     seller.transfer(remaining_payment);\n    //     stock[_tkname].state = EscrowState.BUYERAPPROVED;\n    // }\n\n    /**\n     * @notice Seller can redeem with verification\n     * Achieves the same payment result as BuyerApprove, but requires seller to pay for execution\n     */\n    function SellerRedeem(string memory _tkname) public validDestination(seller) validProduct(_tkname) {\n        require (msg.sender == seller);\n        require (stock[_tkname].state == EscrowState.DEPOSITTAKEN, \"Buyer cannot approve without a deposit!\");\n        require (VerifyProduct(_tkname), \"Seller cannot redeem payment of unverified product.\");\n        require (block.timestamp < stock[_tkname].timeout);\n        seller.transfer(remaining_payment);\n        stock[_tkname].state = EscrowState.BUYERAPPROVED;\n    }\n\n    /**\n     * @notice Buyer can deny the payment upon unsatisfactory verification result or for other reasons.\n     */\n    function BuyerDeny(string memory _tkname) public validDestination(buyer) validProduct(_tkname) {\n        require (msg.sender == buyer);\n        require (stock[_tkname].state == EscrowState.DEPOSITTAKEN, \"Buyer cannot deny without a deposit!\");\n        require (block.timestamp > stock[_tkname].timeout); // after the timeout refund can be processed\n        buyer.transfer(remaining_payment); \n        stock[_tkname].state = EscrowState.BUYERDENIED;\n    }\n\n    /**\n     * @notice getters\n     */\n    function GetUsers() public view returns(address, address) {\n        require (msg.sender == agent);\n        return (buyer,seller);\n    }\n\n    function QueryProduct(string memory _tkname) public view validProduct(_tkname) returns(uint256, EscrowState, bool) {\n        bool vstatus = VerifyProduct(_tkname);\n        return (stock[_tkname].price, stock[_tkname].state, vstatus);\n    }\n\n    function GetBalance(address addr) public view returns(uint256) {\n        return addr.balance;\n    }\n}",
  "sourcePath": "/home/yih/Documents/dev/beston-dapps/contracts/Escrow.sol",
  "compiler": {
    "name": "solc",
    "version": "0.8.7+commit.e28d00a7.Emscripten.clang"
  },
  "schemaVersion": "3.4.1",
  "updatedAt": "2022-04-29T04:14:46.442Z",
  "devdoc": {
    "author": "Yining Hu",
    "details": "contract currently assume one buyer account and one seller account, should develop an additional wallet contract and allow new user registrationTo do: to implement multi-sig, time-based escrowTo do: to add a product existence modifier, and a role modifier",
    "kind": "dev",
    "methods": {
      "BuyerSendPayment(string)": {
        "details": "Partial payment is sent to the seller, however, can change depending on the agreement"
      },
      "constructor": {
        "details": "before setting up any user wallet, all buyers/sellers use a single buyer/seller address, which are maintained by Beston.the same goes for ownership tracking in DigitalTwin.sol."
      },
      "offer(string,uint256)": {
        "details": "should also require tk to be minted on DigitalTwin.sol"
      },
      "owner()": {
        "details": "Returns the address of the current owner."
      },
      "renounceOwnership()": {
        "details": "Leaves the contract without owner. It will not be possible to call `onlyOwner` functions anymore. Can only be called by the current owner. NOTE: Renouncing ownership will leave the contract without an owner, thereby removing any functionality that is only available to the owner."
      },
      "transferOwnership(address)": {
        "details": "Transfers ownership of the contract to a new account (`newOwner`). Can only be called by the current owner."
      }
    },
    "stateVariables": {
      "agentaddr": {
        "details": "Roles are referred to by their bytes32 identifier. These should be exposed in the external API and be unique."
      }
    },
    "title": "EscrowService Contract, forked from https://github.com/AleRapchan/escrow-service",
    "version": 1
  },
  "userdoc": {
    "kind": "user",
    "methods": {
      "BuyerDeny(string)": {
        "notice": "Buyer can deny the payment upon unsatisfactory verification result or for other reasons."
      },
      "BuyerSendPayment(string)": {
        "notice": "Buyer can make a deposit to products on offer"
      },
      "GetUsers()": {
        "notice": "getters"
      },
      "SellerRedeem(string)": {
        "notice": "Seller can redeem with verification Achieves the same payment result as BuyerApprove, but requires seller to pay for execution"
      }
    },
    "notice": "Building a single role access control Escrow Service using OpenZeppelin Escrow and RBAC",
    "version": 1
  }
}