{
  "contractName": "FarmRegistry",
  "abi": [
    {
      "inputs": [],
      "name": "farmCount",
      "outputs": [
        {
          "internalType": "uint16",
          "name": "",
          "type": "uint16"
        }
      ],
      "stateMutability": "view",
      "type": "function",
      "constant": true
    },
    {
      "inputs": [
        {
          "internalType": "string",
          "name": "",
          "type": "string"
        }
      ],
      "name": "farmExists",
      "outputs": [
        {
          "internalType": "bool",
          "name": "",
          "type": "bool"
        }
      ],
      "stateMutability": "view",
      "type": "function",
      "constant": true
    },
    {
      "inputs": [
        {
          "internalType": "string",
          "name": "",
          "type": "string"
        }
      ],
      "name": "farms",
      "outputs": [
        {
          "internalType": "address",
          "name": "Farmer",
          "type": "address"
        }
      ],
      "stateMutability": "view",
      "type": "function",
      "constant": true
    },
    {
      "inputs": [
        {
          "internalType": "string",
          "name": "_farmid",
          "type": "string"
        }
      ],
      "name": "registerFarm",
      "outputs": [],
      "stateMutability": "nonpayable",
      "type": "function"
    },
    {
      "inputs": [
        {
          "internalType": "string",
          "name": "_farmid",
          "type": "string"
        }
      ],
      "name": "viewFarm",
      "outputs": [
        {
          "internalType": "address",
          "name": "",
          "type": "address"
        }
      ],
      "stateMutability": "view",
      "type": "function",
      "constant": true
    }
  ],
  "bytecode": "0x608060405234801561001057600080fd5b5061086b806100206000396000f3fe608060405234801561001057600080fd5b50600436106100575760003560e01c80630a8e214c1461005c5780631490a8df1461007a578063ac9f127614610096578063d109c71a146100c6578063f9f7aa79146100f6575b600080fd5b610064610126565b60405161007191906105de565b60405180910390f35b610094600480360381019061008f9190610464565b61013a565b005b6100b060048036038101906100ab9190610464565b6102ad565b6040516100bd9190610568565b60405180910390f35b6100e060048036038101906100db9190610464565b610301565b6040516100ed9190610568565b60405180910390f35b610110600480360381019061010b9190610464565b6103be565b60405161011d9190610583565b60405180910390f35b600260009054906101000a900461ffff1681565b6000151560018260405161014e9190610551565b908152602001604051809103902060009054906101000a900460ff161515146101ac576040517f08c379a00000000000000000000000000000000000000000000000000000000081526004016101a39061059e565b60405180910390fd5b6002600081819054906101000a900461ffff16809291906101cc90610735565b91906101000a81548161ffff021916908361ffff1602179055505060405180602001604052803373ffffffffffffffffffffffffffffffffffffffff1681525060008260405161021c9190610551565b908152602001604051809103902060008201518160000160006101000a81548173ffffffffffffffffffffffffffffffffffffffff021916908373ffffffffffffffffffffffffffffffffffffffff160217905550905050600180826040516102859190610551565b908152602001604051809103902060006101000a81548160ff02191690831515021790555050565b6000818051602081018201805184825260208301602085012081835280955050505050506000915090508060000160009054906101000a900473ffffffffffffffffffffffffffffffffffffffff16905081565b6000600115156001836040516103179190610551565b908152602001604051809103902060009054906101000a900460ff16151514610375576040517f08c379a000000000000000000000000000000000000000000000000000000000815260040161036c906105be565b60405180910390fd5b6000826040516103859190610551565b908152602001604051809103902060000160009054906101000a900473ffffffffffffffffffffffffffffffffffffffff169050919050565b6001818051602081018201805184825260208301602085012081835280955050505050506000915054906101000a900460ff1681565b60006104076104028461061e565b6105f9565b905082815260208101848484011115610423576104226107c3565b5b61042e8482856106c2565b509392505050565b600082601f83011261044b5761044a6107be565b5b813561045b8482602086016103f4565b91505092915050565b60006020828403121561047a576104796107cd565b5b600082013567ffffffffffffffff811115610498576104976107c8565b5b6104a484828501610436565b91505092915050565b6104b681610676565b82525050565b6104c581610688565b82525050565b60006104d68261064f565b6104e0818561066b565b93506104f08185602086016106d1565b80840191505092915050565b600061050960148361065a565b9150610514826107e3565b602082019050919050565b600061052c60148361065a565b91506105378261080c565b602082019050919050565b61054b81610694565b82525050565b600061055d82846104cb565b915081905092915050565b600060208201905061057d60008301846104ad565b92915050565b600060208201905061059860008301846104bc565b92915050565b600060208201905081810360008301526105b7816104fc565b9050919050565b600060208201905081810360008301526105d78161051f565b9050919050565b60006020820190506105f36000830184610542565b92915050565b6000610603610614565b905061060f8282610704565b919050565b6000604051905090565b600067ffffffffffffffff8211156106395761063861078f565b5b610642826107d2565b9050602081019050919050565b600081519050919050565b600082825260208201905092915050565b600081905092915050565b6000610681826106a2565b9050919050565b60008115159050919050565b600061ffff82169050919050565b600073ffffffffffffffffffffffffffffffffffffffff82169050919050565b82818337600083830152505050565b60005b838110156106ef5780820151818401526020810190506106d4565b838111156106fe576000848401525b50505050565b61070d826107d2565b810181811067ffffffffffffffff8211171561072c5761072b61078f565b5b80604052505050565b600061074082610694565b915061ffff82141561075557610754610760565b5b600182019050919050565b7f4e487b7100000000000000000000000000000000000000000000000000000000600052601160045260246000fd5b7f4e487b7100000000000000000000000000000000000000000000000000000000600052604160045260246000fd5b600080fd5b600080fd5b600080fd5b600080fd5b6000601f19601f8301169050919050565b7f4661726d20616c7265616479206578697374732e000000000000000000000000600082015250565b7f4661726d20646f6573206e6f742065786973742e00000000000000000000000060008201525056fea26469706673582212209284742ac943245eba9386d528e8df872d4a022d1bd5a65e94be2905eefccb8c64736f6c63430008070033",
  "immutableReferences": {},
  "source": "// SPDX-License-Identifier: MIT\npragma solidity ^0.8.0;\n\ncontract FarmRegistry {\n\n    struct Farm {\n        address Farmer;\n    }\n\n    mapping(string => Farm) public farms;\n    mapping(string => bool) public farmExists;\n    uint16 public farmCount;\n\n    function registerFarm(string memory _farmid) public \n    {\n        require(farmExists[_farmid] == false, \"Farm already exists.\");\n        farmCount++;\n        farms[_farmid] = Farm(msg.sender); // farmers register themselves\n        farmExists[_farmid] = true;\n    }\n\n    function viewFarm(string memory _farmid) public view returns(address)\n    {\n        require(farmExists[_farmid] == true, \"Farm does not exist.\");\n        return(farms[_farmid].Farmer);\n    }\n}",
  "sourcePath": "/home/yih/Documents/dev/beston-dapps/contracts/carbon/FarmRegistry.sol",
  "compiler": {
    "name": "solc",
    "version": "0.8.7+commit.e28d00a7.Emscripten.clang"
  },
  "schemaVersion": "3.4.1",
  "updatedAt": "2023-02-19T23:43:14.823Z",
  "networkType": "ethereum",
  "devdoc": {
    "kind": "dev",
    "methods": {},
    "version": 1
  },
  "userdoc": {
    "kind": "user",
    "methods": {},
    "version": 1
  }
}