{
  "contractName": "FarmRegistry",
  "abi": [
    {
      "inputs": [
        {
          "internalType": "uint256",
          "name": "",
          "type": "uint256"
        }
      ],
      "name": "allfarms",
      "outputs": [
        {
          "internalType": "string",
          "name": "",
          "type": "string"
        }
      ],
      "stateMutability": "view",
      "type": "function",
      "constant": true
    },
    {
      "inputs": [
        {
          "internalType": "string",
          "name": "",
          "type": "string"
        }
      ],
      "name": "farmExists",
      "outputs": [
        {
          "internalType": "bool",
          "name": "",
          "type": "bool"
        }
      ],
      "stateMutability": "view",
      "type": "function",
      "constant": true
    },
    {
      "inputs": [
        {
          "internalType": "string",
          "name": "",
          "type": "string"
        }
      ],
      "name": "farms",
      "outputs": [
        {
          "internalType": "address",
          "name": "Farmer",
          "type": "address"
        }
      ],
      "stateMutability": "view",
      "type": "function",
      "constant": true
    },
    {
      "inputs": [
        {
          "internalType": "string",
          "name": "_farmid",
          "type": "string"
        }
      ],
      "name": "registerFarm",
      "outputs": [],
      "stateMutability": "nonpayable",
      "type": "function"
    },
    {
      "inputs": [
        {
          "internalType": "string",
          "name": "_farmid",
          "type": "string"
        }
      ],
      "name": "queryFarm",
      "outputs": [
        {
          "internalType": "address",
          "name": "",
          "type": "address"
        }
      ],
      "stateMutability": "view",
      "type": "function",
      "constant": true
    },
    {
      "inputs": [],
      "name": "queryAll",
      "outputs": [
        {
          "internalType": "string[]",
          "name": "",
          "type": "string[]"
        },
        {
          "internalType": "address[]",
          "name": "",
          "type": "address[]"
        }
      ],
      "stateMutability": "view",
      "type": "function",
      "constant": true
    }
  ],
  "bytecode": "0x608060405234801561001057600080fd5b50610fc7806100206000396000f3fe608060405234801561001057600080fd5b50600436106100625760003560e01c80630bdb0ed4146100675780631490a8df1461009757806333c8b1b7146100b3578063ac9f1276146100e3578063e592470814610113578063f9f7aa7914610132575b600080fd5b610081600480360381019061007c91906107f5565b610162565b60405161008e9190610b2d565b60405180910390f35b6100b160048036038101906100ac91906107f5565b61021f565b005b6100cd60048036038101906100c8919061083e565b610393565b6040516100da9190610b9a565b60405180910390f35b6100fd60048036038101906100f891906107f5565b61043f565b60405161010a9190610b2d565b60405180910390f35b61011b610493565b604051610129929190610b48565b60405180910390f35b61014c600480360381019061014791906107f5565b610697565b6040516101599190610b7f565b60405180910390f35b6000600115156001836040516101789190610aff565b908152602001604051809103902060009054906101000a900460ff161515146101d6576040517f08c379a00000000000000000000000000000000000000000000000000000000081526004016101cd90610bdc565b60405180910390fd5b6000826040516101e69190610aff565b908152602001604051809103902060000160009054906101000a900473ffffffffffffffffffffffffffffffffffffffff169050919050565b600015156001826040516102339190610aff565b908152602001604051809103902060009054906101000a900460ff16151514610291576040517f08c379a000000000000000000000000000000000000000000000000000000000815260040161028890610bbc565b60405180910390fd5b60405180602001604052803373ffffffffffffffffffffffffffffffffffffffff168152506000826040516102c69190610aff565b908152602001604051809103902060008201518160000160006101000a81548173ffffffffffffffffffffffffffffffffffffffff021916908373ffffffffffffffffffffffffffffffffffffffff1602179055509050506001808260405161032f9190610aff565b908152602001604051809103902060006101000a81548160ff02191690831515021790555060028190806001815401808255809150506001900390600052602060002001600090919091909150908051906020019061038f9291906106cd565b5050565b600281815481106103a357600080fd5b9060005260206000200160009150905080546103be90610d9b565b80601f01602080910402602001604051908101604052809291908181526020018280546103ea90610d9b565b80156104375780601f1061040c57610100808354040283529160200191610437565b820191906000526020600020905b81548152906001019060200180831161041a57829003601f168201915b505050505081565b6000818051602081018201805184825260208301602085012081835280955050505050506000915090508060000160009054906101000a900473ffffffffffffffffffffffffffffffffffffffff16905081565b606080600060028054905067ffffffffffffffff8111156104b7576104b6610ed4565b5b6040519080825280602002602001820160405280156104e55781602001602082028036833780820191505090505b50905060005b6002805490508110156105b75760006002828154811061050e5761050d610ea5565b5b906000526020600020016040516105259190610b16565b908152602001604051809103902060000160009054906101000a900473ffffffffffffffffffffffffffffffffffffffff1682828151811061056a57610569610ea5565b5b602002602001019073ffffffffffffffffffffffffffffffffffffffff16908173ffffffffffffffffffffffffffffffffffffffff168152505080806105af90610dfe565b9150506104eb565b5060028181805480602002602001604051908101604052809291908181526020016000905b828210156106885783829060005260206000200180546105fb90610d9b565b80601f016020809104026020016040519081016040528092919081815260200182805461062790610d9b565b80156106745780601f1061064957610100808354040283529160200191610674565b820191906000526020600020905b81548152906001019060200180831161065757829003601f168201915b5050505050815260200190600101906105dc565b50505050915092509250509091565b6001818051602081018201805184825260208301602085012081835280955050505050506000915054906101000a900460ff1681565b8280546106d990610d9b565b90600052602060002090601f0160209004810192826106fb5760008555610742565b82601f1061071457805160ff1916838001178555610742565b82800160010185558215610742579182015b82811115610741578251825591602001919060010190610726565b5b50905061074f9190610753565b5090565b5b8082111561076c576000816000905550600101610754565b5090565b600061078361077e84610c21565b610bfc565b90508281526020810184848401111561079f5761079e610f08565b5b6107aa848285610d59565b509392505050565b600082601f8301126107c7576107c6610f03565b5b81356107d7848260208601610770565b91505092915050565b6000813590506107ef81610f7a565b92915050565b60006020828403121561080b5761080a610f12565b5b600082013567ffffffffffffffff81111561082957610828610f0d565b5b610835848285016107b2565b91505092915050565b60006020828403121561085457610853610f12565b5b6000610862848285016107e0565b91505092915050565b60006108778383610897565b60208301905092915050565b600061088f8383610997565b905092915050565b6108a081610d11565b82525050565b6108af81610d11565b82525050565b60006108c082610c87565b6108ca8185610cc2565b93506108d583610c52565b8060005b838110156109065781516108ed888261086b565b97506108f883610ca8565b9250506001810190506108d9565b5085935050505092915050565b600061091e82610c92565b6109288185610cd3565b93508360208202850161093a85610c62565b8060005b8581101561097657848403895281516109578582610883565b945061096283610cb5565b925060208a0199505060018101905061093e565b50829750879550505050505092915050565b61099181610d23565b82525050565b60006109a282610c9d565b6109ac8185610ce4565b93506109bc818560208601610d68565b6109c581610f17565b840191505092915050565b60006109db82610c9d565b6109e58185610cf5565b93506109f5818560208601610d68565b6109fe81610f17565b840191505092915050565b6000610a1482610c9d565b610a1e8185610d06565b9350610a2e818560208601610d68565b80840191505092915050565b60008154610a4781610d9b565b610a518186610d06565b94506001821660008114610a6c5760018114610a7d57610ab0565b60ff19831686528186019350610ab0565b610a8685610c72565b60005b83811015610aa857815481890152600182019150602081019050610a89565b838801955050505b50505092915050565b6000610ac6601483610cf5565b9150610ad182610f28565b602082019050919050565b6000610ae9601483610cf5565b9150610af482610f51565b602082019050919050565b6000610b0b8284610a09565b915081905092915050565b6000610b228284610a3a565b915081905092915050565b6000602082019050610b4260008301846108a6565b92915050565b60006040820190508181036000830152610b628185610913565b90508181036020830152610b7681846108b5565b90509392505050565b6000602082019050610b946000830184610988565b92915050565b60006020820190508181036000830152610bb481846109d0565b905092915050565b60006020820190508181036000830152610bd581610ab9565b9050919050565b60006020820190508181036000830152610bf581610adc565b9050919050565b6000610c06610c17565b9050610c128282610dcd565b919050565b6000604051905090565b600067ffffffffffffffff821115610c3c57610c3b610ed4565b5b610c4582610f17565b9050602081019050919050565b6000819050602082019050919050565b6000819050602082019050919050565b60008190508160005260206000209050919050565b600081519050919050565b600081519050919050565b600081519050919050565b6000602082019050919050565b6000602082019050919050565b600082825260208201905092915050565b600082825260208201905092915050565b600082825260208201905092915050565b600082825260208201905092915050565b600081905092915050565b6000610d1c82610d2f565b9050919050565b60008115159050919050565b600073ffffffffffffffffffffffffffffffffffffffff82169050919050565b6000819050919050565b82818337600083830152505050565b60005b83811015610d86578082015181840152602081019050610d6b565b83811115610d95576000848401525b50505050565b60006002820490506001821680610db357607f821691505b60208210811415610dc757610dc6610e76565b5b50919050565b610dd682610f17565b810181811067ffffffffffffffff82111715610df557610df4610ed4565b5b80604052505050565b6000610e0982610d4f565b91507fffffffffffffffffffffffffffffffffffffffffffffffffffffffffffffffff821415610e3c57610e3b610e47565b5b600182019050919050565b7f4e487b7100000000000000000000000000000000000000000000000000000000600052601160045260246000fd5b7f4e487b7100000000000000000000000000000000000000000000000000000000600052602260045260246000fd5b7f4e487b7100000000000000000000000000000000000000000000000000000000600052603260045260246000fd5b7f4e487b7100000000000000000000000000000000000000000000000000000000600052604160045260246000fd5b600080fd5b600080fd5b600080fd5b600080fd5b6000601f19601f8301169050919050565b7f4661726d20616c7265616479206578697374732e000000000000000000000000600082015250565b7f4661726d20646f6573206e6f742065786973742e000000000000000000000000600082015250565b610f8381610d4f565b8114610f8e57600080fd5b5056fea2646970667358221220eddd863b2952e1905b2bc6a9112ada6f2d2ebad06eef1fd0151509a62ba5bfc764736f6c63430008070033",
  "immutableReferences": {},
  "source": "// SPDX-License-Identifier: MIT\npragma solidity ^0.8.0;\n\ncontract FarmRegistry {\n\n    struct Farm {\n        address Farmer;\n    }\n\n    mapping(string => Farm) public farms;\n    mapping(string => bool) public farmExists;\n    string[] public allfarms;\n\n    function registerFarm(string memory _farmid) public \n    {\n        require(farmExists[_farmid] == false, \"Farm already exists.\");\n        farms[_farmid] = Farm(msg.sender); // farmers register themselves\n        farmExists[_farmid] = true;\n        allfarms.push(_farmid);\n    }\n\n    function queryFarm(string memory _farmid) public view returns(address)\n    {\n        require(farmExists[_farmid] == true, \"Farm does not exist.\");\n        return(farms[_farmid].Farmer);\n    }\n\n    function queryAll() public view\n    returns(\n        string[] memory,\n        address[] memory\n    ) \n    {\n        address[] memory farmers = new address[](allfarms.length);\n\n        for(uint256 i=0; i<allfarms.length; i++) {\n            farmers[i] = farms[allfarms[i]].Farmer;\n        }\n\n        return(allfarms,farmers);\n    }\n}",
  "sourcePath": "/home/yih/Documents/dev/beston-dapps/contracts/carbon/FarmRegistry.sol",
  "compiler": {
    "name": "solc",
    "version": "0.8.7+commit.e28d00a7.Emscripten.clang"
  },
  "schemaVersion": "3.4.1",
  "updatedAt": "2023-07-31T00:10:34.303Z",
  "networkType": "ethereum",
  "devdoc": {
    "kind": "dev",
    "methods": {},
    "version": 1
  },
  "userdoc": {
    "kind": "user",
    "methods": {},
    "version": 1
  }
}