{
  "contractName": "FeedTracking",
  "abi": [
    {
      "inputs": [
        {
          "internalType": "contract AnimalRegistry",
          "name": "_animalregistry",
          "type": "address"
        },
        {
          "internalType": "contract SeafeedRegistry",
          "name": "_seafeedregistry",
          "type": "address"
        }
      ],
      "stateMutability": "nonpayable",
      "type": "constructor"
    },
    {
      "inputs": [
        {
          "internalType": "uint256",
          "name": "",
          "type": "uint256"
        }
      ],
      "name": "allfeeds",
      "outputs": [
        {
          "internalType": "string",
          "name": "",
          "type": "string"
        }
      ],
      "stateMutability": "view",
      "type": "function",
      "constant": true
    },
    {
      "inputs": [],
      "name": "animalregistry",
      "outputs": [
        {
          "internalType": "contract AnimalRegistry",
          "name": "",
          "type": "address"
        }
      ],
      "stateMutability": "view",
      "type": "function",
      "constant": true
    },
    {
      "inputs": [
        {
          "internalType": "string",
          "name": "",
          "type": "string"
        }
      ],
      "name": "feedClaimed",
      "outputs": [
        {
          "internalType": "bool",
          "name": "",
          "type": "bool"
        }
      ],
      "stateMutability": "view",
      "type": "function",
      "constant": true
    },
    {
      "inputs": [
        {
          "internalType": "string",
          "name": "",
          "type": "string"
        }
      ],
      "name": "feedExists",
      "outputs": [
        {
          "internalType": "bool",
          "name": "",
          "type": "bool"
        }
      ],
      "stateMutability": "view",
      "type": "function",
      "constant": true
    },
    {
      "inputs": [
        {
          "internalType": "string",
          "name": "",
          "type": "string"
        }
      ],
      "name": "feedSearch",
      "outputs": [
        {
          "internalType": "string",
          "name": "",
          "type": "string"
        }
      ],
      "stateMutability": "view",
      "type": "function",
      "constant": true
    },
    {
      "inputs": [
        {
          "internalType": "string",
          "name": "",
          "type": "string"
        }
      ],
      "name": "feeds",
      "outputs": [
        {
          "internalType": "enum FeedTracking.Ingredient",
          "name": "FeedType",
          "type": "uint8"
        },
        {
          "internalType": "enum FeedTracking.ClaimStatus",
          "name": "Status",
          "type": "uint8"
        },
        {
          "internalType": "string",
          "name": "OrderID",
          "type": "string"
        },
        {
          "internalType": "string",
          "name": "AnimalID",
          "type": "string"
        },
        {
          "internalType": "uint16",
          "name": "DMI",
          "type": "uint16"
        },
        {
          "internalType": "uint256",
          "name": "DateTime",
          "type": "uint256"
        }
      ],
      "stateMutability": "view",
      "type": "function",
      "constant": true
    },
    {
      "inputs": [],
      "name": "seafeedregistry",
      "outputs": [
        {
          "internalType": "contract SeafeedRegistry",
          "name": "",
          "type": "address"
        }
      ],
      "stateMutability": "view",
      "type": "function",
      "constant": true
    },
    {
      "inputs": [
        {
          "internalType": "string",
          "name": "_feedid",
          "type": "string"
        },
        {
          "internalType": "uint8",
          "name": "_feedtype",
          "type": "uint8"
        },
        {
          "internalType": "string",
          "name": "_orderid",
          "type": "string"
        },
        {
          "internalType": "string",
          "name": "_animalid",
          "type": "string"
        },
        {
          "internalType": "uint16",
          "name": "_dmi",
          "type": "uint16"
        },
        {
          "internalType": "uint256",
          "name": "_datetime",
          "type": "uint256"
        }
      ],
      "name": "logFeed",
      "outputs": [],
      "stateMutability": "nonpayable",
      "type": "function"
    },
    {
      "inputs": [
        {
          "internalType": "string",
          "name": "_feedid",
          "type": "string"
        }
      ],
      "name": "claimFeed",
      "outputs": [],
      "stateMutability": "nonpayable",
      "type": "function"
    },
    {
      "inputs": [
        {
          "internalType": "string",
          "name": "_feedid",
          "type": "string"
        }
      ],
      "name": "queryFeed",
      "outputs": [
        {
          "internalType": "string",
          "name": "",
          "type": "string"
        },
        {
          "internalType": "string",
          "name": "",
          "type": "string"
        },
        {
          "internalType": "string",
          "name": "",
          "type": "string"
        },
        {
          "internalType": "string",
          "name": "",
          "type": "string"
        },
        {
          "internalType": "uint16",
          "name": "",
          "type": "uint16"
        },
        {
          "internalType": "uint256",
          "name": "",
          "type": "uint256"
        }
      ],
      "stateMutability": "view",
      "type": "function",
      "constant": true
    },
    {
      "inputs": [],
      "name": "queryAll",
      "outputs": [
        {
          "internalType": "string[]",
          "name": "",
          "type": "string[]"
        },
        {
          "internalType": "string[]",
          "name": "",
          "type": "string[]"
        },
        {
          "internalType": "string[]",
          "name": "",
          "type": "string[]"
        },
        {
          "internalType": "string[]",
          "name": "",
          "type": "string[]"
        },
        {
          "internalType": "string[]",
          "name": "",
          "type": "string[]"
        },
        {
          "internalType": "uint16[]",
          "name": "",
          "type": "uint16[]"
        },
        {
          "internalType": "uint256[]",
          "name": "",
          "type": "uint256[]"
        }
      ],
      "stateMutability": "view",
      "type": "function",
      "constant": true
    }
  ],
  "bytecode": "0x60806040523480156200001157600080fd5b5060405162003265380380620032658339818101604052810190620000379190620000ee565b816000806101000a81548173ffffffffffffffffffffffffffffffffffffffff021916908373ffffffffffffffffffffffffffffffffffffffff16021790555080600160006101000a81548173ffffffffffffffffffffffffffffffffffffffff021916908373ffffffffffffffffffffffffffffffffffffffff1602179055505050620001ca565b600081519050620000d18162000196565b92915050565b600081519050620000e881620001b0565b92915050565b6000806040838503121562000108576200010762000191565b5b60006200011885828601620000c0565b92505060206200012b85828601620000d7565b9150509250929050565b6000620001428262000171565b9050919050565b6000620001568262000135565b9050919050565b60006200016a8262000135565b9050919050565b600073ffffffffffffffffffffffffffffffffffffffff82169050919050565b600080fd5b620001a18162000149565b8114620001ad57600080fd5b50565b620001bb816200015d565b8114620001c757600080fd5b50565b61308b80620001da6000396000f3fe608060405234801561001057600080fd5b50600436106100a95760003560e01c80636db81d37116100715780636db81d371461015757806396e9b4421461018757806398b22640146101b7578063e5924708146101ec578063e8d4d8d214610210578063f846bdfa14610240576100a9565b806313870c0a146100ae57806344fba357146100ca5780634d1e6c7a146100e8578063515f2428146101045780636a811e3b14610122575b600080fd5b6100c860048036038101906100c3919061221c565b610270565b005b6100d26109c5565b6040516100df919061286a565b60405180910390f35b61010260048036038101906100fd9190612120565b6109eb565b005b61010c610b37565b604051610119919061284f565b60405180910390f35b61013c60048036038101906101379190612120565b610b5b565b60405161014e96959493929190612885565b60405180910390f35b610171600480360381019061016c9190612120565b610ce5565b60405161017e9190612834565b60405180910390f35b6101a1600480360381019061019c91906122fd565b610d1b565b6040516101ae91906128f4565b60405180910390f35b6101d160048036038101906101cc9190612120565b610dc7565b6040516101e396959493929190612916565b60405180910390f35b6101f461136d565b6040516102079796959493929190612794565b60405180910390f35b61022a60048036038101906102259190612120565b611df1565b6040516102379190612834565b60405180910390f35b61025a60048036038101906102559190612120565b611e27565b60405161026791906128f4565b60405180910390f35b6003866040516102809190612731565b908152602001604051809103902060009054906101000a900460ff16156102dc576040517f08c379a00000000000000000000000000000000000000000000000000000000081526004016102d3906129f3565b60405180910390fd5b60008054906101000a900473ffffffffffffffffffffffffffffffffffffffff1673ffffffffffffffffffffffffffffffffffffffff16632c80a7f5846040518263ffffffff1660e01b815260040161033591906128f4565b60206040518083038186803b15801561034d57600080fd5b505afa158015610361573d6000803e3d6000fd5b505050506040513d601f19601f8201168201806040525081019061038591906120f3565b6103c4576040517f08c379a00000000000000000000000000000000000000000000000000000000081526004016103bb90612993565b60405180910390fd5b600160009054906101000a900473ffffffffffffffffffffffffffffffffffffffff1673ffffffffffffffffffffffffffffffffffffffff1663a959d585856040518263ffffffff1660e01b815260040161041f91906128f4565b60206040518083038186803b15801561043757600080fd5b505afa15801561044b573d6000803e3d6000fd5b505050506040513d601f19601f8201168201806040525081019061046f91906120f3565b6104ae576040517f08c379a00000000000000000000000000000000000000000000000000000000081526004016104a5906129d3565b60405180910390fd5b6000806000806000600160009054906101000a900473ffffffffffffffffffffffffffffffffffffffff1673ffffffffffffffffffffffffffffffffffffffff166392d18c048a6040518263ffffffff1660e01b815260040161051191906128f4565b60006040518083038186803b15801561052957600080fd5b505afa15801561053d573d6000803e3d6000fd5b505050506040513d6000823e3d601f19601f820116820180604052508101906105669190612169565b945094509450945094503373ffffffffffffffffffffffffffffffffffffffff168473ffffffffffffffffffffffffffffffffffffffff16146105de576040517f08c379a00000000000000000000000000000000000000000000000000000000081526004016105d590612a13565b60405180910390fd5b6060806040518060c001604052808d60ff16600281111561060257610601612dbd565b5b600281111561061457610613612dbd565b5b815260200160018081111561062c5761062b612dbd565b5b81526020018c81526020018b81526020018a61ffff1681526020018981525060028e60405161065b9190612731565b908152602001604051809103902060008201518160000160006101000a81548160ff0219169083600281111561069457610693612dbd565b5b021790555060208201518160000160016101000a81548160ff021916908360018111156106c4576106c3612dbd565b5b021790555060408201518160010190805190602001906106e5929190611edd565b506060820151816002019080519060200190610702929190611edd565b5060808201518160030160006101000a81548161ffff021916908361ffff16021790555060a08201518160040155905050600160038e6040516107459190612731565b908152602001604051809103902060006101000a81548160ff0219169083151502179055506000600281111561077e5761077d612dbd565b5b8c60ff16600281111561079457610793612dbd565b5b60028111156107a6576107a5612dbd565b5b14156107e9576040518060400160405280600781526020017f526567756c6172000000000000000000000000000000000000000000000000008152509050610921565b600160028111156107fd576107fc612dbd565b5b8c60ff16600281111561081357610812612dbd565b5b600281111561082557610824612dbd565b5b1415610868576040518060400160405280600c81526020017f417370617261676f7073697300000000000000000000000000000000000000008152509050610920565b60028081111561087b5761087a612dbd565b5b8c60ff16600281111561089157610890612dbd565b5b60028111156108a3576108a2612dbd565b5b14156108e6576040518060400160405280600881526020017f506f6c796761696e000000000000000000000000000000000000000000000000815250905061091f565b6040518060400160405280600781526020017f556e6b6e6f776e0000000000000000000000000000000000000000000000000081525090505b5b5b808a8960405160200161093693929190612748565b60405160208183030381529060405291508c6004836040516109589190612731565b90815260200160405180910390209080519060200190610979929190611edd565b5060068d9080600181540180825580915050600190039060005260206000200160009091909190915090805190602001906109b5929190611edd565b5050505050505050505050505050565b600160009054906101000a900473ffffffffffffffffffffffffffffffffffffffff1681565b6003816040516109fb9190612731565b908152602001604051809103902060009054906101000a900460ff16610a56576040517f08c379a0000000000000000000000000000000000000000000000000000000008152600401610a4d906129b3565b60405180910390fd5b600180811115610a6957610a68612dbd565b5b600282604051610a799190612731565b908152602001604051809103902060000160019054906101000a900460ff166001811115610aaa57610aa9612dbd565b5b14610aea576040517f08c379a0000000000000000000000000000000000000000000000000000000008152600401610ae190612a33565b60405180910390fd5b6000600282604051610afc9190612731565b908152602001604051809103902060000160016101000a81548160ff02191690836001811115610b2f57610b2e612dbd565b5b021790555050565b60008054906101000a900473ffffffffffffffffffffffffffffffffffffffff1681565b6002818051602081018201805184825260208301602085012081835280955050505050506000915090508060000160009054906101000a900460ff16908060000160019054906101000a900460ff1690806001018054610bba90612cd8565b80601f0160208091040260200160405190810160405280929190818152602001828054610be690612cd8565b8015610c335780601f10610c0857610100808354040283529160200191610c33565b820191906000526020600020905b815481529060010190602001808311610c1657829003601f168201915b505050505090806002018054610c4890612cd8565b80601f0160208091040260200160405190810160405280929190818152602001828054610c7490612cd8565b8015610cc15780601f10610c9657610100808354040283529160200191610cc1565b820191906000526020600020905b815481529060010190602001808311610ca457829003601f168201915b5050505050908060030160009054906101000a900461ffff16908060040154905086565b6005818051602081018201805184825260208301602085012081835280955050505050506000915054906101000a900460ff1681565b60068181548110610d2b57600080fd5b906000526020600020016000915090508054610d4690612cd8565b80601f0160208091040260200160405190810160405280929190818152602001828054610d7290612cd8565b8015610dbf5780601f10610d9457610100808354040283529160200191610dbf565b820191906000526020600020905b815481529060010190602001808311610da257829003601f168201915b505050505081565b606080606080600080600387604051610de09190612731565b908152602001604051809103902060009054906101000a900460ff16610e3b576040517f08c379a0000000000000000000000000000000000000000000000000000000008152600401610e32906129b3565b60405180910390fd5b60608060006002811115610e5257610e51612dbd565b5b60028a604051610e629190612731565b908152602001604051809103902060000160009054906101000a900460ff166002811115610e9357610e92612dbd565b5b1415610ed6576040518060400160405280600781526020017f526567756c6172000000000000000000000000000000000000000000000000008152509150611040565b60016002811115610eea57610ee9612dbd565b5b60028a604051610efa9190612731565b908152602001604051809103902060000160009054906101000a900460ff166002811115610f2b57610f2a612dbd565b5b1415610f6e576040518060400160405280600c81526020017f417370617261676f707369730000000000000000000000000000000000000000815250915061103f565b600280811115610f8157610f80612dbd565b5b60028a604051610f919190612731565b908152602001604051809103902060000160009054906101000a900460ff166002811115610fc257610fc1612dbd565b5b1415611005576040518060400160405280600881526020017f506f6c796761696e000000000000000000000000000000000000000000000000815250915061103e565b6040518060400160405280600781526020017f556e6b6e6f776e0000000000000000000000000000000000000000000000000081525091505b5b5b60018081111561105357611052612dbd565b5b60028a6040516110639190612731565b908152602001604051809103902060000160019054906101000a900460ff16600181111561109457611093612dbd565b5b14156110d7576040518060400160405280600981526020017f556e636c61696d6564000000000000000000000000000000000000000000000081525090506111a8565b6001808111156110ea576110e9612dbd565b5b60028a6040516110fa9190612731565b908152602001604051809103902060000160019054906101000a900460ff16600181111561112b5761112a612dbd565b5b141561116e576040518060400160405280600781526020017f436c61696d65640000000000000000000000000000000000000000000000000081525090506111a7565b6040518060400160405280600781526020017f556e6b6e6f776e0000000000000000000000000000000000000000000000000081525090505b5b818160028b6040516111ba9190612731565b908152602001604051809103902060020160028c6040516111db9190612731565b908152602001604051809103902060010160028d6040516111fc9190612731565b908152602001604051809103902060030160009054906101000a900461ffff1660028e60405161122c9190612731565b90815260200160405180910390206004015483805461124a90612cd8565b80601f016020809104026020016040519081016040528092919081815260200182805461127690612cd8565b80156112c35780601f10611298576101008083540402835291602001916112c3565b820191906000526020600020905b8154815290600101906020018083116112a657829003601f168201915b505050505093508280546112d690612cd8565b80601f016020809104026020016040519081016040528092919081815260200182805461130290612cd8565b801561134f5780601f106113245761010080835404028352916020019161134f565b820191906000526020600020905b81548152906001019060200180831161133257829003601f168201915b50505050509250975097509750975097509750505091939550919395565b6060806060806060806060600060068054905067ffffffffffffffff81111561139957611398612e4a565b5b6040519080825280602002602001820160405280156113cc57816020015b60608152602001906001900390816113b75790505b509050600060068054905067ffffffffffffffff8111156113f0576113ef612e4a565b5b60405190808252806020026020018201604052801561142357816020015b606081526020019060019003908161140e5790505b509050600060068054905067ffffffffffffffff81111561144757611446612e4a565b5b60405190808252806020026020018201604052801561147a57816020015b60608152602001906001900390816114655790505b509050600060068054905067ffffffffffffffff81111561149e5761149d612e4a565b5b6040519080825280602002602001820160405280156114d157816020015b60608152602001906001900390816114bc5790505b509050600060068054905067ffffffffffffffff8111156114f5576114f4612e4a565b5b6040519080825280602002602001820160405280156115235781602001602082028036833780820191505090505b509050600060068054905067ffffffffffffffff81111561154757611546612e4a565b5b6040519080825280602002602001820160405280156115755781602001602082028036833780820191505090505b50905060005b600680549050811015611cf8576000600281111561159c5761159b612dbd565b5b6002600683815481106115b2576115b1612e1b565b5b906000526020600020016040516115c9919061277d565b908152602001604051809103902060000160009054906101000a900460ff1660028111156115fa576115f9612dbd565b5b1415611659576040518060400160405280600781526020017f526567756c61720000000000000000000000000000000000000000000000000081525087828151811061164957611648612e1b565b5b6020026020010181905250611851565b6001600281111561166d5761166c612dbd565b5b60026006838154811061168357611682612e1b565b5b9060005260206000200160405161169a919061277d565b908152602001604051809103902060000160009054906101000a900460ff1660028111156116cb576116ca612dbd565b5b141561172a576040518060400160405280600c81526020017f417370617261676f70736973000000000000000000000000000000000000000081525087828151811061171a57611719612e1b565b5b6020026020010181905250611850565b60028081111561173d5761173c612dbd565b5b60026006838154811061175357611752612e1b565b5b9060005260206000200160405161176a919061277d565b908152602001604051809103902060000160009054906101000a900460ff16600281111561179b5761179a612dbd565b5b14156117fa576040518060400160405280600881526020017f506f6c796761696e0000000000000000000000000000000000000000000000008152508782815181106117ea576117e9612e1b565b5b602002602001018190525061184f565b6040518060400160405280600781526020017f556e6b6e6f776e0000000000000000000000000000000000000000000000000081525087828151811061184357611842612e1b565b5b60200260200101819052505b5b5b60018081111561186457611863612dbd565b5b60026006838154811061187a57611879612e1b565b5b90600052602060002001604051611891919061277d565b908152602001604051809103902060000160019054906101000a900460ff1660018111156118c2576118c1612dbd565b5b1415611921576040518060400160405280600981526020017f556e636c61696d6564000000000000000000000000000000000000000000000081525086828151811061191157611910612e1b565b5b6020026020010181905250611a47565b60018081111561193457611933612dbd565b5b60026006838154811061194a57611949612e1b565b5b90600052602060002001604051611961919061277d565b908152602001604051809103902060000160019054906101000a900460ff16600181111561199257611991612dbd565b5b14156119f1576040518060400160405280600781526020017f436c61696d6564000000000000000000000000000000000000000000000000008152508682815181106119e1576119e0612e1b565b5b6020026020010181905250611a46565b6040518060400160405280600781526020017f556e6b6e6f776e00000000000000000000000000000000000000000000000000815250868281518110611a3a57611a39612e1b565b5b60200260200101819052505b5b600260068281548110611a5d57611a5c612e1b565b5b90600052602060002001604051611a74919061277d565b90815260200160405180910390206002018054611a9090612cd8565b80601f0160208091040260200160405190810160405280929190818152602001828054611abc90612cd8565b8015611b095780601f10611ade57610100808354040283529160200191611b09565b820191906000526020600020905b815481529060010190602001808311611aec57829003601f168201915b5050505050858281518110611b2157611b20612e1b565b5b6020026020010181905250600260068281548110611b4257611b41612e1b565b5b90600052602060002001604051611b59919061277d565b90815260200160405180910390206001018054611b7590612cd8565b80601f0160208091040260200160405190810160405280929190818152602001828054611ba190612cd8565b8015611bee5780601f10611bc357610100808354040283529160200191611bee565b820191906000526020600020905b815481529060010190602001808311611bd157829003601f168201915b5050505050848281518110611c0657611c05612e1b565b5b6020026020010181905250600260068281548110611c2757611c26612e1b565b5b90600052602060002001604051611c3e919061277d565b908152602001604051809103902060030160009054906101000a900461ffff16838281518110611c7157611c70612e1b565b5b602002602001019061ffff16908161ffff1681525050600260068281548110611c9d57611c9c612e1b565b5b90600052602060002001604051611cb4919061277d565b908152602001604051809103902060040154828281518110611cd957611cd8612e1b565b5b6020026020010181815250508080611cf090612d3b565b91505061157b565b50600686868686868686805480602002602001604051908101604052809291908181526020016000905b82821015611dce578382906000526020600020018054611d4190612cd8565b80601f0160208091040260200160405190810160405280929190818152602001828054611d6d90612cd8565b8015611dba5780601f10611d8f57610100808354040283529160200191611dba565b820191906000526020600020905b815481529060010190602001808311611d9d57829003601f168201915b505050505081526020019060010190611d22565b5050505096509c509c509c509c509c509c509c5050505050505090919293949596565b6003818051602081018201805184825260208301602085012081835280955050505050506000915054906101000a900460ff1681565b6004818051602081018201805184825260208301602085012081835280955050505050506000915090508054611e5c90612cd8565b80601f0160208091040260200160405190810160405280929190818152602001828054611e8890612cd8565b8015611ed55780601f10611eaa57610100808354040283529160200191611ed5565b820191906000526020600020905b815481529060010190602001808311611eb857829003601f168201915b505050505081565b828054611ee990612cd8565b90600052602060002090601f016020900481019282611f0b5760008555611f52565b82601f10611f2457805160ff1916838001178555611f52565b82800160010185558215611f52579182015b82811115611f51578251825591602001919060010190611f36565b5b509050611f5f9190611f63565b5090565b5b80821115611f7c576000816000905550600101611f64565b5090565b6000611f93611f8e84612a78565b612a53565b905082815260208101848484011115611faf57611fae612e7e565b5b611fba848285612c96565b509392505050565b6000611fd5611fd084612a78565b612a53565b905082815260208101848484011115611ff157611ff0612e7e565b5b611ffc848285612ca5565b509392505050565b60008151905061201381612fe2565b92915050565b60008151905061202881612ff9565b92915050565b600082601f83011261204357612042612e79565b5b8135612053848260208601611f80565b91505092915050565b600082601f83011261207157612070612e79565b5b8151612081848260208601611fc2565b91505092915050565b60008135905061209981613010565b92915050565b6000815190506120ae81613010565b92915050565b6000813590506120c381613027565b92915050565b6000815190506120d881613027565b92915050565b6000813590506120ed8161303e565b92915050565b60006020828403121561210957612108612e88565b5b600061211784828501612019565b91505092915050565b60006020828403121561213657612135612e88565b5b600082013567ffffffffffffffff81111561215457612153612e83565b5b6121608482850161202e565b91505092915050565b600080600080600060a0868803121561218557612184612e88565b5b600086015167ffffffffffffffff8111156121a3576121a2612e83565b5b6121af8882890161205c565b95505060206121c088828901612004565b94505060406121d18882890161209f565b935050606086015167ffffffffffffffff8111156121f2576121f1612e83565b5b6121fe8882890161205c565b925050608061220f888289016120c9565b9150509295509295909350565b60008060008060008060c0878903121561223957612238612e88565b5b600087013567ffffffffffffffff81111561225757612256612e83565b5b61226389828a0161202e565b965050602061227489828a016120de565b955050604087013567ffffffffffffffff81111561229557612294612e83565b5b6122a189828a0161202e565b945050606087013567ffffffffffffffff8111156122c2576122c1612e83565b5b6122ce89828a0161202e565b93505060806122df89828a0161208a565b92505060a06122f089828a016120b4565b9150509295509295509295565b60006020828403121561231357612312612e88565b5b6000612321848285016120b4565b91505092915050565b600061233683836124ea565b905092915050565b600061234a83836126de565b60208301905092915050565b600061236283836126fc565b60208301905092915050565b600061237982612aee565b6123838185612b41565b93508360208202850161239585612aa9565b8060005b858110156123d157848403895281516123b2858261232a565b94506123bd83612b1a565b925060208a01995050600181019050612399565b50829750879550505050505092915050565b60006123ee82612af9565b6123f88185612b52565b935061240383612ab9565b8060005b8381101561243457815161241b888261233e565b975061242683612b27565b925050600181019050612407565b5085935050505092915050565b600061244c82612b04565b6124568185612b63565b935061246183612ac9565b8060005b838110156124925781516124798882612356565b975061248483612b34565b925050600181019050612465565b5085935050505092915050565b6124a881612bb3565b82525050565b6124b781612c2a565b82525050565b6124c681612c3c565b82525050565b6124d581612c4e565b82525050565b6124e481612c60565b82525050565b60006124f582612b0f565b6124ff8185612b74565b935061250f818560208601612ca5565b61251881612e8d565b840191505092915050565b600061252e82612b0f565b6125388185612b85565b9350612548818560208601612ca5565b61255181612e8d565b840191505092915050565b600061256782612b0f565b6125718185612b96565b9350612581818560208601612ca5565b80840191505092915050565b6000815461259a81612cd8565b6125a48186612b96565b945060018216600081146125bf57600181146125d057612603565b60ff19831686528186019350612603565b6125d985612ad9565b60005b838110156125fb578154818901526001820191506020810190506125dc565b838801955050505b50505092915050565b6000612619601783612b85565b915061262482612e9e565b602082019050919050565b600061263c601783612b85565b915061264782612ec7565b602082019050919050565b600061265f601583612b85565b915061266a82612ef0565b602082019050919050565b6000612682601683612b85565b915061268d82612f19565b602082019050919050565b60006126a5603883612b85565b91506126b082612f42565b604082019050919050565b60006126c8601c83612b85565b91506126d382612f91565b602082019050919050565b6126e781612be5565b82525050565b6126f681612be5565b82525050565b61270581612c13565b82525050565b61271481612c13565b82525050565b61272b61272682612c13565b612d84565b82525050565b600061273d828461255c565b915081905092915050565b6000612754828661255c565b9150612760828561255c565b915061276c828461271a565b602082019150819050949350505050565b6000612789828461258d565b915081905092915050565b600060e08201905081810360008301526127ae818a61236e565b905081810360208301526127c2818961236e565b905081810360408301526127d6818861236e565b905081810360608301526127ea818761236e565b905081810360808301526127fe818661236e565b905081810360a083015261281281856123e3565b905081810360c08301526128268184612441565b905098975050505050505050565b6000602082019050612849600083018461249f565b92915050565b600060208201905061286460008301846124ae565b92915050565b600060208201905061287f60008301846124bd565b92915050565b600060c08201905061289a60008301896124db565b6128a760208301886124cc565b81810360408301526128b98187612523565b905081810360608301526128cd8186612523565b90506128dc60808301856126ed565b6128e960a083018461270b565b979650505050505050565b6000602082019050818103600083015261290e8184612523565b905092915050565b600060c08201905081810360008301526129308189612523565b905081810360208301526129448188612523565b905081810360408301526129588187612523565b9050818103606083015261296c8186612523565b905061297b60808301856126ed565b61298860a083018461270b565b979650505050505050565b600060208201905081810360008301526129ac8161260c565b9050919050565b600060208201905081810360008301526129cc8161262f565b9050919050565b600060208201905081810360008301526129ec81612652565b9050919050565b60006020820190508181036000830152612a0c81612675565b9050919050565b60006020820190508181036000830152612a2c81612698565b9050919050565b60006020820190508181036000830152612a4c816126bb565b9050919050565b6000612a5d612a6e565b9050612a698282612d0a565b919050565b6000604051905090565b600067ffffffffffffffff821115612a9357612a92612e4a565b5b612a9c82612e8d565b9050602081019050919050565b6000819050602082019050919050565b6000819050602082019050919050565b6000819050602082019050919050565b60008190508160005260206000209050919050565b600081519050919050565b600081519050919050565b600081519050919050565b600081519050919050565b6000602082019050919050565b6000602082019050919050565b6000602082019050919050565b600082825260208201905092915050565b600082825260208201905092915050565b600082825260208201905092915050565b600082825260208201905092915050565b600082825260208201905092915050565b600081905092915050565b6000612bac82612bf3565b9050919050565b60008115159050919050565b6000819050612bcd82612fba565b919050565b6000819050612be082612fce565b919050565b600061ffff82169050919050565b600073ffffffffffffffffffffffffffffffffffffffff82169050919050565b6000819050919050565b600060ff82169050919050565b6000612c3582612c72565b9050919050565b6000612c4782612c72565b9050919050565b6000612c5982612bbf565b9050919050565b6000612c6b82612bd2565b9050919050565b6000612c7d82612c84565b9050919050565b6000612c8f82612bf3565b9050919050565b82818337600083830152505050565b60005b83811015612cc3578082015181840152602081019050612ca8565b83811115612cd2576000848401525b50505050565b60006002820490506001821680612cf057607f821691505b60208210811415612d0457612d03612dec565b5b50919050565b612d1382612e8d565b810181811067ffffffffffffffff82111715612d3257612d31612e4a565b5b80604052505050565b6000612d4682612c13565b91507fffffffffffffffffffffffffffffffffffffffffffffffffffffffffffffffff821415612d7957612d78612d8e565b5b600182019050919050565b6000819050919050565b7f4e487b7100000000000000000000000000000000000000000000000000000000600052601160045260246000fd5b7f4e487b7100000000000000000000000000000000000000000000000000000000600052602160045260246000fd5b7f4e487b7100000000000000000000000000000000000000000000000000000000600052602260045260246000fd5b7f4e487b7100000000000000000000000000000000000000000000000000000000600052603260045260246000fd5b7f4e487b7100000000000000000000000000000000000000000000000000000000600052604160045260246000fd5b600080fd5b600080fd5b600080fd5b600080fd5b6000601f19601f8301169050919050565b7f416e696d616c206973206e6f742072656769737465642e000000000000000000600082015250565b7f4665656420494420646f6573206e6f742065786973742e000000000000000000600082015250565b7f4f7264657220646f6573206e6f742065786973742e0000000000000000000000600082015250565b7f4665656420494420616c72656164792065786973742e00000000000000000000600082015250565b7f546865206661726d6572206973206e6f7420746865206f726967696e616c207060008201527f7572636861736572206f662074686520736561666565642e0000000000000000602082015250565b7f46656564207265636f726420616c726561647920636c61696d65642e00000000600082015250565b60028110612fcb57612fca612dbd565b5b50565b60038110612fdf57612fde612dbd565b5b50565b612feb81612ba1565b8114612ff657600080fd5b50565b61300281612bb3565b811461300d57600080fd5b50565b61301981612be5565b811461302457600080fd5b50565b61303081612c13565b811461303b57600080fd5b50565b61304781612c1d565b811461305257600080fd5b5056fea2646970667358221220694c332cfc4b326bff268504762b9d2dda674520c2b0807046eb48b17c1167b764736f6c63430008070033",
  "immutableReferences": {},
  "source": "// SPDX-License-Identifier: MIT\npragma solidity ^0.8.0;\n\nimport \"./AnimalRegistry.sol\";\nimport \"./SeafeedRegistry.sol\";\n\ncontract FeedTracking {\n    AnimalRegistry public animalregistry;\n    SeafeedRegistry public seafeedregistry;\n\n    enum Ingredient {\n        REGULAR,\n        ASPARAGOPSIS,\n        POLYGAIN\n    }\n\n    enum ClaimStatus {\n        CLAIMED,\n        UNCLAIMED\n    }\n\n    struct FeedRecord {\n        Ingredient FeedType;\n        ClaimStatus Status;\n        string OrderID;\n        string AnimalID;\n        uint16 DMI;\n        uint256 DateTime;\n    }\n\n    mapping(string => FeedRecord) public feeds;\n    mapping(string => bool) public feedExists;\n    mapping(string => string) public feedSearch;\n    mapping(string => bool) public feedClaimed; // value changes to true if a feed record has been used to claim carbon tokens.\n    string[] public allfeeds;\n\n    constructor(AnimalRegistry _animalregistry, SeafeedRegistry _seafeedregistry)\n    {\n        animalregistry = _animalregistry;\n        seafeedregistry = _seafeedregistry;\n    }\n\n    /**\n     * ingredient Regular-0, Asparagopsis-1, Polygain-2\n     */\n    function logFeed(string memory _feedid, uint8 _feedtype, string memory _orderid, string memory _animalid, uint16 _dmi, uint256 _datetime) public \n    {\n        require(!feedExists[_feedid], \"Feed ID already exist.\");\n        require(animalregistry.animalExists(_animalid), \"Animal is not registed.\");\n        require(seafeedregistry.orderExists(_orderid), \"Order does not exist.\");\n        (string memory customer,address customeraddr,uint16 quantity,string memory orderstatus,uint256 orderdatetime) = seafeedregistry.queryOrder(_orderid);\n        require(customeraddr == msg.sender, \"The farmer is not the original purchaser of the seafeed.\");\n\n        string memory searchid;\n        string memory ingredient;\n\n        feeds[_feedid] = FeedRecord(Ingredient(_feedtype), ClaimStatus.UNCLAIMED, _orderid, _animalid, _dmi, _datetime); //, block.timestamp\n        feedExists[_feedid] = true;\n\n        if (Ingredient(_feedtype) == Ingredient.REGULAR) {\n            ingredient = \"Regular\";\n        } else if (Ingredient(_feedtype) == Ingredient.ASPARAGOPSIS) {\n            ingredient = \"Asparagopsis\";\n        } else if (Ingredient(_feedtype) == Ingredient.POLYGAIN) {\n            ingredient = \"Polygain\";\n        } else {\n            ingredient = \"Unknown\";\n        }\n\n        searchid = string(abi.encodePacked(ingredient,_animalid,_datetime)); // searchid = [animalid|feedtype|datetime]\n        feedSearch[searchid] = _feedid;\n        allfeeds.push(_feedid);\n    }\n\n    function claimFeed(string memory _feedid) public {\n        require(feedExists[_feedid], \"Feed ID does not exist.\");\n        require(feeds[_feedid].Status==ClaimStatus.UNCLAIMED, \"Feed record already claimed.\");\n        feeds[_feedid].Status = ClaimStatus.CLAIMED;\n    }\n\n    function queryFeed(string memory _feedid) \n        public\n        view\n        returns(\n            string memory,\n            string memory,\n            string memory,\n            string memory,\n            uint16,\n            uint256)\n    {\n        require(feedExists[_feedid], \"Feed ID does not exist.\");\n        string memory ingredient;\n        string memory claimstatus;\n\n        if (feeds[_feedid].FeedType == Ingredient.REGULAR) {\n            ingredient = \"Regular\";\n        } else if (feeds[_feedid].FeedType == Ingredient.ASPARAGOPSIS) {\n            ingredient = \"Asparagopsis\";\n        } else if (feeds[_feedid].FeedType == Ingredient.POLYGAIN) {\n            ingredient = \"Polygain\";\n        } else {\n            ingredient = \"Unknown\";\n        }\n\n        if (feeds[_feedid].Status == ClaimStatus.UNCLAIMED) {\n            claimstatus = \"Unclaimed\";\n        } else if (feeds[_feedid].Status == ClaimStatus.UNCLAIMED) {\n            claimstatus = \"Claimed\";\n        } else {\n            claimstatus = \"Unknown\";\n        }\n\n        return(\n            ingredient,\n            claimstatus,\n            feeds[_feedid].AnimalID,\n            feeds[_feedid].OrderID,\n            feeds[_feedid].DMI,\n            feeds[_feedid].DateTime\n        );\n    }\n\n    function queryAll() public view\n        returns(\n            string[] memory,\n            string[] memory,\n            string[] memory,\n            string[] memory,\n            string[] memory,\n            uint16[] memory,\n            uint256[] memory)\n    {\n        string[] memory ingredients = new string[](allfeeds.length);\n        string[] memory claimstatus = new string[](allfeeds.length);\n        string[] memory animalids = new string[](allfeeds.length);\n        string[] memory orderids = new string[](allfeeds.length);\n        uint16[] memory dmis = new uint16[](allfeeds.length);\n        uint256[] memory datetimes = new uint256[](allfeeds.length);\n\n        for(uint256 i=0; i<allfeeds.length; i++) {\n            if (feeds[allfeeds[i]].FeedType == Ingredient.REGULAR) {\n                ingredients[i] = \"Regular\";\n            } else if (feeds[allfeeds[i]].FeedType == Ingredient.ASPARAGOPSIS) {\n                ingredients[i] = \"Asparagopsis\";\n            } else if (feeds[allfeeds[i]].FeedType == Ingredient.POLYGAIN) {\n                ingredients[i] = \"Polygain\";\n            } else {\n                ingredients[i] = \"Unknown\";\n            }\n\n            if (feeds[allfeeds[i]].Status == ClaimStatus.UNCLAIMED) {\n                claimstatus[i] = \"Unclaimed\";\n            } else if (feeds[allfeeds[i]].Status == ClaimStatus.UNCLAIMED) {\n                claimstatus[i] = \"Claimed\";\n            } else {\n                claimstatus[i] = \"Unknown\";\n            }\n\n            animalids[i] = feeds[allfeeds[i]].AnimalID;\n            orderids[i] = feeds[allfeeds[i]].OrderID;\n            dmis[i] = feeds[allfeeds[i]].DMI;\n            datetimes[i] = feeds[allfeeds[i]].DateTime;\n        }\n\n        return(allfeeds,ingredients,claimstatus,animalids,orderids,dmis,datetimes);\n    }\n}",
  "sourcePath": "/home/yih/Documents/dev/beston-dapps/contracts/carbon/FeedTracking.sol",
  "compiler": {
    "name": "solc",
    "version": "0.8.7+commit.e28d00a7.Emscripten.clang"
  },
  "schemaVersion": "3.4.1",
  "updatedAt": "2023-06-09T02:47:28.209Z",
  "networkType": "ethereum",
  "devdoc": {
    "kind": "dev",
    "methods": {},
    "version": 1
  },
  "userdoc": {
    "kind": "user",
    "methods": {
      "logFeed(string,uint8,string,string,uint16,uint256)": {
        "notice": "ingredient Regular-0, Asparagopsis-1, Polygain-2"
      }
    },
    "version": 1
  }
}