{
  "contractName": "FeedTracking",
  "abi": [
    {
      "inputs": [
        {
          "internalType": "contract AnimalRegistry",
          "name": "_animalregistry",
          "type": "address"
        }
      ],
      "stateMutability": "nonpayable",
      "type": "constructor"
    },
    {
      "inputs": [],
      "name": "animalregistry",
      "outputs": [
        {
          "internalType": "contract AnimalRegistry",
          "name": "",
          "type": "address"
        }
      ],
      "stateMutability": "view",
      "type": "function"
    },
    {
      "inputs": [],
      "name": "feedCount",
      "outputs": [
        {
          "internalType": "uint256",
          "name": "",
          "type": "uint256"
        }
      ],
      "stateMutability": "view",
      "type": "function"
    },
    {
      "inputs": [
        {
          "internalType": "string",
          "name": "",
          "type": "string"
        }
      ],
      "name": "feedExists",
      "outputs": [
        {
          "internalType": "bool",
          "name": "",
          "type": "bool"
        }
      ],
      "stateMutability": "view",
      "type": "function"
    },
    {
      "inputs": [
        {
          "internalType": "string",
          "name": "",
          "type": "string"
        }
      ],
      "name": "feeds",
      "outputs": [
        {
          "internalType": "enum FeedTracking.Ingredient",
          "name": "FeedType",
          "type": "uint8"
        },
        {
          "internalType": "string",
          "name": "AnimalID",
          "type": "string"
        },
        {
          "internalType": "uint16",
          "name": "DMI",
          "type": "uint16"
        },
        {
          "internalType": "uint256",
          "name": "DateTime",
          "type": "uint256"
        },
        {
          "internalType": "uint256",
          "name": "BlockTime",
          "type": "uint256"
        }
      ],
      "stateMutability": "view",
      "type": "function"
    },
    {
      "inputs": [
        {
          "internalType": "string",
          "name": "_feedid",
          "type": "string"
        },
        {
          "internalType": "uint8",
          "name": "_feedtype",
          "type": "uint8"
        },
        {
          "internalType": "string",
          "name": "_animalID",
          "type": "string"
        },
        {
          "internalType": "uint16",
          "name": "_dmi",
          "type": "uint16"
        },
        {
          "internalType": "uint256",
          "name": "_datetime",
          "type": "uint256"
        }
      ],
      "name": "logFeed",
      "outputs": [],
      "stateMutability": "nonpayable",
      "type": "function"
    },
    {
      "inputs": [
        {
          "internalType": "string",
          "name": "_feedid",
          "type": "string"
        }
      ],
      "name": "queryFeed",
      "outputs": [
        {
          "internalType": "string",
          "name": "",
          "type": "string"
        },
        {
          "internalType": "string",
          "name": "",
          "type": "string"
        },
        {
          "internalType": "uint16",
          "name": "",
          "type": "uint16"
        },
        {
          "internalType": "uint256",
          "name": "",
          "type": "uint256"
        },
        {
          "internalType": "uint256",
          "name": "",
          "type": "uint256"
        }
      ],
      "stateMutability": "view",
      "type": "function"
    },
    {
      "inputs": [
        {
          "internalType": "string",
          "name": "_feedid",
          "type": "string"
        }
      ],
      "name": "verifyFeedTime",
      "outputs": [
        {
          "internalType": "bool",
          "name": "",
          "type": "bool"
        }
      ],
      "stateMutability": "view",
      "type": "function"
    }
  ],
  "bytecode": "0x60806040523480156200001157600080fd5b50604051620014b3380380620014b3833981810160405281019062000037919062000095565b806000806101000a81548173ffffffffffffffffffffffffffffffffffffffff021916908373ffffffffffffffffffffffffffffffffffffffff160217905550506200012e565b6000815190506200008f8162000114565b92915050565b600060208284031215620000ae57620000ad6200010f565b5b6000620000be848285016200007e565b91505092915050565b6000620000d482620000ef565b9050919050565b6000620000e882620000c7565b9050919050565b600073ffffffffffffffffffffffffffffffffffffffff82169050919050565b600080fd5b6200011f81620000db565b81146200012b57600080fd5b50565b611375806200013e6000396000f3fe608060405234801561001057600080fd5b506004361061007d5760003560e01c80636a811e3b1161005b5780636a811e3b146100ee57806398b2264014610122578063e5ea590014610156578063e8d4d8d2146101725761007d565b80632fa51479146100825780634628986d146100b2578063515f2428146100d0575b600080fd5b61009c60048036038101906100979190610b9d565b6101a2565b6040516100a99190610dce565b60405180910390f35b6100ba61026c565b6040516100c79190610f41565b60405180910390f35b6100d8610272565b6040516100e59190610de9565b60405180910390f35b61010860048036038101906101039190610b9d565b610296565b604051610119959493929190610e04565b60405180910390f35b61013c60048036038101906101379190610b9d565b610385565b60405161014d959493929190610e80565b60405180910390f35b610170600480360381019061016b9190610be6565b610732565b005b61018c60048036038101906101879190610b9d565b6109d3565b6040516101999190610dce565b60405180910390f35b60006002826040516101b49190610db7565b908152602001604051809103902060009054906101000a900460ff1661020f576040517f08c379a000000000000000000000000000000000000000000000000000000000815260040161020690610f01565b60405180910390fd5b60018260405161021f9190610db7565b9081526020016040518091039020600401546001836040516102419190610db7565b90815260200160405180910390206003015410156102625760019050610267565b600090505b919050565b60035481565b60008054906101000a900473ffffffffffffffffffffffffffffffffffffffff1681565b6001818051602081018201805184825260208301602085012081835280955050505050506000915090508060000160009054906101000a900460ff16908060010180546102e2906110c7565b80601f016020809104026020016040519081016040528092919081815260200182805461030e906110c7565b801561035b5780601f106103305761010080835404028352916020019161035b565b820191906000526020600020905b81548152906001019060200180831161033e57829003601f168201915b5050505050908060020160009054906101000a900461ffff16908060030154908060040154905085565b606080600080600060028660405161039d9190610db7565b908152602001604051809103902060009054906101000a900460ff166103f8576040517f08c379a00000000000000000000000000000000000000000000000000000000081526004016103ef90610f01565b60405180910390fd5b60606000600281111561040e5761040d6111a2565b5b60018860405161041e9190610db7565b908152602001604051809103902060000160009054906101000a900460ff16600281111561044f5761044e6111a2565b5b1415610492576040518060400160405280600781526020017f526567756c61720000000000000000000000000000000000000000000000000081525090506105fc565b600160028111156104a6576104a56111a2565b5b6001886040516104b69190610db7565b908152602001604051809103902060000160009054906101000a900460ff1660028111156104e7576104e66111a2565b5b141561052a576040518060400160405280600c81526020017f417370617261676f70736973000000000000000000000000000000000000000081525090506105fb565b60028081111561053d5761053c6111a2565b5b60018860405161054d9190610db7565b908152602001604051809103902060000160009054906101000a900460ff16600281111561057e5761057d6111a2565b5b14156105c1576040518060400160405280600881526020017f506f6c796761696e00000000000000000000000000000000000000000000000081525090506105fa565b6040518060400160405280600781526020017f556e6b6e6f776e0000000000000000000000000000000000000000000000000081525090505b5b5b8060018860405161060d9190610db7565b908152602001604051809103902060010160018960405161062e9190610db7565b908152602001604051809103902060020160009054906101000a900461ffff1660018a60405161065e9190610db7565b90815260200160405180910390206003015460018b6040516106809190610db7565b90815260200160405180910390206004015483805461069e906110c7565b80601f01602080910402602001604051908101604052809291908181526020018280546106ca906110c7565b80156107175780601f106106ec57610100808354040283529160200191610717565b820191906000526020600020905b8154815290600101906020018083116106fa57829003601f168201915b50505050509350955095509550955095505091939590929450565b6002856040516107429190610db7565b908152602001604051809103902060009054906101000a900460ff161561079e576040517f08c379a000000000000000000000000000000000000000000000000000000000815260040161079590610f21565b60405180910390fd5b60008054906101000a900473ffffffffffffffffffffffffffffffffffffffff1673ffffffffffffffffffffffffffffffffffffffff16632c80a7f5846040518263ffffffff1660e01b81526004016107f79190610e5e565b60206040518083038186803b15801561080f57600080fd5b505afa158015610823573d6000803e3d6000fd5b505050506040513d601f19601f820116820180604052508101906108479190610b70565b610886576040517f08c379a000000000000000000000000000000000000000000000000000000000815260040161087d90610ee1565b60405180910390fd5b600360008154809291906108999061112a565b91905055506040518060a001604052808560ff1660028111156108bf576108be6111a2565b5b60028111156108d1576108d06111a2565b5b81526020018481526020018361ffff168152602001828152602001428152506001866040516109009190610db7565b908152602001604051809103902060008201518160000160006101000a81548160ff02191690836002811115610939576109386111a2565b5b0217905550602082015181600101908051906020019061095a929190610a09565b5060408201518160020160006101000a81548161ffff021916908361ffff160217905550606082015181600301556080820151816004015590505060016002866040516109a79190610db7565b908152602001604051809103902060006101000a81548160ff0219169083151502179055505050505050565b6002818051602081018201805184825260208301602085012081835280955050505050506000915054906101000a900460ff1681565b828054610a15906110c7565b90600052602060002090601f016020900481019282610a375760008555610a7e565b82601f10610a5057805160ff1916838001178555610a7e565b82800160010185558215610a7e579182015b82811115610a7d578251825591602001919060010190610a62565b5b509050610a8b9190610a8f565b5090565b5b80821115610aa8576000816000905550600101610a90565b5090565b6000610abf610aba84610f81565b610f5c565b905082815260208101848484011115610adb57610ada611234565b5b610ae6848285611085565b509392505050565b600081519050610afd816112e3565b92915050565b600082601f830112610b1857610b1761122f565b5b8135610b28848260208601610aac565b91505092915050565b600081359050610b40816112fa565b92915050565b600081359050610b5581611311565b92915050565b600081359050610b6a81611328565b92915050565b600060208284031215610b8657610b8561123e565b5b6000610b9484828501610aee565b91505092915050565b600060208284031215610bb357610bb261123e565b5b600082013567ffffffffffffffff811115610bd157610bd0611239565b5b610bdd84828501610b03565b91505092915050565b600080600080600060a08688031215610c0257610c0161123e565b5b600086013567ffffffffffffffff811115610c2057610c1f611239565b5b610c2c88828901610b03565b9550506020610c3d88828901610b5b565b945050604086013567ffffffffffffffff811115610c5e57610c5d611239565b5b610c6a88828901610b03565b9350506060610c7b88828901610b31565b9250506080610c8c88828901610b46565b9150509295509295909350565b610ca281610fd9565b82525050565b610cb18161103d565b82525050565b610cc08161104f565b82525050565b6000610cd182610fb2565b610cdb8185610fbd565b9350610ceb818560208601611094565b610cf481611243565b840191505092915050565b6000610d0a82610fb2565b610d148185610fce565b9350610d24818560208601611094565b80840191505092915050565b6000610d3d601783610fbd565b9150610d4882611254565b602082019050919050565b6000610d60601783610fbd565b9150610d6b8261127d565b602082019050919050565b6000610d83601683610fbd565b9150610d8e826112a6565b602082019050919050565b610da281610ff8565b82525050565b610db181611026565b82525050565b6000610dc38284610cff565b915081905092915050565b6000602082019050610de36000830184610c99565b92915050565b6000602082019050610dfe6000830184610ca8565b92915050565b600060a082019050610e196000830188610cb7565b8181036020830152610e2b8187610cc6565b9050610e3a6040830186610d99565b610e476060830185610da8565b610e546080830184610da8565b9695505050505050565b60006020820190508181036000830152610e788184610cc6565b905092915050565b600060a0820190508181036000830152610e9a8188610cc6565b90508181036020830152610eae8187610cc6565b9050610ebd6040830186610d99565b610eca6060830185610da8565b610ed76080830184610da8565b9695505050505050565b60006020820190508181036000830152610efa81610d30565b9050919050565b60006020820190508181036000830152610f1a81610d53565b9050919050565b60006020820190508181036000830152610f3a81610d76565b9050919050565b6000602082019050610f566000830184610da8565b92915050565b6000610f66610f77565b9050610f7282826110f9565b919050565b6000604051905090565b600067ffffffffffffffff821115610f9c57610f9b611200565b5b610fa582611243565b9050602081019050919050565b600081519050919050565b600082825260208201905092915050565b600081905092915050565b60008115159050919050565b6000819050610ff3826112cf565b919050565b600061ffff82169050919050565b600073ffffffffffffffffffffffffffffffffffffffff82169050919050565b6000819050919050565b600060ff82169050919050565b600061104882611061565b9050919050565b600061105a82610fe5565b9050919050565b600061106c82611073565b9050919050565b600061107e82611006565b9050919050565b82818337600083830152505050565b60005b838110156110b2578082015181840152602081019050611097565b838111156110c1576000848401525b50505050565b600060028204905060018216806110df57607f821691505b602082108114156110f3576110f26111d1565b5b50919050565b61110282611243565b810181811067ffffffffffffffff8211171561112157611120611200565b5b80604052505050565b600061113582611026565b91507fffffffffffffffffffffffffffffffffffffffffffffffffffffffffffffffff82141561116857611167611173565b5b600182019050919050565b7f4e487b7100000000000000000000000000000000000000000000000000000000600052601160045260246000fd5b7f4e487b7100000000000000000000000000000000000000000000000000000000600052602160045260246000fd5b7f4e487b7100000000000000000000000000000000000000000000000000000000600052602260045260246000fd5b7f4e487b7100000000000000000000000000000000000000000000000000000000600052604160045260246000fd5b600080fd5b600080fd5b600080fd5b600080fd5b6000601f19601f8301169050919050565b7f416e696d616c206973206e6f742072656769737465642e000000000000000000600082015250565b7f4665656420494420646f6573206e6f742065786973742e000000000000000000600082015250565b7f4665656420494420616c72656164792065786973742e00000000000000000000600082015250565b600381106112e0576112df6111a2565b5b50565b6112ec81610fd9565b81146112f757600080fd5b50565b61130381610ff8565b811461130e57600080fd5b50565b61131a81611026565b811461132557600080fd5b50565b61133181611030565b811461133c57600080fd5b5056fea2646970667358221220ac28695304e3b8d718e04d34d680fcd9dcef9212325608712895a4207f03ca0764736f6c63430008070033",
  "immutableReferences": {},
  "source": "// SPDX-License-Identifier: MIT\npragma solidity ^0.8.0;\n\nimport \"./AnimalRegistry.sol\";\n\ncontract FeedTracking {\n    AnimalRegistry public animalregistry;\n\n    enum Ingredient {\n        REGULAR,\n        ASPARAGOPSIS,\n        POLYGAIN\n    }\n\n    struct FeedRecord {\n        Ingredient FeedType;\n        string AnimalID;\n        uint16 DMI;\n        uint256 DateTime;\n        uint256 BlockTime;\n    }\n\n    mapping(string => FeedRecord) public feeds;\n    mapping(string => bool) public feedExists;\n    uint256 public feedCount;\n\n    constructor(AnimalRegistry _animalregistry)\n    {\n        animalregistry = _animalregistry;\n    }\n\n    /**\n     * ingredient Regular-0, Asparagopsis-1, Polygain-2\n     */\n    function logFeed(string memory _feedid, uint8 _feedtype, string memory _animalID, uint16 _dmi, uint256 _datetime) public \n    {\n        require(!feedExists[_feedid], \"Feed ID already exist.\");\n        require(animalregistry.animalExists(_animalID), \"Animal is not registed.\");\n        feedCount++;\n        feeds[_feedid] = FeedRecord(Ingredient(_feedtype), _animalID, _dmi, _datetime, block.timestamp);\n        feedExists[_feedid] = true;\n    }\n\n    function queryFeed(string memory _feedid) \n        public\n        view\n        returns(\n            string memory,\n            string memory,\n            uint16,\n            uint256,\n            uint256)\n    {\n        require(feedExists[_feedid], \"Feed ID does not exist.\");\n        string memory ingredient;\n\n        if (feeds[_feedid].FeedType == Ingredient.REGULAR) {\n            ingredient = \"Regular\";\n        } else if (feeds[_feedid].FeedType == Ingredient.ASPARAGOPSIS) {\n            ingredient = \"Asparagopsis\";\n        } else if (feeds[_feedid].FeedType == Ingredient.POLYGAIN) {\n            ingredient = \"Polygain\";\n        } else {\n            ingredient = \"Unknown\";\n        }\n\n        return\n        (\n            ingredient,\n            feeds[_feedid].AnimalID,\n            feeds[_feedid].DMI,\n            feeds[_feedid].DateTime,\n            feeds[_feedid].BlockTime\n        );\n    }\n\n    function verifyFeedTime(string memory _feedid) public view returns (bool)\n    {\n        require(feedExists[_feedid], \"Feed ID does not exist.\");\n        if (feeds[_feedid].DateTime < feeds[_feedid].BlockTime) {\n            return(true);\n        } else {\n            return(false);\n        }\n    }\n}",
  "sourcePath": "/home/yih/Documents/dev/beston-dapps/contracts/carbon/FeedTracking.sol",
  "compiler": {
    "name": "solc",
    "version": "0.8.7+commit.e28d00a7.Emscripten.clang"
  },
  "schemaVersion": "3.4.1",
  "updatedAt": "2023-02-01T03:16:02.106Z",
  "networkType": "ethereum",
  "devdoc": {
    "kind": "dev",
    "methods": {},
    "version": 1
  },
  "userdoc": {
    "kind": "user",
    "methods": {
      "logFeed(string,uint8,string,uint16,uint256)": {
        "notice": "ingredient Regular-0, Asparagopsis-1, Polygain-2"
      }
    },
    "version": 1
  }
}