{
  "contractName": "FeedTracking",
  "abi": [
    {
      "inputs": [
        {
          "internalType": "contract HerdRegistry",
          "name": "_herdregistry",
          "type": "address"
        }
      ],
      "stateMutability": "nonpayable",
      "type": "constructor"
    },
    {
      "inputs": [],
      "name": "feedCount",
      "outputs": [
        {
          "internalType": "uint256",
          "name": "",
          "type": "uint256"
        }
      ],
      "stateMutability": "view",
      "type": "function"
    },
    {
      "inputs": [
        {
          "internalType": "uint256",
          "name": "",
          "type": "uint256"
        }
      ],
      "name": "feeds",
      "outputs": [
        {
          "internalType": "uint256",
          "name": "herdID",
          "type": "uint256"
        },
        {
          "internalType": "enum FeedTracking.Ingredient",
          "name": "ingredient",
          "type": "uint8"
        },
        {
          "internalType": "uint256",
          "name": "quantity",
          "type": "uint256"
        },
        {
          "internalType": "bool",
          "name": "ccminted",
          "type": "bool"
        },
        {
          "internalType": "address",
          "name": "farmer",
          "type": "address"
        },
        {
          "internalType": "uint256",
          "name": "time",
          "type": "uint256"
        },
        {
          "internalType": "uint256",
          "name": "blocktime",
          "type": "uint256"
        }
      ],
      "stateMutability": "view",
      "type": "function"
    },
    {
      "inputs": [],
      "name": "herdregistry",
      "outputs": [
        {
          "internalType": "contract HerdRegistry",
          "name": "",
          "type": "address"
        }
      ],
      "stateMutability": "view",
      "type": "function"
    },
    {
      "inputs": [
        {
          "internalType": "uint256",
          "name": "_herdID",
          "type": "uint256"
        },
        {
          "internalType": "uint8",
          "name": "_type",
          "type": "uint8"
        },
        {
          "internalType": "uint256",
          "name": "_quantity",
          "type": "uint256"
        },
        {
          "internalType": "uint256",
          "name": "_time",
          "type": "uint256"
        }
      ],
      "name": "logFeed",
      "outputs": [],
      "stateMutability": "nonpayable",
      "type": "function"
    },
    {
      "inputs": [
        {
          "internalType": "uint256",
          "name": "_feedID",
          "type": "uint256"
        }
      ],
      "name": "viewFeed",
      "outputs": [
        {
          "internalType": "uint256",
          "name": "",
          "type": "uint256"
        },
        {
          "internalType": "string",
          "name": "",
          "type": "string"
        },
        {
          "internalType": "uint256",
          "name": "",
          "type": "uint256"
        },
        {
          "internalType": "bool",
          "name": "",
          "type": "bool"
        },
        {
          "internalType": "address",
          "name": "",
          "type": "address"
        },
        {
          "internalType": "uint256",
          "name": "",
          "type": "uint256"
        }
      ],
      "stateMutability": "view",
      "type": "function"
    },
    {
      "inputs": [
        {
          "internalType": "uint256",
          "name": "_feedID",
          "type": "uint256"
        }
      ],
      "name": "verifyFeed",
      "outputs": [
        {
          "internalType": "bool",
          "name": "",
          "type": "bool"
        }
      ],
      "stateMutability": "view",
      "type": "function"
    }
  ],
  "bytecode": "0x608060405234801561001057600080fd5b50604051610dd0380380610dd08339818101604052810190610032919061008d565b806000806101000a81548173ffffffffffffffffffffffffffffffffffffffff021916908373ffffffffffffffffffffffffffffffffffffffff1602179055505061011a565b60008151905061008781610103565b92915050565b6000602082840312156100a3576100a26100fe565b5b60006100b184828501610078565b91505092915050565b60006100c5826100de565b9050919050565b60006100d7826100ba565b9050919050565b600073ffffffffffffffffffffffffffffffffffffffff82169050919050565b600080fd5b61010c816100cc565b811461011757600080fd5b50565b610ca7806101296000396000f3fe608060405234801561001057600080fd5b50600436106100625760003560e01c80634628986d146100675780634a5479f314610085578063b3f4b362146100bb578063ce067ece146100d9578063e61afced1461010e578063ec6a7e5c1461013e575b600080fd5b61006f61015a565b60405161007c9190610941565b60405180910390f35b61009f600480360381019061009a91906107b0565b610160565b6040516100b2979695949392919061095c565b60405180910390f35b6100c36101dc565b6040516100d09190610906565b60405180910390f35b6100f360048036038101906100ee91906107b0565b610200565b604051610105969594939291906109cb565b60405180910390f35b610128600480360381019061012391906107b0565b6104a4565b60405161013591906108eb565b60405180910390f35b610158600480360381019061015391906107dd565b6104ed565b005b60025481565b60016020528060005260406000206000915090508060000154908060010160009054906101000a900460ff16908060020154908060030160009054906101000a900460ff16908060030160019054906101000a900473ffffffffffffffffffffffffffffffffffffffff16908060040154908060050154905087565b60008054906101000a900473ffffffffffffffffffffffffffffffffffffffff1681565b600060606000806000806060600060028111156102205761021f610baa565b5b600160008a815260200190815260200160002060010160009054906101000a900460ff16600281111561025657610255610baa565b5b1415610299576040518060400160405280600781526020017f526567756c61720000000000000000000000000000000000000000000000000081525090506103ed565b600160028111156102ad576102ac610baa565b5b600160008a815260200190815260200160002060010160009054906101000a900460ff1660028111156102e3576102e2610baa565b5b1415610326576040518060400160405280600c81526020017f417370617261676f70736973000000000000000000000000000000000000000081525090506103ec565b60028081111561033957610338610baa565b5b600160008a815260200190815260200160002060010160009054906101000a900460ff16600281111561036f5761036e610baa565b5b14156103b2576040518060400160405280600881526020017f506f6c796761696e00000000000000000000000000000000000000000000000081525090506103eb565b6040518060400160405280600781526020017f556e6b6e6f776e0000000000000000000000000000000000000000000000000081525090505b5b5b600160008981526020019081526020016000206000015481600160008b815260200190815260200160002060020154600160008c815260200190815260200160002060030160009054906101000a900460ff16600160008d815260200190815260200160002060030160019054906101000a900473ffffffffffffffffffffffffffffffffffffffff16600160008e8152602001908152602001600020600401549650965096509650965096505091939550919395565b60006001600083815260200190815260200160002060050154600160008481526020019081526020016000206004015410156104e357600190506104e8565b600090505b919050565b60008054906101000a900473ffffffffffffffffffffffffffffffffffffffff1673ffffffffffffffffffffffffffffffffffffffff166329bea640856040518263ffffffff1660e01b81526004016105469190610941565b60206040518083038186803b15801561055e57600080fd5b505afa158015610572573d6000803e3d6000fd5b505050506040513d601f19601f820116820180604052508101906105969190610783565b6105d5576040517f08c379a00000000000000000000000000000000000000000000000000000000081526004016105cc90610921565b60405180910390fd5b600260008154809291906105e890610b32565b919050555083600160006002548152602001908152602001600020600001819055508260ff1660028111156106205761061f610baa565b5b60016000600254815260200190815260200160002060010160006101000a81548160ff0219169083600281111561065a57610659610baa565b5b02179055508160016000600254815260200190815260200160002060020181905550600060016000600254815260200190815260200160002060030160006101000a81548160ff0219169083151502179055503360016000600254815260200190815260200160002060030160016101000a81548173ffffffffffffffffffffffffffffffffffffffff021916908373ffffffffffffffffffffffffffffffffffffffff1602179055508060016000600254815260200190815260200160002060040181905550426001600060025481526020019081526020016000206005018190555050505050565b60008151905061075381610c2c565b92915050565b60008135905061076881610c43565b92915050565b60008135905061077d81610c5a565b92915050565b60006020828403121561079957610798610bd9565b5b60006107a784828501610744565b91505092915050565b6000602082840312156107c6576107c5610bd9565b5b60006107d484828501610759565b91505092915050565b600080600080608085870312156107f7576107f6610bd9565b5b600061080587828801610759565b94505060206108168782880161076e565b935050604061082787828801610759565b925050606061083887828801610759565b91505092959194509250565b61084d81610a4f565b82525050565b61085c81610a61565b82525050565b61086b81610ab7565b82525050565b61087a81610ac9565b82525050565b600061088b82610a33565b6108958185610a3e565b93506108a5818560208601610aff565b6108ae81610bde565b840191505092915050565b60006108c6601583610a3e565b91506108d182610bef565b602082019050919050565b6108e581610aa0565b82525050565b60006020820190506109006000830184610853565b92915050565b600060208201905061091b6000830184610862565b92915050565b6000602082019050818103600083015261093a816108b9565b9050919050565b600060208201905061095660008301846108dc565b92915050565b600060e082019050610971600083018a6108dc565b61097e6020830189610871565b61098b60408301886108dc565b6109986060830187610853565b6109a56080830186610844565b6109b260a08301856108dc565b6109bf60c08301846108dc565b98975050505050505050565b600060c0820190506109e060008301896108dc565b81810360208301526109f28188610880565b9050610a0160408301876108dc565b610a0e6060830186610853565b610a1b6080830185610844565b610a2860a08301846108dc565b979650505050505050565b600081519050919050565b600082825260208201905092915050565b6000610a5a82610a80565b9050919050565b60008115159050919050565b6000819050610a7b82610c18565b919050565b600073ffffffffffffffffffffffffffffffffffffffff82169050919050565b6000819050919050565b600060ff82169050919050565b6000610ac282610adb565b9050919050565b6000610ad482610a6d565b9050919050565b6000610ae682610aed565b9050919050565b6000610af882610a80565b9050919050565b60005b83811015610b1d578082015181840152602081019050610b02565b83811115610b2c576000848401525b50505050565b6000610b3d82610aa0565b91507fffffffffffffffffffffffffffffffffffffffffffffffffffffffffffffffff821415610b7057610b6f610b7b565b5b600182019050919050565b7f4e487b7100000000000000000000000000000000000000000000000000000000600052601160045260246000fd5b7f4e487b7100000000000000000000000000000000000000000000000000000000600052602160045260246000fd5b600080fd5b6000601f19601f8301169050919050565b7f48657264206973206e6f742072656769737465642e0000000000000000000000600082015250565b60038110610c2957610c28610baa565b5b50565b610c3581610a61565b8114610c4057600080fd5b50565b610c4c81610aa0565b8114610c5757600080fd5b50565b610c6381610aaa565b8114610c6e57600080fd5b5056fea264697066735822122062e017d1cedcb8013fb3fe6733f05e4224ebd2fac137c1490603331098e8e76d64736f6c63430008070033",
  "immutableReferences": {},
  "source": "// SPDX-License-Identifier: UNLICENSED\npragma solidity ^0.8.0;\n\nimport \"./HerdRegistry.sol\";\n\n\ncontract FeedTracking {\n    HerdRegistry public herdregistry;\n\n    enum Ingredient {\n        REGULAR,\n        ASPARAGOPSIS,\n        POLYGAIN\n    }\n\n    struct FeedRecord {\n        uint256 herdID;\n        Ingredient ingredient;\n        uint256 quantity;\n        bool ccminted;\n        address farmer; // assume farmer is the one to log the feed record\n        uint time;\n        uint blocktime;\n    }\n\n    mapping(uint256 => FeedRecord) public feeds;\n    uint256 public feedCount;\n\n    constructor(HerdRegistry _herdregistry)\n    {\n        herdregistry = _herdregistry;\n    }\n\n    /**\n     * when looking up for a particular feed record\n     * we should allow flexible searching in the frontend or api\n     * and convert the search result to herdID for the use on smart contract\n     * \n     * time should be in date format in front end, and gets converted to unix timestamp for the sc\n     */\n    function logFeed(uint256 _herdID, uint8 _type, uint256 _quantity, uint _time) public \n    {\n        require(herdregistry.herdExists(_herdID), \"Herd is not registed.\");\n\n        feedCount++;\n        feeds[feedCount].herdID = _herdID;\n        feeds[feedCount].ingredient = Ingredient(_type);\n        feeds[feedCount].quantity = _quantity;\n        feeds[feedCount].ccminted = false;\n        feeds[feedCount].farmer = msg.sender; // assume farmer calls the function himself; or we manage the accounts on the api\n        feeds[feedCount].time = _time;\n        feeds[feedCount].blocktime = block.timestamp;\n    }\n\n    /**\n     * Todo: too many return values, had to remove blocktime\n     */\n    function viewFeed(uint256 _feedID) \n        public\n        view\n        returns(\n            uint256,\n            string memory,\n            uint256,\n            bool,\n            address,\n            uint)\n    {\n        string memory ingredient;\n\n        if (feeds[_feedID].ingredient == Ingredient.REGULAR) {\n            ingredient = \"Regular\";\n        } else if (feeds[_feedID].ingredient == Ingredient.ASPARAGOPSIS) {\n            ingredient = \"Asparagopsis\";\n        } else if (feeds[_feedID].ingredient == Ingredient.POLYGAIN) {\n            ingredient = \"Polygain\";\n        } else {\n            ingredient = \"Unknown\";\n        }\n\n        return\n        (\n            feeds[_feedID].herdID,\n            ingredient,\n            feeds[_feedID].quantity,\n            feeds[_feedID].ccminted,\n            feeds[_feedID].farmer,\n            feeds[_feedID].time\n        );\n    }\n\n    function verifyFeed(uint256 _feedID) public view returns (bool)\n    {\n        if (feeds[_feedID].time < feeds[_feedID].blocktime) {\n            return(true);\n        } else {\n            return(false);\n        }\n    }\n}",
  "sourcePath": "/Users/yininghu/Documents/work/Beston/Blockchain-Server/contracts/carbon/FeedTracking.sol",
  "compiler": {
    "name": "solc",
    "version": "0.8.7+commit.e28d00a7.Emscripten.clang"
  },
  "schemaVersion": "3.4.1",
  "updatedAt": "2022-09-20T04:25:26.330Z",
  "devdoc": {
    "kind": "dev",
    "methods": {},
    "version": 1
  },
  "userdoc": {
    "kind": "user",
    "methods": {
      "logFeed(uint256,uint8,uint256,uint256)": {
        "notice": "when looking up for a particular feed record we should allow flexible searching in the frontend or api and convert the search result to herdID for the use on smart contract  time should be in date format in front end, and gets converted to unix timestamp for the sc"
      },
      "viewFeed(uint256)": {
        "notice": "Todo: too many return values, had to remove blocktime"
      }
    },
    "version": 1
  }
}