{
  "contractName": "FeedTracking",
  "abi": [
    {
      "inputs": [
        {
          "internalType": "contract AnimalRegistry",
          "name": "_animalregistry",
          "type": "address"
        }
      ],
      "stateMutability": "nonpayable",
      "type": "constructor"
    },
    {
      "inputs": [],
      "name": "animalregistry",
      "outputs": [
        {
          "internalType": "contract AnimalRegistry",
          "name": "",
          "type": "address"
        }
      ],
      "stateMutability": "view",
      "type": "function",
      "constant": true
    },
    {
      "inputs": [
        {
          "internalType": "string",
          "name": "",
          "type": "string"
        }
      ],
      "name": "feedClaimed",
      "outputs": [
        {
          "internalType": "bool",
          "name": "",
          "type": "bool"
        }
      ],
      "stateMutability": "view",
      "type": "function",
      "constant": true
    },
    {
      "inputs": [
        {
          "internalType": "string",
          "name": "",
          "type": "string"
        }
      ],
      "name": "feedExists",
      "outputs": [
        {
          "internalType": "bool",
          "name": "",
          "type": "bool"
        }
      ],
      "stateMutability": "view",
      "type": "function",
      "constant": true
    },
    {
      "inputs": [
        {
          "internalType": "string",
          "name": "",
          "type": "string"
        }
      ],
      "name": "feedSearch",
      "outputs": [
        {
          "internalType": "string",
          "name": "",
          "type": "string"
        }
      ],
      "stateMutability": "view",
      "type": "function",
      "constant": true
    },
    {
      "inputs": [
        {
          "internalType": "string",
          "name": "",
          "type": "string"
        }
      ],
      "name": "feeds",
      "outputs": [
        {
          "internalType": "enum FeedTracking.Ingredient",
          "name": "FeedType",
          "type": "uint8"
        },
        {
          "internalType": "enum FeedTracking.ClaimStatus",
          "name": "Status",
          "type": "uint8"
        },
        {
          "internalType": "string",
          "name": "AnimalID",
          "type": "string"
        },
        {
          "internalType": "uint16",
          "name": "DMI",
          "type": "uint16"
        },
        {
          "internalType": "uint256",
          "name": "DateTime",
          "type": "uint256"
        },
        {
          "internalType": "uint256",
          "name": "BlockTime",
          "type": "uint256"
        }
      ],
      "stateMutability": "view",
      "type": "function",
      "constant": true
    },
    {
      "inputs": [
        {
          "internalType": "string",
          "name": "_feedid",
          "type": "string"
        },
        {
          "internalType": "uint8",
          "name": "_feedtype",
          "type": "uint8"
        },
        {
          "internalType": "string",
          "name": "_animalid",
          "type": "string"
        },
        {
          "internalType": "uint16",
          "name": "_dmi",
          "type": "uint16"
        },
        {
          "internalType": "uint256",
          "name": "_datetime",
          "type": "uint256"
        }
      ],
      "name": "logFeed",
      "outputs": [],
      "stateMutability": "nonpayable",
      "type": "function"
    },
    {
      "inputs": [
        {
          "internalType": "string",
          "name": "_feedid",
          "type": "string"
        }
      ],
      "name": "updateFeed",
      "outputs": [],
      "stateMutability": "nonpayable",
      "type": "function"
    },
    {
      "inputs": [
        {
          "internalType": "string",
          "name": "_feedid",
          "type": "string"
        }
      ],
      "name": "queryFeed",
      "outputs": [
        {
          "internalType": "string",
          "name": "",
          "type": "string"
        },
        {
          "internalType": "string",
          "name": "",
          "type": "string"
        },
        {
          "internalType": "string",
          "name": "",
          "type": "string"
        },
        {
          "internalType": "uint16",
          "name": "",
          "type": "uint16"
        },
        {
          "internalType": "uint256",
          "name": "",
          "type": "uint256"
        },
        {
          "internalType": "uint256",
          "name": "",
          "type": "uint256"
        }
      ],
      "stateMutability": "view",
      "type": "function",
      "constant": true
    }
  ],
  "bytecode": "0x60806040523480156200001157600080fd5b50604051620019df380380620019df833981810160405281019062000037919062000095565b806000806101000a81548173ffffffffffffffffffffffffffffffffffffffff021916908373ffffffffffffffffffffffffffffffffffffffff160217905550506200012e565b6000815190506200008f8162000114565b92915050565b600060208284031215620000ae57620000ad6200010f565b5b6000620000be848285016200007e565b91505092915050565b6000620000d482620000ef565b9050919050565b6000620000e882620000c7565b9050919050565b600073ffffffffffffffffffffffffffffffffffffffff82169050919050565b600080fd5b6200011f81620000db565b81146200012b57600080fd5b50565b6118a1806200013e6000396000f3fe608060405234801561001057600080fd5b50600436106100885760003560e01c8063d1686ecb1161005b578063d1686ecb14610145578063e5ea590014610161578063e8d4d8d21461017d578063f846bdfa146101ad57610088565b8063515f24281461008d5780636a811e3b146100ab5780636db81d37146100e057806398b2264014610110575b600080fd5b6100956101dd565b6040516100a29190611342565b60405180910390f35b6100c560048036038101906100c0919061109b565b610201565b6040516100d79695949392919061135d565b60405180910390f35b6100fa60048036038101906100f5919061109b565b610303565b6040516101079190611327565b60405180910390f35b61012a6004803603810190610125919061109b565b610339565b60405161013c969594939291906113e7565b60405180910390f35b61015f600480360381019061015a919061109b565b610855565b005b61017b600480360381019061017691906110e4565b610935565b005b6101976004803603810190610192919061109b565b610e1b565b6040516101a49190611327565b60405180910390f35b6101c760048036038101906101c2919061109b565b610e51565b6040516101d491906113c5565b60405180910390f35b60008054906101000a900473ffffffffffffffffffffffffffffffffffffffff1681565b6001818051602081018201805184825260208301602085012081835280955050505050506000915090508060000160009054906101000a900460ff16908060000160019054906101000a900460ff16908060010180546102609061164d565b80601f016020809104026020016040519081016040528092919081815260200182805461028c9061164d565b80156102d95780601f106102ae576101008083540402835291602001916102d9565b820191906000526020600020905b8154815290600101906020018083116102bc57829003601f168201915b5050505050908060020160009054906101000a900461ffff16908060030154908060040154905086565b6004818051602081018201805184825260208301602085012081835280955050505050506000915054906101000a900460ff1681565b6060806060600080600060028760405161035391906112db565b908152602001604051809103902060009054906101000a900460ff166103ae576040517f08c379a00000000000000000000000000000000000000000000000000000000081526004016103a59061147d565b60405180910390fd5b606080600060028111156103c5576103c46116ba565b5b60018a6040516103d591906112db565b908152602001604051809103902060000160009054906101000a900460ff166002811115610406576104056116ba565b5b1415610449576040518060400160405280600781526020017f526567756c61720000000000000000000000000000000000000000000000000081525091506105b3565b6001600281111561045d5761045c6116ba565b5b60018a60405161046d91906112db565b908152602001604051809103902060000160009054906101000a900460ff16600281111561049e5761049d6116ba565b5b14156104e1576040518060400160405280600c81526020017f417370617261676f70736973000000000000000000000000000000000000000081525091506105b2565b6002808111156104f4576104f36116ba565b5b60018a60405161050491906112db565b908152602001604051809103902060000160009054906101000a900460ff166002811115610535576105346116ba565b5b1415610578576040518060400160405280600881526020017f506f6c796761696e00000000000000000000000000000000000000000000000081525091506105b1565b6040518060400160405280600781526020017f556e6b6e6f776e0000000000000000000000000000000000000000000000000081525091505b5b5b6001808111156105c6576105c56116ba565b5b60018a6040516105d691906112db565b908152602001604051809103902060000160019054906101000a900460ff166001811115610607576106066116ba565b5b141561064a576040518060400160405280600981526020017f556e636c61696d65640000000000000000000000000000000000000000000000815250905061071b565b60018081111561065d5761065c6116ba565b5b60018a60405161066d91906112db565b908152602001604051809103902060000160019054906101000a900460ff16600181111561069e5761069d6116ba565b5b14156106e1576040518060400160405280600781526020017f436c61696d656400000000000000000000000000000000000000000000000000815250915061071a565b6040518060400160405280600781526020017f556e6b6e6f776e0000000000000000000000000000000000000000000000000081525091505b5b818160018b60405161072d91906112db565b908152602001604051809103902060010160018c60405161074e91906112db565b908152602001604051809103902060020160009054906101000a900461ffff1660018d60405161077e91906112db565b90815260200160405180910390206003015460018e6040516107a091906112db565b9081526020016040518091039020600401548380546107be9061164d565b80601f01602080910402602001604051908101604052809291908181526020018280546107ea9061164d565b80156108375780601f1061080c57610100808354040283529160200191610837565b820191906000526020600020905b81548152906001019060200180831161081a57829003601f168201915b50505050509350975097509750975097509750505091939550919395565b60028160405161086591906112db565b908152602001604051809103902060009054906101000a900460ff1661088a57600080fd5b60018081111561089d5761089c6116ba565b5b6001826040516108ad91906112db565b908152602001604051809103902060000160019054906101000a900460ff1660018111156108de576108dd6116ba565b5b146108e857600080fd5b60006001826040516108fa91906112db565b908152602001604051809103902060000160016101000a81548160ff0219169083600181111561092d5761092c6116ba565b5b021790555050565b60028560405161094591906112db565b908152602001604051809103902060009054906101000a900460ff16156109a1576040517f08c379a00000000000000000000000000000000000000000000000000000000081526004016109989061149d565b60405180910390fd5b60008054906101000a900473ffffffffffffffffffffffffffffffffffffffff1673ffffffffffffffffffffffffffffffffffffffff16632c80a7f5846040518263ffffffff1660e01b81526004016109fa91906113c5565b60206040518083038186803b158015610a1257600080fd5b505afa158015610a26573d6000803e3d6000fd5b505050506040513d601f19601f82011682018060405250810190610a4a919061106e565b610a89576040517f08c379a0000000000000000000000000000000000000000000000000000000008152600401610a809061145d565b60405180910390fd5b6060806040518060c001604052808760ff166002811115610aad57610aac6116ba565b5b6002811115610abf57610abe6116ba565b5b8152602001600180811115610ad757610ad66116ba565b5b81526020018681526020018561ffff16815260200184815260200142815250600188604051610b0691906112db565b908152602001604051809103902060008201518160000160006101000a81548160ff02191690836002811115610b3f57610b3e6116ba565b5b021790555060208201518160000160016101000a81548160ff02191690836001811115610b6f57610b6e6116ba565b5b02179055506040820151816001019080519060200190610b90929190610f07565b5060608201518160020160006101000a81548161ffff021916908361ffff1602179055506080820151816003015560a082015181600401559050506001600288604051610bdd91906112db565b908152602001604051809103902060006101000a81548160ff02191690831515021790555060006002811115610c1657610c156116ba565b5b8660ff166002811115610c2c57610c2b6116ba565b5b6002811115610c3e57610c3d6116ba565b5b1415610c81576040518060400160405280600781526020017f526567756c6172000000000000000000000000000000000000000000000000008152509050610db9565b60016002811115610c9557610c946116ba565b5b8660ff166002811115610cab57610caa6116ba565b5b6002811115610cbd57610cbc6116ba565b5b1415610d00576040518060400160405280600c81526020017f417370617261676f7073697300000000000000000000000000000000000000008152509050610db8565b600280811115610d1357610d126116ba565b5b8660ff166002811115610d2957610d286116ba565b5b6002811115610d3b57610d3a6116ba565b5b1415610d7e576040518060400160405280600881526020017f506f6c796761696e0000000000000000000000000000000000000000000000008152509050610db7565b6040518060400160405280600781526020017f556e6b6e6f776e0000000000000000000000000000000000000000000000000081525090505b5b5b808584604051602001610dce939291906112f2565b604051602081830303815290604052915086600383604051610df091906112db565b90815260200160405180910390209080519060200190610e11929190610f07565b5050505050505050565b6002818051602081018201805184825260208301602085012081835280955050505050506000915054906101000a900460ff1681565b6003818051602081018201805184825260208301602085012081835280955050505050506000915090508054610e869061164d565b80601f0160208091040260200160405190810160405280929190818152602001828054610eb29061164d565b8015610eff5780601f10610ed457610100808354040283529160200191610eff565b820191906000526020600020905b815481529060010190602001808311610ee257829003601f168201915b505050505081565b828054610f139061164d565b90600052602060002090601f016020900481019282610f355760008555610f7c565b82601f10610f4e57805160ff1916838001178555610f7c565b82800160010185558215610f7c579182015b82811115610f7b578251825591602001919060010190610f60565b5b509050610f899190610f8d565b5090565b5b80821115610fa6576000816000905550600101610f8e565b5090565b6000610fbd610fb8846114e2565b6114bd565b905082815260208101848484011115610fd957610fd861174c565b5b610fe484828561160b565b509392505050565b600081519050610ffb8161180f565b92915050565b600082601f83011261101657611015611747565b5b8135611026848260208601610faa565b91505092915050565b60008135905061103e81611826565b92915050565b6000813590506110538161183d565b92915050565b60008135905061106881611854565b92915050565b60006020828403121561108457611083611756565b5b600061109284828501610fec565b91505092915050565b6000602082840312156110b1576110b0611756565b5b600082013567ffffffffffffffff8111156110cf576110ce611751565b5b6110db84828501611001565b91505092915050565b600080600080600060a08688031215611100576110ff611756565b5b600086013567ffffffffffffffff81111561111e5761111d611751565b5b61112a88828901611001565b955050602061113b88828901611059565b945050604086013567ffffffffffffffff81111561115c5761115b611751565b5b61116888828901611001565b93505060606111798882890161102f565b925050608061118a88828901611044565b9150509295509295909350565b6111a08161153a565b82525050565b6111af816115b1565b82525050565b6111be816115c3565b82525050565b6111cd816115d5565b82525050565b60006111de82611513565b6111e8818561151e565b93506111f881856020860161161a565b6112018161175b565b840191505092915050565b600061121782611513565b611221818561152f565b935061123181856020860161161a565b80840191505092915050565b600061124a60178361151e565b91506112558261176c565b602082019050919050565b600061126d60178361151e565b915061127882611795565b602082019050919050565b600061129060168361151e565b915061129b826117be565b602082019050919050565b6112af8161156c565b82525050565b6112be8161159a565b82525050565b6112d56112d08261159a565b6116b0565b82525050565b60006112e7828461120c565b915081905092915050565b60006112fe828661120c565b915061130a828561120c565b915061131682846112c4565b602082019150819050949350505050565b600060208201905061133c6000830184611197565b92915050565b600060208201905061135760008301846111a6565b92915050565b600060c08201905061137260008301896111c4565b61137f60208301886111b5565b818103604083015261139181876111d3565b90506113a060608301866112a6565b6113ad60808301856112b5565b6113ba60a08301846112b5565b979650505050505050565b600060208201905081810360008301526113df81846111d3565b905092915050565b600060c082019050818103600083015261140181896111d3565b9050818103602083015261141581886111d3565b9050818103604083015261142981876111d3565b905061143860608301866112a6565b61144560808301856112b5565b61145260a08301846112b5565b979650505050505050565b600060208201905081810360008301526114768161123d565b9050919050565b6000602082019050818103600083015261149681611260565b9050919050565b600060208201905081810360008301526114b681611283565b9050919050565b60006114c76114d8565b90506114d3828261167f565b919050565b6000604051905090565b600067ffffffffffffffff8211156114fd576114fc611718565b5b6115068261175b565b9050602081019050919050565b600081519050919050565b600082825260208201905092915050565b600081905092915050565b60008115159050919050565b6000819050611554826117e7565b919050565b6000819050611567826117fb565b919050565b600061ffff82169050919050565b600073ffffffffffffffffffffffffffffffffffffffff82169050919050565b6000819050919050565b600060ff82169050919050565b60006115bc826115e7565b9050919050565b60006115ce82611546565b9050919050565b60006115e082611559565b9050919050565b60006115f2826115f9565b9050919050565b60006116048261157a565b9050919050565b82818337600083830152505050565b60005b8381101561163857808201518184015260208101905061161d565b83811115611647576000848401525b50505050565b6000600282049050600182168061166557607f821691505b60208210811415611679576116786116e9565b5b50919050565b6116888261175b565b810181811067ffffffffffffffff821117156116a7576116a6611718565b5b80604052505050565b6000819050919050565b7f4e487b7100000000000000000000000000000000000000000000000000000000600052602160045260246000fd5b7f4e487b7100000000000000000000000000000000000000000000000000000000600052602260045260246000fd5b7f4e487b7100000000000000000000000000000000000000000000000000000000600052604160045260246000fd5b600080fd5b600080fd5b600080fd5b600080fd5b6000601f19601f8301169050919050565b7f416e696d616c206973206e6f742072656769737465642e000000000000000000600082015250565b7f4665656420494420646f6573206e6f742065786973742e000000000000000000600082015250565b7f4665656420494420616c72656164792065786973742e00000000000000000000600082015250565b600281106117f8576117f76116ba565b5b50565b6003811061180c5761180b6116ba565b5b50565b6118188161153a565b811461182357600080fd5b50565b61182f8161156c565b811461183a57600080fd5b50565b6118468161159a565b811461185157600080fd5b50565b61185d816115a4565b811461186857600080fd5b5056fea26469706673582212202bb1f9f65adef27a4c87073d6e95af13ee8803dce99d60e3beacf4b6907ee72d64736f6c63430008070033",
  "immutableReferences": {},
  "source": "// SPDX-License-Identifier: MIT\npragma solidity ^0.8.0;\n\nimport \"./AnimalRegistry.sol\";\n\ncontract FeedTracking {\n    AnimalRegistry public animalregistry;\n\n    enum Ingredient {\n        REGULAR,\n        ASPARAGOPSIS,\n        POLYGAIN\n    }\n\n    enum ClaimStatus {\n        CLAIMED,\n        UNCLAIMED\n    }\n\n    struct FeedRecord {\n        Ingredient FeedType;\n        ClaimStatus Status;\n        string AnimalID;\n        uint16 DMI;\n        uint256 DateTime;\n        uint256 BlockTime;\n    }\n\n    mapping(string => FeedRecord) public feeds;\n    mapping(string => bool) public feedExists;\n    mapping(string => string) public feedSearch;\n    mapping(string => bool) public feedClaimed; // value changes to true if a feed record has been used to claim carbon tokens.\n\n    constructor(AnimalRegistry _animalregistry)\n    {\n        animalregistry = _animalregistry;\n    }\n\n    /**\n     * ingredient Regular-0, Asparagopsis-1, Polygain-2\n     */\n    function logFeed(string memory _feedid, uint8 _feedtype, string memory _animalid, uint16 _dmi, uint256 _datetime) public \n    {\n        require(!feedExists[_feedid], \"Feed ID already exist.\");\n        require(animalregistry.animalExists(_animalid), \"Animal is not registed.\");\n        \n        string memory searchid;\n        string memory ingredient;\n\n        feeds[_feedid] = FeedRecord(Ingredient(_feedtype), ClaimStatus.UNCLAIMED, _animalid, _dmi, _datetime, block.timestamp);\n        feedExists[_feedid] = true;\n\n        if (Ingredient(_feedtype) == Ingredient.REGULAR) {\n            ingredient = \"Regular\";\n        } else if (Ingredient(_feedtype) == Ingredient.ASPARAGOPSIS) {\n            ingredient = \"Asparagopsis\";\n        } else if (Ingredient(_feedtype) == Ingredient.POLYGAIN) {\n            ingredient = \"Polygain\";\n        } else {\n            ingredient = \"Unknown\";\n        }\n\n        searchid = string(abi.encodePacked(ingredient,_animalid,_datetime)); // searchid = [animalid|feedtype|datetime]\n        feedSearch[searchid] = _feedid;\n    }\n\n    function updateFeed(string memory _feedid) public {\n        require(feedExists[_feedid]);\n        require(feeds[_feedid].Status==ClaimStatus.UNCLAIMED);\n        feeds[_feedid].Status = ClaimStatus.CLAIMED;\n    }\n\n    function queryFeed(string memory _feedid) \n        public\n        view\n        returns(\n            string memory,\n            string memory,\n            string memory,\n            uint16,\n            uint256,\n            uint256)\n    {\n        require(feedExists[_feedid], \"Feed ID does not exist.\");\n        string memory ingredient;\n        string memory claimstatus;\n\n        if (feeds[_feedid].FeedType == Ingredient.REGULAR) {\n            ingredient = \"Regular\";\n        } else if (feeds[_feedid].FeedType == Ingredient.ASPARAGOPSIS) {\n            ingredient = \"Asparagopsis\";\n        } else if (feeds[_feedid].FeedType == Ingredient.POLYGAIN) {\n            ingredient = \"Polygain\";\n        } else {\n            ingredient = \"Unknown\";\n        }\n\n        if (feeds[_feedid].Status == ClaimStatus.UNCLAIMED) {\n            claimstatus = \"Unclaimed\";\n        } else if (feeds[_feedid].Status == ClaimStatus.UNCLAIMED) {\n            ingredient = \"Claimed\";\n        } else {\n            ingredient = \"Unknown\";\n        }\n\n        return(\n            ingredient,\n            claimstatus,\n            feeds[_feedid].AnimalID,\n            feeds[_feedid].DMI,\n            feeds[_feedid].DateTime,\n            feeds[_feedid].BlockTime\n        );\n    }\n}",
  "sourcePath": "/home/yih/Documents/dev/beston-dapps/contracts/carbon/FeedTracking.sol",
  "compiler": {
    "name": "solc",
    "version": "0.8.7+commit.e28d00a7.Emscripten.clang"
  },
  "schemaVersion": "3.4.1",
  "updatedAt": "2023-02-17T04:51:08.589Z",
  "networkType": "ethereum",
  "devdoc": {
    "kind": "dev",
    "methods": {},
    "version": 1
  },
  "userdoc": {
    "kind": "user",
    "methods": {
      "logFeed(string,uint8,string,uint16,uint256)": {
        "notice": "ingredient Regular-0, Asparagopsis-1, Polygain-2"
      }
    },
    "version": 1
  }
}