{
  "contractName": "FeedTracking",
  "abi": [
    {
      "inputs": [
        {
          "internalType": "contract AnimalRegistry",
          "name": "_animalregistry",
          "type": "address"
        }
      ],
      "stateMutability": "nonpayable",
      "type": "constructor"
    },
    {
      "inputs": [],
      "name": "animalregistry",
      "outputs": [
        {
          "internalType": "contract AnimalRegistry",
          "name": "",
          "type": "address"
        }
      ],
      "stateMutability": "view",
      "type": "function",
      "constant": true
    },
    {
      "inputs": [
        {
          "internalType": "string",
          "name": "",
          "type": "string"
        }
      ],
      "name": "feedClaimed",
      "outputs": [
        {
          "internalType": "bool",
          "name": "",
          "type": "bool"
        }
      ],
      "stateMutability": "view",
      "type": "function",
      "constant": true
    },
    {
      "inputs": [
        {
          "internalType": "string",
          "name": "",
          "type": "string"
        }
      ],
      "name": "feedExists",
      "outputs": [
        {
          "internalType": "bool",
          "name": "",
          "type": "bool"
        }
      ],
      "stateMutability": "view",
      "type": "function",
      "constant": true
    },
    {
      "inputs": [
        {
          "internalType": "string",
          "name": "",
          "type": "string"
        }
      ],
      "name": "feedSearch",
      "outputs": [
        {
          "internalType": "string",
          "name": "",
          "type": "string"
        }
      ],
      "stateMutability": "view",
      "type": "function",
      "constant": true
    },
    {
      "inputs": [
        {
          "internalType": "string",
          "name": "",
          "type": "string"
        }
      ],
      "name": "feeds",
      "outputs": [
        {
          "internalType": "enum FeedTracking.Ingredient",
          "name": "FeedType",
          "type": "uint8"
        },
        {
          "internalType": "enum FeedTracking.ClaimStatus",
          "name": "Status",
          "type": "uint8"
        },
        {
          "internalType": "string",
          "name": "AnimalID",
          "type": "string"
        },
        {
          "internalType": "uint16",
          "name": "DMI",
          "type": "uint16"
        },
        {
          "internalType": "uint256",
          "name": "DateTime",
          "type": "uint256"
        },
        {
          "internalType": "uint256",
          "name": "BlockTime",
          "type": "uint256"
        }
      ],
      "stateMutability": "view",
      "type": "function",
      "constant": true
    },
    {
      "inputs": [
        {
          "internalType": "string",
          "name": "_feedid",
          "type": "string"
        },
        {
          "internalType": "uint8",
          "name": "_feedtype",
          "type": "uint8"
        },
        {
          "internalType": "string",
          "name": "_animalid",
          "type": "string"
        },
        {
          "internalType": "uint16",
          "name": "_dmi",
          "type": "uint16"
        },
        {
          "internalType": "uint256",
          "name": "_datetime",
          "type": "uint256"
        }
      ],
      "name": "logFeed",
      "outputs": [],
      "stateMutability": "nonpayable",
      "type": "function"
    },
    {
      "inputs": [
        {
          "internalType": "string",
          "name": "_feedid",
          "type": "string"
        }
      ],
      "name": "updateFeed",
      "outputs": [],
      "stateMutability": "nonpayable",
      "type": "function"
    },
    {
      "inputs": [
        {
          "internalType": "string",
          "name": "_feedid",
          "type": "string"
        }
      ],
      "name": "queryFeed",
      "outputs": [
        {
          "internalType": "string",
          "name": "",
          "type": "string"
        },
        {
          "internalType": "string",
          "name": "",
          "type": "string"
        },
        {
          "internalType": "string",
          "name": "",
          "type": "string"
        },
        {
          "internalType": "uint16",
          "name": "",
          "type": "uint16"
        },
        {
          "internalType": "uint256",
          "name": "",
          "type": "uint256"
        },
        {
          "internalType": "uint256",
          "name": "",
          "type": "uint256"
        }
      ],
      "stateMutability": "view",
      "type": "function",
      "constant": true
    },
    {
      "inputs": [],
      "name": "queryAll",
      "outputs": [
        {
          "internalType": "string[]",
          "name": "",
          "type": "string[]"
        },
        {
          "internalType": "string[]",
          "name": "",
          "type": "string[]"
        },
        {
          "internalType": "string[]",
          "name": "",
          "type": "string[]"
        },
        {
          "internalType": "string[]",
          "name": "",
          "type": "string[]"
        },
        {
          "internalType": "uint16[]",
          "name": "",
          "type": "uint16[]"
        },
        {
          "internalType": "uint256[]",
          "name": "",
          "type": "uint256[]"
        },
        {
          "internalType": "uint256[]",
          "name": "",
          "type": "uint256[]"
        }
      ],
      "stateMutability": "view",
      "type": "function",
      "constant": true
    }
  ],
  "bytecode": "0x60806040523480156200001157600080fd5b506040516200299438038062002994833981810160405281019062000037919062000095565b806000806101000a81548173ffffffffffffffffffffffffffffffffffffffff021916908373ffffffffffffffffffffffffffffffffffffffff160217905550506200012e565b6000815190506200008f8162000114565b92915050565b600060208284031215620000ae57620000ad6200010f565b5b6000620000be848285016200007e565b91505092915050565b6000620000d482620000ef565b9050919050565b6000620000e882620000c7565b9050919050565b600073ffffffffffffffffffffffffffffffffffffffff82169050919050565b600080fd5b6200011f81620000db565b81146200012b57600080fd5b50565b612856806200013e6000396000f3fe608060405234801561001057600080fd5b50600436106100935760003560e01c8063d1686ecb11610066578063d1686ecb14610150578063e59247081461016c578063e5ea590014610190578063e8d4d8d2146101ac578063f846bdfa146101dc57610093565b8063515f2428146100985780636a811e3b146100b65780636db81d37146100eb57806398b226401461011b575b600080fd5b6100a061020c565b6040516100ad9190612136565b60405180910390f35b6100d060048036038101906100cb9190611b6a565b610230565b6040516100e296959493929190612151565b60405180910390f35b61010560048036038101906101009190611b6a565b610332565b604051610112919061211b565b60405180910390f35b61013560048036038101906101309190611b6a565b610368565b604051610147969594939291906121db565b60405180910390f35b61016a60048036038101906101659190611b6a565b610884565b005b6101746109d0565b604051610187979695949392919061207b565b60405180910390f35b6101aa60048036038101906101a59190611bb3565b6113c8565b005b6101c660048036038101906101c19190611b6a565b6118ea565b6040516101d3919061211b565b60405180910390f35b6101f660048036038101906101f19190611b6a565b611920565b60405161020391906121b9565b60405180910390f35b60008054906101000a900473ffffffffffffffffffffffffffffffffffffffff1681565b6001818051602081018201805184825260208301602085012081835280955050505050506000915090508060000160009054906101000a900460ff16908060000160019054906101000a900460ff169080600101805461028f90612532565b80601f01602080910402602001604051908101604052809291908181526020018280546102bb90612532565b80156103085780601f106102dd57610100808354040283529160200191610308565b820191906000526020600020905b8154815290600101906020018083116102eb57829003601f168201915b5050505050908060020160009054906101000a900461ffff16908060030154908060040154905086565b6004818051602081018201805184825260208301602085012081835280955050505050506000915054906101000a900460ff1681565b606080606060008060006002876040516103829190612018565b908152602001604051809103902060009054906101000a900460ff166103dd576040517f08c379a00000000000000000000000000000000000000000000000000000000081526004016103d490612271565b60405180910390fd5b606080600060028111156103f4576103f3612617565b5b60018a6040516104049190612018565b908152602001604051809103902060000160009054906101000a900460ff16600281111561043557610434612617565b5b1415610478576040518060400160405280600781526020017f526567756c61720000000000000000000000000000000000000000000000000081525091506105e2565b6001600281111561048c5761048b612617565b5b60018a60405161049c9190612018565b908152602001604051809103902060000160009054906101000a900460ff1660028111156104cd576104cc612617565b5b1415610510576040518060400160405280600c81526020017f417370617261676f70736973000000000000000000000000000000000000000081525091506105e1565b60028081111561052357610522612617565b5b60018a6040516105339190612018565b908152602001604051809103902060000160009054906101000a900460ff16600281111561056457610563612617565b5b14156105a7576040518060400160405280600881526020017f506f6c796761696e00000000000000000000000000000000000000000000000081525091506105e0565b6040518060400160405280600781526020017f556e6b6e6f776e0000000000000000000000000000000000000000000000000081525091505b5b5b6001808111156105f5576105f4612617565b5b60018a6040516106059190612018565b908152602001604051809103902060000160019054906101000a900460ff16600181111561063657610635612617565b5b1415610679576040518060400160405280600981526020017f556e636c61696d65640000000000000000000000000000000000000000000000815250905061074a565b60018081111561068c5761068b612617565b5b60018a60405161069c9190612018565b908152602001604051809103902060000160019054906101000a900460ff1660018111156106cd576106cc612617565b5b1415610710576040518060400160405280600781526020017f436c61696d6564000000000000000000000000000000000000000000000000008152509050610749565b6040518060400160405280600781526020017f556e6b6e6f776e0000000000000000000000000000000000000000000000000081525090505b5b818160018b60405161075c9190612018565b908152602001604051809103902060010160018c60405161077d9190612018565b908152602001604051809103902060020160009054906101000a900461ffff1660018d6040516107ad9190612018565b90815260200160405180910390206003015460018e6040516107cf9190612018565b9081526020016040518091039020600401548380546107ed90612532565b80601f016020809104026020016040519081016040528092919081815260200182805461081990612532565b80156108665780601f1061083b57610100808354040283529160200191610866565b820191906000526020600020905b81548152906001019060200180831161084957829003601f168201915b50505050509350975097509750975097509750505091939550919395565b6002816040516108949190612018565b908152602001604051809103902060009054906101000a900460ff166108ef576040517f08c379a00000000000000000000000000000000000000000000000000000000081526004016108e690612271565b60405180910390fd5b60018081111561090257610901612617565b5b6001826040516109129190612018565b908152602001604051809103902060000160019054906101000a900460ff16600181111561094357610942612617565b5b14610983576040517f08c379a000000000000000000000000000000000000000000000000000000000815260040161097a906122b1565b60405180910390fd5b60006001826040516109959190612018565b908152602001604051809103902060000160016101000a81548160ff021916908360018111156109c8576109c7612617565b5b021790555050565b6060806060806060806060600060058054905067ffffffffffffffff8111156109fc576109fb6126a4565b5b604051908082528060200260200182016040528015610a2f57816020015b6060815260200190600190039081610a1a5790505b509050600060058054905067ffffffffffffffff811115610a5357610a526126a4565b5b604051908082528060200260200182016040528015610a8657816020015b6060815260200190600190039081610a715790505b509050600060058054905067ffffffffffffffff811115610aaa57610aa96126a4565b5b604051908082528060200260200182016040528015610add57816020015b6060815260200190600190039081610ac85790505b509050600060058054905067ffffffffffffffff811115610b0157610b006126a4565b5b604051908082528060200260200182016040528015610b2f5781602001602082028036833780820191505090505b509050600060058054905067ffffffffffffffff811115610b5357610b526126a4565b5b604051908082528060200260200182016040528015610b815781602001602082028036833780820191505090505b509050600060058054905067ffffffffffffffff811115610ba557610ba46126a4565b5b604051908082528060200260200182016040528015610bd35781602001602082028036833780820191505090505b50905060005b6005805490508110156112cf5760006002811115610bfa57610bf9612617565b5b600160058381548110610c1057610c0f612675565b5b90600052602060002001604051610c279190612064565b908152602001604051809103902060000160009054906101000a900460ff166002811115610c5857610c57612617565b5b1415610cb7576040518060400160405280600781526020017f526567756c617200000000000000000000000000000000000000000000000000815250878281518110610ca757610ca6612675565b5b6020026020010181905250610eaf565b60016002811115610ccb57610cca612617565b5b600160058381548110610ce157610ce0612675565b5b90600052602060002001604051610cf89190612064565b908152602001604051809103902060000160009054906101000a900460ff166002811115610d2957610d28612617565b5b1415610d88576040518060400160405280600c81526020017f417370617261676f707369730000000000000000000000000000000000000000815250878281518110610d7857610d77612675565b5b6020026020010181905250610eae565b600280811115610d9b57610d9a612617565b5b600160058381548110610db157610db0612675565b5b90600052602060002001604051610dc89190612064565b908152602001604051809103902060000160009054906101000a900460ff166002811115610df957610df8612617565b5b1415610e58576040518060400160405280600881526020017f506f6c796761696e000000000000000000000000000000000000000000000000815250878281518110610e4857610e47612675565b5b6020026020010181905250610ead565b6040518060400160405280600781526020017f556e6b6e6f776e00000000000000000000000000000000000000000000000000815250878281518110610ea157610ea0612675565b5b60200260200101819052505b5b5b600180811115610ec257610ec1612617565b5b600160058381548110610ed857610ed7612675565b5b90600052602060002001604051610eef9190612064565b908152602001604051809103902060000160019054906101000a900460ff166001811115610f2057610f1f612617565b5b1415610f7f576040518060400160405280600981526020017f556e636c61696d65640000000000000000000000000000000000000000000000815250868281518110610f6f57610f6e612675565b5b60200260200101819052506110a5565b600180811115610f9257610f91612617565b5b600160058381548110610fa857610fa7612675565b5b90600052602060002001604051610fbf9190612064565b908152602001604051809103902060000160019054906101000a900460ff166001811115610ff057610fef612617565b5b141561104f576040518060400160405280600781526020017f436c61696d65640000000000000000000000000000000000000000000000000081525086828151811061103f5761103e612675565b5b60200260200101819052506110a4565b6040518060400160405280600781526020017f556e6b6e6f776e0000000000000000000000000000000000000000000000000081525086828151811061109857611097612675565b5b60200260200101819052505b5b6001600582815481106110bb576110ba612675565b5b906000526020600020016040516110d29190612064565b908152602001604051809103902060010180546110ee90612532565b80601f016020809104026020016040519081016040528092919081815260200182805461111a90612532565b80156111675780601f1061113c57610100808354040283529160200191611167565b820191906000526020600020905b81548152906001019060200180831161114a57829003601f168201915b505050505085828151811061117f5761117e612675565b5b60200260200101819052506001600582815481106111a05761119f612675565b5b906000526020600020016040516111b79190612064565b908152602001604051809103902060020160009054906101000a900461ffff168482815181106111ea576111e9612675565b5b602002602001019061ffff16908161ffff168152505060016005828154811061121657611215612675565b5b9060005260206000200160405161122d9190612064565b90815260200160405180910390206003015483828151811061125257611251612675565b5b60200260200101818152505060016005828154811061127457611273612675565b5b9060005260206000200160405161128b9190612064565b9081526020016040518091039020600401548282815181106112b0576112af612675565b5b60200260200101818152505080806112c790612595565b915050610bd9565b50600586868686868686805480602002602001604051908101604052809291908181526020016000905b828210156113a557838290600052602060002001805461131890612532565b80601f016020809104026020016040519081016040528092919081815260200182805461134490612532565b80156113915780601f1061136657610100808354040283529160200191611391565b820191906000526020600020905b81548152906001019060200180831161137457829003601f168201915b5050505050815260200190600101906112f9565b5050505096509c509c509c509c509c509c509c5050505050505090919293949596565b6002856040516113d89190612018565b908152602001604051809103902060009054906101000a900460ff1615611434576040517f08c379a000000000000000000000000000000000000000000000000000000000815260040161142b90612291565b60405180910390fd5b60008054906101000a900473ffffffffffffffffffffffffffffffffffffffff1673ffffffffffffffffffffffffffffffffffffffff16632c80a7f5846040518263ffffffff1660e01b815260040161148d91906121b9565b60206040518083038186803b1580156114a557600080fd5b505afa1580156114b9573d6000803e3d6000fd5b505050506040513d601f19601f820116820180604052508101906114dd9190611b3d565b61151c576040517f08c379a000000000000000000000000000000000000000000000000000000000815260040161151390612251565b60405180910390fd5b6060806040518060c001604052808760ff1660028111156115405761153f612617565b5b600281111561155257611551612617565b5b815260200160018081111561156a57611569612617565b5b81526020018681526020018561ffff168152602001848152602001428152506001886040516115999190612018565b908152602001604051809103902060008201518160000160006101000a81548160ff021916908360028111156115d2576115d1612617565b5b021790555060208201518160000160016101000a81548160ff0219169083600181111561160257611601612617565b5b021790555060408201518160010190805190602001906116239291906119d6565b5060608201518160020160006101000a81548161ffff021916908361ffff1602179055506080820151816003015560a0820151816004015590505060016002886040516116709190612018565b908152602001604051809103902060006101000a81548160ff021916908315150217905550600060028111156116a9576116a8612617565b5b8660ff1660028111156116bf576116be612617565b5b60028111156116d1576116d0612617565b5b1415611714576040518060400160405280600781526020017f526567756c617200000000000000000000000000000000000000000000000000815250905061184c565b6001600281111561172857611727612617565b5b8660ff16600281111561173e5761173d612617565b5b60028111156117505761174f612617565b5b1415611793576040518060400160405280600c81526020017f417370617261676f707369730000000000000000000000000000000000000000815250905061184b565b6002808111156117a6576117a5612617565b5b8660ff1660028111156117bc576117bb612617565b5b60028111156117ce576117cd612617565b5b1415611811576040518060400160405280600881526020017f506f6c796761696e000000000000000000000000000000000000000000000000815250905061184a565b6040518060400160405280600781526020017f556e6b6e6f776e0000000000000000000000000000000000000000000000000081525090505b5b5b8085846040516020016118619392919061202f565b6040516020818303038152906040529150866003836040516118839190612018565b908152602001604051809103902090805190602001906118a49291906119d6565b506005879080600181540180825580915050600190039060005260206000200160009091909190915090805190602001906118e09291906119d6565b5050505050505050565b6002818051602081018201805184825260208301602085012081835280955050505050506000915054906101000a900460ff1681565b600381805160208101820180518482526020830160208501208183528095505050505050600091509050805461195590612532565b80601f016020809104026020016040519081016040528092919081815260200182805461198190612532565b80156119ce5780601f106119a3576101008083540402835291602001916119ce565b820191906000526020600020905b8154815290600101906020018083116119b157829003601f168201915b505050505081565b8280546119e290612532565b90600052602060002090601f016020900481019282611a045760008555611a4b565b82601f10611a1d57805160ff1916838001178555611a4b565b82800160010185558215611a4b579182015b82811115611a4a578251825591602001919060010190611a2f565b5b509050611a589190611a5c565b5090565b5b80821115611a75576000816000905550600101611a5d565b5090565b6000611a8c611a87846122f6565b6122d1565b905082815260208101848484011115611aa857611aa76126d8565b5b611ab38482856124f0565b509392505050565b600081519050611aca816127c4565b92915050565b600082601f830112611ae557611ae46126d3565b5b8135611af5848260208601611a79565b91505092915050565b600081359050611b0d816127db565b92915050565b600081359050611b22816127f2565b92915050565b600081359050611b3781612809565b92915050565b600060208284031215611b5357611b526126e2565b5b6000611b6184828501611abb565b91505092915050565b600060208284031215611b8057611b7f6126e2565b5b600082013567ffffffffffffffff811115611b9e57611b9d6126dd565b5b611baa84828501611ad0565b91505092915050565b600080600080600060a08688031215611bcf57611bce6126e2565b5b600086013567ffffffffffffffff811115611bed57611bec6126dd565b5b611bf988828901611ad0565b9550506020611c0a88828901611b28565b945050604086013567ffffffffffffffff811115611c2b57611c2a6126dd565b5b611c3788828901611ad0565b9350506060611c4888828901611afe565b9250506080611c5988828901611b13565b9150509295509295909350565b6000611c728383611e17565b905092915050565b6000611c868383611fc5565b60208301905092915050565b6000611c9e8383611fe3565b60208301905092915050565b6000611cb58261236c565b611cbf81856123bf565b935083602082028501611cd185612327565b8060005b85811015611d0d5784840389528151611cee8582611c66565b9450611cf983612398565b925060208a01995050600181019050611cd5565b50829750879550505050505092915050565b6000611d2a82612377565b611d3481856123d0565b9350611d3f83612337565b8060005b83811015611d70578151611d578882611c7a565b9750611d62836123a5565b925050600181019050611d43565b5085935050505092915050565b6000611d8882612382565b611d9281856123e1565b9350611d9d83612347565b8060005b83811015611dce578151611db58882611c92565b9750611dc0836123b2565b925050600181019050611da1565b5085935050505092915050565b611de48161241f565b82525050565b611df381612496565b82525050565b611e02816124a8565b82525050565b611e11816124ba565b82525050565b6000611e228261238d565b611e2c81856123f2565b9350611e3c8185602086016124ff565b611e45816126e7565b840191505092915050565b6000611e5b8261238d565b611e658185612403565b9350611e758185602086016124ff565b611e7e816126e7565b840191505092915050565b6000611e948261238d565b611e9e8185612414565b9350611eae8185602086016124ff565b80840191505092915050565b60008154611ec781612532565b611ed18186612414565b94506001821660008114611eec5760018114611efd57611f30565b60ff19831686528186019350611f30565b611f0685612357565b60005b83811015611f2857815481890152600182019150602081019050611f09565b838801955050505b50505092915050565b6000611f46601783612403565b9150611f51826126f8565b602082019050919050565b6000611f69601783612403565b9150611f7482612721565b602082019050919050565b6000611f8c601683612403565b9150611f978261274a565b602082019050919050565b6000611faf601c83612403565b9150611fba82612773565b602082019050919050565b611fce81612451565b82525050565b611fdd81612451565b82525050565b611fec8161247f565b82525050565b611ffb8161247f565b82525050565b61201261200d8261247f565b6125de565b82525050565b60006120248284611e89565b915081905092915050565b600061203b8286611e89565b91506120478285611e89565b91506120538284612001565b602082019150819050949350505050565b60006120708284611eba565b915081905092915050565b600060e0820190508181036000830152612095818a611caa565b905081810360208301526120a98189611caa565b905081810360408301526120bd8188611caa565b905081810360608301526120d18187611caa565b905081810360808301526120e58186611d1f565b905081810360a08301526120f98185611d7d565b905081810360c083015261210d8184611d7d565b905098975050505050505050565b60006020820190506121306000830184611ddb565b92915050565b600060208201905061214b6000830184611dea565b92915050565b600060c0820190506121666000830189611e08565b6121736020830188611df9565b81810360408301526121858187611e50565b90506121946060830186611fd4565b6121a16080830185611ff2565b6121ae60a0830184611ff2565b979650505050505050565b600060208201905081810360008301526121d38184611e50565b905092915050565b600060c08201905081810360008301526121f58189611e50565b905081810360208301526122098188611e50565b9050818103604083015261221d8187611e50565b905061222c6060830186611fd4565b6122396080830185611ff2565b61224660a0830184611ff2565b979650505050505050565b6000602082019050818103600083015261226a81611f39565b9050919050565b6000602082019050818103600083015261228a81611f5c565b9050919050565b600060208201905081810360008301526122aa81611f7f565b9050919050565b600060208201905081810360008301526122ca81611fa2565b9050919050565b60006122db6122ec565b90506122e78282612564565b919050565b6000604051905090565b600067ffffffffffffffff821115612311576123106126a4565b5b61231a826126e7565b9050602081019050919050565b6000819050602082019050919050565b6000819050602082019050919050565b6000819050602082019050919050565b60008190508160005260206000209050919050565b600081519050919050565b600081519050919050565b600081519050919050565b600081519050919050565b6000602082019050919050565b6000602082019050919050565b6000602082019050919050565b600082825260208201905092915050565b600082825260208201905092915050565b600082825260208201905092915050565b600082825260208201905092915050565b600082825260208201905092915050565b600081905092915050565b60008115159050919050565b60008190506124398261279c565b919050565b600081905061244c826127b0565b919050565b600061ffff82169050919050565b600073ffffffffffffffffffffffffffffffffffffffff82169050919050565b6000819050919050565b600060ff82169050919050565b60006124a1826124cc565b9050919050565b60006124b38261242b565b9050919050565b60006124c58261243e565b9050919050565b60006124d7826124de565b9050919050565b60006124e98261245f565b9050919050565b82818337600083830152505050565b60005b8381101561251d578082015181840152602081019050612502565b8381111561252c576000848401525b50505050565b6000600282049050600182168061254a57607f821691505b6020821081141561255e5761255d612646565b5b50919050565b61256d826126e7565b810181811067ffffffffffffffff8211171561258c5761258b6126a4565b5b80604052505050565b60006125a08261247f565b91507fffffffffffffffffffffffffffffffffffffffffffffffffffffffffffffffff8214156125d3576125d26125e8565b5b600182019050919050565b6000819050919050565b7f4e487b7100000000000000000000000000000000000000000000000000000000600052601160045260246000fd5b7f4e487b7100000000000000000000000000000000000000000000000000000000600052602160045260246000fd5b7f4e487b7100000000000000000000000000000000000000000000000000000000600052602260045260246000fd5b7f4e487b7100000000000000000000000000000000000000000000000000000000600052603260045260246000fd5b7f4e487b7100000000000000000000000000000000000000000000000000000000600052604160045260246000fd5b600080fd5b600080fd5b600080fd5b600080fd5b6000601f19601f8301169050919050565b7f416e696d616c206973206e6f742072656769737465642e000000000000000000600082015250565b7f4665656420494420646f6573206e6f742065786973742e000000000000000000600082015250565b7f4665656420494420616c72656164792065786973742e00000000000000000000600082015250565b7f46656564207265636f726420616c726561647920636c61696d65642e00000000600082015250565b600281106127ad576127ac612617565b5b50565b600381106127c1576127c0612617565b5b50565b6127cd8161241f565b81146127d857600080fd5b50565b6127e481612451565b81146127ef57600080fd5b50565b6127fb8161247f565b811461280657600080fd5b50565b61281281612489565b811461281d57600080fd5b5056fea26469706673582212203c83593a973cb44c810b3b4df20757f3a4064529e00e13387a7f00699c9923d364736f6c63430008070033",
  "immutableReferences": {},
  "source": "// SPDX-License-Identifier: MIT\npragma solidity ^0.8.0;\n\nimport \"./AnimalRegistry.sol\";\n\ncontract FeedTracking {\n    AnimalRegistry public animalregistry;\n\n    enum Ingredient {\n        REGULAR,\n        ASPARAGOPSIS,\n        POLYGAIN\n    }\n\n    enum ClaimStatus {\n        CLAIMED,\n        UNCLAIMED\n    }\n\n    struct FeedRecord {\n        Ingredient FeedType;\n        ClaimStatus Status;\n        string AnimalID;\n        uint16 DMI;\n        uint256 DateTime;\n        uint256 BlockTime;\n    }\n\n    mapping(string => FeedRecord) public feeds;\n    mapping(string => bool) public feedExists;\n    mapping(string => string) public feedSearch;\n    mapping(string => bool) public feedClaimed; // value changes to true if a feed record has been used to claim carbon tokens.\n    string[] allfeeds;\n\n    constructor(AnimalRegistry _animalregistry)\n    {\n        animalregistry = _animalregistry;\n    }\n\n    /**\n     * ingredient Regular-0, Asparagopsis-1, Polygain-2\n     */\n    function logFeed(string memory _feedid, uint8 _feedtype, string memory _animalid, uint16 _dmi, uint256 _datetime) public \n    {\n        require(!feedExists[_feedid], \"Feed ID already exist.\");\n        require(animalregistry.animalExists(_animalid), \"Animal is not registed.\");\n        \n        string memory searchid;\n        string memory ingredient;\n\n        feeds[_feedid] = FeedRecord(Ingredient(_feedtype), ClaimStatus.UNCLAIMED, _animalid, _dmi, _datetime, block.timestamp);\n        feedExists[_feedid] = true;\n\n        if (Ingredient(_feedtype) == Ingredient.REGULAR) {\n            ingredient = \"Regular\";\n        } else if (Ingredient(_feedtype) == Ingredient.ASPARAGOPSIS) {\n            ingredient = \"Asparagopsis\";\n        } else if (Ingredient(_feedtype) == Ingredient.POLYGAIN) {\n            ingredient = \"Polygain\";\n        } else {\n            ingredient = \"Unknown\";\n        }\n\n        searchid = string(abi.encodePacked(ingredient,_animalid,_datetime)); // searchid = [animalid|feedtype|datetime]\n        feedSearch[searchid] = _feedid;\n        allfeeds.push(_feedid);\n    }\n\n    function updateFeed(string memory _feedid) public {\n        require(feedExists[_feedid], \"Feed ID does not exist.\");\n        require(feeds[_feedid].Status==ClaimStatus.UNCLAIMED, \"Feed record already claimed.\");\n        feeds[_feedid].Status = ClaimStatus.CLAIMED;\n    }\n\n    function queryFeed(string memory _feedid) \n        public\n        view\n        returns(\n            string memory,\n            string memory,\n            string memory,\n            uint16,\n            uint256,\n            uint256)\n    {\n        require(feedExists[_feedid], \"Feed ID does not exist.\");\n        string memory ingredient;\n        string memory claimstatus;\n\n        if (feeds[_feedid].FeedType == Ingredient.REGULAR) {\n            ingredient = \"Regular\";\n        } else if (feeds[_feedid].FeedType == Ingredient.ASPARAGOPSIS) {\n            ingredient = \"Asparagopsis\";\n        } else if (feeds[_feedid].FeedType == Ingredient.POLYGAIN) {\n            ingredient = \"Polygain\";\n        } else {\n            ingredient = \"Unknown\";\n        }\n\n        if (feeds[_feedid].Status == ClaimStatus.UNCLAIMED) {\n            claimstatus = \"Unclaimed\";\n        } else if (feeds[_feedid].Status == ClaimStatus.UNCLAIMED) {\n            claimstatus = \"Claimed\";\n        } else {\n            claimstatus = \"Unknown\";\n        }\n\n        return(\n            ingredient,\n            claimstatus,\n            feeds[_feedid].AnimalID,\n            feeds[_feedid].DMI,\n            feeds[_feedid].DateTime,\n            feeds[_feedid].BlockTime\n        );\n    }\n\n    function queryAll() public view\n        returns(\n            string[] memory,\n            string[] memory,\n            string[] memory,\n            string[] memory,\n            uint16[] memory,\n            uint256[] memory,\n            uint256[] memory)\n    {\n        string[] memory ingredients = new string[](allfeeds.length);\n        string[] memory claimstatus = new string[](allfeeds.length);\n        string[] memory animalids = new string[](allfeeds.length);\n        uint16[] memory dmis = new uint16[](allfeeds.length);\n        uint256[] memory datetimes = new uint256[](allfeeds.length);\n        uint256[] memory blocktimes = new uint256[](allfeeds.length);\n\n        for(uint256 i=0; i<allfeeds.length; i++) {\n            if (feeds[allfeeds[i]].FeedType == Ingredient.REGULAR) {\n                ingredients[i] = \"Regular\";\n            } else if (feeds[allfeeds[i]].FeedType == Ingredient.ASPARAGOPSIS) {\n                ingredients[i] = \"Asparagopsis\";\n            } else if (feeds[allfeeds[i]].FeedType == Ingredient.POLYGAIN) {\n                ingredients[i] = \"Polygain\";\n            } else {\n                ingredients[i] = \"Unknown\";\n            }\n\n            if (feeds[allfeeds[i]].Status == ClaimStatus.UNCLAIMED) {\n                claimstatus[i] = \"Unclaimed\";\n            } else if (feeds[allfeeds[i]].Status == ClaimStatus.UNCLAIMED) {\n                claimstatus[i] = \"Claimed\";\n            } else {\n                claimstatus[i] = \"Unknown\";\n            }\n\n            animalids[i] = feeds[allfeeds[i]].AnimalID;\n            dmis[i] = feeds[allfeeds[i]].DMI;\n            datetimes[i] = feeds[allfeeds[i]].DateTime;\n            blocktimes[i] = feeds[allfeeds[i]].BlockTime;\n        }\n\n        return(allfeeds,ingredients,claimstatus,animalids,dmis,datetimes,blocktimes);\n    }\n}",
  "sourcePath": "/home/yih/Documents/dev/beston-dapps/contracts/carbon/FeedTracking.sol",
  "compiler": {
    "name": "solc",
    "version": "0.8.7+commit.e28d00a7.Emscripten.clang"
  },
  "schemaVersion": "3.4.1",
  "updatedAt": "2023-02-27T01:50:20.435Z",
  "networkType": "ethereum",
  "devdoc": {
    "kind": "dev",
    "methods": {},
    "version": 1
  },
  "userdoc": {
    "kind": "user",
    "methods": {
      "logFeed(string,uint8,string,uint16,uint256)": {
        "notice": "ingredient Regular-0, Asparagopsis-1, Polygain-2"
      }
    },
    "version": 1
  }
}