{
  "contractName": "FeedTracking",
  "abi": [
    {
      "inputs": [
        {
          "internalType": "contract AnimalRegistry",
          "name": "_animalregistry",
          "type": "address"
        },
        {
          "internalType": "contract Seafeed",
          "name": "_seafeedtracking",
          "type": "address"
        }
      ],
      "stateMutability": "nonpayable",
      "type": "constructor"
    },
    {
      "inputs": [
        {
          "internalType": "uint256",
          "name": "",
          "type": "uint256"
        }
      ],
      "name": "allfeeds",
      "outputs": [
        {
          "internalType": "string",
          "name": "",
          "type": "string"
        }
      ],
      "stateMutability": "view",
      "type": "function",
      "constant": true
    },
    {
      "inputs": [],
      "name": "animalregistry",
      "outputs": [
        {
          "internalType": "contract AnimalRegistry",
          "name": "",
          "type": "address"
        }
      ],
      "stateMutability": "view",
      "type": "function",
      "constant": true
    },
    {
      "inputs": [
        {
          "internalType": "string",
          "name": "",
          "type": "string"
        }
      ],
      "name": "feedClaimed",
      "outputs": [
        {
          "internalType": "bool",
          "name": "",
          "type": "bool"
        }
      ],
      "stateMutability": "view",
      "type": "function",
      "constant": true
    },
    {
      "inputs": [
        {
          "internalType": "string",
          "name": "",
          "type": "string"
        }
      ],
      "name": "feedExists",
      "outputs": [
        {
          "internalType": "bool",
          "name": "",
          "type": "bool"
        }
      ],
      "stateMutability": "view",
      "type": "function",
      "constant": true
    },
    {
      "inputs": [
        {
          "internalType": "string",
          "name": "",
          "type": "string"
        }
      ],
      "name": "feedSearch",
      "outputs": [
        {
          "internalType": "string",
          "name": "",
          "type": "string"
        }
      ],
      "stateMutability": "view",
      "type": "function",
      "constant": true
    },
    {
      "inputs": [
        {
          "internalType": "string",
          "name": "",
          "type": "string"
        }
      ],
      "name": "feeds",
      "outputs": [
        {
          "internalType": "enum FeedTracking.Ingredient",
          "name": "FeedType",
          "type": "uint8"
        },
        {
          "internalType": "enum FeedTracking.ClaimStatus",
          "name": "Status",
          "type": "uint8"
        },
        {
          "internalType": "string",
          "name": "OrderID",
          "type": "string"
        },
        {
          "internalType": "string",
          "name": "AnimalID",
          "type": "string"
        },
        {
          "internalType": "uint16",
          "name": "DMI",
          "type": "uint16"
        },
        {
          "internalType": "uint256",
          "name": "DateTime",
          "type": "uint256"
        }
      ],
      "stateMutability": "view",
      "type": "function",
      "constant": true
    },
    {
      "inputs": [],
      "name": "seafeedtracking",
      "outputs": [
        {
          "internalType": "contract Seafeed",
          "name": "",
          "type": "address"
        }
      ],
      "stateMutability": "view",
      "type": "function",
      "constant": true
    },
    {
      "inputs": [
        {
          "internalType": "string",
          "name": "_feedid",
          "type": "string"
        },
        {
          "internalType": "uint8",
          "name": "_feedtype",
          "type": "uint8"
        },
        {
          "internalType": "string",
          "name": "_orderid",
          "type": "string"
        },
        {
          "internalType": "string",
          "name": "_animalid",
          "type": "string"
        },
        {
          "internalType": "uint16",
          "name": "_dmi",
          "type": "uint16"
        },
        {
          "internalType": "uint256",
          "name": "_datetime",
          "type": "uint256"
        }
      ],
      "name": "logFeed",
      "outputs": [],
      "stateMutability": "nonpayable",
      "type": "function"
    },
    {
      "inputs": [
        {
          "internalType": "string",
          "name": "_feedid",
          "type": "string"
        }
      ],
      "name": "claimFeed",
      "outputs": [],
      "stateMutability": "nonpayable",
      "type": "function"
    },
    {
      "inputs": [
        {
          "internalType": "string",
          "name": "_feedid",
          "type": "string"
        }
      ],
      "name": "queryFeed",
      "outputs": [
        {
          "internalType": "string",
          "name": "",
          "type": "string"
        },
        {
          "internalType": "string",
          "name": "",
          "type": "string"
        },
        {
          "internalType": "string",
          "name": "",
          "type": "string"
        },
        {
          "internalType": "string",
          "name": "",
          "type": "string"
        },
        {
          "internalType": "uint16",
          "name": "",
          "type": "uint16"
        },
        {
          "internalType": "uint256",
          "name": "",
          "type": "uint256"
        }
      ],
      "stateMutability": "view",
      "type": "function",
      "constant": true
    },
    {
      "inputs": [],
      "name": "queryAll",
      "outputs": [
        {
          "internalType": "string[]",
          "name": "",
          "type": "string[]"
        },
        {
          "internalType": "string[]",
          "name": "",
          "type": "string[]"
        },
        {
          "internalType": "string[]",
          "name": "",
          "type": "string[]"
        },
        {
          "internalType": "string[]",
          "name": "",
          "type": "string[]"
        },
        {
          "internalType": "string[]",
          "name": "",
          "type": "string[]"
        },
        {
          "internalType": "uint16[]",
          "name": "",
          "type": "uint16[]"
        },
        {
          "internalType": "uint256[]",
          "name": "",
          "type": "uint256[]"
        }
      ],
      "stateMutability": "view",
      "type": "function",
      "constant": true
    }
  ],
  "bytecode": "0x60806040523480156200001157600080fd5b5060405162002f1338038062002f138339818101604052810190620000379190620000ee565b816000806101000a81548173ffffffffffffffffffffffffffffffffffffffff021916908373ffffffffffffffffffffffffffffffffffffffff16021790555080600160006101000a81548173ffffffffffffffffffffffffffffffffffffffff021916908373ffffffffffffffffffffffffffffffffffffffff1602179055505050620001ca565b600081519050620000d18162000196565b92915050565b600081519050620000e881620001b0565b92915050565b6000806040838503121562000108576200010762000191565b5b60006200011885828601620000c0565b92505060206200012b85828601620000d7565b9150509250929050565b6000620001428262000171565b9050919050565b6000620001568262000135565b9050919050565b60006200016a8262000135565b9050919050565b600073ffffffffffffffffffffffffffffffffffffffff82169050919050565b600080fd5b620001a18162000149565b8114620001ad57600080fd5b50565b620001bb816200015d565b8114620001c757600080fd5b50565b612d3980620001da6000396000f3fe608060405234801561001057600080fd5b50600436106100a95760003560e01c806396e9b4421161007157806396e9b4421461016957806398b2264014610199578063a9a08e21146101ce578063e5924708146101ec578063e8d4d8d214610210578063f846bdfa14610240576100a9565b806313870c0a146100ae5780634d1e6c7a146100ca578063515f2428146100e65780636a811e3b146101045780636db81d3714610139575b600080fd5b6100c860048036038101906100c39190611f85565b610270565b005b6100e460048036038101906100df9190611f3c565b610890565b005b6100ee6109dc565b6040516100fb9190612595565b60405180910390f35b61011e60048036038101906101199190611f3c565b610a00565b604051610130969594939291906125cb565b60405180910390f35b610153600480360381019061014e9190611f3c565b610b8a565b604051610160919061257a565b60405180910390f35b610183600480360381019061017e9190612066565b610bc0565b604051610190919061263a565b60405180910390f35b6101b360048036038101906101ae9190611f3c565b610c6c565b6040516101c59695949392919061265c565b60405180910390f35b6101d6611212565b6040516101e391906125b0565b60405180910390f35b6101f4611238565b60405161020797969594939291906124da565b60405180910390f35b61022a60048036038101906102259190611f3c565b611cbc565b604051610237919061257a565b60405180910390f35b61025a60048036038101906102559190611f3c565b611cf2565b604051610267919061263a565b60405180910390f35b6003866040516102809190612477565b908152602001604051809103902060009054906101000a900460ff16156102dc576040517f08c379a00000000000000000000000000000000000000000000000000000000081526004016102d390612739565b60405180910390fd5b60008054906101000a900473ffffffffffffffffffffffffffffffffffffffff1673ffffffffffffffffffffffffffffffffffffffff16632c80a7f5846040518263ffffffff1660e01b8152600401610335919061263a565b60206040518083038186803b15801561034d57600080fd5b505afa158015610361573d6000803e3d6000fd5b505050506040513d601f19601f820116820180604052508101906103859190611f0f565b6103c4576040517f08c379a00000000000000000000000000000000000000000000000000000000081526004016103bb906126d9565b60405180910390fd5b600160009054906101000a900473ffffffffffffffffffffffffffffffffffffffff1673ffffffffffffffffffffffffffffffffffffffff1663a959d585856040518263ffffffff1660e01b815260040161041f919061263a565b60206040518083038186803b15801561043757600080fd5b505afa15801561044b573d6000803e3d6000fd5b505050506040513d601f19601f8201168201806040525081019061046f9190611f0f565b6104ae576040517f08c379a00000000000000000000000000000000000000000000000000000000081526004016104a590612719565b60405180910390fd5b6060806040518060c001604052808860ff1660028111156104d2576104d1612ad1565b5b60028111156104e4576104e3612ad1565b5b81526020016001808111156104fc576104fb612ad1565b5b81526020018781526020018681526020018561ffff1681526020018481525060028960405161052b9190612477565b908152602001604051809103902060008201518160000160006101000a81548160ff0219169083600281111561056457610563612ad1565b5b021790555060208201518160000160016101000a81548160ff0219169083600181111561059457610593612ad1565b5b021790555060408201518160010190805190602001906105b5929190611da8565b5060608201518160020190805190602001906105d2929190611da8565b5060808201518160030160006101000a81548161ffff021916908361ffff16021790555060a0820151816004015590505060016003896040516106159190612477565b908152602001604051809103902060006101000a81548160ff0219169083151502179055506000600281111561064e5761064d612ad1565b5b8760ff16600281111561066457610663612ad1565b5b600281111561067657610675612ad1565b5b14156106b9576040518060400160405280600781526020017f526567756c61720000000000000000000000000000000000000000000000000081525090506107f1565b600160028111156106cd576106cc612ad1565b5b8760ff1660028111156106e3576106e2612ad1565b5b60028111156106f5576106f4612ad1565b5b1415610738576040518060400160405280600c81526020017f417370617261676f70736973000000000000000000000000000000000000000081525090506107f0565b60028081111561074b5761074a612ad1565b5b8760ff16600281111561076157610760612ad1565b5b600281111561077357610772612ad1565b5b14156107b6576040518060400160405280600881526020017f506f6c796761696e00000000000000000000000000000000000000000000000081525090506107ef565b6040518060400160405280600781526020017f556e6b6e6f776e0000000000000000000000000000000000000000000000000081525090505b5b5b8085846040516020016108069392919061248e565b6040516020818303038152906040529150876004836040516108289190612477565b90815260200160405180910390209080519060200190610849929190611da8565b50600688908060018154018082558091505060019003906000526020600020016000909190919091509080519060200190610885929190611da8565b505050505050505050565b6003816040516108a09190612477565b908152602001604051809103902060009054906101000a900460ff166108fb576040517f08c379a00000000000000000000000000000000000000000000000000000000081526004016108f2906126f9565b60405180910390fd5b60018081111561090e5761090d612ad1565b5b60028260405161091e9190612477565b908152602001604051809103902060000160019054906101000a900460ff16600181111561094f5761094e612ad1565b5b1461098f576040517f08c379a000000000000000000000000000000000000000000000000000000000815260040161098690612759565b60405180910390fd5b60006002826040516109a19190612477565b908152602001604051809103902060000160016101000a81548160ff021916908360018111156109d4576109d3612ad1565b5b021790555050565b60008054906101000a900473ffffffffffffffffffffffffffffffffffffffff1681565b6002818051602081018201805184825260208301602085012081835280955050505050506000915090508060000160009054906101000a900460ff16908060000160019054906101000a900460ff1690806001018054610a5f906129ec565b80601f0160208091040260200160405190810160405280929190818152602001828054610a8b906129ec565b8015610ad85780601f10610aad57610100808354040283529160200191610ad8565b820191906000526020600020905b815481529060010190602001808311610abb57829003601f168201915b505050505090806002018054610aed906129ec565b80601f0160208091040260200160405190810160405280929190818152602001828054610b19906129ec565b8015610b665780601f10610b3b57610100808354040283529160200191610b66565b820191906000526020600020905b815481529060010190602001808311610b4957829003601f168201915b5050505050908060030160009054906101000a900461ffff16908060040154905086565b6005818051602081018201805184825260208301602085012081835280955050505050506000915054906101000a900460ff1681565b60068181548110610bd057600080fd5b906000526020600020016000915090508054610beb906129ec565b80601f0160208091040260200160405190810160405280929190818152602001828054610c17906129ec565b8015610c645780601f10610c3957610100808354040283529160200191610c64565b820191906000526020600020905b815481529060010190602001808311610c4757829003601f168201915b505050505081565b606080606080600080600387604051610c859190612477565b908152602001604051809103902060009054906101000a900460ff16610ce0576040517f08c379a0000000000000000000000000000000000000000000000000000000008152600401610cd7906126f9565b60405180910390fd5b60608060006002811115610cf757610cf6612ad1565b5b60028a604051610d079190612477565b908152602001604051809103902060000160009054906101000a900460ff166002811115610d3857610d37612ad1565b5b1415610d7b576040518060400160405280600781526020017f526567756c6172000000000000000000000000000000000000000000000000008152509150610ee5565b60016002811115610d8f57610d8e612ad1565b5b60028a604051610d9f9190612477565b908152602001604051809103902060000160009054906101000a900460ff166002811115610dd057610dcf612ad1565b5b1415610e13576040518060400160405280600c81526020017f417370617261676f7073697300000000000000000000000000000000000000008152509150610ee4565b600280811115610e2657610e25612ad1565b5b60028a604051610e369190612477565b908152602001604051809103902060000160009054906101000a900460ff166002811115610e6757610e66612ad1565b5b1415610eaa576040518060400160405280600881526020017f506f6c796761696e0000000000000000000000000000000000000000000000008152509150610ee3565b6040518060400160405280600781526020017f556e6b6e6f776e0000000000000000000000000000000000000000000000000081525091505b5b5b600180811115610ef857610ef7612ad1565b5b60028a604051610f089190612477565b908152602001604051809103902060000160019054906101000a900460ff166001811115610f3957610f38612ad1565b5b1415610f7c576040518060400160405280600981526020017f556e636c61696d65640000000000000000000000000000000000000000000000815250905061104d565b600180811115610f8f57610f8e612ad1565b5b60028a604051610f9f9190612477565b908152602001604051809103902060000160019054906101000a900460ff166001811115610fd057610fcf612ad1565b5b1415611013576040518060400160405280600781526020017f436c61696d656400000000000000000000000000000000000000000000000000815250905061104c565b6040518060400160405280600781526020017f556e6b6e6f776e0000000000000000000000000000000000000000000000000081525090505b5b818160028b60405161105f9190612477565b908152602001604051809103902060020160028c6040516110809190612477565b908152602001604051809103902060010160028d6040516110a19190612477565b908152602001604051809103902060030160009054906101000a900461ffff1660028e6040516110d19190612477565b9081526020016040518091039020600401548380546110ef906129ec565b80601f016020809104026020016040519081016040528092919081815260200182805461111b906129ec565b80156111685780601f1061113d57610100808354040283529160200191611168565b820191906000526020600020905b81548152906001019060200180831161114b57829003601f168201915b5050505050935082805461117b906129ec565b80601f01602080910402602001604051908101604052809291908181526020018280546111a7906129ec565b80156111f45780601f106111c9576101008083540402835291602001916111f4565b820191906000526020600020905b8154815290600101906020018083116111d757829003601f168201915b50505050509250975097509750975097509750505091939550919395565b600160009054906101000a900473ffffffffffffffffffffffffffffffffffffffff1681565b6060806060806060806060600060068054905067ffffffffffffffff81111561126457611263612b5e565b5b60405190808252806020026020018201604052801561129757816020015b60608152602001906001900390816112825790505b509050600060068054905067ffffffffffffffff8111156112bb576112ba612b5e565b5b6040519080825280602002602001820160405280156112ee57816020015b60608152602001906001900390816112d95790505b509050600060068054905067ffffffffffffffff81111561131257611311612b5e565b5b60405190808252806020026020018201604052801561134557816020015b60608152602001906001900390816113305790505b509050600060068054905067ffffffffffffffff81111561136957611368612b5e565b5b60405190808252806020026020018201604052801561139c57816020015b60608152602001906001900390816113875790505b509050600060068054905067ffffffffffffffff8111156113c0576113bf612b5e565b5b6040519080825280602002602001820160405280156113ee5781602001602082028036833780820191505090505b509050600060068054905067ffffffffffffffff81111561141257611411612b5e565b5b6040519080825280602002602001820160405280156114405781602001602082028036833780820191505090505b50905060005b600680549050811015611bc3576000600281111561146757611466612ad1565b5b60026006838154811061147d5761147c612b2f565b5b9060005260206000200160405161149491906124c3565b908152602001604051809103902060000160009054906101000a900460ff1660028111156114c5576114c4612ad1565b5b1415611524576040518060400160405280600781526020017f526567756c61720000000000000000000000000000000000000000000000000081525087828151811061151457611513612b2f565b5b602002602001018190525061171c565b6001600281111561153857611537612ad1565b5b60026006838154811061154e5761154d612b2f565b5b9060005260206000200160405161156591906124c3565b908152602001604051809103902060000160009054906101000a900460ff16600281111561159657611595612ad1565b5b14156115f5576040518060400160405280600c81526020017f417370617261676f7073697300000000000000000000000000000000000000008152508782815181106115e5576115e4612b2f565b5b602002602001018190525061171b565b60028081111561160857611607612ad1565b5b60026006838154811061161e5761161d612b2f565b5b9060005260206000200160405161163591906124c3565b908152602001604051809103902060000160009054906101000a900460ff16600281111561166657611665612ad1565b5b14156116c5576040518060400160405280600881526020017f506f6c796761696e0000000000000000000000000000000000000000000000008152508782815181106116b5576116b4612b2f565b5b602002602001018190525061171a565b6040518060400160405280600781526020017f556e6b6e6f776e0000000000000000000000000000000000000000000000000081525087828151811061170e5761170d612b2f565b5b60200260200101819052505b5b5b60018081111561172f5761172e612ad1565b5b60026006838154811061174557611744612b2f565b5b9060005260206000200160405161175c91906124c3565b908152602001604051809103902060000160019054906101000a900460ff16600181111561178d5761178c612ad1565b5b14156117ec576040518060400160405280600981526020017f556e636c61696d656400000000000000000000000000000000000000000000008152508682815181106117dc576117db612b2f565b5b6020026020010181905250611912565b6001808111156117ff576117fe612ad1565b5b60026006838154811061181557611814612b2f565b5b9060005260206000200160405161182c91906124c3565b908152602001604051809103902060000160019054906101000a900460ff16600181111561185d5761185c612ad1565b5b14156118bc576040518060400160405280600781526020017f436c61696d6564000000000000000000000000000000000000000000000000008152508682815181106118ac576118ab612b2f565b5b6020026020010181905250611911565b6040518060400160405280600781526020017f556e6b6e6f776e0000000000000000000000000000000000000000000000000081525086828151811061190557611904612b2f565b5b60200260200101819052505b5b60026006828154811061192857611927612b2f565b5b9060005260206000200160405161193f91906124c3565b9081526020016040518091039020600201805461195b906129ec565b80601f0160208091040260200160405190810160405280929190818152602001828054611987906129ec565b80156119d45780601f106119a9576101008083540402835291602001916119d4565b820191906000526020600020905b8154815290600101906020018083116119b757829003601f168201915b50505050508582815181106119ec576119eb612b2f565b5b6020026020010181905250600260068281548110611a0d57611a0c612b2f565b5b90600052602060002001604051611a2491906124c3565b90815260200160405180910390206001018054611a40906129ec565b80601f0160208091040260200160405190810160405280929190818152602001828054611a6c906129ec565b8015611ab95780601f10611a8e57610100808354040283529160200191611ab9565b820191906000526020600020905b815481529060010190602001808311611a9c57829003601f168201915b5050505050848281518110611ad157611ad0612b2f565b5b6020026020010181905250600260068281548110611af257611af1612b2f565b5b90600052602060002001604051611b0991906124c3565b908152602001604051809103902060030160009054906101000a900461ffff16838281518110611b3c57611b3b612b2f565b5b602002602001019061ffff16908161ffff1681525050600260068281548110611b6857611b67612b2f565b5b90600052602060002001604051611b7f91906124c3565b908152602001604051809103902060040154828281518110611ba457611ba3612b2f565b5b6020026020010181815250508080611bbb90612a4f565b915050611446565b50600686868686868686805480602002602001604051908101604052809291908181526020016000905b82821015611c99578382906000526020600020018054611c0c906129ec565b80601f0160208091040260200160405190810160405280929190818152602001828054611c38906129ec565b8015611c855780601f10611c5a57610100808354040283529160200191611c85565b820191906000526020600020905b815481529060010190602001808311611c6857829003601f168201915b505050505081526020019060010190611bed565b5050505096509c509c509c509c509c509c509c5050505050505090919293949596565b6003818051602081018201805184825260208301602085012081835280955050505050506000915054906101000a900460ff1681565b6004818051602081018201805184825260208301602085012081835280955050505050506000915090508054611d27906129ec565b80601f0160208091040260200160405190810160405280929190818152602001828054611d53906129ec565b8015611da05780601f10611d7557610100808354040283529160200191611da0565b820191906000526020600020905b815481529060010190602001808311611d8357829003601f168201915b505050505081565b828054611db4906129ec565b90600052602060002090601f016020900481019282611dd65760008555611e1d565b82601f10611def57805160ff1916838001178555611e1d565b82800160010185558215611e1d579182015b82811115611e1c578251825591602001919060010190611e01565b5b509050611e2a9190611e2e565b5090565b5b80821115611e47576000816000905550600101611e2f565b5090565b6000611e5e611e598461279e565b612779565b905082815260208101848484011115611e7a57611e79612b92565b5b611e858482856129aa565b509392505050565b600081519050611e9c81612ca7565b92915050565b600082601f830112611eb757611eb6612b8d565b5b8135611ec7848260208601611e4b565b91505092915050565b600081359050611edf81612cbe565b92915050565b600081359050611ef481612cd5565b92915050565b600081359050611f0981612cec565b92915050565b600060208284031215611f2557611f24612b9c565b5b6000611f3384828501611e8d565b91505092915050565b600060208284031215611f5257611f51612b9c565b5b600082013567ffffffffffffffff811115611f7057611f6f612b97565b5b611f7c84828501611ea2565b91505092915050565b60008060008060008060c08789031215611fa257611fa1612b9c565b5b600087013567ffffffffffffffff811115611fc057611fbf612b97565b5b611fcc89828a01611ea2565b9650506020611fdd89828a01611efa565b955050604087013567ffffffffffffffff811115611ffe57611ffd612b97565b5b61200a89828a01611ea2565b945050606087013567ffffffffffffffff81111561202b5761202a612b97565b5b61203789828a01611ea2565b935050608061204889828a01611ed0565b92505060a061205989828a01611ee5565b9150509295509295509295565b60006020828403121561207c5761207b612b9c565b5b600061208a84828501611ee5565b91505092915050565b600061209f8383612253565b905092915050565b60006120b38383612424565b60208301905092915050565b60006120cb8383612442565b60208301905092915050565b60006120e282612814565b6120ec8185612867565b9350836020820285016120fe856127cf565b8060005b8581101561213a578484038952815161211b8582612093565b945061212683612840565b925060208a01995050600181019050612102565b50829750879550505050505092915050565b60006121578261281f565b6121618185612878565b935061216c836127df565b8060005b8381101561219d57815161218488826120a7565b975061218f8361284d565b925050600181019050612170565b5085935050505092915050565b60006121b58261282a565b6121bf8185612889565b93506121ca836127ef565b8060005b838110156121fb5781516121e288826120bf565b97506121ed8361285a565b9250506001810190506121ce565b5085935050505092915050565b612211816128c7565b82525050565b6122208161293e565b82525050565b61222f81612950565b82525050565b61223e81612962565b82525050565b61224d81612974565b82525050565b600061225e82612835565b612268818561289a565b93506122788185602086016129b9565b61228181612ba1565b840191505092915050565b600061229782612835565b6122a181856128ab565b93506122b18185602086016129b9565b6122ba81612ba1565b840191505092915050565b60006122d082612835565b6122da81856128bc565b93506122ea8185602086016129b9565b80840191505092915050565b60008154612303816129ec565b61230d81866128bc565b9450600182166000811461232857600181146123395761236c565b60ff1983168652818601935061236c565b612342856127ff565b60005b8381101561236457815481890152600182019150602081019050612345565b838801955050505b50505092915050565b60006123826017836128ab565b915061238d82612bb2565b602082019050919050565b60006123a56017836128ab565b91506123b082612bdb565b602082019050919050565b60006123c86015836128ab565b91506123d382612c04565b602082019050919050565b60006123eb6016836128ab565b91506123f682612c2d565b602082019050919050565b600061240e601c836128ab565b915061241982612c56565b602082019050919050565b61242d816128f9565b82525050565b61243c816128f9565b82525050565b61244b81612927565b82525050565b61245a81612927565b82525050565b61247161246c82612927565b612a98565b82525050565b600061248382846122c5565b915081905092915050565b600061249a82866122c5565b91506124a682856122c5565b91506124b28284612460565b602082019150819050949350505050565b60006124cf82846122f6565b915081905092915050565b600060e08201905081810360008301526124f4818a6120d7565b9050818103602083015261250881896120d7565b9050818103604083015261251c81886120d7565b9050818103606083015261253081876120d7565b9050818103608083015261254481866120d7565b905081810360a0830152612558818561214c565b905081810360c083015261256c81846121aa565b905098975050505050505050565b600060208201905061258f6000830184612208565b92915050565b60006020820190506125aa6000830184612217565b92915050565b60006020820190506125c56000830184612226565b92915050565b600060c0820190506125e06000830189612244565b6125ed6020830188612235565b81810360408301526125ff818761228c565b90508181036060830152612613818661228c565b90506126226080830185612433565b61262f60a0830184612451565b979650505050505050565b60006020820190508181036000830152612654818461228c565b905092915050565b600060c0820190508181036000830152612676818961228c565b9050818103602083015261268a818861228c565b9050818103604083015261269e818761228c565b905081810360608301526126b2818661228c565b90506126c16080830185612433565b6126ce60a0830184612451565b979650505050505050565b600060208201905081810360008301526126f281612375565b9050919050565b6000602082019050818103600083015261271281612398565b9050919050565b60006020820190508181036000830152612732816123bb565b9050919050565b60006020820190508181036000830152612752816123de565b9050919050565b6000602082019050818103600083015261277281612401565b9050919050565b6000612783612794565b905061278f8282612a1e565b919050565b6000604051905090565b600067ffffffffffffffff8211156127b9576127b8612b5e565b5b6127c282612ba1565b9050602081019050919050565b6000819050602082019050919050565b6000819050602082019050919050565b6000819050602082019050919050565b60008190508160005260206000209050919050565b600081519050919050565b600081519050919050565b600081519050919050565b600081519050919050565b6000602082019050919050565b6000602082019050919050565b6000602082019050919050565b600082825260208201905092915050565b600082825260208201905092915050565b600082825260208201905092915050565b600082825260208201905092915050565b600082825260208201905092915050565b600081905092915050565b60008115159050919050565b60008190506128e182612c7f565b919050565b60008190506128f482612c93565b919050565b600061ffff82169050919050565b600073ffffffffffffffffffffffffffffffffffffffff82169050919050565b6000819050919050565b600060ff82169050919050565b600061294982612986565b9050919050565b600061295b82612986565b9050919050565b600061296d826128d3565b9050919050565b600061297f826128e6565b9050919050565b600061299182612998565b9050919050565b60006129a382612907565b9050919050565b82818337600083830152505050565b60005b838110156129d75780820151818401526020810190506129bc565b838111156129e6576000848401525b50505050565b60006002820490506001821680612a0457607f821691505b60208210811415612a1857612a17612b00565b5b50919050565b612a2782612ba1565b810181811067ffffffffffffffff82111715612a4657612a45612b5e565b5b80604052505050565b6000612a5a82612927565b91507fffffffffffffffffffffffffffffffffffffffffffffffffffffffffffffffff821415612a8d57612a8c612aa2565b5b600182019050919050565b6000819050919050565b7f4e487b7100000000000000000000000000000000000000000000000000000000600052601160045260246000fd5b7f4e487b7100000000000000000000000000000000000000000000000000000000600052602160045260246000fd5b7f4e487b7100000000000000000000000000000000000000000000000000000000600052602260045260246000fd5b7f4e487b7100000000000000000000000000000000000000000000000000000000600052603260045260246000fd5b7f4e487b7100000000000000000000000000000000000000000000000000000000600052604160045260246000fd5b600080fd5b600080fd5b600080fd5b600080fd5b6000601f19601f8301169050919050565b7f416e696d616c206973206e6f742072656769737465642e000000000000000000600082015250565b7f4665656420494420646f6573206e6f742065786973742e000000000000000000600082015250565b7f4f7264657220646f6573206e6f742065786973742e0000000000000000000000600082015250565b7f4665656420494420616c72656164792065786973742e00000000000000000000600082015250565b7f46656564207265636f726420616c726561647920636c61696d65642e00000000600082015250565b60028110612c9057612c8f612ad1565b5b50565b60038110612ca457612ca3612ad1565b5b50565b612cb0816128c7565b8114612cbb57600080fd5b50565b612cc7816128f9565b8114612cd257600080fd5b50565b612cde81612927565b8114612ce957600080fd5b50565b612cf581612931565b8114612d0057600080fd5b5056fea264697066735822122005efbc22bc9ea880ea5f3946c52d2c381efe96ac690866e13b6f55ab22eda1b464736f6c63430008070033",
  "immutableReferences": {},
  "source": "// SPDX-License-Identifier: MIT\npragma solidity ^0.8.0;\n\nimport \"./AnimalRegistry.sol\";\nimport \"./Seafeed.sol\";\n\ncontract FeedTracking {\n    AnimalRegistry public animalregistry;\n    Seafeed public seafeedtracking;\n\n    enum Ingredient {\n        REGULAR,\n        ASPARAGOPSIS,\n        POLYGAIN\n    }\n\n    enum ClaimStatus {\n        CLAIMED,\n        UNCLAIMED\n    }\n\n    struct FeedRecord {\n        Ingredient FeedType;\n        ClaimStatus Status;\n        string OrderID;\n        string AnimalID;\n        uint16 DMI;\n        uint256 DateTime;\n    }\n\n    mapping(string => FeedRecord) public feeds;\n    mapping(string => bool) public feedExists;\n    mapping(string => string) public feedSearch;\n    mapping(string => bool) public feedClaimed; // value changes to true if a feed record has been used to claim carbon tokens.\n    string[] public allfeeds;\n\n    constructor(AnimalRegistry _animalregistry, Seafeed _seafeedtracking)\n    {\n        animalregistry = _animalregistry;\n        seafeedtracking = _seafeedtracking;\n    }\n\n    /**\n     * ingredient Regular-0, Asparagopsis-1, Polygain-2\n     */\n    function logFeed(string memory _feedid, uint8 _feedtype, string memory _orderid, string memory _animalid, uint16 _dmi, uint256 _datetime) public \n    {\n        require(!feedExists[_feedid], \"Feed ID already exist.\");\n        require(animalregistry.animalExists(_animalid), \"Animal is not registed.\");\n        require(seafeedtracking.orderExists(_orderid), \"Order does not exist.\");\n        \n        string memory searchid;\n        string memory ingredient;\n\n        feeds[_feedid] = FeedRecord(Ingredient(_feedtype), ClaimStatus.UNCLAIMED, _orderid, _animalid, _dmi, _datetime); //, block.timestamp\n        feedExists[_feedid] = true;\n\n        if (Ingredient(_feedtype) == Ingredient.REGULAR) {\n            ingredient = \"Regular\";\n        } else if (Ingredient(_feedtype) == Ingredient.ASPARAGOPSIS) {\n            ingredient = \"Asparagopsis\";\n        } else if (Ingredient(_feedtype) == Ingredient.POLYGAIN) {\n            ingredient = \"Polygain\";\n        } else {\n            ingredient = \"Unknown\";\n        }\n\n        searchid = string(abi.encodePacked(ingredient,_animalid,_datetime)); // searchid = [animalid|feedtype|datetime]\n        feedSearch[searchid] = _feedid;\n        allfeeds.push(_feedid);\n    }\n\n    function claimFeed(string memory _feedid) public {\n        require(feedExists[_feedid], \"Feed ID does not exist.\");\n        require(feeds[_feedid].Status==ClaimStatus.UNCLAIMED, \"Feed record already claimed.\");\n        feeds[_feedid].Status = ClaimStatus.CLAIMED;\n    }\n\n    function queryFeed(string memory _feedid) \n        public\n        view\n        returns(\n            string memory,\n            string memory,\n            string memory,\n            string memory,\n            uint16,\n            uint256)\n    {\n        require(feedExists[_feedid], \"Feed ID does not exist.\");\n        string memory ingredient;\n        string memory claimstatus;\n\n        if (feeds[_feedid].FeedType == Ingredient.REGULAR) {\n            ingredient = \"Regular\";\n        } else if (feeds[_feedid].FeedType == Ingredient.ASPARAGOPSIS) {\n            ingredient = \"Asparagopsis\";\n        } else if (feeds[_feedid].FeedType == Ingredient.POLYGAIN) {\n            ingredient = \"Polygain\";\n        } else {\n            ingredient = \"Unknown\";\n        }\n\n        if (feeds[_feedid].Status == ClaimStatus.UNCLAIMED) {\n            claimstatus = \"Unclaimed\";\n        } else if (feeds[_feedid].Status == ClaimStatus.UNCLAIMED) {\n            claimstatus = \"Claimed\";\n        } else {\n            claimstatus = \"Unknown\";\n        }\n\n        return(\n            ingredient,\n            claimstatus,\n            feeds[_feedid].AnimalID,\n            feeds[_feedid].OrderID,\n            feeds[_feedid].DMI,\n            feeds[_feedid].DateTime\n        );\n    }\n\n    function queryAll() public view\n        returns(\n            string[] memory,\n            string[] memory,\n            string[] memory,\n            string[] memory,\n            string[] memory,\n            uint16[] memory,\n            uint256[] memory)\n    {\n        string[] memory ingredients = new string[](allfeeds.length);\n        string[] memory claimstatus = new string[](allfeeds.length);\n        string[] memory animalids = new string[](allfeeds.length);\n        string[] memory orderids = new string[](allfeeds.length);\n        uint16[] memory dmis = new uint16[](allfeeds.length);\n        uint256[] memory datetimes = new uint256[](allfeeds.length);\n\n        for(uint256 i=0; i<allfeeds.length; i++) {\n            if (feeds[allfeeds[i]].FeedType == Ingredient.REGULAR) {\n                ingredients[i] = \"Regular\";\n            } else if (feeds[allfeeds[i]].FeedType == Ingredient.ASPARAGOPSIS) {\n                ingredients[i] = \"Asparagopsis\";\n            } else if (feeds[allfeeds[i]].FeedType == Ingredient.POLYGAIN) {\n                ingredients[i] = \"Polygain\";\n            } else {\n                ingredients[i] = \"Unknown\";\n            }\n\n            if (feeds[allfeeds[i]].Status == ClaimStatus.UNCLAIMED) {\n                claimstatus[i] = \"Unclaimed\";\n            } else if (feeds[allfeeds[i]].Status == ClaimStatus.UNCLAIMED) {\n                claimstatus[i] = \"Claimed\";\n            } else {\n                claimstatus[i] = \"Unknown\";\n            }\n\n            animalids[i] = feeds[allfeeds[i]].AnimalID;\n            orderids[i] = feeds[allfeeds[i]].OrderID;\n            dmis[i] = feeds[allfeeds[i]].DMI;\n            datetimes[i] = feeds[allfeeds[i]].DateTime;\n        }\n\n        return(allfeeds,ingredients,claimstatus,animalids,orderids,dmis,datetimes);\n    }\n}",
  "sourcePath": "/home/yih/Documents/dev/beston-dapps/contracts/carbon/FeedTracking.sol",
  "compiler": {
    "name": "solc",
    "version": "0.8.7+commit.e28d00a7.Emscripten.clang"
  },
  "schemaVersion": "3.4.1",
  "updatedAt": "2023-05-31T06:41:36.720Z",
  "networkType": "ethereum",
  "devdoc": {
    "kind": "dev",
    "methods": {},
    "version": 1
  },
  "userdoc": {
    "kind": "user",
    "methods": {
      "logFeed(string,uint8,string,string,uint16,uint256)": {
        "notice": "ingredient Regular-0, Asparagopsis-1, Polygain-2"
      }
    },
    "version": 1
  }
}