{
  "contractName": "FeedTracking",
  "abi": [
    {
      "inputs": [
        {
          "internalType": "contract AnimalRegistry",
          "name": "_animalregistry",
          "type": "address"
        }
      ],
      "stateMutability": "nonpayable",
      "type": "constructor"
    },
    {
      "inputs": [],
      "name": "animalregistry",
      "outputs": [
        {
          "internalType": "contract AnimalRegistry",
          "name": "",
          "type": "address"
        }
      ],
      "stateMutability": "view",
      "type": "function",
      "constant": true
    },
    {
      "inputs": [
        {
          "internalType": "string",
          "name": "",
          "type": "string"
        }
      ],
      "name": "feedClaimed",
      "outputs": [
        {
          "internalType": "bool",
          "name": "",
          "type": "bool"
        }
      ],
      "stateMutability": "view",
      "type": "function",
      "constant": true
    },
    {
      "inputs": [
        {
          "internalType": "string",
          "name": "",
          "type": "string"
        }
      ],
      "name": "feedExists",
      "outputs": [
        {
          "internalType": "bool",
          "name": "",
          "type": "bool"
        }
      ],
      "stateMutability": "view",
      "type": "function",
      "constant": true
    },
    {
      "inputs": [
        {
          "internalType": "string",
          "name": "",
          "type": "string"
        }
      ],
      "name": "feedSearch",
      "outputs": [
        {
          "internalType": "string",
          "name": "",
          "type": "string"
        }
      ],
      "stateMutability": "view",
      "type": "function",
      "constant": true
    },
    {
      "inputs": [
        {
          "internalType": "string",
          "name": "",
          "type": "string"
        }
      ],
      "name": "feeds",
      "outputs": [
        {
          "internalType": "enum FeedTracking.Ingredient",
          "name": "FeedType",
          "type": "uint8"
        },
        {
          "internalType": "enum FeedTracking.ClaimStatus",
          "name": "Status",
          "type": "uint8"
        },
        {
          "internalType": "string",
          "name": "AnimalID",
          "type": "string"
        },
        {
          "internalType": "uint16",
          "name": "DMI",
          "type": "uint16"
        },
        {
          "internalType": "uint256",
          "name": "DateTime",
          "type": "uint256"
        },
        {
          "internalType": "uint256",
          "name": "BlockTime",
          "type": "uint256"
        }
      ],
      "stateMutability": "view",
      "type": "function",
      "constant": true
    },
    {
      "inputs": [
        {
          "internalType": "string",
          "name": "_feedid",
          "type": "string"
        },
        {
          "internalType": "uint8",
          "name": "_feedtype",
          "type": "uint8"
        },
        {
          "internalType": "string",
          "name": "_animalid",
          "type": "string"
        },
        {
          "internalType": "uint16",
          "name": "_dmi",
          "type": "uint16"
        },
        {
          "internalType": "uint256",
          "name": "_datetime",
          "type": "uint256"
        }
      ],
      "name": "logFeed",
      "outputs": [],
      "stateMutability": "nonpayable",
      "type": "function"
    },
    {
      "inputs": [
        {
          "internalType": "string",
          "name": "_feedid",
          "type": "string"
        }
      ],
      "name": "updateFeed",
      "outputs": [],
      "stateMutability": "nonpayable",
      "type": "function"
    },
    {
      "inputs": [
        {
          "internalType": "string",
          "name": "_feedid",
          "type": "string"
        }
      ],
      "name": "queryFeed",
      "outputs": [
        {
          "internalType": "string",
          "name": "",
          "type": "string"
        },
        {
          "internalType": "string",
          "name": "",
          "type": "string"
        },
        {
          "internalType": "string",
          "name": "",
          "type": "string"
        },
        {
          "internalType": "uint16",
          "name": "",
          "type": "uint16"
        },
        {
          "internalType": "uint256",
          "name": "",
          "type": "uint256"
        },
        {
          "internalType": "uint256",
          "name": "",
          "type": "uint256"
        }
      ],
      "stateMutability": "view",
      "type": "function",
      "constant": true
    }
  ],
  "bytecode": "0x60806040523480156200001157600080fd5b5060405162001ab738038062001ab7833981810160405281019062000037919062000095565b806000806101000a81548173ffffffffffffffffffffffffffffffffffffffff021916908373ffffffffffffffffffffffffffffffffffffffff160217905550506200012e565b6000815190506200008f8162000114565b92915050565b600060208284031215620000ae57620000ad6200010f565b5b6000620000be848285016200007e565b91505092915050565b6000620000d482620000ef565b9050919050565b6000620000e882620000c7565b9050919050565b600073ffffffffffffffffffffffffffffffffffffffff82169050919050565b600080fd5b6200011f81620000db565b81146200012b57600080fd5b50565b611979806200013e6000396000f3fe608060405234801561001057600080fd5b50600436106100885760003560e01c8063d1686ecb1161005b578063d1686ecb14610145578063e5ea590014610161578063e8d4d8d21461017d578063f846bdfa146101ad57610088565b8063515f24281461008d5780636a811e3b146100ab5780636db81d37146100e057806398b2264014610110575b600080fd5b6100956101dd565b6040516100a291906113d1565b60405180910390f35b6100c560048036038101906100c09190611107565b610201565b6040516100d7969594939291906113ec565b60405180910390f35b6100fa60048036038101906100f59190611107565b610303565b60405161010791906113b6565b60405180910390f35b61012a60048036038101906101259190611107565b610339565b60405161013c96959493929190611476565b60405180910390f35b61015f600480360381019061015a9190611107565b610855565b005b61017b60048036038101906101769190611150565b6109a1565b005b61019760048036038101906101929190611107565b610e87565b6040516101a491906113b6565b60405180910390f35b6101c760048036038101906101c29190611107565b610ebd565b6040516101d49190611454565b60405180910390f35b60008054906101000a900473ffffffffffffffffffffffffffffffffffffffff1681565b6001818051602081018201805184825260208301602085012081835280955050505050506000915090508060000160009054906101000a900460ff16908060000160019054906101000a900460ff1690806001018054610260906116fc565b80601f016020809104026020016040519081016040528092919081815260200182805461028c906116fc565b80156102d95780601f106102ae576101008083540402835291602001916102d9565b820191906000526020600020905b8154815290600101906020018083116102bc57829003601f168201915b5050505050908060020160009054906101000a900461ffff16908060030154908060040154905086565b6004818051602081018201805184825260208301602085012081835280955050505050506000915054906101000a900460ff1681565b60608060606000806000600287604051610353919061136a565b908152602001604051809103902060009054906101000a900460ff166103ae576040517f08c379a00000000000000000000000000000000000000000000000000000000081526004016103a59061150c565b60405180910390fd5b606080600060028111156103c5576103c4611769565b5b60018a6040516103d5919061136a565b908152602001604051809103902060000160009054906101000a900460ff16600281111561040657610405611769565b5b1415610449576040518060400160405280600781526020017f526567756c61720000000000000000000000000000000000000000000000000081525091506105b3565b6001600281111561045d5761045c611769565b5b60018a60405161046d919061136a565b908152602001604051809103902060000160009054906101000a900460ff16600281111561049e5761049d611769565b5b14156104e1576040518060400160405280600c81526020017f417370617261676f70736973000000000000000000000000000000000000000081525091506105b2565b6002808111156104f4576104f3611769565b5b60018a604051610504919061136a565b908152602001604051809103902060000160009054906101000a900460ff16600281111561053557610534611769565b5b1415610578576040518060400160405280600881526020017f506f6c796761696e00000000000000000000000000000000000000000000000081525091506105b1565b6040518060400160405280600781526020017f556e6b6e6f776e0000000000000000000000000000000000000000000000000081525091505b5b5b6001808111156105c6576105c5611769565b5b60018a6040516105d6919061136a565b908152602001604051809103902060000160019054906101000a900460ff16600181111561060757610606611769565b5b141561064a576040518060400160405280600981526020017f556e636c61696d65640000000000000000000000000000000000000000000000815250905061071b565b60018081111561065d5761065c611769565b5b60018a60405161066d919061136a565b908152602001604051809103902060000160019054906101000a900460ff16600181111561069e5761069d611769565b5b14156106e1576040518060400160405280600781526020017f436c61696d656400000000000000000000000000000000000000000000000000815250915061071a565b6040518060400160405280600781526020017f556e6b6e6f776e0000000000000000000000000000000000000000000000000081525091505b5b818160018b60405161072d919061136a565b908152602001604051809103902060010160018c60405161074e919061136a565b908152602001604051809103902060020160009054906101000a900461ffff1660018d60405161077e919061136a565b90815260200160405180910390206003015460018e6040516107a0919061136a565b9081526020016040518091039020600401548380546107be906116fc565b80601f01602080910402602001604051908101604052809291908181526020018280546107ea906116fc565b80156108375780601f1061080c57610100808354040283529160200191610837565b820191906000526020600020905b81548152906001019060200180831161081a57829003601f168201915b50505050509350975097509750975097509750505091939550919395565b600281604051610865919061136a565b908152602001604051809103902060009054906101000a900460ff166108c0576040517f08c379a00000000000000000000000000000000000000000000000000000000081526004016108b79061150c565b60405180910390fd5b6001808111156108d3576108d2611769565b5b6001826040516108e3919061136a565b908152602001604051809103902060000160019054906101000a900460ff16600181111561091457610913611769565b5b14610954576040517f08c379a000000000000000000000000000000000000000000000000000000000815260040161094b9061154c565b60405180910390fd5b6000600182604051610966919061136a565b908152602001604051809103902060000160016101000a81548160ff0219169083600181111561099957610998611769565b5b021790555050565b6002856040516109b1919061136a565b908152602001604051809103902060009054906101000a900460ff1615610a0d576040517f08c379a0000000000000000000000000000000000000000000000000000000008152600401610a049061152c565b60405180910390fd5b60008054906101000a900473ffffffffffffffffffffffffffffffffffffffff1673ffffffffffffffffffffffffffffffffffffffff16632c80a7f5846040518263ffffffff1660e01b8152600401610a669190611454565b60206040518083038186803b158015610a7e57600080fd5b505afa158015610a92573d6000803e3d6000fd5b505050506040513d601f19601f82011682018060405250810190610ab691906110da565b610af5576040517f08c379a0000000000000000000000000000000000000000000000000000000008152600401610aec906114ec565b60405180910390fd5b6060806040518060c001604052808760ff166002811115610b1957610b18611769565b5b6002811115610b2b57610b2a611769565b5b8152602001600180811115610b4357610b42611769565b5b81526020018681526020018561ffff16815260200184815260200142815250600188604051610b72919061136a565b908152602001604051809103902060008201518160000160006101000a81548160ff02191690836002811115610bab57610baa611769565b5b021790555060208201518160000160016101000a81548160ff02191690836001811115610bdb57610bda611769565b5b02179055506040820151816001019080519060200190610bfc929190610f73565b5060608201518160020160006101000a81548161ffff021916908361ffff1602179055506080820151816003015560a082015181600401559050506001600288604051610c49919061136a565b908152602001604051809103902060006101000a81548160ff02191690831515021790555060006002811115610c8257610c81611769565b5b8660ff166002811115610c9857610c97611769565b5b6002811115610caa57610ca9611769565b5b1415610ced576040518060400160405280600781526020017f526567756c6172000000000000000000000000000000000000000000000000008152509050610e25565b60016002811115610d0157610d00611769565b5b8660ff166002811115610d1757610d16611769565b5b6002811115610d2957610d28611769565b5b1415610d6c576040518060400160405280600c81526020017f417370617261676f7073697300000000000000000000000000000000000000008152509050610e24565b600280811115610d7f57610d7e611769565b5b8660ff166002811115610d9557610d94611769565b5b6002811115610da757610da6611769565b5b1415610dea576040518060400160405280600881526020017f506f6c796761696e0000000000000000000000000000000000000000000000008152509050610e23565b6040518060400160405280600781526020017f556e6b6e6f776e0000000000000000000000000000000000000000000000000081525090505b5b5b808584604051602001610e3a93929190611381565b604051602081830303815290604052915086600383604051610e5c919061136a565b90815260200160405180910390209080519060200190610e7d929190610f73565b5050505050505050565b6002818051602081018201805184825260208301602085012081835280955050505050506000915054906101000a900460ff1681565b6003818051602081018201805184825260208301602085012081835280955050505050506000915090508054610ef2906116fc565b80601f0160208091040260200160405190810160405280929190818152602001828054610f1e906116fc565b8015610f6b5780601f10610f4057610100808354040283529160200191610f6b565b820191906000526020600020905b815481529060010190602001808311610f4e57829003601f168201915b505050505081565b828054610f7f906116fc565b90600052602060002090601f016020900481019282610fa15760008555610fe8565b82601f10610fba57805160ff1916838001178555610fe8565b82800160010185558215610fe8579182015b82811115610fe7578251825591602001919060010190610fcc565b5b509050610ff59190610ff9565b5090565b5b80821115611012576000816000905550600101610ffa565b5090565b600061102961102484611591565b61156c565b905082815260208101848484011115611045576110446117fb565b5b6110508482856116ba565b509392505050565b600081519050611067816118e7565b92915050565b600082601f830112611082576110816117f6565b5b8135611092848260208601611016565b91505092915050565b6000813590506110aa816118fe565b92915050565b6000813590506110bf81611915565b92915050565b6000813590506110d48161192c565b92915050565b6000602082840312156110f0576110ef611805565b5b60006110fe84828501611058565b91505092915050565b60006020828403121561111d5761111c611805565b5b600082013567ffffffffffffffff81111561113b5761113a611800565b5b6111478482850161106d565b91505092915050565b600080600080600060a0868803121561116c5761116b611805565b5b600086013567ffffffffffffffff81111561118a57611189611800565b5b6111968882890161106d565b95505060206111a7888289016110c5565b945050604086013567ffffffffffffffff8111156111c8576111c7611800565b5b6111d48882890161106d565b93505060606111e58882890161109b565b92505060806111f6888289016110b0565b9150509295509295909350565b61120c816115e9565b82525050565b61121b81611660565b82525050565b61122a81611672565b82525050565b61123981611684565b82525050565b600061124a826115c2565b61125481856115cd565b93506112648185602086016116c9565b61126d8161180a565b840191505092915050565b6000611283826115c2565b61128d81856115de565b935061129d8185602086016116c9565b80840191505092915050565b60006112b66017836115cd565b91506112c18261181b565b602082019050919050565b60006112d96017836115cd565b91506112e482611844565b602082019050919050565b60006112fc6016836115cd565b91506113078261186d565b602082019050919050565b600061131f601c836115cd565b915061132a82611896565b602082019050919050565b61133e8161161b565b82525050565b61134d81611649565b82525050565b61136461135f82611649565b61175f565b82525050565b60006113768284611278565b915081905092915050565b600061138d8286611278565b91506113998285611278565b91506113a58284611353565b602082019150819050949350505050565b60006020820190506113cb6000830184611203565b92915050565b60006020820190506113e66000830184611212565b92915050565b600060c0820190506114016000830189611230565b61140e6020830188611221565b8181036040830152611420818761123f565b905061142f6060830186611335565b61143c6080830185611344565b61144960a0830184611344565b979650505050505050565b6000602082019050818103600083015261146e818461123f565b905092915050565b600060c0820190508181036000830152611490818961123f565b905081810360208301526114a4818861123f565b905081810360408301526114b8818761123f565b90506114c76060830186611335565b6114d46080830185611344565b6114e160a0830184611344565b979650505050505050565b60006020820190508181036000830152611505816112a9565b9050919050565b60006020820190508181036000830152611525816112cc565b9050919050565b60006020820190508181036000830152611545816112ef565b9050919050565b6000602082019050818103600083015261156581611312565b9050919050565b6000611576611587565b9050611582828261172e565b919050565b6000604051905090565b600067ffffffffffffffff8211156115ac576115ab6117c7565b5b6115b58261180a565b9050602081019050919050565b600081519050919050565b600082825260208201905092915050565b600081905092915050565b60008115159050919050565b6000819050611603826118bf565b919050565b6000819050611616826118d3565b919050565b600061ffff82169050919050565b600073ffffffffffffffffffffffffffffffffffffffff82169050919050565b6000819050919050565b600060ff82169050919050565b600061166b82611696565b9050919050565b600061167d826115f5565b9050919050565b600061168f82611608565b9050919050565b60006116a1826116a8565b9050919050565b60006116b382611629565b9050919050565b82818337600083830152505050565b60005b838110156116e75780820151818401526020810190506116cc565b838111156116f6576000848401525b50505050565b6000600282049050600182168061171457607f821691505b6020821081141561172857611727611798565b5b50919050565b6117378261180a565b810181811067ffffffffffffffff82111715611756576117556117c7565b5b80604052505050565b6000819050919050565b7f4e487b7100000000000000000000000000000000000000000000000000000000600052602160045260246000fd5b7f4e487b7100000000000000000000000000000000000000000000000000000000600052602260045260246000fd5b7f4e487b7100000000000000000000000000000000000000000000000000000000600052604160045260246000fd5b600080fd5b600080fd5b600080fd5b600080fd5b6000601f19601f8301169050919050565b7f416e696d616c206973206e6f742072656769737465642e000000000000000000600082015250565b7f4665656420494420646f6573206e6f742065786973742e000000000000000000600082015250565b7f4665656420494420616c72656164792065786973742e00000000000000000000600082015250565b7f46656564207265636f726420616c726561647920636c61696d65642e00000000600082015250565b600281106118d0576118cf611769565b5b50565b600381106118e4576118e3611769565b5b50565b6118f0816115e9565b81146118fb57600080fd5b50565b6119078161161b565b811461191257600080fd5b50565b61191e81611649565b811461192957600080fd5b50565b61193581611653565b811461194057600080fd5b5056fea2646970667358221220002810113771d959850cf84797ee1a8b8b6f0ed0b77f99ce64b1cad69f7ae29164736f6c63430008070033",
  "immutableReferences": {},
  "source": "// SPDX-License-Identifier: MIT\npragma solidity ^0.8.0;\n\nimport \"./AnimalRegistry.sol\";\n\ncontract FeedTracking {\n    AnimalRegistry public animalregistry;\n\n    enum Ingredient {\n        REGULAR,\n        ASPARAGOPSIS,\n        POLYGAIN\n    }\n\n    enum ClaimStatus {\n        CLAIMED,\n        UNCLAIMED\n    }\n\n    struct FeedRecord {\n        Ingredient FeedType;\n        ClaimStatus Status;\n        string AnimalID;\n        uint16 DMI;\n        uint256 DateTime;\n        uint256 BlockTime;\n    }\n\n    mapping(string => FeedRecord) public feeds;\n    mapping(string => bool) public feedExists;\n    mapping(string => string) public feedSearch;\n    mapping(string => bool) public feedClaimed; // value changes to true if a feed record has been used to claim carbon tokens.\n\n    constructor(AnimalRegistry _animalregistry)\n    {\n        animalregistry = _animalregistry;\n    }\n\n    /**\n     * ingredient Regular-0, Asparagopsis-1, Polygain-2\n     */\n    function logFeed(string memory _feedid, uint8 _feedtype, string memory _animalid, uint16 _dmi, uint256 _datetime) public \n    {\n        require(!feedExists[_feedid], \"Feed ID already exist.\");\n        require(animalregistry.animalExists(_animalid), \"Animal is not registed.\");\n        \n        string memory searchid;\n        string memory ingredient;\n\n        feeds[_feedid] = FeedRecord(Ingredient(_feedtype), ClaimStatus.UNCLAIMED, _animalid, _dmi, _datetime, block.timestamp);\n        feedExists[_feedid] = true;\n\n        if (Ingredient(_feedtype) == Ingredient.REGULAR) {\n            ingredient = \"Regular\";\n        } else if (Ingredient(_feedtype) == Ingredient.ASPARAGOPSIS) {\n            ingredient = \"Asparagopsis\";\n        } else if (Ingredient(_feedtype) == Ingredient.POLYGAIN) {\n            ingredient = \"Polygain\";\n        } else {\n            ingredient = \"Unknown\";\n        }\n\n        searchid = string(abi.encodePacked(ingredient,_animalid,_datetime)); // searchid = [animalid|feedtype|datetime]\n        feedSearch[searchid] = _feedid;\n    }\n\n    function updateFeed(string memory _feedid) public {\n        require(feedExists[_feedid], \"Feed ID does not exist.\");\n        require(feeds[_feedid].Status==ClaimStatus.UNCLAIMED, \"Feed record already claimed.\");\n        feeds[_feedid].Status = ClaimStatus.CLAIMED;\n    }\n\n    function queryFeed(string memory _feedid) \n        public\n        view\n        returns(\n            string memory,\n            string memory,\n            string memory,\n            uint16,\n            uint256,\n            uint256)\n    {\n        require(feedExists[_feedid], \"Feed ID does not exist.\");\n        string memory ingredient;\n        string memory claimstatus;\n\n        if (feeds[_feedid].FeedType == Ingredient.REGULAR) {\n            ingredient = \"Regular\";\n        } else if (feeds[_feedid].FeedType == Ingredient.ASPARAGOPSIS) {\n            ingredient = \"Asparagopsis\";\n        } else if (feeds[_feedid].FeedType == Ingredient.POLYGAIN) {\n            ingredient = \"Polygain\";\n        } else {\n            ingredient = \"Unknown\";\n        }\n\n        if (feeds[_feedid].Status == ClaimStatus.UNCLAIMED) {\n            claimstatus = \"Unclaimed\";\n        } else if (feeds[_feedid].Status == ClaimStatus.UNCLAIMED) {\n            ingredient = \"Claimed\";\n        } else {\n            ingredient = \"Unknown\";\n        }\n\n        return(\n            ingredient,\n            claimstatus,\n            feeds[_feedid].AnimalID,\n            feeds[_feedid].DMI,\n            feeds[_feedid].DateTime,\n            feeds[_feedid].BlockTime\n        );\n    }\n}",
  "sourcePath": "/home/yih/Documents/dev/beston-dapps/contracts/carbon/FeedTracking.sol",
  "compiler": {
    "name": "solc",
    "version": "0.8.7+commit.e28d00a7.Emscripten.clang"
  },
  "schemaVersion": "3.4.1",
  "updatedAt": "2023-02-19T23:43:14.830Z",
  "networkType": "ethereum",
  "devdoc": {
    "kind": "dev",
    "methods": {},
    "version": 1
  },
  "userdoc": {
    "kind": "user",
    "methods": {
      "logFeed(string,uint8,string,uint16,uint256)": {
        "notice": "ingredient Regular-0, Asparagopsis-1, Polygain-2"
      }
    },
    "version": 1
  }
}