{
  "contractName": "HerdRegistry",
  "abi": [
    {
      "inputs": [],
      "name": "herdCount",
      "outputs": [
        {
          "internalType": "uint256",
          "name": "",
          "type": "uint256"
        }
      ],
      "stateMutability": "view",
      "type": "function"
    },
    {
      "inputs": [
        {
          "internalType": "uint256",
          "name": "",
          "type": "uint256"
        }
      ],
      "name": "herdExists",
      "outputs": [
        {
          "internalType": "bool",
          "name": "",
          "type": "bool"
        }
      ],
      "stateMutability": "view",
      "type": "function"
    },
    {
      "inputs": [
        {
          "internalType": "uint256",
          "name": "",
          "type": "uint256"
        }
      ],
      "name": "herds",
      "outputs": [
        {
          "internalType": "string",
          "name": "farm",
          "type": "string"
        },
        {
          "internalType": "address",
          "name": "farmer",
          "type": "address"
        },
        {
          "internalType": "string",
          "name": "location",
          "type": "string"
        },
        {
          "components": [
            {
              "internalType": "uint256",
              "name": "mature",
              "type": "uint256"
            },
            {
              "internalType": "uint256",
              "name": "heifer",
              "type": "uint256"
            },
            {
              "internalType": "uint256",
              "name": "dry",
              "type": "uint256"
            },
            {
              "internalType": "uint256",
              "name": "fresh",
              "type": "uint256"
            }
          ],
          "internalType": "struct HerdRegistry.AnimalGroup",
          "name": "groups",
          "type": "tuple"
        }
      ],
      "stateMutability": "view",
      "type": "function"
    },
    {
      "inputs": [
        {
          "internalType": "string",
          "name": "_farm",
          "type": "string"
        },
        {
          "internalType": "string",
          "name": "_location",
          "type": "string"
        },
        {
          "internalType": "uint256",
          "name": "_mature",
          "type": "uint256"
        },
        {
          "internalType": "uint56",
          "name": "_heifer",
          "type": "uint56"
        },
        {
          "internalType": "uint256",
          "name": "_dry",
          "type": "uint256"
        },
        {
          "internalType": "uint256",
          "name": "_fresh",
          "type": "uint256"
        }
      ],
      "name": "registerHerd",
      "outputs": [],
      "stateMutability": "nonpayable",
      "type": "function"
    },
    {
      "inputs": [
        {
          "internalType": "uint256",
          "name": "_herdID",
          "type": "uint256"
        }
      ],
      "name": "viewHerd",
      "outputs": [
        {
          "internalType": "string",
          "name": "",
          "type": "string"
        },
        {
          "internalType": "string",
          "name": "",
          "type": "string"
        },
        {
          "internalType": "uint256",
          "name": "",
          "type": "uint256"
        },
        {
          "internalType": "uint256",
          "name": "",
          "type": "uint256"
        },
        {
          "internalType": "uint256",
          "name": "",
          "type": "uint256"
        },
        {
          "internalType": "uint256",
          "name": "",
          "type": "uint256"
        }
      ],
      "stateMutability": "view",
      "type": "function"
    }
  ],
  "bytecode": "0x608060405234801561001057600080fd5b50610ce4806100206000396000f3fe608060405234801561001057600080fd5b50600436106100575760003560e01c806329bea6401461005c5780633d898bc81461008c5780638b61a3f3146100a8578063ba0df24d146100c6578063db572f35146100f9575b600080fd5b61007660048036038101906100719190610824565b61012e565b604051610083919061091b565b60405180910390f35b6100a660048036038101906100a1919061075f565b61014e565b005b6100b06102c6565b6040516100bd91906109f8565b60405180910390f35b6100e060048036038101906100db9190610824565b6102cc565b6040516100f09493929190610936565b60405180910390f35b610113600480360381019061010e9190610824565b61045e565b60405161012596959493929190610989565b60405180910390f35b60016020528060005260406000206000915054906101000a900460ff1681565b6002600081548092919061016190610b85565b919050555060405180608001604052808781526020013373ffffffffffffffffffffffffffffffffffffffff16815260200186815260200160405180608001604052808781526020018666ffffffffffffff16815260200185815260200184815250815250600080600254815260200190815260200160002060008201518160000190805190602001906101f6929190610622565b5060208201518160010160006101000a81548173ffffffffffffffffffffffffffffffffffffffff021916908373ffffffffffffffffffffffffffffffffffffffff160217905550604082015181600201908051906020019061025a929190610622565b506060820151816003016000820151816000015560208201518160010155604082015181600201556060820151816003015550509050506001806000600254815260200190815260200160002060006101000a81548160ff021916908315150217905550505050505050565b60025481565b60006020528060005260406000206000915090508060000180546102ef90610b22565b80601f016020809104026020016040519081016040528092919081815260200182805461031b90610b22565b80156103685780601f1061033d57610100808354040283529160200191610368565b820191906000526020600020905b81548152906001019060200180831161034b57829003601f168201915b5050505050908060010160009054906101000a900473ffffffffffffffffffffffffffffffffffffffff16908060020180546103a390610b22565b80601f01602080910402602001604051908101604052809291908181526020018280546103cf90610b22565b801561041c5780601f106103f15761010080835404028352916020019161041c565b820191906000526020600020905b8154815290600101906020018083116103ff57829003601f168201915b50505050509080600301604051806080016040529081600082015481526020016001820154815260200160028201548152602001600382015481525050905084565b6060806000806000806000808881526020019081526020016000206000016000808981526020019081526020016000206002016000808a8152602001908152602001600020600301600001546000808b8152602001908152602001600020600301600101546000808c8152602001908152602001600020600301600201546000808d81526020019081526020016000206003016003015485805461050190610b22565b80601f016020809104026020016040519081016040528092919081815260200182805461052d90610b22565b801561057a5780601f1061054f5761010080835404028352916020019161057a565b820191906000526020600020905b81548152906001019060200180831161055d57829003601f168201915b5050505050955084805461058d90610b22565b80601f01602080910402602001604051908101604052809291908181526020018280546105b990610b22565b80156106065780601f106105db57610100808354040283529160200191610606565b820191906000526020600020905b8154815290600101906020018083116105e957829003601f168201915b5050505050945095509550955095509550955091939550919395565b82805461062e90610b22565b90600052602060002090601f0160209004810192826106505760008555610697565b82601f1061066957805160ff1916838001178555610697565b82800160010185558215610697579182015b8281111561069657825182559160200191906001019061067b565b5b5090506106a491906106a8565b5090565b5b808211156106c15760008160009055506001016106a9565b5090565b60006106d86106d384610a38565b610a13565b9050828152602081018484840111156106f4576106f3610c60565b5b6106ff848285610ae0565b509392505050565b600082601f83011261071c5761071b610c5b565b5b813561072c8482602086016106c5565b91505092915050565b60008135905061074481610c80565b92915050565b60008135905061075981610c97565b92915050565b60008060008060008060c0878903121561077c5761077b610c6a565b5b600087013567ffffffffffffffff81111561079a57610799610c65565b5b6107a689828a01610707565b965050602087013567ffffffffffffffff8111156107c7576107c6610c65565b5b6107d389828a01610707565b95505060406107e489828a01610735565b94505060606107f589828a0161074a565b935050608061080689828a01610735565b92505060a061081789828a01610735565b9150509295509295509295565b60006020828403121561083a57610839610c6a565b5b600061084884828501610735565b91505092915050565b61085a81610a85565b82525050565b61086981610a97565b82525050565b600061087a82610a69565b6108848185610a74565b9350610894818560208601610aef565b61089d81610c6f565b840191505092915050565b6080820160008201516108be60008501826108fd565b5060208201516108d160208501826108fd565b5060408201516108e460408501826108fd565b5060608201516108f760608501826108fd565b50505050565b61090681610ac3565b82525050565b61091581610ac3565b82525050565b60006020820190506109306000830184610860565b92915050565b600060e0820190508181036000830152610950818761086f565b905061095f6020830186610851565b8181036040830152610971818561086f565b905061098060608301846108a8565b95945050505050565b600060c08201905081810360008301526109a3818961086f565b905081810360208301526109b7818861086f565b90506109c6604083018761090c565b6109d3606083018661090c565b6109e0608083018561090c565b6109ed60a083018461090c565b979650505050505050565b6000602082019050610a0d600083018461090c565b92915050565b6000610a1d610a2e565b9050610a298282610b54565b919050565b6000604051905090565b600067ffffffffffffffff821115610a5357610a52610c2c565b5b610a5c82610c6f565b9050602081019050919050565b600081519050919050565b600082825260208201905092915050565b6000610a9082610aa3565b9050919050565b60008115159050919050565b600073ffffffffffffffffffffffffffffffffffffffff82169050919050565b6000819050919050565b600066ffffffffffffff82169050919050565b82818337600083830152505050565b60005b83811015610b0d578082015181840152602081019050610af2565b83811115610b1c576000848401525b50505050565b60006002820490506001821680610b3a57607f821691505b60208210811415610b4e57610b4d610bfd565b5b50919050565b610b5d82610c6f565b810181811067ffffffffffffffff82111715610b7c57610b7b610c2c565b5b80604052505050565b6000610b9082610ac3565b91507fffffffffffffffffffffffffffffffffffffffffffffffffffffffffffffffff821415610bc357610bc2610bce565b5b600182019050919050565b7f4e487b7100000000000000000000000000000000000000000000000000000000600052601160045260246000fd5b7f4e487b7100000000000000000000000000000000000000000000000000000000600052602260045260246000fd5b7f4e487b7100000000000000000000000000000000000000000000000000000000600052604160045260246000fd5b600080fd5b600080fd5b600080fd5b600080fd5b6000601f19601f8301169050919050565b610c8981610ac3565b8114610c9457600080fd5b50565b610ca081610acd565b8114610cab57600080fd5b5056fea2646970667358221220072c24c68bd18930d70e7dcc43797671f1b30c38aa5e121d94ef1fec8fc4221664736f6c63430008070033",
  "immutableReferences": {},
  "source": "// SPDX-License-Identifier: UNLICENSED\npragma solidity ^0.8.0;\n\n\ncontract HerdRegistry {\n\n    struct AnimalGroup {\n        uint256 mature;\n        uint256 heifer;\n        uint256 dry;\n        uint256 fresh;\n    }\n\n    /**\n     * To do: how to maually input farmer on-chain address\n     */\n    struct Herd {\n        string farm;\n        address farmer;\n        string location;\n        AnimalGroup groups;\n    }\n\n    mapping(uint256 => Herd) public herds;\n    mapping(uint256 => bool) public herdExists;\n    uint256 public herdCount;\n\n    function registerHerd(\n        string memory _farm, \n        string memory _location,\n        uint256 _mature, \n        uint56 _heifer, \n        uint256 _dry, \n        uint256 _fresh) public \n        {\n            herdCount++;\n            herds[herdCount] = Herd(_farm, msg.sender, _location, AnimalGroup(_mature, _heifer, _dry, _fresh));\n            herdExists[herdCount] = true;\n        }\n\n    function viewHerd(uint256 _herdID) \n        public \n        view \n        returns(\n            string memory, \n            string memory, \n            uint256, \n            uint256, \n            uint256, \n            uint256) \n        {\n            return(herds[_herdID].farm,\n            herds[_herdID].location,\n            herds[_herdID].groups.mature,\n            herds[_herdID].groups.heifer,\n            herds[_herdID].groups.dry,\n            herds[_herdID].groups.fresh);\n        }\n}",
  "sourcePath": "/Users/yininghu/Documents/work/Beston/beston-dapps/contracts/carbon/HerdRegistry.sol",
  "compiler": {
    "name": "solc",
    "version": "0.8.7+commit.e28d00a7.Emscripten.clang"
  },
  "schemaVersion": "3.4.1",
  "updatedAt": "2022-12-08T04:57:50.137Z",
  "devdoc": {
    "kind": "dev",
    "methods": {},
    "version": 1
  },
  "userdoc": {
    "kind": "user",
    "methods": {},
    "version": 1
  }
}