{
  "contractName": "HerdRegistry",
  "abi": [
    {
      "inputs": [
        {
          "internalType": "contract FarmRegistry",
          "name": "_farmregistry",
          "type": "address"
        }
      ],
      "stateMutability": "nonpayable",
      "type": "constructor"
    },
    {
      "inputs": [
        {
          "internalType": "uint256",
          "name": "",
          "type": "uint256"
        }
      ],
      "name": "allherds",
      "outputs": [
        {
          "internalType": "string",
          "name": "",
          "type": "string"
        }
      ],
      "stateMutability": "view",
      "type": "function"
    },
    {
      "inputs": [],
      "name": "farmregistry",
      "outputs": [
        {
          "internalType": "contract FarmRegistry",
          "name": "",
          "type": "address"
        }
      ],
      "stateMutability": "view",
      "type": "function"
    },
    {
      "inputs": [
        {
          "internalType": "string",
          "name": "",
          "type": "string"
        }
      ],
      "name": "herdExists",
      "outputs": [
        {
          "internalType": "bool",
          "name": "",
          "type": "bool"
        }
      ],
      "stateMutability": "view",
      "type": "function"
    },
    {
      "inputs": [
        {
          "internalType": "string",
          "name": "",
          "type": "string"
        }
      ],
      "name": "herds",
      "outputs": [
        {
          "internalType": "string",
          "name": "FarmID",
          "type": "string"
        },
        {
          "internalType": "uint16",
          "name": "NumOfAnimals",
          "type": "uint16"
        },
        {
          "internalType": "uint16",
          "name": "DaysOnFarm",
          "type": "uint16"
        }
      ],
      "stateMutability": "view",
      "type": "function"
    },
    {
      "inputs": [
        {
          "internalType": "uint256",
          "name": "",
          "type": "uint256"
        }
      ],
      "name": "projectherds",
      "outputs": [
        {
          "internalType": "string",
          "name": "",
          "type": "string"
        }
      ],
      "stateMutability": "view",
      "type": "function"
    },
    {
      "inputs": [
        {
          "internalType": "string",
          "name": "_herdid",
          "type": "string"
        },
        {
          "internalType": "string",
          "name": "_farmid",
          "type": "string"
        },
        {
          "internalType": "uint16",
          "name": "_numofanimals",
          "type": "uint16"
        },
        {
          "internalType": "uint16",
          "name": "_daysonfarm",
          "type": "uint16"
        }
      ],
      "name": "registerHerd",
      "outputs": [],
      "stateMutability": "nonpayable",
      "type": "function"
    },
    {
      "inputs": [
        {
          "internalType": "string",
          "name": "_herdid",
          "type": "string"
        }
      ],
      "name": "queryHerd",
      "outputs": [
        {
          "internalType": "string",
          "name": "",
          "type": "string"
        },
        {
          "internalType": "uint16",
          "name": "",
          "type": "uint16"
        },
        {
          "internalType": "uint16",
          "name": "",
          "type": "uint16"
        }
      ],
      "stateMutability": "view",
      "type": "function"
    },
    {
      "inputs": [],
      "name": "queryAll",
      "outputs": [
        {
          "internalType": "string[]",
          "name": "",
          "type": "string[]"
        },
        {
          "internalType": "string[]",
          "name": "",
          "type": "string[]"
        },
        {
          "internalType": "uint16[]",
          "name": "",
          "type": "uint16[]"
        },
        {
          "internalType": "uint16[]",
          "name": "",
          "type": "uint16[]"
        }
      ],
      "stateMutability": "view",
      "type": "function"
    }
  ],
  "bytecode": "0x60806040523480156200001157600080fd5b50604051620018cd380380620018cd833981810160405281019062000037919062000095565b806000806101000a81548173ffffffffffffffffffffffffffffffffffffffff021916908373ffffffffffffffffffffffffffffffffffffffff160217905550506200012e565b6000815190506200008f8162000114565b92915050565b600060208284031215620000ae57620000ad6200010f565b5b6000620000be848285016200007e565b91505092915050565b6000620000d482620000ef565b9050919050565b6000620000e882620000c7565b9050919050565b600073ffffffffffffffffffffffffffffffffffffffff82169050919050565b600080fd5b6200011f81620000db565b81146200012b57600080fd5b50565b61178f806200013e6000396000f3fe608060405234801561001057600080fd5b50600436106100885760003560e01c8063e09857b01161005b578063e09857b01461013d578063e59247081461016d578063e8b3fc511461018e578063fd88896f146101aa57610088565b8063110eed2e1461008d5780631c92da0b146100ab578063699d0914146100db578063cfe6aaf11461010d575b600080fd5b6100956101dc565b6040516100a29190611260565b60405180910390f35b6100c560048036038101906100c09190610ec3565b610200565b6040516100d2919061127b565b60405180910390f35b6100f560048036038101906100f09190610ddb565b6102ac565b6040516101049392919061129d565b60405180910390f35b61012760048036038101906101229190610ddb565b610390565b6040516101349190611245565b60405180910390f35b61015760048036038101906101529190610ec3565b6103c6565b604051610164919061127b565b60405180910390f35b610175610472565b60405161018594939291906111e4565b60405180910390f35b6101a860048036038101906101a39190610e24565b610851565b005b6101c460048036038101906101bf9190610ddb565b610acb565b6040516101d39392919061129d565b60405180910390f35b60008054906101000a900473ffffffffffffffffffffffffffffffffffffffff1681565b6003818154811061021057600080fd5b90600052602060002001600091509050805461022b9061150c565b80601f01602080910402602001604051908101604052809291908181526020018280546102579061150c565b80156102a45780601f10610279576101008083540402835291602001916102a4565b820191906000526020600020905b81548152906001019060200180831161028757829003601f168201915b505050505081565b6001818051602081018201805184825260208301602085012081835280955050505050506000915090508060000180546102e59061150c565b80601f01602080910402602001604051908101604052809291908181526020018280546103119061150c565b801561035e5780601f106103335761010080835404028352916020019161035e565b820191906000526020600020905b81548152906001019060200180831161034157829003601f168201915b5050505050908060010160009054906101000a900461ffff16908060010160029054906101000a900461ffff16905083565b6002818051602081018201805184825260208301602085012081835280955050505050506000915054906101000a900460ff1681565b600481815481106103d657600080fd5b9060005260206000200160009150905080546103f19061150c565b80601f016020809104026020016040519081016040528092919081815260200182805461041d9061150c565b801561046a5780601f1061043f5761010080835404028352916020019161046a565b820191906000526020600020905b81548152906001019060200180831161044d57829003601f168201915b505050505081565b606080606080600060038054905067ffffffffffffffff81111561049957610498611645565b5b6040519080825280602002602001820160405280156104cc57816020015b60608152602001906001900390816104b75790505b509050600060038054905067ffffffffffffffff8111156104f0576104ef611645565b5b60405190808252806020026020018201604052801561051e5781602001602082028036833780820191505090505b509050600060038054905067ffffffffffffffff81111561054257610541611645565b5b6040519080825280602002602001820160405280156105705781602001602082028036833780820191505090505b50905060005b6003805490508110156107675760016003828154811061059957610598611616565b5b906000526020600020016040516105b091906111cd565b908152602001604051809103902060000180546105cc9061150c565b80601f01602080910402602001604051908101604052809291908181526020018280546105f89061150c565b80156106455780601f1061061a57610100808354040283529160200191610645565b820191906000526020600020905b81548152906001019060200180831161062857829003601f168201915b505050505084828151811061065d5761065c611616565b5b602002602001018190525060016003828154811061067e5761067d611616565b5b9060005260206000200160405161069591906111cd565b908152602001604051809103902060010160009054906101000a900461ffff168382815181106106c8576106c7611616565b5b602002602001019061ffff16908161ffff16815250506001600382815481106106f4576106f3611616565b5b9060005260206000200160405161070b91906111cd565b908152602001604051809103902060010160029054906101000a900461ffff1682828151811061073e5761073d611616565b5b602002602001019061ffff16908161ffff1681525050808061075f9061156f565b915050610576565b50600383838383805480602002602001604051908101604052809291908181526020016000905b8282101561083a5783829060005260206000200180546107ad9061150c565b80601f01602080910402602001604051908101604052809291908181526020018280546107d99061150c565b80156108265780601f106107fb57610100808354040283529160200191610826565b820191906000526020600020905b81548152906001019060200180831161080957829003601f168201915b50505050508152602001906001019061078e565b505050509350965096509650965050505090919293565b6000151560028560405161086591906111b6565b908152602001604051809103902060009054906101000a900460ff161515146108c3576040517f08c379a00000000000000000000000000000000000000000000000000000000081526004016108ba9061131b565b60405180910390fd5b60008054906101000a900473ffffffffffffffffffffffffffffffffffffffff1673ffffffffffffffffffffffffffffffffffffffff1663f9f7aa79846040518263ffffffff1660e01b815260040161091c919061127b565b60206040518083038186803b15801561093457600080fd5b505afa158015610948573d6000803e3d6000fd5b505050506040513d601f19601f8201168201806040525081019061096c9190610dae565b6109ab576040517f08c379a00000000000000000000000000000000000000000000000000000000081526004016109a2906112fb565b60405180910390fd5b60405180606001604052808481526020018361ffff1681526020018261ffff168152506001856040516109de91906111b6565b90815260200160405180910390206000820151816000019080519060200190610a08929190610c5c565b5060208201518160010160006101000a81548161ffff021916908361ffff16021790555060408201518160010160026101000a81548161ffff021916908361ffff1602179055509050506001600285604051610a6491906111b6565b908152602001604051809103902060006101000a81548160ff021916908315150217905550600384908060018154018082558091505060019003906000526020600020016000909190919091509080519060200190610ac4929190610c5c565b5050505050565b606060008060011515600285604051610ae491906111b6565b908152602001604051809103902060009054906101000a900460ff16151514610b42576040517f08c379a0000000000000000000000000000000000000000000000000000000008152600401610b39906112db565b60405180910390fd5b600184604051610b5291906111b6565b9081526020016040518091039020600001600185604051610b7391906111b6565b908152602001604051809103902060010160009054906101000a900461ffff16600186604051610ba391906111b6565b908152602001604051809103902060010160029054906101000a900461ffff16828054610bcf9061150c565b80601f0160208091040260200160405190810160405280929190818152602001828054610bfb9061150c565b8015610c485780601f10610c1d57610100808354040283529160200191610c48565b820191906000526020600020905b815481529060010190602001808311610c2b57829003601f168201915b505050505092509250925092509193909250565b828054610c689061150c565b90600052602060002090601f016020900481019282610c8a5760008555610cd1565b82601f10610ca357805160ff1916838001178555610cd1565b82800160010185558215610cd1579182015b82811115610cd0578251825591602001919060010190610cb5565b5b509050610cde9190610ce2565b5090565b5b80821115610cfb576000816000905550600101610ce3565b5090565b6000610d12610d0d84611360565b61133b565b905082815260208101848484011115610d2e57610d2d611679565b5b610d398482856114ca565b509392505050565b600081519050610d5081611714565b92915050565b600082601f830112610d6b57610d6a611674565b5b8135610d7b848260208601610cff565b91505092915050565b600081359050610d938161172b565b92915050565b600081359050610da881611742565b92915050565b600060208284031215610dc457610dc3611683565b5b6000610dd284828501610d41565b91505092915050565b600060208284031215610df157610df0611683565b5b600082013567ffffffffffffffff811115610e0f57610e0e61167e565b5b610e1b84828501610d56565b91505092915050565b60008060008060808587031215610e3e57610e3d611683565b5b600085013567ffffffffffffffff811115610e5c57610e5b61167e565b5b610e6887828801610d56565b945050602085013567ffffffffffffffff811115610e8957610e8861167e565b5b610e9587828801610d56565b9350506040610ea687828801610d84565b9250506060610eb787828801610d84565b91505092959194509250565b600060208284031215610ed957610ed8611683565b5b6000610ee784828501610d99565b91505092915050565b6000610efc838361100d565b905092915050565b6000610f108383611198565b60208301905092915050565b6000610f27826113c6565b610f318185611401565b935083602082028501610f4385611391565b8060005b85811015610f7f5784840389528151610f608582610ef0565b9450610f6b836113e7565b925060208a01995050600181019050610f47565b50829750879550505050505092915050565b6000610f9c826113d1565b610fa68185611412565b9350610fb1836113a1565b8060005b83811015610fe2578151610fc98882610f04565b9750610fd4836113f4565b925050600181019050610fb5565b5085935050505092915050565b610ff881611450565b82525050565b61100781611494565b82525050565b6000611018826113dc565b6110228185611423565b93506110328185602086016114d9565b61103b81611688565b840191505092915050565b6000611051826113dc565b61105b8185611434565b935061106b8185602086016114d9565b61107481611688565b840191505092915050565b600061108a826113dc565b6110948185611445565b93506110a48185602086016114d9565b80840191505092915050565b600081546110bd8161150c565b6110c78186611445565b945060018216600081146110e257600181146110f357611126565b60ff19831686528186019350611126565b6110fc856113b1565b60005b8381101561111e578154818901526001820191506020810190506110ff565b838801955050505b50505092915050565b600061113c601483611434565b915061114782611699565b602082019050919050565b600061115f601483611434565b915061116a826116c2565b602082019050919050565b6000611182601483611434565b915061118d826116eb565b602082019050919050565b6111a18161145c565b82525050565b6111b08161145c565b82525050565b60006111c2828461107f565b915081905092915050565b60006111d982846110b0565b915081905092915050565b600060808201905081810360008301526111fe8187610f1c565b905081810360208301526112128186610f1c565b905081810360408301526112268185610f91565b9050818103606083015261123a8184610f91565b905095945050505050565b600060208201905061125a6000830184610fef565b92915050565b60006020820190506112756000830184610ffe565b92915050565b600060208201905081810360008301526112958184611046565b905092915050565b600060608201905081810360008301526112b78186611046565b90506112c660208301856111a7565b6112d360408301846111a7565b949350505050565b600060208201905081810360008301526112f48161112f565b9050919050565b6000602082019050818103600083015261131481611152565b9050919050565b6000602082019050818103600083015261133481611175565b9050919050565b6000611345611356565b9050611351828261153e565b919050565b6000604051905090565b600067ffffffffffffffff82111561137b5761137a611645565b5b61138482611688565b9050602081019050919050565b6000819050602082019050919050565b6000819050602082019050919050565b60008190508160005260206000209050919050565b600081519050919050565b600081519050919050565b600081519050919050565b6000602082019050919050565b6000602082019050919050565b600082825260208201905092915050565b600082825260208201905092915050565b600082825260208201905092915050565b600082825260208201905092915050565b600081905092915050565b60008115159050919050565b600061ffff82169050919050565b600073ffffffffffffffffffffffffffffffffffffffff82169050919050565b6000819050919050565b600061149f826114a6565b9050919050565b60006114b1826114b8565b9050919050565b60006114c38261146a565b9050919050565b82818337600083830152505050565b60005b838110156114f75780820151818401526020810190506114dc565b83811115611506576000848401525b50505050565b6000600282049050600182168061152457607f821691505b60208210811415611538576115376115e7565b5b50919050565b61154782611688565b810181811067ffffffffffffffff8211171561156657611565611645565b5b80604052505050565b600061157a8261148a565b91507fffffffffffffffffffffffffffffffffffffffffffffffffffffffffffffffff8214156115ad576115ac6115b8565b5b600182019050919050565b7f4e487b7100000000000000000000000000000000000000000000000000000000600052601160045260246000fd5b7f4e487b7100000000000000000000000000000000000000000000000000000000600052602260045260246000fd5b7f4e487b7100000000000000000000000000000000000000000000000000000000600052603260045260246000fd5b7f4e487b7100000000000000000000000000000000000000000000000000000000600052604160045260246000fd5b600080fd5b600080fd5b600080fd5b600080fd5b6000601f19601f8301169050919050565b7f4865726420646f6573206e6f742065786973742e000000000000000000000000600082015250565b7f4661726d20646f6573206e6f742065786973742e000000000000000000000000600082015250565b7f4865726420616c7265616479206578697374732e000000000000000000000000600082015250565b61171d81611450565b811461172857600080fd5b50565b6117348161145c565b811461173f57600080fd5b50565b61174b8161148a565b811461175657600080fd5b5056fea264697066735822122029e36f569c97eb56a18fc691894ca1b8d98088a29706024d37eb6b2fd846758f64736f6c63430008070033",
  "immutableReferences": {},
  "source": "// SPDX-License-Identifier: MIT\npragma solidity ^0.8.0;\n\nimport \"./FarmRegistry.sol\";\n\ncontract HerdRegistry {\n    FarmRegistry public farmregistry;\n\n    struct Herd {\n        string FarmID;\n        uint16 NumOfAnimals;\n        uint16 DaysOnFarm;\n    }\n\n    mapping(string => Herd) public herds;\n    mapping(string => bool) public herdExists;\n    string[] public allherds; // to record all herd ids\n    string[] public projectherds; // todo:for now the whole CarbonApp is designed to support 1 verra claim, so 1 project, later there should be more projects\n\n    constructor(FarmRegistry _farmregistry)\n    {\n        farmregistry = _farmregistry;\n    }\n\n    function registerHerd(\n        string memory _herdid,\n        string memory _farmid,\n        uint16 _numofanimals,\n        uint16 _daysonfarm) public \n        {\n            require(herdExists[_herdid] == false, \"Herd already exists.\");\n            require(farmregistry.farmExists(_farmid), \"Farm does not exist.\");\n            herds[_herdid] = Herd(_farmid,_numofanimals,_daysonfarm);\n            herdExists[_herdid] = true;\n            allherds.push(_herdid);\n        }\n\n    function queryHerd(string memory _herdid)\n        public \n        view \n        returns(\n            string memory, \n            uint16,\n            uint16)\n        {\n            require(herdExists[_herdid] == true, \"Herd does not exist.\");\n            return(herds[_herdid].FarmID,\n            herds[_herdid].NumOfAnimals,\n            herds[_herdid].DaysOnFarm);\n        }\n\n    function queryAll() public view \n    returns(\n        string[] memory,\n        string[] memory, \n        uint16[] memory, \n        uint16[] memory\n    )\n    {\n        string[] memory farmids = new string[](allherds.length);\n        uint16[] memory nums = new uint16[](allherds.length);\n        uint16[] memory ds = new uint16[](allherds.length);\n\n        for(uint256 i=0; i<allherds.length; i++){\n            farmids[i] = herds[allherds[i]].FarmID;\n            nums[i] = herds[allherds[i]].NumOfAnimals;\n            ds[i] = herds[allherds[i]].DaysOnFarm;\n        }\n\n        return(allherds,farmids,nums,ds);\n    }\n}",
  "sourcePath": "/home/yih/Documents/dev/beston-dapps/contracts/carbon/HerdRegistry.sol",
  "compiler": {
    "name": "solc",
    "version": "0.8.7+commit.e28d00a7.Emscripten.clang"
  },
  "schemaVersion": "3.4.1",
  "updatedAt": "2023-07-31T00:06:25.172Z",
  "networkType": "ethereum",
  "devdoc": {
    "kind": "dev",
    "methods": {},
    "version": 1
  },
  "userdoc": {
    "kind": "user",
    "methods": {},
    "version": 1
  }
}