{
  "contractName": "MarketPlace",
  "abi": [
    {
      "inputs": [
        {
          "internalType": "contract DigitalTwin",
          "name": "_digitaltwin",
          "type": "address"
        }
      ],
      "stateMutability": "nonpayable",
      "type": "constructor"
    },
    {
      "anonymous": false,
      "inputs": [
        {
          "indexed": false,
          "internalType": "string",
          "name": "tkname",
          "type": "string"
        },
        {
          "indexed": false,
          "internalType": "uint256",
          "name": "price",
          "type": "uint256"
        }
      ],
      "name": "DepositTaken",
      "type": "event"
    },
    {
      "anonymous": false,
      "inputs": [
        {
          "indexed": false,
          "internalType": "string",
          "name": "tkname",
          "type": "string"
        },
        {
          "indexed": false,
          "internalType": "uint256",
          "name": "price",
          "type": "uint256"
        }
      ],
      "name": "PurchaseSuccessful",
      "type": "event"
    },
    {
      "inputs": [],
      "name": "btk",
      "outputs": [
        {
          "internalType": "contract BToken",
          "name": "",
          "type": "address"
        }
      ],
      "stateMutability": "view",
      "type": "function",
      "constant": true
    },
    {
      "inputs": [],
      "name": "digitaltwin",
      "outputs": [
        {
          "internalType": "contract DigitalTwin",
          "name": "",
          "type": "address"
        }
      ],
      "stateMutability": "view",
      "type": "function",
      "constant": true
    },
    {
      "inputs": [],
      "name": "fee_btk",
      "outputs": [
        {
          "internalType": "uint256",
          "name": "",
          "type": "uint256"
        }
      ],
      "stateMutability": "view",
      "type": "function",
      "constant": true
    },
    {
      "inputs": [
        {
          "internalType": "string",
          "name": "",
          "type": "string"
        }
      ],
      "name": "productExists",
      "outputs": [
        {
          "internalType": "bool",
          "name": "",
          "type": "bool"
        }
      ],
      "stateMutability": "view",
      "type": "function",
      "constant": true
    },
    {
      "inputs": [
        {
          "internalType": "string",
          "name": "",
          "type": "string"
        }
      ],
      "name": "stock",
      "outputs": [
        {
          "internalType": "uint256",
          "name": "price",
          "type": "uint256"
        },
        {
          "internalType": "address",
          "name": "buyer",
          "type": "address"
        },
        {
          "internalType": "address",
          "name": "seller",
          "type": "address"
        },
        {
          "internalType": "enum MarketPlace.PurchaseState",
          "name": "state",
          "type": "uint8"
        },
        {
          "internalType": "uint256",
          "name": "timeout",
          "type": "uint256"
        }
      ],
      "stateMutability": "view",
      "type": "function",
      "constant": true
    },
    {
      "inputs": [
        {
          "internalType": "string",
          "name": "_tkname",
          "type": "string"
        },
        {
          "internalType": "uint256",
          "name": "_price",
          "type": "uint256"
        }
      ],
      "name": "list",
      "outputs": [],
      "stateMutability": "nonpayable",
      "type": "function"
    },
    {
      "inputs": [
        {
          "internalType": "string",
          "name": "_name",
          "type": "string"
        }
      ],
      "name": "resiterBTKAcc",
      "outputs": [],
      "stateMutability": "nonpayable",
      "type": "function"
    },
    {
      "inputs": [],
      "name": "buyBTK",
      "outputs": [],
      "stateMutability": "payable",
      "type": "function",
      "payable": true
    },
    {
      "inputs": [
        {
          "internalType": "uint256",
          "name": "amount",
          "type": "uint256"
        }
      ],
      "name": "sellBTK",
      "outputs": [],
      "stateMutability": "nonpayable",
      "type": "function"
    },
    {
      "inputs": [],
      "name": "queryBTKBalances",
      "outputs": [
        {
          "internalType": "string[]",
          "name": "",
          "type": "string[]"
        },
        {
          "internalType": "uint256[]",
          "name": "",
          "type": "uint256[]"
        }
      ],
      "stateMutability": "view",
      "type": "function",
      "constant": true
    },
    {
      "inputs": [
        {
          "internalType": "string",
          "name": "_tkname",
          "type": "string"
        }
      ],
      "name": "directPurchase",
      "outputs": [],
      "stateMutability": "nonpayable",
      "type": "function"
    },
    {
      "inputs": [
        {
          "internalType": "string",
          "name": "_tkname",
          "type": "string"
        },
        {
          "internalType": "uint256",
          "name": "_deposit",
          "type": "uint256"
        }
      ],
      "name": "BuyerDepositWithBTK",
      "outputs": [],
      "stateMutability": "nonpayable",
      "type": "function"
    },
    {
      "inputs": [
        {
          "internalType": "string",
          "name": "_tkname",
          "type": "string"
        }
      ],
      "name": "AgentApproveWithBTK",
      "outputs": [],
      "stateMutability": "nonpayable",
      "type": "function"
    },
    {
      "inputs": [
        {
          "internalType": "string",
          "name": "_tkname",
          "type": "string"
        }
      ],
      "name": "AgentDenyWithBTK",
      "outputs": [],
      "stateMutability": "nonpayable",
      "type": "function"
    },
    {
      "inputs": [
        {
          "internalType": "string",
          "name": "_tkname",
          "type": "string"
        }
      ],
      "name": "queryProduct",
      "outputs": [
        {
          "internalType": "uint256",
          "name": "",
          "type": "uint256"
        },
        {
          "internalType": "string",
          "name": "",
          "type": "string"
        },
        {
          "internalType": "address",
          "name": "",
          "type": "address"
        },
        {
          "internalType": "address",
          "name": "",
          "type": "address"
        }
      ],
      "stateMutability": "view",
      "type": "function",
      "constant": true
    },
    {
      "inputs": [],
      "name": "queryAllProducts",
      "outputs": [
        {
          "internalType": "string[]",
          "name": "",
          "type": "string[]"
        },
        {
          "internalType": "uint256[]",
          "name": "",
          "type": "uint256[]"
        },
        {
          "internalType": "string[]",
          "name": "",
          "type": "string[]"
        },
        {
          "internalType": "address[]",
          "name": "",
          "type": "address[]"
        },
        {
          "internalType": "address[]",
          "name": "",
          "type": "address[]"
        }
      ],
      "stateMutability": "view",
      "type": "function",
      "constant": true
    }
  ],
  "bytecode": "0x60806040523480156200001157600080fd5b506040516200744f3803806200744f833981810160405281019062000037919062000170565b80600360006101000a81548173ffffffffffffffffffffffffffffffffffffffff021916908373ffffffffffffffffffffffffffffffffffffffff160217905550620f42406040516200008a906200014b565b620000969190620001da565b604051809103906000f080158015620000b3573d6000803e3d6000fd5b50600460006101000a81548173ffffffffffffffffffffffffffffffffffffffff021916908373ffffffffffffffffffffffffffffffffffffffff160217905550336000806101000a81548173ffffffffffffffffffffffffffffffffffffffff021916908373ffffffffffffffffffffffffffffffffffffffff1602179055506001808190555061012c60028190555050620002e0565b6126658062004dea83390190565b6000815190506200016a81620002c6565b92915050565b60006020828403121562000189576200018862000298565b5b6000620001998482850162000159565b91505092915050565b620001ad8162000284565b82525050565b6000620001c260028362000221565b9150620001cf826200029d565b602082019050919050565b60006060820190508181036000830152620001f581620001b3565b905081810360208301526200020a81620001b3565b90506200021b6040830184620001a2565b92915050565b600082825260208201905092915050565b60006200023f826200025a565b9050919050565b6000620002538262000232565b9050919050565b600073ffffffffffffffffffffffffffffffffffffffff82169050919050565b6000819050919050565b600062000291826200027a565b9050919050565b600080fd5b7f4254000000000000000000000000000000000000000000000000000000000000600082015250565b620002d18162000246565b8114620002dd57600080fd5b50565b614afa80620002f06000396000f3fe6080604052600436106100f35760003560e01c806386dc434b1161008a578063ea467b4011610059578063ea467b40146102f7578063eef0613814610326578063f2922cf41461034f578063fd9908e31461037a576100f3565b806386dc434b1461023d5780638addc05114610268578063c4e0827a146102a5578063cb17a596146102ce576100f3565b80632f59b3f7116100c65780632f59b3f7146101a15780634a878dfa146101ab578063568e4118146101d45780637a76f2e214610214576100f3565b80630a7182e5146100f857806324d83ece146101215780632ca9f4bd1461014a5780632d37fcf814610175575b600080fd5b34801561010457600080fd5b5061011f600480360381019061011a91906134bd565b6103bb565b005b34801561012d57600080fd5b50610148600480360381019061014391906134bd565b6109c8565b005b34801561015657600080fd5b5061015f610a5a565b60405161016c9190613d81565b60405180910390f35b34801561018157600080fd5b5061018a610a80565b604051610198929190613cb9565b60405180910390f35b6101a9610b3b565b005b3480156101b757600080fd5b506101d260048036038101906101cd9190613506565b610d29565b005b3480156101e057600080fd5b506101fb60048036038101906101f691906134bd565b61122a565b60405161020b94939291906140e7565b60405180910390f35b34801561022057600080fd5b5061023b600480360381019061023691906134bd565b6115f2565b005b34801561024957600080fd5b50610252611bff565b60405161025f9190613d9c565b60405180910390f35b34801561027457600080fd5b5061028f600480360381019061028a91906134bd565b611c25565b60405161029c9190613d66565b60405180910390f35b3480156102b157600080fd5b506102cc60048036038101906102c79190613562565b611c5b565b005b3480156102da57600080fd5b506102f560048036038101906102f091906134bd565b611d9a565b005b34801561030357600080fd5b5061030c6122f1565b60405161031d959493929190613cf0565b60405180910390f35b34801561033257600080fd5b5061034d60048036038101906103489190613506565b612aa9565b005b34801561035b57600080fd5b50610364612fdb565b6040516103719190614079565b60405180910390f35b34801561038657600080fd5b506103a1600480360381019061039c91906134bd565b612fe1565b6040516103b2959493929190614094565b60405180910390f35b6006816040516103cb9190613c10565b908152602001604051809103902060020160009054906101000a900473ffffffffffffffffffffffffffffffffffffffff16600073ffffffffffffffffffffffffffffffffffffffff168173ffffffffffffffffffffffffffffffffffffffff16141561046d576040517f08c379a000000000000000000000000000000000000000000000000000000000815260040161046490613f99565b60405180910390fd5b3073ffffffffffffffffffffffffffffffffffffffff168173ffffffffffffffffffffffffffffffffffffffff1614156104dc576040517f08c379a00000000000000000000000000000000000000000000000000000000081526004016104d390614059565b60405180910390fd5b816007816040516104ed9190613c10565b908152602001604051809103902060009054906101000a900460ff16610548576040517f08c379a000000000000000000000000000000000000000000000000000000000815260040161053f90613ef9565b60405180910390fd5b60008054906101000a900473ffffffffffffffffffffffffffffffffffffffff1673ffffffffffffffffffffffffffffffffffffffff163373ffffffffffffffffffffffffffffffffffffffff16146105d6576040517f08c379a00000000000000000000000000000000000000000000000000000000081526004016105cd90613fd9565b60405180910390fd5b600160038111156105ea576105e9614501565b5b6006846040516105fa9190613c10565b908152602001604051809103902060020160149054906101000a900460ff16600381111561062b5761062a614501565b5b1461066b576040517f08c379a000000000000000000000000000000000000000000000000000000000815260040161066290613eb9565b60405180910390fd5b60068360405161067b9190613c10565b90815260200160405180910390206003015442106106ce576040517f08c379a00000000000000000000000000000000000000000000000000000000081526004016106c590613f19565b60405180910390fd5b600460009054906101000a900473ffffffffffffffffffffffffffffffffffffffff1673ffffffffffffffffffffffffffffffffffffffff1663a9059cbb60068560405161071c9190613c10565b908152602001604051809103902060020160009054906101000a900473ffffffffffffffffffffffffffffffffffffffff1660068660405161075e9190613c10565b9081526020016040518091039020600001546040518363ffffffff1660e01b815260040161078d929190613c90565b602060405180830381600087803b1580156107a757600080fd5b505af11580156107bb573d6000803e3d6000fd5b505050506040513d601f19601f820116820180604052508101906107df9190613490565b506000806000806000600360009054906101000a900473ffffffffffffffffffffffffffffffffffffffff1673ffffffffffffffffffffffffffffffffffffffff1663c5573d46896040518263ffffffff1660e01b81526004016108439190613db7565b60006040518083038186803b15801561085b57600080fd5b505afa15801561086f573d6000803e3d6000fd5b505050506040513d6000823e3d601f19601f8201168201806040525081019061089891906135bc565b94509450945094509450600360009054906101000a900473ffffffffffffffffffffffffffffffffffffffff1673ffffffffffffffffffffffffffffffffffffffff166323b872dd3060068b6040516108f19190613c10565b908152602001604051809103902060010160009054906101000a900473ffffffffffffffffffffffffffffffffffffffff16886040518463ffffffff1660e01b815260040161094293929190613c59565b600060405180830381600087803b15801561095c57600080fd5b505af1158015610970573d6000803e3d6000fd5b5050505060026006896040516109869190613c10565b908152602001604051809103902060020160146101000a81548160ff021916908360038111156109b9576109b8614501565b5b02179055505050505050505050565b600460009054906101000a900473ffffffffffffffffffffffffffffffffffffffff1673ffffffffffffffffffffffffffffffffffffffff16630e54b87282326040518363ffffffff1660e01b8152600401610a25929190613dd9565b600060405180830381600087803b158015610a3f57600080fd5b505af1158015610a53573d6000803e3d6000fd5b5050505050565b600460009054906101000a900473ffffffffffffffffffffffffffffffffffffffff1681565b606080600080600460009054906101000a900473ffffffffffffffffffffffffffffffffffffffff1673ffffffffffffffffffffffffffffffffffffffff166316c54a0d6040518163ffffffff1660e01b815260040160006040518083038186803b158015610aee57600080fd5b505afa158015610b02573d6000803e3d6000fd5b505050506040513d6000823e3d601f19601f82011682018060405250810190610b2b9190613418565b9150915081819350935050509091565b60003490506000600460009054906101000a900473ffffffffffffffffffffffffffffffffffffffff1673ffffffffffffffffffffffffffffffffffffffff166370a08231306040518263ffffffff1660e01b8152600401610b9d9190613c3e565b60206040518083038186803b158015610bb557600080fd5b505afa158015610bc9573d6000803e3d6000fd5b505050506040513d601f19601f82011682018060405250810190610bed919061358f565b905060008211610c32576040517f08c379a0000000000000000000000000000000000000000000000000000000008152600401610c2990613ed9565b60405180910390fd5b80821115610c75576040517f08c379a0000000000000000000000000000000000000000000000000000000008152600401610c6c90613e39565b60405180910390fd5b600460009054906101000a900473ffffffffffffffffffffffffffffffffffffffff1673ffffffffffffffffffffffffffffffffffffffff1663a9059cbb32846040518363ffffffff1660e01b8152600401610cd2929190613c90565b602060405180830381600087803b158015610cec57600080fd5b505af1158015610d00573d6000803e3d6000fd5b505050506040513d601f19601f82011682018060405250810190610d249190613490565b505050565b600782604051610d399190613c10565b908152602001604051809103902060009054906101000a900460ff1615610d95576040517f08c379a0000000000000000000000000000000000000000000000000000000008152600401610d8c90613f59565b60405180910390fd5b600360009054906101000a900473ffffffffffffffffffffffffffffffffffffffff1673ffffffffffffffffffffffffffffffffffffffff16630ad5b505836040518263ffffffff1660e01b8152600401610df09190613db7565b60206040518083038186803b158015610e0857600080fd5b505afa158015610e1c573d6000803e3d6000fd5b505050506040513d601f19601f82011682018060405250810190610e409190613490565b610e7f576040517f08c379a0000000000000000000000000000000000000000000000000000000008152600401610e7690613fb9565b60405180910390fd5b6000806000806000600360009054906101000a900473ffffffffffffffffffffffffffffffffffffffff1673ffffffffffffffffffffffffffffffffffffffff1663c5573d46886040518263ffffffff1660e01b8152600401610ee29190613db7565b60006040518083038186803b158015610efa57600080fd5b505afa158015610f0e573d6000803e3d6000fd5b505050506040513d6000823e3d601f19601f82011682018060405250810190610f3791906135bc565b945094509450945094508073ffffffffffffffffffffffffffffffffffffffff163373ffffffffffffffffffffffffffffffffffffffff1614610faf576040517f08c379a0000000000000000000000000000000000000000000000000000000008152600401610fa690614019565b60405180910390fd5b610fb761307a565b86816000018181525050600081606001906003811115610fda57610fd9614501565b5b90816003811115610fee57610fed614501565b5b8152505033816040019073ffffffffffffffffffffffffffffffffffffffff16908173ffffffffffffffffffffffffffffffffffffffff16815250508060068960405161103b9190613c10565b90815260200160405180910390206000820151816000015560208201518160010160006101000a81548173ffffffffffffffffffffffffffffffffffffffff021916908373ffffffffffffffffffffffffffffffffffffffff16021790555060408201518160020160006101000a81548173ffffffffffffffffffffffffffffffffffffffff021916908373ffffffffffffffffffffffffffffffffffffffff16021790555060608201518160020160146101000a81548160ff0219169083600381111561110c5761110b614501565b5b02179055506080820151816003015590505060016007896040516111309190613c10565b908152602001604051809103902060006101000a81548160ff0219169083151502179055506005889080600181540180825580915050600190039060005260206000200160009091909190915090805190602001906111909291906130e7565b50600360009054906101000a900473ffffffffffffffffffffffffffffffffffffffff1673ffffffffffffffffffffffffffffffffffffffff16630d202ced89306040518363ffffffff1660e01b81526004016111ee929190613dd9565b600060405180830381600087803b15801561120857600080fd5b505af115801561121c573d6000803e3d6000fd5b505050505050505050505050565b60006060600080846007816040516112429190613c10565b908152602001604051809103902060009054906101000a900460ff1661129d576040517f08c379a000000000000000000000000000000000000000000000000000000000815260040161129490613ef9565b60405180910390fd5b6060600060038111156112b3576112b2614501565b5b6006886040516112c39190613c10565b908152602001604051809103902060020160149054906101000a900460ff1660038111156112f4576112f3614501565b5b1415611337576040518060400160405280600e81526020017f70726f64756374206c6973746564000000000000000000000000000000000000815250905061153a565b6001600381111561134b5761134a614501565b5b60068860405161135b9190613c10565b908152602001604051809103902060020160149054906101000a900460ff16600381111561138c5761138b614501565b5b14156113cf576040518060400160405280600d81526020017f6465706f7369742074616b656e000000000000000000000000000000000000008152509050611539565b600260038111156113e3576113e2614501565b5b6006886040516113f39190613c10565b908152602001604051809103902060020160149054906101000a900460ff16600381111561142457611423614501565b5b1415611467576040518060400160405280601281526020017f7061796d656e74207375636365737366756c00000000000000000000000000008152509050611538565b60038081111561147a57611479614501565b5b60068860405161148a9190613c10565b908152602001604051809103902060020160149054906101000a900460ff1660038111156114bb576114ba614501565b5b14156114fe576040518060400160405280601081526020017f7061796d656e742072657475726e6564000000000000000000000000000000008152509050611537565b6040518060400160405280601681526020017f756e6b6e6f776e2070757263686173652073746174650000000000000000000081525090505b5b5b5b60068760405161154a9190613c10565b9081526020016040518091039020600001548160068960405161156d9190613c10565b908152602001604051809103902060020160009054906101000a900473ffffffffffffffffffffffffffffffffffffffff1660068a6040516115af9190613c10565b908152602001604051809103902060010160009054906101000a900473ffffffffffffffffffffffffffffffffffffffff16955095509550955050509193509193565b6006816040516116029190613c10565b908152602001604051809103902060010160009054906101000a900473ffffffffffffffffffffffffffffffffffffffff16600073ffffffffffffffffffffffffffffffffffffffff168173ffffffffffffffffffffffffffffffffffffffff1614156116a4576040517f08c379a000000000000000000000000000000000000000000000000000000000815260040161169b90613f99565b60405180910390fd5b3073ffffffffffffffffffffffffffffffffffffffff168173ffffffffffffffffffffffffffffffffffffffff161415611713576040517f08c379a000000000000000000000000000000000000000000000000000000000815260040161170a90614059565b60405180910390fd5b816007816040516117249190613c10565b908152602001604051809103902060009054906101000a900460ff1661177f576040517f08c379a000000000000000000000000000000000000000000000000000000000815260040161177690613ef9565b60405180910390fd5b60008054906101000a900473ffffffffffffffffffffffffffffffffffffffff1673ffffffffffffffffffffffffffffffffffffffff163373ffffffffffffffffffffffffffffffffffffffff161461180d576040517f08c379a000000000000000000000000000000000000000000000000000000000815260040161180490613f79565b60405180910390fd5b6001600381111561182157611820614501565b5b6006846040516118319190613c10565b908152602001604051809103902060020160149054906101000a900460ff16600381111561186257611861614501565b5b146118a2576040517f08c379a000000000000000000000000000000000000000000000000000000000815260040161189990613eb9565b60405180910390fd5b6006836040516118b29190613c10565b9081526020016040518091039020600301544211611905576040517f08c379a00000000000000000000000000000000000000000000000000000000081526004016118fc90613e79565b60405180910390fd5b600460009054906101000a900473ffffffffffffffffffffffffffffffffffffffff1673ffffffffffffffffffffffffffffffffffffffff1663a9059cbb6006856040516119539190613c10565b908152602001604051809103902060010160009054906101000a900473ffffffffffffffffffffffffffffffffffffffff166006866040516119959190613c10565b9081526020016040518091039020600001546040518363ffffffff1660e01b81526004016119c4929190613c90565b602060405180830381600087803b1580156119de57600080fd5b505af11580156119f2573d6000803e3d6000fd5b505050506040513d601f19601f82011682018060405250810190611a169190613490565b506000806000806000600360009054906101000a900473ffffffffffffffffffffffffffffffffffffffff1673ffffffffffffffffffffffffffffffffffffffff1663c5573d46896040518263ffffffff1660e01b8152600401611a7a9190613db7565b60006040518083038186803b158015611a9257600080fd5b505afa158015611aa6573d6000803e3d6000fd5b505050506040513d6000823e3d601f19601f82011682018060405250810190611acf91906135bc565b94509450945094509450600360009054906101000a900473ffffffffffffffffffffffffffffffffffffffff1673ffffffffffffffffffffffffffffffffffffffff166323b872dd3060068b604051611b289190613c10565b908152602001604051809103902060020160009054906101000a900473ffffffffffffffffffffffffffffffffffffffff16886040518463ffffffff1660e01b8152600401611b7993929190613c59565b600060405180830381600087803b158015611b9357600080fd5b505af1158015611ba7573d6000803e3d6000fd5b505050506003600689604051611bbd9190613c10565b908152602001604051809103902060020160146101000a81548160ff02191690836003811115611bf057611bef614501565b5b02179055505050505050505050565b600360009054906101000a900473ffffffffffffffffffffffffffffffffffffffff1681565b6007818051602081018201805184825260208301602085012081835280955050505050506000915054906101000a900460ff1681565b60008111611c9e576040517f08c379a0000000000000000000000000000000000000000000000000000000008152600401611c9590613f39565b60405180910390fd5b600460009054906101000a900473ffffffffffffffffffffffffffffffffffffffff1673ffffffffffffffffffffffffffffffffffffffff166323b872dd3230846040518463ffffffff1660e01b8152600401611cfd93929190613c59565b602060405180830381600087803b158015611d1757600080fd5b505af1158015611d2b573d6000803e3d6000fd5b505050506040513d601f19601f82011682018060405250810190611d4f9190613490565b503273ffffffffffffffffffffffffffffffffffffffff166108fc829081150290604051600060405180830381858888f19350505050158015611d96573d6000803e3d6000fd5b5050565b60006003811115611dae57611dad614501565b5b600682604051611dbe9190613c10565b908152602001604051809103902060020160149054906101000a900460ff166003811115611def57611dee614501565b5b14611e2f576040517f08c379a0000000000000000000000000000000000000000000000000000000008152600401611e2690613ff9565b60405180910390fd5b600681604051611e3f9190613c10565b908152602001604051809103902060000154600460009054906101000a900473ffffffffffffffffffffffffffffffffffffffff1673ffffffffffffffffffffffffffffffffffffffff166370a08231336040518263ffffffff1660e01b8152600401611eac9190613c3e565b60206040518083038186803b158015611ec457600080fd5b505afa158015611ed8573d6000803e3d6000fd5b505050506040513d601f19601f82011682018060405250810190611efc919061358f565b1015611f3d576040517f08c379a0000000000000000000000000000000000000000000000000000000008152600401611f3490613e59565b60405180910390fd5b33600682604051611f4e9190613c10565b908152602001604051809103902060010160006101000a81548173ffffffffffffffffffffffffffffffffffffffff021916908373ffffffffffffffffffffffffffffffffffffffff1602179055506002600682604051611faf9190613c10565b908152602001604051809103902060020160146101000a81548160ff02191690836003811115611fe257611fe1614501565b5b0217905550600460009054906101000a900473ffffffffffffffffffffffffffffffffffffffff1673ffffffffffffffffffffffffffffffffffffffff166323b872dd336006846040516120369190613c10565b908152602001604051809103902060020160009054906101000a900473ffffffffffffffffffffffffffffffffffffffff166006856040516120789190613c10565b9081526020016040518091039020600001546040518463ffffffff1660e01b81526004016120a893929190613c59565b602060405180830381600087803b1580156120c257600080fd5b505af11580156120d6573d6000803e3d6000fd5b505050506040513d601f19601f820116820180604052508101906120fa9190613490565b506000806000806000600360009054906101000a900473ffffffffffffffffffffffffffffffffffffffff1673ffffffffffffffffffffffffffffffffffffffff1663c5573d46876040518263ffffffff1660e01b815260040161215e9190613db7565b60006040518083038186803b15801561217657600080fd5b505afa15801561218a573d6000803e3d6000fd5b505050506040513d6000823e3d601f19601f820116820180604052508101906121b391906135bc565b94509450945094509450600360009054906101000a900473ffffffffffffffffffffffffffffffffffffffff1673ffffffffffffffffffffffffffffffffffffffff166323b872dd3060068960405161220c9190613c10565b908152602001604051809103902060010160009054906101000a900473ffffffffffffffffffffffffffffffffffffffff16886040518463ffffffff1660e01b815260040161225d93929190613c59565b600060405180830381600087803b15801561227757600080fd5b505af115801561228b573d6000803e3d6000fd5b505050507f55a1d48413b75294fb8b28f281bb7b7c8602eda505de8d2918731273bbb6ffff866006886040516122c19190613c10565b9081526020016040518091039020600001546040516122e1929190613e09565b60405180910390a1505050505050565b6060806060806060600060058054905067ffffffffffffffff81111561231a5761231961458e565b5b6040519080825280602002602001820160405280156123485781602001602082028036833780820191505090505b509050600060058054905067ffffffffffffffff81111561236c5761236b61458e565b5b60405190808252806020026020018201604052801561239f57816020015b606081526020019060019003908161238a5790505b509050600060058054905067ffffffffffffffff8111156123c3576123c261458e565b5b6040519080825280602002602001820160405280156123f15781602001602082028036833780820191505090505b509050600060058054905067ffffffffffffffff8111156124155761241461458e565b5b6040519080825280602002602001820160405280156124435781602001602082028036833780820191505090505b50905060005b6005805490508110156129ba5760066005828154811061246c5761246b61455f565b5b906000526020600020016040516124839190613c27565b9081526020016040518091039020600001548582815181106124a8576124a761455f565b5b602002602001018181525050600060038111156124c8576124c7614501565b5b6006600583815481106124de576124dd61455f565b5b906000526020600020016040516124f59190613c27565b908152602001604051809103902060020160149054906101000a900460ff16600381111561252657612525614501565b5b1415612585576040518060400160405280600e81526020017f70726f64756374206c69737465640000000000000000000000000000000000008152508482815181106125755761257461455f565b5b602002602001018190525061284f565b6001600381111561259957612598614501565b5b6006600583815481106125af576125ae61455f565b5b906000526020600020016040516125c69190613c27565b908152602001604051809103902060020160149054906101000a900460ff1660038111156125f7576125f6614501565b5b1415612656576040518060400160405280600d81526020017f6465706f7369742074616b656e000000000000000000000000000000000000008152508482815181106126465761264561455f565b5b602002602001018190525061284e565b6002600381111561266a57612669614501565b5b6006600583815481106126805761267f61455f565b5b906000526020600020016040516126979190613c27565b908152602001604051809103902060020160149054906101000a900460ff1660038111156126c8576126c7614501565b5b1415612727576040518060400160405280601281526020017f7061796d656e74207375636365737366756c00000000000000000000000000008152508482815181106127175761271661455f565b5b602002602001018190525061284d565b60038081111561273a57612739614501565b5b6006600583815481106127505761274f61455f565b5b906000526020600020016040516127679190613c27565b908152602001604051809103902060020160149054906101000a900460ff16600381111561279857612797614501565b5b14156127f7576040518060400160405280601081526020017f7061796d656e742072657475726e6564000000000000000000000000000000008152508482815181106127e7576127e661455f565b5b602002602001018190525061284c565b6040518060400160405280601681526020017f756e6b6e6f776e207075726368617365207374617465000000000000000000008152508482815181106128405761283f61455f565b5b60200260200101819052505b5b5b5b6006600582815481106128655761286461455f565b5b9060005260206000200160405161287c9190613c27565b908152602001604051809103902060020160009054906101000a900473ffffffffffffffffffffffffffffffffffffffff168382815181106128c1576128c061455f565b5b602002602001019073ffffffffffffffffffffffffffffffffffffffff16908173ffffffffffffffffffffffffffffffffffffffff16815250506006600582815481106129115761291061455f565b5b906000526020600020016040516129289190613c27565b908152602001604051809103902060010160009054906101000a900473ffffffffffffffffffffffffffffffffffffffff1682828151811061296d5761296c61455f565b5b602002602001019073ffffffffffffffffffffffffffffffffffffffff16908173ffffffffffffffffffffffffffffffffffffffff168152505080806129b290614489565b915050612449565b5060058484848484805480602002602001604051908101604052809291908181526020016000905b82821015612a8e578382906000526020600020018054612a0190614426565b80601f0160208091040260200160405190810160405280929190818152602001828054612a2d90614426565b8015612a7a5780601f10612a4f57610100808354040283529160200191612a7a565b820191906000526020600020905b815481529060010190602001808311612a5d57829003601f168201915b5050505050815260200190600101906129e2565b50505050945098509850985098509850505050509091929394565b60008054906101000a900473ffffffffffffffffffffffffffffffffffffffff16600073ffffffffffffffffffffffffffffffffffffffff168173ffffffffffffffffffffffffffffffffffffffff161415612b3a576040517f08c379a0000000000000000000000000000000000000000000000000000000008152600401612b3190613f99565b60405180910390fd5b3073ffffffffffffffffffffffffffffffffffffffff168173ffffffffffffffffffffffffffffffffffffffff161415612ba9576040517f08c379a0000000000000000000000000000000000000000000000000000000008152600401612ba090614059565b60405180910390fd5b82600781604051612bba9190613c10565b908152602001604051809103902060009054906101000a900460ff16612c15576040517f08c379a0000000000000000000000000000000000000000000000000000000008152600401612c0c90613ef9565b60405180910390fd5b600684604051612c259190613c10565b908152602001604051809103902060000154600154612c4491906142d9565b8314612c85576040517f08c379a0000000000000000000000000000000000000000000000000000000008152600401612c7c90614039565b60405180910390fd5b60006003811115612c9957612c98614501565b5b600685604051612ca99190613c10565b908152602001604051809103902060020160149054906101000a900460ff166003811115612cda57612cd9614501565b5b14612d1a576040517f08c379a0000000000000000000000000000000000000000000000000000000008152600401612d1190613e99565b60405180910390fd5b33600685604051612d2b9190613c10565b908152602001604051809103902060010160006101000a81548173ffffffffffffffffffffffffffffffffffffffff021916908373ffffffffffffffffffffffffffffffffffffffff1602179055506001600685604051612d8c9190613c10565b908152602001604051809103902060020160146101000a81548160ff02191690836003811115612dbf57612dbe614501565b5b021790555060025442612dd291906142d9565b600685604051612de29190613c10565b908152602001604051809103902060030181905550600460009054906101000a900473ffffffffffffffffffffffffffffffffffffffff1673ffffffffffffffffffffffffffffffffffffffff166323b872dd3330866040518463ffffffff1660e01b8152600401612e5693929190613c59565b602060405180830381600087803b158015612e7057600080fd5b505af1158015612e84573d6000803e3d6000fd5b505050506040513d601f19601f82011682018060405250810190612ea89190613490565b50600460009054906101000a900473ffffffffffffffffffffffffffffffffffffffff1673ffffffffffffffffffffffffffffffffffffffff1663a9059cbb60008054906101000a900473ffffffffffffffffffffffffffffffffffffffff166001546040518363ffffffff1660e01b8152600401612f28929190613c90565b602060405180830381600087803b158015612f4257600080fd5b505af1158015612f56573d6000803e3d6000fd5b505050506040513d601f19601f82011682018060405250810190612f7a9190613490565b507f6b4150c430f0b9b9df0f255d6761fd17eefed34257973ab988203c832edbcc2384600686604051612fad9190613c10565b908152602001604051809103902060000154604051612fcd929190613e09565b60405180910390a150505050565b60015481565b6006818051602081018201805184825260208301602085012081835280955050505050506000915090508060000154908060010160009054906101000a900473ffffffffffffffffffffffffffffffffffffffff16908060020160009054906101000a900473ffffffffffffffffffffffffffffffffffffffff16908060020160149054906101000a900460ff16908060030154905085565b6040518060a0016040528060008152602001600073ffffffffffffffffffffffffffffffffffffffff168152602001600073ffffffffffffffffffffffffffffffffffffffff168152602001600060038111156130da576130d9614501565b5b8152602001600081525090565b8280546130f390614426565b90600052602060002090601f016020900481019282613115576000855561315c565b82601f1061312e57805160ff191683800117855561315c565b8280016001018555821561315c579182015b8281111561315b578251825591602001919060010190613140565b5b509050613169919061316d565b5090565b5b8082111561318657600081600090555060010161316e565b5090565b600061319d61319884614158565b614133565b905080838252602082019050828560208602820111156131c0576131bf6145c2565b5b60005b8581101561320e57815167ffffffffffffffff8111156131e6576131e56145bd565b5b8086016131f389826133c0565b855260208501945060208401935050506001810190506131c3565b5050509392505050565b600061322b61322684614184565b614133565b9050808382526020820190508285602086028201111561324e5761324d6145c2565b5b60005b8581101561327e57816132648882613403565b845260208401935060208301925050600181019050613251565b5050509392505050565b600061329b613296846141b0565b614133565b9050828152602081018484840111156132b7576132b66145c7565b5b6132c28482856143e4565b509392505050565b60006132dd6132d8846141b0565b614133565b9050828152602081018484840111156132f9576132f86145c7565b5b6133048482856143f3565b509392505050565b60008151905061331b81614a7f565b92915050565b600082601f830112613336576133356145bd565b5b815161334684826020860161318a565b91505092915050565b600082601f830112613364576133636145bd565b5b8151613374848260208601613218565b91505092915050565b60008151905061338c81614a96565b92915050565b600082601f8301126133a7576133a66145bd565b5b81356133b7848260208601613288565b91505092915050565b600082601f8301126133d5576133d46145bd565b5b81516133e58482602086016132ca565b91505092915050565b6000813590506133fd81614aad565b92915050565b60008151905061341281614aad565b92915050565b6000806040838503121561342f5761342e6145d1565b5b600083015167ffffffffffffffff81111561344d5761344c6145cc565b5b61345985828601613321565b925050602083015167ffffffffffffffff81111561347a576134796145cc565b5b6134868582860161334f565b9150509250929050565b6000602082840312156134a6576134a56145d1565b5b60006134b48482850161337d565b91505092915050565b6000602082840312156134d3576134d26145d1565b5b600082013567ffffffffffffffff8111156134f1576134f06145cc565b5b6134fd84828501613392565b91505092915050565b6000806040838503121561351d5761351c6145d1565b5b600083013567ffffffffffffffff81111561353b5761353a6145cc565b5b61354785828601613392565b9250506020613558858286016133ee565b9150509250929050565b600060208284031215613578576135776145d1565b5b6000613586848285016133ee565b91505092915050565b6000602082840312156135a5576135a46145d1565b5b60006135b384828501613403565b91505092915050565b600080600080600060a086880312156135d8576135d76145d1565b5b60006135e688828901613403565b955050602086015167ffffffffffffffff811115613607576136066145cc565b5b613613888289016133c0565b945050604086015167ffffffffffffffff811115613634576136336145cc565b5b613640888289016133c0565b935050606086015167ffffffffffffffff811115613661576136606145cc565b5b61366d888289016133c0565b925050608061367e8882890161330c565b9150509295509295909350565b600061369783836136cf565b60208301905092915050565b60006136af838361385a565b905092915050565b60006136c38383613bf2565b60208301905092915050565b6136d88161432f565b82525050565b6136e78161432f565b82525050565b60006136f882614226565b6137028185614279565b935061370d836141e1565b8060005b8381101561373e578151613725888261368b565b975061373083614252565b925050600181019050613711565b5085935050505092915050565b600061375682614231565b613760818561428a565b935083602082028501613772856141f1565b8060005b858110156137ae578484038952815161378f85826136a3565b945061379a8361425f565b925060208a01995050600181019050613776565b50829750879550505050505092915050565b60006137cb8261423c565b6137d5818561429b565b93506137e083614201565b8060005b838110156138115781516137f888826136b7565b97506138038361426c565b9250506001810190506137e4565b5085935050505092915050565b61382781614341565b82525050565b6138368161438a565b82525050565b6138458161439c565b82525050565b613854816143ae565b82525050565b600061386582614247565b61386f81856142ac565b935061387f8185602086016143f3565b613888816145d6565b840191505092915050565b600061389e82614247565b6138a881856142bd565b93506138b88185602086016143f3565b6138c1816145d6565b840191505092915050565b60006138d782614247565b6138e181856142ce565b93506138f18185602086016143f3565b80840191505092915050565b6000815461390a81614426565b61391481866142ce565b9450600182166000811461392f576001811461394057613973565b60ff19831686528186019350613973565b61394985614211565b60005b8381101561396b5781548189015260018201915060208101905061394c565b838801955050505b50505092915050565b6000613989601f836142bd565b9150613994826145e7565b602082019050919050565b60006139ac601e836142bd565b91506139b782614610565b602082019050919050565b60006139cf603c836142bd565b91506139da82614639565b604082019050919050565b60006139f26016836142bd565b91506139fd82614688565b602082019050919050565b6000613a156022836142bd565b9150613a20826146b1565b604082019050919050565b6000613a38601d836142bd565b9150613a4382614700565b602082019050919050565b6000613a5b6017836142bd565b9150613a6682614729565b602082019050919050565b6000613a7e6040836142bd565b9150613a8982614752565b604082019050919050565b6000613aa16025836142bd565b9150613aac826147a1565b604082019050919050565b6000613ac4601a836142bd565b9150613acf826147f0565b602082019050919050565b6000613ae76028836142bd565b9150613af282614819565b604082019050919050565b6000613b0a6026836142bd565b9150613b1582614868565b604082019050919050565b6000613b2d601c836142bd565b9150613b38826148b7565b602082019050919050565b6000613b506028836142bd565b9150613b5b826148e0565b604082019050919050565b6000613b736016836142bd565b9150613b7e8261492f565b602082019050919050565b6000613b96602f836142bd565b9150613ba182614958565b604082019050919050565b6000613bb9604a836142bd565b9150613bc4826149a7565b606082019050919050565b6000613bdc6025836142bd565b9150613be782614a1c565b604082019050919050565b613bfb81614380565b82525050565b613c0a81614380565b82525050565b6000613c1c82846138cc565b915081905092915050565b6000613c3382846138fd565b915081905092915050565b6000602082019050613c5360008301846136de565b92915050565b6000606082019050613c6e60008301866136de565b613c7b60208301856136de565b613c886040830184613c01565b949350505050565b6000604082019050613ca560008301856136de565b613cb26020830184613c01565b9392505050565b60006040820190508181036000830152613cd3818561374b565b90508181036020830152613ce781846137c0565b90509392505050565b600060a0820190508181036000830152613d0a818861374b565b90508181036020830152613d1e81876137c0565b90508181036040830152613d32818661374b565b90508181036060830152613d4681856136ed565b90508181036080830152613d5a81846136ed565b90509695505050505050565b6000602082019050613d7b600083018461381e565b92915050565b6000602082019050613d96600083018461382d565b92915050565b6000602082019050613db1600083018461383c565b92915050565b60006020820190508181036000830152613dd18184613893565b905092915050565b60006040820190508181036000830152613df38185613893565b9050613e0260208301846136de565b9392505050565b60006040820190508181036000830152613e238185613893565b9050613e326020830184613c01565b9392505050565b60006020820190508181036000830152613e528161397c565b9050919050565b60006020820190508181036000830152613e728161399f565b9050919050565b60006020820190508181036000830152613e92816139c2565b9050919050565b60006020820190508181036000830152613eb2816139e5565b9050919050565b60006020820190508181036000830152613ed281613a08565b9050919050565b60006020820190508181036000830152613ef281613a2b565b9050919050565b60006020820190508181036000830152613f1281613a4e565b9050919050565b60006020820190508181036000830152613f3281613a71565b9050919050565b60006020820190508181036000830152613f5281613a94565b9050919050565b60006020820190508181036000830152613f7281613ab7565b9050919050565b60006020820190508181036000830152613f9281613ada565b9050919050565b60006020820190508181036000830152613fb281613afd565b9050919050565b60006020820190508181036000830152613fd281613b20565b9050919050565b60006020820190508181036000830152613ff281613b43565b9050919050565b6000602082019050818103600083015261401281613b66565b9050919050565b6000602082019050818103600083015261403281613b89565b9050919050565b6000602082019050818103600083015261405281613bac565b9050919050565b6000602082019050818103600083015261407281613bcf565b9050919050565b600060208201905061408e6000830184613c01565b92915050565b600060a0820190506140a96000830188613c01565b6140b660208301876136de565b6140c360408301866136de565b6140d0606083018561384b565b6140dd6080830184613c01565b9695505050505050565b60006080820190506140fc6000830187613c01565b818103602083015261410e8186613893565b905061411d60408301856136de565b61412a60608301846136de565b95945050505050565b600061413d61414e565b90506141498282614458565b919050565b6000604051905090565b600067ffffffffffffffff8211156141735761417261458e565b5b602082029050602081019050919050565b600067ffffffffffffffff82111561419f5761419e61458e565b5b602082029050602081019050919050565b600067ffffffffffffffff8211156141cb576141ca61458e565b5b6141d4826145d6565b9050602081019050919050565b6000819050602082019050919050565b6000819050602082019050919050565b6000819050602082019050919050565b60008190508160005260206000209050919050565b600081519050919050565b600081519050919050565b600081519050919050565b600081519050919050565b6000602082019050919050565b6000602082019050919050565b6000602082019050919050565b600082825260208201905092915050565b600082825260208201905092915050565b600082825260208201905092915050565b600082825260208201905092915050565b600082825260208201905092915050565b600081905092915050565b60006142e482614380565b91506142ef83614380565b9250827fffffffffffffffffffffffffffffffffffffffffffffffffffffffffffffffff03821115614324576143236144d2565b5b828201905092915050565b600061433a82614360565b9050919050565b60008115159050919050565b600081905061435b82614a6b565b919050565b600073ffffffffffffffffffffffffffffffffffffffff82169050919050565b6000819050919050565b6000614395826143c0565b9050919050565b60006143a7826143c0565b9050919050565b60006143b98261434d565b9050919050565b60006143cb826143d2565b9050919050565b60006143dd82614360565b9050919050565b82818337600083830152505050565b60005b838110156144115780820151818401526020810190506143f6565b83811115614420576000848401525b50505050565b6000600282049050600182168061443e57607f821691505b6020821081141561445257614451614530565b5b50919050565b614461826145d6565b810181811067ffffffffffffffff821117156144805761447f61458e565b5b80604052505050565b600061449482614380565b91507fffffffffffffffffffffffffffffffffffffffffffffffffffffffffffffffff8214156144c7576144c66144d2565b5b600182019050919050565b7f4e487b7100000000000000000000000000000000000000000000000000000000600052601160045260246000fd5b7f4e487b7100000000000000000000000000000000000000000000000000000000600052602160045260246000fd5b7f4e487b7100000000000000000000000000000000000000000000000000000000600052602260045260246000fd5b7f4e487b7100000000000000000000000000000000000000000000000000000000600052603260045260246000fd5b7f4e487b7100000000000000000000000000000000000000000000000000000000600052604160045260246000fd5b600080fd5b600080fd5b600080fd5b600080fd5b600080fd5b6000601f19601f8301169050919050565b7f4e6f7420656e6f7567682062746b7320696e2074686520726573657276652e00600082015250565b7f50726f6475637420707269636520657863656564732062616c616e63652e0000600082015250565b7f4167656e742063616e206f6e6c792069737375652074686520726566756e642060008201527f616674657220746865207370656369666965642074696d656f75742e00000000602082015250565b7f50726f64756374206973206e6f74206c69737465642100000000000000000000600082015250565b7f4e6f206465706f73697420666f756e6420666f7220746869732070726f64756360008201527f742e000000000000000000000000000000000000000000000000000000000000602082015250565b7f596f75206e65656420746f2073656e6420736f6d65206574686572732e000000600082015250565b7f50726f6475637420646f6573206e6f742065786973742e000000000000000000600082015250565b7f4167656e742063616e206f6e6c7920617070726f766520746865207061796d6560008201527f6e74206265666f726520746865207370656369666965642074696d656f75742e602082015250565b7f596f75206e65656420746f2073656c6c206174206c6561737420736f6d65207460008201527f6f6b656e73000000000000000000000000000000000000000000000000000000602082015250565b7f50726f6475637420697320616c7265616479206c69737465642e000000000000600082015250565b7f4f6e6c79206167656e742063616e2063616c6c2074686520726566756e64206660008201527f756e6374696f6e2e000000000000000000000000000000000000000000000000602082015250565b7f526563697069656e742073686f756c64206861766520612076616c696420616460008201527f6472657373210000000000000000000000000000000000000000000000000000602082015250565b7f50726f6475637420746f6b656e206973206e6f74206d696e7465642e00000000600082015250565b7f4f6e6c79206167656e742063616e2063616c6c207468652072656465656d206660008201527f756e6374696f6e2e000000000000000000000000000000000000000000000000602082015250565b7f50726f64756374206973206e6f74206c69737465642e00000000000000000000600082015250565b7f4f6e6c79206f776e6572206f66206120746f6b656e2063616e206c697374206960008201527f7420617320612070726f647563742e0000000000000000000000000000000000602082015250565b7f506c65617365206d616b65207375726520796f7572206465706f73697420636f60008201527f7665727320626f7468207468652070726f6475637420707269636520616e642060208201527f6167656e74206665652100000000000000000000000000000000000000000000604082015250565b7f526563697069656e742073686f756c64206e6f742062652074686520636f6e7460008201527f7261637421000000000000000000000000000000000000000000000000000000602082015250565b60048110614a7c57614a7b614501565b5b50565b614a888161432f565b8114614a9357600080fd5b50565b614a9f81614341565b8114614aaa57600080fd5b50565b614ab681614380565b8114614ac157600080fd5b5056fea2646970667358221220ebf198a771f3f6698df2ff0b1aed6eff5f8b23542a4f00e298a7a1a629c8f59764736f6c6343000807003360806040523480156200001157600080fd5b5060405162002665380380620026658339818101604052810190620000379190620003b3565b82828160039080519060200190620000519291906200026e565b5080600490805190602001906200006a9291906200026e565b50505033600560006101000a81548173ffffffffffffffffffffffffffffffffffffffff021916908373ffffffffffffffffffffffffffffffffffffffff160217905550620000e2600560009054906101000a900473ffffffffffffffffffffffffffffffffffffffff1682620000eb60201b60201c565b50505062000732565b600073ffffffffffffffffffffffffffffffffffffffff168273ffffffffffffffffffffffffffffffffffffffff1614156200015e576040517f08c379a0000000000000000000000000000000000000000000000000000000008152600401620001559062000485565b60405180910390fd5b62000172600083836200026460201b60201c565b806002600082825462000186919062000534565b92505081905550806000808473ffffffffffffffffffffffffffffffffffffffff1673ffffffffffffffffffffffffffffffffffffffff1681526020019081526020016000206000828254620001dd919062000534565b925050819055508173ffffffffffffffffffffffffffffffffffffffff16600073ffffffffffffffffffffffffffffffffffffffff167fddf252ad1be2c89b69c2b068fc378daa952ba7f163c4a11628f55a4df523b3ef83604051620002449190620004a7565b60405180910390a362000260600083836200026960201b60201c565b5050565b505050565b505050565b8280546200027c90620005d1565b90600052602060002090601f016020900481019282620002a05760008555620002ec565b82601f10620002bb57805160ff1916838001178555620002ec565b82800160010185558215620002ec579182015b82811115620002eb578251825591602001919060010190620002ce565b5b509050620002fb9190620002ff565b5090565b5b808211156200031a57600081600090555060010162000300565b5090565b6000620003356200032f84620004ed565b620004c4565b905082815260208101848484011115620003545762000353620006cf565b5b620003618482856200059b565b509392505050565b600082601f830112620003815762000380620006ca565b5b8151620003938482602086016200031e565b91505092915050565b600081519050620003ad8162000718565b92915050565b600080600060608486031215620003cf57620003ce620006d9565b5b600084015167ffffffffffffffff811115620003f057620003ef620006d4565b5b620003fe8682870162000369565b935050602084015167ffffffffffffffff811115620004225762000421620006d4565b5b620004308682870162000369565b925050604062000443868287016200039c565b9150509250925092565b60006200045c601f8362000523565b91506200046982620006ef565b602082019050919050565b6200047f8162000591565b82525050565b60006020820190508181036000830152620004a0816200044d565b9050919050565b6000602082019050620004be600083018462000474565b92915050565b6000620004d0620004e3565b9050620004de828262000607565b919050565b6000604051905090565b600067ffffffffffffffff8211156200050b576200050a6200069b565b5b6200051682620006de565b9050602081019050919050565b600082825260208201905092915050565b6000620005418262000591565b91506200054e8362000591565b9250827fffffffffffffffffffffffffffffffffffffffffffffffffffffffffffffffff038211156200058657620005856200063d565b5b828201905092915050565b6000819050919050565b60005b83811015620005bb5780820151818401526020810190506200059e565b83811115620005cb576000848401525b50505050565b60006002820490506001821680620005ea57607f821691505b602082108114156200060157620006006200066c565b5b50919050565b6200061282620006de565b810181811067ffffffffffffffff821117156200063457620006336200069b565b5b80604052505050565b7f4e487b7100000000000000000000000000000000000000000000000000000000600052601160045260246000fd5b7f4e487b7100000000000000000000000000000000000000000000000000000000600052602260045260246000fd5b7f4e487b7100000000000000000000000000000000000000000000000000000000600052604160045260246000fd5b600080fd5b600080fd5b600080fd5b600080fd5b6000601f19601f8301169050919050565b7f45524332303a206d696e7420746f20746865207a65726f206164647265737300600082015250565b620007238162000591565b81146200072f57600080fd5b50565b611f2380620007426000396000f3fe608060405234801561001057600080fd5b50600436106101165760003560e01c80634ebd3aea116100a2578063a457c2d711610071578063a457c2d71461030c578063a9059cbb1461033c578063dd62ed3e1461036c578063f851a4401461039c578063fddc968e146103ba57610116565b80634ebd3aea1461025e578063689e1c031461028e57806370a08231146102be57806395d89b41146102ee57610116565b806316c54a0d116100e957806316c54a0d146101a357806318160ddd146101c257806323b872dd146101e0578063313ce56714610210578063395093511461022e57610116565b806306fdde031461011b57806307973ccf14610139578063095ea7b3146101575780630e54b87214610187575b600080fd5b6101236103ea565b60405161013091906117ac565b60405180910390f35b61014161047c565b60405161014e91906118ce565b60405180910390f35b610171600480360381019061016c919061127b565b610482565b60405161017e9190611791565b60405180910390f35b6101a1600480360381019061019c9190611304565b6104a5565b005b6101ab6105fa565b6040516101b992919061175a565b60405180910390f35b6101ca6107cf565b6040516101d791906118ce565b60405180910390f35b6101fa60048036038101906101f59190611228565b6107d9565b6040516102079190611791565b60405180910390f35b610218610808565b60405161022591906118e9565b60405180910390f35b6102486004803603810190610243919061127b565b610811565b6040516102559190611791565b60405180910390f35b61027860048036038101906102739190611360565b610848565b60405161028591906117ac565b60405180910390f35b6102a860048036038101906102a391906112bb565b6108f4565b6040516102b5919061173f565b60405180910390f35b6102d860048036038101906102d391906111bb565b61093d565b6040516102e591906118ce565b60405180910390f35b6102f6610985565b60405161030391906117ac565b60405180910390f35b6103266004803603810190610321919061127b565b610a17565b6040516103339190611791565b60405180910390f35b6103566004803603810190610351919061127b565b610a8e565b6040516103639190611791565b60405180910390f35b610386600480360381019061038191906111e8565b610ab1565b60405161039391906118ce565b60405180910390f35b6103a4610b38565b6040516103b1919061173f565b60405180910390f35b6103d460048036038101906103cf91906112bb565b610b5e565b6040516103e19190611791565b60405180910390f35b6060600380546103f990611b06565b80601f016020809104026020016040519081016040528092919081815260200182805461042590611b06565b80156104725780601f1061044757610100808354040283529160200191610472565b820191906000526020600020905b81548152906001019060200180831161045557829003601f168201915b5050505050905090565b60095481565b60008061048d610b94565b905061049a818585610b9c565b600191505092915050565b6007826040516104b59190611711565b908152602001604051809103902060009054906101000a900460ff1615610511576040517f08c379a00000000000000000000000000000000000000000000000000000000081526004016105089061184e565b60405180910390fd5b806006836040516105229190611711565b908152602001604051809103902060006101000a81548173ffffffffffffffffffffffffffffffffffffffff021916908373ffffffffffffffffffffffffffffffffffffffff1602179055506008829080600181540180825580915050600190039060005260206000200160009091909190915090805190602001906105a992919061107e565b5060016007836040516105bc9190611711565b908152602001604051809103902060006101000a81548160ff02191690831515021790555060016009546105f09190611a19565b6009819055505050565b606080600060095467ffffffffffffffff81111561061b5761061a611c3f565b5b6040519080825280602002602001820160405280156106495781602001602082028036833780820191505090505b50905060005b6009548110156106ef576106bd60066008838154811061067257610671611c10565b5b906000526020600020016040516106899190611728565b908152602001604051809103902060009054906101000a900473ffffffffffffffffffffffffffffffffffffffff1661093d565b8282815181106106d0576106cf611c10565b5b60200260200101818152505080806106e790611b69565b91505061064f565b5060088181805480602002602001604051908101604052809291908181526020016000905b828210156107c057838290600052602060002001805461073390611b06565b80601f016020809104026020016040519081016040528092919081815260200182805461075f90611b06565b80156107ac5780601f10610781576101008083540402835291602001916107ac565b820191906000526020600020905b81548152906001019060200180831161078f57829003601f168201915b505050505081526020019060010190610714565b50505050915092509250509091565b6000600254905090565b6000806107e4610b94565b90506107f1858285610d67565b6107fc858585610df3565b60019150509392505050565b60006012905090565b60008061081c610b94565b905061083d81858561082e8589610ab1565b6108389190611a19565b610b9c565b600191505092915050565b6008818154811061085857600080fd5b90600052602060002001600091509050805461087390611b06565b80601f016020809104026020016040519081016040528092919081815260200182805461089f90611b06565b80156108ec5780601f106108c1576101008083540402835291602001916108ec565b820191906000526020600020905b8154815290600101906020018083116108cf57829003601f168201915b505050505081565b6006818051602081018201805184825260208301602085012081835280955050505050506000915054906101000a900473ffffffffffffffffffffffffffffffffffffffff1681565b60008060008373ffffffffffffffffffffffffffffffffffffffff1673ffffffffffffffffffffffffffffffffffffffff168152602001908152602001600020549050919050565b60606004805461099490611b06565b80601f01602080910402602001604051908101604052809291908181526020018280546109c090611b06565b8015610a0d5780601f106109e257610100808354040283529160200191610a0d565b820191906000526020600020905b8154815290600101906020018083116109f057829003601f168201915b5050505050905090565b600080610a22610b94565b90506000610a308286610ab1565b905083811015610a75576040517f08c379a0000000000000000000000000000000000000000000000000000000008152600401610a6c906118ae565b60405180910390fd5b610a828286868403610b9c565b60019250505092915050565b600080610a99610b94565b9050610aa6818585610df3565b600191505092915050565b6000600160008473ffffffffffffffffffffffffffffffffffffffff1673ffffffffffffffffffffffffffffffffffffffff16815260200190815260200160002060008373ffffffffffffffffffffffffffffffffffffffff1673ffffffffffffffffffffffffffffffffffffffff16815260200190815260200160002054905092915050565b600560009054906101000a900473ffffffffffffffffffffffffffffffffffffffff1681565b6007818051602081018201805184825260208301602085012081835280955050505050506000915054906101000a900460ff1681565b600033905090565b600073ffffffffffffffffffffffffffffffffffffffff168373ffffffffffffffffffffffffffffffffffffffff161415610c0c576040517f08c379a0000000000000000000000000000000000000000000000000000000008152600401610c039061188e565b60405180910390fd5b600073ffffffffffffffffffffffffffffffffffffffff168273ffffffffffffffffffffffffffffffffffffffff161415610c7c576040517f08c379a0000000000000000000000000000000000000000000000000000000008152600401610c73906117ee565b60405180910390fd5b80600160008573ffffffffffffffffffffffffffffffffffffffff1673ffffffffffffffffffffffffffffffffffffffff16815260200190815260200160002060008473ffffffffffffffffffffffffffffffffffffffff1673ffffffffffffffffffffffffffffffffffffffff168152602001908152602001600020819055508173ffffffffffffffffffffffffffffffffffffffff168373ffffffffffffffffffffffffffffffffffffffff167f8c5be1e5ebec7d5bd14f71427d1e84f3dd0314c0f7b2291e5b200ac8c7c3b92583604051610d5a91906118ce565b60405180910390a3505050565b6000610d738484610ab1565b90507fffffffffffffffffffffffffffffffffffffffffffffffffffffffffffffffff8114610ded5781811015610ddf576040517f08c379a0000000000000000000000000000000000000000000000000000000008152600401610dd69061180e565b60405180910390fd5b610dec8484848403610b9c565b5b50505050565b600073ffffffffffffffffffffffffffffffffffffffff168373ffffffffffffffffffffffffffffffffffffffff161415610e63576040517f08c379a0000000000000000000000000000000000000000000000000000000008152600401610e5a9061186e565b60405180910390fd5b600073ffffffffffffffffffffffffffffffffffffffff168273ffffffffffffffffffffffffffffffffffffffff161415610ed3576040517f08c379a0000000000000000000000000000000000000000000000000000000008152600401610eca906117ce565b60405180910390fd5b610ede838383611074565b60008060008573ffffffffffffffffffffffffffffffffffffffff1673ffffffffffffffffffffffffffffffffffffffff16815260200190815260200160002054905081811015610f64576040517f08c379a0000000000000000000000000000000000000000000000000000000008152600401610f5b9061182e565b60405180910390fd5b8181036000808673ffffffffffffffffffffffffffffffffffffffff1673ffffffffffffffffffffffffffffffffffffffff16815260200190815260200160002081905550816000808573ffffffffffffffffffffffffffffffffffffffff1673ffffffffffffffffffffffffffffffffffffffff1681526020019081526020016000206000828254610ff79190611a19565b925050819055508273ffffffffffffffffffffffffffffffffffffffff168473ffffffffffffffffffffffffffffffffffffffff167fddf252ad1be2c89b69c2b068fc378daa952ba7f163c4a11628f55a4df523b3ef8460405161105b91906118ce565b60405180910390a361106e848484611079565b50505050565b505050565b505050565b82805461108a90611b06565b90600052602060002090601f0160209004810192826110ac57600085556110f3565b82601f106110c557805160ff19168380011785556110f3565b828001600101855582156110f3579182015b828111156110f25782518255916020019190600101906110d7565b5b5090506111009190611104565b5090565b5b8082111561111d576000816000905550600101611105565b5090565b600061113461112f84611929565b611904565b9050828152602081018484840111156111505761114f611c73565b5b61115b848285611ac4565b509392505050565b60008135905061117281611ebf565b92915050565b600082601f83011261118d5761118c611c6e565b5b813561119d848260208601611121565b91505092915050565b6000813590506111b581611ed6565b92915050565b6000602082840312156111d1576111d0611c7d565b5b60006111df84828501611163565b91505092915050565b600080604083850312156111ff576111fe611c7d565b5b600061120d85828601611163565b925050602061121e85828601611163565b9150509250929050565b60008060006060848603121561124157611240611c7d565b5b600061124f86828701611163565b935050602061126086828701611163565b9250506040611271868287016111a6565b9150509250925092565b6000806040838503121561129257611291611c7d565b5b60006112a085828601611163565b92505060206112b1858286016111a6565b9150509250929050565b6000602082840312156112d1576112d0611c7d565b5b600082013567ffffffffffffffff8111156112ef576112ee611c78565b5b6112fb84828501611178565b91505092915050565b6000806040838503121561131b5761131a611c7d565b5b600083013567ffffffffffffffff81111561133957611338611c78565b5b61134585828601611178565b925050602061135685828601611163565b9150509250929050565b60006020828403121561137657611375611c7d565b5b6000611384848285016111a6565b91505092915050565b600061139983836114aa565b905092915050565b60006113ad83836116e4565b60208301905092915050565b6113c281611a6f565b82525050565b60006113d38261198f565b6113dd81856119ca565b9350836020820285016113ef8561195a565b8060005b8581101561142b578484038952815161140c858261138d565b9450611417836119b0565b925060208a019950506001810190506113f3565b50829750879550505050505092915050565b60006114488261199a565b61145281856119db565b935061145d8361196a565b8060005b8381101561148e57815161147588826113a1565b9750611480836119bd565b925050600181019050611461565b5085935050505092915050565b6114a481611a81565b82525050565b60006114b5826119a5565b6114bf81856119ec565b93506114cf818560208601611ad3565b6114d881611c82565b840191505092915050565b60006114ee826119a5565b6114f881856119fd565b9350611508818560208601611ad3565b61151181611c82565b840191505092915050565b6000611527826119a5565b6115318185611a0e565b9350611541818560208601611ad3565b80840191505092915050565b6000815461155a81611b06565b6115648186611a0e565b9450600182166000811461157f5760018114611590576115c3565b60ff198316865281860193506115c3565b6115998561197a565b60005b838110156115bb5781548189015260018201915060208101905061159c565b838801955050505b50505092915050565b60006115d96023836119fd565b91506115e482611c93565b604082019050919050565b60006115fc6022836119fd565b915061160782611ce2565b604082019050919050565b600061161f601d836119fd565b915061162a82611d31565b602082019050919050565b60006116426026836119fd565b915061164d82611d5a565b604082019050919050565b60006116656014836119fd565b915061167082611da9565b602082019050919050565b60006116886025836119fd565b915061169382611dd2565b604082019050919050565b60006116ab6024836119fd565b91506116b682611e21565b604082019050919050565b60006116ce6025836119fd565b91506116d982611e70565b604082019050919050565b6116ed81611aad565b82525050565b6116fc81611aad565b82525050565b61170b81611ab7565b82525050565b600061171d828461151c565b915081905092915050565b6000611734828461154d565b915081905092915050565b600060208201905061175460008301846113b9565b92915050565b6000604082019050818103600083015261177481856113c8565b90508181036020830152611788818461143d565b90509392505050565b60006020820190506117a6600083018461149b565b92915050565b600060208201905081810360008301526117c681846114e3565b905092915050565b600060208201905081810360008301526117e7816115cc565b9050919050565b60006020820190508181036000830152611807816115ef565b9050919050565b6000602082019050818103600083015261182781611612565b9050919050565b6000602082019050818103600083015261184781611635565b9050919050565b6000602082019050818103600083015261186781611658565b9050919050565b600060208201905081810360008301526118878161167b565b9050919050565b600060208201905081810360008301526118a78161169e565b9050919050565b600060208201905081810360008301526118c7816116c1565b9050919050565b60006020820190506118e360008301846116f3565b92915050565b60006020820190506118fe6000830184611702565b92915050565b600061190e61191f565b905061191a8282611b38565b919050565b6000604051905090565b600067ffffffffffffffff82111561194457611943611c3f565b5b61194d82611c82565b9050602081019050919050565b6000819050602082019050919050565b6000819050602082019050919050565b60008190508160005260206000209050919050565b600081519050919050565b600081519050919050565b600081519050919050565b6000602082019050919050565b6000602082019050919050565b600082825260208201905092915050565b600082825260208201905092915050565b600082825260208201905092915050565b600082825260208201905092915050565b600081905092915050565b6000611a2482611aad565b9150611a2f83611aad565b9250827fffffffffffffffffffffffffffffffffffffffffffffffffffffffffffffffff03821115611a6457611a63611bb2565b5b828201905092915050565b6000611a7a82611a8d565b9050919050565b60008115159050919050565b600073ffffffffffffffffffffffffffffffffffffffff82169050919050565b6000819050919050565b600060ff82169050919050565b82818337600083830152505050565b60005b83811015611af1578082015181840152602081019050611ad6565b83811115611b00576000848401525b50505050565b60006002820490506001821680611b1e57607f821691505b60208210811415611b3257611b31611be1565b5b50919050565b611b4182611c82565b810181811067ffffffffffffffff82111715611b6057611b5f611c3f565b5b80604052505050565b6000611b7482611aad565b91507fffffffffffffffffffffffffffffffffffffffffffffffffffffffffffffffff821415611ba757611ba6611bb2565b5b600182019050919050565b7f4e487b7100000000000000000000000000000000000000000000000000000000600052601160045260246000fd5b7f4e487b7100000000000000000000000000000000000000000000000000000000600052602260045260246000fd5b7f4e487b7100000000000000000000000000000000000000000000000000000000600052603260045260246000fd5b7f4e487b7100000000000000000000000000000000000000000000000000000000600052604160045260246000fd5b600080fd5b600080fd5b600080fd5b600080fd5b6000601f19601f8301169050919050565b7f45524332303a207472616e7366657220746f20746865207a65726f206164647260008201527f6573730000000000000000000000000000000000000000000000000000000000602082015250565b7f45524332303a20617070726f766520746f20746865207a65726f20616464726560008201527f7373000000000000000000000000000000000000000000000000000000000000602082015250565b7f45524332303a20696e73756666696369656e7420616c6c6f77616e6365000000600082015250565b7f45524332303a207472616e7366657220616d6f756e742065786365656473206260008201527f616c616e63650000000000000000000000000000000000000000000000000000602082015250565b7f5573657220616c7265616479206578697374732e000000000000000000000000600082015250565b7f45524332303a207472616e736665722066726f6d20746865207a65726f20616460008201527f6472657373000000000000000000000000000000000000000000000000000000602082015250565b7f45524332303a20617070726f76652066726f6d20746865207a65726f2061646460008201527f7265737300000000000000000000000000000000000000000000000000000000602082015250565b7f45524332303a2064656372656173656420616c6c6f77616e63652062656c6f7760008201527f207a65726f000000000000000000000000000000000000000000000000000000602082015250565b611ec881611a6f565b8114611ed357600080fd5b50565b611edf81611aad565b8114611eea57600080fd5b5056fea2646970667358221220e423a67d5225c77d86ff0ab27ba400e7be89644605d2638e4dc05a6e342b8fe164736f6c63430008070033",
  "immutableReferences": {},
  "source": "// SPDX-License-Identifier: MIT\npragma solidity ^0.8.0;\n\nimport \"../node_modules/@openzeppelin/contracts/utils/math/SafeMath.sol\";\nimport \"./DigitalTwin.sol\";\nimport \"./BToken.sol\";\n\n/**\n * @title MarketPlace Contract, forked from https://github.com/AleRapchan/escrow-service\n * @author Yining Hu\n * @dev Todo: to implement multi-sig, time-based escrow\n */\ncontract MarketPlace {\n\n    address agent;\n    uint256 public fee_btk;\n    uint256 timeout;\n\n    using SafeMath for uint256;\n\n    DigitalTwin public digitaltwin;\n    BToken public btk;\n    \n    enum PurchaseState { LISTED, DEPOSITTAKEN, PURCHASED, REFUNDED }\n\n    struct Product{\n        uint256 price;\n        address buyer;\n        address seller;\n        PurchaseState state;\n        uint256 timeout; // timeout for payment settlement\n    }\n\n    string[] allproducts;\n    mapping (string => Product) public stock; // whole stock of listed items\n    mapping(string => bool) public productExists;\n\n    event DepositTaken(string tkname, uint256 price);\n    event PurchaseSuccessful(string tkname, uint256 price);\n\n    /**\n     * @dev before setting up any user wallet, all buyers/sellers use a single buyer/seller address, which are maintained by Beston.\n     */\n    constructor(DigitalTwin _digitaltwin) {\n        digitaltwin = _digitaltwin;\n        btk = new BToken(\"BT\", \"BT\", 1000000);\n        agent = msg.sender;\n        fee_btk = 1;\n        timeout = 5 minutes;\n    }\n\n    modifier validDestination(address to) {\n        require(to != address(0x0), \"Recipient should have a valid address!\");\n        require(to != address(this), \"Recipient should not be the contract!\");\n        _;\n    }\n\n    modifier validProduct(string memory _tkname) {\n        require(productExists[_tkname], \"Product does not exist.\");\n        _;\n    }\n\n    function list(string memory _tkname , uint256 _price) public {\n        require(!productExists[_tkname], \"Product is already listed.\");\n        require(digitaltwin.tkExists(_tkname), \"Product token is not minted.\");\n\n        // should also require the caller to be the owner of the product\n        (uint256 id, string memory metadata, string memory rstatus, string memory vstatus, address addr) = digitaltwin.queryToken(_tkname);\n        require(msg.sender == addr, \"Only owner of a token can list it as a product.\");\n\n        Product memory product;\n        product.price = _price; /// @dev double check the conversion in Polygon\n        product.state = PurchaseState.LISTED;\n        product.seller = msg.sender;\n        stock[_tkname] = product;\n        productExists[_tkname] = true;\n        allproducts.push(_tkname);\n\n        // transfer the token ownership to the agent\n        // todo: enable transfer the token ownership to the contract address\n        digitaltwin.transferByName(_tkname,address(this));\n    }\n\n    /**\n     * BTK functions\n     * buyBTK allows a caller to buy BTK from MarketPlace\n     * sellBTK allows a caller to sell BTK to MarketPlace\n     */\n    function resiterBTKAcc(string memory _name) public {\n        btk.registerUser(_name, tx.origin);\n    }\n\n    function buyBTK() payable public {\n        uint256 amountTobuy = msg.value;\n        uint256 dexBalance = btk.balanceOf(address(this));\n        require(amountTobuy > 0, \"You need to send some ethers.\");\n        require(amountTobuy <= dexBalance, \"Not enough btks in the reserve.\");\n        btk.transfer(tx.origin, amountTobuy);\n    }\n\n    function sellBTK(uint256 amount) public {\n        require(amount > 0, \"You need to sell at least some tokens\");\n        btk.transferFrom(tx.origin, address(this), amount); // msg.sender is the caller, address(this) is MarketPlace\n        payable(tx.origin).transfer(amount);\n    }\n\n    function queryBTKBalances() public view returns\n    (\n        string[] memory,\n        uint256[] memory\n    )\n    {\n        (string[] memory users, uint256[] memory balances) = btk.queryAllBalances();\n        return (users,balances);\n    }\n\n    /**\n     * @notice Buyer directly purchases a listed product\n     */\n    function directPurchase(string memory _tkname) external {\n        require(stock[_tkname].state == PurchaseState.LISTED, \"Product is not listed.\");\n        require(btk.balanceOf(msg.sender) >= stock[_tkname].price, \"Product price exceeds balance.\"); // require buyer balance to be higher than the price\n\n        stock[_tkname].buyer = msg.sender;\n        stock[_tkname].state = PurchaseState.PURCHASED;\n\n        // transfer btk from buyer to seller\n        btk.transferFrom(msg.sender, stock[_tkname].seller, stock[_tkname].price);\n\n        // transfer token(product) from seller to buyer\n        (uint256 id, string memory metadata, string memory rstatus, string memory vstatus, address owner) = digitaltwin.queryToken(_tkname);\n        digitaltwin.transferFrom(address(this), stock[_tkname].buyer, id); // provided that agent approves MarketPlace to transfer beforehand\n\n        emit PurchaseSuccessful(_tkname, stock[_tkname].price);\n    }\n\n    function BuyerDepositWithBTK(string memory _tkname, uint256 _deposit) external validDestination(agent) validProduct(_tkname) {\n        require(_deposit == fee_btk + stock[_tkname].price, \"Please make sure your deposit covers both the product price and agent fee!\");\n        require(stock[_tkname].state == PurchaseState.LISTED , \"Product is not listed!\"); // this also blocks buyer from making duplicatd deposit\n\n        stock[_tkname].buyer = msg.sender;\n        stock[_tkname].state = PurchaseState.DEPOSITTAKEN;\n        stock[_tkname].timeout = block.timestamp + timeout; // add a timeout for settlement when buyer sends deposit\n\n        btk.transferFrom(msg.sender, address(this), _deposit); // buyer transfers the deposit to MarketPlace (provided that buyer approves beforehand)\n        btk.transfer(agent, fee_btk); // buyer transfers the agent fee via MarketPlace, this msg.sender is MarketPlace\n        \n        emit DepositTaken(_tkname, stock[_tkname].price);\n    }\n\n    function AgentApproveWithBTK(string memory _tkname) public validDestination(stock[_tkname].seller) validProduct(_tkname) {\n        require (msg.sender == agent, \"Only agent can call the redeem function.\");\n        require (stock[_tkname].state == PurchaseState.DEPOSITTAKEN, \"No deposit found for this product.\");\n        require (block.timestamp < stock[_tkname].timeout, \"Agent can only approve the payment before the specified timeout.\");\n        \n        btk.transfer(stock[_tkname].seller, stock[_tkname].price); // MarketPlace transfers the product price to seller\n        \n        (uint256 id, string memory metadata, string memory rstatus, string memory vstatus, address owner) = digitaltwin.queryToken(_tkname);\n        digitaltwin.transferFrom(address(this), stock[_tkname].buyer, id); // provided that agent approves MarketPlace to transfer beforehand\n        // digitaltwin.transferByName(_tkname,stock[_tkname].buyer);\n\n        stock[_tkname].state = PurchaseState.PURCHASED;\n    }\n\n    /**\n     * @notice Buyer can deny the payment upon unsatisfactory verification result or for other reasons.\n     */\n    function AgentDenyWithBTK(string memory _tkname) public validDestination(stock[_tkname].buyer) validProduct(_tkname) {\n        require (msg.sender == agent, \"Only agent can call the refund function.\");\n        require (stock[_tkname].state == PurchaseState.DEPOSITTAKEN, \"No deposit found for this product.\");\n        require (block.timestamp > stock[_tkname].timeout, \"Agent can only issue the refund after the specified timeout.\");\n        \n        btk.transfer(stock[_tkname].buyer, stock[_tkname].price);\n        \n        (uint256 id, string memory metadata, string memory rstatus, string memory vstatus, address owner) = digitaltwin.queryToken(_tkname);\n        digitaltwin.transferFrom(address(this), stock[_tkname].seller, id); // provided that agent approves MarketPlace to transfer beforehand\n        // digitaltwin.transferByName(_tkname,stock[_tkname].seller);\n\n        stock[_tkname].state = PurchaseState.REFUNDED;\n    }\n\n    /**\n     * @notice getters\n     */\n    function queryProduct(string memory _tkname) public view validProduct(_tkname) returns(uint256, string memory, address, address) {\n        string memory state;\n\n        if (stock[_tkname].state == PurchaseState.LISTED) {\n            state = \"product listed\";\n        } else if (stock[_tkname].state == PurchaseState.DEPOSITTAKEN) {\n            state = \"deposit taken\";\n        } else if (stock[_tkname].state == PurchaseState.PURCHASED) {\n            state = \"payment successful\";\n        } else if (stock[_tkname].state == PurchaseState.REFUNDED) {\n            state = \"payment returned\";\n        } else {\n            state = \"unknown purchase state\";\n        }\n\n        return (stock[_tkname].price, state, stock[_tkname].seller, stock[_tkname].buyer);\n    }\n\n    function queryAllProducts()\n        public\n        view\n        returns\n    (\n        string[] memory, \n        uint256[] memory, \n        string[] memory,\n        address[] memory,\n        address[] memory\n    )\n    {\n        uint256[] memory prices = new uint256[](allproducts.length);\n        string[] memory states = new string[](allproducts.length);\n        address[] memory sellers = new address[](allproducts.length);\n        address[] memory buyers = new address[](allproducts.length);\n\n        for(uint i=0; i<allproducts.length; i++){\n            prices[i] = stock[allproducts[i]].price;\n\n            if (stock[allproducts[i]].state == PurchaseState.LISTED) {\n                states[i] = \"product listed\";\n            } else if (stock[allproducts[i]].state == PurchaseState.DEPOSITTAKEN) {\n                states[i] = \"deposit taken\";\n            } else if (stock[allproducts[i]].state == PurchaseState.PURCHASED) {\n                states[i] = \"payment successful\";\n            } else if (stock[allproducts[i]].state == PurchaseState.REFUNDED) {\n                states[i] = \"payment returned\";\n            } else {\n                states[i] = \"unknown purchase state\";\n            }\n\n            sellers[i] = stock[allproducts[i]].seller;\n            buyers[i] = stock[allproducts[i]].buyer;\n        }\n\n        return (allproducts, prices, states, sellers, buyers);\n    }\n}",
  "sourcePath": "/home/yih/Documents/dev/beston-dapps/contracts/MarketPlace.sol",
  "compiler": {
    "name": "solc",
    "version": "0.8.7+commit.e28d00a7.Emscripten.clang"
  },
  "schemaVersion": "3.4.1",
  "updatedAt": "2023-05-09T05:28:34.474Z",
  "networkType": "ethereum",
  "devdoc": {
    "author": "Yining Hu",
    "details": "Todo: to implement multi-sig, time-based escrow",
    "kind": "dev",
    "methods": {
      "constructor": {
        "details": "before setting up any user wallet, all buyers/sellers use a single buyer/seller address, which are maintained by Beston."
      }
    },
    "title": "MarketPlace Contract, forked from https://github.com/AleRapchan/escrow-service",
    "version": 1
  },
  "userdoc": {
    "kind": "user",
    "methods": {
      "AgentDenyWithBTK(string)": {
        "notice": "Buyer can deny the payment upon unsatisfactory verification result or for other reasons."
      },
      "directPurchase(string)": {
        "notice": "Buyer directly purchases a listed product"
      },
      "queryProduct(string)": {
        "notice": "getters"
      },
      "resiterBTKAcc(string)": {
        "notice": "BTK functions buyBTK allows a caller to buy BTK from MarketPlace sellBTK allows a caller to sell BTK to MarketPlace"
      }
    },
    "version": 1
  }
}