{
  "contractName": "MarketPlace",
  "abi": [
    {
      "inputs": [
        {
          "internalType": "contract DigitalTwin",
          "name": "_digitaltwin",
          "type": "address"
        }
      ],
      "stateMutability": "nonpayable",
      "type": "constructor"
    },
    {
      "anonymous": false,
      "inputs": [
        {
          "indexed": false,
          "internalType": "string",
          "name": "tkname",
          "type": "string"
        },
        {
          "indexed": false,
          "internalType": "uint256",
          "name": "price",
          "type": "uint256"
        }
      ],
      "name": "DepositTaken",
      "type": "event"
    },
    {
      "anonymous": false,
      "inputs": [
        {
          "indexed": false,
          "internalType": "string",
          "name": "tkname",
          "type": "string"
        },
        {
          "indexed": false,
          "internalType": "uint256",
          "name": "price",
          "type": "uint256"
        }
      ],
      "name": "PurchaseSuccessful",
      "type": "event"
    },
    {
      "inputs": [],
      "name": "btk",
      "outputs": [
        {
          "internalType": "contract BToken",
          "name": "",
          "type": "address"
        }
      ],
      "stateMutability": "view",
      "type": "function",
      "constant": true
    },
    {
      "inputs": [],
      "name": "digitaltwin",
      "outputs": [
        {
          "internalType": "contract DigitalTwin",
          "name": "",
          "type": "address"
        }
      ],
      "stateMutability": "view",
      "type": "function",
      "constant": true
    },
    {
      "inputs": [],
      "name": "fee_btk",
      "outputs": [
        {
          "internalType": "uint256",
          "name": "",
          "type": "uint256"
        }
      ],
      "stateMutability": "view",
      "type": "function",
      "constant": true
    },
    {
      "inputs": [
        {
          "internalType": "string",
          "name": "",
          "type": "string"
        }
      ],
      "name": "productExists",
      "outputs": [
        {
          "internalType": "bool",
          "name": "",
          "type": "bool"
        }
      ],
      "stateMutability": "view",
      "type": "function",
      "constant": true
    },
    {
      "inputs": [
        {
          "internalType": "string",
          "name": "",
          "type": "string"
        }
      ],
      "name": "stock",
      "outputs": [
        {
          "internalType": "uint256",
          "name": "price",
          "type": "uint256"
        },
        {
          "internalType": "address",
          "name": "buyer",
          "type": "address"
        },
        {
          "internalType": "address",
          "name": "seller",
          "type": "address"
        },
        {
          "internalType": "enum MarketPlace.PurchaseState",
          "name": "state",
          "type": "uint8"
        },
        {
          "internalType": "uint256",
          "name": "timeout",
          "type": "uint256"
        }
      ],
      "stateMutability": "view",
      "type": "function",
      "constant": true
    },
    {
      "inputs": [
        {
          "internalType": "string",
          "name": "_tkname",
          "type": "string"
        },
        {
          "internalType": "uint256",
          "name": "_price",
          "type": "uint256"
        }
      ],
      "name": "list",
      "outputs": [],
      "stateMutability": "nonpayable",
      "type": "function"
    },
    {
      "inputs": [
        {
          "internalType": "address",
          "name": "_to",
          "type": "address"
        }
      ],
      "name": "buyBTK",
      "outputs": [],
      "stateMutability": "payable",
      "type": "function",
      "payable": true
    },
    {
      "inputs": [
        {
          "internalType": "uint256",
          "name": "amount",
          "type": "uint256"
        }
      ],
      "name": "sellBTK",
      "outputs": [],
      "stateMutability": "nonpayable",
      "type": "function"
    },
    {
      "inputs": [
        {
          "internalType": "string",
          "name": "_tkname",
          "type": "string"
        }
      ],
      "name": "directPurchase",
      "outputs": [],
      "stateMutability": "nonpayable",
      "type": "function"
    },
    {
      "inputs": [
        {
          "internalType": "string",
          "name": "_tkname",
          "type": "string"
        },
        {
          "internalType": "uint256",
          "name": "_deposit",
          "type": "uint256"
        }
      ],
      "name": "BuyerDepositWithBTK",
      "outputs": [],
      "stateMutability": "nonpayable",
      "type": "function"
    },
    {
      "inputs": [
        {
          "internalType": "string",
          "name": "_tkname",
          "type": "string"
        }
      ],
      "name": "AgentApproveWithBTK",
      "outputs": [],
      "stateMutability": "nonpayable",
      "type": "function"
    },
    {
      "inputs": [
        {
          "internalType": "string",
          "name": "_tkname",
          "type": "string"
        }
      ],
      "name": "AgentDenyWithBTK",
      "outputs": [],
      "stateMutability": "nonpayable",
      "type": "function"
    },
    {
      "inputs": [
        {
          "internalType": "string",
          "name": "_tkname",
          "type": "string"
        }
      ],
      "name": "queryProduct",
      "outputs": [
        {
          "internalType": "uint256",
          "name": "",
          "type": "uint256"
        },
        {
          "internalType": "string",
          "name": "",
          "type": "string"
        },
        {
          "internalType": "address",
          "name": "",
          "type": "address"
        },
        {
          "internalType": "address",
          "name": "",
          "type": "address"
        }
      ],
      "stateMutability": "view",
      "type": "function",
      "constant": true
    },
    {
      "inputs": [],
      "name": "queryAllProducts",
      "outputs": [
        {
          "internalType": "string[]",
          "name": "",
          "type": "string[]"
        },
        {
          "internalType": "uint256[]",
          "name": "",
          "type": "uint256[]"
        },
        {
          "internalType": "string[]",
          "name": "",
          "type": "string[]"
        },
        {
          "internalType": "address[]",
          "name": "",
          "type": "address[]"
        },
        {
          "internalType": "address[]",
          "name": "",
          "type": "address[]"
        }
      ],
      "stateMutability": "view",
      "type": "function",
      "constant": true
    }
  ],
  "bytecode": "0x60806040523480156200001157600080fd5b50604051620065ce380380620065ce833981810160405281019062000037919062000170565b80600360006101000a81548173ffffffffffffffffffffffffffffffffffffffff021916908373ffffffffffffffffffffffffffffffffffffffff160217905550620f42406040516200008a906200014b565b620000969190620001da565b604051809103906000f080158015620000b3573d6000803e3d6000fd5b50600460006101000a81548173ffffffffffffffffffffffffffffffffffffffff021916908373ffffffffffffffffffffffffffffffffffffffff160217905550336000806101000a81548173ffffffffffffffffffffffffffffffffffffffff021916908373ffffffffffffffffffffffffffffffffffffffff1602179055506001808190555061012c60028190555050620002e0565b611a238062004bab83390190565b6000815190506200016a81620002c6565b92915050565b60006020828403121562000189576200018862000298565b5b6000620001998482850162000159565b91505092915050565b620001ad8162000284565b82525050565b6000620001c260028362000221565b9150620001cf826200029d565b602082019050919050565b60006060820190508181036000830152620001f581620001b3565b905081810360208301526200020a81620001b3565b90506200021b6040830184620001a2565b92915050565b600082825260208201905092915050565b60006200023f826200025a565b9050919050565b6000620002538262000232565b9050919050565b600073ffffffffffffffffffffffffffffffffffffffff82169050919050565b6000819050919050565b600062000291826200027a565b9050919050565b600080fd5b7f4254000000000000000000000000000000000000000000000000000000000000600082015250565b620002d18162000246565b8114620002dd57600080fd5b50565b6148bb80620002f06000396000f3fe6080604052600436106100dd5760003560e01c80638addc0511161007f578063ea467b4011610059578063ea467b401461029e578063eef06138146102cd578063f2922cf4146102f6578063fd9908e314610321576100dd565b80638addc0511461020f578063c4e0827a1461024c578063cb17a59614610275576100dd565b8063568e4118116100bb578063568e41181461015f57806378356db61461019f5780637a76f2e2146101bb57806386dc434b146101e4576100dd565b80630a7182e5146100e25780632ca9f4bd1461010b5780634a878dfa14610136575b600080fd5b3480156100ee57600080fd5b506101096004803603810190610104919061327d565b610362565b005b34801561011757600080fd5b5061012061096f565b60405161012d9190613b56565b60405180910390f35b34801561014257600080fd5b5061015d600480360381019061015891906132c6565b610995565b005b34801561016b57600080fd5b506101866004803603810190610181919061327d565b610e96565b6040516101969493929190613edc565b60405180910390f35b6101b960048036038101906101b49190613223565b61125e565b005b3480156101c757600080fd5b506101e260048036038101906101dd919061327d565b61144d565b005b3480156101f057600080fd5b506101f9611a5a565b6040516102069190613b71565b60405180910390f35b34801561021b57600080fd5b506102366004803603810190610231919061327d565b611a80565b6040516102439190613b3b565b60405180910390f35b34801561025857600080fd5b50610273600480360381019061026e9190613322565b611ab6565b005b34801561028157600080fd5b5061029c6004803603810190610297919061327d565b611cea565b005b3480156102aa57600080fd5b506102b3612241565b6040516102c4959493929190613ac5565b60405180910390f35b3480156102d957600080fd5b506102f460048036038101906102ef91906132c6565b6129f9565b005b34801561030257600080fd5b5061030b612f2b565b6040516103189190613e6e565b60405180910390f35b34801561032d57600080fd5b506103486004803603810190610343919061327d565b612f31565b604051610359959493929190613e89565b60405180910390f35b60068160405161037291906139f3565b908152602001604051809103902060020160009054906101000a900473ffffffffffffffffffffffffffffffffffffffff16600073ffffffffffffffffffffffffffffffffffffffff168173ffffffffffffffffffffffffffffffffffffffff161415610414576040517f08c379a000000000000000000000000000000000000000000000000000000000815260040161040b90613d4e565b60405180910390fd5b3073ffffffffffffffffffffffffffffffffffffffff168173ffffffffffffffffffffffffffffffffffffffff161415610483576040517f08c379a000000000000000000000000000000000000000000000000000000000815260040161047a90613e4e565b60405180910390fd5b8160078160405161049491906139f3565b908152602001604051809103902060009054906101000a900460ff166104ef576040517f08c379a00000000000000000000000000000000000000000000000000000000081526004016104e690613c8e565b60405180910390fd5b60008054906101000a900473ffffffffffffffffffffffffffffffffffffffff1673ffffffffffffffffffffffffffffffffffffffff163373ffffffffffffffffffffffffffffffffffffffff161461057d576040517f08c379a000000000000000000000000000000000000000000000000000000000815260040161057490613d8e565b60405180910390fd5b600160038111156105915761059061429e565b5b6006846040516105a191906139f3565b908152602001604051809103902060020160149054906101000a900460ff1660038111156105d2576105d161429e565b5b14610612576040517f08c379a000000000000000000000000000000000000000000000000000000000815260040161060990613c6e565b60405180910390fd5b60068360405161062291906139f3565b9081526020016040518091039020600301544210610675576040517f08c379a000000000000000000000000000000000000000000000000000000000815260040161066c90613cae565b60405180910390fd5b600460009054906101000a900473ffffffffffffffffffffffffffffffffffffffff1673ffffffffffffffffffffffffffffffffffffffff1663a9059cbb6006856040516106c391906139f3565b908152602001604051809103902060020160009054906101000a900473ffffffffffffffffffffffffffffffffffffffff1660068660405161070591906139f3565b9081526020016040518091039020600001546040518363ffffffff1660e01b8152600401610734929190613a9c565b602060405180830381600087803b15801561074e57600080fd5b505af1158015610762573d6000803e3d6000fd5b505050506040513d601f19601f820116820180604052508101906107869190613250565b506000806000806000600360009054906101000a900473ffffffffffffffffffffffffffffffffffffffff1673ffffffffffffffffffffffffffffffffffffffff1663c5573d46896040518263ffffffff1660e01b81526004016107ea9190613b8c565b60006040518083038186803b15801561080257600080fd5b505afa158015610816573d6000803e3d6000fd5b505050506040513d6000823e3d601f19601f8201168201806040525081019061083f919061337c565b94509450945094509450600360009054906101000a900473ffffffffffffffffffffffffffffffffffffffff1673ffffffffffffffffffffffffffffffffffffffff166323b872dd3060068b60405161089891906139f3565b908152602001604051809103902060010160009054906101000a900473ffffffffffffffffffffffffffffffffffffffff16886040518463ffffffff1660e01b81526004016108e993929190613a65565b600060405180830381600087803b15801561090357600080fd5b505af1158015610917573d6000803e3d6000fd5b50505050600260068960405161092d91906139f3565b908152602001604051809103902060020160146101000a81548160ff021916908360038111156109605761095f61429e565b5b02179055505050505050505050565b600460009054906101000a900473ffffffffffffffffffffffffffffffffffffffff1681565b6007826040516109a591906139f3565b908152602001604051809103902060009054906101000a900460ff1615610a01576040517f08c379a00000000000000000000000000000000000000000000000000000000081526004016109f890613cee565b60405180910390fd5b600360009054906101000a900473ffffffffffffffffffffffffffffffffffffffff1673ffffffffffffffffffffffffffffffffffffffff16630ad5b505836040518263ffffffff1660e01b8152600401610a5c9190613b8c565b60206040518083038186803b158015610a7457600080fd5b505afa158015610a88573d6000803e3d6000fd5b505050506040513d601f19601f82011682018060405250810190610aac9190613250565b610aeb576040517f08c379a0000000000000000000000000000000000000000000000000000000008152600401610ae290613d6e565b60405180910390fd5b6000806000806000600360009054906101000a900473ffffffffffffffffffffffffffffffffffffffff1673ffffffffffffffffffffffffffffffffffffffff1663c5573d46886040518263ffffffff1660e01b8152600401610b4e9190613b8c565b60006040518083038186803b158015610b6657600080fd5b505afa158015610b7a573d6000803e3d6000fd5b505050506040513d6000823e3d601f19601f82011682018060405250810190610ba3919061337c565b945094509450945094508073ffffffffffffffffffffffffffffffffffffffff163373ffffffffffffffffffffffffffffffffffffffff1614610c1b576040517f08c379a0000000000000000000000000000000000000000000000000000000008152600401610c1290613dee565b60405180910390fd5b610c23612fca565b86816000018181525050600081606001906003811115610c4657610c4561429e565b5b90816003811115610c5a57610c5961429e565b5b8152505033816040019073ffffffffffffffffffffffffffffffffffffffff16908173ffffffffffffffffffffffffffffffffffffffff168152505080600689604051610ca791906139f3565b90815260200160405180910390206000820151816000015560208201518160010160006101000a81548173ffffffffffffffffffffffffffffffffffffffff021916908373ffffffffffffffffffffffffffffffffffffffff16021790555060408201518160020160006101000a81548173ffffffffffffffffffffffffffffffffffffffff021916908373ffffffffffffffffffffffffffffffffffffffff16021790555060608201518160020160146101000a81548160ff02191690836003811115610d7857610d7761429e565b5b0217905550608082015181600301559050506001600789604051610d9c91906139f3565b908152602001604051809103902060006101000a81548160ff021916908315150217905550600588908060018154018082558091505060019003906000526020600020016000909190919091509080519060200190610dfc929190613037565b50600360009054906101000a900473ffffffffffffffffffffffffffffffffffffffff1673ffffffffffffffffffffffffffffffffffffffff16630d202ced89306040518363ffffffff1660e01b8152600401610e5a929190613bae565b600060405180830381600087803b158015610e7457600080fd5b505af1158015610e88573d6000803e3d6000fd5b505050505050505050505050565b6000606060008084600781604051610eae91906139f3565b908152602001604051809103902060009054906101000a900460ff16610f09576040517f08c379a0000000000000000000000000000000000000000000000000000000008152600401610f0090613c8e565b60405180910390fd5b606060006003811115610f1f57610f1e61429e565b5b600688604051610f2f91906139f3565b908152602001604051809103902060020160149054906101000a900460ff166003811115610f6057610f5f61429e565b5b1415610fa3576040518060400160405280600e81526020017f70726f64756374206c697374656400000000000000000000000000000000000081525090506111a6565b60016003811115610fb757610fb661429e565b5b600688604051610fc791906139f3565b908152602001604051809103902060020160149054906101000a900460ff166003811115610ff857610ff761429e565b5b141561103b576040518060400160405280600d81526020017f6465706f7369742074616b656e0000000000000000000000000000000000000081525090506111a5565b6002600381111561104f5761104e61429e565b5b60068860405161105f91906139f3565b908152602001604051809103902060020160149054906101000a900460ff1660038111156110905761108f61429e565b5b14156110d3576040518060400160405280601281526020017f7061796d656e74207375636365737366756c000000000000000000000000000081525090506111a4565b6003808111156110e6576110e561429e565b5b6006886040516110f691906139f3565b908152602001604051809103902060020160149054906101000a900460ff1660038111156111275761112661429e565b5b141561116a576040518060400160405280601081526020017f7061796d656e742072657475726e65640000000000000000000000000000000081525090506111a3565b6040518060400160405280601681526020017f756e6b6e6f776e2070757263686173652073746174650000000000000000000081525090505b5b5b5b6006876040516111b691906139f3565b908152602001604051809103902060000154816006896040516111d991906139f3565b908152602001604051809103902060020160009054906101000a900473ffffffffffffffffffffffffffffffffffffffff1660068a60405161121b91906139f3565b908152602001604051809103902060010160009054906101000a900473ffffffffffffffffffffffffffffffffffffffff16955095509550955050509193509193565b60003490506000600460009054906101000a900473ffffffffffffffffffffffffffffffffffffffff1673ffffffffffffffffffffffffffffffffffffffff166370a08231306040518263ffffffff1660e01b81526004016112c09190613a21565b60206040518083038186803b1580156112d857600080fd5b505afa1580156112ec573d6000803e3d6000fd5b505050506040513d601f19601f82011682018060405250810190611310919061334f565b905060008211611355576040517f08c379a000000000000000000000000000000000000000000000000000000000815260040161134c90613e0e565b60405180910390fd5b80821115611398576040517f08c379a000000000000000000000000000000000000000000000000000000000815260040161138f90613dce565b60405180910390fd5b600460009054906101000a900473ffffffffffffffffffffffffffffffffffffffff1673ffffffffffffffffffffffffffffffffffffffff1663a9059cbb84846040518363ffffffff1660e01b81526004016113f5929190613a9c565b602060405180830381600087803b15801561140f57600080fd5b505af1158015611423573d6000803e3d6000fd5b505050506040513d601f19601f820116820180604052508101906114479190613250565b50505050565b60068160405161145d91906139f3565b908152602001604051809103902060010160009054906101000a900473ffffffffffffffffffffffffffffffffffffffff16600073ffffffffffffffffffffffffffffffffffffffff168173ffffffffffffffffffffffffffffffffffffffff1614156114ff576040517f08c379a00000000000000000000000000000000000000000000000000000000081526004016114f690613d4e565b60405180910390fd5b3073ffffffffffffffffffffffffffffffffffffffff168173ffffffffffffffffffffffffffffffffffffffff16141561156e576040517f08c379a000000000000000000000000000000000000000000000000000000000815260040161156590613e4e565b60405180910390fd5b8160078160405161157f91906139f3565b908152602001604051809103902060009054906101000a900460ff166115da576040517f08c379a00000000000000000000000000000000000000000000000000000000081526004016115d190613c8e565b60405180910390fd5b60008054906101000a900473ffffffffffffffffffffffffffffffffffffffff1673ffffffffffffffffffffffffffffffffffffffff163373ffffffffffffffffffffffffffffffffffffffff1614611668576040517f08c379a000000000000000000000000000000000000000000000000000000000815260040161165f90613d2e565b60405180910390fd5b6001600381111561167c5761167b61429e565b5b60068460405161168c91906139f3565b908152602001604051809103902060020160149054906101000a900460ff1660038111156116bd576116bc61429e565b5b146116fd576040517f08c379a00000000000000000000000000000000000000000000000000000000081526004016116f490613c6e565b60405180910390fd5b60068360405161170d91906139f3565b9081526020016040518091039020600301544211611760576040517f08c379a000000000000000000000000000000000000000000000000000000000815260040161175790613c2e565b60405180910390fd5b600460009054906101000a900473ffffffffffffffffffffffffffffffffffffffff1673ffffffffffffffffffffffffffffffffffffffff1663a9059cbb6006856040516117ae91906139f3565b908152602001604051809103902060010160009054906101000a900473ffffffffffffffffffffffffffffffffffffffff166006866040516117f091906139f3565b9081526020016040518091039020600001546040518363ffffffff1660e01b815260040161181f929190613a9c565b602060405180830381600087803b15801561183957600080fd5b505af115801561184d573d6000803e3d6000fd5b505050506040513d601f19601f820116820180604052508101906118719190613250565b506000806000806000600360009054906101000a900473ffffffffffffffffffffffffffffffffffffffff1673ffffffffffffffffffffffffffffffffffffffff1663c5573d46896040518263ffffffff1660e01b81526004016118d59190613b8c565b60006040518083038186803b1580156118ed57600080fd5b505afa158015611901573d6000803e3d6000fd5b505050506040513d6000823e3d601f19601f8201168201806040525081019061192a919061337c565b94509450945094509450600360009054906101000a900473ffffffffffffffffffffffffffffffffffffffff1673ffffffffffffffffffffffffffffffffffffffff166323b872dd3060068b60405161198391906139f3565b908152602001604051809103902060020160009054906101000a900473ffffffffffffffffffffffffffffffffffffffff16886040518463ffffffff1660e01b81526004016119d493929190613a65565b600060405180830381600087803b1580156119ee57600080fd5b505af1158015611a02573d6000803e3d6000fd5b505050506003600689604051611a1891906139f3565b908152602001604051809103902060020160146101000a81548160ff02191690836003811115611a4b57611a4a61429e565b5b02179055505050505050505050565b600360009054906101000a900473ffffffffffffffffffffffffffffffffffffffff1681565b6007818051602081018201805184825260208301602085012081835280955050505050506000915054906101000a900460ff1681565b60008111611af9576040517f08c379a0000000000000000000000000000000000000000000000000000000008152600401611af090613cce565b60405180910390fd5b6000600460009054906101000a900473ffffffffffffffffffffffffffffffffffffffff1673ffffffffffffffffffffffffffffffffffffffff1663dd62ed3e33306040518363ffffffff1660e01b8152600401611b58929190613a3c565b60206040518083038186803b158015611b7057600080fd5b505afa158015611b84573d6000803e3d6000fd5b505050506040513d601f19601f82011682018060405250810190611ba8919061334f565b905081811015611bed576040517f08c379a0000000000000000000000000000000000000000000000000000000008152600401611be490613d0e565b60405180910390fd5b600460009054906101000a900473ffffffffffffffffffffffffffffffffffffffff1673ffffffffffffffffffffffffffffffffffffffff166323b872dd3330856040518463ffffffff1660e01b8152600401611c4c93929190613a65565b602060405180830381600087803b158015611c6657600080fd5b505af1158015611c7a573d6000803e3d6000fd5b505050506040513d601f19601f82011682018060405250810190611c9e9190613250565b503373ffffffffffffffffffffffffffffffffffffffff166108fc839081150290604051600060405180830381858888f19350505050158015611ce5573d6000803e3d6000fd5b505050565b60006003811115611cfe57611cfd61429e565b5b600682604051611d0e91906139f3565b908152602001604051809103902060020160149054906101000a900460ff166003811115611d3f57611d3e61429e565b5b14611d7f576040517f08c379a0000000000000000000000000000000000000000000000000000000008152600401611d7690613dae565b60405180910390fd5b600681604051611d8f91906139f3565b908152602001604051809103902060000154600460009054906101000a900473ffffffffffffffffffffffffffffffffffffffff1673ffffffffffffffffffffffffffffffffffffffff166370a08231336040518263ffffffff1660e01b8152600401611dfc9190613a21565b60206040518083038186803b158015611e1457600080fd5b505afa158015611e28573d6000803e3d6000fd5b505050506040513d601f19601f82011682018060405250810190611e4c919061334f565b1015611e8d576040517f08c379a0000000000000000000000000000000000000000000000000000000008152600401611e8490613c0e565b60405180910390fd5b33600682604051611e9e91906139f3565b908152602001604051809103902060010160006101000a81548173ffffffffffffffffffffffffffffffffffffffff021916908373ffffffffffffffffffffffffffffffffffffffff1602179055506002600682604051611eff91906139f3565b908152602001604051809103902060020160146101000a81548160ff02191690836003811115611f3257611f3161429e565b5b0217905550600460009054906101000a900473ffffffffffffffffffffffffffffffffffffffff1673ffffffffffffffffffffffffffffffffffffffff166323b872dd33600684604051611f8691906139f3565b908152602001604051809103902060020160009054906101000a900473ffffffffffffffffffffffffffffffffffffffff16600685604051611fc891906139f3565b9081526020016040518091039020600001546040518463ffffffff1660e01b8152600401611ff893929190613a65565b602060405180830381600087803b15801561201257600080fd5b505af1158015612026573d6000803e3d6000fd5b505050506040513d601f19601f8201168201806040525081019061204a9190613250565b506000806000806000600360009054906101000a900473ffffffffffffffffffffffffffffffffffffffff1673ffffffffffffffffffffffffffffffffffffffff1663c5573d46876040518263ffffffff1660e01b81526004016120ae9190613b8c565b60006040518083038186803b1580156120c657600080fd5b505afa1580156120da573d6000803e3d6000fd5b505050506040513d6000823e3d601f19601f82011682018060405250810190612103919061337c565b94509450945094509450600360009054906101000a900473ffffffffffffffffffffffffffffffffffffffff1673ffffffffffffffffffffffffffffffffffffffff166323b872dd3060068960405161215c91906139f3565b908152602001604051809103902060010160009054906101000a900473ffffffffffffffffffffffffffffffffffffffff16886040518463ffffffff1660e01b81526004016121ad93929190613a65565b600060405180830381600087803b1580156121c757600080fd5b505af11580156121db573d6000803e3d6000fd5b505050507f55a1d48413b75294fb8b28f281bb7b7c8602eda505de8d2918731273bbb6ffff8660068860405161221191906139f3565b908152602001604051809103902060000154604051612231929190613bde565b60405180910390a1505050505050565b6060806060806060600060058054905067ffffffffffffffff81111561226a5761226961432b565b5b6040519080825280602002602001820160405280156122985781602001602082028036833780820191505090505b509050600060058054905067ffffffffffffffff8111156122bc576122bb61432b565b5b6040519080825280602002602001820160405280156122ef57816020015b60608152602001906001900390816122da5790505b509050600060058054905067ffffffffffffffff8111156123135761231261432b565b5b6040519080825280602002602001820160405280156123415781602001602082028036833780820191505090505b509050600060058054905067ffffffffffffffff8111156123655761236461432b565b5b6040519080825280602002602001820160405280156123935781602001602082028036833780820191505090505b50905060005b60058054905081101561290a576006600582815481106123bc576123bb6142fc565b5b906000526020600020016040516123d39190613a0a565b9081526020016040518091039020600001548582815181106123f8576123f76142fc565b5b602002602001018181525050600060038111156124185761241761429e565b5b60066005838154811061242e5761242d6142fc565b5b906000526020600020016040516124459190613a0a565b908152602001604051809103902060020160149054906101000a900460ff1660038111156124765761247561429e565b5b14156124d5576040518060400160405280600e81526020017f70726f64756374206c69737465640000000000000000000000000000000000008152508482815181106124c5576124c46142fc565b5b602002602001018190525061279f565b600160038111156124e9576124e861429e565b5b6006600583815481106124ff576124fe6142fc565b5b906000526020600020016040516125169190613a0a565b908152602001604051809103902060020160149054906101000a900460ff1660038111156125475761254661429e565b5b14156125a6576040518060400160405280600d81526020017f6465706f7369742074616b656e00000000000000000000000000000000000000815250848281518110612596576125956142fc565b5b602002602001018190525061279e565b600260038111156125ba576125b961429e565b5b6006600583815481106125d0576125cf6142fc565b5b906000526020600020016040516125e79190613a0a565b908152602001604051809103902060020160149054906101000a900460ff1660038111156126185761261761429e565b5b1415612677576040518060400160405280601281526020017f7061796d656e74207375636365737366756c0000000000000000000000000000815250848281518110612667576126666142fc565b5b602002602001018190525061279d565b60038081111561268a5761268961429e565b5b6006600583815481106126a05761269f6142fc565b5b906000526020600020016040516126b79190613a0a565b908152602001604051809103902060020160149054906101000a900460ff1660038111156126e8576126e761429e565b5b1415612747576040518060400160405280601081526020017f7061796d656e742072657475726e656400000000000000000000000000000000815250848281518110612737576127366142fc565b5b602002602001018190525061279c565b6040518060400160405280601681526020017f756e6b6e6f776e207075726368617365207374617465000000000000000000008152508482815181106127905761278f6142fc565b5b60200260200101819052505b5b5b5b6006600582815481106127b5576127b46142fc565b5b906000526020600020016040516127cc9190613a0a565b908152602001604051809103902060020160009054906101000a900473ffffffffffffffffffffffffffffffffffffffff16838281518110612811576128106142fc565b5b602002602001019073ffffffffffffffffffffffffffffffffffffffff16908173ffffffffffffffffffffffffffffffffffffffff1681525050600660058281548110612861576128606142fc565b5b906000526020600020016040516128789190613a0a565b908152602001604051809103902060010160009054906101000a900473ffffffffffffffffffffffffffffffffffffffff168282815181106128bd576128bc6142fc565b5b602002602001019073ffffffffffffffffffffffffffffffffffffffff16908173ffffffffffffffffffffffffffffffffffffffff1681525050808061290290614226565b915050612399565b5060058484848484805480602002602001604051908101604052809291908181526020016000905b828210156129de578382906000526020600020018054612951906141c3565b80601f016020809104026020016040519081016040528092919081815260200182805461297d906141c3565b80156129ca5780601f1061299f576101008083540402835291602001916129ca565b820191906000526020600020905b8154815290600101906020018083116129ad57829003601f168201915b505050505081526020019060010190612932565b50505050945098509850985098509850505050509091929394565b60008054906101000a900473ffffffffffffffffffffffffffffffffffffffff16600073ffffffffffffffffffffffffffffffffffffffff168173ffffffffffffffffffffffffffffffffffffffff161415612a8a576040517f08c379a0000000000000000000000000000000000000000000000000000000008152600401612a8190613d4e565b60405180910390fd5b3073ffffffffffffffffffffffffffffffffffffffff168173ffffffffffffffffffffffffffffffffffffffff161415612af9576040517f08c379a0000000000000000000000000000000000000000000000000000000008152600401612af090613e4e565b60405180910390fd5b82600781604051612b0a91906139f3565b908152602001604051809103902060009054906101000a900460ff16612b65576040517f08c379a0000000000000000000000000000000000000000000000000000000008152600401612b5c90613c8e565b60405180910390fd5b600684604051612b7591906139f3565b908152602001604051809103902060000154600154612b949190614076565b8314612bd5576040517f08c379a0000000000000000000000000000000000000000000000000000000008152600401612bcc90613e2e565b60405180910390fd5b60006003811115612be957612be861429e565b5b600685604051612bf991906139f3565b908152602001604051809103902060020160149054906101000a900460ff166003811115612c2a57612c2961429e565b5b14612c6a576040517f08c379a0000000000000000000000000000000000000000000000000000000008152600401612c6190613c4e565b60405180910390fd5b33600685604051612c7b91906139f3565b908152602001604051809103902060010160006101000a81548173ffffffffffffffffffffffffffffffffffffffff021916908373ffffffffffffffffffffffffffffffffffffffff1602179055506001600685604051612cdc91906139f3565b908152602001604051809103902060020160146101000a81548160ff02191690836003811115612d0f57612d0e61429e565b5b021790555060025442612d229190614076565b600685604051612d3291906139f3565b908152602001604051809103902060030181905550600460009054906101000a900473ffffffffffffffffffffffffffffffffffffffff1673ffffffffffffffffffffffffffffffffffffffff166323b872dd3330866040518463ffffffff1660e01b8152600401612da693929190613a65565b602060405180830381600087803b158015612dc057600080fd5b505af1158015612dd4573d6000803e3d6000fd5b505050506040513d601f19601f82011682018060405250810190612df89190613250565b50600460009054906101000a900473ffffffffffffffffffffffffffffffffffffffff1673ffffffffffffffffffffffffffffffffffffffff1663a9059cbb60008054906101000a900473ffffffffffffffffffffffffffffffffffffffff166001546040518363ffffffff1660e01b8152600401612e78929190613a9c565b602060405180830381600087803b158015612e9257600080fd5b505af1158015612ea6573d6000803e3d6000fd5b505050506040513d601f19601f82011682018060405250810190612eca9190613250565b507f6b4150c430f0b9b9df0f255d6761fd17eefed34257973ab988203c832edbcc2384600686604051612efd91906139f3565b908152602001604051809103902060000154604051612f1d929190613bde565b60405180910390a150505050565b60015481565b6006818051602081018201805184825260208301602085012081835280955050505050506000915090508060000154908060010160009054906101000a900473ffffffffffffffffffffffffffffffffffffffff16908060020160009054906101000a900473ffffffffffffffffffffffffffffffffffffffff16908060020160149054906101000a900460ff16908060030154905085565b6040518060a0016040528060008152602001600073ffffffffffffffffffffffffffffffffffffffff168152602001600073ffffffffffffffffffffffffffffffffffffffff1681526020016000600381111561302a5761302961429e565b5b8152602001600081525090565b828054613043906141c3565b90600052602060002090601f01602090048101928261306557600085556130ac565b82601f1061307e57805160ff19168380011785556130ac565b828001600101855582156130ac579182015b828111156130ab578251825591602001919060010190613090565b5b5090506130b991906130bd565b5090565b5b808211156130d65760008160009055506001016130be565b5090565b60006130ed6130e884613f4d565b613f28565b9050828152602081018484840111156131095761310861435f565b5b613114848285614181565b509392505050565b600061312f61312a84613f4d565b613f28565b90508281526020810184848401111561314b5761314a61435f565b5b613156848285614190565b509392505050565b60008135905061316d81614840565b92915050565b60008151905061318281614840565b92915050565b60008151905061319781614857565b92915050565b600082601f8301126131b2576131b161435a565b5b81356131c28482602086016130da565b91505092915050565b600082601f8301126131e0576131df61435a565b5b81516131f084826020860161311c565b91505092915050565b6000813590506132088161486e565b92915050565b60008151905061321d8161486e565b92915050565b60006020828403121561323957613238614369565b5b60006132478482850161315e565b91505092915050565b60006020828403121561326657613265614369565b5b600061327484828501613188565b91505092915050565b60006020828403121561329357613292614369565b5b600082013567ffffffffffffffff8111156132b1576132b0614364565b5b6132bd8482850161319d565b91505092915050565b600080604083850312156132dd576132dc614369565b5b600083013567ffffffffffffffff8111156132fb576132fa614364565b5b6133078582860161319d565b9250506020613318858286016131f9565b9150509250929050565b60006020828403121561333857613337614369565b5b6000613346848285016131f9565b91505092915050565b60006020828403121561336557613364614369565b5b60006133738482850161320e565b91505092915050565b600080600080600060a0868803121561339857613397614369565b5b60006133a68882890161320e565b955050602086015167ffffffffffffffff8111156133c7576133c6614364565b5b6133d3888289016131cb565b945050604086015167ffffffffffffffff8111156133f4576133f3614364565b5b613400888289016131cb565b935050606086015167ffffffffffffffff81111561342157613420614364565b5b61342d888289016131cb565b925050608061343e88828901613173565b9150509295509295909350565b6000613457838361348f565b60208301905092915050565b600061346f838361361a565b905092915050565b600061348383836139d5565b60208301905092915050565b613498816140cc565b82525050565b6134a7816140cc565b82525050565b60006134b882613fc3565b6134c28185614016565b93506134cd83613f7e565b8060005b838110156134fe5781516134e5888261344b565b97506134f083613fef565b9250506001810190506134d1565b5085935050505092915050565b600061351682613fce565b6135208185614027565b93508360208202850161353285613f8e565b8060005b8581101561356e578484038952815161354f8582613463565b945061355a83613ffc565b925060208a01995050600181019050613536565b50829750879550505050505092915050565b600061358b82613fd9565b6135958185614038565b93506135a083613f9e565b8060005b838110156135d15781516135b88882613477565b97506135c383614009565b9250506001810190506135a4565b5085935050505092915050565b6135e7816140de565b82525050565b6135f681614127565b82525050565b61360581614139565b82525050565b6136148161414b565b82525050565b600061362582613fe4565b61362f8185614049565b935061363f818560208601614190565b6136488161436e565b840191505092915050565b600061365e82613fe4565b613668818561405a565b9350613678818560208601614190565b6136818161436e565b840191505092915050565b600061369782613fe4565b6136a1818561406b565b93506136b1818560208601614190565b80840191505092915050565b600081546136ca816141c3565b6136d4818661406b565b945060018216600081146136ef576001811461370057613733565b60ff19831686528186019350613733565b61370985613fae565b60005b8381101561372b5781548189015260018201915060208101905061370c565b838801955050505b50505092915050565b6000613749601e8361405a565b91506137548261437f565b602082019050919050565b600061376c603c8361405a565b9150613777826143a8565b604082019050919050565b600061378f60168361405a565b915061379a826143f7565b602082019050919050565b60006137b260228361405a565b91506137bd82614420565b604082019050919050565b60006137d560178361405a565b91506137e08261446f565b602082019050919050565b60006137f860408361405a565b915061380382614498565b604082019050919050565b600061381b60258361405a565b9150613826826144e7565b604082019050919050565b600061383e601a8361405a565b915061384982614536565b602082019050919050565b600061386160198361405a565b915061386c8261455f565b602082019050919050565b600061388460288361405a565b915061388f82614588565b604082019050919050565b60006138a760268361405a565b91506138b2826145d7565b604082019050919050565b60006138ca601c8361405a565b91506138d582614626565b602082019050919050565b60006138ed60288361405a565b91506138f88261464f565b604082019050919050565b600061391060168361405a565b915061391b8261469e565b602082019050919050565b600061393360208361405a565b915061393e826146c7565b602082019050919050565b6000613956602f8361405a565b9150613961826146f0565b604082019050919050565b6000613979601b8361405a565b91506139848261473f565b602082019050919050565b600061399c604a8361405a565b91506139a782614768565b606082019050919050565b60006139bf60258361405a565b91506139ca826147dd565b604082019050919050565b6139de8161411d565b82525050565b6139ed8161411d565b82525050565b60006139ff828461368c565b915081905092915050565b6000613a1682846136bd565b915081905092915050565b6000602082019050613a36600083018461349e565b92915050565b6000604082019050613a51600083018561349e565b613a5e602083018461349e565b9392505050565b6000606082019050613a7a600083018661349e565b613a87602083018561349e565b613a9460408301846139e4565b949350505050565b6000604082019050613ab1600083018561349e565b613abe60208301846139e4565b9392505050565b600060a0820190508181036000830152613adf818861350b565b90508181036020830152613af38187613580565b90508181036040830152613b07818661350b565b90508181036060830152613b1b81856134ad565b90508181036080830152613b2f81846134ad565b90509695505050505050565b6000602082019050613b5060008301846135de565b92915050565b6000602082019050613b6b60008301846135ed565b92915050565b6000602082019050613b8660008301846135fc565b92915050565b60006020820190508181036000830152613ba68184613653565b905092915050565b60006040820190508181036000830152613bc88185613653565b9050613bd7602083018461349e565b9392505050565b60006040820190508181036000830152613bf88185613653565b9050613c0760208301846139e4565b9392505050565b60006020820190508181036000830152613c278161373c565b9050919050565b60006020820190508181036000830152613c478161375f565b9050919050565b60006020820190508181036000830152613c6781613782565b9050919050565b60006020820190508181036000830152613c87816137a5565b9050919050565b60006020820190508181036000830152613ca7816137c8565b9050919050565b60006020820190508181036000830152613cc7816137eb565b9050919050565b60006020820190508181036000830152613ce78161380e565b9050919050565b60006020820190508181036000830152613d0781613831565b9050919050565b60006020820190508181036000830152613d2781613854565b9050919050565b60006020820190508181036000830152613d4781613877565b9050919050565b60006020820190508181036000830152613d678161389a565b9050919050565b60006020820190508181036000830152613d87816138bd565b9050919050565b60006020820190508181036000830152613da7816138e0565b9050919050565b60006020820190508181036000830152613dc781613903565b9050919050565b60006020820190508181036000830152613de781613926565b9050919050565b60006020820190508181036000830152613e0781613949565b9050919050565b60006020820190508181036000830152613e278161396c565b9050919050565b60006020820190508181036000830152613e478161398f565b9050919050565b60006020820190508181036000830152613e67816139b2565b9050919050565b6000602082019050613e8360008301846139e4565b92915050565b600060a082019050613e9e60008301886139e4565b613eab602083018761349e565b613eb8604083018661349e565b613ec5606083018561360b565b613ed260808301846139e4565b9695505050505050565b6000608082019050613ef160008301876139e4565b8181036020830152613f038186613653565b9050613f12604083018561349e565b613f1f606083018461349e565b95945050505050565b6000613f32613f43565b9050613f3e82826141f5565b919050565b6000604051905090565b600067ffffffffffffffff821115613f6857613f6761432b565b5b613f718261436e565b9050602081019050919050565b6000819050602082019050919050565b6000819050602082019050919050565b6000819050602082019050919050565b60008190508160005260206000209050919050565b600081519050919050565b600081519050919050565b600081519050919050565b600081519050919050565b6000602082019050919050565b6000602082019050919050565b6000602082019050919050565b600082825260208201905092915050565b600082825260208201905092915050565b600082825260208201905092915050565b600082825260208201905092915050565b600082825260208201905092915050565b600081905092915050565b60006140818261411d565b915061408c8361411d565b9250827fffffffffffffffffffffffffffffffffffffffffffffffffffffffffffffffff038211156140c1576140c061426f565b5b828201905092915050565b60006140d7826140fd565b9050919050565b60008115159050919050565b60008190506140f88261482c565b919050565b600073ffffffffffffffffffffffffffffffffffffffff82169050919050565b6000819050919050565b60006141328261415d565b9050919050565b60006141448261415d565b9050919050565b6000614156826140ea565b9050919050565b60006141688261416f565b9050919050565b600061417a826140fd565b9050919050565b82818337600083830152505050565b60005b838110156141ae578082015181840152602081019050614193565b838111156141bd576000848401525b50505050565b600060028204905060018216806141db57607f821691505b602082108114156141ef576141ee6142cd565b5b50919050565b6141fe8261436e565b810181811067ffffffffffffffff8211171561421d5761421c61432b565b5b80604052505050565b60006142318261411d565b91507fffffffffffffffffffffffffffffffffffffffffffffffffffffffffffffffff8214156142645761426361426f565b5b600182019050919050565b7f4e487b7100000000000000000000000000000000000000000000000000000000600052601160045260246000fd5b7f4e487b7100000000000000000000000000000000000000000000000000000000600052602160045260246000fd5b7f4e487b7100000000000000000000000000000000000000000000000000000000600052602260045260246000fd5b7f4e487b7100000000000000000000000000000000000000000000000000000000600052603260045260246000fd5b7f4e487b7100000000000000000000000000000000000000000000000000000000600052604160045260246000fd5b600080fd5b600080fd5b600080fd5b600080fd5b6000601f19601f8301169050919050565b7f50726f6475637420707269636520657863656564732062616c616e63652e0000600082015250565b7f4167656e742063616e206f6e6c792069737375652074686520726566756e642060008201527f616674657220746865207370656369666965642074696d656f75742e00000000602082015250565b7f50726f64756374206973206e6f74206c69737465642100000000000000000000600082015250565b7f4e6f206465706f73697420666f756e6420666f7220746869732070726f64756360008201527f742e000000000000000000000000000000000000000000000000000000000000602082015250565b7f50726f6475637420646f6573206e6f742065786973742e000000000000000000600082015250565b7f4167656e742063616e206f6e6c7920617070726f766520746865207061796d6560008201527f6e74206265666f726520746865207370656369666965642074696d656f75742e602082015250565b7f596f75206e65656420746f2073656c6c206174206c6561737420736f6d65207460008201527f6f6b656e73000000000000000000000000000000000000000000000000000000602082015250565b7f50726f6475637420697320616c7265616479206c69737465642e000000000000600082015250565b7f436865636b2074686520746f6b656e20616c6c6f77616e636500000000000000600082015250565b7f4f6e6c79206167656e742063616e2063616c6c2074686520726566756e64206660008201527f756e6374696f6e2e000000000000000000000000000000000000000000000000602082015250565b7f526563697069656e742073686f756c64206861766520612076616c696420616460008201527f6472657373210000000000000000000000000000000000000000000000000000602082015250565b7f50726f6475637420746f6b656e206973206e6f74206d696e7465642e00000000600082015250565b7f4f6e6c79206167656e742063616e2063616c6c207468652072656465656d206660008201527f756e6374696f6e2e000000000000000000000000000000000000000000000000602082015250565b7f50726f64756374206973206e6f74206c69737465642e00000000000000000000600082015250565b7f4e6f7420656e6f75676820746f6b656e7320696e207468652072657365727665600082015250565b7f4f6e6c79206f776e6572206f66206120746f6b656e2063616e206c697374206960008201527f7420617320612070726f647563742e0000000000000000000000000000000000602082015250565b7f596f75206e65656420746f2073656e6420736f6d652065746865720000000000600082015250565b7f506c65617365206d616b65207375726520796f7572206465706f73697420636f60008201527f7665727320626f7468207468652070726f6475637420707269636520616e642060208201527f6167656e74206665652100000000000000000000000000000000000000000000604082015250565b7f526563697069656e742073686f756c64206e6f742062652074686520636f6e7460008201527f7261637421000000000000000000000000000000000000000000000000000000602082015250565b6004811061483d5761483c61429e565b5b50565b614849816140cc565b811461485457600080fd5b50565b614860816140de565b811461486b57600080fd5b50565b6148778161411d565b811461488257600080fd5b5056fea264697066735822122014e94190b12b7699f30189dcb13c311820b333fa457ed58c4b3c320e1a1c9d2064736f6c6343000807003360806040523480156200001157600080fd5b5060405162001a2338038062001a238339818101604052810190620000379190620003b3565b82828160039080519060200190620000519291906200026e565b5080600490805190602001906200006a9291906200026e565b50505033600560006101000a81548173ffffffffffffffffffffffffffffffffffffffff021916908373ffffffffffffffffffffffffffffffffffffffff160217905550620000e2600560009054906101000a900473ffffffffffffffffffffffffffffffffffffffff1682620000eb60201b60201c565b50505062000732565b600073ffffffffffffffffffffffffffffffffffffffff168273ffffffffffffffffffffffffffffffffffffffff1614156200015e576040517f08c379a0000000000000000000000000000000000000000000000000000000008152600401620001559062000485565b60405180910390fd5b62000172600083836200026460201b60201c565b806002600082825462000186919062000534565b92505081905550806000808473ffffffffffffffffffffffffffffffffffffffff1673ffffffffffffffffffffffffffffffffffffffff1681526020019081526020016000206000828254620001dd919062000534565b925050819055508173ffffffffffffffffffffffffffffffffffffffff16600073ffffffffffffffffffffffffffffffffffffffff167fddf252ad1be2c89b69c2b068fc378daa952ba7f163c4a11628f55a4df523b3ef83604051620002449190620004a7565b60405180910390a362000260600083836200026960201b60201c565b5050565b505050565b505050565b8280546200027c90620005d1565b90600052602060002090601f016020900481019282620002a05760008555620002ec565b82601f10620002bb57805160ff1916838001178555620002ec565b82800160010185558215620002ec579182015b82811115620002eb578251825591602001919060010190620002ce565b5b509050620002fb9190620002ff565b5090565b5b808211156200031a57600081600090555060010162000300565b5090565b6000620003356200032f84620004ed565b620004c4565b905082815260208101848484011115620003545762000353620006cf565b5b620003618482856200059b565b509392505050565b600082601f830112620003815762000380620006ca565b5b8151620003938482602086016200031e565b91505092915050565b600081519050620003ad8162000718565b92915050565b600080600060608486031215620003cf57620003ce620006d9565b5b600084015167ffffffffffffffff811115620003f057620003ef620006d4565b5b620003fe8682870162000369565b935050602084015167ffffffffffffffff811115620004225762000421620006d4565b5b620004308682870162000369565b925050604062000443868287016200039c565b9150509250925092565b60006200045c601f8362000523565b91506200046982620006ef565b602082019050919050565b6200047f8162000591565b82525050565b60006020820190508181036000830152620004a0816200044d565b9050919050565b6000602082019050620004be600083018462000474565b92915050565b6000620004d0620004e3565b9050620004de828262000607565b919050565b6000604051905090565b600067ffffffffffffffff8211156200050b576200050a6200069b565b5b6200051682620006de565b9050602081019050919050565b600082825260208201905092915050565b6000620005418262000591565b91506200054e8362000591565b9250827fffffffffffffffffffffffffffffffffffffffffffffffffffffffffffffffff038211156200058657620005856200063d565b5b828201905092915050565b6000819050919050565b60005b83811015620005bb5780820151818401526020810190506200059e565b83811115620005cb576000848401525b50505050565b60006002820490506001821680620005ea57607f821691505b602082108114156200060157620006006200066c565b5b50919050565b6200061282620006de565b810181811067ffffffffffffffff821117156200063457620006336200069b565b5b80604052505050565b7f4e487b7100000000000000000000000000000000000000000000000000000000600052601160045260246000fd5b7f4e487b7100000000000000000000000000000000000000000000000000000000600052602260045260246000fd5b7f4e487b7100000000000000000000000000000000000000000000000000000000600052604160045260246000fd5b600080fd5b600080fd5b600080fd5b600080fd5b6000601f19601f8301169050919050565b7f45524332303a206d696e7420746f20746865207a65726f206164647265737300600082015250565b620007238162000591565b81146200072f57600080fd5b50565b6112e180620007426000396000f3fe608060405234801561001057600080fd5b50600436106100b45760003560e01c806370a082311161007157806370a08231146101a357806395d89b41146101d3578063a457c2d7146101f1578063a9059cbb14610221578063dd62ed3e14610251578063f851a44014610281576100b4565b806306fdde03146100b9578063095ea7b3146100d757806318160ddd1461010757806323b872dd14610125578063313ce567146101555780633950935114610173575b600080fd5b6100c161029f565b6040516100ce9190610da2565b60405180910390f35b6100f160048036038101906100ec9190610bc2565b610331565b6040516100fe9190610d87565b60405180910390f35b61010f610354565b60405161011c9190610ea4565b60405180910390f35b61013f600480360381019061013a9190610b6f565b61035e565b60405161014c9190610d87565b60405180910390f35b61015d61038d565b60405161016a9190610ebf565b60405180910390f35b61018d60048036038101906101889190610bc2565b610396565b60405161019a9190610d87565b60405180910390f35b6101bd60048036038101906101b89190610b02565b6103cd565b6040516101ca9190610ea4565b60405180910390f35b6101db610415565b6040516101e89190610da2565b60405180910390f35b61020b60048036038101906102069190610bc2565b6104a7565b6040516102189190610d87565b60405180910390f35b61023b60048036038101906102369190610bc2565b61051e565b6040516102489190610d87565b60405180910390f35b61026b60048036038101906102669190610b2f565b610541565b6040516102789190610ea4565b60405180910390f35b6102896105c8565b6040516102969190610d6c565b60405180910390f35b6060600380546102ae90610fd4565b80601f01602080910402602001604051908101604052809291908181526020018280546102da90610fd4565b80156103275780601f106102fc57610100808354040283529160200191610327565b820191906000526020600020905b81548152906001019060200180831161030a57829003601f168201915b5050505050905090565b60008061033c6105ee565b90506103498185856105f6565b600191505092915050565b6000600254905090565b6000806103696105ee565b90506103768582856107c1565b61038185858561084d565b60019150509392505050565b60006012905090565b6000806103a16105ee565b90506103c28185856103b38589610541565b6103bd9190610ef6565b6105f6565b600191505092915050565b60008060008373ffffffffffffffffffffffffffffffffffffffff1673ffffffffffffffffffffffffffffffffffffffff168152602001908152602001600020549050919050565b60606004805461042490610fd4565b80601f016020809104026020016040519081016040528092919081815260200182805461045090610fd4565b801561049d5780601f106104725761010080835404028352916020019161049d565b820191906000526020600020905b81548152906001019060200180831161048057829003601f168201915b5050505050905090565b6000806104b26105ee565b905060006104c08286610541565b905083811015610505576040517f08c379a00000000000000000000000000000000000000000000000000000000081526004016104fc90610e84565b60405180910390fd5b61051282868684036105f6565b60019250505092915050565b6000806105296105ee565b905061053681858561084d565b600191505092915050565b6000600160008473ffffffffffffffffffffffffffffffffffffffff1673ffffffffffffffffffffffffffffffffffffffff16815260200190815260200160002060008373ffffffffffffffffffffffffffffffffffffffff1673ffffffffffffffffffffffffffffffffffffffff16815260200190815260200160002054905092915050565b600560009054906101000a900473ffffffffffffffffffffffffffffffffffffffff1681565b600033905090565b600073ffffffffffffffffffffffffffffffffffffffff168373ffffffffffffffffffffffffffffffffffffffff161415610666576040517f08c379a000000000000000000000000000000000000000000000000000000000815260040161065d90610e64565b60405180910390fd5b600073ffffffffffffffffffffffffffffffffffffffff168273ffffffffffffffffffffffffffffffffffffffff1614156106d6576040517f08c379a00000000000000000000000000000000000000000000000000000000081526004016106cd90610de4565b60405180910390fd5b80600160008573ffffffffffffffffffffffffffffffffffffffff1673ffffffffffffffffffffffffffffffffffffffff16815260200190815260200160002060008473ffffffffffffffffffffffffffffffffffffffff1673ffffffffffffffffffffffffffffffffffffffff168152602001908152602001600020819055508173ffffffffffffffffffffffffffffffffffffffff168373ffffffffffffffffffffffffffffffffffffffff167f8c5be1e5ebec7d5bd14f71427d1e84f3dd0314c0f7b2291e5b200ac8c7c3b925836040516107b49190610ea4565b60405180910390a3505050565b60006107cd8484610541565b90507fffffffffffffffffffffffffffffffffffffffffffffffffffffffffffffffff81146108475781811015610839576040517f08c379a000000000000000000000000000000000000000000000000000000000815260040161083090610e04565b60405180910390fd5b61084684848484036105f6565b5b50505050565b600073ffffffffffffffffffffffffffffffffffffffff168373ffffffffffffffffffffffffffffffffffffffff1614156108bd576040517f08c379a00000000000000000000000000000000000000000000000000000000081526004016108b490610e44565b60405180910390fd5b600073ffffffffffffffffffffffffffffffffffffffff168273ffffffffffffffffffffffffffffffffffffffff16141561092d576040517f08c379a000000000000000000000000000000000000000000000000000000000815260040161092490610dc4565b60405180910390fd5b610938838383610ace565b60008060008573ffffffffffffffffffffffffffffffffffffffff1673ffffffffffffffffffffffffffffffffffffffff168152602001908152602001600020549050818110156109be576040517f08c379a00000000000000000000000000000000000000000000000000000000081526004016109b590610e24565b60405180910390fd5b8181036000808673ffffffffffffffffffffffffffffffffffffffff1673ffffffffffffffffffffffffffffffffffffffff16815260200190815260200160002081905550816000808573ffffffffffffffffffffffffffffffffffffffff1673ffffffffffffffffffffffffffffffffffffffff1681526020019081526020016000206000828254610a519190610ef6565b925050819055508273ffffffffffffffffffffffffffffffffffffffff168473ffffffffffffffffffffffffffffffffffffffff167fddf252ad1be2c89b69c2b068fc378daa952ba7f163c4a11628f55a4df523b3ef84604051610ab59190610ea4565b60405180910390a3610ac8848484610ad3565b50505050565b505050565b505050565b600081359050610ae78161127d565b92915050565b600081359050610afc81611294565b92915050565b600060208284031215610b1857610b17611064565b5b6000610b2684828501610ad8565b91505092915050565b60008060408385031215610b4657610b45611064565b5b6000610b5485828601610ad8565b9250506020610b6585828601610ad8565b9150509250929050565b600080600060608486031215610b8857610b87611064565b5b6000610b9686828701610ad8565b9350506020610ba786828701610ad8565b9250506040610bb886828701610aed565b9150509250925092565b60008060408385031215610bd957610bd8611064565b5b6000610be785828601610ad8565b9250506020610bf885828601610aed565b9150509250929050565b610c0b81610f4c565b82525050565b610c1a81610f5e565b82525050565b6000610c2b82610eda565b610c358185610ee5565b9350610c45818560208601610fa1565b610c4e81611069565b840191505092915050565b6000610c66602383610ee5565b9150610c718261107a565b604082019050919050565b6000610c89602283610ee5565b9150610c94826110c9565b604082019050919050565b6000610cac601d83610ee5565b9150610cb782611118565b602082019050919050565b6000610ccf602683610ee5565b9150610cda82611141565b604082019050919050565b6000610cf2602583610ee5565b9150610cfd82611190565b604082019050919050565b6000610d15602483610ee5565b9150610d20826111df565b604082019050919050565b6000610d38602583610ee5565b9150610d438261122e565b604082019050919050565b610d5781610f8a565b82525050565b610d6681610f94565b82525050565b6000602082019050610d816000830184610c02565b92915050565b6000602082019050610d9c6000830184610c11565b92915050565b60006020820190508181036000830152610dbc8184610c20565b905092915050565b60006020820190508181036000830152610ddd81610c59565b9050919050565b60006020820190508181036000830152610dfd81610c7c565b9050919050565b60006020820190508181036000830152610e1d81610c9f565b9050919050565b60006020820190508181036000830152610e3d81610cc2565b9050919050565b60006020820190508181036000830152610e5d81610ce5565b9050919050565b60006020820190508181036000830152610e7d81610d08565b9050919050565b60006020820190508181036000830152610e9d81610d2b565b9050919050565b6000602082019050610eb96000830184610d4e565b92915050565b6000602082019050610ed46000830184610d5d565b92915050565b600081519050919050565b600082825260208201905092915050565b6000610f0182610f8a565b9150610f0c83610f8a565b9250827fffffffffffffffffffffffffffffffffffffffffffffffffffffffffffffffff03821115610f4157610f40611006565b5b828201905092915050565b6000610f5782610f6a565b9050919050565b60008115159050919050565b600073ffffffffffffffffffffffffffffffffffffffff82169050919050565b6000819050919050565b600060ff82169050919050565b60005b83811015610fbf578082015181840152602081019050610fa4565b83811115610fce576000848401525b50505050565b60006002820490506001821680610fec57607f821691505b6020821081141561100057610fff611035565b5b50919050565b7f4e487b7100000000000000000000000000000000000000000000000000000000600052601160045260246000fd5b7f4e487b7100000000000000000000000000000000000000000000000000000000600052602260045260246000fd5b600080fd5b6000601f19601f8301169050919050565b7f45524332303a207472616e7366657220746f20746865207a65726f206164647260008201527f6573730000000000000000000000000000000000000000000000000000000000602082015250565b7f45524332303a20617070726f766520746f20746865207a65726f20616464726560008201527f7373000000000000000000000000000000000000000000000000000000000000602082015250565b7f45524332303a20696e73756666696369656e7420616c6c6f77616e6365000000600082015250565b7f45524332303a207472616e7366657220616d6f756e742065786365656473206260008201527f616c616e63650000000000000000000000000000000000000000000000000000602082015250565b7f45524332303a207472616e736665722066726f6d20746865207a65726f20616460008201527f6472657373000000000000000000000000000000000000000000000000000000602082015250565b7f45524332303a20617070726f76652066726f6d20746865207a65726f2061646460008201527f7265737300000000000000000000000000000000000000000000000000000000602082015250565b7f45524332303a2064656372656173656420616c6c6f77616e63652062656c6f7760008201527f207a65726f000000000000000000000000000000000000000000000000000000602082015250565b61128681610f4c565b811461129157600080fd5b50565b61129d81610f8a565b81146112a857600080fd5b5056fea2646970667358221220b3be26dabe8439ffd658502bec8946a7cb1219d90863fcfb15160f4ebc7b35cc64736f6c63430008070033",
  "immutableReferences": {},
  "source": "// SPDX-License-Identifier: MIT\npragma solidity ^0.8.0;\n\nimport \"../node_modules/@openzeppelin/contracts/utils/math/SafeMath.sol\";\nimport \"./DigitalTwin.sol\";\nimport \"./BToken.sol\";\n\n/**\n * @title MarketPlace Contract, forked from https://github.com/AleRapchan/escrow-service\n * @author Yining Hu\n * @dev Todo: to implement multi-sig, time-based escrow\n */\ncontract MarketPlace {\n\n    address agent;\n    uint256 public fee_btk;\n    uint256 timeout;\n\n    using SafeMath for uint256;\n\n    DigitalTwin public digitaltwin;\n    BToken public btk;\n    \n    enum PurchaseState { LISTED, DEPOSITTAKEN, PURCHASED, REFUNDED }\n\n    struct Product{\n        uint256 price;\n        address buyer;\n        address seller;\n        PurchaseState state;\n        uint256 timeout; // timeout for payment settlement\n    }\n\n    string[] allproducts;\n    mapping (string => Product) public stock; // whole stock of listed items\n    mapping(string => bool) public productExists;\n\n    event DepositTaken(string tkname, uint256 price);\n    event PurchaseSuccessful(string tkname, uint256 price);\n\n    /**\n     * @dev before setting up any user wallet, all buyers/sellers use a single buyer/seller address, which are maintained by Beston.\n     */\n    constructor(DigitalTwin _digitaltwin) {\n        digitaltwin = _digitaltwin;\n        btk = new BToken(\"BT\", \"BT\", 1000000);\n        agent = msg.sender;\n        fee_btk = 1;\n        timeout = 5 minutes;\n    }\n\n    modifier validDestination(address to) {\n        require(to != address(0x0), \"Recipient should have a valid address!\");\n        require(to != address(this), \"Recipient should not be the contract!\");\n        _;\n    }\n\n    modifier validProduct(string memory _tkname) {\n        require(productExists[_tkname], \"Product does not exist.\");\n        _;\n    }\n\n    function list(string memory _tkname , uint256 _price) public {\n        require(!productExists[_tkname], \"Product is already listed.\");\n        require(digitaltwin.tkExists(_tkname), \"Product token is not minted.\");\n\n        // should also require the caller to be the owner of the product\n        (uint256 id, string memory metadata, string memory rstatus, string memory vstatus, address addr) = digitaltwin.queryToken(_tkname);\n        require(msg.sender == addr, \"Only owner of a token can list it as a product.\");\n\n        Product memory product;\n        product.price = _price; /// @dev double check the conversion in Polygon\n        product.state = PurchaseState.LISTED;\n        product.seller = msg.sender;\n        stock[_tkname] = product;\n        productExists[_tkname] = true;\n        allproducts.push(_tkname);\n\n        // transfer the token ownership to the agent\n        // todo: enable transfer the token ownership to the contract address\n        digitaltwin.transferByName(_tkname,address(this));\n    }\n\n    /**\n     * buyBTK allows a caller to buy BTK from MarketPlace\n     * sellBTK allows a caller to sell BTK to MarketPlace\n     */\n    function buyBTK(address _to) payable public {\n        uint256 amountTobuy = msg.value;\n        uint256 dexBalance = btk.balanceOf(address(this));\n        require(amountTobuy > 0, \"You need to send some ether\");\n        require(amountTobuy <= dexBalance, \"Not enough tokens in the reserve\");\n        btk.transfer(_to, amountTobuy);\n    }\n\n    function sellBTK(uint256 amount) public {\n        require(amount > 0, \"You need to sell at least some tokens\");\n        uint256 allowance = btk.allowance(msg.sender, address(this));\n        require(allowance >= amount, \"Check the token allowance\");\n        btk.transferFrom(msg.sender, address(this), amount); // msg.sender is the caller, address(this) is MarketPlace\n        payable(msg.sender).transfer(amount);\n    }\n\n    /**\n     * @notice Buyer directly purchases a listed product\n     */\n    function directPurchase(string memory _tkname) external {\n        require(stock[_tkname].state == PurchaseState.LISTED, \"Product is not listed.\");\n        require(btk.balanceOf(msg.sender) >= stock[_tkname].price, \"Product price exceeds balance.\"); // require buyer balance to be higher than the price\n\n        stock[_tkname].buyer = msg.sender;\n        stock[_tkname].state = PurchaseState.PURCHASED;\n\n        // transfer btk from buyer to seller\n        btk.transferFrom(msg.sender, stock[_tkname].seller, stock[_tkname].price);\n\n        // transfer token(product) from seller to buyer\n        (uint256 id, string memory metadata, string memory rstatus, string memory vstatus, address owner) = digitaltwin.queryToken(_tkname);\n        digitaltwin.transferFrom(address(this), stock[_tkname].buyer, id); // provided that agent approves MarketPlace to transfer beforehand\n\n        emit PurchaseSuccessful(_tkname, stock[_tkname].price);\n    }\n\n    function BuyerDepositWithBTK(string memory _tkname, uint256 _deposit) external validDestination(agent) validProduct(_tkname) {\n        require(_deposit == fee_btk + stock[_tkname].price, \"Please make sure your deposit covers both the product price and agent fee!\");\n        require(stock[_tkname].state == PurchaseState.LISTED , \"Product is not listed!\"); // this also blocks buyer from making duplicatd deposit\n\n        stock[_tkname].buyer = msg.sender;\n        stock[_tkname].state = PurchaseState.DEPOSITTAKEN;\n        stock[_tkname].timeout = block.timestamp + timeout; // add a timeout for settlement when buyer sends deposit\n\n        btk.transferFrom(msg.sender, address(this), _deposit); // buyer transfers the deposit to MarketPlace (provided that buyer approves beforehand)\n        btk.transfer(agent, fee_btk); // buyer transfers the agent fee via MarketPlace, this msg.sender is MarketPlace\n        \n        emit DepositTaken(_tkname, stock[_tkname].price);\n    }\n\n    function AgentApproveWithBTK(string memory _tkname) public validDestination(stock[_tkname].seller) validProduct(_tkname) {\n        require (msg.sender == agent, \"Only agent can call the redeem function.\");\n        require (stock[_tkname].state == PurchaseState.DEPOSITTAKEN, \"No deposit found for this product.\");\n        require (block.timestamp < stock[_tkname].timeout, \"Agent can only approve the payment before the specified timeout.\");\n        \n        btk.transfer(stock[_tkname].seller, stock[_tkname].price); // MarketPlace transfers the product price to seller\n        \n        (uint256 id, string memory metadata, string memory rstatus, string memory vstatus, address owner) = digitaltwin.queryToken(_tkname);\n        digitaltwin.transferFrom(address(this), stock[_tkname].buyer, id); // provided that agent approves MarketPlace to transfer beforehand\n        // digitaltwin.transferByName(_tkname,stock[_tkname].buyer);\n\n        stock[_tkname].state = PurchaseState.PURCHASED;\n    }\n\n    /**\n     * @notice Buyer can deny the payment upon unsatisfactory verification result or for other reasons.\n     */\n    function AgentDenyWithBTK(string memory _tkname) public validDestination(stock[_tkname].buyer) validProduct(_tkname) {\n        require (msg.sender == agent, \"Only agent can call the refund function.\");\n        require (stock[_tkname].state == PurchaseState.DEPOSITTAKEN, \"No deposit found for this product.\");\n        require (block.timestamp > stock[_tkname].timeout, \"Agent can only issue the refund after the specified timeout.\");\n        \n        btk.transfer(stock[_tkname].buyer, stock[_tkname].price);\n        \n        (uint256 id, string memory metadata, string memory rstatus, string memory vstatus, address owner) = digitaltwin.queryToken(_tkname);\n        digitaltwin.transferFrom(address(this), stock[_tkname].seller, id); // provided that agent approves MarketPlace to transfer beforehand\n        // digitaltwin.transferByName(_tkname,stock[_tkname].seller);\n\n        stock[_tkname].state = PurchaseState.REFUNDED;\n    }\n\n    /**\n     * @notice getters\n     */\n    function queryProduct(string memory _tkname) public view validProduct(_tkname) returns(uint256, string memory, address, address) {\n        string memory state;\n\n        if (stock[_tkname].state == PurchaseState.LISTED) {\n            state = \"product listed\";\n        } else if (stock[_tkname].state == PurchaseState.DEPOSITTAKEN) {\n            state = \"deposit taken\";\n        } else if (stock[_tkname].state == PurchaseState.PURCHASED) {\n            state = \"payment successful\";\n        } else if (stock[_tkname].state == PurchaseState.REFUNDED) {\n            state = \"payment returned\";\n        } else {\n            state = \"unknown purchase state\";\n        }\n\n        return (stock[_tkname].price, state, stock[_tkname].seller, stock[_tkname].buyer);\n    }\n\n    function queryAllProducts()\n        public\n        view\n        returns\n    (\n        string[] memory, \n        uint256[] memory, \n        string[] memory,\n        address[] memory,\n        address[] memory\n    )\n    {\n        uint256[] memory prices = new uint256[](allproducts.length);\n        string[] memory states = new string[](allproducts.length);\n        address[] memory sellers = new address[](allproducts.length);\n        address[] memory buyers = new address[](allproducts.length);\n\n        for(uint i=0; i<allproducts.length; i++){\n            prices[i] = stock[allproducts[i]].price;\n\n            if (stock[allproducts[i]].state == PurchaseState.LISTED) {\n                states[i] = \"product listed\";\n            } else if (stock[allproducts[i]].state == PurchaseState.DEPOSITTAKEN) {\n                states[i] = \"deposit taken\";\n            } else if (stock[allproducts[i]].state == PurchaseState.PURCHASED) {\n                states[i] = \"payment successful\";\n            } else if (stock[allproducts[i]].state == PurchaseState.REFUNDED) {\n                states[i] = \"payment returned\";\n            } else {\n                states[i] = \"unknown purchase state\";\n            }\n\n            sellers[i] = stock[allproducts[i]].seller;\n            buyers[i] = stock[allproducts[i]].buyer;\n        }\n\n        return (allproducts, prices, states, sellers, buyers);\n    }\n}",
  "sourcePath": "/home/yih/Documents/dev/beston-dapps/contracts/MarketPlace.sol",
  "compiler": {
    "name": "solc",
    "version": "0.8.7+commit.e28d00a7.Emscripten.clang"
  },
  "schemaVersion": "3.4.1",
  "updatedAt": "2023-04-17T03:02:36.479Z",
  "networkType": "ethereum",
  "devdoc": {
    "author": "Yining Hu",
    "details": "Todo: to implement multi-sig, time-based escrow",
    "kind": "dev",
    "methods": {
      "constructor": {
        "details": "before setting up any user wallet, all buyers/sellers use a single buyer/seller address, which are maintained by Beston."
      }
    },
    "title": "MarketPlace Contract, forked from https://github.com/AleRapchan/escrow-service",
    "version": 1
  },
  "userdoc": {
    "kind": "user",
    "methods": {
      "AgentDenyWithBTK(string)": {
        "notice": "Buyer can deny the payment upon unsatisfactory verification result or for other reasons."
      },
      "buyBTK(address)": {
        "notice": "buyBTK allows a caller to buy BTK from MarketPlace sellBTK allows a caller to sell BTK to MarketPlace"
      },
      "directPurchase(string)": {
        "notice": "Buyer directly purchases a listed product"
      },
      "queryProduct(string)": {
        "notice": "getters"
      }
    },
    "version": 1
  }
}