{
  "contractName": "Moz",
  "abi": [
    {
      "inputs": [],
      "stateMutability": "nonpayable",
      "type": "constructor"
    },
    {
      "anonymous": false,
      "inputs": [
        {
          "indexed": true,
          "internalType": "address",
          "name": "owner",
          "type": "address"
        },
        {
          "indexed": true,
          "internalType": "address",
          "name": "approved",
          "type": "address"
        },
        {
          "indexed": true,
          "internalType": "uint256",
          "name": "tokenId",
          "type": "uint256"
        }
      ],
      "name": "Approval",
      "type": "event"
    },
    {
      "anonymous": false,
      "inputs": [
        {
          "indexed": true,
          "internalType": "address",
          "name": "owner",
          "type": "address"
        },
        {
          "indexed": true,
          "internalType": "address",
          "name": "operator",
          "type": "address"
        },
        {
          "indexed": false,
          "internalType": "bool",
          "name": "approved",
          "type": "bool"
        }
      ],
      "name": "ApprovalForAll",
      "type": "event"
    },
    {
      "anonymous": false,
      "inputs": [
        {
          "indexed": false,
          "internalType": "string",
          "name": "tokenid",
          "type": "string"
        }
      ],
      "name": "NewTokenMinted",
      "type": "event"
    },
    {
      "anonymous": false,
      "inputs": [
        {
          "indexed": false,
          "internalType": "string",
          "name": "tokenid",
          "type": "string"
        }
      ],
      "name": "TokenDestroyed",
      "type": "event"
    },
    {
      "anonymous": false,
      "inputs": [
        {
          "indexed": false,
          "internalType": "string",
          "name": "tokenid",
          "type": "string"
        }
      ],
      "name": "TokenUpdated",
      "type": "event"
    },
    {
      "anonymous": false,
      "inputs": [
        {
          "indexed": true,
          "internalType": "address",
          "name": "from",
          "type": "address"
        },
        {
          "indexed": true,
          "internalType": "address",
          "name": "to",
          "type": "address"
        },
        {
          "indexed": true,
          "internalType": "uint256",
          "name": "tokenId",
          "type": "uint256"
        }
      ],
      "name": "Transfer",
      "type": "event"
    },
    {
      "inputs": [
        {
          "internalType": "address",
          "name": "to",
          "type": "address"
        },
        {
          "internalType": "uint256",
          "name": "tokenId",
          "type": "uint256"
        }
      ],
      "name": "approve",
      "outputs": [],
      "stateMutability": "nonpayable",
      "type": "function"
    },
    {
      "inputs": [
        {
          "internalType": "address",
          "name": "owner",
          "type": "address"
        }
      ],
      "name": "balanceOf",
      "outputs": [
        {
          "internalType": "uint256",
          "name": "",
          "type": "uint256"
        }
      ],
      "stateMutability": "view",
      "type": "function",
      "constant": true
    },
    {
      "inputs": [
        {
          "internalType": "uint256",
          "name": "tokenId",
          "type": "uint256"
        }
      ],
      "name": "getApproved",
      "outputs": [
        {
          "internalType": "address",
          "name": "",
          "type": "address"
        }
      ],
      "stateMutability": "view",
      "type": "function",
      "constant": true
    },
    {
      "inputs": [
        {
          "internalType": "address",
          "name": "owner",
          "type": "address"
        },
        {
          "internalType": "address",
          "name": "operator",
          "type": "address"
        }
      ],
      "name": "isApprovedForAll",
      "outputs": [
        {
          "internalType": "bool",
          "name": "",
          "type": "bool"
        }
      ],
      "stateMutability": "view",
      "type": "function",
      "constant": true
    },
    {
      "inputs": [
        {
          "internalType": "string",
          "name": "",
          "type": "string"
        }
      ],
      "name": "mozData",
      "outputs": [
        {
          "internalType": "string",
          "name": "",
          "type": "string"
        }
      ],
      "stateMutability": "view",
      "type": "function",
      "constant": true
    },
    {
      "inputs": [
        {
          "internalType": "uint256",
          "name": "",
          "type": "uint256"
        }
      ],
      "name": "mozIds",
      "outputs": [
        {
          "internalType": "string",
          "name": "",
          "type": "string"
        }
      ],
      "stateMutability": "view",
      "type": "function",
      "constant": true
    },
    {
      "inputs": [],
      "name": "name",
      "outputs": [
        {
          "internalType": "string",
          "name": "",
          "type": "string"
        }
      ],
      "stateMutability": "view",
      "type": "function",
      "constant": true
    },
    {
      "inputs": [
        {
          "internalType": "uint256",
          "name": "tokenId",
          "type": "uint256"
        }
      ],
      "name": "ownerOf",
      "outputs": [
        {
          "internalType": "address",
          "name": "",
          "type": "address"
        }
      ],
      "stateMutability": "view",
      "type": "function",
      "constant": true
    },
    {
      "inputs": [
        {
          "internalType": "address",
          "name": "from",
          "type": "address"
        },
        {
          "internalType": "address",
          "name": "to",
          "type": "address"
        },
        {
          "internalType": "uint256",
          "name": "tokenId",
          "type": "uint256"
        }
      ],
      "name": "safeTransferFrom",
      "outputs": [],
      "stateMutability": "nonpayable",
      "type": "function"
    },
    {
      "inputs": [
        {
          "internalType": "address",
          "name": "from",
          "type": "address"
        },
        {
          "internalType": "address",
          "name": "to",
          "type": "address"
        },
        {
          "internalType": "uint256",
          "name": "tokenId",
          "type": "uint256"
        },
        {
          "internalType": "bytes",
          "name": "_data",
          "type": "bytes"
        }
      ],
      "name": "safeTransferFrom",
      "outputs": [],
      "stateMutability": "nonpayable",
      "type": "function"
    },
    {
      "inputs": [
        {
          "internalType": "address",
          "name": "operator",
          "type": "address"
        },
        {
          "internalType": "bool",
          "name": "approved",
          "type": "bool"
        }
      ],
      "name": "setApprovalForAll",
      "outputs": [],
      "stateMutability": "nonpayable",
      "type": "function"
    },
    {
      "inputs": [
        {
          "internalType": "bytes4",
          "name": "interfaceId",
          "type": "bytes4"
        }
      ],
      "name": "supportsInterface",
      "outputs": [
        {
          "internalType": "bool",
          "name": "",
          "type": "bool"
        }
      ],
      "stateMutability": "view",
      "type": "function",
      "constant": true
    },
    {
      "inputs": [],
      "name": "symbol",
      "outputs": [
        {
          "internalType": "string",
          "name": "",
          "type": "string"
        }
      ],
      "stateMutability": "view",
      "type": "function",
      "constant": true
    },
    {
      "inputs": [
        {
          "internalType": "string",
          "name": "",
          "type": "string"
        }
      ],
      "name": "tokenExists",
      "outputs": [
        {
          "internalType": "bool",
          "name": "",
          "type": "bool"
        }
      ],
      "stateMutability": "view",
      "type": "function",
      "constant": true
    },
    {
      "inputs": [
        {
          "internalType": "string",
          "name": "",
          "type": "string"
        }
      ],
      "name": "tokenIdentifier",
      "outputs": [
        {
          "internalType": "uint256",
          "name": "",
          "type": "uint256"
        }
      ],
      "stateMutability": "view",
      "type": "function",
      "constant": true
    },
    {
      "inputs": [
        {
          "internalType": "uint256",
          "name": "tokenId",
          "type": "uint256"
        }
      ],
      "name": "tokenURI",
      "outputs": [
        {
          "internalType": "string",
          "name": "",
          "type": "string"
        }
      ],
      "stateMutability": "view",
      "type": "function",
      "constant": true
    },
    {
      "inputs": [
        {
          "internalType": "address",
          "name": "from",
          "type": "address"
        },
        {
          "internalType": "address",
          "name": "to",
          "type": "address"
        },
        {
          "internalType": "uint256",
          "name": "tokenId",
          "type": "uint256"
        }
      ],
      "name": "transferFrom",
      "outputs": [],
      "stateMutability": "nonpayable",
      "type": "function"
    },
    {
      "inputs": [
        {
          "internalType": "string",
          "name": "_tokenid",
          "type": "string"
        },
        {
          "internalType": "string",
          "name": "_metadata",
          "type": "string"
        }
      ],
      "name": "mint",
      "outputs": [],
      "stateMutability": "nonpayable",
      "type": "function"
    },
    {
      "inputs": [
        {
          "internalType": "string",
          "name": "_tokenid",
          "type": "string"
        },
        {
          "internalType": "string",
          "name": "_metadata",
          "type": "string"
        }
      ],
      "name": "update",
      "outputs": [],
      "stateMutability": "nonpayable",
      "type": "function"
    },
    {
      "inputs": [
        {
          "internalType": "string",
          "name": "_tokenid",
          "type": "string"
        }
      ],
      "name": "burn",
      "outputs": [],
      "stateMutability": "nonpayable",
      "type": "function"
    },
    {
      "inputs": [],
      "name": "countToken",
      "outputs": [
        {
          "internalType": "uint256",
          "name": "",
          "type": "uint256"
        }
      ],
      "stateMutability": "view",
      "type": "function",
      "constant": true
    },
    {
      "inputs": [
        {
          "internalType": "string",
          "name": "_tokenid",
          "type": "string"
        }
      ],
      "name": "queryToken",
      "outputs": [
        {
          "internalType": "string",
          "name": "",
          "type": "string"
        }
      ],
      "stateMutability": "view",
      "type": "function",
      "constant": true
    }
  ],
  "bytecode": "0x60806040523480156200001157600080fd5b506040518060400160405280600e81526020017f4d6f7a617272656c6c61204261720000000000000000000000000000000000008152506040518060400160405280600381526020017f4d4f5a0000000000000000000000000000000000000000000000000000000000815250816000908051906020019062000096929190620000b8565b508060019080519060200190620000af929190620000b8565b505050620001cd565b828054620000c69062000168565b90600052602060002090601f016020900481019282620000ea576000855562000136565b82601f106200010557805160ff191683800117855562000136565b8280016001018555821562000136579182015b828111156200013557825182559160200191906001019062000118565b5b50905062000145919062000149565b5090565b5b80821115620001645760008160009055506001016200014a565b5090565b600060028204905060018216806200018157607f821691505b602082108114156200019857620001976200019e565b5b50919050565b7f4e487b7100000000000000000000000000000000000000000000000000000000600052602260045260246000fd5b6134ea80620001dd6000396000f3fe608060405234801561001057600080fd5b50600436106101425760003560e01c806395d89b41116100b8578063c87b56dd1161007c578063c87b56dd146103ab578063dafa1d2d146103db578063e7a81c55146103f7578063e985e9c514610415578063ef5431ec14610445578063f4c84d191461047557610142565b806395d89b41146102f5578063a22cb46514610313578063b07e25061461032f578063b88d4fde1461035f578063c5573d461461037b57610142565b806323b872dd1161010a57806323b872dd1461021157806342842e0e1461022d5780636059eae1146102495780636352211e1461027957806370a08231146102a95780638aa0fdad146102d957610142565b806301ffc9a71461014757806306fdde0314610177578063081812fc14610195578063095ea7b3146101c5578063119bc3bd146101e1575b600080fd5b610161600480360381019061015c9190612398565b610491565b60405161016e91906128c8565b60405180910390f35b61017f610573565b60405161018c91906128e3565b60405180910390f35b6101af60048036038101906101aa91906124b3565b610605565b6040516101bc9190612861565b60405180910390f35b6101df60048036038101906101da9190612358565b61068a565b005b6101fb60048036038101906101f691906123f2565b6107a2565b6040516102089190612b45565b60405180910390f35b61022b60048036038101906102269190612242565b6107d0565b005b61024760048036038101906102429190612242565b610830565b005b610263600480360381019061025e91906123f2565b610850565b60405161027091906128c8565b60405180910390f35b610293600480360381019061028e91906124b3565b610886565b6040516102a09190612861565b60405180910390f35b6102c360048036038101906102be91906121d5565b610938565b6040516102d09190612b45565b60405180910390f35b6102f360048036038101906102ee919061243b565b6109f0565b005b6102fd610b75565b60405161030a91906128e3565b60405180910390f35b61032d60048036038101906103289190612318565b610c07565b005b610349600480360381019061034491906124b3565b610c1d565b60405161035691906128e3565b60405180910390f35b61037960048036038101906103749190612295565b610cc9565b005b610395600480360381019061039091906123f2565b610d2b565b6040516103a291906128e3565b60405180910390f35b6103c560048036038101906103c091906124b3565b610e46565b6040516103d291906128e3565b60405180910390f35b6103f560048036038101906103f091906123f2565b610eed565b005b6103ff61104d565b60405161040c9190612b45565b60405180910390f35b61042f600480360381019061042a9190612202565b61105a565b60405161043c91906128c8565b60405180910390f35b61045f600480360381019061045a91906123f2565b6110ee565b60405161046c91906128e3565b60405180910390f35b61048f600480360381019061048a919061243b565b6111a4565b005b60007f80ac58cd000000000000000000000000000000000000000000000000000000007bffffffffffffffffffffffffffffffffffffffffffffffffffffffff1916827bffffffffffffffffffffffffffffffffffffffffffffffffffffffff1916148061055c57507f5b5e139f000000000000000000000000000000000000000000000000000000007bffffffffffffffffffffffffffffffffffffffffffffffffffffffff1916827bffffffffffffffffffffffffffffffffffffffffffffffffffffffff1916145b8061056c575061056b82611311565b5b9050919050565b60606000805461058290612d9b565b80601f01602080910402602001604051908101604052809291908181526020018280546105ae90612d9b565b80156105fb5780601f106105d0576101008083540402835291602001916105fb565b820191906000526020600020905b8154815290600101906020018083116105de57829003601f168201915b5050505050905090565b60006106108261137b565b61064f576040517f08c379a000000000000000000000000000000000000000000000000000000000815260040161064690612ac5565b60405180910390fd5b6004600083815260200190815260200160002060009054906101000a900473ffffffffffffffffffffffffffffffffffffffff169050919050565b600061069582610886565b90508073ffffffffffffffffffffffffffffffffffffffff168373ffffffffffffffffffffffffffffffffffffffff161415610706576040517f08c379a00000000000000000000000000000000000000000000000000000000081526004016106fd90612b05565b60405180910390fd5b8073ffffffffffffffffffffffffffffffffffffffff166107256113e7565b73ffffffffffffffffffffffffffffffffffffffff16148061075457506107538161074e6113e7565b61105a565b5b610793576040517f08c379a000000000000000000000000000000000000000000000000000000000815260040161078a90612a05565b60405180910390fd5b61079d83836113ef565b505050565b6007818051602081018201805184825260208301602085012081835280955050505050506000915090505481565b6107e16107db6113e7565b826114a8565b610820576040517f08c379a000000000000000000000000000000000000000000000000000000000815260040161081790612b25565b60405180910390fd5b61082b838383611586565b505050565b61084b83838360405180602001604052806000815250610cc9565b505050565b6009818051602081018201805184825260208301602085012081835280955050505050506000915054906101000a900460ff1681565b6000806002600084815260200190815260200160002060009054906101000a900473ffffffffffffffffffffffffffffffffffffffff169050600073ffffffffffffffffffffffffffffffffffffffff168173ffffffffffffffffffffffffffffffffffffffff16141561092f576040517f08c379a000000000000000000000000000000000000000000000000000000000815260040161092690612a45565b60405180910390fd5b80915050919050565b60008073ffffffffffffffffffffffffffffffffffffffff168273ffffffffffffffffffffffffffffffffffffffff1614156109a9576040517f08c379a00000000000000000000000000000000000000000000000000000000081526004016109a090612a25565b60405180910390fd5b600360008373ffffffffffffffffffffffffffffffffffffffff1673ffffffffffffffffffffffffffffffffffffffff168152602001908152602001600020549050919050565b600982604051610a009190612826565b908152602001604051809103902060009054906101000a900460ff1615610a5c576040517f08c379a0000000000000000000000000000000000000000000000000000000008152600401610a5390612a65565b60405180910390fd5b600682908060018154018082558091505060019003906000526020600020016000909190919091509080519060200190610a97929190611fe9565b5060006006805490509050610aac33826117ed565b81600884604051610abd9190612826565b90815260200160405180910390209080519060200190610ade929190611fe9565b5080600784604051610af09190612826565b9081526020016040518091039020819055506001600984604051610b149190612826565b908152602001604051809103902060006101000a81548160ff0219169083151502179055507fe45a7bd19716eabe36601ab8a44450a001dcf39029409802b230082ca08b443483604051610b6891906128e3565b60405180910390a1505050565b606060018054610b8490612d9b565b80601f0160208091040260200160405190810160405280929190818152602001828054610bb090612d9b565b8015610bfd5780601f10610bd257610100808354040283529160200191610bfd565b820191906000526020600020905b815481529060010190602001808311610be057829003601f168201915b5050505050905090565b610c19610c126113e7565b83836119c7565b5050565b60068181548110610c2d57600080fd5b906000526020600020016000915090508054610c4890612d9b565b80601f0160208091040260200160405190810160405280929190818152602001828054610c7490612d9b565b8015610cc15780601f10610c9657610100808354040283529160200191610cc1565b820191906000526020600020905b815481529060010190602001808311610ca457829003601f168201915b505050505081565b610cda610cd46113e7565b836114a8565b610d19576040517f08c379a0000000000000000000000000000000000000000000000000000000008152600401610d1090612b25565b60405180910390fd5b610d2584848484611b34565b50505050565b6060600982604051610d3d9190612826565b908152602001604051809103902060009054906101000a900460ff16610d98576040517f08c379a0000000000000000000000000000000000000000000000000000000008152600401610d8f90612aa5565b60405180910390fd5b600882604051610da89190612826565b90815260200160405180910390208054610dc190612d9b565b80601f0160208091040260200160405190810160405280929190818152602001828054610ded90612d9b565b8015610e3a5780601f10610e0f57610100808354040283529160200191610e3a565b820191906000526020600020905b815481529060010190602001808311610e1d57829003601f168201915b50505050509050919050565b6060610e518261137b565b610e90576040517f08c379a0000000000000000000000000000000000000000000000000000000008152600401610e8790612ae5565b60405180910390fd5b6000610e9a611b90565b90506000815111610eba5760405180602001604052806000815250610ee5565b80610ec484611ba7565b604051602001610ed592919061283d565b6040516020818303038152906040525b915050919050565b600981604051610efd9190612826565b908152602001604051809103902060009054906101000a900460ff16610f58576040517f08c379a0000000000000000000000000000000000000000000000000000000008152600401610f4f90612aa5565b60405180910390fd5b3373ffffffffffffffffffffffffffffffffffffffff16610f96600783604051610f829190612826565b908152602001604051809103902054610886565b73ffffffffffffffffffffffffffffffffffffffff1614610fec576040517f08c379a0000000000000000000000000000000000000000000000000000000008152600401610fe390612945565b60405180910390fd5b611013600782604051610fff9190612826565b908152602001604051809103902054611d08565b7f8995cdb6bf2110f1c98bd7e40de2b936043ff6a855f056e4ff4f10cfb734a9f38160405161104291906128e3565b60405180910390a150565b6000600680549050905090565b6000600560008473ffffffffffffffffffffffffffffffffffffffff1673ffffffffffffffffffffffffffffffffffffffff16815260200190815260200160002060008373ffffffffffffffffffffffffffffffffffffffff1673ffffffffffffffffffffffffffffffffffffffff16815260200190815260200160002060009054906101000a900460ff16905092915050565b600881805160208101820180518482526020830160208501208183528095505050505050600091509050805461112390612d9b565b80601f016020809104026020016040519081016040528092919081815260200182805461114f90612d9b565b801561119c5780601f106111715761010080835404028352916020019161119c565b820191906000526020600020905b81548152906001019060200180831161117f57829003601f168201915b505050505081565b6009826040516111b49190612826565b908152602001604051809103902060009054906101000a900460ff1661120f576040517f08c379a000000000000000000000000000000000000000000000000000000000815260040161120690612aa5565b60405180910390fd5b3373ffffffffffffffffffffffffffffffffffffffff1661124d6007846040516112399190612826565b908152602001604051809103902054610886565b73ffffffffffffffffffffffffffffffffffffffff16146112a3576040517f08c379a000000000000000000000000000000000000000000000000000000000815260040161129a90612905565b60405180910390fd5b806008836040516112b49190612826565b908152602001604051809103902090805190602001906112d5929190611fe9565b507f6714407191569b7b9edd5db2d624b8e2281272e577950f0e87ca156570ffe9e48260405161130591906128e3565b60405180910390a15050565b60007f01ffc9a7000000000000000000000000000000000000000000000000000000007bffffffffffffffffffffffffffffffffffffffffffffffffffffffff1916827bffffffffffffffffffffffffffffffffffffffffffffffffffffffff1916149050919050565b60008073ffffffffffffffffffffffffffffffffffffffff166002600084815260200190815260200160002060009054906101000a900473ffffffffffffffffffffffffffffffffffffffff1673ffffffffffffffffffffffffffffffffffffffff1614159050919050565b600033905090565b816004600083815260200190815260200160002060006101000a81548173ffffffffffffffffffffffffffffffffffffffff021916908373ffffffffffffffffffffffffffffffffffffffff160217905550808273ffffffffffffffffffffffffffffffffffffffff1661146283610886565b73ffffffffffffffffffffffffffffffffffffffff167f8c5be1e5ebec7d5bd14f71427d1e84f3dd0314c0f7b2291e5b200ac8c7c3b92560405160405180910390a45050565b60006114b38261137b565b6114f2576040517f08c379a00000000000000000000000000000000000000000000000000000000081526004016114e9906129e5565b60405180910390fd5b60006114fd83610886565b90508073ffffffffffffffffffffffffffffffffffffffff168473ffffffffffffffffffffffffffffffffffffffff16148061156c57508373ffffffffffffffffffffffffffffffffffffffff1661155484610605565b73ffffffffffffffffffffffffffffffffffffffff16145b8061157d575061157c818561105a565b5b91505092915050565b8273ffffffffffffffffffffffffffffffffffffffff166115a682610886565b73ffffffffffffffffffffffffffffffffffffffff16146115fc576040517f08c379a00000000000000000000000000000000000000000000000000000000081526004016115f390612965565b60405180910390fd5b600073ffffffffffffffffffffffffffffffffffffffff168273ffffffffffffffffffffffffffffffffffffffff16141561166c576040517f08c379a0000000000000000000000000000000000000000000000000000000008152600401611663906129a5565b60405180910390fd5b611677838383611e25565b6116826000826113ef565b6001600360008573ffffffffffffffffffffffffffffffffffffffff1673ffffffffffffffffffffffffffffffffffffffff16815260200190815260200160002060008282546116d29190612cb1565b925050819055506001600360008473ffffffffffffffffffffffffffffffffffffffff1673ffffffffffffffffffffffffffffffffffffffff16815260200190815260200160002060008282546117299190612c2a565b92505081905550816002600083815260200190815260200160002060006101000a81548173ffffffffffffffffffffffffffffffffffffffff021916908373ffffffffffffffffffffffffffffffffffffffff160217905550808273ffffffffffffffffffffffffffffffffffffffff168473ffffffffffffffffffffffffffffffffffffffff167fddf252ad1be2c89b69c2b068fc378daa952ba7f163c4a11628f55a4df523b3ef60405160405180910390a46117e8838383611e2a565b505050565b600073ffffffffffffffffffffffffffffffffffffffff168273ffffffffffffffffffffffffffffffffffffffff16141561185d576040517f08c379a000000000000000000000000000000000000000000000000000000000815260040161185490612a85565b60405180910390fd5b6118668161137b565b156118a6576040517f08c379a000000000000000000000000000000000000000000000000000000000815260040161189d90612985565b60405180910390fd5b6118b260008383611e25565b6001600360008473ffffffffffffffffffffffffffffffffffffffff1673ffffffffffffffffffffffffffffffffffffffff16815260200190815260200160002060008282546119029190612c2a565b92505081905550816002600083815260200190815260200160002060006101000a81548173ffffffffffffffffffffffffffffffffffffffff021916908373ffffffffffffffffffffffffffffffffffffffff160217905550808273ffffffffffffffffffffffffffffffffffffffff16600073ffffffffffffffffffffffffffffffffffffffff167fddf252ad1be2c89b69c2b068fc378daa952ba7f163c4a11628f55a4df523b3ef60405160405180910390a46119c360008383611e2a565b5050565b8173ffffffffffffffffffffffffffffffffffffffff168373ffffffffffffffffffffffffffffffffffffffff161415611a36576040517f08c379a0000000000000000000000000000000000000000000000000000000008152600401611a2d906129c5565b60405180910390fd5b80600560008573ffffffffffffffffffffffffffffffffffffffff1673ffffffffffffffffffffffffffffffffffffffff16815260200190815260200160002060008473ffffffffffffffffffffffffffffffffffffffff1673ffffffffffffffffffffffffffffffffffffffff16815260200190815260200160002060006101000a81548160ff0219169083151502179055508173ffffffffffffffffffffffffffffffffffffffff168373ffffffffffffffffffffffffffffffffffffffff167f17307eab39ab6107e8899845ad3d59bd9653f200f220920489ca2b5937696c3183604051611b2791906128c8565b60405180910390a3505050565b611b3f848484611586565b611b4b84848484611e2f565b611b8a576040517f08c379a0000000000000000000000000000000000000000000000000000000008152600401611b8190612925565b60405180910390fd5b50505050565b606060405180602001604052806000815250905090565b60606000821415611bef576040518060400160405280600181526020017f30000000000000000000000000000000000000000000000000000000000000008152509050611d03565b600082905060005b60008214611c21578080611c0a90612dfe565b915050600a82611c1a9190612c80565b9150611bf7565b60008167ffffffffffffffff811115611c3d57611c3c612f34565b5b6040519080825280601f01601f191660200182016040528015611c6f5781602001600182028036833780820191505090505b5090505b60008514611cfc57600182611c889190612cb1565b9150600a85611c979190612e47565b6030611ca39190612c2a565b60f81b818381518110611cb957611cb8612f05565b5b60200101907effffffffffffffffffffffffffffffffffffffffffffffffffffffffffffff1916908160001a905350600a85611cf59190612c80565b9450611c73565b8093505050505b919050565b6000611d1382610886565b9050611d2181600084611e25565b611d2c6000836113ef565b6001600360008373ffffffffffffffffffffffffffffffffffffffff1673ffffffffffffffffffffffffffffffffffffffff1681526020019081526020016000206000828254611d7c9190612cb1565b925050819055506002600083815260200190815260200160002060006101000a81549073ffffffffffffffffffffffffffffffffffffffff021916905581600073ffffffffffffffffffffffffffffffffffffffff168273ffffffffffffffffffffffffffffffffffffffff167fddf252ad1be2c89b69c2b068fc378daa952ba7f163c4a11628f55a4df523b3ef60405160405180910390a4611e2181600084611e2a565b5050565b505050565b505050565b6000611e508473ffffffffffffffffffffffffffffffffffffffff16611fc6565b15611fb9578373ffffffffffffffffffffffffffffffffffffffff1663150b7a02611e796113e7565b8786866040518563ffffffff1660e01b8152600401611e9b949392919061287c565b602060405180830381600087803b158015611eb557600080fd5b505af1925050508015611ee657506040513d601f19601f82011682018060405250810190611ee391906123c5565b60015b611f69573d8060008114611f16576040519150601f19603f3d011682016040523d82523d6000602084013e611f1b565b606091505b50600081511415611f61576040517f08c379a0000000000000000000000000000000000000000000000000000000008152600401611f5890612925565b60405180910390fd5b805181602001fd5b63150b7a0260e01b7bffffffffffffffffffffffffffffffffffffffffffffffffffffffff1916817bffffffffffffffffffffffffffffffffffffffffffffffffffffffff191614915050611fbe565b600190505b949350505050565b6000808273ffffffffffffffffffffffffffffffffffffffff163b119050919050565b828054611ff590612d9b565b90600052602060002090601f016020900481019282612017576000855561205e565b82601f1061203057805160ff191683800117855561205e565b8280016001018555821561205e579182015b8281111561205d578251825591602001919060010190612042565b5b50905061206b919061206f565b5090565b5b80821115612088576000816000905550600101612070565b5090565b600061209f61209a84612b85565b612b60565b9050828152602081018484840111156120bb576120ba612f68565b5b6120c6848285612d59565b509392505050565b60006120e16120dc84612bb6565b612b60565b9050828152602081018484840111156120fd576120fc612f68565b5b612108848285612d59565b509392505050565b60008135905061211f81613458565b92915050565b6000813590506121348161346f565b92915050565b60008135905061214981613486565b92915050565b60008151905061215e81613486565b92915050565b600082601f83011261217957612178612f63565b5b813561218984826020860161208c565b91505092915050565b600082601f8301126121a7576121a6612f63565b5b81356121b78482602086016120ce565b91505092915050565b6000813590506121cf8161349d565b92915050565b6000602082840312156121eb576121ea612f72565b5b60006121f984828501612110565b91505092915050565b6000806040838503121561221957612218612f72565b5b600061222785828601612110565b925050602061223885828601612110565b9150509250929050565b60008060006060848603121561225b5761225a612f72565b5b600061226986828701612110565b935050602061227a86828701612110565b925050604061228b868287016121c0565b9150509250925092565b600080600080608085870312156122af576122ae612f72565b5b60006122bd87828801612110565b94505060206122ce87828801612110565b93505060406122df878288016121c0565b925050606085013567ffffffffffffffff811115612300576122ff612f6d565b5b61230c87828801612164565b91505092959194509250565b6000806040838503121561232f5761232e612f72565b5b600061233d85828601612110565b925050602061234e85828601612125565b9150509250929050565b6000806040838503121561236f5761236e612f72565b5b600061237d85828601612110565b925050602061238e858286016121c0565b9150509250929050565b6000602082840312156123ae576123ad612f72565b5b60006123bc8482850161213a565b91505092915050565b6000602082840312156123db576123da612f72565b5b60006123e98482850161214f565b91505092915050565b60006020828403121561240857612407612f72565b5b600082013567ffffffffffffffff81111561242657612425612f6d565b5b61243284828501612192565b91505092915050565b6000806040838503121561245257612451612f72565b5b600083013567ffffffffffffffff8111156124705761246f612f6d565b5b61247c85828601612192565b925050602083013567ffffffffffffffff81111561249d5761249c612f6d565b5b6124a985828601612192565b9150509250929050565b6000602082840312156124c9576124c8612f72565b5b60006124d7848285016121c0565b91505092915050565b6124e981612ce5565b82525050565b6124f881612cf7565b82525050565b600061250982612be7565b6125138185612bfd565b9350612523818560208601612d68565b61252c81612f77565b840191505092915050565b600061254282612bf2565b61254c8185612c0e565b935061255c818560208601612d68565b61256581612f77565b840191505092915050565b600061257b82612bf2565b6125858185612c1f565b9350612595818560208601612d68565b80840191505092915050565b60006125ae602a83612c0e565b91506125b982612f88565b604082019050919050565b60006125d1603283612c0e565b91506125dc82612fd7565b604082019050919050565b60006125f4602b83612c0e565b91506125ff82613026565b604082019050919050565b6000612617602583612c0e565b915061262282613075565b604082019050919050565b600061263a601c83612c0e565b9150612645826130c4565b602082019050919050565b600061265d602483612c0e565b9150612668826130ed565b604082019050919050565b6000612680601983612c0e565b915061268b8261313c565b602082019050919050565b60006126a3602c83612c0e565b91506126ae82613165565b604082019050919050565b60006126c6603883612c0e565b91506126d1826131b4565b604082019050919050565b60006126e9602a83612c0e565b91506126f482613203565b604082019050919050565b600061270c602983612c0e565b915061271782613252565b604082019050919050565b600061272f601583612c0e565b915061273a826132a1565b602082019050919050565b6000612752602083612c0e565b915061275d826132ca565b602082019050919050565b6000612775601583612c0e565b9150612780826132f3565b602082019050919050565b6000612798602c83612c0e565b91506127a38261331c565b604082019050919050565b60006127bb602f83612c0e565b91506127c68261336b565b604082019050919050565b60006127de602183612c0e565b91506127e9826133ba565b604082019050919050565b6000612801603183612c0e565b915061280c82613409565b604082019050919050565b61282081612d4f565b82525050565b60006128328284612570565b915081905092915050565b60006128498285612570565b91506128558284612570565b91508190509392505050565b600060208201905061287660008301846124e0565b92915050565b600060808201905061289160008301876124e0565b61289e60208301866124e0565b6128ab6040830185612817565b81810360608301526128bd81846124fe565b905095945050505050565b60006020820190506128dd60008301846124ef565b92915050565b600060208201905081810360008301526128fd8184612537565b905092915050565b6000602082019050818103600083015261291e816125a1565b9050919050565b6000602082019050818103600083015261293e816125c4565b9050919050565b6000602082019050818103600083015261295e816125e7565b9050919050565b6000602082019050818103600083015261297e8161260a565b9050919050565b6000602082019050818103600083015261299e8161262d565b9050919050565b600060208201905081810360008301526129be81612650565b9050919050565b600060208201905081810360008301526129de81612673565b9050919050565b600060208201905081810360008301526129fe81612696565b9050919050565b60006020820190508181036000830152612a1e816126b9565b9050919050565b60006020820190508181036000830152612a3e816126dc565b9050919050565b60006020820190508181036000830152612a5e816126ff565b9050919050565b60006020820190508181036000830152612a7e81612722565b9050919050565b60006020820190508181036000830152612a9e81612745565b9050919050565b60006020820190508181036000830152612abe81612768565b9050919050565b60006020820190508181036000830152612ade8161278b565b9050919050565b60006020820190508181036000830152612afe816127ae565b9050919050565b60006020820190508181036000830152612b1e816127d1565b9050919050565b60006020820190508181036000830152612b3e816127f4565b9050919050565b6000602082019050612b5a6000830184612817565b92915050565b6000612b6a612b7b565b9050612b768282612dcd565b919050565b6000604051905090565b600067ffffffffffffffff821115612ba057612b9f612f34565b5b612ba982612f77565b9050602081019050919050565b600067ffffffffffffffff821115612bd157612bd0612f34565b5b612bda82612f77565b9050602081019050919050565b600081519050919050565b600081519050919050565b600082825260208201905092915050565b600082825260208201905092915050565b600081905092915050565b6000612c3582612d4f565b9150612c4083612d4f565b9250827fffffffffffffffffffffffffffffffffffffffffffffffffffffffffffffffff03821115612c7557612c74612e78565b5b828201905092915050565b6000612c8b82612d4f565b9150612c9683612d4f565b925082612ca657612ca5612ea7565b5b828204905092915050565b6000612cbc82612d4f565b9150612cc783612d4f565b925082821015612cda57612cd9612e78565b5b828203905092915050565b6000612cf082612d2f565b9050919050565b60008115159050919050565b60007fffffffff0000000000000000000000000000000000000000000000000000000082169050919050565b600073ffffffffffffffffffffffffffffffffffffffff82169050919050565b6000819050919050565b82818337600083830152505050565b60005b83811015612d86578082015181840152602081019050612d6b565b83811115612d95576000848401525b50505050565b60006002820490506001821680612db357607f821691505b60208210811415612dc757612dc6612ed6565b5b50919050565b612dd682612f77565b810181811067ffffffffffffffff82111715612df557612df4612f34565b5b80604052505050565b6000612e0982612d4f565b91507fffffffffffffffffffffffffffffffffffffffffffffffffffffffffffffffff821415612e3c57612e3b612e78565b5b600182019050919050565b6000612e5282612d4f565b9150612e5d83612d4f565b925082612e6d57612e6c612ea7565b5b828206905092915050565b7f4e487b7100000000000000000000000000000000000000000000000000000000600052601160045260246000fd5b7f4e487b7100000000000000000000000000000000000000000000000000000000600052601260045260246000fd5b7f4e487b7100000000000000000000000000000000000000000000000000000000600052602260045260246000fd5b7f4e487b7100000000000000000000000000000000000000000000000000000000600052603260045260246000fd5b7f4e487b7100000000000000000000000000000000000000000000000000000000600052604160045260246000fd5b600080fd5b600080fd5b600080fd5b600080fd5b6000601f19601f8301169050919050565b7f4f6e6c792074686520746f6b656e206f776e65722063616e207570646174652060008201527f74686520746f6b656e2e00000000000000000000000000000000000000000000602082015250565b7f4552433732313a207472616e7366657220746f206e6f6e20455243373231526560008201527f63656976657220696d706c656d656e7465720000000000000000000000000000602082015250565b7f4f6e6c792074686520746f6b656e206f776e65722063616e2064657374726f7960008201527f2074686520746f6b656e2e000000000000000000000000000000000000000000602082015250565b7f4552433732313a207472616e736665722066726f6d20696e636f72726563742060008201527f6f776e6572000000000000000000000000000000000000000000000000000000602082015250565b7f4552433732313a20746f6b656e20616c7265616479206d696e74656400000000600082015250565b7f4552433732313a207472616e7366657220746f20746865207a65726f2061646460008201527f7265737300000000000000000000000000000000000000000000000000000000602082015250565b7f4552433732313a20617070726f766520746f2063616c6c657200000000000000600082015250565b7f4552433732313a206f70657261746f7220717565727920666f72206e6f6e657860008201527f697374656e7420746f6b656e0000000000000000000000000000000000000000602082015250565b7f4552433732313a20617070726f76652063616c6c6572206973206e6f74206f7760008201527f6e6572206e6f7220617070726f76656420666f7220616c6c0000000000000000602082015250565b7f4552433732313a2062616c616e636520717565727920666f7220746865207a6560008201527f726f206164647265737300000000000000000000000000000000000000000000602082015250565b7f4552433732313a206f776e657220717565727920666f72206e6f6e657869737460008201527f656e7420746f6b656e0000000000000000000000000000000000000000000000602082015250565b7f546f6b656e20616c7265616479206578697374732e0000000000000000000000600082015250565b7f4552433732313a206d696e7420746f20746865207a65726f2061646472657373600082015250565b7f546f6b656e20646f6573206e6f742065786973742e0000000000000000000000600082015250565b7f4552433732313a20617070726f76656420717565727920666f72206e6f6e657860008201527f697374656e7420746f6b656e0000000000000000000000000000000000000000602082015250565b7f4552433732314d657461646174613a2055524920717565727920666f72206e6f60008201527f6e6578697374656e7420746f6b656e0000000000000000000000000000000000602082015250565b7f4552433732313a20617070726f76616c20746f2063757272656e74206f776e6560008201527f7200000000000000000000000000000000000000000000000000000000000000602082015250565b7f4552433732313a207472616e736665722063616c6c6572206973206e6f74206f60008201527f776e6572206e6f7220617070726f766564000000000000000000000000000000602082015250565b61346181612ce5565b811461346c57600080fd5b50565b61347881612cf7565b811461348357600080fd5b50565b61348f81612d03565b811461349a57600080fd5b50565b6134a681612d4f565b81146134b157600080fd5b5056fea26469706673582212207d614569e321f9ca1eac5ab758c57a2625abea4ff3bc29379e2b2eca73132da764736f6c63430008070033",
  "immutableReferences": {},
  "source": "pragma solidity ^0.8.0;\n\nimport \"../node_modules/@openzeppelin/contracts/token/ERC721/ERC721.sol\";\n\ncontract Moz is ERC721 {\n    string[] public mozIds;\n\n    mapping(string => uint256) public tokenIdentifier; // mapping of tokenid => id in uint256\n    mapping(string => string) public mozData; // mapping of tokenid => hash string of all metadata\n    mapping(string => bool) public tokenExists;\n\n    event NewTokenMinted(string tokenid);\n    event TokenUpdated(string tokenid);\n    event TokenDestroyed(string tokenid);\n\n    constructor() public ERC721(\"Mozarrella Bar\", \"MOZ\") {}\n\n    function mint(string memory _tokenid, string memory _metadata) public {\n        require(!tokenExists[_tokenid], \"Token already exists.\");\n        mozIds.push(_tokenid);\n        uint256 id = mozIds.length;\n        _mint(msg.sender, id);\n        mozData[_tokenid] = _metadata;\n        tokenIdentifier[_tokenid] = id;\n        tokenExists[_tokenid] = true;\n\n        emit NewTokenMinted(_tokenid);\n    }\n\n    function update(string memory _tokenid, string memory _metadata) public {\n        require(tokenExists[_tokenid], \"Token does not exist.\");\n        require(\n            ownerOf(tokenIdentifier[_tokenid]) == address(msg.sender),\n            \"Only the token owner can update the token.\"\n        );\n        mozData[_tokenid] = _metadata;\n\n        emit TokenUpdated(_tokenid);\n    }\n\n    function burn(string memory _tokenid) public {\n        require(tokenExists[_tokenid], \"Token does not exist.\");\n        require(\n            ownerOf(tokenIdentifier[_tokenid]) == address(msg.sender),\n            \"Only the token owner can destroy the token.\"\n        );\n\n        _burn(tokenIdentifier[_tokenid]);\n\n        emit TokenDestroyed(_tokenid);\n    }\n\n    function countToken() public view returns (uint256) {\n        return mozIds.length;\n    }\n\n    function queryToken(string memory _tokenid)\n        public\n        view\n        returns (string memory)\n    {\n        require(tokenExists[_tokenid], \"Token does not exist.\");\n        return mozData[_tokenid];\n    }\n}\n",
  "sourcePath": "/home/yih/Documents/dev/tokencontract/contracts/Moz.sol",
  "compiler": {
    "name": "solc",
    "version": "0.8.7+commit.e28d00a7.Emscripten.clang"
  },
  "schemaVersion": "3.4.1",
  "updatedAt": "2022-03-27T23:06:33.639Z",
  "networkType": "ethereum",
  "devdoc": {
    "kind": "dev",
    "methods": {
      "approve(address,uint256)": {
        "details": "See {IERC721-approve}."
      },
      "balanceOf(address)": {
        "details": "See {IERC721-balanceOf}."
      },
      "getApproved(uint256)": {
        "details": "See {IERC721-getApproved}."
      },
      "isApprovedForAll(address,address)": {
        "details": "See {IERC721-isApprovedForAll}."
      },
      "name()": {
        "details": "See {IERC721Metadata-name}."
      },
      "ownerOf(uint256)": {
        "details": "See {IERC721-ownerOf}."
      },
      "safeTransferFrom(address,address,uint256)": {
        "details": "See {IERC721-safeTransferFrom}."
      },
      "safeTransferFrom(address,address,uint256,bytes)": {
        "details": "See {IERC721-safeTransferFrom}."
      },
      "setApprovalForAll(address,bool)": {
        "details": "See {IERC721-setApprovalForAll}."
      },
      "supportsInterface(bytes4)": {
        "details": "See {IERC165-supportsInterface}."
      },
      "symbol()": {
        "details": "See {IERC721Metadata-symbol}."
      },
      "tokenURI(uint256)": {
        "details": "See {IERC721Metadata-tokenURI}."
      },
      "transferFrom(address,address,uint256)": {
        "details": "See {IERC721-transferFrom}."
      }
    },
    "version": 1
  },
  "userdoc": {
    "kind": "user",
    "methods": {},
    "version": 1
  }
}