{
  "contractName": "Moz",
  "abi": [
    {
      "inputs": [],
      "stateMutability": "nonpayable",
      "type": "constructor"
    },
    {
      "anonymous": false,
      "inputs": [
        {
          "indexed": true,
          "internalType": "address",
          "name": "owner",
          "type": "address"
        },
        {
          "indexed": true,
          "internalType": "address",
          "name": "approved",
          "type": "address"
        },
        {
          "indexed": true,
          "internalType": "uint256",
          "name": "tokenId",
          "type": "uint256"
        }
      ],
      "name": "Approval",
      "type": "event"
    },
    {
      "anonymous": false,
      "inputs": [
        {
          "indexed": true,
          "internalType": "address",
          "name": "owner",
          "type": "address"
        },
        {
          "indexed": true,
          "internalType": "address",
          "name": "operator",
          "type": "address"
        },
        {
          "indexed": false,
          "internalType": "bool",
          "name": "approved",
          "type": "bool"
        }
      ],
      "name": "ApprovalForAll",
      "type": "event"
    },
    {
      "anonymous": false,
      "inputs": [
        {
          "indexed": false,
          "internalType": "string",
          "name": "tokenid",
          "type": "string"
        }
      ],
      "name": "NewTokenMinted",
      "type": "event"
    },
    {
      "anonymous": false,
      "inputs": [
        {
          "indexed": false,
          "internalType": "string",
          "name": "tokenid",
          "type": "string"
        }
      ],
      "name": "TokenDestroyed",
      "type": "event"
    },
    {
      "anonymous": false,
      "inputs": [
        {
          "indexed": false,
          "internalType": "string",
          "name": "tokenid",
          "type": "string"
        }
      ],
      "name": "TokenUpdated",
      "type": "event"
    },
    {
      "anonymous": false,
      "inputs": [
        {
          "indexed": true,
          "internalType": "address",
          "name": "from",
          "type": "address"
        },
        {
          "indexed": true,
          "internalType": "address",
          "name": "to",
          "type": "address"
        },
        {
          "indexed": true,
          "internalType": "uint256",
          "name": "tokenId",
          "type": "uint256"
        }
      ],
      "name": "Transfer",
      "type": "event"
    },
    {
      "inputs": [
        {
          "internalType": "address",
          "name": "to",
          "type": "address"
        },
        {
          "internalType": "uint256",
          "name": "tokenId",
          "type": "uint256"
        }
      ],
      "name": "approve",
      "outputs": [],
      "stateMutability": "nonpayable",
      "type": "function"
    },
    {
      "inputs": [
        {
          "internalType": "address",
          "name": "owner",
          "type": "address"
        }
      ],
      "name": "balanceOf",
      "outputs": [
        {
          "internalType": "uint256",
          "name": "",
          "type": "uint256"
        }
      ],
      "stateMutability": "view",
      "type": "function"
    },
    {
      "inputs": [
        {
          "internalType": "uint256",
          "name": "tokenId",
          "type": "uint256"
        }
      ],
      "name": "getApproved",
      "outputs": [
        {
          "internalType": "address",
          "name": "",
          "type": "address"
        }
      ],
      "stateMutability": "view",
      "type": "function"
    },
    {
      "inputs": [
        {
          "internalType": "address",
          "name": "owner",
          "type": "address"
        },
        {
          "internalType": "address",
          "name": "operator",
          "type": "address"
        }
      ],
      "name": "isApprovedForAll",
      "outputs": [
        {
          "internalType": "bool",
          "name": "",
          "type": "bool"
        }
      ],
      "stateMutability": "view",
      "type": "function"
    },
    {
      "inputs": [
        {
          "internalType": "string",
          "name": "",
          "type": "string"
        }
      ],
      "name": "mozData",
      "outputs": [
        {
          "internalType": "string",
          "name": "",
          "type": "string"
        }
      ],
      "stateMutability": "view",
      "type": "function"
    },
    {
      "inputs": [
        {
          "internalType": "uint256",
          "name": "",
          "type": "uint256"
        }
      ],
      "name": "mozIds",
      "outputs": [
        {
          "internalType": "string",
          "name": "",
          "type": "string"
        }
      ],
      "stateMutability": "view",
      "type": "function"
    },
    {
      "inputs": [],
      "name": "name",
      "outputs": [
        {
          "internalType": "string",
          "name": "",
          "type": "string"
        }
      ],
      "stateMutability": "view",
      "type": "function"
    },
    {
      "inputs": [
        {
          "internalType": "uint256",
          "name": "tokenId",
          "type": "uint256"
        }
      ],
      "name": "ownerOf",
      "outputs": [
        {
          "internalType": "address",
          "name": "",
          "type": "address"
        }
      ],
      "stateMutability": "view",
      "type": "function"
    },
    {
      "inputs": [
        {
          "internalType": "address",
          "name": "from",
          "type": "address"
        },
        {
          "internalType": "address",
          "name": "to",
          "type": "address"
        },
        {
          "internalType": "uint256",
          "name": "tokenId",
          "type": "uint256"
        }
      ],
      "name": "safeTransferFrom",
      "outputs": [],
      "stateMutability": "nonpayable",
      "type": "function"
    },
    {
      "inputs": [
        {
          "internalType": "address",
          "name": "from",
          "type": "address"
        },
        {
          "internalType": "address",
          "name": "to",
          "type": "address"
        },
        {
          "internalType": "uint256",
          "name": "tokenId",
          "type": "uint256"
        },
        {
          "internalType": "bytes",
          "name": "data",
          "type": "bytes"
        }
      ],
      "name": "safeTransferFrom",
      "outputs": [],
      "stateMutability": "nonpayable",
      "type": "function"
    },
    {
      "inputs": [
        {
          "internalType": "address",
          "name": "operator",
          "type": "address"
        },
        {
          "internalType": "bool",
          "name": "approved",
          "type": "bool"
        }
      ],
      "name": "setApprovalForAll",
      "outputs": [],
      "stateMutability": "nonpayable",
      "type": "function"
    },
    {
      "inputs": [
        {
          "internalType": "bytes4",
          "name": "interfaceId",
          "type": "bytes4"
        }
      ],
      "name": "supportsInterface",
      "outputs": [
        {
          "internalType": "bool",
          "name": "",
          "type": "bool"
        }
      ],
      "stateMutability": "view",
      "type": "function"
    },
    {
      "inputs": [],
      "name": "symbol",
      "outputs": [
        {
          "internalType": "string",
          "name": "",
          "type": "string"
        }
      ],
      "stateMutability": "view",
      "type": "function"
    },
    {
      "inputs": [
        {
          "internalType": "string",
          "name": "",
          "type": "string"
        }
      ],
      "name": "tokenExists",
      "outputs": [
        {
          "internalType": "bool",
          "name": "",
          "type": "bool"
        }
      ],
      "stateMutability": "view",
      "type": "function"
    },
    {
      "inputs": [
        {
          "internalType": "string",
          "name": "",
          "type": "string"
        }
      ],
      "name": "tokenIdentifier",
      "outputs": [
        {
          "internalType": "uint256",
          "name": "",
          "type": "uint256"
        }
      ],
      "stateMutability": "view",
      "type": "function"
    },
    {
      "inputs": [
        {
          "internalType": "uint256",
          "name": "tokenId",
          "type": "uint256"
        }
      ],
      "name": "tokenURI",
      "outputs": [
        {
          "internalType": "string",
          "name": "",
          "type": "string"
        }
      ],
      "stateMutability": "view",
      "type": "function"
    },
    {
      "inputs": [
        {
          "internalType": "address",
          "name": "from",
          "type": "address"
        },
        {
          "internalType": "address",
          "name": "to",
          "type": "address"
        },
        {
          "internalType": "uint256",
          "name": "tokenId",
          "type": "uint256"
        }
      ],
      "name": "transferFrom",
      "outputs": [],
      "stateMutability": "nonpayable",
      "type": "function"
    },
    {
      "inputs": [
        {
          "internalType": "string",
          "name": "_tokenid",
          "type": "string"
        },
        {
          "internalType": "string",
          "name": "_metadata",
          "type": "string"
        }
      ],
      "name": "mint",
      "outputs": [],
      "stateMutability": "nonpayable",
      "type": "function"
    },
    {
      "inputs": [
        {
          "internalType": "string",
          "name": "_tokenid",
          "type": "string"
        },
        {
          "internalType": "string",
          "name": "_metadata",
          "type": "string"
        }
      ],
      "name": "update",
      "outputs": [],
      "stateMutability": "nonpayable",
      "type": "function"
    },
    {
      "inputs": [
        {
          "internalType": "string",
          "name": "_tokenid",
          "type": "string"
        }
      ],
      "name": "burn",
      "outputs": [],
      "stateMutability": "nonpayable",
      "type": "function"
    },
    {
      "inputs": [],
      "name": "countToken",
      "outputs": [
        {
          "internalType": "uint256",
          "name": "",
          "type": "uint256"
        }
      ],
      "stateMutability": "view",
      "type": "function"
    },
    {
      "inputs": [
        {
          "internalType": "string",
          "name": "_tokenid",
          "type": "string"
        }
      ],
      "name": "queryToken",
      "outputs": [
        {
          "internalType": "string",
          "name": "",
          "type": "string"
        }
      ],
      "stateMutability": "view",
      "type": "function"
    }
  ],
  "bytecode": "0x60806040523480156200001157600080fd5b506040518060400160405280600e81526020017f4d6f7a617272656c6c61204261720000000000000000000000000000000000008152506040518060400160405280600381526020017f4d4f5a0000000000000000000000000000000000000000000000000000000000815250816000908051906020019062000096929190620000b8565b508060019080519060200190620000af929190620000b8565b505050620001cd565b828054620000c69062000168565b90600052602060002090601f016020900481019282620000ea576000855562000136565b82601f106200010557805160ff191683800117855562000136565b8280016001018555821562000136579182015b828111156200013557825182559160200191906001019062000118565b5b50905062000145919062000149565b5090565b5b80821115620001645760008160009055506001016200014a565b5090565b600060028204905060018216806200018157607f821691505b602082108114156200019857620001976200019e565b5b50919050565b7f4e487b7100000000000000000000000000000000000000000000000000000000600052602260045260246000fd5b61329280620001dd6000396000f3fe608060405234801561001057600080fd5b50600436106101425760003560e01c806395d89b41116100b8578063c87b56dd1161007c578063c87b56dd146103ab578063dafa1d2d146103db578063e7a81c55146103f7578063e985e9c514610415578063ef5431ec14610445578063f4c84d191461047557610142565b806395d89b41146102f5578063a22cb46514610313578063b07e25061461032f578063b88d4fde1461035f578063c5573d461461037b57610142565b806323b872dd1161010a57806323b872dd1461021157806342842e0e1461022d5780636059eae1146102495780636352211e1461027957806370a08231146102a95780638aa0fdad146102d957610142565b806301ffc9a71461014757806306fdde0314610177578063081812fc14610195578063095ea7b3146101c5578063119bc3bd146101e1575b600080fd5b610161600480360381019061015c919061231c565b610491565b60405161016e91906127e3565b60405180910390f35b61017f610573565b60405161018c91906127fe565b60405180910390f35b6101af60048036038101906101aa9190612437565b610605565b6040516101bc919061277c565b60405180910390f35b6101df60048036038101906101da91906122dc565b61064b565b005b6101fb60048036038101906101f69190612376565b610763565b6040516102089190612a00565b60405180910390f35b61022b600480360381019061022691906121c6565b610791565b005b610247600480360381019061024291906121c6565b6107f1565b005b610263600480360381019061025e9190612376565b610811565b60405161027091906127e3565b60405180910390f35b610293600480360381019061028e9190612437565b610847565b6040516102a0919061277c565b60405180910390f35b6102c360048036038101906102be9190612159565b6108f9565b6040516102d09190612a00565b60405180910390f35b6102f360048036038101906102ee91906123bf565b6109b1565b005b6102fd610b36565b60405161030a91906127fe565b60405180910390f35b61032d6004803603810190610328919061229c565b610bc8565b005b61034960048036038101906103449190612437565b610bde565b60405161035691906127fe565b60405180910390f35b61037960048036038101906103749190612219565b610c8a565b005b61039560048036038101906103909190612376565b610cec565b6040516103a291906127fe565b60405180910390f35b6103c560048036038101906103c09190612437565b610e07565b6040516103d291906127fe565b60405180910390f35b6103f560048036038101906103f09190612376565b610e6f565b005b6103ff610fcf565b60405161040c9190612a00565b60405180910390f35b61042f600480360381019061042a9190612186565b610fdc565b60405161043c91906127e3565b60405180910390f35b61045f600480360381019061045a9190612376565b611070565b60405161046c91906127fe565b60405180910390f35b61048f600480360381019061048a91906123bf565b611126565b005b60007f80ac58cd000000000000000000000000000000000000000000000000000000007bffffffffffffffffffffffffffffffffffffffffffffffffffffffff1916827bffffffffffffffffffffffffffffffffffffffffffffffffffffffff1916148061055c57507f5b5e139f000000000000000000000000000000000000000000000000000000007bffffffffffffffffffffffffffffffffffffffffffffffffffffffff1916827bffffffffffffffffffffffffffffffffffffffffffffffffffffffff1916145b8061056c575061056b82611293565b5b9050919050565b60606000805461058290612c56565b80601f01602080910402602001604051908101604052809291908181526020018280546105ae90612c56565b80156105fb5780601f106105d0576101008083540402835291602001916105fb565b820191906000526020600020905b8154815290600101906020018083116105de57829003601f168201915b5050505050905090565b6000610610826112fd565b6004600083815260200190815260200160002060009054906101000a900473ffffffffffffffffffffffffffffffffffffffff169050919050565b600061065682610847565b90508073ffffffffffffffffffffffffffffffffffffffff168373ffffffffffffffffffffffffffffffffffffffff1614156106c7576040517f08c379a00000000000000000000000000000000000000000000000000000000081526004016106be906129c0565b60405180910390fd5b8073ffffffffffffffffffffffffffffffffffffffff166106e6611348565b73ffffffffffffffffffffffffffffffffffffffff16148061071557506107148161070f611348565b610fdc565b5b610754576040517f08c379a000000000000000000000000000000000000000000000000000000000815260040161074b90612940565b60405180910390fd5b61075e8383611350565b505050565b6007818051602081018201805184825260208301602085012081835280955050505050506000915090505481565b6107a261079c611348565b82611409565b6107e1576040517f08c379a00000000000000000000000000000000000000000000000000000000081526004016107d8906129e0565b60405180910390fd5b6107ec83838361149e565b505050565b61080c83838360405180602001604052806000815250610c8a565b505050565b6009818051602081018201805184825260208301602085012081835280955050505050506000915054906101000a900460ff1681565b6000806002600084815260200190815260200160002060009054906101000a900473ffffffffffffffffffffffffffffffffffffffff169050600073ffffffffffffffffffffffffffffffffffffffff168173ffffffffffffffffffffffffffffffffffffffff1614156108f0576040517f08c379a00000000000000000000000000000000000000000000000000000000081526004016108e7906129a0565b60405180910390fd5b80915050919050565b60008073ffffffffffffffffffffffffffffffffffffffff168273ffffffffffffffffffffffffffffffffffffffff16141561096a576040517f08c379a000000000000000000000000000000000000000000000000000000000815260040161096190612900565b60405180910390fd5b600360008373ffffffffffffffffffffffffffffffffffffffff1673ffffffffffffffffffffffffffffffffffffffff168152602001908152602001600020549050919050565b6009826040516109c19190612741565b908152602001604051809103902060009054906101000a900460ff1615610a1d576040517f08c379a0000000000000000000000000000000000000000000000000000000008152600401610a1490612920565b60405180910390fd5b600682908060018154018082558091505060019003906000526020600020016000909190919091509080519060200190610a58929190611f6d565b5060006006805490509050610a6d3382611705565b81600884604051610a7e9190612741565b90815260200160405180910390209080519060200190610a9f929190611f6d565b5080600784604051610ab19190612741565b9081526020016040518091039020819055506001600984604051610ad59190612741565b908152602001604051809103902060006101000a81548160ff0219169083151502179055507fe45a7bd19716eabe36601ab8a44450a001dcf39029409802b230082ca08b443483604051610b2991906127fe565b60405180910390a1505050565b606060018054610b4590612c56565b80601f0160208091040260200160405190810160405280929190818152602001828054610b7190612c56565b8015610bbe5780601f10610b9357610100808354040283529160200191610bbe565b820191906000526020600020905b815481529060010190602001808311610ba157829003601f168201915b5050505050905090565b610bda610bd3611348565b83836118df565b5050565b60068181548110610bee57600080fd5b906000526020600020016000915090508054610c0990612c56565b80601f0160208091040260200160405190810160405280929190818152602001828054610c3590612c56565b8015610c825780601f10610c5757610100808354040283529160200191610c82565b820191906000526020600020905b815481529060010190602001808311610c6557829003601f168201915b505050505081565b610c9b610c95611348565b83611409565b610cda576040517f08c379a0000000000000000000000000000000000000000000000000000000008152600401610cd1906129e0565b60405180910390fd5b610ce684848484611a4c565b50505050565b6060600982604051610cfe9190612741565b908152602001604051809103902060009054906101000a900460ff16610d59576040517f08c379a0000000000000000000000000000000000000000000000000000000008152600401610d5090612980565b60405180910390fd5b600882604051610d699190612741565b90815260200160405180910390208054610d8290612c56565b80601f0160208091040260200160405190810160405280929190818152602001828054610dae90612c56565b8015610dfb5780601f10610dd057610100808354040283529160200191610dfb565b820191906000526020600020905b815481529060010190602001808311610dde57829003601f168201915b50505050509050919050565b6060610e12826112fd565b6000610e1c611aa8565b90506000815111610e3c5760405180602001604052806000815250610e67565b80610e4684611abf565b604051602001610e57929190612758565b6040516020818303038152906040525b915050919050565b600981604051610e7f9190612741565b908152602001604051809103902060009054906101000a900460ff16610eda576040517f08c379a0000000000000000000000000000000000000000000000000000000008152600401610ed190612980565b60405180910390fd5b3373ffffffffffffffffffffffffffffffffffffffff16610f18600783604051610f049190612741565b908152602001604051809103902054610847565b73ffffffffffffffffffffffffffffffffffffffff1614610f6e576040517f08c379a0000000000000000000000000000000000000000000000000000000008152600401610f6590612860565b60405180910390fd5b610f95600782604051610f819190612741565b908152602001604051809103902054611c20565b7f8995cdb6bf2110f1c98bd7e40de2b936043ff6a855f056e4ff4f10cfb734a9f381604051610fc491906127fe565b60405180910390a150565b6000600680549050905090565b6000600560008473ffffffffffffffffffffffffffffffffffffffff1673ffffffffffffffffffffffffffffffffffffffff16815260200190815260200160002060008373ffffffffffffffffffffffffffffffffffffffff1673ffffffffffffffffffffffffffffffffffffffff16815260200190815260200160002060009054906101000a900460ff16905092915050565b60088180516020810182018051848252602083016020850120818352809550505050505060009150905080546110a590612c56565b80601f01602080910402602001604051908101604052809291908181526020018280546110d190612c56565b801561111e5780601f106110f35761010080835404028352916020019161111e565b820191906000526020600020905b81548152906001019060200180831161110157829003601f168201915b505050505081565b6009826040516111369190612741565b908152602001604051809103902060009054906101000a900460ff16611191576040517f08c379a000000000000000000000000000000000000000000000000000000000815260040161118890612980565b60405180910390fd5b3373ffffffffffffffffffffffffffffffffffffffff166111cf6007846040516111bb9190612741565b908152602001604051809103902054610847565b73ffffffffffffffffffffffffffffffffffffffff1614611225576040517f08c379a000000000000000000000000000000000000000000000000000000000815260040161121c90612820565b60405180910390fd5b806008836040516112369190612741565b90815260200160405180910390209080519060200190611257929190611f6d565b507f6714407191569b7b9edd5db2d624b8e2281272e577950f0e87ca156570ffe9e48260405161128791906127fe565b60405180910390a15050565b60007f01ffc9a7000000000000000000000000000000000000000000000000000000007bffffffffffffffffffffffffffffffffffffffffffffffffffffffff1916827bffffffffffffffffffffffffffffffffffffffffffffffffffffffff1916149050919050565b61130681611d3d565b611345576040517f08c379a000000000000000000000000000000000000000000000000000000000815260040161133c906129a0565b60405180910390fd5b50565b600033905090565b816004600083815260200190815260200160002060006101000a81548173ffffffffffffffffffffffffffffffffffffffff021916908373ffffffffffffffffffffffffffffffffffffffff160217905550808273ffffffffffffffffffffffffffffffffffffffff166113c383610847565b73ffffffffffffffffffffffffffffffffffffffff167f8c5be1e5ebec7d5bd14f71427d1e84f3dd0314c0f7b2291e5b200ac8c7c3b92560405160405180910390a45050565b60008061141583610847565b90508073ffffffffffffffffffffffffffffffffffffffff168473ffffffffffffffffffffffffffffffffffffffff16148061145757506114568185610fdc565b5b8061149557508373ffffffffffffffffffffffffffffffffffffffff1661147d84610605565b73ffffffffffffffffffffffffffffffffffffffff16145b91505092915050565b8273ffffffffffffffffffffffffffffffffffffffff166114be82610847565b73ffffffffffffffffffffffffffffffffffffffff1614611514576040517f08c379a000000000000000000000000000000000000000000000000000000000815260040161150b90612880565b60405180910390fd5b600073ffffffffffffffffffffffffffffffffffffffff168273ffffffffffffffffffffffffffffffffffffffff161415611584576040517f08c379a000000000000000000000000000000000000000000000000000000000815260040161157b906128c0565b60405180910390fd5b61158f838383611da9565b61159a600082611350565b6001600360008573ffffffffffffffffffffffffffffffffffffffff1673ffffffffffffffffffffffffffffffffffffffff16815260200190815260200160002060008282546115ea9190612b6c565b925050819055506001600360008473ffffffffffffffffffffffffffffffffffffffff1673ffffffffffffffffffffffffffffffffffffffff16815260200190815260200160002060008282546116419190612ae5565b92505081905550816002600083815260200190815260200160002060006101000a81548173ffffffffffffffffffffffffffffffffffffffff021916908373ffffffffffffffffffffffffffffffffffffffff160217905550808273ffffffffffffffffffffffffffffffffffffffff168473ffffffffffffffffffffffffffffffffffffffff167fddf252ad1be2c89b69c2b068fc378daa952ba7f163c4a11628f55a4df523b3ef60405160405180910390a4611700838383611dae565b505050565b600073ffffffffffffffffffffffffffffffffffffffff168273ffffffffffffffffffffffffffffffffffffffff161415611775576040517f08c379a000000000000000000000000000000000000000000000000000000000815260040161176c90612960565b60405180910390fd5b61177e81611d3d565b156117be576040517f08c379a00000000000000000000000000000000000000000000000000000000081526004016117b5906128a0565b60405180910390fd5b6117ca60008383611da9565b6001600360008473ffffffffffffffffffffffffffffffffffffffff1673ffffffffffffffffffffffffffffffffffffffff168152602001908152602001600020600082825461181a9190612ae5565b92505081905550816002600083815260200190815260200160002060006101000a81548173ffffffffffffffffffffffffffffffffffffffff021916908373ffffffffffffffffffffffffffffffffffffffff160217905550808273ffffffffffffffffffffffffffffffffffffffff16600073ffffffffffffffffffffffffffffffffffffffff167fddf252ad1be2c89b69c2b068fc378daa952ba7f163c4a11628f55a4df523b3ef60405160405180910390a46118db60008383611dae565b5050565b8173ffffffffffffffffffffffffffffffffffffffff168373ffffffffffffffffffffffffffffffffffffffff16141561194e576040517f08c379a0000000000000000000000000000000000000000000000000000000008152600401611945906128e0565b60405180910390fd5b80600560008573ffffffffffffffffffffffffffffffffffffffff1673ffffffffffffffffffffffffffffffffffffffff16815260200190815260200160002060008473ffffffffffffffffffffffffffffffffffffffff1673ffffffffffffffffffffffffffffffffffffffff16815260200190815260200160002060006101000a81548160ff0219169083151502179055508173ffffffffffffffffffffffffffffffffffffffff168373ffffffffffffffffffffffffffffffffffffffff167f17307eab39ab6107e8899845ad3d59bd9653f200f220920489ca2b5937696c3183604051611a3f91906127e3565b60405180910390a3505050565b611a5784848461149e565b611a6384848484611db3565b611aa2576040517f08c379a0000000000000000000000000000000000000000000000000000000008152600401611a9990612840565b60405180910390fd5b50505050565b606060405180602001604052806000815250905090565b60606000821415611b07576040518060400160405280600181526020017f30000000000000000000000000000000000000000000000000000000000000008152509050611c1b565b600082905060005b60008214611b39578080611b2290612cb9565b915050600a82611b329190612b3b565b9150611b0f565b60008167ffffffffffffffff811115611b5557611b54612def565b5b6040519080825280601f01601f191660200182016040528015611b875781602001600182028036833780820191505090505b5090505b60008514611c1457600182611ba09190612b6c565b9150600a85611baf9190612d02565b6030611bbb9190612ae5565b60f81b818381518110611bd157611bd0612dc0565b5b60200101907effffffffffffffffffffffffffffffffffffffffffffffffffffffffffffff1916908160001a905350600a85611c0d9190612b3b565b9450611b8b565b8093505050505b919050565b6000611c2b82610847565b9050611c3981600084611da9565b611c44600083611350565b6001600360008373ffffffffffffffffffffffffffffffffffffffff1673ffffffffffffffffffffffffffffffffffffffff1681526020019081526020016000206000828254611c949190612b6c565b925050819055506002600083815260200190815260200160002060006101000a81549073ffffffffffffffffffffffffffffffffffffffff021916905581600073ffffffffffffffffffffffffffffffffffffffff168273ffffffffffffffffffffffffffffffffffffffff167fddf252ad1be2c89b69c2b068fc378daa952ba7f163c4a11628f55a4df523b3ef60405160405180910390a4611d3981600084611dae565b5050565b60008073ffffffffffffffffffffffffffffffffffffffff166002600084815260200190815260200160002060009054906101000a900473ffffffffffffffffffffffffffffffffffffffff1673ffffffffffffffffffffffffffffffffffffffff1614159050919050565b505050565b505050565b6000611dd48473ffffffffffffffffffffffffffffffffffffffff16611f4a565b15611f3d578373ffffffffffffffffffffffffffffffffffffffff1663150b7a02611dfd611348565b8786866040518563ffffffff1660e01b8152600401611e1f9493929190612797565b602060405180830381600087803b158015611e3957600080fd5b505af1925050508015611e6a57506040513d601f19601f82011682018060405250810190611e679190612349565b60015b611eed573d8060008114611e9a576040519150601f19603f3d011682016040523d82523d6000602084013e611e9f565b606091505b50600081511415611ee5576040517f08c379a0000000000000000000000000000000000000000000000000000000008152600401611edc90612840565b60405180910390fd5b805181602001fd5b63150b7a0260e01b7bffffffffffffffffffffffffffffffffffffffffffffffffffffffff1916817bffffffffffffffffffffffffffffffffffffffffffffffffffffffff191614915050611f42565b600190505b949350505050565b6000808273ffffffffffffffffffffffffffffffffffffffff163b119050919050565b828054611f7990612c56565b90600052602060002090601f016020900481019282611f9b5760008555611fe2565b82601f10611fb457805160ff1916838001178555611fe2565b82800160010185558215611fe2579182015b82811115611fe1578251825591602001919060010190611fc6565b5b509050611fef9190611ff3565b5090565b5b8082111561200c576000816000905550600101611ff4565b5090565b600061202361201e84612a40565b612a1b565b90508281526020810184848401111561203f5761203e612e23565b5b61204a848285612c14565b509392505050565b600061206561206084612a71565b612a1b565b90508281526020810184848401111561208157612080612e23565b5b61208c848285612c14565b509392505050565b6000813590506120a381613200565b92915050565b6000813590506120b881613217565b92915050565b6000813590506120cd8161322e565b92915050565b6000815190506120e28161322e565b92915050565b600082601f8301126120fd576120fc612e1e565b5b813561210d848260208601612010565b91505092915050565b600082601f83011261212b5761212a612e1e565b5b813561213b848260208601612052565b91505092915050565b60008135905061215381613245565b92915050565b60006020828403121561216f5761216e612e2d565b5b600061217d84828501612094565b91505092915050565b6000806040838503121561219d5761219c612e2d565b5b60006121ab85828601612094565b92505060206121bc85828601612094565b9150509250929050565b6000806000606084860312156121df576121de612e2d565b5b60006121ed86828701612094565b93505060206121fe86828701612094565b925050604061220f86828701612144565b9150509250925092565b6000806000806080858703121561223357612232612e2d565b5b600061224187828801612094565b945050602061225287828801612094565b935050604061226387828801612144565b925050606085013567ffffffffffffffff81111561228457612283612e28565b5b612290878288016120e8565b91505092959194509250565b600080604083850312156122b3576122b2612e2d565b5b60006122c185828601612094565b92505060206122d2858286016120a9565b9150509250929050565b600080604083850312156122f3576122f2612e2d565b5b600061230185828601612094565b925050602061231285828601612144565b9150509250929050565b60006020828403121561233257612331612e2d565b5b6000612340848285016120be565b91505092915050565b60006020828403121561235f5761235e612e2d565b5b600061236d848285016120d3565b91505092915050565b60006020828403121561238c5761238b612e2d565b5b600082013567ffffffffffffffff8111156123aa576123a9612e28565b5b6123b684828501612116565b91505092915050565b600080604083850312156123d6576123d5612e2d565b5b600083013567ffffffffffffffff8111156123f4576123f3612e28565b5b61240085828601612116565b925050602083013567ffffffffffffffff81111561242157612420612e28565b5b61242d85828601612116565b9150509250929050565b60006020828403121561244d5761244c612e2d565b5b600061245b84828501612144565b91505092915050565b61246d81612ba0565b82525050565b61247c81612bb2565b82525050565b600061248d82612aa2565b6124978185612ab8565b93506124a7818560208601612c23565b6124b081612e32565b840191505092915050565b60006124c682612aad565b6124d08185612ac9565b93506124e0818560208601612c23565b6124e981612e32565b840191505092915050565b60006124ff82612aad565b6125098185612ada565b9350612519818560208601612c23565b80840191505092915050565b6000612532602a83612ac9565b915061253d82612e43565b604082019050919050565b6000612555603283612ac9565b915061256082612e92565b604082019050919050565b6000612578602b83612ac9565b915061258382612ee1565b604082019050919050565b600061259b602583612ac9565b91506125a682612f30565b604082019050919050565b60006125be601c83612ac9565b91506125c982612f7f565b602082019050919050565b60006125e1602483612ac9565b91506125ec82612fa8565b604082019050919050565b6000612604601983612ac9565b915061260f82612ff7565b602082019050919050565b6000612627602983612ac9565b915061263282613020565b604082019050919050565b600061264a601583612ac9565b91506126558261306f565b602082019050919050565b600061266d603e83612ac9565b915061267882613098565b604082019050919050565b6000612690602083612ac9565b915061269b826130e7565b602082019050919050565b60006126b3601583612ac9565b91506126be82613110565b602082019050919050565b60006126d6601883612ac9565b91506126e182613139565b602082019050919050565b60006126f9602183612ac9565b915061270482613162565b604082019050919050565b600061271c602e83612ac9565b9150612727826131b1565b604082019050919050565b61273b81612c0a565b82525050565b600061274d82846124f4565b915081905092915050565b600061276482856124f4565b915061277082846124f4565b91508190509392505050565b60006020820190506127916000830184612464565b92915050565b60006080820190506127ac6000830187612464565b6127b96020830186612464565b6127c66040830185612732565b81810360608301526127d88184612482565b905095945050505050565b60006020820190506127f86000830184612473565b92915050565b6000602082019050818103600083015261281881846124bb565b905092915050565b6000602082019050818103600083015261283981612525565b9050919050565b6000602082019050818103600083015261285981612548565b9050919050565b600060208201905081810360008301526128798161256b565b9050919050565b600060208201905081810360008301526128998161258e565b9050919050565b600060208201905081810360008301526128b9816125b1565b9050919050565b600060208201905081810360008301526128d9816125d4565b9050919050565b600060208201905081810360008301526128f9816125f7565b9050919050565b600060208201905081810360008301526129198161261a565b9050919050565b600060208201905081810360008301526129398161263d565b9050919050565b6000602082019050818103600083015261295981612660565b9050919050565b6000602082019050818103600083015261297981612683565b9050919050565b60006020820190508181036000830152612999816126a6565b9050919050565b600060208201905081810360008301526129b9816126c9565b9050919050565b600060208201905081810360008301526129d9816126ec565b9050919050565b600060208201905081810360008301526129f98161270f565b9050919050565b6000602082019050612a156000830184612732565b92915050565b6000612a25612a36565b9050612a318282612c88565b919050565b6000604051905090565b600067ffffffffffffffff821115612a5b57612a5a612def565b5b612a6482612e32565b9050602081019050919050565b600067ffffffffffffffff821115612a8c57612a8b612def565b5b612a9582612e32565b9050602081019050919050565b600081519050919050565b600081519050919050565b600082825260208201905092915050565b600082825260208201905092915050565b600081905092915050565b6000612af082612c0a565b9150612afb83612c0a565b9250827fffffffffffffffffffffffffffffffffffffffffffffffffffffffffffffffff03821115612b3057612b2f612d33565b5b828201905092915050565b6000612b4682612c0a565b9150612b5183612c0a565b925082612b6157612b60612d62565b5b828204905092915050565b6000612b7782612c0a565b9150612b8283612c0a565b925082821015612b9557612b94612d33565b5b828203905092915050565b6000612bab82612bea565b9050919050565b60008115159050919050565b60007fffffffff0000000000000000000000000000000000000000000000000000000082169050919050565b600073ffffffffffffffffffffffffffffffffffffffff82169050919050565b6000819050919050565b82818337600083830152505050565b60005b83811015612c41578082015181840152602081019050612c26565b83811115612c50576000848401525b50505050565b60006002820490506001821680612c6e57607f821691505b60208210811415612c8257612c81612d91565b5b50919050565b612c9182612e32565b810181811067ffffffffffffffff82111715612cb057612caf612def565b5b80604052505050565b6000612cc482612c0a565b91507fffffffffffffffffffffffffffffffffffffffffffffffffffffffffffffffff821415612cf757612cf6612d33565b5b600182019050919050565b6000612d0d82612c0a565b9150612d1883612c0a565b925082612d2857612d27612d62565b5b828206905092915050565b7f4e487b7100000000000000000000000000000000000000000000000000000000600052601160045260246000fd5b7f4e487b7100000000000000000000000000000000000000000000000000000000600052601260045260246000fd5b7f4e487b7100000000000000000000000000000000000000000000000000000000600052602260045260246000fd5b7f4e487b7100000000000000000000000000000000000000000000000000000000600052603260045260246000fd5b7f4e487b7100000000000000000000000000000000000000000000000000000000600052604160045260246000fd5b600080fd5b600080fd5b600080fd5b600080fd5b6000601f19601f8301169050919050565b7f4f6e6c792074686520746f6b656e206f776e65722063616e207570646174652060008201527f74686520746f6b656e2e00000000000000000000000000000000000000000000602082015250565b7f4552433732313a207472616e7366657220746f206e6f6e20455243373231526560008201527f63656976657220696d706c656d656e7465720000000000000000000000000000602082015250565b7f4f6e6c792074686520746f6b656e206f776e65722063616e2064657374726f7960008201527f2074686520746f6b656e2e000000000000000000000000000000000000000000602082015250565b7f4552433732313a207472616e736665722066726f6d20696e636f72726563742060008201527f6f776e6572000000000000000000000000000000000000000000000000000000602082015250565b7f4552433732313a20746f6b656e20616c7265616479206d696e74656400000000600082015250565b7f4552433732313a207472616e7366657220746f20746865207a65726f2061646460008201527f7265737300000000000000000000000000000000000000000000000000000000602082015250565b7f4552433732313a20617070726f766520746f2063616c6c657200000000000000600082015250565b7f4552433732313a2061646472657373207a65726f206973206e6f74206120766160008201527f6c6964206f776e65720000000000000000000000000000000000000000000000602082015250565b7f546f6b656e20616c7265616479206578697374732e0000000000000000000000600082015250565b7f4552433732313a20617070726f76652063616c6c6572206973206e6f7420746f60008201527f6b656e206f776e6572206e6f7220617070726f76656420666f7220616c6c0000602082015250565b7f4552433732313a206d696e7420746f20746865207a65726f2061646472657373600082015250565b7f546f6b656e20646f6573206e6f742065786973742e0000000000000000000000600082015250565b7f4552433732313a20696e76616c696420746f6b656e2049440000000000000000600082015250565b7f4552433732313a20617070726f76616c20746f2063757272656e74206f776e6560008201527f7200000000000000000000000000000000000000000000000000000000000000602082015250565b7f4552433732313a2063616c6c6572206973206e6f7420746f6b656e206f776e6560008201527f72206e6f7220617070726f766564000000000000000000000000000000000000602082015250565b61320981612ba0565b811461321457600080fd5b50565b61322081612bb2565b811461322b57600080fd5b50565b61323781612bbe565b811461324257600080fd5b50565b61324e81612c0a565b811461325957600080fd5b5056fea2646970667358221220ca742b86da17049256552909097e94d2f2e1a2509c25f29f6e337292f62d6ac564736f6c63430008070033",
  "immutableReferences": {},
  "source": "pragma solidity ^0.8.0;\n\nimport \"../node_modules/@openzeppelin/contracts/token/ERC721/ERC721.sol\";\n\ncontract Moz is ERC721 {\n    string[] public mozIds;\n\n    mapping(string => uint256) public tokenIdentifier; // mapping of tokenid => id in uint256\n    mapping(string => string) public mozData; // mapping of tokenid => hash string of all metadata\n    mapping(string => bool) public tokenExists;\n\n    event NewTokenMinted(string tokenid);\n    event TokenUpdated(string tokenid);\n    event TokenDestroyed(string tokenid);\n\n    constructor() public ERC721(\"Mozarrella Bar\", \"MOZ\") {}\n\n    function mint(string memory _tokenid, string memory _metadata) public {\n        require(!tokenExists[_tokenid], \"Token already exists.\");\n        mozIds.push(_tokenid);\n        uint256 id = mozIds.length;\n        _mint(msg.sender, id);\n        mozData[_tokenid] = _metadata;\n        tokenIdentifier[_tokenid] = id;\n        tokenExists[_tokenid] = true;\n\n        emit NewTokenMinted(_tokenid);\n    }\n\n    function update(string memory _tokenid, string memory _metadata) public {\n        require(tokenExists[_tokenid], \"Token does not exist.\");\n        require(\n            ownerOf(tokenIdentifier[_tokenid]) == address(msg.sender),\n            \"Only the token owner can update the token.\"\n        );\n        mozData[_tokenid] = _metadata;\n\n        emit TokenUpdated(_tokenid);\n    }\n\n    function burn(string memory _tokenid) public {\n        require(tokenExists[_tokenid], \"Token does not exist.\");\n        require(\n            ownerOf(tokenIdentifier[_tokenid]) == address(msg.sender),\n            \"Only the token owner can destroy the token.\"\n        );\n\n        _burn(tokenIdentifier[_tokenid]);\n\n        emit TokenDestroyed(_tokenid);\n    }\n\n    function countToken() public view returns (uint256) {\n        return mozIds.length;\n    }\n\n    function queryToken(string memory _tokenid)\n        public\n        view\n        returns (string memory)\n    {\n        require(tokenExists[_tokenid], \"Token does not exist.\");\n        return mozData[_tokenid];\n    }\n}\n",
  "sourcePath": "/home/yih/Documents/dev/beston-dapps/contracts/Moz.sol",
  "compiler": {
    "name": "solc",
    "version": "0.8.7+commit.e28d00a7.Emscripten.clang"
  },
  "schemaVersion": "3.4.1",
  "updatedAt": "2022-12-11T23:21:19.871Z",
  "devdoc": {
    "kind": "dev",
    "methods": {
      "approve(address,uint256)": {
        "details": "See {IERC721-approve}."
      },
      "balanceOf(address)": {
        "details": "See {IERC721-balanceOf}."
      },
      "getApproved(uint256)": {
        "details": "See {IERC721-getApproved}."
      },
      "isApprovedForAll(address,address)": {
        "details": "See {IERC721-isApprovedForAll}."
      },
      "name()": {
        "details": "See {IERC721Metadata-name}."
      },
      "ownerOf(uint256)": {
        "details": "See {IERC721-ownerOf}."
      },
      "safeTransferFrom(address,address,uint256)": {
        "details": "See {IERC721-safeTransferFrom}."
      },
      "safeTransferFrom(address,address,uint256,bytes)": {
        "details": "See {IERC721-safeTransferFrom}."
      },
      "setApprovalForAll(address,bool)": {
        "details": "See {IERC721-setApprovalForAll}."
      },
      "supportsInterface(bytes4)": {
        "details": "See {IERC165-supportsInterface}."
      },
      "symbol()": {
        "details": "See {IERC721Metadata-symbol}."
      },
      "tokenURI(uint256)": {
        "details": "See {IERC721Metadata-tokenURI}."
      },
      "transferFrom(address,address,uint256)": {
        "details": "See {IERC721-transferFrom}."
      }
    },
    "version": 1
  },
  "userdoc": {
    "kind": "user",
    "methods": {},
    "version": 1
  }
}