{
  "contractName": "MozzarellaSupplyChain",
  "abi": [
    {
      "inputs": [],
      "stateMutability": "nonpayable",
      "type": "constructor"
    },
    {
      "anonymous": false,
      "inputs": [
        {
          "indexed": true,
          "internalType": "address",
          "name": "account",
          "type": "address"
        },
        {
          "indexed": true,
          "internalType": "address",
          "name": "operator",
          "type": "address"
        },
        {
          "indexed": false,
          "internalType": "bool",
          "name": "approved",
          "type": "bool"
        }
      ],
      "name": "ApprovalForAll",
      "type": "event"
    },
    {
      "anonymous": false,
      "inputs": [
        {
          "indexed": true,
          "internalType": "address",
          "name": "operator",
          "type": "address"
        },
        {
          "indexed": true,
          "internalType": "address",
          "name": "from",
          "type": "address"
        },
        {
          "indexed": true,
          "internalType": "address",
          "name": "to",
          "type": "address"
        },
        {
          "indexed": false,
          "internalType": "uint256[]",
          "name": "ids",
          "type": "uint256[]"
        },
        {
          "indexed": false,
          "internalType": "uint256[]",
          "name": "values",
          "type": "uint256[]"
        }
      ],
      "name": "TransferBatch",
      "type": "event"
    },
    {
      "anonymous": false,
      "inputs": [
        {
          "indexed": true,
          "internalType": "address",
          "name": "operator",
          "type": "address"
        },
        {
          "indexed": true,
          "internalType": "address",
          "name": "from",
          "type": "address"
        },
        {
          "indexed": true,
          "internalType": "address",
          "name": "to",
          "type": "address"
        },
        {
          "indexed": false,
          "internalType": "uint256",
          "name": "id",
          "type": "uint256"
        },
        {
          "indexed": false,
          "internalType": "uint256",
          "name": "value",
          "type": "uint256"
        }
      ],
      "name": "TransferSingle",
      "type": "event"
    },
    {
      "anonymous": false,
      "inputs": [
        {
          "indexed": false,
          "internalType": "string",
          "name": "value",
          "type": "string"
        },
        {
          "indexed": true,
          "internalType": "uint256",
          "name": "id",
          "type": "uint256"
        }
      ],
      "name": "URI",
      "type": "event"
    },
    {
      "inputs": [],
      "name": "allTokenCount",
      "outputs": [
        {
          "internalType": "uint256",
          "name": "",
          "type": "uint256"
        }
      ],
      "stateMutability": "view",
      "type": "function"
    },
    {
      "inputs": [
        {
          "internalType": "address",
          "name": "account",
          "type": "address"
        },
        {
          "internalType": "uint256",
          "name": "id",
          "type": "uint256"
        }
      ],
      "name": "balanceOf",
      "outputs": [
        {
          "internalType": "uint256",
          "name": "",
          "type": "uint256"
        }
      ],
      "stateMutability": "view",
      "type": "function"
    },
    {
      "inputs": [
        {
          "internalType": "address[]",
          "name": "accounts",
          "type": "address[]"
        },
        {
          "internalType": "uint256[]",
          "name": "ids",
          "type": "uint256[]"
        }
      ],
      "name": "balanceOfBatch",
      "outputs": [
        {
          "internalType": "uint256[]",
          "name": "",
          "type": "uint256[]"
        }
      ],
      "stateMutability": "view",
      "type": "function"
    },
    {
      "inputs": [
        {
          "internalType": "address",
          "name": "account",
          "type": "address"
        },
        {
          "internalType": "address",
          "name": "operator",
          "type": "address"
        }
      ],
      "name": "isApprovedForAll",
      "outputs": [
        {
          "internalType": "bool",
          "name": "",
          "type": "bool"
        }
      ],
      "stateMutability": "view",
      "type": "function"
    },
    {
      "inputs": [
        {
          "internalType": "string",
          "name": "",
          "type": "string"
        }
      ],
      "name": "milktankExists",
      "outputs": [
        {
          "internalType": "bool",
          "name": "",
          "type": "bool"
        }
      ],
      "stateMutability": "view",
      "type": "function"
    },
    {
      "inputs": [
        {
          "internalType": "string",
          "name": "",
          "type": "string"
        }
      ],
      "name": "milktanks",
      "outputs": [
        {
          "internalType": "uint256",
          "name": "id",
          "type": "uint256"
        },
        {
          "internalType": "string",
          "name": "metadata",
          "type": "string"
        },
        {
          "internalType": "enum MozzarellaSupplyChain.ItemStatus",
          "name": "status",
          "type": "uint8"
        }
      ],
      "stateMutability": "view",
      "type": "function"
    },
    {
      "inputs": [
        {
          "internalType": "string",
          "name": "",
          "type": "string"
        }
      ],
      "name": "mozzarellablockExists",
      "outputs": [
        {
          "internalType": "bool",
          "name": "",
          "type": "bool"
        }
      ],
      "stateMutability": "view",
      "type": "function"
    },
    {
      "inputs": [
        {
          "internalType": "string",
          "name": "",
          "type": "string"
        }
      ],
      "name": "mozzarellablocks",
      "outputs": [
        {
          "internalType": "uint256",
          "name": "id",
          "type": "uint256"
        },
        {
          "internalType": "string",
          "name": "metadata",
          "type": "string"
        },
        {
          "internalType": "enum MozzarellaSupplyChain.ItemStatus",
          "name": "status",
          "type": "uint8"
        }
      ],
      "stateMutability": "view",
      "type": "function"
    },
    {
      "inputs": [
        {
          "internalType": "address",
          "name": "from",
          "type": "address"
        },
        {
          "internalType": "address",
          "name": "to",
          "type": "address"
        },
        {
          "internalType": "uint256[]",
          "name": "ids",
          "type": "uint256[]"
        },
        {
          "internalType": "uint256[]",
          "name": "amounts",
          "type": "uint256[]"
        },
        {
          "internalType": "bytes",
          "name": "data",
          "type": "bytes"
        }
      ],
      "name": "safeBatchTransferFrom",
      "outputs": [],
      "stateMutability": "nonpayable",
      "type": "function"
    },
    {
      "inputs": [
        {
          "internalType": "address",
          "name": "from",
          "type": "address"
        },
        {
          "internalType": "address",
          "name": "to",
          "type": "address"
        },
        {
          "internalType": "uint256",
          "name": "id",
          "type": "uint256"
        },
        {
          "internalType": "uint256",
          "name": "amount",
          "type": "uint256"
        },
        {
          "internalType": "bytes",
          "name": "data",
          "type": "bytes"
        }
      ],
      "name": "safeTransferFrom",
      "outputs": [],
      "stateMutability": "nonpayable",
      "type": "function"
    },
    {
      "inputs": [
        {
          "internalType": "address",
          "name": "operator",
          "type": "address"
        },
        {
          "internalType": "bool",
          "name": "approved",
          "type": "bool"
        }
      ],
      "name": "setApprovalForAll",
      "outputs": [],
      "stateMutability": "nonpayable",
      "type": "function"
    },
    {
      "inputs": [
        {
          "internalType": "string",
          "name": "",
          "type": "string"
        }
      ],
      "name": "shreddedmozzarellaExists",
      "outputs": [
        {
          "internalType": "bool",
          "name": "",
          "type": "bool"
        }
      ],
      "stateMutability": "view",
      "type": "function"
    },
    {
      "inputs": [
        {
          "internalType": "string",
          "name": "",
          "type": "string"
        }
      ],
      "name": "shreddedmozzarellas",
      "outputs": [
        {
          "internalType": "uint256",
          "name": "id",
          "type": "uint256"
        },
        {
          "internalType": "string",
          "name": "metadata",
          "type": "string"
        },
        {
          "internalType": "enum MozzarellaSupplyChain.ItemStatus",
          "name": "status",
          "type": "uint8"
        }
      ],
      "stateMutability": "view",
      "type": "function"
    },
    {
      "inputs": [
        {
          "internalType": "bytes4",
          "name": "interfaceId",
          "type": "bytes4"
        }
      ],
      "name": "supportsInterface",
      "outputs": [
        {
          "internalType": "bool",
          "name": "",
          "type": "bool"
        }
      ],
      "stateMutability": "view",
      "type": "function"
    },
    {
      "inputs": [
        {
          "internalType": "uint256",
          "name": "",
          "type": "uint256"
        }
      ],
      "name": "uri",
      "outputs": [
        {
          "internalType": "string",
          "name": "",
          "type": "string"
        }
      ],
      "stateMutability": "view",
      "type": "function"
    },
    {
      "inputs": [
        {
          "internalType": "address",
          "name": "to",
          "type": "address"
        },
        {
          "internalType": "string[]",
          "name": "names",
          "type": "string[]"
        },
        {
          "internalType": "string[]",
          "name": "metadata",
          "type": "string[]"
        }
      ],
      "name": "mintMilktank",
      "outputs": [],
      "stateMutability": "nonpayable",
      "type": "function"
    },
    {
      "inputs": [
        {
          "internalType": "address",
          "name": "to",
          "type": "address"
        },
        {
          "internalType": "string[]",
          "name": "names",
          "type": "string[]"
        },
        {
          "internalType": "string[]",
          "name": "metadata",
          "type": "string[]"
        }
      ],
      "name": "mintMozzarellablock",
      "outputs": [],
      "stateMutability": "nonpayable",
      "type": "function"
    },
    {
      "inputs": [
        {
          "internalType": "address",
          "name": "to",
          "type": "address"
        },
        {
          "internalType": "string[]",
          "name": "names",
          "type": "string[]"
        },
        {
          "internalType": "string[]",
          "name": "metadata",
          "type": "string[]"
        }
      ],
      "name": "mintShreddedmozzarella",
      "outputs": [],
      "stateMutability": "nonpayable",
      "type": "function"
    },
    {
      "inputs": [
        {
          "internalType": "address",
          "name": "from",
          "type": "address"
        },
        {
          "internalType": "string[]",
          "name": "names",
          "type": "string[]"
        }
      ],
      "name": "processMilk",
      "outputs": [],
      "stateMutability": "nonpayable",
      "type": "function"
    },
    {
      "inputs": [
        {
          "internalType": "address",
          "name": "from",
          "type": "address"
        },
        {
          "internalType": "string[]",
          "name": "names",
          "type": "string[]"
        }
      ],
      "name": "processMozzarellablock",
      "outputs": [],
      "stateMutability": "nonpayable",
      "type": "function"
    },
    {
      "inputs": [
        {
          "internalType": "address",
          "name": "from",
          "type": "address"
        },
        {
          "internalType": "address",
          "name": "to",
          "type": "address"
        },
        {
          "internalType": "string[]",
          "name": "tanks",
          "type": "string[]"
        },
        {
          "internalType": "string[]",
          "name": "blocks",
          "type": "string[]"
        },
        {
          "internalType": "string[]",
          "name": "metadata",
          "type": "string[]"
        }
      ],
      "name": "tankblockTransform",
      "outputs": [],
      "stateMutability": "nonpayable",
      "type": "function"
    },
    {
      "inputs": [
        {
          "internalType": "address",
          "name": "from",
          "type": "address"
        },
        {
          "internalType": "address",
          "name": "to",
          "type": "address"
        },
        {
          "internalType": "string[]",
          "name": "blocks",
          "type": "string[]"
        },
        {
          "internalType": "string[]",
          "name": "bags",
          "type": "string[]"
        },
        {
          "internalType": "string[]",
          "name": "metadata",
          "type": "string[]"
        }
      ],
      "name": "blockbagTransform",
      "outputs": [],
      "stateMutability": "nonpayable",
      "type": "function"
    }
  ],
  "bytecode": "0x608060405260016003556003600455600160055560146006556000600d553480156200002a57600080fd5b50604051806020016040528060008152506200004c816200005360201b60201c565b5062000184565b80600290805190602001906200006b9291906200006f565b5050565b8280546200007d906200011f565b90600052602060002090601f016020900481019282620000a15760008555620000ed565b82601f10620000bc57805160ff1916838001178555620000ed565b82800160010185558215620000ed579182015b82811115620000ec578251825591602001919060010190620000cf565b5b509050620000fc919062000100565b5090565b5b808211156200011b57600081600090555060010162000101565b5090565b600060028204905060018216806200013857607f821691505b602082108114156200014f576200014e62000155565b5b50919050565b7f4e487b7100000000000000000000000000000000000000000000000000000000600052602260045260246000fd5b61447280620001946000396000f3fe608060405234801561001057600080fd5b50600436106101415760003560e01c8063a22cb465116100b8578063e06c8edb1161007c578063e06c8edb146103c0578063e65b2bb3146103dc578063e985e9c5146103f8578063e9e2bcfc14610428578063f242432a1461045a578063fd3f48e61461047657610141565b8063a22cb465146102f8578063a40a554514610314578063be813b7314610344578063ca5a8ada14610374578063de1dbf771461039057610141565b80632eb2c2d61161010a5780632eb2c2d61461023a5780634e1273f41461025657806361760cfd146102865780636cedbf7c146102a25780637822547d146102be578063794eb030146102da57610141565b8062fdd58e1461014657806301ffc9a7146101765780630e89341c146101a657806310317fe2146101d65780632e4fc31b14610208575b600080fd5b610160600480360381019061015b9190612fab565b610492565b60405161016d91906138bc565b60405180910390f35b610190600480360381019061018b9190613063565b61055b565b60405161019d919061363f565b60405180910390f35b6101c060048036038101906101bb9190613106565b61063d565b6040516101cd919061365a565b60405180910390f35b6101f060048036038101906101eb91906130bd565b6106d1565b6040516101ff939291906138d7565b60405180910390f35b610222600480360381019061021d91906130bd565b6107a6565b604051610231939291906138d7565b60405180910390f35b610254600480360381019061024f9190612d1e565b61087b565b005b610270600480360381019061026b9190612feb565b61091c565b60405161027d91906135e6565b60405180910390f35b6102a0600480360381019061029b9190612e84565b610a35565b005b6102bc60048036038101906102b79190612ee0565b610ba9565b005b6102d860048036038101906102d39190612ee0565b610e32565b005b6102e26110bb565b6040516102ef91906138bc565b60405180910390f35b610312600480360381019061030d9190612f6b565b6110c1565b005b61032e600480360381019061032991906130bd565b6110d7565b60405161033b919061363f565b60405180910390f35b61035e600480360381019061035991906130bd565b61110d565b60405161036b919061363f565b60405180910390f35b61038e60048036038101906103899190612c4f565b611143565b005b6103aa60048036038101906103a591906130bd565b611187565b6040516103b7919061363f565b60405180910390f35b6103da60048036038101906103d59190612ee0565b6111bd565b005b6103f660048036038101906103f19190612c4f565b611446565b005b610412600480360381019061040d9190612c0f565b61148a565b60405161041f919061363f565b60405180910390f35b610442600480360381019061043d91906130bd565b61151e565b604051610451939291906138d7565b60405180910390f35b610474600480360381019061046f9190612ded565b6115f3565b005b610490600480360381019061048b9190612e84565b611694565b005b60008073ffffffffffffffffffffffffffffffffffffffff168373ffffffffffffffffffffffffffffffffffffffff161415610503576040517f08c379a00000000000000000000000000000000000000000000000000000000081526004016104fa906136bc565b60405180910390fd5b60008083815260200190815260200160002060008473ffffffffffffffffffffffffffffffffffffffff1673ffffffffffffffffffffffffffffffffffffffff16815260200190815260200160002054905092915050565b60007fd9b67a26000000000000000000000000000000000000000000000000000000007bffffffffffffffffffffffffffffffffffffffffffffffffffffffff1916827bffffffffffffffffffffffffffffffffffffffffffffffffffffffff1916148061062657507f0e89341c000000000000000000000000000000000000000000000000000000007bffffffffffffffffffffffffffffffffffffffffffffffffffffffff1916827bffffffffffffffffffffffffffffffffffffffffffffffffffffffff1916145b80610636575061063582611808565b5b9050919050565b60606002805461064c90613c50565b80601f016020809104026020016040519081016040528092919081815260200182805461067890613c50565b80156106c55780601f1061069a576101008083540402835291602001916106c5565b820191906000526020600020905b8154815290600101906020018083116106a857829003601f168201915b50505050509050919050565b60078180516020810182018051848252602083016020850120818352809550505050505060009150905080600001549080600101805461071090613c50565b80601f016020809104026020016040519081016040528092919081815260200182805461073c90613c50565b80156107895780601f1061075e57610100808354040283529160200191610789565b820191906000526020600020905b81548152906001019060200180831161076c57829003601f168201915b5050505050908060020160009054906101000a900460ff16905083565b6009818051602081018201805184825260208301602085012081835280955050505050506000915090508060000154908060010180546107e590613c50565b80601f016020809104026020016040519081016040528092919081815260200182805461081190613c50565b801561085e5780601f106108335761010080835404028352916020019161085e565b820191906000526020600020905b81548152906001019060200180831161084157829003601f168201915b5050505050908060020160009054906101000a900460ff16905083565b610883611872565b73ffffffffffffffffffffffffffffffffffffffff168573ffffffffffffffffffffffffffffffffffffffff1614806108c957506108c8856108c3611872565b61148a565b5b610908576040517f08c379a00000000000000000000000000000000000000000000000000000000081526004016108ff9061375c565b60405180910390fd5b610915858585858561187a565b5050505050565b60608151835114610962576040517f08c379a00000000000000000000000000000000000000000000000000000000081526004016109599061383c565b60405180910390fd5b6000835167ffffffffffffffff81111561097f5761097e613db8565b5b6040519080825280602002602001820160405280156109ad5781602001602082028036833780820191505090505b50905060005b8451811015610a2a576109fa8582815181106109d2576109d1613d89565b5b60200260200101518583815181106109ed576109ec613d89565b5b6020026020010151610492565b828281518110610a0d57610a0c613d89565b5b60200260200101818152505080610a2390613cb3565b90506109b3565b508091505092915050565b60005b8151811015610ad957600b828281518110610a5657610a55613d89565b5b6020026020010151604051610a6b919061350d565b908152602001604051809103902060009054906101000a900460ff16610ac6576040517f08c379a0000000000000000000000000000000000000000000000000000000008152600401610abd906137fc565b60405180910390fd5b8080610ad190613cb3565b915050610a38565b5060005b8151811015610ba457610b2d836008848481518110610aff57610afe613d89565b5b6020026020010151604051610b14919061350d565b9081526020016040518091039020600001546001611b8e565b60016008838381518110610b4457610b43613d89565b5b6020026020010151604051610b59919061350d565b908152602001604051809103902060020160006101000a81548160ff02191690836001811115610b8c57610b8b613d2b565b5b02179055508080610b9c90613cb3565b915050610add565b505050565b8051825114610bb757600080fd5b60005b8251811015610c5c57600a838281518110610bd857610bd7613d89565b5b6020026020010151604051610bed919061350d565b908152602001604051809103902060009054906101000a900460ff1615610c49576040517f08c379a0000000000000000000000000000000000000000000000000000000008152600401610c40906137dc565b60405180910390fd5b8080610c5490613cb3565b915050610bba565b5060608060005b8451811015610df55780600d54610c7a9190613ac5565b838281518110610c8d57610c8c613d89565b5b602002602001018181525050828181518110610cac57610cab613d89565b5b60200260200101516007868381518110610cc957610cc8613d89565b5b6020026020010151604051610cde919061350d565b908152602001604051809103902060000181905550838181518110610d0657610d05613d89565b5b60200260200101516007868381518110610d2357610d22613d89565b5b6020026020010151604051610d38919061350d565b90815260200160405180910390206001019080519060200190610d5c92919061282b565b5060006007868381518110610d7457610d73613d89565b5b6020026020010151604051610d89919061350d565b908152602001604051809103902060020160006101000a81548160ff02191690836001811115610dbc57610dbb613d2b565b5b02179055506001828281518110610dd657610dd5613d89565b5b6020026020010181815250508080610ded90613cb3565b915050610c63565b50610e1185838360405180602001604052806000815250611dab565b8351600d6000828254610e249190613ac5565b925050819055505050505050565b8051825114610e4057600080fd5b60005b8251811015610ee557600b838281518110610e6157610e60613d89565b5b6020026020010151604051610e76919061350d565b908152602001604051809103902060009054906101000a900460ff1615610ed2576040517f08c379a0000000000000000000000000000000000000000000000000000000008152600401610ec9906136dc565b60405180910390fd5b8080610edd90613cb3565b915050610e43565b5060608060005b845181101561107e5780600d54610f039190613ac5565b838281518110610f1657610f15613d89565b5b602002602001018181525050828181518110610f3557610f34613d89565b5b60200260200101516008868381518110610f5257610f51613d89565b5b6020026020010151604051610f67919061350d565b908152602001604051809103902060000181905550838181518110610f8f57610f8e613d89565b5b60200260200101516008868381518110610fac57610fab613d89565b5b6020026020010151604051610fc1919061350d565b90815260200160405180910390206001019080519060200190610fe592919061282b565b5060006008868381518110610ffd57610ffc613d89565b5b6020026020010151604051611012919061350d565b908152602001604051809103902060020160006101000a81548160ff0219169083600181111561104557611044613d2b565b5b0217905550600182828151811061105f5761105e613d89565b5b602002602001018181525050808061107690613cb3565b915050610eec565b5061109a85838360405180602001604052806000815250611dab565b8351600d60008282546110ad9190613ac5565b925050819055505050505050565b600d5481565b6110d36110cc611872565b8383611fc9565b5050565b600b818051602081018201805184825260208301602085012081835280955050505050506000915054906101000a900460ff1681565b600a818051602081018201805184825260208301602085012081835280955050505050506000915054906101000a900460ff1681565b81516005546111529190613b1b565b83516006546111619190613b1b565b1461116b57600080fd5b6111758584610a35565b6111808483836111bd565b5050505050565b600c818051602081018201805184825260208301602085012081835280955050505050506000915054906101000a900460ff1681565b80518251146111cb57600080fd5b60005b825181101561127057600c8382815181106111ec576111eb613d89565b5b6020026020010151604051611201919061350d565b908152602001604051809103902060009054906101000a900460ff161561125d576040517f08c379a00000000000000000000000000000000000000000000000000000000081526004016112549061377c565b60405180910390fd5b808061126890613cb3565b9150506111ce565b5060608060005b84518110156114095780600d5461128e9190613ac5565b8382815181106112a1576112a0613d89565b5b6020026020010181815250508281815181106112c0576112bf613d89565b5b602002602001015160098683815181106112dd576112dc613d89565b5b60200260200101516040516112f2919061350d565b90815260200160405180910390206000018190555083818151811061131a57611319613d89565b5b6020026020010151600986838151811061133757611336613d89565b5b602002602001015160405161134c919061350d565b9081526020016040518091039020600101908051906020019061137092919061282b565b506000600986838151811061138857611387613d89565b5b602002602001015160405161139d919061350d565b908152602001604051809103902060020160006101000a81548160ff021916908360018111156113d0576113cf613d2b565b5b021790555060018282815181106113ea576113e9613d89565b5b602002602001018181525050808061140190613cb3565b915050611277565b5061142585838360405180602001604052806000815250611dab565b8351600d60008282546114389190613ac5565b925050819055505050505050565b81516003546114559190613b1b565b83516004546114649190613b1b565b1461146e57600080fd5b6114788584611694565b611483848383610e32565b5050505050565b6000600160008473ffffffffffffffffffffffffffffffffffffffff1673ffffffffffffffffffffffffffffffffffffffff16815260200190815260200160002060008373ffffffffffffffffffffffffffffffffffffffff1673ffffffffffffffffffffffffffffffffffffffff16815260200190815260200160002060009054906101000a900460ff16905092915050565b60088180516020810182018051848252602083016020850120818352809550505050505060009150905080600001549080600101805461155d90613c50565b80601f016020809104026020016040519081016040528092919081815260200182805461158990613c50565b80156115d65780601f106115ab576101008083540402835291602001916115d6565b820191906000526020600020905b8154815290600101906020018083116115b957829003601f168201915b5050505050908060020160009054906101000a900460ff16905083565b6115fb611872565b73ffffffffffffffffffffffffffffffffffffffff168573ffffffffffffffffffffffffffffffffffffffff16148061164157506116408561163b611872565b61148a565b5b611680576040517f08c379a00000000000000000000000000000000000000000000000000000000081526004016116779061371c565b60405180910390fd5b61168d8585858585612136565b5050505050565b60005b815181101561173857600a8282815181106116b5576116b4613d89565b5b60200260200101516040516116ca919061350d565b908152602001604051809103902060009054906101000a900460ff16611725576040517f08c379a000000000000000000000000000000000000000000000000000000000815260040161171c9061389c565b60405180910390fd5b808061173090613cb3565b915050611697565b5060005b81518110156118035761178c83600784848151811061175e5761175d613d89565b5b6020026020010151604051611773919061350d565b9081526020016040518091039020600001546001611b8e565b600160078383815181106117a3576117a2613d89565b5b60200260200101516040516117b8919061350d565b908152602001604051809103902060020160006101000a81548160ff021916908360018111156117eb576117ea613d2b565b5b021790555080806117fb90613cb3565b91505061173c565b505050565b60007f01ffc9a7000000000000000000000000000000000000000000000000000000007bffffffffffffffffffffffffffffffffffffffffffffffffffffffff1916827bffffffffffffffffffffffffffffffffffffffffffffffffffffffff1916149050919050565b600033905090565b81518351146118be576040517f08c379a00000000000000000000000000000000000000000000000000000000081526004016118b59061385c565b60405180910390fd5b600073ffffffffffffffffffffffffffffffffffffffff168473ffffffffffffffffffffffffffffffffffffffff16141561192e576040517f08c379a00000000000000000000000000000000000000000000000000000000081526004016119259061373c565b60405180910390fd5b6000611938611872565b90506119488187878787876123b8565b60005b8451811015611af957600085828151811061196957611968613d89565b5b60200260200101519050600085838151811061198857611987613d89565b5b60200260200101519050600080600084815260200190815260200160002060008b73ffffffffffffffffffffffffffffffffffffffff1673ffffffffffffffffffffffffffffffffffffffff16815260200190815260200160002054905081811015611a29576040517f08c379a0000000000000000000000000000000000000000000000000000000008152600401611a20906137bc565b60405180910390fd5b81810360008085815260200190815260200160002060008c73ffffffffffffffffffffffffffffffffffffffff1673ffffffffffffffffffffffffffffffffffffffff168152602001908152602001600020819055508160008085815260200190815260200160002060008b73ffffffffffffffffffffffffffffffffffffffff1673ffffffffffffffffffffffffffffffffffffffff1681526020019081526020016000206000828254611ade9190613ac5565b9250508190555050505080611af290613cb3565b905061194b565b508473ffffffffffffffffffffffffffffffffffffffff168673ffffffffffffffffffffffffffffffffffffffff168273ffffffffffffffffffffffffffffffffffffffff167f4a39dc06d4c0dbc64b70af90fd698a233a518aa5d07e595d983b8c0526c8f7fb8787604051611b70929190613608565b60405180910390a4611b868187878787876123c0565b505050505050565b600073ffffffffffffffffffffffffffffffffffffffff168373ffffffffffffffffffffffffffffffffffffffff161415611bfe576040517f08c379a0000000000000000000000000000000000000000000000000000000008152600401611bf59061379c565b60405180910390fd5b6000611c08611872565b9050611c3881856000611c1a876125a7565b611c23876125a7565b604051806020016040528060008152506123b8565b600080600085815260200190815260200160002060008673ffffffffffffffffffffffffffffffffffffffff1673ffffffffffffffffffffffffffffffffffffffff16815260200190815260200160002054905082811015611ccf576040517f08c379a0000000000000000000000000000000000000000000000000000000008152600401611cc6906136fc565b60405180910390fd5b82810360008086815260200190815260200160002060008773ffffffffffffffffffffffffffffffffffffffff1673ffffffffffffffffffffffffffffffffffffffff16815260200190815260200160002081905550600073ffffffffffffffffffffffffffffffffffffffff168573ffffffffffffffffffffffffffffffffffffffff168373ffffffffffffffffffffffffffffffffffffffff167fc3d58168c5ae7397731d063d5bbf3d657854427343f4c083240f7aacaa2d0f628787604051611d9c929190613915565b60405180910390a45050505050565b600073ffffffffffffffffffffffffffffffffffffffff168473ffffffffffffffffffffffffffffffffffffffff161415611e1b576040517f08c379a0000000000000000000000000000000000000000000000000000000008152600401611e129061387c565b60405180910390fd5b8151835114611e5f576040517f08c379a0000000000000000000000000000000000000000000000000000000008152600401611e569061385c565b60405180910390fd5b6000611e69611872565b9050611e7a816000878787876123b8565b60005b8451811015611f3357838181518110611e9957611e98613d89565b5b6020026020010151600080878481518110611eb757611eb6613d89565b5b6020026020010151815260200190815260200160002060008873ffffffffffffffffffffffffffffffffffffffff1673ffffffffffffffffffffffffffffffffffffffff1681526020019081526020016000206000828254611f199190613ac5565b925050819055508080611f2b90613cb3565b915050611e7d565b508473ffffffffffffffffffffffffffffffffffffffff16600073ffffffffffffffffffffffffffffffffffffffff168273ffffffffffffffffffffffffffffffffffffffff167f4a39dc06d4c0dbc64b70af90fd698a233a518aa5d07e595d983b8c0526c8f7fb8787604051611fab929190613608565b60405180910390a4611fc2816000878787876123c0565b5050505050565b8173ffffffffffffffffffffffffffffffffffffffff168373ffffffffffffffffffffffffffffffffffffffff161415612038576040517f08c379a000000000000000000000000000000000000000000000000000000000815260040161202f9061381c565b60405180910390fd5b80600160008573ffffffffffffffffffffffffffffffffffffffff1673ffffffffffffffffffffffffffffffffffffffff16815260200190815260200160002060008473ffffffffffffffffffffffffffffffffffffffff1673ffffffffffffffffffffffffffffffffffffffff16815260200190815260200160002060006101000a81548160ff0219169083151502179055508173ffffffffffffffffffffffffffffffffffffffff168373ffffffffffffffffffffffffffffffffffffffff167f17307eab39ab6107e8899845ad3d59bd9653f200f220920489ca2b5937696c3183604051612129919061363f565b60405180910390a3505050565b600073ffffffffffffffffffffffffffffffffffffffff168473ffffffffffffffffffffffffffffffffffffffff1614156121a6576040517f08c379a000000000000000000000000000000000000000000000000000000000815260040161219d9061373c565b60405180910390fd5b60006121b0611872565b90506121d08187876121c1886125a7565b6121ca886125a7565b876123b8565b600080600086815260200190815260200160002060008873ffffffffffffffffffffffffffffffffffffffff1673ffffffffffffffffffffffffffffffffffffffff16815260200190815260200160002054905083811015612267576040517f08c379a000000000000000000000000000000000000000000000000000000000815260040161225e906137bc565b60405180910390fd5b83810360008087815260200190815260200160002060008973ffffffffffffffffffffffffffffffffffffffff1673ffffffffffffffffffffffffffffffffffffffff168152602001908152602001600020819055508360008087815260200190815260200160002060008873ffffffffffffffffffffffffffffffffffffffff1673ffffffffffffffffffffffffffffffffffffffff168152602001908152602001600020600082825461231c9190613ac5565b925050819055508573ffffffffffffffffffffffffffffffffffffffff168773ffffffffffffffffffffffffffffffffffffffff168373ffffffffffffffffffffffffffffffffffffffff167fc3d58168c5ae7397731d063d5bbf3d657854427343f4c083240f7aacaa2d0f628888604051612399929190613915565b60405180910390a46123af828888888888612621565b50505050505050565b505050505050565b6123df8473ffffffffffffffffffffffffffffffffffffffff16612808565b1561259f578373ffffffffffffffffffffffffffffffffffffffff1663bc197c8187878686866040518663ffffffff1660e01b8152600401612425959493929190613524565b602060405180830381600087803b15801561243f57600080fd5b505af192505050801561247057506040513d601f19601f8201168201806040525081019061246d9190613090565b60015b6125165761247c613de7565b806308c379a014156124d95750612491614336565b8061249c57506124db565b806040517f08c379a00000000000000000000000000000000000000000000000000000000081526004016124d0919061365a565b60405180910390fd5b505b6040517f08c379a000000000000000000000000000000000000000000000000000000000815260040161250d9061367c565b60405180910390fd5b63bc197c8160e01b7bffffffffffffffffffffffffffffffffffffffffffffffffffffffff1916817bffffffffffffffffffffffffffffffffffffffffffffffffffffffff19161461259d576040517f08c379a00000000000000000000000000000000000000000000000000000000081526004016125949061369c565b60405180910390fd5b505b505050505050565b60606000600167ffffffffffffffff8111156125c6576125c5613db8565b5b6040519080825280602002602001820160405280156125f45781602001602082028036833780820191505090505b509050828160008151811061260c5761260b613d89565b5b60200260200101818152505080915050919050565b6126408473ffffffffffffffffffffffffffffffffffffffff16612808565b15612800578373ffffffffffffffffffffffffffffffffffffffff1663f23a6e6187878686866040518663ffffffff1660e01b815260040161268695949392919061358c565b602060405180830381600087803b1580156126a057600080fd5b505af19250505080156126d157506040513d601f19601f820116820180604052508101906126ce9190613090565b60015b612777576126dd613de7565b806308c379a0141561273a57506126f2614336565b806126fd575061273c565b806040517f08c379a0000000000000000000000000000000000000000000000000000000008152600401612731919061365a565b60405180910390fd5b505b6040517f08c379a000000000000000000000000000000000000000000000000000000000815260040161276e9061367c565b60405180910390fd5b63f23a6e6160e01b7bffffffffffffffffffffffffffffffffffffffffffffffffffffffff1916817bffffffffffffffffffffffffffffffffffffffffffffffffffffffff1916146127fe576040517f08c379a00000000000000000000000000000000000000000000000000000000081526004016127f59061369c565b60405180910390fd5b505b505050505050565b6000808273ffffffffffffffffffffffffffffffffffffffff163b119050919050565b82805461283790613c50565b90600052602060002090601f01602090048101928261285957600085556128a0565b82601f1061287257805160ff19168380011785556128a0565b828001600101855582156128a0579182015b8281111561289f578251825591602001919060010190612884565b5b5090506128ad91906128b1565b5090565b5b808211156128ca5760008160009055506001016128b2565b5090565b60006128e16128dc84613963565b61393e565b9050808382526020820190508285602086028201111561290457612903613e0e565b5b60005b85811015612934578161291a8882612ac0565b845260208401935060208301925050600181019050612907565b5050509392505050565b600061295161294c8461398f565b61393e565b9050808382526020820190508285602086028201111561297457612973613e0e565b5b60005b858110156129c257813567ffffffffffffffff81111561299a57612999613e09565b5b8086016129a78982612bcc565b85526020850194506020840193505050600181019050612977565b5050509392505050565b60006129df6129da846139bb565b61393e565b90508083825260208201905082856020860282011115612a0257612a01613e0e565b5b60005b85811015612a325781612a188882612bfa565b845260208401935060208301925050600181019050612a05565b5050509392505050565b6000612a4f612a4a846139e7565b61393e565b905082815260208101848484011115612a6b57612a6a613e13565b5b612a76848285613c0e565b509392505050565b6000612a91612a8c84613a18565b61393e565b905082815260208101848484011115612aad57612aac613e13565b5b612ab8848285613c0e565b509392505050565b600081359050612acf816143e0565b92915050565b600082601f830112612aea57612ae9613e09565b5b8135612afa8482602086016128ce565b91505092915050565b600082601f830112612b1857612b17613e09565b5b8135612b2884826020860161293e565b91505092915050565b600082601f830112612b4657612b45613e09565b5b8135612b568482602086016129cc565b91505092915050565b600081359050612b6e816143f7565b92915050565b600081359050612b838161440e565b92915050565b600081519050612b988161440e565b92915050565b600082601f830112612bb357612bb2613e09565b5b8135612bc3848260208601612a3c565b91505092915050565b600082601f830112612be157612be0613e09565b5b8135612bf1848260208601612a7e565b91505092915050565b600081359050612c0981614425565b92915050565b60008060408385031215612c2657612c25613e1d565b5b6000612c3485828601612ac0565b9250506020612c4585828601612ac0565b9150509250929050565b600080600080600060a08688031215612c6b57612c6a613e1d565b5b6000612c7988828901612ac0565b9550506020612c8a88828901612ac0565b945050604086013567ffffffffffffffff811115612cab57612caa613e18565b5b612cb788828901612b03565b935050606086013567ffffffffffffffff811115612cd857612cd7613e18565b5b612ce488828901612b03565b925050608086013567ffffffffffffffff811115612d0557612d04613e18565b5b612d1188828901612b03565b9150509295509295909350565b600080600080600060a08688031215612d3a57612d39613e1d565b5b6000612d4888828901612ac0565b9550506020612d5988828901612ac0565b945050604086013567ffffffffffffffff811115612d7a57612d79613e18565b5b612d8688828901612b31565b935050606086013567ffffffffffffffff811115612da757612da6613e18565b5b612db388828901612b31565b925050608086013567ffffffffffffffff811115612dd457612dd3613e18565b5b612de088828901612b9e565b9150509295509295909350565b600080600080600060a08688031215612e0957612e08613e1d565b5b6000612e1788828901612ac0565b9550506020612e2888828901612ac0565b9450506040612e3988828901612bfa565b9350506060612e4a88828901612bfa565b925050608086013567ffffffffffffffff811115612e6b57612e6a613e18565b5b612e7788828901612b9e565b9150509295509295909350565b60008060408385031215612e9b57612e9a613e1d565b5b6000612ea985828601612ac0565b925050602083013567ffffffffffffffff811115612eca57612ec9613e18565b5b612ed685828601612b03565b9150509250929050565b600080600060608486031215612ef957612ef8613e1d565b5b6000612f0786828701612ac0565b935050602084013567ffffffffffffffff811115612f2857612f27613e18565b5b612f3486828701612b03565b925050604084013567ffffffffffffffff811115612f5557612f54613e18565b5b612f6186828701612b03565b9150509250925092565b60008060408385031215612f8257612f81613e1d565b5b6000612f9085828601612ac0565b9250506020612fa185828601612b5f565b9150509250929050565b60008060408385031215612fc257612fc1613e1d565b5b6000612fd085828601612ac0565b9250506020612fe185828601612bfa565b9150509250929050565b6000806040838503121561300257613001613e1d565b5b600083013567ffffffffffffffff8111156130205761301f613e18565b5b61302c85828601612ad5565b925050602083013567ffffffffffffffff81111561304d5761304c613e18565b5b61305985828601612b31565b9150509250929050565b60006020828403121561307957613078613e1d565b5b600061308784828501612b74565b91505092915050565b6000602082840312156130a6576130a5613e1d565b5b60006130b484828501612b89565b91505092915050565b6000602082840312156130d3576130d2613e1d565b5b600082013567ffffffffffffffff8111156130f1576130f0613e18565b5b6130fd84828501612bcc565b91505092915050565b60006020828403121561311c5761311b613e1d565b5b600061312a84828501612bfa565b91505092915050565b600061313f83836134ef565b60208301905092915050565b61315481613b75565b82525050565b600061316582613a59565b61316f8185613a87565b935061317a83613a49565b8060005b838110156131ab5781516131928882613133565b975061319d83613a7a565b92505060018101905061317e565b5085935050505092915050565b6131c181613b87565b82525050565b60006131d282613a64565b6131dc8185613a98565b93506131ec818560208601613c1d565b6131f581613e22565b840191505092915050565b61320981613bfc565b82525050565b600061321a82613a6f565b6132248185613aa9565b9350613234818560208601613c1d565b61323d81613e22565b840191505092915050565b600061325382613a6f565b61325d8185613aba565b935061326d818560208601613c1d565b80840191505092915050565b6000613286603483613aa9565b915061329182613e40565b604082019050919050565b60006132a9602883613aa9565b91506132b482613e8f565b604082019050919050565b60006132cc602b83613aa9565b91506132d782613ede565b604082019050919050565b60006132ef602083613aa9565b91506132fa82613f2d565b602082019050919050565b6000613312602483613aa9565b915061331d82613f56565b604082019050919050565b6000613335602983613aa9565b915061334082613fa5565b604082019050919050565b6000613358602583613aa9565b915061336382613ff4565b604082019050919050565b600061337b603283613aa9565b915061338682614043565b604082019050919050565b600061339e602383613aa9565b91506133a982614092565b604082019050919050565b60006133c1602383613aa9565b91506133cc826140e1565b604082019050919050565b60006133e4602a83613aa9565b91506133ef82614130565b604082019050919050565b6000613407601983613aa9565b91506134128261417f565b602082019050919050565b600061342a601f83613aa9565b9150613435826141a8565b602082019050919050565b600061344d602983613aa9565b9150613458826141d1565b604082019050919050565b6000613470602983613aa9565b915061347b82614220565b604082019050919050565b6000613493602883613aa9565b915061349e8261426f565b604082019050919050565b60006134b6602183613aa9565b91506134c1826142be565b604082019050919050565b60006134d9601883613aa9565b91506134e48261430d565b602082019050919050565b6134f881613bf2565b82525050565b61350781613bf2565b82525050565b60006135198284613248565b915081905092915050565b600060a082019050613539600083018861314b565b613546602083018761314b565b8181036040830152613558818661315a565b9050818103606083015261356c818561315a565b9050818103608083015261358081846131c7565b90509695505050505050565b600060a0820190506135a1600083018861314b565b6135ae602083018761314b565b6135bb60408301866134fe565b6135c860608301856134fe565b81810360808301526135da81846131c7565b90509695505050505050565b60006020820190508181036000830152613600818461315a565b905092915050565b60006040820190508181036000830152613622818561315a565b90508181036020830152613636818461315a565b90509392505050565b600060208201905061365460008301846131b8565b92915050565b60006020820190508181036000830152613674818461320f565b905092915050565b6000602082019050818103600083015261369581613279565b9050919050565b600060208201905081810360008301526136b58161329c565b9050919050565b600060208201905081810360008301526136d5816132bf565b9050919050565b600060208201905081810360008301526136f5816132e2565b9050919050565b6000602082019050818103600083015261371581613305565b9050919050565b6000602082019050818103600083015261373581613328565b9050919050565b600060208201905081810360008301526137558161334b565b9050919050565b600060208201905081810360008301526137758161336e565b9050919050565b6000602082019050818103600083015261379581613391565b9050919050565b600060208201905081810360008301526137b5816133b4565b9050919050565b600060208201905081810360008301526137d5816133d7565b9050919050565b600060208201905081810360008301526137f5816133fa565b9050919050565b600060208201905081810360008301526138158161341d565b9050919050565b6000602082019050818103600083015261383581613440565b9050919050565b6000602082019050818103600083015261385581613463565b9050919050565b6000602082019050818103600083015261387581613486565b9050919050565b60006020820190508181036000830152613895816134a9565b9050919050565b600060208201905081810360008301526138b5816134cc565b9050919050565b60006020820190506138d160008301846134fe565b92915050565b60006060820190506138ec60008301866134fe565b81810360208301526138fe818561320f565b905061390d6040830184613200565b949350505050565b600060408201905061392a60008301856134fe565b61393760208301846134fe565b9392505050565b6000613948613959565b90506139548282613c82565b919050565b6000604051905090565b600067ffffffffffffffff82111561397e5761397d613db8565b5b602082029050602081019050919050565b600067ffffffffffffffff8211156139aa576139a9613db8565b5b602082029050602081019050919050565b600067ffffffffffffffff8211156139d6576139d5613db8565b5b602082029050602081019050919050565b600067ffffffffffffffff821115613a0257613a01613db8565b5b613a0b82613e22565b9050602081019050919050565b600067ffffffffffffffff821115613a3357613a32613db8565b5b613a3c82613e22565b9050602081019050919050565b6000819050602082019050919050565b600081519050919050565b600081519050919050565b600081519050919050565b6000602082019050919050565b600082825260208201905092915050565b600082825260208201905092915050565b600082825260208201905092915050565b600081905092915050565b6000613ad082613bf2565b9150613adb83613bf2565b9250827fffffffffffffffffffffffffffffffffffffffffffffffffffffffffffffffff03821115613b1057613b0f613cfc565b5b828201905092915050565b6000613b2682613bf2565b9150613b3183613bf2565b9250817fffffffffffffffffffffffffffffffffffffffffffffffffffffffffffffffff0483118215151615613b6a57613b69613cfc565b5b828202905092915050565b6000613b8082613bd2565b9050919050565b60008115159050919050565b60007fffffffff0000000000000000000000000000000000000000000000000000000082169050919050565b6000819050613bcd826143cc565b919050565b600073ffffffffffffffffffffffffffffffffffffffff82169050919050565b6000819050919050565b6000613c0782613bbf565b9050919050565b82818337600083830152505050565b60005b83811015613c3b578082015181840152602081019050613c20565b83811115613c4a576000848401525b50505050565b60006002820490506001821680613c6857607f821691505b60208210811415613c7c57613c7b613d5a565b5b50919050565b613c8b82613e22565b810181811067ffffffffffffffff82111715613caa57613ca9613db8565b5b80604052505050565b6000613cbe82613bf2565b91507fffffffffffffffffffffffffffffffffffffffffffffffffffffffffffffffff821415613cf157613cf0613cfc565b5b600182019050919050565b7f4e487b7100000000000000000000000000000000000000000000000000000000600052601160045260246000fd5b7f4e487b7100000000000000000000000000000000000000000000000000000000600052602160045260246000fd5b7f4e487b7100000000000000000000000000000000000000000000000000000000600052602260045260246000fd5b7f4e487b7100000000000000000000000000000000000000000000000000000000600052603260045260246000fd5b7f4e487b7100000000000000000000000000000000000000000000000000000000600052604160045260246000fd5b600060033d1115613e065760046000803e613e03600051613e33565b90505b90565b600080fd5b600080fd5b600080fd5b600080fd5b600080fd5b6000601f19601f8301169050919050565b60008160e01c9050919050565b7f455243313135353a207472616e7366657220746f206e6f6e204552433131353560008201527f526563656976657220696d706c656d656e746572000000000000000000000000602082015250565b7f455243313135353a204552433131353552656365697665722072656a6563746560008201527f6420746f6b656e73000000000000000000000000000000000000000000000000602082015250565b7f455243313135353a2062616c616e636520717565727920666f7220746865207a60008201527f65726f2061646472657373000000000000000000000000000000000000000000602082015250565b7f4d6f7a7a6172656c6c6120626c6f636b20616c7265616479206578697374732e600082015250565b7f455243313135353a206275726e20616d6f756e7420657863656564732062616c60008201527f616e636500000000000000000000000000000000000000000000000000000000602082015250565b7f455243313135353a2063616c6c6572206973206e6f74206f776e6572206e6f7260008201527f20617070726f7665640000000000000000000000000000000000000000000000602082015250565b7f455243313135353a207472616e7366657220746f20746865207a65726f20616460008201527f6472657373000000000000000000000000000000000000000000000000000000602082015250565b7f455243313135353a207472616e736665722063616c6c6572206973206e6f742060008201527f6f776e6572206e6f7220617070726f7665640000000000000000000000000000602082015250565b7f5368726564646564206d6f7a7a6172656c6c6120616c7265616479206578697360008201527f74732e0000000000000000000000000000000000000000000000000000000000602082015250565b7f455243313135353a206275726e2066726f6d20746865207a65726f206164647260008201527f6573730000000000000000000000000000000000000000000000000000000000602082015250565b7f455243313135353a20696e73756666696369656e742062616c616e636520666f60008201527f72207472616e7366657200000000000000000000000000000000000000000000602082015250565b7f4d696c6b2074616e6b20616c7265616479206578697374732e00000000000000600082015250565b7f4d6f7a7a6172656c6c6120626c6f636b20646f65736e27742065786973742e00600082015250565b7f455243313135353a2073657474696e6720617070726f76616c2073746174757360008201527f20666f722073656c660000000000000000000000000000000000000000000000602082015250565b7f455243313135353a206163636f756e747320616e6420696473206c656e67746860008201527f206d69736d617463680000000000000000000000000000000000000000000000602082015250565b7f455243313135353a2069647320616e6420616d6f756e7473206c656e6774682060008201527f6d69736d61746368000000000000000000000000000000000000000000000000602082015250565b7f455243313135353a206d696e7420746f20746865207a65726f2061646472657360008201527f7300000000000000000000000000000000000000000000000000000000000000602082015250565b7f4d696c6b2074616e6b20646f65736e27742065786973742e0000000000000000600082015250565b600060443d1015614346576143c9565b61434e613959565b60043d036004823e80513d602482011167ffffffffffffffff821117156143765750506143c9565b808201805167ffffffffffffffff81111561439457505050506143c9565b80602083010160043d0385018111156143b15750505050506143c9565b6143c082602001850186613c82565b82955050505050505b90565b600281106143dd576143dc613d2b565b5b50565b6143e981613b75565b81146143f457600080fd5b50565b61440081613b87565b811461440b57600080fd5b50565b61441781613b93565b811461442257600080fd5b50565b61442e81613bf2565b811461443957600080fd5b5056fea264697066735822122039bbb8682418748bc7b3be59c0ecd58108e17ae0d0bf2b5c04dab318d2e4131064736f6c63430008070033",
  "immutableReferences": {},
  "source": "// SPDX-License-Identifier: MIT\n\npragma solidity ^0.8.0;\n\nimport \"../node_modules/@openzeppelin/contracts/token/ERC1155/ERC1155.sol\";\n\n/**\n * Tracks all intermediate items in the mozzarella supply chain.\n * require tracking events and intermediate items to be pre-defined\n *\n * Supports representation of product transformation\n * e.g., tankblock_m and tankblock_n pair means m milktanks can create n mozzarellablocks\n */\ncontract MozzarellaSupplyChain is ERC1155 {\n    uint256 tankblock_m = 1;\n    uint256 tankblock_n = 3;\n\n    uint256 blockbag_m = 1;\n    uint256 blockbag_n = 20;\n\n    enum ItemStatus {\n        AWAITING,\n        PROCESSED\n    }\n\n    struct Milktank {\n        uint256 id;\n        string metadata;\n        ItemStatus status;\n    }\n\n    struct Mozzarellablock {\n        uint256 id;\n        string metadata;\n        ItemStatus status;\n    }\n\n    struct Shreddedmozzarella {\n        uint256 id;\n        string metadata;\n        ItemStatus status;\n    }\n\n    mapping(string => Milktank) public milktanks;\n    mapping(string => Mozzarellablock) public mozzarellablocks;\n    mapping(string => Shreddedmozzarella) public shreddedmozzarellas;\n\n    mapping(string => bool) public milktankExists;\n    mapping(string => bool) public mozzarellablockExists;\n    mapping(string => bool) public shreddedmozzarellaExists;\n\n    // to define struct for status of items\n\n    uint256 public allTokenCount = 0; //stores the total number of minted tokens across all types\n\n    constructor() public ERC1155(\"\") {}\n\n    /**\n     * Convert milk tank names to uint ids for minting\n     * ids are incremental as any new tokens are minted and should not be duplicate\n     * store milktank names and metadata in mapping\n     * to ensure non-fungiblility, amount is set to 1 for each milktank\n     */\n    function mintMilktank(\n        address to,\n        string[] memory names,\n        string[] memory metadata\n    ) public {\n        require(names.length == metadata.length);\n\n        for (uint256 i = 0; i < names.length; i++) {\n            require(!milktankExists[names[i]], \"Milk tank already exists.\");\n        }\n\n        uint256[] memory ids;\n        uint256[] memory amounts;\n\n        for (uint256 i = 0; i < names.length; i++) {\n            ids[i] = allTokenCount + i;\n            milktanks[names[i]].id = ids[i];\n            milktanks[names[i]].metadata = metadata[i];\n            milktanks[names[i]].status = ItemStatus.AWAITING;\n            amounts[i] = 1;\n        }\n\n        _mintBatch(to, ids, amounts, \"\");\n        allTokenCount += names.length;\n    }\n\n    function mintMozzarellablock(\n        address to,\n        string[] memory names,\n        string[] memory metadata\n    ) public {\n        require(names.length == metadata.length);\n\n        for (uint256 i = 0; i < names.length; i++) {\n            require(!mozzarellablockExists[names[i]], \"Mozzarella block already exists.\");\n        }\n\n        uint256[] memory ids;\n        uint256[] memory amounts;\n\n        for (uint256 i = 0; i < names.length; i++) {\n            ids[i] = allTokenCount + i;\n            mozzarellablocks[names[i]].id = ids[i];\n            mozzarellablocks[names[i]].metadata = metadata[i];\n            mozzarellablocks[names[i]].status = ItemStatus.AWAITING;\n            amounts[i] = 1;\n        }\n\n        _mintBatch(to, ids, amounts, \"\");\n        allTokenCount += names.length;\n    }\n\n    function mintShreddedmozzarella(\n        address to,\n        string[] memory names,\n        string[] memory metadata\n    ) public {\n        require(names.length == metadata.length);\n\n        for (uint256 i = 0; i < names.length; i++) {\n            require(!shreddedmozzarellaExists[names[i]], \"Shredded mozzarella already exists.\");\n        }\n\n        uint256[] memory ids;\n        uint256[] memory amounts;\n\n        for (uint256 i = 0; i < names.length; i++) {\n            ids[i] = allTokenCount + i;\n            shreddedmozzarellas[names[i]].id = ids[i];\n            shreddedmozzarellas[names[i]].metadata = metadata[i];\n            shreddedmozzarellas[names[i]].status = ItemStatus.AWAITING;\n            amounts[i] = 1;\n        }\n\n        _mintBatch(to, ids, amounts, \"\");\n        allTokenCount += names.length;\n    }\n\n    /**\n     * To process an item means to burn it (remove ownership) and change the status to processed\n     */\n    function processMilk(address from, string[] memory names) public {\n        for (uint256 i = 0; i < names.length; i++) {\n            require(milktankExists[names[i]], \"Milk tank doesn't exist.\");\n        }\n\n        for (uint256 i = 0; i < names.length; i++) {\n            _burn(from, milktanks[names[i]].id, 1);\n            milktanks[names[i]].status = ItemStatus.PROCESSED;\n        }\n    }\n\n    function processMozzarellablock(address from, string[] memory names) public {\n        for (uint256 i = 0; i < names.length; i++) {\n            require(mozzarellablockExists[names[i]], \"Mozzarella block doesn't exist.\");\n        }\n\n        for (uint256 i = 0; i < names.length; i++) {\n            _burn(from, mozzarellablocks[names[i]].id, 1);\n            mozzarellablocks[names[i]].status = ItemStatus.PROCESSED;\n        }\n    }\n\n    /**\n     * To transform milk tanks to mozzarella blocks\n     * burn milk tank tokens, and create mozzarella block tokens, not removing metadata\n     */\n    function tankblockTransform(address from, address to, string[] memory tanks, string[] memory blocks, string[] memory metadata) public {\n        require(tankblock_n*tanks.length == tankblock_m*blocks.length);\n\n        processMilk(from, tanks);\n        mintMozzarellablock(to, blocks, metadata);\n    }\n\n    function blockbagTransform(address from, address to, string[] memory blocks, string[] memory bags, string[] memory metadata) public {\n        require(blockbag_n*blocks.length == blockbag_m*bags.length);\n\n        processMozzarellablock(from, blocks);\n        mintShreddedmozzarella(to, bags, metadata);\n    }\n}",
  "sourcePath": "/home/yih/Documents/dev/tokencontract/contracts/MozzarellaSupplyChain.sol",
  "compiler": {
    "name": "solc",
    "version": "0.8.7+commit.e28d00a7.Emscripten.clang"
  },
  "schemaVersion": "3.4.1",
  "updatedAt": "2022-03-27T22:58:00.377Z",
  "devdoc": {
    "kind": "dev",
    "methods": {
      "balanceOf(address,uint256)": {
        "details": "See {IERC1155-balanceOf}. Requirements: - `account` cannot be the zero address."
      },
      "balanceOfBatch(address[],uint256[])": {
        "details": "See {IERC1155-balanceOfBatch}. Requirements: - `accounts` and `ids` must have the same length."
      },
      "isApprovedForAll(address,address)": {
        "details": "See {IERC1155-isApprovedForAll}."
      },
      "safeBatchTransferFrom(address,address,uint256[],uint256[],bytes)": {
        "details": "See {IERC1155-safeBatchTransferFrom}."
      },
      "safeTransferFrom(address,address,uint256,uint256,bytes)": {
        "details": "See {IERC1155-safeTransferFrom}."
      },
      "setApprovalForAll(address,bool)": {
        "details": "See {IERC1155-setApprovalForAll}."
      },
      "supportsInterface(bytes4)": {
        "details": "See {IERC165-supportsInterface}."
      },
      "uri(uint256)": {
        "details": "See {IERC1155MetadataURI-uri}. This implementation returns the same URI for *all* token types. It relies on the token type ID substitution mechanism https://eips.ethereum.org/EIPS/eip-1155#metadata[defined in the EIP]. Clients calling this function must replace the `\\{id\\}` substring with the actual token type ID."
      }
    },
    "version": 1
  },
  "userdoc": {
    "kind": "user",
    "methods": {
      "mintMilktank(address,string[],string[])": {
        "notice": "Convert milk tank names to uint ids for minting ids are incremental as any new tokens are minted and should not be duplicate store milktank names and metadata in mapping to ensure non-fungiblility, amount is set to 1 for each milktank"
      },
      "processMilk(address,string[])": {
        "notice": "To process an item means to burn it (remove ownership) and change the status to processed"
      },
      "tankblockTransform(address,address,string[],string[],string[])": {
        "notice": "To transform milk tanks to mozzarella blocks burn milk tank tokens, and create mozzarella block tokens, not removing metadata"
      }
    },
    "notice": "Tracks all intermediate items in the mozzarella supply chain. require tracking events and intermediate items to be pre-defined Supports representation of product transformation e.g., tankblock_m and tankblock_n pair means m milktanks can create n mozzarellablocks",
    "version": 1
  }
}