{
  "contractName": "Opal",
  "abi": [
    {
      "inputs": [],
      "stateMutability": "nonpayable",
      "type": "constructor"
    },
    {
      "anonymous": false,
      "inputs": [
        {
          "indexed": true,
          "internalType": "address",
          "name": "owner",
          "type": "address"
        },
        {
          "indexed": true,
          "internalType": "address",
          "name": "approved",
          "type": "address"
        },
        {
          "indexed": true,
          "internalType": "uint256",
          "name": "tokenId",
          "type": "uint256"
        }
      ],
      "name": "Approval",
      "type": "event"
    },
    {
      "anonymous": false,
      "inputs": [
        {
          "indexed": true,
          "internalType": "address",
          "name": "owner",
          "type": "address"
        },
        {
          "indexed": true,
          "internalType": "address",
          "name": "operator",
          "type": "address"
        },
        {
          "indexed": false,
          "internalType": "bool",
          "name": "approved",
          "type": "bool"
        }
      ],
      "name": "ApprovalForAll",
      "type": "event"
    },
    {
      "anonymous": false,
      "inputs": [
        {
          "indexed": false,
          "internalType": "string",
          "name": "tkname",
          "type": "string"
        }
      ],
      "name": "TokenUpdated",
      "type": "event"
    },
    {
      "anonymous": false,
      "inputs": [
        {
          "indexed": false,
          "internalType": "string",
          "name": "tkname",
          "type": "string"
        }
      ],
      "name": "TokenVerified",
      "type": "event"
    },
    {
      "anonymous": false,
      "inputs": [
        {
          "indexed": true,
          "internalType": "address",
          "name": "from",
          "type": "address"
        },
        {
          "indexed": true,
          "internalType": "address",
          "name": "to",
          "type": "address"
        },
        {
          "indexed": true,
          "internalType": "uint256",
          "name": "tokenId",
          "type": "uint256"
        }
      ],
      "name": "Transfer",
      "type": "event"
    },
    {
      "inputs": [],
      "name": "admin",
      "outputs": [
        {
          "internalType": "address",
          "name": "",
          "type": "address"
        }
      ],
      "stateMutability": "view",
      "type": "function"
    },
    {
      "inputs": [
        {
          "internalType": "address",
          "name": "to",
          "type": "address"
        },
        {
          "internalType": "uint256",
          "name": "tokenId",
          "type": "uint256"
        }
      ],
      "name": "approve",
      "outputs": [],
      "stateMutability": "nonpayable",
      "type": "function"
    },
    {
      "inputs": [
        {
          "internalType": "address",
          "name": "owner",
          "type": "address"
        }
      ],
      "name": "balanceOf",
      "outputs": [
        {
          "internalType": "uint256",
          "name": "",
          "type": "uint256"
        }
      ],
      "stateMutability": "view",
      "type": "function"
    },
    {
      "inputs": [
        {
          "internalType": "string",
          "name": "_tkname",
          "type": "string"
        }
      ],
      "name": "burn",
      "outputs": [],
      "stateMutability": "nonpayable",
      "type": "function"
    },
    {
      "inputs": [],
      "name": "countToken",
      "outputs": [
        {
          "internalType": "uint256",
          "name": "",
          "type": "uint256"
        }
      ],
      "stateMutability": "view",
      "type": "function"
    },
    {
      "inputs": [
        {
          "internalType": "uint256",
          "name": "tokenId",
          "type": "uint256"
        }
      ],
      "name": "getApproved",
      "outputs": [
        {
          "internalType": "address",
          "name": "",
          "type": "address"
        }
      ],
      "stateMutability": "view",
      "type": "function"
    },
    {
      "inputs": [
        {
          "internalType": "address",
          "name": "owner",
          "type": "address"
        },
        {
          "internalType": "address",
          "name": "operator",
          "type": "address"
        }
      ],
      "name": "isApprovedForAll",
      "outputs": [
        {
          "internalType": "bool",
          "name": "",
          "type": "bool"
        }
      ],
      "stateMutability": "view",
      "type": "function"
    },
    {
      "inputs": [
        {
          "internalType": "string",
          "name": "_tkname",
          "type": "string"
        },
        {
          "internalType": "string",
          "name": "_metadata",
          "type": "string"
        }
      ],
      "name": "mint",
      "outputs": [],
      "stateMutability": "nonpayable",
      "type": "function"
    },
    {
      "inputs": [],
      "name": "name",
      "outputs": [
        {
          "internalType": "string",
          "name": "",
          "type": "string"
        }
      ],
      "stateMutability": "view",
      "type": "function"
    },
    {
      "inputs": [
        {
          "internalType": "uint256",
          "name": "tokenId",
          "type": "uint256"
        }
      ],
      "name": "ownerOf",
      "outputs": [
        {
          "internalType": "address",
          "name": "",
          "type": "address"
        }
      ],
      "stateMutability": "view",
      "type": "function"
    },
    {
      "inputs": [
        {
          "internalType": "string",
          "name": "",
          "type": "string"
        }
      ],
      "name": "producttks",
      "outputs": [
        {
          "internalType": "uint256",
          "name": "id",
          "type": "uint256"
        },
        {
          "internalType": "string",
          "name": "metadata",
          "type": "string"
        },
        {
          "internalType": "enum DigitalTwin.Verificationstatus",
          "name": "status",
          "type": "uint8"
        }
      ],
      "stateMutability": "view",
      "type": "function"
    },
    {
      "inputs": [],
      "name": "queryAll",
      "outputs": [
        {
          "internalType": "string[]",
          "name": "",
          "type": "string[]"
        }
      ],
      "stateMutability": "view",
      "type": "function"
    },
    {
      "inputs": [
        {
          "internalType": "string",
          "name": "_tkname",
          "type": "string"
        }
      ],
      "name": "queryToken",
      "outputs": [
        {
          "internalType": "uint256",
          "name": "",
          "type": "uint256"
        },
        {
          "internalType": "string",
          "name": "",
          "type": "string"
        },
        {
          "internalType": "string",
          "name": "",
          "type": "string"
        },
        {
          "internalType": "address",
          "name": "",
          "type": "address"
        }
      ],
      "stateMutability": "view",
      "type": "function"
    },
    {
      "inputs": [
        {
          "internalType": "string",
          "name": "_tkname",
          "type": "string"
        }
      ],
      "name": "queryTokenFromContract",
      "outputs": [
        {
          "internalType": "uint256",
          "name": "",
          "type": "uint256"
        },
        {
          "internalType": "string",
          "name": "",
          "type": "string"
        },
        {
          "internalType": "enum DigitalTwin.Verificationstatus",
          "name": "vstatus",
          "type": "uint8"
        },
        {
          "internalType": "address",
          "name": "",
          "type": "address"
        }
      ],
      "stateMutability": "view",
      "type": "function"
    },
    {
      "inputs": [
        {
          "internalType": "address",
          "name": "from",
          "type": "address"
        },
        {
          "internalType": "address",
          "name": "to",
          "type": "address"
        },
        {
          "internalType": "uint256",
          "name": "tokenId",
          "type": "uint256"
        }
      ],
      "name": "safeTransferFrom",
      "outputs": [],
      "stateMutability": "nonpayable",
      "type": "function"
    },
    {
      "inputs": [
        {
          "internalType": "address",
          "name": "from",
          "type": "address"
        },
        {
          "internalType": "address",
          "name": "to",
          "type": "address"
        },
        {
          "internalType": "uint256",
          "name": "tokenId",
          "type": "uint256"
        },
        {
          "internalType": "bytes",
          "name": "_data",
          "type": "bytes"
        }
      ],
      "name": "safeTransferFrom",
      "outputs": [],
      "stateMutability": "nonpayable",
      "type": "function"
    },
    {
      "inputs": [
        {
          "internalType": "address",
          "name": "operator",
          "type": "address"
        },
        {
          "internalType": "bool",
          "name": "approved",
          "type": "bool"
        }
      ],
      "name": "setApprovalForAll",
      "outputs": [],
      "stateMutability": "nonpayable",
      "type": "function"
    },
    {
      "inputs": [
        {
          "internalType": "bytes4",
          "name": "interfaceId",
          "type": "bytes4"
        }
      ],
      "name": "supportsInterface",
      "outputs": [
        {
          "internalType": "bool",
          "name": "",
          "type": "bool"
        }
      ],
      "stateMutability": "view",
      "type": "function"
    },
    {
      "inputs": [],
      "name": "symbol",
      "outputs": [
        {
          "internalType": "string",
          "name": "",
          "type": "string"
        }
      ],
      "stateMutability": "view",
      "type": "function"
    },
    {
      "inputs": [
        {
          "internalType": "string",
          "name": "",
          "type": "string"
        }
      ],
      "name": "tkExists",
      "outputs": [
        {
          "internalType": "bool",
          "name": "",
          "type": "bool"
        }
      ],
      "stateMutability": "view",
      "type": "function"
    },
    {
      "inputs": [
        {
          "internalType": "uint256",
          "name": "",
          "type": "uint256"
        }
      ],
      "name": "tks",
      "outputs": [
        {
          "internalType": "string",
          "name": "",
          "type": "string"
        }
      ],
      "stateMutability": "view",
      "type": "function"
    },
    {
      "inputs": [
        {
          "internalType": "uint256",
          "name": "tokenId",
          "type": "uint256"
        }
      ],
      "name": "tokenURI",
      "outputs": [
        {
          "internalType": "string",
          "name": "",
          "type": "string"
        }
      ],
      "stateMutability": "view",
      "type": "function"
    },
    {
      "inputs": [
        {
          "internalType": "address",
          "name": "from",
          "type": "address"
        },
        {
          "internalType": "address",
          "name": "to",
          "type": "address"
        },
        {
          "internalType": "uint256",
          "name": "tokenId",
          "type": "uint256"
        }
      ],
      "name": "transferFrom",
      "outputs": [],
      "stateMutability": "nonpayable",
      "type": "function"
    },
    {
      "inputs": [
        {
          "internalType": "string",
          "name": "_tkname",
          "type": "string"
        },
        {
          "internalType": "string",
          "name": "_metadata",
          "type": "string"
        }
      ],
      "name": "update",
      "outputs": [],
      "stateMutability": "nonpayable",
      "type": "function"
    },
    {
      "inputs": [
        {
          "internalType": "string",
          "name": "_tkname",
          "type": "string"
        },
        {
          "internalType": "bool",
          "name": "_status",
          "type": "bool"
        }
      ],
      "name": "verify",
      "outputs": [],
      "stateMutability": "nonpayable",
      "type": "function"
    }
  ],
  "bytecode": "0x60806040523480156200001157600080fd5b506040518060400160405280600a81526020017f4f70616c20546f6b656e000000000000000000000000000000000000000000008152506040518060400160405280600481526020017f4f50414c000000000000000000000000000000000000000000000000000000008152508181816000908051906020019062000098929190620000fd565b508060019080519060200190620000b1929190620000fd565b50505033600760006101000a81548173ffffffffffffffffffffffffffffffffffffffff021916908373ffffffffffffffffffffffffffffffffffffffff160217905550505062000212565b8280546200010b90620001ad565b90600052602060002090601f0160209004810192826200012f57600085556200017b565b82601f106200014a57805160ff19168380011785556200017b565b828001600101855582156200017b579182015b828111156200017a5782518255916020019190600101906200015d565b5b5090506200018a91906200018e565b5090565b5b80821115620001a95760008160009055506001016200018f565b5090565b60006002820490506001821680620001c657607f821691505b60208210811415620001dd57620001dc620001e3565b5b50919050565b7f4e487b7100000000000000000000000000000000000000000000000000000000600052602260045260246000fd5b613f0d80620002226000396000f3fe608060405234801561001057600080fd5b50600436106101735760003560e01c8063a22cb465116100de578063dafa1d2d11610097578063e985e9c511610071578063e985e9c514610488578063f4c84d19146104b8578063f851a440146104d4578063fe7c827b146104f257610173565b8063dafa1d2d14610430578063e59247081461044c578063e7a81c551461046a57610173565b8063a22cb46514610347578063b88d4fde14610363578063c5573d461461037f578063c87b56dd146103b2578063c8908f02146103e2578063d26ac3881461041457610173565b806342842e0e1161013057806342842e0e1461025e5780636352211e1461027a57806370a08231146102aa578063769016a5146102da5780638aa0fdad1461030d57806395d89b411461032957610173565b806301ffc9a71461017857806306fdde03146101a8578063081812fc146101c6578063095ea7b3146101f65780630ad5b5051461021257806323b872dd14610242575b600080fd5b610192600480360381019061018d9190612add565b610522565b60405161019f919061315c565b60405180910390f35b6101b0610604565b6040516101bd9190613177565b60405180910390f35b6101e060048036038101906101db9190612c54565b610696565b6040516101ed91906130d3565b60405180910390f35b610210600480360381019061020b9190612a9d565b61071b565b005b61022c60048036038101906102279190612b37565b610833565b604051610239919061315c565b60405180910390f35b61025c60048036038101906102579190612987565b610869565b005b61027860048036038101906102739190612987565b6108c9565b005b610294600480360381019061028f9190612c54565b6108e9565b6040516102a191906130d3565b60405180910390f35b6102c460048036038101906102bf919061291a565b61099b565b6040516102d191906133d9565b60405180910390f35b6102f460048036038101906102ef9190612b37565b610a53565b6040516103049493929190613432565b60405180910390f35b61032760048036038101906103229190612bdc565b610bce565b005b610331610d6c565b60405161033e9190613177565b60405180910390f35b610361600480360381019061035c9190612a5d565b610dfe565b005b61037d600480360381019061037891906129da565b610e14565b005b61039960048036038101906103949190612b37565b610e76565b6040516103a9949392919061347e565b60405180910390f35b6103cc60048036038101906103c79190612c54565b61115e565b6040516103d99190613177565b60405180910390f35b6103fc60048036038101906103f79190612b37565b611205565b60405161040b939291906133f4565b60405180910390f35b61042e60048036038101906104299190612b80565b6112da565b005b61044a60048036038101906104459190612b37565b611427565b005b6104546115a3565b604051610461919061313a565b60405180910390f35b6104726116d6565b60405161047f91906133d9565b60405180910390f35b6104a2600480360381019061049d9190612947565b61173d565b6040516104af919061315c565b60405180910390f35b6104d260048036038101906104cd9190612bdc565b6117d1565b005b6104dc611944565b6040516104e991906130d3565b60405180910390f35b61050c60048036038101906105079190612c54565b61196a565b6040516105199190613177565b60405180910390f35b60007f80ac58cd000000000000000000000000000000000000000000000000000000007bffffffffffffffffffffffffffffffffffffffffffffffffffffffff1916827bffffffffffffffffffffffffffffffffffffffffffffffffffffffff191614806105ed57507f5b5e139f000000000000000000000000000000000000000000000000000000007bffffffffffffffffffffffffffffffffffffffffffffffffffffffff1916827bffffffffffffffffffffffffffffffffffffffffffffffffffffffff1916145b806105fd57506105fc82611a16565b5b9050919050565b6060600080546106139061377b565b80601f016020809104026020016040519081016040528092919081815260200182805461063f9061377b565b801561068c5780601f106106615761010080835404028352916020019161068c565b820191906000526020600020905b81548152906001019060200180831161066f57829003601f168201915b5050505050905090565b60006106a182611a80565b6106e0576040517f08c379a00000000000000000000000000000000000000000000000000000000081526004016106d790613359565b60405180910390fd5b6004600083815260200190815260200160002060009054906101000a900473ffffffffffffffffffffffffffffffffffffffff169050919050565b6000610726826108e9565b90508073ffffffffffffffffffffffffffffffffffffffff168373ffffffffffffffffffffffffffffffffffffffff161415610797576040517f08c379a000000000000000000000000000000000000000000000000000000000815260040161078e90613399565b60405180910390fd5b8073ffffffffffffffffffffffffffffffffffffffff166107b6611aec565b73ffffffffffffffffffffffffffffffffffffffff1614806107e557506107e4816107df611aec565b61173d565b5b610824576040517f08c379a000000000000000000000000000000000000000000000000000000000815260040161081b90613299565b60405180910390fd5b61082e8383611af4565b505050565b6009818051602081018201805184825260208301602085012081835280955050505050506000915054906101000a900460ff1681565b61087a610874611aec565b82611bad565b6108b9576040517f08c379a00000000000000000000000000000000000000000000000000000000081526004016108b0906133b9565b60405180910390fd5b6108c4838383611c8b565b505050565b6108e483838360405180602001604052806000815250610e14565b505050565b6000806002600084815260200190815260200160002060009054906101000a900473ffffffffffffffffffffffffffffffffffffffff169050600073ffffffffffffffffffffffffffffffffffffffff168173ffffffffffffffffffffffffffffffffffffffff161415610992576040517f08c379a0000000000000000000000000000000000000000000000000000000008152600401610989906132d9565b60405180910390fd5b80915050919050565b60008073ffffffffffffffffffffffffffffffffffffffff168273ffffffffffffffffffffffffffffffffffffffff161415610a0c576040517f08c379a0000000000000000000000000000000000000000000000000000000008152600401610a03906132b9565b60405180910390fd5b600360008373ffffffffffffffffffffffffffffffffffffffff1673ffffffffffffffffffffffffffffffffffffffff168152602001908152602001600020549050919050565b60006060600080600985604051610a6a9190613098565b908152602001604051809103902060009054906101000a900460ff16610ac5576040517f08c379a0000000000000000000000000000000000000000000000000000000008152600401610abc90613339565b60405180910390fd5b600885604051610ad59190613098565b908152602001604051809103902060000154600886604051610af79190613098565b908152602001604051809103902060010183610b33600889604051610b1c9190613098565b9081526020016040518091039020600001546108e9565b828054610b3f9061377b565b80601f0160208091040260200160405190810160405280929190818152602001828054610b6b9061377b565b8015610bb85780601f10610b8d57610100808354040283529160200191610bb8565b820191906000526020600020905b815481529060010190602001808311610b9b57829003601f168201915b5050505050925093509350935093509193509193565b600982604051610bde9190613098565b908152602001604051809103902060009054906101000a900460ff1615610c3a576040517f08c379a0000000000000000000000000000000000000000000000000000000008152600401610c31906132f9565b60405180910390fd5b600682908060018154018082558091505060019003906000526020600020016000909190919091509080519060200190610c759291906126ee565b5060006006805490509050610c8a3382611ef2565b80600884604051610c9b9190613098565b90815260200160405180910390206000018190555081600884604051610cc19190613098565b90815260200160405180910390206001019080519060200190610ce59291906126ee565b506000600884604051610cf89190613098565b908152602001604051809103902060020160006101000a81548160ff02191690836002811115610d2b57610d2a6138b6565b5b02179055506001600984604051610d429190613098565b908152602001604051809103902060006101000a81548160ff021916908315150217905550505050565b606060018054610d7b9061377b565b80601f0160208091040260200160405190810160405280929190818152602001828054610da79061377b565b8015610df45780601f10610dc957610100808354040283529160200191610df4565b820191906000526020600020905b815481529060010190602001808311610dd757829003601f168201915b5050505050905090565b610e10610e09611aec565b83836120cc565b5050565b610e25610e1f611aec565b83611bad565b610e64576040517f08c379a0000000000000000000000000000000000000000000000000000000008152600401610e5b906133b9565b60405180910390fd5b610e7084848484612239565b50505050565b60006060806000600985604051610e8d9190613098565b908152602001604051809103902060009054906101000a900460ff16610ee8576040517f08c379a0000000000000000000000000000000000000000000000000000000008152600401610edf90613339565b60405180910390fd5b606060006002811115610efe57610efd6138b6565b5b600887604051610f0e9190613098565b908152602001604051809103902060020160009054906101000a900460ff166002811115610f3f57610f3e6138b6565b5b1415610f82576040518060400160405280601481526020017f70656e64696e6720766572696669636174696f6e0000000000000000000000008152509050611054565b60016002811115610f9657610f956138b6565b5b600887604051610fa69190613098565b908152602001604051809103902060020160009054906101000a900460ff166002811115610fd757610fd66138b6565b5b141561101a576040518060400160405280600881526020017f76657269666965640000000000000000000000000000000000000000000000008152509050611053565b6040518060400160405280600681526020017f64656e696564000000000000000000000000000000000000000000000000000081525090505b5b6008866040516110649190613098565b9081526020016040518091039020600001546008876040516110869190613098565b9081526020016040518091039020600101826110c260088a6040516110ab9190613098565b9081526020016040518091039020600001546108e9565b8280546110ce9061377b565b80601f01602080910402602001604051908101604052809291908181526020018280546110fa9061377b565b80156111475780601f1061111c57610100808354040283529160200191611147565b820191906000526020600020905b81548152906001019060200180831161112a57829003601f168201915b505050505092509450945094509450509193509193565b606061116982611a80565b6111a8576040517f08c379a000000000000000000000000000000000000000000000000000000000815260040161119f90613379565b60405180910390fd5b60006111b2612295565b905060008151116111d257604051806020016040528060008152506111fd565b806111dc846122ac565b6040516020016111ed9291906130af565b6040516020818303038152906040525b915050919050565b6008818051602081018201805184825260208301602085012081835280955050505050506000915090508060000154908060010180546112449061377b565b80601f01602080910402602001604051908101604052809291908181526020018280546112709061377b565b80156112bd5780601f10611292576101008083540402835291602001916112bd565b820191906000526020600020905b8154815290600101906020018083116112a057829003601f168201915b5050505050908060020160009054906101000a900460ff16905083565b6009826040516112ea9190613098565b908152602001604051809103902060009054906101000a900460ff16611345576040517f08c379a000000000000000000000000000000000000000000000000000000000815260040161133c90613339565b60405180910390fd5b6001151581151514156113a15760016008836040516113649190613098565b908152602001604051809103902060020160006101000a81548160ff02191690836002811115611397576113966138b6565b5b02179055506113ec565b60026008836040516113b39190613098565b908152602001604051809103902060020160006101000a81548160ff021916908360028111156113e6576113e56138b6565b5b02179055505b7f59d309664d5e5c5c7562159b94306437ae8aed905c4f84933f4ad06eea902ed48260405161141b9190613177565b60405180910390a15050565b6009816040516114379190613098565b908152602001604051809103902060009054906101000a900460ff16611492576040517f08c379a000000000000000000000000000000000000000000000000000000000815260040161148990613339565b60405180910390fd5b3373ffffffffffffffffffffffffffffffffffffffff166114d36008836040516114bc9190613098565b9081526020016040518091039020600001546108e9565b73ffffffffffffffffffffffffffffffffffffffff1614611529576040517f08c379a0000000000000000000000000000000000000000000000000000000008152600401611520906131d9565b60405180910390fd5b61155360088260405161153c9190613098565b90815260200160405180910390206000015461240d565b6008816040516115639190613098565b908152602001604051809103902060008082016000905560018201600061158a9190612774565b6002820160006101000a81549060ff0219169055505050565b6060600760009054906101000a900473ffffffffffffffffffffffffffffffffffffffff1673ffffffffffffffffffffffffffffffffffffffff163373ffffffffffffffffffffffffffffffffffffffff16146115ff57600080fd5b6006805480602002602001604051908101604052809291908181526020016000905b828210156116cd5783829060005260206000200180546116409061377b565b80601f016020809104026020016040519081016040528092919081815260200182805461166c9061377b565b80156116b95780601f1061168e576101008083540402835291602001916116b9565b820191906000526020600020905b81548152906001019060200180831161169c57829003601f168201915b505050505081526020019060010190611621565b50505050905090565b6000600760009054906101000a900473ffffffffffffffffffffffffffffffffffffffff1673ffffffffffffffffffffffffffffffffffffffff163373ffffffffffffffffffffffffffffffffffffffff161461173257600080fd5b600680549050905090565b6000600560008473ffffffffffffffffffffffffffffffffffffffff1673ffffffffffffffffffffffffffffffffffffffff16815260200190815260200160002060008373ffffffffffffffffffffffffffffffffffffffff1673ffffffffffffffffffffffffffffffffffffffff16815260200190815260200160002060009054906101000a900460ff16905092915050565b6009826040516117e19190613098565b908152602001604051809103902060009054906101000a900460ff1661183c576040517f08c379a000000000000000000000000000000000000000000000000000000000815260040161183390613339565b60405180910390fd5b3373ffffffffffffffffffffffffffffffffffffffff1661187d6008846040516118669190613098565b9081526020016040518091039020600001546108e9565b73ffffffffffffffffffffffffffffffffffffffff16146118d3576040517f08c379a00000000000000000000000000000000000000000000000000000000081526004016118ca90613199565b60405180910390fd5b806008836040516118e49190613098565b908152602001604051809103902060010190805190602001906119089291906126ee565b507f6714407191569b7b9edd5db2d624b8e2281272e577950f0e87ca156570ffe9e4826040516119389190613177565b60405180910390a15050565b600760009054906101000a900473ffffffffffffffffffffffffffffffffffffffff1681565b6006818154811061197a57600080fd5b9060005260206000200160009150905080546119959061377b565b80601f01602080910402602001604051908101604052809291908181526020018280546119c19061377b565b8015611a0e5780601f106119e357610100808354040283529160200191611a0e565b820191906000526020600020905b8154815290600101906020018083116119f157829003601f168201915b505050505081565b60007f01ffc9a7000000000000000000000000000000000000000000000000000000007bffffffffffffffffffffffffffffffffffffffffffffffffffffffff1916827bffffffffffffffffffffffffffffffffffffffffffffffffffffffff1916149050919050565b60008073ffffffffffffffffffffffffffffffffffffffff166002600084815260200190815260200160002060009054906101000a900473ffffffffffffffffffffffffffffffffffffffff1673ffffffffffffffffffffffffffffffffffffffff1614159050919050565b600033905090565b816004600083815260200190815260200160002060006101000a81548173ffffffffffffffffffffffffffffffffffffffff021916908373ffffffffffffffffffffffffffffffffffffffff160217905550808273ffffffffffffffffffffffffffffffffffffffff16611b67836108e9565b73ffffffffffffffffffffffffffffffffffffffff167f8c5be1e5ebec7d5bd14f71427d1e84f3dd0314c0f7b2291e5b200ac8c7c3b92560405160405180910390a45050565b6000611bb882611a80565b611bf7576040517f08c379a0000000000000000000000000000000000000000000000000000000008152600401611bee90613279565b60405180910390fd5b6000611c02836108e9565b90508073ffffffffffffffffffffffffffffffffffffffff168473ffffffffffffffffffffffffffffffffffffffff161480611c7157508373ffffffffffffffffffffffffffffffffffffffff16611c5984610696565b73ffffffffffffffffffffffffffffffffffffffff16145b80611c825750611c81818561173d565b5b91505092915050565b8273ffffffffffffffffffffffffffffffffffffffff16611cab826108e9565b73ffffffffffffffffffffffffffffffffffffffff1614611d01576040517f08c379a0000000000000000000000000000000000000000000000000000000008152600401611cf8906131f9565b60405180910390fd5b600073ffffffffffffffffffffffffffffffffffffffff168273ffffffffffffffffffffffffffffffffffffffff161415611d71576040517f08c379a0000000000000000000000000000000000000000000000000000000008152600401611d6890613239565b60405180910390fd5b611d7c83838361252a565b611d87600082611af4565b6001600360008573ffffffffffffffffffffffffffffffffffffffff1673ffffffffffffffffffffffffffffffffffffffff1681526020019081526020016000206000828254611dd7919061366c565b925050819055506001600360008473ffffffffffffffffffffffffffffffffffffffff1673ffffffffffffffffffffffffffffffffffffffff1681526020019081526020016000206000828254611e2e91906135e5565b92505081905550816002600083815260200190815260200160002060006101000a81548173ffffffffffffffffffffffffffffffffffffffff021916908373ffffffffffffffffffffffffffffffffffffffff160217905550808273ffffffffffffffffffffffffffffffffffffffff168473ffffffffffffffffffffffffffffffffffffffff167fddf252ad1be2c89b69c2b068fc378daa952ba7f163c4a11628f55a4df523b3ef60405160405180910390a4611eed83838361252f565b505050565b600073ffffffffffffffffffffffffffffffffffffffff168273ffffffffffffffffffffffffffffffffffffffff161415611f62576040517f08c379a0000000000000000000000000000000000000000000000000000000008152600401611f5990613319565b60405180910390fd5b611f6b81611a80565b15611fab576040517f08c379a0000000000000000000000000000000000000000000000000000000008152600401611fa290613219565b60405180910390fd5b611fb76000838361252a565b6001600360008473ffffffffffffffffffffffffffffffffffffffff1673ffffffffffffffffffffffffffffffffffffffff168152602001908152602001600020600082825461200791906135e5565b92505081905550816002600083815260200190815260200160002060006101000a81548173ffffffffffffffffffffffffffffffffffffffff021916908373ffffffffffffffffffffffffffffffffffffffff160217905550808273ffffffffffffffffffffffffffffffffffffffff16600073ffffffffffffffffffffffffffffffffffffffff167fddf252ad1be2c89b69c2b068fc378daa952ba7f163c4a11628f55a4df523b3ef60405160405180910390a46120c86000838361252f565b5050565b8173ffffffffffffffffffffffffffffffffffffffff168373ffffffffffffffffffffffffffffffffffffffff16141561213b576040517f08c379a000000000000000000000000000000000000000000000000000000000815260040161213290613259565b60405180910390fd5b80600560008573ffffffffffffffffffffffffffffffffffffffff1673ffffffffffffffffffffffffffffffffffffffff16815260200190815260200160002060008473ffffffffffffffffffffffffffffffffffffffff1673ffffffffffffffffffffffffffffffffffffffff16815260200190815260200160002060006101000a81548160ff0219169083151502179055508173ffffffffffffffffffffffffffffffffffffffff168373ffffffffffffffffffffffffffffffffffffffff167f17307eab39ab6107e8899845ad3d59bd9653f200f220920489ca2b5937696c318360405161222c919061315c565b60405180910390a3505050565b612244848484611c8b565b61225084848484612534565b61228f576040517f08c379a0000000000000000000000000000000000000000000000000000000008152600401612286906131b9565b60405180910390fd5b50505050565b606060405180602001604052806000815250905090565b606060008214156122f4576040518060400160405280600181526020017f30000000000000000000000000000000000000000000000000000000000000008152509050612408565b600082905060005b6000821461232657808061230f906137de565b915050600a8261231f919061363b565b91506122fc565b60008167ffffffffffffffff81111561234257612341613943565b5b6040519080825280601f01601f1916602001820160405280156123745781602001600182028036833780820191505090505b5090505b600085146124015760018261238d919061366c565b9150600a8561239c9190613827565b60306123a891906135e5565b60f81b8183815181106123be576123bd613914565b5b60200101907effffffffffffffffffffffffffffffffffffffffffffffffffffffffffffff1916908160001a905350600a856123fa919061363b565b9450612378565b8093505050505b919050565b6000612418826108e9565b90506124268160008461252a565b612431600083611af4565b6001600360008373ffffffffffffffffffffffffffffffffffffffff1673ffffffffffffffffffffffffffffffffffffffff1681526020019081526020016000206000828254612481919061366c565b925050819055506002600083815260200190815260200160002060006101000a81549073ffffffffffffffffffffffffffffffffffffffff021916905581600073ffffffffffffffffffffffffffffffffffffffff168273ffffffffffffffffffffffffffffffffffffffff167fddf252ad1be2c89b69c2b068fc378daa952ba7f163c4a11628f55a4df523b3ef60405160405180910390a46125268160008461252f565b5050565b505050565b505050565b60006125558473ffffffffffffffffffffffffffffffffffffffff166126cb565b156126be578373ffffffffffffffffffffffffffffffffffffffff1663150b7a0261257e611aec565b8786866040518563ffffffff1660e01b81526004016125a094939291906130ee565b602060405180830381600087803b1580156125ba57600080fd5b505af19250505080156125eb57506040513d601f19601f820116820180604052508101906125e89190612b0a565b60015b61266e573d806000811461261b576040519150601f19603f3d011682016040523d82523d6000602084013e612620565b606091505b50600081511415612666576040517f08c379a000000000000000000000000000000000000000000000000000000000815260040161265d906131b9565b60405180910390fd5b805181602001fd5b63150b7a0260e01b7bffffffffffffffffffffffffffffffffffffffffffffffffffffffff1916817bffffffffffffffffffffffffffffffffffffffffffffffffffffffff1916149150506126c3565b600190505b949350505050565b6000808273ffffffffffffffffffffffffffffffffffffffff163b119050919050565b8280546126fa9061377b565b90600052602060002090601f01602090048101928261271c5760008555612763565b82601f1061273557805160ff1916838001178555612763565b82800160010185558215612763579182015b82811115612762578251825591602001919060010190612747565b5b50905061277091906127b4565b5090565b5080546127809061377b565b6000825580601f1061279257506127b1565b601f0160209004906000526020600020908101906127b091906127b4565b5b50565b5b808211156127cd5760008160009055506001016127b5565b5090565b60006127e46127df846134f6565b6134d1565b905082815260208101848484011115612800576127ff613977565b5b61280b848285613739565b509392505050565b600061282661282184613527565b6134d1565b90508281526020810184848401111561284257612841613977565b5b61284d848285613739565b509392505050565b60008135905061286481613e7b565b92915050565b60008135905061287981613e92565b92915050565b60008135905061288e81613ea9565b92915050565b6000815190506128a381613ea9565b92915050565b600082601f8301126128be576128bd613972565b5b81356128ce8482602086016127d1565b91505092915050565b600082601f8301126128ec576128eb613972565b5b81356128fc848260208601612813565b91505092915050565b60008135905061291481613ec0565b92915050565b6000602082840312156129305761292f613981565b5b600061293e84828501612855565b91505092915050565b6000806040838503121561295e5761295d613981565b5b600061296c85828601612855565b925050602061297d85828601612855565b9150509250929050565b6000806000606084860312156129a05761299f613981565b5b60006129ae86828701612855565b93505060206129bf86828701612855565b92505060406129d086828701612905565b9150509250925092565b600080600080608085870312156129f4576129f3613981565b5b6000612a0287828801612855565b9450506020612a1387828801612855565b9350506040612a2487828801612905565b925050606085013567ffffffffffffffff811115612a4557612a4461397c565b5b612a51878288016128a9565b91505092959194509250565b60008060408385031215612a7457612a73613981565b5b6000612a8285828601612855565b9250506020612a938582860161286a565b9150509250929050565b60008060408385031215612ab457612ab3613981565b5b6000612ac285828601612855565b9250506020612ad385828601612905565b9150509250929050565b600060208284031215612af357612af2613981565b5b6000612b018482850161287f565b91505092915050565b600060208284031215612b2057612b1f613981565b5b6000612b2e84828501612894565b91505092915050565b600060208284031215612b4d57612b4c613981565b5b600082013567ffffffffffffffff811115612b6b57612b6a61397c565b5b612b77848285016128d7565b91505092915050565b60008060408385031215612b9757612b96613981565b5b600083013567ffffffffffffffff811115612bb557612bb461397c565b5b612bc1858286016128d7565b9250506020612bd28582860161286a565b9150509250929050565b60008060408385031215612bf357612bf2613981565b5b600083013567ffffffffffffffff811115612c1157612c1061397c565b5b612c1d858286016128d7565b925050602083013567ffffffffffffffff811115612c3e57612c3d61397c565b5b612c4a858286016128d7565b9150509250929050565b600060208284031215612c6a57612c69613981565b5b6000612c7884828501612905565b91505092915050565b6000612c8d8383612d70565b905092915050565b612c9e816136a0565b82525050565b6000612caf82613568565b612cb98185613596565b935083602082028501612ccb85613558565b8060005b85811015612d075784840389528151612ce88582612c81565b9450612cf383613589565b925060208a01995050600181019050612ccf565b50829750879550505050505092915050565b612d22816136b2565b82525050565b6000612d3382613573565b612d3d81856135a7565b9350612d4d818560208601613748565b612d5681613986565b840191505092915050565b612d6a81613727565b82525050565b6000612d7b8261357e565b612d8581856135b8565b9350612d95818560208601613748565b612d9e81613986565b840191505092915050565b6000612db48261357e565b612dbe81856135c9565b9350612dce818560208601613748565b612dd781613986565b840191505092915050565b6000612ded8261357e565b612df781856135da565b9350612e07818560208601613748565b80840191505092915050565b6000612e20602a836135c9565b9150612e2b82613997565b604082019050919050565b6000612e436032836135c9565b9150612e4e826139e6565b604082019050919050565b6000612e66602b836135c9565b9150612e7182613a35565b604082019050919050565b6000612e896025836135c9565b9150612e9482613a84565b604082019050919050565b6000612eac601c836135c9565b9150612eb782613ad3565b602082019050919050565b6000612ecf6024836135c9565b9150612eda82613afc565b604082019050919050565b6000612ef26019836135c9565b9150612efd82613b4b565b602082019050919050565b6000612f15602c836135c9565b9150612f2082613b74565b604082019050919050565b6000612f386038836135c9565b9150612f4382613bc3565b604082019050919050565b6000612f5b602a836135c9565b9150612f6682613c12565b604082019050919050565b6000612f7e6029836135c9565b9150612f8982613c61565b604082019050919050565b6000612fa16015836135c9565b9150612fac82613cb0565b602082019050919050565b6000612fc46020836135c9565b9150612fcf82613cd9565b602082019050919050565b6000612fe76015836135c9565b9150612ff282613d02565b602082019050919050565b600061300a602c836135c9565b915061301582613d2b565b604082019050919050565b600061302d602f836135c9565b915061303882613d7a565b604082019050919050565b60006130506021836135c9565b915061305b82613dc9565b604082019050919050565b60006130736031836135c9565b915061307e82613e18565b604082019050919050565b6130928161371d565b82525050565b60006130a48284612de2565b915081905092915050565b60006130bb8285612de2565b91506130c78284612de2565b91508190509392505050565b60006020820190506130e86000830184612c95565b92915050565b60006080820190506131036000830187612c95565b6131106020830186612c95565b61311d6040830185613089565b818103606083015261312f8184612d28565b905095945050505050565b600060208201905081810360008301526131548184612ca4565b905092915050565b60006020820190506131716000830184612d19565b92915050565b600060208201905081810360008301526131918184612da9565b905092915050565b600060208201905081810360008301526131b281612e13565b9050919050565b600060208201905081810360008301526131d281612e36565b9050919050565b600060208201905081810360008301526131f281612e59565b9050919050565b6000602082019050818103600083015261321281612e7c565b9050919050565b6000602082019050818103600083015261323281612e9f565b9050919050565b6000602082019050818103600083015261325281612ec2565b9050919050565b6000602082019050818103600083015261327281612ee5565b9050919050565b6000602082019050818103600083015261329281612f08565b9050919050565b600060208201905081810360008301526132b281612f2b565b9050919050565b600060208201905081810360008301526132d281612f4e565b9050919050565b600060208201905081810360008301526132f281612f71565b9050919050565b6000602082019050818103600083015261331281612f94565b9050919050565b6000602082019050818103600083015261333281612fb7565b9050919050565b6000602082019050818103600083015261335281612fda565b9050919050565b6000602082019050818103600083015261337281612ffd565b9050919050565b6000602082019050818103600083015261339281613020565b9050919050565b600060208201905081810360008301526133b281613043565b9050919050565b600060208201905081810360008301526133d281613066565b9050919050565b60006020820190506133ee6000830184613089565b92915050565b60006060820190506134096000830186613089565b818103602083015261341b8185612da9565b905061342a6040830184612d61565b949350505050565b60006080820190506134476000830187613089565b81810360208301526134598186612da9565b90506134686040830185612d61565b6134756060830184612c95565b95945050505050565b60006080820190506134936000830187613089565b81810360208301526134a58186612da9565b905081810360408301526134b98185612da9565b90506134c86060830184612c95565b95945050505050565b60006134db6134ec565b90506134e782826137ad565b919050565b6000604051905090565b600067ffffffffffffffff82111561351157613510613943565b5b61351a82613986565b9050602081019050919050565b600067ffffffffffffffff82111561354257613541613943565b5b61354b82613986565b9050602081019050919050565b6000819050602082019050919050565b600081519050919050565b600081519050919050565b600081519050919050565b6000602082019050919050565b600082825260208201905092915050565b600082825260208201905092915050565b600082825260208201905092915050565b600082825260208201905092915050565b600081905092915050565b60006135f08261371d565b91506135fb8361371d565b9250827fffffffffffffffffffffffffffffffffffffffffffffffffffffffffffffffff038211156136305761362f613858565b5b828201905092915050565b60006136468261371d565b91506136518361371d565b92508261366157613660613887565b5b828204905092915050565b60006136778261371d565b91506136828361371d565b92508282101561369557613694613858565b5b828203905092915050565b60006136ab826136fd565b9050919050565b60008115159050919050565b60007fffffffff0000000000000000000000000000000000000000000000000000000082169050919050565b60008190506136f882613e67565b919050565b600073ffffffffffffffffffffffffffffffffffffffff82169050919050565b6000819050919050565b6000613732826136ea565b9050919050565b82818337600083830152505050565b60005b8381101561376657808201518184015260208101905061374b565b83811115613775576000848401525b50505050565b6000600282049050600182168061379357607f821691505b602082108114156137a7576137a66138e5565b5b50919050565b6137b682613986565b810181811067ffffffffffffffff821117156137d5576137d4613943565b5b80604052505050565b60006137e98261371d565b91507fffffffffffffffffffffffffffffffffffffffffffffffffffffffffffffffff82141561381c5761381b613858565b5b600182019050919050565b60006138328261371d565b915061383d8361371d565b92508261384d5761384c613887565b5b828206905092915050565b7f4e487b7100000000000000000000000000000000000000000000000000000000600052601160045260246000fd5b7f4e487b7100000000000000000000000000000000000000000000000000000000600052601260045260246000fd5b7f4e487b7100000000000000000000000000000000000000000000000000000000600052602160045260246000fd5b7f4e487b7100000000000000000000000000000000000000000000000000000000600052602260045260246000fd5b7f4e487b7100000000000000000000000000000000000000000000000000000000600052603260045260246000fd5b7f4e487b7100000000000000000000000000000000000000000000000000000000600052604160045260246000fd5b600080fd5b600080fd5b600080fd5b600080fd5b6000601f19601f8301169050919050565b7f4f6e6c792074686520746f6b656e206f776e65722063616e207570646174652060008201527f74686520746f6b656e2e00000000000000000000000000000000000000000000602082015250565b7f4552433732313a207472616e7366657220746f206e6f6e20455243373231526560008201527f63656976657220696d706c656d656e7465720000000000000000000000000000602082015250565b7f4f6e6c792074686520746f6b656e206f776e65722063616e2064657374726f7960008201527f2074686520746f6b656e2e000000000000000000000000000000000000000000602082015250565b7f4552433732313a207472616e736665722066726f6d20696e636f72726563742060008201527f6f776e6572000000000000000000000000000000000000000000000000000000602082015250565b7f4552433732313a20746f6b656e20616c7265616479206d696e74656400000000600082015250565b7f4552433732313a207472616e7366657220746f20746865207a65726f2061646460008201527f7265737300000000000000000000000000000000000000000000000000000000602082015250565b7f4552433732313a20617070726f766520746f2063616c6c657200000000000000600082015250565b7f4552433732313a206f70657261746f7220717565727920666f72206e6f6e657860008201527f697374656e7420746f6b656e0000000000000000000000000000000000000000602082015250565b7f4552433732313a20617070726f76652063616c6c6572206973206e6f74206f7760008201527f6e6572206e6f7220617070726f76656420666f7220616c6c0000000000000000602082015250565b7f4552433732313a2062616c616e636520717565727920666f7220746865207a6560008201527f726f206164647265737300000000000000000000000000000000000000000000602082015250565b7f4552433732313a206f776e657220717565727920666f72206e6f6e657869737460008201527f656e7420746f6b656e0000000000000000000000000000000000000000000000602082015250565b7f546f6b656e20616c7265616479206578697374732e0000000000000000000000600082015250565b7f4552433732313a206d696e7420746f20746865207a65726f2061646472657373600082015250565b7f546f6b656e20646f6573206e6f742065786973742e0000000000000000000000600082015250565b7f4552433732313a20617070726f76656420717565727920666f72206e6f6e657860008201527f697374656e7420746f6b656e0000000000000000000000000000000000000000602082015250565b7f4552433732314d657461646174613a2055524920717565727920666f72206e6f60008201527f6e6578697374656e7420746f6b656e0000000000000000000000000000000000602082015250565b7f4552433732313a20617070726f76616c20746f2063757272656e74206f776e6560008201527f7200000000000000000000000000000000000000000000000000000000000000602082015250565b7f4552433732313a207472616e736665722063616c6c6572206973206e6f74206f60008201527f776e6572206e6f7220617070726f766564000000000000000000000000000000602082015250565b60038110613e7857613e776138b6565b5b50565b613e84816136a0565b8114613e8f57600080fd5b50565b613e9b816136b2565b8114613ea657600080fd5b50565b613eb2816136be565b8114613ebd57600080fd5b50565b613ec98161371d565b8114613ed457600080fd5b5056fea2646970667358221220b88cf39bd02d9171ffb1a8919728674899cf5310c8500c8c3fbb64a28236d1e864736f6c63430008070033",
  "immutableReferences": {},
  "source": "// SPDX-License-Identifier: UNLICENSED\npragma solidity ^0.8.0;\n\nimport \"./DigitalTwin.sol\";\n\ncontract Opal is DigitalTwin {\n    constructor() DigitalTwin(\"Opal Token\", \"OPAL\") {}\n}\n",
  "sourcePath": "/home/yih/Documents/dev/beston-dapps/contracts/Opal.sol",
  "compiler": {
    "name": "solc",
    "version": "0.8.7+commit.e28d00a7.Emscripten.clang"
  },
  "schemaVersion": "3.4.1",
  "updatedAt": "2022-04-21T00:32:53.855Z",
  "devdoc": {
    "kind": "dev",
    "methods": {
      "approve(address,uint256)": {
        "details": "See {IERC721-approve}."
      },
      "balanceOf(address)": {
        "details": "See {IERC721-balanceOf}."
      },
      "getApproved(uint256)": {
        "details": "See {IERC721-getApproved}."
      },
      "isApprovedForAll(address,address)": {
        "details": "See {IERC721-isApprovedForAll}."
      },
      "name()": {
        "details": "See {IERC721Metadata-name}."
      },
      "ownerOf(uint256)": {
        "details": "See {IERC721-ownerOf}."
      },
      "safeTransferFrom(address,address,uint256)": {
        "details": "See {IERC721-safeTransferFrom}."
      },
      "safeTransferFrom(address,address,uint256,bytes)": {
        "details": "See {IERC721-safeTransferFrom}."
      },
      "setApprovalForAll(address,bool)": {
        "details": "See {IERC721-setApprovalForAll}."
      },
      "supportsInterface(bytes4)": {
        "details": "See {IERC165-supportsInterface}."
      },
      "symbol()": {
        "details": "See {IERC721Metadata-symbol}."
      },
      "tokenURI(uint256)": {
        "details": "See {IERC721Metadata-tokenURI}."
      },
      "transferFrom(address,address,uint256)": {
        "details": "See {IERC721-transferFrom}."
      }
    },
    "version": 1
  },
  "userdoc": {
    "kind": "user",
    "methods": {
      "countToken()": {
        "notice": "query the metadata of a token"
      },
      "queryToken(string)": {
        "notice": "for js client to interact"
      },
      "queryTokenFromContract(string)": {
        "notice": "for other solidity contracts to interact"
      },
      "update(string,string)": {
        "notice": "update only updates the metadata of an existing token"
      },
      "verify(string,bool)": {
        "notice": "verify is called by process upon optical verification of the product"
      }
    },
    "version": 1
  }
}