{
  "contractName": "ProjectRegistry",
  "abi": [
    {
      "inputs": [
        {
          "internalType": "uint256",
          "name": "",
          "type": "uint256"
        }
      ],
      "name": "allprojects",
      "outputs": [
        {
          "internalType": "string",
          "name": "",
          "type": "string"
        }
      ],
      "stateMutability": "view",
      "type": "function",
      "constant": true
    },
    {
      "inputs": [],
      "name": "farmregistry",
      "outputs": [
        {
          "internalType": "contract FarmRegistry",
          "name": "",
          "type": "address"
        }
      ],
      "stateMutability": "view",
      "type": "function",
      "constant": true
    },
    {
      "inputs": [],
      "name": "herdregistry",
      "outputs": [
        {
          "internalType": "contract HerdRegistry",
          "name": "",
          "type": "address"
        }
      ],
      "stateMutability": "view",
      "type": "function",
      "constant": true
    },
    {
      "inputs": [
        {
          "internalType": "string",
          "name": "",
          "type": "string"
        }
      ],
      "name": "projectExists",
      "outputs": [
        {
          "internalType": "bool",
          "name": "",
          "type": "bool"
        }
      ],
      "stateMutability": "view",
      "type": "function",
      "constant": true
    },
    {
      "inputs": [
        {
          "internalType": "string",
          "name": "",
          "type": "string"
        }
      ],
      "name": "projects",
      "outputs": [
        {
          "internalType": "uint256",
          "name": "Baselinestart",
          "type": "uint256"
        },
        {
          "internalType": "uint256",
          "name": "Baselineend",
          "type": "uint256"
        },
        {
          "internalType": "uint256",
          "name": "Projectstart",
          "type": "uint256"
        },
        {
          "internalType": "uint256",
          "name": "Projectend",
          "type": "uint256"
        }
      ],
      "stateMutability": "view",
      "type": "function",
      "constant": true
    },
    {
      "inputs": [
        {
          "internalType": "string",
          "name": "_projectid",
          "type": "string"
        },
        {
          "internalType": "uint256",
          "name": "_baselinestart",
          "type": "uint256"
        },
        {
          "internalType": "uint256",
          "name": "_baselineend",
          "type": "uint256"
        },
        {
          "internalType": "uint256",
          "name": "_projectstart",
          "type": "uint256"
        },
        {
          "internalType": "uint256",
          "name": "_projectend",
          "type": "uint256"
        }
      ],
      "name": "registerProject",
      "outputs": [],
      "stateMutability": "nonpayable",
      "type": "function"
    },
    {
      "inputs": [
        {
          "internalType": "string",
          "name": "_projectid",
          "type": "string"
        },
        {
          "internalType": "string[]",
          "name": "_herdids",
          "type": "string[]"
        }
      ],
      "name": "addHerdsToProject",
      "outputs": [],
      "stateMutability": "nonpayable",
      "type": "function"
    },
    {
      "inputs": [
        {
          "internalType": "string",
          "name": "_projectid",
          "type": "string"
        }
      ],
      "name": "queryProject",
      "outputs": [
        {
          "internalType": "uint256",
          "name": "",
          "type": "uint256"
        },
        {
          "internalType": "uint256",
          "name": "",
          "type": "uint256"
        },
        {
          "internalType": "uint256",
          "name": "",
          "type": "uint256"
        },
        {
          "internalType": "uint256",
          "name": "",
          "type": "uint256"
        },
        {
          "internalType": "string[]",
          "name": "",
          "type": "string[]"
        }
      ],
      "stateMutability": "view",
      "type": "function",
      "constant": true
    },
    {
      "inputs": [],
      "name": "queryAll",
      "outputs": [
        {
          "internalType": "string[]",
          "name": "",
          "type": "string[]"
        },
        {
          "internalType": "uint256[]",
          "name": "",
          "type": "uint256[]"
        },
        {
          "internalType": "uint256[]",
          "name": "",
          "type": "uint256[]"
        },
        {
          "internalType": "uint256[]",
          "name": "",
          "type": "uint256[]"
        },
        {
          "internalType": "uint256[]",
          "name": "",
          "type": "uint256[]"
        },
        {
          "internalType": "string[][]",
          "name": "",
          "type": "string[][]"
        }
      ],
      "stateMutability": "view",
      "type": "function",
      "constant": true
    }
  ],
  "bytecode": "0x608060405234801561001057600080fd5b50611dcf806100206000396000f3fe608060405234801561001057600080fd5b50600436106100935760003560e01c8063d978f15911610066578063d978f1591461013b578063e592470814610157578063f49b6dea1461017a578063f757aa8c14610196578063fcfa958e146101c657610093565b8063110eed2e1461009857806382dbea60146100b657806391c9b268146100ea578063b3f4b3621461011d575b600080fd5b6100a06101f6565b6040516100ad91906117bc565b60405180910390f35b6100d060048036038101906100cb9190611190565b61021a565b6040516100e19594939291906118b9565b60405180910390f35b61010460048036038101906100ff9190611190565b61041c565b6040516101149493929190611874565b60405180910390f35b610125610462565b60405161013291906117d7565b60405180910390f35b610155600480360381019061015091906111d9565b610488565b005b61015f610651565b60405161017196959493929190611716565b60405180910390f35b610194600480360381019061018f9190611251565b610c03565b005b6101b060048036038101906101ab91906112e8565b610dc4565b6040516101bd91906117f2565b60405180910390f35b6101e060048036038101906101db9190611190565b610e70565b6040516101ed91906117a1565b60405180910390f35b60008054906101000a900473ffffffffffffffffffffffffffffffffffffffff1681565b600080600080606060038660405161023291906116e8565b908152602001604051809103902060009054906101000a900460ff1661028d576040517f08c379a000000000000000000000000000000000000000000000000000000000815260040161028490611854565b60405180910390fd5b60028660405161029d91906116e8565b9081526020016040518091039020600001546002876040516102bf91906116e8565b9081526020016040518091039020600101546002886040516102e191906116e8565b90815260200160405180910390206002015460028960405161030391906116e8565b90815260200160405180910390206003015460028a60405161032591906116e8565b908152602001604051809103902060040180805480602002602001604051908101604052809291908181526020016000905b8282101561040357838290600052602060002001805461037690611b5e565b80601f01602080910402602001604051908101604052809291908181526020018280546103a290611b5e565b80156103ef5780601f106103c4576101008083540402835291602001916103ef565b820191906000526020600020905b8154815290600101906020018083116103d257829003601f168201915b505050505081526020019060010190610357565b5050505090509450945094509450945091939590929450565b6002818051602081018201805184825260208301602085012081835280955050505050506000915090508060000154908060010154908060020154908060030154905084565b600160009054906101000a900473ffffffffffffffffffffffffffffffffffffffff1681565b60038260405161049891906116e8565b908152602001604051809103902060009054906101000a900460ff166104f3576040517f08c379a00000000000000000000000000000000000000000000000000000000081526004016104ea90611854565b60405180910390fd5b60005b815181101561061657600160009054906101000a900473ffffffffffffffffffffffffffffffffffffffff1673ffffffffffffffffffffffffffffffffffffffff1663cfe6aaf18383815181106105505761054f611c68565b5b60200260200101516040518263ffffffff1660e01b815260040161057491906117f2565b60206040518083038186803b15801561058c57600080fd5b505afa1580156105a0573d6000803e3d6000fd5b505050506040513d601f19601f820116820180604052508101906105c49190611163565b610603576040517f08c379a00000000000000000000000000000000000000000000000000000000081526004016105fa90611834565b60405180910390fd5b808061060e90611bc1565b9150506104f6565b508060028360405161062891906116e8565b9081526020016040518091039020600401908051906020019061064c929190610ea6565b505050565b606080606080606080600060048054905067ffffffffffffffff81111561067b5761067a611c97565b5b6040519080825280602002602001820160405280156106a95781602001602082028036833780820191505090505b509050600060048054905067ffffffffffffffff8111156106cd576106cc611c97565b5b6040519080825280602002602001820160405280156106fb5781602001602082028036833780820191505090505b509050600060048054905067ffffffffffffffff81111561071f5761071e611c97565b5b60405190808252806020026020018201604052801561074d5781602001602082028036833780820191505090505b509050600060048054905067ffffffffffffffff81111561077157610770611c97565b5b60405190808252806020026020018201604052801561079f5781602001602082028036833780820191505090505b509050600060048054905067ffffffffffffffff8111156107c3576107c2611c97565b5b6040519080825280602002602001820160405280156107f657816020015b60608152602001906001900390816107e15790505b50905060005b600480549050811015610b0f5760026004828154811061081f5761081e611c68565b5b9060005260206000200160405161083691906116ff565b90815260200160405180910390206000015486828151811061085b5761085a611c68565b5b60200260200101818152505060026004828154811061087d5761087c611c68565b5b9060005260206000200160405161089491906116ff565b9081526020016040518091039020600001548582815181106108b9576108b8611c68565b5b6020026020010181815250506002600482815481106108db576108da611c68565b5b906000526020600020016040516108f291906116ff565b90815260200160405180910390206002015484828151811061091757610916611c68565b5b60200260200101818152505060026004828154811061093957610938611c68565b5b9060005260206000200160405161095091906116ff565b90815260200160405180910390206003015483828151811061097557610974611c68565b5b60200260200101818152505060005b60026004838154811061099a57610999611c68565b5b906000526020600020016040516109b191906116ff565b908152602001604051809103902060040180549050811015610afb576002600483815481106109e3576109e2611c68565b5b906000526020600020016040516109fa91906116ff565b90815260200160405180910390206004018181548110610a1d57610a1c611c68565b5b906000526020600020018054610a3290611b5e565b80601f0160208091040260200160405190810160405280929190818152602001828054610a5e90611b5e565b8015610aab5780601f10610a8057610100808354040283529160200191610aab565b820191906000526020600020905b815481529060010190602001808311610a8e57829003601f168201915b5050505050838281518110610ac357610ac2611c68565b5b60200260200101518381518110610add57610adc611c68565b5b60200260200101819052508080610af390611bc1565b915050610984565b508080610b0790611bc1565b9150506107fc565b506004858585858585805480602002602001604051908101604052809291908181526020016000905b82821015610be4578382906000526020600020018054610b5790611b5e565b80601f0160208091040260200160405190810160405280929190818152602001828054610b8390611b5e565b8015610bd05780601f10610ba557610100808354040283529160200191610bd0565b820191906000526020600020905b815481529060010190602001808311610bb357829003601f168201915b505050505081526020019060010190610b38565b5050505095509a509a509a509a509a509a505050505050909192939495565b600385604051610c1391906116e8565b908152602001604051809103902060009054906101000a900460ff1615610c6f576040517f08c379a0000000000000000000000000000000000000000000000000000000008152600401610c6690611814565b60405180910390fd5b6040518060a00160405280858152602001848152602001838152602001828152602001600067ffffffffffffffff811115610cad57610cac611c97565b5b604051908082528060200260200182016040528015610ce057816020015b6060815260200190600190039081610ccb5790505b50815250600286604051610cf491906116e8565b9081526020016040518091039020600082015181600001556020820151816001015560408201518160020155606082015181600301556080820151816004019080519060200190610d46929190610ea6565b509050506001600386604051610d5c91906116e8565b908152602001604051809103902060006101000a81548160ff021916908315150217905550600485908060018154018082558091505060019003906000526020600020016000909190919091509080519060200190610dbc929190610f06565b505050505050565b60048181548110610dd457600080fd5b906000526020600020016000915090508054610def90611b5e565b80601f0160208091040260200160405190810160405280929190818152602001828054610e1b90611b5e565b8015610e685780601f10610e3d57610100808354040283529160200191610e68565b820191906000526020600020905b815481529060010190602001808311610e4b57829003601f168201915b505050505081565b6003818051602081018201805184825260208301602085012081835280955050505050506000915054906101000a900460ff1681565b828054828255906000526020600020908101928215610ef5579160200282015b82811115610ef4578251829080519060200190610ee4929190610f06565b5091602001919060010190610ec6565b5b509050610f029190610f8c565b5090565b828054610f1290611b5e565b90600052602060002090601f016020900481019282610f345760008555610f7b565b82601f10610f4d57805160ff1916838001178555610f7b565b82800160010185558215610f7b579182015b82811115610f7a578251825591602001919060010190610f5f565b5b509050610f889190610fb0565b5090565b5b80821115610fac5760008181610fa39190610fcd565b50600101610f8d565b5090565b5b80821115610fc9576000816000905550600101610fb1565b5090565b508054610fd990611b5e565b6000825580601f10610feb575061100a565b601f0160209004906000526020600020908101906110099190610fb0565b5b50565b600061102061101b84611938565b611913565b9050808382526020820190508285602086028201111561104357611042611ccb565b5b60005b8581101561109157813567ffffffffffffffff81111561106957611068611cc6565b5b8086016110768982611120565b85526020850194506020840193505050600181019050611046565b5050509392505050565b60006110ae6110a984611964565b611913565b9050828152602081018484840111156110ca576110c9611cd0565b5b6110d5848285611b1c565b509392505050565b600082601f8301126110f2576110f1611cc6565b5b813561110284826020860161100d565b91505092915050565b60008151905061111a81611d6b565b92915050565b600082601f83011261113557611134611cc6565b5b813561114584826020860161109b565b91505092915050565b60008135905061115d81611d82565b92915050565b60006020828403121561117957611178611cda565b5b60006111878482850161110b565b91505092915050565b6000602082840312156111a6576111a5611cda565b5b600082013567ffffffffffffffff8111156111c4576111c3611cd5565b5b6111d084828501611120565b91505092915050565b600080604083850312156111f0576111ef611cda565b5b600083013567ffffffffffffffff81111561120e5761120d611cd5565b5b61121a85828601611120565b925050602083013567ffffffffffffffff81111561123b5761123a611cd5565b5b611247858286016110dd565b9150509250929050565b600080600080600060a0868803121561126d5761126c611cda565b5b600086013567ffffffffffffffff81111561128b5761128a611cd5565b5b61129788828901611120565b95505060206112a88882890161114e565b94505060406112b98882890161114e565b93505060606112ca8882890161114e565b92505060806112db8882890161114e565b9150509295509295909350565b6000602082840312156112fe576112fd611cda565b5b600061130c8482850161114e565b91505092915050565b600061132183836113ca565b905092915050565b6000611335838361153f565b905092915050565b600061134983836116ca565b60208301905092915050565b6000611360826119da565b61136a8185611a2d565b93508360208202850161137c85611995565b8060005b858110156113b857848403895281516113998582611315565b94506113a483611a06565b925060208a01995050600181019050611380565b50829750879550505050505092915050565b60006113d5826119e5565b6113df8185611a3e565b9350836020820285016113f1856119a5565b8060005b8581101561142d578484038952815161140e8582611329565b945061141983611a13565b925060208a019950506001810190506113f5565b50829750879550505050505092915050565b600061144a826119e5565b6114548185611a4f565b935083602082028501611466856119a5565b8060005b858110156114a257848403895281516114838582611329565b945061148e83611a13565b925060208a0199505060018101905061146a565b50829750879550505050505092915050565b60006114bf826119f0565b6114c98185611a60565b93506114d4836119b5565b8060005b838110156115055781516114ec888261133d565b97506114f783611a20565b9250506001810190506114d8565b5085935050505092915050565b61151b81611a9e565b82525050565b61152a81611ad4565b82525050565b61153981611ae6565b82525050565b600061154a826119fb565b6115548185611a71565b9350611564818560208601611b2b565b61156d81611cdf565b840191505092915050565b6000611583826119fb565b61158d8185611a82565b935061159d818560208601611b2b565b6115a681611cdf565b840191505092915050565b60006115bc826119fb565b6115c68185611a93565b93506115d6818560208601611b2b565b80840191505092915050565b600081546115ef81611b5e565b6115f98186611a93565b94506001821660008114611614576001811461162557611658565b60ff19831686528186019350611658565b61162e856119c5565b60005b8381101561165057815481890152600182019150602081019050611631565b838801955050505b50505092915050565b600061166e601783611a82565b915061167982611cf0565b602082019050919050565b6000611691601483611a82565b915061169c82611d19565b602082019050919050565b60006116b4601783611a82565b91506116bf82611d42565b602082019050919050565b6116d381611aca565b82525050565b6116e281611aca565b82525050565b60006116f482846115b1565b915081905092915050565b600061170b82846115e2565b915081905092915050565b600060c0820190508181036000830152611730818961143f565b9050818103602083015261174481886114b4565b9050818103604083015261175881876114b4565b9050818103606083015261176c81866114b4565b9050818103608083015261178081856114b4565b905081810360a08301526117948184611355565b9050979650505050505050565b60006020820190506117b66000830184611512565b92915050565b60006020820190506117d16000830184611521565b92915050565b60006020820190506117ec6000830184611530565b92915050565b6000602082019050818103600083015261180c8184611578565b905092915050565b6000602082019050818103600083015261182d81611661565b9050919050565b6000602082019050818103600083015261184d81611684565b9050919050565b6000602082019050818103600083015261186d816116a7565b9050919050565b600060808201905061188960008301876116d9565b61189660208301866116d9565b6118a360408301856116d9565b6118b060608301846116d9565b95945050505050565b600060a0820190506118ce60008301886116d9565b6118db60208301876116d9565b6118e860408301866116d9565b6118f560608301856116d9565b8181036080830152611907818461143f565b90509695505050505050565b600061191d61192e565b90506119298282611b90565b919050565b6000604051905090565b600067ffffffffffffffff82111561195357611952611c97565b5b602082029050602081019050919050565b600067ffffffffffffffff82111561197f5761197e611c97565b5b61198882611cdf565b9050602081019050919050565b6000819050602082019050919050565b6000819050602082019050919050565b6000819050602082019050919050565b60008190508160005260206000209050919050565b600081519050919050565b600081519050919050565b600081519050919050565b600081519050919050565b6000602082019050919050565b6000602082019050919050565b6000602082019050919050565b600082825260208201905092915050565b600082825260208201905092915050565b600082825260208201905092915050565b600082825260208201905092915050565b600082825260208201905092915050565b600082825260208201905092915050565b600081905092915050565b60008115159050919050565b600073ffffffffffffffffffffffffffffffffffffffff82169050919050565b6000819050919050565b6000611adf82611af8565b9050919050565b6000611af182611af8565b9050919050565b6000611b0382611b0a565b9050919050565b6000611b1582611aaa565b9050919050565b82818337600083830152505050565b60005b83811015611b49578082015181840152602081019050611b2e565b83811115611b58576000848401525b50505050565b60006002820490506001821680611b7657607f821691505b60208210811415611b8a57611b89611c39565b5b50919050565b611b9982611cdf565b810181811067ffffffffffffffff82111715611bb857611bb7611c97565b5b80604052505050565b6000611bcc82611aca565b91507fffffffffffffffffffffffffffffffffffffffffffffffffffffffffffffffff821415611bff57611bfe611c0a565b5b600182019050919050565b7f4e487b7100000000000000000000000000000000000000000000000000000000600052601160045260246000fd5b7f4e487b7100000000000000000000000000000000000000000000000000000000600052602260045260246000fd5b7f4e487b7100000000000000000000000000000000000000000000000000000000600052603260045260246000fd5b7f4e487b7100000000000000000000000000000000000000000000000000000000600052604160045260246000fd5b600080fd5b600080fd5b600080fd5b600080fd5b600080fd5b6000601f19601f8301169050919050565b7f50726f6a65637420616c7265616479206578697374732e000000000000000000600082015250565b7f4865726420646f6573206e6f742065786973742e000000000000000000000000600082015250565b7f50726f6a65637420646f6573206e6f742065786973742e000000000000000000600082015250565b611d7481611a9e565b8114611d7f57600080fd5b50565b611d8b81611aca565b8114611d9657600080fd5b5056fea26469706673582212204384bf44f6237cb0ba7c2e5b798a02416e134f17b834e58be8b3ecf48930b04464736f6c63430008070033",
  "immutableReferences": {},
  "source": "// SPDX-License-Identifier: MIT\npragma solidity ^0.8.0;\n\nimport \"./FarmRegistry.sol\";\nimport \"./HerdRegistry.sol\";\n\ncontract ProjectRegistry {\n    FarmRegistry public farmregistry;\n    HerdRegistry public herdregistry;\n\n    struct Project {\n        uint256 Baselinestart;\n        uint256 Baselineend;\n        uint256 Projectstart;\n        uint256 Projectend;\n        string[] Herds;\n    }\n\n    mapping(string => Project) public projects;\n    mapping(string => bool) public projectExists;\n    string[] public allprojects;\n    \n    function registerProject(\n        string memory _projectid,\n        uint256 _baselinestart,\n        uint256 _baselineend,\n        uint256 _projectstart,\n        uint256 _projectend\n    ) public \n    {\n        require(!projectExists[_projectid], \"Project already exists.\");\n        projects[_projectid] = Project(_baselinestart,_baselineend,_projectstart,_projectend,new string[](0));\n        projectExists[_projectid] = true;\n        allprojects.push(_projectid);\n    }\n\n    function addHerdsToProject(string memory _projectid, string[] memory _herdids) public {\n        require(projectExists[_projectid], \"Project does not exist.\");\n        for(uint256 i=0; i<_herdids.length; i++){\n            require(herdregistry.herdExists(_herdids[i]), \"Herd does not exist.\");\n        }\n        projects[_projectid].Herds = _herdids;\n    }\n\n    function queryProject(string memory _projectid) public view returns(uint256,uint256,uint256,uint256,string[] memory) \n    {\n        require(projectExists[_projectid], \"Project does not exist.\");\n        return(\n            projects[_projectid].Baselinestart,\n            projects[_projectid].Baselineend,\n            projects[_projectid].Projectstart,\n            projects[_projectid].Projectend,\n            projects[_projectid].Herds\n        );\n    }\n\n    function queryAll() public view\n    returns(\n        string[] memory,\n        uint256[] memory,\n        uint256[] memory,\n        uint256[] memory,\n        uint256[] memory,\n        string[][] memory)\n    {\n        uint256[] memory blstarts = new uint256[](allprojects.length);\n        uint256[] memory blends = new uint256[](allprojects.length);\n        uint256[] memory pjstarts = new uint256[](allprojects.length);\n        uint256[] memory pjends = new uint256[](allprojects.length);\n        string[][] memory herd_arrays = new string[][](allprojects.length);\n\n        for(uint256 i=0; i<allprojects.length; i++){\n            blstarts[i] = projects[allprojects[i]].Baselinestart;\n            blends[i] = projects[allprojects[i]].Baselinestart;\n            pjstarts[i] = projects[allprojects[i]].Projectstart;\n            pjends[i] = projects[allprojects[i]].Projectend;\n\n            for(uint256 j=0; j<projects[allprojects[i]].Herds.length; j++){\n                herd_arrays[j][i] = projects[allprojects[i]].Herds[j];\n            }\n        }\n\n        return(allprojects,blstarts,blends,pjstarts,pjends,herd_arrays);\n    }\n}",
  "sourcePath": "/home/yih/Documents/dev/beston-dapps/contracts/carbon/ProjectRegistry.sol",
  "compiler": {
    "name": "solc",
    "version": "0.8.7+commit.e28d00a7.Emscripten.clang"
  },
  "schemaVersion": "3.4.1",
  "updatedAt": "2023-07-31T00:10:34.311Z",
  "networkType": "ethereum",
  "devdoc": {
    "kind": "dev",
    "methods": {},
    "version": 1
  },
  "userdoc": {
    "kind": "user",
    "methods": {},
    "version": 1
  }
}