{
  "contractName": "ProjectRegistry",
  "abi": [
    {
      "inputs": [
        {
          "internalType": "contract HerdRegistry",
          "name": "_herdregistry",
          "type": "address"
        }
      ],
      "stateMutability": "nonpayable",
      "type": "constructor"
    },
    {
      "inputs": [
        {
          "internalType": "uint256",
          "name": "",
          "type": "uint256"
        }
      ],
      "name": "allprojects",
      "outputs": [
        {
          "internalType": "string",
          "name": "",
          "type": "string"
        }
      ],
      "stateMutability": "view",
      "type": "function",
      "constant": true
    },
    {
      "inputs": [],
      "name": "herdregistry",
      "outputs": [
        {
          "internalType": "contract HerdRegistry",
          "name": "",
          "type": "address"
        }
      ],
      "stateMutability": "view",
      "type": "function",
      "constant": true
    },
    {
      "inputs": [
        {
          "internalType": "string",
          "name": "",
          "type": "string"
        }
      ],
      "name": "projectExists",
      "outputs": [
        {
          "internalType": "bool",
          "name": "",
          "type": "bool"
        }
      ],
      "stateMutability": "view",
      "type": "function",
      "constant": true
    },
    {
      "inputs": [
        {
          "internalType": "string",
          "name": "",
          "type": "string"
        }
      ],
      "name": "projects",
      "outputs": [
        {
          "internalType": "uint256",
          "name": "Baselinestart",
          "type": "uint256"
        },
        {
          "internalType": "uint256",
          "name": "Baselineend",
          "type": "uint256"
        },
        {
          "internalType": "uint256",
          "name": "Projectstart",
          "type": "uint256"
        },
        {
          "internalType": "uint256",
          "name": "Projectend",
          "type": "uint256"
        }
      ],
      "stateMutability": "view",
      "type": "function",
      "constant": true
    },
    {
      "inputs": [
        {
          "internalType": "string",
          "name": "_projectid",
          "type": "string"
        },
        {
          "internalType": "uint256",
          "name": "_baselinestart",
          "type": "uint256"
        },
        {
          "internalType": "uint256",
          "name": "_baselineend",
          "type": "uint256"
        },
        {
          "internalType": "uint256",
          "name": "_projectstart",
          "type": "uint256"
        },
        {
          "internalType": "uint256",
          "name": "_projectend",
          "type": "uint256"
        }
      ],
      "name": "registerProject",
      "outputs": [],
      "stateMutability": "nonpayable",
      "type": "function"
    },
    {
      "inputs": [
        {
          "internalType": "string",
          "name": "_projectid",
          "type": "string"
        },
        {
          "internalType": "string[]",
          "name": "_herdids",
          "type": "string[]"
        }
      ],
      "name": "addHerdsToProject",
      "outputs": [],
      "stateMutability": "nonpayable",
      "type": "function"
    },
    {
      "inputs": [
        {
          "internalType": "string",
          "name": "_projectid",
          "type": "string"
        }
      ],
      "name": "queryProject",
      "outputs": [
        {
          "internalType": "uint256",
          "name": "",
          "type": "uint256"
        },
        {
          "internalType": "uint256",
          "name": "",
          "type": "uint256"
        },
        {
          "internalType": "uint256",
          "name": "",
          "type": "uint256"
        },
        {
          "internalType": "uint256",
          "name": "",
          "type": "uint256"
        },
        {
          "internalType": "string[]",
          "name": "",
          "type": "string[]"
        }
      ],
      "stateMutability": "view",
      "type": "function",
      "constant": true
    },
    {
      "inputs": [],
      "name": "queryAll",
      "outputs": [
        {
          "internalType": "string[]",
          "name": "",
          "type": "string[]"
        },
        {
          "internalType": "uint256[]",
          "name": "",
          "type": "uint256[]"
        },
        {
          "internalType": "uint256[]",
          "name": "",
          "type": "uint256[]"
        },
        {
          "internalType": "uint256[]",
          "name": "",
          "type": "uint256[]"
        },
        {
          "internalType": "uint256[]",
          "name": "",
          "type": "uint256[]"
        }
      ],
      "stateMutability": "view",
      "type": "function",
      "constant": true
    }
  ],
  "bytecode": "0x60806040523480156200001157600080fd5b5060405162001b4a38038062001b4a833981810160405281019062000037919062000095565b806000806101000a81548173ffffffffffffffffffffffffffffffffffffffff021916908373ffffffffffffffffffffffffffffffffffffffff160217905550506200012e565b6000815190506200008f8162000114565b92915050565b600060208284031215620000ae57620000ad6200010f565b5b6000620000be848285016200007e565b91505092915050565b6000620000d482620000ef565b9050919050565b6000620000e882620000c7565b9050919050565b600073ffffffffffffffffffffffffffffffffffffffff82169050919050565b600080fd5b6200011f81620000db565b81146200012b57600080fd5b50565b611a0c806200013e6000396000f3fe608060405234801561001057600080fd5b50600436106100885760003560e01c8063e59247081161005b578063e59247081461012e578063f49b6dea14610150578063f757aa8c1461016c578063fcfa958e1461019c57610088565b806382dbea601461008d57806391c9b268146100c1578063b3f4b362146100f4578063d978f15914610112575b600080fd5b6100a760048036038101906100a29190610f66565b6101cc565b6040516100b8959493929190611552565b60405180910390f35b6100db60048036038101906100d69190610f66565b6103ce565b6040516100eb949392919061150d565b60405180910390f35b6100fc610414565b6040516101099190611470565b60405180910390f35b61012c60048036038101906101279190610faf565b610438565b005b6101366105ff565b6040516101479594939291906113df565b60405180910390f35b61016a60048036038101906101659190611027565b6109d9565b005b610186600480360381019061018191906110be565b610b9a565b604051610193919061148b565b60405180910390f35b6101b660048036038101906101b19190610f66565b610c46565b6040516101c39190611455565b60405180910390f35b60008060008060606002866040516101e491906113b1565b908152602001604051809103902060009054906101000a900460ff1661023f576040517f08c379a0000000000000000000000000000000000000000000000000000000008152600401610236906114ed565b60405180910390fd5b60018660405161024f91906113b1565b90815260200160405180910390206000015460018760405161027191906113b1565b90815260200160405180910390206001015460018860405161029391906113b1565b9081526020016040518091039020600201546001896040516102b591906113b1565b90815260200160405180910390206003015460018a6040516102d791906113b1565b908152602001604051809103902060040180805480602002602001604051908101604052809291908181526020016000905b828210156103b55783829060005260206000200180546103289061179b565b80601f01602080910402602001604051908101604052809291908181526020018280546103549061179b565b80156103a15780601f10610376576101008083540402835291602001916103a1565b820191906000526020600020905b81548152906001019060200180831161038457829003601f168201915b505050505081526020019060010190610309565b5050505090509450945094509450945091939590929450565b6001818051602081018201805184825260208301602085012081835280955050505050506000915090508060000154908060010154908060020154908060030154905084565b60008054906101000a900473ffffffffffffffffffffffffffffffffffffffff1681565b60028260405161044891906113b1565b908152602001604051809103902060009054906101000a900460ff166104a3576040517f08c379a000000000000000000000000000000000000000000000000000000000815260040161049a906114ed565b60405180910390fd5b60005b81518110156105c45760008054906101000a900473ffffffffffffffffffffffffffffffffffffffff1673ffffffffffffffffffffffffffffffffffffffff1663cfe6aaf18383815181106104fe576104fd6118a5565b5b60200260200101516040518263ffffffff1660e01b8152600401610522919061148b565b60206040518083038186803b15801561053a57600080fd5b505afa15801561054e573d6000803e3d6000fd5b505050506040513d601f19601f820116820180604052508101906105729190610f39565b6105b1576040517f08c379a00000000000000000000000000000000000000000000000000000000081526004016105a8906114cd565b60405180910390fd5b80806105bc906117fe565b9150506104a6565b50806001836040516105d691906113b1565b908152602001604051809103902060040190805190602001906105fa929190610c7c565b505050565b6060806060806060600060038054905067ffffffffffffffff811115610628576106276118d4565b5b6040519080825280602002602001820160405280156106565781602001602082028036833780820191505090505b509050600060038054905067ffffffffffffffff81111561067a576106796118d4565b5b6040519080825280602002602001820160405280156106a85781602001602082028036833780820191505090505b509050600060038054905067ffffffffffffffff8111156106cc576106cb6118d4565b5b6040519080825280602002602001820160405280156106fa5781602001602082028036833780820191505090505b509050600060038054905067ffffffffffffffff81111561071e5761071d6118d4565b5b60405190808252806020026020018201604052801561074c5781602001602082028036833780820191505090505b50905060005b6003805490508110156108ea57600160038281548110610775576107746118a5565b5b9060005260206000200160405161078c91906113c8565b9081526020016040518091039020600001548582815181106107b1576107b06118a5565b5b6020026020010181815250506001600382815481106107d3576107d26118a5565b5b906000526020600020016040516107ea91906113c8565b90815260200160405180910390206000015484828151811061080f5761080e6118a5565b5b602002602001018181525050600160038281548110610831576108306118a5565b5b9060005260206000200160405161084891906113c8565b90815260200160405180910390206002015483828151811061086d5761086c6118a5565b5b60200260200101818152505060016003828154811061088f5761088e6118a5565b5b906000526020600020016040516108a691906113c8565b9081526020016040518091039020600301548282815181106108cb576108ca6118a5565b5b60200260200101818152505080806108e2906117fe565b915050610752565b5060038484848484805480602002602001604051908101604052809291908181526020016000905b828210156109be5783829060005260206000200180546109319061179b565b80601f016020809104026020016040519081016040528092919081815260200182805461095d9061179b565b80156109aa5780601f1061097f576101008083540402835291602001916109aa565b820191906000526020600020905b81548152906001019060200180831161098d57829003601f168201915b505050505081526020019060010190610912565b50505050945098509850985098509850505050509091929394565b6002856040516109e991906113b1565b908152602001604051809103902060009054906101000a900460ff1615610a45576040517f08c379a0000000000000000000000000000000000000000000000000000000008152600401610a3c906114ad565b60405180910390fd5b6040518060a00160405280858152602001848152602001838152602001828152602001600067ffffffffffffffff811115610a8357610a826118d4565b5b604051908082528060200260200182016040528015610ab657816020015b6060815260200190600190039081610aa15790505b50815250600186604051610aca91906113b1565b9081526020016040518091039020600082015181600001556020820151816001015560408201518160020155606082015181600301556080820151816004019080519060200190610b1c929190610c7c565b509050506001600286604051610b3291906113b1565b908152602001604051809103902060006101000a81548160ff021916908315150217905550600385908060018154018082558091505060019003906000526020600020016000909190919091509080519060200190610b92929190610cdc565b505050505050565b60038181548110610baa57600080fd5b906000526020600020016000915090508054610bc59061179b565b80601f0160208091040260200160405190810160405280929190818152602001828054610bf19061179b565b8015610c3e5780601f10610c1357610100808354040283529160200191610c3e565b820191906000526020600020905b815481529060010190602001808311610c2157829003601f168201915b505050505081565b6002818051602081018201805184825260208301602085012081835280955050505050506000915054906101000a900460ff1681565b828054828255906000526020600020908101928215610ccb579160200282015b82811115610cca578251829080519060200190610cba929190610cdc565b5091602001919060010190610c9c565b5b509050610cd89190610d62565b5090565b828054610ce89061179b565b90600052602060002090601f016020900481019282610d0a5760008555610d51565b82601f10610d2357805160ff1916838001178555610d51565b82800160010185558215610d51579182015b82811115610d50578251825591602001919060010190610d35565b5b509050610d5e9190610d86565b5090565b5b80821115610d825760008181610d799190610da3565b50600101610d63565b5090565b5b80821115610d9f576000816000905550600101610d87565b5090565b508054610daf9061179b565b6000825580601f10610dc15750610de0565b601f016020900490600052602060002090810190610ddf9190610d86565b5b50565b6000610df6610df1846115d1565b6115ac565b90508083825260208201905082856020860282011115610e1957610e18611908565b5b60005b85811015610e6757813567ffffffffffffffff811115610e3f57610e3e611903565b5b808601610e4c8982610ef6565b85526020850194506020840193505050600181019050610e1c565b5050509392505050565b6000610e84610e7f846115fd565b6115ac565b905082815260208101848484011115610ea057610e9f61190d565b5b610eab848285611759565b509392505050565b600082601f830112610ec857610ec7611903565b5b8135610ed8848260208601610de3565b91505092915050565b600081519050610ef0816119a8565b92915050565b600082601f830112610f0b57610f0a611903565b5b8135610f1b848260208601610e71565b91505092915050565b600081359050610f33816119bf565b92915050565b600060208284031215610f4f57610f4e611917565b5b6000610f5d84828501610ee1565b91505092915050565b600060208284031215610f7c57610f7b611917565b5b600082013567ffffffffffffffff811115610f9a57610f99611912565b5b610fa684828501610ef6565b91505092915050565b60008060408385031215610fc657610fc5611917565b5b600083013567ffffffffffffffff811115610fe457610fe3611912565b5b610ff085828601610ef6565b925050602083013567ffffffffffffffff81111561101157611010611912565b5b61101d85828601610eb3565b9150509250929050565b600080600080600060a0868803121561104357611042611917565b5b600086013567ffffffffffffffff81111561106157611060611912565b5b61106d88828901610ef6565b955050602061107e88828901610f24565b945050604061108f88828901610f24565b93505060606110a088828901610f24565b92505060806110b188828901610f24565b9150509295509295909350565b6000602082840312156110d4576110d3611917565b5b60006110e284828501610f24565b91505092915050565b60006110f78383611208565b905092915050565b600061110b8383611393565b60208301905092915050565b600061112282611663565b61112c818561169e565b93508360208202850161113e8561162e565b8060005b8581101561117a578484038952815161115b85826110eb565b945061116683611684565b925060208a01995050600181019050611142565b50829750879550505050505092915050565b60006111978261166e565b6111a181856116af565b93506111ac8361163e565b8060005b838110156111dd5781516111c488826110ff565b97506111cf83611691565b9250506001810190506111b0565b5085935050505092915050565b6111f3816116ed565b82525050565b61120281611723565b82525050565b600061121382611679565b61121d81856116c0565b935061122d818560208601611768565b6112368161191c565b840191505092915050565b600061124c82611679565b61125681856116d1565b9350611266818560208601611768565b61126f8161191c565b840191505092915050565b600061128582611679565b61128f81856116e2565b935061129f818560208601611768565b80840191505092915050565b600081546112b88161179b565b6112c281866116e2565b945060018216600081146112dd57600181146112ee57611321565b60ff19831686528186019350611321565b6112f78561164e565b60005b83811015611319578154818901526001820191506020810190506112fa565b838801955050505b50505092915050565b60006113376017836116d1565b91506113428261192d565b602082019050919050565b600061135a6014836116d1565b915061136582611956565b602082019050919050565b600061137d6017836116d1565b91506113888261197f565b602082019050919050565b61139c81611719565b82525050565b6113ab81611719565b82525050565b60006113bd828461127a565b915081905092915050565b60006113d482846112ab565b915081905092915050565b600060a08201905081810360008301526113f98188611117565b9050818103602083015261140d818761118c565b90508181036040830152611421818661118c565b90508181036060830152611435818561118c565b90508181036080830152611449818461118c565b90509695505050505050565b600060208201905061146a60008301846111ea565b92915050565b600060208201905061148560008301846111f9565b92915050565b600060208201905081810360008301526114a58184611241565b905092915050565b600060208201905081810360008301526114c68161132a565b9050919050565b600060208201905081810360008301526114e68161134d565b9050919050565b6000602082019050818103600083015261150681611370565b9050919050565b600060808201905061152260008301876113a2565b61152f60208301866113a2565b61153c60408301856113a2565b61154960608301846113a2565b95945050505050565b600060a08201905061156760008301886113a2565b61157460208301876113a2565b61158160408301866113a2565b61158e60608301856113a2565b81810360808301526115a08184611117565b90509695505050505050565b60006115b66115c7565b90506115c282826117cd565b919050565b6000604051905090565b600067ffffffffffffffff8211156115ec576115eb6118d4565b5b602082029050602081019050919050565b600067ffffffffffffffff821115611618576116176118d4565b5b6116218261191c565b9050602081019050919050565b6000819050602082019050919050565b6000819050602082019050919050565b60008190508160005260206000209050919050565b600081519050919050565b600081519050919050565b600081519050919050565b6000602082019050919050565b6000602082019050919050565b600082825260208201905092915050565b600082825260208201905092915050565b600082825260208201905092915050565b600082825260208201905092915050565b600081905092915050565b60008115159050919050565b600073ffffffffffffffffffffffffffffffffffffffff82169050919050565b6000819050919050565b600061172e82611735565b9050919050565b600061174082611747565b9050919050565b6000611752826116f9565b9050919050565b82818337600083830152505050565b60005b8381101561178657808201518184015260208101905061176b565b83811115611795576000848401525b50505050565b600060028204905060018216806117b357607f821691505b602082108114156117c7576117c6611876565b5b50919050565b6117d68261191c565b810181811067ffffffffffffffff821117156117f5576117f46118d4565b5b80604052505050565b600061180982611719565b91507fffffffffffffffffffffffffffffffffffffffffffffffffffffffffffffffff82141561183c5761183b611847565b5b600182019050919050565b7f4e487b7100000000000000000000000000000000000000000000000000000000600052601160045260246000fd5b7f4e487b7100000000000000000000000000000000000000000000000000000000600052602260045260246000fd5b7f4e487b7100000000000000000000000000000000000000000000000000000000600052603260045260246000fd5b7f4e487b7100000000000000000000000000000000000000000000000000000000600052604160045260246000fd5b600080fd5b600080fd5b600080fd5b600080fd5b600080fd5b6000601f19601f8301169050919050565b7f50726f6a65637420616c7265616479206578697374732e000000000000000000600082015250565b7f4865726420646f6573206e6f742065786973742e000000000000000000000000600082015250565b7f50726f6a65637420646f6573206e6f742065786973742e000000000000000000600082015250565b6119b1816116ed565b81146119bc57600080fd5b50565b6119c881611719565b81146119d357600080fd5b5056fea2646970667358221220b4372083fab77fd1d64333778c04c7a73b8232c8bad1e06e552c12891f61260064736f6c63430008070033",
  "immutableReferences": {},
  "source": "// SPDX-License-Identifier: MIT\npragma solidity ^0.8.0;\n\nimport \"./HerdRegistry.sol\";\n\ncontract ProjectRegistry {\n    HerdRegistry public herdregistry;\n\n    struct Project {\n        uint256 Baselinestart;\n        uint256 Baselineend;\n        uint256 Projectstart;\n        uint256 Projectend;\n        string[] Herds;\n    }\n\n    mapping(string => Project) public projects;\n    mapping(string => bool) public projectExists;\n    string[] public allprojects;\n    \n    constructor(HerdRegistry _herdregistry)\n    {\n        herdregistry = _herdregistry;\n    }\n\n    function registerProject(\n        string memory _projectid,\n        uint256 _baselinestart,\n        uint256 _baselineend,\n        uint256 _projectstart,\n        uint256 _projectend\n    ) public \n    {\n        require(!projectExists[_projectid], \"Project already exists.\");\n        projects[_projectid] = Project(_baselinestart,_baselineend,_projectstart,_projectend,new string[](0));\n        projectExists[_projectid] = true;\n        allprojects.push(_projectid);\n    }\n\n    function addHerdsToProject(string memory _projectid, string[] memory _herdids) public {\n        require(projectExists[_projectid], \"Project does not exist.\");\n        for(uint256 i=0; i<_herdids.length; i++){\n            require(herdregistry.herdExists(_herdids[i]), \"Herd does not exist.\");\n        }\n        projects[_projectid].Herds = _herdids;\n    }\n\n    function queryProject(string memory _projectid) public view returns(uint256,uint256,uint256,uint256,string[] memory) \n    {\n        require(projectExists[_projectid], \"Project does not exist.\");\n        return(\n            projects[_projectid].Baselinestart,\n            projects[_projectid].Baselineend,\n            projects[_projectid].Projectstart,\n            projects[_projectid].Projectend,\n            projects[_projectid].Herds\n        );\n    }\n\n    function queryAll() public view\n    returns(\n        string[] memory,\n        uint256[] memory,\n        uint256[] memory,\n        uint256[] memory,\n        uint256[] memory\n        // string[][] memory\n        )\n    {\n        uint256[] memory blstarts = new uint256[](allprojects.length);\n        uint256[] memory blends = new uint256[](allprojects.length);\n        uint256[] memory pjstarts = new uint256[](allprojects.length);\n        uint256[] memory pjends = new uint256[](allprojects.length);\n        // string[][] memory herd_arrays = new string[][](allprojects.length);\n\n        for(uint256 i=0; i<allprojects.length; i++){\n            blstarts[i] = projects[allprojects[i]].Baselinestart;\n            blends[i] = projects[allprojects[i]].Baselinestart;\n            pjstarts[i] = projects[allprojects[i]].Projectstart;\n            pjends[i] = projects[allprojects[i]].Projectend;\n\n            // for(uint256 j=0; j<projects[allprojects[i]].Herds.length; j++){\n            //     herd_arrays[j][i] = projects[allprojects[i]].Herds[j];\n            // }\n        }\n\n        return(allprojects,blstarts,blends,pjstarts,pjends); // herd_arrays\n    }\n}",
  "sourcePath": "/home/yih/Documents/dev/beston-dapps/contracts/carbon/ProjectRegistry.sol",
  "compiler": {
    "name": "solc",
    "version": "0.8.7+commit.e28d00a7.Emscripten.clang"
  },
  "schemaVersion": "3.4.1",
  "updatedAt": "2023-09-07T05:40:28.636Z",
  "networkType": "ethereum",
  "devdoc": {
    "kind": "dev",
    "methods": {},
    "version": 1
  },
  "userdoc": {
    "kind": "user",
    "methods": {},
    "version": 1
  }
}