{
  "contractName": "ProjectRegistry",
  "abi": [
    {
      "inputs": [
        {
          "internalType": "uint256",
          "name": "",
          "type": "uint256"
        }
      ],
      "name": "allprojects",
      "outputs": [
        {
          "internalType": "string",
          "name": "",
          "type": "string"
        }
      ],
      "stateMutability": "view",
      "type": "function",
      "constant": true
    },
    {
      "inputs": [],
      "name": "farmregistry",
      "outputs": [
        {
          "internalType": "contract FarmRegistry",
          "name": "",
          "type": "address"
        }
      ],
      "stateMutability": "view",
      "type": "function",
      "constant": true
    },
    {
      "inputs": [],
      "name": "herdregistry",
      "outputs": [
        {
          "internalType": "contract HerdRegistry",
          "name": "",
          "type": "address"
        }
      ],
      "stateMutability": "view",
      "type": "function",
      "constant": true
    },
    {
      "inputs": [
        {
          "internalType": "string",
          "name": "",
          "type": "string"
        }
      ],
      "name": "projectExists",
      "outputs": [
        {
          "internalType": "bool",
          "name": "",
          "type": "bool"
        }
      ],
      "stateMutability": "view",
      "type": "function",
      "constant": true
    },
    {
      "inputs": [
        {
          "internalType": "string",
          "name": "",
          "type": "string"
        }
      ],
      "name": "projects",
      "outputs": [
        {
          "internalType": "uint256",
          "name": "Baselinestart",
          "type": "uint256"
        },
        {
          "internalType": "uint256",
          "name": "Baselineend",
          "type": "uint256"
        },
        {
          "internalType": "uint256",
          "name": "Projectstart",
          "type": "uint256"
        },
        {
          "internalType": "uint256",
          "name": "Projectend",
          "type": "uint256"
        }
      ],
      "stateMutability": "view",
      "type": "function",
      "constant": true
    },
    {
      "inputs": [
        {
          "internalType": "string",
          "name": "_projectid",
          "type": "string"
        },
        {
          "internalType": "uint256",
          "name": "_baselinestart",
          "type": "uint256"
        },
        {
          "internalType": "uint256",
          "name": "_baselineend",
          "type": "uint256"
        },
        {
          "internalType": "uint256",
          "name": "_projectstart",
          "type": "uint256"
        },
        {
          "internalType": "uint256",
          "name": "_projectend",
          "type": "uint256"
        }
      ],
      "name": "registerProject",
      "outputs": [],
      "stateMutability": "nonpayable",
      "type": "function"
    },
    {
      "inputs": [
        {
          "internalType": "string",
          "name": "_projectid",
          "type": "string"
        },
        {
          "internalType": "string[]",
          "name": "_herdids",
          "type": "string[]"
        }
      ],
      "name": "addHerdsToProject",
      "outputs": [],
      "stateMutability": "nonpayable",
      "type": "function"
    },
    {
      "inputs": [
        {
          "internalType": "string",
          "name": "_projectid",
          "type": "string"
        }
      ],
      "name": "queryProject",
      "outputs": [
        {
          "internalType": "uint256",
          "name": "",
          "type": "uint256"
        },
        {
          "internalType": "uint256",
          "name": "",
          "type": "uint256"
        },
        {
          "internalType": "uint256",
          "name": "",
          "type": "uint256"
        },
        {
          "internalType": "uint256",
          "name": "",
          "type": "uint256"
        },
        {
          "internalType": "string[]",
          "name": "",
          "type": "string[]"
        }
      ],
      "stateMutability": "view",
      "type": "function",
      "constant": true
    },
    {
      "inputs": [],
      "name": "queryAll",
      "outputs": [
        {
          "internalType": "string[]",
          "name": "",
          "type": "string[]"
        },
        {
          "internalType": "uint256[]",
          "name": "",
          "type": "uint256[]"
        },
        {
          "internalType": "uint256[]",
          "name": "",
          "type": "uint256[]"
        },
        {
          "internalType": "uint256[]",
          "name": "",
          "type": "uint256[]"
        },
        {
          "internalType": "uint256[]",
          "name": "",
          "type": "uint256[]"
        },
        {
          "internalType": "string[][]",
          "name": "",
          "type": "string[][]"
        }
      ],
      "stateMutability": "view",
      "type": "function",
      "constant": true
    }
  ],
  "bytecode": "0x608060405234801561001057600080fd5b50611d62806100206000396000f3fe608060405234801561001057600080fd5b50600436106100935760003560e01c8063d978f15911610066578063d978f1591461013b578063e592470814610157578063f49b6dea1461017a578063f757aa8c14610196578063fcfa958e146101c657610093565b8063110eed2e1461009857806382dbea60146100b657806391c9b268146100ea578063b3f4b3621461011d575b600080fd5b6100a06101f6565b6040516100ad9190611798565b60405180910390f35b6100d060048036038101906100cb919061118f565b61021a565b6040516100e1959493929190611875565b60405180910390f35b61010460048036038101906100ff919061118f565b61041c565b6040516101149493929190611830565b60405180910390f35b610125610462565b60405161013291906117b3565b60405180910390f35b610155600480360381019061015091906111d8565b610488565b005b61015f610651565b604051610171969594939291906116f2565b60405180910390f35b610194600480360381019061018f9190611250565b610c03565b005b6101b060048036038101906101ab91906112e7565b610dc3565b6040516101bd91906117ce565b60405180910390f35b6101e060048036038101906101db919061118f565b610e6f565b6040516101ed919061177d565b60405180910390f35b60008054906101000a900473ffffffffffffffffffffffffffffffffffffffff1681565b600080600080606060038660405161023291906116c4565b908152602001604051809103902060009054906101000a900460ff1661028d576040517f08c379a000000000000000000000000000000000000000000000000000000000815260040161028490611810565b60405180910390fd5b60028660405161029d91906116c4565b9081526020016040518091039020600001546002876040516102bf91906116c4565b9081526020016040518091039020600101546002886040516102e191906116c4565b90815260200160405180910390206002015460028960405161030391906116c4565b90815260200160405180910390206003015460028a60405161032591906116c4565b908152602001604051809103902060040180805480602002602001604051908101604052809291908181526020016000905b8282101561040357838290600052602060002001805461037690611b1a565b80601f01602080910402602001604051908101604052809291908181526020018280546103a290611b1a565b80156103ef5780601f106103c4576101008083540402835291602001916103ef565b820191906000526020600020905b8154815290600101906020018083116103d257829003601f168201915b505050505081526020019060010190610357565b5050505090509450945094509450945091939590929450565b6002818051602081018201805184825260208301602085012081835280955050505050506000915090508060000154908060010154908060020154908060030154905084565b600160009054906101000a900473ffffffffffffffffffffffffffffffffffffffff1681565b60038260405161049891906116c4565b908152602001604051809103902060009054906101000a900460ff166104f3576040517f08c379a00000000000000000000000000000000000000000000000000000000081526004016104ea90611810565b60405180910390fd5b60005b815181101561061657600160009054906101000a900473ffffffffffffffffffffffffffffffffffffffff1673ffffffffffffffffffffffffffffffffffffffff1663cfe6aaf18383815181106105505761054f611c24565b5b60200260200101516040518263ffffffff1660e01b815260040161057491906117ce565b60206040518083038186803b15801561058c57600080fd5b505afa1580156105a0573d6000803e3d6000fd5b505050506040513d601f19601f820116820180604052508101906105c49190611162565b610603576040517f08c379a00000000000000000000000000000000000000000000000000000000081526004016105fa906117f0565b60405180910390fd5b808061060e90611b7d565b9150506104f6565b508060028360405161062891906116c4565b9081526020016040518091039020600401908051906020019061064c929190610ea5565b505050565b606080606080606080600060048054905067ffffffffffffffff81111561067b5761067a611c53565b5b6040519080825280602002602001820160405280156106a95781602001602082028036833780820191505090505b509050600060048054905067ffffffffffffffff8111156106cd576106cc611c53565b5b6040519080825280602002602001820160405280156106fb5781602001602082028036833780820191505090505b509050600060048054905067ffffffffffffffff81111561071f5761071e611c53565b5b60405190808252806020026020018201604052801561074d5781602001602082028036833780820191505090505b509050600060048054905067ffffffffffffffff81111561077157610770611c53565b5b60405190808252806020026020018201604052801561079f5781602001602082028036833780820191505090505b509050600060048054905067ffffffffffffffff8111156107c3576107c2611c53565b5b6040519080825280602002602001820160405280156107f657816020015b60608152602001906001900390816107e15790505b50905060005b600480549050811015610b0f5760026004828154811061081f5761081e611c24565b5b9060005260206000200160405161083691906116db565b90815260200160405180910390206000015486828151811061085b5761085a611c24565b5b60200260200101818152505060026004828154811061087d5761087c611c24565b5b9060005260206000200160405161089491906116db565b9081526020016040518091039020600001548582815181106108b9576108b8611c24565b5b6020026020010181815250506002600482815481106108db576108da611c24565b5b906000526020600020016040516108f291906116db565b90815260200160405180910390206002015484828151811061091757610916611c24565b5b60200260200101818152505060026004828154811061093957610938611c24565b5b9060005260206000200160405161095091906116db565b90815260200160405180910390206003015483828151811061097557610974611c24565b5b60200260200101818152505060005b60026004838154811061099a57610999611c24565b5b906000526020600020016040516109b191906116db565b908152602001604051809103902060040180549050811015610afb576002600483815481106109e3576109e2611c24565b5b906000526020600020016040516109fa91906116db565b90815260200160405180910390206004018181548110610a1d57610a1c611c24565b5b906000526020600020018054610a3290611b1a565b80601f0160208091040260200160405190810160405280929190818152602001828054610a5e90611b1a565b8015610aab5780601f10610a8057610100808354040283529160200191610aab565b820191906000526020600020905b815481529060010190602001808311610a8e57829003601f168201915b5050505050838281518110610ac357610ac2611c24565b5b60200260200101518381518110610add57610adc611c24565b5b60200260200101819052508080610af390611b7d565b915050610984565b508080610b0790611b7d565b9150506107fc565b506004858585858585805480602002602001604051908101604052809291908181526020016000905b82821015610be4578382906000526020600020018054610b5790611b1a565b80601f0160208091040260200160405190810160405280929190818152602001828054610b8390611b1a565b8015610bd05780601f10610ba557610100808354040283529160200191610bd0565b820191906000526020600020905b815481529060010190602001808311610bb357829003601f168201915b505050505081526020019060010190610b38565b5050505095509a509a509a509a509a509a505050505050909192939495565b600385604051610c1391906116c4565b908152602001604051809103902060009054906101000a900460ff16610c6e576040517f08c379a0000000000000000000000000000000000000000000000000000000008152600401610c6590611810565b60405180910390fd5b6040518060a00160405280858152602001848152602001838152602001828152602001600067ffffffffffffffff811115610cac57610cab611c53565b5b604051908082528060200260200182016040528015610cdf57816020015b6060815260200190600190039081610cca5790505b50815250600286604051610cf391906116c4565b9081526020016040518091039020600082015181600001556020820151816001015560408201518160020155606082015181600301556080820151816004019080519060200190610d45929190610ea5565b509050506001600386604051610d5b91906116c4565b908152602001604051809103902060006101000a81548160ff021916908315150217905550600485908060018154018082558091505060019003906000526020600020016000909190919091509080519060200190610dbb929190610f05565b505050505050565b60048181548110610dd357600080fd5b906000526020600020016000915090508054610dee90611b1a565b80601f0160208091040260200160405190810160405280929190818152602001828054610e1a90611b1a565b8015610e675780601f10610e3c57610100808354040283529160200191610e67565b820191906000526020600020905b815481529060010190602001808311610e4a57829003601f168201915b505050505081565b6003818051602081018201805184825260208301602085012081835280955050505050506000915054906101000a900460ff1681565b828054828255906000526020600020908101928215610ef4579160200282015b82811115610ef3578251829080519060200190610ee3929190610f05565b5091602001919060010190610ec5565b5b509050610f019190610f8b565b5090565b828054610f1190611b1a565b90600052602060002090601f016020900481019282610f335760008555610f7a565b82601f10610f4c57805160ff1916838001178555610f7a565b82800160010185558215610f7a579182015b82811115610f79578251825591602001919060010190610f5e565b5b509050610f879190610faf565b5090565b5b80821115610fab5760008181610fa29190610fcc565b50600101610f8c565b5090565b5b80821115610fc8576000816000905550600101610fb0565b5090565b508054610fd890611b1a565b6000825580601f10610fea5750611009565b601f0160209004906000526020600020908101906110089190610faf565b5b50565b600061101f61101a846118f4565b6118cf565b9050808382526020820190508285602086028201111561104257611041611c87565b5b60005b8581101561109057813567ffffffffffffffff81111561106857611067611c82565b5b808601611075898261111f565b85526020850194506020840193505050600181019050611045565b5050509392505050565b60006110ad6110a884611920565b6118cf565b9050828152602081018484840111156110c9576110c8611c8c565b5b6110d4848285611ad8565b509392505050565b600082601f8301126110f1576110f0611c82565b5b813561110184826020860161100c565b91505092915050565b60008151905061111981611cfe565b92915050565b600082601f83011261113457611133611c82565b5b813561114484826020860161109a565b91505092915050565b60008135905061115c81611d15565b92915050565b60006020828403121561117857611177611c96565b5b60006111868482850161110a565b91505092915050565b6000602082840312156111a5576111a4611c96565b5b600082013567ffffffffffffffff8111156111c3576111c2611c91565b5b6111cf8482850161111f565b91505092915050565b600080604083850312156111ef576111ee611c96565b5b600083013567ffffffffffffffff81111561120d5761120c611c91565b5b6112198582860161111f565b925050602083013567ffffffffffffffff81111561123a57611239611c91565b5b611246858286016110dc565b9150509250929050565b600080600080600060a0868803121561126c5761126b611c96565b5b600086013567ffffffffffffffff81111561128a57611289611c91565b5b6112968882890161111f565b95505060206112a78882890161114d565b94505060406112b88882890161114d565b93505060606112c98882890161114d565b92505060806112da8882890161114d565b9150509295509295909350565b6000602082840312156112fd576112fc611c96565b5b600061130b8482850161114d565b91505092915050565b600061132083836113c9565b905092915050565b6000611334838361153e565b905092915050565b600061134883836116a6565b60208301905092915050565b600061135f82611996565b61136981856119e9565b93508360208202850161137b85611951565b8060005b858110156113b757848403895281516113988582611314565b94506113a3836119c2565b925060208a0199505060018101905061137f565b50829750879550505050505092915050565b60006113d4826119a1565b6113de81856119fa565b9350836020820285016113f085611961565b8060005b8581101561142c578484038952815161140d8582611328565b9450611418836119cf565b925060208a019950506001810190506113f4565b50829750879550505050505092915050565b6000611449826119a1565b6114538185611a0b565b93508360208202850161146585611961565b8060005b858110156114a157848403895281516114828582611328565b945061148d836119cf565b925060208a01995050600181019050611469565b50829750879550505050505092915050565b60006114be826119ac565b6114c88185611a1c565b93506114d383611971565b8060005b838110156115045781516114eb888261133c565b97506114f6836119dc565b9250506001810190506114d7565b5085935050505092915050565b61151a81611a5a565b82525050565b61152981611a90565b82525050565b61153881611aa2565b82525050565b6000611549826119b7565b6115538185611a2d565b9350611563818560208601611ae7565b61156c81611c9b565b840191505092915050565b6000611582826119b7565b61158c8185611a3e565b935061159c818560208601611ae7565b6115a581611c9b565b840191505092915050565b60006115bb826119b7565b6115c58185611a4f565b93506115d5818560208601611ae7565b80840191505092915050565b600081546115ee81611b1a565b6115f88186611a4f565b94506001821660008114611613576001811461162457611657565b60ff19831686528186019350611657565b61162d85611981565b60005b8381101561164f57815481890152600182019150602081019050611630565b838801955050505b50505092915050565b600061166d601483611a3e565b915061167882611cac565b602082019050919050565b6000611690601783611a3e565b915061169b82611cd5565b602082019050919050565b6116af81611a86565b82525050565b6116be81611a86565b82525050565b60006116d082846115b0565b915081905092915050565b60006116e782846115e1565b915081905092915050565b600060c082019050818103600083015261170c818961143e565b9050818103602083015261172081886114b3565b9050818103604083015261173481876114b3565b9050818103606083015261174881866114b3565b9050818103608083015261175c81856114b3565b905081810360a08301526117708184611354565b9050979650505050505050565b60006020820190506117926000830184611511565b92915050565b60006020820190506117ad6000830184611520565b92915050565b60006020820190506117c8600083018461152f565b92915050565b600060208201905081810360008301526117e88184611577565b905092915050565b6000602082019050818103600083015261180981611660565b9050919050565b6000602082019050818103600083015261182981611683565b9050919050565b600060808201905061184560008301876116b5565b61185260208301866116b5565b61185f60408301856116b5565b61186c60608301846116b5565b95945050505050565b600060a08201905061188a60008301886116b5565b61189760208301876116b5565b6118a460408301866116b5565b6118b160608301856116b5565b81810360808301526118c3818461143e565b90509695505050505050565b60006118d96118ea565b90506118e58282611b4c565b919050565b6000604051905090565b600067ffffffffffffffff82111561190f5761190e611c53565b5b602082029050602081019050919050565b600067ffffffffffffffff82111561193b5761193a611c53565b5b61194482611c9b565b9050602081019050919050565b6000819050602082019050919050565b6000819050602082019050919050565b6000819050602082019050919050565b60008190508160005260206000209050919050565b600081519050919050565b600081519050919050565b600081519050919050565b600081519050919050565b6000602082019050919050565b6000602082019050919050565b6000602082019050919050565b600082825260208201905092915050565b600082825260208201905092915050565b600082825260208201905092915050565b600082825260208201905092915050565b600082825260208201905092915050565b600082825260208201905092915050565b600081905092915050565b60008115159050919050565b600073ffffffffffffffffffffffffffffffffffffffff82169050919050565b6000819050919050565b6000611a9b82611ab4565b9050919050565b6000611aad82611ab4565b9050919050565b6000611abf82611ac6565b9050919050565b6000611ad182611a66565b9050919050565b82818337600083830152505050565b60005b83811015611b05578082015181840152602081019050611aea565b83811115611b14576000848401525b50505050565b60006002820490506001821680611b3257607f821691505b60208210811415611b4657611b45611bf5565b5b50919050565b611b5582611c9b565b810181811067ffffffffffffffff82111715611b7457611b73611c53565b5b80604052505050565b6000611b8882611a86565b91507fffffffffffffffffffffffffffffffffffffffffffffffffffffffffffffffff821415611bbb57611bba611bc6565b5b600182019050919050565b7f4e487b7100000000000000000000000000000000000000000000000000000000600052601160045260246000fd5b7f4e487b7100000000000000000000000000000000000000000000000000000000600052602260045260246000fd5b7f4e487b7100000000000000000000000000000000000000000000000000000000600052603260045260246000fd5b7f4e487b7100000000000000000000000000000000000000000000000000000000600052604160045260246000fd5b600080fd5b600080fd5b600080fd5b600080fd5b600080fd5b6000601f19601f8301169050919050565b7f4865726420646f6573206e6f742065786973742e000000000000000000000000600082015250565b7f50726f6a65637420646f6573206e6f742065786973742e000000000000000000600082015250565b611d0781611a5a565b8114611d1257600080fd5b50565b611d1e81611a86565b8114611d2957600080fd5b5056fea26469706673582212205b37ea483a16d425182dbe746a6b19db4219f9367ca4dbbdb8f614c4f06abba264736f6c63430008070033",
  "immutableReferences": {},
  "source": "// SPDX-License-Identifier: MIT\npragma solidity ^0.8.0;\n\nimport \"./FarmRegistry.sol\";\nimport \"./HerdRegistry.sol\";\n\ncontract ProjectRegistry {\n    FarmRegistry public farmregistry;\n    HerdRegistry public herdregistry;\n\n    struct Project {\n        uint256 Baselinestart;\n        uint256 Baselineend;\n        uint256 Projectstart;\n        uint256 Projectend;\n        string[] Herds;\n    }\n\n    mapping(string => Project) public projects;\n    mapping(string => bool) public projectExists;\n    string[] public allprojects;\n    \n    function registerProject(\n        string memory _projectid,\n        uint256 _baselinestart,\n        uint256 _baselineend,\n        uint256 _projectstart,\n        uint256 _projectend\n    ) public \n    {\n        require(projectExists[_projectid], \"Project does not exist.\");\n        projects[_projectid] = Project(_baselinestart,_baselineend,_projectstart,_projectend,new string[](0));\n        projectExists[_projectid] = true;\n        allprojects.push(_projectid);\n    }\n\n    function addHerdsToProject(string memory _projectid, string[] memory _herdids) public {\n        require(projectExists[_projectid], \"Project does not exist.\");\n        for(uint256 i=0; i<_herdids.length; i++){\n            require(herdregistry.herdExists(_herdids[i]), \"Herd does not exist.\");\n        }\n        projects[_projectid].Herds = _herdids;\n    }\n\n    function queryProject(string memory _projectid) public view returns(uint256,uint256,uint256,uint256,string[] memory) \n    {\n        require(projectExists[_projectid], \"Project does not exist.\");\n        return(\n            projects[_projectid].Baselinestart,\n            projects[_projectid].Baselineend,\n            projects[_projectid].Projectstart,\n            projects[_projectid].Projectend,\n            projects[_projectid].Herds\n        );\n    }\n\n    function queryAll() public view\n    returns(\n        string[] memory,\n        uint256[] memory,\n        uint256[] memory,\n        uint256[] memory,\n        uint256[] memory,\n        string[][] memory)\n    {\n        uint256[] memory blstarts = new uint256[](allprojects.length);\n        uint256[] memory blends = new uint256[](allprojects.length);\n        uint256[] memory pjstarts = new uint256[](allprojects.length);\n        uint256[] memory pjends = new uint256[](allprojects.length);\n        string[][] memory herd_arrays = new string[][](allprojects.length);\n\n        for(uint256 i=0; i<allprojects.length; i++){\n            blstarts[i] = projects[allprojects[i]].Baselinestart;\n            blends[i] = projects[allprojects[i]].Baselinestart;\n            pjstarts[i] = projects[allprojects[i]].Projectstart;\n            pjends[i] = projects[allprojects[i]].Projectend;\n\n            for(uint256 j=0; j<projects[allprojects[i]].Herds.length; j++){\n                herd_arrays[j][i] = projects[allprojects[i]].Herds[j];\n            }\n        }\n\n        return(allprojects,blstarts,blends,pjstarts,pjends,herd_arrays);\n    }\n}",
  "sourcePath": "/home/yih/Documents/dev/beston-dapps/contracts/carbon/ProjectRegistry.sol",
  "compiler": {
    "name": "solc",
    "version": "0.8.7+commit.e28d00a7.Emscripten.clang"
  },
  "schemaVersion": "3.4.1",
  "updatedAt": "2023-07-24T06:18:56.311Z",
  "networkType": "ethereum",
  "devdoc": {
    "kind": "dev",
    "methods": {},
    "version": 1
  },
  "userdoc": {
    "kind": "user",
    "methods": {},
    "version": 1
  }
}