{
  "contractName": "SeafeedTracking",
  "abi": [
    {
      "inputs": [
        {
          "internalType": "string",
          "name": "",
          "type": "string"
        }
      ],
      "name": "OrderToSale",
      "outputs": [
        {
          "internalType": "string",
          "name": "",
          "type": "string"
        }
      ],
      "stateMutability": "view",
      "type": "function"
    },
    {
      "inputs": [
        {
          "internalType": "string",
          "name": "",
          "type": "string"
        }
      ],
      "name": "SaleToStorage",
      "outputs": [
        {
          "internalType": "string",
          "name": "",
          "type": "string"
        }
      ],
      "stateMutability": "view",
      "type": "function"
    },
    {
      "inputs": [
        {
          "internalType": "string",
          "name": "",
          "type": "string"
        }
      ],
      "name": "StorageToTesting",
      "outputs": [
        {
          "internalType": "string",
          "name": "",
          "type": "string"
        }
      ],
      "stateMutability": "view",
      "type": "function"
    },
    {
      "inputs": [
        {
          "internalType": "string",
          "name": "",
          "type": "string"
        }
      ],
      "name": "TestingToProduction",
      "outputs": [
        {
          "internalType": "string",
          "name": "",
          "type": "string"
        }
      ],
      "stateMutability": "view",
      "type": "function"
    },
    {
      "inputs": [
        {
          "internalType": "string",
          "name": "",
          "type": "string"
        }
      ],
      "name": "orderExists",
      "outputs": [
        {
          "internalType": "bool",
          "name": "",
          "type": "bool"
        }
      ],
      "stateMutability": "view",
      "type": "function"
    },
    {
      "inputs": [
        {
          "internalType": "string",
          "name": "",
          "type": "string"
        }
      ],
      "name": "orders",
      "outputs": [
        {
          "internalType": "string",
          "name": "Customer",
          "type": "string"
        },
        {
          "internalType": "uint16",
          "name": "Quantity",
          "type": "uint16"
        },
        {
          "internalType": "enum SeafeedTracking.OrderStatus",
          "name": "OS",
          "type": "uint8"
        },
        {
          "internalType": "uint256",
          "name": "DateTime",
          "type": "uint256"
        }
      ],
      "stateMutability": "view",
      "type": "function"
    },
    {
      "inputs": [
        {
          "internalType": "string",
          "name": "",
          "type": "string"
        }
      ],
      "name": "productionExists",
      "outputs": [
        {
          "internalType": "bool",
          "name": "",
          "type": "bool"
        }
      ],
      "stateMutability": "view",
      "type": "function"
    },
    {
      "inputs": [
        {
          "internalType": "string",
          "name": "",
          "type": "string"
        }
      ],
      "name": "productions",
      "outputs": [
        {
          "internalType": "string",
          "name": "BatchID",
          "type": "string"
        },
        {
          "internalType": "string",
          "name": "FarmID",
          "type": "string"
        },
        {
          "internalType": "uint256",
          "name": "Volume",
          "type": "uint256"
        },
        {
          "internalType": "uint256",
          "name": "DateTime",
          "type": "uint256"
        }
      ],
      "stateMutability": "view",
      "type": "function"
    },
    {
      "inputs": [
        {
          "internalType": "string",
          "name": "",
          "type": "string"
        }
      ],
      "name": "saleExists",
      "outputs": [
        {
          "internalType": "bool",
          "name": "",
          "type": "bool"
        }
      ],
      "stateMutability": "view",
      "type": "function"
    },
    {
      "inputs": [
        {
          "internalType": "string",
          "name": "",
          "type": "string"
        }
      ],
      "name": "sales",
      "outputs": [
        {
          "internalType": "uint16",
          "name": "Quantity",
          "type": "uint16"
        },
        {
          "internalType": "bool",
          "name": "DispatchDocsAttached",
          "type": "bool"
        },
        {
          "internalType": "uint256",
          "name": "DateTime",
          "type": "uint256"
        }
      ],
      "stateMutability": "view",
      "type": "function"
    },
    {
      "inputs": [
        {
          "internalType": "string",
          "name": "",
          "type": "string"
        }
      ],
      "name": "storageExists",
      "outputs": [
        {
          "internalType": "bool",
          "name": "",
          "type": "bool"
        }
      ],
      "stateMutability": "view",
      "type": "function"
    },
    {
      "inputs": [
        {
          "internalType": "string",
          "name": "",
          "type": "string"
        }
      ],
      "name": "storages",
      "outputs": [
        {
          "internalType": "string",
          "name": "Manufacturer",
          "type": "string"
        },
        {
          "internalType": "string",
          "name": "Location",
          "type": "string"
        },
        {
          "internalType": "uint256",
          "name": "DateTime",
          "type": "uint256"
        },
        {
          "internalType": "uint256",
          "name": "BestBefore",
          "type": "uint256"
        }
      ],
      "stateMutability": "view",
      "type": "function"
    },
    {
      "inputs": [
        {
          "internalType": "string",
          "name": "",
          "type": "string"
        }
      ],
      "name": "testingExists",
      "outputs": [
        {
          "internalType": "bool",
          "name": "",
          "type": "bool"
        }
      ],
      "stateMutability": "view",
      "type": "function"
    },
    {
      "inputs": [
        {
          "internalType": "string",
          "name": "",
          "type": "string"
        }
      ],
      "name": "testings",
      "outputs": [
        {
          "internalType": "uint16",
          "name": "Temperature",
          "type": "uint16"
        },
        {
          "internalType": "uint256",
          "name": "DateTime",
          "type": "uint256"
        }
      ],
      "stateMutability": "view",
      "type": "function"
    },
    {
      "inputs": [
        {
          "internalType": "string",
          "name": "_productionid",
          "type": "string"
        },
        {
          "internalType": "string",
          "name": "_batchid",
          "type": "string"
        },
        {
          "internalType": "string",
          "name": "_farmid",
          "type": "string"
        },
        {
          "internalType": "uint256",
          "name": "_volume",
          "type": "uint256"
        },
        {
          "internalType": "uint256",
          "name": "_datetime",
          "type": "uint256"
        }
      ],
      "name": "registerProduction",
      "outputs": [],
      "stateMutability": "nonpayable",
      "type": "function"
    },
    {
      "inputs": [
        {
          "internalType": "string",
          "name": "_testingid",
          "type": "string"
        },
        {
          "internalType": "uint16",
          "name": "_temperature",
          "type": "uint16"
        },
        {
          "internalType": "uint256",
          "name": "_datetime",
          "type": "uint256"
        },
        {
          "internalType": "string",
          "name": "_productionid",
          "type": "string"
        }
      ],
      "name": "registerTesting",
      "outputs": [],
      "stateMutability": "nonpayable",
      "type": "function"
    },
    {
      "inputs": [
        {
          "internalType": "string",
          "name": "_storageid",
          "type": "string"
        },
        {
          "internalType": "string",
          "name": "_manufacturer",
          "type": "string"
        },
        {
          "internalType": "string",
          "name": "_location",
          "type": "string"
        },
        {
          "internalType": "uint256",
          "name": "_datetime",
          "type": "uint256"
        },
        {
          "internalType": "uint256",
          "name": "_bestbefore",
          "type": "uint256"
        },
        {
          "internalType": "string",
          "name": "_testingid",
          "type": "string"
        }
      ],
      "name": "registerStorage",
      "outputs": [],
      "stateMutability": "nonpayable",
      "type": "function"
    },
    {
      "inputs": [
        {
          "internalType": "string",
          "name": "_saleid",
          "type": "string"
        },
        {
          "internalType": "uint16",
          "name": "_quantity",
          "type": "uint16"
        },
        {
          "internalType": "uint256",
          "name": "_datetime",
          "type": "uint256"
        },
        {
          "internalType": "string",
          "name": "_storageid",
          "type": "string"
        }
      ],
      "name": "registerSale",
      "outputs": [],
      "stateMutability": "nonpayable",
      "type": "function"
    },
    {
      "inputs": [
        {
          "internalType": "string",
          "name": "_orderid",
          "type": "string"
        },
        {
          "internalType": "string",
          "name": "_customer",
          "type": "string"
        },
        {
          "internalType": "uint16",
          "name": "_quantity",
          "type": "uint16"
        },
        {
          "internalType": "uint256",
          "name": "_datetime",
          "type": "uint256"
        }
      ],
      "name": "registerOrder",
      "outputs": [],
      "stateMutability": "nonpayable",
      "type": "function"
    },
    {
      "inputs": [
        {
          "internalType": "string",
          "name": "_orderid",
          "type": "string"
        },
        {
          "internalType": "uint8",
          "name": "_ordertatus",
          "type": "uint8"
        }
      ],
      "name": "updateOrder",
      "outputs": [],
      "stateMutability": "nonpayable",
      "type": "function"
    },
    {
      "inputs": [
        {
          "internalType": "string",
          "name": "_productionid",
          "type": "string"
        }
      ],
      "name": "queryProduction",
      "outputs": [
        {
          "internalType": "string",
          "name": "",
          "type": "string"
        },
        {
          "internalType": "string",
          "name": "",
          "type": "string"
        },
        {
          "internalType": "uint256",
          "name": "",
          "type": "uint256"
        },
        {
          "internalType": "uint256",
          "name": "",
          "type": "uint256"
        }
      ],
      "stateMutability": "view",
      "type": "function"
    },
    {
      "inputs": [
        {
          "internalType": "string",
          "name": "_testingid",
          "type": "string"
        }
      ],
      "name": "queryTesting",
      "outputs": [
        {
          "internalType": "uint16",
          "name": "",
          "type": "uint16"
        },
        {
          "internalType": "uint256",
          "name": "",
          "type": "uint256"
        }
      ],
      "stateMutability": "view",
      "type": "function"
    },
    {
      "inputs": [
        {
          "internalType": "string",
          "name": "_storageid",
          "type": "string"
        }
      ],
      "name": "queryStorage",
      "outputs": [
        {
          "internalType": "string",
          "name": "",
          "type": "string"
        },
        {
          "internalType": "string",
          "name": "",
          "type": "string"
        },
        {
          "internalType": "uint256",
          "name": "",
          "type": "uint256"
        },
        {
          "internalType": "uint256",
          "name": "",
          "type": "uint256"
        }
      ],
      "stateMutability": "view",
      "type": "function"
    },
    {
      "inputs": [
        {
          "internalType": "string",
          "name": "_saleid",
          "type": "string"
        }
      ],
      "name": "querySale",
      "outputs": [
        {
          "internalType": "uint16",
          "name": "",
          "type": "uint16"
        },
        {
          "internalType": "bool",
          "name": "",
          "type": "bool"
        },
        {
          "internalType": "uint256",
          "name": "",
          "type": "uint256"
        }
      ],
      "stateMutability": "view",
      "type": "function"
    },
    {
      "inputs": [
        {
          "internalType": "string",
          "name": "_orderid",
          "type": "string"
        }
      ],
      "name": "queryOrder",
      "outputs": [
        {
          "internalType": "string",
          "name": "",
          "type": "string"
        },
        {
          "internalType": "uint256",
          "name": "",
          "type": "uint256"
        },
        {
          "internalType": "string",
          "name": "",
          "type": "string"
        },
        {
          "internalType": "uint256",
          "name": "",
          "type": "uint256"
        }
      ],
      "stateMutability": "view",
      "type": "function"
    },
    {
      "inputs": [
        {
          "internalType": "string",
          "name": "_orderid",
          "type": "string"
        }
      ],
      "name": "queryOrderSource",
      "outputs": [
        {
          "internalType": "string",
          "name": "",
          "type": "string"
        }
      ],
      "stateMutability": "view",
      "type": "function"
    }
  ],
  "bytecode": "0x608060405234801561001057600080fd5b506130ee806100206000396000f3fe608060405234801561001057600080fd5b506004361061018e5760003560e01c806393c1f7c5116100de578063be8a14e411610097578063e16dd58711610071578063e16dd58714610562578063ed3d3f6d1461057e578063ee916ce3146105ae578063fbb37cf2146105e15761018e565b8063be8a14e4146104d1578063bf3de2a414610501578063db5607de146105325761018e565b806393c1f7c5146103d85780639d15b2d314610408578063a959d58514610438578063ac9a021b14610468578063b327882614610484578063bd431d0c146104b55761018e565b80634b8133c61161014b57806385f71c2d1161012557806385f71c2d146103135780638886244e1461034357806392d18c0414610373578063936ee97d146103a65761018e565b80634b8133c6146102915780635bde9248146102c45780637bacb8cc146102e05761018e565b8063066278451461019357806315d44431146101c65780631876bd38146101e25780631a94894714610212578063206614d51461024557806334c3f24414610275575b600080fd5b6101ad60048036038101906101a89190612402565b610613565b6040516101bd9493929190612a09565b60405180910390f35b6101e060048036038101906101db919061251a565b610769565b005b6101fc60048036038101906101f79190612402565b6108ff565b60405161020991906129e7565b60405180910390f35b61022c60048036038101906102279190612402565b6109b5565b60405161023c9493929190612a5c565b60405180910390f35b61025f600480360381019061025a9190612402565b610a9e565b60405161026c91906129cc565b60405180910390f35b61028f600480360381019061028a9190612617565b610ad4565b005b6102ab60048036038101906102a69190612402565b610c5f565b6040516102bb9493929190612a09565b60405180910390f35b6102de60048036038101906102d99190612755565b610e7d565b005b6102fa60048036038101906102f59190612402565b610edf565b60405161030a9493929190612a09565b60405180910390f35b61032d60048036038101906103289190612402565b6110fd565b60405161033a91906129e7565b60405180910390f35b61035d60048036038101906103589190612402565b6113b7565b60405161036a91906129cc565b60405180910390f35b61038d60048036038101906103889190612402565b6113ed565b60405161039d9493929190612aa8565b60405180910390f35b6103c060048036038101906103bb9190612402565b611814565b6040516103cf93929190612c3b565b60405180910390f35b6103f260048036038101906103ed9190612402565b611912565b6040516103ff91906129e7565b60405180910390f35b610422600480360381019061041d9190612402565b6119c8565b60405161042f91906129cc565b60405180910390f35b610452600480360381019061044d9190612402565b6119fe565b60405161045f91906129cc565b60405180910390f35b610482600480360381019061047d919061244b565b611a34565b005b61049e60048036038101906104999190612402565b611b96565b6040516104ac929190612c72565b60405180910390f35b6104cf60048036038101906104ca91906126b6565b611c5f565b005b6104eb60048036038101906104e69190612402565b611dd7565b6040516104f891906129e7565b60405180910390f35b61051b60048036038101906105169190612402565b611e8d565b604051610529929190612c72565b60405180910390f35b61054c60048036038101906105479190612402565b611ed5565b60405161055991906129e7565b60405180910390f35b61057c600480360381019061057791906126b6565b611f8b565b005b61059860048036038101906105939190612402565b6120c9565b6040516105a591906129cc565b60405180910390f35b6105c860048036038101906105c39190612402565b6120ff565b6040516105d89493929190612a09565b60405180910390f35b6105fb60048036038101906105f69190612402565b612255565b60405161060a93929190612c3b565b60405180910390f35b60008180516020810182018051848252602083016020850120818352809550505050505060009150905080600001805461064c90612db0565b80601f016020809104026020016040519081016040528092919081815260200182805461067890612db0565b80156106c55780601f1061069a576101008083540402835291602001916106c5565b820191906000526020600020905b8154815290600101906020018083116106a857829003601f168201915b5050505050908060010180546106da90612db0565b80601f016020809104026020016040519081016040528092919081815260200182805461070690612db0565b80156107535780601f1061072857610100808354040283529160200191610753565b820191906000526020600020905b81548152906001019060200180831161073657829003601f168201915b5050505050908060020154908060030154905084565b60078660405161077991906129b5565b908152602001604051809103902060009054906101000a900460ff16156107d5576040517f08c379a00000000000000000000000000000000000000000000000000000000081526004016107cc90612b3b565b60405180910390fd5b60016007876040516107e791906129b5565b908152602001604051809103902060006101000a81548160ff0219169083151502179055508460028760405161081d91906129b5565b908152602001604051809103902060000190805190602001906108419291906122b0565b508360028760405161085391906129b5565b908152602001604051809103902060010190805190602001906108779291906122b0565b508260028760405161088991906129b5565b908152602001604051809103902060020181905550816002876040516108af91906129b5565b90815260200160405180910390206003018190555080600b876040516108d591906129b5565b908152602001604051809103902090805190602001906108f69291906122b0565b50505050505050565b600d81805160208101820180518482526020830160208501208183528095505050505050600091509050805461093490612db0565b80601f016020809104026020016040519081016040528092919081815260200182805461096090612db0565b80156109ad5780601f10610982576101008083540402835291602001916109ad565b820191906000526020600020905b81548152906001019060200180831161099057829003601f168201915b505050505081565b6004818051602081018201805184825260208301602085012081835280955050505050506000915090508060000180546109ee90612db0565b80601f0160208091040260200160405190810160405280929190818152602001828054610a1a90612db0565b8015610a675780601f10610a3c57610100808354040283529160200191610a67565b820191906000526020600020905b815481529060010190602001808311610a4a57829003601f168201915b5050505050908060010160009054906101000a900461ffff16908060010160029054906101000a900460ff16908060020154905084565b6007818051602081018201805184825260208301602085012081835280955050505050506000915054906101000a900460ff1681565b600984604051610ae491906129b5565b908152602001604051809103902060009054906101000a900460ff1615610b40576040517f08c379a0000000000000000000000000000000000000000000000000000000008152600401610b3790612b9b565b60405180910390fd5b6001600985604051610b5291906129b5565b908152602001604051809103902060006101000a81548160ff02191690831515021790555082600485604051610b8891906129b5565b90815260200160405180910390206000019080519060200190610bac9291906122b0565b5081600485604051610bbe91906129b5565b908152602001604051809103902060010160006101000a81548161ffff021916908361ffff1602179055506000600485604051610bfb91906129b5565b908152602001604051809103902060010160026101000a81548160ff02191690836003811115610c2e57610c2d612e13565b5b021790555080600485604051610c4491906129b5565b90815260200160405180910390206002018190555050505050565b606080600080600785604051610c7591906129b5565b908152602001604051809103902060009054906101000a900460ff16610cd0576040517f08c379a0000000000000000000000000000000000000000000000000000000008152600401610cc790612b7b565b60405180910390fd5b600285604051610ce091906129b5565b9081526020016040518091039020600001600286604051610d0191906129b5565b9081526020016040518091039020600101600287604051610d2291906129b5565b908152602001604051809103902060020154600288604051610d4491906129b5565b908152602001604051809103902060030154838054610d6290612db0565b80601f0160208091040260200160405190810160405280929190818152602001828054610d8e90612db0565b8015610ddb5780601f10610db057610100808354040283529160200191610ddb565b820191906000526020600020905b815481529060010190602001808311610dbe57829003601f168201915b50505050509350828054610dee90612db0565b80601f0160208091040260200160405190810160405280929190818152602001828054610e1a90612db0565b8015610e675780601f10610e3c57610100808354040283529160200191610e67565b820191906000526020600020905b815481529060010190602001808311610e4a57829003601f168201915b5050505050925093509350935093509193509193565b8060ff166003811115610e9357610e92612e13565b5b600483604051610ea391906129b5565b908152602001604051809103902060010160026101000a81548160ff02191690836003811115610ed657610ed5612e13565b5b02179055505050565b606080600080600585604051610ef591906129b5565b908152602001604051809103902060009054906101000a900460ff16610f50576040517f08c379a0000000000000000000000000000000000000000000000000000000008152600401610f4790612bfb565b60405180910390fd5b600085604051610f6091906129b5565b9081526020016040518091039020600001600086604051610f8191906129b5565b9081526020016040518091039020600101600087604051610fa291906129b5565b908152602001604051809103902060020154600088604051610fc491906129b5565b908152602001604051809103902060030154838054610fe290612db0565b80601f016020809104026020016040519081016040528092919081815260200182805461100e90612db0565b801561105b5780601f106110305761010080835404028352916020019161105b565b820191906000526020600020905b81548152906001019060200180831161103e57829003601f168201915b5050505050935082805461106e90612db0565b80601f016020809104026020016040519081016040528092919081815260200182805461109a90612db0565b80156110e75780601f106110bc576101008083540402835291602001916110e7565b820191906000526020600020905b8154815290600101906020018083116110ca57829003601f168201915b5050505050925093509350935093509193509193565b60606000600d8360405161111191906129b5565b9081526020016040518091039020805461112a90612db0565b80601f016020809104026020016040519081016040528092919081815260200182805461115690612db0565b80156111a35780601f10611178576101008083540402835291602001916111a3565b820191906000526020600020905b81548152906001019060200180831161118657829003601f168201915b505050505090506000600a826040516111bc91906129b5565b908152602001604051809103902080546111d590612db0565b80601f016020809104026020016040519081016040528092919081815260200182805461120190612db0565b801561124e5780601f106112235761010080835404028352916020019161124e565b820191906000526020600020905b81548152906001019060200180831161123157829003601f168201915b505050505090506000600b8260405161126791906129b5565b9081526020016040518091039020805461128090612db0565b80601f01602080910402602001604051908101604052809291908181526020018280546112ac90612db0565b80156112f95780601f106112ce576101008083540402835291602001916112f9565b820191906000526020600020905b8154815290600101906020018083116112dc57829003601f168201915b505050505090506000600c8260405161131291906129b5565b9081526020016040518091039020805461132b90612db0565b80601f016020809104026020016040519081016040528092919081815260200182805461135790612db0565b80156113a45780601f10611379576101008083540402835291602001916113a4565b820191906000526020600020905b81548152906001019060200180831161138757829003601f168201915b5050505050905080945050505050919050565b6005818051602081018201805184825260208301602085012081835280955050505050506000915054906101000a900460ff1681565b606060006060600060098560405161140591906129b5565b908152602001604051809103902060009054906101000a900460ff16611460576040517f08c379a000000000000000000000000000000000000000000000000000000000815260040161145790612c1b565b60405180910390fd5b60606000600381111561147657611475612e13565b5b60048760405161148691906129b5565b908152602001604051809103902060010160029054906101000a900460ff1660038111156114b7576114b6612e13565b5b14156114fa576040518060400160405280600781526020017f4f7264657265640000000000000000000000000000000000000000000000000081525090506116fd565b6001600381111561150e5761150d612e13565b5b60048760405161151e91906129b5565b908152602001604051809103902060010160029054906101000a900460ff16600381111561154f5761154e612e13565b5b1415611592576040518060400160405280600f81526020017f5061796d656e747265636569766564000000000000000000000000000000000081525090506116fc565b600260038111156115a6576115a5612e13565b5b6004876040516115b691906129b5565b908152602001604051809103902060010160029054906101000a900460ff1660038111156115e7576115e6612e13565b5b141561162a576040518060400160405280600a81526020017f446973706174636865640000000000000000000000000000000000000000000081525090506116fb565b60038081111561163d5761163c612e13565b5b60048760405161164d91906129b5565b908152602001604051809103902060010160029054906101000a900460ff16600381111561167e5761167d612e13565b5b14156116c1576040518060400160405280600781526020017f417272697665640000000000000000000000000000000000000000000000000081525090506116fa565b6040518060400160405280600781526020017f556e6b6e6f776e0000000000000000000000000000000000000000000000000081525090505b5b5b5b60048660405161170d91906129b5565b908152602001604051809103902060000160048760405161172e91906129b5565b908152602001604051809103902060010160009054906101000a900461ffff168260048960405161175f91906129b5565b90815260200160405180910390206002015483805461177d90612db0565b80601f01602080910402602001604051908101604052809291908181526020018280546117a990612db0565b80156117f65780601f106117cb576101008083540402835291602001916117f6565b820191906000526020600020905b8154815290600101906020018083116117d957829003601f168201915b505050505093508261ffff1692509450945094509450509193509193565b600080600060088460405161182991906129b5565b908152602001604051809103902060009054906101000a900460ff16611884576040517f08c379a000000000000000000000000000000000000000000000000000000000815260040161187b90612bbb565b60405180910390fd5b60038460405161189491906129b5565b908152602001604051809103902060000160009054906101000a900461ffff166003856040516118c491906129b5565b908152602001604051809103902060000160029054906101000a900460ff166003866040516118f391906129b5565b9081526020016040518091039020600101549250925092509193909250565b600b81805160208101820180518482526020830160208501208183528095505050505050600091509050805461194790612db0565b80601f016020809104026020016040519081016040528092919081815260200182805461197390612db0565b80156119c05780601f10611995576101008083540402835291602001916119c0565b820191906000526020600020905b8154815290600101906020018083116119a357829003601f168201915b505050505081565b6008818051602081018201805184825260208301602085012081835280955050505050506000915054906101000a900460ff1681565b6009818051602081018201805184825260208301602085012081835280955050505050506000915054906101000a900460ff1681565b600585604051611a4491906129b5565b908152602001604051809103902060009054906101000a900460ff1615611aa0576040517f08c379a0000000000000000000000000000000000000000000000000000000008152600401611a9790612afb565b60405180910390fd5b6001600586604051611ab291906129b5565b908152602001604051809103902060006101000a81548160ff02191690831515021790555083600086604051611ae891906129b5565b90815260200160405180910390206000019080519060200190611b0c9291906122b0565b5082600086604051611b1e91906129b5565b90815260200160405180910390206001019080519060200190611b429291906122b0565b5081600086604051611b5491906129b5565b90815260200160405180910390206002018190555080600086604051611b7a91906129b5565b9081526020016040518091039020600301819055505050505050565b600080600683604051611ba991906129b5565b908152602001604051809103902060009054906101000a900460ff16611c04576040517f08c379a0000000000000000000000000000000000000000000000000000000008152600401611bfb90612b5b565b60405180910390fd5b600183604051611c1491906129b5565b908152602001604051809103902060000160009054906101000a900461ffff16600184604051611c4491906129b5565b90815260200160405180910390206001015491509150915091565b600884604051611c6f91906129b5565b908152602001604051809103902060009054906101000a900460ff1615611ccb576040517f08c379a0000000000000000000000000000000000000000000000000000000008152600401611cc290612bdb565b60405180910390fd5b6001600885604051611cdd91906129b5565b908152602001604051809103902060006101000a81548160ff02191690831515021790555082600385604051611d1391906129b5565b908152602001604051809103902060000160006101000a81548161ffff021916908361ffff1602179055506000600385604051611d5091906129b5565b908152602001604051809103902060000160026101000a81548160ff02191690831515021790555081600385604051611d8991906129b5565b90815260200160405180910390206001018190555080600c85604051611daf91906129b5565b90815260200160405180910390209080519060200190611dd09291906122b0565b5050505050565b600c818051602081018201805184825260208301602085012081835280955050505050506000915090508054611e0c90612db0565b80601f0160208091040260200160405190810160405280929190818152602001828054611e3890612db0565b8015611e855780601f10611e5a57610100808354040283529160200191611e85565b820191906000526020600020905b815481529060010190602001808311611e6857829003601f168201915b505050505081565b6001818051602081018201805184825260208301602085012081835280955050505050506000915090508060000160009054906101000a900461ffff16908060010154905082565b600a818051602081018201805184825260208301602085012081835280955050505050506000915090508054611f0a90612db0565b80601f0160208091040260200160405190810160405280929190818152602001828054611f3690612db0565b8015611f835780601f10611f5857610100808354040283529160200191611f83565b820191906000526020600020905b815481529060010190602001808311611f6657829003601f168201915b505050505081565b600684604051611f9b91906129b5565b908152602001604051809103902060009054906101000a900460ff1615611ff7576040517f08c379a0000000000000000000000000000000000000000000000000000000008152600401611fee90612b1b565b60405180910390fd5b600160068560405161200991906129b5565b908152602001604051809103902060006101000a81548160ff0219169083151502179055508260018560405161203f91906129b5565b908152602001604051809103902060000160006101000a81548161ffff021916908361ffff1602179055508160018560405161207b91906129b5565b90815260200160405180910390206001018190555080600a856040516120a191906129b5565b908152602001604051809103902090805190602001906120c29291906122b0565b5050505050565b6006818051602081018201805184825260208301602085012081835280955050505050506000915054906101000a900460ff1681565b60028180516020810182018051848252602083016020850120818352809550505050505060009150905080600001805461213890612db0565b80601f016020809104026020016040519081016040528092919081815260200182805461216490612db0565b80156121b15780601f10612186576101008083540402835291602001916121b1565b820191906000526020600020905b81548152906001019060200180831161219457829003601f168201915b5050505050908060010180546121c690612db0565b80601f01602080910402602001604051908101604052809291908181526020018280546121f290612db0565b801561223f5780601f106122145761010080835404028352916020019161223f565b820191906000526020600020905b81548152906001019060200180831161222257829003601f168201915b5050505050908060020154908060030154905084565b6003818051602081018201805184825260208301602085012081835280955050505050506000915090508060000160009054906101000a900461ffff16908060000160029054906101000a900460ff16908060010154905083565b8280546122bc90612db0565b90600052602060002090601f0160209004810192826122de5760008555612325565b82601f106122f757805160ff1916838001178555612325565b82800160010185558215612325579182015b82811115612324578251825591602001919060010190612309565b5b5090506123329190612336565b5090565b5b8082111561234f576000816000905550600101612337565b5090565b600061236661236184612cc0565b612c9b565b90508281526020810184848401111561238257612381612ea5565b5b61238d848285612d6e565b509392505050565b600082601f8301126123aa576123a9612ea0565b5b81356123ba848260208601612353565b91505092915050565b6000813590506123d281613073565b92915050565b6000813590506123e78161308a565b92915050565b6000813590506123fc816130a1565b92915050565b60006020828403121561241857612417612eaf565b5b600082013567ffffffffffffffff81111561243657612435612eaa565b5b61244284828501612395565b91505092915050565b600080600080600060a0868803121561246757612466612eaf565b5b600086013567ffffffffffffffff81111561248557612484612eaa565b5b61249188828901612395565b955050602086013567ffffffffffffffff8111156124b2576124b1612eaa565b5b6124be88828901612395565b945050604086013567ffffffffffffffff8111156124df576124de612eaa565b5b6124eb88828901612395565b93505060606124fc888289016123d8565b925050608061250d888289016123d8565b9150509295509295909350565b60008060008060008060c0878903121561253757612536612eaf565b5b600087013567ffffffffffffffff81111561255557612554612eaa565b5b61256189828a01612395565b965050602087013567ffffffffffffffff81111561258257612581612eaa565b5b61258e89828a01612395565b955050604087013567ffffffffffffffff8111156125af576125ae612eaa565b5b6125bb89828a01612395565b94505060606125cc89828a016123d8565b93505060806125dd89828a016123d8565b92505060a087013567ffffffffffffffff8111156125fe576125fd612eaa565b5b61260a89828a01612395565b9150509295509295509295565b6000806000806080858703121561263157612630612eaf565b5b600085013567ffffffffffffffff81111561264f5761264e612eaa565b5b61265b87828801612395565b945050602085013567ffffffffffffffff81111561267c5761267b612eaa565b5b61268887828801612395565b9350506040612699878288016123c3565b92505060606126aa878288016123d8565b91505092959194509250565b600080600080608085870312156126d0576126cf612eaf565b5b600085013567ffffffffffffffff8111156126ee576126ed612eaa565b5b6126fa87828801612395565b945050602061270b878288016123c3565b935050604061271c878288016123d8565b925050606085013567ffffffffffffffff81111561273d5761273c612eaa565b5b61274987828801612395565b91505092959194509250565b6000806040838503121561276c5761276b612eaf565b5b600083013567ffffffffffffffff81111561278a57612789612eaa565b5b61279685828601612395565b92505060206127a7858286016123ed565b9150509250929050565b6127ba81612d18565b82525050565b6127c981612d5c565b82525050565b60006127da82612cf1565b6127e48185612cfc565b93506127f4818560208601612d7d565b6127fd81612eb4565b840191505092915050565b600061281382612cf1565b61281d8185612d0d565b935061282d818560208601612d7d565b80840191505092915050565b6000612846601a83612cfc565b915061285182612ec5565b602082019050919050565b6000612869601783612cfc565b915061287482612eee565b602082019050919050565b600061288c601783612cfc565b915061289782612f17565b602082019050919050565b60006128af601783612cfc565b91506128ba82612f40565b602082019050919050565b60006128d2601783612cfc565b91506128dd82612f69565b602082019050919050565b60006128f5601583612cfc565b915061290082612f92565b602082019050919050565b6000612918601483612cfc565b915061292382612fbb565b602082019050919050565b600061293b601483612cfc565b915061294682612fe4565b602082019050919050565b600061295e601a83612cfc565b91506129698261300d565b602082019050919050565b6000612981601583612cfc565b915061298c82613036565b602082019050919050565b6129a081612d37565b82525050565b6129af81612d45565b82525050565b60006129c18284612808565b915081905092915050565b60006020820190506129e160008301846127b1565b92915050565b60006020820190508181036000830152612a0181846127cf565b905092915050565b60006080820190508181036000830152612a2381876127cf565b90508181036020830152612a3781866127cf565b9050612a4660408301856129a6565b612a5360608301846129a6565b95945050505050565b60006080820190508181036000830152612a7681876127cf565b9050612a856020830186612997565b612a9260408301856127c0565b612a9f60608301846129a6565b95945050505050565b60006080820190508181036000830152612ac281876127cf565b9050612ad160208301866129a6565b8181036040830152612ae381856127cf565b9050612af260608301846129a6565b95945050505050565b60006020820190508181036000830152612b1481612839565b9050919050565b60006020820190508181036000830152612b348161285c565b9050919050565b60006020820190508181036000830152612b548161287f565b9050919050565b60006020820190508181036000830152612b74816128a2565b9050919050565b60006020820190508181036000830152612b94816128c5565b9050919050565b60006020820190508181036000830152612bb4816128e8565b9050919050565b60006020820190508181036000830152612bd48161290b565b9050919050565b60006020820190508181036000830152612bf48161292e565b9050919050565b60006020820190508181036000830152612c1481612951565b9050919050565b60006020820190508181036000830152612c3481612974565b9050919050565b6000606082019050612c506000830186612997565b612c5d60208301856127b1565b612c6a60408301846129a6565b949350505050565b6000604082019050612c876000830185612997565b612c9460208301846129a6565b9392505050565b6000612ca5612cb6565b9050612cb18282612de2565b919050565b6000604051905090565b600067ffffffffffffffff821115612cdb57612cda612e71565b5b612ce482612eb4565b9050602081019050919050565b600081519050919050565b600082825260208201905092915050565b600081905092915050565b60008115159050919050565b6000819050612d328261305f565b919050565b600061ffff82169050919050565b6000819050919050565b600060ff82169050919050565b6000612d6782612d24565b9050919050565b82818337600083830152505050565b60005b83811015612d9b578082015181840152602081019050612d80565b83811115612daa576000848401525b50505050565b60006002820490506001821680612dc857607f821691505b60208210811415612ddc57612ddb612e42565b5b50919050565b612deb82612eb4565b810181811067ffffffffffffffff82111715612e0a57612e09612e71565b5b80604052505050565b7f4e487b7100000000000000000000000000000000000000000000000000000000600052602160045260246000fd5b7f4e487b7100000000000000000000000000000000000000000000000000000000600052602260045260246000fd5b7f4e487b7100000000000000000000000000000000000000000000000000000000600052604160045260246000fd5b600080fd5b600080fd5b600080fd5b600080fd5b6000601f19601f8301169050919050565b7f50726f64756374696f6e20616c7265616479206578697374732e000000000000600082015250565b7f54657374696e6720616c7265616479206578697374732e000000000000000000600082015250565b7f53746f7261676520616c7265616479206578697374732e000000000000000000600082015250565b7f54657374696e6720646f6573206e6f742065786973742e000000000000000000600082015250565b7f53746f7261676520646f6573206e6f742065786973742e000000000000000000600082015250565b7f4f7264657220616c7265616479206578697374732e0000000000000000000000600082015250565b7f53616c6520646f6573206e6f742065786973742e000000000000000000000000600082015250565b7f53616c6520616c7265616479206578697374732e000000000000000000000000600082015250565b7f50726f64756374696f6e20646f6573206e6f742065786973742e000000000000600082015250565b7f4f7264657220646f6573206e6f742065786973742e0000000000000000000000600082015250565b600481106130705761306f612e13565b5b50565b61307c81612d37565b811461308757600080fd5b50565b61309381612d45565b811461309e57600080fd5b50565b6130aa81612d4f565b81146130b557600080fd5b5056fea26469706673582212208a51c9a7d55a287f497dbbeba7a2eb9df2108e1f5a57dd0aeb987570e33e220b64736f6c63430008070033",
  "immutableReferences": {},
  "source": "// SPDX-License-Identifier: MIT\npragma solidity ^0.8.0;\n\ncontract SeafeedTracking {\n    enum OrderStatus {\n        ORDERED,\n        PAYMENTRECEIVED,\n        DISPATCHED,\n        ARRIVED\n    }\n\n    struct Production {\n        string BatchID;\n        string FarmID;\n        uint256 Volume;\n        uint256 DateTime; //unix time\n    }\n\n    struct Testing {\n        uint16 Temperature;\n        uint256 DateTime;\n    }\n\n    struct Storage {\n        string Manufacturer;\n        string Location;\n        uint256 DateTime;\n        uint256 BestBefore;\n    }\n\n    struct Sale {\n        uint16 Quantity;\n        bool DispatchDocsAttached;\n        uint256 DateTime;\n    }\n\n    struct Order {\n        string Customer;\n        uint16 Quantity;\n        OrderStatus OS;\n        uint256 DateTime;\n    }\n\n    // storage of structs\n    mapping(string => Production) public productions;\n    mapping(string => Testing) public testings;\n    mapping(string => Storage) public storages;\n    mapping(string => Sale) public sales;\n    mapping(string => Order) public orders;\n\n    // existence of structs\n    mapping(string => bool) public productionExists;\n    mapping(string => bool) public testingExists;\n    mapping(string => bool) public storageExists;\n    mapping(string => bool) public saleExists;\n    mapping(string => bool) public orderExists;\n\n    // trace from end product to source\n    mapping(string => string) public TestingToProduction;\n    mapping(string => string) public StorageToTesting;\n    mapping(string => string) public SaleToStorage;\n    mapping(string => string) public OrderToSale;\n\n// the setters\n    function registerProduction(\n        string memory _productionid,\n        string memory _batchid,\n        string memory _farmid,\n        uint256 _volume,\n        uint256 _datetime) \n        public\n    {\n        require(!productionExists[_productionid], \"Production already exists.\");\n\n        productionExists[_productionid] = true;\n\n        productions[_productionid].BatchID = _batchid;\n        productions[_productionid].FarmID = _farmid;\n        productions[_productionid].Volume = _volume;\n        productions[_productionid].DateTime = _datetime;\n    }\n\n    function registerTesting(\n        string memory _testingid,\n        uint16 _temperature,\n        uint256 _datetime,\n        string memory _productionid\n    )\n        public\n    {\n        require(!testingExists[_testingid], \"Testing already exists.\");\n        \n        testingExists[_testingid] = true;\n\n        testings[_testingid].Temperature = _temperature;\n        testings[_testingid].DateTime = _datetime;\n\n        // traceability\n        TestingToProduction[_testingid] = _productionid;\n    }\n\n    function registerStorage(\n        string memory _storageid,\n        string memory _manufacturer,\n        string memory _location,\n        uint256 _datetime,\n        uint256 _bestbefore,\n        string memory _testingid\n    )\n        public\n    {\n        require(!storageExists[_storageid], \"Storage already exists.\");\n\n        storageExists[_storageid] = true;\n\n        storages[_storageid].Manufacturer = _manufacturer;\n        storages[_storageid].Location = _location;\n        storages[_storageid].DateTime = _datetime;\n        storages[_storageid].BestBefore = _bestbefore;\n\n        // traceability\n        StorageToTesting[_storageid] = _testingid;\n    }\n\n    // registerSale should be more like \"orderSeafeed\" or registerOrder\n    function registerSale(\n        string memory _saleid,\n        uint16 _quantity,\n        uint256 _datetime,\n        string memory _storageid\n    )\n        public\n    {\n        require(!saleExists[_saleid], \"Sale already exists.\");\n\n        saleExists[_saleid] = true;\n\n        sales[_saleid].Quantity = _quantity;\n        sales[_saleid].DispatchDocsAttached = false; // default false\n        sales[_saleid].DateTime = _datetime;\n\n        // traceability\n        SaleToStorage[_saleid] = _storageid;\n    }\n\n    function registerOrder(string memory _orderid, string memory _customer, uint16 _quantity, uint256 _datetime) \n        public \n    {\n        require(!orderExists[_orderid], \"Order already exists.\");\n        \n        orderExists[_orderid] = true;\n\n        orders[_orderid].Customer = _customer;\n        orders[_orderid].Quantity = _quantity;\n        orders[_orderid].OS = OrderStatus.ORDERED;\n        orders[_orderid].DateTime = _datetime;\n    }\n\n    function updateOrder(string memory _orderid, uint8 _ordertatus) public {\n        orders[_orderid].OS = OrderStatus(_ordertatus);\n    }\n\n// the getters\n    function queryProduction(string memory _productionid) \n        public \n        view \n        returns(\n            string memory,\n            string memory,\n            uint256,\n            uint256) \n    {\n        require(productionExists[_productionid], \"Production does not exist.\");\n        return(\n            productions[_productionid].BatchID,\n            productions[_productionid].FarmID,\n            productions[_productionid].Volume,\n            productions[_productionid].DateTime\n        );\n    }\n\n    function queryTesting(string memory _testingid)\n        public\n        view\n        returns(\n            uint16,\n            uint256\n        )\n    {\n        require(testingExists[_testingid], \"Testing does not exist.\");\n        return(\n            testings[_testingid].Temperature,\n            testings[_testingid].DateTime\n        );\n    }\n\n    function queryStorage(string memory _storageid)\n        public\n        view\n        returns(\n            string memory,\n            string memory,\n            uint256,\n            uint256\n        )\n    {\n        require(storageExists[_storageid],\"Storage does not exist.\");\n        return(\n            storages[_storageid].Manufacturer,\n            storages[_storageid].Location,\n            storages[_storageid].DateTime,\n            storages[_storageid].BestBefore\n        );\n    }\n\n    function querySale(string memory _saleid)\n        public\n        view\n        returns(\n            uint16,\n            bool,\n            uint256\n        )\n    {\n        require(saleExists[_saleid], \"Sale does not exist.\");\n        return(\n            sales[_saleid].Quantity,\n            sales[_saleid].DispatchDocsAttached,\n            sales[_saleid].DateTime\n        );\n    }\n\n    function queryOrder(string memory _orderid)\n        public\n        view\n        returns(\n            string memory,\n            uint256,\n            string memory,\n            uint256)\n    {\n        require(orderExists[_orderid], \"Order does not exist.\");\n\n        string memory orderstatus;\n        if (orders[_orderid].OS == OrderStatus.ORDERED) {\n            orderstatus = \"Ordered\";\n        } else if (orders[_orderid].OS == OrderStatus.PAYMENTRECEIVED) {\n            orderstatus = \"Paymentreceived\";\n        } else if (orders[_orderid].OS == OrderStatus.DISPATCHED) {\n            orderstatus = \"Dispatched\";\n        } else if (orders[_orderid].OS == OrderStatus.ARRIVED) {\n            orderstatus = \"Arrived\";\n        } else {\n            orderstatus = \"Unknown\";\n        }\n\n        return(\n            orders[_orderid].Customer,\n            orders[_orderid].Quantity,\n            orderstatus,\n            orders[_orderid].DateTime\n        );\n    }\n\n    // use an orderid to trace back to source\n    function queryOrderSource(string memory _orderid) public view returns (string memory) {\n        string memory saleid = OrderToSale[_orderid];\n        string memory storageid = TestingToProduction[saleid];\n        string memory testingid = StorageToTesting[storageid];\n        string memory productionid = SaleToStorage[testingid];\n        return productionid;\n    }\n}",
  "sourcePath": "/home/yih/Documents/dev/beston-dapps/contracts/carbon/SeafeedTracking.sol",
  "compiler": {
    "name": "solc",
    "version": "0.8.7+commit.e28d00a7.Emscripten.clang"
  },
  "schemaVersion": "3.4.1",
  "updatedAt": "2023-05-31T05:58:10.116Z",
  "devdoc": {
    "kind": "dev",
    "methods": {},
    "version": 1
  },
  "userdoc": {
    "kind": "user",
    "methods": {},
    "version": 1
  }
}