{
  "contractName": "SeafeedRegistry",
  "abi": [
    {
      "inputs": [
        {
          "internalType": "string",
          "name": "",
          "type": "string"
        }
      ],
      "name": "OrderToSale",
      "outputs": [
        {
          "internalType": "string",
          "name": "",
          "type": "string"
        }
      ],
      "stateMutability": "view",
      "type": "function"
    },
    {
      "inputs": [
        {
          "internalType": "string",
          "name": "",
          "type": "string"
        }
      ],
      "name": "SaleToStorage",
      "outputs": [
        {
          "internalType": "string",
          "name": "",
          "type": "string"
        }
      ],
      "stateMutability": "view",
      "type": "function"
    },
    {
      "inputs": [
        {
          "internalType": "string",
          "name": "",
          "type": "string"
        }
      ],
      "name": "StorageToTesting",
      "outputs": [
        {
          "internalType": "string",
          "name": "",
          "type": "string"
        }
      ],
      "stateMutability": "view",
      "type": "function"
    },
    {
      "inputs": [
        {
          "internalType": "string",
          "name": "",
          "type": "string"
        }
      ],
      "name": "TestingToProduction",
      "outputs": [
        {
          "internalType": "string",
          "name": "",
          "type": "string"
        }
      ],
      "stateMutability": "view",
      "type": "function"
    },
    {
      "inputs": [
        {
          "internalType": "uint256",
          "name": "",
          "type": "uint256"
        }
      ],
      "name": "allorders",
      "outputs": [
        {
          "internalType": "string",
          "name": "",
          "type": "string"
        }
      ],
      "stateMutability": "view",
      "type": "function"
    },
    {
      "inputs": [
        {
          "internalType": "string",
          "name": "",
          "type": "string"
        }
      ],
      "name": "orderExists",
      "outputs": [
        {
          "internalType": "bool",
          "name": "",
          "type": "bool"
        }
      ],
      "stateMutability": "view",
      "type": "function"
    },
    {
      "inputs": [
        {
          "internalType": "string",
          "name": "",
          "type": "string"
        }
      ],
      "name": "orders",
      "outputs": [
        {
          "internalType": "string",
          "name": "Customer",
          "type": "string"
        },
        {
          "internalType": "uint16",
          "name": "Quantity",
          "type": "uint16"
        },
        {
          "internalType": "enum SeafeedRegistry.OrderStatus",
          "name": "OS",
          "type": "uint8"
        },
        {
          "internalType": "uint256",
          "name": "DateTime",
          "type": "uint256"
        }
      ],
      "stateMutability": "view",
      "type": "function"
    },
    {
      "inputs": [
        {
          "internalType": "string",
          "name": "",
          "type": "string"
        }
      ],
      "name": "productionExists",
      "outputs": [
        {
          "internalType": "bool",
          "name": "",
          "type": "bool"
        }
      ],
      "stateMutability": "view",
      "type": "function"
    },
    {
      "inputs": [
        {
          "internalType": "string",
          "name": "",
          "type": "string"
        }
      ],
      "name": "productions",
      "outputs": [
        {
          "internalType": "string",
          "name": "BatchID",
          "type": "string"
        },
        {
          "internalType": "string",
          "name": "FarmID",
          "type": "string"
        },
        {
          "internalType": "uint256",
          "name": "Volume",
          "type": "uint256"
        },
        {
          "internalType": "uint256",
          "name": "DateTime",
          "type": "uint256"
        }
      ],
      "stateMutability": "view",
      "type": "function"
    },
    {
      "inputs": [
        {
          "internalType": "string",
          "name": "",
          "type": "string"
        }
      ],
      "name": "saleExists",
      "outputs": [
        {
          "internalType": "bool",
          "name": "",
          "type": "bool"
        }
      ],
      "stateMutability": "view",
      "type": "function"
    },
    {
      "inputs": [
        {
          "internalType": "string",
          "name": "",
          "type": "string"
        }
      ],
      "name": "sales",
      "outputs": [
        {
          "internalType": "uint16",
          "name": "Quantity",
          "type": "uint16"
        },
        {
          "internalType": "bool",
          "name": "DispatchDocsAttached",
          "type": "bool"
        },
        {
          "internalType": "uint256",
          "name": "DateTime",
          "type": "uint256"
        }
      ],
      "stateMutability": "view",
      "type": "function"
    },
    {
      "inputs": [
        {
          "internalType": "string",
          "name": "",
          "type": "string"
        }
      ],
      "name": "storageExists",
      "outputs": [
        {
          "internalType": "bool",
          "name": "",
          "type": "bool"
        }
      ],
      "stateMutability": "view",
      "type": "function"
    },
    {
      "inputs": [
        {
          "internalType": "string",
          "name": "",
          "type": "string"
        }
      ],
      "name": "storages",
      "outputs": [
        {
          "internalType": "string",
          "name": "Manufacturer",
          "type": "string"
        },
        {
          "internalType": "string",
          "name": "Location",
          "type": "string"
        },
        {
          "internalType": "uint256",
          "name": "DateTime",
          "type": "uint256"
        },
        {
          "internalType": "uint256",
          "name": "BestBefore",
          "type": "uint256"
        }
      ],
      "stateMutability": "view",
      "type": "function"
    },
    {
      "inputs": [
        {
          "internalType": "string",
          "name": "",
          "type": "string"
        }
      ],
      "name": "testingExists",
      "outputs": [
        {
          "internalType": "bool",
          "name": "",
          "type": "bool"
        }
      ],
      "stateMutability": "view",
      "type": "function"
    },
    {
      "inputs": [
        {
          "internalType": "string",
          "name": "",
          "type": "string"
        }
      ],
      "name": "testings",
      "outputs": [
        {
          "internalType": "uint16",
          "name": "Temperature",
          "type": "uint16"
        },
        {
          "internalType": "uint256",
          "name": "DateTime",
          "type": "uint256"
        }
      ],
      "stateMutability": "view",
      "type": "function"
    },
    {
      "inputs": [
        {
          "internalType": "string",
          "name": "_productionid",
          "type": "string"
        },
        {
          "internalType": "string",
          "name": "_batchid",
          "type": "string"
        },
        {
          "internalType": "string",
          "name": "_farmid",
          "type": "string"
        },
        {
          "internalType": "uint256",
          "name": "_volume",
          "type": "uint256"
        },
        {
          "internalType": "uint256",
          "name": "_datetime",
          "type": "uint256"
        }
      ],
      "name": "logProduction",
      "outputs": [],
      "stateMutability": "nonpayable",
      "type": "function"
    },
    {
      "inputs": [
        {
          "internalType": "string",
          "name": "_testingid",
          "type": "string"
        },
        {
          "internalType": "uint16",
          "name": "_temperature",
          "type": "uint16"
        },
        {
          "internalType": "uint256",
          "name": "_datetime",
          "type": "uint256"
        },
        {
          "internalType": "string",
          "name": "_productionid",
          "type": "string"
        }
      ],
      "name": "logTesting",
      "outputs": [],
      "stateMutability": "nonpayable",
      "type": "function"
    },
    {
      "inputs": [
        {
          "internalType": "string",
          "name": "_storageid",
          "type": "string"
        },
        {
          "internalType": "string",
          "name": "_manufacturer",
          "type": "string"
        },
        {
          "internalType": "string",
          "name": "_location",
          "type": "string"
        },
        {
          "internalType": "uint256",
          "name": "_datetime",
          "type": "uint256"
        },
        {
          "internalType": "uint256",
          "name": "_bestbefore",
          "type": "uint256"
        },
        {
          "internalType": "string",
          "name": "_testingid",
          "type": "string"
        }
      ],
      "name": "logStorage",
      "outputs": [],
      "stateMutability": "nonpayable",
      "type": "function"
    },
    {
      "inputs": [
        {
          "internalType": "string",
          "name": "_saleid",
          "type": "string"
        },
        {
          "internalType": "uint16",
          "name": "_quantity",
          "type": "uint16"
        },
        {
          "internalType": "uint256",
          "name": "_datetime",
          "type": "uint256"
        },
        {
          "internalType": "string",
          "name": "_storageid",
          "type": "string"
        }
      ],
      "name": "logSale",
      "outputs": [],
      "stateMutability": "nonpayable",
      "type": "function"
    },
    {
      "inputs": [
        {
          "internalType": "string",
          "name": "_orderid",
          "type": "string"
        },
        {
          "internalType": "string",
          "name": "_customer",
          "type": "string"
        },
        {
          "internalType": "uint16",
          "name": "_quantity",
          "type": "uint16"
        },
        {
          "internalType": "uint256",
          "name": "_datetime",
          "type": "uint256"
        },
        {
          "internalType": "string",
          "name": "_saleid",
          "type": "string"
        }
      ],
      "name": "logOrder",
      "outputs": [],
      "stateMutability": "nonpayable",
      "type": "function"
    },
    {
      "inputs": [
        {
          "internalType": "string",
          "name": "_orderid",
          "type": "string"
        },
        {
          "internalType": "uint8",
          "name": "_ordertatus",
          "type": "uint8"
        }
      ],
      "name": "updateOrder",
      "outputs": [],
      "stateMutability": "nonpayable",
      "type": "function"
    },
    {
      "inputs": [
        {
          "internalType": "string",
          "name": "_productionid",
          "type": "string"
        }
      ],
      "name": "queryProduction",
      "outputs": [
        {
          "internalType": "string",
          "name": "",
          "type": "string"
        },
        {
          "internalType": "string",
          "name": "",
          "type": "string"
        },
        {
          "internalType": "uint256",
          "name": "",
          "type": "uint256"
        },
        {
          "internalType": "uint256",
          "name": "",
          "type": "uint256"
        }
      ],
      "stateMutability": "view",
      "type": "function"
    },
    {
      "inputs": [
        {
          "internalType": "string",
          "name": "_testingid",
          "type": "string"
        }
      ],
      "name": "queryTesting",
      "outputs": [
        {
          "internalType": "uint16",
          "name": "",
          "type": "uint16"
        },
        {
          "internalType": "uint256",
          "name": "",
          "type": "uint256"
        }
      ],
      "stateMutability": "view",
      "type": "function"
    },
    {
      "inputs": [
        {
          "internalType": "string",
          "name": "_storageid",
          "type": "string"
        }
      ],
      "name": "queryStorage",
      "outputs": [
        {
          "internalType": "string",
          "name": "",
          "type": "string"
        },
        {
          "internalType": "string",
          "name": "",
          "type": "string"
        },
        {
          "internalType": "uint256",
          "name": "",
          "type": "uint256"
        },
        {
          "internalType": "uint256",
          "name": "",
          "type": "uint256"
        }
      ],
      "stateMutability": "view",
      "type": "function"
    },
    {
      "inputs": [
        {
          "internalType": "string",
          "name": "_saleid",
          "type": "string"
        }
      ],
      "name": "querySale",
      "outputs": [
        {
          "internalType": "uint16",
          "name": "",
          "type": "uint16"
        },
        {
          "internalType": "bool",
          "name": "",
          "type": "bool"
        },
        {
          "internalType": "uint256",
          "name": "",
          "type": "uint256"
        }
      ],
      "stateMutability": "view",
      "type": "function"
    },
    {
      "inputs": [
        {
          "internalType": "string",
          "name": "_orderid",
          "type": "string"
        }
      ],
      "name": "queryOrder",
      "outputs": [
        {
          "internalType": "string",
          "name": "",
          "type": "string"
        },
        {
          "internalType": "uint256",
          "name": "",
          "type": "uint256"
        },
        {
          "internalType": "string",
          "name": "",
          "type": "string"
        },
        {
          "internalType": "uint256",
          "name": "",
          "type": "uint256"
        }
      ],
      "stateMutability": "view",
      "type": "function"
    },
    {
      "inputs": [],
      "name": "queryAllOrders",
      "outputs": [
        {
          "internalType": "string[]",
          "name": "",
          "type": "string[]"
        },
        {
          "internalType": "string[]",
          "name": "",
          "type": "string[]"
        },
        {
          "internalType": "uint256[]",
          "name": "",
          "type": "uint256[]"
        },
        {
          "internalType": "string[]",
          "name": "",
          "type": "string[]"
        },
        {
          "internalType": "uint256[]",
          "name": "",
          "type": "uint256[]"
        }
      ],
      "stateMutability": "view",
      "type": "function"
    },
    {
      "inputs": [
        {
          "internalType": "string",
          "name": "_orderid",
          "type": "string"
        }
      ],
      "name": "queryOrderSource",
      "outputs": [
        {
          "internalType": "string",
          "name": "",
          "type": "string"
        }
      ],
      "stateMutability": "view",
      "type": "function"
    }
  ],
  "bytecode": "0x608060405234801561001057600080fd5b50613ea7806100206000396000f3fe608060405234801561001057600080fd5b50600436106101c45760003560e01c806393c1f7c5116100f9578063bf3de2a411610097578063ed3d3f6d11610071578063ed3d3f6d146105ea578063ee916ce31461061a578063f71b59e61461064d578063fbb37cf214610669576101c4565b8063bf3de2a41461056d578063c5ed48f01461059e578063db5607de146105ba576101c4565b8063aad7c3a4116100d3578063aad7c3a4146104ce578063b3278826146104f0578063b60cb15414610521578063be8a14e41461053d576101c4565b806393c1f7c51461043e5780639d15b2d31461046e578063a959d5851461049e576101c4565b80635bde92481161016657806385f71c2d1161014057806385f71c2d146103795780638886244e146103a957806392d18c04146103d9578063936ee97d1461040c576101c4565b80635bde92481461030e5780637bacb8cc1461032a5780637bc20c711461035d576101c4565b80631a948947116101a25780631a9489471461025c578063206614d51461028f5780634b8133c6146102bf5780634c6614c9146102f2576101c4565b806306627845146101c95780631475793e146101fc5780631876bd381461022c575b600080fd5b6101e360048036038101906101de9190612dcc565b61069b565b6040516101f39493929190613683565b60405180910390f35b610216600480360381019061021191906131ab565b6107f1565b6040516102239190613661565b60405180910390f35b61024660048036038101906102419190612dcc565b61089d565b6040516102539190613661565b60405180910390f35b61027660048036038101906102719190612dcc565b610953565b60405161028694939291906136d6565b60405180910390f35b6102a960048036038101906102a49190612dcc565b610a3c565b6040516102b69190613646565b60405180910390f35b6102d960048036038101906102d49190612dcc565b610a72565b6040516102e99493929190613683565b60405180910390f35b61030c60048036038101906103079190612e15565b610c90565b005b6103286004803603810190610323919061314f565b610dca565b005b610344600480360381019061033f9190612dcc565b610e97565b6040516103549493929190613683565b60405180910390f35b61037760048036038101906103729190612ee4565b6110b5565b005b610393600480360381019061038e9190612dcc565b611223565b6040516103a09190613661565b60405180910390f35b6103c360048036038101906103be9190612dcc565b611548565b6040516103d09190613646565b60405180910390f35b6103f360048036038101906103ee9190612dcc565b61157e565b6040516104039493929190613722565b60405180910390f35b61042660048036038101906104219190612dcc565b6119a5565b604051610435939291906138b5565b60405180910390f35b61045860048036038101906104539190612dcc565b611aa3565b6040516104659190613661565b60405180910390f35b61048860048036038101906104839190612dcc565b611b59565b6040516104959190613646565b60405180910390f35b6104b860048036038101906104b39190612dcc565b611b8f565b6040516104c59190613646565b60405180910390f35b6104d6611bc5565b6040516104e79594939291906135d0565b60405180910390f35b61050a60048036038101906105059190612dcc565b61237b565b6040516105189291906138ec565b60405180910390f35b61053b600480360381019061053691906130b0565b612444565b005b61055760048036038101906105529190612dcc565b612587565b6040516105649190613661565b60405180910390f35b61058760048036038101906105829190612dcc565b61263d565b6040516105959291906138ec565b60405180910390f35b6105b860048036038101906105b391906130b0565b612685565b005b6105d460048036038101906105cf9190612dcc565b6127f1565b6040516105e19190613661565b60405180910390f35b61060460048036038101906105ff9190612dcc565b6128a7565b6040516106119190613646565b60405180910390f35b610634600480360381019061062f9190612dcc565b6128dd565b6040516106449493929190613683565b60405180910390f35b61066760048036038101906106629190612fe1565b612a33565b005b610683600480360381019061067e9190612dcc565b612c1f565b604051610692939291906138b5565b60405180910390f35b6001818051602081018201805184825260208301602085012081835280955050505050506000915090508060000180546106d490613ac2565b80601f016020809104026020016040519081016040528092919081815260200182805461070090613ac2565b801561074d5780601f106107225761010080835404028352916020019161074d565b820191906000526020600020905b81548152906001019060200180831161073057829003601f168201915b50505050509080600101805461076290613ac2565b80601f016020809104026020016040519081016040528092919081815260200182805461078e90613ac2565b80156107db5780601f106107b0576101008083540402835291602001916107db565b820191906000526020600020905b8154815290600101906020018083116107be57829003601f168201915b5050505050908060020154908060030154905084565b6000818154811061080157600080fd5b90600052602060002001600091509050805461081c90613ac2565b80601f016020809104026020016040519081016040528092919081815260200182805461084890613ac2565b80156108955780601f1061086a57610100808354040283529160200191610895565b820191906000526020600020905b81548152906001019060200180831161087857829003601f168201915b505050505081565b600e8180516020810182018051848252602083016020850120818352809550505050505060009150905080546108d290613ac2565b80601f01602080910402602001604051908101604052809291908181526020018280546108fe90613ac2565b801561094b5780601f106109205761010080835404028352916020019161094b565b820191906000526020600020905b81548152906001019060200180831161092e57829003601f168201915b505050505081565b60058180516020810182018051848252602083016020850120818352809550505050505060009150905080600001805461098c90613ac2565b80601f01602080910402602001604051908101604052809291908181526020018280546109b890613ac2565b8015610a055780601f106109da57610100808354040283529160200191610a05565b820191906000526020600020905b8154815290600101906020018083116109e857829003601f168201915b5050505050908060010160009054906101000a900461ffff16908060010160029054906101000a900460ff16908060020154905084565b6008818051602081018201805184825260208301602085012081835280955050505050506000915054906101000a900460ff1681565b606080600080600885604051610a8891906135a2565b908152602001604051809103902060009054906101000a900460ff16610ae3576040517f08c379a0000000000000000000000000000000000000000000000000000000008152600401610ada906137f5565b60405180910390fd5b600385604051610af391906135a2565b9081526020016040518091039020600001600386604051610b1491906135a2565b9081526020016040518091039020600101600387604051610b3591906135a2565b908152602001604051809103902060020154600388604051610b5791906135a2565b908152602001604051809103902060030154838054610b7590613ac2565b80601f0160208091040260200160405190810160405280929190818152602001828054610ba190613ac2565b8015610bee5780601f10610bc357610100808354040283529160200191610bee565b820191906000526020600020905b815481529060010190602001808311610bd157829003601f168201915b50505050509350828054610c0190613ac2565b80601f0160208091040260200160405190810160405280929190818152602001828054610c2d90613ac2565b8015610c7a5780601f10610c4f57610100808354040283529160200191610c7a565b820191906000526020600020905b815481529060010190602001808311610c5d57829003601f168201915b5050505050925093509350935093509193509193565b600685604051610ca091906135a2565b908152602001604051809103902060009054906101000a900460ff1615610cfc576040517f08c379a0000000000000000000000000000000000000000000000000000000008152600401610cf390613775565b60405180910390fd5b6001600686604051610d0e91906135a2565b908152602001604051809103902060006101000a81548160ff021916908315150217905550604051806080016040528085815260200184815260200183815260200182815250600186604051610d6491906135a2565b90815260200160405180910390206000820151816000019080519060200190610d8e929190612c7a565b506020820151816001019080519060200190610dab929190612c7a565b5060408201518160020155606082015181600301559050505050505050565b600a82604051610dda91906135a2565b908152602001604051809103902060009054906101000a900460ff16610e35576040517f08c379a0000000000000000000000000000000000000000000000000000000008152600401610e2c90613895565b60405180910390fd5b8060ff166003811115610e4b57610e4a613b9d565b5b600583604051610e5b91906135a2565b908152602001604051809103902060010160026101000a81548160ff02191690836003811115610e8e57610e8d613b9d565b5b02179055505050565b606080600080600685604051610ead91906135a2565b908152602001604051809103902060009054906101000a900460ff16610f08576040517f08c379a0000000000000000000000000000000000000000000000000000000008152600401610eff90613875565b60405180910390fd5b600185604051610f1891906135a2565b9081526020016040518091039020600001600186604051610f3991906135a2565b9081526020016040518091039020600101600187604051610f5a91906135a2565b908152602001604051809103902060020154600188604051610f7c91906135a2565b908152602001604051809103902060030154838054610f9a90613ac2565b80601f0160208091040260200160405190810160405280929190818152602001828054610fc690613ac2565b80156110135780601f10610fe857610100808354040283529160200191611013565b820191906000526020600020905b815481529060010190602001808311610ff657829003601f168201915b5050505050935082805461102690613ac2565b80601f016020809104026020016040519081016040528092919081815260200182805461105290613ac2565b801561109f5780601f106110745761010080835404028352916020019161109f565b820191906000526020600020905b81548152906001019060200180831161108257829003601f168201915b5050505050925093509350935093509193509193565b6008866040516110c591906135a2565b908152602001604051809103902060009054906101000a900460ff1615611121576040517f08c379a0000000000000000000000000000000000000000000000000000000008152600401611118906137b5565b60405180910390fd5b600160088760405161113391906135a2565b908152602001604051809103902060006101000a81548160ff02191690831515021790555060405180608001604052808681526020018581526020018481526020018381525060038760405161118991906135a2565b908152602001604051809103902060008201518160000190805190602001906111b3929190612c7a565b5060208201518160010190805190602001906111d0929190612c7a565b50604082015181600201556060820151816003015590505080600c876040516111f991906135a2565b9081526020016040518091039020908051906020019061121a929190612c7a565b50505050505050565b6060600a8260405161123591906135a2565b908152602001604051809103902060009054906101000a900460ff16611290576040517f08c379a000000000000000000000000000000000000000000000000000000000815260040161128790613895565b60405180910390fd5b6000600e836040516112a291906135a2565b908152602001604051809103902080546112bb90613ac2565b80601f01602080910402602001604051908101604052809291908181526020018280546112e790613ac2565b80156113345780601f1061130957610100808354040283529160200191611334565b820191906000526020600020905b81548152906001019060200180831161131757829003601f168201915b505050505090506000600b8260405161134d91906135a2565b9081526020016040518091039020805461136690613ac2565b80601f016020809104026020016040519081016040528092919081815260200182805461139290613ac2565b80156113df5780601f106113b4576101008083540402835291602001916113df565b820191906000526020600020905b8154815290600101906020018083116113c257829003601f168201915b505050505090506000600c826040516113f891906135a2565b9081526020016040518091039020805461141190613ac2565b80601f016020809104026020016040519081016040528092919081815260200182805461143d90613ac2565b801561148a5780601f1061145f5761010080835404028352916020019161148a565b820191906000526020600020905b81548152906001019060200180831161146d57829003601f168201915b505050505090506000600d826040516114a391906135a2565b908152602001604051809103902080546114bc90613ac2565b80601f01602080910402602001604051908101604052809291908181526020018280546114e890613ac2565b80156115355780601f1061150a57610100808354040283529160200191611535565b820191906000526020600020905b81548152906001019060200180831161151857829003601f168201915b5050505050905080945050505050919050565b6006818051602081018201805184825260208301602085012081835280955050505050506000915054906101000a900460ff1681565b6060600060606000600a8560405161159691906135a2565b908152602001604051809103902060009054906101000a900460ff166115f1576040517f08c379a00000000000000000000000000000000000000000000000000000000081526004016115e890613895565b60405180910390fd5b60606000600381111561160757611606613b9d565b5b60058760405161161791906135a2565b908152602001604051809103902060010160029054906101000a900460ff16600381111561164857611647613b9d565b5b141561168b576040518060400160405280600781526020017f4f72646572656400000000000000000000000000000000000000000000000000815250905061188e565b6001600381111561169f5761169e613b9d565b5b6005876040516116af91906135a2565b908152602001604051809103902060010160029054906101000a900460ff1660038111156116e0576116df613b9d565b5b1415611723576040518060400160405280600f81526020017f5061796d656e7472656365697665640000000000000000000000000000000000815250905061188d565b6002600381111561173757611736613b9d565b5b60058760405161174791906135a2565b908152602001604051809103902060010160029054906101000a900460ff16600381111561177857611777613b9d565b5b14156117bb576040518060400160405280600a81526020017f4469737061746368656400000000000000000000000000000000000000000000815250905061188c565b6003808111156117ce576117cd613b9d565b5b6005876040516117de91906135a2565b908152602001604051809103902060010160029054906101000a900460ff16600381111561180f5761180e613b9d565b5b1415611852576040518060400160405280600781526020017f4172726976656400000000000000000000000000000000000000000000000000815250905061188b565b6040518060400160405280600781526020017f556e6b6e6f776e0000000000000000000000000000000000000000000000000081525090505b5b5b5b60058660405161189e91906135a2565b90815260200160405180910390206000016005876040516118bf91906135a2565b908152602001604051809103902060010160009054906101000a900461ffff16826005896040516118f091906135a2565b90815260200160405180910390206002015483805461190e90613ac2565b80601f016020809104026020016040519081016040528092919081815260200182805461193a90613ac2565b80156119875780601f1061195c57610100808354040283529160200191611987565b820191906000526020600020905b81548152906001019060200180831161196a57829003601f168201915b505050505093508261ffff1692509450945094509450509193509193565b60008060006009846040516119ba91906135a2565b908152602001604051809103902060009054906101000a900460ff16611a15576040517f08c379a0000000000000000000000000000000000000000000000000000000008152600401611a0c90613835565b60405180910390fd5b600484604051611a2591906135a2565b908152602001604051809103902060000160009054906101000a900461ffff16600485604051611a5591906135a2565b908152602001604051809103902060000160029054906101000a900460ff16600486604051611a8491906135a2565b9081526020016040518091039020600101549250925092509193909250565b600c818051602081018201805184825260208301602085012081835280955050505050506000915090508054611ad890613ac2565b80601f0160208091040260200160405190810160405280929190818152602001828054611b0490613ac2565b8015611b515780601f10611b2657610100808354040283529160200191611b51565b820191906000526020600020905b815481529060010190602001808311611b3457829003601f168201915b505050505081565b6009818051602081018201805184825260208301602085012081835280955050505050506000915054906101000a900460ff1681565b600a818051602081018201805184825260208301602085012081835280955050505050506000915054906101000a900460ff1681565b60608060608060606000808054905067ffffffffffffffff811115611bed57611bec613c2a565b5b604051908082528060200260200182016040528015611c2057816020015b6060815260200190600190039081611c0b5790505b5090506000808054905067ffffffffffffffff811115611c4357611c42613c2a565b5b604051908082528060200260200182016040528015611c715781602001602082028036833780820191505090505b5090506000808054905067ffffffffffffffff811115611c9457611c93613c2a565b5b604051908082528060200260200182016040528015611cc757816020015b6060815260200190600190039081611cb25790505b5090506000808054905067ffffffffffffffff811115611cea57611ce9613c2a565b5b604051908082528060200260200182016040528015611d185781602001602082028036833780820191505090505b50905060005b60008054905081101561228c5760006003811115611d3f57611d3e613b9d565b5b600560008381548110611d5557611d54613bfb565b5b90600052602060002001604051611d6c91906135b9565b908152602001604051809103902060010160029054906101000a900460ff166003811115611d9d57611d9c613b9d565b5b1415611dfc576040518060400160405280600781526020017f4f72646572656400000000000000000000000000000000000000000000000000815250838281518110611dec57611deb613bfb565b5b60200260200101819052506120c6565b60016003811115611e1057611e0f613b9d565b5b600560008381548110611e2657611e25613bfb565b5b90600052602060002001604051611e3d91906135b9565b908152602001604051809103902060010160029054906101000a900460ff166003811115611e6e57611e6d613b9d565b5b1415611ecd576040518060400160405280600f81526020017f5061796d656e7472656365697665640000000000000000000000000000000000815250838281518110611ebd57611ebc613bfb565b5b60200260200101819052506120c5565b60026003811115611ee157611ee0613b9d565b5b600560008381548110611ef757611ef6613bfb565b5b90600052602060002001604051611f0e91906135b9565b908152602001604051809103902060010160029054906101000a900460ff166003811115611f3f57611f3e613b9d565b5b1415611f9e576040518060400160405280600a81526020017f4469737061746368656400000000000000000000000000000000000000000000815250838281518110611f8e57611f8d613bfb565b5b60200260200101819052506120c4565b600380811115611fb157611fb0613b9d565b5b600560008381548110611fc757611fc6613bfb565b5b90600052602060002001604051611fde91906135b9565b908152602001604051809103902060010160029054906101000a900460ff16600381111561200f5761200e613b9d565b5b141561206e576040518060400160405280600781526020017f417272697665640000000000000000000000000000000000000000000000000081525083828151811061205e5761205d613bfb565b5b60200260200101819052506120c3565b6040518060400160405280600781526020017f556e6b6e6f776e000000000000000000000000000000000000000000000000008152508382815181106120b7576120b6613bfb565b5b60200260200101819052505b5b5b5b6005600082815481106120dc576120db613bfb565b5b906000526020600020016040516120f391906135b9565b9081526020016040518091039020600001805461210f90613ac2565b80601f016020809104026020016040519081016040528092919081815260200182805461213b90613ac2565b80156121885780601f1061215d57610100808354040283529160200191612188565b820191906000526020600020905b81548152906001019060200180831161216b57829003601f168201915b50505050508582815181106121a05761219f613bfb565b5b60200260200101819052506005600082815481106121c1576121c0613bfb565b5b906000526020600020016040516121d891906135b9565b908152602001604051809103902060010160009054906101000a900461ffff1661ffff1684828151811061220f5761220e613bfb565b5b60200260200101818152505060056000828154811061223157612230613bfb565b5b9060005260206000200160405161224891906135b9565b90815260200160405180910390206002015482828151811061226d5761226c613bfb565b5b602002602001018181525050808061228490613b25565b915050611d1e565b5060008484848484805480602002602001604051908101604052809291908181526020016000905b828210156123605783829060005260206000200180546122d390613ac2565b80601f01602080910402602001604051908101604052809291908181526020018280546122ff90613ac2565b801561234c5780601f106123215761010080835404028352916020019161234c565b820191906000526020600020905b81548152906001019060200180831161232f57829003601f168201915b5050505050815260200190600101906122b4565b50505050945098509850985098509850505050509091929394565b60008060078360405161238e91906135a2565b908152602001604051809103902060009054906101000a900460ff166123e9576040517f08c379a00000000000000000000000000000000000000000000000000000000081526004016123e0906137d5565b60405180910390fd5b6002836040516123f991906135a2565b908152602001604051809103902060000160009054906101000a900461ffff1660028460405161242991906135a2565b90815260200160405180910390206001015491509150915091565b60078460405161245491906135a2565b908152602001604051809103902060009054906101000a900460ff16156124b0576040517f08c379a00000000000000000000000000000000000000000000000000000000081526004016124a790613795565b60405180910390fd5b60016007856040516124c291906135a2565b908152602001604051809103902060006101000a81548160ff02191690831515021790555060405180604001604052808461ffff1681526020018381525060028560405161251091906135a2565b908152602001604051809103902060008201518160000160006101000a81548161ffff021916908361ffff1602179055506020820151816001015590505080600b8560405161255f91906135a2565b90815260200160405180910390209080519060200190612580929190612c7a565b5050505050565b600d8180516020810182018051848252602083016020850120818352809550505050505060009150905080546125bc90613ac2565b80601f01602080910402602001604051908101604052809291908181526020018280546125e890613ac2565b80156126355780601f1061260a57610100808354040283529160200191612635565b820191906000526020600020905b81548152906001019060200180831161261857829003601f168201915b505050505081565b6002818051602081018201805184825260208301602085012081835280955050505050506000915090508060000160009054906101000a900461ffff16908060010154905082565b60098460405161269591906135a2565b908152602001604051809103902060009054906101000a900460ff16156126f1576040517f08c379a00000000000000000000000000000000000000000000000000000000081526004016126e890613855565b60405180910390fd5b600160098560405161270391906135a2565b908152602001604051809103902060006101000a81548160ff02191690831515021790555060405180606001604052808461ffff1681526020016000151581526020018381525060048560405161275a91906135a2565b908152602001604051809103902060008201518160000160006101000a81548161ffff021916908361ffff16021790555060208201518160000160026101000a81548160ff0219169083151502179055506040820151816001015590505080600d856040516127c991906135a2565b908152602001604051809103902090805190602001906127ea929190612c7a565b5050505050565b600b81805160208101820180518482526020830160208501208183528095505050505050600091509050805461282690613ac2565b80601f016020809104026020016040519081016040528092919081815260200182805461285290613ac2565b801561289f5780601f106128745761010080835404028352916020019161289f565b820191906000526020600020905b81548152906001019060200180831161288257829003601f168201915b505050505081565b6007818051602081018201805184825260208301602085012081835280955050505050506000915054906101000a900460ff1681565b60038180516020810182018051848252602083016020850120818352809550505050505060009150905080600001805461291690613ac2565b80601f016020809104026020016040519081016040528092919081815260200182805461294290613ac2565b801561298f5780601f106129645761010080835404028352916020019161298f565b820191906000526020600020905b81548152906001019060200180831161297257829003601f168201915b5050505050908060010180546129a490613ac2565b80601f01602080910402602001604051908101604052809291908181526020018280546129d090613ac2565b8015612a1d5780601f106129f257610100808354040283529160200191612a1d565b820191906000526020600020905b815481529060010190602001808311612a0057829003601f168201915b5050505050908060020154908060030154905084565b600a85604051612a4391906135a2565b908152602001604051809103902060009054906101000a900460ff1615612a9f576040517f08c379a0000000000000000000000000000000000000000000000000000000008152600401612a9690613815565b60405180910390fd5b6001600a86604051612ab191906135a2565b908152602001604051809103902060006101000a81548160ff02191690831515021790555060405180608001604052808581526020018461ffff16815260200160006003811115612b0557612b04613b9d565b5b815260200183815250600586604051612b1e91906135a2565b90815260200160405180910390206000820151816000019080519060200190612b48929190612c7a565b5060208201518160010160006101000a81548161ffff021916908361ffff16021790555060408201518160010160026101000a81548160ff02191690836003811115612b9757612b96613b9d565b5b02179055506060820151816002015590505080600e86604051612bba91906135a2565b90815260200160405180910390209080519060200190612bdb929190612c7a565b50600085908060018154018082558091505060019003906000526020600020016000909190919091509080519060200190612c17929190612c7a565b505050505050565b6004818051602081018201805184825260208301602085012081835280955050505050506000915090508060000160009054906101000a900461ffff16908060000160029054906101000a900460ff16908060010154905083565b828054612c8690613ac2565b90600052602060002090601f016020900481019282612ca85760008555612cef565b82601f10612cc157805160ff1916838001178555612cef565b82800160010185558215612cef579182015b82811115612cee578251825591602001919060010190612cd3565b5b509050612cfc9190612d00565b5090565b5b80821115612d19576000816000905550600101612d01565b5090565b6000612d30612d2b8461393a565b613915565b905082815260208101848484011115612d4c57612d4b613c5e565b5b612d57848285613a80565b509392505050565b600082601f830112612d7457612d73613c59565b5b8135612d84848260208601612d1d565b91505092915050565b600081359050612d9c81613e2c565b92915050565b600081359050612db181613e43565b92915050565b600081359050612dc681613e5a565b92915050565b600060208284031215612de257612de1613c68565b5b600082013567ffffffffffffffff811115612e0057612dff613c63565b5b612e0c84828501612d5f565b91505092915050565b600080600080600060a08688031215612e3157612e30613c68565b5b600086013567ffffffffffffffff811115612e4f57612e4e613c63565b5b612e5b88828901612d5f565b955050602086013567ffffffffffffffff811115612e7c57612e7b613c63565b5b612e8888828901612d5f565b945050604086013567ffffffffffffffff811115612ea957612ea8613c63565b5b612eb588828901612d5f565b9350506060612ec688828901612da2565b9250506080612ed788828901612da2565b9150509295509295909350565b60008060008060008060c08789031215612f0157612f00613c68565b5b600087013567ffffffffffffffff811115612f1f57612f1e613c63565b5b612f2b89828a01612d5f565b965050602087013567ffffffffffffffff811115612f4c57612f4b613c63565b5b612f5889828a01612d5f565b955050604087013567ffffffffffffffff811115612f7957612f78613c63565b5b612f8589828a01612d5f565b9450506060612f9689828a01612da2565b9350506080612fa789828a01612da2565b92505060a087013567ffffffffffffffff811115612fc857612fc7613c63565b5b612fd489828a01612d5f565b9150509295509295509295565b600080600080600060a08688031215612ffd57612ffc613c68565b5b600086013567ffffffffffffffff81111561301b5761301a613c63565b5b61302788828901612d5f565b955050602086013567ffffffffffffffff81111561304857613047613c63565b5b61305488828901612d5f565b945050604061306588828901612d8d565b935050606061307688828901612da2565b925050608086013567ffffffffffffffff81111561309757613096613c63565b5b6130a388828901612d5f565b9150509295509295909350565b600080600080608085870312156130ca576130c9613c68565b5b600085013567ffffffffffffffff8111156130e8576130e7613c63565b5b6130f487828801612d5f565b945050602061310587828801612d8d565b935050604061311687828801612da2565b925050606085013567ffffffffffffffff81111561313757613136613c63565b5b61314387828801612d5f565b91505092959194509250565b6000806040838503121561316657613165613c68565b5b600083013567ffffffffffffffff81111561318457613183613c63565b5b61319085828601612d5f565b92505060206131a185828601612db7565b9150509250929050565b6000602082840312156131c1576131c0613c68565b5b60006131cf84828501612da2565b91505092915050565b60006131e483836132f5565b905092915050565b60006131f88383613584565b60208301905092915050565b600061320f826139a0565b61321981856139db565b93508360208202850161322b8561396b565b8060005b85811015613267578484038952815161324885826131d8565b9450613253836139c1565b925060208a0199505060018101905061322f565b50829750879550505050505092915050565b6000613284826139ab565b61328e81856139ec565b93506132998361397b565b8060005b838110156132ca5781516132b188826131ec565b97506132bc836139ce565b92505060018101905061329d565b5085935050505092915050565b6132e081613a2a565b82525050565b6132ef81613a6e565b82525050565b6000613300826139b6565b61330a81856139fd565b935061331a818560208601613a8f565b61332381613c6d565b840191505092915050565b6000613339826139b6565b6133438185613a0e565b9350613353818560208601613a8f565b61335c81613c6d565b840191505092915050565b6000613372826139b6565b61337c8185613a1f565b935061338c818560208601613a8f565b80840191505092915050565b600081546133a581613ac2565b6133af8186613a1f565b945060018216600081146133ca57600181146133db5761340e565b60ff1983168652818601935061340e565b6133e48561398b565b60005b83811015613406578154818901526001820191506020810190506133e7565b838801955050505b50505092915050565b6000613424601a83613a0e565b915061342f82613c7e565b602082019050919050565b6000613447601783613a0e565b915061345282613ca7565b602082019050919050565b600061346a601783613a0e565b915061347582613cd0565b602082019050919050565b600061348d601783613a0e565b915061349882613cf9565b602082019050919050565b60006134b0601783613a0e565b91506134bb82613d22565b602082019050919050565b60006134d3601583613a0e565b91506134de82613d4b565b602082019050919050565b60006134f6601483613a0e565b915061350182613d74565b602082019050919050565b6000613519601483613a0e565b915061352482613d9d565b602082019050919050565b600061353c601a83613a0e565b915061354782613dc6565b602082019050919050565b600061355f601583613a0e565b915061356a82613def565b602082019050919050565b61357e81613a49565b82525050565b61358d81613a57565b82525050565b61359c81613a57565b82525050565b60006135ae8284613367565b915081905092915050565b60006135c58284613398565b915081905092915050565b600060a08201905081810360008301526135ea8188613204565b905081810360208301526135fe8187613204565b905081810360408301526136128186613279565b905081810360608301526136268185613204565b9050818103608083015261363a8184613279565b90509695505050505050565b600060208201905061365b60008301846132d7565b92915050565b6000602082019050818103600083015261367b818461332e565b905092915050565b6000608082019050818103600083015261369d818761332e565b905081810360208301526136b1818661332e565b90506136c06040830185613593565b6136cd6060830184613593565b95945050505050565b600060808201905081810360008301526136f0818761332e565b90506136ff6020830186613575565b61370c60408301856132e6565b6137196060830184613593565b95945050505050565b6000608082019050818103600083015261373c818761332e565b905061374b6020830186613593565b818103604083015261375d818561332e565b905061376c6060830184613593565b95945050505050565b6000602082019050818103600083015261378e81613417565b9050919050565b600060208201905081810360008301526137ae8161343a565b9050919050565b600060208201905081810360008301526137ce8161345d565b9050919050565b600060208201905081810360008301526137ee81613480565b9050919050565b6000602082019050818103600083015261380e816134a3565b9050919050565b6000602082019050818103600083015261382e816134c6565b9050919050565b6000602082019050818103600083015261384e816134e9565b9050919050565b6000602082019050818103600083015261386e8161350c565b9050919050565b6000602082019050818103600083015261388e8161352f565b9050919050565b600060208201905081810360008301526138ae81613552565b9050919050565b60006060820190506138ca6000830186613575565b6138d760208301856132d7565b6138e46040830184613593565b949350505050565b60006040820190506139016000830185613575565b61390e6020830184613593565b9392505050565b600061391f613930565b905061392b8282613af4565b919050565b6000604051905090565b600067ffffffffffffffff82111561395557613954613c2a565b5b61395e82613c6d565b9050602081019050919050565b6000819050602082019050919050565b6000819050602082019050919050565b60008190508160005260206000209050919050565b600081519050919050565b600081519050919050565b600081519050919050565b6000602082019050919050565b6000602082019050919050565b600082825260208201905092915050565b600082825260208201905092915050565b600082825260208201905092915050565b600082825260208201905092915050565b600081905092915050565b60008115159050919050565b6000819050613a4482613e18565b919050565b600061ffff82169050919050565b6000819050919050565b600060ff82169050919050565b6000613a7982613a36565b9050919050565b82818337600083830152505050565b60005b83811015613aad578082015181840152602081019050613a92565b83811115613abc576000848401525b50505050565b60006002820490506001821680613ada57607f821691505b60208210811415613aee57613aed613bcc565b5b50919050565b613afd82613c6d565b810181811067ffffffffffffffff82111715613b1c57613b1b613c2a565b5b80604052505050565b6000613b3082613a57565b91507fffffffffffffffffffffffffffffffffffffffffffffffffffffffffffffffff821415613b6357613b62613b6e565b5b600182019050919050565b7f4e487b7100000000000000000000000000000000000000000000000000000000600052601160045260246000fd5b7f4e487b7100000000000000000000000000000000000000000000000000000000600052602160045260246000fd5b7f4e487b7100000000000000000000000000000000000000000000000000000000600052602260045260246000fd5b7f4e487b7100000000000000000000000000000000000000000000000000000000600052603260045260246000fd5b7f4e487b7100000000000000000000000000000000000000000000000000000000600052604160045260246000fd5b600080fd5b600080fd5b600080fd5b600080fd5b6000601f19601f8301169050919050565b7f50726f64756374696f6e20616c7265616479206578697374732e000000000000600082015250565b7f54657374696e6720616c7265616479206578697374732e000000000000000000600082015250565b7f53746f7261676520616c7265616479206578697374732e000000000000000000600082015250565b7f54657374696e6720646f6573206e6f742065786973742e000000000000000000600082015250565b7f53746f7261676520646f6573206e6f742065786973742e000000000000000000600082015250565b7f4f7264657220616c7265616479206578697374732e0000000000000000000000600082015250565b7f53616c6520646f6573206e6f742065786973742e000000000000000000000000600082015250565b7f53616c6520616c7265616479206578697374732e000000000000000000000000600082015250565b7f50726f64756374696f6e20646f6573206e6f742065786973742e000000000000600082015250565b7f4f7264657220646f6573206e6f742065786973742e0000000000000000000000600082015250565b60048110613e2957613e28613b9d565b5b50565b613e3581613a49565b8114613e4057600080fd5b50565b613e4c81613a57565b8114613e5757600080fd5b50565b613e6381613a61565b8114613e6e57600080fd5b5056fea26469706673582212206d32477d9eb4952cc5da5baa4b9ee42c799dabf46242d80845fead5726de27ae64736f6c63430008070033",
  "immutableReferences": {},
  "source": "// SPDX-License-Identifier: MIT\npragma solidity ^0.8.0;\n\ncontract SeafeedRegistry {\n    enum OrderStatus {\n        ORDERED,\n        PAYMENTRECEIVED,\n        DISPATCHED,\n        ARRIVED\n    }\n\n    struct Production {\n        string BatchID;\n        string FarmID;\n        uint256 Volume;\n        uint256 DateTime; //unix time\n    }\n\n    struct Testing {\n        uint16 Temperature;\n        uint256 DateTime;\n    }\n\n    struct Storage {\n        string Manufacturer;\n        string Location;\n        uint256 DateTime;\n        uint256 BestBefore;\n    }\n\n    struct Sale {\n        uint16 Quantity;\n        bool DispatchDocsAttached;\n        uint256 DateTime;\n    }\n\n    struct Order {\n        string Customer;\n        uint16 Quantity;\n        OrderStatus OS;\n        uint256 DateTime;\n    }\n\n    string[] public allorders;\n\n    // storage of structs\n    mapping(string => Production) public productions;\n    mapping(string => Testing) public testings;\n    mapping(string => Storage) public storages;\n    mapping(string => Sale) public sales;\n    mapping(string => Order) public orders;\n\n    // existence of structs\n    mapping(string => bool) public productionExists;\n    mapping(string => bool) public testingExists;\n    mapping(string => bool) public storageExists;\n    mapping(string => bool) public saleExists;\n    mapping(string => bool) public orderExists;\n\n    // trace from end product to source\n    mapping(string => string) public TestingToProduction;\n    mapping(string => string) public StorageToTesting;\n    mapping(string => string) public SaleToStorage;\n    mapping(string => string) public OrderToSale;\n\n// the setters\n    function logProduction(\n        string memory _productionid,\n        string memory _batchid,\n        string memory _farmid,\n        uint256 _volume,\n        uint256 _datetime) \n        public\n    {\n        require(!productionExists[_productionid], \"Production already exists.\");\n\n        productionExists[_productionid] = true;\n        productions[_productionid] = Production(_batchid,_farmid,_volume,_datetime);\n    }\n\n    function logTesting(\n        string memory _testingid,\n        uint16 _temperature,\n        uint256 _datetime,\n        string memory _productionid\n    )\n        public\n    {\n        require(!testingExists[_testingid], \"Testing already exists.\");\n        \n        testingExists[_testingid] = true;\n        testings[_testingid] = Testing(_temperature,_datetime);\n        TestingToProduction[_testingid] = _productionid; // traceability\n    }\n\n    function logStorage(\n        string memory _storageid,\n        string memory _manufacturer,\n        string memory _location,\n        uint256 _datetime,\n        uint256 _bestbefore,\n        string memory _testingid\n    )\n        public\n    {\n        require(!storageExists[_storageid], \"Storage already exists.\");\n\n        storageExists[_storageid] = true;\n        storages[_storageid] = Storage(_manufacturer,_location,_datetime,_bestbefore);\n        StorageToTesting[_storageid] = _testingid; // traceability\n    }\n\n    // logSale should be more like \"orderSeafeed\" or logOrder\n    function logSale(\n        string memory _saleid,\n        uint16 _quantity,\n        uint256 _datetime,\n        string memory _storageid\n    )\n        public\n    {\n        require(!saleExists[_saleid], \"Sale already exists.\");\n\n        saleExists[_saleid] = true;\n        sales[_saleid] = Sale(_quantity,false,_datetime);   \n        SaleToStorage[_saleid] = _storageid; // traceability\n    }\n\n    function logOrder(\n        string memory _orderid, \n        string memory _customer, \n        uint16 _quantity, \n        uint256 _datetime,\n        string memory _saleid) \n        public \n    {\n        require(!orderExists[_orderid], \"Order already exists.\");\n        \n        orderExists[_orderid] = true;\n        orders[_orderid] = Order(_customer,_quantity,OrderStatus.ORDERED,_datetime);\n        OrderToSale[_orderid] = _saleid;\n        allorders.push(_orderid);\n    }\n\n    function updateOrder(string memory _orderid, uint8 _ordertatus) public {\n        require(orderExists[_orderid], \"Order does not exist.\");\n        orders[_orderid].OS = OrderStatus(_ordertatus);\n    }\n\n// the getters\n    function queryProduction(string memory _productionid) \n        public \n        view \n        returns(\n            string memory,\n            string memory,\n            uint256,\n            uint256) \n    {\n        require(productionExists[_productionid], \"Production does not exist.\");\n        return(\n            productions[_productionid].BatchID,\n            productions[_productionid].FarmID,\n            productions[_productionid].Volume,\n            productions[_productionid].DateTime\n        );\n    }\n\n    function queryTesting(string memory _testingid)\n        public\n        view\n        returns(\n            uint16,\n            uint256\n        )\n    {\n        require(testingExists[_testingid], \"Testing does not exist.\");\n        return(\n            testings[_testingid].Temperature,\n            testings[_testingid].DateTime\n        );\n    }\n\n    function queryStorage(string memory _storageid)\n        public\n        view\n        returns(\n            string memory,\n            string memory,\n            uint256,\n            uint256\n        )\n    {\n        require(storageExists[_storageid],\"Storage does not exist.\");\n        return(\n            storages[_storageid].Manufacturer,\n            storages[_storageid].Location,\n            storages[_storageid].DateTime,\n            storages[_storageid].BestBefore\n        );\n    }\n\n    function querySale(string memory _saleid)\n        public\n        view\n        returns(\n            uint16,\n            bool,\n            uint256\n        )\n    {\n        require(saleExists[_saleid], \"Sale does not exist.\");\n        return(\n            sales[_saleid].Quantity,\n            sales[_saleid].DispatchDocsAttached,\n            sales[_saleid].DateTime\n        );\n    }\n\n    function queryOrder(string memory _orderid)\n        public\n        view\n        returns(\n            string memory,\n            uint256,\n            string memory,\n            uint256)\n    {\n        require(orderExists[_orderid], \"Order does not exist.\");\n\n        string memory orderstatus;\n        if (orders[_orderid].OS == OrderStatus.ORDERED) {\n            orderstatus = \"Ordered\";\n        } else if (orders[_orderid].OS == OrderStatus.PAYMENTRECEIVED) {\n            orderstatus = \"Paymentreceived\";\n        } else if (orders[_orderid].OS == OrderStatus.DISPATCHED) {\n            orderstatus = \"Dispatched\";\n        } else if (orders[_orderid].OS == OrderStatus.ARRIVED) {\n            orderstatus = \"Arrived\";\n        } else {\n            orderstatus = \"Unknown\";\n        }\n\n        return(\n            orders[_orderid].Customer,\n            orders[_orderid].Quantity,\n            orderstatus,\n            orders[_orderid].DateTime\n        );\n    }\n\n    function queryAllOrders() public view \n        returns(\n            string[] memory,\n            string[] memory,\n            uint256[] memory,\n            string[] memory,\n            uint256[] memory\n        )\n    {\n        string[] memory customers = new string[](allorders.length);\n        uint256[] memory quantities = new uint256[](allorders.length);\n        string[] memory statuss = new string[](allorders.length);\n        uint256[] memory datetimes = new uint256[](allorders.length);\n\n        for(uint256 i=0; i<allorders.length; i++) {\n            if (orders[allorders[i]].OS == OrderStatus.ORDERED) {\n                statuss[i] = \"Ordered\";\n            } else if (orders[allorders[i]].OS == OrderStatus.PAYMENTRECEIVED) {\n                statuss[i] = \"Paymentreceived\";\n            } else if (orders[allorders[i]].OS == OrderStatus.DISPATCHED) {\n                statuss[i] = \"Dispatched\";\n            } else if (orders[allorders[i]].OS == OrderStatus.ARRIVED) {\n                statuss[i] = \"Arrived\";\n            } else {\n                statuss[i] = \"Unknown\";\n            }\n\n            customers[i] = orders[allorders[i]].Customer;\n            quantities[i] = orders[allorders[i]].Quantity;\n            datetimes[i] = orders[allorders[i]].DateTime;\n        }\n\n        return(allorders,customers,quantities,statuss,datetimes);\n    }\n\n    // use an orderid to trace back to source\n    function queryOrderSource(string memory _orderid) public view returns (string memory) {\n        require(orderExists[_orderid], \"Order does not exist.\");\n        string memory saleid = OrderToSale[_orderid];\n        string memory storageid = TestingToProduction[saleid];\n        string memory testingid = StorageToTesting[storageid];\n        string memory productionid = SaleToStorage[testingid];\n        return productionid;\n    }\n}",
  "sourcePath": "/home/yih/Documents/dev/beston-dapps/contracts/carbon/SeafeedRegistry.sol",
  "compiler": {
    "name": "solc",
    "version": "0.8.7+commit.e28d00a7.Emscripten.clang"
  },
  "schemaVersion": "3.4.1",
  "updatedAt": "2023-06-01T06:06:50.164Z",
  "devdoc": {
    "kind": "dev",
    "methods": {},
    "version": 1
  },
  "userdoc": {
    "kind": "user",
    "methods": {},
    "version": 1
  }
}