{
  "contractName": "Seafeed",
  "abi": [
    {
      "inputs": [
        {
          "internalType": "string",
          "name": "",
          "type": "string"
        }
      ],
      "name": "OrderToSale",
      "outputs": [
        {
          "internalType": "string",
          "name": "",
          "type": "string"
        }
      ],
      "stateMutability": "view",
      "type": "function",
      "constant": true
    },
    {
      "inputs": [
        {
          "internalType": "string",
          "name": "",
          "type": "string"
        }
      ],
      "name": "SaleToStorage",
      "outputs": [
        {
          "internalType": "string",
          "name": "",
          "type": "string"
        }
      ],
      "stateMutability": "view",
      "type": "function",
      "constant": true
    },
    {
      "inputs": [
        {
          "internalType": "string",
          "name": "",
          "type": "string"
        }
      ],
      "name": "StorageToTesting",
      "outputs": [
        {
          "internalType": "string",
          "name": "",
          "type": "string"
        }
      ],
      "stateMutability": "view",
      "type": "function",
      "constant": true
    },
    {
      "inputs": [
        {
          "internalType": "string",
          "name": "",
          "type": "string"
        }
      ],
      "name": "TestingToProduction",
      "outputs": [
        {
          "internalType": "string",
          "name": "",
          "type": "string"
        }
      ],
      "stateMutability": "view",
      "type": "function",
      "constant": true
    },
    {
      "inputs": [
        {
          "internalType": "uint256",
          "name": "",
          "type": "uint256"
        }
      ],
      "name": "allorders",
      "outputs": [
        {
          "internalType": "string",
          "name": "",
          "type": "string"
        }
      ],
      "stateMutability": "view",
      "type": "function",
      "constant": true
    },
    {
      "inputs": [
        {
          "internalType": "string",
          "name": "",
          "type": "string"
        }
      ],
      "name": "orderExists",
      "outputs": [
        {
          "internalType": "bool",
          "name": "",
          "type": "bool"
        }
      ],
      "stateMutability": "view",
      "type": "function",
      "constant": true
    },
    {
      "inputs": [
        {
          "internalType": "string",
          "name": "",
          "type": "string"
        }
      ],
      "name": "orders",
      "outputs": [
        {
          "internalType": "string",
          "name": "Customer",
          "type": "string"
        },
        {
          "internalType": "uint16",
          "name": "Quantity",
          "type": "uint16"
        },
        {
          "internalType": "enum Seafeed.OrderStatus",
          "name": "OS",
          "type": "uint8"
        },
        {
          "internalType": "uint256",
          "name": "DateTime",
          "type": "uint256"
        }
      ],
      "stateMutability": "view",
      "type": "function",
      "constant": true
    },
    {
      "inputs": [
        {
          "internalType": "string",
          "name": "",
          "type": "string"
        }
      ],
      "name": "productionExists",
      "outputs": [
        {
          "internalType": "bool",
          "name": "",
          "type": "bool"
        }
      ],
      "stateMutability": "view",
      "type": "function",
      "constant": true
    },
    {
      "inputs": [
        {
          "internalType": "string",
          "name": "",
          "type": "string"
        }
      ],
      "name": "productions",
      "outputs": [
        {
          "internalType": "string",
          "name": "BatchID",
          "type": "string"
        },
        {
          "internalType": "string",
          "name": "FarmID",
          "type": "string"
        },
        {
          "internalType": "uint256",
          "name": "Volume",
          "type": "uint256"
        },
        {
          "internalType": "uint256",
          "name": "DateTime",
          "type": "uint256"
        }
      ],
      "stateMutability": "view",
      "type": "function",
      "constant": true
    },
    {
      "inputs": [
        {
          "internalType": "string",
          "name": "",
          "type": "string"
        }
      ],
      "name": "saleExists",
      "outputs": [
        {
          "internalType": "bool",
          "name": "",
          "type": "bool"
        }
      ],
      "stateMutability": "view",
      "type": "function",
      "constant": true
    },
    {
      "inputs": [
        {
          "internalType": "string",
          "name": "",
          "type": "string"
        }
      ],
      "name": "sales",
      "outputs": [
        {
          "internalType": "uint16",
          "name": "Quantity",
          "type": "uint16"
        },
        {
          "internalType": "bool",
          "name": "DispatchDocsAttached",
          "type": "bool"
        },
        {
          "internalType": "uint256",
          "name": "DateTime",
          "type": "uint256"
        }
      ],
      "stateMutability": "view",
      "type": "function",
      "constant": true
    },
    {
      "inputs": [
        {
          "internalType": "string",
          "name": "",
          "type": "string"
        }
      ],
      "name": "storageExists",
      "outputs": [
        {
          "internalType": "bool",
          "name": "",
          "type": "bool"
        }
      ],
      "stateMutability": "view",
      "type": "function",
      "constant": true
    },
    {
      "inputs": [
        {
          "internalType": "string",
          "name": "",
          "type": "string"
        }
      ],
      "name": "storages",
      "outputs": [
        {
          "internalType": "string",
          "name": "Manufacturer",
          "type": "string"
        },
        {
          "internalType": "string",
          "name": "Location",
          "type": "string"
        },
        {
          "internalType": "uint256",
          "name": "DateTime",
          "type": "uint256"
        },
        {
          "internalType": "uint256",
          "name": "BestBefore",
          "type": "uint256"
        }
      ],
      "stateMutability": "view",
      "type": "function",
      "constant": true
    },
    {
      "inputs": [
        {
          "internalType": "string",
          "name": "",
          "type": "string"
        }
      ],
      "name": "testingExists",
      "outputs": [
        {
          "internalType": "bool",
          "name": "",
          "type": "bool"
        }
      ],
      "stateMutability": "view",
      "type": "function",
      "constant": true
    },
    {
      "inputs": [
        {
          "internalType": "string",
          "name": "",
          "type": "string"
        }
      ],
      "name": "testings",
      "outputs": [
        {
          "internalType": "uint16",
          "name": "Temperature",
          "type": "uint16"
        },
        {
          "internalType": "uint256",
          "name": "DateTime",
          "type": "uint256"
        }
      ],
      "stateMutability": "view",
      "type": "function",
      "constant": true
    },
    {
      "inputs": [
        {
          "internalType": "string",
          "name": "_productionid",
          "type": "string"
        },
        {
          "internalType": "string",
          "name": "_batchid",
          "type": "string"
        },
        {
          "internalType": "string",
          "name": "_farmid",
          "type": "string"
        },
        {
          "internalType": "uint256",
          "name": "_volume",
          "type": "uint256"
        },
        {
          "internalType": "uint256",
          "name": "_datetime",
          "type": "uint256"
        }
      ],
      "name": "registerProduction",
      "outputs": [],
      "stateMutability": "nonpayable",
      "type": "function"
    },
    {
      "inputs": [
        {
          "internalType": "string",
          "name": "_testingid",
          "type": "string"
        },
        {
          "internalType": "uint16",
          "name": "_temperature",
          "type": "uint16"
        },
        {
          "internalType": "uint256",
          "name": "_datetime",
          "type": "uint256"
        },
        {
          "internalType": "string",
          "name": "_productionid",
          "type": "string"
        }
      ],
      "name": "registerTesting",
      "outputs": [],
      "stateMutability": "nonpayable",
      "type": "function"
    },
    {
      "inputs": [
        {
          "internalType": "string",
          "name": "_storageid",
          "type": "string"
        },
        {
          "internalType": "string",
          "name": "_manufacturer",
          "type": "string"
        },
        {
          "internalType": "string",
          "name": "_location",
          "type": "string"
        },
        {
          "internalType": "uint256",
          "name": "_datetime",
          "type": "uint256"
        },
        {
          "internalType": "uint256",
          "name": "_bestbefore",
          "type": "uint256"
        },
        {
          "internalType": "string",
          "name": "_testingid",
          "type": "string"
        }
      ],
      "name": "registerStorage",
      "outputs": [],
      "stateMutability": "nonpayable",
      "type": "function"
    },
    {
      "inputs": [
        {
          "internalType": "string",
          "name": "_saleid",
          "type": "string"
        },
        {
          "internalType": "uint16",
          "name": "_quantity",
          "type": "uint16"
        },
        {
          "internalType": "uint256",
          "name": "_datetime",
          "type": "uint256"
        },
        {
          "internalType": "string",
          "name": "_storageid",
          "type": "string"
        }
      ],
      "name": "registerSale",
      "outputs": [],
      "stateMutability": "nonpayable",
      "type": "function"
    },
    {
      "inputs": [
        {
          "internalType": "string",
          "name": "_orderid",
          "type": "string"
        },
        {
          "internalType": "string",
          "name": "_customer",
          "type": "string"
        },
        {
          "internalType": "uint16",
          "name": "_quantity",
          "type": "uint16"
        },
        {
          "internalType": "uint256",
          "name": "_datetime",
          "type": "uint256"
        }
      ],
      "name": "registerOrder",
      "outputs": [],
      "stateMutability": "nonpayable",
      "type": "function"
    },
    {
      "inputs": [
        {
          "internalType": "string",
          "name": "_orderid",
          "type": "string"
        },
        {
          "internalType": "uint8",
          "name": "_ordertatus",
          "type": "uint8"
        }
      ],
      "name": "updateOrder",
      "outputs": [],
      "stateMutability": "nonpayable",
      "type": "function"
    },
    {
      "inputs": [
        {
          "internalType": "string",
          "name": "_productionid",
          "type": "string"
        }
      ],
      "name": "queryProduction",
      "outputs": [
        {
          "internalType": "string",
          "name": "",
          "type": "string"
        },
        {
          "internalType": "string",
          "name": "",
          "type": "string"
        },
        {
          "internalType": "uint256",
          "name": "",
          "type": "uint256"
        },
        {
          "internalType": "uint256",
          "name": "",
          "type": "uint256"
        }
      ],
      "stateMutability": "view",
      "type": "function",
      "constant": true
    },
    {
      "inputs": [
        {
          "internalType": "string",
          "name": "_testingid",
          "type": "string"
        }
      ],
      "name": "queryTesting",
      "outputs": [
        {
          "internalType": "uint16",
          "name": "",
          "type": "uint16"
        },
        {
          "internalType": "uint256",
          "name": "",
          "type": "uint256"
        }
      ],
      "stateMutability": "view",
      "type": "function",
      "constant": true
    },
    {
      "inputs": [
        {
          "internalType": "string",
          "name": "_storageid",
          "type": "string"
        }
      ],
      "name": "queryStorage",
      "outputs": [
        {
          "internalType": "string",
          "name": "",
          "type": "string"
        },
        {
          "internalType": "string",
          "name": "",
          "type": "string"
        },
        {
          "internalType": "uint256",
          "name": "",
          "type": "uint256"
        },
        {
          "internalType": "uint256",
          "name": "",
          "type": "uint256"
        }
      ],
      "stateMutability": "view",
      "type": "function",
      "constant": true
    },
    {
      "inputs": [
        {
          "internalType": "string",
          "name": "_saleid",
          "type": "string"
        }
      ],
      "name": "querySale",
      "outputs": [
        {
          "internalType": "uint16",
          "name": "",
          "type": "uint16"
        },
        {
          "internalType": "bool",
          "name": "",
          "type": "bool"
        },
        {
          "internalType": "uint256",
          "name": "",
          "type": "uint256"
        }
      ],
      "stateMutability": "view",
      "type": "function",
      "constant": true
    },
    {
      "inputs": [
        {
          "internalType": "string",
          "name": "_orderid",
          "type": "string"
        }
      ],
      "name": "queryOrder",
      "outputs": [
        {
          "internalType": "string",
          "name": "",
          "type": "string"
        },
        {
          "internalType": "uint256",
          "name": "",
          "type": "uint256"
        },
        {
          "internalType": "string",
          "name": "",
          "type": "string"
        },
        {
          "internalType": "uint256",
          "name": "",
          "type": "uint256"
        }
      ],
      "stateMutability": "view",
      "type": "function",
      "constant": true
    },
    {
      "inputs": [],
      "name": "queryAllOrders",
      "outputs": [
        {
          "internalType": "string[]",
          "name": "",
          "type": "string[]"
        },
        {
          "internalType": "string[]",
          "name": "",
          "type": "string[]"
        },
        {
          "internalType": "uint256[]",
          "name": "",
          "type": "uint256[]"
        },
        {
          "internalType": "string[]",
          "name": "",
          "type": "string[]"
        },
        {
          "internalType": "uint256[]",
          "name": "",
          "type": "uint256[]"
        }
      ],
      "stateMutability": "view",
      "type": "function",
      "constant": true
    },
    {
      "inputs": [
        {
          "internalType": "string",
          "name": "_orderid",
          "type": "string"
        }
      ],
      "name": "queryOrderSource",
      "outputs": [
        {
          "internalType": "string",
          "name": "",
          "type": "string"
        }
      ],
      "stateMutability": "view",
      "type": "function",
      "constant": true
    }
  ],
  "bytecode": "0x608060405234801561001057600080fd5b50613d6d806100206000396000f3fe608060405234801561001057600080fd5b50600436106101c45760003560e01c806393c1f7c5116100f9578063be8a14e411610097578063e16dd58711610071578063e16dd587146105ea578063ed3d3f6d14610606578063ee916ce314610636578063fbb37cf214610669576101c4565b8063be8a14e414610559578063bf3de2a414610589578063db5607de146105ba576101c4565b8063aad7c3a4116100d3578063aad7c3a4146104ce578063ac9a021b146104f0578063b32788261461050c578063bd431d0c1461053d576101c4565b806393c1f7c51461043e5780639d15b2d31461046e578063a959d5851461049e576101c4565b80634b8133c61161016657806385f71c2d1161014057806385f71c2d146103795780638886244e146103a957806392d18c04146103d9578063936ee97d1461040c576101c4565b80634b8133c6146102f75780635bde92481461032a5780637bacb8cc14610346576101c4565b80631876bd38116101a25780631876bd38146102485780631a94894714610278578063206614d5146102ab57806334c3f244146102db576101c4565b806306627845146101c95780631475793e146101fc57806315d444311461022c575b600080fd5b6101e360048036038101906101de9190612cc2565b61069b565b6040516101f39493929190613549565b60405180910390f35b61021660048036038101906102119190613071565b6107f1565b6040516102239190613527565b60405180910390f35b61024660048036038101906102419190612dda565b61089d565b005b610262600480360381019061025d9190612cc2565b610a0b565b60405161026f9190613527565b60405180910390f35b610292600480360381019061028d9190612cc2565b610ac1565b6040516102a2949392919061359c565b60405180910390f35b6102c560048036038101906102c09190612cc2565b610baa565b6040516102d2919061350c565b60405180910390f35b6102f560048036038101906102f09190612ed7565b610be0565b005b610311600480360381019061030c9190612cc2565b610d98565b6040516103219493929190613549565b60405180910390f35b610344600480360381019061033f9190613015565b610fb6565b005b610360600480360381019061035b9190612cc2565b611018565b6040516103709493929190613549565b60405180910390f35b610393600480360381019061038e9190612cc2565b611236565b6040516103a09190613527565b60405180910390f35b6103c360048036038101906103be9190612cc2565b6114f0565b6040516103d0919061350c565b60405180910390f35b6103f360048036038101906103ee9190612cc2565b611526565b60405161040394939291906135e8565b60405180910390f35b61042660048036038101906104219190612cc2565b61194d565b6040516104359392919061377b565b60405180910390f35b61045860048036038101906104539190612cc2565b611a4b565b6040516104659190613527565b60405180910390f35b61048860048036038101906104839190612cc2565b611b01565b604051610495919061350c565b60405180910390f35b6104b860048036038101906104b39190612cc2565b611b37565b6040516104c5919061350c565b60405180910390f35b6104d6611b6d565b6040516104e7959493929190613496565b60405180910390f35b61050a60048036038101906105059190612d0b565b612323565b005b61052660048036038101906105219190612cc2565b61245d565b6040516105349291906137b2565b60405180910390f35b61055760048036038101906105529190612f76565b612526565b005b610573600480360381019061056e9190612cc2565b612692565b6040516105809190613527565b60405180910390f35b6105a3600480360381019061059e9190612cc2565b612748565b6040516105b19291906137b2565b60405180910390f35b6105d460048036038101906105cf9190612cc2565b612790565b6040516105e19190613527565b60405180910390f35b61060460048036038101906105ff9190612f76565b612846565b005b610620600480360381019061061b9190612cc2565b612989565b60405161062d919061350c565b60405180910390f35b610650600480360381019061064b9190612cc2565b6129bf565b6040516106609493929190613549565b60405180910390f35b610683600480360381019061067e9190612cc2565b612b15565b6040516106929392919061377b565b60405180910390f35b6001818051602081018201805184825260208301602085012081835280955050505050506000915090508060000180546106d490613988565b80601f016020809104026020016040519081016040528092919081815260200182805461070090613988565b801561074d5780601f106107225761010080835404028352916020019161074d565b820191906000526020600020905b81548152906001019060200180831161073057829003601f168201915b50505050509080600101805461076290613988565b80601f016020809104026020016040519081016040528092919081815260200182805461078e90613988565b80156107db5780601f106107b0576101008083540402835291602001916107db565b820191906000526020600020905b8154815290600101906020018083116107be57829003601f168201915b5050505050908060020154908060030154905084565b6000818154811061080157600080fd5b90600052602060002001600091509050805461081c90613988565b80601f016020809104026020016040519081016040528092919081815260200182805461084890613988565b80156108955780601f1061086a57610100808354040283529160200191610895565b820191906000526020600020905b81548152906001019060200180831161087857829003601f168201915b505050505081565b6008866040516108ad9190613468565b908152602001604051809103902060009054906101000a900460ff1615610909576040517f08c379a00000000000000000000000000000000000000000000000000000000081526004016109009061367b565b60405180910390fd5b600160088760405161091b9190613468565b908152602001604051809103902060006101000a81548160ff0219169083151502179055506040518060800160405280868152602001858152602001848152602001838152506003876040516109719190613468565b9081526020016040518091039020600082015181600001908051906020019061099b929190612b70565b5060208201518160010190805190602001906109b8929190612b70565b50604082015181600201556060820151816003015590505080600c876040516109e19190613468565b90815260200160405180910390209080519060200190610a02929190612b70565b50505050505050565b600e818051602081018201805184825260208301602085012081835280955050505050506000915090508054610a4090613988565b80601f0160208091040260200160405190810160405280929190818152602001828054610a6c90613988565b8015610ab95780601f10610a8e57610100808354040283529160200191610ab9565b820191906000526020600020905b815481529060010190602001808311610a9c57829003601f168201915b505050505081565b600581805160208101820180518482526020830160208501208183528095505050505050600091509050806000018054610afa90613988565b80601f0160208091040260200160405190810160405280929190818152602001828054610b2690613988565b8015610b735780601f10610b4857610100808354040283529160200191610b73565b820191906000526020600020905b815481529060010190602001808311610b5657829003601f168201915b5050505050908060010160009054906101000a900461ffff16908060010160029054906101000a900460ff16908060020154905084565b6008818051602081018201805184825260208301602085012081835280955050505050506000915054906101000a900460ff1681565b600a84604051610bf09190613468565b908152602001604051809103902060009054906101000a900460ff1615610c4c576040517f08c379a0000000000000000000000000000000000000000000000000000000008152600401610c43906136db565b60405180910390fd5b6001600a85604051610c5e9190613468565b908152602001604051809103902060006101000a81548160ff02191690831515021790555060405180608001604052808481526020018361ffff16815260200160006003811115610cb257610cb1613a63565b5b815260200182815250600585604051610ccb9190613468565b90815260200160405180910390206000820151816000019080519060200190610cf5929190612b70565b5060208201518160010160006101000a81548161ffff021916908361ffff16021790555060408201518160010160026101000a81548160ff02191690836003811115610d4457610d43613a63565b5b021790555060608201518160020155905050600084908060018154018082558091505060019003906000526020600020016000909190919091509080519060200190610d91929190612b70565b5050505050565b606080600080600885604051610dae9190613468565b908152602001604051809103902060009054906101000a900460ff16610e09576040517f08c379a0000000000000000000000000000000000000000000000000000000008152600401610e00906136bb565b60405180910390fd5b600385604051610e199190613468565b9081526020016040518091039020600001600386604051610e3a9190613468565b9081526020016040518091039020600101600387604051610e5b9190613468565b908152602001604051809103902060020154600388604051610e7d9190613468565b908152602001604051809103902060030154838054610e9b90613988565b80601f0160208091040260200160405190810160405280929190818152602001828054610ec790613988565b8015610f145780601f10610ee957610100808354040283529160200191610f14565b820191906000526020600020905b815481529060010190602001808311610ef757829003601f168201915b50505050509350828054610f2790613988565b80601f0160208091040260200160405190810160405280929190818152602001828054610f5390613988565b8015610fa05780601f10610f7557610100808354040283529160200191610fa0565b820191906000526020600020905b815481529060010190602001808311610f8357829003601f168201915b5050505050925093509350935093509193509193565b8060ff166003811115610fcc57610fcb613a63565b5b600583604051610fdc9190613468565b908152602001604051809103902060010160026101000a81548160ff0219169083600381111561100f5761100e613a63565b5b02179055505050565b60608060008060068560405161102e9190613468565b908152602001604051809103902060009054906101000a900460ff16611089576040517f08c379a00000000000000000000000000000000000000000000000000000000081526004016110809061373b565b60405180910390fd5b6001856040516110999190613468565b90815260200160405180910390206000016001866040516110ba9190613468565b90815260200160405180910390206001016001876040516110db9190613468565b9081526020016040518091039020600201546001886040516110fd9190613468565b90815260200160405180910390206003015483805461111b90613988565b80601f016020809104026020016040519081016040528092919081815260200182805461114790613988565b80156111945780601f1061116957610100808354040283529160200191611194565b820191906000526020600020905b81548152906001019060200180831161117757829003601f168201915b505050505093508280546111a790613988565b80601f01602080910402602001604051908101604052809291908181526020018280546111d390613988565b80156112205780601f106111f557610100808354040283529160200191611220565b820191906000526020600020905b81548152906001019060200180831161120357829003601f168201915b5050505050925093509350935093509193509193565b60606000600e8360405161124a9190613468565b9081526020016040518091039020805461126390613988565b80601f016020809104026020016040519081016040528092919081815260200182805461128f90613988565b80156112dc5780601f106112b1576101008083540402835291602001916112dc565b820191906000526020600020905b8154815290600101906020018083116112bf57829003601f168201915b505050505090506000600b826040516112f59190613468565b9081526020016040518091039020805461130e90613988565b80601f016020809104026020016040519081016040528092919081815260200182805461133a90613988565b80156113875780601f1061135c57610100808354040283529160200191611387565b820191906000526020600020905b81548152906001019060200180831161136a57829003601f168201915b505050505090506000600c826040516113a09190613468565b908152602001604051809103902080546113b990613988565b80601f01602080910402602001604051908101604052809291908181526020018280546113e590613988565b80156114325780601f1061140757610100808354040283529160200191611432565b820191906000526020600020905b81548152906001019060200180831161141557829003601f168201915b505050505090506000600d8260405161144b9190613468565b9081526020016040518091039020805461146490613988565b80601f016020809104026020016040519081016040528092919081815260200182805461149090613988565b80156114dd5780601f106114b2576101008083540402835291602001916114dd565b820191906000526020600020905b8154815290600101906020018083116114c057829003601f168201915b5050505050905080945050505050919050565b6006818051602081018201805184825260208301602085012081835280955050505050506000915054906101000a900460ff1681565b6060600060606000600a8560405161153e9190613468565b908152602001604051809103902060009054906101000a900460ff16611599576040517f08c379a00000000000000000000000000000000000000000000000000000000081526004016115909061375b565b60405180910390fd5b6060600060038111156115af576115ae613a63565b5b6005876040516115bf9190613468565b908152602001604051809103902060010160029054906101000a900460ff1660038111156115f0576115ef613a63565b5b1415611633576040518060400160405280600781526020017f4f726465726564000000000000000000000000000000000000000000000000008152509050611836565b6001600381111561164757611646613a63565b5b6005876040516116579190613468565b908152602001604051809103902060010160029054906101000a900460ff16600381111561168857611687613a63565b5b14156116cb576040518060400160405280600f81526020017f5061796d656e74726563656976656400000000000000000000000000000000008152509050611835565b600260038111156116df576116de613a63565b5b6005876040516116ef9190613468565b908152602001604051809103902060010160029054906101000a900460ff1660038111156117205761171f613a63565b5b1415611763576040518060400160405280600a81526020017f44697370617463686564000000000000000000000000000000000000000000008152509050611834565b60038081111561177657611775613a63565b5b6005876040516117869190613468565b908152602001604051809103902060010160029054906101000a900460ff1660038111156117b7576117b6613a63565b5b14156117fa576040518060400160405280600781526020017f41727269766564000000000000000000000000000000000000000000000000008152509050611833565b6040518060400160405280600781526020017f556e6b6e6f776e0000000000000000000000000000000000000000000000000081525090505b5b5b5b6005866040516118469190613468565b90815260200160405180910390206000016005876040516118679190613468565b908152602001604051809103902060010160009054906101000a900461ffff16826005896040516118989190613468565b9081526020016040518091039020600201548380546118b690613988565b80601f01602080910402602001604051908101604052809291908181526020018280546118e290613988565b801561192f5780601f106119045761010080835404028352916020019161192f565b820191906000526020600020905b81548152906001019060200180831161191257829003601f168201915b505050505093508261ffff1692509450945094509450509193509193565b60008060006009846040516119629190613468565b908152602001604051809103902060009054906101000a900460ff166119bd576040517f08c379a00000000000000000000000000000000000000000000000000000000081526004016119b4906136fb565b60405180910390fd5b6004846040516119cd9190613468565b908152602001604051809103902060000160009054906101000a900461ffff166004856040516119fd9190613468565b908152602001604051809103902060000160029054906101000a900460ff16600486604051611a2c9190613468565b9081526020016040518091039020600101549250925092509193909250565b600c818051602081018201805184825260208301602085012081835280955050505050506000915090508054611a8090613988565b80601f0160208091040260200160405190810160405280929190818152602001828054611aac90613988565b8015611af95780601f10611ace57610100808354040283529160200191611af9565b820191906000526020600020905b815481529060010190602001808311611adc57829003601f168201915b505050505081565b6009818051602081018201805184825260208301602085012081835280955050505050506000915054906101000a900460ff1681565b600a818051602081018201805184825260208301602085012081835280955050505050506000915054906101000a900460ff1681565b60608060608060606000808054905067ffffffffffffffff811115611b9557611b94613af0565b5b604051908082528060200260200182016040528015611bc857816020015b6060815260200190600190039081611bb35790505b5090506000808054905067ffffffffffffffff811115611beb57611bea613af0565b5b604051908082528060200260200182016040528015611c195781602001602082028036833780820191505090505b5090506000808054905067ffffffffffffffff811115611c3c57611c3b613af0565b5b604051908082528060200260200182016040528015611c6f57816020015b6060815260200190600190039081611c5a5790505b5090506000808054905067ffffffffffffffff811115611c9257611c91613af0565b5b604051908082528060200260200182016040528015611cc05781602001602082028036833780820191505090505b50905060005b6000805490508110156122345760006003811115611ce757611ce6613a63565b5b600560008381548110611cfd57611cfc613ac1565b5b90600052602060002001604051611d14919061347f565b908152602001604051809103902060010160029054906101000a900460ff166003811115611d4557611d44613a63565b5b1415611da4576040518060400160405280600781526020017f4f72646572656400000000000000000000000000000000000000000000000000815250838281518110611d9457611d93613ac1565b5b602002602001018190525061206e565b60016003811115611db857611db7613a63565b5b600560008381548110611dce57611dcd613ac1565b5b90600052602060002001604051611de5919061347f565b908152602001604051809103902060010160029054906101000a900460ff166003811115611e1657611e15613a63565b5b1415611e75576040518060400160405280600f81526020017f5061796d656e7472656365697665640000000000000000000000000000000000815250838281518110611e6557611e64613ac1565b5b602002602001018190525061206d565b60026003811115611e8957611e88613a63565b5b600560008381548110611e9f57611e9e613ac1565b5b90600052602060002001604051611eb6919061347f565b908152602001604051809103902060010160029054906101000a900460ff166003811115611ee757611ee6613a63565b5b1415611f46576040518060400160405280600a81526020017f4469737061746368656400000000000000000000000000000000000000000000815250838281518110611f3657611f35613ac1565b5b602002602001018190525061206c565b600380811115611f5957611f58613a63565b5b600560008381548110611f6f57611f6e613ac1565b5b90600052602060002001604051611f86919061347f565b908152602001604051809103902060010160029054906101000a900460ff166003811115611fb757611fb6613a63565b5b1415612016576040518060400160405280600781526020017f417272697665640000000000000000000000000000000000000000000000000081525083828151811061200657612005613ac1565b5b602002602001018190525061206b565b6040518060400160405280600781526020017f556e6b6e6f776e0000000000000000000000000000000000000000000000000081525083828151811061205f5761205e613ac1565b5b60200260200101819052505b5b5b5b60056000828154811061208457612083613ac1565b5b9060005260206000200160405161209b919061347f565b908152602001604051809103902060000180546120b790613988565b80601f01602080910402602001604051908101604052809291908181526020018280546120e390613988565b80156121305780601f1061210557610100808354040283529160200191612130565b820191906000526020600020905b81548152906001019060200180831161211357829003601f168201915b505050505085828151811061214857612147613ac1565b5b602002602001018190525060056000828154811061216957612168613ac1565b5b90600052602060002001604051612180919061347f565b908152602001604051809103902060010160009054906101000a900461ffff1661ffff168482815181106121b7576121b6613ac1565b5b6020026020010181815250506005600082815481106121d9576121d8613ac1565b5b906000526020600020016040516121f0919061347f565b90815260200160405180910390206002015482828151811061221557612214613ac1565b5b602002602001018181525050808061222c906139eb565b915050611cc6565b5060008484848484805480602002602001604051908101604052809291908181526020016000905b8282101561230857838290600052602060002001805461227b90613988565b80601f01602080910402602001604051908101604052809291908181526020018280546122a790613988565b80156122f45780601f106122c9576101008083540402835291602001916122f4565b820191906000526020600020905b8154815290600101906020018083116122d757829003601f168201915b50505050508152602001906001019061225c565b50505050945098509850985098509850505050509091929394565b6006856040516123339190613468565b908152602001604051809103902060009054906101000a900460ff161561238f576040517f08c379a00000000000000000000000000000000000000000000000000000000081526004016123869061363b565b60405180910390fd5b60016006866040516123a19190613468565b908152602001604051809103902060006101000a81548160ff0219169083151502179055506040518060800160405280858152602001848152602001838152602001828152506001866040516123f79190613468565b90815260200160405180910390206000820151816000019080519060200190612421929190612b70565b50602082015181600101908051906020019061243e929190612b70565b5060408201518160020155606082015181600301559050505050505050565b6000806007836040516124709190613468565b908152602001604051809103902060009054906101000a900460ff166124cb576040517f08c379a00000000000000000000000000000000000000000000000000000000081526004016124c29061369b565b60405180910390fd5b6002836040516124db9190613468565b908152602001604051809103902060000160009054906101000a900461ffff1660028460405161250b9190613468565b90815260200160405180910390206001015491509150915091565b6009846040516125369190613468565b908152602001604051809103902060009054906101000a900460ff1615612592576040517f08c379a00000000000000000000000000000000000000000000000000000000081526004016125899061371b565b60405180910390fd5b60016009856040516125a49190613468565b908152602001604051809103902060006101000a81548160ff02191690831515021790555060405180606001604052808461ffff168152602001600015158152602001838152506004856040516125fb9190613468565b908152602001604051809103902060008201518160000160006101000a81548161ffff021916908361ffff16021790555060208201518160000160026101000a81548160ff0219169083151502179055506040820151816001015590505080600d8560405161266a9190613468565b9081526020016040518091039020908051906020019061268b929190612b70565b5050505050565b600d8180516020810182018051848252602083016020850120818352809550505050505060009150905080546126c790613988565b80601f01602080910402602001604051908101604052809291908181526020018280546126f390613988565b80156127405780601f1061271557610100808354040283529160200191612740565b820191906000526020600020905b81548152906001019060200180831161272357829003601f168201915b505050505081565b6002818051602081018201805184825260208301602085012081835280955050505050506000915090508060000160009054906101000a900461ffff16908060010154905082565b600b8180516020810182018051848252602083016020850120818352809550505050505060009150905080546127c590613988565b80601f01602080910402602001604051908101604052809291908181526020018280546127f190613988565b801561283e5780601f106128135761010080835404028352916020019161283e565b820191906000526020600020905b81548152906001019060200180831161282157829003601f168201915b505050505081565b6007846040516128569190613468565b908152602001604051809103902060009054906101000a900460ff16156128b2576040517f08c379a00000000000000000000000000000000000000000000000000000000081526004016128a99061365b565b60405180910390fd5b60016007856040516128c49190613468565b908152602001604051809103902060006101000a81548160ff02191690831515021790555060405180604001604052808461ffff168152602001838152506002856040516129129190613468565b908152602001604051809103902060008201518160000160006101000a81548161ffff021916908361ffff1602179055506020820151816001015590505080600b856040516129619190613468565b90815260200160405180910390209080519060200190612982929190612b70565b5050505050565b6007818051602081018201805184825260208301602085012081835280955050505050506000915054906101000a900460ff1681565b6003818051602081018201805184825260208301602085012081835280955050505050506000915090508060000180546129f890613988565b80601f0160208091040260200160405190810160405280929190818152602001828054612a2490613988565b8015612a715780601f10612a4657610100808354040283529160200191612a71565b820191906000526020600020905b815481529060010190602001808311612a5457829003601f168201915b505050505090806001018054612a8690613988565b80601f0160208091040260200160405190810160405280929190818152602001828054612ab290613988565b8015612aff5780601f10612ad457610100808354040283529160200191612aff565b820191906000526020600020905b815481529060010190602001808311612ae257829003601f168201915b5050505050908060020154908060030154905084565b6004818051602081018201805184825260208301602085012081835280955050505050506000915090508060000160009054906101000a900461ffff16908060000160029054906101000a900460ff16908060010154905083565b828054612b7c90613988565b90600052602060002090601f016020900481019282612b9e5760008555612be5565b82601f10612bb757805160ff1916838001178555612be5565b82800160010185558215612be5579182015b82811115612be4578251825591602001919060010190612bc9565b5b509050612bf29190612bf6565b5090565b5b80821115612c0f576000816000905550600101612bf7565b5090565b6000612c26612c2184613800565b6137db565b905082815260208101848484011115612c4257612c41613b24565b5b612c4d848285613946565b509392505050565b600082601f830112612c6a57612c69613b1f565b5b8135612c7a848260208601612c13565b91505092915050565b600081359050612c9281613cf2565b92915050565b600081359050612ca781613d09565b92915050565b600081359050612cbc81613d20565b92915050565b600060208284031215612cd857612cd7613b2e565b5b600082013567ffffffffffffffff811115612cf657612cf5613b29565b5b612d0284828501612c55565b91505092915050565b600080600080600060a08688031215612d2757612d26613b2e565b5b600086013567ffffffffffffffff811115612d4557612d44613b29565b5b612d5188828901612c55565b955050602086013567ffffffffffffffff811115612d7257612d71613b29565b5b612d7e88828901612c55565b945050604086013567ffffffffffffffff811115612d9f57612d9e613b29565b5b612dab88828901612c55565b9350506060612dbc88828901612c98565b9250506080612dcd88828901612c98565b9150509295509295909350565b60008060008060008060c08789031215612df757612df6613b2e565b5b600087013567ffffffffffffffff811115612e1557612e14613b29565b5b612e2189828a01612c55565b965050602087013567ffffffffffffffff811115612e4257612e41613b29565b5b612e4e89828a01612c55565b955050604087013567ffffffffffffffff811115612e6f57612e6e613b29565b5b612e7b89828a01612c55565b9450506060612e8c89828a01612c98565b9350506080612e9d89828a01612c98565b92505060a087013567ffffffffffffffff811115612ebe57612ebd613b29565b5b612eca89828a01612c55565b9150509295509295509295565b60008060008060808587031215612ef157612ef0613b2e565b5b600085013567ffffffffffffffff811115612f0f57612f0e613b29565b5b612f1b87828801612c55565b945050602085013567ffffffffffffffff811115612f3c57612f3b613b29565b5b612f4887828801612c55565b9350506040612f5987828801612c83565b9250506060612f6a87828801612c98565b91505092959194509250565b60008060008060808587031215612f9057612f8f613b2e565b5b600085013567ffffffffffffffff811115612fae57612fad613b29565b5b612fba87828801612c55565b9450506020612fcb87828801612c83565b9350506040612fdc87828801612c98565b925050606085013567ffffffffffffffff811115612ffd57612ffc613b29565b5b61300987828801612c55565b91505092959194509250565b6000806040838503121561302c5761302b613b2e565b5b600083013567ffffffffffffffff81111561304a57613049613b29565b5b61305685828601612c55565b925050602061306785828601612cad565b9150509250929050565b60006020828403121561308757613086613b2e565b5b600061309584828501612c98565b91505092915050565b60006130aa83836131bb565b905092915050565b60006130be838361344a565b60208301905092915050565b60006130d582613866565b6130df81856138a1565b9350836020820285016130f185613831565b8060005b8581101561312d578484038952815161310e858261309e565b945061311983613887565b925060208a019950506001810190506130f5565b50829750879550505050505092915050565b600061314a82613871565b61315481856138b2565b935061315f83613841565b8060005b8381101561319057815161317788826130b2565b975061318283613894565b925050600181019050613163565b5085935050505092915050565b6131a6816138f0565b82525050565b6131b581613934565b82525050565b60006131c68261387c565b6131d081856138c3565b93506131e0818560208601613955565b6131e981613b33565b840191505092915050565b60006131ff8261387c565b61320981856138d4565b9350613219818560208601613955565b61322281613b33565b840191505092915050565b60006132388261387c565b61324281856138e5565b9350613252818560208601613955565b80840191505092915050565b6000815461326b81613988565b61327581866138e5565b9450600182166000811461329057600181146132a1576132d4565b60ff198316865281860193506132d4565b6132aa85613851565b60005b838110156132cc578154818901526001820191506020810190506132ad565b838801955050505b50505092915050565b60006132ea601a836138d4565b91506132f582613b44565b602082019050919050565b600061330d6017836138d4565b915061331882613b6d565b602082019050919050565b60006133306017836138d4565b915061333b82613b96565b602082019050919050565b60006133536017836138d4565b915061335e82613bbf565b602082019050919050565b60006133766017836138d4565b915061338182613be8565b602082019050919050565b60006133996015836138d4565b91506133a482613c11565b602082019050919050565b60006133bc6014836138d4565b91506133c782613c3a565b602082019050919050565b60006133df6014836138d4565b91506133ea82613c63565b602082019050919050565b6000613402601a836138d4565b915061340d82613c8c565b602082019050919050565b60006134256015836138d4565b915061343082613cb5565b602082019050919050565b6134448161390f565b82525050565b6134538161391d565b82525050565b6134628161391d565b82525050565b6000613474828461322d565b915081905092915050565b600061348b828461325e565b915081905092915050565b600060a08201905081810360008301526134b081886130ca565b905081810360208301526134c481876130ca565b905081810360408301526134d8818661313f565b905081810360608301526134ec81856130ca565b90508181036080830152613500818461313f565b90509695505050505050565b6000602082019050613521600083018461319d565b92915050565b6000602082019050818103600083015261354181846131f4565b905092915050565b6000608082019050818103600083015261356381876131f4565b9050818103602083015261357781866131f4565b90506135866040830185613459565b6135936060830184613459565b95945050505050565b600060808201905081810360008301526135b681876131f4565b90506135c5602083018661343b565b6135d260408301856131ac565b6135df6060830184613459565b95945050505050565b6000608082019050818103600083015261360281876131f4565b90506136116020830186613459565b818103604083015261362381856131f4565b90506136326060830184613459565b95945050505050565b60006020820190508181036000830152613654816132dd565b9050919050565b6000602082019050818103600083015261367481613300565b9050919050565b6000602082019050818103600083015261369481613323565b9050919050565b600060208201905081810360008301526136b481613346565b9050919050565b600060208201905081810360008301526136d481613369565b9050919050565b600060208201905081810360008301526136f48161338c565b9050919050565b60006020820190508181036000830152613714816133af565b9050919050565b60006020820190508181036000830152613734816133d2565b9050919050565b60006020820190508181036000830152613754816133f5565b9050919050565b6000602082019050818103600083015261377481613418565b9050919050565b6000606082019050613790600083018661343b565b61379d602083018561319d565b6137aa6040830184613459565b949350505050565b60006040820190506137c7600083018561343b565b6137d46020830184613459565b9392505050565b60006137e56137f6565b90506137f182826139ba565b919050565b6000604051905090565b600067ffffffffffffffff82111561381b5761381a613af0565b5b61382482613b33565b9050602081019050919050565b6000819050602082019050919050565b6000819050602082019050919050565b60008190508160005260206000209050919050565b600081519050919050565b600081519050919050565b600081519050919050565b6000602082019050919050565b6000602082019050919050565b600082825260208201905092915050565b600082825260208201905092915050565b600082825260208201905092915050565b600082825260208201905092915050565b600081905092915050565b60008115159050919050565b600081905061390a82613cde565b919050565b600061ffff82169050919050565b6000819050919050565b600060ff82169050919050565b600061393f826138fc565b9050919050565b82818337600083830152505050565b60005b83811015613973578082015181840152602081019050613958565b83811115613982576000848401525b50505050565b600060028204905060018216806139a057607f821691505b602082108114156139b4576139b3613a92565b5b50919050565b6139c382613b33565b810181811067ffffffffffffffff821117156139e2576139e1613af0565b5b80604052505050565b60006139f68261391d565b91507fffffffffffffffffffffffffffffffffffffffffffffffffffffffffffffffff821415613a2957613a28613a34565b5b600182019050919050565b7f4e487b7100000000000000000000000000000000000000000000000000000000600052601160045260246000fd5b7f4e487b7100000000000000000000000000000000000000000000000000000000600052602160045260246000fd5b7f4e487b7100000000000000000000000000000000000000000000000000000000600052602260045260246000fd5b7f4e487b7100000000000000000000000000000000000000000000000000000000600052603260045260246000fd5b7f4e487b7100000000000000000000000000000000000000000000000000000000600052604160045260246000fd5b600080fd5b600080fd5b600080fd5b600080fd5b6000601f19601f8301169050919050565b7f50726f64756374696f6e20616c7265616479206578697374732e000000000000600082015250565b7f54657374696e6720616c7265616479206578697374732e000000000000000000600082015250565b7f53746f7261676520616c7265616479206578697374732e000000000000000000600082015250565b7f54657374696e6720646f6573206e6f742065786973742e000000000000000000600082015250565b7f53746f7261676520646f6573206e6f742065786973742e000000000000000000600082015250565b7f4f7264657220616c7265616479206578697374732e0000000000000000000000600082015250565b7f53616c6520646f6573206e6f742065786973742e000000000000000000000000600082015250565b7f53616c6520616c7265616479206578697374732e000000000000000000000000600082015250565b7f50726f64756374696f6e20646f6573206e6f742065786973742e000000000000600082015250565b7f4f7264657220646f6573206e6f742065786973742e0000000000000000000000600082015250565b60048110613cef57613cee613a63565b5b50565b613cfb8161390f565b8114613d0657600080fd5b50565b613d128161391d565b8114613d1d57600080fd5b50565b613d2981613927565b8114613d3457600080fd5b5056fea2646970667358221220df0f42ce2a5784d25a684cebe685c9565faee888595d9d76a66a1de0e501020764736f6c63430008070033",
  "immutableReferences": {},
  "source": "// SPDX-License-Identifier: MIT\npragma solidity ^0.8.0;\n\ncontract Seafeed {\n    enum OrderStatus {\n        ORDERED,\n        PAYMENTRECEIVED,\n        DISPATCHED,\n        ARRIVED\n    }\n\n    struct Production {\n        string BatchID;\n        string FarmID;\n        uint256 Volume;\n        uint256 DateTime; //unix time\n    }\n\n    struct Testing {\n        uint16 Temperature;\n        uint256 DateTime;\n    }\n\n    struct Storage {\n        string Manufacturer;\n        string Location;\n        uint256 DateTime;\n        uint256 BestBefore;\n    }\n\n    struct Sale {\n        uint16 Quantity;\n        bool DispatchDocsAttached;\n        uint256 DateTime;\n    }\n\n    struct Order {\n        string Customer;\n        uint16 Quantity;\n        OrderStatus OS;\n        uint256 DateTime;\n    }\n\n    string[] public allorders;\n\n    // storage of structs\n    mapping(string => Production) public productions;\n    mapping(string => Testing) public testings;\n    mapping(string => Storage) public storages;\n    mapping(string => Sale) public sales;\n    mapping(string => Order) public orders;\n\n    // existence of structs\n    mapping(string => bool) public productionExists;\n    mapping(string => bool) public testingExists;\n    mapping(string => bool) public storageExists;\n    mapping(string => bool) public saleExists;\n    mapping(string => bool) public orderExists;\n\n    // trace from end product to source\n    mapping(string => string) public TestingToProduction;\n    mapping(string => string) public StorageToTesting;\n    mapping(string => string) public SaleToStorage;\n    mapping(string => string) public OrderToSale;\n\n// the setters\n    function registerProduction(\n        string memory _productionid,\n        string memory _batchid,\n        string memory _farmid,\n        uint256 _volume,\n        uint256 _datetime) \n        public\n    {\n        require(!productionExists[_productionid], \"Production already exists.\");\n\n        productionExists[_productionid] = true;\n        productions[_productionid] = Production(_batchid,_farmid,_volume,_datetime);\n    }\n\n    function registerTesting(\n        string memory _testingid,\n        uint16 _temperature,\n        uint256 _datetime,\n        string memory _productionid\n    )\n        public\n    {\n        require(!testingExists[_testingid], \"Testing already exists.\");\n        \n        testingExists[_testingid] = true;\n        testings[_testingid] = Testing(_temperature,_datetime);\n        TestingToProduction[_testingid] = _productionid; // traceability\n    }\n\n    function registerStorage(\n        string memory _storageid,\n        string memory _manufacturer,\n        string memory _location,\n        uint256 _datetime,\n        uint256 _bestbefore,\n        string memory _testingid\n    )\n        public\n    {\n        require(!storageExists[_storageid], \"Storage already exists.\");\n\n        storageExists[_storageid] = true;\n        storages[_storageid] = Storage(_manufacturer,_location,_datetime,_bestbefore);\n        StorageToTesting[_storageid] = _testingid; // traceability\n    }\n\n    // registerSale should be more like \"orderSeafeed\" or registerOrder\n    function registerSale(\n        string memory _saleid,\n        uint16 _quantity,\n        uint256 _datetime,\n        string memory _storageid\n    )\n        public\n    {\n        require(!saleExists[_saleid], \"Sale already exists.\");\n\n        saleExists[_saleid] = true;\n        sales[_saleid] = Sale(_quantity,false,_datetime);   \n        SaleToStorage[_saleid] = _storageid; // traceability\n    }\n\n    function registerOrder(string memory _orderid, string memory _customer, uint16 _quantity, uint256 _datetime) \n        public \n    {\n        require(!orderExists[_orderid], \"Order already exists.\");\n        \n        orderExists[_orderid] = true;\n        orders[_orderid] = Order(_customer,_quantity,OrderStatus.ORDERED,_datetime);\n        allorders.push(_orderid);\n    }\n\n    function updateOrder(string memory _orderid, uint8 _ordertatus) public {\n        orders[_orderid].OS = OrderStatus(_ordertatus);\n    }\n\n// the getters\n    function queryProduction(string memory _productionid) \n        public \n        view \n        returns(\n            string memory,\n            string memory,\n            uint256,\n            uint256) \n    {\n        require(productionExists[_productionid], \"Production does not exist.\");\n        return(\n            productions[_productionid].BatchID,\n            productions[_productionid].FarmID,\n            productions[_productionid].Volume,\n            productions[_productionid].DateTime\n        );\n    }\n\n    function queryTesting(string memory _testingid)\n        public\n        view\n        returns(\n            uint16,\n            uint256\n        )\n    {\n        require(testingExists[_testingid], \"Testing does not exist.\");\n        return(\n            testings[_testingid].Temperature,\n            testings[_testingid].DateTime\n        );\n    }\n\n    function queryStorage(string memory _storageid)\n        public\n        view\n        returns(\n            string memory,\n            string memory,\n            uint256,\n            uint256\n        )\n    {\n        require(storageExists[_storageid],\"Storage does not exist.\");\n        return(\n            storages[_storageid].Manufacturer,\n            storages[_storageid].Location,\n            storages[_storageid].DateTime,\n            storages[_storageid].BestBefore\n        );\n    }\n\n    function querySale(string memory _saleid)\n        public\n        view\n        returns(\n            uint16,\n            bool,\n            uint256\n        )\n    {\n        require(saleExists[_saleid], \"Sale does not exist.\");\n        return(\n            sales[_saleid].Quantity,\n            sales[_saleid].DispatchDocsAttached,\n            sales[_saleid].DateTime\n        );\n    }\n\n    function queryOrder(string memory _orderid)\n        public\n        view\n        returns(\n            string memory,\n            uint256,\n            string memory,\n            uint256)\n    {\n        require(orderExists[_orderid], \"Order does not exist.\");\n\n        string memory orderstatus;\n        if (orders[_orderid].OS == OrderStatus.ORDERED) {\n            orderstatus = \"Ordered\";\n        } else if (orders[_orderid].OS == OrderStatus.PAYMENTRECEIVED) {\n            orderstatus = \"Paymentreceived\";\n        } else if (orders[_orderid].OS == OrderStatus.DISPATCHED) {\n            orderstatus = \"Dispatched\";\n        } else if (orders[_orderid].OS == OrderStatus.ARRIVED) {\n            orderstatus = \"Arrived\";\n        } else {\n            orderstatus = \"Unknown\";\n        }\n\n        return(\n            orders[_orderid].Customer,\n            orders[_orderid].Quantity,\n            orderstatus,\n            orders[_orderid].DateTime\n        );\n    }\n\n    function queryAllOrders() public view \n        returns(\n            string[] memory,\n            string[] memory,\n            uint256[] memory,\n            string[] memory,\n            uint256[] memory\n        )\n    {\n        string[] memory customers = new string[](allorders.length);\n        uint256[] memory quantities = new uint256[](allorders.length);\n        string[] memory statuss = new string[](allorders.length);\n        uint256[] memory datetimes = new uint256[](allorders.length);\n\n        for(uint256 i=0; i<allorders.length; i++) {\n            if (orders[allorders[i]].OS == OrderStatus.ORDERED) {\n                statuss[i] = \"Ordered\";\n            } else if (orders[allorders[i]].OS == OrderStatus.PAYMENTRECEIVED) {\n                statuss[i] = \"Paymentreceived\";\n            } else if (orders[allorders[i]].OS == OrderStatus.DISPATCHED) {\n                statuss[i] = \"Dispatched\";\n            } else if (orders[allorders[i]].OS == OrderStatus.ARRIVED) {\n                statuss[i] = \"Arrived\";\n            } else {\n                statuss[i] = \"Unknown\";\n            }\n\n            customers[i] = orders[allorders[i]].Customer;\n            quantities[i] = orders[allorders[i]].Quantity;\n            datetimes[i] = orders[allorders[i]].DateTime;\n        }\n\n        return(allorders,customers,quantities,statuss,datetimes);\n    }\n\n    // use an orderid to trace back to source\n    function queryOrderSource(string memory _orderid) public view returns (string memory) {\n        string memory saleid = OrderToSale[_orderid];\n        string memory storageid = TestingToProduction[saleid];\n        string memory testingid = StorageToTesting[storageid];\n        string memory productionid = SaleToStorage[testingid];\n        return productionid;\n    }\n}",
  "sourcePath": "/home/yih/Documents/dev/beston-dapps/contracts/carbon/Seafeed.sol",
  "compiler": {
    "name": "solc",
    "version": "0.8.7+commit.e28d00a7.Emscripten.clang"
  },
  "schemaVersion": "3.4.1",
  "updatedAt": "2023-05-31T06:20:28.738Z",
  "networkType": "ethereum",
  "devdoc": {
    "kind": "dev",
    "methods": {},
    "version": 1
  },
  "userdoc": {
    "kind": "user",
    "methods": {},
    "version": 1
  }
}