{
  "contractName": "SeafeedRegistry",
  "abi": [
    {
      "inputs": [
        {
          "internalType": "string",
          "name": "",
          "type": "string"
        }
      ],
      "name": "OrderToSale",
      "outputs": [
        {
          "internalType": "string",
          "name": "",
          "type": "string"
        }
      ],
      "stateMutability": "view",
      "type": "function",
      "constant": true
    },
    {
      "inputs": [
        {
          "internalType": "string",
          "name": "",
          "type": "string"
        }
      ],
      "name": "SaleToStorage",
      "outputs": [
        {
          "internalType": "string",
          "name": "",
          "type": "string"
        }
      ],
      "stateMutability": "view",
      "type": "function",
      "constant": true
    },
    {
      "inputs": [
        {
          "internalType": "string",
          "name": "",
          "type": "string"
        }
      ],
      "name": "StorageToTesting",
      "outputs": [
        {
          "internalType": "string",
          "name": "",
          "type": "string"
        }
      ],
      "stateMutability": "view",
      "type": "function",
      "constant": true
    },
    {
      "inputs": [
        {
          "internalType": "string",
          "name": "",
          "type": "string"
        }
      ],
      "name": "TestingToProduction",
      "outputs": [
        {
          "internalType": "string",
          "name": "",
          "type": "string"
        }
      ],
      "stateMutability": "view",
      "type": "function",
      "constant": true
    },
    {
      "inputs": [
        {
          "internalType": "uint256",
          "name": "",
          "type": "uint256"
        }
      ],
      "name": "allorders",
      "outputs": [
        {
          "internalType": "string",
          "name": "",
          "type": "string"
        }
      ],
      "stateMutability": "view",
      "type": "function",
      "constant": true
    },
    {
      "inputs": [
        {
          "internalType": "string",
          "name": "",
          "type": "string"
        }
      ],
      "name": "orderExists",
      "outputs": [
        {
          "internalType": "bool",
          "name": "",
          "type": "bool"
        }
      ],
      "stateMutability": "view",
      "type": "function",
      "constant": true
    },
    {
      "inputs": [
        {
          "internalType": "string",
          "name": "",
          "type": "string"
        }
      ],
      "name": "orders",
      "outputs": [
        {
          "internalType": "string",
          "name": "Customer",
          "type": "string"
        },
        {
          "internalType": "address",
          "name": "CustomerAddr",
          "type": "address"
        },
        {
          "internalType": "uint16",
          "name": "Quantity",
          "type": "uint16"
        },
        {
          "internalType": "enum SeafeedRegistry.OrderStatus",
          "name": "OS",
          "type": "uint8"
        },
        {
          "internalType": "uint256",
          "name": "DateTime",
          "type": "uint256"
        }
      ],
      "stateMutability": "view",
      "type": "function",
      "constant": true
    },
    {
      "inputs": [
        {
          "internalType": "string",
          "name": "",
          "type": "string"
        }
      ],
      "name": "productionExists",
      "outputs": [
        {
          "internalType": "bool",
          "name": "",
          "type": "bool"
        }
      ],
      "stateMutability": "view",
      "type": "function",
      "constant": true
    },
    {
      "inputs": [
        {
          "internalType": "string",
          "name": "",
          "type": "string"
        }
      ],
      "name": "productions",
      "outputs": [
        {
          "internalType": "string",
          "name": "BatchID",
          "type": "string"
        },
        {
          "internalType": "string",
          "name": "FarmID",
          "type": "string"
        },
        {
          "internalType": "uint256",
          "name": "Volume",
          "type": "uint256"
        },
        {
          "internalType": "uint256",
          "name": "DateTime",
          "type": "uint256"
        }
      ],
      "stateMutability": "view",
      "type": "function",
      "constant": true
    },
    {
      "inputs": [
        {
          "internalType": "string",
          "name": "",
          "type": "string"
        }
      ],
      "name": "saleExists",
      "outputs": [
        {
          "internalType": "bool",
          "name": "",
          "type": "bool"
        }
      ],
      "stateMutability": "view",
      "type": "function",
      "constant": true
    },
    {
      "inputs": [
        {
          "internalType": "string",
          "name": "",
          "type": "string"
        }
      ],
      "name": "sales",
      "outputs": [
        {
          "internalType": "uint16",
          "name": "Quantity",
          "type": "uint16"
        },
        {
          "internalType": "bool",
          "name": "DispatchDocsAttached",
          "type": "bool"
        },
        {
          "internalType": "uint256",
          "name": "DateTime",
          "type": "uint256"
        }
      ],
      "stateMutability": "view",
      "type": "function",
      "constant": true
    },
    {
      "inputs": [
        {
          "internalType": "string",
          "name": "",
          "type": "string"
        }
      ],
      "name": "storageExists",
      "outputs": [
        {
          "internalType": "bool",
          "name": "",
          "type": "bool"
        }
      ],
      "stateMutability": "view",
      "type": "function",
      "constant": true
    },
    {
      "inputs": [
        {
          "internalType": "string",
          "name": "",
          "type": "string"
        }
      ],
      "name": "storages",
      "outputs": [
        {
          "internalType": "string",
          "name": "Manufacturer",
          "type": "string"
        },
        {
          "internalType": "string",
          "name": "Location",
          "type": "string"
        },
        {
          "internalType": "uint256",
          "name": "DateTime",
          "type": "uint256"
        },
        {
          "internalType": "uint256",
          "name": "BestBefore",
          "type": "uint256"
        }
      ],
      "stateMutability": "view",
      "type": "function",
      "constant": true
    },
    {
      "inputs": [
        {
          "internalType": "string",
          "name": "",
          "type": "string"
        }
      ],
      "name": "testingExists",
      "outputs": [
        {
          "internalType": "bool",
          "name": "",
          "type": "bool"
        }
      ],
      "stateMutability": "view",
      "type": "function",
      "constant": true
    },
    {
      "inputs": [
        {
          "internalType": "string",
          "name": "",
          "type": "string"
        }
      ],
      "name": "testings",
      "outputs": [
        {
          "internalType": "uint16",
          "name": "Temperature",
          "type": "uint16"
        },
        {
          "internalType": "uint256",
          "name": "DateTime",
          "type": "uint256"
        }
      ],
      "stateMutability": "view",
      "type": "function",
      "constant": true
    },
    {
      "inputs": [
        {
          "internalType": "string",
          "name": "_productionid",
          "type": "string"
        },
        {
          "internalType": "string",
          "name": "_batchid",
          "type": "string"
        },
        {
          "internalType": "string",
          "name": "_farmid",
          "type": "string"
        },
        {
          "internalType": "uint256",
          "name": "_volume",
          "type": "uint256"
        },
        {
          "internalType": "uint256",
          "name": "_datetime",
          "type": "uint256"
        }
      ],
      "name": "logProduction",
      "outputs": [],
      "stateMutability": "nonpayable",
      "type": "function"
    },
    {
      "inputs": [
        {
          "internalType": "string",
          "name": "_testingid",
          "type": "string"
        },
        {
          "internalType": "uint16",
          "name": "_temperature",
          "type": "uint16"
        },
        {
          "internalType": "uint256",
          "name": "_datetime",
          "type": "uint256"
        },
        {
          "internalType": "string",
          "name": "_productionid",
          "type": "string"
        }
      ],
      "name": "logTesting",
      "outputs": [],
      "stateMutability": "nonpayable",
      "type": "function"
    },
    {
      "inputs": [
        {
          "internalType": "string",
          "name": "_storageid",
          "type": "string"
        },
        {
          "internalType": "string",
          "name": "_manufacturer",
          "type": "string"
        },
        {
          "internalType": "string",
          "name": "_location",
          "type": "string"
        },
        {
          "internalType": "uint256",
          "name": "_datetime",
          "type": "uint256"
        },
        {
          "internalType": "uint256",
          "name": "_bestbefore",
          "type": "uint256"
        },
        {
          "internalType": "string",
          "name": "_testingid",
          "type": "string"
        }
      ],
      "name": "logStorage",
      "outputs": [],
      "stateMutability": "nonpayable",
      "type": "function"
    },
    {
      "inputs": [
        {
          "internalType": "string",
          "name": "_saleid",
          "type": "string"
        },
        {
          "internalType": "uint16",
          "name": "_quantity",
          "type": "uint16"
        },
        {
          "internalType": "uint256",
          "name": "_datetime",
          "type": "uint256"
        },
        {
          "internalType": "string",
          "name": "_storageid",
          "type": "string"
        }
      ],
      "name": "logSale",
      "outputs": [],
      "stateMutability": "nonpayable",
      "type": "function"
    },
    {
      "inputs": [
        {
          "internalType": "string",
          "name": "_orderid",
          "type": "string"
        },
        {
          "internalType": "string",
          "name": "_customer",
          "type": "string"
        },
        {
          "internalType": "address",
          "name": "_customeraddr",
          "type": "address"
        },
        {
          "internalType": "uint16",
          "name": "_quantity",
          "type": "uint16"
        },
        {
          "internalType": "uint256",
          "name": "_datetime",
          "type": "uint256"
        },
        {
          "internalType": "string",
          "name": "_saleid",
          "type": "string"
        }
      ],
      "name": "logOrder",
      "outputs": [],
      "stateMutability": "nonpayable",
      "type": "function"
    },
    {
      "inputs": [
        {
          "internalType": "string",
          "name": "_orderid",
          "type": "string"
        },
        {
          "internalType": "uint8",
          "name": "_ordertatus",
          "type": "uint8"
        }
      ],
      "name": "updateOrder",
      "outputs": [],
      "stateMutability": "nonpayable",
      "type": "function"
    },
    {
      "inputs": [
        {
          "internalType": "string",
          "name": "_productionid",
          "type": "string"
        }
      ],
      "name": "queryProduction",
      "outputs": [
        {
          "internalType": "string",
          "name": "",
          "type": "string"
        },
        {
          "internalType": "string",
          "name": "",
          "type": "string"
        },
        {
          "internalType": "uint256",
          "name": "",
          "type": "uint256"
        },
        {
          "internalType": "uint256",
          "name": "",
          "type": "uint256"
        }
      ],
      "stateMutability": "view",
      "type": "function",
      "constant": true
    },
    {
      "inputs": [
        {
          "internalType": "string",
          "name": "_testingid",
          "type": "string"
        }
      ],
      "name": "queryTesting",
      "outputs": [
        {
          "internalType": "uint16",
          "name": "",
          "type": "uint16"
        },
        {
          "internalType": "uint256",
          "name": "",
          "type": "uint256"
        }
      ],
      "stateMutability": "view",
      "type": "function",
      "constant": true
    },
    {
      "inputs": [
        {
          "internalType": "string",
          "name": "_storageid",
          "type": "string"
        }
      ],
      "name": "queryStorage",
      "outputs": [
        {
          "internalType": "string",
          "name": "",
          "type": "string"
        },
        {
          "internalType": "string",
          "name": "",
          "type": "string"
        },
        {
          "internalType": "uint256",
          "name": "",
          "type": "uint256"
        },
        {
          "internalType": "uint256",
          "name": "",
          "type": "uint256"
        }
      ],
      "stateMutability": "view",
      "type": "function",
      "constant": true
    },
    {
      "inputs": [
        {
          "internalType": "string",
          "name": "_saleid",
          "type": "string"
        }
      ],
      "name": "querySale",
      "outputs": [
        {
          "internalType": "uint16",
          "name": "",
          "type": "uint16"
        },
        {
          "internalType": "bool",
          "name": "",
          "type": "bool"
        },
        {
          "internalType": "uint256",
          "name": "",
          "type": "uint256"
        }
      ],
      "stateMutability": "view",
      "type": "function",
      "constant": true
    },
    {
      "inputs": [
        {
          "internalType": "string",
          "name": "_orderid",
          "type": "string"
        }
      ],
      "name": "queryOrder",
      "outputs": [
        {
          "internalType": "string",
          "name": "",
          "type": "string"
        },
        {
          "internalType": "address",
          "name": "",
          "type": "address"
        },
        {
          "internalType": "uint16",
          "name": "",
          "type": "uint16"
        },
        {
          "internalType": "string",
          "name": "",
          "type": "string"
        },
        {
          "internalType": "uint256",
          "name": "",
          "type": "uint256"
        }
      ],
      "stateMutability": "view",
      "type": "function",
      "constant": true
    },
    {
      "inputs": [],
      "name": "queryAllOrders",
      "outputs": [
        {
          "internalType": "string[]",
          "name": "",
          "type": "string[]"
        },
        {
          "internalType": "string[]",
          "name": "",
          "type": "string[]"
        },
        {
          "internalType": "address[]",
          "name": "",
          "type": "address[]"
        },
        {
          "internalType": "uint256[]",
          "name": "",
          "type": "uint256[]"
        },
        {
          "internalType": "string[]",
          "name": "",
          "type": "string[]"
        },
        {
          "internalType": "uint256[]",
          "name": "",
          "type": "uint256[]"
        }
      ],
      "stateMutability": "view",
      "type": "function",
      "constant": true
    },
    {
      "inputs": [
        {
          "internalType": "string",
          "name": "_orderid",
          "type": "string"
        }
      ],
      "name": "queryOrderSource",
      "outputs": [
        {
          "internalType": "string",
          "name": "",
          "type": "string"
        },
        {
          "internalType": "string",
          "name": "",
          "type": "string"
        },
        {
          "internalType": "string",
          "name": "",
          "type": "string"
        },
        {
          "internalType": "string",
          "name": "",
          "type": "string"
        }
      ],
      "stateMutability": "view",
      "type": "function",
      "constant": true
    }
  ],
  "bytecode": "0x608060405234801561001057600080fd5b506146ac806100206000396000f3fe608060405234801561001057600080fd5b50600436106101c45760003560e01c8063936ee97d116100f9578063be8a14e411610097578063db5607de11610071578063db5607de146105dc578063ed3d3f6d1461060c578063ee916ce31461063c578063fbb37cf21461066f576101c4565b8063be8a14e41461055f578063bf3de2a41461058f578063c5ed48f0146105c0576101c4565b8063a959d585116100d3578063a959d585146104bf578063aad7c3a4146104ef578063b327882614610512578063b60cb15414610543576101c4565b8063936ee97d1461042d57806393c1f7c51461045f5780639d15b2d31461048f576101c4565b80634dd41460116101665780637bc20c71116101405780637bc20c711461037a57806385f71c2d146103965780638886244e146103c957806392d18c04146103f9576101c4565b80634dd414601461030f5780635bde92481461032b5780637bacb8cc14610347576101c4565b80631a948947116101a25780631a9489471461025c578063206614d5146102905780634b8133c6146102c05780634c6614c9146102f3576101c4565b806306627845146101c95780631475793e146101fc5780631876bd381461022c575b600080fd5b6101e360048036038101906101de919061313d565b6106a1565b6040516101f39493929190613c7a565b60405180910390f35b6102166004803603810190610211919061352e565b6107f7565b6040516102239190613b3c565b60405180910390f35b6102466004803603810190610241919061313d565b6108a3565b6040516102539190613b3c565b60405180910390f35b6102766004803603810190610271919061313d565b610959565b604051610287959493929190613b5e565b60405180910390f35b6102aa60048036038101906102a5919061313d565b610a68565b6040516102b79190613b21565b60405180910390f35b6102da60048036038101906102d5919061313d565b610a9e565b6040516102ea9493929190613c7a565b60405180910390f35b61030d60048036038101906103089190613267565b610cbc565b005b61032960048036038101906103249190613186565b610df6565b005b610345600480360381019061034091906134d2565b61112b565b005b610361600480360381019061035c919061313d565b6111f8565b6040516103719493929190613c7a565b60405180910390f35b610394600480360381019061038f9190613336565b611416565b005b6103b060048036038101906103ab919061313d565b6115ef565b6040516103c09493929190613c19565b60405180910390f35b6103e360048036038101906103de919061313d565b611923565b6040516103f09190613b21565b60405180910390f35b610413600480360381019061040e919061313d565b611959565b604051610424959493929190613bb8565b60405180910390f35b6104476004803603810190610442919061313d565b611dc0565b60405161045693929190613ead565b60405180910390f35b6104796004803603810190610474919061313d565b611ebe565b6040516104869190613b3c565b60405180910390f35b6104a960048036038101906104a4919061313d565b611f74565b6040516104b69190613b21565b60405180910390f35b6104d960048036038101906104d4919061313d565b611faa565b6040516104e69190613b21565b60405180910390f35b6104f7611fe0565b60405161050996959493929190613a96565b60405180910390f35b61052c6004803603810190610527919061313d565b6127ed565b60405161053a929190613ee4565b60405180910390f35b61055d60048036038101906105589190613433565b6128b6565b005b6105796004803603810190610574919061313d565b612a64565b6040516105869190613b3c565b60405180910390f35b6105a960048036038101906105a4919061313d565b612b1a565b6040516105b7929190613ee4565b60405180910390f35b6105da60048036038101906105d59190613433565b612b62565b005b6105f660048036038101906105f1919061313d565b612d39565b6040516106039190613b3c565b60405180910390f35b6106266004803603810190610621919061313d565b612def565b6040516106339190613b21565b60405180910390f35b6106566004803603810190610651919061313d565b612e25565b6040516106669493929190613c7a565b60405180910390f35b6106896004803603810190610684919061313d565b612f7b565b60405161069893929190613ead565b60405180910390f35b6001818051602081018201805184825260208301602085012081835280955050505050506000915090508060000180546106da90614125565b80601f016020809104026020016040519081016040528092919081815260200182805461070690614125565b80156107535780601f1061072857610100808354040283529160200191610753565b820191906000526020600020905b81548152906001019060200180831161073657829003601f168201915b50505050509080600101805461076890614125565b80601f016020809104026020016040519081016040528092919081815260200182805461079490614125565b80156107e15780601f106107b6576101008083540402835291602001916107e1565b820191906000526020600020905b8154815290600101906020018083116107c457829003601f168201915b5050505050908060020154908060030154905084565b6000818154811061080757600080fd5b90600052602060002001600091509050805461082290614125565b80601f016020809104026020016040519081016040528092919081815260200182805461084e90614125565b801561089b5780601f106108705761010080835404028352916020019161089b565b820191906000526020600020905b81548152906001019060200180831161087e57829003601f168201915b505050505081565b600e8180516020810182018051848252602083016020850120818352809550505050505060009150905080546108d890614125565b80601f016020809104026020016040519081016040528092919081815260200182805461090490614125565b80156109515780601f1061092657610100808354040283529160200191610951565b820191906000526020600020905b81548152906001019060200180831161093457829003601f168201915b505050505081565b60058180516020810182018051848252602083016020850120818352809550505050505060009150905080600001805461099290614125565b80601f01602080910402602001604051908101604052809291908181526020018280546109be90614125565b8015610a0b5780601f106109e057610100808354040283529160200191610a0b565b820191906000526020600020905b8154815290600101906020018083116109ee57829003601f168201915b5050505050908060010160009054906101000a900473ffffffffffffffffffffffffffffffffffffffff16908060010160149054906101000a900461ffff16908060010160169054906101000a900460ff16908060020154905085565b6008818051602081018201805184825260208301602085012081835280955050505050506000915054906101000a900460ff1681565b606080600080600885604051610ab49190613a68565b908152602001604051809103902060009054906101000a900460ff16610b0f576040517f08c379a0000000000000000000000000000000000000000000000000000000008152600401610b0690613dcd565b60405180910390fd5b600385604051610b1f9190613a68565b9081526020016040518091039020600001600386604051610b409190613a68565b9081526020016040518091039020600101600387604051610b619190613a68565b908152602001604051809103902060020154600388604051610b839190613a68565b908152602001604051809103902060030154838054610ba190614125565b80601f0160208091040260200160405190810160405280929190818152602001828054610bcd90614125565b8015610c1a5780601f10610bef57610100808354040283529160200191610c1a565b820191906000526020600020905b815481529060010190602001808311610bfd57829003601f168201915b50505050509350828054610c2d90614125565b80601f0160208091040260200160405190810160405280929190818152602001828054610c5990614125565b8015610ca65780601f10610c7b57610100808354040283529160200191610ca6565b820191906000526020600020905b815481529060010190602001808311610c8957829003601f168201915b5050505050925093509350935093509193509193565b600685604051610ccc9190613a68565b908152602001604051809103902060009054906101000a900460ff1615610d28576040517f08c379a0000000000000000000000000000000000000000000000000000000008152600401610d1f90613ced565b60405180910390fd5b6001600686604051610d3a9190613a68565b908152602001604051809103902060006101000a81548160ff021916908315150217905550604051806080016040528085815260200184815260200183815260200182815250600186604051610d909190613a68565b90815260200160405180910390206000820151816000019080519060200190610dba929190612fd6565b506020820151816001019080519060200190610dd7929190612fd6565b5060408201518160020155606082015181600301559050505050505050565b600a86604051610e069190613a68565b908152602001604051809103902060009054906101000a900460ff1615610e62576040517f08c379a0000000000000000000000000000000000000000000000000000000008152600401610e5990613ded565b60405180910390fd5b600981604051610e729190613a68565b908152602001604051809103902060009054906101000a900460ff16610ecd576040517f08c379a0000000000000000000000000000000000000000000000000000000008152600401610ec490613ccd565b60405180910390fd5b600481604051610edd9190613a68565b908152602001604051809103902060000160009054906101000a900461ffff1661ffff168361ffff161115610f47576040517f08c379a0000000000000000000000000000000000000000000000000000000008152600401610f3e90613e8d565b60405180910390fd5b6001600a87604051610f599190613a68565b908152602001604051809103902060006101000a81548160ff0219169083151502179055506040518060a001604052808681526020018573ffffffffffffffffffffffffffffffffffffffff1681526020018461ffff16815260200160006003811115610fc957610fc8614200565b5b815260200183815250600587604051610fe29190613a68565b9081526020016040518091039020600082015181600001908051906020019061100c929190612fd6565b5060208201518160010160006101000a81548173ffffffffffffffffffffffffffffffffffffffff021916908373ffffffffffffffffffffffffffffffffffffffff16021790555060408201518160010160146101000a81548161ffff021916908361ffff16021790555060608201518160010160166101000a81548160ff021916908360038111156110a2576110a1614200565b5b02179055506080820151816002015590505080600e876040516110c59190613a68565b908152602001604051809103902090805190602001906110e6929190612fd6565b50600086908060018154018082558091505060019003906000526020600020016000909190919091509080519060200190611122929190612fd6565b50505050505050565b600a8260405161113b9190613a68565b908152602001604051809103902060009054906101000a900460ff16611196576040517f08c379a000000000000000000000000000000000000000000000000000000000815260040161118d90613e6d565b60405180910390fd5b8060ff1660038111156111ac576111ab614200565b5b6005836040516111bc9190613a68565b908152602001604051809103902060010160166101000a81548160ff021916908360038111156111ef576111ee614200565b5b02179055505050565b60608060008060068560405161120e9190613a68565b908152602001604051809103902060009054906101000a900460ff16611269576040517f08c379a000000000000000000000000000000000000000000000000000000000815260040161126090613e4d565b60405180910390fd5b6001856040516112799190613a68565b908152602001604051809103902060000160018660405161129a9190613a68565b90815260200160405180910390206001016001876040516112bb9190613a68565b9081526020016040518091039020600201546001886040516112dd9190613a68565b9081526020016040518091039020600301548380546112fb90614125565b80601f016020809104026020016040519081016040528092919081815260200182805461132790614125565b80156113745780601f1061134957610100808354040283529160200191611374565b820191906000526020600020905b81548152906001019060200180831161135757829003601f168201915b5050505050935082805461138790614125565b80601f01602080910402602001604051908101604052809291908181526020018280546113b390614125565b80156114005780601f106113d557610100808354040283529160200191611400565b820191906000526020600020905b8154815290600101906020018083116113e357829003601f168201915b5050505050925093509350935093509193509193565b6008866040516114269190613a68565b908152602001604051809103902060009054906101000a900460ff1615611482576040517f08c379a000000000000000000000000000000000000000000000000000000000815260040161147990613d8d565b60405180910390fd5b6007816040516114929190613a68565b908152602001604051809103902060009054906101000a900460ff166114ed576040517f08c379a00000000000000000000000000000000000000000000000000000000081526004016114e490613d6d565b60405180910390fd5b60016008876040516114ff9190613a68565b908152602001604051809103902060006101000a81548160ff0219169083151502179055506040518060800160405280868152602001858152602001848152602001838152506003876040516115559190613a68565b9081526020016040518091039020600082015181600001908051906020019061157f929190612fd6565b50602082015181600101908051906020019061159c929190612fd6565b50604082015181600201556060820151816003015590505080600c876040516115c59190613a68565b908152602001604051809103902090805190602001906115e6929190612fd6565b50505050505050565b606080606080600a856040516116059190613a68565b908152602001604051809103902060009054906101000a900460ff16611660576040517f08c379a000000000000000000000000000000000000000000000000000000000815260040161165790613e6d565b60405180910390fd5b6000600e866040516116729190613a68565b9081526020016040518091039020805461168b90614125565b80601f01602080910402602001604051908101604052809291908181526020018280546116b790614125565b80156117045780601f106116d957610100808354040283529160200191611704565b820191906000526020600020905b8154815290600101906020018083116116e757829003601f168201915b505050505090506000600d8260405161171d9190613a68565b9081526020016040518091039020805461173690614125565b80601f016020809104026020016040519081016040528092919081815260200182805461176290614125565b80156117af5780601f10611784576101008083540402835291602001916117af565b820191906000526020600020905b81548152906001019060200180831161179257829003601f168201915b505050505090506000600c826040516117c89190613a68565b908152602001604051809103902080546117e190614125565b80601f016020809104026020016040519081016040528092919081815260200182805461180d90614125565b801561185a5780601f1061182f5761010080835404028352916020019161185a565b820191906000526020600020905b81548152906001019060200180831161183d57829003601f168201915b505050505090506000600b826040516118739190613a68565b9081526020016040518091039020805461188c90614125565b80601f01602080910402602001604051908101604052809291908181526020018280546118b890614125565b80156119055780601f106118da57610100808354040283529160200191611905565b820191906000526020600020905b8154815290600101906020018083116118e857829003601f168201915b50505050509050808284869750975097509750505050509193509193565b6006818051602081018201805184825260208301602085012081835280955050505050506000915054906101000a900460ff1681565b606060008060606000600a866040516119729190613a68565b908152602001604051809103902060009054906101000a900460ff166119cd576040517f08c379a00000000000000000000000000000000000000000000000000000000081526004016119c490613e6d565b60405180910390fd5b6060600060038111156119e3576119e2614200565b5b6005886040516119f39190613a68565b908152602001604051809103902060010160169054906101000a900460ff166003811115611a2457611a23614200565b5b1415611a67576040518060400160405280600781526020017f4f726465726564000000000000000000000000000000000000000000000000008152509050611c6a565b60016003811115611a7b57611a7a614200565b5b600588604051611a8b9190613a68565b908152602001604051809103902060010160169054906101000a900460ff166003811115611abc57611abb614200565b5b1415611aff576040518060400160405280600f81526020017f5061796d656e74726563656976656400000000000000000000000000000000008152509050611c69565b60026003811115611b1357611b12614200565b5b600588604051611b239190613a68565b908152602001604051809103902060010160169054906101000a900460ff166003811115611b5457611b53614200565b5b1415611b97576040518060400160405280600a81526020017f44697370617463686564000000000000000000000000000000000000000000008152509050611c68565b600380811115611baa57611ba9614200565b5b600588604051611bba9190613a68565b908152602001604051809103902060010160169054906101000a900460ff166003811115611beb57611bea614200565b5b1415611c2e576040518060400160405280600781526020017f41727269766564000000000000000000000000000000000000000000000000008152509050611c67565b6040518060400160405280600781526020017f556e6b6e6f776e0000000000000000000000000000000000000000000000000081525090505b5b5b5b600587604051611c7a9190613a68565b9081526020016040518091039020600001600588604051611c9b9190613a68565b908152602001604051809103902060010160009054906101000a900473ffffffffffffffffffffffffffffffffffffffff16600589604051611cdd9190613a68565b908152602001604051809103902060010160149054906101000a900461ffff168360058b604051611d0e9190613a68565b908152602001604051809103902060020154848054611d2c90614125565b80601f0160208091040260200160405190810160405280929190818152602001828054611d5890614125565b8015611da55780601f10611d7a57610100808354040283529160200191611da5565b820191906000526020600020905b815481529060010190602001808311611d8857829003601f168201915b50505050509450955095509550955095505091939590929450565b6000806000600984604051611dd59190613a68565b908152602001604051809103902060009054906101000a900460ff16611e30576040517f08c379a0000000000000000000000000000000000000000000000000000000008152600401611e2790613e0d565b60405180910390fd5b600484604051611e409190613a68565b908152602001604051809103902060000160009054906101000a900461ffff16600485604051611e709190613a68565b908152602001604051809103902060000160029054906101000a900460ff16600486604051611e9f9190613a68565b9081526020016040518091039020600101549250925092509193909250565b600c818051602081018201805184825260208301602085012081835280955050505050506000915090508054611ef390614125565b80601f0160208091040260200160405190810160405280929190818152602001828054611f1f90614125565b8015611f6c5780601f10611f4157610100808354040283529160200191611f6c565b820191906000526020600020905b815481529060010190602001808311611f4f57829003601f168201915b505050505081565b6009818051602081018201805184825260208301602085012081835280955050505050506000915054906101000a900460ff1681565b600a818051602081018201805184825260208301602085012081835280955050505050506000915054906101000a900460ff1681565b6060806060806060806000808054905067ffffffffffffffff8111156120095761200861428d565b5b60405190808252806020026020018201604052801561203c57816020015b60608152602001906001900390816120275790505b5090506000808054905067ffffffffffffffff81111561205f5761205e61428d565b5b60405190808252806020026020018201604052801561208d5781602001602082028036833780820191505090505b5090506000808054905067ffffffffffffffff8111156120b0576120af61428d565b5b6040519080825280602002602001820160405280156120de5781602001602082028036833780820191505090505b5090506000808054905067ffffffffffffffff8111156121015761210061428d565b5b60405190808252806020026020018201604052801561213457816020015b606081526020019060019003908161211f5790505b5090506000808054905067ffffffffffffffff8111156121575761215661428d565b5b6040519080825280602002602001820160405280156121855781602001602082028036833780820191505090505b50905060005b6000805490508110156126f957600060038111156121ac576121ab614200565b5b6005600083815481106121c2576121c161425e565b5b906000526020600020016040516121d99190613a7f565b908152602001604051809103902060010160169054906101000a900460ff16600381111561220a57612209614200565b5b1415612269576040518060400160405280600781526020017f4f726465726564000000000000000000000000000000000000000000000000008152508382815181106122595761225861425e565b5b6020026020010181905250612533565b6001600381111561227d5761227c614200565b5b6005600083815481106122935761229261425e565b5b906000526020600020016040516122aa9190613a7f565b908152602001604051809103902060010160169054906101000a900460ff1660038111156122db576122da614200565b5b141561233a576040518060400160405280600f81526020017f5061796d656e747265636569766564000000000000000000000000000000000081525083828151811061232a5761232961425e565b5b6020026020010181905250612532565b6002600381111561234e5761234d614200565b5b6005600083815481106123645761236361425e565b5b9060005260206000200160405161237b9190613a7f565b908152602001604051809103902060010160169054906101000a900460ff1660038111156123ac576123ab614200565b5b141561240b576040518060400160405280600a81526020017f44697370617463686564000000000000000000000000000000000000000000008152508382815181106123fb576123fa61425e565b5b6020026020010181905250612531565b60038081111561241e5761241d614200565b5b6005600083815481106124345761243361425e565b5b9060005260206000200160405161244b9190613a7f565b908152602001604051809103902060010160169054906101000a900460ff16600381111561247c5761247b614200565b5b14156124db576040518060400160405280600781526020017f41727269766564000000000000000000000000000000000000000000000000008152508382815181106124cb576124ca61425e565b5b6020026020010181905250612530565b6040518060400160405280600781526020017f556e6b6e6f776e000000000000000000000000000000000000000000000000008152508382815181106125245761252361425e565b5b60200260200101819052505b5b5b5b6005600082815481106125495761254861425e565b5b906000526020600020016040516125609190613a7f565b9081526020016040518091039020600001805461257c90614125565b80601f01602080910402602001604051908101604052809291908181526020018280546125a890614125565b80156125f55780601f106125ca576101008083540402835291602001916125f5565b820191906000526020600020905b8154815290600101906020018083116125d857829003601f168201915b505050505086828151811061260d5761260c61425e565b5b602002602001018190525060056000828154811061262e5761262d61425e565b5b906000526020600020016040516126459190613a7f565b908152602001604051809103902060010160149054906101000a900461ffff1661ffff1684828151811061267c5761267b61425e565b5b60200260200101818152505060056000828154811061269e5761269d61425e565b5b906000526020600020016040516126b59190613a7f565b9081526020016040518091039020600201548282815181106126da576126d961425e565b5b60200260200101818152505080806126f190614188565b91505061218b565b506000858585858585805480602002602001604051908101604052809291908181526020016000905b828210156127ce57838290600052602060002001805461274190614125565b80601f016020809104026020016040519081016040528092919081815260200182805461276d90614125565b80156127ba5780601f1061278f576101008083540402835291602001916127ba565b820191906000526020600020905b81548152906001019060200180831161279d57829003601f168201915b505050505081526020019060010190612722565b5050505095509a509a509a509a509a509a505050505050909192939495565b6000806007836040516128009190613a68565b908152602001604051809103902060009054906101000a900460ff1661285b576040517f08c379a000000000000000000000000000000000000000000000000000000000815260040161285290613dad565b60405180910390fd5b60028360405161286b9190613a68565b908152602001604051809103902060000160009054906101000a900461ffff1660028460405161289b9190613a68565b90815260200160405180910390206001015491509150915091565b6007846040516128c69190613a68565b908152602001604051809103902060009054906101000a900460ff1615612922576040517f08c379a000000000000000000000000000000000000000000000000000000000815260040161291990613d4d565b60405180910390fd5b6006816040516129329190613a68565b908152602001604051809103902060009054906101000a900460ff1661298d576040517f08c379a000000000000000000000000000000000000000000000000000000000815260040161298490613d2d565b60405180910390fd5b600160078560405161299f9190613a68565b908152602001604051809103902060006101000a81548160ff02191690831515021790555060405180604001604052808461ffff168152602001838152506002856040516129ed9190613a68565b908152602001604051809103902060008201518160000160006101000a81548161ffff021916908361ffff1602179055506020820151816001015590505080600b85604051612a3c9190613a68565b90815260200160405180910390209080519060200190612a5d929190612fd6565b5050505050565b600d818051602081018201805184825260208301602085012081835280955050505050506000915090508054612a9990614125565b80601f0160208091040260200160405190810160405280929190818152602001828054612ac590614125565b8015612b125780601f10612ae757610100808354040283529160200191612b12565b820191906000526020600020905b815481529060010190602001808311612af557829003601f168201915b505050505081565b6002818051602081018201805184825260208301602085012081835280955050505050506000915090508060000160009054906101000a900461ffff16908060010154905082565b600984604051612b729190613a68565b908152602001604051809103902060009054906101000a900460ff1615612bce576040517f08c379a0000000000000000000000000000000000000000000000000000000008152600401612bc590613e2d565b60405180910390fd5b600881604051612bde9190613a68565b908152602001604051809103902060009054906101000a900460ff16612c39576040517f08c379a0000000000000000000000000000000000000000000000000000000008152600401612c3090613d0d565b60405180910390fd5b6001600985604051612c4b9190613a68565b908152602001604051809103902060006101000a81548160ff02191690831515021790555060405180606001604052808461ffff16815260200160001515815260200183815250600485604051612ca29190613a68565b908152602001604051809103902060008201518160000160006101000a81548161ffff021916908361ffff16021790555060208201518160000160026101000a81548160ff0219169083151502179055506040820151816001015590505080600d85604051612d119190613a68565b90815260200160405180910390209080519060200190612d32929190612fd6565b5050505050565b600b818051602081018201805184825260208301602085012081835280955050505050506000915090508054612d6e90614125565b80601f0160208091040260200160405190810160405280929190818152602001828054612d9a90614125565b8015612de75780601f10612dbc57610100808354040283529160200191612de7565b820191906000526020600020905b815481529060010190602001808311612dca57829003601f168201915b505050505081565b6007818051602081018201805184825260208301602085012081835280955050505050506000915054906101000a900460ff1681565b600381805160208101820180518482526020830160208501208183528095505050505050600091509050806000018054612e5e90614125565b80601f0160208091040260200160405190810160405280929190818152602001828054612e8a90614125565b8015612ed75780601f10612eac57610100808354040283529160200191612ed7565b820191906000526020600020905b815481529060010190602001808311612eba57829003601f168201915b505050505090806001018054612eec90614125565b80601f0160208091040260200160405190810160405280929190818152602001828054612f1890614125565b8015612f655780601f10612f3a57610100808354040283529160200191612f65565b820191906000526020600020905b815481529060010190602001808311612f4857829003601f168201915b5050505050908060020154908060030154905084565b6004818051602081018201805184825260208301602085012081835280955050505050506000915090508060000160009054906101000a900461ffff16908060000160029054906101000a900460ff16908060010154905083565b828054612fe290614125565b90600052602060002090601f016020900481019282613004576000855561304b565b82601f1061301d57805160ff191683800117855561304b565b8280016001018555821561304b579182015b8281111561304a57825182559160200191906001019061302f565b5b509050613058919061305c565b5090565b5b8082111561307557600081600090555060010161305d565b5090565b600061308c61308784613f32565b613f0d565b9050828152602081018484840111156130a8576130a76142c1565b5b6130b38482856140e3565b509392505050565b6000813590506130ca8161461a565b92915050565b600082601f8301126130e5576130e46142bc565b5b81356130f5848260208601613079565b91505092915050565b60008135905061310d81614631565b92915050565b60008135905061312281614648565b92915050565b6000813590506131378161465f565b92915050565b600060208284031215613153576131526142cb565b5b600082013567ffffffffffffffff811115613171576131706142c6565b5b61317d848285016130d0565b91505092915050565b60008060008060008060c087890312156131a3576131a26142cb565b5b600087013567ffffffffffffffff8111156131c1576131c06142c6565b5b6131cd89828a016130d0565b965050602087013567ffffffffffffffff8111156131ee576131ed6142c6565b5b6131fa89828a016130d0565b955050604061320b89828a016130bb565b945050606061321c89828a016130fe565b935050608061322d89828a01613113565b92505060a087013567ffffffffffffffff81111561324e5761324d6142c6565b5b61325a89828a016130d0565b9150509295509295509295565b600080600080600060a08688031215613283576132826142cb565b5b600086013567ffffffffffffffff8111156132a1576132a06142c6565b5b6132ad888289016130d0565b955050602086013567ffffffffffffffff8111156132ce576132cd6142c6565b5b6132da888289016130d0565b945050604086013567ffffffffffffffff8111156132fb576132fa6142c6565b5b613307888289016130d0565b935050606061331888828901613113565b925050608061332988828901613113565b9150509295509295909350565b60008060008060008060c08789031215613353576133526142cb565b5b600087013567ffffffffffffffff811115613371576133706142c6565b5b61337d89828a016130d0565b965050602087013567ffffffffffffffff81111561339e5761339d6142c6565b5b6133aa89828a016130d0565b955050604087013567ffffffffffffffff8111156133cb576133ca6142c6565b5b6133d789828a016130d0565b94505060606133e889828a01613113565b93505060806133f989828a01613113565b92505060a087013567ffffffffffffffff81111561341a576134196142c6565b5b61342689828a016130d0565b9150509295509295509295565b6000806000806080858703121561344d5761344c6142cb565b5b600085013567ffffffffffffffff81111561346b5761346a6142c6565b5b613477878288016130d0565b9450506020613488878288016130fe565b935050604061349987828801613113565b925050606085013567ffffffffffffffff8111156134ba576134b96142c6565b5b6134c6878288016130d0565b91505092959194509250565b600080604083850312156134e9576134e86142cb565b5b600083013567ffffffffffffffff811115613507576135066142c6565b5b613513858286016130d0565b925050602061352485828601613128565b9150509250929050565b600060208284031215613544576135436142cb565b5b600061355284828501613113565b91505092915050565b6000613567838361359f565b60208301905092915050565b600061357f838361370c565b905092915050565b60006135938383613a4a565b60208301905092915050565b6135a88161405b565b82525050565b6135b78161405b565b82525050565b60006135c882613fa8565b6135d28185613ffb565b93506135dd83613f63565b8060005b8381101561360e5781516135f5888261355b565b975061360083613fd4565b9250506001810190506135e1565b5085935050505092915050565b600061362682613fb3565b613630818561400c565b93508360208202850161364285613f73565b8060005b8581101561367e578484038952815161365f8582613573565b945061366a83613fe1565b925060208a01995050600181019050613646565b50829750879550505050505092915050565b600061369b82613fbe565b6136a5818561401d565b93506136b083613f83565b8060005b838110156136e15781516136c88882613587565b97506136d383613fee565b9250506001810190506136b4565b5085935050505092915050565b6136f78161406d565b82525050565b613706816140d1565b82525050565b600061371782613fc9565b613721818561402e565b93506137318185602086016140f2565b61373a816142d0565b840191505092915050565b600061375082613fc9565b61375a818561403f565b935061376a8185602086016140f2565b613773816142d0565b840191505092915050565b600061378982613fc9565b6137938185614050565b93506137a38185602086016140f2565b80840191505092915050565b600081546137bc81614125565b6137c68186614050565b945060018216600081146137e157600181146137f257613825565b60ff19831686528186019350613825565b6137fb85613f93565b60005b8381101561381d578154818901526001820191506020810190506137fe565b838801955050505b50505092915050565b600061383b60238361403f565b9150613846826142e1565b604082019050919050565b600061385e601a8361403f565b915061386982614330565b602082019050919050565b600061388160268361403f565b915061388c82614359565b604082019050919050565b60006138a460298361403f565b91506138af826143a8565b604082019050919050565b60006138c760178361403f565b91506138d2826143f7565b602082019050919050565b60006138ea60268361403f565b91506138f582614420565b604082019050919050565b600061390d60178361403f565b91506139188261446f565b602082019050919050565b600061393060178361403f565b915061393b82614498565b602082019050919050565b600061395360178361403f565b915061395e826144c1565b602082019050919050565b600061397660158361403f565b9150613981826144ea565b602082019050919050565b600061399960148361403f565b91506139a482614513565b602082019050919050565b60006139bc60148361403f565b91506139c78261453c565b602082019050919050565b60006139df601a8361403f565b91506139ea82614565565b602082019050919050565b6000613a0260158361403f565b9150613a0d8261458e565b602082019050919050565b6000613a2560338361403f565b9150613a30826145b7565b604082019050919050565b613a448161408c565b82525050565b613a53816140ba565b82525050565b613a62816140ba565b82525050565b6000613a74828461377e565b915081905092915050565b6000613a8b82846137af565b915081905092915050565b600060c0820190508181036000830152613ab0818961361b565b90508181036020830152613ac4818861361b565b90508181036040830152613ad881876135bd565b90508181036060830152613aec8186613690565b90508181036080830152613b00818561361b565b905081810360a0830152613b148184613690565b9050979650505050505050565b6000602082019050613b3660008301846136ee565b92915050565b60006020820190508181036000830152613b568184613745565b905092915050565b600060a0820190508181036000830152613b788188613745565b9050613b8760208301876135ae565b613b946040830186613a3b565b613ba160608301856136fd565b613bae6080830184613a59565b9695505050505050565b600060a0820190508181036000830152613bd28188613745565b9050613be160208301876135ae565b613bee6040830186613a3b565b8181036060830152613c008185613745565b9050613c0f6080830184613a59565b9695505050505050565b60006080820190508181036000830152613c338187613745565b90508181036020830152613c478186613745565b90508181036040830152613c5b8185613745565b90508181036060830152613c6f8184613745565b905095945050505050565b60006080820190508181036000830152613c948187613745565b90508181036020830152613ca88186613745565b9050613cb76040830185613a59565b613cc46060830184613a59565b95945050505050565b60006020820190508181036000830152613ce68161382e565b9050919050565b60006020820190508181036000830152613d0681613851565b9050919050565b60006020820190508181036000830152613d2681613874565b9050919050565b60006020820190508181036000830152613d4681613897565b9050919050565b60006020820190508181036000830152613d66816138ba565b9050919050565b60006020820190508181036000830152613d86816138dd565b9050919050565b60006020820190508181036000830152613da681613900565b9050919050565b60006020820190508181036000830152613dc681613923565b9050919050565b60006020820190508181036000830152613de681613946565b9050919050565b60006020820190508181036000830152613e0681613969565b9050919050565b60006020820190508181036000830152613e268161398c565b9050919050565b60006020820190508181036000830152613e46816139af565b9050919050565b60006020820190508181036000830152613e66816139d2565b9050919050565b60006020820190508181036000830152613e86816139f5565b9050919050565b60006020820190508181036000830152613ea681613a18565b9050919050565b6000606082019050613ec26000830186613a3b565b613ecf60208301856136ee565b613edc6040830184613a59565b949350505050565b6000604082019050613ef96000830185613a3b565b613f066020830184613a59565b9392505050565b6000613f17613f28565b9050613f238282614157565b919050565b6000604051905090565b600067ffffffffffffffff821115613f4d57613f4c61428d565b5b613f56826142d0565b9050602081019050919050565b6000819050602082019050919050565b6000819050602082019050919050565b6000819050602082019050919050565b60008190508160005260206000209050919050565b600081519050919050565b600081519050919050565b600081519050919050565b600081519050919050565b6000602082019050919050565b6000602082019050919050565b6000602082019050919050565b600082825260208201905092915050565b600082825260208201905092915050565b600082825260208201905092915050565b600082825260208201905092915050565b600082825260208201905092915050565b600081905092915050565b60006140668261409a565b9050919050565b60008115159050919050565b600081905061408782614606565b919050565b600061ffff82169050919050565b600073ffffffffffffffffffffffffffffffffffffffff82169050919050565b6000819050919050565b600060ff82169050919050565b60006140dc82614079565b9050919050565b82818337600083830152505050565b60005b838110156141105780820151818401526020810190506140f5565b8381111561411f576000848401525b50505050565b6000600282049050600182168061413d57607f821691505b602082108114156141515761415061422f565b5b50919050565b614160826142d0565b810181811067ffffffffffffffff8211171561417f5761417e61428d565b5b80604052505050565b6000614193826140ba565b91507fffffffffffffffffffffffffffffffffffffffffffffffffffffffffffffffff8214156141c6576141c56141d1565b5b600182019050919050565b7f4e487b7100000000000000000000000000000000000000000000000000000000600052601160045260246000fd5b7f4e487b7100000000000000000000000000000000000000000000000000000000600052602160045260246000fd5b7f4e487b7100000000000000000000000000000000000000000000000000000000600052602260045260246000fd5b7f4e487b7100000000000000000000000000000000000000000000000000000000600052603260045260246000fd5b7f4e487b7100000000000000000000000000000000000000000000000000000000600052604160045260246000fd5b600080fd5b600080fd5b600080fd5b600080fd5b6000601f19601f8301169050919050565b7f5468652072656665727265642073616c65696420646f6573206e6f742065786960008201527f73742e0000000000000000000000000000000000000000000000000000000000602082015250565b7f50726f64756374696f6e20616c7265616479206578697374732e000000000000600082015250565b7f5468652072656665727265642073746f72616765696420646f6573206e6f742060008201527f65786973742e0000000000000000000000000000000000000000000000000000602082015250565b7f5468652072656665727265642070726f64756374696f6e696420646f6573206e60008201527f6f742065786973742e0000000000000000000000000000000000000000000000602082015250565b7f54657374696e6720616c7265616479206578697374732e000000000000000000600082015250565b7f5468652072656665727265642074657374696e67696420646f6573206e6f742060008201527f65786973742e0000000000000000000000000000000000000000000000000000602082015250565b7f53746f7261676520616c7265616479206578697374732e000000000000000000600082015250565b7f54657374696e6720646f6573206e6f742065786973742e000000000000000000600082015250565b7f53746f7261676520646f6573206e6f742065786973742e000000000000000000600082015250565b7f4f7264657220616c7265616479206578697374732e0000000000000000000000600082015250565b7f53616c6520646f6573206e6f742065786973742e000000000000000000000000600082015250565b7f53616c6520616c7265616479206578697374732e000000000000000000000000600082015250565b7f50726f64756374696f6e20646f6573206e6f742065786973742e000000000000600082015250565b7f4f7264657220646f6573206e6f742065786973742e0000000000000000000000600082015250565b7f546865206f72646572207175616e74697479206578636565647320746865207460008201527f6f74616c2073616c65207175616e746974792e00000000000000000000000000602082015250565b6004811061461757614616614200565b5b50565b6146238161405b565b811461462e57600080fd5b50565b61463a8161408c565b811461464557600080fd5b50565b614651816140ba565b811461465c57600080fd5b50565b614668816140c4565b811461467357600080fd5b5056fea2646970667358221220a6f2fa436b279f2ec07e6142732c78a7edd79f6d4a62db4adc12eb34880faabc64736f6c63430008070033",
  "immutableReferences": {},
  "source": "// SPDX-License-Identifier: MIT\npragma solidity ^0.8.0;\n\ncontract SeafeedRegistry {\n    enum OrderStatus {\n        ORDERED,\n        PAYMENTRECEIVED,\n        DISPATCHED,\n        ARRIVED\n    }\n\n    struct Production {\n        string BatchID;\n        string FarmID;\n        uint256 Volume;\n        uint256 DateTime; //unix time\n    }\n\n    struct Testing {\n        uint16 Temperature;\n        uint256 DateTime;\n    }\n\n    struct Storage {\n        string Manufacturer;\n        string Location;\n        uint256 DateTime;\n        uint256 BestBefore;\n    }\n\n    struct Sale {\n        uint16 Quantity;\n        bool DispatchDocsAttached;\n        uint256 DateTime;\n    }\n\n    struct Order {\n        string Customer;\n        address CustomerAddr;\n        uint16 Quantity;\n        OrderStatus OS;\n        uint256 DateTime;\n    }\n\n    string[] public allorders;\n\n    // storage of structs\n    mapping(string => Production) public productions;\n    mapping(string => Testing) public testings;\n    mapping(string => Storage) public storages;\n    mapping(string => Sale) public sales;\n    mapping(string => Order) public orders;\n\n    // existence of structs\n    mapping(string => bool) public productionExists;\n    mapping(string => bool) public testingExists;\n    mapping(string => bool) public storageExists;\n    mapping(string => bool) public saleExists;\n    mapping(string => bool) public orderExists;\n\n    // trace from end product to source\n    mapping(string => string) public TestingToProduction;\n    mapping(string => string) public StorageToTesting;\n    mapping(string => string) public SaleToStorage;\n    mapping(string => string) public OrderToSale;\n\n// the setters\n    function logProduction(\n        string memory _productionid,\n        string memory _batchid,\n        string memory _farmid,\n        uint256 _volume,\n        uint256 _datetime) \n        public\n    {\n        require(!productionExists[_productionid], \"Production already exists.\");\n\n        productionExists[_productionid] = true;\n        productions[_productionid] = Production(_batchid,_farmid,_volume,_datetime);\n    }\n\n    function logTesting(\n        string memory _testingid,\n        uint16 _temperature,\n        uint256 _datetime,\n        string memory _productionid\n    )\n        public\n    {\n        require(!testingExists[_testingid], \"Testing already exists.\");\n        require(productionExists[_productionid], \"The referred productionid does not exist.\");\n        \n        testingExists[_testingid] = true;\n        testings[_testingid] = Testing(_temperature,_datetime);\n        TestingToProduction[_testingid] = _productionid; // traceability\n    }\n\n    function logStorage(\n        string memory _storageid,\n        string memory _manufacturer,\n        string memory _location,\n        uint256 _datetime,\n        uint256 _bestbefore,\n        string memory _testingid\n    )\n        public\n    {\n        require(!storageExists[_storageid], \"Storage already exists.\");\n        require(testingExists[_testingid], \"The referred testingid does not exist.\");\n\n        storageExists[_storageid] = true;\n        storages[_storageid] = Storage(_manufacturer,_location,_datetime,_bestbefore);\n        StorageToTesting[_storageid] = _testingid; // traceability\n    }\n\n    // logSale should be more like \"orderSeafeed\" or logOrder\n    function logSale(\n        string memory _saleid,\n        uint16 _quantity,\n        uint256 _datetime,\n        string memory _storageid\n    )\n        public\n    {\n        require(!saleExists[_saleid], \"Sale already exists.\");\n        require(storageExists[_storageid], \"The referred storageid does not exist.\");\n\n        saleExists[_saleid] = true;\n        sales[_saleid] = Sale(_quantity,false,_datetime);   \n        SaleToStorage[_saleid] = _storageid; // traceability\n    }\n\n    function logOrder(\n        string memory _orderid, \n        string memory _customer, \n        address _customeraddr,\n        uint16 _quantity, \n        uint256 _datetime,\n        string memory _saleid) \n        public \n    {\n        require(!orderExists[_orderid], \"Order already exists.\");\n        require(saleExists[_saleid], \"The referred saleid does not exist.\");\n        require(_quantity<=sales[_saleid].Quantity, \"The order quantity exceeds the total sale quantity.\");\n        \n        orderExists[_orderid] = true;\n        orders[_orderid] = Order(_customer,_customeraddr,_quantity,OrderStatus.ORDERED,_datetime);\n        OrderToSale[_orderid] = _saleid;\n        allorders.push(_orderid);\n    }\n\n    function updateOrder(string memory _orderid, uint8 _ordertatus) public {\n        require(orderExists[_orderid], \"Order does not exist.\");\n        orders[_orderid].OS = OrderStatus(_ordertatus);\n    }\n\n// the getters\n    function queryProduction(string memory _productionid) \n        public \n        view \n        returns(\n            string memory,\n            string memory,\n            uint256,\n            uint256) \n    {\n        require(productionExists[_productionid], \"Production does not exist.\");\n        return(\n            productions[_productionid].BatchID,\n            productions[_productionid].FarmID,\n            productions[_productionid].Volume,\n            productions[_productionid].DateTime\n        );\n    }\n\n    function queryTesting(string memory _testingid)\n        public\n        view\n        returns(\n            uint16,\n            uint256\n        )\n    {\n        require(testingExists[_testingid], \"Testing does not exist.\");\n        return(\n            testings[_testingid].Temperature,\n            testings[_testingid].DateTime\n        );\n    }\n\n    function queryStorage(string memory _storageid)\n        public\n        view\n        returns(\n            string memory,\n            string memory,\n            uint256,\n            uint256\n        )\n    {\n        require(storageExists[_storageid],\"Storage does not exist.\");\n        return(\n            storages[_storageid].Manufacturer,\n            storages[_storageid].Location,\n            storages[_storageid].DateTime,\n            storages[_storageid].BestBefore\n        );\n    }\n\n    function querySale(string memory _saleid)\n        public\n        view\n        returns(\n            uint16,\n            bool,\n            uint256\n        )\n    {\n        require(saleExists[_saleid], \"Sale does not exist.\");\n        return(\n            sales[_saleid].Quantity,\n            sales[_saleid].DispatchDocsAttached,\n            sales[_saleid].DateTime\n        );\n    }\n\n    function queryOrder(string memory _orderid)\n        public\n        view\n        returns(\n            string memory,\n            address,\n            uint16,\n            string memory,\n            uint256)\n    {\n        require(orderExists[_orderid], \"Order does not exist.\");\n\n        string memory orderstatus;\n        if (orders[_orderid].OS == OrderStatus.ORDERED) {\n            orderstatus = \"Ordered\";\n        } else if (orders[_orderid].OS == OrderStatus.PAYMENTRECEIVED) {\n            orderstatus = \"Paymentreceived\";\n        } else if (orders[_orderid].OS == OrderStatus.DISPATCHED) {\n            orderstatus = \"Dispatched\";\n        } else if (orders[_orderid].OS == OrderStatus.ARRIVED) {\n            orderstatus = \"Arrived\";\n        } else {\n            orderstatus = \"Unknown\";\n        }\n\n        return(\n            orders[_orderid].Customer,\n            orders[_orderid].CustomerAddr,\n            orders[_orderid].Quantity,\n            orderstatus,\n            orders[_orderid].DateTime\n        );\n    }\n\n    function queryAllOrders() public view \n        returns(\n            string[] memory,\n            string[] memory,\n            address[] memory,\n            uint256[] memory,\n            string[] memory,\n            uint256[] memory\n        )\n    {\n        string[] memory customers = new string[](allorders.length);\n        address[] memory customeraddrs = new address[](allorders.length);\n        uint256[] memory quantities = new uint256[](allorders.length);\n        string[] memory statuss = new string[](allorders.length);\n        uint256[] memory datetimes = new uint256[](allorders.length);\n\n        for(uint256 i=0; i<allorders.length; i++) {\n            if (orders[allorders[i]].OS == OrderStatus.ORDERED) {\n                statuss[i] = \"Ordered\";\n            } else if (orders[allorders[i]].OS == OrderStatus.PAYMENTRECEIVED) {\n                statuss[i] = \"Paymentreceived\";\n            } else if (orders[allorders[i]].OS == OrderStatus.DISPATCHED) {\n                statuss[i] = \"Dispatched\";\n            } else if (orders[allorders[i]].OS == OrderStatus.ARRIVED) {\n                statuss[i] = \"Arrived\";\n            } else {\n                statuss[i] = \"Unknown\";\n            }\n\n            customers[i] = orders[allorders[i]].Customer;\n            quantities[i] = orders[allorders[i]].Quantity;\n            datetimes[i] = orders[allorders[i]].DateTime;\n        }\n\n        return(allorders,customers,customeraddrs,quantities,statuss,datetimes);\n    }\n\n    // use an orderid to trace back to source\n    function queryOrderSource(string memory _orderid) public view \n        returns (\n            string memory,\n            string memory,\n            string memory,\n            string memory\n        ) \n    {\n        require(orderExists[_orderid], \"Order does not exist.\");\n        string memory saleid = OrderToSale[_orderid];\n        string memory storageid = SaleToStorage[saleid];\n        string memory testingid = StorageToTesting[storageid];\n        string memory productionid = TestingToProduction[testingid];\n        return (productionid,testingid,storageid,saleid);\n    }\n}",
  "sourcePath": "/home/yih/Documents/dev/beston-dapps/contracts/carbon/SeafeedRegistry.sol",
  "compiler": {
    "name": "solc",
    "version": "0.8.7+commit.e28d00a7.Emscripten.clang"
  },
  "schemaVersion": "3.4.1",
  "updatedAt": "2023-06-09T02:47:26.866Z",
  "networkType": "ethereum",
  "devdoc": {
    "kind": "dev",
    "methods": {},
    "version": 1
  },
  "userdoc": {
    "kind": "user",
    "methods": {},
    "version": 1
  }
}