{
  "contractName": "SeafeedRegistry",
  "abi": [
    {
      "inputs": [
        {
          "internalType": "string",
          "name": "",
          "type": "string"
        }
      ],
      "name": "OrderToStorage",
      "outputs": [
        {
          "internalType": "string",
          "name": "",
          "type": "string"
        }
      ],
      "stateMutability": "view",
      "type": "function",
      "constant": true
    },
    {
      "inputs": [
        {
          "internalType": "string",
          "name": "",
          "type": "string"
        }
      ],
      "name": "StorageToTesting",
      "outputs": [
        {
          "internalType": "string",
          "name": "",
          "type": "string"
        }
      ],
      "stateMutability": "view",
      "type": "function",
      "constant": true
    },
    {
      "inputs": [
        {
          "internalType": "string",
          "name": "",
          "type": "string"
        }
      ],
      "name": "TestingToProduction",
      "outputs": [
        {
          "internalType": "string",
          "name": "",
          "type": "string"
        }
      ],
      "stateMutability": "view",
      "type": "function",
      "constant": true
    },
    {
      "inputs": [
        {
          "internalType": "uint256",
          "name": "",
          "type": "uint256"
        }
      ],
      "name": "allorders",
      "outputs": [
        {
          "internalType": "string",
          "name": "",
          "type": "string"
        }
      ],
      "stateMutability": "view",
      "type": "function",
      "constant": true
    },
    {
      "inputs": [
        {
          "internalType": "string",
          "name": "",
          "type": "string"
        }
      ],
      "name": "productionExists",
      "outputs": [
        {
          "internalType": "bool",
          "name": "",
          "type": "bool"
        }
      ],
      "stateMutability": "view",
      "type": "function",
      "constant": true
    },
    {
      "inputs": [
        {
          "internalType": "string",
          "name": "",
          "type": "string"
        }
      ],
      "name": "productions",
      "outputs": [
        {
          "internalType": "string",
          "name": "BatchID",
          "type": "string"
        },
        {
          "internalType": "string",
          "name": "FarmID",
          "type": "string"
        },
        {
          "internalType": "uint256",
          "name": "Volume",
          "type": "uint256"
        },
        {
          "internalType": "uint256",
          "name": "DateTime",
          "type": "uint256"
        }
      ],
      "stateMutability": "view",
      "type": "function",
      "constant": true
    },
    {
      "inputs": [
        {
          "internalType": "string",
          "name": "",
          "type": "string"
        }
      ],
      "name": "saleorderExists",
      "outputs": [
        {
          "internalType": "bool",
          "name": "",
          "type": "bool"
        }
      ],
      "stateMutability": "view",
      "type": "function",
      "constant": true
    },
    {
      "inputs": [
        {
          "internalType": "string",
          "name": "",
          "type": "string"
        }
      ],
      "name": "saleorders",
      "outputs": [
        {
          "internalType": "string",
          "name": "Customer",
          "type": "string"
        },
        {
          "internalType": "address",
          "name": "CustomerAddr",
          "type": "address"
        },
        {
          "internalType": "uint16",
          "name": "Quantity",
          "type": "uint16"
        },
        {
          "internalType": "enum SeafeedRegistry.OrderStatus",
          "name": "OS",
          "type": "uint8"
        },
        {
          "internalType": "uint256",
          "name": "DateTime",
          "type": "uint256"
        }
      ],
      "stateMutability": "view",
      "type": "function",
      "constant": true
    },
    {
      "inputs": [
        {
          "internalType": "string",
          "name": "",
          "type": "string"
        }
      ],
      "name": "storageExists",
      "outputs": [
        {
          "internalType": "bool",
          "name": "",
          "type": "bool"
        }
      ],
      "stateMutability": "view",
      "type": "function",
      "constant": true
    },
    {
      "inputs": [
        {
          "internalType": "string",
          "name": "",
          "type": "string"
        }
      ],
      "name": "storages",
      "outputs": [
        {
          "internalType": "string",
          "name": "Manufacturer",
          "type": "string"
        },
        {
          "internalType": "string",
          "name": "Location",
          "type": "string"
        },
        {
          "internalType": "uint256",
          "name": "DateTime",
          "type": "uint256"
        },
        {
          "internalType": "uint256",
          "name": "BestBefore",
          "type": "uint256"
        }
      ],
      "stateMutability": "view",
      "type": "function",
      "constant": true
    },
    {
      "inputs": [
        {
          "internalType": "string",
          "name": "",
          "type": "string"
        }
      ],
      "name": "testingExists",
      "outputs": [
        {
          "internalType": "bool",
          "name": "",
          "type": "bool"
        }
      ],
      "stateMutability": "view",
      "type": "function",
      "constant": true
    },
    {
      "inputs": [
        {
          "internalType": "string",
          "name": "",
          "type": "string"
        }
      ],
      "name": "testings",
      "outputs": [
        {
          "internalType": "uint16",
          "name": "Temperature",
          "type": "uint16"
        },
        {
          "internalType": "uint256",
          "name": "DateTime",
          "type": "uint256"
        }
      ],
      "stateMutability": "view",
      "type": "function",
      "constant": true
    },
    {
      "inputs": [
        {
          "internalType": "string",
          "name": "_productionid",
          "type": "string"
        },
        {
          "internalType": "string",
          "name": "_batchid",
          "type": "string"
        },
        {
          "internalType": "string",
          "name": "_farmid",
          "type": "string"
        },
        {
          "internalType": "uint256",
          "name": "_volume",
          "type": "uint256"
        },
        {
          "internalType": "uint256",
          "name": "_datetime",
          "type": "uint256"
        }
      ],
      "name": "logProduction",
      "outputs": [],
      "stateMutability": "nonpayable",
      "type": "function"
    },
    {
      "inputs": [
        {
          "internalType": "string",
          "name": "_testingid",
          "type": "string"
        },
        {
          "internalType": "uint16",
          "name": "_temperature",
          "type": "uint16"
        },
        {
          "internalType": "uint256",
          "name": "_datetime",
          "type": "uint256"
        },
        {
          "internalType": "string",
          "name": "_productionid",
          "type": "string"
        }
      ],
      "name": "logTesting",
      "outputs": [],
      "stateMutability": "nonpayable",
      "type": "function"
    },
    {
      "inputs": [
        {
          "internalType": "string",
          "name": "_storageid",
          "type": "string"
        },
        {
          "internalType": "string",
          "name": "_manufacturer",
          "type": "string"
        },
        {
          "internalType": "string",
          "name": "_location",
          "type": "string"
        },
        {
          "internalType": "uint256",
          "name": "_datetime",
          "type": "uint256"
        },
        {
          "internalType": "uint256",
          "name": "_bestbefore",
          "type": "uint256"
        },
        {
          "internalType": "string",
          "name": "_testingid",
          "type": "string"
        }
      ],
      "name": "logStorage",
      "outputs": [],
      "stateMutability": "nonpayable",
      "type": "function"
    },
    {
      "inputs": [
        {
          "internalType": "string",
          "name": "_orderid",
          "type": "string"
        },
        {
          "internalType": "string",
          "name": "_customer",
          "type": "string"
        },
        {
          "internalType": "address",
          "name": "_customeraddr",
          "type": "address"
        },
        {
          "internalType": "uint16",
          "name": "_quantity",
          "type": "uint16"
        },
        {
          "internalType": "uint256",
          "name": "_datetime",
          "type": "uint256"
        },
        {
          "internalType": "string",
          "name": "_storageid",
          "type": "string"
        }
      ],
      "name": "logSaleOrder",
      "outputs": [],
      "stateMutability": "nonpayable",
      "type": "function"
    },
    {
      "inputs": [
        {
          "internalType": "string",
          "name": "_orderid",
          "type": "string"
        },
        {
          "internalType": "uint8",
          "name": "_ordertatus",
          "type": "uint8"
        }
      ],
      "name": "updateOrder",
      "outputs": [],
      "stateMutability": "nonpayable",
      "type": "function"
    },
    {
      "inputs": [
        {
          "internalType": "string",
          "name": "_productionid",
          "type": "string"
        }
      ],
      "name": "queryProduction",
      "outputs": [
        {
          "internalType": "string",
          "name": "",
          "type": "string"
        },
        {
          "internalType": "string",
          "name": "",
          "type": "string"
        },
        {
          "internalType": "uint256",
          "name": "",
          "type": "uint256"
        },
        {
          "internalType": "uint256",
          "name": "",
          "type": "uint256"
        }
      ],
      "stateMutability": "view",
      "type": "function",
      "constant": true
    },
    {
      "inputs": [
        {
          "internalType": "string",
          "name": "_testingid",
          "type": "string"
        }
      ],
      "name": "queryTesting",
      "outputs": [
        {
          "internalType": "uint16",
          "name": "",
          "type": "uint16"
        },
        {
          "internalType": "uint256",
          "name": "",
          "type": "uint256"
        }
      ],
      "stateMutability": "view",
      "type": "function",
      "constant": true
    },
    {
      "inputs": [
        {
          "internalType": "string",
          "name": "_storageid",
          "type": "string"
        }
      ],
      "name": "queryStorage",
      "outputs": [
        {
          "internalType": "string",
          "name": "",
          "type": "string"
        },
        {
          "internalType": "string",
          "name": "",
          "type": "string"
        },
        {
          "internalType": "uint256",
          "name": "",
          "type": "uint256"
        },
        {
          "internalType": "uint256",
          "name": "",
          "type": "uint256"
        }
      ],
      "stateMutability": "view",
      "type": "function",
      "constant": true
    },
    {
      "inputs": [
        {
          "internalType": "string",
          "name": "_orderid",
          "type": "string"
        }
      ],
      "name": "querySaleOrder",
      "outputs": [
        {
          "internalType": "string",
          "name": "",
          "type": "string"
        },
        {
          "internalType": "address",
          "name": "",
          "type": "address"
        },
        {
          "internalType": "uint16",
          "name": "",
          "type": "uint16"
        },
        {
          "internalType": "string",
          "name": "",
          "type": "string"
        },
        {
          "internalType": "uint256",
          "name": "",
          "type": "uint256"
        }
      ],
      "stateMutability": "view",
      "type": "function",
      "constant": true
    },
    {
      "inputs": [],
      "name": "queryAllSaleOrders",
      "outputs": [
        {
          "internalType": "string[]",
          "name": "",
          "type": "string[]"
        },
        {
          "internalType": "string[]",
          "name": "",
          "type": "string[]"
        },
        {
          "internalType": "address[]",
          "name": "",
          "type": "address[]"
        },
        {
          "internalType": "uint256[]",
          "name": "",
          "type": "uint256[]"
        },
        {
          "internalType": "string[]",
          "name": "",
          "type": "string[]"
        },
        {
          "internalType": "uint256[]",
          "name": "",
          "type": "uint256[]"
        }
      ],
      "stateMutability": "view",
      "type": "function",
      "constant": true
    },
    {
      "inputs": [
        {
          "internalType": "string",
          "name": "_orderid",
          "type": "string"
        }
      ],
      "name": "querySaleOrderSource",
      "outputs": [
        {
          "internalType": "string",
          "name": "",
          "type": "string"
        },
        {
          "internalType": "string",
          "name": "",
          "type": "string"
        },
        {
          "internalType": "string",
          "name": "",
          "type": "string"
        }
      ],
      "stateMutability": "view",
      "type": "function",
      "constant": true
    }
  ],
  "bytecode": "0x608060405234801561001057600080fd5b50613e72806100206000396000f3fe608060405234801561001057600080fd5b506004361061014d5760003560e01c80638954deb2116100c3578063bf3de2a41161007c578063bf3de2a414610423578063c4ce68ad14610454578063db5607de14610484578063dd165d0c146104b4578063ed3d3f6d146104e6578063ee916ce3146105165761014d565b80638954deb2146103265780638a162e521461035657806393c1f7c514610372578063b3278826146103a2578063b60cb154146103d3578063bf017341146103ef5761014d565b80634c6614c9116101155780634c6614c91461024c5780635bde9248146102685780637bacb8cc146102845780637bc20c71146102b75780638886244e146102d357806388987d1e146103035761014d565b8063066278451461015257806311067bb0146101855780631475793e146101b9578063206614d5146101e95780634b8133c614610219575b600080fd5b61016c60048036038101906101679190612b4b565b610549565b60405161017c94939291906135e7565b60405180910390f35b61019f600480360381019061019a9190612b4b565b61069f565b6040516101b09594939291906134e0565b60405180910390f35b6101d360048036038101906101ce9190612f3c565b6107ae565b6040516101e091906134be565b60405180910390f35b61020360048036038101906101fe9190612b4b565b61085a565b60405161021091906134a3565b60405180910390f35b610233600480360381019061022e9190612b4b565b610890565b60405161024394939291906135e7565b60405180910390f35b61026660048036038101906102619190612c75565b610aae565b005b610282600480360381019061027d9190612ee0565b610be8565b005b61029e60048036038101906102999190612b4b565b610cb5565b6040516102ae94939291906135e7565b60405180910390f35b6102d160048036038101906102cc9190612d44565b610ed3565b005b6102ed60048036038101906102e89190612b4b565b6110ac565b6040516102fa91906134a3565b60405180910390f35b61030b6110e2565b60405161031d96959493929190613418565b60405180910390f35b610340600480360381019061033b9190612b4b565b61199b565b60405161034d91906134be565b60405180910390f35b610370600480360381019061036b9190612b94565b611a51565b005b61038c60048036038101906103879190612b4b565b611d0c565b60405161039991906134be565b60405180910390f35b6103bc60048036038101906103b79190612b4b565b611dc2565b6040516103ca92919061379a565b60405180910390f35b6103ed60048036038101906103e89190612e41565b611e8b565b005b61040960048036038101906104049190612b4b565b612039565b60405161041a95949392919061353a565b60405180910390f35b61043d60048036038101906104389190612b4b565b6124a0565b60405161044b92919061379a565b60405180910390f35b61046e60048036038101906104699190612b4b565b6124e8565b60405161047b91906134a3565b60405180910390f35b61049e60048036038101906104999190612b4b565b61251e565b6040516104ab91906134be565b60405180910390f35b6104ce60048036038101906104c99190612b4b565b6125d4565b6040516104dd9392919061359b565b60405180910390f35b61050060048036038101906104fb9190612b4b565b612858565b60405161050d91906134a3565b60405180910390f35b610530600480360381019061052b9190612b4b565b61288e565b60405161054094939291906135e7565b60405180910390f35b600181805160208101820180518482526020830160208501208183528095505050505050600091509050806000018054610582906139db565b80601f01602080910402602001604051908101604052809291908181526020018280546105ae906139db565b80156105fb5780601f106105d0576101008083540402835291602001916105fb565b820191906000526020600020905b8154815290600101906020018083116105de57829003601f168201915b505050505090806001018054610610906139db565b80601f016020809104026020016040519081016040528092919081815260200182805461063c906139db565b80156106895780601f1061065e57610100808354040283529160200191610689565b820191906000526020600020905b81548152906001019060200180831161066c57829003601f168201915b5050505050908060020154908060030154905084565b6004818051602081018201805184825260208301602085012081835280955050505050506000915090508060000180546106d8906139db565b80601f0160208091040260200160405190810160405280929190818152602001828054610704906139db565b80156107515780601f1061072657610100808354040283529160200191610751565b820191906000526020600020905b81548152906001019060200180831161073457829003601f168201915b5050505050908060010160009054906101000a900473ffffffffffffffffffffffffffffffffffffffff16908060010160149054906101000a900461ffff16908060010160169054906101000a900460ff16908060020154905085565b600081815481106107be57600080fd5b9060005260206000200160009150905080546107d9906139db565b80601f0160208091040260200160405190810160405280929190818152602001828054610805906139db565b80156108525780601f1061082757610100808354040283529160200191610852565b820191906000526020600020905b81548152906001019060200180831161083557829003601f168201915b505050505081565b6007818051602081018201805184825260208301602085012081835280955050505050506000915054906101000a900460ff1681565b6060806000806007856040516108a691906133ea565b908152602001604051809103902060009054906101000a900460ff16610901576040517f08c379a00000000000000000000000000000000000000000000000000000000081526004016108f89061371a565b60405180910390fd5b60038560405161091191906133ea565b908152602001604051809103902060000160038660405161093291906133ea565b908152602001604051809103902060010160038760405161095391906133ea565b90815260200160405180910390206002015460038860405161097591906133ea565b908152602001604051809103902060030154838054610993906139db565b80601f01602080910402602001604051908101604052809291908181526020018280546109bf906139db565b8015610a0c5780601f106109e157610100808354040283529160200191610a0c565b820191906000526020600020905b8154815290600101906020018083116109ef57829003601f168201915b50505050509350828054610a1f906139db565b80601f0160208091040260200160405190810160405280929190818152602001828054610a4b906139db565b8015610a985780601f10610a6d57610100808354040283529160200191610a98565b820191906000526020600020905b815481529060010190602001808311610a7b57829003601f168201915b5050505050925093509350935093509193509193565b600585604051610abe91906133ea565b908152602001604051809103902060009054906101000a900460ff1615610b1a576040517f08c379a0000000000000000000000000000000000000000000000000000000008152600401610b119061363a565b60405180910390fd5b6001600586604051610b2c91906133ea565b908152602001604051809103902060006101000a81548160ff021916908315150217905550604051806080016040528085815260200184815260200183815260200182815250600186604051610b8291906133ea565b90815260200160405180910390206000820151816000019080519060200190610bac9291906129e4565b506020820151816001019080519060200190610bc99291906129e4565b5060408201518160020155606082015181600301559050505050505050565b600882604051610bf891906133ea565b908152602001604051809103902060009054906101000a900460ff16610c53576040517f08c379a0000000000000000000000000000000000000000000000000000000008152600401610c4a9061377a565b60405180910390fd5b8060ff166003811115610c6957610c68613ab6565b5b600483604051610c7991906133ea565b908152602001604051809103902060010160166101000a81548160ff02191690836003811115610cac57610cab613ab6565b5b02179055505050565b606080600080600585604051610ccb91906133ea565b908152602001604051809103902060009054906101000a900460ff16610d26576040517f08c379a0000000000000000000000000000000000000000000000000000000008152600401610d1d9061375a565b60405180910390fd5b600185604051610d3691906133ea565b9081526020016040518091039020600001600186604051610d5791906133ea565b9081526020016040518091039020600101600187604051610d7891906133ea565b908152602001604051809103902060020154600188604051610d9a91906133ea565b908152602001604051809103902060030154838054610db8906139db565b80601f0160208091040260200160405190810160405280929190818152602001828054610de4906139db565b8015610e315780601f10610e0657610100808354040283529160200191610e31565b820191906000526020600020905b815481529060010190602001808311610e1457829003601f168201915b50505050509350828054610e44906139db565b80601f0160208091040260200160405190810160405280929190818152602001828054610e70906139db565b8015610ebd5780601f10610e9257610100808354040283529160200191610ebd565b820191906000526020600020905b815481529060010190602001808311610ea057829003601f168201915b5050505050925093509350935093509193509193565b600786604051610ee391906133ea565b908152602001604051809103902060009054906101000a900460ff1615610f3f576040517f08c379a0000000000000000000000000000000000000000000000000000000008152600401610f36906136da565b60405180910390fd5b600681604051610f4f91906133ea565b908152602001604051809103902060009054906101000a900460ff16610faa576040517f08c379a0000000000000000000000000000000000000000000000000000000008152600401610fa1906136ba565b60405180910390fd5b6001600787604051610fbc91906133ea565b908152602001604051809103902060006101000a81548160ff02191690831515021790555060405180608001604052808681526020018581526020018481526020018381525060038760405161101291906133ea565b9081526020016040518091039020600082015181600001908051906020019061103c9291906129e4565b5060208201518160010190805190602001906110599291906129e4565b50604082015181600201556060820151816003015590505080600a8760405161108291906133ea565b908152602001604051809103902090805190602001906110a39291906129e4565b50505050505050565b6005818051602081018201805184825260208301602085012081835280955050505050506000915054906101000a900460ff1681565b6060806060806060806000808054905067ffffffffffffffff81111561110b5761110a613b43565b5b60405190808252806020026020018201604052801561113e57816020015b60608152602001906001900390816111295790505b5090506000808054905067ffffffffffffffff81111561116157611160613b43565b5b60405190808252806020026020018201604052801561118f5781602001602082028036833780820191505090505b5090506000808054905067ffffffffffffffff8111156111b2576111b1613b43565b5b6040519080825280602002602001820160405280156111e05781602001602082028036833780820191505090505b5090506000808054905067ffffffffffffffff81111561120357611202613b43565b5b60405190808252806020026020018201604052801561123657816020015b60608152602001906001900390816112215790505b5090506000808054905067ffffffffffffffff81111561125957611258613b43565b5b6040519080825280602002602001820160405280156112875781602001602082028036833780820191505090505b50905060005b6000805490508110156118a757600060038111156112ae576112ad613ab6565b5b6004600083815481106112c4576112c3613b14565b5b906000526020600020016040516112db9190613401565b908152602001604051809103902060010160169054906101000a900460ff16600381111561130c5761130b613ab6565b5b141561136b576040518060400160405280600781526020017f4f7264657265640000000000000000000000000000000000000000000000000081525083828151811061135b5761135a613b14565b5b6020026020010181905250611635565b6001600381111561137f5761137e613ab6565b5b60046000838154811061139557611394613b14565b5b906000526020600020016040516113ac9190613401565b908152602001604051809103902060010160169054906101000a900460ff1660038111156113dd576113dc613ab6565b5b141561143c576040518060400160405280600f81526020017f5061796d656e747265636569766564000000000000000000000000000000000081525083828151811061142c5761142b613b14565b5b6020026020010181905250611634565b600260038111156114505761144f613ab6565b5b60046000838154811061146657611465613b14565b5b9060005260206000200160405161147d9190613401565b908152602001604051809103902060010160169054906101000a900460ff1660038111156114ae576114ad613ab6565b5b141561150d576040518060400160405280600a81526020017f44697370617463686564000000000000000000000000000000000000000000008152508382815181106114fd576114fc613b14565b5b6020026020010181905250611633565b6003808111156115205761151f613ab6565b5b60046000838154811061153657611535613b14565b5b9060005260206000200160405161154d9190613401565b908152602001604051809103902060010160169054906101000a900460ff16600381111561157e5761157d613ab6565b5b14156115dd576040518060400160405280600781526020017f41727269766564000000000000000000000000000000000000000000000000008152508382815181106115cd576115cc613b14565b5b6020026020010181905250611632565b6040518060400160405280600781526020017f556e6b6e6f776e0000000000000000000000000000000000000000000000000081525083828151811061162657611625613b14565b5b60200260200101819052505b5b5b5b60046000828154811061164b5761164a613b14565b5b906000526020600020016040516116629190613401565b9081526020016040518091039020600001805461167e906139db565b80601f01602080910402602001604051908101604052809291908181526020018280546116aa906139db565b80156116f75780601f106116cc576101008083540402835291602001916116f7565b820191906000526020600020905b8154815290600101906020018083116116da57829003601f168201915b505050505086828151811061170f5761170e613b14565b5b60200260200101819052506004600082815481106117305761172f613b14565b5b906000526020600020016040516117479190613401565b908152602001604051809103902060010160009054906101000a900473ffffffffffffffffffffffffffffffffffffffff1685828151811061178c5761178b613b14565b5b602002602001019073ffffffffffffffffffffffffffffffffffffffff16908173ffffffffffffffffffffffffffffffffffffffff16815250506004600082815481106117dc576117db613b14565b5b906000526020600020016040516117f39190613401565b908152602001604051809103902060010160149054906101000a900461ffff1661ffff1684828151811061182a57611829613b14565b5b60200260200101818152505060046000828154811061184c5761184b613b14565b5b906000526020600020016040516118639190613401565b90815260200160405180910390206002015482828151811061188857611887613b14565b5b602002602001018181525050808061189f90613a3e565b91505061128d565b506000858585858585805480602002602001604051908101604052809291908181526020016000905b8282101561197c5783829060005260206000200180546118ef906139db565b80601f016020809104026020016040519081016040528092919081815260200182805461191b906139db565b80156119685780601f1061193d57610100808354040283529160200191611968565b820191906000526020600020905b81548152906001019060200180831161194b57829003601f168201915b5050505050815260200190600101906118d0565b5050505095509a509a509a509a509a509a505050505050909192939495565b600b8180516020810182018051848252602083016020850120818352809550505050505060009150905080546119d0906139db565b80601f01602080910402602001604051908101604052809291908181526020018280546119fc906139db565b8015611a495780601f10611a1e57610100808354040283529160200191611a49565b820191906000526020600020905b815481529060010190602001808311611a2c57829003601f168201915b505050505081565b600886604051611a6191906133ea565b908152602001604051809103902060009054906101000a900460ff1615611abd576040517f08c379a0000000000000000000000000000000000000000000000000000000008152600401611ab49061373a565b60405180910390fd5b600781604051611acd91906133ea565b908152602001604051809103902060009054906101000a900460ff16611b28576040517f08c379a0000000000000000000000000000000000000000000000000000000008152600401611b1f9061365a565b60405180910390fd5b6001600887604051611b3a91906133ea565b908152602001604051809103902060006101000a81548160ff0219169083151502179055506040518060a001604052808681526020018573ffffffffffffffffffffffffffffffffffffffff1681526020018461ffff16815260200160006003811115611baa57611ba9613ab6565b5b815260200183815250600487604051611bc391906133ea565b90815260200160405180910390206000820151816000019080519060200190611bed9291906129e4565b5060208201518160010160006101000a81548173ffffffffffffffffffffffffffffffffffffffff021916908373ffffffffffffffffffffffffffffffffffffffff16021790555060408201518160010160146101000a81548161ffff021916908361ffff16021790555060608201518160010160166101000a81548160ff02191690836003811115611c8357611c82613ab6565b5b02179055506080820151816002015590505080600b87604051611ca691906133ea565b90815260200160405180910390209080519060200190611cc79291906129e4565b50600086908060018154018082558091505060019003906000526020600020016000909190919091509080519060200190611d039291906129e4565b50505050505050565b600a818051602081018201805184825260208301602085012081835280955050505050506000915090508054611d41906139db565b80601f0160208091040260200160405190810160405280929190818152602001828054611d6d906139db565b8015611dba5780601f10611d8f57610100808354040283529160200191611dba565b820191906000526020600020905b815481529060010190602001808311611d9d57829003601f168201915b505050505081565b600080600683604051611dd591906133ea565b908152602001604051809103902060009054906101000a900460ff16611e30576040517f08c379a0000000000000000000000000000000000000000000000000000000008152600401611e27906136fa565b60405180910390fd5b600283604051611e4091906133ea565b908152602001604051809103902060000160009054906101000a900461ffff16600284604051611e7091906133ea565b90815260200160405180910390206001015491509150915091565b600684604051611e9b91906133ea565b908152602001604051809103902060009054906101000a900460ff1615611ef7576040517f08c379a0000000000000000000000000000000000000000000000000000000008152600401611eee9061369a565b60405180910390fd5b600581604051611f0791906133ea565b908152602001604051809103902060009054906101000a900460ff16611f62576040517f08c379a0000000000000000000000000000000000000000000000000000000008152600401611f599061367a565b60405180910390fd5b6001600685604051611f7491906133ea565b908152602001604051809103902060006101000a81548160ff02191690831515021790555060405180604001604052808461ffff16815260200183815250600285604051611fc291906133ea565b908152602001604051809103902060008201518160000160006101000a81548161ffff021916908361ffff160217905550602082015181600101559050508060098560405161201191906133ea565b908152602001604051809103902090805190602001906120329291906129e4565b5050505050565b60606000806060600060088660405161205291906133ea565b908152602001604051809103902060009054906101000a900460ff166120ad576040517f08c379a00000000000000000000000000000000000000000000000000000000081526004016120a49061377a565b60405180910390fd5b6060600060038111156120c3576120c2613ab6565b5b6004886040516120d391906133ea565b908152602001604051809103902060010160169054906101000a900460ff16600381111561210457612103613ab6565b5b1415612147576040518060400160405280600781526020017f4f72646572656400000000000000000000000000000000000000000000000000815250905061234a565b6001600381111561215b5761215a613ab6565b5b60048860405161216b91906133ea565b908152602001604051809103902060010160169054906101000a900460ff16600381111561219c5761219b613ab6565b5b14156121df576040518060400160405280600f81526020017f5061796d656e74726563656976656400000000000000000000000000000000008152509050612349565b600260038111156121f3576121f2613ab6565b5b60048860405161220391906133ea565b908152602001604051809103902060010160169054906101000a900460ff16600381111561223457612233613ab6565b5b1415612277576040518060400160405280600a81526020017f44697370617463686564000000000000000000000000000000000000000000008152509050612348565b60038081111561228a57612289613ab6565b5b60048860405161229a91906133ea565b908152602001604051809103902060010160169054906101000a900460ff1660038111156122cb576122ca613ab6565b5b141561230e576040518060400160405280600781526020017f41727269766564000000000000000000000000000000000000000000000000008152509050612347565b6040518060400160405280600781526020017f556e6b6e6f776e0000000000000000000000000000000000000000000000000081525090505b5b5b5b60048760405161235a91906133ea565b908152602001604051809103902060000160048860405161237b91906133ea565b908152602001604051809103902060010160009054906101000a900473ffffffffffffffffffffffffffffffffffffffff166004896040516123bd91906133ea565b908152602001604051809103902060010160149054906101000a900461ffff168360048b6040516123ee91906133ea565b90815260200160405180910390206002015484805461240c906139db565b80601f0160208091040260200160405190810160405280929190818152602001828054612438906139db565b80156124855780601f1061245a57610100808354040283529160200191612485565b820191906000526020600020905b81548152906001019060200180831161246857829003601f168201915b50505050509450955095509550955095505091939590929450565b6002818051602081018201805184825260208301602085012081835280955050505050506000915090508060000160009054906101000a900461ffff16908060010154905082565b6008818051602081018201805184825260208301602085012081835280955050505050506000915054906101000a900460ff1681565b6009818051602081018201805184825260208301602085012081835280955050505050506000915090508054612553906139db565b80601f016020809104026020016040519081016040528092919081815260200182805461257f906139db565b80156125cc5780601f106125a1576101008083540402835291602001916125cc565b820191906000526020600020905b8154815290600101906020018083116125af57829003601f168201915b505050505081565b60608060606008846040516125e991906133ea565b908152602001604051809103902060009054906101000a900460ff16612644576040517f08c379a000000000000000000000000000000000000000000000000000000000815260040161263b9061377a565b60405180910390fd5b6000600b8560405161265691906133ea565b9081526020016040518091039020805461266f906139db565b80601f016020809104026020016040519081016040528092919081815260200182805461269b906139db565b80156126e85780601f106126bd576101008083540402835291602001916126e8565b820191906000526020600020905b8154815290600101906020018083116126cb57829003601f168201915b505050505090506000600a8260405161270191906133ea565b9081526020016040518091039020805461271a906139db565b80601f0160208091040260200160405190810160405280929190818152602001828054612746906139db565b80156127935780601f1061276857610100808354040283529160200191612793565b820191906000526020600020905b81548152906001019060200180831161277657829003601f168201915b5050505050905060006009826040516127ac91906133ea565b908152602001604051809103902080546127c5906139db565b80601f01602080910402602001604051908101604052809291908181526020018280546127f1906139db565b801561283e5780601f106128135761010080835404028352916020019161283e565b820191906000526020600020905b81548152906001019060200180831161282157829003601f168201915b505050505090508082849550955095505050509193909250565b6006818051602081018201805184825260208301602085012081835280955050505050506000915054906101000a900460ff1681565b6003818051602081018201805184825260208301602085012081835280955050505050506000915090508060000180546128c7906139db565b80601f01602080910402602001604051908101604052809291908181526020018280546128f3906139db565b80156129405780601f1061291557610100808354040283529160200191612940565b820191906000526020600020905b81548152906001019060200180831161292357829003601f168201915b505050505090806001018054612955906139db565b80601f0160208091040260200160405190810160405280929190818152602001828054612981906139db565b80156129ce5780601f106129a3576101008083540402835291602001916129ce565b820191906000526020600020905b8154815290600101906020018083116129b157829003601f168201915b5050505050908060020154908060030154905084565b8280546129f0906139db565b90600052602060002090601f016020900481019282612a125760008555612a59565b82601f10612a2b57805160ff1916838001178555612a59565b82800160010185558215612a59579182015b82811115612a58578251825591602001919060010190612a3d565b5b509050612a669190612a6a565b5090565b5b80821115612a83576000816000905550600101612a6b565b5090565b6000612a9a612a95846137e8565b6137c3565b905082815260208101848484011115612ab657612ab5613b77565b5b612ac1848285613999565b509392505050565b600081359050612ad881613de0565b92915050565b600082601f830112612af357612af2613b72565b5b8135612b03848260208601612a87565b91505092915050565b600081359050612b1b81613df7565b92915050565b600081359050612b3081613e0e565b92915050565b600081359050612b4581613e25565b92915050565b600060208284031215612b6157612b60613b81565b5b600082013567ffffffffffffffff811115612b7f57612b7e613b7c565b5b612b8b84828501612ade565b91505092915050565b60008060008060008060c08789031215612bb157612bb0613b81565b5b600087013567ffffffffffffffff811115612bcf57612bce613b7c565b5b612bdb89828a01612ade565b965050602087013567ffffffffffffffff811115612bfc57612bfb613b7c565b5b612c0889828a01612ade565b9550506040612c1989828a01612ac9565b9450506060612c2a89828a01612b0c565b9350506080612c3b89828a01612b21565b92505060a087013567ffffffffffffffff811115612c5c57612c5b613b7c565b5b612c6889828a01612ade565b9150509295509295509295565b600080600080600060a08688031215612c9157612c90613b81565b5b600086013567ffffffffffffffff811115612caf57612cae613b7c565b5b612cbb88828901612ade565b955050602086013567ffffffffffffffff811115612cdc57612cdb613b7c565b5b612ce888828901612ade565b945050604086013567ffffffffffffffff811115612d0957612d08613b7c565b5b612d1588828901612ade565b9350506060612d2688828901612b21565b9250506080612d3788828901612b21565b9150509295509295909350565b60008060008060008060c08789031215612d6157612d60613b81565b5b600087013567ffffffffffffffff811115612d7f57612d7e613b7c565b5b612d8b89828a01612ade565b965050602087013567ffffffffffffffff811115612dac57612dab613b7c565b5b612db889828a01612ade565b955050604087013567ffffffffffffffff811115612dd957612dd8613b7c565b5b612de589828a01612ade565b9450506060612df689828a01612b21565b9350506080612e0789828a01612b21565b92505060a087013567ffffffffffffffff811115612e2857612e27613b7c565b5b612e3489828a01612ade565b9150509295509295509295565b60008060008060808587031215612e5b57612e5a613b81565b5b600085013567ffffffffffffffff811115612e7957612e78613b7c565b5b612e8587828801612ade565b9450506020612e9687828801612b0c565b9350506040612ea787828801612b21565b925050606085013567ffffffffffffffff811115612ec857612ec7613b7c565b5b612ed487828801612ade565b91505092959194509250565b60008060408385031215612ef757612ef6613b81565b5b600083013567ffffffffffffffff811115612f1557612f14613b7c565b5b612f2185828601612ade565b9250506020612f3285828601612b36565b9150509250929050565b600060208284031215612f5257612f51613b81565b5b6000612f6084828501612b21565b91505092915050565b6000612f758383612fad565b60208301905092915050565b6000612f8d838361311a565b905092915050565b6000612fa183836133cc565b60208301905092915050565b612fb681613911565b82525050565b612fc581613911565b82525050565b6000612fd68261385e565b612fe081856138b1565b9350612feb83613819565b8060005b8381101561301c5781516130038882612f69565b975061300e8361388a565b925050600181019050612fef565b5085935050505092915050565b600061303482613869565b61303e81856138c2565b93508360208202850161305085613829565b8060005b8581101561308c578484038952815161306d8582612f81565b945061307883613897565b925060208a01995050600181019050613054565b50829750879550505050505092915050565b60006130a982613874565b6130b381856138d3565b93506130be83613839565b8060005b838110156130ef5781516130d68882612f95565b97506130e1836138a4565b9250506001810190506130c2565b5085935050505092915050565b61310581613923565b82525050565b61311481613987565b82525050565b60006131258261387f565b61312f81856138e4565b935061313f8185602086016139a8565b61314881613b86565b840191505092915050565b600061315e8261387f565b61316881856138f5565b93506131788185602086016139a8565b61318181613b86565b840191505092915050565b60006131978261387f565b6131a18185613906565b93506131b18185602086016139a8565b80840191505092915050565b600081546131ca816139db565b6131d48186613906565b945060018216600081146131ef576001811461320057613233565b60ff19831686528186019350613233565b61320985613849565b60005b8381101561322b5781548189015260018201915060208101905061320c565b838801955050505b50505092915050565b6000613249601a836138f5565b915061325482613b97565b602082019050919050565b600061326c6026836138f5565b915061327782613bc0565b604082019050919050565b600061328f6029836138f5565b915061329a82613c0f565b604082019050919050565b60006132b26017836138f5565b91506132bd82613c5e565b602082019050919050565b60006132d56026836138f5565b91506132e082613c87565b604082019050919050565b60006132f86017836138f5565b915061330382613cd6565b602082019050919050565b600061331b6017836138f5565b915061332682613cff565b602082019050919050565b600061333e6017836138f5565b915061334982613d28565b602082019050919050565b60006133616015836138f5565b915061336c82613d51565b602082019050919050565b6000613384601a836138f5565b915061338f82613d7a565b602082019050919050565b60006133a76015836138f5565b91506133b282613da3565b602082019050919050565b6133c681613942565b82525050565b6133d581613970565b82525050565b6133e481613970565b82525050565b60006133f6828461318c565b915081905092915050565b600061340d82846131bd565b915081905092915050565b600060c08201905081810360008301526134328189613029565b905081810360208301526134468188613029565b9050818103604083015261345a8187612fcb565b9050818103606083015261346e818661309e565b905081810360808301526134828185613029565b905081810360a0830152613496818461309e565b9050979650505050505050565b60006020820190506134b860008301846130fc565b92915050565b600060208201905081810360008301526134d88184613153565b905092915050565b600060a08201905081810360008301526134fa8188613153565b90506135096020830187612fbc565b61351660408301866133bd565b613523606083018561310b565b61353060808301846133db565b9695505050505050565b600060a08201905081810360008301526135548188613153565b90506135636020830187612fbc565b61357060408301866133bd565b81810360608301526135828185613153565b905061359160808301846133db565b9695505050505050565b600060608201905081810360008301526135b58186613153565b905081810360208301526135c98185613153565b905081810360408301526135dd8184613153565b9050949350505050565b600060808201905081810360008301526136018187613153565b905081810360208301526136158186613153565b905061362460408301856133db565b61363160608301846133db565b95945050505050565b600060208201905081810360008301526136538161323c565b9050919050565b600060208201905081810360008301526136738161325f565b9050919050565b6000602082019050818103600083015261369381613282565b9050919050565b600060208201905081810360008301526136b3816132a5565b9050919050565b600060208201905081810360008301526136d3816132c8565b9050919050565b600060208201905081810360008301526136f3816132eb565b9050919050565b600060208201905081810360008301526137138161330e565b9050919050565b6000602082019050818103600083015261373381613331565b9050919050565b6000602082019050818103600083015261375381613354565b9050919050565b6000602082019050818103600083015261377381613377565b9050919050565b600060208201905081810360008301526137938161339a565b9050919050565b60006040820190506137af60008301856133bd565b6137bc60208301846133db565b9392505050565b60006137cd6137de565b90506137d98282613a0d565b919050565b6000604051905090565b600067ffffffffffffffff82111561380357613802613b43565b5b61380c82613b86565b9050602081019050919050565b6000819050602082019050919050565b6000819050602082019050919050565b6000819050602082019050919050565b60008190508160005260206000209050919050565b600081519050919050565b600081519050919050565b600081519050919050565b600081519050919050565b6000602082019050919050565b6000602082019050919050565b6000602082019050919050565b600082825260208201905092915050565b600082825260208201905092915050565b600082825260208201905092915050565b600082825260208201905092915050565b600082825260208201905092915050565b600081905092915050565b600061391c82613950565b9050919050565b60008115159050919050565b600081905061393d82613dcc565b919050565b600061ffff82169050919050565b600073ffffffffffffffffffffffffffffffffffffffff82169050919050565b6000819050919050565b600060ff82169050919050565b60006139928261392f565b9050919050565b82818337600083830152505050565b60005b838110156139c65780820151818401526020810190506139ab565b838111156139d5576000848401525b50505050565b600060028204905060018216806139f357607f821691505b60208210811415613a0757613a06613ae5565b5b50919050565b613a1682613b86565b810181811067ffffffffffffffff82111715613a3557613a34613b43565b5b80604052505050565b6000613a4982613970565b91507fffffffffffffffffffffffffffffffffffffffffffffffffffffffffffffffff821415613a7c57613a7b613a87565b5b600182019050919050565b7f4e487b7100000000000000000000000000000000000000000000000000000000600052601160045260246000fd5b7f4e487b7100000000000000000000000000000000000000000000000000000000600052602160045260246000fd5b7f4e487b7100000000000000000000000000000000000000000000000000000000600052602260045260246000fd5b7f4e487b7100000000000000000000000000000000000000000000000000000000600052603260045260246000fd5b7f4e487b7100000000000000000000000000000000000000000000000000000000600052604160045260246000fd5b600080fd5b600080fd5b600080fd5b600080fd5b6000601f19601f8301169050919050565b7f50726f64756374696f6e20616c7265616479206578697374732e000000000000600082015250565b7f5468652072656665727265642073746f72616765696420646f6573206e6f742060008201527f65786973742e0000000000000000000000000000000000000000000000000000602082015250565b7f5468652072656665727265642070726f64756374696f6e696420646f6573206e60008201527f6f742065786973742e0000000000000000000000000000000000000000000000602082015250565b7f54657374696e6720616c7265616479206578697374732e000000000000000000600082015250565b7f5468652072656665727265642074657374696e67696420646f6573206e6f742060008201527f65786973742e0000000000000000000000000000000000000000000000000000602082015250565b7f53746f7261676520616c7265616479206578697374732e000000000000000000600082015250565b7f54657374696e6720646f6573206e6f742065786973742e000000000000000000600082015250565b7f53746f7261676520646f6573206e6f742065786973742e000000000000000000600082015250565b7f4f7264657220616c7265616479206578697374732e0000000000000000000000600082015250565b7f50726f64756374696f6e20646f6573206e6f742065786973742e000000000000600082015250565b7f4f7264657220646f6573206e6f742065786973742e0000000000000000000000600082015250565b60048110613ddd57613ddc613ab6565b5b50565b613de981613911565b8114613df457600080fd5b50565b613e0081613942565b8114613e0b57600080fd5b50565b613e1781613970565b8114613e2257600080fd5b50565b613e2e8161397a565b8114613e3957600080fd5b5056fea26469706673582212207cc397808c3096719c460a05c405fdc636365a93a6612afe2e1b05f6892b9e7864736f6c63430008070033",
  "immutableReferences": {},
  "source": "// SPDX-License-Identifier: MIT\npragma solidity ^0.8.0;\n\ncontract SeafeedRegistry {\n    enum OrderStatus {\n        ORDERED,\n        PAYMENTRECEIVED,\n        DISPATCHED,\n        ARRIVED\n    }\n\n    struct Production {\n        string BatchID;\n        string FarmID;\n        uint256 Volume;\n        uint256 DateTime; //unix time\n    }\n\n    struct Testing {\n        uint16 Temperature;\n        uint256 DateTime;\n    }\n\n    struct Storage {\n        string Manufacturer;\n        string Location;\n        uint256 DateTime;\n        uint256 BestBefore;\n    }\n\n    struct SaleOrder {\n        string Customer;\n        address CustomerAddr;\n        uint16 Quantity;\n        OrderStatus OS;\n        uint256 DateTime;\n    }\n\n    string[] public allorders;\n\n    // storage of structs\n    mapping(string => Production) public productions;\n    mapping(string => Testing) public testings;\n    mapping(string => Storage) public storages;\n    mapping(string => SaleOrder) public saleorders;\n\n    // existence of structs\n    mapping(string => bool) public productionExists;\n    mapping(string => bool) public testingExists;\n    mapping(string => bool) public storageExists;\n    mapping(string => bool) public saleorderExists;\n\n    // trace from end product to source\n    mapping(string => string) public TestingToProduction;\n    mapping(string => string) public StorageToTesting;\n    mapping(string => string) public OrderToStorage;\n\n// the setters\n    function logProduction(\n        string memory _productionid,\n        string memory _batchid,\n        string memory _farmid,\n        uint256 _volume,\n        uint256 _datetime)\n        public\n    {\n        require(!productionExists[_productionid], \"Production already exists.\");\n\n        productionExists[_productionid] = true;\n        productions[_productionid] = Production(_batchid,_farmid,_volume,_datetime);\n    }\n\n    function logTesting(\n        string memory _testingid,\n        uint16 _temperature,\n        uint256 _datetime,\n        string memory _productionid\n    )\n        public\n    {\n        require(!testingExists[_testingid], \"Testing already exists.\");\n        require(productionExists[_productionid], \"The referred productionid does not exist.\");\n        \n        testingExists[_testingid] = true;\n        testings[_testingid] = Testing(_temperature,_datetime);\n        TestingToProduction[_testingid] = _productionid; // traceability\n    }\n\n    function logStorage(\n        string memory _storageid,\n        string memory _manufacturer,\n        string memory _location,\n        uint256 _datetime,\n        uint256 _bestbefore,\n        string memory _testingid\n    )\n        public\n    {\n        require(!storageExists[_storageid], \"Storage already exists.\");\n        require(testingExists[_testingid], \"The referred testingid does not exist.\");\n\n        storageExists[_storageid] = true;\n        storages[_storageid] = Storage(_manufacturer,_location,_datetime,_bestbefore);\n        StorageToTesting[_storageid] = _testingid; // traceability\n    }\n\n    function logSaleOrder(\n        string memory _orderid, \n        string memory _customer, \n        address _customeraddr,\n        uint16 _quantity, \n        uint256 _datetime,\n        string memory _storageid) \n        public \n    {\n        require(!saleorderExists[_orderid], \"Order already exists.\");\n        require(storageExists[_storageid], \"The referred storageid does not exist.\");\n        \n        saleorderExists[_orderid] = true;\n        saleorders[_orderid] = SaleOrder(_customer,_customeraddr,_quantity,OrderStatus.ORDERED,_datetime);\n        OrderToStorage[_orderid] = _storageid;\n        allorders.push(_orderid);\n    }\n\n    function updateOrder(string memory _orderid, uint8 _ordertatus) public {\n        require(saleorderExists[_orderid], \"Order does not exist.\");\n        saleorders[_orderid].OS = OrderStatus(_ordertatus);\n    }\n\n// the getters\n    function queryProduction(string memory _productionid) \n        public \n        view \n        returns(\n            string memory,\n            string memory,\n            uint256,\n            uint256) \n    {\n        require(productionExists[_productionid], \"Production does not exist.\");\n        return(\n            productions[_productionid].BatchID,\n            productions[_productionid].FarmID,\n            productions[_productionid].Volume,\n            productions[_productionid].DateTime\n        );\n    }\n\n    function queryTesting(string memory _testingid)\n        public\n        view\n        returns(\n            uint16,\n            uint256\n        )\n    {\n        require(testingExists[_testingid], \"Testing does not exist.\");\n        return(\n            testings[_testingid].Temperature,\n            testings[_testingid].DateTime\n        );\n    }\n\n    function queryStorage(string memory _storageid)\n        public\n        view\n        returns(\n            string memory,\n            string memory,\n            uint256,\n            uint256\n        )\n    {\n        require(storageExists[_storageid],\"Storage does not exist.\");\n        return(\n            storages[_storageid].Manufacturer,\n            storages[_storageid].Location,\n            storages[_storageid].DateTime,\n            storages[_storageid].BestBefore\n        );\n    }\n\n    function querySaleOrder(string memory _orderid)\n        public\n        view\n        returns(\n            string memory,\n            address,\n            uint16,\n            string memory,\n            uint256)\n    {\n        require(saleorderExists[_orderid], \"Order does not exist.\");\n\n        string memory orderstatus;\n        if (saleorders[_orderid].OS == OrderStatus.ORDERED) {\n            orderstatus = \"Ordered\";\n        } else if (saleorders[_orderid].OS == OrderStatus.PAYMENTRECEIVED) {\n            orderstatus = \"Paymentreceived\";\n        } else if (saleorders[_orderid].OS == OrderStatus.DISPATCHED) {\n            orderstatus = \"Dispatched\";\n        } else if (saleorders[_orderid].OS == OrderStatus.ARRIVED) {\n            orderstatus = \"Arrived\";\n        } else {\n            orderstatus = \"Unknown\";\n        }\n\n        return(\n            saleorders[_orderid].Customer,\n            saleorders[_orderid].CustomerAddr,\n            saleorders[_orderid].Quantity,\n            orderstatus,\n            saleorders[_orderid].DateTime\n        );\n    }\n\n    function queryAllSaleOrders() public view \n        returns(\n            string[] memory,\n            string[] memory,\n            address[] memory,\n            uint256[] memory,\n            string[] memory,\n            uint256[] memory\n        )\n    {\n        string[] memory customers = new string[](allorders.length);\n        address[] memory customeraddrs = new address[](allorders.length);\n        uint256[] memory quantities = new uint256[](allorders.length);\n        string[] memory statuss = new string[](allorders.length);\n        uint256[] memory datetimes = new uint256[](allorders.length);\n\n        for(uint256 i=0; i<allorders.length; i++) {\n            if (saleorders[allorders[i]].OS == OrderStatus.ORDERED) {\n                statuss[i] = \"Ordered\";\n            } else if (saleorders[allorders[i]].OS == OrderStatus.PAYMENTRECEIVED) {\n                statuss[i] = \"Paymentreceived\";\n            } else if (saleorders[allorders[i]].OS == OrderStatus.DISPATCHED) {\n                statuss[i] = \"Dispatched\";\n            } else if (saleorders[allorders[i]].OS == OrderStatus.ARRIVED) {\n                statuss[i] = \"Arrived\";\n            } else {\n                statuss[i] = \"Unknown\";\n            }\n\n            customers[i] = saleorders[allorders[i]].Customer;\n            customeraddrs[i] = saleorders[allorders[i]].CustomerAddr;\n            quantities[i] = saleorders[allorders[i]].Quantity;\n            datetimes[i] = saleorders[allorders[i]].DateTime;\n        }\n\n        return(allorders,customers,customeraddrs,quantities,statuss,datetimes);\n    }\n\n    // use an orderid to trace back to source\n    function querySaleOrderSource(string memory _orderid) public view \n        returns (\n            string memory,\n            string memory,\n            string memory\n        ) \n    {\n        require(saleorderExists[_orderid], \"Order does not exist.\");\n        string memory storageid = OrderToStorage[_orderid];\n        string memory testingid = StorageToTesting[storageid];\n        string memory productionid = TestingToProduction[testingid];\n        return (productionid,testingid,storageid);\n    }\n}",
  "sourcePath": "/home/yih/Documents/dev/beston-dapps/contracts/carbon/SeafeedRegistry.sol",
  "compiler": {
    "name": "solc",
    "version": "0.8.7+commit.e28d00a7.Emscripten.clang"
  },
  "schemaVersion": "3.4.1",
  "updatedAt": "2023-08-21T03:59:00.337Z",
  "networkType": "ethereum",
  "devdoc": {
    "kind": "dev",
    "methods": {},
    "version": 1
  },
  "userdoc": {
    "kind": "user",
    "methods": {},
    "version": 1
  }
}