{
  "contractName": "SeafeedRegistry",
  "abi": [
    {
      "inputs": [
        {
          "internalType": "string",
          "name": "",
          "type": "string"
        }
      ],
      "name": "OrderToStorage",
      "outputs": [
        {
          "internalType": "string",
          "name": "",
          "type": "string"
        }
      ],
      "stateMutability": "view",
      "type": "function",
      "constant": true
    },
    {
      "inputs": [
        {
          "internalType": "string",
          "name": "",
          "type": "string"
        }
      ],
      "name": "StorageToTesting",
      "outputs": [
        {
          "internalType": "string",
          "name": "",
          "type": "string"
        }
      ],
      "stateMutability": "view",
      "type": "function",
      "constant": true
    },
    {
      "inputs": [
        {
          "internalType": "string",
          "name": "",
          "type": "string"
        }
      ],
      "name": "TestingToProduction",
      "outputs": [
        {
          "internalType": "string",
          "name": "",
          "type": "string"
        }
      ],
      "stateMutability": "view",
      "type": "function",
      "constant": true
    },
    {
      "inputs": [
        {
          "internalType": "uint256",
          "name": "",
          "type": "uint256"
        }
      ],
      "name": "allorders",
      "outputs": [
        {
          "internalType": "string",
          "name": "",
          "type": "string"
        }
      ],
      "stateMutability": "view",
      "type": "function",
      "constant": true
    },
    {
      "inputs": [
        {
          "internalType": "string",
          "name": "",
          "type": "string"
        }
      ],
      "name": "productionExists",
      "outputs": [
        {
          "internalType": "bool",
          "name": "",
          "type": "bool"
        }
      ],
      "stateMutability": "view",
      "type": "function",
      "constant": true
    },
    {
      "inputs": [
        {
          "internalType": "string",
          "name": "",
          "type": "string"
        }
      ],
      "name": "productions",
      "outputs": [
        {
          "internalType": "string",
          "name": "BatchID",
          "type": "string"
        },
        {
          "internalType": "string",
          "name": "FarmID",
          "type": "string"
        },
        {
          "internalType": "uint256",
          "name": "Volume",
          "type": "uint256"
        },
        {
          "internalType": "uint256",
          "name": "DateTime",
          "type": "uint256"
        }
      ],
      "stateMutability": "view",
      "type": "function",
      "constant": true
    },
    {
      "inputs": [
        {
          "internalType": "string",
          "name": "",
          "type": "string"
        }
      ],
      "name": "saleorderExists",
      "outputs": [
        {
          "internalType": "bool",
          "name": "",
          "type": "bool"
        }
      ],
      "stateMutability": "view",
      "type": "function",
      "constant": true
    },
    {
      "inputs": [
        {
          "internalType": "string",
          "name": "",
          "type": "string"
        }
      ],
      "name": "saleorders",
      "outputs": [
        {
          "internalType": "string",
          "name": "Customer",
          "type": "string"
        },
        {
          "internalType": "address",
          "name": "CustomerAddr",
          "type": "address"
        },
        {
          "internalType": "uint16",
          "name": "Quantity",
          "type": "uint16"
        },
        {
          "internalType": "enum SeafeedRegistry.OrderStatus",
          "name": "OS",
          "type": "uint8"
        },
        {
          "internalType": "uint256",
          "name": "DateTime",
          "type": "uint256"
        }
      ],
      "stateMutability": "view",
      "type": "function",
      "constant": true
    },
    {
      "inputs": [
        {
          "internalType": "string",
          "name": "",
          "type": "string"
        }
      ],
      "name": "storageExists",
      "outputs": [
        {
          "internalType": "bool",
          "name": "",
          "type": "bool"
        }
      ],
      "stateMutability": "view",
      "type": "function",
      "constant": true
    },
    {
      "inputs": [
        {
          "internalType": "string",
          "name": "",
          "type": "string"
        }
      ],
      "name": "storages",
      "outputs": [
        {
          "internalType": "string",
          "name": "Manufacturer",
          "type": "string"
        },
        {
          "internalType": "string",
          "name": "Location",
          "type": "string"
        },
        {
          "internalType": "uint256",
          "name": "DateTime",
          "type": "uint256"
        },
        {
          "internalType": "uint256",
          "name": "BestBefore",
          "type": "uint256"
        }
      ],
      "stateMutability": "view",
      "type": "function",
      "constant": true
    },
    {
      "inputs": [
        {
          "internalType": "string",
          "name": "",
          "type": "string"
        }
      ],
      "name": "testingExists",
      "outputs": [
        {
          "internalType": "bool",
          "name": "",
          "type": "bool"
        }
      ],
      "stateMutability": "view",
      "type": "function",
      "constant": true
    },
    {
      "inputs": [
        {
          "internalType": "string",
          "name": "",
          "type": "string"
        }
      ],
      "name": "testings",
      "outputs": [
        {
          "internalType": "uint16",
          "name": "Temperature",
          "type": "uint16"
        },
        {
          "internalType": "uint256",
          "name": "DateTime",
          "type": "uint256"
        }
      ],
      "stateMutability": "view",
      "type": "function",
      "constant": true
    },
    {
      "inputs": [
        {
          "internalType": "string",
          "name": "_productionid",
          "type": "string"
        },
        {
          "internalType": "string",
          "name": "_batchid",
          "type": "string"
        },
        {
          "internalType": "string",
          "name": "_farmid",
          "type": "string"
        },
        {
          "internalType": "uint256",
          "name": "_volume",
          "type": "uint256"
        },
        {
          "internalType": "uint256",
          "name": "_datetime",
          "type": "uint256"
        }
      ],
      "name": "logProduction",
      "outputs": [],
      "stateMutability": "nonpayable",
      "type": "function"
    },
    {
      "inputs": [
        {
          "internalType": "string",
          "name": "_testingid",
          "type": "string"
        },
        {
          "internalType": "uint16",
          "name": "_temperature",
          "type": "uint16"
        },
        {
          "internalType": "uint256",
          "name": "_datetime",
          "type": "uint256"
        },
        {
          "internalType": "string",
          "name": "_productionid",
          "type": "string"
        }
      ],
      "name": "logTesting",
      "outputs": [],
      "stateMutability": "nonpayable",
      "type": "function"
    },
    {
      "inputs": [
        {
          "internalType": "string",
          "name": "_storageid",
          "type": "string"
        },
        {
          "internalType": "string",
          "name": "_manufacturer",
          "type": "string"
        },
        {
          "internalType": "string",
          "name": "_location",
          "type": "string"
        },
        {
          "internalType": "uint256",
          "name": "_datetime",
          "type": "uint256"
        },
        {
          "internalType": "uint256",
          "name": "_bestbefore",
          "type": "uint256"
        },
        {
          "internalType": "string",
          "name": "_testingid",
          "type": "string"
        }
      ],
      "name": "logStorage",
      "outputs": [],
      "stateMutability": "nonpayable",
      "type": "function"
    },
    {
      "inputs": [
        {
          "internalType": "string",
          "name": "_orderid",
          "type": "string"
        },
        {
          "internalType": "string",
          "name": "_customer",
          "type": "string"
        },
        {
          "internalType": "address",
          "name": "_customeraddr",
          "type": "address"
        },
        {
          "internalType": "uint16",
          "name": "_quantity",
          "type": "uint16"
        },
        {
          "internalType": "uint256",
          "name": "_datetime",
          "type": "uint256"
        },
        {
          "internalType": "string",
          "name": "_storageid",
          "type": "string"
        }
      ],
      "name": "logSaleOrder",
      "outputs": [],
      "stateMutability": "nonpayable",
      "type": "function"
    },
    {
      "inputs": [
        {
          "internalType": "string",
          "name": "_orderid",
          "type": "string"
        },
        {
          "internalType": "uint8",
          "name": "_ordertatus",
          "type": "uint8"
        }
      ],
      "name": "updateOrder",
      "outputs": [],
      "stateMutability": "nonpayable",
      "type": "function"
    },
    {
      "inputs": [
        {
          "internalType": "string",
          "name": "_productionid",
          "type": "string"
        }
      ],
      "name": "queryProduction",
      "outputs": [
        {
          "internalType": "string",
          "name": "",
          "type": "string"
        },
        {
          "internalType": "string",
          "name": "",
          "type": "string"
        },
        {
          "internalType": "uint256",
          "name": "",
          "type": "uint256"
        },
        {
          "internalType": "uint256",
          "name": "",
          "type": "uint256"
        }
      ],
      "stateMutability": "view",
      "type": "function",
      "constant": true
    },
    {
      "inputs": [
        {
          "internalType": "string",
          "name": "_testingid",
          "type": "string"
        }
      ],
      "name": "queryTesting",
      "outputs": [
        {
          "internalType": "uint16",
          "name": "",
          "type": "uint16"
        },
        {
          "internalType": "uint256",
          "name": "",
          "type": "uint256"
        }
      ],
      "stateMutability": "view",
      "type": "function",
      "constant": true
    },
    {
      "inputs": [
        {
          "internalType": "string",
          "name": "_storageid",
          "type": "string"
        }
      ],
      "name": "queryStorage",
      "outputs": [
        {
          "internalType": "string",
          "name": "",
          "type": "string"
        },
        {
          "internalType": "string",
          "name": "",
          "type": "string"
        },
        {
          "internalType": "uint256",
          "name": "",
          "type": "uint256"
        },
        {
          "internalType": "uint256",
          "name": "",
          "type": "uint256"
        }
      ],
      "stateMutability": "view",
      "type": "function",
      "constant": true
    },
    {
      "inputs": [
        {
          "internalType": "string",
          "name": "_orderid",
          "type": "string"
        }
      ],
      "name": "querySaleOrder",
      "outputs": [
        {
          "internalType": "string",
          "name": "",
          "type": "string"
        },
        {
          "internalType": "address",
          "name": "",
          "type": "address"
        },
        {
          "internalType": "uint16",
          "name": "",
          "type": "uint16"
        },
        {
          "internalType": "string",
          "name": "",
          "type": "string"
        },
        {
          "internalType": "uint256",
          "name": "",
          "type": "uint256"
        }
      ],
      "stateMutability": "view",
      "type": "function",
      "constant": true
    },
    {
      "inputs": [],
      "name": "queryAllSaleOrders",
      "outputs": [
        {
          "internalType": "string[]",
          "name": "",
          "type": "string[]"
        },
        {
          "internalType": "string[]",
          "name": "",
          "type": "string[]"
        },
        {
          "internalType": "address[]",
          "name": "",
          "type": "address[]"
        },
        {
          "internalType": "uint256[]",
          "name": "",
          "type": "uint256[]"
        },
        {
          "internalType": "string[]",
          "name": "",
          "type": "string[]"
        },
        {
          "internalType": "uint256[]",
          "name": "",
          "type": "uint256[]"
        }
      ],
      "stateMutability": "view",
      "type": "function",
      "constant": true
    },
    {
      "inputs": [
        {
          "internalType": "string",
          "name": "_orderid",
          "type": "string"
        }
      ],
      "name": "querySaleOrderSource",
      "outputs": [
        {
          "internalType": "string",
          "name": "",
          "type": "string"
        },
        {
          "internalType": "string",
          "name": "",
          "type": "string"
        },
        {
          "internalType": "string",
          "name": "",
          "type": "string"
        }
      ],
      "stateMutability": "view",
      "type": "function",
      "constant": true
    }
  ],
  "bytecode": "0x608060405234801561001057600080fd5b50613dc6806100206000396000f3fe608060405234801561001057600080fd5b506004361061014d5760003560e01c80638954deb2116100c3578063bf3de2a41161007c578063bf3de2a414610423578063c4ce68ad14610454578063db5607de14610484578063dd165d0c146104b4578063ed3d3f6d146104e6578063ee916ce3146105165761014d565b80638954deb2146103265780638a162e521461035657806393c1f7c514610372578063b3278826146103a2578063b60cb154146103d3578063bf017341146103ef5761014d565b80634c6614c9116101155780634c6614c91461024c5780635bde9248146102685780637bacb8cc146102845780637bc20c71146102b75780638886244e146102d357806388987d1e146103035761014d565b8063066278451461015257806311067bb0146101855780631475793e146101b9578063206614d5146101e95780634b8133c614610219575b600080fd5b61016c60048036038101906101679190612a9f565b610549565b60405161017c949392919061353b565b60405180910390f35b61019f600480360381019061019a9190612a9f565b61069f565b6040516101b0959493929190613434565b60405180910390f35b6101d360048036038101906101ce9190612e90565b6107ae565b6040516101e09190613412565b60405180910390f35b61020360048036038101906101fe9190612a9f565b61085a565b60405161021091906133f7565b60405180910390f35b610233600480360381019061022e9190612a9f565b610890565b604051610243949392919061353b565b60405180910390f35b61026660048036038101906102619190612bc9565b610aae565b005b610282600480360381019061027d9190612e34565b610be8565b005b61029e60048036038101906102999190612a9f565b610cb5565b6040516102ae949392919061353b565b60405180910390f35b6102d160048036038101906102cc9190612c98565b610ed3565b005b6102ed60048036038101906102e89190612a9f565b6110ac565b6040516102fa91906133f7565b60405180910390f35b61030b6110e2565b60405161031d9695949392919061336c565b60405180910390f35b610340600480360381019061033b9190612a9f565b6118ef565b60405161034d9190613412565b60405180910390f35b610370600480360381019061036b9190612ae8565b6119a5565b005b61038c60048036038101906103879190612a9f565b611c60565b6040516103999190613412565b60405180910390f35b6103bc60048036038101906103b79190612a9f565b611d16565b6040516103ca9291906136ee565b60405180910390f35b6103ed60048036038101906103e89190612d95565b611ddf565b005b61040960048036038101906104049190612a9f565b611f8d565b60405161041a95949392919061348e565b60405180910390f35b61043d60048036038101906104389190612a9f565b6123f4565b60405161044b9291906136ee565b60405180910390f35b61046e60048036038101906104699190612a9f565b61243c565b60405161047b91906133f7565b60405180910390f35b61049e60048036038101906104999190612a9f565b612472565b6040516104ab9190613412565b60405180910390f35b6104ce60048036038101906104c99190612a9f565b612528565b6040516104dd939291906134ef565b60405180910390f35b61050060048036038101906104fb9190612a9f565b6127ac565b60405161050d91906133f7565b60405180910390f35b610530600480360381019061052b9190612a9f565b6127e2565b604051610540949392919061353b565b60405180910390f35b6001818051602081018201805184825260208301602085012081835280955050505050506000915090508060000180546105829061392f565b80601f01602080910402602001604051908101604052809291908181526020018280546105ae9061392f565b80156105fb5780601f106105d0576101008083540402835291602001916105fb565b820191906000526020600020905b8154815290600101906020018083116105de57829003601f168201915b5050505050908060010180546106109061392f565b80601f016020809104026020016040519081016040528092919081815260200182805461063c9061392f565b80156106895780601f1061065e57610100808354040283529160200191610689565b820191906000526020600020905b81548152906001019060200180831161066c57829003601f168201915b5050505050908060020154908060030154905084565b6004818051602081018201805184825260208301602085012081835280955050505050506000915090508060000180546106d89061392f565b80601f01602080910402602001604051908101604052809291908181526020018280546107049061392f565b80156107515780601f1061072657610100808354040283529160200191610751565b820191906000526020600020905b81548152906001019060200180831161073457829003601f168201915b5050505050908060010160009054906101000a900473ffffffffffffffffffffffffffffffffffffffff16908060010160149054906101000a900461ffff16908060010160169054906101000a900460ff16908060020154905085565b600081815481106107be57600080fd5b9060005260206000200160009150905080546107d99061392f565b80601f01602080910402602001604051908101604052809291908181526020018280546108059061392f565b80156108525780601f1061082757610100808354040283529160200191610852565b820191906000526020600020905b81548152906001019060200180831161083557829003601f168201915b505050505081565b6007818051602081018201805184825260208301602085012081835280955050505050506000915054906101000a900460ff1681565b6060806000806007856040516108a6919061333e565b908152602001604051809103902060009054906101000a900460ff16610901576040517f08c379a00000000000000000000000000000000000000000000000000000000081526004016108f89061366e565b60405180910390fd5b600385604051610911919061333e565b9081526020016040518091039020600001600386604051610932919061333e565b9081526020016040518091039020600101600387604051610953919061333e565b908152602001604051809103902060020154600388604051610975919061333e565b9081526020016040518091039020600301548380546109939061392f565b80601f01602080910402602001604051908101604052809291908181526020018280546109bf9061392f565b8015610a0c5780601f106109e157610100808354040283529160200191610a0c565b820191906000526020600020905b8154815290600101906020018083116109ef57829003601f168201915b50505050509350828054610a1f9061392f565b80601f0160208091040260200160405190810160405280929190818152602001828054610a4b9061392f565b8015610a985780601f10610a6d57610100808354040283529160200191610a98565b820191906000526020600020905b815481529060010190602001808311610a7b57829003601f168201915b5050505050925093509350935093509193509193565b600585604051610abe919061333e565b908152602001604051809103902060009054906101000a900460ff1615610b1a576040517f08c379a0000000000000000000000000000000000000000000000000000000008152600401610b119061358e565b60405180910390fd5b6001600586604051610b2c919061333e565b908152602001604051809103902060006101000a81548160ff021916908315150217905550604051806080016040528085815260200184815260200183815260200182815250600186604051610b82919061333e565b90815260200160405180910390206000820151816000019080519060200190610bac929190612938565b506020820151816001019080519060200190610bc9929190612938565b5060408201518160020155606082015181600301559050505050505050565b600882604051610bf8919061333e565b908152602001604051809103902060009054906101000a900460ff16610c53576040517f08c379a0000000000000000000000000000000000000000000000000000000008152600401610c4a906136ce565b60405180910390fd5b8060ff166003811115610c6957610c68613a0a565b5b600483604051610c79919061333e565b908152602001604051809103902060010160166101000a81548160ff02191690836003811115610cac57610cab613a0a565b5b02179055505050565b606080600080600585604051610ccb919061333e565b908152602001604051809103902060009054906101000a900460ff16610d26576040517f08c379a0000000000000000000000000000000000000000000000000000000008152600401610d1d906136ae565b60405180910390fd5b600185604051610d36919061333e565b9081526020016040518091039020600001600186604051610d57919061333e565b9081526020016040518091039020600101600187604051610d78919061333e565b908152602001604051809103902060020154600188604051610d9a919061333e565b908152602001604051809103902060030154838054610db89061392f565b80601f0160208091040260200160405190810160405280929190818152602001828054610de49061392f565b8015610e315780601f10610e0657610100808354040283529160200191610e31565b820191906000526020600020905b815481529060010190602001808311610e1457829003601f168201915b50505050509350828054610e449061392f565b80601f0160208091040260200160405190810160405280929190818152602001828054610e709061392f565b8015610ebd5780601f10610e9257610100808354040283529160200191610ebd565b820191906000526020600020905b815481529060010190602001808311610ea057829003601f168201915b5050505050925093509350935093509193509193565b600786604051610ee3919061333e565b908152602001604051809103902060009054906101000a900460ff1615610f3f576040517f08c379a0000000000000000000000000000000000000000000000000000000008152600401610f369061362e565b60405180910390fd5b600681604051610f4f919061333e565b908152602001604051809103902060009054906101000a900460ff16610faa576040517f08c379a0000000000000000000000000000000000000000000000000000000008152600401610fa19061360e565b60405180910390fd5b6001600787604051610fbc919061333e565b908152602001604051809103902060006101000a81548160ff021916908315150217905550604051806080016040528086815260200185815260200184815260200183815250600387604051611012919061333e565b9081526020016040518091039020600082015181600001908051906020019061103c929190612938565b506020820151816001019080519060200190611059929190612938565b50604082015181600201556060820151816003015590505080600a87604051611082919061333e565b908152602001604051809103902090805190602001906110a3929190612938565b50505050505050565b6005818051602081018201805184825260208301602085012081835280955050505050506000915054906101000a900460ff1681565b6060806060806060806000808054905067ffffffffffffffff81111561110b5761110a613a97565b5b60405190808252806020026020018201604052801561113e57816020015b60608152602001906001900390816111295790505b5090506000808054905067ffffffffffffffff81111561116157611160613a97565b5b60405190808252806020026020018201604052801561118f5781602001602082028036833780820191505090505b5090506000808054905067ffffffffffffffff8111156111b2576111b1613a97565b5b6040519080825280602002602001820160405280156111e05781602001602082028036833780820191505090505b5090506000808054905067ffffffffffffffff81111561120357611202613a97565b5b60405190808252806020026020018201604052801561123657816020015b60608152602001906001900390816112215790505b5090506000808054905067ffffffffffffffff81111561125957611258613a97565b5b6040519080825280602002602001820160405280156112875781602001602082028036833780820191505090505b50905060005b6000805490508110156117fb57600060038111156112ae576112ad613a0a565b5b6004600083815481106112c4576112c3613a68565b5b906000526020600020016040516112db9190613355565b908152602001604051809103902060010160169054906101000a900460ff16600381111561130c5761130b613a0a565b5b141561136b576040518060400160405280600781526020017f4f7264657265640000000000000000000000000000000000000000000000000081525083828151811061135b5761135a613a68565b5b6020026020010181905250611635565b6001600381111561137f5761137e613a0a565b5b60046000838154811061139557611394613a68565b5b906000526020600020016040516113ac9190613355565b908152602001604051809103902060010160169054906101000a900460ff1660038111156113dd576113dc613a0a565b5b141561143c576040518060400160405280600f81526020017f5061796d656e747265636569766564000000000000000000000000000000000081525083828151811061142c5761142b613a68565b5b6020026020010181905250611634565b600260038111156114505761144f613a0a565b5b60046000838154811061146657611465613a68565b5b9060005260206000200160405161147d9190613355565b908152602001604051809103902060010160169054906101000a900460ff1660038111156114ae576114ad613a0a565b5b141561150d576040518060400160405280600a81526020017f44697370617463686564000000000000000000000000000000000000000000008152508382815181106114fd576114fc613a68565b5b6020026020010181905250611633565b6003808111156115205761151f613a0a565b5b60046000838154811061153657611535613a68565b5b9060005260206000200160405161154d9190613355565b908152602001604051809103902060010160169054906101000a900460ff16600381111561157e5761157d613a0a565b5b14156115dd576040518060400160405280600781526020017f41727269766564000000000000000000000000000000000000000000000000008152508382815181106115cd576115cc613a68565b5b6020026020010181905250611632565b6040518060400160405280600781526020017f556e6b6e6f776e0000000000000000000000000000000000000000000000000081525083828151811061162657611625613a68565b5b60200260200101819052505b5b5b5b60046000828154811061164b5761164a613a68565b5b906000526020600020016040516116629190613355565b9081526020016040518091039020600001805461167e9061392f565b80601f01602080910402602001604051908101604052809291908181526020018280546116aa9061392f565b80156116f75780601f106116cc576101008083540402835291602001916116f7565b820191906000526020600020905b8154815290600101906020018083116116da57829003601f168201915b505050505086828151811061170f5761170e613a68565b5b60200260200101819052506004600082815481106117305761172f613a68565b5b906000526020600020016040516117479190613355565b908152602001604051809103902060010160149054906101000a900461ffff1661ffff1684828151811061177e5761177d613a68565b5b6020026020010181815250506004600082815481106117a05761179f613a68565b5b906000526020600020016040516117b79190613355565b9081526020016040518091039020600201548282815181106117dc576117db613a68565b5b60200260200101818152505080806117f390613992565b91505061128d565b506000858585858585805480602002602001604051908101604052809291908181526020016000905b828210156118d05783829060005260206000200180546118439061392f565b80601f016020809104026020016040519081016040528092919081815260200182805461186f9061392f565b80156118bc5780601f10611891576101008083540402835291602001916118bc565b820191906000526020600020905b81548152906001019060200180831161189f57829003601f168201915b505050505081526020019060010190611824565b5050505095509a509a509a509a509a509a505050505050909192939495565b600b8180516020810182018051848252602083016020850120818352809550505050505060009150905080546119249061392f565b80601f01602080910402602001604051908101604052809291908181526020018280546119509061392f565b801561199d5780601f106119725761010080835404028352916020019161199d565b820191906000526020600020905b81548152906001019060200180831161198057829003601f168201915b505050505081565b6008866040516119b5919061333e565b908152602001604051809103902060009054906101000a900460ff1615611a11576040517f08c379a0000000000000000000000000000000000000000000000000000000008152600401611a089061368e565b60405180910390fd5b600781604051611a21919061333e565b908152602001604051809103902060009054906101000a900460ff16611a7c576040517f08c379a0000000000000000000000000000000000000000000000000000000008152600401611a73906135ae565b60405180910390fd5b6001600887604051611a8e919061333e565b908152602001604051809103902060006101000a81548160ff0219169083151502179055506040518060a001604052808681526020018573ffffffffffffffffffffffffffffffffffffffff1681526020018461ffff16815260200160006003811115611afe57611afd613a0a565b5b815260200183815250600487604051611b17919061333e565b90815260200160405180910390206000820151816000019080519060200190611b41929190612938565b5060208201518160010160006101000a81548173ffffffffffffffffffffffffffffffffffffffff021916908373ffffffffffffffffffffffffffffffffffffffff16021790555060408201518160010160146101000a81548161ffff021916908361ffff16021790555060608201518160010160166101000a81548160ff02191690836003811115611bd757611bd6613a0a565b5b02179055506080820151816002015590505080600b87604051611bfa919061333e565b90815260200160405180910390209080519060200190611c1b929190612938565b50600086908060018154018082558091505060019003906000526020600020016000909190919091509080519060200190611c57929190612938565b50505050505050565b600a818051602081018201805184825260208301602085012081835280955050505050506000915090508054611c959061392f565b80601f0160208091040260200160405190810160405280929190818152602001828054611cc19061392f565b8015611d0e5780601f10611ce357610100808354040283529160200191611d0e565b820191906000526020600020905b815481529060010190602001808311611cf157829003601f168201915b505050505081565b600080600683604051611d29919061333e565b908152602001604051809103902060009054906101000a900460ff16611d84576040517f08c379a0000000000000000000000000000000000000000000000000000000008152600401611d7b9061364e565b60405180910390fd5b600283604051611d94919061333e565b908152602001604051809103902060000160009054906101000a900461ffff16600284604051611dc4919061333e565b90815260200160405180910390206001015491509150915091565b600684604051611def919061333e565b908152602001604051809103902060009054906101000a900460ff1615611e4b576040517f08c379a0000000000000000000000000000000000000000000000000000000008152600401611e42906135ee565b60405180910390fd5b600581604051611e5b919061333e565b908152602001604051809103902060009054906101000a900460ff16611eb6576040517f08c379a0000000000000000000000000000000000000000000000000000000008152600401611ead906135ce565b60405180910390fd5b6001600685604051611ec8919061333e565b908152602001604051809103902060006101000a81548160ff02191690831515021790555060405180604001604052808461ffff16815260200183815250600285604051611f16919061333e565b908152602001604051809103902060008201518160000160006101000a81548161ffff021916908361ffff1602179055506020820151816001015590505080600985604051611f65919061333e565b90815260200160405180910390209080519060200190611f86929190612938565b5050505050565b606060008060606000600886604051611fa6919061333e565b908152602001604051809103902060009054906101000a900460ff16612001576040517f08c379a0000000000000000000000000000000000000000000000000000000008152600401611ff8906136ce565b60405180910390fd5b60606000600381111561201757612016613a0a565b5b600488604051612027919061333e565b908152602001604051809103902060010160169054906101000a900460ff16600381111561205857612057613a0a565b5b141561209b576040518060400160405280600781526020017f4f72646572656400000000000000000000000000000000000000000000000000815250905061229e565b600160038111156120af576120ae613a0a565b5b6004886040516120bf919061333e565b908152602001604051809103902060010160169054906101000a900460ff1660038111156120f0576120ef613a0a565b5b1415612133576040518060400160405280600f81526020017f5061796d656e7472656365697665640000000000000000000000000000000000815250905061229d565b6002600381111561214757612146613a0a565b5b600488604051612157919061333e565b908152602001604051809103902060010160169054906101000a900460ff16600381111561218857612187613a0a565b5b14156121cb576040518060400160405280600a81526020017f4469737061746368656400000000000000000000000000000000000000000000815250905061229c565b6003808111156121de576121dd613a0a565b5b6004886040516121ee919061333e565b908152602001604051809103902060010160169054906101000a900460ff16600381111561221f5761221e613a0a565b5b1415612262576040518060400160405280600781526020017f4172726976656400000000000000000000000000000000000000000000000000815250905061229b565b6040518060400160405280600781526020017f556e6b6e6f776e0000000000000000000000000000000000000000000000000081525090505b5b5b5b6004876040516122ae919061333e565b90815260200160405180910390206000016004886040516122cf919061333e565b908152602001604051809103902060010160009054906101000a900473ffffffffffffffffffffffffffffffffffffffff16600489604051612311919061333e565b908152602001604051809103902060010160149054906101000a900461ffff168360048b604051612342919061333e565b9081526020016040518091039020600201548480546123609061392f565b80601f016020809104026020016040519081016040528092919081815260200182805461238c9061392f565b80156123d95780601f106123ae576101008083540402835291602001916123d9565b820191906000526020600020905b8154815290600101906020018083116123bc57829003601f168201915b50505050509450955095509550955095505091939590929450565b6002818051602081018201805184825260208301602085012081835280955050505050506000915090508060000160009054906101000a900461ffff16908060010154905082565b6008818051602081018201805184825260208301602085012081835280955050505050506000915054906101000a900460ff1681565b60098180516020810182018051848252602083016020850120818352809550505050505060009150905080546124a79061392f565b80601f01602080910402602001604051908101604052809291908181526020018280546124d39061392f565b80156125205780601f106124f557610100808354040283529160200191612520565b820191906000526020600020905b81548152906001019060200180831161250357829003601f168201915b505050505081565b606080606060088460405161253d919061333e565b908152602001604051809103902060009054906101000a900460ff16612598576040517f08c379a000000000000000000000000000000000000000000000000000000000815260040161258f906136ce565b60405180910390fd5b6000600b856040516125aa919061333e565b908152602001604051809103902080546125c39061392f565b80601f01602080910402602001604051908101604052809291908181526020018280546125ef9061392f565b801561263c5780601f106126115761010080835404028352916020019161263c565b820191906000526020600020905b81548152906001019060200180831161261f57829003601f168201915b505050505090506000600a82604051612655919061333e565b9081526020016040518091039020805461266e9061392f565b80601f016020809104026020016040519081016040528092919081815260200182805461269a9061392f565b80156126e75780601f106126bc576101008083540402835291602001916126e7565b820191906000526020600020905b8154815290600101906020018083116126ca57829003601f168201915b505050505090506000600982604051612700919061333e565b908152602001604051809103902080546127199061392f565b80601f01602080910402602001604051908101604052809291908181526020018280546127459061392f565b80156127925780601f1061276757610100808354040283529160200191612792565b820191906000526020600020905b81548152906001019060200180831161277557829003601f168201915b505050505090508082849550955095505050509193909250565b6006818051602081018201805184825260208301602085012081835280955050505050506000915054906101000a900460ff1681565b60038180516020810182018051848252602083016020850120818352809550505050505060009150905080600001805461281b9061392f565b80601f01602080910402602001604051908101604052809291908181526020018280546128479061392f565b80156128945780601f1061286957610100808354040283529160200191612894565b820191906000526020600020905b81548152906001019060200180831161287757829003601f168201915b5050505050908060010180546128a99061392f565b80601f01602080910402602001604051908101604052809291908181526020018280546128d59061392f565b80156129225780601f106128f757610100808354040283529160200191612922565b820191906000526020600020905b81548152906001019060200180831161290557829003601f168201915b5050505050908060020154908060030154905084565b8280546129449061392f565b90600052602060002090601f01602090048101928261296657600085556129ad565b82601f1061297f57805160ff19168380011785556129ad565b828001600101855582156129ad579182015b828111156129ac578251825591602001919060010190612991565b5b5090506129ba91906129be565b5090565b5b808211156129d75760008160009055506001016129bf565b5090565b60006129ee6129e98461373c565b613717565b905082815260208101848484011115612a0a57612a09613acb565b5b612a158482856138ed565b509392505050565b600081359050612a2c81613d34565b92915050565b600082601f830112612a4757612a46613ac6565b5b8135612a578482602086016129db565b91505092915050565b600081359050612a6f81613d4b565b92915050565b600081359050612a8481613d62565b92915050565b600081359050612a9981613d79565b92915050565b600060208284031215612ab557612ab4613ad5565b5b600082013567ffffffffffffffff811115612ad357612ad2613ad0565b5b612adf84828501612a32565b91505092915050565b60008060008060008060c08789031215612b0557612b04613ad5565b5b600087013567ffffffffffffffff811115612b2357612b22613ad0565b5b612b2f89828a01612a32565b965050602087013567ffffffffffffffff811115612b5057612b4f613ad0565b5b612b5c89828a01612a32565b9550506040612b6d89828a01612a1d565b9450506060612b7e89828a01612a60565b9350506080612b8f89828a01612a75565b92505060a087013567ffffffffffffffff811115612bb057612baf613ad0565b5b612bbc89828a01612a32565b9150509295509295509295565b600080600080600060a08688031215612be557612be4613ad5565b5b600086013567ffffffffffffffff811115612c0357612c02613ad0565b5b612c0f88828901612a32565b955050602086013567ffffffffffffffff811115612c3057612c2f613ad0565b5b612c3c88828901612a32565b945050604086013567ffffffffffffffff811115612c5d57612c5c613ad0565b5b612c6988828901612a32565b9350506060612c7a88828901612a75565b9250506080612c8b88828901612a75565b9150509295509295909350565b60008060008060008060c08789031215612cb557612cb4613ad5565b5b600087013567ffffffffffffffff811115612cd357612cd2613ad0565b5b612cdf89828a01612a32565b965050602087013567ffffffffffffffff811115612d0057612cff613ad0565b5b612d0c89828a01612a32565b955050604087013567ffffffffffffffff811115612d2d57612d2c613ad0565b5b612d3989828a01612a32565b9450506060612d4a89828a01612a75565b9350506080612d5b89828a01612a75565b92505060a087013567ffffffffffffffff811115612d7c57612d7b613ad0565b5b612d8889828a01612a32565b9150509295509295509295565b60008060008060808587031215612daf57612dae613ad5565b5b600085013567ffffffffffffffff811115612dcd57612dcc613ad0565b5b612dd987828801612a32565b9450506020612dea87828801612a60565b9350506040612dfb87828801612a75565b925050606085013567ffffffffffffffff811115612e1c57612e1b613ad0565b5b612e2887828801612a32565b91505092959194509250565b60008060408385031215612e4b57612e4a613ad5565b5b600083013567ffffffffffffffff811115612e6957612e68613ad0565b5b612e7585828601612a32565b9250506020612e8685828601612a8a565b9150509250929050565b600060208284031215612ea657612ea5613ad5565b5b6000612eb484828501612a75565b91505092915050565b6000612ec98383612f01565b60208301905092915050565b6000612ee1838361306e565b905092915050565b6000612ef58383613320565b60208301905092915050565b612f0a81613865565b82525050565b612f1981613865565b82525050565b6000612f2a826137b2565b612f348185613805565b9350612f3f8361376d565b8060005b83811015612f70578151612f578882612ebd565b9750612f62836137de565b925050600181019050612f43565b5085935050505092915050565b6000612f88826137bd565b612f928185613816565b935083602082028501612fa48561377d565b8060005b85811015612fe05784840389528151612fc18582612ed5565b9450612fcc836137eb565b925060208a01995050600181019050612fa8565b50829750879550505050505092915050565b6000612ffd826137c8565b6130078185613827565b93506130128361378d565b8060005b8381101561304357815161302a8882612ee9565b9750613035836137f8565b925050600181019050613016565b5085935050505092915050565b61305981613877565b82525050565b613068816138db565b82525050565b6000613079826137d3565b6130838185613838565b93506130938185602086016138fc565b61309c81613ada565b840191505092915050565b60006130b2826137d3565b6130bc8185613849565b93506130cc8185602086016138fc565b6130d581613ada565b840191505092915050565b60006130eb826137d3565b6130f5818561385a565b93506131058185602086016138fc565b80840191505092915050565b6000815461311e8161392f565b613128818661385a565b94506001821660008114613143576001811461315457613187565b60ff19831686528186019350613187565b61315d8561379d565b60005b8381101561317f57815481890152600182019150602081019050613160565b838801955050505b50505092915050565b600061319d601a83613849565b91506131a882613aeb565b602082019050919050565b60006131c0602683613849565b91506131cb82613b14565b604082019050919050565b60006131e3602983613849565b91506131ee82613b63565b604082019050919050565b6000613206601783613849565b915061321182613bb2565b602082019050919050565b6000613229602683613849565b915061323482613bdb565b604082019050919050565b600061324c601783613849565b915061325782613c2a565b602082019050919050565b600061326f601783613849565b915061327a82613c53565b602082019050919050565b6000613292601783613849565b915061329d82613c7c565b602082019050919050565b60006132b5601583613849565b91506132c082613ca5565b602082019050919050565b60006132d8601a83613849565b91506132e382613cce565b602082019050919050565b60006132fb601583613849565b915061330682613cf7565b602082019050919050565b61331a81613896565b82525050565b613329816138c4565b82525050565b613338816138c4565b82525050565b600061334a82846130e0565b915081905092915050565b60006133618284613111565b915081905092915050565b600060c08201905081810360008301526133868189612f7d565b9050818103602083015261339a8188612f7d565b905081810360408301526133ae8187612f1f565b905081810360608301526133c28186612ff2565b905081810360808301526133d68185612f7d565b905081810360a08301526133ea8184612ff2565b9050979650505050505050565b600060208201905061340c6000830184613050565b92915050565b6000602082019050818103600083015261342c81846130a7565b905092915050565b600060a082019050818103600083015261344e81886130a7565b905061345d6020830187612f10565b61346a6040830186613311565b613477606083018561305f565b613484608083018461332f565b9695505050505050565b600060a08201905081810360008301526134a881886130a7565b90506134b76020830187612f10565b6134c46040830186613311565b81810360608301526134d681856130a7565b90506134e5608083018461332f565b9695505050505050565b6000606082019050818103600083015261350981866130a7565b9050818103602083015261351d81856130a7565b9050818103604083015261353181846130a7565b9050949350505050565b6000608082019050818103600083015261355581876130a7565b9050818103602083015261356981866130a7565b9050613578604083018561332f565b613585606083018461332f565b95945050505050565b600060208201905081810360008301526135a781613190565b9050919050565b600060208201905081810360008301526135c7816131b3565b9050919050565b600060208201905081810360008301526135e7816131d6565b9050919050565b60006020820190508181036000830152613607816131f9565b9050919050565b600060208201905081810360008301526136278161321c565b9050919050565b600060208201905081810360008301526136478161323f565b9050919050565b6000602082019050818103600083015261366781613262565b9050919050565b6000602082019050818103600083015261368781613285565b9050919050565b600060208201905081810360008301526136a7816132a8565b9050919050565b600060208201905081810360008301526136c7816132cb565b9050919050565b600060208201905081810360008301526136e7816132ee565b9050919050565b60006040820190506137036000830185613311565b613710602083018461332f565b9392505050565b6000613721613732565b905061372d8282613961565b919050565b6000604051905090565b600067ffffffffffffffff82111561375757613756613a97565b5b61376082613ada565b9050602081019050919050565b6000819050602082019050919050565b6000819050602082019050919050565b6000819050602082019050919050565b60008190508160005260206000209050919050565b600081519050919050565b600081519050919050565b600081519050919050565b600081519050919050565b6000602082019050919050565b6000602082019050919050565b6000602082019050919050565b600082825260208201905092915050565b600082825260208201905092915050565b600082825260208201905092915050565b600082825260208201905092915050565b600082825260208201905092915050565b600081905092915050565b6000613870826138a4565b9050919050565b60008115159050919050565b600081905061389182613d20565b919050565b600061ffff82169050919050565b600073ffffffffffffffffffffffffffffffffffffffff82169050919050565b6000819050919050565b600060ff82169050919050565b60006138e682613883565b9050919050565b82818337600083830152505050565b60005b8381101561391a5780820151818401526020810190506138ff565b83811115613929576000848401525b50505050565b6000600282049050600182168061394757607f821691505b6020821081141561395b5761395a613a39565b5b50919050565b61396a82613ada565b810181811067ffffffffffffffff8211171561398957613988613a97565b5b80604052505050565b600061399d826138c4565b91507fffffffffffffffffffffffffffffffffffffffffffffffffffffffffffffffff8214156139d0576139cf6139db565b5b600182019050919050565b7f4e487b7100000000000000000000000000000000000000000000000000000000600052601160045260246000fd5b7f4e487b7100000000000000000000000000000000000000000000000000000000600052602160045260246000fd5b7f4e487b7100000000000000000000000000000000000000000000000000000000600052602260045260246000fd5b7f4e487b7100000000000000000000000000000000000000000000000000000000600052603260045260246000fd5b7f4e487b7100000000000000000000000000000000000000000000000000000000600052604160045260246000fd5b600080fd5b600080fd5b600080fd5b600080fd5b6000601f19601f8301169050919050565b7f50726f64756374696f6e20616c7265616479206578697374732e000000000000600082015250565b7f5468652072656665727265642073746f72616765696420646f6573206e6f742060008201527f65786973742e0000000000000000000000000000000000000000000000000000602082015250565b7f5468652072656665727265642070726f64756374696f6e696420646f6573206e60008201527f6f742065786973742e0000000000000000000000000000000000000000000000602082015250565b7f54657374696e6720616c7265616479206578697374732e000000000000000000600082015250565b7f5468652072656665727265642074657374696e67696420646f6573206e6f742060008201527f65786973742e0000000000000000000000000000000000000000000000000000602082015250565b7f53746f7261676520616c7265616479206578697374732e000000000000000000600082015250565b7f54657374696e6720646f6573206e6f742065786973742e000000000000000000600082015250565b7f53746f7261676520646f6573206e6f742065786973742e000000000000000000600082015250565b7f4f7264657220616c7265616479206578697374732e0000000000000000000000600082015250565b7f50726f64756374696f6e20646f6573206e6f742065786973742e000000000000600082015250565b7f4f7264657220646f6573206e6f742065786973742e0000000000000000000000600082015250565b60048110613d3157613d30613a0a565b5b50565b613d3d81613865565b8114613d4857600080fd5b50565b613d5481613896565b8114613d5f57600080fd5b50565b613d6b816138c4565b8114613d7657600080fd5b50565b613d82816138ce565b8114613d8d57600080fd5b5056fea2646970667358221220619a784b36b5ad630f312ca32b12822f30daf72e59ba018f5519d95784c70bf564736f6c63430008070033",
  "immutableReferences": {},
  "source": "// SPDX-License-Identifier: MIT\npragma solidity ^0.8.0;\n\ncontract SeafeedRegistry {\n    enum OrderStatus {\n        ORDERED,\n        PAYMENTRECEIVED,\n        DISPATCHED,\n        ARRIVED\n    }\n\n    struct Production {\n        string BatchID;\n        string FarmID;\n        uint256 Volume;\n        uint256 DateTime; //unix time\n    }\n\n    struct Testing {\n        uint16 Temperature;\n        uint256 DateTime;\n    }\n\n    struct Storage {\n        string Manufacturer;\n        string Location;\n        uint256 DateTime;\n        uint256 BestBefore;\n    }\n\n    struct SaleOrder {\n        string Customer;\n        address CustomerAddr;\n        uint16 Quantity;\n        OrderStatus OS;\n        uint256 DateTime;\n    }\n\n    string[] public allorders;\n\n    // storage of structs\n    mapping(string => Production) public productions;\n    mapping(string => Testing) public testings;\n    mapping(string => Storage) public storages;\n    mapping(string => SaleOrder) public saleorders;\n\n    // existence of structs\n    mapping(string => bool) public productionExists;\n    mapping(string => bool) public testingExists;\n    mapping(string => bool) public storageExists;\n    mapping(string => bool) public saleorderExists;\n\n    // trace from end product to source\n    mapping(string => string) public TestingToProduction;\n    mapping(string => string) public StorageToTesting;\n    mapping(string => string) public OrderToStorage;\n\n// the setters\n    function logProduction(\n        string memory _productionid,\n        string memory _batchid,\n        string memory _farmid,\n        uint256 _volume,\n        uint256 _datetime)\n        public\n    {\n        require(!productionExists[_productionid], \"Production already exists.\");\n\n        productionExists[_productionid] = true;\n        productions[_productionid] = Production(_batchid,_farmid,_volume,_datetime);\n    }\n\n    function logTesting(\n        string memory _testingid,\n        uint16 _temperature,\n        uint256 _datetime,\n        string memory _productionid\n    )\n        public\n    {\n        require(!testingExists[_testingid], \"Testing already exists.\");\n        require(productionExists[_productionid], \"The referred productionid does not exist.\");\n        \n        testingExists[_testingid] = true;\n        testings[_testingid] = Testing(_temperature,_datetime);\n        TestingToProduction[_testingid] = _productionid; // traceability\n    }\n\n    function logStorage(\n        string memory _storageid,\n        string memory _manufacturer,\n        string memory _location,\n        uint256 _datetime,\n        uint256 _bestbefore,\n        string memory _testingid\n    )\n        public\n    {\n        require(!storageExists[_storageid], \"Storage already exists.\");\n        require(testingExists[_testingid], \"The referred testingid does not exist.\");\n\n        storageExists[_storageid] = true;\n        storages[_storageid] = Storage(_manufacturer,_location,_datetime,_bestbefore);\n        StorageToTesting[_storageid] = _testingid; // traceability\n    }\n\n    function logSaleOrder(\n        string memory _orderid, \n        string memory _customer, \n        address _customeraddr,\n        uint16 _quantity, \n        uint256 _datetime,\n        string memory _storageid) \n        public \n    {\n        require(!saleorderExists[_orderid], \"Order already exists.\");\n        require(storageExists[_storageid], \"The referred storageid does not exist.\");\n        \n        saleorderExists[_orderid] = true;\n        saleorders[_orderid] = SaleOrder(_customer,_customeraddr,_quantity,OrderStatus.ORDERED,_datetime);\n        OrderToStorage[_orderid] = _storageid;\n        allorders.push(_orderid);\n    }\n\n    function updateOrder(string memory _orderid, uint8 _ordertatus) public {\n        require(saleorderExists[_orderid], \"Order does not exist.\");\n        saleorders[_orderid].OS = OrderStatus(_ordertatus);\n    }\n\n// the getters\n    function queryProduction(string memory _productionid) \n        public \n        view \n        returns(\n            string memory,\n            string memory,\n            uint256,\n            uint256) \n    {\n        require(productionExists[_productionid], \"Production does not exist.\");\n        return(\n            productions[_productionid].BatchID,\n            productions[_productionid].FarmID,\n            productions[_productionid].Volume,\n            productions[_productionid].DateTime\n        );\n    }\n\n    function queryTesting(string memory _testingid)\n        public\n        view\n        returns(\n            uint16,\n            uint256\n        )\n    {\n        require(testingExists[_testingid], \"Testing does not exist.\");\n        return(\n            testings[_testingid].Temperature,\n            testings[_testingid].DateTime\n        );\n    }\n\n    function queryStorage(string memory _storageid)\n        public\n        view\n        returns(\n            string memory,\n            string memory,\n            uint256,\n            uint256\n        )\n    {\n        require(storageExists[_storageid],\"Storage does not exist.\");\n        return(\n            storages[_storageid].Manufacturer,\n            storages[_storageid].Location,\n            storages[_storageid].DateTime,\n            storages[_storageid].BestBefore\n        );\n    }\n\n    function querySaleOrder(string memory _orderid)\n        public\n        view\n        returns(\n            string memory,\n            address,\n            uint16,\n            string memory,\n            uint256)\n    {\n        require(saleorderExists[_orderid], \"Order does not exist.\");\n\n        string memory orderstatus;\n        if (saleorders[_orderid].OS == OrderStatus.ORDERED) {\n            orderstatus = \"Ordered\";\n        } else if (saleorders[_orderid].OS == OrderStatus.PAYMENTRECEIVED) {\n            orderstatus = \"Paymentreceived\";\n        } else if (saleorders[_orderid].OS == OrderStatus.DISPATCHED) {\n            orderstatus = \"Dispatched\";\n        } else if (saleorders[_orderid].OS == OrderStatus.ARRIVED) {\n            orderstatus = \"Arrived\";\n        } else {\n            orderstatus = \"Unknown\";\n        }\n\n        return(\n            saleorders[_orderid].Customer,\n            saleorders[_orderid].CustomerAddr,\n            saleorders[_orderid].Quantity,\n            orderstatus,\n            saleorders[_orderid].DateTime\n        );\n    }\n\n    function queryAllSaleOrders() public view \n        returns(\n            string[] memory,\n            string[] memory,\n            address[] memory,\n            uint256[] memory,\n            string[] memory,\n            uint256[] memory\n        )\n    {\n        string[] memory customers = new string[](allorders.length);\n        address[] memory customeraddrs = new address[](allorders.length);\n        uint256[] memory quantities = new uint256[](allorders.length);\n        string[] memory statuss = new string[](allorders.length);\n        uint256[] memory datetimes = new uint256[](allorders.length);\n\n        for(uint256 i=0; i<allorders.length; i++) {\n            if (saleorders[allorders[i]].OS == OrderStatus.ORDERED) {\n                statuss[i] = \"Ordered\";\n            } else if (saleorders[allorders[i]].OS == OrderStatus.PAYMENTRECEIVED) {\n                statuss[i] = \"Paymentreceived\";\n            } else if (saleorders[allorders[i]].OS == OrderStatus.DISPATCHED) {\n                statuss[i] = \"Dispatched\";\n            } else if (saleorders[allorders[i]].OS == OrderStatus.ARRIVED) {\n                statuss[i] = \"Arrived\";\n            } else {\n                statuss[i] = \"Unknown\";\n            }\n\n            customers[i] = saleorders[allorders[i]].Customer;\n            quantities[i] = saleorders[allorders[i]].Quantity;\n            datetimes[i] = saleorders[allorders[i]].DateTime;\n        }\n\n        return(allorders,customers,customeraddrs,quantities,statuss,datetimes);\n    }\n\n    // use an orderid to trace back to source\n    function querySaleOrderSource(string memory _orderid) public view \n        returns (\n            string memory,\n            string memory,\n            string memory\n        ) \n    {\n        require(saleorderExists[_orderid], \"Order does not exist.\");\n        string memory storageid = OrderToStorage[_orderid];\n        string memory testingid = StorageToTesting[storageid];\n        string memory productionid = TestingToProduction[testingid];\n        return (productionid,testingid,storageid);\n    }\n}",
  "sourcePath": "/home/yih/Documents/dev/beston-dapps/contracts/carbon/SeafeedRegistry.sol",
  "compiler": {
    "name": "solc",
    "version": "0.8.7+commit.e28d00a7.Emscripten.clang"
  },
  "schemaVersion": "3.4.1",
  "updatedAt": "2023-06-09T04:53:49.295Z",
  "networkType": "ethereum",
  "devdoc": {
    "kind": "dev",
    "methods": {},
    "version": 1
  },
  "userdoc": {
    "kind": "user",
    "methods": {},
    "version": 1
  }
}