{
  "contractName": "Shred",
  "abi": [
    {
      "inputs": [
        {
          "internalType": "contract Moz",
          "name": "_mozContract",
          "type": "address"
        }
      ],
      "stateMutability": "nonpayable",
      "type": "constructor"
    },
    {
      "anonymous": false,
      "inputs": [
        {
          "indexed": true,
          "internalType": "address",
          "name": "owner",
          "type": "address"
        },
        {
          "indexed": true,
          "internalType": "address",
          "name": "approved",
          "type": "address"
        },
        {
          "indexed": true,
          "internalType": "uint256",
          "name": "tokenId",
          "type": "uint256"
        }
      ],
      "name": "Approval",
      "type": "event"
    },
    {
      "anonymous": false,
      "inputs": [
        {
          "indexed": true,
          "internalType": "address",
          "name": "owner",
          "type": "address"
        },
        {
          "indexed": true,
          "internalType": "address",
          "name": "operator",
          "type": "address"
        },
        {
          "indexed": false,
          "internalType": "bool",
          "name": "approved",
          "type": "bool"
        }
      ],
      "name": "ApprovalForAll",
      "type": "event"
    },
    {
      "anonymous": false,
      "inputs": [
        {
          "indexed": false,
          "internalType": "string",
          "name": "tokenid",
          "type": "string"
        }
      ],
      "name": "NewTokenMinted",
      "type": "event"
    },
    {
      "anonymous": false,
      "inputs": [
        {
          "indexed": true,
          "internalType": "address",
          "name": "from",
          "type": "address"
        },
        {
          "indexed": true,
          "internalType": "address",
          "name": "to",
          "type": "address"
        },
        {
          "indexed": true,
          "internalType": "uint256",
          "name": "tokenId",
          "type": "uint256"
        }
      ],
      "name": "Transfer",
      "type": "event"
    },
    {
      "inputs": [
        {
          "internalType": "address",
          "name": "to",
          "type": "address"
        },
        {
          "internalType": "uint256",
          "name": "tokenId",
          "type": "uint256"
        }
      ],
      "name": "approve",
      "outputs": [],
      "stateMutability": "nonpayable",
      "type": "function"
    },
    {
      "inputs": [
        {
          "internalType": "address",
          "name": "owner",
          "type": "address"
        }
      ],
      "name": "balanceOf",
      "outputs": [
        {
          "internalType": "uint256",
          "name": "",
          "type": "uint256"
        }
      ],
      "stateMutability": "view",
      "type": "function"
    },
    {
      "inputs": [
        {
          "internalType": "uint256",
          "name": "tokenId",
          "type": "uint256"
        }
      ],
      "name": "getApproved",
      "outputs": [
        {
          "internalType": "address",
          "name": "",
          "type": "address"
        }
      ],
      "stateMutability": "view",
      "type": "function"
    },
    {
      "inputs": [
        {
          "internalType": "address",
          "name": "owner",
          "type": "address"
        },
        {
          "internalType": "address",
          "name": "operator",
          "type": "address"
        }
      ],
      "name": "isApprovedForAll",
      "outputs": [
        {
          "internalType": "bool",
          "name": "",
          "type": "bool"
        }
      ],
      "stateMutability": "view",
      "type": "function"
    },
    {
      "inputs": [
        {
          "internalType": "uint256",
          "name": "",
          "type": "uint256"
        }
      ],
      "name": "mozBags",
      "outputs": [
        {
          "internalType": "string",
          "name": "",
          "type": "string"
        }
      ],
      "stateMutability": "view",
      "type": "function"
    },
    {
      "inputs": [
        {
          "internalType": "uint256",
          "name": "",
          "type": "uint256"
        }
      ],
      "name": "mozBars",
      "outputs": [
        {
          "internalType": "string",
          "name": "",
          "type": "string"
        }
      ],
      "stateMutability": "view",
      "type": "function"
    },
    {
      "inputs": [],
      "name": "mozContract",
      "outputs": [
        {
          "internalType": "contract Moz",
          "name": "",
          "type": "address"
        }
      ],
      "stateMutability": "view",
      "type": "function"
    },
    {
      "inputs": [],
      "name": "name",
      "outputs": [
        {
          "internalType": "string",
          "name": "",
          "type": "string"
        }
      ],
      "stateMutability": "view",
      "type": "function"
    },
    {
      "inputs": [
        {
          "internalType": "uint256",
          "name": "tokenId",
          "type": "uint256"
        }
      ],
      "name": "ownerOf",
      "outputs": [
        {
          "internalType": "address",
          "name": "",
          "type": "address"
        }
      ],
      "stateMutability": "view",
      "type": "function"
    },
    {
      "inputs": [
        {
          "internalType": "address",
          "name": "from",
          "type": "address"
        },
        {
          "internalType": "address",
          "name": "to",
          "type": "address"
        },
        {
          "internalType": "uint256",
          "name": "tokenId",
          "type": "uint256"
        }
      ],
      "name": "safeTransferFrom",
      "outputs": [],
      "stateMutability": "nonpayable",
      "type": "function"
    },
    {
      "inputs": [
        {
          "internalType": "address",
          "name": "from",
          "type": "address"
        },
        {
          "internalType": "address",
          "name": "to",
          "type": "address"
        },
        {
          "internalType": "uint256",
          "name": "tokenId",
          "type": "uint256"
        },
        {
          "internalType": "bytes",
          "name": "_data",
          "type": "bytes"
        }
      ],
      "name": "safeTransferFrom",
      "outputs": [],
      "stateMutability": "nonpayable",
      "type": "function"
    },
    {
      "inputs": [
        {
          "internalType": "address",
          "name": "operator",
          "type": "address"
        },
        {
          "internalType": "bool",
          "name": "approved",
          "type": "bool"
        }
      ],
      "name": "setApprovalForAll",
      "outputs": [],
      "stateMutability": "nonpayable",
      "type": "function"
    },
    {
      "inputs": [
        {
          "internalType": "bytes4",
          "name": "interfaceId",
          "type": "bytes4"
        }
      ],
      "name": "supportsInterface",
      "outputs": [
        {
          "internalType": "bool",
          "name": "",
          "type": "bool"
        }
      ],
      "stateMutability": "view",
      "type": "function"
    },
    {
      "inputs": [],
      "name": "symbol",
      "outputs": [
        {
          "internalType": "string",
          "name": "",
          "type": "string"
        }
      ],
      "stateMutability": "view",
      "type": "function"
    },
    {
      "inputs": [
        {
          "internalType": "uint256",
          "name": "tokenId",
          "type": "uint256"
        }
      ],
      "name": "tokenURI",
      "outputs": [
        {
          "internalType": "string",
          "name": "",
          "type": "string"
        }
      ],
      "stateMutability": "view",
      "type": "function"
    },
    {
      "inputs": [
        {
          "internalType": "address",
          "name": "from",
          "type": "address"
        },
        {
          "internalType": "address",
          "name": "to",
          "type": "address"
        },
        {
          "internalType": "uint256",
          "name": "tokenId",
          "type": "uint256"
        }
      ],
      "name": "transferFrom",
      "outputs": [],
      "stateMutability": "nonpayable",
      "type": "function"
    },
    {
      "inputs": [
        {
          "internalType": "string",
          "name": "_tokenid",
          "type": "string"
        },
        {
          "internalType": "string",
          "name": "_metadata",
          "type": "string"
        }
      ],
      "name": "mint",
      "outputs": [],
      "stateMutability": "nonpayable",
      "type": "function"
    },
    {
      "inputs": [
        {
          "internalType": "string",
          "name": "_tokenid",
          "type": "string"
        },
        {
          "internalType": "string",
          "name": "_metadata",
          "type": "string"
        }
      ],
      "name": "updateMoz",
      "outputs": [],
      "stateMutability": "nonpayable",
      "type": "function"
    }
  ],
  "bytecode": "0x60806040523480156200001157600080fd5b50604051620030da380380620030da8339818101604052810190620000379190620001e6565b6040518060400160405280601381526020017f5368726564646564204d6f7a617272656c6c61000000000000000000000000008152506040518060400160405280600481526020017f534d4f5a000000000000000000000000000000000000000000000000000000008152508160009080519060200190620000bb9291906200011f565b508060019080519060200190620000d49291906200011f565b50505080600660006101000a81548173ffffffffffffffffffffffffffffffffffffffff021916908373ffffffffffffffffffffffffffffffffffffffff16021790555050620002e4565b8280546200012d9062000260565b90600052602060002090601f0160209004810192826200015157600085556200019d565b82601f106200016c57805160ff19168380011785556200019d565b828001600101855582156200019d579182015b828111156200019c5782518255916020019190600101906200017f565b5b509050620001ac9190620001b0565b5090565b5b80821115620001cb576000816000905550600101620001b1565b5090565b600081519050620001e081620002ca565b92915050565b600060208284031215620001ff57620001fe620002c5565b5b60006200020f84828501620001cf565b91505092915050565b6000620002258262000240565b9050919050565b6000620002398262000218565b9050919050565b600073ffffffffffffffffffffffffffffffffffffffff82169050919050565b600060028204905060018216806200027957607f821691505b6020821081141562000290576200028f62000296565b5b50919050565b7f4e487b7100000000000000000000000000000000000000000000000000000000600052602260045260246000fd5b600080fd5b620002d5816200022c565b8114620002e157600080fd5b50565b612de680620002f46000396000f3fe608060405234801561001057600080fd5b50600436106101165760003560e01c80638aa0fdad116100a2578063b224b8e711610071578063b224b8e7146102f1578063b88d4fde1461030d578063c87b56dd14610329578063e985e9c514610359578063f3c9a0bd1461038957610116565b80638aa0fdad1461026b57806395d89b411461028757806396501901146102a5578063a22cb465146102d557610116565b806323b872dd116100e957806323b872dd146101b557806342842e0e146101d1578063604bcfc0146101ed5780636352211e1461020b57806370a082311461023b57610116565b806301ffc9a71461011b57806306fdde031461014b578063081812fc14610169578063095ea7b314610199575b600080fd5b61013560048036038101906101309190611dd6565b6103b9565b6040516101429190612263565b60405180910390f35b61015361049b565b6040516101609190612299565b60405180910390f35b610183600480360381019061017e9190611ea8565b61052d565b60405161019091906121fc565b60405180910390f35b6101b360048036038101906101ae9190611d96565b6105b2565b005b6101cf60048036038101906101ca9190611c80565b6106ca565b005b6101eb60048036038101906101e69190611c80565b61072a565b005b6101f561074a565b604051610202919061227e565b60405180910390f35b61022560048036038101906102209190611ea8565b610770565b60405161023291906121fc565b60405180910390f35b61025560048036038101906102509190611c13565b610822565b60405161026291906124d2565b60405180910390f35b61028560048036038101906102809190611e30565b6108da565b005b61028f610a3c565b60405161029c9190612299565b60405180910390f35b6102bf60048036038101906102ba9190611ea8565b610ace565b6040516102cc9190612299565b60405180910390f35b6102ef60048036038101906102ea9190611d56565b610b7a565b005b61030b60048036038101906103069190611e30565b610b90565b005b61032760048036038101906103229190611cd3565b610c23565b005b610343600480360381019061033e9190611ea8565b610c85565b6040516103509190612299565b60405180910390f35b610373600480360381019061036e9190611c40565b610d2c565b6040516103809190612263565b60405180910390f35b6103a3600480360381019061039e9190611ea8565b610dc0565b6040516103b09190612299565b60405180910390f35b60007f80ac58cd000000000000000000000000000000000000000000000000000000007bffffffffffffffffffffffffffffffffffffffffffffffffffffffff1916827bffffffffffffffffffffffffffffffffffffffffffffffffffffffff1916148061048457507f5b5e139f000000000000000000000000000000000000000000000000000000007bffffffffffffffffffffffffffffffffffffffffffffffffffffffff1916827bffffffffffffffffffffffffffffffffffffffffffffffffffffffff1916145b80610494575061049382610e6c565b5b9050919050565b6060600080546104aa9061275e565b80601f01602080910402602001604051908101604052809291908181526020018280546104d69061275e565b80156105235780601f106104f857610100808354040283529160200191610523565b820191906000526020600020905b81548152906001019060200180831161050657829003601f168201915b5050505050905090565b600061053882610ed6565b610577576040517f08c379a000000000000000000000000000000000000000000000000000000000815260040161056e90612452565b60405180910390fd5b6004600083815260200190815260200160002060009054906101000a900473ffffffffffffffffffffffffffffffffffffffff169050919050565b60006105bd82610770565b90508073ffffffffffffffffffffffffffffffffffffffff168373ffffffffffffffffffffffffffffffffffffffff16141561062e576040517f08c379a000000000000000000000000000000000000000000000000000000000815260040161062590612492565b60405180910390fd5b8073ffffffffffffffffffffffffffffffffffffffff1661064d610f42565b73ffffffffffffffffffffffffffffffffffffffff16148061067c575061067b81610676610f42565b610d2c565b5b6106bb576040517f08c379a00000000000000000000000000000000000000000000000000000000081526004016106b2906123b2565b60405180910390fd5b6106c58383610f4a565b505050565b6106db6106d5610f42565b82611003565b61071a576040517f08c379a0000000000000000000000000000000000000000000000000000000008152600401610711906124b2565b60405180910390fd5b6107258383836110e1565b505050565b61074583838360405180602001604052806000815250610c23565b505050565b600660009054906101000a900473ffffffffffffffffffffffffffffffffffffffff1681565b6000806002600084815260200190815260200160002060009054906101000a900473ffffffffffffffffffffffffffffffffffffffff169050600073ffffffffffffffffffffffffffffffffffffffff168173ffffffffffffffffffffffffffffffffffffffff161415610819576040517f08c379a0000000000000000000000000000000000000000000000000000000008152600401610810906123f2565b60405180910390fd5b80915050919050565b60008073ffffffffffffffffffffffffffffffffffffffff168273ffffffffffffffffffffffffffffffffffffffff161415610893576040517f08c379a000000000000000000000000000000000000000000000000000000000815260040161088a906123d2565b60405180910390fd5b600360008373ffffffffffffffffffffffffffffffffffffffff1673ffffffffffffffffffffffffffffffffffffffff168152602001908152602001600020549050919050565b600a826040516108ea91906121c1565b908152602001604051809103902060009054906101000a900460ff1615610946576040517f08c379a000000000000000000000000000000000000000000000000000000000815260040161093d90612412565b60405180910390fd5b600882908060018154018082558091505060019003906000526020600020016000909190919091509080519060200190610981929190611a27565b50600060088054905090506109963382611348565b816009846040516109a791906121c1565b908152602001604051809103902090805190602001906109c8929190611a27565b506001600a846040516109db91906121c1565b908152602001604051809103902060006101000a81548160ff0219169083151502179055507fe45a7bd19716eabe36601ab8a44450a001dcf39029409802b230082ca08b443483604051610a2f9190612299565b60405180910390a1505050565b606060018054610a4b9061275e565b80601f0160208091040260200160405190810160405280929190818152602001828054610a779061275e565b8015610ac45780601f10610a9957610100808354040283529160200191610ac4565b820191906000526020600020905b815481529060010190602001808311610aa757829003601f168201915b5050505050905090565b60088181548110610ade57600080fd5b906000526020600020016000915090508054610af99061275e565b80601f0160208091040260200160405190810160405280929190818152602001828054610b259061275e565b8015610b725780601f10610b4757610100808354040283529160200191610b72565b820191906000526020600020905b815481529060010190602001808311610b5557829003601f168201915b505050505081565b610b8c610b85610f42565b8383611522565b5050565b600660009054906101000a900473ffffffffffffffffffffffffffffffffffffffff1673ffffffffffffffffffffffffffffffffffffffff1663f4c84d1983836040518363ffffffff1660e01b8152600401610bed9291906122bb565b600060405180830381600087803b158015610c0757600080fd5b505af1158015610c1b573d6000803e3d6000fd5b505050505050565b610c34610c2e610f42565b83611003565b610c73576040517f08c379a0000000000000000000000000000000000000000000000000000000008152600401610c6a906124b2565b60405180910390fd5b610c7f8484848461168f565b50505050565b6060610c9082610ed6565b610ccf576040517f08c379a0000000000000000000000000000000000000000000000000000000008152600401610cc690612472565b60405180910390fd5b6000610cd96116eb565b90506000815111610cf95760405180602001604052806000815250610d24565b80610d0384611702565b604051602001610d149291906121d8565b6040516020818303038152906040525b915050919050565b6000600560008473ffffffffffffffffffffffffffffffffffffffff1673ffffffffffffffffffffffffffffffffffffffff16815260200190815260200160002060008373ffffffffffffffffffffffffffffffffffffffff1673ffffffffffffffffffffffffffffffffffffffff16815260200190815260200160002060009054906101000a900460ff16905092915050565b60078181548110610dd057600080fd5b906000526020600020016000915090508054610deb9061275e565b80601f0160208091040260200160405190810160405280929190818152602001828054610e179061275e565b8015610e645780601f10610e3957610100808354040283529160200191610e64565b820191906000526020600020905b815481529060010190602001808311610e4757829003601f168201915b505050505081565b60007f01ffc9a7000000000000000000000000000000000000000000000000000000007bffffffffffffffffffffffffffffffffffffffffffffffffffffffff1916827bffffffffffffffffffffffffffffffffffffffffffffffffffffffff1916149050919050565b60008073ffffffffffffffffffffffffffffffffffffffff166002600084815260200190815260200160002060009054906101000a900473ffffffffffffffffffffffffffffffffffffffff1673ffffffffffffffffffffffffffffffffffffffff1614159050919050565b600033905090565b816004600083815260200190815260200160002060006101000a81548173ffffffffffffffffffffffffffffffffffffffff021916908373ffffffffffffffffffffffffffffffffffffffff160217905550808273ffffffffffffffffffffffffffffffffffffffff16610fbd83610770565b73ffffffffffffffffffffffffffffffffffffffff167f8c5be1e5ebec7d5bd14f71427d1e84f3dd0314c0f7b2291e5b200ac8c7c3b92560405160405180910390a45050565b600061100e82610ed6565b61104d576040517f08c379a000000000000000000000000000000000000000000000000000000000815260040161104490612392565b60405180910390fd5b600061105883610770565b90508073ffffffffffffffffffffffffffffffffffffffff168473ffffffffffffffffffffffffffffffffffffffff1614806110c757508373ffffffffffffffffffffffffffffffffffffffff166110af8461052d565b73ffffffffffffffffffffffffffffffffffffffff16145b806110d857506110d78185610d2c565b5b91505092915050565b8273ffffffffffffffffffffffffffffffffffffffff1661110182610770565b73ffffffffffffffffffffffffffffffffffffffff1614611157576040517f08c379a000000000000000000000000000000000000000000000000000000000815260040161114e90612312565b60405180910390fd5b600073ffffffffffffffffffffffffffffffffffffffff168273ffffffffffffffffffffffffffffffffffffffff1614156111c7576040517f08c379a00000000000000000000000000000000000000000000000000000000081526004016111be90612352565b60405180910390fd5b6111d2838383611863565b6111dd600082610f4a565b6001600360008573ffffffffffffffffffffffffffffffffffffffff1673ffffffffffffffffffffffffffffffffffffffff168152602001908152602001600020600082825461122d919061263e565b925050819055506001600360008473ffffffffffffffffffffffffffffffffffffffff1673ffffffffffffffffffffffffffffffffffffffff168152602001908152602001600020600082825461128491906125b7565b92505081905550816002600083815260200190815260200160002060006101000a81548173ffffffffffffffffffffffffffffffffffffffff021916908373ffffffffffffffffffffffffffffffffffffffff160217905550808273ffffffffffffffffffffffffffffffffffffffff168473ffffffffffffffffffffffffffffffffffffffff167fddf252ad1be2c89b69c2b068fc378daa952ba7f163c4a11628f55a4df523b3ef60405160405180910390a4611343838383611868565b505050565b600073ffffffffffffffffffffffffffffffffffffffff168273ffffffffffffffffffffffffffffffffffffffff1614156113b8576040517f08c379a00000000000000000000000000000000000000000000000000000000081526004016113af90612432565b60405180910390fd5b6113c181610ed6565b15611401576040517f08c379a00000000000000000000000000000000000000000000000000000000081526004016113f890612332565b60405180910390fd5b61140d60008383611863565b6001600360008473ffffffffffffffffffffffffffffffffffffffff1673ffffffffffffffffffffffffffffffffffffffff168152602001908152602001600020600082825461145d91906125b7565b92505081905550816002600083815260200190815260200160002060006101000a81548173ffffffffffffffffffffffffffffffffffffffff021916908373ffffffffffffffffffffffffffffffffffffffff160217905550808273ffffffffffffffffffffffffffffffffffffffff16600073ffffffffffffffffffffffffffffffffffffffff167fddf252ad1be2c89b69c2b068fc378daa952ba7f163c4a11628f55a4df523b3ef60405160405180910390a461151e60008383611868565b5050565b8173ffffffffffffffffffffffffffffffffffffffff168373ffffffffffffffffffffffffffffffffffffffff161415611591576040517f08c379a000000000000000000000000000000000000000000000000000000000815260040161158890612372565b60405180910390fd5b80600560008573ffffffffffffffffffffffffffffffffffffffff1673ffffffffffffffffffffffffffffffffffffffff16815260200190815260200160002060008473ffffffffffffffffffffffffffffffffffffffff1673ffffffffffffffffffffffffffffffffffffffff16815260200190815260200160002060006101000a81548160ff0219169083151502179055508173ffffffffffffffffffffffffffffffffffffffff168373ffffffffffffffffffffffffffffffffffffffff167f17307eab39ab6107e8899845ad3d59bd9653f200f220920489ca2b5937696c31836040516116829190612263565b60405180910390a3505050565b61169a8484846110e1565b6116a68484848461186d565b6116e5576040517f08c379a00000000000000000000000000000000000000000000000000000000081526004016116dc906122f2565b60405180910390fd5b50505050565b606060405180602001604052806000815250905090565b6060600082141561174a576040518060400160405280600181526020017f3000000000000000000000000000000000000000000000000000000000000000815250905061185e565b600082905060005b6000821461177c578080611765906127c1565b915050600a82611775919061260d565b9150611752565b60008167ffffffffffffffff811115611798576117976128f7565b5b6040519080825280601f01601f1916602001820160405280156117ca5781602001600182028036833780820191505090505b5090505b60008514611857576001826117e3919061263e565b9150600a856117f2919061280a565b60306117fe91906125b7565b60f81b818381518110611814576118136128c8565b5b60200101907effffffffffffffffffffffffffffffffffffffffffffffffffffffffffffff1916908160001a905350600a85611850919061260d565b94506117ce565b8093505050505b919050565b505050565b505050565b600061188e8473ffffffffffffffffffffffffffffffffffffffff16611a04565b156119f7578373ffffffffffffffffffffffffffffffffffffffff1663150b7a026118b7610f42565b8786866040518563ffffffff1660e01b81526004016118d99493929190612217565b602060405180830381600087803b1580156118f357600080fd5b505af192505050801561192457506040513d601f19601f820116820180604052508101906119219190611e03565b60015b6119a7573d8060008114611954576040519150601f19603f3d011682016040523d82523d6000602084013e611959565b606091505b5060008151141561199f576040517f08c379a0000000000000000000000000000000000000000000000000000000008152600401611996906122f2565b60405180910390fd5b805181602001fd5b63150b7a0260e01b7bffffffffffffffffffffffffffffffffffffffffffffffffffffffff1916817bffffffffffffffffffffffffffffffffffffffffffffffffffffffff1916149150506119fc565b600190505b949350505050565b6000808273ffffffffffffffffffffffffffffffffffffffff163b119050919050565b828054611a339061275e565b90600052602060002090601f016020900481019282611a555760008555611a9c565b82601f10611a6e57805160ff1916838001178555611a9c565b82800160010185558215611a9c579182015b82811115611a9b578251825591602001919060010190611a80565b5b509050611aa99190611aad565b5090565b5b80821115611ac6576000816000905550600101611aae565b5090565b6000611add611ad884612512565b6124ed565b905082815260208101848484011115611af957611af861292b565b5b611b0484828561271c565b509392505050565b6000611b1f611b1a84612543565b6124ed565b905082815260208101848484011115611b3b57611b3a61292b565b5b611b4684828561271c565b509392505050565b600081359050611b5d81612d54565b92915050565b600081359050611b7281612d6b565b92915050565b600081359050611b8781612d82565b92915050565b600081519050611b9c81612d82565b92915050565b600082601f830112611bb757611bb6612926565b5b8135611bc7848260208601611aca565b91505092915050565b600082601f830112611be557611be4612926565b5b8135611bf5848260208601611b0c565b91505092915050565b600081359050611c0d81612d99565b92915050565b600060208284031215611c2957611c28612935565b5b6000611c3784828501611b4e565b91505092915050565b60008060408385031215611c5757611c56612935565b5b6000611c6585828601611b4e565b9250506020611c7685828601611b4e565b9150509250929050565b600080600060608486031215611c9957611c98612935565b5b6000611ca786828701611b4e565b9350506020611cb886828701611b4e565b9250506040611cc986828701611bfe565b9150509250925092565b60008060008060808587031215611ced57611cec612935565b5b6000611cfb87828801611b4e565b9450506020611d0c87828801611b4e565b9350506040611d1d87828801611bfe565b925050606085013567ffffffffffffffff811115611d3e57611d3d612930565b5b611d4a87828801611ba2565b91505092959194509250565b60008060408385031215611d6d57611d6c612935565b5b6000611d7b85828601611b4e565b9250506020611d8c85828601611b63565b9150509250929050565b60008060408385031215611dad57611dac612935565b5b6000611dbb85828601611b4e565b9250506020611dcc85828601611bfe565b9150509250929050565b600060208284031215611dec57611deb612935565b5b6000611dfa84828501611b78565b91505092915050565b600060208284031215611e1957611e18612935565b5b6000611e2784828501611b8d565b91505092915050565b60008060408385031215611e4757611e46612935565b5b600083013567ffffffffffffffff811115611e6557611e64612930565b5b611e7185828601611bd0565b925050602083013567ffffffffffffffff811115611e9257611e91612930565b5b611e9e85828601611bd0565b9150509250929050565b600060208284031215611ebe57611ebd612935565b5b6000611ecc84828501611bfe565b91505092915050565b611ede81612672565b82525050565b611eed81612684565b82525050565b6000611efe82612574565b611f08818561258a565b9350611f1881856020860161272b565b611f218161293a565b840191505092915050565b611f35816126e6565b82525050565b6000611f468261257f565b611f50818561259b565b9350611f6081856020860161272b565b611f698161293a565b840191505092915050565b6000611f7f8261257f565b611f8981856125ac565b9350611f9981856020860161272b565b80840191505092915050565b6000611fb260328361259b565b9150611fbd8261294b565b604082019050919050565b6000611fd560258361259b565b9150611fe08261299a565b604082019050919050565b6000611ff8601c8361259b565b9150612003826129e9565b602082019050919050565b600061201b60248361259b565b915061202682612a12565b604082019050919050565b600061203e60198361259b565b915061204982612a61565b602082019050919050565b6000612061602c8361259b565b915061206c82612a8a565b604082019050919050565b600061208460388361259b565b915061208f82612ad9565b604082019050919050565b60006120a7602a8361259b565b91506120b282612b28565b604082019050919050565b60006120ca60298361259b565b91506120d582612b77565b604082019050919050565b60006120ed60158361259b565b91506120f882612bc6565b602082019050919050565b600061211060208361259b565b915061211b82612bef565b602082019050919050565b6000612133602c8361259b565b915061213e82612c18565b604082019050919050565b6000612156602f8361259b565b915061216182612c67565b604082019050919050565b600061217960218361259b565b915061218482612cb6565b604082019050919050565b600061219c60318361259b565b91506121a782612d05565b604082019050919050565b6121bb816126dc565b82525050565b60006121cd8284611f74565b915081905092915050565b60006121e48285611f74565b91506121f08284611f74565b91508190509392505050565b60006020820190506122116000830184611ed5565b92915050565b600060808201905061222c6000830187611ed5565b6122396020830186611ed5565b61224660408301856121b2565b81810360608301526122588184611ef3565b905095945050505050565b60006020820190506122786000830184611ee4565b92915050565b60006020820190506122936000830184611f2c565b92915050565b600060208201905081810360008301526122b38184611f3b565b905092915050565b600060408201905081810360008301526122d58185611f3b565b905081810360208301526122e98184611f3b565b90509392505050565b6000602082019050818103600083015261230b81611fa5565b9050919050565b6000602082019050818103600083015261232b81611fc8565b9050919050565b6000602082019050818103600083015261234b81611feb565b9050919050565b6000602082019050818103600083015261236b8161200e565b9050919050565b6000602082019050818103600083015261238b81612031565b9050919050565b600060208201905081810360008301526123ab81612054565b9050919050565b600060208201905081810360008301526123cb81612077565b9050919050565b600060208201905081810360008301526123eb8161209a565b9050919050565b6000602082019050818103600083015261240b816120bd565b9050919050565b6000602082019050818103600083015261242b816120e0565b9050919050565b6000602082019050818103600083015261244b81612103565b9050919050565b6000602082019050818103600083015261246b81612126565b9050919050565b6000602082019050818103600083015261248b81612149565b9050919050565b600060208201905081810360008301526124ab8161216c565b9050919050565b600060208201905081810360008301526124cb8161218f565b9050919050565b60006020820190506124e760008301846121b2565b92915050565b60006124f7612508565b90506125038282612790565b919050565b6000604051905090565b600067ffffffffffffffff82111561252d5761252c6128f7565b5b6125368261293a565b9050602081019050919050565b600067ffffffffffffffff82111561255e5761255d6128f7565b5b6125678261293a565b9050602081019050919050565b600081519050919050565b600081519050919050565b600082825260208201905092915050565b600082825260208201905092915050565b600081905092915050565b60006125c2826126dc565b91506125cd836126dc565b9250827fffffffffffffffffffffffffffffffffffffffffffffffffffffffffffffffff038211156126025761260161283b565b5b828201905092915050565b6000612618826126dc565b9150612623836126dc565b9250826126335761263261286a565b5b828204905092915050565b6000612649826126dc565b9150612654836126dc565b9250828210156126675761266661283b565b5b828203905092915050565b600061267d826126bc565b9050919050565b60008115159050919050565b60007fffffffff0000000000000000000000000000000000000000000000000000000082169050919050565b600073ffffffffffffffffffffffffffffffffffffffff82169050919050565b6000819050919050565b60006126f1826126f8565b9050919050565b60006127038261270a565b9050919050565b6000612715826126bc565b9050919050565b82818337600083830152505050565b60005b8381101561274957808201518184015260208101905061272e565b83811115612758576000848401525b50505050565b6000600282049050600182168061277657607f821691505b6020821081141561278a57612789612899565b5b50919050565b6127998261293a565b810181811067ffffffffffffffff821117156127b8576127b76128f7565b5b80604052505050565b60006127cc826126dc565b91507fffffffffffffffffffffffffffffffffffffffffffffffffffffffffffffffff8214156127ff576127fe61283b565b5b600182019050919050565b6000612815826126dc565b9150612820836126dc565b9250826128305761282f61286a565b5b828206905092915050565b7f4e487b7100000000000000000000000000000000000000000000000000000000600052601160045260246000fd5b7f4e487b7100000000000000000000000000000000000000000000000000000000600052601260045260246000fd5b7f4e487b7100000000000000000000000000000000000000000000000000000000600052602260045260246000fd5b7f4e487b7100000000000000000000000000000000000000000000000000000000600052603260045260246000fd5b7f4e487b7100000000000000000000000000000000000000000000000000000000600052604160045260246000fd5b600080fd5b600080fd5b600080fd5b600080fd5b6000601f19601f8301169050919050565b7f4552433732313a207472616e7366657220746f206e6f6e20455243373231526560008201527f63656976657220696d706c656d656e7465720000000000000000000000000000602082015250565b7f4552433732313a207472616e736665722066726f6d20696e636f72726563742060008201527f6f776e6572000000000000000000000000000000000000000000000000000000602082015250565b7f4552433732313a20746f6b656e20616c7265616479206d696e74656400000000600082015250565b7f4552433732313a207472616e7366657220746f20746865207a65726f2061646460008201527f7265737300000000000000000000000000000000000000000000000000000000602082015250565b7f4552433732313a20617070726f766520746f2063616c6c657200000000000000600082015250565b7f4552433732313a206f70657261746f7220717565727920666f72206e6f6e657860008201527f697374656e7420746f6b656e0000000000000000000000000000000000000000602082015250565b7f4552433732313a20617070726f76652063616c6c6572206973206e6f74206f7760008201527f6e6572206e6f7220617070726f76656420666f7220616c6c0000000000000000602082015250565b7f4552433732313a2062616c616e636520717565727920666f7220746865207a6560008201527f726f206164647265737300000000000000000000000000000000000000000000602082015250565b7f4552433732313a206f776e657220717565727920666f72206e6f6e657869737460008201527f656e7420746f6b656e0000000000000000000000000000000000000000000000602082015250565b7f546f6b656e20616c7265616479206578697374732e0000000000000000000000600082015250565b7f4552433732313a206d696e7420746f20746865207a65726f2061646472657373600082015250565b7f4552433732313a20617070726f76656420717565727920666f72206e6f6e657860008201527f697374656e7420746f6b656e0000000000000000000000000000000000000000602082015250565b7f4552433732314d657461646174613a2055524920717565727920666f72206e6f60008201527f6e6578697374656e7420746f6b656e0000000000000000000000000000000000602082015250565b7f4552433732313a20617070726f76616c20746f2063757272656e74206f776e6560008201527f7200000000000000000000000000000000000000000000000000000000000000602082015250565b7f4552433732313a207472616e736665722063616c6c6572206973206e6f74206f60008201527f776e6572206e6f7220617070726f766564000000000000000000000000000000602082015250565b612d5d81612672565b8114612d6857600080fd5b50565b612d7481612684565b8114612d7f57600080fd5b50565b612d8b81612690565b8114612d9657600080fd5b50565b612da2816126dc565b8114612dad57600080fd5b5056fea2646970667358221220fcc66657d16ede88d7a287ea98a3af94a9af586b1b04a8b9dc02d4e73d2ea7c464736f6c63430008070033",
  "immutableReferences": {},
  "source": "pragma solidity ^0.8.0;\n\nimport \"../node_modules/@openzeppelin/contracts/token/ERC721/ERC721.sol\";\nimport \"./Moz.sol\";\n\ncontract Shred is ERC721 {\n    Moz public mozContract;\n    uint256 constant b = 3; // 1 Moz bar for 10 bags of shredded Moz\n\n    string[] public mozBars;\n    string[] public mozBags;\n\n    mapping(string => string) mozBagData;\n    // mapping(string => bool) mozBars; // stores burned moz bars\n    mapping(string => bool) mozBagExists;\n\n    event NewTokenMinted(string tokenid);\n\n    constructor(Moz _mozContract) public ERC721(\"Shredded Mozarrella\", \"SMOZ\") {\n        mozContract = _mozContract;\n    }\n\n    function mint(string memory _tokenid, string memory _metadata) public {\n        require(!mozBagExists[_tokenid], \"Token already exists.\");\n        mozBags.push(_tokenid);\n        uint256 id = mozBags.length;\n        _mint(msg.sender, id);\n        mozBagData[_tokenid] = _metadata;\n        mozBagExists[_tokenid] = true;\n\n        emit NewTokenMinted(_tokenid);\n    }\n\n    function updateMoz(string memory _tokenid, string memory _metadata) public {\n        mozContract.update(_tokenid, _metadata);\n    }\n\n    // shred takes the ids and metadata of all bags of mozzarella that are created from the mozzarella bar\n    // to do: shred-burn can't be called due to owner address difference\n    // function shred(\n    //     // string memory _mozId,\n    //     string[b] memory _mozBagIds,\n    //     string[b] memory _metadata\n    // ) public {\n    //     // burn a Moz token\n    //     require(mozContract.tokenExists(_mozId), \"Invalid moz bar id.\");\n    //     require(\n    //         mozContract.ownerOf(mozContract.tokenIdentifier(_mozId)) !=\n    //             address(0),\n    //         \"Moz bar already shredded.\"\n    //     );\n    //     mozContract.burn(_mozId);\n\n    //     // mint b bags of shredded mozzarella\n    //     uint256 n = mozBars.length;\n    //     for (uint256 i = n * b; i < (n + 1) * b; i++) {\n    //         mint(_mozBagIds[i], _metadata[i]);\n    //     }\n    // }\n}\n",
  "sourcePath": "/home/yih/Documents/dev/privnet/tokencontract/contracts/Shred.sol",
  "compiler": {
    "name": "solc",
    "version": "0.8.7+commit.e28d00a7.Emscripten.clang"
  },
  "schemaVersion": "3.4.1",
  "updatedAt": "2022-03-03T23:31:52.741Z",
  "devdoc": {
    "kind": "dev",
    "methods": {
      "approve(address,uint256)": {
        "details": "See {IERC721-approve}."
      },
      "balanceOf(address)": {
        "details": "See {IERC721-balanceOf}."
      },
      "getApproved(uint256)": {
        "details": "See {IERC721-getApproved}."
      },
      "isApprovedForAll(address,address)": {
        "details": "See {IERC721-isApprovedForAll}."
      },
      "name()": {
        "details": "See {IERC721Metadata-name}."
      },
      "ownerOf(uint256)": {
        "details": "See {IERC721-ownerOf}."
      },
      "safeTransferFrom(address,address,uint256)": {
        "details": "See {IERC721-safeTransferFrom}."
      },
      "safeTransferFrom(address,address,uint256,bytes)": {
        "details": "See {IERC721-safeTransferFrom}."
      },
      "setApprovalForAll(address,bool)": {
        "details": "See {IERC721-setApprovalForAll}."
      },
      "supportsInterface(bytes4)": {
        "details": "See {IERC165-supportsInterface}."
      },
      "symbol()": {
        "details": "See {IERC721Metadata-symbol}."
      },
      "tokenURI(uint256)": {
        "details": "See {IERC721Metadata-tokenURI}."
      },
      "transferFrom(address,address,uint256)": {
        "details": "See {IERC721-transferFrom}."
      }
    },
    "version": 1
  },
  "userdoc": {
    "kind": "user",
    "methods": {},
    "version": 1
  }
}